{"abi":[{"type":"function","name":"UPGRADE_INTERFACE_VERSION","inputs":[],"outputs":[{"name":"","type":"string","internalType":"string"}],"stateMutability":"view"},{"type":"function","name":"acceptNomination","inputs":[{"name":"_name","type":"string","internalType":"string"},{"name":"_bio","type":"string","internalType":"string"}],"outputs":[],"stateMutability":"nonpayable"},{"type":"function","name":"balanceOf","inputs":[{"name":"account","type":"address","internalType":"address"},{"name":"id","type":"uint256","internalType":"uint256"}],"outputs":[{"name":"","type":"uint256","internalType":"uint256"}],"stateMutability":"view"},{"type":"function","name":"balanceOfBatch","inputs":[{"name":"accounts","type":"address[]","internalType":"address[]"},{"name":"ids","type":"uint256[]","internalType":"uint256[]"}],"outputs":[{"name":"","type":"uint256[]","internalType":"uint256[]"}],"stateMutability":"view"},{"type":"function","name":"contractURI","inputs":[],"outputs":[{"name":"","type":"string","internalType":"string"}],"stateMutability":"view"},{"type":"function","name":"deregisterArtist","inputs":[{"name":"_artistId","type":"uint256","internalType":"uint256"}],"outputs":[],"stateMutability":"nonpayable"},{"type":"function","name":"getArtist","inputs":[{"name":"artistAddress","type":"address","internalType":"address"}],"outputs":[{"name":"name","type":"string","internalType":"string"},{"name":"bio","type":"string","internalType":"string"},{"name":"wallet","type":"address","internalType":"address"}],"stateMutability":"view"},{"type":"function","name":"initialize","inputs":[{"name":"initialOwner","type":"address","internalType":"address"},{"name":"_referralModuleAddress","type":"address","internalType":"address"}],"outputs":[],"stateMutability":"nonpayable"},{"type":"function","name":"isApprovedForAll","inputs":[{"name":"account","type":"address","internalType":"address"},{"name":"operator","type":"address","internalType":"address"}],"outputs":[{"name":"","type":"bool","internalType":"bool"}],"stateMutability":"view"},{"type":"function","name":"isArtistRegistered","inputs":[{"name":"artistAddress","type":"address","internalType":"address"}],"outputs":[{"name":"isRegistered","type":"bool","internalType":"bool"}],"stateMutability":"view"},{"type":"function","name":"nominate","inputs":[{"name":"nominee","type":"address","internalType":"address"}],"outputs":[],"stateMutability":"nonpayable"},{"type":"function","name":"nominatedArtists","inputs":[{"name":"","type":"address","internalType":"address"}],"outputs":[{"name":"","type":"bool","internalType":"bool"}],"stateMutability":"view"},{"type":"function","name":"owner","inputs":[],"outputs":[{"name":"","type":"address","internalType":"address"}],"stateMutability":"view"},{"type":"function","name":"proxiableUUID","inputs":[],"outputs":[{"name":"","type":"bytes32","internalType":"bytes32"}],"stateMutability":"view"},{"type":"function","name":"renounceOwnership","inputs":[],"outputs":[],"stateMutability":"nonpayable"},{"type":"function","name":"safeBatchTransferFrom","inputs":[{"name":"from","type":"address","internalType":"address"},{"name":"to","type":"address","internalType":"address"},{"name":"ids","type":"uint256[]","internalType":"uint256[]"},{"name":"values","type":"uint256[]","internalType":"uint256[]"},{"name":"data","type":"bytes","internalType":"bytes"}],"outputs":[],"stateMutability":"nonpayable"},{"type":"function","name":"safeTransferFrom","inputs":[{"name":"from","type":"address","internalType":"address"},{"name":"to","type":"address","internalType":"address"},{"name":"id","type":"uint256","internalType":"uint256"},{"name":"value","type":"uint256","internalType":"uint256"},{"name":"data","type":"bytes","internalType":"bytes"}],"outputs":[],"stateMutability":"nonpayable"},{"type":"function","name":"setApprovalForAll","inputs":[{"name":"operator","type":"address","internalType":"address"},{"name":"approved","type":"bool","internalType":"bool"}],"outputs":[],"stateMutability":"nonpayable"},{"type":"function","name":"setContractURI","inputs":[{"name":"newURI","type":"string","internalType":"string"}],"outputs":[],"stateMutability":"nonpayable"},{"type":"function","name":"setTokenURI","inputs":[{"name":"tokenId","type":"uint256","internalType":"uint256"},{"name":"newURI","type":"string","internalType":"string"}],"outputs":[],"stateMutability":"nonpayable"},{"type":"function","name":"supportsInterface","inputs":[{"name":"interfaceId","type":"bytes4","internalType":"bytes4"}],"outputs":[{"name":"","type":"bool","internalType":"bool"}],"stateMutability":"view"},{"type":"function","name":"transferOwnership","inputs":[{"name":"newOwner","type":"address","internalType":"address"}],"outputs":[],"stateMutability":"nonpayable"},{"type":"function","name":"updateArtist","inputs":[{"name":"_artistId","type":"uint256","internalType":"uint256"},{"name":"_name","type":"string","internalType":"string"},{"name":"_bio","type":"string","internalType":"string"},{"name":"_wallet","type":"address","internalType":"address"}],"outputs":[],"stateMutability":"nonpayable"},{"type":"function","name":"upgradeToAndCall","inputs":[{"name":"newImplementation","type":"address","internalType":"address"},{"name":"data","type":"bytes","internalType":"bytes"}],"outputs":[],"stateMutability":"payable"},{"type":"function","name":"uri","inputs":[{"name":"tokenId","type":"uint256","internalType":"uint256"}],"outputs":[{"name":"","type":"string","internalType":"string"}],"stateMutability":"view"},{"type":"event","name":"ApprovalForAll","inputs":[{"name":"account","type":"address","indexed":true,"internalType":"address"},{"name":"operator","type":"address","indexed":true,"internalType":"address"},{"name":"approved","type":"bool","indexed":false,"internalType":"bool"}],"anonymous":false},{"type":"event","name":"ArtistAccepted","inputs":[{"name":"artistId","type":"uint256","indexed":true,"internalType":"uint256"},{"name":"artistAddress","type":"address","indexed":false,"internalType":"address"}],"anonymous":false},{"type":"event","name":"ArtistDeregistered","inputs":[{"name":"artistId","type":"uint256","indexed":true,"internalType":"uint256"}],"anonymous":false},{"type":"event","name":"ArtistNominated","inputs":[{"name":"nominee","type":"address","indexed":true,"internalType":"address"}],"anonymous":false},{"type":"event","name":"ArtistRegistered","inputs":[{"name":"artistId","type":"uint256","indexed":true,"internalType":"uint256"},{"name":"name","type":"string","indexed":false,"internalType":"string"},{"name":"wallet","type":"address","indexed":false,"internalType":"address"}],"anonymous":false},{"type":"event","name":"ArtistUpdated","inputs":[{"name":"artistId","type":"uint256","indexed":true,"internalType":"uint256"},{"name":"name","type":"string","indexed":false,"internalType":"string"},{"name":"bio","type":"string","indexed":false,"internalType":"string"},{"name":"wallet","type":"address","indexed":false,"internalType":"address"}],"anonymous":false},{"type":"event","name":"ArtistWaitlisted","inputs":[{"name":"artist","type":"address","indexed":true,"internalType":"address"}],"anonymous":false},{"type":"event","name":"Initialized","inputs":[{"name":"version","type":"uint64","indexed":false,"internalType":"uint64"}],"anonymous":false},{"type":"event","name":"OwnershipTransferred","inputs":[{"name":"previousOwner","type":"address","indexed":true,"internalType":"address"},{"name":"newOwner","type":"address","indexed":true,"internalType":"address"}],"anonymous":false},{"type":"event","name":"TransferBatch","inputs":[{"name":"operator","type":"address","indexed":true,"internalType":"address"},{"name":"from","type":"address","indexed":true,"internalType":"address"},{"name":"to","type":"address","indexed":true,"internalType":"address"},{"name":"ids","type":"uint256[]","indexed":false,"internalType":"uint256[]"},{"name":"values","type":"uint256[]","indexed":false,"internalType":"uint256[]"}],"anonymous":false},{"type":"event","name":"TransferSingle","inputs":[{"name":"operator","type":"address","indexed":true,"internalType":"address"},{"name":"from","type":"address","indexed":true,"internalType":"address"},{"name":"to","type":"address","indexed":true,"internalType":"address"},{"name":"id","type":"uint256","indexed":false,"internalType":"uint256"},{"name":"value","type":"uint256","indexed":false,"internalType":"uint256"}],"anonymous":false},{"type":"event","name":"URI","inputs":[{"name":"value","type":"string","indexed":false,"internalType":"string"},{"name":"id","type":"uint256","indexed":true,"internalType":"uint256"}],"anonymous":false},{"type":"event","name":"Upgraded","inputs":[{"name":"implementation","type":"address","indexed":true,"internalType":"address"}],"anonymous":false},{"type":"event","name":"contractURIUpdated","inputs":[{"name":"newURI","type":"string","indexed":false,"internalType":"string"}],"anonymous":false},{"type":"event","name":"tokenURIUpdated","inputs":[{"name":"newURI","type":"string","indexed":false,"internalType":"string"},{"name":"tokenId","type":"uint256","indexed":false,"internalType":"uint256"}],"anonymous":false},{"type":"error","name":"AddressEmptyCode","inputs":[{"name":"target","type":"address","internalType":"address"}]},{"type":"error","name":"ERC1155InsufficientBalance","inputs":[{"name":"sender","type":"address","internalType":"address"},{"name":"balance","type":"uint256","internalType":"uint256"},{"name":"needed","type":"uint256","internalType":"uint256"},{"name":"tokenId","type":"uint256","internalType":"uint256"}]},{"type":"error","name":"ERC1155InvalidApprover","inputs":[{"name":"approver","type":"address","internalType":"address"}]},{"type":"error","name":"ERC1155InvalidArrayLength","inputs":[{"name":"idsLength","type":"uint256","internalType":"uint256"},{"name":"valuesLength","type":"uint256","internalType":"uint256"}]},{"type":"error","name":"ERC1155InvalidOperator","inputs":[{"name":"operator","type":"address","internalType":"address"}]},{"type":"error","name":"ERC1155InvalidReceiver","inputs":[{"name":"receiver","type":"address","internalType":"address"}]},{"type":"error","name":"ERC1155InvalidSender","inputs":[{"name":"sender","type":"address","internalType":"address"}]},{"type":"error","name":"ERC1155MissingApprovalForAll","inputs":[{"name":"operator","type":"address","internalType":"address"},{"name":"owner","type":"address","internalType":"address"}]},{"type":"error","name":"ERC1967InvalidImplementation","inputs":[{"name":"implementation","type":"address","internalType":"address"}]},{"type":"error","name":"ERC1967NonPayable","inputs":[]},{"type":"error","name":"FailedInnerCall","inputs":[]},{"type":"error","name":"InvalidInitialization","inputs":[]},{"type":"error","name":"NotInitializing","inputs":[]},{"type":"error","name":"OwnableInvalidOwner","inputs":[{"name":"owner","type":"address","internalType":"address"}]},{"type":"error","name":"OwnableUnauthorizedAccount","inputs":[{"name":"account","type":"address","internalType":"address"}]},{"type":"error","name":"UUPSUnauthorizedCallContext","inputs":[]},{"type":"error","name":"UUPSUnsupportedProxiableUUID","inputs":[{"name":"slot","type":"bytes32","internalType":"bytes32"}]}],"bytecode":{"object":"0x60a06040523060805234801561001457600080fd5b50608051612bd561003e6000396000818161147b015281816114a401526115ea0152612bd56000f3fe6080604052600436106101655760003560e01c806365f91e6d116100d1578063b332180b1161008a578063e8a3d48511610064578063e8a3d48514610463578063e985e9c514610478578063f242432a14610498578063f2fde38b146104b857600080fd5b8063b332180b146103f4578063b949c80414610414578063c8450ef41461044357600080fd5b806365f91e6d14610321578063715018a6146103415780638da5cb5b14610356578063938e3d7b14610383578063a22cb465146103a3578063ad3cb1cc146103c357600080fd5b80632eb2c2d6116101235780632eb2c2d61461026c578063485cc9551461028c5780634e1273f4146102ac5780634f1ef286146102d957806352d1902d146102ec57806364fd28861461030157600080fd5b8062fdd58e1461016a57806301ffc9a71461019d57806305b47919146101cd5780630e89341c146101ef578063162094c41461021c5780631fc656731461023c575b600080fd5b34801561017657600080fd5b5061018a610185366004612156565b6104d8565b6040519081526020015b60405180910390f35b3480156101a957600080fd5b506101bd6101b8366004612196565b61050f565b6040519015158152602001610194565b3480156101d957600080fd5b506101ed6101e8366004612268565b61055f565b005b3480156101fb57600080fd5b5061020f61020a3660046122e5565b61066d565b604051610194919061234e565b34801561022857600080fd5b506101ed610237366004612361565b61072b565b34801561024857600080fd5b506101bd6102573660046123a7565b60026020526000908152604090205460ff1681565b34801561027857600080fd5b506101ed610287366004612450565b61081b565b34801561029857600080fd5b506101ed6102a73660046124f9565b610882565b3480156102b857600080fd5b506102cc6102c736600461252c565b6109d5565b604051610194919061261c565b6101ed6102e736600461262f565b610aa9565b3480156102f857600080fd5b5061018a610ac8565b34801561030d57600080fd5b506101bd61031c3660046123a7565b610ae5565b34801561032d57600080fd5b506101ed61033c3660046122e5565b610b30565b34801561034d57600080fd5b506101ed610c09565b34801561036257600080fd5b5061036b610c1d565b6040516001600160a01b039091168152602001610194565b34801561038f57600080fd5b506101ed61039e366004612666565b610c4b565b3480156103af57600080fd5b506101ed6103be3660046126a2565b610cfa565b3480156103cf57600080fd5b5061020f604051806040016040528060058152602001640352e302e360dc1b81525081565b34801561040057600080fd5b506101ed61040f3660046123a7565b610d05565b34801561042057600080fd5b5061043461042f3660046123a7565b610f1f565b604051610194939291906126de565b34801561044f57600080fd5b506101ed61045e36600461271c565b6110ee565b34801561046f57600080fd5b5061020f61119e565b34801561048457600080fd5b506101bd6104933660046124f9565b611230565b3480156104a457600080fd5b506101ed6104b3366004612775565b61127d565b3480156104c457600080fd5b506101ed6104d33660046123a7565b6112dc565b6000818152600080516020612b80833981519152602090815260408083206001600160a01b03861684529091529020545b92915050565b60006001600160e01b03198216636cdb3d1360e11b148061054057506001600160e01b031982166303a24d0760e21b145b8061050957506301ffc9a760e01b6001600160e01b0319831614610509565b600354841115801561058a57506000848152602081905260409020600201546001600160a01b031633145b6105ca5760405162461bcd60e51b815260206004820152600c60248201526b155b985d5d1a1bdc9a5e995960a21b60448201526064015b60405180910390fd5b60008481526020819052604090206105e28482612859565b5060008481526020819052604090206001016105fe8382612859565b506000848152602081905260409081902060020180546001600160a01b0319166001600160a01b0384161790555184907f93c1b7d53c3ea701fc058d4fa50c893d607c08afaceefa2ac1b2846b0d5e7dea9061065f908690869086906126de565b60405180910390a250505050565b60008181526005602052604081208054606092919061068b906127d9565b80601f01602080910402602001604051908101604052809291908181526020018280546106b7906127d9565b80156107045780601f106106d957610100808354040283529160200191610704565b820191906000526020600020905b8154815290600101906020018083116106e757829003601f168201915b5050505050905060008151111561071b5792915050565b6107248361131a565b9392505050565b610733610c1d565b6001600160a01b0316336001600160a01b0316148061076b57506000828152602081905260409020600201546001600160a01b031633145b6107c55760405162461bcd60e51b815260206004820152602560248201527f43616c6c6572206973206e6f7420746865206f776e6572206f722074686520616044820152641c9d1a5cdd60da1b60648201526084016105c1565b60008281526005602052604090206107dd8282612859565b507f69bf74d8e2557f16974db106e9451097ebe202794f859f8208ff05f826ffe9a4818360405161080f929190612918565b60405180910390a15050565b336001600160a01b038616811480159061083c575061083a8682611230565b155b1561086d5760405163711bec9160e11b81526001600160a01b038083166004830152871660248201526044016105c1565b61087a86868686866113df565b505050505050565b7ff0c57e16840df040f15088dc2f81fe391c3923bec73e23a9662efc9c229c6a008054600160401b810460ff1615906001600160401b03166000811580156108c75750825b90506000826001600160401b031660011480156108e35750303b155b9050811580156108f1575080155b1561090f5760405163f92ee8a960e01b815260040160405180910390fd5b845467ffffffffffffffff19166001178555831561093957845460ff60401b1916600160401b1785555b61095a6040518060600160405280602e8152602001612b32602e9139611446565b61096387611457565b61096b611468565b600480546001600160a01b0319166001600160a01b03881617905583156109cc57845460ff60401b19168555604051600181527fc7f505b2f371ae2175ee4913f4499e1f2633a7b5936321eed1cdaeb6115181d29060200160405180910390a15b50505050505050565b60608151835114610a065781518351604051635b05999160e01b8152600481019290925260248201526044016105c1565b600083516001600160401b03811115610a2157610a216121b3565b604051908082528060200260200182016040528015610a4a578160200160208202803683370190505b50905060005b8451811015610aa157602080820286010151610a74906020808402870101516104d8565b828281518110610a8657610a8661293a565b6020908102919091010152610a9a81612966565b9050610a50565b509392505050565b610ab1611470565b610aba82611515565b610ac4828261151d565b5050565b6000610ad26115df565b50600080516020612b6083398151915290565b6001600160a01b038116600090815260016020526040812054801580159061072457506000818152602081905260409020600201546001600160a01b03908116908416149392505050565b6003548111158015610b5b57506000818152602081905260409020600201546001600160a01b031633145b610b965760405162461bcd60e51b815260206004820152600c60248201526b155b985d5d1a1bdc9a5e995960a21b60448201526064016105c1565b610ba233826001611628565b600081815260208190526040812090610bbb82826120ec565b610bc96001830160006120ec565b5060020180546001600160a01b031916905560405181907f508aa18fe80cc3349fb880dc15451d171a92d429567a32db4bc488c1fb60429090600090a250565b610c11611690565b610c1b60006116c2565b565b7f9016d09d72d40fdae2fd8ceac6b6234c7706214fd39c1cd1e609a0528c199300546001600160a01b031690565b610c53610c1d565b6001600160a01b0316336001600160a01b031614610cb35760405162461bcd60e51b815260206004820152601760248201527f43616c6c6572206973206e6f7420746865206f776e657200000000000000000060448201526064016105c1565b6006610cbf8282612859565b507fec1b77d5180db946da43e2854d0f3991ac8565d3c6f927efd2fa44c16b36a4f881604051610cef919061234e565b60405180910390a150565b610ac4338383611733565b6001600160a01b03811660009081526002602052604090205460ff1615610d6e5760405162461bcd60e51b815260206004820152601960248201527f4e6f6d696e656520616c7265616479206e6f6d696e617465640000000000000060448201526064016105c1565b6001600160a01b03811660009081526001602052604090205415610dd45760405162461bcd60e51b815260206004820152601960248201527f4e6f6d696e656520616c726561647920616e206172746973740000000000000060448201526064016105c1565b60048054604051632615fb8360e21b815233928101929092526000916001600160a01b0390911690639857ee0c90602401606060405180830381865afa158015610e22573d6000803e3d6000fd5b505050506040513d601f19601f82011682018060405250810190610e46919061297f565b8051909150610ea35760405162461bcd60e51b8152602060048201526024808201527f496e73756666696369656e742061727469737420726566657272616c206372656044820152636469747360e01b60648201526084016105c1565b600480546040516321ceab3d60e01b815233928101929092526001602483015260006044830181905260648301526001600160a01b0316906321ceab3d90608401600060405180830381600087803b158015610efe57600080fd5b505af1158015610f12573d6000803e3d6000fd5b50505050610ac4826117db565b6001600160a01b0381166000908152600160205260408120546060918291808203610f845760405162461bcd60e51b8152602060048201526015602482015274105c9d1a5cdd08191bd95cc81b9bdd08195e1a5cdd605a1b60448201526064016105c1565b600081815260208190526040808220815160608101909252805482908290610fab906127d9565b80601f0160208091040260200160405190810160405280929190818152602001828054610fd7906127d9565b80156110245780601f10610ff957610100808354040283529160200191611024565b820191906000526020600020905b81548152906001019060200180831161100757829003601f168201915b5050505050815260200160018201805461103d906127d9565b80601f0160208091040260200160405190810160405280929190818152602001828054611069906127d9565b80156110b65780601f1061108b576101008083540402835291602001916110b6565b820191906000526020600020905b81548152906001019060200180831161109957829003601f168201915b5050509183525050600291909101546001600160a01b0316602091820152815190820151604090920151909891975095509350505050565b3360009081526002602052604090205460ff166111435760405162461bcd60e51b8152602060048201526013602482015272139bc81b9bdb5a5b985d1a5bdb88199bdd5b99606a1b60448201526064016105c1565b336000908152600260205260409020805460ff191690556111648282611827565b6003546040513381527f0eda72f82c1fa8453a960937d93f72d67182387192305305b705b1b94c4b77f69060200160405180910390a25050565b6060600680546111ad906127d9565b80601f01602080910402602001604051908101604052809291908181526020018280546111d9906127d9565b80156112265780601f106111fb57610100808354040283529160200191611226565b820191906000526020600020905b81548152906001019060200180831161120957829003601f168201915b5050505050905090565b6001600160a01b0391821660009081527f88be536d5240c274a3b1d3a1be54482fd9caa294f08c62a7cde569f49a3c45016020908152604080832093909416825291909152205460ff1690565b336001600160a01b038616811480159061129e575061129c8682611230565b155b156112cf5760405163711bec9160e11b81526001600160a01b038083166004830152871660248201526044016105c1565b61087a868686868661190f565b6112e4611690565b6001600160a01b03811661130e57604051631e4fbdf760e01b8152600060048201526024016105c1565b611317816116c2565b50565b7f88be536d5240c274a3b1d3a1be54482fd9caa294f08c62a7cde569f49a3c45028054606091600080516020612b8083398151915291611359906127d9565b80601f0160208091040260200160405190810160405280929190818152602001828054611385906127d9565b80156113d25780601f106113a7576101008083540402835291602001916113d2565b820191906000526020600020905b8154815290600101906020018083116113b557829003601f168201915b5050505050915050919050565b6001600160a01b03841661140957604051632bfa23e760e11b8152600060048201526024016105c1565b6001600160a01b03851661143257604051626a0d4560e21b8152600060048201526024016105c1565b61143f8585858585611990565b5050505050565b61144e6119e3565b61131781611a2c565b61145f6119e3565b61131781611a3d565b610c1b6119e3565b306001600160a01b037f00000000000000000000000000000000000000000000000000000000000000001614806114f757507f00000000000000000000000000000000000000000000000000000000000000006001600160a01b03166114eb600080516020612b60833981519152546001600160a01b031690565b6001600160a01b031614155b15610c1b5760405163703e46dd60e11b815260040160405180910390fd5b611317611690565b816001600160a01b03166352d1902d6040518163ffffffff1660e01b8152600401602060405180830381865afa925050508015611577575060408051601f3d908101601f19168201909252611574918101906129da565b60015b61159f57604051634c9c8ce360e01b81526001600160a01b03831660048201526024016105c1565b600080516020612b6083398151915281146115d057604051632a87526960e21b8152600481018290526024016105c1565b6115da8383611a45565b505050565b306001600160a01b037f00000000000000000000000000000000000000000000000000000000000000001614610c1b5760405163703e46dd60e11b815260040160405180910390fd5b6001600160a01b03831661165157604051626a0d4560e21b8152600060048201526024016105c1565b604080516001808252602082018590528183019081526060820184905260a0820190925260006080820181815291929161143f91879185908590611990565b33611699610c1d565b6001600160a01b031614610c1b5760405163118cdaa760e01b81523360048201526024016105c1565b7f9016d09d72d40fdae2fd8ceac6b6234c7706214fd39c1cd1e609a0528c19930080546001600160a01b031981166001600160a01b03848116918217845560405192169182907f8be0079c531659141344cd1fd0a4f28419497f9722a3daafe3b4186f6b6457e090600090a3505050565b600080516020612b808339815191526001600160a01b03831661176b5760405162ced3e160e81b8152600060048201526024016105c1565b6001600160a01b038481166000818152600184016020908152604080832094881680845294825291829020805460ff191687151590811790915591519182527f17307eab39ab6107e8899845ad3d59bd9653f200f220920489ca2b5937696c31910160405180910390a350505050565b6001600160a01b038116600081815260026020526040808220805460ff19166001179055517f1a74f3f80bcaac073ea380f49aa827c080f5c11a913e921997350afd3b56dcd19190a250565b6003805490600061183783612966565b909155505060035460408051606081018252848152602080820185905233828401819052600085815291829052929020815181906118759082612859565b506020820151600182019061188a9082612859565b5060409182015160029190910180546001600160a01b0319166001600160a01b03928316179055821660009081526001602081815283832086905583519081019093529082526118dd9183918591611a9b565b817f8443301405f337e5d871773f81107fb07d77d5f08fd2a5c7157a9c89951268ab858360405161065f9291906129f3565b6001600160a01b03841661193957604051632bfa23e760e11b8152600060048201526024016105c1565b6001600160a01b03851661196257604051626a0d4560e21b8152600060048201526024016105c1565b604080516001808252602082018690528183019081526060820185905260808201909252906109cc87878484875b61199c85858585611af8565b6001600160a01b0384161561143f57825133906001036119d557602084810151908401516119ce838989858589611d26565b505061087a565b61087a818787878787611e4a565b7ff0c57e16840df040f15088dc2f81fe391c3923bec73e23a9662efc9c229c6a0054600160401b900460ff16610c1b57604051631afcd79f60e31b815260040160405180910390fd5b611a346119e3565b61131781611f33565b6112e46119e3565b611a4e82611f6d565b6040516001600160a01b038316907fbc7cd75a20ee27fd9adebab32041f755214dbc6bffa90cc0225b39da2e5c2d3b90600090a2805115611a93576115da8282611fd2565b610ac4612048565b6001600160a01b038416611ac557604051632bfa23e760e11b8152600060048201526024016105c1565b6040805160018082526020820186905281830190815260608201859052608082019092529061087a600087848487611990565b80518251600080516020612b808339815191529114611b375782518251604051635b05999160e01b8152600481019290925260248201526044016105c1565b3360005b8451811015611c46576020818102868101820151908601909101516001600160a01b03891615611bee576000828152602086815260408083206001600160a01b038d16845290915290205481811015611bc7576040516303dee4c560e01b81526001600160a01b038b1660048201526024810182905260448101839052606481018490526084016105c1565b6000838152602087815260408083206001600160a01b038e16845290915290209082900390555b6001600160a01b03881615611c33576000828152602086815260408083206001600160a01b038c16845290915281208054839290611c2d908490612a1d565b90915550505b505080611c3f90612966565b9050611b3b565b508351600103611cc75760208401516000906020850151909150866001600160a01b0316886001600160a01b0316846001600160a01b03167fc3d58168c5ae7397731d063d5bbf3d657854427343f4c083240f7aacaa2d0f628585604051611cb8929190918252602082015260400190565b60405180910390a4505061087a565b846001600160a01b0316866001600160a01b0316826001600160a01b03167f4a39dc06d4c0dbc64b70af90fd698a233a518aa5d07e595d983b8c0526c8f7fb8787604051611d16929190612a30565b60405180910390a4505050505050565b6001600160a01b0384163b1561087a5760405163f23a6e6160e01b81526001600160a01b0385169063f23a6e6190611d6a9089908990889088908890600401612a55565b6020604051808303816000875af1925050508015611da5575060408051601f3d908101601f19168201909252611da291810190612a9a565b60015b611e0e573d808015611dd3576040519150601f19603f3d011682016040523d82523d6000602084013e611dd8565b606091505b508051600003611e0657604051632bfa23e760e11b81526001600160a01b03861660048201526024016105c1565b805181602001fd5b6001600160e01b0319811663f23a6e6160e01b146109cc57604051632bfa23e760e11b81526001600160a01b03861660048201526024016105c1565b6001600160a01b0384163b1561087a5760405163bc197c8160e01b81526001600160a01b0385169063bc197c8190611e8e9089908990889088908890600401612ab7565b6020604051808303816000875af1925050508015611ec9575060408051601f3d908101601f19168201909252611ec691810190612a9a565b60015b611ef7573d808015611dd3576040519150601f19603f3d011682016040523d82523d6000602084013e611dd8565b6001600160e01b0319811663bc197c8160e01b146109cc57604051632bfa23e760e11b81526001600160a01b03861660048201526024016105c1565b600080516020612b808339815191527f88be536d5240c274a3b1d3a1be54482fd9caa294f08c62a7cde569f49a3c45026115da8382612859565b806001600160a01b03163b600003611fa357604051634c9c8ce360e01b81526001600160a01b03821660048201526024016105c1565b600080516020612b6083398151915280546001600160a01b0319166001600160a01b0392909216919091179055565b6060600080846001600160a01b031684604051611fef9190612b15565b600060405180830381855af49150503d806000811461202a576040519150601f19603f3d011682016040523d82523d6000602084013e61202f565b606091505b509150915061203f858383612067565b95945050505050565b3415610c1b5760405163b398979f60e01b815260040160405180910390fd5b60608261207c57612077826120c3565b610724565b815115801561209357506001600160a01b0384163b155b156120bc57604051639996b31560e01b81526001600160a01b03851660048201526024016105c1565b5092915050565b8051156120d35780518082602001fd5b604051630a12f52160e11b815260040160405180910390fd5b5080546120f8906127d9565b6000825580601f10612108575050565b601f01602090049060005260206000209081019061131791905b808211156121365760008155600101612122565b5090565b80356001600160a01b038116811461215157600080fd5b919050565b6000806040838503121561216957600080fd5b6121728361213a565b946020939093013593505050565b6001600160e01b03198116811461131757600080fd5b6000602082840312156121a857600080fd5b813561072481612180565b634e487b7160e01b600052604160045260246000fd5b604051601f8201601f191681016001600160401b03811182821017156121f1576121f16121b3565b604052919050565b600082601f83011261220a57600080fd5b81356001600160401b03811115612223576122236121b3565b612236601f8201601f19166020016121c9565b81815284602083860101111561224b57600080fd5b816020850160208301376000918101602001919091529392505050565b6000806000806080858703121561227e57600080fd5b8435935060208501356001600160401b038082111561229c57600080fd5b6122a8888389016121f9565b945060408701359150808211156122be57600080fd5b506122cb878288016121f9565b9250506122da6060860161213a565b905092959194509250565b6000602082840312156122f757600080fd5b5035919050565b60005b83811015612319578181015183820152602001612301565b50506000910152565b6000815180845261233a8160208601602086016122fe565b601f01601f19169290920160200192915050565b6020815260006107246020830184612322565b6000806040838503121561237457600080fd5b8235915060208301356001600160401b0381111561239157600080fd5b61239d858286016121f9565b9150509250929050565b6000602082840312156123b957600080fd5b6107248261213a565b60006001600160401b038211156123db576123db6121b3565b5060051b60200190565b600082601f8301126123f657600080fd5b8135602061240b612406836123c2565b6121c9565b82815260059290921b8401810191818101908684111561242a57600080fd5b8286015b84811015612445578035835291830191830161242e565b509695505050505050565b600080600080600060a0868803121561246857600080fd5b6124718661213a565b945061247f6020870161213a565b935060408601356001600160401b038082111561249b57600080fd5b6124a789838a016123e5565b945060608801359150808211156124bd57600080fd5b6124c989838a016123e5565b935060808801359150808211156124df57600080fd5b506124ec888289016121f9565b9150509295509295909350565b6000806040838503121561250c57600080fd5b6125158361213a565b91506125236020840161213a565b90509250929050565b6000806040838503121561253f57600080fd5b82356001600160401b038082111561255657600080fd5b818501915085601f83011261256a57600080fd5b8135602061257a612406836123c2565b82815260059290921b8401810191818101908984111561259957600080fd5b948201945b838610156125be576125af8661213a565b8252948201949082019061259e565b965050860135925050808211156125d457600080fd5b5061239d858286016123e5565b600081518084526020808501945080840160005b83811015612611578151875295820195908201906001016125f5565b509495945050505050565b60208152600061072460208301846125e1565b6000806040838503121561264257600080fd5b61264b8361213a565b915060208301356001600160401b0381111561239157600080fd5b60006020828403121561267857600080fd5b81356001600160401b0381111561268e57600080fd5b61269a848285016121f9565b949350505050565b600080604083850312156126b557600080fd5b6126be8361213a565b9150602083013580151581146126d357600080fd5b809150509250929050565b6060815260006126f16060830186612322565b82810360208401526127038186612322565b91505060018060a01b0383166040830152949350505050565b6000806040838503121561272f57600080fd5b82356001600160401b038082111561274657600080fd5b612752868387016121f9565b9350602085013591508082111561276857600080fd5b5061239d858286016121f9565b600080600080600060a0868803121561278d57600080fd5b6127968661213a565b94506127a46020870161213a565b9350604086013592506060860135915060808601356001600160401b038111156127cd57600080fd5b6124ec888289016121f9565b600181811c908216806127ed57607f821691505b60208210810361280d57634e487b7160e01b600052602260045260246000fd5b50919050565b601f8211156115da57600081815260208120601f850160051c8101602086101561283a5750805b601f850160051c820191505b8181101561087a57828155600101612846565b81516001600160401b03811115612872576128726121b3565b6128868161288084546127d9565b84612813565b602080601f8311600181146128bb57600084156128a35750858301515b600019600386901b1c1916600185901b17855561087a565b600085815260208120601f198616915b828110156128ea578886015182559484019460019091019084016128cb565b50858210156129085787850151600019600388901b60f8161c191681555b5050505050600190811b01905550565b60408152600061292b6040830185612322565b90508260208301529392505050565b634e487b7160e01b600052603260045260246000fd5b634e487b7160e01b600052601160045260246000fd5b60006001820161297857612978612950565b5060010190565b60006060828403121561299157600080fd5b604051606081018181106001600160401b03821117156129b3576129b36121b3565b80604052508251815260208301516020820152604083015160408201528091505092915050565b6000602082840312156129ec57600080fd5b5051919050565b604081526000612a066040830185612322565b905060018060a01b03831660208301529392505050565b8082018082111561050957610509612950565b604081526000612a4360408301856125e1565b828103602084015261203f81856125e1565b6001600160a01b03868116825285166020820152604081018490526060810183905260a060808201819052600090612a8f90830184612322565b979650505050505050565b600060208284031215612aac57600080fd5b815161072481612180565b6001600160a01b0386811682528516602082015260a060408201819052600090612ae3908301866125e1565b8281036060840152612af581866125e1565b90508281036080840152612b098185612322565b98975050505050505050565b60008251612b278184602087016122fe565b919091019291505056fe68747470733a2f2f6d657461646174612e73656c6c6f7574732e6170702f6172746973742f7b69647d2e6a736f6e360894a13ba1a3210667c828492db98dca3e2076cc3735a920a3ca505d382bbc88be536d5240c274a3b1d3a1be54482fd9caa294f08c62a7cde569f49a3c4500a2646970667358221220edb75ec4abf5f12e233ee1dbec1d38f1275f07ba0546f4d9c19dad8be2acc45c64736f6c63430008140033","linkReferences":{}},"methodIdentifiers":{"UPGRADE_INTERFACE_VERSION()":"ad3cb1cc","acceptNomination(string,string)":"c8450ef4","balanceOf(address,uint256)":"00fdd58e","balanceOfBatch(address[],uint256[])":"4e1273f4","contractURI()":"e8a3d485","deregisterArtist(uint256)":"65f91e6d","getArtist(address)":"b949c804","initialize(address,address)":"485cc955","isApprovedForAll(address,address)":"e985e9c5","isArtistRegistered(address)":"64fd2886","nominate(address)":"b332180b","nominatedArtists(address)":"1fc65673","owner()":"8da5cb5b","proxiableUUID()":"52d1902d","renounceOwnership()":"715018a6","safeBatchTransferFrom(address,address,uint256[],uint256[],bytes)":"2eb2c2d6","safeTransferFrom(address,address,uint256,uint256,bytes)":"f242432a","setApprovalForAll(address,bool)":"a22cb465","setContractURI(string)":"938e3d7b","setTokenURI(uint256,string)":"162094c4","supportsInterface(bytes4)":"01ffc9a7","transferOwnership(address)":"f2fde38b","updateArtist(uint256,string,string,address)":"05b47919","upgradeToAndCall(address,bytes)":"4f1ef286","uri(uint256)":"0e89341c"},"id":49}