{"abi":[{"type":"function","name":"deployArtistRegistry","inputs":[{"name":"initialOwner","type":"address","internalType":"address"},{"name":"referralModuleAddress","type":"address","internalType":"address"}],"outputs":[{"name":"","type":"address","internalType":"address"}],"stateMutability":"nonpayable"}],"bytecode":{"object":"0x608060405234801561001057600080fd5b50612d4e806100206000396000f3fe608060405234801561001057600080fd5b506004361061002b5760003560e01c806302f6482914610030575b600080fd5b61004361003e366004610153565b61005f565b6040516001600160a01b03909116815260200160405180910390f35b60008060405161006e9061011d565b604051809103906000f08015801561008a573d6000803e3d6000fd5b50604080516001600160a01b038781166024830152861660448083019190915282518083039091018152606490910182526020810180516001600160e01b031663485cc95560e01b179052905191925090600090839083906100eb9061012a565b6100f6929190610186565b604051809103906000f080158015610112573d6000803e3d6000fd5b509695505050505050565b612653806101e583390190565b6104e18061283883390190565b80356001600160a01b038116811461014e57600080fd5b919050565b6000806040838503121561016657600080fd5b61016f83610137565b915061017d60208401610137565b90509250929050565b60018060a01b038316815260006020604081840152835180604085015260005b818110156101c2578581018301518582016060015282016101a6565b506000606082860101526060601f19601f83011685010192505050939250505056fe60a06040523060805234801561001457600080fd5b5060805161261561003e60003960008181610f8401528181610fad01526110f301526126156000f3fe6080604052600436106101295760003560e01c806365f91e6d116100ab578063b332180b1161006f578063b332180b14610372578063d2a35c8e14610392578063d3468de7146103c1578063e985e9c5146103d6578063f242432a146103f6578063f2fde38b1461041657600080fd5b806365f91e6d146102a5578063715018a6146102c55780638da5cb5b146102da578063a22cb46514610321578063ad3cb1cc1461034157600080fd5b8063485cc955116100f2578063485cc9551461021057806348f90454146102305780634e1273f4146102505780634f1ef2861461027d57806352d1902d1461029057600080fd5b8062fdd58e1461012e57806301ffc9a7146101615780630e89341c146101915780631fc65673146101be5780632eb2c2d6146101ee575b600080fd5b34801561013a57600080fd5b5061014e610149366004611c97565b610436565b6040519081526020015b60405180910390f35b34801561016d57600080fd5b5061018161017c366004611cd7565b61046d565b6040519015158152602001610158565b34801561019d57600080fd5b506101b16101ac366004611cf4565b6104bd565b6040516101589190611d5d565b3480156101ca57600080fd5b506101816101d9366004611d70565b60026020526000908152604090205460ff1681565b3480156101fa57600080fd5b5061020e610209366004611ece565b610582565b005b34801561021c57600080fd5b5061020e61022b366004611f77565b6105ee565b34801561023c57600080fd5b5061020e61024b366004611faa565b610741565b34801561025c57600080fd5b5061027061026b366004612016565b61081b565b6040516101589190612110565b61020e61028b366004612123565b6108ef565b34801561029c57600080fd5b5061014e61090e565b3480156102b157600080fd5b5061020e6102c0366004611cf4565b61092b565b3480156102d157600080fd5b5061020e610a04565b3480156102e657600080fd5b507f9016d09d72d40fdae2fd8ceac6b6234c7706214fd39c1cd1e609a0528c199300546040516001600160a01b039091168152602001610158565b34801561032d57600080fd5b5061020e61033c366004612166565b610a18565b34801561034d57600080fd5b506101b1604051806040016040528060058152602001640352e302e360dc1b81525081565b34801561037e57600080fd5b5061020e61038d366004611d70565b610a23565b34801561039e57600080fd5b506103b26103ad366004611d70565b610b6e565b604051610158939291906121a2565b3480156103cd57600080fd5b5061020e610d3d565b3480156103e257600080fd5b506101816103f1366004611f77565b610dfe565b34801561040257600080fd5b5061020e6104113660046121e0565b610e4b565b34801561042257600080fd5b5061020e610431366004611d70565b610eaa565b60008181526000805160206125c0833981519152602090815260408083206001600160a01b03861684529091529020545b92915050565b60006001600160e01b03198216636cdb3d1360e11b148061049e57506001600160e01b031982166303a24d0760e21b145b8061046757506301ffc9a760e01b6001600160e01b0319831614610467565b7f88be536d5240c274a3b1d3a1be54482fd9caa294f08c62a7cde569f49a3c450280546060916000805160206125c0833981519152916104fc90612244565b80601f016020809104026020016040519081016040528092919081815260200182805461052890612244565b80156105755780601f1061054a57610100808354040283529160200191610575565b820191906000526020600020905b81548152906001019060200180831161055857829003601f168201915b5050505050915050919050565b336001600160a01b03861681148015906105a357506105a18682610dfe565b155b156105d95760405163711bec9160e11b81526001600160a01b038083166004830152871660248201526044015b60405180910390fd5b6105e68686868686610ee8565b505050505050565b7ff0c57e16840df040f15088dc2f81fe391c3923bec73e23a9662efc9c229c6a008054600160401b810460ff1615906001600160401b03166000811580156106335750825b90506000826001600160401b0316600114801561064f5750303b155b90508115801561065d575080155b1561067b5760405163f92ee8a960e01b815260040160405180910390fd5b845467ffffffffffffffff1916600117855583156106a557845460ff60401b1916600160401b1785555b6106c66040518060600160405280602a8152602001612576602a9139610f4f565b6106cf87610f60565b6106d7610f71565b600480546001600160a01b0319166001600160a01b038816179055831561073857845460ff60401b19168555604051600181527fc7f505b2f371ae2175ee4913f4499e1f2633a7b5936321eed1cdaeb6115181d29060200160405180910390a15b50505050505050565b600354831115801561076c57506000838152602081905260409020600201546001600160a01b031633145b6107a75760405162461bcd60e51b815260206004820152600c60248201526b155b985d5d1a1bdc9a5e995960a21b60448201526064016105d0565b60008381526020819052604090206107bf83826122c4565b5060008381526020819052604090206001016107db82826122c4565b50827f32141d773ee9c2c3d65647f0cefc910eb6ae3973dcb50abf2affd519d6d71ebb838360405161080e929190612383565b60405180910390a2505050565b6060815183511461084c5781518351604051635b05999160e01b8152600481019290925260248201526044016105d0565b600083516001600160401b0381111561086757610867611d8b565b604051908082528060200260200182016040528015610890578160200160208202803683370190505b50905060005b84518110156108e7576020808202860101516108ba90602080840287010151610436565b8282815181106108cc576108cc6123a8565b60209081029190910101526108e0816123d4565b9050610896565b509392505050565b6108f7610f79565b6109008261101e565b61090a8282611026565b5050565b60006109186110e8565b506000805160206125a083398151915290565b600354811115801561095657506000818152602081905260409020600201546001600160a01b031633145b6109915760405162461bcd60e51b815260206004820152600c60248201526b155b985d5d1a1bdc9a5e995960a21b60448201526064016105d0565b61099d33826001611131565b6000818152602081905260408120906109b68282611c2d565b6109c4600183016000611c2d565b5060020180546001600160a01b031916905560405181907f508aa18fe80cc3349fb880dc15451d171a92d429567a32db4bc488c1fb60429090600090a250565b610a0c611199565b610a1660006111f4565b565b61090a338383611265565b60048054604051632615fb8360e21b815233928101929092526000916001600160a01b0390911690639857ee0c90602401606060405180830381865afa158015610a71573d6000803e3d6000fd5b505050506040513d601f19601f82011682018060405250810190610a9591906123ed565b8051909150610af25760405162461bcd60e51b8152602060048201526024808201527f496e73756666696369656e742061727469737420726566657272616c206372656044820152636469747360e01b60648201526084016105d0565b600480546040516321ceab3d60e01b815233928101929092526001602483015260006044830181905260648301526001600160a01b0316906321ceab3d90608401600060405180830381600087803b158015610b4d57600080fd5b505af1158015610b61573d6000803e3d6000fd5b5050505061090a8261130d565b6001600160a01b0381166000908152600160205260408120546060918291808203610bd35760405162461bcd60e51b8152602060048201526015602482015274105c9d1a5cdd08191bd95cc81b9bdd08195e1a5cdd605a1b60448201526064016105d0565b600081815260208190526040808220815160608101909252805482908290610bfa90612244565b80601f0160208091040260200160405190810160405280929190818152602001828054610c2690612244565b8015610c735780601f10610c4857610100808354040283529160200191610c73565b820191906000526020600020905b815481529060010190602001808311610c5657829003601f168201915b50505050508152602001600182018054610c8c90612244565b80601f0160208091040260200160405190810160405280929190818152602001828054610cb890612244565b8015610d055780601f10610cda57610100808354040283529160200191610d05565b820191906000526020600020905b815481529060010190602001808311610ce857829003601f168201915b5050509183525050600291909101546001600160a01b0316602091820152815190820151604090920151909891975095509350505050565b3360009081526002602052604090205460ff16610d8d5760405162461bcd60e51b815260206004820152600e60248201526d139bdd081dd85a5d1b1a5cdd195960921b60448201526064016105d0565b336000908152600260209081526040808320805460ff19169055805180830182528381528151928301909152918152610dc69190611359565b6003546040513381527f0eda72f82c1fa8453a960937d93f72d67182387192305305b705b1b94c4b77f69060200160405180910390a2565b6001600160a01b0391821660009081527f88be536d5240c274a3b1d3a1be54482fd9caa294f08c62a7cde569f49a3c45016020908152604080832093909416825291909152205460ff1690565b336001600160a01b0386168114801590610e6c5750610e6a8682610dfe565b155b15610e9d5760405163711bec9160e11b81526001600160a01b038083166004830152871660248201526044016105d0565b6105e6868686868661144d565b610eb2611199565b6001600160a01b038116610edc57604051631e4fbdf760e01b8152600060048201526024016105d0565b610ee5816111f4565b50565b6001600160a01b038416610f1257604051632bfa23e760e11b8152600060048201526024016105d0565b6001600160a01b038516610f3b57604051626a0d4560e21b8152600060048201526024016105d0565b610f4885858585856114ce565b5050505050565b610f57611521565b610ee58161156a565b610f68611521565b610ee58161157b565b610a16611521565b306001600160a01b037f000000000000000000000000000000000000000000000000000000000000000016148061100057507f00000000000000000000000000000000000000000000000000000000000000006001600160a01b0316610ff46000805160206125a0833981519152546001600160a01b031690565b6001600160a01b031614155b15610a165760405163703e46dd60e11b815260040160405180910390fd5b610ee5611199565b816001600160a01b03166352d1902d6040518163ffffffff1660e01b8152600401602060405180830381865afa925050508015611080575060408051601f3d908101601f1916820190925261107d91810190612448565b60015b6110a857604051634c9c8ce360e01b81526001600160a01b03831660048201526024016105d0565b6000805160206125a083398151915281146110d957604051632a87526960e21b8152600481018290526024016105d0565b6110e38383611583565b505050565b306001600160a01b037f00000000000000000000000000000000000000000000000000000000000000001614610a165760405163703e46dd60e11b815260040160405180910390fd5b6001600160a01b03831661115a57604051626a0d4560e21b8152600060048201526024016105d0565b604080516001808252602082018590528183019081526060820184905260a08201909252600060808201818152919291610f48918791859085906114ce565b336111cb7f9016d09d72d40fdae2fd8ceac6b6234c7706214fd39c1cd1e609a0528c199300546001600160a01b031690565b6001600160a01b031614610a165760405163118cdaa760e01b81523360048201526024016105d0565b7f9016d09d72d40fdae2fd8ceac6b6234c7706214fd39c1cd1e609a0528c19930080546001600160a01b031981166001600160a01b03848116918217845560405192169182907f8be0079c531659141344cd1fd0a4f28419497f9722a3daafe3b4186f6b6457e090600090a3505050565b6000805160206125c08339815191526001600160a01b03831661129d5760405162ced3e160e81b8152600060048201526024016105d0565b6001600160a01b038481166000818152600184016020908152604080832094881680845294825291829020805460ff191687151590811790915591519182527f17307eab39ab6107e8899845ad3d59bd9653f200f220920489ca2b5937696c31910160405180910390a350505050565b6001600160a01b038116600081815260026020526040808220805460ff19166001179055517f1a74f3f80bcaac073ea380f49aa827c080f5c11a913e921997350afd3b56dcd19190a250565b60038054906000611369836123d4565b909155505060035460408051606081018252848152602080820185905233828401819052600085815291829052929020815181906113a790826122c4565b50602082015160018201906113bc90826122c4565b5060409182015160029190910180546001600160a01b0319166001600160a01b039283161790558216600090815260016020818152838320869055835190810190935290825261140f91839185916115d9565b817fda6b011a8a5538505e95258f4fb629e47acbcc7659053d361c1517a0028f4d478560405161143f9190611d5d565b60405180910390a250505050565b6001600160a01b03841661147757604051632bfa23e760e11b8152600060048201526024016105d0565b6001600160a01b0385166114a057604051626a0d4560e21b8152600060048201526024016105d0565b6040805160018082526020820186905281830190815260608201859052608082019092529061073887878484875b6114da85858585611636565b6001600160a01b03841615610f485782513390600103611513576020848101519084015161150c838989858589611864565b50506105e6565b6105e6818787878787611988565b7ff0c57e16840df040f15088dc2f81fe391c3923bec73e23a9662efc9c229c6a0054600160401b900460ff16610a1657604051631afcd79f60e31b815260040160405180910390fd5b611572611521565b610ee581611a71565b610eb2611521565b61158c82611aab565b6040516001600160a01b038316907fbc7cd75a20ee27fd9adebab32041f755214dbc6bffa90cc0225b39da2e5c2d3b90600090a28051156115d1576110e38282611b10565b61090a611b86565b6001600160a01b03841661160357604051632bfa23e760e11b8152600060048201526024016105d0565b604080516001808252602082018690528183019081526060820185905260808201909252906105e66000878484876114ce565b805182516000805160206125c083398151915291146116755782518251604051635b05999160e01b8152600481019290925260248201526044016105d0565b3360005b8451811015611784576020818102868101820151908601909101516001600160a01b0389161561172c576000828152602086815260408083206001600160a01b038d16845290915290205481811015611705576040516303dee4c560e01b81526001600160a01b038b1660048201526024810182905260448101839052606481018490526084016105d0565b6000838152602087815260408083206001600160a01b038e16845290915290209082900390555b6001600160a01b03881615611771576000828152602086815260408083206001600160a01b038c1684529091528120805483929061176b908490612461565b90915550505b50508061177d906123d4565b9050611679565b5083516001036118055760208401516000906020850151909150866001600160a01b0316886001600160a01b0316846001600160a01b03167fc3d58168c5ae7397731d063d5bbf3d657854427343f4c083240f7aacaa2d0f6285856040516117f6929190918252602082015260400190565b60405180910390a450506105e6565b846001600160a01b0316866001600160a01b0316826001600160a01b03167f4a39dc06d4c0dbc64b70af90fd698a233a518aa5d07e595d983b8c0526c8f7fb8787604051611854929190612474565b60405180910390a4505050505050565b6001600160a01b0384163b156105e65760405163f23a6e6160e01b81526001600160a01b0385169063f23a6e61906118a89089908990889088908890600401612499565b6020604051808303816000875af19250505080156118e3575060408051601f3d908101601f191682019092526118e0918101906124de565b60015b61194c573d808015611911576040519150601f19603f3d011682016040523d82523d6000602084013e611916565b606091505b50805160000361194457604051632bfa23e760e11b81526001600160a01b03861660048201526024016105d0565b805181602001fd5b6001600160e01b0319811663f23a6e6160e01b1461073857604051632bfa23e760e11b81526001600160a01b03861660048201526024016105d0565b6001600160a01b0384163b156105e65760405163bc197c8160e01b81526001600160a01b0385169063bc197c81906119cc90899089908890889088906004016124fb565b6020604051808303816000875af1925050508015611a07575060408051601f3d908101601f19168201909252611a04918101906124de565b60015b611a35573d808015611911576040519150601f19603f3d011682016040523d82523d6000602084013e611916565b6001600160e01b0319811663bc197c8160e01b1461073857604051632bfa23e760e11b81526001600160a01b03861660048201526024016105d0565b6000805160206125c08339815191527f88be536d5240c274a3b1d3a1be54482fd9caa294f08c62a7cde569f49a3c45026110e383826122c4565b806001600160a01b03163b600003611ae157604051634c9c8ce360e01b81526001600160a01b03821660048201526024016105d0565b6000805160206125a083398151915280546001600160a01b0319166001600160a01b0392909216919091179055565b6060600080846001600160a01b031684604051611b2d9190612559565b600060405180830381855af49150503d8060008114611b68576040519150601f19603f3d011682016040523d82523d6000602084013e611b6d565b606091505b5091509150611b7d858383611ba5565b95945050505050565b3415610a165760405163b398979f60e01b815260040160405180910390fd5b606082611bba57611bb582611c04565b611bfd565b8151158015611bd157506001600160a01b0384163b155b15611bfa57604051639996b31560e01b81526001600160a01b03851660048201526024016105d0565b50805b9392505050565b805115611c145780518082602001fd5b604051630a12f52160e11b815260040160405180910390fd5b508054611c3990612244565b6000825580601f10611c49575050565b601f016020900490600052602060002090810190610ee591905b80821115611c775760008155600101611c63565b5090565b80356001600160a01b0381168114611c9257600080fd5b919050565b60008060408385031215611caa57600080fd5b611cb383611c7b565b946020939093013593505050565b6001600160e01b031981168114610ee557600080fd5b600060208284031215611ce957600080fd5b8135611bfd81611cc1565b600060208284031215611d0657600080fd5b5035919050565b60005b83811015611d28578181015183820152602001611d10565b50506000910152565b60008151808452611d49816020860160208601611d0d565b601f01601f19169290920160200192915050565b602081526000611bfd6020830184611d31565b600060208284031215611d8257600080fd5b611bfd82611c7b565b634e487b7160e01b600052604160045260246000fd5b604051601f8201601f191681016001600160401b0381118282101715611dc957611dc9611d8b565b604052919050565b60006001600160401b03821115611dea57611dea611d8b565b5060051b60200190565b600082601f830112611e0557600080fd5b81356020611e1a611e1583611dd1565b611da1565b82815260059290921b84018101918181019086841115611e3957600080fd5b8286015b84811015611e545780358352918301918301611e3d565b509695505050505050565b600082601f830112611e7057600080fd5b81356001600160401b03811115611e8957611e89611d8b565b611e9c601f8201601f1916602001611da1565b818152846020838601011115611eb157600080fd5b816020850160208301376000918101602001919091529392505050565b600080600080600060a08688031215611ee657600080fd5b611eef86611c7b565b9450611efd60208701611c7b565b935060408601356001600160401b0380821115611f1957600080fd5b611f2589838a01611df4565b94506060880135915080821115611f3b57600080fd5b611f4789838a01611df4565b93506080880135915080821115611f5d57600080fd5b50611f6a88828901611e5f565b9150509295509295909350565b60008060408385031215611f8a57600080fd5b611f9383611c7b565b9150611fa160208401611c7b565b90509250929050565b600080600060608486031215611fbf57600080fd5b8335925060208401356001600160401b0380821115611fdd57600080fd5b611fe987838801611e5f565b93506040860135915080821115611fff57600080fd5b5061200c86828701611e5f565b9150509250925092565b6000806040838503121561202957600080fd5b82356001600160401b038082111561204057600080fd5b818501915085601f83011261205457600080fd5b81356020612064611e1583611dd1565b82815260059290921b8401810191818101908984111561208357600080fd5b948201945b838610156120a85761209986611c7b565b82529482019490820190612088565b965050860135925050808211156120be57600080fd5b506120cb85828601611df4565b9150509250929050565b600081518084526020808501945080840160005b83811015612105578151875295820195908201906001016120e9565b509495945050505050565b602081526000611bfd60208301846120d5565b6000806040838503121561213657600080fd5b61213f83611c7b565b915060208301356001600160401b0381111561215a57600080fd5b6120cb85828601611e5f565b6000806040838503121561217957600080fd5b61218283611c7b565b91506020830135801515811461219757600080fd5b809150509250929050565b6060815260006121b56060830186611d31565b82810360208401526121c78186611d31565b91505060018060a01b0383166040830152949350505050565b600080600080600060a086880312156121f857600080fd5b61220186611c7b565b945061220f60208701611c7b565b9350604086013592506060860135915060808601356001600160401b0381111561223857600080fd5b611f6a88828901611e5f565b600181811c9082168061225857607f821691505b60208210810361227857634e487b7160e01b600052602260045260246000fd5b50919050565b601f8211156110e357600081815260208120601f850160051c810160208610156122a55750805b601f850160051c820191505b818110156105e6578281556001016122b1565b81516001600160401b038111156122dd576122dd611d8b565b6122f1816122eb8454612244565b8461227e565b602080601f831160018114612326576000841561230e5750858301515b600019600386901b1c1916600185901b1785556105e6565b600085815260208120601f198616915b8281101561235557888601518255948401946001909101908401612336565b50858210156123735787850151600019600388901b60f8161c191681555b5050505050600190811b01905550565b6040815260006123966040830185611d31565b8281036020840152611b7d8185611d31565b634e487b7160e01b600052603260045260246000fd5b634e487b7160e01b600052601160045260246000fd5b6000600182016123e6576123e66123be565b5060010190565b6000606082840312156123ff57600080fd5b604051606081018181106001600160401b038211171561242157612421611d8b565b80604052508251815260208301516020820152604083015160408201528091505092915050565b60006020828403121561245a57600080fd5b5051919050565b80820180821115610467576104676123be565b60408152600061248760408301856120d5565b8281036020840152611b7d81856120d5565b6001600160a01b03868116825285166020820152604081018490526060810183905260a0608082018190526000906124d390830184611d31565b979650505050505050565b6000602082840312156124f057600080fd5b8151611bfd81611cc1565b6001600160a01b0386811682528516602082015260a060408201819052600090612527908301866120d5565b828103606084015261253981866120d5565b9050828103608084015261254d8185611d31565b98975050505050505050565b6000825161256b818460208701611d0d565b919091019291505056fe68747470733a2f2f6170692e796f75726170702e636f6d2f6d657461646174612f7b69647d2e6a736f6e360894a13ba1a3210667c828492db98dca3e2076cc3735a920a3ca505d382bbc88be536d5240c274a3b1d3a1be54482fd9caa294f08c62a7cde569f49a3c4500a2646970667358221220f2b404175b102758fb085938f5d3749cf379a90ae8281cdf5b652fd851672e7664736f6c6343000814003360806040526040516104e13803806104e1833981016040819052610022916102de565b61002e82826000610035565b50506103fb565b61003e83610061565b60008251118061004b5750805b1561005c5761005a83836100a1565b505b505050565b61006a816100cd565b6040516001600160a01b038216907fbc7cd75a20ee27fd9adebab32041f755214dbc6bffa90cc0225b39da2e5c2d3b90600090a250565b60606100c683836040518060600160405280602781526020016104ba60279139610180565b9392505050565b6001600160a01b0381163b61013f5760405162461bcd60e51b815260206004820152602d60248201527f455243313936373a206e657720696d706c656d656e746174696f6e206973206e60448201526c1bdd08184818dbdb9d1c9858dd609a1b60648201526084015b60405180910390fd5b7f360894a13ba1a3210667c828492db98dca3e2076cc3735a920a3ca505d382bbc80546001600160a01b0319166001600160a01b0392909216919091179055565b6060600080856001600160a01b03168560405161019d91906103ac565b600060405180830381855af49150503d80600081146101d8576040519150601f19603f3d011682016040523d82523d6000602084013e6101dd565b606091505b5090925090506101ef868383876101f9565b9695505050505050565b60608315610268578251600003610261576001600160a01b0385163b6102615760405162461bcd60e51b815260206004820152601d60248201527f416464726573733a2063616c6c20746f206e6f6e2d636f6e74726163740000006044820152606401610136565b5081610272565b610272838361027a565b949350505050565b81511561028a5781518083602001fd5b8060405162461bcd60e51b815260040161013691906103c8565b634e487b7160e01b600052604160045260246000fd5b60005b838110156102d55781810151838201526020016102bd565b50506000910152565b600080604083850312156102f157600080fd5b82516001600160a01b038116811461030857600080fd5b60208401519092506001600160401b038082111561032557600080fd5b818501915085601f83011261033957600080fd5b81518181111561034b5761034b6102a4565b604051601f8201601f19908116603f01168101908382118183101715610373576103736102a4565b8160405282815288602084870101111561038c57600080fd5b61039d8360208301602088016102ba565b80955050505050509250929050565b600082516103be8184602087016102ba565b9190910192915050565b60208152600082518060208401526103e78160408501602087016102ba565b601f01601f19169190910160400192915050565b60b1806104096000396000f3fe608060405236601057600e6013565b005b600e5b601f601b6021565b6058565b565b600060537f360894a13ba1a3210667c828492db98dca3e2076cc3735a920a3ca505d382bbc546001600160a01b031690565b905090565b3660008037600080366000845af43d6000803e8080156076573d6000f35b3d6000fdfea264697066735822122027f562cde8265aa90118a53b2f65370962feb418519bf39bfc7ccbb34402bb5164736f6c63430008140033416464726573733a206c6f772d6c6576656c2064656c65676174652063616c6c206661696c6564a2646970667358221220b03e7fea4427942993238877c89941a30ac21c4e339ab7f8f41f91890f1705fb64736f6c63430008140033","linkReferences":{}},"methodIdentifiers":{"deployArtistRegistry(address,address)":"02f64829"},"id":31}