{"abi":[{"type":"function","name":"UPGRADE_INTERFACE_VERSION","inputs":[],"outputs":[{"name":"","type":"string","internalType":"string"}],"stateMutability":"view"},{"type":"function","name":"acceptNomination","inputs":[{"name":"_name","type":"string","internalType":"string"},{"name":"_bio","type":"string","internalType":"string"}],"outputs":[],"stateMutability":"nonpayable"},{"type":"function","name":"balanceOf","inputs":[{"name":"account","type":"address","internalType":"address"},{"name":"id","type":"uint256","internalType":"uint256"}],"outputs":[{"name":"","type":"uint256","internalType":"uint256"}],"stateMutability":"view"},{"type":"function","name":"balanceOfBatch","inputs":[{"name":"accounts","type":"address[]","internalType":"address[]"},{"name":"ids","type":"uint256[]","internalType":"uint256[]"}],"outputs":[{"name":"","type":"uint256[]","internalType":"uint256[]"}],"stateMutability":"view"},{"type":"function","name":"deregisterArtist","inputs":[{"name":"_artistId","type":"uint256","internalType":"uint256"}],"outputs":[],"stateMutability":"nonpayable"},{"type":"function","name":"getArtist","inputs":[{"name":"artistAddress","type":"address","internalType":"address"}],"outputs":[{"name":"name","type":"string","internalType":"string"},{"name":"bio","type":"string","internalType":"string"},{"name":"wallet","type":"address","internalType":"address"}],"stateMutability":"view"},{"type":"function","name":"initialize","inputs":[{"name":"initialOwner","type":"address","internalType":"address"},{"name":"_referralModuleAddress","type":"address","internalType":"address"}],"outputs":[],"stateMutability":"nonpayable"},{"type":"function","name":"isApprovedForAll","inputs":[{"name":"account","type":"address","internalType":"address"},{"name":"operator","type":"address","internalType":"address"}],"outputs":[{"name":"","type":"bool","internalType":"bool"}],"stateMutability":"view"},{"type":"function","name":"isArtistRegistered","inputs":[{"name":"artistAddress","type":"address","internalType":"address"}],"outputs":[{"name":"isRegistered","type":"bool","internalType":"bool"}],"stateMutability":"view"},{"type":"function","name":"nominate","inputs":[{"name":"nominee","type":"address","internalType":"address"}],"outputs":[],"stateMutability":"nonpayable"},{"type":"function","name":"nominatedArtists","inputs":[{"name":"","type":"address","internalType":"address"}],"outputs":[{"name":"","type":"bool","internalType":"bool"}],"stateMutability":"view"},{"type":"function","name":"owner","inputs":[],"outputs":[{"name":"","type":"address","internalType":"address"}],"stateMutability":"view"},{"type":"function","name":"proxiableUUID","inputs":[],"outputs":[{"name":"","type":"bytes32","internalType":"bytes32"}],"stateMutability":"view"},{"type":"function","name":"renounceOwnership","inputs":[],"outputs":[],"stateMutability":"nonpayable"},{"type":"function","name":"safeBatchTransferFrom","inputs":[{"name":"from","type":"address","internalType":"address"},{"name":"to","type":"address","internalType":"address"},{"name":"ids","type":"uint256[]","internalType":"uint256[]"},{"name":"values","type":"uint256[]","internalType":"uint256[]"},{"name":"data","type":"bytes","internalType":"bytes"}],"outputs":[],"stateMutability":"nonpayable"},{"type":"function","name":"safeTransferFrom","inputs":[{"name":"from","type":"address","internalType":"address"},{"name":"to","type":"address","internalType":"address"},{"name":"id","type":"uint256","internalType":"uint256"},{"name":"value","type":"uint256","internalType":"uint256"},{"name":"data","type":"bytes","internalType":"bytes"}],"outputs":[],"stateMutability":"nonpayable"},{"type":"function","name":"setApprovalForAll","inputs":[{"name":"operator","type":"address","internalType":"address"},{"name":"approved","type":"bool","internalType":"bool"}],"outputs":[],"stateMutability":"nonpayable"},{"type":"function","name":"setTokenURI","inputs":[{"name":"tokenId","type":"uint256","internalType":"uint256"},{"name":"newURI","type":"string","internalType":"string"}],"outputs":[],"stateMutability":"nonpayable"},{"type":"function","name":"supportsInterface","inputs":[{"name":"interfaceId","type":"bytes4","internalType":"bytes4"}],"outputs":[{"name":"","type":"bool","internalType":"bool"}],"stateMutability":"view"},{"type":"function","name":"transferOwnership","inputs":[{"name":"newOwner","type":"address","internalType":"address"}],"outputs":[],"stateMutability":"nonpayable"},{"type":"function","name":"updateArtist","inputs":[{"name":"_artistId","type":"uint256","internalType":"uint256"},{"name":"_name","type":"string","internalType":"string"},{"name":"_bio","type":"string","internalType":"string"},{"name":"_wallet","type":"address","internalType":"address"}],"outputs":[],"stateMutability":"nonpayable"},{"type":"function","name":"upgradeToAndCall","inputs":[{"name":"newImplementation","type":"address","internalType":"address"},{"name":"data","type":"bytes","internalType":"bytes"}],"outputs":[],"stateMutability":"payable"},{"type":"function","name":"uri","inputs":[{"name":"tokenId","type":"uint256","internalType":"uint256"}],"outputs":[{"name":"","type":"string","internalType":"string"}],"stateMutability":"view"},{"type":"event","name":"ApprovalForAll","inputs":[{"name":"account","type":"address","indexed":true,"internalType":"address"},{"name":"operator","type":"address","indexed":true,"internalType":"address"},{"name":"approved","type":"bool","indexed":false,"internalType":"bool"}],"anonymous":false},{"type":"event","name":"ArtistAccepted","inputs":[{"name":"artistId","type":"uint256","indexed":true,"internalType":"uint256"},{"name":"artistAddress","type":"address","indexed":false,"internalType":"address"}],"anonymous":false},{"type":"event","name":"ArtistDeregistered","inputs":[{"name":"artistId","type":"uint256","indexed":true,"internalType":"uint256"}],"anonymous":false},{"type":"event","name":"ArtistNominated","inputs":[{"name":"nominee","type":"address","indexed":true,"internalType":"address"}],"anonymous":false},{"type":"event","name":"ArtistRegistered","inputs":[{"name":"artistId","type":"uint256","indexed":true,"internalType":"uint256"},{"name":"name","type":"string","indexed":false,"internalType":"string"},{"name":"wallet","type":"address","indexed":false,"internalType":"address"}],"anonymous":false},{"type":"event","name":"ArtistUpdated","inputs":[{"name":"artistId","type":"uint256","indexed":true,"internalType":"uint256"},{"name":"name","type":"string","indexed":false,"internalType":"string"},{"name":"bio","type":"string","indexed":false,"internalType":"string"},{"name":"wallet","type":"address","indexed":false,"internalType":"address"}],"anonymous":false},{"type":"event","name":"ArtistWaitlisted","inputs":[{"name":"artist","type":"address","indexed":true,"internalType":"address"}],"anonymous":false},{"type":"event","name":"Initialized","inputs":[{"name":"version","type":"uint64","indexed":false,"internalType":"uint64"}],"anonymous":false},{"type":"event","name":"OwnershipTransferred","inputs":[{"name":"previousOwner","type":"address","indexed":true,"internalType":"address"},{"name":"newOwner","type":"address","indexed":true,"internalType":"address"}],"anonymous":false},{"type":"event","name":"TransferBatch","inputs":[{"name":"operator","type":"address","indexed":true,"internalType":"address"},{"name":"from","type":"address","indexed":true,"internalType":"address"},{"name":"to","type":"address","indexed":true,"internalType":"address"},{"name":"ids","type":"uint256[]","indexed":false,"internalType":"uint256[]"},{"name":"values","type":"uint256[]","indexed":false,"internalType":"uint256[]"}],"anonymous":false},{"type":"event","name":"TransferSingle","inputs":[{"name":"operator","type":"address","indexed":true,"internalType":"address"},{"name":"from","type":"address","indexed":true,"internalType":"address"},{"name":"to","type":"address","indexed":true,"internalType":"address"},{"name":"id","type":"uint256","indexed":false,"internalType":"uint256"},{"name":"value","type":"uint256","indexed":false,"internalType":"uint256"}],"anonymous":false},{"type":"event","name":"URI","inputs":[{"name":"value","type":"string","indexed":false,"internalType":"string"},{"name":"id","type":"uint256","indexed":true,"internalType":"uint256"}],"anonymous":false},{"type":"event","name":"Upgraded","inputs":[{"name":"implementation","type":"address","indexed":true,"internalType":"address"}],"anonymous":false},{"type":"error","name":"AddressEmptyCode","inputs":[{"name":"target","type":"address","internalType":"address"}]},{"type":"error","name":"ERC1155InsufficientBalance","inputs":[{"name":"sender","type":"address","internalType":"address"},{"name":"balance","type":"uint256","internalType":"uint256"},{"name":"needed","type":"uint256","internalType":"uint256"},{"name":"tokenId","type":"uint256","internalType":"uint256"}]},{"type":"error","name":"ERC1155InvalidApprover","inputs":[{"name":"approver","type":"address","internalType":"address"}]},{"type":"error","name":"ERC1155InvalidArrayLength","inputs":[{"name":"idsLength","type":"uint256","internalType":"uint256"},{"name":"valuesLength","type":"uint256","internalType":"uint256"}]},{"type":"error","name":"ERC1155InvalidOperator","inputs":[{"name":"operator","type":"address","internalType":"address"}]},{"type":"error","name":"ERC1155InvalidReceiver","inputs":[{"name":"receiver","type":"address","internalType":"address"}]},{"type":"error","name":"ERC1155InvalidSender","inputs":[{"name":"sender","type":"address","internalType":"address"}]},{"type":"error","name":"ERC1155MissingApprovalForAll","inputs":[{"name":"operator","type":"address","internalType":"address"},{"name":"owner","type":"address","internalType":"address"}]},{"type":"error","name":"ERC1967InvalidImplementation","inputs":[{"name":"implementation","type":"address","internalType":"address"}]},{"type":"error","name":"ERC1967NonPayable","inputs":[]},{"type":"error","name":"FailedInnerCall","inputs":[]},{"type":"error","name":"InvalidInitialization","inputs":[]},{"type":"error","name":"NotInitializing","inputs":[]},{"type":"error","name":"OwnableInvalidOwner","inputs":[{"name":"owner","type":"address","internalType":"address"}]},{"type":"error","name":"OwnableUnauthorizedAccount","inputs":[{"name":"account","type":"address","internalType":"address"}]},{"type":"error","name":"UUPSUnauthorizedCallContext","inputs":[]},{"type":"error","name":"UUPSUnsupportedProxiableUUID","inputs":[{"name":"slot","type":"bytes32","internalType":"bytes32"}]}],"bytecode":{"object":"0x60a06040523060805234801561001457600080fd5b506080516129d361003e600039600081816112d701528181611300015261144601526129d36000f3fe60806040526004361061013f5760003560e01c806364fd2886116100b6578063b332180b1161006f578063b332180b146103ae578063b949c804146103ce578063c8450ef4146103fd578063e985e9c51461041d578063f242432a1461043d578063f2fde38b1461045d57600080fd5b806364fd2886146102db57806365f91e6d146102fb578063715018a61461031b5780638da5cb5b14610330578063a22cb4651461035d578063ad3cb1cc1461037d57600080fd5b80631fc65673116101085780631fc65673146102165780632eb2c2d614610246578063485cc955146102665780634e1273f4146102865780634f1ef286146102b357806352d1902d146102c657600080fd5b8062fdd58e1461014457806301ffc9a71461017757806305b47919146101a75780630e89341c146101c9578063162094c4146101f6575b600080fd5b34801561015057600080fd5b5061016461015f366004611fb2565b61047d565b6040519081526020015b60405180910390f35b34801561018357600080fd5b50610197610192366004611ff2565b6104b4565b604051901515815260200161016e565b3480156101b357600080fd5b506101c76101c23660046120c4565b610504565b005b3480156101d557600080fd5b506101e96101e4366004612141565b610612565b60405161016e91906121aa565b34801561020257600080fd5b506101c76102113660046121bd565b6106d0565b34801561022257600080fd5b50610197610231366004612203565b60026020526000908152604090205460ff1681565b34801561025257600080fd5b506101c76102613660046122ac565b6107bf565b34801561027257600080fd5b506101c7610281366004612355565b610826565b34801561029257600080fd5b506102a66102a1366004612388565b610979565b60405161016e9190612478565b6101c76102c136600461248b565b610a4d565b3480156102d257600080fd5b50610164610a6c565b3480156102e757600080fd5b506101976102f6366004612203565b610a89565b34801561030757600080fd5b506101c7610316366004612141565b610ad4565b34801561032757600080fd5b506101c7610bad565b34801561033c57600080fd5b50610345610bc1565b6040516001600160a01b03909116815260200161016e565b34801561036957600080fd5b506101c76103783660046124c2565b610bef565b34801561038957600080fd5b506101e9604051806040016040528060058152602001640352e302e360dc1b81525081565b3480156103ba57600080fd5b506101c76103c9366004612203565b610bfa565b3480156103da57600080fd5b506103ee6103e9366004612203565b610e14565b60405161016e939291906124fe565b34801561040957600080fd5b506101c761041836600461253c565b610fe3565b34801561042957600080fd5b50610197610438366004612355565b61108c565b34801561044957600080fd5b506101c7610458366004612595565b6110d9565b34801561046957600080fd5b506101c7610478366004612203565b611138565b600081815260008051602061297e833981519152602090815260408083206001600160a01b03861684529091529020545b92915050565b60006001600160e01b03198216636cdb3d1360e11b14806104e557506001600160e01b031982166303a24d0760e21b145b806104ae57506301ffc9a760e01b6001600160e01b03198316146104ae565b600354841115801561052f57506000848152602081905260409020600201546001600160a01b031633145b61056f5760405162461bcd60e51b815260206004820152600c60248201526b155b985d5d1a1bdc9a5e995960a21b60448201526064015b60405180910390fd5b60008481526020819052604090206105878482612679565b5060008481526020819052604090206001016105a38382612679565b506000848152602081905260409081902060020180546001600160a01b0319166001600160a01b0384161790555184907f93c1b7d53c3ea701fc058d4fa50c893d607c08afaceefa2ac1b2846b0d5e7dea90610604908690869086906124fe565b60405180910390a250505050565b600081815260056020526040812080546060929190610630906125f9565b80601f016020809104026020016040519081016040528092919081815260200182805461065c906125f9565b80156106a95780601f1061067e576101008083540402835291602001916106a9565b820191906000526020600020905b81548152906001019060200180831161068c57829003601f168201915b505050505090506000815111156106c05792915050565b6106c983611176565b9392505050565b6106d8610bc1565b6001600160a01b0316336001600160a01b0316148061071057506000828152602081905260409020600201546001600160a01b031633145b61076a5760405162461bcd60e51b815260206004820152602560248201527f43616c6c6572206973206e6f7420746865206f776e6572206f722074686520616044820152641c9d1a5cdd60da1b6064820152608401610566565b60008281526005602052604090206107828282612679565b50817f6bb7ff708619ba0610cba295a58592e0451dee2622938c8755667688daf3529b826040516107b391906121aa565b60405180910390a25050565b336001600160a01b03861681148015906107e057506107de868261108c565b155b156108115760405163711bec9160e11b81526001600160a01b03808316600483015287166024820152604401610566565b61081e868686868661123b565b505050505050565b7ff0c57e16840df040f15088dc2f81fe391c3923bec73e23a9662efc9c229c6a008054600160401b810460ff1615906001600160401b031660008115801561086b5750825b90506000826001600160401b031660011480156108875750303b155b905081158015610895575080155b156108b35760405163f92ee8a960e01b815260040160405180910390fd5b845467ffffffffffffffff1916600117855583156108dd57845460ff60401b1916600160401b1785555b6108fe6040518060600160405280602e8152602001612930602e91396112a2565b610907876112b3565b61090f6112c4565b600480546001600160a01b0319166001600160a01b038816179055831561097057845460ff60401b19168555604051600181527fc7f505b2f371ae2175ee4913f4499e1f2633a7b5936321eed1cdaeb6115181d29060200160405180910390a15b50505050505050565b606081518351146109aa5781518351604051635b05999160e01b815260048101929092526024820152604401610566565b600083516001600160401b038111156109c5576109c561200f565b6040519080825280602002602001820160405280156109ee578160200160208202803683370190505b50905060005b8451811015610a4557602080820286010151610a189060208084028701015161047d565b828281518110610a2a57610a2a612738565b6020908102919091010152610a3e81612764565b90506109f4565b509392505050565b610a556112cc565b610a5e82611371565b610a688282611379565b5050565b6000610a7661143b565b5060008051602061295e83398151915290565b6001600160a01b03811660009081526001602052604081205480158015906106c957506000818152602081905260409020600201546001600160a01b03908116908416149392505050565b6003548111158015610aff57506000818152602081905260409020600201546001600160a01b031633145b610b3a5760405162461bcd60e51b815260206004820152600c60248201526b155b985d5d1a1bdc9a5e995960a21b6044820152606401610566565b610b4633826001611484565b600081815260208190526040812090610b5f8282611f48565b610b6d600183016000611f48565b5060020180546001600160a01b031916905560405181907f508aa18fe80cc3349fb880dc15451d171a92d429567a32db4bc488c1fb60429090600090a250565b610bb56114ec565b610bbf600061151e565b565b7f9016d09d72d40fdae2fd8ceac6b6234c7706214fd39c1cd1e609a0528c199300546001600160a01b031690565b610a6833838361158f565b6001600160a01b03811660009081526002602052604090205460ff1615610c635760405162461bcd60e51b815260206004820152601960248201527f4e6f6d696e656520616c7265616479206e6f6d696e61746564000000000000006044820152606401610566565b6001600160a01b03811660009081526001602052604090205415610cc95760405162461bcd60e51b815260206004820152601960248201527f4e6f6d696e656520616c726561647920616e20617274697374000000000000006044820152606401610566565b60048054604051632615fb8360e21b815233928101929092526000916001600160a01b0390911690639857ee0c90602401606060405180830381865afa158015610d17573d6000803e3d6000fd5b505050506040513d601f19601f82011682018060405250810190610d3b919061277d565b8051909150610d985760405162461bcd60e51b8152602060048201526024808201527f496e73756666696369656e742061727469737420726566657272616c206372656044820152636469747360e01b6064820152608401610566565b600480546040516321ceab3d60e01b815233928101929092526001602483015260006044830181905260648301526001600160a01b0316906321ceab3d90608401600060405180830381600087803b158015610df357600080fd5b505af1158015610e07573d6000803e3d6000fd5b50505050610a6882611637565b6001600160a01b0381166000908152600160205260408120546060918291808203610e795760405162461bcd60e51b8152602060048201526015602482015274105c9d1a5cdd08191bd95cc81b9bdd08195e1a5cdd605a1b6044820152606401610566565b600081815260208190526040808220815160608101909252805482908290610ea0906125f9565b80601f0160208091040260200160405190810160405280929190818152602001828054610ecc906125f9565b8015610f195780601f10610eee57610100808354040283529160200191610f19565b820191906000526020600020905b815481529060010190602001808311610efc57829003601f168201915b50505050508152602001600182018054610f32906125f9565b80601f0160208091040260200160405190810160405280929190818152602001828054610f5e906125f9565b8015610fab5780601f10610f8057610100808354040283529160200191610fab565b820191906000526020600020905b815481529060010190602001808311610f8e57829003601f168201915b5050509183525050600291909101546001600160a01b0316602091820152815190820151604090920151909891975095509350505050565b3360009081526002602052604090205460ff166110385760405162461bcd60e51b8152602060048201526013602482015272139bc81b9bdb5a5b985d1a5bdb88199bdd5b99606a1b6044820152606401610566565b336000908152600260205260409020805460ff191690556110598282611683565b6003546040513381527f0eda72f82c1fa8453a960937d93f72d67182387192305305b705b1b94c4b77f6906020016107b3565b6001600160a01b0391821660009081527f88be536d5240c274a3b1d3a1be54482fd9caa294f08c62a7cde569f49a3c45016020908152604080832093909416825291909152205460ff1690565b336001600160a01b03861681148015906110fa57506110f8868261108c565b155b1561112b5760405163711bec9160e11b81526001600160a01b03808316600483015287166024820152604401610566565b61081e868686868661176b565b6111406114ec565b6001600160a01b03811661116a57604051631e4fbdf760e01b815260006004820152602401610566565b6111738161151e565b50565b7f88be536d5240c274a3b1d3a1be54482fd9caa294f08c62a7cde569f49a3c4502805460609160008051602061297e833981519152916111b5906125f9565b80601f01602080910402602001604051908101604052809291908181526020018280546111e1906125f9565b801561122e5780601f106112035761010080835404028352916020019161122e565b820191906000526020600020905b81548152906001019060200180831161121157829003601f168201915b5050505050915050919050565b6001600160a01b03841661126557604051632bfa23e760e11b815260006004820152602401610566565b6001600160a01b03851661128e57604051626a0d4560e21b815260006004820152602401610566565b61129b85858585856117ec565b5050505050565b6112aa61183f565b61117381611888565b6112bb61183f565b61117381611899565b610bbf61183f565b306001600160a01b037f000000000000000000000000000000000000000000000000000000000000000016148061135357507f00000000000000000000000000000000000000000000000000000000000000006001600160a01b031661134760008051602061295e833981519152546001600160a01b031690565b6001600160a01b031614155b15610bbf5760405163703e46dd60e11b815260040160405180910390fd5b6111736114ec565b816001600160a01b03166352d1902d6040518163ffffffff1660e01b8152600401602060405180830381865afa9250505080156113d3575060408051601f3d908101601f191682019092526113d0918101906127d8565b60015b6113fb57604051634c9c8ce360e01b81526001600160a01b0383166004820152602401610566565b60008051602061295e833981519152811461142c57604051632a87526960e21b815260048101829052602401610566565b61143683836118a1565b505050565b306001600160a01b037f00000000000000000000000000000000000000000000000000000000000000001614610bbf5760405163703e46dd60e11b815260040160405180910390fd5b6001600160a01b0383166114ad57604051626a0d4560e21b815260006004820152602401610566565b604080516001808252602082018590528183019081526060820184905260a0820190925260006080820181815291929161129b918791859085906117ec565b336114f5610bc1565b6001600160a01b031614610bbf5760405163118cdaa760e01b8152336004820152602401610566565b7f9016d09d72d40fdae2fd8ceac6b6234c7706214fd39c1cd1e609a0528c19930080546001600160a01b031981166001600160a01b03848116918217845560405192169182907f8be0079c531659141344cd1fd0a4f28419497f9722a3daafe3b4186f6b6457e090600090a3505050565b60008051602061297e8339815191526001600160a01b0383166115c75760405162ced3e160e81b815260006004820152602401610566565b6001600160a01b038481166000818152600184016020908152604080832094881680845294825291829020805460ff191687151590811790915591519182527f17307eab39ab6107e8899845ad3d59bd9653f200f220920489ca2b5937696c31910160405180910390a350505050565b6001600160a01b038116600081815260026020526040808220805460ff19166001179055517f1a74f3f80bcaac073ea380f49aa827c080f5c11a913e921997350afd3b56dcd19190a250565b6003805490600061169383612764565b909155505060035460408051606081018252848152602080820185905233828401819052600085815291829052929020815181906116d19082612679565b50602082015160018201906116e69082612679565b5060409182015160029190910180546001600160a01b0319166001600160a01b039283161790558216600090815260016020818152838320869055835190810190935290825261173991839185916118f7565b817f8443301405f337e5d871773f81107fb07d77d5f08fd2a5c7157a9c89951268ab85836040516106049291906127f1565b6001600160a01b03841661179557604051632bfa23e760e11b815260006004820152602401610566565b6001600160a01b0385166117be57604051626a0d4560e21b815260006004820152602401610566565b6040805160018082526020820186905281830190815260608201859052608082019092529061097087878484875b6117f885858585611954565b6001600160a01b0384161561129b5782513390600103611831576020848101519084015161182a838989858589611b82565b505061081e565b61081e818787878787611ca6565b7ff0c57e16840df040f15088dc2f81fe391c3923bec73e23a9662efc9c229c6a0054600160401b900460ff16610bbf57604051631afcd79f60e31b815260040160405180910390fd5b61189061183f565b61117381611d8f565b61114061183f565b6118aa82611dc9565b6040516001600160a01b038316907fbc7cd75a20ee27fd9adebab32041f755214dbc6bffa90cc0225b39da2e5c2d3b90600090a28051156118ef576114368282611e2e565b610a68611ea4565b6001600160a01b03841661192157604051632bfa23e760e11b815260006004820152602401610566565b6040805160018082526020820186905281830190815260608201859052608082019092529061081e6000878484876117ec565b8051825160008051602061297e83398151915291146119935782518251604051635b05999160e01b815260048101929092526024820152604401610566565b3360005b8451811015611aa2576020818102868101820151908601909101516001600160a01b03891615611a4a576000828152602086815260408083206001600160a01b038d16845290915290205481811015611a23576040516303dee4c560e01b81526001600160a01b038b166004820152602481018290526044810183905260648101849052608401610566565b6000838152602087815260408083206001600160a01b038e16845290915290209082900390555b6001600160a01b03881615611a8f576000828152602086815260408083206001600160a01b038c16845290915281208054839290611a8990849061281b565b90915550505b505080611a9b90612764565b9050611997565b508351600103611b235760208401516000906020850151909150866001600160a01b0316886001600160a01b0316846001600160a01b03167fc3d58168c5ae7397731d063d5bbf3d657854427343f4c083240f7aacaa2d0f628585604051611b14929190918252602082015260400190565b60405180910390a4505061081e565b846001600160a01b0316866001600160a01b0316826001600160a01b03167f4a39dc06d4c0dbc64b70af90fd698a233a518aa5d07e595d983b8c0526c8f7fb8787604051611b7292919061282e565b60405180910390a4505050505050565b6001600160a01b0384163b1561081e5760405163f23a6e6160e01b81526001600160a01b0385169063f23a6e6190611bc69089908990889088908890600401612853565b6020604051808303816000875af1925050508015611c01575060408051601f3d908101601f19168201909252611bfe91810190612898565b60015b611c6a573d808015611c2f576040519150601f19603f3d011682016040523d82523d6000602084013e611c34565b606091505b508051600003611c6257604051632bfa23e760e11b81526001600160a01b0386166004820152602401610566565b805181602001fd5b6001600160e01b0319811663f23a6e6160e01b1461097057604051632bfa23e760e11b81526001600160a01b0386166004820152602401610566565b6001600160a01b0384163b1561081e5760405163bc197c8160e01b81526001600160a01b0385169063bc197c8190611cea90899089908890889088906004016128b5565b6020604051808303816000875af1925050508015611d25575060408051601f3d908101601f19168201909252611d2291810190612898565b60015b611d53573d808015611c2f576040519150601f19603f3d011682016040523d82523d6000602084013e611c34565b6001600160e01b0319811663bc197c8160e01b1461097057604051632bfa23e760e11b81526001600160a01b0386166004820152602401610566565b60008051602061297e8339815191527f88be536d5240c274a3b1d3a1be54482fd9caa294f08c62a7cde569f49a3c45026114368382612679565b806001600160a01b03163b600003611dff57604051634c9c8ce360e01b81526001600160a01b0382166004820152602401610566565b60008051602061295e83398151915280546001600160a01b0319166001600160a01b0392909216919091179055565b6060600080846001600160a01b031684604051611e4b9190612913565b600060405180830381855af49150503d8060008114611e86576040519150601f19603f3d011682016040523d82523d6000602084013e611e8b565b606091505b5091509150611e9b858383611ec3565b95945050505050565b3415610bbf5760405163b398979f60e01b815260040160405180910390fd5b606082611ed857611ed382611f1f565b6106c9565b8151158015611eef57506001600160a01b0384163b155b15611f1857604051639996b31560e01b81526001600160a01b0385166004820152602401610566565b5092915050565b805115611f2f5780518082602001fd5b604051630a12f52160e11b815260040160405180910390fd5b508054611f54906125f9565b6000825580601f10611f64575050565b601f01602090049060005260206000209081019061117391905b80821115611f925760008155600101611f7e565b5090565b80356001600160a01b0381168114611fad57600080fd5b919050565b60008060408385031215611fc557600080fd5b611fce83611f96565b946020939093013593505050565b6001600160e01b03198116811461117357600080fd5b60006020828403121561200457600080fd5b81356106c981611fdc565b634e487b7160e01b600052604160045260246000fd5b604051601f8201601f191681016001600160401b038111828210171561204d5761204d61200f565b604052919050565b600082601f83011261206657600080fd5b81356001600160401b0381111561207f5761207f61200f565b612092601f8201601f1916602001612025565b8181528460208386010111156120a757600080fd5b816020850160208301376000918101602001919091529392505050565b600080600080608085870312156120da57600080fd5b8435935060208501356001600160401b03808211156120f857600080fd5b61210488838901612055565b9450604087013591508082111561211a57600080fd5b5061212787828801612055565b92505061213660608601611f96565b905092959194509250565b60006020828403121561215357600080fd5b5035919050565b60005b8381101561217557818101518382015260200161215d565b50506000910152565b6000815180845261219681602086016020860161215a565b601f01601f19169290920160200192915050565b6020815260006106c9602083018461217e565b600080604083850312156121d057600080fd5b8235915060208301356001600160401b038111156121ed57600080fd5b6121f985828601612055565b9150509250929050565b60006020828403121561221557600080fd5b6106c982611f96565b60006001600160401b038211156122375761223761200f565b5060051b60200190565b600082601f83011261225257600080fd5b813560206122676122628361221e565b612025565b82815260059290921b8401810191818101908684111561228657600080fd5b8286015b848110156122a1578035835291830191830161228a565b509695505050505050565b600080600080600060a086880312156122c457600080fd5b6122cd86611f96565b94506122db60208701611f96565b935060408601356001600160401b03808211156122f757600080fd5b61230389838a01612241565b9450606088013591508082111561231957600080fd5b61232589838a01612241565b9350608088013591508082111561233b57600080fd5b5061234888828901612055565b9150509295509295909350565b6000806040838503121561236857600080fd5b61237183611f96565b915061237f60208401611f96565b90509250929050565b6000806040838503121561239b57600080fd5b82356001600160401b03808211156123b257600080fd5b818501915085601f8301126123c657600080fd5b813560206123d66122628361221e565b82815260059290921b840181019181810190898411156123f557600080fd5b948201945b8386101561241a5761240b86611f96565b825294820194908201906123fa565b9650508601359250508082111561243057600080fd5b506121f985828601612241565b600081518084526020808501945080840160005b8381101561246d57815187529582019590820190600101612451565b509495945050505050565b6020815260006106c9602083018461243d565b6000806040838503121561249e57600080fd5b6124a783611f96565b915060208301356001600160401b038111156121ed57600080fd5b600080604083850312156124d557600080fd5b6124de83611f96565b9150602083013580151581146124f357600080fd5b809150509250929050565b606081526000612511606083018661217e565b8281036020840152612523818661217e565b91505060018060a01b0383166040830152949350505050565b6000806040838503121561254f57600080fd5b82356001600160401b038082111561256657600080fd5b61257286838701612055565b9350602085013591508082111561258857600080fd5b506121f985828601612055565b600080600080600060a086880312156125ad57600080fd5b6125b686611f96565b94506125c460208701611f96565b9350604086013592506060860135915060808601356001600160401b038111156125ed57600080fd5b61234888828901612055565b600181811c9082168061260d57607f821691505b60208210810361262d57634e487b7160e01b600052602260045260246000fd5b50919050565b601f82111561143657600081815260208120601f850160051c8101602086101561265a5750805b601f850160051c820191505b8181101561081e57828155600101612666565b81516001600160401b038111156126925761269261200f565b6126a6816126a084546125f9565b84612633565b602080601f8311600181146126db57600084156126c35750858301515b600019600386901b1c1916600185901b17855561081e565b600085815260208120601f198616915b8281101561270a578886015182559484019460019091019084016126eb565b50858210156127285787850151600019600388901b60f8161c191681555b5050505050600190811b01905550565b634e487b7160e01b600052603260045260246000fd5b634e487b7160e01b600052601160045260246000fd5b6000600182016127765761277661274e565b5060010190565b60006060828403121561278f57600080fd5b604051606081018181106001600160401b03821117156127b1576127b161200f565b80604052508251815260208301516020820152604083015160408201528091505092915050565b6000602082840312156127ea57600080fd5b5051919050565b604081526000612804604083018561217e565b905060018060a01b03831660208301529392505050565b808201808211156104ae576104ae61274e565b604081526000612841604083018561243d565b8281036020840152611e9b818561243d565b6001600160a01b03868116825285166020820152604081018490526060810183905260a06080820181905260009061288d9083018461217e565b979650505050505050565b6000602082840312156128aa57600080fd5b81516106c981611fdc565b6001600160a01b0386811682528516602082015260a0604082018190526000906128e19083018661243d565b82810360608401526128f3818661243d565b90508281036080840152612907818561217e565b98975050505050505050565b6000825161292581846020870161215a565b919091019291505056fe68747470733a2f2f6d657461646174612e73656c6c6f7574732e6170702f6172746973742f7b69647d2e6a736f6e360894a13ba1a3210667c828492db98dca3e2076cc3735a920a3ca505d382bbc88be536d5240c274a3b1d3a1be54482fd9caa294f08c62a7cde569f49a3c4500a26469706673582212204abd40955e06bf421bbcb86601423fb9e2952328dcec71c58d5f60681f4f7d0164736f6c63430008140033","linkReferences":{}},"methodIdentifiers":{"UPGRADE_INTERFACE_VERSION()":"ad3cb1cc","acceptNomination(string,string)":"c8450ef4","balanceOf(address,uint256)":"00fdd58e","balanceOfBatch(address[],uint256[])":"4e1273f4","deregisterArtist(uint256)":"65f91e6d","getArtist(address)":"b949c804","initialize(address,address)":"485cc955","isApprovedForAll(address,address)":"e985e9c5","isArtistRegistered(address)":"64fd2886","nominate(address)":"b332180b","nominatedArtists(address)":"1fc65673","owner()":"8da5cb5b","proxiableUUID()":"52d1902d","renounceOwnership()":"715018a6","safeBatchTransferFrom(address,address,uint256[],uint256[],bytes)":"2eb2c2d6","safeTransferFrom(address,address,uint256,uint256,bytes)":"f242432a","setApprovalForAll(address,bool)":"a22cb465","setTokenURI(uint256,string)":"162094c4","supportsInterface(bytes4)":"01ffc9a7","transferOwnership(address)":"f2fde38b","updateArtist(uint256,string,string,address)":"05b47919","upgradeToAndCall(address,bytes)":"4f1ef286","uri(uint256)":"0e89341c"},"id":46}