{"abi":[{"type":"function","name":"nominatedArtists","inputs":[{"name":"","type":"address","internalType":"address"}],"outputs":[{"name":"","type":"bool","internalType":"bool"}],"stateMutability":"view"}],"bytecode":{"object":"0x608060405234801561001057600080fd5b5060c58061001f6000396000f3fe6080604052348015600f57600080fd5b506004361060285760003560e01c80631fc6567314602d575b600080fd5b604d60383660046061565b60026020526000908152604090205460ff1681565b604051901515815260200160405180910390f35b600060208284031215607257600080fd5b81356001600160a01b0381168114608857600080fd5b939250505056fea26469706673582212209e0aa3daf1f31b8ba5a7d8e88f3fa3ec45f58ef9dae2cd35ee4a8ef7924149b564736f6c63430008140033","linkReferences":{}},"methodIdentifiers":{"nominatedArtists(address)":"1fc65673"},"id":69}