{"abi":[{"type":"function","name":"UPGRADE_INTERFACE_VERSION","inputs":[],"outputs":[{"name":"","type":"string","internalType":"string"}],"stateMutability":"view"},{"type":"function","name":"acceptNomination","inputs":[{"name":"_name","type":"string","internalType":"string"},{"name":"_bio","type":"string","internalType":"string"}],"outputs":[],"stateMutability":"nonpayable"},{"type":"function","name":"balanceOf","inputs":[{"name":"account","type":"address","internalType":"address"},{"name":"id","type":"uint256","internalType":"uint256"}],"outputs":[{"name":"","type":"uint256","internalType":"uint256"}],"stateMutability":"view"},{"type":"function","name":"balanceOfBatch","inputs":[{"name":"accounts","type":"address[]","internalType":"address[]"},{"name":"ids","type":"uint256[]","internalType":"uint256[]"}],"outputs":[{"name":"","type":"uint256[]","internalType":"uint256[]"}],"stateMutability":"view"},{"type":"function","name":"contractURI","inputs":[],"outputs":[{"name":"","type":"string","internalType":"string"}],"stateMutability":"view"},{"type":"function","name":"deregisterArtist","inputs":[{"name":"_artistId","type":"uint256","internalType":"uint256"}],"outputs":[],"stateMutability":"nonpayable"},{"type":"function","name":"getArtist","inputs":[{"name":"artistAddress","type":"address","internalType":"address"}],"outputs":[{"name":"name","type":"string","internalType":"string"},{"name":"bio","type":"string","internalType":"string"},{"name":"wallet","type":"address","internalType":"address"}],"stateMutability":"view"},{"type":"function","name":"initialize","inputs":[{"name":"initialOwner","type":"address","internalType":"address"},{"name":"_referralModuleAddress","type":"address","internalType":"address"}],"outputs":[],"stateMutability":"nonpayable"},{"type":"function","name":"isApprovedForAll","inputs":[{"name":"account","type":"address","internalType":"address"},{"name":"operator","type":"address","internalType":"address"}],"outputs":[{"name":"","type":"bool","internalType":"bool"}],"stateMutability":"view"},{"type":"function","name":"isArtistRegistered","inputs":[{"name":"artistAddress","type":"address","internalType":"address"}],"outputs":[{"name":"isRegistered","type":"bool","internalType":"bool"}],"stateMutability":"view"},{"type":"function","name":"nominate","inputs":[{"name":"nominee","type":"address","internalType":"address"}],"outputs":[],"stateMutability":"nonpayable"},{"type":"function","name":"nominatedArtists","inputs":[{"name":"","type":"address","internalType":"address"}],"outputs":[{"name":"","type":"bool","internalType":"bool"}],"stateMutability":"view"},{"type":"function","name":"owner","inputs":[],"outputs":[{"name":"","type":"address","internalType":"address"}],"stateMutability":"view"},{"type":"function","name":"proxiableUUID","inputs":[],"outputs":[{"name":"","type":"bytes32","internalType":"bytes32"}],"stateMutability":"view"},{"type":"function","name":"renounceOwnership","inputs":[],"outputs":[],"stateMutability":"nonpayable"},{"type":"function","name":"safeBatchTransferFrom","inputs":[{"name":"from","type":"address","internalType":"address"},{"name":"to","type":"address","internalType":"address"},{"name":"ids","type":"uint256[]","internalType":"uint256[]"},{"name":"values","type":"uint256[]","internalType":"uint256[]"},{"name":"data","type":"bytes","internalType":"bytes"}],"outputs":[],"stateMutability":"nonpayable"},{"type":"function","name":"safeTransferFrom","inputs":[{"name":"from","type":"address","internalType":"address"},{"name":"to","type":"address","internalType":"address"},{"name":"id","type":"uint256","internalType":"uint256"},{"name":"value","type":"uint256","internalType":"uint256"},{"name":"data","type":"bytes","internalType":"bytes"}],"outputs":[],"stateMutability":"nonpayable"},{"type":"function","name":"setApprovalForAll","inputs":[{"name":"operator","type":"address","internalType":"address"},{"name":"approved","type":"bool","internalType":"bool"}],"outputs":[],"stateMutability":"nonpayable"},{"type":"function","name":"setContractURI","inputs":[{"name":"newURI","type":"string","internalType":"string"}],"outputs":[],"stateMutability":"nonpayable"},{"type":"function","name":"setTokenURI","inputs":[{"name":"tokenId","type":"uint256","internalType":"uint256"},{"name":"newURI","type":"string","internalType":"string"}],"outputs":[],"stateMutability":"nonpayable"},{"type":"function","name":"supportsInterface","inputs":[{"name":"interfaceId","type":"bytes4","internalType":"bytes4"}],"outputs":[{"name":"","type":"bool","internalType":"bool"}],"stateMutability":"view"},{"type":"function","name":"transferOwnership","inputs":[{"name":"newOwner","type":"address","internalType":"address"}],"outputs":[],"stateMutability":"nonpayable"},{"type":"function","name":"updateArtist","inputs":[{"name":"_artistId","type":"uint256","internalType":"uint256"},{"name":"_name","type":"string","internalType":"string"},{"name":"_bio","type":"string","internalType":"string"},{"name":"_wallet","type":"address","internalType":"address"}],"outputs":[],"stateMutability":"nonpayable"},{"type":"function","name":"upgradeToAndCall","inputs":[{"name":"newImplementation","type":"address","internalType":"address"},{"name":"data","type":"bytes","internalType":"bytes"}],"outputs":[],"stateMutability":"payable"},{"type":"function","name":"uri","inputs":[{"name":"tokenId","type":"uint256","internalType":"uint256"}],"outputs":[{"name":"","type":"string","internalType":"string"}],"stateMutability":"view"},{"type":"event","name":"ApprovalForAll","inputs":[{"name":"account","type":"address","indexed":true,"internalType":"address"},{"name":"operator","type":"address","indexed":true,"internalType":"address"},{"name":"approved","type":"bool","indexed":false,"internalType":"bool"}],"anonymous":false},{"type":"event","name":"ArtistAccepted","inputs":[{"name":"artistId","type":"uint256","indexed":true,"internalType":"uint256"},{"name":"artistAddress","type":"address","indexed":false,"internalType":"address"}],"anonymous":false},{"type":"event","name":"ArtistDeregistered","inputs":[{"name":"artistId","type":"uint256","indexed":true,"internalType":"uint256"}],"anonymous":false},{"type":"event","name":"ArtistNominated","inputs":[{"name":"nominee","type":"address","indexed":true,"internalType":"address"}],"anonymous":false},{"type":"event","name":"ArtistRegistered","inputs":[{"name":"artistId","type":"uint256","indexed":true,"internalType":"uint256"},{"name":"name","type":"string","indexed":false,"internalType":"string"},{"name":"wallet","type":"address","indexed":false,"internalType":"address"}],"anonymous":false},{"type":"event","name":"ArtistUpdated","inputs":[{"name":"artistId","type":"uint256","indexed":true,"internalType":"uint256"},{"name":"name","type":"string","indexed":false,"internalType":"string"},{"name":"bio","type":"string","indexed":false,"internalType":"string"},{"name":"wallet","type":"address","indexed":false,"internalType":"address"}],"anonymous":false},{"type":"event","name":"ArtistWaitlisted","inputs":[{"name":"artist","type":"address","indexed":true,"internalType":"address"}],"anonymous":false},{"type":"event","name":"Initialized","inputs":[{"name":"version","type":"uint64","indexed":false,"internalType":"uint64"}],"anonymous":false},{"type":"event","name":"OwnershipTransferred","inputs":[{"name":"previousOwner","type":"address","indexed":true,"internalType":"address"},{"name":"newOwner","type":"address","indexed":true,"internalType":"address"}],"anonymous":false},{"type":"event","name":"TransferBatch","inputs":[{"name":"operator","type":"address","indexed":true,"internalType":"address"},{"name":"from","type":"address","indexed":true,"internalType":"address"},{"name":"to","type":"address","indexed":true,"internalType":"address"},{"name":"ids","type":"uint256[]","indexed":false,"internalType":"uint256[]"},{"name":"values","type":"uint256[]","indexed":false,"internalType":"uint256[]"}],"anonymous":false},{"type":"event","name":"TransferSingle","inputs":[{"name":"operator","type":"address","indexed":true,"internalType":"address"},{"name":"from","type":"address","indexed":true,"internalType":"address"},{"name":"to","type":"address","indexed":true,"internalType":"address"},{"name":"id","type":"uint256","indexed":false,"internalType":"uint256"},{"name":"value","type":"uint256","indexed":false,"internalType":"uint256"}],"anonymous":false},{"type":"event","name":"URI","inputs":[{"name":"value","type":"string","indexed":false,"internalType":"string"},{"name":"id","type":"uint256","indexed":true,"internalType":"uint256"}],"anonymous":false},{"type":"event","name":"Upgraded","inputs":[{"name":"implementation","type":"address","indexed":true,"internalType":"address"}],"anonymous":false},{"type":"event","name":"contractURIUpdated","inputs":[{"name":"newURI","type":"string","indexed":false,"internalType":"string"}],"anonymous":false},{"type":"event","name":"tokenURIUpdated","inputs":[{"name":"newURI","type":"string","indexed":false,"internalType":"string"},{"name":"tokenId","type":"uint256","indexed":false,"internalType":"uint256"}],"anonymous":false},{"type":"error","name":"AddressEmptyCode","inputs":[{"name":"target","type":"address","internalType":"address"}]},{"type":"error","name":"ERC1155InsufficientBalance","inputs":[{"name":"sender","type":"address","internalType":"address"},{"name":"balance","type":"uint256","internalType":"uint256"},{"name":"needed","type":"uint256","internalType":"uint256"},{"name":"tokenId","type":"uint256","internalType":"uint256"}]},{"type":"error","name":"ERC1155InvalidApprover","inputs":[{"name":"approver","type":"address","internalType":"address"}]},{"type":"error","name":"ERC1155InvalidArrayLength","inputs":[{"name":"idsLength","type":"uint256","internalType":"uint256"},{"name":"valuesLength","type":"uint256","internalType":"uint256"}]},{"type":"error","name":"ERC1155InvalidOperator","inputs":[{"name":"operator","type":"address","internalType":"address"}]},{"type":"error","name":"ERC1155InvalidReceiver","inputs":[{"name":"receiver","type":"address","internalType":"address"}]},{"type":"error","name":"ERC1155InvalidSender","inputs":[{"name":"sender","type":"address","internalType":"address"}]},{"type":"error","name":"ERC1155MissingApprovalForAll","inputs":[{"name":"operator","type":"address","internalType":"address"},{"name":"owner","type":"address","internalType":"address"}]},{"type":"error","name":"ERC1967InvalidImplementation","inputs":[{"name":"implementation","type":"address","internalType":"address"}]},{"type":"error","name":"ERC1967NonPayable","inputs":[]},{"type":"error","name":"FailedInnerCall","inputs":[]},{"type":"error","name":"InvalidInitialization","inputs":[]},{"type":"error","name":"NotInitializing","inputs":[]},{"type":"error","name":"OwnableInvalidOwner","inputs":[{"name":"owner","type":"address","internalType":"address"}]},{"type":"error","name":"OwnableUnauthorizedAccount","inputs":[{"name":"account","type":"address","internalType":"address"}]},{"type":"error","name":"UUPSUnauthorizedCallContext","inputs":[]},{"type":"error","name":"UUPSUnsupportedProxiableUUID","inputs":[{"name":"slot","type":"bytes32","internalType":"bytes32"}]}],"bytecode":{"object":"0x60a06040523060805234801561001457600080fd5b50608051612d0461003e600039600081816114680152818161149101526115d70152612d046000f3fe6080604052600436106101655760003560e01c806365f91e6d116100d1578063b332180b1161008a578063e8a3d48511610064578063e8a3d48514610463578063e985e9c514610478578063f242432a14610498578063f2fde38b146104b857600080fd5b8063b332180b146103f4578063b949c80414610414578063c8450ef41461044357600080fd5b806365f91e6d14610321578063715018a6146103415780638da5cb5b14610356578063938e3d7b14610383578063a22cb465146103a3578063ad3cb1cc146103c357600080fd5b80632eb2c2d6116101235780632eb2c2d61461026c578063485cc9551461028c5780634e1273f4146102ac5780634f1ef286146102d957806352d1902d146102ec57806364fd28861461030157600080fd5b8062fdd58e1461016a57806301ffc9a71461019d57806305b47919146101cd5780630e89341c146101ef578063162094c41461021c5780631fc656731461023c575b600080fd5b34801561017657600080fd5b5061018a61018536600461221f565b6104d8565b6040519081526020015b60405180910390f35b3480156101a957600080fd5b506101bd6101b836600461225f565b61050f565b6040519015158152602001610194565b3480156101d957600080fd5b506101ed6101e8366004612331565b61055f565b005b3480156101fb57600080fd5b5061020f61020a3660046123ae565b61066d565b6040516101949190612417565b34801561022857600080fd5b506101ed61023736600461242a565b61074b565b34801561024857600080fd5b506101bd610257366004612470565b60026020526000908152604090205460ff1681565b34801561027857600080fd5b506101ed610287366004612519565b61083b565b34801561029857600080fd5b506101ed6102a73660046125c2565b6108a2565b3480156102b857600080fd5b506102cc6102c73660046125f5565b6109f5565b60405161019491906126e5565b6101ed6102e73660046126f8565b610ac9565b3480156102f857600080fd5b5061018a610ae8565b34801561030d57600080fd5b506101bd61031c366004612470565b610b05565b34801561032d57600080fd5b506101ed61033c3660046123ae565b610b50565b34801561034d57600080fd5b506101ed610c29565b34801561036257600080fd5b5061036b610c3d565b6040516001600160a01b039091168152602001610194565b34801561038f57600080fd5b506101ed61039e36600461272f565b610c6b565b3480156103af57600080fd5b506101ed6103be36600461276b565b610d1a565b3480156103cf57600080fd5b5061020f604051806040016040528060058152602001640352e302e360dc1b81525081565b34801561040057600080fd5b506101ed61040f366004612470565b610d25565b34801561042057600080fd5b5061043461042f366004612470565b610f3f565b604051610194939291906127a7565b34801561044f57600080fd5b506101ed61045e3660046127e5565b61110e565b34801561046f57600080fd5b5061020f6111be565b34801561048457600080fd5b506101bd6104933660046125c2565b611250565b3480156104a457600080fd5b506101ed6104b336600461283e565b61129d565b3480156104c457600080fd5b506101ed6104d3366004612470565b6112fc565b6000818152600080516020612caf833981519152602090815260408083206001600160a01b03861684529091529020545b92915050565b60006001600160e01b03198216636cdb3d1360e11b148061054057506001600160e01b031982166303a24d0760e21b145b8061050957506301ffc9a760e01b6001600160e01b0319831614610509565b600354841115801561058a57506000848152602081905260409020600201546001600160a01b031633145b6105ca5760405162461bcd60e51b815260206004820152600c60248201526b155b985d5d1a1bdc9a5e995960a21b60448201526064015b60405180910390fd5b60008481526020819052604090206105e28482612922565b5060008481526020819052604090206001016105fe8382612922565b506000848152602081905260409081902060020180546001600160a01b0319166001600160a01b0384161790555184907f93c1b7d53c3ea701fc058d4fa50c893d607c08afaceefa2ac1b2846b0d5e7dea9061065f908690869086906127a7565b60405180910390a250505050565b60008181526005602052604081208054606092919061068b906128a2565b80601f01602080910402602001604051908101604052809291908181526020018280546106b7906128a2565b80156107045780601f106106d957610100808354040283529160200191610704565b820191906000526020600020905b8154815290600101906020018083116106e757829003601f168201915b5050505050905060008151111561071b5792915050565b6107248361133a565b60405160200161073491906129e1565b604051602081830303815290604052915050919050565b610753610c3d565b6001600160a01b0316336001600160a01b0316148061078b57506000828152602081905260409020600201546001600160a01b031633145b6107e55760405162461bcd60e51b815260206004820152602560248201527f43616c6c6572206973206e6f7420746865206f776e6572206f722074686520616044820152641c9d1a5cdd60da1b60648201526084016105c1565b60008281526005602052604090206107fd8282612922565b507f69bf74d8e2557f16974db106e9451097ebe202794f859f8208ff05f826ffe9a4818360405161082f929190612a45565b60405180910390a15050565b336001600160a01b038616811480159061085c575061085a8682611250565b155b1561088d5760405163711bec9160e11b81526001600160a01b038083166004830152871660248201526044016105c1565b61089a86868686866113cc565b505050505050565b7ff0c57e16840df040f15088dc2f81fe391c3923bec73e23a9662efc9c229c6a008054600160401b810460ff1615906001600160401b03166000811580156108e75750825b90506000826001600160401b031660011480156109035750303b155b905081158015610911575080155b1561092f5760405163f92ee8a960e01b815260040160405180910390fd5b845467ffffffffffffffff19166001178555831561095957845460ff60401b1916600160401b1785555b61097a604051806060016040528060308152602001612c5f60309139611433565b61098387611444565b61098b611455565b600480546001600160a01b0319166001600160a01b03881617905583156109ec57845460ff60401b19168555604051600181527fc7f505b2f371ae2175ee4913f4499e1f2633a7b5936321eed1cdaeb6115181d29060200160405180910390a15b50505050505050565b60608151835114610a265781518351604051635b05999160e01b8152600481019290925260248201526044016105c1565b600083516001600160401b03811115610a4157610a4161227c565b604051908082528060200260200182016040528015610a6a578160200160208202803683370190505b50905060005b8451811015610ac157602080820286010151610a94906020808402870101516104d8565b828281518110610aa657610aa6612a67565b6020908102919091010152610aba81612a93565b9050610a70565b509392505050565b610ad161145d565b610ada82611502565b610ae4828261150a565b5050565b6000610af26115cc565b50600080516020612c8f83398151915290565b6001600160a01b0381166000908152600160205260408120548015801590610b4957506000818152602081905260409020600201546001600160a01b038481169116145b9392505050565b6003548111158015610b7b57506000818152602081905260409020600201546001600160a01b031633145b610bb65760405162461bcd60e51b815260206004820152600c60248201526b155b985d5d1a1bdc9a5e995960a21b60448201526064016105c1565b610bc233826001611615565b600081815260208190526040812090610bdb82826121b5565b610be96001830160006121b5565b5060020180546001600160a01b031916905560405181907f508aa18fe80cc3349fb880dc15451d171a92d429567a32db4bc488c1fb60429090600090a250565b610c3161167d565b610c3b60006116af565b565b7f9016d09d72d40fdae2fd8ceac6b6234c7706214fd39c1cd1e609a0528c199300546001600160a01b031690565b610c73610c3d565b6001600160a01b0316336001600160a01b031614610cd35760405162461bcd60e51b815260206004820152601760248201527f43616c6c6572206973206e6f7420746865206f776e657200000000000000000060448201526064016105c1565b6006610cdf8282612922565b507fec1b77d5180db946da43e2854d0f3991ac8565d3c6f927efd2fa44c16b36a4f881604051610d0f9190612417565b60405180910390a150565b610ae4338383611720565b6001600160a01b03811660009081526002602052604090205460ff1615610d8e5760405162461bcd60e51b815260206004820152601960248201527f4e6f6d696e656520616c7265616479206e6f6d696e617465640000000000000060448201526064016105c1565b6001600160a01b03811660009081526001602052604090205415610df45760405162461bcd60e51b815260206004820152601960248201527f4e6f6d696e656520616c726561647920616e206172746973740000000000000060448201526064016105c1565b60048054604051632615fb8360e21b815233928101929092526000916001600160a01b0390911690639857ee0c90602401606060405180830381865afa158015610e42573d6000803e3d6000fd5b505050506040513d601f19601f82011682018060405250810190610e669190612aac565b8051909150610ec35760405162461bcd60e51b8152602060048201526024808201527f496e73756666696369656e742061727469737420726566657272616c206372656044820152636469747360e01b60648201526084016105c1565b600480546040516321ceab3d60e01b815233928101929092526001602483015260006044830181905260648301526001600160a01b0316906321ceab3d90608401600060405180830381600087803b158015610f1e57600080fd5b505af1158015610f32573d6000803e3d6000fd5b50505050610ae4826117c8565b6001600160a01b0381166000908152600160205260408120546060918291808203610fa45760405162461bcd60e51b8152602060048201526015602482015274105c9d1a5cdd08191bd95cc81b9bdd08195e1a5cdd605a1b60448201526064016105c1565b600081815260208190526040808220815160608101909252805482908290610fcb906128a2565b80601f0160208091040260200160405190810160405280929190818152602001828054610ff7906128a2565b80156110445780601f1061101957610100808354040283529160200191611044565b820191906000526020600020905b81548152906001019060200180831161102757829003601f168201915b5050505050815260200160018201805461105d906128a2565b80601f0160208091040260200160405190810160405280929190818152602001828054611089906128a2565b80156110d65780601f106110ab576101008083540402835291602001916110d6565b820191906000526020600020905b8154815290600101906020018083116110b957829003601f168201915b5050509183525050600291909101546001600160a01b0316602091820152815190820151604090920151909891975095509350505050565b3360009081526002602052604090205460ff166111635760405162461bcd60e51b8152602060048201526013602482015272139bc81b9bdb5a5b985d1a5bdb88199bdd5b99606a1b60448201526064016105c1565b336000908152600260205260409020805460ff191690556111848282611814565b6003546040513381527f0eda72f82c1fa8453a960937d93f72d67182387192305305b705b1b94c4b77f69060200160405180910390a25050565b6060600680546111cd906128a2565b80601f01602080910402602001604051908101604052809291908181526020018280546111f9906128a2565b80156112465780601f1061121b57610100808354040283529160200191611246565b820191906000526020600020905b81548152906001019060200180831161122957829003601f168201915b5050505050905090565b6001600160a01b0391821660009081527f88be536d5240c274a3b1d3a1be54482fd9caa294f08c62a7cde569f49a3c45016020908152604080832093909416825291909152205460ff1690565b336001600160a01b03861681148015906112be57506112bc8682611250565b155b156112ef5760405163711bec9160e11b81526001600160a01b038083166004830152871660248201526044016105c1565b61089a86868686866118fc565b61130461167d565b6001600160a01b03811661132e57604051631e4fbdf760e01b8152600060048201526024016105c1565b611337816116af565b50565b6060600061134783611981565b60010190506000816001600160401b038111156113665761136661227c565b6040519080825280601f01601f191660200182016040528015611390576020820181803683370190505b5090508181016020015b600019016f181899199a1a9b1b9c1cb0b131b232b360811b600a86061a8153600a850494508461139a57509392505050565b6001600160a01b0384166113f657604051632bfa23e760e11b8152600060048201526024016105c1565b6001600160a01b03851661141f57604051626a0d4560e21b8152600060048201526024016105c1565b61142c8585858585611a59565b5050505050565b61143b611aac565b61133781611af5565b61144c611aac565b61133781611b06565b610c3b611aac565b306001600160a01b037f00000000000000000000000000000000000000000000000000000000000000001614806114e457507f00000000000000000000000000000000000000000000000000000000000000006001600160a01b03166114d8600080516020612c8f833981519152546001600160a01b031690565b6001600160a01b031614155b15610c3b5760405163703e46dd60e11b815260040160405180910390fd5b61133761167d565b816001600160a01b03166352d1902d6040518163ffffffff1660e01b8152600401602060405180830381865afa925050508015611564575060408051601f3d908101601f1916820190925261156191810190612b07565b60015b61158c57604051634c9c8ce360e01b81526001600160a01b03831660048201526024016105c1565b600080516020612c8f83398151915281146115bd57604051632a87526960e21b8152600481018290526024016105c1565b6115c78383611b0e565b505050565b306001600160a01b037f00000000000000000000000000000000000000000000000000000000000000001614610c3b5760405163703e46dd60e11b815260040160405180910390fd5b6001600160a01b03831661163e57604051626a0d4560e21b8152600060048201526024016105c1565b604080516001808252602082018590528183019081526060820184905260a0820190925260006080820181815291929161142c91879185908590611a59565b33611686610c3d565b6001600160a01b031614610c3b5760405163118cdaa760e01b81523360048201526024016105c1565b7f9016d09d72d40fdae2fd8ceac6b6234c7706214fd39c1cd1e609a0528c19930080546001600160a01b031981166001600160a01b03848116918217845560405192169182907f8be0079c531659141344cd1fd0a4f28419497f9722a3daafe3b4186f6b6457e090600090a3505050565b600080516020612caf8339815191526001600160a01b0383166117585760405162ced3e160e81b8152600060048201526024016105c1565b6001600160a01b038481166000818152600184016020908152604080832094881680845294825291829020805460ff191687151590811790915591519182527f17307eab39ab6107e8899845ad3d59bd9653f200f220920489ca2b5937696c31910160405180910390a350505050565b6001600160a01b038116600081815260026020526040808220805460ff19166001179055517f1a74f3f80bcaac073ea380f49aa827c080f5c11a913e921997350afd3b56dcd19190a250565b6003805490600061182483612a93565b909155505060035460408051606081018252848152602080820185905233828401819052600085815291829052929020815181906118629082612922565b50602082015160018201906118779082612922565b5060409182015160029190910180546001600160a01b0319166001600160a01b03928316179055821660009081526001602081815283832086905583519081019093529082526118ca9183918591611b64565b817f8443301405f337e5d871773f81107fb07d77d5f08fd2a5c7157a9c89951268ab858360405161065f929190612b20565b6001600160a01b03841661192657604051632bfa23e760e11b8152600060048201526024016105c1565b6001600160a01b03851661194f57604051626a0d4560e21b8152600060048201526024016105c1565b604080516001808252602082018690528183019081526060820185905260808201909252906109ec8787848487611a59565b60008072184f03e93ff9f4daa797ed6e38ed64bf6a1f0160401b83106119c05772184f03e93ff9f4daa797ed6e38ed64bf6a1f0160401b830492506040015b6d04ee2d6d415b85acef810000000083106119ec576d04ee2d6d415b85acef8100000000830492506020015b662386f26fc100008310611a0a57662386f26fc10000830492506010015b6305f5e1008310611a22576305f5e100830492506008015b6127108310611a3657612710830492506004015b60648310611a48576064830492506002015b600a83106105095760010192915050565b611a6585858585611bc1565b6001600160a01b0384161561142c5782513390600103611a9e5760208481015190840151611a97838989858589611def565b505061089a565b61089a818787878787611f13565b7ff0c57e16840df040f15088dc2f81fe391c3923bec73e23a9662efc9c229c6a0054600160401b900460ff16610c3b57604051631afcd79f60e31b815260040160405180910390fd5b611afd611aac565b61133781611ffc565b611304611aac565b611b1782612036565b6040516001600160a01b038316907fbc7cd75a20ee27fd9adebab32041f755214dbc6bffa90cc0225b39da2e5c2d3b90600090a2805115611b5c576115c7828261209b565b610ae4612111565b6001600160a01b038416611b8e57604051632bfa23e760e11b8152600060048201526024016105c1565b6040805160018082526020820186905281830190815260608201859052608082019092529061089a600087848487611a59565b80518251600080516020612caf8339815191529114611c005782518251604051635b05999160e01b8152600481019290925260248201526044016105c1565b3360005b8451811015611d0f576020818102868101820151908601909101516001600160a01b03891615611cb7576000828152602086815260408083206001600160a01b038d16845290915290205481811015611c90576040516303dee4c560e01b81526001600160a01b038b1660048201526024810182905260448101839052606481018490526084016105c1565b6000838152602087815260408083206001600160a01b038e16845290915290209082900390555b6001600160a01b03881615611cfc576000828152602086815260408083206001600160a01b038c16845290915281208054839290611cf6908490612b4a565b90915550505b505080611d0890612a93565b9050611c04565b508351600103611d905760208401516000906020850151909150866001600160a01b0316886001600160a01b0316846001600160a01b03167fc3d58168c5ae7397731d063d5bbf3d657854427343f4c083240f7aacaa2d0f628585604051611d81929190918252602082015260400190565b60405180910390a4505061089a565b846001600160a01b0316866001600160a01b0316826001600160a01b03167f4a39dc06d4c0dbc64b70af90fd698a233a518aa5d07e595d983b8c0526c8f7fb8787604051611ddf929190612b5d565b60405180910390a4505050505050565b6001600160a01b0384163b1561089a5760405163f23a6e6160e01b81526001600160a01b0385169063f23a6e6190611e339089908990889088908890600401612b82565b6020604051808303816000875af1925050508015611e6e575060408051601f3d908101601f19168201909252611e6b91810190612bc7565b60015b611ed7573d808015611e9c576040519150601f19603f3d011682016040523d82523d6000602084013e611ea1565b606091505b508051600003611ecf57604051632bfa23e760e11b81526001600160a01b03861660048201526024016105c1565b805181602001fd5b6001600160e01b0319811663f23a6e6160e01b146109ec57604051632bfa23e760e11b81526001600160a01b03861660048201526024016105c1565b6001600160a01b0384163b1561089a5760405163bc197c8160e01b81526001600160a01b0385169063bc197c8190611f579089908990889088908890600401612be4565b6020604051808303816000875af1925050508015611f92575060408051601f3d908101601f19168201909252611f8f91810190612bc7565b60015b611fc0573d808015611e9c576040519150601f19603f3d011682016040523d82523d6000602084013e611ea1565b6001600160e01b0319811663bc197c8160e01b146109ec57604051632bfa23e760e11b81526001600160a01b03861660048201526024016105c1565b600080516020612caf8339815191527f88be536d5240c274a3b1d3a1be54482fd9caa294f08c62a7cde569f49a3c45026115c78382612922565b806001600160a01b03163b60000361206c57604051634c9c8ce360e01b81526001600160a01b03821660048201526024016105c1565b600080516020612c8f83398151915280546001600160a01b0319166001600160a01b0392909216919091179055565b6060600080846001600160a01b0316846040516120b89190612c42565b600060405180830381855af49150503d80600081146120f3576040519150601f19603f3d011682016040523d82523d6000602084013e6120f8565b606091505b5091509150612108858383612130565b95945050505050565b3415610c3b5760405163b398979f60e01b815260040160405180910390fd5b606082612145576121408261218c565b610b49565b815115801561215c57506001600160a01b0384163b155b1561218557604051639996b31560e01b81526001600160a01b03851660048201526024016105c1565b5092915050565b80511561219c5780518082602001fd5b604051630a12f52160e11b815260040160405180910390fd5b5080546121c1906128a2565b6000825580601f106121d1575050565b601f01602090049060005260206000209081019061133791905b808211156121ff57600081556001016121eb565b5090565b80356001600160a01b038116811461221a57600080fd5b919050565b6000806040838503121561223257600080fd5b61223b83612203565b946020939093013593505050565b6001600160e01b03198116811461133757600080fd5b60006020828403121561227157600080fd5b8135610b4981612249565b634e487b7160e01b600052604160045260246000fd5b604051601f8201601f191681016001600160401b03811182821017156122ba576122ba61227c565b604052919050565b600082601f8301126122d357600080fd5b81356001600160401b038111156122ec576122ec61227c565b6122ff601f8201601f1916602001612292565b81815284602083860101111561231457600080fd5b816020850160208301376000918101602001919091529392505050565b6000806000806080858703121561234757600080fd5b8435935060208501356001600160401b038082111561236557600080fd5b612371888389016122c2565b9450604087013591508082111561238757600080fd5b50612394878288016122c2565b9250506123a360608601612203565b905092959194509250565b6000602082840312156123c057600080fd5b5035919050565b60005b838110156123e25781810151838201526020016123ca565b50506000910152565b600081518084526124038160208601602086016123c7565b601f01601f19169290920160200192915050565b602081526000610b4960208301846123eb565b6000806040838503121561243d57600080fd5b8235915060208301356001600160401b0381111561245a57600080fd5b612466858286016122c2565b9150509250929050565b60006020828403121561248257600080fd5b610b4982612203565b60006001600160401b038211156124a4576124a461227c565b5060051b60200190565b600082601f8301126124bf57600080fd5b813560206124d46124cf8361248b565b612292565b82815260059290921b840181019181810190868411156124f357600080fd5b8286015b8481101561250e57803583529183019183016124f7565b509695505050505050565b600080600080600060a0868803121561253157600080fd5b61253a86612203565b945061254860208701612203565b935060408601356001600160401b038082111561256457600080fd5b61257089838a016124ae565b9450606088013591508082111561258657600080fd5b61259289838a016124ae565b935060808801359150808211156125a857600080fd5b506125b5888289016122c2565b9150509295509295909350565b600080604083850312156125d557600080fd5b6125de83612203565b91506125ec60208401612203565b90509250929050565b6000806040838503121561260857600080fd5b82356001600160401b038082111561261f57600080fd5b818501915085601f83011261263357600080fd5b813560206126436124cf8361248b565b82815260059290921b8401810191818101908984111561266257600080fd5b948201945b838610156126875761267886612203565b82529482019490820190612667565b9650508601359250508082111561269d57600080fd5b50612466858286016124ae565b600081518084526020808501945080840160005b838110156126da578151875295820195908201906001016126be565b509495945050505050565b602081526000610b4960208301846126aa565b6000806040838503121561270b57600080fd5b61271483612203565b915060208301356001600160401b0381111561245a57600080fd5b60006020828403121561274157600080fd5b81356001600160401b0381111561275757600080fd5b612763848285016122c2565b949350505050565b6000806040838503121561277e57600080fd5b61278783612203565b91506020830135801515811461279c57600080fd5b809150509250929050565b6060815260006127ba60608301866123eb565b82810360208401526127cc81866123eb565b91505060018060a01b0383166040830152949350505050565b600080604083850312156127f857600080fd5b82356001600160401b038082111561280f57600080fd5b61281b868387016122c2565b9350602085013591508082111561283157600080fd5b50612466858286016122c2565b600080600080600060a0868803121561285657600080fd5b61285f86612203565b945061286d60208701612203565b9350604086013592506060860135915060808601356001600160401b0381111561289657600080fd5b6125b5888289016122c2565b600181811c908216806128b657607f821691505b6020821081036128d657634e487b7160e01b600052602260045260246000fd5b50919050565b601f8211156115c757600081815260208120601f850160051c810160208610156129035750805b601f850160051c820191505b8181101561089a5782815560010161290f565b81516001600160401b0381111561293b5761293b61227c565b61294f8161294984546128a2565b846128dc565b602080601f831160018114612984576000841561296c5750858301515b600019600386901b1c1916600185901b17855561089a565b600085815260208120601f198616915b828110156129b357888601518255948401946001909101908401612994565b50858210156129d15787850151600019600388901b60f8161c191681555b5050505050600190811b01905550565b7f68747470733a2f2f6d657461646174612e73656c6c6f75742e656e657267792f8152666172746973742f60c81b602082015260008251612a298160278501602087016123c7565b64173539b7b760d91b6027939091019283015250602c01919050565b604081526000612a5860408301856123eb565b90508260208301529392505050565b634e487b7160e01b600052603260045260246000fd5b634e487b7160e01b600052601160045260246000fd5b600060018201612aa557612aa5612a7d565b5060010190565b600060608284031215612abe57600080fd5b604051606081018181106001600160401b0382111715612ae057612ae061227c565b80604052508251815260208301516020820152604083015160408201528091505092915050565b600060208284031215612b1957600080fd5b5051919050565b604081526000612b3360408301856123eb565b905060018060a01b03831660208301529392505050565b8082018082111561050957610509612a7d565b604081526000612b7060408301856126aa565b828103602084015261210881856126aa565b6001600160a01b03868116825285166020820152604081018490526060810183905260a060808201819052600090612bbc908301846123eb565b979650505050505050565b600060208284031215612bd957600080fd5b8151610b4981612249565b6001600160a01b0386811682528516602082015260a060408201819052600090612c10908301866126aa565b8281036060840152612c2281866126aa565b90508281036080840152612c3681856123eb565b98975050505050505050565b60008251612c548184602087016123c7565b919091019291505056fe68747470733a2f2f6d657461646174612e73656c6c6f75742e656e657267792f6172746973742f7b69647d2e6a736f6e360894a13ba1a3210667c828492db98dca3e2076cc3735a920a3ca505d382bbc88be536d5240c274a3b1d3a1be54482fd9caa294f08c62a7cde569f49a3c4500a26469706673582212207ded62ea0d9b88739a5d473900afa2d4f7a7bef75b9b67432befb5a125f6347a64736f6c63430008140033","linkReferences":{}},"methodIdentifiers":{"UPGRADE_INTERFACE_VERSION()":"ad3cb1cc","acceptNomination(string,string)":"c8450ef4","balanceOf(address,uint256)":"00fdd58e","balanceOfBatch(address[],uint256[])":"4e1273f4","contractURI()":"e8a3d485","deregisterArtist(uint256)":"65f91e6d","getArtist(address)":"b949c804","initialize(address,address)":"485cc955","isApprovedForAll(address,address)":"e985e9c5","isArtistRegistered(address)":"64fd2886","nominate(address)":"b332180b","nominatedArtists(address)":"1fc65673","owner()":"8da5cb5b","proxiableUUID()":"52d1902d","renounceOwnership()":"715018a6","safeBatchTransferFrom(address,address,uint256[],uint256[],bytes)":"2eb2c2d6","safeTransferFrom(address,address,uint256,uint256,bytes)":"f242432a","setApprovalForAll(address,bool)":"a22cb465","setContractURI(string)":"938e3d7b","setTokenURI(uint256,string)":"162094c4","supportsInterface(bytes4)":"01ffc9a7","transferOwnership(address)":"f2fde38b","updateArtist(uint256,string,string,address)":"05b47919","upgradeToAndCall(address,bytes)":"4f1ef286","uri(uint256)":"0e89341c"},"id":59}