{"abi":[{"type":"function","name":"UPGRADE_INTERFACE_VERSION","inputs":[],"outputs":[{"name":"","type":"string","internalType":"string"}],"stateMutability":"view"},{"type":"function","name":"acceptNomination","inputs":[{"name":"_name","type":"string","internalType":"string"},{"name":"_bio","type":"string","internalType":"string"}],"outputs":[],"stateMutability":"nonpayable"},{"type":"function","name":"balanceOf","inputs":[{"name":"account","type":"address","internalType":"address"},{"name":"id","type":"uint256","internalType":"uint256"}],"outputs":[{"name":"","type":"uint256","internalType":"uint256"}],"stateMutability":"view"},{"type":"function","name":"balanceOfBatch","inputs":[{"name":"accounts","type":"address[]","internalType":"address[]"},{"name":"ids","type":"uint256[]","internalType":"uint256[]"}],"outputs":[{"name":"","type":"uint256[]","internalType":"uint256[]"}],"stateMutability":"view"},{"type":"function","name":"deregisterArtist","inputs":[{"name":"_artistId","type":"uint256","internalType":"uint256"}],"outputs":[],"stateMutability":"nonpayable"},{"type":"function","name":"getArtist","inputs":[{"name":"artistAddress","type":"address","internalType":"address"}],"outputs":[{"name":"name","type":"string","internalType":"string"},{"name":"bio","type":"string","internalType":"string"},{"name":"wallet","type":"address","internalType":"address"}],"stateMutability":"view"},{"type":"function","name":"initialize","inputs":[{"name":"initialOwner","type":"address","internalType":"address"},{"name":"_referralModuleAddress","type":"address","internalType":"address"}],"outputs":[],"stateMutability":"nonpayable"},{"type":"function","name":"isApprovedForAll","inputs":[{"name":"account","type":"address","internalType":"address"},{"name":"operator","type":"address","internalType":"address"}],"outputs":[{"name":"","type":"bool","internalType":"bool"}],"stateMutability":"view"},{"type":"function","name":"nominate","inputs":[{"name":"nominee","type":"address","internalType":"address"}],"outputs":[],"stateMutability":"nonpayable"},{"type":"function","name":"nominatedArtists","inputs":[{"name":"","type":"address","internalType":"address"}],"outputs":[{"name":"","type":"bool","internalType":"bool"}],"stateMutability":"view"},{"type":"function","name":"owner","inputs":[],"outputs":[{"name":"","type":"address","internalType":"address"}],"stateMutability":"view"},{"type":"function","name":"proxiableUUID","inputs":[],"outputs":[{"name":"","type":"bytes32","internalType":"bytes32"}],"stateMutability":"view"},{"type":"function","name":"renounceOwnership","inputs":[],"outputs":[],"stateMutability":"nonpayable"},{"type":"function","name":"safeBatchTransferFrom","inputs":[{"name":"from","type":"address","internalType":"address"},{"name":"to","type":"address","internalType":"address"},{"name":"ids","type":"uint256[]","internalType":"uint256[]"},{"name":"values","type":"uint256[]","internalType":"uint256[]"},{"name":"data","type":"bytes","internalType":"bytes"}],"outputs":[],"stateMutability":"nonpayable"},{"type":"function","name":"safeTransferFrom","inputs":[{"name":"from","type":"address","internalType":"address"},{"name":"to","type":"address","internalType":"address"},{"name":"id","type":"uint256","internalType":"uint256"},{"name":"value","type":"uint256","internalType":"uint256"},{"name":"data","type":"bytes","internalType":"bytes"}],"outputs":[],"stateMutability":"nonpayable"},{"type":"function","name":"setApprovalForAll","inputs":[{"name":"operator","type":"address","internalType":"address"},{"name":"approved","type":"bool","internalType":"bool"}],"outputs":[],"stateMutability":"nonpayable"},{"type":"function","name":"setTokenURI","inputs":[{"name":"tokenId","type":"uint256","internalType":"uint256"},{"name":"newURI","type":"string","internalType":"string"}],"outputs":[],"stateMutability":"nonpayable"},{"type":"function","name":"supportsInterface","inputs":[{"name":"interfaceId","type":"bytes4","internalType":"bytes4"}],"outputs":[{"name":"","type":"bool","internalType":"bool"}],"stateMutability":"view"},{"type":"function","name":"transferOwnership","inputs":[{"name":"newOwner","type":"address","internalType":"address"}],"outputs":[],"stateMutability":"nonpayable"},{"type":"function","name":"updateArtist","inputs":[{"name":"_artistId","type":"uint256","internalType":"uint256"},{"name":"_name","type":"string","internalType":"string"},{"name":"_bio","type":"string","internalType":"string"},{"name":"_wallet","type":"address","internalType":"address"}],"outputs":[],"stateMutability":"nonpayable"},{"type":"function","name":"upgradeToAndCall","inputs":[{"name":"newImplementation","type":"address","internalType":"address"},{"name":"data","type":"bytes","internalType":"bytes"}],"outputs":[],"stateMutability":"payable"},{"type":"function","name":"uri","inputs":[{"name":"tokenId","type":"uint256","internalType":"uint256"}],"outputs":[{"name":"","type":"string","internalType":"string"}],"stateMutability":"view"},{"type":"event","name":"ApprovalForAll","inputs":[{"name":"account","type":"address","indexed":true,"internalType":"address"},{"name":"operator","type":"address","indexed":true,"internalType":"address"},{"name":"approved","type":"bool","indexed":false,"internalType":"bool"}],"anonymous":false},{"type":"event","name":"ArtistAccepted","inputs":[{"name":"artistId","type":"uint256","indexed":true,"internalType":"uint256"},{"name":"artistAddress","type":"address","indexed":false,"internalType":"address"}],"anonymous":false},{"type":"event","name":"ArtistDeregistered","inputs":[{"name":"artistId","type":"uint256","indexed":true,"internalType":"uint256"}],"anonymous":false},{"type":"event","name":"ArtistNominated","inputs":[{"name":"nominee","type":"address","indexed":true,"internalType":"address"}],"anonymous":false},{"type":"event","name":"ArtistRegistered","inputs":[{"name":"artistId","type":"uint256","indexed":true,"internalType":"uint256"},{"name":"name","type":"string","indexed":false,"internalType":"string"},{"name":"wallet","type":"address","indexed":false,"internalType":"address"}],"anonymous":false},{"type":"event","name":"ArtistUpdated","inputs":[{"name":"artistId","type":"uint256","indexed":true,"internalType":"uint256"},{"name":"name","type":"string","indexed":false,"internalType":"string"},{"name":"bio","type":"string","indexed":false,"internalType":"string"},{"name":"wallet","type":"address","indexed":false,"internalType":"address"}],"anonymous":false},{"type":"event","name":"ArtistWaitlisted","inputs":[{"name":"artist","type":"address","indexed":true,"internalType":"address"}],"anonymous":false},{"type":"event","name":"Initialized","inputs":[{"name":"version","type":"uint64","indexed":false,"internalType":"uint64"}],"anonymous":false},{"type":"event","name":"OwnershipTransferred","inputs":[{"name":"previousOwner","type":"address","indexed":true,"internalType":"address"},{"name":"newOwner","type":"address","indexed":true,"internalType":"address"}],"anonymous":false},{"type":"event","name":"TransferBatch","inputs":[{"name":"operator","type":"address","indexed":true,"internalType":"address"},{"name":"from","type":"address","indexed":true,"internalType":"address"},{"name":"to","type":"address","indexed":true,"internalType":"address"},{"name":"ids","type":"uint256[]","indexed":false,"internalType":"uint256[]"},{"name":"values","type":"uint256[]","indexed":false,"internalType":"uint256[]"}],"anonymous":false},{"type":"event","name":"TransferSingle","inputs":[{"name":"operator","type":"address","indexed":true,"internalType":"address"},{"name":"from","type":"address","indexed":true,"internalType":"address"},{"name":"to","type":"address","indexed":true,"internalType":"address"},{"name":"id","type":"uint256","indexed":false,"internalType":"uint256"},{"name":"value","type":"uint256","indexed":false,"internalType":"uint256"}],"anonymous":false},{"type":"event","name":"URI","inputs":[{"name":"value","type":"string","indexed":false,"internalType":"string"},{"name":"id","type":"uint256","indexed":true,"internalType":"uint256"}],"anonymous":false},{"type":"event","name":"Upgraded","inputs":[{"name":"implementation","type":"address","indexed":true,"internalType":"address"}],"anonymous":false},{"type":"error","name":"AddressEmptyCode","inputs":[{"name":"target","type":"address","internalType":"address"}]},{"type":"error","name":"ERC1155InsufficientBalance","inputs":[{"name":"sender","type":"address","internalType":"address"},{"name":"balance","type":"uint256","internalType":"uint256"},{"name":"needed","type":"uint256","internalType":"uint256"},{"name":"tokenId","type":"uint256","internalType":"uint256"}]},{"type":"error","name":"ERC1155InvalidApprover","inputs":[{"name":"approver","type":"address","internalType":"address"}]},{"type":"error","name":"ERC1155InvalidArrayLength","inputs":[{"name":"idsLength","type":"uint256","internalType":"uint256"},{"name":"valuesLength","type":"uint256","internalType":"uint256"}]},{"type":"error","name":"ERC1155InvalidOperator","inputs":[{"name":"operator","type":"address","internalType":"address"}]},{"type":"error","name":"ERC1155InvalidReceiver","inputs":[{"name":"receiver","type":"address","internalType":"address"}]},{"type":"error","name":"ERC1155InvalidSender","inputs":[{"name":"sender","type":"address","internalType":"address"}]},{"type":"error","name":"ERC1155MissingApprovalForAll","inputs":[{"name":"operator","type":"address","internalType":"address"},{"name":"owner","type":"address","internalType":"address"}]},{"type":"error","name":"ERC1967InvalidImplementation","inputs":[{"name":"implementation","type":"address","internalType":"address"}]},{"type":"error","name":"ERC1967NonPayable","inputs":[]},{"type":"error","name":"FailedInnerCall","inputs":[]},{"type":"error","name":"InvalidInitialization","inputs":[]},{"type":"error","name":"NotInitializing","inputs":[]},{"type":"error","name":"OwnableInvalidOwner","inputs":[{"name":"owner","type":"address","internalType":"address"}]},{"type":"error","name":"OwnableUnauthorizedAccount","inputs":[{"name":"account","type":"address","internalType":"address"}]},{"type":"error","name":"UUPSUnauthorizedCallContext","inputs":[]},{"type":"error","name":"UUPSUnsupportedProxiableUUID","inputs":[{"name":"slot","type":"bytes32","internalType":"bytes32"}]}],"bytecode":{"object":"0x60a06040523060805234801561001457600080fd5b5060805161288e61003e60003960008181611192015281816111bb0152611301015261288e6000f3fe6080604052600436106101345760003560e01c806365f91e6d116100ab578063b332180b1161006f578063b332180b14610383578063b949c804146103a3578063c8450ef4146103d2578063e985e9c5146103f2578063f242432a14610412578063f2fde38b1461043257600080fd5b806365f91e6d146102d0578063715018a6146102f05780638da5cb5b14610305578063a22cb46514610332578063ad3cb1cc1461035257600080fd5b80631fc65673116100fd5780631fc656731461020b5780632eb2c2d61461023b578063485cc9551461025b5780634e1273f41461027b5780634f1ef286146102a857806352d1902d146102bb57600080fd5b8062fdd58e1461013957806301ffc9a71461016c57806305b479191461019c5780630e89341c146101be578063162094c4146101eb575b600080fd5b34801561014557600080fd5b50610159610154366004611e6d565b610452565b6040519081526020015b60405180910390f35b34801561017857600080fd5b5061018c610187366004611ead565b610489565b6040519015158152602001610163565b3480156101a857600080fd5b506101bc6101b7366004611f7f565b6104d9565b005b3480156101ca57600080fd5b506101de6101d9366004611ffc565b6105e7565b6040516101639190612065565b3480156101f757600080fd5b506101bc610206366004612078565b6106a5565b34801561021757600080fd5b5061018c6102263660046120be565b60026020526000908152604090205460ff1681565b34801561024757600080fd5b506101bc610256366004612167565b610794565b34801561026757600080fd5b506101bc610276366004612210565b6107fb565b34801561028757600080fd5b5061029b610296366004612243565b61094e565b6040516101639190612333565b6101bc6102b6366004612346565b610a22565b3480156102c757600080fd5b50610159610a41565b3480156102dc57600080fd5b506101bc6102eb366004611ffc565b610a5e565b3480156102fc57600080fd5b506101bc610b37565b34801561031157600080fd5b5061031a610b4b565b6040516001600160a01b039091168152602001610163565b34801561033e57600080fd5b506101bc61034d36600461237d565b610b79565b34801561035e57600080fd5b506101de604051806040016040528060058152602001640352e302e360dc1b81525081565b34801561038f57600080fd5b506101bc61039e3660046120be565b610b84565b3480156103af57600080fd5b506103c36103be3660046120be565b610ccf565b604051610163939291906123b9565b3480156103de57600080fd5b506101bc6103ed3660046123f7565b610e9e565b3480156103fe57600080fd5b5061018c61040d366004612210565b610f47565b34801561041e57600080fd5b506101bc61042d366004612450565b610f94565b34801561043e57600080fd5b506101bc61044d3660046120be565b610ff3565b6000818152600080516020612839833981519152602090815260408083206001600160a01b03861684529091529020545b92915050565b60006001600160e01b03198216636cdb3d1360e11b14806104ba57506001600160e01b031982166303a24d0760e21b145b8061048357506301ffc9a760e01b6001600160e01b0319831614610483565b600354841115801561050457506000848152602081905260409020600201546001600160a01b031633145b6105445760405162461bcd60e51b815260206004820152600c60248201526b155b985d5d1a1bdc9a5e995960a21b60448201526064015b60405180910390fd5b600084815260208190526040902061055c8482612534565b5060008481526020819052604090206001016105788382612534565b506000848152602081905260409081902060020180546001600160a01b0319166001600160a01b0384161790555184907f93c1b7d53c3ea701fc058d4fa50c893d607c08afaceefa2ac1b2846b0d5e7dea906105d9908690869086906123b9565b60405180910390a250505050565b600081815260056020526040812080546060929190610605906124b4565b80601f0160208091040260200160405190810160405280929190818152602001828054610631906124b4565b801561067e5780601f106106535761010080835404028352916020019161067e565b820191906000526020600020905b81548152906001019060200180831161066157829003601f168201915b505050505090506000815111156106955792915050565b61069e83611031565b9392505050565b6106ad610b4b565b6001600160a01b0316336001600160a01b031614806106e557506000828152602081905260409020600201546001600160a01b031633145b61073f5760405162461bcd60e51b815260206004820152602560248201527f43616c6c6572206973206e6f7420746865206f776e6572206f722074686520616044820152641c9d1a5cdd60da1b606482015260840161053b565b60008281526005602052604090206107578282612534565b50817f6bb7ff708619ba0610cba295a58592e0451dee2622938c8755667688daf3529b826040516107889190612065565b60405180910390a25050565b336001600160a01b03861681148015906107b557506107b38682610f47565b155b156107e65760405163711bec9160e11b81526001600160a01b0380831660048301528716602482015260440161053b565b6107f386868686866110f6565b505050505050565b7ff0c57e16840df040f15088dc2f81fe391c3923bec73e23a9662efc9c229c6a008054600160401b810460ff1615906001600160401b03166000811580156108405750825b90506000826001600160401b0316600114801561085c5750303b155b90508115801561086a575080155b156108885760405163f92ee8a960e01b815260040160405180910390fd5b845467ffffffffffffffff1916600117855583156108b257845460ff60401b1916600160401b1785555b6108d36040518060600160405280602e81526020016127eb602e913961115d565b6108dc8761116e565b6108e461117f565b600480546001600160a01b0319166001600160a01b038816179055831561094557845460ff60401b19168555604051600181527fc7f505b2f371ae2175ee4913f4499e1f2633a7b5936321eed1cdaeb6115181d29060200160405180910390a15b50505050505050565b6060815183511461097f5781518351604051635b05999160e01b81526004810192909252602482015260440161053b565b600083516001600160401b0381111561099a5761099a611eca565b6040519080825280602002602001820160405280156109c3578160200160208202803683370190505b50905060005b8451811015610a1a576020808202860101516109ed90602080840287010151610452565b8282815181106109ff576109ff6125f3565b6020908102919091010152610a138161261f565b90506109c9565b509392505050565b610a2a611187565b610a338261122c565b610a3d8282611234565b5050565b6000610a4b6112f6565b5060008051602061281983398151915290565b6003548111158015610a8957506000818152602081905260409020600201546001600160a01b031633145b610ac45760405162461bcd60e51b815260206004820152600c60248201526b155b985d5d1a1bdc9a5e995960a21b604482015260640161053b565b610ad03382600161133f565b600081815260208190526040812090610ae98282611e03565b610af7600183016000611e03565b5060020180546001600160a01b031916905560405181907f508aa18fe80cc3349fb880dc15451d171a92d429567a32db4bc488c1fb60429090600090a250565b610b3f6113a7565b610b4960006113d9565b565b7f9016d09d72d40fdae2fd8ceac6b6234c7706214fd39c1cd1e609a0528c199300546001600160a01b031690565b610a3d33838361144a565b60048054604051632615fb8360e21b815233928101929092526000916001600160a01b0390911690639857ee0c90602401606060405180830381865afa158015610bd2573d6000803e3d6000fd5b505050506040513d601f19601f82011682018060405250810190610bf69190612638565b8051909150610c535760405162461bcd60e51b8152602060048201526024808201527f496e73756666696369656e742061727469737420726566657272616c206372656044820152636469747360e01b606482015260840161053b565b600480546040516321ceab3d60e01b815233928101929092526001602483015260006044830181905260648301526001600160a01b0316906321ceab3d90608401600060405180830381600087803b158015610cae57600080fd5b505af1158015610cc2573d6000803e3d6000fd5b50505050610a3d826114f2565b6001600160a01b0381166000908152600160205260408120546060918291808203610d345760405162461bcd60e51b8152602060048201526015602482015274105c9d1a5cdd08191bd95cc81b9bdd08195e1a5cdd605a1b604482015260640161053b565b600081815260208190526040808220815160608101909252805482908290610d5b906124b4565b80601f0160208091040260200160405190810160405280929190818152602001828054610d87906124b4565b8015610dd45780601f10610da957610100808354040283529160200191610dd4565b820191906000526020600020905b815481529060010190602001808311610db757829003601f168201915b50505050508152602001600182018054610ded906124b4565b80601f0160208091040260200160405190810160405280929190818152602001828054610e19906124b4565b8015610e665780601f10610e3b57610100808354040283529160200191610e66565b820191906000526020600020905b815481529060010190602001808311610e4957829003601f168201915b5050509183525050600291909101546001600160a01b0316602091820152815190820151604090920151909891975095509350505050565b3360009081526002602052604090205460ff16610ef35760405162461bcd60e51b8152602060048201526013602482015272139bc81b9bdb5a5b985d1a5bdb88199bdd5b99606a1b604482015260640161053b565b336000908152600260205260409020805460ff19169055610f14828261153e565b6003546040513381527f0eda72f82c1fa8453a960937d93f72d67182387192305305b705b1b94c4b77f690602001610788565b6001600160a01b0391821660009081527f88be536d5240c274a3b1d3a1be54482fd9caa294f08c62a7cde569f49a3c45016020908152604080832093909416825291909152205460ff1690565b336001600160a01b0386168114801590610fb55750610fb38682610f47565b155b15610fe65760405163711bec9160e11b81526001600160a01b0380831660048301528716602482015260440161053b565b6107f38686868686611626565b610ffb6113a7565b6001600160a01b03811661102557604051631e4fbdf760e01b81526000600482015260240161053b565b61102e816113d9565b50565b7f88be536d5240c274a3b1d3a1be54482fd9caa294f08c62a7cde569f49a3c4502805460609160008051602061283983398151915291611070906124b4565b80601f016020809104026020016040519081016040528092919081815260200182805461109c906124b4565b80156110e95780601f106110be576101008083540402835291602001916110e9565b820191906000526020600020905b8154815290600101906020018083116110cc57829003601f168201915b5050505050915050919050565b6001600160a01b03841661112057604051632bfa23e760e11b81526000600482015260240161053b565b6001600160a01b03851661114957604051626a0d4560e21b81526000600482015260240161053b565b61115685858585856116a7565b5050505050565b6111656116fa565b61102e81611743565b6111766116fa565b61102e81611754565b610b496116fa565b306001600160a01b037f000000000000000000000000000000000000000000000000000000000000000016148061120e57507f00000000000000000000000000000000000000000000000000000000000000006001600160a01b0316611202600080516020612819833981519152546001600160a01b031690565b6001600160a01b031614155b15610b495760405163703e46dd60e11b815260040160405180910390fd5b61102e6113a7565b816001600160a01b03166352d1902d6040518163ffffffff1660e01b8152600401602060405180830381865afa92505050801561128e575060408051601f3d908101601f1916820190925261128b91810190612693565b60015b6112b657604051634c9c8ce360e01b81526001600160a01b038316600482015260240161053b565b60008051602061281983398151915281146112e757604051632a87526960e21b81526004810182905260240161053b565b6112f1838361175c565b505050565b306001600160a01b037f00000000000000000000000000000000000000000000000000000000000000001614610b495760405163703e46dd60e11b815260040160405180910390fd5b6001600160a01b03831661136857604051626a0d4560e21b81526000600482015260240161053b565b604080516001808252602082018590528183019081526060820184905260a08201909252600060808201818152919291611156918791859085906116a7565b336113b0610b4b565b6001600160a01b031614610b495760405163118cdaa760e01b815233600482015260240161053b565b7f9016d09d72d40fdae2fd8ceac6b6234c7706214fd39c1cd1e609a0528c19930080546001600160a01b031981166001600160a01b03848116918217845560405192169182907f8be0079c531659141344cd1fd0a4f28419497f9722a3daafe3b4186f6b6457e090600090a3505050565b6000805160206128398339815191526001600160a01b0383166114825760405162ced3e160e81b81526000600482015260240161053b565b6001600160a01b038481166000818152600184016020908152604080832094881680845294825291829020805460ff191687151590811790915591519182527f17307eab39ab6107e8899845ad3d59bd9653f200f220920489ca2b5937696c31910160405180910390a350505050565b6001600160a01b038116600081815260026020526040808220805460ff19166001179055517f1a74f3f80bcaac073ea380f49aa827c080f5c11a913e921997350afd3b56dcd19190a250565b6003805490600061154e8361261f565b9091555050600354604080516060810182528481526020808201859052338284018190526000858152918290529290208151819061158c9082612534565b50602082015160018201906115a19082612534565b5060409182015160029190910180546001600160a01b0319166001600160a01b03928316179055821660009081526001602081815283832086905583519081019093529082526115f491839185916117b2565b817f8443301405f337e5d871773f81107fb07d77d5f08fd2a5c7157a9c89951268ab85836040516105d99291906126ac565b6001600160a01b03841661165057604051632bfa23e760e11b81526000600482015260240161053b565b6001600160a01b03851661167957604051626a0d4560e21b81526000600482015260240161053b565b6040805160018082526020820186905281830190815260608201859052608082019092529061094587878484875b6116b38585858561180f565b6001600160a01b0384161561115657825133906001036116ec57602084810151908401516116e5838989858589611a3d565b50506107f3565b6107f3818787878787611b61565b7ff0c57e16840df040f15088dc2f81fe391c3923bec73e23a9662efc9c229c6a0054600160401b900460ff16610b4957604051631afcd79f60e31b815260040160405180910390fd5b61174b6116fa565b61102e81611c4a565b610ffb6116fa565b61176582611c84565b6040516001600160a01b038316907fbc7cd75a20ee27fd9adebab32041f755214dbc6bffa90cc0225b39da2e5c2d3b90600090a28051156117aa576112f18282611ce9565b610a3d611d5f565b6001600160a01b0384166117dc57604051632bfa23e760e11b81526000600482015260240161053b565b604080516001808252602082018690528183019081526060820185905260808201909252906107f36000878484876116a7565b80518251600080516020612839833981519152911461184e5782518251604051635b05999160e01b81526004810192909252602482015260440161053b565b3360005b845181101561195d576020818102868101820151908601909101516001600160a01b03891615611905576000828152602086815260408083206001600160a01b038d168452909152902054818110156118de576040516303dee4c560e01b81526001600160a01b038b16600482015260248101829052604481018390526064810184905260840161053b565b6000838152602087815260408083206001600160a01b038e16845290915290209082900390555b6001600160a01b0388161561194a576000828152602086815260408083206001600160a01b038c168452909152812080548392906119449084906126d6565b90915550505b5050806119569061261f565b9050611852565b5083516001036119de5760208401516000906020850151909150866001600160a01b0316886001600160a01b0316846001600160a01b03167fc3d58168c5ae7397731d063d5bbf3d657854427343f4c083240f7aacaa2d0f6285856040516119cf929190918252602082015260400190565b60405180910390a450506107f3565b846001600160a01b0316866001600160a01b0316826001600160a01b03167f4a39dc06d4c0dbc64b70af90fd698a233a518aa5d07e595d983b8c0526c8f7fb8787604051611a2d9291906126e9565b60405180910390a4505050505050565b6001600160a01b0384163b156107f35760405163f23a6e6160e01b81526001600160a01b0385169063f23a6e6190611a81908990899088908890889060040161270e565b6020604051808303816000875af1925050508015611abc575060408051601f3d908101601f19168201909252611ab991810190612753565b60015b611b25573d808015611aea576040519150601f19603f3d011682016040523d82523d6000602084013e611aef565b606091505b508051600003611b1d57604051632bfa23e760e11b81526001600160a01b038616600482015260240161053b565b805181602001fd5b6001600160e01b0319811663f23a6e6160e01b1461094557604051632bfa23e760e11b81526001600160a01b038616600482015260240161053b565b6001600160a01b0384163b156107f35760405163bc197c8160e01b81526001600160a01b0385169063bc197c8190611ba59089908990889088908890600401612770565b6020604051808303816000875af1925050508015611be0575060408051601f3d908101601f19168201909252611bdd91810190612753565b60015b611c0e573d808015611aea576040519150601f19603f3d011682016040523d82523d6000602084013e611aef565b6001600160e01b0319811663bc197c8160e01b1461094557604051632bfa23e760e11b81526001600160a01b038616600482015260240161053b565b6000805160206128398339815191527f88be536d5240c274a3b1d3a1be54482fd9caa294f08c62a7cde569f49a3c45026112f18382612534565b806001600160a01b03163b600003611cba57604051634c9c8ce360e01b81526001600160a01b038216600482015260240161053b565b60008051602061281983398151915280546001600160a01b0319166001600160a01b0392909216919091179055565b6060600080846001600160a01b031684604051611d0691906127ce565b600060405180830381855af49150503d8060008114611d41576040519150601f19603f3d011682016040523d82523d6000602084013e611d46565b606091505b5091509150611d56858383611d7e565b95945050505050565b3415610b495760405163b398979f60e01b815260040160405180910390fd5b606082611d9357611d8e82611dda565b61069e565b8151158015611daa57506001600160a01b0384163b155b15611dd357604051639996b31560e01b81526001600160a01b038516600482015260240161053b565b5092915050565b805115611dea5780518082602001fd5b604051630a12f52160e11b815260040160405180910390fd5b508054611e0f906124b4565b6000825580601f10611e1f575050565b601f01602090049060005260206000209081019061102e91905b80821115611e4d5760008155600101611e39565b5090565b80356001600160a01b0381168114611e6857600080fd5b919050565b60008060408385031215611e8057600080fd5b611e8983611e51565b946020939093013593505050565b6001600160e01b03198116811461102e57600080fd5b600060208284031215611ebf57600080fd5b813561069e81611e97565b634e487b7160e01b600052604160045260246000fd5b604051601f8201601f191681016001600160401b0381118282101715611f0857611f08611eca565b604052919050565b600082601f830112611f2157600080fd5b81356001600160401b03811115611f3a57611f3a611eca565b611f4d601f8201601f1916602001611ee0565b818152846020838601011115611f6257600080fd5b816020850160208301376000918101602001919091529392505050565b60008060008060808587031215611f9557600080fd5b8435935060208501356001600160401b0380821115611fb357600080fd5b611fbf88838901611f10565b94506040870135915080821115611fd557600080fd5b50611fe287828801611f10565b925050611ff160608601611e51565b905092959194509250565b60006020828403121561200e57600080fd5b5035919050565b60005b83811015612030578181015183820152602001612018565b50506000910152565b60008151808452612051816020860160208601612015565b601f01601f19169290920160200192915050565b60208152600061069e6020830184612039565b6000806040838503121561208b57600080fd5b8235915060208301356001600160401b038111156120a857600080fd5b6120b485828601611f10565b9150509250929050565b6000602082840312156120d057600080fd5b61069e82611e51565b60006001600160401b038211156120f2576120f2611eca565b5060051b60200190565b600082601f83011261210d57600080fd5b8135602061212261211d836120d9565b611ee0565b82815260059290921b8401810191818101908684111561214157600080fd5b8286015b8481101561215c5780358352918301918301612145565b509695505050505050565b600080600080600060a0868803121561217f57600080fd5b61218886611e51565b945061219660208701611e51565b935060408601356001600160401b03808211156121b257600080fd5b6121be89838a016120fc565b945060608801359150808211156121d457600080fd5b6121e089838a016120fc565b935060808801359150808211156121f657600080fd5b5061220388828901611f10565b9150509295509295909350565b6000806040838503121561222357600080fd5b61222c83611e51565b915061223a60208401611e51565b90509250929050565b6000806040838503121561225657600080fd5b82356001600160401b038082111561226d57600080fd5b818501915085601f83011261228157600080fd5b8135602061229161211d836120d9565b82815260059290921b840181019181810190898411156122b057600080fd5b948201945b838610156122d5576122c686611e51565b825294820194908201906122b5565b965050860135925050808211156122eb57600080fd5b506120b4858286016120fc565b600081518084526020808501945080840160005b838110156123285781518752958201959082019060010161230c565b509495945050505050565b60208152600061069e60208301846122f8565b6000806040838503121561235957600080fd5b61236283611e51565b915060208301356001600160401b038111156120a857600080fd5b6000806040838503121561239057600080fd5b61239983611e51565b9150602083013580151581146123ae57600080fd5b809150509250929050565b6060815260006123cc6060830186612039565b82810360208401526123de8186612039565b91505060018060a01b0383166040830152949350505050565b6000806040838503121561240a57600080fd5b82356001600160401b038082111561242157600080fd5b61242d86838701611f10565b9350602085013591508082111561244357600080fd5b506120b485828601611f10565b600080600080600060a0868803121561246857600080fd5b61247186611e51565b945061247f60208701611e51565b9350604086013592506060860135915060808601356001600160401b038111156124a857600080fd5b61220388828901611f10565b600181811c908216806124c857607f821691505b6020821081036124e857634e487b7160e01b600052602260045260246000fd5b50919050565b601f8211156112f157600081815260208120601f850160051c810160208610156125155750805b601f850160051c820191505b818110156107f357828155600101612521565b81516001600160401b0381111561254d5761254d611eca565b6125618161255b84546124b4565b846124ee565b602080601f831160018114612596576000841561257e5750858301515b600019600386901b1c1916600185901b1785556107f3565b600085815260208120601f198616915b828110156125c5578886015182559484019460019091019084016125a6565b50858210156125e35787850151600019600388901b60f8161c191681555b5050505050600190811b01905550565b634e487b7160e01b600052603260045260246000fd5b634e487b7160e01b600052601160045260246000fd5b60006001820161263157612631612609565b5060010190565b60006060828403121561264a57600080fd5b604051606081018181106001600160401b038211171561266c5761266c611eca565b80604052508251815260208301516020820152604083015160408201528091505092915050565b6000602082840312156126a557600080fd5b5051919050565b6040815260006126bf6040830185612039565b905060018060a01b03831660208301529392505050565b8082018082111561048357610483612609565b6040815260006126fc60408301856122f8565b8281036020840152611d5681856122f8565b6001600160a01b03868116825285166020820152604081018490526060810183905260a06080820181905260009061274890830184612039565b979650505050505050565b60006020828403121561276557600080fd5b815161069e81611e97565b6001600160a01b0386811682528516602082015260a06040820181905260009061279c908301866122f8565b82810360608401526127ae81866122f8565b905082810360808401526127c28185612039565b98975050505050505050565b600082516127e0818460208701612015565b919091019291505056fe68747470733a2f2f6d657461646174612e73656c6c6f7574732e6170702f6172746973742f7b69647d2e6a736f6e360894a13ba1a3210667c828492db98dca3e2076cc3735a920a3ca505d382bbc88be536d5240c274a3b1d3a1be54482fd9caa294f08c62a7cde569f49a3c4500a26469706673582212205d7e352123ba423b0959b300e00519f59cae2a91e3a07f15e6bba4e7a27b0a0964736f6c63430008140033","linkReferences":{}},"methodIdentifiers":{"UPGRADE_INTERFACE_VERSION()":"ad3cb1cc","acceptNomination(string,string)":"c8450ef4","balanceOf(address,uint256)":"00fdd58e","balanceOfBatch(address[],uint256[])":"4e1273f4","deregisterArtist(uint256)":"65f91e6d","getArtist(address)":"b949c804","initialize(address,address)":"485cc955","isApprovedForAll(address,address)":"e985e9c5","nominate(address)":"b332180b","nominatedArtists(address)":"1fc65673","owner()":"8da5cb5b","proxiableUUID()":"52d1902d","renounceOwnership()":"715018a6","safeBatchTransferFrom(address,address,uint256[],uint256[],bytes)":"2eb2c2d6","safeTransferFrom(address,address,uint256,uint256,bytes)":"f242432a","setApprovalForAll(address,bool)":"a22cb465","setTokenURI(uint256,string)":"162094c4","supportsInterface(bytes4)":"01ffc9a7","transferOwnership(address)":"f2fde38b","updateArtist(uint256,string,string,address)":"05b47919","upgradeToAndCall(address,bytes)":"4f1ef286","uri(uint256)":"0e89341c"},"id":62}