{"abi":[{"type":"function","name":"UPGRADE_INTERFACE_VERSION","inputs":[],"outputs":[{"name":"","type":"string","internalType":"string"}],"stateMutability":"view"},{"type":"function","name":"addTokenIdToWallet","inputs":[{"name":"showId","type":"bytes32","internalType":"bytes32"},{"name":"wallet","type":"address","internalType":"address"},{"name":"tokenId","type":"uint256","internalType":"uint256"}],"outputs":[],"stateMutability":"nonpayable"},{"type":"function","name":"createAndInitializeTicketProxy","inputs":[{"name":"showId","type":"bytes32","internalType":"bytes32"},{"name":"protocol","type":"address","internalType":"address"}],"outputs":[],"stateMutability":"nonpayable"},{"type":"function","name":"getTicketPricePaid","inputs":[{"name":"showId","type":"bytes32","internalType":"bytes32"},{"name":"ticketId","type":"uint256","internalType":"uint256"}],"outputs":[{"name":"","type":"uint256","internalType":"uint256"}],"stateMutability":"view"},{"type":"function","name":"getTotalTicketsSold","inputs":[{"name":"showId","type":"bytes32","internalType":"bytes32"}],"outputs":[{"name":"","type":"uint256","internalType":"uint256"}],"stateMutability":"view"},{"type":"function","name":"getWalletTokenIds","inputs":[{"name":"showId","type":"bytes32","internalType":"bytes32"},{"name":"wallet","type":"address","internalType":"address"}],"outputs":[{"name":"","type":"uint256[]","internalType":"uint256[]"}],"stateMutability":"view"},{"type":"function","name":"initialize","inputs":[{"name":"_selloutProtocolWallet","type":"address","internalType":"address"},{"name":"_showContract","type":"address","internalType":"address"},{"name":"_ticketFactory","type":"address","internalType":"address"},{"name":"_showVault","type":"address","internalType":"address"}],"outputs":[],"stateMutability":"nonpayable"},{"type":"function","name":"isTokenOwner","inputs":[{"name":"showId","type":"bytes32","internalType":"bytes32"},{"name":"wallet","type":"address","internalType":"address"},{"name":"tokenId","type":"uint256","internalType":"uint256"}],"outputs":[{"name":"","type":"bool","internalType":"bool"}],"stateMutability":"view"},{"type":"function","name":"owner","inputs":[],"outputs":[{"name":"","type":"address","internalType":"address"}],"stateMutability":"view"},{"type":"function","name":"proxiableUUID","inputs":[],"outputs":[{"name":"","type":"bytes32","internalType":"bytes32"}],"stateMutability":"view"},{"type":"function","name":"removeTokenIdFromWallet","inputs":[{"name":"showId","type":"bytes32","internalType":"bytes32"},{"name":"wallet","type":"address","internalType":"address"},{"name":"tokenId","type":"uint256","internalType":"uint256"}],"outputs":[],"stateMutability":"nonpayable"},{"type":"function","name":"renounceOwnership","inputs":[],"outputs":[],"stateMutability":"nonpayable"},{"type":"function","name":"setTicketPricePaid","inputs":[{"name":"showId","type":"bytes32","internalType":"bytes32"},{"name":"ticketId","type":"uint256","internalType":"uint256"},{"name":"price","type":"uint256","internalType":"uint256"}],"outputs":[],"stateMutability":"nonpayable"},{"type":"function","name":"setTotalTicketsSold","inputs":[{"name":"showId","type":"bytes32","internalType":"bytes32"},{"name":"amount","type":"uint256","internalType":"uint256"}],"outputs":[],"stateMutability":"nonpayable"},{"type":"function","name":"showContractInstance","inputs":[],"outputs":[{"name":"","type":"address","internalType":"contract IShow"}],"stateMutability":"view"},{"type":"function","name":"showVaultInstance","inputs":[],"outputs":[{"name":"","type":"address","internalType":"contract IShowVault"}],"stateMutability":"view"},{"type":"function","name":"ticketFactoryInstance","inputs":[],"outputs":[{"name":"","type":"address","internalType":"contract ITicketFactory"}],"stateMutability":"view"},{"type":"function","name":"ticketPricePaid","inputs":[{"name":"","type":"bytes32","internalType":"bytes32"},{"name":"","type":"uint256","internalType":"uint256"}],"outputs":[{"name":"","type":"uint256","internalType":"uint256"}],"stateMutability":"view"},{"type":"function","name":"totalTicketsSold","inputs":[{"name":"","type":"bytes32","internalType":"bytes32"}],"outputs":[{"name":"","type":"uint256","internalType":"uint256"}],"stateMutability":"view"},{"type":"function","name":"transferOwnership","inputs":[{"name":"newOwner","type":"address","internalType":"address"}],"outputs":[],"stateMutability":"nonpayable"},{"type":"function","name":"updateTicketsSoldAndShowStatusAfterRefund","inputs":[{"name":"showId","type":"bytes32","internalType":"bytes32"},{"name":"ticketId","type":"uint256","internalType":"uint256"},{"name":"refundAmount","type":"uint256","internalType":"uint256"},{"name":"paymentToken","type":"address","internalType":"address"},{"name":"ticketOwner","type":"address","internalType":"address"}],"outputs":[],"stateMutability":"nonpayable"},{"type":"function","name":"upgradeToAndCall","inputs":[{"name":"newImplementation","type":"address","internalType":"address"},{"name":"data","type":"bytes","internalType":"bytes"}],"outputs":[],"stateMutability":"payable"},{"type":"function","name":"walletToShowToTokenIds","inputs":[{"name":"","type":"bytes32","internalType":"bytes32"},{"name":"","type":"address","internalType":"address"},{"name":"","type":"uint256","internalType":"uint256"}],"outputs":[{"name":"","type":"uint256","internalType":"uint256"}],"stateMutability":"view"},{"type":"event","name":"Initialized","inputs":[{"name":"version","type":"uint64","indexed":false,"internalType":"uint64"}],"anonymous":false},{"type":"event","name":"OwnershipTransferred","inputs":[{"name":"previousOwner","type":"address","indexed":true,"internalType":"address"},{"name":"newOwner","type":"address","indexed":true,"internalType":"address"}],"anonymous":false},{"type":"event","name":"Upgraded","inputs":[{"name":"implementation","type":"address","indexed":true,"internalType":"address"}],"anonymous":false},{"type":"error","name":"AddressEmptyCode","inputs":[{"name":"target","type":"address","internalType":"address"}]},{"type":"error","name":"ERC1967InvalidImplementation","inputs":[{"name":"implementation","type":"address","internalType":"address"}]},{"type":"error","name":"ERC1967NonPayable","inputs":[]},{"type":"error","name":"FailedInnerCall","inputs":[]},{"type":"error","name":"InvalidInitialization","inputs":[]},{"type":"error","name":"NotInitializing","inputs":[]},{"type":"error","name":"OwnableInvalidOwner","inputs":[{"name":"owner","type":"address","internalType":"address"}]},{"type":"error","name":"OwnableUnauthorizedAccount","inputs":[{"name":"account","type":"address","internalType":"address"}]},{"type":"error","name":"UUPSUnauthorizedCallContext","inputs":[]},{"type":"error","name":"UUPSUnsupportedProxiableUUID","inputs":[{"name":"slot","type":"bytes32","internalType":"bytes32"}]}],"bytecode":{"object":"0x60a06040523060805234801561001457600080fd5b5060805161194061003e60003960008181610fb401528181610fdd015261112301526119406000f3fe6080604052600436106101405760003560e01c80637d8d6a22116100b6578063de44006f1161006f578063de44006f14610411578063e35b1ee814610431578063e4ca73aa14610451578063f2fde38b14610471578063f8c8765e14610491578063ff417600146104b157600080fd5b80637d8d6a22146102f15780638da5cb5b14610311578063925e8f891461034e57806393d4e1001461037b578063ad3cb1cc146103b3578063bd47dc5c146103f157600080fd5b80635b9a1e09116101085780635b9a1e091461020a5780635f1229f91461023757806361041870146102575780636a01789114610284578063715018a6146102bc578063787d76b8146102d157600080fd5b8063107f6802146101455780632f18ddfe146101675780632fef62b7146101b25780634f1ef286146101e257806352d1902d146101f5575b600080fd5b34801561015157600080fd5b50610165610160366004611481565b6104d1565b005b34801561017357600080fd5b5061019f6101823660046114b1565b600460209081526000928352604080842090915290825290205481565b6040519081526020015b60405180910390f35b3480156101be57600080fd5b506101d26101cd3660046114d3565b610652565b60405190151581526020016101a9565b6101656101f0366004611521565b610714565b34801561020157600080fd5b5061019f610733565b34801561021657600080fd5b5061022a610225366004611481565b610750565b6040516101a991906115e5565b34801561024357600080fd5b50610165610252366004611629565b6107c5565b34801561026357600080fd5b5061019f61027236600461167f565b60009081526003602052604090205490565b34801561029057600080fd5b506002546102a4906001600160a01b031681565b6040516001600160a01b0390911681526020016101a9565b3480156102c857600080fd5b506101656109c8565b3480156102dd57600080fd5b506101656102ec3660046114b1565b6109dc565b3480156102fd57600080fd5b5061019f61030c3660046114d3565b610aaa565b34801561031d57600080fd5b507f9016d09d72d40fdae2fd8ceac6b6234c7706214fd39c1cd1e609a0528c199300546001600160a01b03166102a4565b34801561035a57600080fd5b5061019f61036936600461167f565b60036020526000908152604090205481565b34801561038757600080fd5b5061019f6103963660046114b1565b600091825260046020908152604080842092845291905290205490565b3480156103bf57600080fd5b506103e4604051806040016040528060058152602001640352e302e360dc1b81525081565b6040516101a991906116bc565b3480156103fd57600080fd5b5061016561040c3660046116ef565b610ae8565b34801561041d57600080fd5b5061016561042c3660046114d3565b610ba2565b34801561043d57600080fd5b5061016561044c3660046114d3565b610c77565b34801561045d57600080fd5b506001546102a4906001600160a01b031681565b34801561047d57600080fd5b5061016561048c36600461171b565b610e13565b34801561049d57600080fd5b506101656104ac366004611738565b610e51565b3480156104bd57600080fd5b506000546102a4906001600160a01b031681565b6000546001600160a01b031633146105045760405162461bcd60e51b81526004016104fb90611794565b60405180910390fd5b60015460405163de4ed3cf60e01b81526001600160a01b038381166004830152600092169063de4ed3cf906024016020604051808303816000875af1158015610551573d6000803e3d6000fd5b505050506040513d601f19601f8201168201806040525081019061057591906117e1565b600054600254604051632c0bba5160e21b81526001600160a01b039283166004820152306024820152908216604482015291925082169063b02ee94490606401600060405180830381600087803b1580156105cf57600080fd5b505af11580156105e3573d6000803e3d6000fd5b50506000546040516302d718d960e21b8152600481018790526001600160a01b0385811660248301529091169250630b5c63649150604401600060405180830381600087803b15801561063557600080fd5b505af1158015610649573d6000803e3d6000fd5b50505050505050565b60008381526005602090815260408083206001600160a01b03861684528252808320805482518185028101850190935280835284938301828280156106b657602002820191906000526020600020905b8154815260200190600101908083116106a2575b5050505050905060005b815181101561070657838282815181106106dc576106dc6117fe565b6020026020010151036106f45760019250505061070d565b806106fe8161182a565b9150506106c0565b5060009150505b9392505050565b61071c610fa9565b6107258261104e565b61072f8282611056565b5050565b600061073d611118565b506000805160206118eb83398151915290565b60008281526005602090815260408083206001600160a01b03851684528252918290208054835181840281018401909452808452606093928301828280156107b757602002820191906000526020600020905b8154815260200190600101908083116107a3575b505050505090505b92915050565b6000546001600160a01b031633146107ef5760405162461bcd60e51b81526004016104fb90611794565b60008054604051633f71c19b60e21b8152600481018890526001600160a01b039091169063fdc7066c90602401602060405180830381865afa158015610839573d6000803e3d6000fd5b505050506040513d601f19601f8201168201806040525081019061085d91906117e1565b90506001600160a01b03811661089e5760405162461bcd60e51b81526004016104fb906020808252600490820152632170787960e01b604082015260600190565b60008681526003602052604081208054916108b883611843565b909155505060025460405163194cc89b60e31b815260048101889052602481018690526001600160a01b03858116604483015284811660648301529091169063ca6644d890608401600060405180830381600087803b15801561091a57600080fd5b505af115801561092e573d6000803e3d6000fd5b50506040516387f9ca5d60e01b815260048101889052600160248201526001600160a01b038581166044830152841692506387f9ca5d9150606401600060405180830381600087803b15801561098357600080fd5b505af1158015610997573d6000803e3d6000fd5b5050506000878152600460209081526040808320898452909152812055506109c0868387610c77565b505050505050565b6109d0611161565b6109da60006111bc565b565b600054604051633f71c19b60e21b81526004810184905283916001600160a01b03169063fdc7066c90602401602060405180830381865afa158015610a25573d6000803e3d6000fd5b505050506040513d601f19601f82011682018060405250810190610a4991906117e1565b6001600160a01b0316336001600160a01b031614610a795760405162461bcd60e51b81526004016104fb9061185a565b600083815260036020526040902054610a93908390611879565b600093845260036020526040909320929092555050565b60056020528260005260406000206020528160005260406000208181548110610ad257600080fd5b9060005260206000200160009250925050505481565b600054604051633f71c19b60e21b81526004810185905284916001600160a01b03169063fdc7066c90602401602060405180830381865afa158015610b31573d6000803e3d6000fd5b505050506040513d601f19601f82011682018060405250810190610b5591906117e1565b6001600160a01b0316336001600160a01b031614610b855760405162461bcd60e51b81526004016104fb9061185a565b506000928352600460209081526040808520938552929052912055565b600054604051633f71c19b60e21b81526004810185905284916001600160a01b03169063fdc7066c90602401602060405180830381865afa158015610beb573d6000803e3d6000fd5b505050506040513d601f19601f82011682018060405250810190610c0f91906117e1565b6001600160a01b0316336001600160a01b031614610c3f5760405162461bcd60e51b81526004016104fb9061185a565b5060009283526005602090815260408085206001600160a01b0390941685529281529183208054600181018255908452919092200155565b600054604051633f71c19b60e21b8152600481018590526001600160a01b039091169063fdc7066c90602401602060405180830381865afa158015610cc0573d6000803e3d6000fd5b505050506040513d601f19601f82011682018060405250810190610ce491906117e1565b6001600160a01b0316336001600160a01b03161480610d0257503330145b610d345760405162461bcd60e51b81526020600482015260036024820152621093d560ea1b60448201526064016104fb565b60008381526005602090815260408083206001600160a01b03861684529091528120905b8154811015610e0c5782828281548110610d7457610d746117fe565b906000526020600020015403610dfa5781548290610d949060019061188c565b81548110610da457610da46117fe565b9060005260206000200154828281548110610dc157610dc16117fe565b906000526020600020018190555081805480610ddf57610ddf61189f565b60019003818190600052602060002001600090559055610e0c565b80610e048161182a565b915050610d58565b5050505050565b610e1b611161565b6001600160a01b038116610e4557604051631e4fbdf760e01b8152600060048201526024016104fb565b610e4e816111bc565b50565b7ff0c57e16840df040f15088dc2f81fe391c3923bec73e23a9662efc9c229c6a008054600160401b810460ff16159067ffffffffffffffff16600081158015610e975750825b905060008267ffffffffffffffff166001148015610eb45750303b155b905081158015610ec2575080155b15610ee05760405163f92ee8a960e01b815260040160405180910390fd5b845467ffffffffffffffff191660011785558315610f0a57845460ff60401b1916600160401b1785555b610f138961122d565b610f1b61123e565b600080546001600160a01b03808b166001600160a01b031992831617909255600180548a841690831617905560028054928916929091169190911790558315610f9e57845460ff60401b19168555604051600181527fc7f505b2f371ae2175ee4913f4499e1f2633a7b5936321eed1cdaeb6115181d29060200160405180910390a15b505050505050505050565b306001600160a01b037f000000000000000000000000000000000000000000000000000000000000000016148061103057507f00000000000000000000000000000000000000000000000000000000000000006001600160a01b03166110246000805160206118eb833981519152546001600160a01b031690565b6001600160a01b031614155b156109da5760405163703e46dd60e11b815260040160405180910390fd5b610e4e611161565b816001600160a01b03166352d1902d6040518163ffffffff1660e01b8152600401602060405180830381865afa9250505080156110b0575060408051601f3d908101601f191682019092526110ad918101906118b5565b60015b6110d857604051634c9c8ce360e01b81526001600160a01b03831660048201526024016104fb565b6000805160206118eb833981519152811461110957604051632a87526960e21b8152600481018290526024016104fb565b6111138383611246565b505050565b306001600160a01b037f000000000000000000000000000000000000000000000000000000000000000016146109da5760405163703e46dd60e11b815260040160405180910390fd5b336111937f9016d09d72d40fdae2fd8ceac6b6234c7706214fd39c1cd1e609a0528c199300546001600160a01b031690565b6001600160a01b0316146109da5760405163118cdaa760e01b81523360048201526024016104fb565b7f9016d09d72d40fdae2fd8ceac6b6234c7706214fd39c1cd1e609a0528c19930080546001600160a01b031981166001600160a01b03848116918217845560405192169182907f8be0079c531659141344cd1fd0a4f28419497f9722a3daafe3b4186f6b6457e090600090a3505050565b61123561129c565b610e4e816112e5565b6109da61129c565b61124f826112ed565b6040516001600160a01b038316907fbc7cd75a20ee27fd9adebab32041f755214dbc6bffa90cc0225b39da2e5c2d3b90600090a2805115611294576111138282611352565b61072f6113c8565b7ff0c57e16840df040f15088dc2f81fe391c3923bec73e23a9662efc9c229c6a0054600160401b900460ff166109da57604051631afcd79f60e31b815260040160405180910390fd5b610e1b61129c565b806001600160a01b03163b60000361132357604051634c9c8ce360e01b81526001600160a01b03821660048201526024016104fb565b6000805160206118eb83398151915280546001600160a01b0319166001600160a01b0392909216919091179055565b6060600080846001600160a01b03168460405161136f91906118ce565b600060405180830381855af49150503d80600081146113aa576040519150601f19603f3d011682016040523d82523d6000602084013e6113af565b606091505b50915091506113bf8583836113e7565b95945050505050565b34156109da5760405163b398979f60e01b815260040160405180910390fd5b6060826113fc576113f782611443565b61070d565b815115801561141357506001600160a01b0384163b155b1561143c57604051639996b31560e01b81526001600160a01b03851660048201526024016104fb565b508061070d565b8051156114535780518082602001fd5b604051630a12f52160e11b815260040160405180910390fd5b6001600160a01b0381168114610e4e57600080fd5b6000806040838503121561149457600080fd5b8235915060208301356114a68161146c565b809150509250929050565b600080604083850312156114c457600080fd5b50508035926020909101359150565b6000806000606084860312156114e857600080fd5b8335925060208401356114fa8161146c565b929592945050506040919091013590565b634e487b7160e01b600052604160045260246000fd5b6000806040838503121561153457600080fd5b823561153f8161146c565b9150602083013567ffffffffffffffff8082111561155c57600080fd5b818501915085601f83011261157057600080fd5b8135818111156115825761158261150b565b604051601f8201601f19908116603f011681019083821181831017156115aa576115aa61150b565b816040528281528860208487010111156115c357600080fd5b8260208601602083013760006020848301015280955050505050509250929050565b6020808252825182820181905260009190848201906040850190845b8181101561161d57835183529284019291840191600101611601565b50909695505050505050565b600080600080600060a0868803121561164157600080fd5b85359450602086013593506040860135925060608601356116618161146c565b915060808601356116718161146c565b809150509295509295909350565b60006020828403121561169157600080fd5b5035919050565b60005b838110156116b357818101518382015260200161169b565b50506000910152565b60208152600082518060208401526116db816040850160208701611698565b601f01601f19169190910160400192915050565b60008060006060848603121561170457600080fd5b505081359360208301359350604090920135919050565b60006020828403121561172d57600080fd5b813561070d8161146c565b6000806000806080858703121561174e57600080fd5b84356117598161146c565b935060208501356117698161146c565b925060408501356117798161146c565b915060608501356117898161146c565b939692955090935050565b6020808252602d908201527f556e617574686f72697a65643a2063616c6c6572206973206e6f74207468652060408201526c14da1bddc818dbdb9d1c9858dd609a1b606082015260800190565b6000602082840312156117f357600080fd5b815161070d8161146c565b634e487b7160e01b600052603260045260246000fd5b634e487b7160e01b600052601160045260246000fd5b60006001820161183c5761183c611814565b5060010190565b60008161185257611852611814565b506000190190565b602080825260059082015264217450787960d81b604082015260600190565b808201808211156107bf576107bf611814565b818103818111156107bf576107bf611814565b634e487b7160e01b600052603160045260246000fd5b6000602082840312156118c757600080fd5b5051919050565b600082516118e0818460208701611698565b919091019291505056fe360894a13ba1a3210667c828492db98dca3e2076cc3735a920a3ca505d382bbca26469706673582212203602fcf8c2601b3867ee6cdc23c0f70a9fa66a9bfa075df7770f4586ad060f0d64736f6c63430008140033","linkReferences":{}},"methodIdentifiers":{"UPGRADE_INTERFACE_VERSION()":"ad3cb1cc","addTokenIdToWallet(bytes32,address,uint256)":"de44006f","createAndInitializeTicketProxy(bytes32,address)":"107f6802","getTicketPricePaid(bytes32,uint256)":"93d4e100","getTotalTicketsSold(bytes32)":"61041870","getWalletTokenIds(bytes32,address)":"5b9a1e09","initialize(address,address,address,address)":"f8c8765e","isTokenOwner(bytes32,address,uint256)":"2fef62b7","owner()":"8da5cb5b","proxiableUUID()":"52d1902d","removeTokenIdFromWallet(bytes32,address,uint256)":"e35b1ee8","renounceOwnership()":"715018a6","setTicketPricePaid(bytes32,uint256,uint256)":"bd47dc5c","setTotalTicketsSold(bytes32,uint256)":"787d76b8","showContractInstance()":"ff417600","showVaultInstance()":"6a017891","ticketFactoryInstance()":"e4ca73aa","ticketPricePaid(bytes32,uint256)":"2f18ddfe","totalTicketsSold(bytes32)":"925e8f89","transferOwnership(address)":"f2fde38b","updateTicketsSoldAndShowStatusAfterRefund(bytes32,uint256,uint256,address,address)":"5f1229f9","upgradeToAndCall(address,bytes)":"4f1ef286","walletToShowToTokenIds(bytes32,address,uint256)":"7d8d6a22"},"id":74}