{"abi":[{"type":"function","name":"showContractInstance","inputs":[],"outputs":[{"name":"","type":"address","internalType":"contract IShow"}],"stateMutability":"view"},{"type":"function","name":"showVaultInstance","inputs":[],"outputs":[{"name":"","type":"address","internalType":"contract IShowVault"}],"stateMutability":"view"},{"type":"function","name":"ticketFactoryInstance","inputs":[],"outputs":[{"name":"","type":"address","internalType":"contract ITicketFactory"}],"stateMutability":"view"},{"type":"function","name":"ticketPricePaid","inputs":[{"name":"","type":"bytes32","internalType":"bytes32"},{"name":"","type":"uint256","internalType":"uint256"}],"outputs":[{"name":"","type":"uint256","internalType":"uint256"}],"stateMutability":"view"},{"type":"function","name":"totalTicketsSold","inputs":[{"name":"","type":"bytes32","internalType":"bytes32"}],"outputs":[{"name":"","type":"uint256","internalType":"uint256"}],"stateMutability":"view"},{"type":"function","name":"walletToShowToTokenIds","inputs":[{"name":"","type":"bytes32","internalType":"bytes32"},{"name":"","type":"address","internalType":"address"},{"name":"","type":"uint256","internalType":"uint256"}],"outputs":[{"name":"","type":"uint256","internalType":"uint256"}],"stateMutability":"view"}],"bytecode":{"object":"0x608060405234801561001057600080fd5b5061021c806100206000396000f3fe608060405234801561001057600080fd5b50600436106100625760003560e01c80632f18ddfe146100675780636a017891146100a55780637d8d6a22146100d0578063925e8f89146100e3578063e4ca73aa14610103578063ff41760014610116575b600080fd5b610092610075366004610167565b600460209081526000928352604080842090915290825290205481565b6040519081526020015b60405180910390f35b6002546100b8906001600160a01b031681565b6040516001600160a01b03909116815260200161009c565b6100926100de366004610189565b610129565b6100926100f13660046101cd565b60036020526000908152604090205481565b6001546100b8906001600160a01b031681565b6000546100b8906001600160a01b031681565b6005602052826000526040600020602052816000526040600020818154811061015157600080fd5b9060005260206000200160009250925050505481565b6000806040838503121561017a57600080fd5b50508035926020909101359150565b60008060006060848603121561019e57600080fd5b8335925060208401356001600160a01b03811681146101bc57600080fd5b929592945050506040919091013590565b6000602082840312156101df57600080fd5b503591905056fea2646970667358221220f796516420182dc87f85cdae51d95d2dc9d378aa9f13ec3488a22a4d8f05b57c64736f6c63430008140033","linkReferences":{}},"methodIdentifiers":{"showContractInstance()":"ff417600","showVaultInstance()":"6a017891","ticketFactoryInstance()":"e4ca73aa","ticketPricePaid(bytes32,uint256)":"2f18ddfe","totalTicketsSold(bytes32)":"925e8f89","walletToShowToTokenIds(bytes32,address,uint256)":"7d8d6a22"},"id":70}