{"abi":[{"type":"function","name":"nominatedOrganizers","inputs":[{"name":"","type":"address","internalType":"address"}],"outputs":[{"name":"","type":"bool","internalType":"bool"}],"stateMutability":"view"}],"bytecode":{"object":"0x608060405234801561001057600080fd5b5060c58061001f6000396000f3fe6080604052348015600f57600080fd5b506004361060285760003560e01c8063c8055b9314602d575b600080fd5b604d60383660046061565b60026020526000908152604090205460ff1681565b604051901515815260200160405180910390f35b600060208284031215607257600080fd5b81356001600160a01b0381168114608857600080fd5b939250505056fea2646970667358221220a42f4e3e4f2d83546fd65d2197ce5e3983f55f6a16dfcec6918251725773bb2064736f6c63430008140033","linkReferences":{}},"methodIdentifiers":{"nominatedOrganizers(address)":"c8055b93"},"id":58}