{"abi":[{"type":"function","name":"UPGRADE_INTERFACE_VERSION","inputs":[],"outputs":[{"name":"","type":"string","internalType":"string"}],"stateMutability":"view"},{"type":"function","name":"acceptNomination","inputs":[{"name":"_name","type":"string","internalType":"string"},{"name":"_bio","type":"string","internalType":"string"}],"outputs":[],"stateMutability":"nonpayable"},{"type":"function","name":"balanceOf","inputs":[{"name":"account","type":"address","internalType":"address"},{"name":"id","type":"uint256","internalType":"uint256"}],"outputs":[{"name":"","type":"uint256","internalType":"uint256"}],"stateMutability":"view"},{"type":"function","name":"balanceOfBatch","inputs":[{"name":"accounts","type":"address[]","internalType":"address[]"},{"name":"ids","type":"uint256[]","internalType":"uint256[]"}],"outputs":[{"name":"","type":"uint256[]","internalType":"uint256[]"}],"stateMutability":"view"},{"type":"function","name":"contractURI","inputs":[],"outputs":[{"name":"","type":"string","internalType":"string"}],"stateMutability":"view"},{"type":"function","name":"deregisterOrganizer","inputs":[{"name":"organizerId","type":"uint256","internalType":"uint256"}],"outputs":[],"stateMutability":"nonpayable"},{"type":"function","name":"getOrganizer","inputs":[{"name":"organizerAddress","type":"address","internalType":"address"}],"outputs":[{"name":"name","type":"string","internalType":"string"},{"name":"bio","type":"string","internalType":"string"},{"name":"wallet","type":"address","internalType":"address"}],"stateMutability":"view"},{"type":"function","name":"initialize","inputs":[{"name":"initialOwner","type":"address","internalType":"address"},{"name":"_referralModuleAddress","type":"address","internalType":"address"}],"outputs":[],"stateMutability":"nonpayable"},{"type":"function","name":"isApprovedForAll","inputs":[{"name":"account","type":"address","internalType":"address"},{"name":"operator","type":"address","internalType":"address"}],"outputs":[{"name":"","type":"bool","internalType":"bool"}],"stateMutability":"view"},{"type":"function","name":"isOrganizerRegistered","inputs":[{"name":"organizer","type":"address","internalType":"address"}],"outputs":[{"name":"","type":"bool","internalType":"bool"}],"stateMutability":"view"},{"type":"function","name":"nominate","inputs":[{"name":"nominee","type":"address","internalType":"address"}],"outputs":[],"stateMutability":"nonpayable"},{"type":"function","name":"nominatedOrganizers","inputs":[{"name":"","type":"address","internalType":"address"}],"outputs":[{"name":"","type":"bool","internalType":"bool"}],"stateMutability":"view"},{"type":"function","name":"owner","inputs":[],"outputs":[{"name":"","type":"address","internalType":"address"}],"stateMutability":"view"},{"type":"function","name":"proxiableUUID","inputs":[],"outputs":[{"name":"","type":"bytes32","internalType":"bytes32"}],"stateMutability":"view"},{"type":"function","name":"renounceOwnership","inputs":[],"outputs":[],"stateMutability":"nonpayable"},{"type":"function","name":"safeBatchTransferFrom","inputs":[{"name":"from","type":"address","internalType":"address"},{"name":"to","type":"address","internalType":"address"},{"name":"ids","type":"uint256[]","internalType":"uint256[]"},{"name":"values","type":"uint256[]","internalType":"uint256[]"},{"name":"data","type":"bytes","internalType":"bytes"}],"outputs":[],"stateMutability":"nonpayable"},{"type":"function","name":"safeTransferFrom","inputs":[{"name":"from","type":"address","internalType":"address"},{"name":"to","type":"address","internalType":"address"},{"name":"id","type":"uint256","internalType":"uint256"},{"name":"value","type":"uint256","internalType":"uint256"},{"name":"data","type":"bytes","internalType":"bytes"}],"outputs":[],"stateMutability":"nonpayable"},{"type":"function","name":"setApprovalForAll","inputs":[{"name":"operator","type":"address","internalType":"address"},{"name":"approved","type":"bool","internalType":"bool"}],"outputs":[],"stateMutability":"nonpayable"},{"type":"function","name":"setContractURI","inputs":[{"name":"newURI","type":"string","internalType":"string"}],"outputs":[],"stateMutability":"nonpayable"},{"type":"function","name":"setTokenURI","inputs":[{"name":"tokenId","type":"uint256","internalType":"uint256"},{"name":"newURI","type":"string","internalType":"string"}],"outputs":[],"stateMutability":"nonpayable"},{"type":"function","name":"supportsInterface","inputs":[{"name":"interfaceId","type":"bytes4","internalType":"bytes4"}],"outputs":[{"name":"","type":"bool","internalType":"bool"}],"stateMutability":"view"},{"type":"function","name":"transferOwnership","inputs":[{"name":"newOwner","type":"address","internalType":"address"}],"outputs":[],"stateMutability":"nonpayable"},{"type":"function","name":"updateOrganizer","inputs":[{"name":"organizerId","type":"uint256","internalType":"uint256"},{"name":"name","type":"string","internalType":"string"},{"name":"bio","type":"string","internalType":"string"},{"name":"wallet","type":"address","internalType":"address"}],"outputs":[],"stateMutability":"nonpayable"},{"type":"function","name":"upgradeToAndCall","inputs":[{"name":"newImplementation","type":"address","internalType":"address"},{"name":"data","type":"bytes","internalType":"bytes"}],"outputs":[],"stateMutability":"payable"},{"type":"function","name":"uri","inputs":[{"name":"tokenId","type":"uint256","internalType":"uint256"}],"outputs":[{"name":"","type":"string","internalType":"string"}],"stateMutability":"view"},{"type":"event","name":"ApprovalForAll","inputs":[{"name":"account","type":"address","indexed":true,"internalType":"address"},{"name":"operator","type":"address","indexed":true,"internalType":"address"},{"name":"approved","type":"bool","indexed":false,"internalType":"bool"}],"anonymous":false},{"type":"event","name":"Initialized","inputs":[{"name":"version","type":"uint64","indexed":false,"internalType":"uint64"}],"anonymous":false},{"type":"event","name":"OrganizerAccepted","inputs":[{"name":"nominee","type":"address","indexed":true,"internalType":"address"}],"anonymous":false},{"type":"event","name":"OrganizerDeregistered","inputs":[{"name":"organizerId","type":"uint256","indexed":true,"internalType":"uint256"}],"anonymous":false},{"type":"event","name":"OrganizerNominated","inputs":[{"name":"nominee","type":"address","indexed":true,"internalType":"address"},{"name":"nominator","type":"address","indexed":true,"internalType":"address"}],"anonymous":false},{"type":"event","name":"OrganizerRegistered","inputs":[{"name":"organizerId","type":"uint256","indexed":true,"internalType":"uint256"},{"name":"name","type":"string","indexed":false,"internalType":"string"},{"name":"wallet","type":"address","indexed":false,"internalType":"address"}],"anonymous":false},{"type":"event","name":"OrganizerUpdated","inputs":[{"name":"organizerId","type":"uint256","indexed":true,"internalType":"uint256"},{"name":"name","type":"string","indexed":false,"internalType":"string"},{"name":"bio","type":"string","indexed":false,"internalType":"string"},{"name":"wallet","type":"address","indexed":false,"internalType":"address"}],"anonymous":false},{"type":"event","name":"OwnershipTransferred","inputs":[{"name":"previousOwner","type":"address","indexed":true,"internalType":"address"},{"name":"newOwner","type":"address","indexed":true,"internalType":"address"}],"anonymous":false},{"type":"event","name":"TransferBatch","inputs":[{"name":"operator","type":"address","indexed":true,"internalType":"address"},{"name":"from","type":"address","indexed":true,"internalType":"address"},{"name":"to","type":"address","indexed":true,"internalType":"address"},{"name":"ids","type":"uint256[]","indexed":false,"internalType":"uint256[]"},{"name":"values","type":"uint256[]","indexed":false,"internalType":"uint256[]"}],"anonymous":false},{"type":"event","name":"TransferSingle","inputs":[{"name":"operator","type":"address","indexed":true,"internalType":"address"},{"name":"from","type":"address","indexed":true,"internalType":"address"},{"name":"to","type":"address","indexed":true,"internalType":"address"},{"name":"id","type":"uint256","indexed":false,"internalType":"uint256"},{"name":"value","type":"uint256","indexed":false,"internalType":"uint256"}],"anonymous":false},{"type":"event","name":"URI","inputs":[{"name":"value","type":"string","indexed":false,"internalType":"string"},{"name":"id","type":"uint256","indexed":true,"internalType":"uint256"}],"anonymous":false},{"type":"event","name":"Upgraded","inputs":[{"name":"implementation","type":"address","indexed":true,"internalType":"address"}],"anonymous":false},{"type":"event","name":"contractURIUpdated","inputs":[{"name":"newURI","type":"string","indexed":false,"internalType":"string"}],"anonymous":false},{"type":"event","name":"tokenURIUpdated","inputs":[{"name":"newURI","type":"string","indexed":false,"internalType":"string"},{"name":"tokenId","type":"uint256","indexed":false,"internalType":"uint256"}],"anonymous":false},{"type":"error","name":"AddressEmptyCode","inputs":[{"name":"target","type":"address","internalType":"address"}]},{"type":"error","name":"ERC1155InsufficientBalance","inputs":[{"name":"sender","type":"address","internalType":"address"},{"name":"balance","type":"uint256","internalType":"uint256"},{"name":"needed","type":"uint256","internalType":"uint256"},{"name":"tokenId","type":"uint256","internalType":"uint256"}]},{"type":"error","name":"ERC1155InvalidApprover","inputs":[{"name":"approver","type":"address","internalType":"address"}]},{"type":"error","name":"ERC1155InvalidArrayLength","inputs":[{"name":"idsLength","type":"uint256","internalType":"uint256"},{"name":"valuesLength","type":"uint256","internalType":"uint256"}]},{"type":"error","name":"ERC1155InvalidOperator","inputs":[{"name":"operator","type":"address","internalType":"address"}]},{"type":"error","name":"ERC1155InvalidReceiver","inputs":[{"name":"receiver","type":"address","internalType":"address"}]},{"type":"error","name":"ERC1155InvalidSender","inputs":[{"name":"sender","type":"address","internalType":"address"}]},{"type":"error","name":"ERC1155MissingApprovalForAll","inputs":[{"name":"operator","type":"address","internalType":"address"},{"name":"owner","type":"address","internalType":"address"}]},{"type":"error","name":"ERC1967InvalidImplementation","inputs":[{"name":"implementation","type":"address","internalType":"address"}]},{"type":"error","name":"ERC1967NonPayable","inputs":[]},{"type":"error","name":"FailedInnerCall","inputs":[]},{"type":"error","name":"InvalidInitialization","inputs":[]},{"type":"error","name":"NotInitializing","inputs":[]},{"type":"error","name":"OwnableInvalidOwner","inputs":[{"name":"owner","type":"address","internalType":"address"}]},{"type":"error","name":"OwnableUnauthorizedAccount","inputs":[{"name":"account","type":"address","internalType":"address"}]},{"type":"error","name":"UUPSUnauthorizedCallContext","inputs":[]},{"type":"error","name":"UUPSUnsupportedProxiableUUID","inputs":[{"name":"slot","type":"bytes32","internalType":"bytes32"}]}],"bytecode":{"object":"0x60a06040523060805234801561001457600080fd5b50608051612d0961003e6000396000818161149a015281816114c301526116040152612d096000f3fe6080604052600436106101655760003560e01c80638da5cb5b116100d1578063c8055b931161008a578063e985e9c511610064578063e985e9c514610458578063f242432a14610478578063f2fde38b14610498578063fa9bbe36146104b857600080fd5b8063c8055b93146103f3578063c8450ef414610423578063e8a3d4851461044357600080fd5b80638da5cb5b14610315578063938e3d7b146103425780639dabad5f14610362578063a22cb46514610382578063ad3cb1cc146103a2578063b332180b146103d357600080fd5b80634092f2b7116101235780634092f2b71461025c578063485cc9551461028b5780634e1273f4146102ab5780634f1ef286146102d857806352d1902d146102eb578063715018a61461030057600080fd5b8062fdd58e1461016a57806301ffc9a71461019d5780630e89341c146101cd578063162094c4146101fa57806329e7dbd91461021c5780632eb2c2d61461023c575b600080fd5b34801561017657600080fd5b5061018a610185366004612211565b6104d8565b6040519081526020015b60405180910390f35b3480156101a957600080fd5b506101bd6101b8366004612251565b61050f565b6040519015158152602001610194565b3480156101d957600080fd5b506101ed6101e836600461226e565b61055f565b60405161019491906122d7565b34801561020657600080fd5b5061021a61021536600461239f565b61063d565b005b34801561022857600080fd5b506101bd6102373660046123e5565b6106fc565b34801561024857600080fd5b5061021a61025736600461248e565b610749565b34801561026857600080fd5b5061027c6102773660046123e5565b6107b0565b60405161019493929190612537565b34801561029757600080fd5b5061021a6102a6366004612575565b61093b565b3480156102b757600080fd5b506102cb6102c63660046125a8565b610a8e565b6040516101949190612698565b61021a6102e63660046126ab565b610b62565b3480156102f757600080fd5b5061018a610b81565b34801561030c57600080fd5b5061021a610b9e565b34801561032157600080fd5b5061032a610bb2565b6040516001600160a01b039091168152602001610194565b34801561034e57600080fd5b5061021a61035d3660046126e2565b610be0565b34801561036e57600080fd5b5061021a61037d366004612716565b610c8f565b34801561038e57600080fd5b5061021a61039d366004612793565b610db7565b3480156103ae57600080fd5b506101ed604051806040016040528060058152602001640352e302e360dc1b81525081565b3480156103df57600080fd5b5061021a6103ee3660046123e5565b610dc2565b3480156103ff57600080fd5b506101bd61040e3660046123e5565b60026020526000908152604090205460ff1681565b34801561042f57600080fd5b5061021a61043e3660046127cf565b61102b565b34801561044f57600080fd5b506101ed6110d0565b34801561046457600080fd5b506101bd610473366004612575565b611162565b34801561048457600080fd5b5061021a610493366004612828565b6111af565b3480156104a457600080fd5b5061021a6104b33660046123e5565b61120e565b3480156104c457600080fd5b5061021a6104d336600461226e565b61124c565b6000818152600080516020612c81833981519152602090815260408083206001600160a01b03861684529091529020545b92915050565b60006001600160e01b03198216636cdb3d1360e11b148061054057506001600160e01b031982166303a24d0760e21b145b8061050957506301ffc9a760e01b6001600160e01b0319831614610509565b60008181526005602052604081208054606092919061057d9061288c565b80601f01602080910402602001604051908101604052809291908181526020018280546105a99061288c565b80156105f65780601f106105cb576101008083540402835291602001916105f6565b820191906000526020600020905b8154815290600101906020018083116105d957829003601f168201915b5050505050905060008151111561060d5792915050565b6106168361136c565b60405160200161062691906128c6565b604051602081830303815290604052915050919050565b610645610bb2565b6001600160a01b0316336001600160a01b0316148061067d57506000828152602081905260409020600201546001600160a01b031633145b6106df5760405162461bcd60e51b815260206004820152602860248201527f43616c6c6572206973206e6f7420746865206f776e6572206f7220746865206f6044820152673933b0b734bd32b960c11b60648201526084015b60405180910390fd5b60008281526005602052604090206106f78282612973565b505050565b6001600160a01b03811660009081526001602052604081205481811580159061074157506000828152602081905260409020600201546001600160a01b038581169116145b949350505050565b336001600160a01b038616811480159061076a57506107688682611162565b155b1561079b5760405163711bec9160e11b81526001600160a01b038083166004830152871660248201526044016106d6565b6107a886868686866113fe565b505050505050565b6001600160a01b03811660009081526001602052604081205460609182918082036107ed5760405162461bcd60e51b81526004016106d690612a32565b600081815260208190526040902060028101548154829160018301916001600160a01b039091169083906108209061288c565b80601f016020809104026020016040519081016040528092919081815260200182805461084c9061288c565b80156108995780601f1061086e57610100808354040283529160200191610899565b820191906000526020600020905b81548152906001019060200180831161087c57829003601f168201915b505050505092508180546108ac9061288c565b80601f01602080910402602001604051908101604052809291908181526020018280546108d89061288c565b80156109255780601f106108fa57610100808354040283529160200191610925565b820191906000526020600020905b81548152906001019060200180831161090857829003601f168201915b5050505050915094509450945050509193909250565b7ff0c57e16840df040f15088dc2f81fe391c3923bec73e23a9662efc9c229c6a008054600160401b810460ff1615906001600160401b03166000811580156109805750825b90506000826001600160401b0316600114801561099c5750303b155b9050811580156109aa575080155b156109c85760405163f92ee8a960e01b815260040160405180910390fd5b845467ffffffffffffffff1916600117855583156109f257845460ff60401b1916600160401b1785555b610a13604051806060016040528060338152602001612ca160339139611465565b610a1c87611476565b610a24611487565b600480546001600160a01b0319166001600160a01b0388161790558315610a8557845460ff60401b19168555604051600181527fc7f505b2f371ae2175ee4913f4499e1f2633a7b5936321eed1cdaeb6115181d29060200160405180910390a15b50505050505050565b60608151835114610abf5781518351604051635b05999160e01b8152600481019290925260248201526044016106d6565b600083516001600160401b03811115610ada57610ada6122ea565b604051908082528060200260200182016040528015610b03578160200160208202803683370190505b50905060005b8451811015610b5a57602080820286010151610b2d906020808402870101516104d8565b828281518110610b3f57610b3f612a69565b6020908102919091010152610b5381612a95565b9050610b09565b509392505050565b610b6a61148f565b610b7382611534565b610b7d828261153c565b5050565b6000610b8b6115f9565b50600080516020612c6183398151915290565b610ba6611642565b610bb06000611674565b565b7f9016d09d72d40fdae2fd8ceac6b6234c7706214fd39c1cd1e609a0528c199300546001600160a01b031690565b610be8610bb2565b6001600160a01b0316336001600160a01b031614610c485760405162461bcd60e51b815260206004820152601760248201527f43616c6c6572206973206e6f7420746865206f776e657200000000000000000060448201526064016106d6565b6006610c548282612973565b507fec1b77d5180db946da43e2854d0f3991ac8565d3c6f927efd2fa44c16b36a4f881604051610c8491906122d7565b60405180910390a150565b6003548411158015610ca057508315155b610cbc5760405162461bcd60e51b81526004016106d690612a32565b600084815260208190526040902060028101546001600160a01b03163314610d3a5760405162461bcd60e51b815260206004820152602b60248201527f4f6e6c7920746865206f7267616e697a65722063616e2075706461746520746860448201526a6569722070726f66696c6560a81b60648201526084016106d6565b80610d458582612973565b5060018101610d548482612973565b506002810180546001600160a01b0319166001600160a01b03841617905560405185907fd46f0b6dd12391aba620f3317883a9158e15f9b884ee8397a1e58ac39caf454990610da890879087908790612537565b60405180910390a25050505050565b610b7d3383836116e5565b6001600160a01b03811660009081526002602052604090205460ff1615610e2b5760405162461bcd60e51b815260206004820152601960248201527f4e6f6d696e656520616c7265616479206e6f6d696e617465640000000000000060448201526064016106d6565b6001600160a01b03811660009081526001602052604090205415610e915760405162461bcd60e51b815260206004820152601c60248201527f4e6f6d696e656520616c726561647920616e206f7267616e697a65720000000060448201526064016106d6565b60048054604051632615fb8360e21b815233928101929092526000916001600160a01b0390911690639857ee0c90602401606060405180830381865afa158015610edf573d6000803e3d6000fd5b505050506040513d601f19601f82011682018060405250810190610f039190612aae565b90506000816020015111610f695760405162461bcd60e51b815260206004820152602760248201527f496e73756666696369656e74206f7267616e697a657220726566657272616c206044820152666372656469747360c81b60648201526084016106d6565b600480546040516321ceab3d60e01b815233928101929092526000602483018190526001604484015260648301526001600160a01b0316906321ceab3d90608401600060405180830381600087803b158015610fc457600080fd5b505af1158015610fd8573d6000803e3d6000fd5b5050506001600160a01b038316600081815260026020526040808220805460ff19166001179055513393507f212f044c14362659b4bfd486c672314c6629d0b1b9a3af8cc582483728f59ffe9190a35050565b3360009081526002602052604090205460ff166110805760405162461bcd60e51b8152602060048201526013602482015272139bc81b9bdb5a5b985d1a5bdb88199bdd5b99606a1b60448201526064016106d6565b336000908152600260205260409020805460ff191690556110a1828261178d565b60405133907fcc2153c3826b58b98f4b210d27ef52c117703647e9ca570e3ad52ff6b43a98b290600090a25050565b6060600680546110df9061288c565b80601f016020809104026020016040519081016040528092919081815260200182805461110b9061288c565b80156111585780601f1061112d57610100808354040283529160200191611158565b820191906000526020600020905b81548152906001019060200180831161113b57829003601f168201915b5050505050905090565b6001600160a01b0391821660009081527f88be536d5240c274a3b1d3a1be54482fd9caa294f08c62a7cde569f49a3c45016020908152604080832093909416825291909152205460ff1690565b336001600160a01b03861681148015906111d057506111ce8682611162565b155b156112015760405163711bec9160e11b81526001600160a01b038083166004830152871660248201526044016106d6565b6107a88686868686611883565b611216611642565b6001600160a01b03811661124057604051631e4fbdf760e01b8152600060048201526024016106d6565b61124981611674565b50565b600354811115801561125d57508015155b6112795760405162461bcd60e51b81526004016106d690612a32565b600081815260208190526040902060028101546001600160a01b031633146112f85760405162461bcd60e51b815260206004820152602c60248201527f4f6e6c7920746865206f7267616e697a65722063616e2064657265676973746560448201526b72207468656d73656c76657360a01b60648201526084016106d6565b61130433836001611908565b60008281526020819052604081209061131d82826121a7565b61132b6001830160006121a7565b5060020180546001600160a01b031916905560405182907fa6f0e87bd04d2b310bb6bbad6c11d3eb97b8ed6da96f9e85e9e05dc73f34f68990600090a25050565b6060600061137983611970565b60010190506000816001600160401b03811115611398576113986122ea565b6040519080825280601f01601f1916602001820160405280156113c2576020820181803683370190505b5090508181016020015b600019016f181899199a1a9b1b9c1cb0b131b232b360811b600a86061a8153600a85049450846113cc57509392505050565b6001600160a01b03841661142857604051632bfa23e760e11b8152600060048201526024016106d6565b6001600160a01b03851661145157604051626a0d4560e21b8152600060048201526024016106d6565b61145e8585858585611a48565b5050505050565b61146d611a9b565b61124981611ae4565b61147e611a9b565b61124981611af5565b610bb0611a9b565b306001600160a01b037f000000000000000000000000000000000000000000000000000000000000000016148061151657507f00000000000000000000000000000000000000000000000000000000000000006001600160a01b031661150a600080516020612c61833981519152546001600160a01b031690565b6001600160a01b031614155b15610bb05760405163703e46dd60e11b815260040160405180910390fd5b611249611642565b816001600160a01b03166352d1902d6040518163ffffffff1660e01b8152600401602060405180830381865afa925050508015611596575060408051601f3d908101601f1916820190925261159391810190612b09565b60015b6115be57604051634c9c8ce360e01b81526001600160a01b03831660048201526024016106d6565b600080516020612c6183398151915281146115ef57604051632a87526960e21b8152600481018290526024016106d6565b6106f78383611afd565b306001600160a01b037f00000000000000000000000000000000000000000000000000000000000000001614610bb05760405163703e46dd60e11b815260040160405180910390fd5b3361164b610bb2565b6001600160a01b031614610bb05760405163118cdaa760e01b81523360048201526024016106d6565b7f9016d09d72d40fdae2fd8ceac6b6234c7706214fd39c1cd1e609a0528c19930080546001600160a01b031981166001600160a01b03848116918217845560405192169182907f8be0079c531659141344cd1fd0a4f28419497f9722a3daafe3b4186f6b6457e090600090a3505050565b600080516020612c818339815191526001600160a01b03831661171d5760405162ced3e160e81b8152600060048201526024016106d6565b6001600160a01b038481166000818152600184016020908152604080832094881680845294825291829020805460ff191687151590811790915591519182527f17307eab39ab6107e8899845ad3d59bd9653f200f220920489ca2b5937696c31910160405180910390a350505050565b6003805490600061179d83612a95565b909155505060035460408051606081018252848152602080820185905233828401819052600085815291829052929020815181906117db9082612973565b50602082015160018201906117f09082612973565b5060409182015160029190910180546001600160a01b0319166001600160a01b03928316179055821660009081526001602081815283832086905583519081019093529082526118439183918591611b53565b817f95dc077d84b54de3120a028ca9cbdb05ade3275b3eb5f73f3a308e75fa83b31e8583604051611875929190612b22565b60405180910390a250505050565b6001600160a01b0384166118ad57604051632bfa23e760e11b8152600060048201526024016106d6565b6001600160a01b0385166118d657604051626a0d4560e21b8152600060048201526024016106d6565b60408051600180825260208201869052818301908152606082018590526080820190925290610a858787848487611a48565b6001600160a01b03831661193157604051626a0d4560e21b8152600060048201526024016106d6565b604080516001808252602082018590528183019081526060820184905260a0820190925260006080820181815291929161145e91879185908590611a48565b60008072184f03e93ff9f4daa797ed6e38ed64bf6a1f0160401b83106119af5772184f03e93ff9f4daa797ed6e38ed64bf6a1f0160401b830492506040015b6d04ee2d6d415b85acef810000000083106119db576d04ee2d6d415b85acef8100000000830492506020015b662386f26fc1000083106119f957662386f26fc10000830492506010015b6305f5e1008310611a11576305f5e100830492506008015b6127108310611a2557612710830492506004015b60648310611a37576064830492506002015b600a83106105095760010192915050565b611a5485858585611bb0565b6001600160a01b0384161561145e5782513390600103611a8d5760208481015190840151611a86838989858589611dde565b50506107a8565b6107a8818787878787611f02565b7ff0c57e16840df040f15088dc2f81fe391c3923bec73e23a9662efc9c229c6a0054600160401b900460ff16610bb057604051631afcd79f60e31b815260040160405180910390fd5b611aec611a9b565b61124981611feb565b611216611a9b565b611b0682612025565b6040516001600160a01b038316907fbc7cd75a20ee27fd9adebab32041f755214dbc6bffa90cc0225b39da2e5c2d3b90600090a2805115611b4b576106f7828261208a565b610b7d612100565b6001600160a01b038416611b7d57604051632bfa23e760e11b8152600060048201526024016106d6565b604080516001808252602082018690528183019081526060820185905260808201909252906107a8600087848487611a48565b80518251600080516020612c818339815191529114611bef5782518251604051635b05999160e01b8152600481019290925260248201526044016106d6565b3360005b8451811015611cfe576020818102868101820151908601909101516001600160a01b03891615611ca6576000828152602086815260408083206001600160a01b038d16845290915290205481811015611c7f576040516303dee4c560e01b81526001600160a01b038b1660048201526024810182905260448101839052606481018490526084016106d6565b6000838152602087815260408083206001600160a01b038e16845290915290209082900390555b6001600160a01b03881615611ceb576000828152602086815260408083206001600160a01b038c16845290915281208054839290611ce5908490612b4c565b90915550505b505080611cf790612a95565b9050611bf3565b508351600103611d7f5760208401516000906020850151909150866001600160a01b0316886001600160a01b0316846001600160a01b03167fc3d58168c5ae7397731d063d5bbf3d657854427343f4c083240f7aacaa2d0f628585604051611d70929190918252602082015260400190565b60405180910390a450506107a8565b846001600160a01b0316866001600160a01b0316826001600160a01b03167f4a39dc06d4c0dbc64b70af90fd698a233a518aa5d07e595d983b8c0526c8f7fb8787604051611dce929190612b5f565b60405180910390a4505050505050565b6001600160a01b0384163b156107a85760405163f23a6e6160e01b81526001600160a01b0385169063f23a6e6190611e229089908990889088908890600401612b84565b6020604051808303816000875af1925050508015611e5d575060408051601f3d908101601f19168201909252611e5a91810190612bc9565b60015b611ec6573d808015611e8b576040519150601f19603f3d011682016040523d82523d6000602084013e611e90565b606091505b508051600003611ebe57604051632bfa23e760e11b81526001600160a01b03861660048201526024016106d6565b805181602001fd5b6001600160e01b0319811663f23a6e6160e01b14610a8557604051632bfa23e760e11b81526001600160a01b03861660048201526024016106d6565b6001600160a01b0384163b156107a85760405163bc197c8160e01b81526001600160a01b0385169063bc197c8190611f469089908990889088908890600401612be6565b6020604051808303816000875af1925050508015611f81575060408051601f3d908101601f19168201909252611f7e91810190612bc9565b60015b611faf573d808015611e8b576040519150601f19603f3d011682016040523d82523d6000602084013e611e90565b6001600160e01b0319811663bc197c8160e01b14610a8557604051632bfa23e760e11b81526001600160a01b03861660048201526024016106d6565b600080516020612c818339815191527f88be536d5240c274a3b1d3a1be54482fd9caa294f08c62a7cde569f49a3c45026106f78382612973565b806001600160a01b03163b60000361205b57604051634c9c8ce360e01b81526001600160a01b03821660048201526024016106d6565b600080516020612c6183398151915280546001600160a01b0319166001600160a01b0392909216919091179055565b6060600080846001600160a01b0316846040516120a79190612c44565b600060405180830381855af49150503d80600081146120e2576040519150601f19603f3d011682016040523d82523d6000602084013e6120e7565b606091505b50915091506120f785838361211f565b95945050505050565b3415610bb05760405163b398979f60e01b815260040160405180910390fd5b6060826121345761212f8261217e565b612177565b815115801561214b57506001600160a01b0384163b155b1561217457604051639996b31560e01b81526001600160a01b03851660048201526024016106d6565b50805b9392505050565b80511561218e5780518082602001fd5b604051630a12f52160e11b815260040160405180910390fd5b5080546121b39061288c565b6000825580601f106121c3575050565b601f01602090049060005260206000209081019061124991905b808211156121f157600081556001016121dd565b5090565b80356001600160a01b038116811461220c57600080fd5b919050565b6000806040838503121561222457600080fd5b61222d836121f5565b946020939093013593505050565b6001600160e01b03198116811461124957600080fd5b60006020828403121561226357600080fd5b81356121778161223b565b60006020828403121561228057600080fd5b5035919050565b60005b838110156122a257818101518382015260200161228a565b50506000910152565b600081518084526122c3816020860160208601612287565b601f01601f19169290920160200192915050565b60208152600061217760208301846122ab565b634e487b7160e01b600052604160045260246000fd5b604051601f8201601f191681016001600160401b0381118282101715612328576123286122ea565b604052919050565b600082601f83011261234157600080fd5b81356001600160401b0381111561235a5761235a6122ea565b61236d601f8201601f1916602001612300565b81815284602083860101111561238257600080fd5b816020850160208301376000918101602001919091529392505050565b600080604083850312156123b257600080fd5b8235915060208301356001600160401b038111156123cf57600080fd5b6123db85828601612330565b9150509250929050565b6000602082840312156123f757600080fd5b612177826121f5565b60006001600160401b03821115612419576124196122ea565b5060051b60200190565b600082601f83011261243457600080fd5b8135602061244961244483612400565b612300565b82815260059290921b8401810191818101908684111561246857600080fd5b8286015b84811015612483578035835291830191830161246c565b509695505050505050565b600080600080600060a086880312156124a657600080fd5b6124af866121f5565b94506124bd602087016121f5565b935060408601356001600160401b03808211156124d957600080fd5b6124e589838a01612423565b945060608801359150808211156124fb57600080fd5b61250789838a01612423565b9350608088013591508082111561251d57600080fd5b5061252a88828901612330565b9150509295509295909350565b60608152600061254a60608301866122ab565b828103602084015261255c81866122ab565b91505060018060a01b0383166040830152949350505050565b6000806040838503121561258857600080fd5b612591836121f5565b915061259f602084016121f5565b90509250929050565b600080604083850312156125bb57600080fd5b82356001600160401b03808211156125d257600080fd5b818501915085601f8301126125e657600080fd5b813560206125f661244483612400565b82815260059290921b8401810191818101908984111561261557600080fd5b948201945b8386101561263a5761262b866121f5565b8252948201949082019061261a565b9650508601359250508082111561265057600080fd5b506123db85828601612423565b600081518084526020808501945080840160005b8381101561268d57815187529582019590820190600101612671565b509495945050505050565b602081526000612177602083018461265d565b600080604083850312156126be57600080fd5b6126c7836121f5565b915060208301356001600160401b038111156123cf57600080fd5b6000602082840312156126f457600080fd5b81356001600160401b0381111561270a57600080fd5b61074184828501612330565b6000806000806080858703121561272c57600080fd5b8435935060208501356001600160401b038082111561274a57600080fd5b61275688838901612330565b9450604087013591508082111561276c57600080fd5b5061277987828801612330565b925050612788606086016121f5565b905092959194509250565b600080604083850312156127a657600080fd5b6127af836121f5565b9150602083013580151581146127c457600080fd5b809150509250929050565b600080604083850312156127e257600080fd5b82356001600160401b03808211156127f957600080fd5b61280586838701612330565b9350602085013591508082111561281b57600080fd5b506123db85828601612330565b600080600080600060a0868803121561284057600080fd5b612849866121f5565b9450612857602087016121f5565b9350604086013592506060860135915060808601356001600160401b0381111561288057600080fd5b61252a88828901612330565b600181811c908216806128a057607f821691505b6020821081036128c057634e487b7160e01b600052602260045260246000fd5b50919050565b7f68747470733a2f2f6d657461646174612e73656c6c6f75742e656e657267792f8152696f7267616e697a65722f60b01b60208201526000825161291181602a850160208701612287565b64173539b7b760d91b602a939091019283015250602f01919050565b601f8211156106f757600081815260208120601f850160051c810160208610156129545750805b601f850160051c820191505b818110156107a857828155600101612960565b81516001600160401b0381111561298c5761298c6122ea565b6129a08161299a845461288c565b8461292d565b602080601f8311600181146129d557600084156129bd5750858301515b600019600386901b1c1916600185901b1785556107a8565b600085815260208120601f198616915b82811015612a04578886015182559484019460019091019084016129e5565b5085821015612a225787850151600019600388901b60f8161c191681555b5050505050600190811b01905550565b60208082526018908201527f4f7267616e697a657220646f6573206e6f742065786973740000000000000000604082015260600190565b634e487b7160e01b600052603260045260246000fd5b634e487b7160e01b600052601160045260246000fd5b600060018201612aa757612aa7612a7f565b5060010190565b600060608284031215612ac057600080fd5b604051606081018181106001600160401b0382111715612ae257612ae26122ea565b80604052508251815260208301516020820152604083015160408201528091505092915050565b600060208284031215612b1b57600080fd5b5051919050565b604081526000612b3560408301856122ab565b905060018060a01b03831660208301529392505050565b8082018082111561050957610509612a7f565b604081526000612b72604083018561265d565b82810360208401526120f7818561265d565b6001600160a01b03868116825285166020820152604081018490526060810183905260a060808201819052600090612bbe908301846122ab565b979650505050505050565b600060208284031215612bdb57600080fd5b81516121778161223b565b6001600160a01b0386811682528516602082015260a060408201819052600090612c129083018661265d565b8281036060840152612c24818661265d565b90508281036080840152612c3881856122ab565b98975050505050505050565b60008251612c56818460208701612287565b919091019291505056fe360894a13ba1a3210667c828492db98dca3e2076cc3735a920a3ca505d382bbc88be536d5240c274a3b1d3a1be54482fd9caa294f08c62a7cde569f49a3c450068747470733a2f2f6d657461646174612e73656c6c6f75742e656e657267792f6f7267616e697a65722f7b69647d2e6a736f6ea26469706673582212204002ea37f24099e74fefaaf95692d12e2e63cc75ceb9ee4f6c994bb6187ab75164736f6c63430008140033","linkReferences":{}},"methodIdentifiers":{"UPGRADE_INTERFACE_VERSION()":"ad3cb1cc","acceptNomination(string,string)":"c8450ef4","balanceOf(address,uint256)":"00fdd58e","balanceOfBatch(address[],uint256[])":"4e1273f4","contractURI()":"e8a3d485","deregisterOrganizer(uint256)":"fa9bbe36","getOrganizer(address)":"4092f2b7","initialize(address,address)":"485cc955","isApprovedForAll(address,address)":"e985e9c5","isOrganizerRegistered(address)":"29e7dbd9","nominate(address)":"b332180b","nominatedOrganizers(address)":"c8055b93","owner()":"8da5cb5b","proxiableUUID()":"52d1902d","renounceOwnership()":"715018a6","safeBatchTransferFrom(address,address,uint256[],uint256[],bytes)":"2eb2c2d6","safeTransferFrom(address,address,uint256,uint256,bytes)":"f242432a","setApprovalForAll(address,bool)":"a22cb465","setContractURI(string)":"938e3d7b","setTokenURI(uint256,string)":"162094c4","supportsInterface(bytes4)":"01ffc9a7","transferOwnership(address)":"f2fde38b","updateOrganizer(uint256,string,string,address)":"9dabad5f","upgradeToAndCall(address,bytes)":"4f1ef286","uri(uint256)":"0e89341c"},"id":54}