{"abi":[{"type":"function","name":"UPGRADE_INTERFACE_VERSION","inputs":[],"outputs":[{"name":"","type":"string","internalType":"string"}],"stateMutability":"view"},{"type":"function","name":"acceptNomination","inputs":[{"name":"_name","type":"string","internalType":"string"},{"name":"_bio","type":"string","internalType":"string"}],"outputs":[],"stateMutability":"nonpayable"},{"type":"function","name":"balanceOf","inputs":[{"name":"account","type":"address","internalType":"address"},{"name":"id","type":"uint256","internalType":"uint256"}],"outputs":[{"name":"","type":"uint256","internalType":"uint256"}],"stateMutability":"view"},{"type":"function","name":"balanceOfBatch","inputs":[{"name":"accounts","type":"address[]","internalType":"address[]"},{"name":"ids","type":"uint256[]","internalType":"uint256[]"}],"outputs":[{"name":"","type":"uint256[]","internalType":"uint256[]"}],"stateMutability":"view"},{"type":"function","name":"deregisterOrganizer","inputs":[{"name":"organizerId","type":"uint256","internalType":"uint256"}],"outputs":[],"stateMutability":"nonpayable"},{"type":"function","name":"getOrganizer","inputs":[{"name":"organizerAddress","type":"address","internalType":"address"}],"outputs":[{"name":"name","type":"string","internalType":"string"},{"name":"bio","type":"string","internalType":"string"},{"name":"wallet","type":"address","internalType":"address"}],"stateMutability":"view"},{"type":"function","name":"initialize","inputs":[{"name":"initialOwner","type":"address","internalType":"address"},{"name":"_referralModuleAddress","type":"address","internalType":"address"}],"outputs":[],"stateMutability":"nonpayable"},{"type":"function","name":"isApprovedForAll","inputs":[{"name":"account","type":"address","internalType":"address"},{"name":"operator","type":"address","internalType":"address"}],"outputs":[{"name":"","type":"bool","internalType":"bool"}],"stateMutability":"view"},{"type":"function","name":"isOrganizerRegistered","inputs":[{"name":"organizer","type":"address","internalType":"address"}],"outputs":[{"name":"","type":"bool","internalType":"bool"}],"stateMutability":"view"},{"type":"function","name":"nominate","inputs":[{"name":"nominee","type":"address","internalType":"address"}],"outputs":[],"stateMutability":"nonpayable"},{"type":"function","name":"nominatedOrganizers","inputs":[{"name":"","type":"address","internalType":"address"}],"outputs":[{"name":"","type":"bool","internalType":"bool"}],"stateMutability":"view"},{"type":"function","name":"owner","inputs":[],"outputs":[{"name":"","type":"address","internalType":"address"}],"stateMutability":"view"},{"type":"function","name":"proxiableUUID","inputs":[],"outputs":[{"name":"","type":"bytes32","internalType":"bytes32"}],"stateMutability":"view"},{"type":"function","name":"renounceOwnership","inputs":[],"outputs":[],"stateMutability":"nonpayable"},{"type":"function","name":"safeBatchTransferFrom","inputs":[{"name":"from","type":"address","internalType":"address"},{"name":"to","type":"address","internalType":"address"},{"name":"ids","type":"uint256[]","internalType":"uint256[]"},{"name":"values","type":"uint256[]","internalType":"uint256[]"},{"name":"data","type":"bytes","internalType":"bytes"}],"outputs":[],"stateMutability":"nonpayable"},{"type":"function","name":"safeTransferFrom","inputs":[{"name":"from","type":"address","internalType":"address"},{"name":"to","type":"address","internalType":"address"},{"name":"id","type":"uint256","internalType":"uint256"},{"name":"value","type":"uint256","internalType":"uint256"},{"name":"data","type":"bytes","internalType":"bytes"}],"outputs":[],"stateMutability":"nonpayable"},{"type":"function","name":"setApprovalForAll","inputs":[{"name":"operator","type":"address","internalType":"address"},{"name":"approved","type":"bool","internalType":"bool"}],"outputs":[],"stateMutability":"nonpayable"},{"type":"function","name":"setTokenURI","inputs":[{"name":"tokenId","type":"uint256","internalType":"uint256"},{"name":"newURI","type":"string","internalType":"string"}],"outputs":[],"stateMutability":"nonpayable"},{"type":"function","name":"supportsInterface","inputs":[{"name":"interfaceId","type":"bytes4","internalType":"bytes4"}],"outputs":[{"name":"","type":"bool","internalType":"bool"}],"stateMutability":"view"},{"type":"function","name":"transferOwnership","inputs":[{"name":"newOwner","type":"address","internalType":"address"}],"outputs":[],"stateMutability":"nonpayable"},{"type":"function","name":"updateOrganizer","inputs":[{"name":"organizerId","type":"uint256","internalType":"uint256"},{"name":"name","type":"string","internalType":"string"},{"name":"bio","type":"string","internalType":"string"},{"name":"wallet","type":"address","internalType":"address"}],"outputs":[],"stateMutability":"nonpayable"},{"type":"function","name":"upgradeToAndCall","inputs":[{"name":"newImplementation","type":"address","internalType":"address"},{"name":"data","type":"bytes","internalType":"bytes"}],"outputs":[],"stateMutability":"payable"},{"type":"function","name":"uri","inputs":[{"name":"tokenId","type":"uint256","internalType":"uint256"}],"outputs":[{"name":"","type":"string","internalType":"string"}],"stateMutability":"view"},{"type":"event","name":"ApprovalForAll","inputs":[{"name":"account","type":"address","indexed":true,"internalType":"address"},{"name":"operator","type":"address","indexed":true,"internalType":"address"},{"name":"approved","type":"bool","indexed":false,"internalType":"bool"}],"anonymous":false},{"type":"event","name":"Initialized","inputs":[{"name":"version","type":"uint64","indexed":false,"internalType":"uint64"}],"anonymous":false},{"type":"event","name":"OrganizerAccepted","inputs":[{"name":"nominee","type":"address","indexed":true,"internalType":"address"}],"anonymous":false},{"type":"event","name":"OrganizerDeregistered","inputs":[{"name":"organizerId","type":"uint256","indexed":true,"internalType":"uint256"}],"anonymous":false},{"type":"event","name":"OrganizerNominated","inputs":[{"name":"nominee","type":"address","indexed":true,"internalType":"address"},{"name":"nominator","type":"address","indexed":true,"internalType":"address"}],"anonymous":false},{"type":"event","name":"OrganizerRegistered","inputs":[{"name":"organizerId","type":"uint256","indexed":true,"internalType":"uint256"},{"name":"name","type":"string","indexed":false,"internalType":"string"},{"name":"wallet","type":"address","indexed":false,"internalType":"address"}],"anonymous":false},{"type":"event","name":"OrganizerUpdated","inputs":[{"name":"organizerId","type":"uint256","indexed":true,"internalType":"uint256"},{"name":"name","type":"string","indexed":false,"internalType":"string"},{"name":"bio","type":"string","indexed":false,"internalType":"string"},{"name":"wallet","type":"address","indexed":false,"internalType":"address"}],"anonymous":false},{"type":"event","name":"OwnershipTransferred","inputs":[{"name":"previousOwner","type":"address","indexed":true,"internalType":"address"},{"name":"newOwner","type":"address","indexed":true,"internalType":"address"}],"anonymous":false},{"type":"event","name":"TransferBatch","inputs":[{"name":"operator","type":"address","indexed":true,"internalType":"address"},{"name":"from","type":"address","indexed":true,"internalType":"address"},{"name":"to","type":"address","indexed":true,"internalType":"address"},{"name":"ids","type":"uint256[]","indexed":false,"internalType":"uint256[]"},{"name":"values","type":"uint256[]","indexed":false,"internalType":"uint256[]"}],"anonymous":false},{"type":"event","name":"TransferSingle","inputs":[{"name":"operator","type":"address","indexed":true,"internalType":"address"},{"name":"from","type":"address","indexed":true,"internalType":"address"},{"name":"to","type":"address","indexed":true,"internalType":"address"},{"name":"id","type":"uint256","indexed":false,"internalType":"uint256"},{"name":"value","type":"uint256","indexed":false,"internalType":"uint256"}],"anonymous":false},{"type":"event","name":"URI","inputs":[{"name":"value","type":"string","indexed":false,"internalType":"string"},{"name":"id","type":"uint256","indexed":true,"internalType":"uint256"}],"anonymous":false},{"type":"event","name":"Upgraded","inputs":[{"name":"implementation","type":"address","indexed":true,"internalType":"address"}],"anonymous":false},{"type":"error","name":"AddressEmptyCode","inputs":[{"name":"target","type":"address","internalType":"address"}]},{"type":"error","name":"ERC1155InsufficientBalance","inputs":[{"name":"sender","type":"address","internalType":"address"},{"name":"balance","type":"uint256","internalType":"uint256"},{"name":"needed","type":"uint256","internalType":"uint256"},{"name":"tokenId","type":"uint256","internalType":"uint256"}]},{"type":"error","name":"ERC1155InvalidApprover","inputs":[{"name":"approver","type":"address","internalType":"address"}]},{"type":"error","name":"ERC1155InvalidArrayLength","inputs":[{"name":"idsLength","type":"uint256","internalType":"uint256"},{"name":"valuesLength","type":"uint256","internalType":"uint256"}]},{"type":"error","name":"ERC1155InvalidOperator","inputs":[{"name":"operator","type":"address","internalType":"address"}]},{"type":"error","name":"ERC1155InvalidReceiver","inputs":[{"name":"receiver","type":"address","internalType":"address"}]},{"type":"error","name":"ERC1155InvalidSender","inputs":[{"name":"sender","type":"address","internalType":"address"}]},{"type":"error","name":"ERC1155MissingApprovalForAll","inputs":[{"name":"operator","type":"address","internalType":"address"},{"name":"owner","type":"address","internalType":"address"}]},{"type":"error","name":"ERC1967InvalidImplementation","inputs":[{"name":"implementation","type":"address","internalType":"address"}]},{"type":"error","name":"ERC1967NonPayable","inputs":[]},{"type":"error","name":"FailedInnerCall","inputs":[]},{"type":"error","name":"InvalidInitialization","inputs":[]},{"type":"error","name":"NotInitializing","inputs":[]},{"type":"error","name":"OwnableInvalidOwner","inputs":[{"name":"owner","type":"address","internalType":"address"}]},{"type":"error","name":"OwnableUnauthorizedAccount","inputs":[{"name":"account","type":"address","internalType":"address"}]},{"type":"error","name":"UUPSUnauthorizedCallContext","inputs":[]},{"type":"error","name":"UUPSUnsupportedProxiableUUID","inputs":[{"name":"slot","type":"bytes32","internalType":"bytes32"}]}],"bytecode":{"object":"0x60a06040523060805234801561001457600080fd5b50608051612a0461003e600039600081816113110152818161133a015261147b0152612a046000f3fe60806040526004361061013f5760003560e01c8063715018a6116100b6578063c8055b931161006f578063c8055b93146103ad578063c8450ef4146103dd578063e985e9c5146103fd578063f242432a1461041d578063f2fde38b1461043d578063fa9bbe361461045d57600080fd5b8063715018a6146102da5780638da5cb5b146102ef5780639dabad5f1461031c578063a22cb4651461033c578063ad3cb1cc1461035c578063b332180b1461038d57600080fd5b80632eb2c2d6116101085780632eb2c2d6146102165780634092f2b714610236578063485cc955146102655780634e1273f4146102855780634f1ef286146102b257806352d1902d146102c557600080fd5b8062fdd58e1461014457806301ffc9a7146101775780630e89341c146101a7578063162094c4146101d457806329e7dbd9146101f6575b600080fd5b34801561015057600080fd5b5061016461015f366004611fa9565b61047d565b6040519081526020015b60405180910390f35b34801561018357600080fd5b50610197610192366004611fe9565b6104b4565b604051901515815260200161016e565b3480156101b357600080fd5b506101c76101c2366004612006565b610504565b60405161016e919061206f565b3480156101e057600080fd5b506101f46101ef366004612137565b6105c2565b005b34801561020257600080fd5b5061019761021136600461217d565b610681565b34801561022257600080fd5b506101f4610231366004612226565b6106ce565b34801561024257600080fd5b5061025661025136600461217d565b610735565b60405161016e939291906122cf565b34801561027157600080fd5b506101f461028036600461230d565b6108c0565b34801561029157600080fd5b506102a56102a0366004612340565b610a13565b60405161016e9190612430565b6101f46102c0366004612443565b610ae7565b3480156102d157600080fd5b50610164610b06565b3480156102e657600080fd5b506101f4610b23565b3480156102fb57600080fd5b50610304610b37565b6040516001600160a01b03909116815260200161016e565b34801561032857600080fd5b506101f461033736600461247a565b610b65565b34801561034857600080fd5b506101f46103573660046124f7565b610c8d565b34801561036857600080fd5b506101c7604051806040016040528060058152602001640352e302e360dc1b81525081565b34801561039957600080fd5b506101f46103a836600461217d565b610c98565b3480156103b957600080fd5b506101976103c836600461217d565b60026020526000908152604090205460ff1681565b3480156103e957600080fd5b506101f46103f8366004612533565b610f01565b34801561040957600080fd5b5061019761041836600461230d565b610fa6565b34801561042957600080fd5b506101f461043836600461258c565b610ff3565b34801561044957600080fd5b506101f461045836600461217d565b611052565b34801561046957600080fd5b506101f4610478366004612006565b611090565b600081815260008051602061297e833981519152602090815260408083206001600160a01b03861684529091529020545b92915050565b60006001600160e01b03198216636cdb3d1360e11b14806104e557506001600160e01b031982166303a24d0760e21b145b806104ae57506301ffc9a760e01b6001600160e01b03198316146104ae565b600081815260056020526040812080546060929190610522906125f0565b80601f016020809104026020016040519081016040528092919081815260200182805461054e906125f0565b801561059b5780601f106105705761010080835404028352916020019161059b565b820191906000526020600020905b81548152906001019060200180831161057e57829003601f168201915b505050505090506000815111156105b25792915050565b6105bb836111b0565b9392505050565b6105ca610b37565b6001600160a01b0316336001600160a01b0316148061060257506000828152602081905260409020600201546001600160a01b031633145b6106645760405162461bcd60e51b815260206004820152602860248201527f43616c6c6572206973206e6f7420746865206f776e6572206f7220746865206f6044820152673933b0b734bd32b960c11b60648201526084015b60405180910390fd5b600082815260056020526040902061067c8282612670565b505050565b6001600160a01b0381166000908152600160205260408120548181158015906106c657506000828152602081905260409020600201546001600160a01b038581169116145b949350505050565b336001600160a01b03861681148015906106ef57506106ed8682610fa6565b155b156107205760405163711bec9160e11b81526001600160a01b0380831660048301528716602482015260440161065b565b61072d8686868686611275565b505050505050565b6001600160a01b03811660009081526001602052604081205460609182918082036107725760405162461bcd60e51b815260040161065b9061272f565b600081815260208190526040902060028101548154829160018301916001600160a01b039091169083906107a5906125f0565b80601f01602080910402602001604051908101604052809291908181526020018280546107d1906125f0565b801561081e5780601f106107f35761010080835404028352916020019161081e565b820191906000526020600020905b81548152906001019060200180831161080157829003601f168201915b50505050509250818054610831906125f0565b80601f016020809104026020016040519081016040528092919081815260200182805461085d906125f0565b80156108aa5780601f1061087f576101008083540402835291602001916108aa565b820191906000526020600020905b81548152906001019060200180831161088d57829003601f168201915b5050505050915094509450945050509193909250565b7ff0c57e16840df040f15088dc2f81fe391c3923bec73e23a9662efc9c229c6a008054600160401b810460ff1615906001600160401b03166000811580156109055750825b90506000826001600160401b031660011480156109215750303b155b90508115801561092f575080155b1561094d5760405163f92ee8a960e01b815260040160405180910390fd5b845467ffffffffffffffff19166001178555831561097757845460ff60401b1916600160401b1785555b61099860405180606001604052806031815260200161299e603191396112dc565b6109a1876112ed565b6109a96112fe565b600480546001600160a01b0319166001600160a01b0388161790558315610a0a57845460ff60401b19168555604051600181527fc7f505b2f371ae2175ee4913f4499e1f2633a7b5936321eed1cdaeb6115181d29060200160405180910390a15b50505050505050565b60608151835114610a445781518351604051635b05999160e01b81526004810192909252602482015260440161065b565b600083516001600160401b03811115610a5f57610a5f612082565b604051908082528060200260200182016040528015610a88578160200160208202803683370190505b50905060005b8451811015610adf57602080820286010151610ab29060208084028701015161047d565b828281518110610ac457610ac4612766565b6020908102919091010152610ad881612792565b9050610a8e565b509392505050565b610aef611306565b610af8826113ab565b610b0282826113b3565b5050565b6000610b10611470565b5060008051602061295e83398151915290565b610b2b6114b9565b610b3560006114eb565b565b7f9016d09d72d40fdae2fd8ceac6b6234c7706214fd39c1cd1e609a0528c199300546001600160a01b031690565b6003548411158015610b7657508315155b610b925760405162461bcd60e51b815260040161065b9061272f565b600084815260208190526040902060028101546001600160a01b03163314610c105760405162461bcd60e51b815260206004820152602b60248201527f4f6e6c7920746865206f7267616e697a65722063616e2075706461746520746860448201526a6569722070726f66696c6560a81b606482015260840161065b565b80610c1b8582612670565b5060018101610c2a8482612670565b506002810180546001600160a01b0319166001600160a01b03841617905560405185907fd46f0b6dd12391aba620f3317883a9158e15f9b884ee8397a1e58ac39caf454990610c7e908790879087906122cf565b60405180910390a25050505050565b610b0233838361155c565b6001600160a01b03811660009081526002602052604090205460ff1615610d015760405162461bcd60e51b815260206004820152601960248201527f4e6f6d696e656520616c7265616479206e6f6d696e6174656400000000000000604482015260640161065b565b6001600160a01b03811660009081526001602052604090205415610d675760405162461bcd60e51b815260206004820152601c60248201527f4e6f6d696e656520616c726561647920616e206f7267616e697a657200000000604482015260640161065b565b60048054604051632615fb8360e21b815233928101929092526000916001600160a01b0390911690639857ee0c90602401606060405180830381865afa158015610db5573d6000803e3d6000fd5b505050506040513d601f19601f82011682018060405250810190610dd991906127ab565b90506000816020015111610e3f5760405162461bcd60e51b815260206004820152602760248201527f496e73756666696369656e74206f7267616e697a657220726566657272616c206044820152666372656469747360c81b606482015260840161065b565b600480546040516321ceab3d60e01b815233928101929092526000602483018190526001604484015260648301526001600160a01b0316906321ceab3d90608401600060405180830381600087803b158015610e9a57600080fd5b505af1158015610eae573d6000803e3d6000fd5b5050506001600160a01b038316600081815260026020526040808220805460ff19166001179055513393507f212f044c14362659b4bfd486c672314c6629d0b1b9a3af8cc582483728f59ffe9190a35050565b3360009081526002602052604090205460ff16610f565760405162461bcd60e51b8152602060048201526013602482015272139bc81b9bdb5a5b985d1a5bdb88199bdd5b99606a1b604482015260640161065b565b336000908152600260205260409020805460ff19169055610f778282611604565b60405133907fcc2153c3826b58b98f4b210d27ef52c117703647e9ca570e3ad52ff6b43a98b290600090a25050565b6001600160a01b0391821660009081527f88be536d5240c274a3b1d3a1be54482fd9caa294f08c62a7cde569f49a3c45016020908152604080832093909416825291909152205460ff1690565b336001600160a01b038616811480159061101457506110128682610fa6565b155b156110455760405163711bec9160e11b81526001600160a01b0380831660048301528716602482015260440161065b565b61072d86868686866116fa565b61105a6114b9565b6001600160a01b03811661108457604051631e4fbdf760e01b81526000600482015260240161065b565b61108d816114eb565b50565b60035481111580156110a157508015155b6110bd5760405162461bcd60e51b815260040161065b9061272f565b600081815260208190526040902060028101546001600160a01b0316331461113c5760405162461bcd60e51b815260206004820152602c60248201527f4f6e6c7920746865206f7267616e697a65722063616e2064657265676973746560448201526b72207468656d73656c76657360a01b606482015260840161065b565b6111483383600161177f565b6000828152602081905260408120906111618282611f3f565b61116f600183016000611f3f565b5060020180546001600160a01b031916905560405182907fa6f0e87bd04d2b310bb6bbad6c11d3eb97b8ed6da96f9e85e9e05dc73f34f68990600090a25050565b7f88be536d5240c274a3b1d3a1be54482fd9caa294f08c62a7cde569f49a3c4502805460609160008051602061297e833981519152916111ef906125f0565b80601f016020809104026020016040519081016040528092919081815260200182805461121b906125f0565b80156112685780601f1061123d57610100808354040283529160200191611268565b820191906000526020600020905b81548152906001019060200180831161124b57829003601f168201915b5050505050915050919050565b6001600160a01b03841661129f57604051632bfa23e760e11b81526000600482015260240161065b565b6001600160a01b0385166112c857604051626a0d4560e21b81526000600482015260240161065b565b6112d585858585856117e3565b5050505050565b6112e4611836565b61108d8161187f565b6112f5611836565b61108d81611890565b610b35611836565b306001600160a01b037f000000000000000000000000000000000000000000000000000000000000000016148061138d57507f00000000000000000000000000000000000000000000000000000000000000006001600160a01b031661138160008051602061295e833981519152546001600160a01b031690565b6001600160a01b031614155b15610b355760405163703e46dd60e11b815260040160405180910390fd5b61108d6114b9565b816001600160a01b03166352d1902d6040518163ffffffff1660e01b8152600401602060405180830381865afa92505050801561140d575060408051601f3d908101601f1916820190925261140a91810190612806565b60015b61143557604051634c9c8ce360e01b81526001600160a01b038316600482015260240161065b565b60008051602061295e833981519152811461146657604051632a87526960e21b81526004810182905260240161065b565b61067c8383611898565b306001600160a01b037f00000000000000000000000000000000000000000000000000000000000000001614610b355760405163703e46dd60e11b815260040160405180910390fd5b336114c2610b37565b6001600160a01b031614610b355760405163118cdaa760e01b815233600482015260240161065b565b7f9016d09d72d40fdae2fd8ceac6b6234c7706214fd39c1cd1e609a0528c19930080546001600160a01b031981166001600160a01b03848116918217845560405192169182907f8be0079c531659141344cd1fd0a4f28419497f9722a3daafe3b4186f6b6457e090600090a3505050565b60008051602061297e8339815191526001600160a01b0383166115945760405162ced3e160e81b81526000600482015260240161065b565b6001600160a01b038481166000818152600184016020908152604080832094881680845294825291829020805460ff191687151590811790915591519182527f17307eab39ab6107e8899845ad3d59bd9653f200f220920489ca2b5937696c31910160405180910390a350505050565b6003805490600061161483612792565b909155505060035460408051606081018252848152602080820185905233828401819052600085815291829052929020815181906116529082612670565b50602082015160018201906116679082612670565b5060409182015160029190910180546001600160a01b0319166001600160a01b03928316179055821660009081526001602081815283832086905583519081019093529082526116ba91839185916118ee565b817f95dc077d84b54de3120a028ca9cbdb05ade3275b3eb5f73f3a308e75fa83b31e85836040516116ec92919061281f565b60405180910390a250505050565b6001600160a01b03841661172457604051632bfa23e760e11b81526000600482015260240161065b565b6001600160a01b03851661174d57604051626a0d4560e21b81526000600482015260240161065b565b60408051600180825260208201869052818301908152606082018590526080820190925290610a0a87878484876117e3565b6001600160a01b0383166117a857604051626a0d4560e21b81526000600482015260240161065b565b604080516001808252602082018590528183019081526060820184905260a082019092526000608082018181529192916112d5918791859085905b6117ef8585858561194b565b6001600160a01b038416156112d557825133906001036118285760208481015190840151611821838989858589611b79565b505061072d565b61072d818787878787611c9d565b7ff0c57e16840df040f15088dc2f81fe391c3923bec73e23a9662efc9c229c6a0054600160401b900460ff16610b3557604051631afcd79f60e31b815260040160405180910390fd5b611887611836565b61108d81611d86565b61105a611836565b6118a182611dc0565b6040516001600160a01b038316907fbc7cd75a20ee27fd9adebab32041f755214dbc6bffa90cc0225b39da2e5c2d3b90600090a28051156118e65761067c8282611e25565b610b02611e9b565b6001600160a01b03841661191857604051632bfa23e760e11b81526000600482015260240161065b565b6040805160018082526020820186905281830190815260608201859052608082019092529061072d6000878484876117e3565b8051825160008051602061297e833981519152911461198a5782518251604051635b05999160e01b81526004810192909252602482015260440161065b565b3360005b8451811015611a99576020818102868101820151908601909101516001600160a01b03891615611a41576000828152602086815260408083206001600160a01b038d16845290915290205481811015611a1a576040516303dee4c560e01b81526001600160a01b038b16600482015260248101829052604481018390526064810184905260840161065b565b6000838152602087815260408083206001600160a01b038e16845290915290209082900390555b6001600160a01b03881615611a86576000828152602086815260408083206001600160a01b038c16845290915281208054839290611a80908490612849565b90915550505b505080611a9290612792565b905061198e565b508351600103611b1a5760208401516000906020850151909150866001600160a01b0316886001600160a01b0316846001600160a01b03167fc3d58168c5ae7397731d063d5bbf3d657854427343f4c083240f7aacaa2d0f628585604051611b0b929190918252602082015260400190565b60405180910390a4505061072d565b846001600160a01b0316866001600160a01b0316826001600160a01b03167f4a39dc06d4c0dbc64b70af90fd698a233a518aa5d07e595d983b8c0526c8f7fb8787604051611b6992919061285c565b60405180910390a4505050505050565b6001600160a01b0384163b1561072d5760405163f23a6e6160e01b81526001600160a01b0385169063f23a6e6190611bbd9089908990889088908890600401612881565b6020604051808303816000875af1925050508015611bf8575060408051601f3d908101601f19168201909252611bf5918101906128c6565b60015b611c61573d808015611c26576040519150601f19603f3d011682016040523d82523d6000602084013e611c2b565b606091505b508051600003611c5957604051632bfa23e760e11b81526001600160a01b038616600482015260240161065b565b805181602001fd5b6001600160e01b0319811663f23a6e6160e01b14610a0a57604051632bfa23e760e11b81526001600160a01b038616600482015260240161065b565b6001600160a01b0384163b1561072d5760405163bc197c8160e01b81526001600160a01b0385169063bc197c8190611ce190899089908890889088906004016128e3565b6020604051808303816000875af1925050508015611d1c575060408051601f3d908101601f19168201909252611d19918101906128c6565b60015b611d4a573d808015611c26576040519150601f19603f3d011682016040523d82523d6000602084013e611c2b565b6001600160e01b0319811663bc197c8160e01b14610a0a57604051632bfa23e760e11b81526001600160a01b038616600482015260240161065b565b60008051602061297e8339815191527f88be536d5240c274a3b1d3a1be54482fd9caa294f08c62a7cde569f49a3c450261067c8382612670565b806001600160a01b03163b600003611df657604051634c9c8ce360e01b81526001600160a01b038216600482015260240161065b565b60008051602061295e83398151915280546001600160a01b0319166001600160a01b0392909216919091179055565b6060600080846001600160a01b031684604051611e429190612941565b600060405180830381855af49150503d8060008114611e7d576040519150601f19603f3d011682016040523d82523d6000602084013e611e82565b606091505b5091509150611e92858383611eba565b95945050505050565b3415610b355760405163b398979f60e01b815260040160405180910390fd5b606082611ecf57611eca82611f16565b6105bb565b8151158015611ee657506001600160a01b0384163b155b15611f0f57604051639996b31560e01b81526001600160a01b038516600482015260240161065b565b5092915050565b805115611f265780518082602001fd5b604051630a12f52160e11b815260040160405180910390fd5b508054611f4b906125f0565b6000825580601f10611f5b575050565b601f01602090049060005260206000209081019061108d91905b80821115611f895760008155600101611f75565b5090565b80356001600160a01b0381168114611fa457600080fd5b919050565b60008060408385031215611fbc57600080fd5b611fc583611f8d565b946020939093013593505050565b6001600160e01b03198116811461108d57600080fd5b600060208284031215611ffb57600080fd5b81356105bb81611fd3565b60006020828403121561201857600080fd5b5035919050565b60005b8381101561203a578181015183820152602001612022565b50506000910152565b6000815180845261205b81602086016020860161201f565b601f01601f19169290920160200192915050565b6020815260006105bb6020830184612043565b634e487b7160e01b600052604160045260246000fd5b604051601f8201601f191681016001600160401b03811182821017156120c0576120c0612082565b604052919050565b600082601f8301126120d957600080fd5b81356001600160401b038111156120f2576120f2612082565b612105601f8201601f1916602001612098565b81815284602083860101111561211a57600080fd5b816020850160208301376000918101602001919091529392505050565b6000806040838503121561214a57600080fd5b8235915060208301356001600160401b0381111561216757600080fd5b612173858286016120c8565b9150509250929050565b60006020828403121561218f57600080fd5b6105bb82611f8d565b60006001600160401b038211156121b1576121b1612082565b5060051b60200190565b600082601f8301126121cc57600080fd5b813560206121e16121dc83612198565b612098565b82815260059290921b8401810191818101908684111561220057600080fd5b8286015b8481101561221b5780358352918301918301612204565b509695505050505050565b600080600080600060a0868803121561223e57600080fd5b61224786611f8d565b945061225560208701611f8d565b935060408601356001600160401b038082111561227157600080fd5b61227d89838a016121bb565b9450606088013591508082111561229357600080fd5b61229f89838a016121bb565b935060808801359150808211156122b557600080fd5b506122c2888289016120c8565b9150509295509295909350565b6060815260006122e26060830186612043565b82810360208401526122f48186612043565b91505060018060a01b0383166040830152949350505050565b6000806040838503121561232057600080fd5b61232983611f8d565b915061233760208401611f8d565b90509250929050565b6000806040838503121561235357600080fd5b82356001600160401b038082111561236a57600080fd5b818501915085601f83011261237e57600080fd5b8135602061238e6121dc83612198565b82815260059290921b840181019181810190898411156123ad57600080fd5b948201945b838610156123d2576123c386611f8d565b825294820194908201906123b2565b965050860135925050808211156123e857600080fd5b50612173858286016121bb565b600081518084526020808501945080840160005b8381101561242557815187529582019590820190600101612409565b509495945050505050565b6020815260006105bb60208301846123f5565b6000806040838503121561245657600080fd5b61245f83611f8d565b915060208301356001600160401b0381111561216757600080fd5b6000806000806080858703121561249057600080fd5b8435935060208501356001600160401b03808211156124ae57600080fd5b6124ba888389016120c8565b945060408701359150808211156124d057600080fd5b506124dd878288016120c8565b9250506124ec60608601611f8d565b905092959194509250565b6000806040838503121561250a57600080fd5b61251383611f8d565b91506020830135801515811461252857600080fd5b809150509250929050565b6000806040838503121561254657600080fd5b82356001600160401b038082111561255d57600080fd5b612569868387016120c8565b9350602085013591508082111561257f57600080fd5b50612173858286016120c8565b600080600080600060a086880312156125a457600080fd5b6125ad86611f8d565b94506125bb60208701611f8d565b9350604086013592506060860135915060808601356001600160401b038111156125e457600080fd5b6122c2888289016120c8565b600181811c9082168061260457607f821691505b60208210810361262457634e487b7160e01b600052602260045260246000fd5b50919050565b601f82111561067c57600081815260208120601f850160051c810160208610156126515750805b601f850160051c820191505b8181101561072d5782815560010161265d565b81516001600160401b0381111561268957612689612082565b61269d8161269784546125f0565b8461262a565b602080601f8311600181146126d257600084156126ba5750858301515b600019600386901b1c1916600185901b17855561072d565b600085815260208120601f198616915b82811015612701578886015182559484019460019091019084016126e2565b508582101561271f5787850151600019600388901b60f8161c191681555b5050505050600190811b01905550565b60208082526018908201527f4f7267616e697a657220646f6573206e6f742065786973740000000000000000604082015260600190565b634e487b7160e01b600052603260045260246000fd5b634e487b7160e01b600052601160045260246000fd5b6000600182016127a4576127a461277c565b5060010190565b6000606082840312156127bd57600080fd5b604051606081018181106001600160401b03821117156127df576127df612082565b80604052508251815260208301516020820152604083015160408201528091505092915050565b60006020828403121561281857600080fd5b5051919050565b6040815260006128326040830185612043565b905060018060a01b03831660208301529392505050565b808201808211156104ae576104ae61277c565b60408152600061286f60408301856123f5565b8281036020840152611e9281856123f5565b6001600160a01b03868116825285166020820152604081018490526060810183905260a0608082018190526000906128bb90830184612043565b979650505050505050565b6000602082840312156128d857600080fd5b81516105bb81611fd3565b6001600160a01b0386811682528516602082015260a06040820181905260009061290f908301866123f5565b828103606084015261292181866123f5565b905082810360808401526129358185612043565b98975050505050505050565b6000825161295381846020870161201f565b919091019291505056fe360894a13ba1a3210667c828492db98dca3e2076cc3735a920a3ca505d382bbc88be536d5240c274a3b1d3a1be54482fd9caa294f08c62a7cde569f49a3c450068747470733a2f2f6d657461646174612e73656c6c6f7574732e6170702f6f7267616e697a65722f7b69647d2e6a736f6ea2646970667358221220001bbc81281c013ef04ca0ebbfcb851875391ad959ef8e5e9a2bb08edce3f16364736f6c63430008140033","linkReferences":{}},"methodIdentifiers":{"UPGRADE_INTERFACE_VERSION()":"ad3cb1cc","acceptNomination(string,string)":"c8450ef4","balanceOf(address,uint256)":"00fdd58e","balanceOfBatch(address[],uint256[])":"4e1273f4","deregisterOrganizer(uint256)":"fa9bbe36","getOrganizer(address)":"4092f2b7","initialize(address,address)":"485cc955","isApprovedForAll(address,address)":"e985e9c5","isOrganizerRegistered(address)":"29e7dbd9","nominate(address)":"b332180b","nominatedOrganizers(address)":"c8055b93","owner()":"8da5cb5b","proxiableUUID()":"52d1902d","renounceOwnership()":"715018a6","safeBatchTransferFrom(address,address,uint256[],uint256[],bytes)":"2eb2c2d6","safeTransferFrom(address,address,uint256,uint256,bytes)":"f242432a","setApprovalForAll(address,bool)":"a22cb465","setTokenURI(uint256,string)":"162094c4","supportsInterface(bytes4)":"01ffc9a7","transferOwnership(address)":"f2fde38b","updateOrganizer(uint256,string,string,address)":"9dabad5f","upgradeToAndCall(address,bytes)":"4f1ef286","uri(uint256)":"0e89341c"},"id":73}