{"abi":[{"type":"function","name":"UPGRADE_INTERFACE_VERSION","inputs":[],"outputs":[{"name":"","type":"string","internalType":"string"}],"stateMutability":"view"},{"type":"function","name":"acceptNomination","inputs":[{"name":"_name","type":"string","internalType":"string"},{"name":"_bio","type":"string","internalType":"string"}],"outputs":[],"stateMutability":"nonpayable"},{"type":"function","name":"balanceOf","inputs":[{"name":"account","type":"address","internalType":"address"},{"name":"id","type":"uint256","internalType":"uint256"}],"outputs":[{"name":"","type":"uint256","internalType":"uint256"}],"stateMutability":"view"},{"type":"function","name":"balanceOfBatch","inputs":[{"name":"accounts","type":"address[]","internalType":"address[]"},{"name":"ids","type":"uint256[]","internalType":"uint256[]"}],"outputs":[{"name":"","type":"uint256[]","internalType":"uint256[]"}],"stateMutability":"view"},{"type":"function","name":"deregisterOrganizer","inputs":[{"name":"organizerId","type":"uint256","internalType":"uint256"}],"outputs":[],"stateMutability":"nonpayable"},{"type":"function","name":"getOrganizer","inputs":[{"name":"organizerAddress","type":"address","internalType":"address"}],"outputs":[{"name":"name","type":"string","internalType":"string"},{"name":"bio","type":"string","internalType":"string"},{"name":"wallet","type":"address","internalType":"address"}],"stateMutability":"view"},{"type":"function","name":"initialize","inputs":[{"name":"initialOwner","type":"address","internalType":"address"},{"name":"_referralModuleAddress","type":"address","internalType":"address"}],"outputs":[],"stateMutability":"nonpayable"},{"type":"function","name":"isApprovedForAll","inputs":[{"name":"account","type":"address","internalType":"address"},{"name":"operator","type":"address","internalType":"address"}],"outputs":[{"name":"","type":"bool","internalType":"bool"}],"stateMutability":"view"},{"type":"function","name":"nominate","inputs":[{"name":"nominee","type":"address","internalType":"address"}],"outputs":[],"stateMutability":"nonpayable"},{"type":"function","name":"nominatedOrganizers","inputs":[{"name":"","type":"address","internalType":"address"}],"outputs":[{"name":"","type":"bool","internalType":"bool"}],"stateMutability":"view"},{"type":"function","name":"owner","inputs":[],"outputs":[{"name":"","type":"address","internalType":"address"}],"stateMutability":"view"},{"type":"function","name":"proxiableUUID","inputs":[],"outputs":[{"name":"","type":"bytes32","internalType":"bytes32"}],"stateMutability":"view"},{"type":"function","name":"renounceOwnership","inputs":[],"outputs":[],"stateMutability":"nonpayable"},{"type":"function","name":"safeBatchTransferFrom","inputs":[{"name":"from","type":"address","internalType":"address"},{"name":"to","type":"address","internalType":"address"},{"name":"ids","type":"uint256[]","internalType":"uint256[]"},{"name":"values","type":"uint256[]","internalType":"uint256[]"},{"name":"data","type":"bytes","internalType":"bytes"}],"outputs":[],"stateMutability":"nonpayable"},{"type":"function","name":"safeTransferFrom","inputs":[{"name":"from","type":"address","internalType":"address"},{"name":"to","type":"address","internalType":"address"},{"name":"id","type":"uint256","internalType":"uint256"},{"name":"value","type":"uint256","internalType":"uint256"},{"name":"data","type":"bytes","internalType":"bytes"}],"outputs":[],"stateMutability":"nonpayable"},{"type":"function","name":"setApprovalForAll","inputs":[{"name":"operator","type":"address","internalType":"address"},{"name":"approved","type":"bool","internalType":"bool"}],"outputs":[],"stateMutability":"nonpayable"},{"type":"function","name":"setTokenURI","inputs":[{"name":"tokenId","type":"uint256","internalType":"uint256"},{"name":"newURI","type":"string","internalType":"string"}],"outputs":[],"stateMutability":"nonpayable"},{"type":"function","name":"supportsInterface","inputs":[{"name":"interfaceId","type":"bytes4","internalType":"bytes4"}],"outputs":[{"name":"","type":"bool","internalType":"bool"}],"stateMutability":"view"},{"type":"function","name":"transferOwnership","inputs":[{"name":"newOwner","type":"address","internalType":"address"}],"outputs":[],"stateMutability":"nonpayable"},{"type":"function","name":"updateOrganizer","inputs":[{"name":"organizerId","type":"uint256","internalType":"uint256"},{"name":"name","type":"string","internalType":"string"},{"name":"bio","type":"string","internalType":"string"},{"name":"wallet","type":"address","internalType":"address"}],"outputs":[],"stateMutability":"nonpayable"},{"type":"function","name":"upgradeToAndCall","inputs":[{"name":"newImplementation","type":"address","internalType":"address"},{"name":"data","type":"bytes","internalType":"bytes"}],"outputs":[],"stateMutability":"payable"},{"type":"function","name":"uri","inputs":[{"name":"tokenId","type":"uint256","internalType":"uint256"}],"outputs":[{"name":"","type":"string","internalType":"string"}],"stateMutability":"view"},{"type":"event","name":"ApprovalForAll","inputs":[{"name":"account","type":"address","indexed":true,"internalType":"address"},{"name":"operator","type":"address","indexed":true,"internalType":"address"},{"name":"approved","type":"bool","indexed":false,"internalType":"bool"}],"anonymous":false},{"type":"event","name":"Initialized","inputs":[{"name":"version","type":"uint64","indexed":false,"internalType":"uint64"}],"anonymous":false},{"type":"event","name":"OrganizerAccepted","inputs":[{"name":"nominee","type":"address","indexed":true,"internalType":"address"}],"anonymous":false},{"type":"event","name":"OrganizerDeregistered","inputs":[{"name":"organizerId","type":"uint256","indexed":true,"internalType":"uint256"}],"anonymous":false},{"type":"event","name":"OrganizerNominated","inputs":[{"name":"nominee","type":"address","indexed":true,"internalType":"address"},{"name":"nominator","type":"address","indexed":true,"internalType":"address"}],"anonymous":false},{"type":"event","name":"OrganizerRegistered","inputs":[{"name":"organizerId","type":"uint256","indexed":true,"internalType":"uint256"},{"name":"name","type":"string","indexed":false,"internalType":"string"},{"name":"wallet","type":"address","indexed":false,"internalType":"address"}],"anonymous":false},{"type":"event","name":"OrganizerUpdated","inputs":[{"name":"organizerId","type":"uint256","indexed":true,"internalType":"uint256"},{"name":"name","type":"string","indexed":false,"internalType":"string"},{"name":"bio","type":"string","indexed":false,"internalType":"string"},{"name":"wallet","type":"address","indexed":false,"internalType":"address"}],"anonymous":false},{"type":"event","name":"OwnershipTransferred","inputs":[{"name":"previousOwner","type":"address","indexed":true,"internalType":"address"},{"name":"newOwner","type":"address","indexed":true,"internalType":"address"}],"anonymous":false},{"type":"event","name":"TransferBatch","inputs":[{"name":"operator","type":"address","indexed":true,"internalType":"address"},{"name":"from","type":"address","indexed":true,"internalType":"address"},{"name":"to","type":"address","indexed":true,"internalType":"address"},{"name":"ids","type":"uint256[]","indexed":false,"internalType":"uint256[]"},{"name":"values","type":"uint256[]","indexed":false,"internalType":"uint256[]"}],"anonymous":false},{"type":"event","name":"TransferSingle","inputs":[{"name":"operator","type":"address","indexed":true,"internalType":"address"},{"name":"from","type":"address","indexed":true,"internalType":"address"},{"name":"to","type":"address","indexed":true,"internalType":"address"},{"name":"id","type":"uint256","indexed":false,"internalType":"uint256"},{"name":"value","type":"uint256","indexed":false,"internalType":"uint256"}],"anonymous":false},{"type":"event","name":"URI","inputs":[{"name":"value","type":"string","indexed":false,"internalType":"string"},{"name":"id","type":"uint256","indexed":true,"internalType":"uint256"}],"anonymous":false},{"type":"event","name":"Upgraded","inputs":[{"name":"implementation","type":"address","indexed":true,"internalType":"address"}],"anonymous":false},{"type":"error","name":"AddressEmptyCode","inputs":[{"name":"target","type":"address","internalType":"address"}]},{"type":"error","name":"ERC1155InsufficientBalance","inputs":[{"name":"sender","type":"address","internalType":"address"},{"name":"balance","type":"uint256","internalType":"uint256"},{"name":"needed","type":"uint256","internalType":"uint256"},{"name":"tokenId","type":"uint256","internalType":"uint256"}]},{"type":"error","name":"ERC1155InvalidApprover","inputs":[{"name":"approver","type":"address","internalType":"address"}]},{"type":"error","name":"ERC1155InvalidArrayLength","inputs":[{"name":"idsLength","type":"uint256","internalType":"uint256"},{"name":"valuesLength","type":"uint256","internalType":"uint256"}]},{"type":"error","name":"ERC1155InvalidOperator","inputs":[{"name":"operator","type":"address","internalType":"address"}]},{"type":"error","name":"ERC1155InvalidReceiver","inputs":[{"name":"receiver","type":"address","internalType":"address"}]},{"type":"error","name":"ERC1155InvalidSender","inputs":[{"name":"sender","type":"address","internalType":"address"}]},{"type":"error","name":"ERC1155MissingApprovalForAll","inputs":[{"name":"operator","type":"address","internalType":"address"},{"name":"owner","type":"address","internalType":"address"}]},{"type":"error","name":"ERC1967InvalidImplementation","inputs":[{"name":"implementation","type":"address","internalType":"address"}]},{"type":"error","name":"ERC1967NonPayable","inputs":[]},{"type":"error","name":"FailedInnerCall","inputs":[]},{"type":"error","name":"InvalidInitialization","inputs":[]},{"type":"error","name":"NotInitializing","inputs":[]},{"type":"error","name":"OwnableInvalidOwner","inputs":[{"name":"owner","type":"address","internalType":"address"}]},{"type":"error","name":"OwnableUnauthorizedAccount","inputs":[{"name":"account","type":"address","internalType":"address"}]},{"type":"error","name":"UUPSUnauthorizedCallContext","inputs":[]},{"type":"error","name":"UUPSUnsupportedProxiableUUID","inputs":[{"name":"slot","type":"bytes32","internalType":"bytes32"}]}],"bytecode":{"object":"0x60a06040523060805234801561001457600080fd5b506080516128bd61003e600039600081816111ca015281816111f3015261133401526128bd6000f3fe6080604052600436106101345760003560e01c80638da5cb5b116100ab578063c8055b931161006f578063c8055b9314610382578063c8450ef4146103b2578063e985e9c5146103d2578063f242432a146103f2578063f2fde38b14610412578063fa9bbe361461043257600080fd5b80638da5cb5b146102c45780639dabad5f146102f1578063a22cb46514610311578063ad3cb1cc14610331578063b332180b1461036257600080fd5b80634092f2b7116100fd5780634092f2b71461020b578063485cc9551461023a5780634e1273f41461025a5780634f1ef2861461028757806352d1902d1461029a578063715018a6146102af57600080fd5b8062fdd58e1461013957806301ffc9a71461016c5780630e89341c1461019c578063162094c4146101c95780632eb2c2d6146101eb575b600080fd5b34801561014557600080fd5b50610159610154366004611e62565b610452565b6040519081526020015b60405180910390f35b34801561017857600080fd5b5061018c610187366004611ea2565b610489565b6040519015158152602001610163565b3480156101a857600080fd5b506101bc6101b7366004611ebf565b6104d9565b6040516101639190611f28565b3480156101d557600080fd5b506101e96101e4366004611ff0565b610597565b005b3480156101f757600080fd5b506101e96102063660046120c4565b610656565b34801561021757600080fd5b5061022b61022636600461216d565b6106bd565b60405161016393929190612188565b34801561024657600080fd5b506101e96102553660046121c6565b610848565b34801561026657600080fd5b5061027a6102753660046121f9565b61099b565b60405161016391906122e9565b6101e96102953660046122fc565b610a6f565b3480156102a657600080fd5b50610159610a8e565b3480156102bb57600080fd5b506101e9610aab565b3480156102d057600080fd5b506102d9610abf565b6040516001600160a01b039091168152602001610163565b3480156102fd57600080fd5b506101e961030c366004612333565b610aed565b34801561031d57600080fd5b506101e961032c3660046123b0565b610c15565b34801561033d57600080fd5b506101bc604051806040016040528060058152602001640352e302e360dc1b81525081565b34801561036e57600080fd5b506101e961037d36600461216d565b610c20565b34801561038e57600080fd5b5061018c61039d36600461216d565b60026020526000908152604090205460ff1681565b3480156103be57600080fd5b506101e96103cd3660046123ec565b610dba565b3480156103de57600080fd5b5061018c6103ed3660046121c6565b610e5f565b3480156103fe57600080fd5b506101e961040d366004612445565b610eac565b34801561041e57600080fd5b506101e961042d36600461216d565b610f0b565b34801561043e57600080fd5b506101e961044d366004611ebf565b610f49565b6000818152600080516020612837833981519152602090815260408083206001600160a01b03861684529091529020545b92915050565b60006001600160e01b03198216636cdb3d1360e11b14806104ba57506001600160e01b031982166303a24d0760e21b145b8061048357506301ffc9a760e01b6001600160e01b0319831614610483565b6000818152600560205260408120805460609291906104f7906124a9565b80601f0160208091040260200160405190810160405280929190818152602001828054610523906124a9565b80156105705780601f1061054557610100808354040283529160200191610570565b820191906000526020600020905b81548152906001019060200180831161055357829003601f168201915b505050505090506000815111156105875792915050565b61059083611069565b9392505050565b61059f610abf565b6001600160a01b0316336001600160a01b031614806105d757506000828152602081905260409020600201546001600160a01b031633145b6106395760405162461bcd60e51b815260206004820152602860248201527f43616c6c6572206973206e6f7420746865206f776e6572206f7220746865206f6044820152673933b0b734bd32b960c11b60648201526084015b60405180910390fd5b60008281526005602052604090206106518282612529565b505050565b336001600160a01b038616811480159061067757506106758682610e5f565b155b156106a85760405163711bec9160e11b81526001600160a01b03808316600483015287166024820152604401610630565b6106b5868686868661112e565b505050505050565b6001600160a01b03811660009081526001602052604081205460609182918082036106fa5760405162461bcd60e51b8152600401610630906125e8565b600081815260208190526040902060028101548154829160018301916001600160a01b0390911690839061072d906124a9565b80601f0160208091040260200160405190810160405280929190818152602001828054610759906124a9565b80156107a65780601f1061077b576101008083540402835291602001916107a6565b820191906000526020600020905b81548152906001019060200180831161078957829003601f168201915b505050505092508180546107b9906124a9565b80601f01602080910402602001604051908101604052809291908181526020018280546107e5906124a9565b80156108325780601f1061080757610100808354040283529160200191610832565b820191906000526020600020905b81548152906001019060200180831161081557829003601f168201915b5050505050915094509450945050509193909250565b7ff0c57e16840df040f15088dc2f81fe391c3923bec73e23a9662efc9c229c6a008054600160401b810460ff1615906001600160401b031660008115801561088d5750825b90506000826001600160401b031660011480156108a95750303b155b9050811580156108b7575080155b156108d55760405163f92ee8a960e01b815260040160405180910390fd5b845467ffffffffffffffff1916600117855583156108ff57845460ff60401b1916600160401b1785555b61092060405180606001604052806031815260200161285760319139611195565b610929876111a6565b6109316111b7565b600480546001600160a01b0319166001600160a01b038816179055831561099257845460ff60401b19168555604051600181527fc7f505b2f371ae2175ee4913f4499e1f2633a7b5936321eed1cdaeb6115181d29060200160405180910390a15b50505050505050565b606081518351146109cc5781518351604051635b05999160e01b815260048101929092526024820152604401610630565b600083516001600160401b038111156109e7576109e7611f3b565b604051908082528060200260200182016040528015610a10578160200160208202803683370190505b50905060005b8451811015610a6757602080820286010151610a3a90602080840287010151610452565b828281518110610a4c57610a4c61261f565b6020908102919091010152610a608161264b565b9050610a16565b509392505050565b610a776111bf565b610a8082611264565b610a8a828261126c565b5050565b6000610a98611329565b5060008051602061281783398151915290565b610ab3611372565b610abd60006113a4565b565b7f9016d09d72d40fdae2fd8ceac6b6234c7706214fd39c1cd1e609a0528c199300546001600160a01b031690565b6003548411158015610afe57508315155b610b1a5760405162461bcd60e51b8152600401610630906125e8565b600084815260208190526040902060028101546001600160a01b03163314610b985760405162461bcd60e51b815260206004820152602b60248201527f4f6e6c7920746865206f7267616e697a65722063616e2075706461746520746860448201526a6569722070726f66696c6560a81b6064820152608401610630565b80610ba38582612529565b5060018101610bb28482612529565b506002810180546001600160a01b0319166001600160a01b03841617905560405185907fd46f0b6dd12391aba620f3317883a9158e15f9b884ee8397a1e58ac39caf454990610c0690879087908790612188565b60405180910390a25050505050565b610a8a338383611415565b60048054604051632615fb8360e21b815233928101929092526000916001600160a01b0390911690639857ee0c90602401606060405180830381865afa158015610c6e573d6000803e3d6000fd5b505050506040513d601f19601f82011682018060405250810190610c929190612664565b90506000816020015111610cf85760405162461bcd60e51b815260206004820152602760248201527f496e73756666696369656e74206f7267616e697a657220726566657272616c206044820152666372656469747360c81b6064820152608401610630565b600480546040516321ceab3d60e01b815233928101929092526000602483018190526001604484015260648301526001600160a01b0316906321ceab3d90608401600060405180830381600087803b158015610d5357600080fd5b505af1158015610d67573d6000803e3d6000fd5b5050506001600160a01b038316600081815260026020526040808220805460ff19166001179055513393507f212f044c14362659b4bfd486c672314c6629d0b1b9a3af8cc582483728f59ffe9190a35050565b3360009081526002602052604090205460ff16610e0f5760405162461bcd60e51b8152602060048201526013602482015272139bc81b9bdb5a5b985d1a5bdb88199bdd5b99606a1b6044820152606401610630565b336000908152600260205260409020805460ff19169055610e3082826114bd565b60405133907fcc2153c3826b58b98f4b210d27ef52c117703647e9ca570e3ad52ff6b43a98b290600090a25050565b6001600160a01b0391821660009081527f88be536d5240c274a3b1d3a1be54482fd9caa294f08c62a7cde569f49a3c45016020908152604080832093909416825291909152205460ff1690565b336001600160a01b0386168114801590610ecd5750610ecb8682610e5f565b155b15610efe5760405163711bec9160e11b81526001600160a01b03808316600483015287166024820152604401610630565b6106b586868686866115b3565b610f13611372565b6001600160a01b038116610f3d57604051631e4fbdf760e01b815260006004820152602401610630565b610f46816113a4565b50565b6003548111158015610f5a57508015155b610f765760405162461bcd60e51b8152600401610630906125e8565b600081815260208190526040902060028101546001600160a01b03163314610ff55760405162461bcd60e51b815260206004820152602c60248201527f4f6e6c7920746865206f7267616e697a65722063616e2064657265676973746560448201526b72207468656d73656c76657360a01b6064820152608401610630565b61100133836001611638565b60008281526020819052604081209061101a8282611df8565b611028600183016000611df8565b5060020180546001600160a01b031916905560405182907fa6f0e87bd04d2b310bb6bbad6c11d3eb97b8ed6da96f9e85e9e05dc73f34f68990600090a25050565b7f88be536d5240c274a3b1d3a1be54482fd9caa294f08c62a7cde569f49a3c45028054606091600080516020612837833981519152916110a8906124a9565b80601f01602080910402602001604051908101604052809291908181526020018280546110d4906124a9565b80156111215780601f106110f657610100808354040283529160200191611121565b820191906000526020600020905b81548152906001019060200180831161110457829003601f168201915b5050505050915050919050565b6001600160a01b03841661115857604051632bfa23e760e11b815260006004820152602401610630565b6001600160a01b03851661118157604051626a0d4560e21b815260006004820152602401610630565b61118e858585858561169c565b5050505050565b61119d6116ef565b610f4681611738565b6111ae6116ef565b610f4681611749565b610abd6116ef565b306001600160a01b037f000000000000000000000000000000000000000000000000000000000000000016148061124657507f00000000000000000000000000000000000000000000000000000000000000006001600160a01b031661123a600080516020612817833981519152546001600160a01b031690565b6001600160a01b031614155b15610abd5760405163703e46dd60e11b815260040160405180910390fd5b610f46611372565b816001600160a01b03166352d1902d6040518163ffffffff1660e01b8152600401602060405180830381865afa9250505080156112c6575060408051601f3d908101601f191682019092526112c3918101906126bf565b60015b6112ee57604051634c9c8ce360e01b81526001600160a01b0383166004820152602401610630565b600080516020612817833981519152811461131f57604051632a87526960e21b815260048101829052602401610630565b6106518383611751565b306001600160a01b037f00000000000000000000000000000000000000000000000000000000000000001614610abd5760405163703e46dd60e11b815260040160405180910390fd5b3361137b610abf565b6001600160a01b031614610abd5760405163118cdaa760e01b8152336004820152602401610630565b7f9016d09d72d40fdae2fd8ceac6b6234c7706214fd39c1cd1e609a0528c19930080546001600160a01b031981166001600160a01b03848116918217845560405192169182907f8be0079c531659141344cd1fd0a4f28419497f9722a3daafe3b4186f6b6457e090600090a3505050565b6000805160206128378339815191526001600160a01b03831661144d5760405162ced3e160e81b815260006004820152602401610630565b6001600160a01b038481166000818152600184016020908152604080832094881680845294825291829020805460ff191687151590811790915591519182527f17307eab39ab6107e8899845ad3d59bd9653f200f220920489ca2b5937696c31910160405180910390a350505050565b600380549060006114cd8361264b565b9091555050600354604080516060810182528481526020808201859052338284018190526000858152918290529290208151819061150b9082612529565b50602082015160018201906115209082612529565b5060409182015160029190910180546001600160a01b0319166001600160a01b039283161790558216600090815260016020818152838320869055835190810190935290825261157391839185916117a7565b817f95dc077d84b54de3120a028ca9cbdb05ade3275b3eb5f73f3a308e75fa83b31e85836040516115a59291906126d8565b60405180910390a250505050565b6001600160a01b0384166115dd57604051632bfa23e760e11b815260006004820152602401610630565b6001600160a01b03851661160657604051626a0d4560e21b815260006004820152602401610630565b60408051600180825260208201869052818301908152606082018590526080820190925290610992878784848761169c565b6001600160a01b03831661166157604051626a0d4560e21b815260006004820152602401610630565b604080516001808252602082018590528183019081526060820184905260a0820190925260006080820181815291929161118e918791859085905b6116a885858585611804565b6001600160a01b0384161561118e57825133906001036116e157602084810151908401516116da838989858589611a32565b50506106b5565b6106b5818787878787611b56565b7ff0c57e16840df040f15088dc2f81fe391c3923bec73e23a9662efc9c229c6a0054600160401b900460ff16610abd57604051631afcd79f60e31b815260040160405180910390fd5b6117406116ef565b610f4681611c3f565b610f136116ef565b61175a82611c79565b6040516001600160a01b038316907fbc7cd75a20ee27fd9adebab32041f755214dbc6bffa90cc0225b39da2e5c2d3b90600090a280511561179f576106518282611cde565b610a8a611d54565b6001600160a01b0384166117d157604051632bfa23e760e11b815260006004820152602401610630565b604080516001808252602082018690528183019081526060820185905260808201909252906106b560008784848761169c565b8051825160008051602061283783398151915291146118435782518251604051635b05999160e01b815260048101929092526024820152604401610630565b3360005b8451811015611952576020818102868101820151908601909101516001600160a01b038916156118fa576000828152602086815260408083206001600160a01b038d168452909152902054818110156118d3576040516303dee4c560e01b81526001600160a01b038b166004820152602481018290526044810183905260648101849052608401610630565b6000838152602087815260408083206001600160a01b038e16845290915290209082900390555b6001600160a01b0388161561193f576000828152602086815260408083206001600160a01b038c16845290915281208054839290611939908490612702565b90915550505b50508061194b9061264b565b9050611847565b5083516001036119d35760208401516000906020850151909150866001600160a01b0316886001600160a01b0316846001600160a01b03167fc3d58168c5ae7397731d063d5bbf3d657854427343f4c083240f7aacaa2d0f6285856040516119c4929190918252602082015260400190565b60405180910390a450506106b5565b846001600160a01b0316866001600160a01b0316826001600160a01b03167f4a39dc06d4c0dbc64b70af90fd698a233a518aa5d07e595d983b8c0526c8f7fb8787604051611a22929190612715565b60405180910390a4505050505050565b6001600160a01b0384163b156106b55760405163f23a6e6160e01b81526001600160a01b0385169063f23a6e6190611a76908990899088908890889060040161273a565b6020604051808303816000875af1925050508015611ab1575060408051601f3d908101601f19168201909252611aae9181019061277f565b60015b611b1a573d808015611adf576040519150601f19603f3d011682016040523d82523d6000602084013e611ae4565b606091505b508051600003611b1257604051632bfa23e760e11b81526001600160a01b0386166004820152602401610630565b805181602001fd5b6001600160e01b0319811663f23a6e6160e01b1461099257604051632bfa23e760e11b81526001600160a01b0386166004820152602401610630565b6001600160a01b0384163b156106b55760405163bc197c8160e01b81526001600160a01b0385169063bc197c8190611b9a908990899088908890889060040161279c565b6020604051808303816000875af1925050508015611bd5575060408051601f3d908101601f19168201909252611bd29181019061277f565b60015b611c03573d808015611adf576040519150601f19603f3d011682016040523d82523d6000602084013e611ae4565b6001600160e01b0319811663bc197c8160e01b1461099257604051632bfa23e760e11b81526001600160a01b0386166004820152602401610630565b6000805160206128378339815191527f88be536d5240c274a3b1d3a1be54482fd9caa294f08c62a7cde569f49a3c45026106518382612529565b806001600160a01b03163b600003611caf57604051634c9c8ce360e01b81526001600160a01b0382166004820152602401610630565b60008051602061281783398151915280546001600160a01b0319166001600160a01b0392909216919091179055565b6060600080846001600160a01b031684604051611cfb91906127fa565b600060405180830381855af49150503d8060008114611d36576040519150601f19603f3d011682016040523d82523d6000602084013e611d3b565b606091505b5091509150611d4b858383611d73565b95945050505050565b3415610abd5760405163b398979f60e01b815260040160405180910390fd5b606082611d8857611d8382611dcf565b610590565b8151158015611d9f57506001600160a01b0384163b155b15611dc857604051639996b31560e01b81526001600160a01b0385166004820152602401610630565b5092915050565b805115611ddf5780518082602001fd5b604051630a12f52160e11b815260040160405180910390fd5b508054611e04906124a9565b6000825580601f10611e14575050565b601f016020900490600052602060002090810190610f4691905b80821115611e425760008155600101611e2e565b5090565b80356001600160a01b0381168114611e5d57600080fd5b919050565b60008060408385031215611e7557600080fd5b611e7e83611e46565b946020939093013593505050565b6001600160e01b031981168114610f4657600080fd5b600060208284031215611eb457600080fd5b813561059081611e8c565b600060208284031215611ed157600080fd5b5035919050565b60005b83811015611ef3578181015183820152602001611edb565b50506000910152565b60008151808452611f14816020860160208601611ed8565b601f01601f19169290920160200192915050565b6020815260006105906020830184611efc565b634e487b7160e01b600052604160045260246000fd5b604051601f8201601f191681016001600160401b0381118282101715611f7957611f79611f3b565b604052919050565b600082601f830112611f9257600080fd5b81356001600160401b03811115611fab57611fab611f3b565b611fbe601f8201601f1916602001611f51565b818152846020838601011115611fd357600080fd5b816020850160208301376000918101602001919091529392505050565b6000806040838503121561200357600080fd5b8235915060208301356001600160401b0381111561202057600080fd5b61202c85828601611f81565b9150509250929050565b60006001600160401b0382111561204f5761204f611f3b565b5060051b60200190565b600082601f83011261206a57600080fd5b8135602061207f61207a83612036565b611f51565b82815260059290921b8401810191818101908684111561209e57600080fd5b8286015b848110156120b957803583529183019183016120a2565b509695505050505050565b600080600080600060a086880312156120dc57600080fd5b6120e586611e46565b94506120f360208701611e46565b935060408601356001600160401b038082111561210f57600080fd5b61211b89838a01612059565b9450606088013591508082111561213157600080fd5b61213d89838a01612059565b9350608088013591508082111561215357600080fd5b5061216088828901611f81565b9150509295509295909350565b60006020828403121561217f57600080fd5b61059082611e46565b60608152600061219b6060830186611efc565b82810360208401526121ad8186611efc565b91505060018060a01b0383166040830152949350505050565b600080604083850312156121d957600080fd5b6121e283611e46565b91506121f060208401611e46565b90509250929050565b6000806040838503121561220c57600080fd5b82356001600160401b038082111561222357600080fd5b818501915085601f83011261223757600080fd5b8135602061224761207a83612036565b82815260059290921b8401810191818101908984111561226657600080fd5b948201945b8386101561228b5761227c86611e46565b8252948201949082019061226b565b965050860135925050808211156122a157600080fd5b5061202c85828601612059565b600081518084526020808501945080840160005b838110156122de578151875295820195908201906001016122c2565b509495945050505050565b60208152600061059060208301846122ae565b6000806040838503121561230f57600080fd5b61231883611e46565b915060208301356001600160401b0381111561202057600080fd5b6000806000806080858703121561234957600080fd5b8435935060208501356001600160401b038082111561236757600080fd5b61237388838901611f81565b9450604087013591508082111561238957600080fd5b5061239687828801611f81565b9250506123a560608601611e46565b905092959194509250565b600080604083850312156123c357600080fd5b6123cc83611e46565b9150602083013580151581146123e157600080fd5b809150509250929050565b600080604083850312156123ff57600080fd5b82356001600160401b038082111561241657600080fd5b61242286838701611f81565b9350602085013591508082111561243857600080fd5b5061202c85828601611f81565b600080600080600060a0868803121561245d57600080fd5b61246686611e46565b945061247460208701611e46565b9350604086013592506060860135915060808601356001600160401b0381111561249d57600080fd5b61216088828901611f81565b600181811c908216806124bd57607f821691505b6020821081036124dd57634e487b7160e01b600052602260045260246000fd5b50919050565b601f82111561065157600081815260208120601f850160051c8101602086101561250a5750805b601f850160051c820191505b818110156106b557828155600101612516565b81516001600160401b0381111561254257612542611f3b565b6125568161255084546124a9565b846124e3565b602080601f83116001811461258b57600084156125735750858301515b600019600386901b1c1916600185901b1785556106b5565b600085815260208120601f198616915b828110156125ba5788860151825594840194600190910190840161259b565b50858210156125d85787850151600019600388901b60f8161c191681555b5050505050600190811b01905550565b60208082526018908201527f4f7267616e697a657220646f6573206e6f742065786973740000000000000000604082015260600190565b634e487b7160e01b600052603260045260246000fd5b634e487b7160e01b600052601160045260246000fd5b60006001820161265d5761265d612635565b5060010190565b60006060828403121561267657600080fd5b604051606081018181106001600160401b038211171561269857612698611f3b565b80604052508251815260208301516020820152604083015160408201528091505092915050565b6000602082840312156126d157600080fd5b5051919050565b6040815260006126eb6040830185611efc565b905060018060a01b03831660208301529392505050565b8082018082111561048357610483612635565b60408152600061272860408301856122ae565b8281036020840152611d4b81856122ae565b6001600160a01b03868116825285166020820152604081018490526060810183905260a06080820181905260009061277490830184611efc565b979650505050505050565b60006020828403121561279157600080fd5b815161059081611e8c565b6001600160a01b0386811682528516602082015260a0604082018190526000906127c8908301866122ae565b82810360608401526127da81866122ae565b905082810360808401526127ee8185611efc565b98975050505050505050565b6000825161280c818460208701611ed8565b919091019291505056fe360894a13ba1a3210667c828492db98dca3e2076cc3735a920a3ca505d382bbc88be536d5240c274a3b1d3a1be54482fd9caa294f08c62a7cde569f49a3c450068747470733a2f2f6d657461646174612e73656c6c6f7574732e6170702f6f7267616e697a65722f7b69647d2e6a736f6ea264697066735822122032d52a0e36b163e7035ec3be35c661c419edbc881014449e017d2759a629ee0664736f6c63430008140033","linkReferences":{}},"methodIdentifiers":{"UPGRADE_INTERFACE_VERSION()":"ad3cb1cc","acceptNomination(string,string)":"c8450ef4","balanceOf(address,uint256)":"00fdd58e","balanceOfBatch(address[],uint256[])":"4e1273f4","deregisterOrganizer(uint256)":"fa9bbe36","getOrganizer(address)":"4092f2b7","initialize(address,address)":"485cc955","isApprovedForAll(address,address)":"e985e9c5","nominate(address)":"b332180b","nominatedOrganizers(address)":"c8055b93","owner()":"8da5cb5b","proxiableUUID()":"52d1902d","renounceOwnership()":"715018a6","safeBatchTransferFrom(address,address,uint256[],uint256[],bytes)":"2eb2c2d6","safeTransferFrom(address,address,uint256,uint256,bytes)":"f242432a","setApprovalForAll(address,bool)":"a22cb465","setTokenURI(uint256,string)":"162094c4","supportsInterface(bytes4)":"01ffc9a7","transferOwnership(address)":"f2fde38b","updateOrganizer(uint256,string,string,address)":"9dabad5f","upgradeToAndCall(address,bytes)":"4f1ef286","uri(uint256)":"0e89341c"},"id":67}