{"abi":[{"type":"function","name":"UPGRADE_INTERFACE_VERSION","inputs":[],"outputs":[{"name":"","type":"string","internalType":"string"}],"stateMutability":"view"},{"type":"function","name":"acceptNomination","inputs":[{"name":"_name","type":"string","internalType":"string"},{"name":"_bio","type":"string","internalType":"string"}],"outputs":[],"stateMutability":"nonpayable"},{"type":"function","name":"balanceOf","inputs":[{"name":"account","type":"address","internalType":"address"},{"name":"id","type":"uint256","internalType":"uint256"}],"outputs":[{"name":"","type":"uint256","internalType":"uint256"}],"stateMutability":"view"},{"type":"function","name":"balanceOfBatch","inputs":[{"name":"accounts","type":"address[]","internalType":"address[]"},{"name":"ids","type":"uint256[]","internalType":"uint256[]"}],"outputs":[{"name":"","type":"uint256[]","internalType":"uint256[]"}],"stateMutability":"view"},{"type":"function","name":"deregisterOrganizer","inputs":[{"name":"organizerId","type":"uint256","internalType":"uint256"}],"outputs":[],"stateMutability":"nonpayable"},{"type":"function","name":"getOrganizer","inputs":[{"name":"organizerAddress","type":"address","internalType":"address"}],"outputs":[{"name":"name","type":"string","internalType":"string"},{"name":"bio","type":"string","internalType":"string"},{"name":"wallet","type":"address","internalType":"address"}],"stateMutability":"view"},{"type":"function","name":"initialize","inputs":[{"name":"initialOwner","type":"address","internalType":"address"},{"name":"_referralModuleAddress","type":"address","internalType":"address"}],"outputs":[],"stateMutability":"nonpayable"},{"type":"function","name":"isApprovedForAll","inputs":[{"name":"account","type":"address","internalType":"address"},{"name":"operator","type":"address","internalType":"address"}],"outputs":[{"name":"","type":"bool","internalType":"bool"}],"stateMutability":"view"},{"type":"function","name":"isOrganizerRegistered","inputs":[{"name":"organizer","type":"address","internalType":"address"}],"outputs":[{"name":"","type":"bool","internalType":"bool"}],"stateMutability":"view"},{"type":"function","name":"nominate","inputs":[{"name":"nominee","type":"address","internalType":"address"}],"outputs":[],"stateMutability":"nonpayable"},{"type":"function","name":"nominatedOrganizers","inputs":[{"name":"","type":"address","internalType":"address"}],"outputs":[{"name":"","type":"bool","internalType":"bool"}],"stateMutability":"view"},{"type":"function","name":"owner","inputs":[],"outputs":[{"name":"","type":"address","internalType":"address"}],"stateMutability":"view"},{"type":"function","name":"proxiableUUID","inputs":[],"outputs":[{"name":"","type":"bytes32","internalType":"bytes32"}],"stateMutability":"view"},{"type":"function","name":"renounceOwnership","inputs":[],"outputs":[],"stateMutability":"nonpayable"},{"type":"function","name":"safeBatchTransferFrom","inputs":[{"name":"from","type":"address","internalType":"address"},{"name":"to","type":"address","internalType":"address"},{"name":"ids","type":"uint256[]","internalType":"uint256[]"},{"name":"values","type":"uint256[]","internalType":"uint256[]"},{"name":"data","type":"bytes","internalType":"bytes"}],"outputs":[],"stateMutability":"nonpayable"},{"type":"function","name":"safeTransferFrom","inputs":[{"name":"from","type":"address","internalType":"address"},{"name":"to","type":"address","internalType":"address"},{"name":"id","type":"uint256","internalType":"uint256"},{"name":"value","type":"uint256","internalType":"uint256"},{"name":"data","type":"bytes","internalType":"bytes"}],"outputs":[],"stateMutability":"nonpayable"},{"type":"function","name":"setApprovalForAll","inputs":[{"name":"operator","type":"address","internalType":"address"},{"name":"approved","type":"bool","internalType":"bool"}],"outputs":[],"stateMutability":"nonpayable"},{"type":"function","name":"setContractURI","inputs":[{"name":"newURI","type":"string","internalType":"string"}],"outputs":[],"stateMutability":"nonpayable"},{"type":"function","name":"setTokenURI","inputs":[{"name":"tokenId","type":"uint256","internalType":"uint256"},{"name":"newURI","type":"string","internalType":"string"}],"outputs":[],"stateMutability":"nonpayable"},{"type":"function","name":"supportsInterface","inputs":[{"name":"interfaceId","type":"bytes4","internalType":"bytes4"}],"outputs":[{"name":"","type":"bool","internalType":"bool"}],"stateMutability":"view"},{"type":"function","name":"transferOwnership","inputs":[{"name":"newOwner","type":"address","internalType":"address"}],"outputs":[],"stateMutability":"nonpayable"},{"type":"function","name":"updateOrganizer","inputs":[{"name":"organizerId","type":"uint256","internalType":"uint256"},{"name":"name","type":"string","internalType":"string"},{"name":"bio","type":"string","internalType":"string"},{"name":"wallet","type":"address","internalType":"address"}],"outputs":[],"stateMutability":"nonpayable"},{"type":"function","name":"upgradeToAndCall","inputs":[{"name":"newImplementation","type":"address","internalType":"address"},{"name":"data","type":"bytes","internalType":"bytes"}],"outputs":[],"stateMutability":"payable"},{"type":"function","name":"uri","inputs":[{"name":"tokenId","type":"uint256","internalType":"uint256"}],"outputs":[{"name":"","type":"string","internalType":"string"}],"stateMutability":"view"},{"type":"event","name":"ApprovalForAll","inputs":[{"name":"account","type":"address","indexed":true,"internalType":"address"},{"name":"operator","type":"address","indexed":true,"internalType":"address"},{"name":"approved","type":"bool","indexed":false,"internalType":"bool"}],"anonymous":false},{"type":"event","name":"Initialized","inputs":[{"name":"version","type":"uint64","indexed":false,"internalType":"uint64"}],"anonymous":false},{"type":"event","name":"OrganizerAccepted","inputs":[{"name":"nominee","type":"address","indexed":true,"internalType":"address"}],"anonymous":false},{"type":"event","name":"OrganizerDeregistered","inputs":[{"name":"organizerId","type":"uint256","indexed":true,"internalType":"uint256"}],"anonymous":false},{"type":"event","name":"OrganizerNominated","inputs":[{"name":"nominee","type":"address","indexed":true,"internalType":"address"},{"name":"nominator","type":"address","indexed":true,"internalType":"address"}],"anonymous":false},{"type":"event","name":"OrganizerRegistered","inputs":[{"name":"organizerId","type":"uint256","indexed":true,"internalType":"uint256"},{"name":"name","type":"string","indexed":false,"internalType":"string"},{"name":"wallet","type":"address","indexed":false,"internalType":"address"}],"anonymous":false},{"type":"event","name":"OrganizerUpdated","inputs":[{"name":"organizerId","type":"uint256","indexed":true,"internalType":"uint256"},{"name":"name","type":"string","indexed":false,"internalType":"string"},{"name":"bio","type":"string","indexed":false,"internalType":"string"},{"name":"wallet","type":"address","indexed":false,"internalType":"address"}],"anonymous":false},{"type":"event","name":"OwnershipTransferred","inputs":[{"name":"previousOwner","type":"address","indexed":true,"internalType":"address"},{"name":"newOwner","type":"address","indexed":true,"internalType":"address"}],"anonymous":false},{"type":"event","name":"TransferBatch","inputs":[{"name":"operator","type":"address","indexed":true,"internalType":"address"},{"name":"from","type":"address","indexed":true,"internalType":"address"},{"name":"to","type":"address","indexed":true,"internalType":"address"},{"name":"ids","type":"uint256[]","indexed":false,"internalType":"uint256[]"},{"name":"values","type":"uint256[]","indexed":false,"internalType":"uint256[]"}],"anonymous":false},{"type":"event","name":"TransferSingle","inputs":[{"name":"operator","type":"address","indexed":true,"internalType":"address"},{"name":"from","type":"address","indexed":true,"internalType":"address"},{"name":"to","type":"address","indexed":true,"internalType":"address"},{"name":"id","type":"uint256","indexed":false,"internalType":"uint256"},{"name":"value","type":"uint256","indexed":false,"internalType":"uint256"}],"anonymous":false},{"type":"event","name":"URI","inputs":[{"name":"value","type":"string","indexed":false,"internalType":"string"},{"name":"id","type":"uint256","indexed":true,"internalType":"uint256"}],"anonymous":false},{"type":"event","name":"Upgraded","inputs":[{"name":"implementation","type":"address","indexed":true,"internalType":"address"}],"anonymous":false},{"type":"event","name":"contractURIUpdated","inputs":[{"name":"newURI","type":"string","indexed":false,"internalType":"string"}],"anonymous":false},{"type":"event","name":"tokenURIUpdated","inputs":[{"name":"newURI","type":"string","indexed":false,"internalType":"string"},{"name":"tokenId","type":"uint256","indexed":false,"internalType":"uint256"}],"anonymous":false},{"type":"error","name":"AddressEmptyCode","inputs":[{"name":"target","type":"address","internalType":"address"}]},{"type":"error","name":"ERC1155InsufficientBalance","inputs":[{"name":"sender","type":"address","internalType":"address"},{"name":"balance","type":"uint256","internalType":"uint256"},{"name":"needed","type":"uint256","internalType":"uint256"},{"name":"tokenId","type":"uint256","internalType":"uint256"}]},{"type":"error","name":"ERC1155InvalidApprover","inputs":[{"name":"approver","type":"address","internalType":"address"}]},{"type":"error","name":"ERC1155InvalidArrayLength","inputs":[{"name":"idsLength","type":"uint256","internalType":"uint256"},{"name":"valuesLength","type":"uint256","internalType":"uint256"}]},{"type":"error","name":"ERC1155InvalidOperator","inputs":[{"name":"operator","type":"address","internalType":"address"}]},{"type":"error","name":"ERC1155InvalidReceiver","inputs":[{"name":"receiver","type":"address","internalType":"address"}]},{"type":"error","name":"ERC1155InvalidSender","inputs":[{"name":"sender","type":"address","internalType":"address"}]},{"type":"error","name":"ERC1155MissingApprovalForAll","inputs":[{"name":"operator","type":"address","internalType":"address"},{"name":"owner","type":"address","internalType":"address"}]},{"type":"error","name":"ERC1967InvalidImplementation","inputs":[{"name":"implementation","type":"address","internalType":"address"}]},{"type":"error","name":"ERC1967NonPayable","inputs":[]},{"type":"error","name":"FailedInnerCall","inputs":[]},{"type":"error","name":"InvalidInitialization","inputs":[]},{"type":"error","name":"NotInitializing","inputs":[]},{"type":"error","name":"OwnableInvalidOwner","inputs":[{"name":"owner","type":"address","internalType":"address"}]},{"type":"error","name":"OwnableUnauthorizedAccount","inputs":[{"name":"account","type":"address","internalType":"address"}]},{"type":"error","name":"UUPSUnauthorizedCallContext","inputs":[]},{"type":"error","name":"UUPSUnsupportedProxiableUUID","inputs":[{"name":"slot","type":"bytes32","internalType":"bytes32"}]}],"bytecode":{"object":"0x60a06040523060805234801561001457600080fd5b50608051612b1261003e600039600081816113eb0152818161141401526115550152612b126000f3fe60806040526004361061014a5760003560e01c80638da5cb5b116100b6578063c8055b931161006f578063c8055b93146103d8578063c8450ef414610408578063e985e9c514610428578063f242432a14610448578063f2fde38b14610468578063fa9bbe361461048857600080fd5b80638da5cb5b146102fa578063938e3d7b146103275780639dabad5f14610347578063a22cb46514610367578063ad3cb1cc14610387578063b332180b146103b857600080fd5b80634092f2b7116101085780634092f2b714610241578063485cc955146102705780634e1273f4146102905780634f1ef286146102bd57806352d1902d146102d0578063715018a6146102e557600080fd5b8062fdd58e1461014f57806301ffc9a7146101825780630e89341c146101b2578063162094c4146101df57806329e7dbd9146102015780632eb2c2d614610221575b600080fd5b34801561015b57600080fd5b5061016f61016a366004612083565b6104a8565b6040519081526020015b60405180910390f35b34801561018e57600080fd5b506101a261019d3660046120c3565b6104df565b6040519015158152602001610179565b3480156101be57600080fd5b506101d26101cd3660046120e0565b61052f565b6040516101799190612149565b3480156101eb57600080fd5b506101ff6101fa366004612211565b6105ed565b005b34801561020d57600080fd5b506101a261021c366004612257565b6106ac565b34801561022d57600080fd5b506101ff61023c366004612300565b6106f9565b34801561024d57600080fd5b5061026161025c366004612257565b610760565b604051610179939291906123a9565b34801561027c57600080fd5b506101ff61028b3660046123e7565b6108eb565b34801561029c57600080fd5b506102b06102ab36600461241a565b610a3e565b604051610179919061250a565b6101ff6102cb36600461251d565b610b12565b3480156102dc57600080fd5b5061016f610b31565b3480156102f157600080fd5b506101ff610b4e565b34801561030657600080fd5b5061030f610b62565b6040516001600160a01b039091168152602001610179565b34801561033357600080fd5b506101ff610342366004612554565b610b90565b34801561035357600080fd5b506101ff610362366004612588565b610c3f565b34801561037357600080fd5b506101ff610382366004612605565b610d67565b34801561039357600080fd5b506101d2604051806040016040528060058152602001640352e302e360dc1b81525081565b3480156103c457600080fd5b506101ff6103d3366004612257565b610d72565b3480156103e457600080fd5b506101a26103f3366004612257565b60026020526000908152604090205460ff1681565b34801561041457600080fd5b506101ff610423366004612641565b610fdb565b34801561043457600080fd5b506101a26104433660046123e7565b611080565b34801561045457600080fd5b506101ff61046336600461269a565b6110cd565b34801561047457600080fd5b506101ff610483366004612257565b61112c565b34801561049457600080fd5b506101ff6104a33660046120e0565b61116a565b6000818152600080516020612a8c833981519152602090815260408083206001600160a01b03861684529091529020545b92915050565b60006001600160e01b03198216636cdb3d1360e11b148061051057506001600160e01b031982166303a24d0760e21b145b806104d957506301ffc9a760e01b6001600160e01b03198316146104d9565b60008181526005602052604081208054606092919061054d906126fe565b80601f0160208091040260200160405190810160405280929190818152602001828054610579906126fe565b80156105c65780601f1061059b576101008083540402835291602001916105c6565b820191906000526020600020905b8154815290600101906020018083116105a957829003601f168201915b505050505090506000815111156105dd5792915050565b6105e68361128a565b9392505050565b6105f5610b62565b6001600160a01b0316336001600160a01b0316148061062d57506000828152602081905260409020600201546001600160a01b031633145b61068f5760405162461bcd60e51b815260206004820152602860248201527f43616c6c6572206973206e6f7420746865206f776e6572206f7220746865206f6044820152673933b0b734bd32b960c11b60648201526084015b60405180910390fd5b60008281526005602052604090206106a7828261277e565b505050565b6001600160a01b0381166000908152600160205260408120548181158015906106f157506000828152602081905260409020600201546001600160a01b038581169116145b949350505050565b336001600160a01b038616811480159061071a57506107188682611080565b155b1561074b5760405163711bec9160e11b81526001600160a01b03808316600483015287166024820152604401610686565b610758868686868661134f565b505050505050565b6001600160a01b038116600090815260016020526040812054606091829180820361079d5760405162461bcd60e51b81526004016106869061283d565b600081815260208190526040902060028101548154829160018301916001600160a01b039091169083906107d0906126fe565b80601f01602080910402602001604051908101604052809291908181526020018280546107fc906126fe565b80156108495780601f1061081e57610100808354040283529160200191610849565b820191906000526020600020905b81548152906001019060200180831161082c57829003601f168201915b5050505050925081805461085c906126fe565b80601f0160208091040260200160405190810160405280929190818152602001828054610888906126fe565b80156108d55780601f106108aa576101008083540402835291602001916108d5565b820191906000526020600020905b8154815290600101906020018083116108b857829003601f168201915b5050505050915094509450945050509193909250565b7ff0c57e16840df040f15088dc2f81fe391c3923bec73e23a9662efc9c229c6a008054600160401b810460ff1615906001600160401b03166000811580156109305750825b90506000826001600160401b0316600114801561094c5750303b155b90508115801561095a575080155b156109785760405163f92ee8a960e01b815260040160405180910390fd5b845467ffffffffffffffff1916600117855583156109a257845460ff60401b1916600160401b1785555b6109c3604051806060016040528060318152602001612aac603191396113b6565b6109cc876113c7565b6109d46113d8565b600480546001600160a01b0319166001600160a01b0388161790558315610a3557845460ff60401b19168555604051600181527fc7f505b2f371ae2175ee4913f4499e1f2633a7b5936321eed1cdaeb6115181d29060200160405180910390a15b50505050505050565b60608151835114610a6f5781518351604051635b05999160e01b815260048101929092526024820152604401610686565b600083516001600160401b03811115610a8a57610a8a61215c565b604051908082528060200260200182016040528015610ab3578160200160208202803683370190505b50905060005b8451811015610b0a57602080820286010151610add906020808402870101516104a8565b828281518110610aef57610aef612874565b6020908102919091010152610b03816128a0565b9050610ab9565b509392505050565b610b1a6113e0565b610b2382611485565b610b2d828261148d565b5050565b6000610b3b61154a565b50600080516020612a6c83398151915290565b610b56611593565b610b6060006115c5565b565b7f9016d09d72d40fdae2fd8ceac6b6234c7706214fd39c1cd1e609a0528c199300546001600160a01b031690565b610b98610b62565b6001600160a01b0316336001600160a01b031614610bf85760405162461bcd60e51b815260206004820152601760248201527f43616c6c6572206973206e6f7420746865206f776e65720000000000000000006044820152606401610686565b6006610c04828261277e565b507fec1b77d5180db946da43e2854d0f3991ac8565d3c6f927efd2fa44c16b36a4f881604051610c349190612149565b60405180910390a150565b6003548411158015610c5057508315155b610c6c5760405162461bcd60e51b81526004016106869061283d565b600084815260208190526040902060028101546001600160a01b03163314610cea5760405162461bcd60e51b815260206004820152602b60248201527f4f6e6c7920746865206f7267616e697a65722063616e2075706461746520746860448201526a6569722070726f66696c6560a81b6064820152608401610686565b80610cf5858261277e565b5060018101610d04848261277e565b506002810180546001600160a01b0319166001600160a01b03841617905560405185907fd46f0b6dd12391aba620f3317883a9158e15f9b884ee8397a1e58ac39caf454990610d58908790879087906123a9565b60405180910390a25050505050565b610b2d338383611636565b6001600160a01b03811660009081526002602052604090205460ff1615610ddb5760405162461bcd60e51b815260206004820152601960248201527f4e6f6d696e656520616c7265616479206e6f6d696e61746564000000000000006044820152606401610686565b6001600160a01b03811660009081526001602052604090205415610e415760405162461bcd60e51b815260206004820152601c60248201527f4e6f6d696e656520616c726561647920616e206f7267616e697a6572000000006044820152606401610686565b60048054604051632615fb8360e21b815233928101929092526000916001600160a01b0390911690639857ee0c90602401606060405180830381865afa158015610e8f573d6000803e3d6000fd5b505050506040513d601f19601f82011682018060405250810190610eb391906128b9565b90506000816020015111610f195760405162461bcd60e51b815260206004820152602760248201527f496e73756666696369656e74206f7267616e697a657220726566657272616c206044820152666372656469747360c81b6064820152608401610686565b600480546040516321ceab3d60e01b815233928101929092526000602483018190526001604484015260648301526001600160a01b0316906321ceab3d90608401600060405180830381600087803b158015610f7457600080fd5b505af1158015610f88573d6000803e3d6000fd5b5050506001600160a01b038316600081815260026020526040808220805460ff19166001179055513393507f212f044c14362659b4bfd486c672314c6629d0b1b9a3af8cc582483728f59ffe9190a35050565b3360009081526002602052604090205460ff166110305760405162461bcd60e51b8152602060048201526013602482015272139bc81b9bdb5a5b985d1a5bdb88199bdd5b99606a1b6044820152606401610686565b336000908152600260205260409020805460ff1916905561105182826116de565b60405133907fcc2153c3826b58b98f4b210d27ef52c117703647e9ca570e3ad52ff6b43a98b290600090a25050565b6001600160a01b0391821660009081527f88be536d5240c274a3b1d3a1be54482fd9caa294f08c62a7cde569f49a3c45016020908152604080832093909416825291909152205460ff1690565b336001600160a01b03861681148015906110ee57506110ec8682611080565b155b1561111f5760405163711bec9160e11b81526001600160a01b03808316600483015287166024820152604401610686565b61075886868686866117d4565b611134611593565b6001600160a01b03811661115e57604051631e4fbdf760e01b815260006004820152602401610686565b611167816115c5565b50565b600354811115801561117b57508015155b6111975760405162461bcd60e51b81526004016106869061283d565b600081815260208190526040902060028101546001600160a01b031633146112165760405162461bcd60e51b815260206004820152602c60248201527f4f6e6c7920746865206f7267616e697a65722063616e2064657265676973746560448201526b72207468656d73656c76657360a01b6064820152608401610686565b61122233836001611859565b60008281526020819052604081209061123b8282612019565b611249600183016000612019565b5060020180546001600160a01b031916905560405182907fa6f0e87bd04d2b310bb6bbad6c11d3eb97b8ed6da96f9e85e9e05dc73f34f68990600090a25050565b7f88be536d5240c274a3b1d3a1be54482fd9caa294f08c62a7cde569f49a3c45028054606091600080516020612a8c833981519152916112c9906126fe565b80601f01602080910402602001604051908101604052809291908181526020018280546112f5906126fe565b80156113425780601f1061131757610100808354040283529160200191611342565b820191906000526020600020905b81548152906001019060200180831161132557829003601f168201915b5050505050915050919050565b6001600160a01b03841661137957604051632bfa23e760e11b815260006004820152602401610686565b6001600160a01b0385166113a257604051626a0d4560e21b815260006004820152602401610686565b6113af85858585856118bd565b5050505050565b6113be611910565b61116781611959565b6113cf611910565b6111678161196a565b610b60611910565b306001600160a01b037f000000000000000000000000000000000000000000000000000000000000000016148061146757507f00000000000000000000000000000000000000000000000000000000000000006001600160a01b031661145b600080516020612a6c833981519152546001600160a01b031690565b6001600160a01b031614155b15610b605760405163703e46dd60e11b815260040160405180910390fd5b611167611593565b816001600160a01b03166352d1902d6040518163ffffffff1660e01b8152600401602060405180830381865afa9250505080156114e7575060408051601f3d908101601f191682019092526114e491810190612914565b60015b61150f57604051634c9c8ce360e01b81526001600160a01b0383166004820152602401610686565b600080516020612a6c833981519152811461154057604051632a87526960e21b815260048101829052602401610686565b6106a78383611972565b306001600160a01b037f00000000000000000000000000000000000000000000000000000000000000001614610b605760405163703e46dd60e11b815260040160405180910390fd5b3361159c610b62565b6001600160a01b031614610b605760405163118cdaa760e01b8152336004820152602401610686565b7f9016d09d72d40fdae2fd8ceac6b6234c7706214fd39c1cd1e609a0528c19930080546001600160a01b031981166001600160a01b03848116918217845560405192169182907f8be0079c531659141344cd1fd0a4f28419497f9722a3daafe3b4186f6b6457e090600090a3505050565b600080516020612a8c8339815191526001600160a01b03831661166e5760405162ced3e160e81b815260006004820152602401610686565b6001600160a01b038481166000818152600184016020908152604080832094881680845294825291829020805460ff191687151590811790915591519182527f17307eab39ab6107e8899845ad3d59bd9653f200f220920489ca2b5937696c31910160405180910390a350505050565b600380549060006116ee836128a0565b9091555050600354604080516060810182528481526020808201859052338284018190526000858152918290529290208151819061172c908261277e565b5060208201516001820190611741908261277e565b5060409182015160029190910180546001600160a01b0319166001600160a01b039283161790558216600090815260016020818152838320869055835190810190935290825261179491839185916119c8565b817f95dc077d84b54de3120a028ca9cbdb05ade3275b3eb5f73f3a308e75fa83b31e85836040516117c692919061292d565b60405180910390a250505050565b6001600160a01b0384166117fe57604051632bfa23e760e11b815260006004820152602401610686565b6001600160a01b03851661182757604051626a0d4560e21b815260006004820152602401610686565b60408051600180825260208201869052818301908152606082018590526080820190925290610a3587878484876118bd565b6001600160a01b03831661188257604051626a0d4560e21b815260006004820152602401610686565b604080516001808252602082018590528183019081526060820184905260a082019092526000608082018181529192916113af918791859085905b6118c985858585611a25565b6001600160a01b038416156113af578251339060010361190257602084810151908401516118fb838989858589611c53565b5050610758565b610758818787878787611d77565b7ff0c57e16840df040f15088dc2f81fe391c3923bec73e23a9662efc9c229c6a0054600160401b900460ff16610b6057604051631afcd79f60e31b815260040160405180910390fd5b611961611910565b61116781611e60565b611134611910565b61197b82611e9a565b6040516001600160a01b038316907fbc7cd75a20ee27fd9adebab32041f755214dbc6bffa90cc0225b39da2e5c2d3b90600090a28051156119c0576106a78282611eff565b610b2d611f75565b6001600160a01b0384166119f257604051632bfa23e760e11b815260006004820152602401610686565b604080516001808252602082018690528183019081526060820185905260808201909252906107586000878484876118bd565b80518251600080516020612a8c8339815191529114611a645782518251604051635b05999160e01b815260048101929092526024820152604401610686565b3360005b8451811015611b73576020818102868101820151908601909101516001600160a01b03891615611b1b576000828152602086815260408083206001600160a01b038d16845290915290205481811015611af4576040516303dee4c560e01b81526001600160a01b038b166004820152602481018290526044810183905260648101849052608401610686565b6000838152602087815260408083206001600160a01b038e16845290915290209082900390555b6001600160a01b03881615611b60576000828152602086815260408083206001600160a01b038c16845290915281208054839290611b5a908490612957565b90915550505b505080611b6c906128a0565b9050611a68565b508351600103611bf45760208401516000906020850151909150866001600160a01b0316886001600160a01b0316846001600160a01b03167fc3d58168c5ae7397731d063d5bbf3d657854427343f4c083240f7aacaa2d0f628585604051611be5929190918252602082015260400190565b60405180910390a45050610758565b846001600160a01b0316866001600160a01b0316826001600160a01b03167f4a39dc06d4c0dbc64b70af90fd698a233a518aa5d07e595d983b8c0526c8f7fb8787604051611c4392919061296a565b60405180910390a4505050505050565b6001600160a01b0384163b156107585760405163f23a6e6160e01b81526001600160a01b0385169063f23a6e6190611c97908990899088908890889060040161298f565b6020604051808303816000875af1925050508015611cd2575060408051601f3d908101601f19168201909252611ccf918101906129d4565b60015b611d3b573d808015611d00576040519150601f19603f3d011682016040523d82523d6000602084013e611d05565b606091505b508051600003611d3357604051632bfa23e760e11b81526001600160a01b0386166004820152602401610686565b805181602001fd5b6001600160e01b0319811663f23a6e6160e01b14610a3557604051632bfa23e760e11b81526001600160a01b0386166004820152602401610686565b6001600160a01b0384163b156107585760405163bc197c8160e01b81526001600160a01b0385169063bc197c8190611dbb90899089908890889088906004016129f1565b6020604051808303816000875af1925050508015611df6575060408051601f3d908101601f19168201909252611df3918101906129d4565b60015b611e24573d808015611d00576040519150601f19603f3d011682016040523d82523d6000602084013e611d05565b6001600160e01b0319811663bc197c8160e01b14610a3557604051632bfa23e760e11b81526001600160a01b0386166004820152602401610686565b600080516020612a8c8339815191527f88be536d5240c274a3b1d3a1be54482fd9caa294f08c62a7cde569f49a3c45026106a7838261277e565b806001600160a01b03163b600003611ed057604051634c9c8ce360e01b81526001600160a01b0382166004820152602401610686565b600080516020612a6c83398151915280546001600160a01b0319166001600160a01b0392909216919091179055565b6060600080846001600160a01b031684604051611f1c9190612a4f565b600060405180830381855af49150503d8060008114611f57576040519150601f19603f3d011682016040523d82523d6000602084013e611f5c565b606091505b5091509150611f6c858383611f94565b95945050505050565b3415610b605760405163b398979f60e01b815260040160405180910390fd5b606082611fa957611fa482611ff0565b6105e6565b8151158015611fc057506001600160a01b0384163b155b15611fe957604051639996b31560e01b81526001600160a01b0385166004820152602401610686565b5092915050565b8051156120005780518082602001fd5b604051630a12f52160e11b815260040160405180910390fd5b508054612025906126fe565b6000825580601f10612035575050565b601f01602090049060005260206000209081019061116791905b80821115612063576000815560010161204f565b5090565b80356001600160a01b038116811461207e57600080fd5b919050565b6000806040838503121561209657600080fd5b61209f83612067565b946020939093013593505050565b6001600160e01b03198116811461116757600080fd5b6000602082840312156120d557600080fd5b81356105e6816120ad565b6000602082840312156120f257600080fd5b5035919050565b60005b838110156121145781810151838201526020016120fc565b50506000910152565b600081518084526121358160208601602086016120f9565b601f01601f19169290920160200192915050565b6020815260006105e6602083018461211d565b634e487b7160e01b600052604160045260246000fd5b604051601f8201601f191681016001600160401b038111828210171561219a5761219a61215c565b604052919050565b600082601f8301126121b357600080fd5b81356001600160401b038111156121cc576121cc61215c565b6121df601f8201601f1916602001612172565b8181528460208386010111156121f457600080fd5b816020850160208301376000918101602001919091529392505050565b6000806040838503121561222457600080fd5b8235915060208301356001600160401b0381111561224157600080fd5b61224d858286016121a2565b9150509250929050565b60006020828403121561226957600080fd5b6105e682612067565b60006001600160401b0382111561228b5761228b61215c565b5060051b60200190565b600082601f8301126122a657600080fd5b813560206122bb6122b683612272565b612172565b82815260059290921b840181019181810190868411156122da57600080fd5b8286015b848110156122f557803583529183019183016122de565b509695505050505050565b600080600080600060a0868803121561231857600080fd5b61232186612067565b945061232f60208701612067565b935060408601356001600160401b038082111561234b57600080fd5b61235789838a01612295565b9450606088013591508082111561236d57600080fd5b61237989838a01612295565b9350608088013591508082111561238f57600080fd5b5061239c888289016121a2565b9150509295509295909350565b6060815260006123bc606083018661211d565b82810360208401526123ce818661211d565b91505060018060a01b0383166040830152949350505050565b600080604083850312156123fa57600080fd5b61240383612067565b915061241160208401612067565b90509250929050565b6000806040838503121561242d57600080fd5b82356001600160401b038082111561244457600080fd5b818501915085601f83011261245857600080fd5b813560206124686122b683612272565b82815260059290921b8401810191818101908984111561248757600080fd5b948201945b838610156124ac5761249d86612067565b8252948201949082019061248c565b965050860135925050808211156124c257600080fd5b5061224d85828601612295565b600081518084526020808501945080840160005b838110156124ff578151875295820195908201906001016124e3565b509495945050505050565b6020815260006105e660208301846124cf565b6000806040838503121561253057600080fd5b61253983612067565b915060208301356001600160401b0381111561224157600080fd5b60006020828403121561256657600080fd5b81356001600160401b0381111561257c57600080fd5b6106f1848285016121a2565b6000806000806080858703121561259e57600080fd5b8435935060208501356001600160401b03808211156125bc57600080fd5b6125c8888389016121a2565b945060408701359150808211156125de57600080fd5b506125eb878288016121a2565b9250506125fa60608601612067565b905092959194509250565b6000806040838503121561261857600080fd5b61262183612067565b91506020830135801515811461263657600080fd5b809150509250929050565b6000806040838503121561265457600080fd5b82356001600160401b038082111561266b57600080fd5b612677868387016121a2565b9350602085013591508082111561268d57600080fd5b5061224d858286016121a2565b600080600080600060a086880312156126b257600080fd5b6126bb86612067565b94506126c960208701612067565b9350604086013592506060860135915060808601356001600160401b038111156126f257600080fd5b61239c888289016121a2565b600181811c9082168061271257607f821691505b60208210810361273257634e487b7160e01b600052602260045260246000fd5b50919050565b601f8211156106a757600081815260208120601f850160051c8101602086101561275f5750805b601f850160051c820191505b818110156107585782815560010161276b565b81516001600160401b038111156127975761279761215c565b6127ab816127a584546126fe565b84612738565b602080601f8311600181146127e057600084156127c85750858301515b600019600386901b1c1916600185901b178555610758565b600085815260208120601f198616915b8281101561280f578886015182559484019460019091019084016127f0565b508582101561282d5787850151600019600388901b60f8161c191681555b5050505050600190811b01905550565b60208082526018908201527f4f7267616e697a657220646f6573206e6f742065786973740000000000000000604082015260600190565b634e487b7160e01b600052603260045260246000fd5b634e487b7160e01b600052601160045260246000fd5b6000600182016128b2576128b261288a565b5060010190565b6000606082840312156128cb57600080fd5b604051606081018181106001600160401b03821117156128ed576128ed61215c565b80604052508251815260208301516020820152604083015160408201528091505092915050565b60006020828403121561292657600080fd5b5051919050565b604081526000612940604083018561211d565b905060018060a01b03831660208301529392505050565b808201808211156104d9576104d961288a565b60408152600061297d60408301856124cf565b8281036020840152611f6c81856124cf565b6001600160a01b03868116825285166020820152604081018490526060810183905260a0608082018190526000906129c99083018461211d565b979650505050505050565b6000602082840312156129e657600080fd5b81516105e6816120ad565b6001600160a01b0386811682528516602082015260a060408201819052600090612a1d908301866124cf565b8281036060840152612a2f81866124cf565b90508281036080840152612a43818561211d565b98975050505050505050565b60008251612a618184602087016120f9565b919091019291505056fe360894a13ba1a3210667c828492db98dca3e2076cc3735a920a3ca505d382bbc88be536d5240c274a3b1d3a1be54482fd9caa294f08c62a7cde569f49a3c450068747470733a2f2f6d657461646174612e73656c6c6f7574732e6170702f6f7267616e697a65722f7b69647d2e6a736f6ea264697066735822122029e4240d397b3788c327bae8b003f1d906692c1f8f85c7bf997283dbfd59133364736f6c63430008140033","linkReferences":{}},"methodIdentifiers":{"UPGRADE_INTERFACE_VERSION()":"ad3cb1cc","acceptNomination(string,string)":"c8450ef4","balanceOf(address,uint256)":"00fdd58e","balanceOfBatch(address[],uint256[])":"4e1273f4","deregisterOrganizer(uint256)":"fa9bbe36","getOrganizer(address)":"4092f2b7","initialize(address,address)":"485cc955","isApprovedForAll(address,address)":"e985e9c5","isOrganizerRegistered(address)":"29e7dbd9","nominate(address)":"b332180b","nominatedOrganizers(address)":"c8055b93","owner()":"8da5cb5b","proxiableUUID()":"52d1902d","renounceOwnership()":"715018a6","safeBatchTransferFrom(address,address,uint256[],uint256[],bytes)":"2eb2c2d6","safeTransferFrom(address,address,uint256,uint256,bytes)":"f242432a","setApprovalForAll(address,bool)":"a22cb465","setContractURI(string)":"938e3d7b","setTokenURI(uint256,string)":"162094c4","supportsInterface(bytes4)":"01ffc9a7","transferOwnership(address)":"f2fde38b","updateOrganizer(uint256,string,string,address)":"9dabad5f","upgradeToAndCall(address,bytes)":"4f1ef286","uri(uint256)":"0e89341c"},"id":54}