{"abi":[{"type":"function","name":"UPGRADE_INTERFACE_VERSION","inputs":[],"outputs":[{"name":"","type":"string","internalType":"string"}],"stateMutability":"view"},{"type":"function","name":"acceptNomination","inputs":[],"outputs":[],"stateMutability":"nonpayable"},{"type":"function","name":"balanceOf","inputs":[{"name":"account","type":"address","internalType":"address"},{"name":"id","type":"uint256","internalType":"uint256"}],"outputs":[{"name":"","type":"uint256","internalType":"uint256"}],"stateMutability":"view"},{"type":"function","name":"balanceOfBatch","inputs":[{"name":"accounts","type":"address[]","internalType":"address[]"},{"name":"ids","type":"uint256[]","internalType":"uint256[]"}],"outputs":[{"name":"","type":"uint256[]","internalType":"uint256[]"}],"stateMutability":"view"},{"type":"function","name":"deregisterOrganizer","inputs":[{"name":"organizerId","type":"uint256","internalType":"uint256"}],"outputs":[],"stateMutability":"nonpayable"},{"type":"function","name":"getOrganizerInfoByAddress","inputs":[{"name":"organizerAddress","type":"address","internalType":"address"}],"outputs":[{"name":"name","type":"string","internalType":"string"},{"name":"bio","type":"string","internalType":"string"},{"name":"wallet","type":"address","internalType":"address"}],"stateMutability":"view"},{"type":"function","name":"initialize","inputs":[{"name":"initialOwner","type":"address","internalType":"address"},{"name":"_referralModuleAddress","type":"address","internalType":"address"}],"outputs":[],"stateMutability":"nonpayable"},{"type":"function","name":"isApprovedForAll","inputs":[{"name":"account","type":"address","internalType":"address"},{"name":"operator","type":"address","internalType":"address"}],"outputs":[{"name":"","type":"bool","internalType":"bool"}],"stateMutability":"view"},{"type":"function","name":"nominate","inputs":[{"name":"nominee","type":"address","internalType":"address"}],"outputs":[],"stateMutability":"nonpayable"},{"type":"function","name":"nominatedOrganizers","inputs":[{"name":"","type":"address","internalType":"address"}],"outputs":[{"name":"","type":"bool","internalType":"bool"}],"stateMutability":"view"},{"type":"function","name":"owner","inputs":[],"outputs":[{"name":"","type":"address","internalType":"address"}],"stateMutability":"view"},{"type":"function","name":"proxiableUUID","inputs":[],"outputs":[{"name":"","type":"bytes32","internalType":"bytes32"}],"stateMutability":"view"},{"type":"function","name":"renounceOwnership","inputs":[],"outputs":[],"stateMutability":"nonpayable"},{"type":"function","name":"safeBatchTransferFrom","inputs":[{"name":"from","type":"address","internalType":"address"},{"name":"to","type":"address","internalType":"address"},{"name":"ids","type":"uint256[]","internalType":"uint256[]"},{"name":"values","type":"uint256[]","internalType":"uint256[]"},{"name":"data","type":"bytes","internalType":"bytes"}],"outputs":[],"stateMutability":"nonpayable"},{"type":"function","name":"safeTransferFrom","inputs":[{"name":"from","type":"address","internalType":"address"},{"name":"to","type":"address","internalType":"address"},{"name":"id","type":"uint256","internalType":"uint256"},{"name":"value","type":"uint256","internalType":"uint256"},{"name":"data","type":"bytes","internalType":"bytes"}],"outputs":[],"stateMutability":"nonpayable"},{"type":"function","name":"setApprovalForAll","inputs":[{"name":"operator","type":"address","internalType":"address"},{"name":"approved","type":"bool","internalType":"bool"}],"outputs":[],"stateMutability":"nonpayable"},{"type":"function","name":"supportsInterface","inputs":[{"name":"interfaceId","type":"bytes4","internalType":"bytes4"}],"outputs":[{"name":"","type":"bool","internalType":"bool"}],"stateMutability":"view"},{"type":"function","name":"transferOwnership","inputs":[{"name":"newOwner","type":"address","internalType":"address"}],"outputs":[],"stateMutability":"nonpayable"},{"type":"function","name":"updateOrganizer","inputs":[{"name":"organizerId","type":"uint256","internalType":"uint256"},{"name":"name","type":"string","internalType":"string"},{"name":"bio","type":"string","internalType":"string"}],"outputs":[],"stateMutability":"nonpayable"},{"type":"function","name":"upgradeToAndCall","inputs":[{"name":"newImplementation","type":"address","internalType":"address"},{"name":"data","type":"bytes","internalType":"bytes"}],"outputs":[],"stateMutability":"payable"},{"type":"function","name":"uri","inputs":[{"name":"","type":"uint256","internalType":"uint256"}],"outputs":[{"name":"","type":"string","internalType":"string"}],"stateMutability":"view"},{"type":"event","name":"ApprovalForAll","inputs":[{"name":"account","type":"address","indexed":true,"internalType":"address"},{"name":"operator","type":"address","indexed":true,"internalType":"address"},{"name":"approved","type":"bool","indexed":false,"internalType":"bool"}],"anonymous":false},{"type":"event","name":"Initialized","inputs":[{"name":"version","type":"uint64","indexed":false,"internalType":"uint64"}],"anonymous":false},{"type":"event","name":"OrganizerAccepted","inputs":[{"name":"nominee","type":"address","indexed":true,"internalType":"address"}],"anonymous":false},{"type":"event","name":"OrganizerDeregistered","inputs":[{"name":"organizerId","type":"uint256","indexed":true,"internalType":"uint256"}],"anonymous":false},{"type":"event","name":"OrganizerNominated","inputs":[{"name":"nominee","type":"address","indexed":true,"internalType":"address"},{"name":"nominator","type":"address","indexed":true,"internalType":"address"}],"anonymous":false},{"type":"event","name":"OrganizerRegistered","inputs":[{"name":"organizerId","type":"uint256","indexed":true,"internalType":"uint256"},{"name":"name","type":"string","indexed":false,"internalType":"string"},{"name":"wallet","type":"address","indexed":false,"internalType":"address"}],"anonymous":false},{"type":"event","name":"OrganizerUpdated","inputs":[{"name":"organizerId","type":"uint256","indexed":true,"internalType":"uint256"},{"name":"name","type":"string","indexed":false,"internalType":"string"},{"name":"bio","type":"string","indexed":false,"internalType":"string"}],"anonymous":false},{"type":"event","name":"OwnershipTransferred","inputs":[{"name":"previousOwner","type":"address","indexed":true,"internalType":"address"},{"name":"newOwner","type":"address","indexed":true,"internalType":"address"}],"anonymous":false},{"type":"event","name":"TransferBatch","inputs":[{"name":"operator","type":"address","indexed":true,"internalType":"address"},{"name":"from","type":"address","indexed":true,"internalType":"address"},{"name":"to","type":"address","indexed":true,"internalType":"address"},{"name":"ids","type":"uint256[]","indexed":false,"internalType":"uint256[]"},{"name":"values","type":"uint256[]","indexed":false,"internalType":"uint256[]"}],"anonymous":false},{"type":"event","name":"TransferSingle","inputs":[{"name":"operator","type":"address","indexed":true,"internalType":"address"},{"name":"from","type":"address","indexed":true,"internalType":"address"},{"name":"to","type":"address","indexed":true,"internalType":"address"},{"name":"id","type":"uint256","indexed":false,"internalType":"uint256"},{"name":"value","type":"uint256","indexed":false,"internalType":"uint256"}],"anonymous":false},{"type":"event","name":"URI","inputs":[{"name":"value","type":"string","indexed":false,"internalType":"string"},{"name":"id","type":"uint256","indexed":true,"internalType":"uint256"}],"anonymous":false},{"type":"event","name":"Upgraded","inputs":[{"name":"implementation","type":"address","indexed":true,"internalType":"address"}],"anonymous":false},{"type":"error","name":"AddressEmptyCode","inputs":[{"name":"target","type":"address","internalType":"address"}]},{"type":"error","name":"ERC1155InsufficientBalance","inputs":[{"name":"sender","type":"address","internalType":"address"},{"name":"balance","type":"uint256","internalType":"uint256"},{"name":"needed","type":"uint256","internalType":"uint256"},{"name":"tokenId","type":"uint256","internalType":"uint256"}]},{"type":"error","name":"ERC1155InvalidApprover","inputs":[{"name":"approver","type":"address","internalType":"address"}]},{"type":"error","name":"ERC1155InvalidArrayLength","inputs":[{"name":"idsLength","type":"uint256","internalType":"uint256"},{"name":"valuesLength","type":"uint256","internalType":"uint256"}]},{"type":"error","name":"ERC1155InvalidOperator","inputs":[{"name":"operator","type":"address","internalType":"address"}]},{"type":"error","name":"ERC1155InvalidReceiver","inputs":[{"name":"receiver","type":"address","internalType":"address"}]},{"type":"error","name":"ERC1155InvalidSender","inputs":[{"name":"sender","type":"address","internalType":"address"}]},{"type":"error","name":"ERC1155MissingApprovalForAll","inputs":[{"name":"operator","type":"address","internalType":"address"},{"name":"owner","type":"address","internalType":"address"}]},{"type":"error","name":"ERC1967InvalidImplementation","inputs":[{"name":"implementation","type":"address","internalType":"address"}]},{"type":"error","name":"ERC1967NonPayable","inputs":[]},{"type":"error","name":"FailedInnerCall","inputs":[]},{"type":"error","name":"InvalidInitialization","inputs":[]},{"type":"error","name":"NotInitializing","inputs":[]},{"type":"error","name":"OwnableInvalidOwner","inputs":[{"name":"owner","type":"address","internalType":"address"}]},{"type":"error","name":"OwnableUnauthorizedAccount","inputs":[{"name":"account","type":"address","internalType":"address"}]},{"type":"error","name":"UUPSUnauthorizedCallContext","inputs":[]},{"type":"error","name":"UUPSUnsupportedProxiableUUID","inputs":[{"name":"slot","type":"bytes32","internalType":"bytes32"}]}],"bytecode":{"object":"0x60a06040523060805234801561001457600080fd5b5060805161269661003e60003960008181610ffc01528181611025015261116b01526126966000f3fe6080604052600436106101295760003560e01c8063a22cb465116100ab578063df0388a01161006f578063df0388a014610367578063e985e9c514610396578063f242432a146103b6578063f2fde38b146103d6578063fa9bbe36146103f6578063ff5f9c9d1461041657600080fd5b8063a22cb465146102b1578063ad3cb1cc146102d1578063b332180b14610302578063c8055b9314610322578063d3468de71461035257600080fd5b80634e1273f4116100f25780634e1273f4146102005780634f1ef2861461022d57806352d1902d14610240578063715018a6146102555780638da5cb5b1461026a57600080fd5b8062fdd58e1461012e57806301ffc9a7146101615780630e89341c146101915780632eb2c2d6146101be578063485cc955146101e0575b600080fd5b34801561013a57600080fd5b5061014e610149366004611cb7565b610436565b6040519081526020015b60405180910390f35b34801561016d57600080fd5b5061018161017c366004611cf7565b61046d565b6040519015158152602001610158565b34801561019d57600080fd5b506101b16101ac366004611d14565b6104bd565b6040516101589190611d7d565b3480156101ca57600080fd5b506101de6101d9366004611ed3565b610582565b005b3480156101ec57600080fd5b506101de6101fb366004611f7c565b6105ee565b34801561020c57600080fd5b5061022061021b366004611faf565b610741565b60405161015891906120a9565b6101de61023b3660046120bc565b610815565b34801561024c57600080fd5b5061014e610834565b34801561026157600080fd5b506101de610851565b34801561027657600080fd5b507f9016d09d72d40fdae2fd8ceac6b6234c7706214fd39c1cd1e609a0528c199300546040516001600160a01b039091168152602001610158565b3480156102bd57600080fd5b506101de6102cc3660046120ff565b610865565b3480156102dd57600080fd5b506101b1604051806040016040528060058152602001640352e302e360dc1b81525081565b34801561030e57600080fd5b506101de61031d36600461213b565b610870565b34801561032e57600080fd5b5061018161033d36600461213b565b60026020526000908152604090205460ff1681565b34801561035e57600080fd5b506101de610a0a565b34801561037357600080fd5b5061038761038236600461213b565b610ac5565b60405161015893929190612156565b3480156103a257600080fd5b506101816103b1366004611f7c565b610c50565b3480156103c257600080fd5b506101de6103d1366004612194565b610c9d565b3480156103e257600080fd5b506101de6103f136600461213b565b610cfc565b34801561040257600080fd5b506101de610411366004611d14565b610d3a565b34801561042257600080fd5b506101de6104313660046121f8565b610e5a565b6000818152600080516020612641833981519152602090815260408083206001600160a01b03861684529091529020545b92915050565b60006001600160e01b03198216636cdb3d1360e11b148061049e57506001600160e01b031982166303a24d0760e21b145b8061046757506301ffc9a760e01b6001600160e01b0319831614610467565b7f88be536d5240c274a3b1d3a1be54482fd9caa294f08c62a7cde569f49a3c45028054606091600080516020612641833981519152916104fc90612264565b80601f016020809104026020016040519081016040528092919081815260200182805461052890612264565b80156105755780601f1061054a57610100808354040283529160200191610575565b820191906000526020600020905b81548152906001019060200180831161055857829003601f168201915b5050505050915050919050565b336001600160a01b03861681148015906105a357506105a18682610c50565b155b156105d95760405163711bec9160e11b81526001600160a01b038083166004830152871660248201526044015b60405180910390fd5b6105e68686868686610f60565b505050505050565b7ff0c57e16840df040f15088dc2f81fe391c3923bec73e23a9662efc9c229c6a008054600160401b810460ff1615906001600160401b03166000811580156106335750825b90506000826001600160401b0316600114801561064f5750303b155b90508115801561065d575080155b1561067b5760405163f92ee8a960e01b815260040160405180910390fd5b845467ffffffffffffffff1916600117855583156106a557845460ff60401b1916600160401b1785555b6106c66040518060600160405280602a81526020016125f7602a9139610fc7565b6106cf87610fd8565b6106d7610fe9565b600480546001600160a01b0319166001600160a01b038816179055831561073857845460ff60401b19168555604051600181527fc7f505b2f371ae2175ee4913f4499e1f2633a7b5936321eed1cdaeb6115181d29060200160405180910390a15b50505050505050565b606081518351146107725781518351604051635b05999160e01b8152600481019290925260248201526044016105d0565b600083516001600160401b0381111561078d5761078d611d90565b6040519080825280602002602001820160405280156107b6578160200160208202803683370190505b50905060005b845181101561080d576020808202860101516107e090602080840287010151610436565b8282815181106107f2576107f261229e565b6020908102919091010152610806816122ca565b90506107bc565b509392505050565b61081d610ff1565b61082682611096565b610830828261109e565b5050565b600061083e611160565b5060008051602061262183398151915290565b6108596111a9565b6108636000611204565b565b610830338383611275565b60048054604051632615fb8360e21b815233928101929092526000916001600160a01b0390911690639857ee0c90602401606060405180830381865afa1580156108be573d6000803e3d6000fd5b505050506040513d601f19601f820116820180604052508101906108e291906122e3565b905060008160200151116109485760405162461bcd60e51b815260206004820152602760248201527f496e73756666696369656e74206f7267616e697a657220726566657272616c206044820152666372656469747360c81b60648201526084016105d0565b600480546040516321ceab3d60e01b815233928101929092526000602483018190526001604484015260648301526001600160a01b0316906321ceab3d90608401600060405180830381600087803b1580156109a357600080fd5b505af11580156109b7573d6000803e3d6000fd5b5050506001600160a01b038316600081815260026020526040808220805460ff19166001179055513393507f212f044c14362659b4bfd486c672314c6629d0b1b9a3af8cc582483728f59ffe9190a35050565b3360009081526002602052604090205460ff16610a5f5760405162461bcd60e51b8152602060048201526013602482015272139bc81b9bdb5a5b985d1a5bdb88199bdd5b99606a1b60448201526064016105d0565b336000908152600260209081526040808320805460ff19169055805180830182528381528151928301909152918152610a98919061131d565b60405133907fcc2153c3826b58b98f4b210d27ef52c117703647e9ca570e3ad52ff6b43a98b290600090a2565b6001600160a01b0381166000908152600160205260408120546060918291808203610b025760405162461bcd60e51b81526004016105d09061233e565b600081815260208190526040902060028101548154829160018301916001600160a01b03909116908390610b3590612264565b80601f0160208091040260200160405190810160405280929190818152602001828054610b6190612264565b8015610bae5780601f10610b8357610100808354040283529160200191610bae565b820191906000526020600020905b815481529060010190602001808311610b9157829003601f168201915b50505050509250818054610bc190612264565b80601f0160208091040260200160405190810160405280929190818152602001828054610bed90612264565b8015610c3a5780601f10610c0f57610100808354040283529160200191610c3a565b820191906000526020600020905b815481529060010190602001808311610c1d57829003601f168201915b5050505050915094509450945050509193909250565b6001600160a01b0391821660009081527f88be536d5240c274a3b1d3a1be54482fd9caa294f08c62a7cde569f49a3c45016020908152604080832093909416825291909152205460ff1690565b336001600160a01b0386168114801590610cbe5750610cbc8682610c50565b155b15610cef5760405163711bec9160e11b81526001600160a01b038083166004830152871660248201526044016105d0565b6105e68686868686611405565b610d046111a9565b6001600160a01b038116610d2e57604051631e4fbdf760e01b8152600060048201526024016105d0565b610d3781611204565b50565b6003548111158015610d4b57508015155b610d675760405162461bcd60e51b81526004016105d09061233e565b600081815260208190526040902060028101546001600160a01b03163314610de65760405162461bcd60e51b815260206004820152602c60248201527f4f6e6c7920746865206f7267616e697a65722063616e2064657265676973746560448201526b72207468656d73656c76657360a01b60648201526084016105d0565b610df23383600161148a565b600082815260208190526040812090610e0b8282611c4d565b610e19600183016000611c4d565b5060020180546001600160a01b031916905560405182907fa6f0e87bd04d2b310bb6bbad6c11d3eb97b8ed6da96f9e85e9e05dc73f34f68990600090a25050565b6003548311158015610e6b57508215155b610e875760405162461bcd60e51b81526004016105d09061233e565b600083815260208190526040902060028101546001600160a01b03163314610f055760405162461bcd60e51b815260206004820152602b60248201527f4f6e6c7920746865206f7267616e697a65722063616e2075706461746520746860448201526a6569722070726f66696c6560a81b60648201526084016105d0565b80610f1084826123bb565b5060018101610f1f83826123bb565b50837f976bdb12703d0f562750445d624f0c551377b68e23149e6652c2eb9d5f5a1fb98484604051610f5292919061247a565b60405180910390a250505050565b6001600160a01b038416610f8a57604051632bfa23e760e11b8152600060048201526024016105d0565b6001600160a01b038516610fb357604051626a0d4560e21b8152600060048201526024016105d0565b610fc085858585856114ee565b5050505050565b610fcf611541565b610d378161158a565b610fe0611541565b610d378161159b565b610863611541565b306001600160a01b037f000000000000000000000000000000000000000000000000000000000000000016148061107857507f00000000000000000000000000000000000000000000000000000000000000006001600160a01b031661106c600080516020612621833981519152546001600160a01b031690565b6001600160a01b031614155b156108635760405163703e46dd60e11b815260040160405180910390fd5b610d376111a9565b816001600160a01b03166352d1902d6040518163ffffffff1660e01b8152600401602060405180830381865afa9250505080156110f8575060408051601f3d908101601f191682019092526110f59181019061249f565b60015b61112057604051634c9c8ce360e01b81526001600160a01b03831660048201526024016105d0565b600080516020612621833981519152811461115157604051632a87526960e21b8152600481018290526024016105d0565b61115b83836115a3565b505050565b306001600160a01b037f000000000000000000000000000000000000000000000000000000000000000016146108635760405163703e46dd60e11b815260040160405180910390fd5b336111db7f9016d09d72d40fdae2fd8ceac6b6234c7706214fd39c1cd1e609a0528c199300546001600160a01b031690565b6001600160a01b0316146108635760405163118cdaa760e01b81523360048201526024016105d0565b7f9016d09d72d40fdae2fd8ceac6b6234c7706214fd39c1cd1e609a0528c19930080546001600160a01b031981166001600160a01b03848116918217845560405192169182907f8be0079c531659141344cd1fd0a4f28419497f9722a3daafe3b4186f6b6457e090600090a3505050565b6000805160206126418339815191526001600160a01b0383166112ad5760405162ced3e160e81b8152600060048201526024016105d0565b6001600160a01b038481166000818152600184016020908152604080832094881680845294825291829020805460ff191687151590811790915591519182527f17307eab39ab6107e8899845ad3d59bd9653f200f220920489ca2b5937696c31910160405180910390a350505050565b6003805490600061132d836122ca565b9091555050600354604080516060810182528481526020808201859052338284018190526000858152918290529290208151819061136b90826123bb565b506020820151600182019061138090826123bb565b5060409182015160029190910180546001600160a01b0319166001600160a01b03928316179055821660009081526001602081815283832086905583519081019093529082526113d391839185916115f9565b817f95dc077d84b54de3120a028ca9cbdb05ade3275b3eb5f73f3a308e75fa83b31e8583604051610f529291906124b8565b6001600160a01b03841661142f57604051632bfa23e760e11b8152600060048201526024016105d0565b6001600160a01b03851661145857604051626a0d4560e21b8152600060048201526024016105d0565b6040805160018082526020820186905281830190815260608201859052608082019092529061073887878484876114ee565b6001600160a01b0383166114b357604051626a0d4560e21b8152600060048201526024016105d0565b604080516001808252602082018590528183019081526060820184905260a08201909252600060808201818152919291610fc0918791859085905b6114fa85858585611656565b6001600160a01b03841615610fc05782513390600103611533576020848101519084015161152c838989858589611884565b50506105e6565b6105e68187878787876119a8565b7ff0c57e16840df040f15088dc2f81fe391c3923bec73e23a9662efc9c229c6a0054600160401b900460ff1661086357604051631afcd79f60e31b815260040160405180910390fd5b611592611541565b610d3781611a91565b610d04611541565b6115ac82611acb565b6040516001600160a01b038316907fbc7cd75a20ee27fd9adebab32041f755214dbc6bffa90cc0225b39da2e5c2d3b90600090a28051156115f15761115b8282611b30565b610830611ba6565b6001600160a01b03841661162357604051632bfa23e760e11b8152600060048201526024016105d0565b604080516001808252602082018690528183019081526060820185905260808201909252906105e66000878484876114ee565b8051825160008051602061264183398151915291146116955782518251604051635b05999160e01b8152600481019290925260248201526044016105d0565b3360005b84518110156117a4576020818102868101820151908601909101516001600160a01b0389161561174c576000828152602086815260408083206001600160a01b038d16845290915290205481811015611725576040516303dee4c560e01b81526001600160a01b038b1660048201526024810182905260448101839052606481018490526084016105d0565b6000838152602087815260408083206001600160a01b038e16845290915290209082900390555b6001600160a01b03881615611791576000828152602086815260408083206001600160a01b038c1684529091528120805483929061178b9084906124e2565b90915550505b50508061179d906122ca565b9050611699565b5083516001036118255760208401516000906020850151909150866001600160a01b0316886001600160a01b0316846001600160a01b03167fc3d58168c5ae7397731d063d5bbf3d657854427343f4c083240f7aacaa2d0f628585604051611816929190918252602082015260400190565b60405180910390a450506105e6565b846001600160a01b0316866001600160a01b0316826001600160a01b03167f4a39dc06d4c0dbc64b70af90fd698a233a518aa5d07e595d983b8c0526c8f7fb87876040516118749291906124f5565b60405180910390a4505050505050565b6001600160a01b0384163b156105e65760405163f23a6e6160e01b81526001600160a01b0385169063f23a6e61906118c8908990899088908890889060040161251a565b6020604051808303816000875af1925050508015611903575060408051601f3d908101601f191682019092526119009181019061255f565b60015b61196c573d808015611931576040519150601f19603f3d011682016040523d82523d6000602084013e611936565b606091505b50805160000361196457604051632bfa23e760e11b81526001600160a01b03861660048201526024016105d0565b805181602001fd5b6001600160e01b0319811663f23a6e6160e01b1461073857604051632bfa23e760e11b81526001600160a01b03861660048201526024016105d0565b6001600160a01b0384163b156105e65760405163bc197c8160e01b81526001600160a01b0385169063bc197c81906119ec908990899088908890889060040161257c565b6020604051808303816000875af1925050508015611a27575060408051601f3d908101601f19168201909252611a249181019061255f565b60015b611a55573d808015611931576040519150601f19603f3d011682016040523d82523d6000602084013e611936565b6001600160e01b0319811663bc197c8160e01b1461073857604051632bfa23e760e11b81526001600160a01b03861660048201526024016105d0565b6000805160206126418339815191527f88be536d5240c274a3b1d3a1be54482fd9caa294f08c62a7cde569f49a3c450261115b83826123bb565b806001600160a01b03163b600003611b0157604051634c9c8ce360e01b81526001600160a01b03821660048201526024016105d0565b60008051602061262183398151915280546001600160a01b0319166001600160a01b0392909216919091179055565b6060600080846001600160a01b031684604051611b4d91906125da565b600060405180830381855af49150503d8060008114611b88576040519150601f19603f3d011682016040523d82523d6000602084013e611b8d565b606091505b5091509150611b9d858383611bc5565b95945050505050565b34156108635760405163b398979f60e01b815260040160405180910390fd5b606082611bda57611bd582611c24565b611c1d565b8151158015611bf157506001600160a01b0384163b155b15611c1a57604051639996b31560e01b81526001600160a01b03851660048201526024016105d0565b50805b9392505050565b805115611c345780518082602001fd5b604051630a12f52160e11b815260040160405180910390fd5b508054611c5990612264565b6000825580601f10611c69575050565b601f016020900490600052602060002090810190610d3791905b80821115611c975760008155600101611c83565b5090565b80356001600160a01b0381168114611cb257600080fd5b919050565b60008060408385031215611cca57600080fd5b611cd383611c9b565b946020939093013593505050565b6001600160e01b031981168114610d3757600080fd5b600060208284031215611d0957600080fd5b8135611c1d81611ce1565b600060208284031215611d2657600080fd5b5035919050565b60005b83811015611d48578181015183820152602001611d30565b50506000910152565b60008151808452611d69816020860160208601611d2d565b601f01601f19169290920160200192915050565b602081526000611c1d6020830184611d51565b634e487b7160e01b600052604160045260246000fd5b604051601f8201601f191681016001600160401b0381118282101715611dce57611dce611d90565b604052919050565b60006001600160401b03821115611def57611def611d90565b5060051b60200190565b600082601f830112611e0a57600080fd5b81356020611e1f611e1a83611dd6565b611da6565b82815260059290921b84018101918181019086841115611e3e57600080fd5b8286015b84811015611e595780358352918301918301611e42565b509695505050505050565b600082601f830112611e7557600080fd5b81356001600160401b03811115611e8e57611e8e611d90565b611ea1601f8201601f1916602001611da6565b818152846020838601011115611eb657600080fd5b816020850160208301376000918101602001919091529392505050565b600080600080600060a08688031215611eeb57600080fd5b611ef486611c9b565b9450611f0260208701611c9b565b935060408601356001600160401b0380821115611f1e57600080fd5b611f2a89838a01611df9565b94506060880135915080821115611f4057600080fd5b611f4c89838a01611df9565b93506080880135915080821115611f6257600080fd5b50611f6f88828901611e64565b9150509295509295909350565b60008060408385031215611f8f57600080fd5b611f9883611c9b565b9150611fa660208401611c9b565b90509250929050565b60008060408385031215611fc257600080fd5b82356001600160401b0380821115611fd957600080fd5b818501915085601f830112611fed57600080fd5b81356020611ffd611e1a83611dd6565b82815260059290921b8401810191818101908984111561201c57600080fd5b948201945b838610156120415761203286611c9b565b82529482019490820190612021565b9650508601359250508082111561205757600080fd5b5061206485828601611df9565b9150509250929050565b600081518084526020808501945080840160005b8381101561209e57815187529582019590820190600101612082565b509495945050505050565b602081526000611c1d602083018461206e565b600080604083850312156120cf57600080fd5b6120d883611c9b565b915060208301356001600160401b038111156120f357600080fd5b61206485828601611e64565b6000806040838503121561211257600080fd5b61211b83611c9b565b91506020830135801515811461213057600080fd5b809150509250929050565b60006020828403121561214d57600080fd5b611c1d82611c9b565b6060815260006121696060830186611d51565b828103602084015261217b8186611d51565b91505060018060a01b0383166040830152949350505050565b600080600080600060a086880312156121ac57600080fd5b6121b586611c9b565b94506121c360208701611c9b565b9350604086013592506060860135915060808601356001600160401b038111156121ec57600080fd5b611f6f88828901611e64565b60008060006060848603121561220d57600080fd5b8335925060208401356001600160401b038082111561222b57600080fd5b61223787838801611e64565b9350604086013591508082111561224d57600080fd5b5061225a86828701611e64565b9150509250925092565b600181811c9082168061227857607f821691505b60208210810361229857634e487b7160e01b600052602260045260246000fd5b50919050565b634e487b7160e01b600052603260045260246000fd5b634e487b7160e01b600052601160045260246000fd5b6000600182016122dc576122dc6122b4565b5060010190565b6000606082840312156122f557600080fd5b604051606081018181106001600160401b038211171561231757612317611d90565b80604052508251815260208301516020820152604083015160408201528091505092915050565b60208082526018908201527f4f7267616e697a657220646f6573206e6f742065786973740000000000000000604082015260600190565b601f82111561115b57600081815260208120601f850160051c8101602086101561239c5750805b601f850160051c820191505b818110156105e6578281556001016123a8565b81516001600160401b038111156123d4576123d4611d90565b6123e8816123e28454612264565b84612375565b602080601f83116001811461241d57600084156124055750858301515b600019600386901b1c1916600185901b1785556105e6565b600085815260208120601f198616915b8281101561244c5788860151825594840194600190910190840161242d565b508582101561246a5787850151600019600388901b60f8161c191681555b5050505050600190811b01905550565b60408152600061248d6040830185611d51565b8281036020840152611b9d8185611d51565b6000602082840312156124b157600080fd5b5051919050565b6040815260006124cb6040830185611d51565b905060018060a01b03831660208301529392505050565b80820180821115610467576104676122b4565b604081526000612508604083018561206e565b8281036020840152611b9d818561206e565b6001600160a01b03868116825285166020820152604081018490526060810183905260a06080820181905260009061255490830184611d51565b979650505050505050565b60006020828403121561257157600080fd5b8151611c1d81611ce1565b6001600160a01b0386811682528516602082015260a0604082018190526000906125a89083018661206e565b82810360608401526125ba818661206e565b905082810360808401526125ce8185611d51565b98975050505050505050565b600082516125ec818460208701611d2d565b919091019291505056fe68747470733a2f2f6170692e796f75726170702e636f6d2f6d657461646174612f7b69647d2e6a736f6e360894a13ba1a3210667c828492db98dca3e2076cc3735a920a3ca505d382bbc88be536d5240c274a3b1d3a1be54482fd9caa294f08c62a7cde569f49a3c4500a2646970667358221220ef1f9c72a67d2bb791b4aa34fed430b184de335348216045a03d22b024af4efa64736f6c63430008140033","linkReferences":{}},"methodIdentifiers":{"UPGRADE_INTERFACE_VERSION()":"ad3cb1cc","acceptNomination()":"d3468de7","balanceOf(address,uint256)":"00fdd58e","balanceOfBatch(address[],uint256[])":"4e1273f4","deregisterOrganizer(uint256)":"fa9bbe36","getOrganizerInfoByAddress(address)":"df0388a0","initialize(address,address)":"485cc955","isApprovedForAll(address,address)":"e985e9c5","nominate(address)":"b332180b","nominatedOrganizers(address)":"c8055b93","owner()":"8da5cb5b","proxiableUUID()":"52d1902d","renounceOwnership()":"715018a6","safeBatchTransferFrom(address,address,uint256[],uint256[],bytes)":"2eb2c2d6","safeTransferFrom(address,address,uint256,uint256,bytes)":"f242432a","setApprovalForAll(address,bool)":"a22cb465","supportsInterface(bytes4)":"01ffc9a7","transferOwnership(address)":"f2fde38b","updateOrganizer(uint256,string,string)":"ff5f9c9d","upgradeToAndCall(address,bytes)":"4f1ef286","uri(uint256)":"0e89341c"},"id":56}