{"abi":[{"type":"constructor","inputs":[{"name":"_selloutProtocolWallet","type":"address","internalType":"address"}],"stateMutability":"nonpayable"},{"type":"function","name":"artistRegistryAddress","inputs":[],"outputs":[{"name":"","type":"address","internalType":"address"}],"stateMutability":"view"},{"type":"function","name":"deployArtistRegistry","inputs":[],"outputs":[],"stateMutability":"nonpayable"},{"type":"function","name":"deployOrganizerRegistry","inputs":[],"outputs":[],"stateMutability":"nonpayable"},{"type":"function","name":"deployReferralModule","inputs":[],"outputs":[],"stateMutability":"nonpayable"},{"type":"function","name":"deployShow","inputs":[],"outputs":[],"stateMutability":"nonpayable"},{"type":"function","name":"deployTicket","inputs":[],"outputs":[],"stateMutability":"nonpayable"},{"type":"function","name":"deployVenue","inputs":[],"outputs":[],"stateMutability":"nonpayable"},{"type":"function","name":"deployVenueRegistry","inputs":[],"outputs":[],"stateMutability":"nonpayable"},{"type":"function","name":"finalizeDeployment","inputs":[],"outputs":[],"stateMutability":"nonpayable"},{"type":"function","name":"organizerRegistryAddress","inputs":[],"outputs":[{"name":"","type":"address","internalType":"address"}],"stateMutability":"view"},{"type":"function","name":"referralModuleAddress","inputs":[],"outputs":[{"name":"","type":"address","internalType":"address"}],"stateMutability":"view"},{"type":"function","name":"selloutProtocolWallet","inputs":[],"outputs":[{"name":"","type":"address","internalType":"address"}],"stateMutability":"view"},{"type":"function","name":"showAddress","inputs":[],"outputs":[{"name":"","type":"address","internalType":"address"}],"stateMutability":"view"},{"type":"function","name":"ticketAddress","inputs":[],"outputs":[{"name":"","type":"address","internalType":"address"}],"stateMutability":"view"},{"type":"function","name":"venueAddress","inputs":[],"outputs":[{"name":"","type":"address","internalType":"address"}],"stateMutability":"view"},{"type":"function","name":"venueRegistryAddress","inputs":[],"outputs":[{"name":"","type":"address","internalType":"address"}],"stateMutability":"view"}],"bytecode":{"object":"0x60806040523480156200001157600080fd5b5060405162015c9f38038062015c9f8339810160408190526200003491620002cc565b600080546001600160a01b0319166001600160a01b0383161790556040516200005d906200026a565b604051809103906000f0801580156200007a573d6000803e3d6000fd5b50600880546001600160a01b0319166001600160a01b0392909216919091179055604051620000a99062000278565b604051809103906000f080158015620000c6573d6000803e3d6000fd5b50600980546001600160a01b0319166001600160a01b0392909216919091179055604051620000f59062000286565b604051809103906000f08015801562000112573d6000803e3d6000fd5b50600a80546001600160a01b0319166001600160a01b0392909216919091179055604051620001419062000294565b604051809103906000f0801580156200015e573d6000803e3d6000fd5b50600b80546001600160a01b0319166001600160a01b03929092169190911790556040516200018d90620002a2565b604051809103906000f080158015620001aa573d6000803e3d6000fd5b50600c80546001600160a01b0319166001600160a01b0392909216919091179055604051620001d990620002b0565b604051809103906000f080158015620001f6573d6000803e3d6000fd5b50600d80546001600160a01b0319166001600160a01b03929092169190911790556040516200022590620002be565b604051809103906000f08015801562000242573d6000803e3d6000fd5b50600e80546001600160a01b0319166001600160a01b039290921691909117905550620002fe565b6115dd8062000ccc83390190565b612d6e80620022a983390190565b612def806200501783390190565b612d788062007e0683390190565b614e4d806200ab7e83390190565b613546806200f9cb83390190565b612d8e8062012f1183390190565b600060208284031215620002df57600080fd5b81516001600160a01b0381168114620002f757600080fd5b9392505050565b6109be806200030e6000396000f3fe608060405234801561001057600080fd5b50600436106101005760003560e01c806385ffebd711610097578063af06950611610066578063af069506146101c5578063c4b2992f146101cd578063e3f3a3c7146101e0578063e92c051f146101f357600080fd5b806385ffebd71461018f578063a5daabb5146101a2578063ab1ed22b146101aa578063ad53f770146101bd57600080fd5b806357a8e3fe116100d357806357a8e3fe1461014e57806369ba4f68146101615780637b42bac8146101745780638210312e1461017c57600080fd5b806303ff9899146101055780632e154e561461013457806334e4d71d1461013e57806343b3dc3414610146575b600080fd5b600254610118906001600160a01b031681565b6040516001600160a01b03909116815260200160405180910390f35b61013c6101fb565b005b61013c61028f565b61013c6103bd565b600654610118906001600160a01b031681565b600754610118906001600160a01b031681565b61013c6104b4565b600454610118906001600160a01b031681565b600554610118906001600160a01b031681565b61013c61057b565b600354610118906001600160a01b031681565b61013c61060f565b61013c6106d6565b600054610118906001600160a01b031681565b600154610118906001600160a01b031681565b61013c61079d565b600c546000546040516360d6115360e01b81526001600160a01b0391821660048201529116906360d61153906024016020604051808303816000875af1158015610249573d6000803e3d6000fd5b505050506040513d601f19601f8201168201806040525081019061026d9190610912565b600580546001600160a01b0319166001600160a01b0392909216919091179055565b6005546001600160a01b0316158015906102b357506006546001600160a01b031615155b6103145760405162461bcd60e51b815260206004820152602760248201527f53686f7720616e64205469636b6574206d757374206265206465706c6f796564604482015266103334b939ba1760c91b60648201526084015b60405180910390fd5b600e54600054600554600654604051632249d54960e21b81526001600160a01b0393841660048201529183166024830152821660448201529116906389275524906064016020604051808303816000875af1158015610377573d6000803e3d6000fd5b505050506040513d601f19601f8201168201806040525081019061039b9190610912565b600780546001600160a01b0319166001600160a01b0392909216919091179055565b6005546001600160a01b03166104155760405162461bcd60e51b815260206004820152601c60248201527f53686f77206d757374206265206465706c6f7965642066697273742e00000000604482015260640161030b565b600d5460005460055460405163a58b157160e01b81526001600160a01b039283166004820152908216602482015291169063a58b1571906044016020604051808303816000875af115801561046e573d6000803e3d6000fd5b505050506040513d601f19601f820116820180604052508101906104929190610912565b600680546001600160a01b0319166001600160a01b0392909216919091179055565b6001546001600160a01b03166104dc5760405162461bcd60e51b815260040161030b90610942565b600b546000546001546040516306c0894160e21b81526001600160a01b0392831660048201529082166024820152911690631b022504906044016020604051808303816000875af1158015610535573d6000803e3d6000fd5b505050506040513d601f19601f820116820180604052508101906105599190610912565b600480546001600160a01b0319166001600160a01b0392909216919091179055565b6008546000546040516398af9ab760e01b81526001600160a01b0391821660048201529116906398af9ab7906024016020604051808303816000875af11580156105c9573d6000803e3d6000fd5b505050506040513d601f19601f820116820180604052508101906105ed9190610912565b600180546001600160a01b0319166001600160a01b0392909216919091179055565b6001546001600160a01b03166106375760405162461bcd60e51b815260040161030b90610942565b600a5460005460015460405163adc43afd60e01b81526001600160a01b039283166004820152908216602482015291169063adc43afd906044016020604051808303816000875af1158015610690573d6000803e3d6000fd5b505050506040513d601f19601f820116820180604052508101906106b49190610912565b600380546001600160a01b0319166001600160a01b0392909216919091179055565b6001546001600160a01b03166106fe5760405162461bcd60e51b815260040161030b90610942565b6009546000546001546040516302f6482960e01b81526001600160a01b03928316600482015290821660248201529116906302f64829906044016020604051808303816000875af1158015610757573d6000803e3d6000fd5b505050506040513d601f19601f8201168201806040525081019061077b9190610912565b600280546001600160a01b0319166001600160a01b0392909216919091179055565b6005546001600160a01b0316158015906107c157506007546001600160a01b031615155b61080d5760405162461bcd60e51b815260206004820181905260248201527f416c6c20636f6d706f6e656e7473206d757374206265206465706c6f7965642e604482015260640161030b565b6005546006546007546001546002546003546004805460405163f812187360e01b81526001600160a01b03978816928101929092529486166024820152928516604484015290841660648301528316608482015290821660a482015291169063f81218739060c401600060405180830381600087803b15801561088f57600080fd5b505af11580156108a3573d6000803e3d6000fd5b505060018054600354604051639e9cad2960e01b81526001600160a01b0391821660048201526024810193909352169250639e9cad299150604401600060405180830381600087803b1580156108f857600080fd5b505af115801561090c573d6000803e3d6000fd5b50505050565b60006020828403121561092457600080fd5b81516001600160a01b038116811461093b57600080fd5b9392505050565b60208082526026908201527f526566657272616c4d6f64756c65206d757374206265206465706c6f796564206040820152653334b939ba1760d11b60608201526080019056fea264697066735822122035c3cc8f98bbc82820161ed9d7c85d1bfdb592c3e0adcfbec5d710442ba5a3ab64736f6c63430008140033608060405234801561001057600080fd5b506115bd806100206000396000f3fe608060405234801561001057600080fd5b506004361061002b5760003560e01c806398af9ab714610030575b600080fd5b61004361003e36600461012e565b61005f565b6040516001600160a01b03909116815260200160405180910390f35b60008060405161006e90610114565b604051809103906000f08015801561008a573d6000803e3d6000fd5b50604080516001600160a01b03861660248083019190915282518083039091018152604490910182526020810180516001600160e01b031663189acdbd60e31b179052905191925090600090839083906100e390610121565b6100ee92919061015e565b604051809103906000f08015801561010a573d6000803e3d6000fd5b5095945050505050565b610eea806101bd83390190565b6104e1806110a783390190565b60006020828403121561014057600080fd5b81356001600160a01b038116811461015757600080fd5b9392505050565b60018060a01b038316815260006020604081840152835180604085015260005b8181101561019a5785810183015185820160600152820161017e565b506000606082860101526060601f19601f83011685010192505050939250505056fe60a06040523060805234801561001457600080fd5b50608051610eac61003e6000396000818161074d0152818161077601526108bc0152610eac6000f3fe6080604052600436106100a75760003560e01c80638da5cb5b116100645780638da5cb5b1461017e5780639857ee0c146101c55780639e9cad2914610207578063ad3cb1cc14610227578063c4d66de814610265578063f2fde38b1461028557600080fd5b806321ceab3d146100ac578063416b56db146100ce5780634f1ef286146100ee57806352d1902d146101015780636216cd9514610129578063715018a614610169575b600080fd5b3480156100b857600080fd5b506100cc6100c7366004610c26565b6102a5565b005b3480156100da57600080fd5b506100cc6100e9366004610c26565b610421565b6100cc6100fc366004610c75565b6104d1565b34801561010d57600080fd5b506101166104f0565b6040519081526020015b60405180910390f35b34801561013557600080fd5b50610159610144366004610d37565b60016020526000908152604090205460ff1681565b6040519015158152602001610120565b34801561017557600080fd5b506100cc61050d565b34801561018a57600080fd5b507f9016d09d72d40fdae2fd8ceac6b6234c7706214fd39c1cd1e609a0528c199300546040516001600160a01b039091168152602001610120565b3480156101d157600080fd5b506101e56101e0366004610d37565b610521565b6040805182518152602080840151908201529181015190820152606001610120565b34801561021357600080fd5b506100cc610222366004610d52565b610585565b34801561023357600080fd5b50610258604051806040016040528060058152602001640352e302e360dc1b81525081565b6040516101209190610db2565b34801561027157600080fd5b506100cc610280366004610d37565b6105ec565b34801561029157600080fd5b506100cc6102a0366004610d37565b610704565b3360009081526001602052604090205460ff166102f85760405162461bcd60e51b815260206004820152600c60248201526b155b985d5d1a1bdc9a5e995960a21b60448201526064015b60405180910390fd5b6001600160a01b038416600090815260208190526040902080548411801590610325575082816001015410155b8015610335575081816002015410155b6103785760405162461bcd60e51b8152602060048201526014602482015273496e73756666696369656e74206372656469747360601b60448201526064016102ef565b8381600001600082825461038c9190610dfb565b92505081905550828160010160008282546103a79190610dfb565b92505081905550818160020160008282546103c29190610dfb565b909155505060408051825481526001830154602082015260028301548183015290516001600160a01b038716917f7cafc424f9894c1b6d1ec3f4224c92273b407136d1dda6033adc25f4378cda61919081900360600190a25050505050565b3360009081526001602052604090205460ff1661046f5760405162461bcd60e51b815260206004820152600c60248201526b155b985d5d1a1bdc9a5e995960a21b60448201526064016102ef565b6001600160a01b038416600090815260208190526040812080549091859183919061049b908490610e0e565b92505081905550828160010160008282546104b69190610e0e565b92505081905550818160020160008282546103c29190610e0e565b6104d9610742565b6104e2826107e7565b6104ec82826107ef565b5050565b60006104fa6108b1565b50600080516020610e5783398151915290565b6105156108fa565b61051f6000610955565b565b61054560405180606001604052806000815260200160008152602001600081525090565b506001600160a01b031660009081526020818152604091829020825160608101845281548152600182015492810192909252600201549181019190915290565b61058d6108fa565b6001600160a01b038216600081815260016020908152604091829020805460ff191685151590811790915591519182527f6a51febf99909656dd24dfa3562a7b303d7f130a915393f8a74402fa531061cb910160405180910390a25050565b7ff0c57e16840df040f15088dc2f81fe391c3923bec73e23a9662efc9c229c6a008054600160401b810460ff16159067ffffffffffffffff166000811580156106325750825b905060008267ffffffffffffffff16600114801561064f5750303b155b90508115801561065d575080155b1561067b5760405163f92ee8a960e01b815260040160405180910390fd5b845467ffffffffffffffff1916600117855583156106a557845460ff60401b1916600160401b1785555b6106ae866109c6565b6106b66109d7565b83156106fc57845460ff60401b19168555604051600181527fc7f505b2f371ae2175ee4913f4499e1f2633a7b5936321eed1cdaeb6115181d29060200160405180910390a15b505050505050565b61070c6108fa565b6001600160a01b03811661073657604051631e4fbdf760e01b8152600060048201526024016102ef565b61073f81610955565b50565b306001600160a01b037f00000000000000000000000000000000000000000000000000000000000000001614806107c957507f00000000000000000000000000000000000000000000000000000000000000006001600160a01b03166107bd600080516020610e57833981519152546001600160a01b031690565b6001600160a01b031614155b1561051f5760405163703e46dd60e11b815260040160405180910390fd5b61073f6108fa565b816001600160a01b03166352d1902d6040518163ffffffff1660e01b8152600401602060405180830381865afa925050508015610849575060408051601f3d908101601f1916820190925261084691810190610e21565b60015b61087157604051634c9c8ce360e01b81526001600160a01b03831660048201526024016102ef565b600080516020610e5783398151915281146108a257604051632a87526960e21b8152600481018290526024016102ef565b6108ac83836109df565b505050565b306001600160a01b037f0000000000000000000000000000000000000000000000000000000000000000161461051f5760405163703e46dd60e11b815260040160405180910390fd5b3361092c7f9016d09d72d40fdae2fd8ceac6b6234c7706214fd39c1cd1e609a0528c199300546001600160a01b031690565b6001600160a01b03161461051f5760405163118cdaa760e01b81523360048201526024016102ef565b7f9016d09d72d40fdae2fd8ceac6b6234c7706214fd39c1cd1e609a0528c19930080546001600160a01b031981166001600160a01b03848116918217845560405192169182907f8be0079c531659141344cd1fd0a4f28419497f9722a3daafe3b4186f6b6457e090600090a3505050565b6109ce610a35565b61073f81610a7e565b61051f610a35565b6109e882610a86565b6040516001600160a01b038316907fbc7cd75a20ee27fd9adebab32041f755214dbc6bffa90cc0225b39da2e5c2d3b90600090a2805115610a2d576108ac8282610aeb565b6104ec610b63565b7ff0c57e16840df040f15088dc2f81fe391c3923bec73e23a9662efc9c229c6a0054600160401b900460ff1661051f57604051631afcd79f60e31b815260040160405180910390fd5b61070c610a35565b806001600160a01b03163b600003610abc57604051634c9c8ce360e01b81526001600160a01b03821660048201526024016102ef565b600080516020610e5783398151915280546001600160a01b0319166001600160a01b0392909216919091179055565b6060600080846001600160a01b031684604051610b089190610e3a565b600060405180830381855af49150503d8060008114610b43576040519150601f19603f3d011682016040523d82523d6000602084013e610b48565b606091505b5091509150610b58858383610b82565b925050505b92915050565b341561051f5760405163b398979f60e01b815260040160405180910390fd5b606082610b9757610b9282610be1565b610bda565b8151158015610bae57506001600160a01b0384163b155b15610bd757604051639996b31560e01b81526001600160a01b03851660048201526024016102ef565b50805b9392505050565b805115610bf15780518082602001fd5b604051630a12f52160e11b815260040160405180910390fd5b80356001600160a01b0381168114610c2157600080fd5b919050565b60008060008060808587031215610c3c57600080fd5b610c4585610c0a565b966020860135965060408601359560600135945092505050565b634e487b7160e01b600052604160045260246000fd5b60008060408385031215610c8857600080fd5b610c9183610c0a565b9150602083013567ffffffffffffffff80821115610cae57600080fd5b818501915085601f830112610cc257600080fd5b813581811115610cd457610cd4610c5f565b604051601f8201601f19908116603f01168101908382118183101715610cfc57610cfc610c5f565b81604052828152886020848701011115610d1557600080fd5b8260208601602083013760006020848301015280955050505050509250929050565b600060208284031215610d4957600080fd5b610bda82610c0a565b60008060408385031215610d6557600080fd5b610d6e83610c0a565b915060208301358015158114610d8357600080fd5b809150509250929050565b60005b83811015610da9578181015183820152602001610d91565b50506000910152565b6020815260008251806020840152610dd1816040850160208701610d8e565b601f01601f19169190910160400192915050565b634e487b7160e01b600052601160045260246000fd5b81810381811115610b5d57610b5d610de5565b80820180821115610b5d57610b5d610de5565b600060208284031215610e3357600080fd5b5051919050565b60008251610e4c818460208701610d8e565b919091019291505056fe360894a13ba1a3210667c828492db98dca3e2076cc3735a920a3ca505d382bbca26469706673582212209b7db8d005713175451b7791676dc5fd59f3fb5b9865c9b25e1c3657b593567364736f6c6343000814003360806040526040516104e13803806104e1833981016040819052610022916102de565b61002e82826000610035565b50506103fb565b61003e83610061565b60008251118061004b5750805b1561005c5761005a83836100a1565b505b505050565b61006a816100cd565b6040516001600160a01b038216907fbc7cd75a20ee27fd9adebab32041f755214dbc6bffa90cc0225b39da2e5c2d3b90600090a250565b60606100c683836040518060600160405280602781526020016104ba60279139610180565b9392505050565b6001600160a01b0381163b61013f5760405162461bcd60e51b815260206004820152602d60248201527f455243313936373a206e657720696d706c656d656e746174696f6e206973206e60448201526c1bdd08184818dbdb9d1c9858dd609a1b60648201526084015b60405180910390fd5b7f360894a13ba1a3210667c828492db98dca3e2076cc3735a920a3ca505d382bbc80546001600160a01b0319166001600160a01b0392909216919091179055565b6060600080856001600160a01b03168560405161019d91906103ac565b600060405180830381855af49150503d80600081146101d8576040519150601f19603f3d011682016040523d82523d6000602084013e6101dd565b606091505b5090925090506101ef868383876101f9565b9695505050505050565b60608315610268578251600003610261576001600160a01b0385163b6102615760405162461bcd60e51b815260206004820152601d60248201527f416464726573733a2063616c6c20746f206e6f6e2d636f6e74726163740000006044820152606401610136565b5081610272565b610272838361027a565b949350505050565b81511561028a5781518083602001fd5b8060405162461bcd60e51b815260040161013691906103c8565b634e487b7160e01b600052604160045260246000fd5b60005b838110156102d55781810151838201526020016102bd565b50506000910152565b600080604083850312156102f157600080fd5b82516001600160a01b038116811461030857600080fd5b60208401519092506001600160401b038082111561032557600080fd5b818501915085601f83011261033957600080fd5b81518181111561034b5761034b6102a4565b604051601f8201601f19908116603f01168101908382118183101715610373576103736102a4565b8160405282815288602084870101111561038c57600080fd5b61039d8360208301602088016102ba565b80955050505050509250929050565b600082516103be8184602087016102ba565b9190910192915050565b60208152600082518060208401526103e78160408501602087016102ba565b601f01601f19169190910160400192915050565b60b1806104096000396000f3fe608060405236601057600e6013565b005b600e5b601f601b6021565b6058565b565b600060537f360894a13ba1a3210667c828492db98dca3e2076cc3735a920a3ca505d382bbc546001600160a01b031690565b905090565b3660008037600080366000845af43d6000803e8080156076573d6000f35b3d6000fdfea264697066735822122027f562cde8265aa90118a53b2f65370962feb418519bf39bfc7ccbb34402bb5164736f6c63430008140033416464726573733a206c6f772d6c6576656c2064656c65676174652063616c6c206661696c6564a2646970667358221220dba316a53d8eccc3dbe97e561dc37a27408eeba02e17ecf028f536e0581bfb5964736f6c63430008140033608060405234801561001057600080fd5b50612d4e806100206000396000f3fe608060405234801561001057600080fd5b506004361061002b5760003560e01c806302f6482914610030575b600080fd5b61004361003e366004610153565b61005f565b6040516001600160a01b03909116815260200160405180910390f35b60008060405161006e9061011d565b604051809103906000f08015801561008a573d6000803e3d6000fd5b50604080516001600160a01b038781166024830152861660448083019190915282518083039091018152606490910182526020810180516001600160e01b031663485cc95560e01b179052905191925090600090839083906100eb9061012a565b6100f6929190610186565b604051809103906000f080158015610112573d6000803e3d6000fd5b509695505050505050565b612653806101e583390190565b6104e18061283883390190565b80356001600160a01b038116811461014e57600080fd5b919050565b6000806040838503121561016657600080fd5b61016f83610137565b915061017d60208401610137565b90509250929050565b60018060a01b038316815260006020604081840152835180604085015260005b818110156101c2578581018301518582016060015282016101a6565b506000606082860101526060601f19601f83011685010192505050939250505056fe60a06040523060805234801561001457600080fd5b5060805161261561003e60003960008181610f8401528181610fad01526110f301526126156000f3fe6080604052600436106101295760003560e01c806365f91e6d116100ab578063b332180b1161006f578063b332180b14610372578063d2a35c8e14610392578063d3468de7146103c1578063e985e9c5146103d6578063f242432a146103f6578063f2fde38b1461041657600080fd5b806365f91e6d146102a5578063715018a6146102c55780638da5cb5b146102da578063a22cb46514610321578063ad3cb1cc1461034157600080fd5b8063485cc955116100f2578063485cc9551461021057806348f90454146102305780634e1273f4146102505780634f1ef2861461027d57806352d1902d1461029057600080fd5b8062fdd58e1461012e57806301ffc9a7146101615780630e89341c146101915780631fc65673146101be5780632eb2c2d6146101ee575b600080fd5b34801561013a57600080fd5b5061014e610149366004611c97565b610436565b6040519081526020015b60405180910390f35b34801561016d57600080fd5b5061018161017c366004611cd7565b61046d565b6040519015158152602001610158565b34801561019d57600080fd5b506101b16101ac366004611cf4565b6104bd565b6040516101589190611d5d565b3480156101ca57600080fd5b506101816101d9366004611d70565b60026020526000908152604090205460ff1681565b3480156101fa57600080fd5b5061020e610209366004611ece565b610582565b005b34801561021c57600080fd5b5061020e61022b366004611f77565b6105ee565b34801561023c57600080fd5b5061020e61024b366004611faa565b610741565b34801561025c57600080fd5b5061027061026b366004612016565b61081b565b6040516101589190612110565b61020e61028b366004612123565b6108ef565b34801561029c57600080fd5b5061014e61090e565b3480156102b157600080fd5b5061020e6102c0366004611cf4565b61092b565b3480156102d157600080fd5b5061020e610a04565b3480156102e657600080fd5b507f9016d09d72d40fdae2fd8ceac6b6234c7706214fd39c1cd1e609a0528c199300546040516001600160a01b039091168152602001610158565b34801561032d57600080fd5b5061020e61033c366004612166565b610a18565b34801561034d57600080fd5b506101b1604051806040016040528060058152602001640352e302e360dc1b81525081565b34801561037e57600080fd5b5061020e61038d366004611d70565b610a23565b34801561039e57600080fd5b506103b26103ad366004611d70565b610b6e565b604051610158939291906121a2565b3480156103cd57600080fd5b5061020e610d3d565b3480156103e257600080fd5b506101816103f1366004611f77565b610dfe565b34801561040257600080fd5b5061020e6104113660046121e0565b610e4b565b34801561042257600080fd5b5061020e610431366004611d70565b610eaa565b60008181526000805160206125c0833981519152602090815260408083206001600160a01b03861684529091529020545b92915050565b60006001600160e01b03198216636cdb3d1360e11b148061049e57506001600160e01b031982166303a24d0760e21b145b8061046757506301ffc9a760e01b6001600160e01b0319831614610467565b7f88be536d5240c274a3b1d3a1be54482fd9caa294f08c62a7cde569f49a3c450280546060916000805160206125c0833981519152916104fc90612244565b80601f016020809104026020016040519081016040528092919081815260200182805461052890612244565b80156105755780601f1061054a57610100808354040283529160200191610575565b820191906000526020600020905b81548152906001019060200180831161055857829003601f168201915b5050505050915050919050565b336001600160a01b03861681148015906105a357506105a18682610dfe565b155b156105d95760405163711bec9160e11b81526001600160a01b038083166004830152871660248201526044015b60405180910390fd5b6105e68686868686610ee8565b505050505050565b7ff0c57e16840df040f15088dc2f81fe391c3923bec73e23a9662efc9c229c6a008054600160401b810460ff1615906001600160401b03166000811580156106335750825b90506000826001600160401b0316600114801561064f5750303b155b90508115801561065d575080155b1561067b5760405163f92ee8a960e01b815260040160405180910390fd5b845467ffffffffffffffff1916600117855583156106a557845460ff60401b1916600160401b1785555b6106c66040518060600160405280602a8152602001612576602a9139610f4f565b6106cf87610f60565b6106d7610f71565b600480546001600160a01b0319166001600160a01b038816179055831561073857845460ff60401b19168555604051600181527fc7f505b2f371ae2175ee4913f4499e1f2633a7b5936321eed1cdaeb6115181d29060200160405180910390a15b50505050505050565b600354831115801561076c57506000838152602081905260409020600201546001600160a01b031633145b6107a75760405162461bcd60e51b815260206004820152600c60248201526b155b985d5d1a1bdc9a5e995960a21b60448201526064016105d0565b60008381526020819052604090206107bf83826122c4565b5060008381526020819052604090206001016107db82826122c4565b50827f32141d773ee9c2c3d65647f0cefc910eb6ae3973dcb50abf2affd519d6d71ebb838360405161080e929190612383565b60405180910390a2505050565b6060815183511461084c5781518351604051635b05999160e01b8152600481019290925260248201526044016105d0565b600083516001600160401b0381111561086757610867611d8b565b604051908082528060200260200182016040528015610890578160200160208202803683370190505b50905060005b84518110156108e7576020808202860101516108ba90602080840287010151610436565b8282815181106108cc576108cc6123a8565b60209081029190910101526108e0816123d4565b9050610896565b509392505050565b6108f7610f79565b6109008261101e565b61090a8282611026565b5050565b60006109186110e8565b506000805160206125a083398151915290565b600354811115801561095657506000818152602081905260409020600201546001600160a01b031633145b6109915760405162461bcd60e51b815260206004820152600c60248201526b155b985d5d1a1bdc9a5e995960a21b60448201526064016105d0565b61099d33826001611131565b6000818152602081905260408120906109b68282611c2d565b6109c4600183016000611c2d565b5060020180546001600160a01b031916905560405181907f508aa18fe80cc3349fb880dc15451d171a92d429567a32db4bc488c1fb60429090600090a250565b610a0c611199565b610a1660006111f4565b565b61090a338383611265565b60048054604051632615fb8360e21b815233928101929092526000916001600160a01b0390911690639857ee0c90602401606060405180830381865afa158015610a71573d6000803e3d6000fd5b505050506040513d601f19601f82011682018060405250810190610a9591906123ed565b8051909150610af25760405162461bcd60e51b8152602060048201526024808201527f496e73756666696369656e742061727469737420726566657272616c206372656044820152636469747360e01b60648201526084016105d0565b600480546040516321ceab3d60e01b815233928101929092526001602483015260006044830181905260648301526001600160a01b0316906321ceab3d90608401600060405180830381600087803b158015610b4d57600080fd5b505af1158015610b61573d6000803e3d6000fd5b5050505061090a8261130d565b6001600160a01b0381166000908152600160205260408120546060918291808203610bd35760405162461bcd60e51b8152602060048201526015602482015274105c9d1a5cdd08191bd95cc81b9bdd08195e1a5cdd605a1b60448201526064016105d0565b600081815260208190526040808220815160608101909252805482908290610bfa90612244565b80601f0160208091040260200160405190810160405280929190818152602001828054610c2690612244565b8015610c735780601f10610c4857610100808354040283529160200191610c73565b820191906000526020600020905b815481529060010190602001808311610c5657829003601f168201915b50505050508152602001600182018054610c8c90612244565b80601f0160208091040260200160405190810160405280929190818152602001828054610cb890612244565b8015610d055780601f10610cda57610100808354040283529160200191610d05565b820191906000526020600020905b815481529060010190602001808311610ce857829003601f168201915b5050509183525050600291909101546001600160a01b0316602091820152815190820151604090920151909891975095509350505050565b3360009081526002602052604090205460ff16610d8d5760405162461bcd60e51b815260206004820152600e60248201526d139bdd081dd85a5d1b1a5cdd195960921b60448201526064016105d0565b336000908152600260209081526040808320805460ff19169055805180830182528381528151928301909152918152610dc69190611359565b6003546040513381527f0eda72f82c1fa8453a960937d93f72d67182387192305305b705b1b94c4b77f69060200160405180910390a2565b6001600160a01b0391821660009081527f88be536d5240c274a3b1d3a1be54482fd9caa294f08c62a7cde569f49a3c45016020908152604080832093909416825291909152205460ff1690565b336001600160a01b0386168114801590610e6c5750610e6a8682610dfe565b155b15610e9d5760405163711bec9160e11b81526001600160a01b038083166004830152871660248201526044016105d0565b6105e6868686868661144d565b610eb2611199565b6001600160a01b038116610edc57604051631e4fbdf760e01b8152600060048201526024016105d0565b610ee5816111f4565b50565b6001600160a01b038416610f1257604051632bfa23e760e11b8152600060048201526024016105d0565b6001600160a01b038516610f3b57604051626a0d4560e21b8152600060048201526024016105d0565b610f4885858585856114ce565b5050505050565b610f57611521565b610ee58161156a565b610f68611521565b610ee58161157b565b610a16611521565b306001600160a01b037f000000000000000000000000000000000000000000000000000000000000000016148061100057507f00000000000000000000000000000000000000000000000000000000000000006001600160a01b0316610ff46000805160206125a0833981519152546001600160a01b031690565b6001600160a01b031614155b15610a165760405163703e46dd60e11b815260040160405180910390fd5b610ee5611199565b816001600160a01b03166352d1902d6040518163ffffffff1660e01b8152600401602060405180830381865afa925050508015611080575060408051601f3d908101601f1916820190925261107d91810190612448565b60015b6110a857604051634c9c8ce360e01b81526001600160a01b03831660048201526024016105d0565b6000805160206125a083398151915281146110d957604051632a87526960e21b8152600481018290526024016105d0565b6110e38383611583565b505050565b306001600160a01b037f00000000000000000000000000000000000000000000000000000000000000001614610a165760405163703e46dd60e11b815260040160405180910390fd5b6001600160a01b03831661115a57604051626a0d4560e21b8152600060048201526024016105d0565b604080516001808252602082018590528183019081526060820184905260a08201909252600060808201818152919291610f48918791859085906114ce565b336111cb7f9016d09d72d40fdae2fd8ceac6b6234c7706214fd39c1cd1e609a0528c199300546001600160a01b031690565b6001600160a01b031614610a165760405163118cdaa760e01b81523360048201526024016105d0565b7f9016d09d72d40fdae2fd8ceac6b6234c7706214fd39c1cd1e609a0528c19930080546001600160a01b031981166001600160a01b03848116918217845560405192169182907f8be0079c531659141344cd1fd0a4f28419497f9722a3daafe3b4186f6b6457e090600090a3505050565b6000805160206125c08339815191526001600160a01b03831661129d5760405162ced3e160e81b8152600060048201526024016105d0565b6001600160a01b038481166000818152600184016020908152604080832094881680845294825291829020805460ff191687151590811790915591519182527f17307eab39ab6107e8899845ad3d59bd9653f200f220920489ca2b5937696c31910160405180910390a350505050565b6001600160a01b038116600081815260026020526040808220805460ff19166001179055517f1a74f3f80bcaac073ea380f49aa827c080f5c11a913e921997350afd3b56dcd19190a250565b60038054906000611369836123d4565b909155505060035460408051606081018252848152602080820185905233828401819052600085815291829052929020815181906113a790826122c4565b50602082015160018201906113bc90826122c4565b5060409182015160029190910180546001600160a01b0319166001600160a01b039283161790558216600090815260016020818152838320869055835190810190935290825261140f91839185916115d9565b817fda6b011a8a5538505e95258f4fb629e47acbcc7659053d361c1517a0028f4d478560405161143f9190611d5d565b60405180910390a250505050565b6001600160a01b03841661147757604051632bfa23e760e11b8152600060048201526024016105d0565b6001600160a01b0385166114a057604051626a0d4560e21b8152600060048201526024016105d0565b6040805160018082526020820186905281830190815260608201859052608082019092529061073887878484875b6114da85858585611636565b6001600160a01b03841615610f485782513390600103611513576020848101519084015161150c838989858589611864565b50506105e6565b6105e6818787878787611988565b7ff0c57e16840df040f15088dc2f81fe391c3923bec73e23a9662efc9c229c6a0054600160401b900460ff16610a1657604051631afcd79f60e31b815260040160405180910390fd5b611572611521565b610ee581611a71565b610eb2611521565b61158c82611aab565b6040516001600160a01b038316907fbc7cd75a20ee27fd9adebab32041f755214dbc6bffa90cc0225b39da2e5c2d3b90600090a28051156115d1576110e38282611b10565b61090a611b86565b6001600160a01b03841661160357604051632bfa23e760e11b8152600060048201526024016105d0565b604080516001808252602082018690528183019081526060820185905260808201909252906105e66000878484876114ce565b805182516000805160206125c083398151915291146116755782518251604051635b05999160e01b8152600481019290925260248201526044016105d0565b3360005b8451811015611784576020818102868101820151908601909101516001600160a01b0389161561172c576000828152602086815260408083206001600160a01b038d16845290915290205481811015611705576040516303dee4c560e01b81526001600160a01b038b1660048201526024810182905260448101839052606481018490526084016105d0565b6000838152602087815260408083206001600160a01b038e16845290915290209082900390555b6001600160a01b03881615611771576000828152602086815260408083206001600160a01b038c1684529091528120805483929061176b908490612461565b90915550505b50508061177d906123d4565b9050611679565b5083516001036118055760208401516000906020850151909150866001600160a01b0316886001600160a01b0316846001600160a01b03167fc3d58168c5ae7397731d063d5bbf3d657854427343f4c083240f7aacaa2d0f6285856040516117f6929190918252602082015260400190565b60405180910390a450506105e6565b846001600160a01b0316866001600160a01b0316826001600160a01b03167f4a39dc06d4c0dbc64b70af90fd698a233a518aa5d07e595d983b8c0526c8f7fb8787604051611854929190612474565b60405180910390a4505050505050565b6001600160a01b0384163b156105e65760405163f23a6e6160e01b81526001600160a01b0385169063f23a6e61906118a89089908990889088908890600401612499565b6020604051808303816000875af19250505080156118e3575060408051601f3d908101601f191682019092526118e0918101906124de565b60015b61194c573d808015611911576040519150601f19603f3d011682016040523d82523d6000602084013e611916565b606091505b50805160000361194457604051632bfa23e760e11b81526001600160a01b03861660048201526024016105d0565b805181602001fd5b6001600160e01b0319811663f23a6e6160e01b1461073857604051632bfa23e760e11b81526001600160a01b03861660048201526024016105d0565b6001600160a01b0384163b156105e65760405163bc197c8160e01b81526001600160a01b0385169063bc197c81906119cc90899089908890889088906004016124fb565b6020604051808303816000875af1925050508015611a07575060408051601f3d908101601f19168201909252611a04918101906124de565b60015b611a35573d808015611911576040519150601f19603f3d011682016040523d82523d6000602084013e611916565b6001600160e01b0319811663bc197c8160e01b1461073857604051632bfa23e760e11b81526001600160a01b03861660048201526024016105d0565b6000805160206125c08339815191527f88be536d5240c274a3b1d3a1be54482fd9caa294f08c62a7cde569f49a3c45026110e383826122c4565b806001600160a01b03163b600003611ae157604051634c9c8ce360e01b81526001600160a01b03821660048201526024016105d0565b6000805160206125a083398151915280546001600160a01b0319166001600160a01b0392909216919091179055565b6060600080846001600160a01b031684604051611b2d9190612559565b600060405180830381855af49150503d8060008114611b68576040519150601f19603f3d011682016040523d82523d6000602084013e611b6d565b606091505b5091509150611b7d858383611ba5565b95945050505050565b3415610a165760405163b398979f60e01b815260040160405180910390fd5b606082611bba57611bb582611c04565b611bfd565b8151158015611bd157506001600160a01b0384163b155b15611bfa57604051639996b31560e01b81526001600160a01b03851660048201526024016105d0565b50805b9392505050565b805115611c145780518082602001fd5b604051630a12f52160e11b815260040160405180910390fd5b508054611c3990612244565b6000825580601f10611c49575050565b601f016020900490600052602060002090810190610ee591905b80821115611c775760008155600101611c63565b5090565b80356001600160a01b0381168114611c9257600080fd5b919050565b60008060408385031215611caa57600080fd5b611cb383611c7b565b946020939093013593505050565b6001600160e01b031981168114610ee557600080fd5b600060208284031215611ce957600080fd5b8135611bfd81611cc1565b600060208284031215611d0657600080fd5b5035919050565b60005b83811015611d28578181015183820152602001611d10565b50506000910152565b60008151808452611d49816020860160208601611d0d565b601f01601f19169290920160200192915050565b602081526000611bfd6020830184611d31565b600060208284031215611d8257600080fd5b611bfd82611c7b565b634e487b7160e01b600052604160045260246000fd5b604051601f8201601f191681016001600160401b0381118282101715611dc957611dc9611d8b565b604052919050565b60006001600160401b03821115611dea57611dea611d8b565b5060051b60200190565b600082601f830112611e0557600080fd5b81356020611e1a611e1583611dd1565b611da1565b82815260059290921b84018101918181019086841115611e3957600080fd5b8286015b84811015611e545780358352918301918301611e3d565b509695505050505050565b600082601f830112611e7057600080fd5b81356001600160401b03811115611e8957611e89611d8b565b611e9c601f8201601f1916602001611da1565b818152846020838601011115611eb157600080fd5b816020850160208301376000918101602001919091529392505050565b600080600080600060a08688031215611ee657600080fd5b611eef86611c7b565b9450611efd60208701611c7b565b935060408601356001600160401b0380821115611f1957600080fd5b611f2589838a01611df4565b94506060880135915080821115611f3b57600080fd5b611f4789838a01611df4565b93506080880135915080821115611f5d57600080fd5b50611f6a88828901611e5f565b9150509295509295909350565b60008060408385031215611f8a57600080fd5b611f9383611c7b565b9150611fa160208401611c7b565b90509250929050565b600080600060608486031215611fbf57600080fd5b8335925060208401356001600160401b0380821115611fdd57600080fd5b611fe987838801611e5f565b93506040860135915080821115611fff57600080fd5b5061200c86828701611e5f565b9150509250925092565b6000806040838503121561202957600080fd5b82356001600160401b038082111561204057600080fd5b818501915085601f83011261205457600080fd5b81356020612064611e1583611dd1565b82815260059290921b8401810191818101908984111561208357600080fd5b948201945b838610156120a85761209986611c7b565b82529482019490820190612088565b965050860135925050808211156120be57600080fd5b506120cb85828601611df4565b9150509250929050565b600081518084526020808501945080840160005b83811015612105578151875295820195908201906001016120e9565b509495945050505050565b602081526000611bfd60208301846120d5565b6000806040838503121561213657600080fd5b61213f83611c7b565b915060208301356001600160401b0381111561215a57600080fd5b6120cb85828601611e5f565b6000806040838503121561217957600080fd5b61218283611c7b565b91506020830135801515811461219757600080fd5b809150509250929050565b6060815260006121b56060830186611d31565b82810360208401526121c78186611d31565b91505060018060a01b0383166040830152949350505050565b600080600080600060a086880312156121f857600080fd5b61220186611c7b565b945061220f60208701611c7b565b9350604086013592506060860135915060808601356001600160401b0381111561223857600080fd5b611f6a88828901611e5f565b600181811c9082168061225857607f821691505b60208210810361227857634e487b7160e01b600052602260045260246000fd5b50919050565b601f8211156110e357600081815260208120601f850160051c810160208610156122a55750805b601f850160051c820191505b818110156105e6578281556001016122b1565b81516001600160401b038111156122dd576122dd611d8b565b6122f1816122eb8454612244565b8461227e565b602080601f831160018114612326576000841561230e5750858301515b600019600386901b1c1916600185901b1785556105e6565b600085815260208120601f198616915b8281101561235557888601518255948401946001909101908401612336565b50858210156123735787850151600019600388901b60f8161c191681555b5050505050600190811b01905550565b6040815260006123966040830185611d31565b8281036020840152611b7d8185611d31565b634e487b7160e01b600052603260045260246000fd5b634e487b7160e01b600052601160045260246000fd5b6000600182016123e6576123e66123be565b5060010190565b6000606082840312156123ff57600080fd5b604051606081018181106001600160401b038211171561242157612421611d8b565b80604052508251815260208301516020820152604083015160408201528091505092915050565b60006020828403121561245a57600080fd5b5051919050565b80820180821115610467576104676123be565b60408152600061248760408301856120d5565b8281036020840152611b7d81856120d5565b6001600160a01b03868116825285166020820152604081018490526060810183905260a0608082018190526000906124d390830184611d31565b979650505050505050565b6000602082840312156124f057600080fd5b8151611bfd81611cc1565b6001600160a01b0386811682528516602082015260a060408201819052600090612527908301866120d5565b828103606084015261253981866120d5565b9050828103608084015261254d8185611d31565b98975050505050505050565b6000825161256b818460208701611d0d565b919091019291505056fe68747470733a2f2f6170692e796f75726170702e636f6d2f6d657461646174612f7b69647d2e6a736f6e360894a13ba1a3210667c828492db98dca3e2076cc3735a920a3ca505d382bbc88be536d5240c274a3b1d3a1be54482fd9caa294f08c62a7cde569f49a3c4500a2646970667358221220f2b404175b102758fb085938f5d3749cf379a90ae8281cdf5b652fd851672e7664736f6c6343000814003360806040526040516104e13803806104e1833981016040819052610022916102de565b61002e82826000610035565b50506103fb565b61003e83610061565b60008251118061004b5750805b1561005c5761005a83836100a1565b505b505050565b61006a816100cd565b6040516001600160a01b038216907fbc7cd75a20ee27fd9adebab32041f755214dbc6bffa90cc0225b39da2e5c2d3b90600090a250565b60606100c683836040518060600160405280602781526020016104ba60279139610180565b9392505050565b6001600160a01b0381163b61013f5760405162461bcd60e51b815260206004820152602d60248201527f455243313936373a206e657720696d706c656d656e746174696f6e206973206e60448201526c1bdd08184818dbdb9d1c9858dd609a1b60648201526084015b60405180910390fd5b7f360894a13ba1a3210667c828492db98dca3e2076cc3735a920a3ca505d382bbc80546001600160a01b0319166001600160a01b0392909216919091179055565b6060600080856001600160a01b03168560405161019d91906103ac565b600060405180830381855af49150503d80600081146101d8576040519150601f19603f3d011682016040523d82523d6000602084013e6101dd565b606091505b5090925090506101ef868383876101f9565b9695505050505050565b60608315610268578251600003610261576001600160a01b0385163b6102615760405162461bcd60e51b815260206004820152601d60248201527f416464726573733a2063616c6c20746f206e6f6e2d636f6e74726163740000006044820152606401610136565b5081610272565b610272838361027a565b949350505050565b81511561028a5781518083602001fd5b8060405162461bcd60e51b815260040161013691906103c8565b634e487b7160e01b600052604160045260246000fd5b60005b838110156102d55781810151838201526020016102bd565b50506000910152565b600080604083850312156102f157600080fd5b82516001600160a01b038116811461030857600080fd5b60208401519092506001600160401b038082111561032557600080fd5b818501915085601f83011261033957600080fd5b81518181111561034b5761034b6102a4565b604051601f8201601f19908116603f01168101908382118183101715610373576103736102a4565b8160405282815288602084870101111561038c57600080fd5b61039d8360208301602088016102ba565b80955050505050509250929050565b600082516103be8184602087016102ba565b9190910192915050565b60208152600082518060208401526103e78160408501602087016102ba565b601f01601f19169190910160400192915050565b60b1806104096000396000f3fe608060405236601057600e6013565b005b600e5b601f601b6021565b6058565b565b600060537f360894a13ba1a3210667c828492db98dca3e2076cc3735a920a3ca505d382bbc546001600160a01b031690565b905090565b3660008037600080366000845af43d6000803e8080156076573d6000f35b3d6000fdfea264697066735822122027f562cde8265aa90118a53b2f65370962feb418519bf39bfc7ccbb34402bb5164736f6c63430008140033416464726573733a206c6f772d6c6576656c2064656c65676174652063616c6c206661696c6564a2646970667358221220b03e7fea4427942993238877c89941a30ac21c4e339ab7f8f41f91890f1705fb64736f6c63430008140033608060405234801561001057600080fd5b50612dcf806100206000396000f3fe608060405234801561001057600080fd5b506004361061002b5760003560e01c8063adc43afd14610030575b600080fd5b61004361003e366004610153565b61005f565b6040516001600160a01b03909116815260200160405180910390f35b60008060405161006e9061011d565b604051809103906000f08015801561008a573d6000803e3d6000fd5b50604080516001600160a01b038781166024830152861660448083019190915282518083039091018152606490910182526020810180516001600160e01b031663485cc95560e01b179052905191925090600090839083906100eb9061012a565b6100f6929190610186565b604051809103906000f080158015610112573d6000803e3d6000fd5b509695505050505050565b6126d4806101e583390190565b6104e1806128b983390190565b80356001600160a01b038116811461014e57600080fd5b919050565b6000806040838503121561016657600080fd5b61016f83610137565b915061017d60208401610137565b90509250929050565b60018060a01b038316815260006020604081840152835180604085015260005b818110156101c2578581018301518582016060015282016101a6565b506000606082860101526060601f19601f83011685010192505050939250505056fe60a06040523060805234801561001457600080fd5b5060805161269661003e60003960008181610ffc01528181611025015261116b01526126966000f3fe6080604052600436106101295760003560e01c8063a22cb465116100ab578063df0388a01161006f578063df0388a014610367578063e985e9c514610396578063f242432a146103b6578063f2fde38b146103d6578063fa9bbe36146103f6578063ff5f9c9d1461041657600080fd5b8063a22cb465146102b1578063ad3cb1cc146102d1578063b332180b14610302578063c8055b9314610322578063d3468de71461035257600080fd5b80634e1273f4116100f25780634e1273f4146102005780634f1ef2861461022d57806352d1902d14610240578063715018a6146102555780638da5cb5b1461026a57600080fd5b8062fdd58e1461012e57806301ffc9a7146101615780630e89341c146101915780632eb2c2d6146101be578063485cc955146101e0575b600080fd5b34801561013a57600080fd5b5061014e610149366004611cb7565b610436565b6040519081526020015b60405180910390f35b34801561016d57600080fd5b5061018161017c366004611cf7565b61046d565b6040519015158152602001610158565b34801561019d57600080fd5b506101b16101ac366004611d14565b6104bd565b6040516101589190611d7d565b3480156101ca57600080fd5b506101de6101d9366004611ed3565b610582565b005b3480156101ec57600080fd5b506101de6101fb366004611f7c565b6105ee565b34801561020c57600080fd5b5061022061021b366004611faf565b610741565b60405161015891906120a9565b6101de61023b3660046120bc565b610815565b34801561024c57600080fd5b5061014e610834565b34801561026157600080fd5b506101de610851565b34801561027657600080fd5b507f9016d09d72d40fdae2fd8ceac6b6234c7706214fd39c1cd1e609a0528c199300546040516001600160a01b039091168152602001610158565b3480156102bd57600080fd5b506101de6102cc3660046120ff565b610865565b3480156102dd57600080fd5b506101b1604051806040016040528060058152602001640352e302e360dc1b81525081565b34801561030e57600080fd5b506101de61031d36600461213b565b610870565b34801561032e57600080fd5b5061018161033d36600461213b565b60026020526000908152604090205460ff1681565b34801561035e57600080fd5b506101de610a0a565b34801561037357600080fd5b5061038761038236600461213b565b610ac5565b60405161015893929190612156565b3480156103a257600080fd5b506101816103b1366004611f7c565b610c50565b3480156103c257600080fd5b506101de6103d1366004612194565b610c9d565b3480156103e257600080fd5b506101de6103f136600461213b565b610cfc565b34801561040257600080fd5b506101de610411366004611d14565b610d3a565b34801561042257600080fd5b506101de6104313660046121f8565b610e5a565b6000818152600080516020612641833981519152602090815260408083206001600160a01b03861684529091529020545b92915050565b60006001600160e01b03198216636cdb3d1360e11b148061049e57506001600160e01b031982166303a24d0760e21b145b8061046757506301ffc9a760e01b6001600160e01b0319831614610467565b7f88be536d5240c274a3b1d3a1be54482fd9caa294f08c62a7cde569f49a3c45028054606091600080516020612641833981519152916104fc90612264565b80601f016020809104026020016040519081016040528092919081815260200182805461052890612264565b80156105755780601f1061054a57610100808354040283529160200191610575565b820191906000526020600020905b81548152906001019060200180831161055857829003601f168201915b5050505050915050919050565b336001600160a01b03861681148015906105a357506105a18682610c50565b155b156105d95760405163711bec9160e11b81526001600160a01b038083166004830152871660248201526044015b60405180910390fd5b6105e68686868686610f60565b505050505050565b7ff0c57e16840df040f15088dc2f81fe391c3923bec73e23a9662efc9c229c6a008054600160401b810460ff1615906001600160401b03166000811580156106335750825b90506000826001600160401b0316600114801561064f5750303b155b90508115801561065d575080155b1561067b5760405163f92ee8a960e01b815260040160405180910390fd5b845467ffffffffffffffff1916600117855583156106a557845460ff60401b1916600160401b1785555b6106c66040518060600160405280602a81526020016125f7602a9139610fc7565b6106cf87610fd8565b6106d7610fe9565b600480546001600160a01b0319166001600160a01b038816179055831561073857845460ff60401b19168555604051600181527fc7f505b2f371ae2175ee4913f4499e1f2633a7b5936321eed1cdaeb6115181d29060200160405180910390a15b50505050505050565b606081518351146107725781518351604051635b05999160e01b8152600481019290925260248201526044016105d0565b600083516001600160401b0381111561078d5761078d611d90565b6040519080825280602002602001820160405280156107b6578160200160208202803683370190505b50905060005b845181101561080d576020808202860101516107e090602080840287010151610436565b8282815181106107f2576107f261229e565b6020908102919091010152610806816122ca565b90506107bc565b509392505050565b61081d610ff1565b61082682611096565b610830828261109e565b5050565b600061083e611160565b5060008051602061262183398151915290565b6108596111a9565b6108636000611204565b565b610830338383611275565b60048054604051632615fb8360e21b815233928101929092526000916001600160a01b0390911690639857ee0c90602401606060405180830381865afa1580156108be573d6000803e3d6000fd5b505050506040513d601f19601f820116820180604052508101906108e291906122e3565b905060008160200151116109485760405162461bcd60e51b815260206004820152602760248201527f496e73756666696369656e74206f7267616e697a657220726566657272616c206044820152666372656469747360c81b60648201526084016105d0565b600480546040516321ceab3d60e01b815233928101929092526000602483018190526001604484015260648301526001600160a01b0316906321ceab3d90608401600060405180830381600087803b1580156109a357600080fd5b505af11580156109b7573d6000803e3d6000fd5b5050506001600160a01b038316600081815260026020526040808220805460ff19166001179055513393507f212f044c14362659b4bfd486c672314c6629d0b1b9a3af8cc582483728f59ffe9190a35050565b3360009081526002602052604090205460ff16610a5f5760405162461bcd60e51b8152602060048201526013602482015272139bc81b9bdb5a5b985d1a5bdb88199bdd5b99606a1b60448201526064016105d0565b336000908152600260209081526040808320805460ff19169055805180830182528381528151928301909152918152610a98919061131d565b60405133907fcc2153c3826b58b98f4b210d27ef52c117703647e9ca570e3ad52ff6b43a98b290600090a2565b6001600160a01b0381166000908152600160205260408120546060918291808203610b025760405162461bcd60e51b81526004016105d09061233e565b600081815260208190526040902060028101548154829160018301916001600160a01b03909116908390610b3590612264565b80601f0160208091040260200160405190810160405280929190818152602001828054610b6190612264565b8015610bae5780601f10610b8357610100808354040283529160200191610bae565b820191906000526020600020905b815481529060010190602001808311610b9157829003601f168201915b50505050509250818054610bc190612264565b80601f0160208091040260200160405190810160405280929190818152602001828054610bed90612264565b8015610c3a5780601f10610c0f57610100808354040283529160200191610c3a565b820191906000526020600020905b815481529060010190602001808311610c1d57829003601f168201915b5050505050915094509450945050509193909250565b6001600160a01b0391821660009081527f88be536d5240c274a3b1d3a1be54482fd9caa294f08c62a7cde569f49a3c45016020908152604080832093909416825291909152205460ff1690565b336001600160a01b0386168114801590610cbe5750610cbc8682610c50565b155b15610cef5760405163711bec9160e11b81526001600160a01b038083166004830152871660248201526044016105d0565b6105e68686868686611405565b610d046111a9565b6001600160a01b038116610d2e57604051631e4fbdf760e01b8152600060048201526024016105d0565b610d3781611204565b50565b6003548111158015610d4b57508015155b610d675760405162461bcd60e51b81526004016105d09061233e565b600081815260208190526040902060028101546001600160a01b03163314610de65760405162461bcd60e51b815260206004820152602c60248201527f4f6e6c7920746865206f7267616e697a65722063616e2064657265676973746560448201526b72207468656d73656c76657360a01b60648201526084016105d0565b610df23383600161148a565b600082815260208190526040812090610e0b8282611c4d565b610e19600183016000611c4d565b5060020180546001600160a01b031916905560405182907fa6f0e87bd04d2b310bb6bbad6c11d3eb97b8ed6da96f9e85e9e05dc73f34f68990600090a25050565b6003548311158015610e6b57508215155b610e875760405162461bcd60e51b81526004016105d09061233e565b600083815260208190526040902060028101546001600160a01b03163314610f055760405162461bcd60e51b815260206004820152602b60248201527f4f6e6c7920746865206f7267616e697a65722063616e2075706461746520746860448201526a6569722070726f66696c6560a81b60648201526084016105d0565b80610f1084826123bb565b5060018101610f1f83826123bb565b50837f976bdb12703d0f562750445d624f0c551377b68e23149e6652c2eb9d5f5a1fb98484604051610f5292919061247a565b60405180910390a250505050565b6001600160a01b038416610f8a57604051632bfa23e760e11b8152600060048201526024016105d0565b6001600160a01b038516610fb357604051626a0d4560e21b8152600060048201526024016105d0565b610fc085858585856114ee565b5050505050565b610fcf611541565b610d378161158a565b610fe0611541565b610d378161159b565b610863611541565b306001600160a01b037f000000000000000000000000000000000000000000000000000000000000000016148061107857507f00000000000000000000000000000000000000000000000000000000000000006001600160a01b031661106c600080516020612621833981519152546001600160a01b031690565b6001600160a01b031614155b156108635760405163703e46dd60e11b815260040160405180910390fd5b610d376111a9565b816001600160a01b03166352d1902d6040518163ffffffff1660e01b8152600401602060405180830381865afa9250505080156110f8575060408051601f3d908101601f191682019092526110f59181019061249f565b60015b61112057604051634c9c8ce360e01b81526001600160a01b03831660048201526024016105d0565b600080516020612621833981519152811461115157604051632a87526960e21b8152600481018290526024016105d0565b61115b83836115a3565b505050565b306001600160a01b037f000000000000000000000000000000000000000000000000000000000000000016146108635760405163703e46dd60e11b815260040160405180910390fd5b336111db7f9016d09d72d40fdae2fd8ceac6b6234c7706214fd39c1cd1e609a0528c199300546001600160a01b031690565b6001600160a01b0316146108635760405163118cdaa760e01b81523360048201526024016105d0565b7f9016d09d72d40fdae2fd8ceac6b6234c7706214fd39c1cd1e609a0528c19930080546001600160a01b031981166001600160a01b03848116918217845560405192169182907f8be0079c531659141344cd1fd0a4f28419497f9722a3daafe3b4186f6b6457e090600090a3505050565b6000805160206126418339815191526001600160a01b0383166112ad5760405162ced3e160e81b8152600060048201526024016105d0565b6001600160a01b038481166000818152600184016020908152604080832094881680845294825291829020805460ff191687151590811790915591519182527f17307eab39ab6107e8899845ad3d59bd9653f200f220920489ca2b5937696c31910160405180910390a350505050565b6003805490600061132d836122ca565b9091555050600354604080516060810182528481526020808201859052338284018190526000858152918290529290208151819061136b90826123bb565b506020820151600182019061138090826123bb565b5060409182015160029190910180546001600160a01b0319166001600160a01b03928316179055821660009081526001602081815283832086905583519081019093529082526113d391839185916115f9565b817f95dc077d84b54de3120a028ca9cbdb05ade3275b3eb5f73f3a308e75fa83b31e8583604051610f529291906124b8565b6001600160a01b03841661142f57604051632bfa23e760e11b8152600060048201526024016105d0565b6001600160a01b03851661145857604051626a0d4560e21b8152600060048201526024016105d0565b6040805160018082526020820186905281830190815260608201859052608082019092529061073887878484876114ee565b6001600160a01b0383166114b357604051626a0d4560e21b8152600060048201526024016105d0565b604080516001808252602082018590528183019081526060820184905260a08201909252600060808201818152919291610fc0918791859085905b6114fa85858585611656565b6001600160a01b03841615610fc05782513390600103611533576020848101519084015161152c838989858589611884565b50506105e6565b6105e68187878787876119a8565b7ff0c57e16840df040f15088dc2f81fe391c3923bec73e23a9662efc9c229c6a0054600160401b900460ff1661086357604051631afcd79f60e31b815260040160405180910390fd5b611592611541565b610d3781611a91565b610d04611541565b6115ac82611acb565b6040516001600160a01b038316907fbc7cd75a20ee27fd9adebab32041f755214dbc6bffa90cc0225b39da2e5c2d3b90600090a28051156115f15761115b8282611b30565b610830611ba6565b6001600160a01b03841661162357604051632bfa23e760e11b8152600060048201526024016105d0565b604080516001808252602082018690528183019081526060820185905260808201909252906105e66000878484876114ee565b8051825160008051602061264183398151915291146116955782518251604051635b05999160e01b8152600481019290925260248201526044016105d0565b3360005b84518110156117a4576020818102868101820151908601909101516001600160a01b0389161561174c576000828152602086815260408083206001600160a01b038d16845290915290205481811015611725576040516303dee4c560e01b81526001600160a01b038b1660048201526024810182905260448101839052606481018490526084016105d0565b6000838152602087815260408083206001600160a01b038e16845290915290209082900390555b6001600160a01b03881615611791576000828152602086815260408083206001600160a01b038c1684529091528120805483929061178b9084906124e2565b90915550505b50508061179d906122ca565b9050611699565b5083516001036118255760208401516000906020850151909150866001600160a01b0316886001600160a01b0316846001600160a01b03167fc3d58168c5ae7397731d063d5bbf3d657854427343f4c083240f7aacaa2d0f628585604051611816929190918252602082015260400190565b60405180910390a450506105e6565b846001600160a01b0316866001600160a01b0316826001600160a01b03167f4a39dc06d4c0dbc64b70af90fd698a233a518aa5d07e595d983b8c0526c8f7fb87876040516118749291906124f5565b60405180910390a4505050505050565b6001600160a01b0384163b156105e65760405163f23a6e6160e01b81526001600160a01b0385169063f23a6e61906118c8908990899088908890889060040161251a565b6020604051808303816000875af1925050508015611903575060408051601f3d908101601f191682019092526119009181019061255f565b60015b61196c573d808015611931576040519150601f19603f3d011682016040523d82523d6000602084013e611936565b606091505b50805160000361196457604051632bfa23e760e11b81526001600160a01b03861660048201526024016105d0565b805181602001fd5b6001600160e01b0319811663f23a6e6160e01b1461073857604051632bfa23e760e11b81526001600160a01b03861660048201526024016105d0565b6001600160a01b0384163b156105e65760405163bc197c8160e01b81526001600160a01b0385169063bc197c81906119ec908990899088908890889060040161257c565b6020604051808303816000875af1925050508015611a27575060408051601f3d908101601f19168201909252611a249181019061255f565b60015b611a55573d808015611931576040519150601f19603f3d011682016040523d82523d6000602084013e611936565b6001600160e01b0319811663bc197c8160e01b1461073857604051632bfa23e760e11b81526001600160a01b03861660048201526024016105d0565b6000805160206126418339815191527f88be536d5240c274a3b1d3a1be54482fd9caa294f08c62a7cde569f49a3c450261115b83826123bb565b806001600160a01b03163b600003611b0157604051634c9c8ce360e01b81526001600160a01b03821660048201526024016105d0565b60008051602061262183398151915280546001600160a01b0319166001600160a01b0392909216919091179055565b6060600080846001600160a01b031684604051611b4d91906125da565b600060405180830381855af49150503d8060008114611b88576040519150601f19603f3d011682016040523d82523d6000602084013e611b8d565b606091505b5091509150611b9d858383611bc5565b95945050505050565b34156108635760405163b398979f60e01b815260040160405180910390fd5b606082611bda57611bd582611c24565b611c1d565b8151158015611bf157506001600160a01b0384163b155b15611c1a57604051639996b31560e01b81526001600160a01b03851660048201526024016105d0565b50805b9392505050565b805115611c345780518082602001fd5b604051630a12f52160e11b815260040160405180910390fd5b508054611c5990612264565b6000825580601f10611c69575050565b601f016020900490600052602060002090810190610d3791905b80821115611c975760008155600101611c83565b5090565b80356001600160a01b0381168114611cb257600080fd5b919050565b60008060408385031215611cca57600080fd5b611cd383611c9b565b946020939093013593505050565b6001600160e01b031981168114610d3757600080fd5b600060208284031215611d0957600080fd5b8135611c1d81611ce1565b600060208284031215611d2657600080fd5b5035919050565b60005b83811015611d48578181015183820152602001611d30565b50506000910152565b60008151808452611d69816020860160208601611d2d565b601f01601f19169290920160200192915050565b602081526000611c1d6020830184611d51565b634e487b7160e01b600052604160045260246000fd5b604051601f8201601f191681016001600160401b0381118282101715611dce57611dce611d90565b604052919050565b60006001600160401b03821115611def57611def611d90565b5060051b60200190565b600082601f830112611e0a57600080fd5b81356020611e1f611e1a83611dd6565b611da6565b82815260059290921b84018101918181019086841115611e3e57600080fd5b8286015b84811015611e595780358352918301918301611e42565b509695505050505050565b600082601f830112611e7557600080fd5b81356001600160401b03811115611e8e57611e8e611d90565b611ea1601f8201601f1916602001611da6565b818152846020838601011115611eb657600080fd5b816020850160208301376000918101602001919091529392505050565b600080600080600060a08688031215611eeb57600080fd5b611ef486611c9b565b9450611f0260208701611c9b565b935060408601356001600160401b0380821115611f1e57600080fd5b611f2a89838a01611df9565b94506060880135915080821115611f4057600080fd5b611f4c89838a01611df9565b93506080880135915080821115611f6257600080fd5b50611f6f88828901611e64565b9150509295509295909350565b60008060408385031215611f8f57600080fd5b611f9883611c9b565b9150611fa660208401611c9b565b90509250929050565b60008060408385031215611fc257600080fd5b82356001600160401b0380821115611fd957600080fd5b818501915085601f830112611fed57600080fd5b81356020611ffd611e1a83611dd6565b82815260059290921b8401810191818101908984111561201c57600080fd5b948201945b838610156120415761203286611c9b565b82529482019490820190612021565b9650508601359250508082111561205757600080fd5b5061206485828601611df9565b9150509250929050565b600081518084526020808501945080840160005b8381101561209e57815187529582019590820190600101612082565b509495945050505050565b602081526000611c1d602083018461206e565b600080604083850312156120cf57600080fd5b6120d883611c9b565b915060208301356001600160401b038111156120f357600080fd5b61206485828601611e64565b6000806040838503121561211257600080fd5b61211b83611c9b565b91506020830135801515811461213057600080fd5b809150509250929050565b60006020828403121561214d57600080fd5b611c1d82611c9b565b6060815260006121696060830186611d51565b828103602084015261217b8186611d51565b91505060018060a01b0383166040830152949350505050565b600080600080600060a086880312156121ac57600080fd5b6121b586611c9b565b94506121c360208701611c9b565b9350604086013592506060860135915060808601356001600160401b038111156121ec57600080fd5b611f6f88828901611e64565b60008060006060848603121561220d57600080fd5b8335925060208401356001600160401b038082111561222b57600080fd5b61223787838801611e64565b9350604086013591508082111561224d57600080fd5b5061225a86828701611e64565b9150509250925092565b600181811c9082168061227857607f821691505b60208210810361229857634e487b7160e01b600052602260045260246000fd5b50919050565b634e487b7160e01b600052603260045260246000fd5b634e487b7160e01b600052601160045260246000fd5b6000600182016122dc576122dc6122b4565b5060010190565b6000606082840312156122f557600080fd5b604051606081018181106001600160401b038211171561231757612317611d90565b80604052508251815260208301516020820152604083015160408201528091505092915050565b60208082526018908201527f4f7267616e697a657220646f6573206e6f742065786973740000000000000000604082015260600190565b601f82111561115b57600081815260208120601f850160051c8101602086101561239c5750805b601f850160051c820191505b818110156105e6578281556001016123a8565b81516001600160401b038111156123d4576123d4611d90565b6123e8816123e28454612264565b84612375565b602080601f83116001811461241d57600084156124055750858301515b600019600386901b1c1916600185901b1785556105e6565b600085815260208120601f198616915b8281101561244c5788860151825594840194600190910190840161242d565b508582101561246a5787850151600019600388901b60f8161c191681555b5050505050600190811b01905550565b60408152600061248d6040830185611d51565b8281036020840152611b9d8185611d51565b6000602082840312156124b157600080fd5b5051919050565b6040815260006124cb6040830185611d51565b905060018060a01b03831660208301529392505050565b80820180821115610467576104676122b4565b604081526000612508604083018561206e565b8281036020840152611b9d818561206e565b6001600160a01b03868116825285166020820152604081018490526060810183905260a06080820181905260009061255490830184611d51565b979650505050505050565b60006020828403121561257157600080fd5b8151611c1d81611ce1565b6001600160a01b0386811682528516602082015260a0604082018190526000906125a89083018661206e565b82810360608401526125ba818661206e565b905082810360808401526125ce8185611d51565b98975050505050505050565b600082516125ec818460208701611d2d565b919091019291505056fe68747470733a2f2f6170692e796f75726170702e636f6d2f6d657461646174612f7b69647d2e6a736f6e360894a13ba1a3210667c828492db98dca3e2076cc3735a920a3ca505d382bbc88be536d5240c274a3b1d3a1be54482fd9caa294f08c62a7cde569f49a3c4500a2646970667358221220ef1f9c72a67d2bb791b4aa34fed430b184de335348216045a03d22b024af4efa64736f6c6343000814003360806040526040516104e13803806104e1833981016040819052610022916102de565b61002e82826000610035565b50506103fb565b61003e83610061565b60008251118061004b5750805b1561005c5761005a83836100a1565b505b505050565b61006a816100cd565b6040516001600160a01b038216907fbc7cd75a20ee27fd9adebab32041f755214dbc6bffa90cc0225b39da2e5c2d3b90600090a250565b60606100c683836040518060600160405280602781526020016104ba60279139610180565b9392505050565b6001600160a01b0381163b61013f5760405162461bcd60e51b815260206004820152602d60248201527f455243313936373a206e657720696d706c656d656e746174696f6e206973206e60448201526c1bdd08184818dbdb9d1c9858dd609a1b60648201526084015b60405180910390fd5b7f360894a13ba1a3210667c828492db98dca3e2076cc3735a920a3ca505d382bbc80546001600160a01b0319166001600160a01b0392909216919091179055565b6060600080856001600160a01b03168560405161019d91906103ac565b600060405180830381855af49150503d80600081146101d8576040519150601f19603f3d011682016040523d82523d6000602084013e6101dd565b606091505b5090925090506101ef868383876101f9565b9695505050505050565b60608315610268578251600003610261576001600160a01b0385163b6102615760405162461bcd60e51b815260206004820152601d60248201527f416464726573733a2063616c6c20746f206e6f6e2d636f6e74726163740000006044820152606401610136565b5081610272565b610272838361027a565b949350505050565b81511561028a5781518083602001fd5b8060405162461bcd60e51b815260040161013691906103c8565b634e487b7160e01b600052604160045260246000fd5b60005b838110156102d55781810151838201526020016102bd565b50506000910152565b600080604083850312156102f157600080fd5b82516001600160a01b038116811461030857600080fd5b60208401519092506001600160401b038082111561032557600080fd5b818501915085601f83011261033957600080fd5b81518181111561034b5761034b6102a4565b604051601f8201601f19908116603f01168101908382118183101715610373576103736102a4565b8160405282815288602084870101111561038c57600080fd5b61039d8360208301602088016102ba565b80955050505050509250929050565b600082516103be8184602087016102ba565b9190910192915050565b60208152600082518060208401526103e78160408501602087016102ba565b601f01601f19169190910160400192915050565b60b1806104096000396000f3fe608060405236601057600e6013565b005b600e5b601f601b6021565b6058565b565b600060537f360894a13ba1a3210667c828492db98dca3e2076cc3735a920a3ca505d382bbc546001600160a01b031690565b905090565b3660008037600080366000845af43d6000803e8080156076573d6000f35b3d6000fdfea264697066735822122027f562cde8265aa90118a53b2f65370962feb418519bf39bfc7ccbb34402bb5164736f6c63430008140033416464726573733a206c6f772d6c6576656c2064656c65676174652063616c6c206661696c6564a2646970667358221220a5b9f311fe97484df6b65b734c54c6003001d43193a72fc70315956a9ed01fe764736f6c63430008140033608060405234801561001057600080fd5b50612d58806100206000396000f3fe608060405234801561001057600080fd5b506004361061002b5760003560e01c80631b02250414610030575b600080fd5b61004361003e366004610153565b61005f565b6040516001600160a01b03909116815260200160405180910390f35b60008060405161006e9061011d565b604051809103906000f08015801561008a573d6000803e3d6000fd5b50604080516001600160a01b038781166024830152861660448083019190915282518083039091018152606490910182526020810180516001600160e01b031663485cc95560e01b179052905191925090600090839083906100eb9061012a565b6100f6929190610186565b604051809103906000f080158015610112573d6000803e3d6000fd5b509695505050505050565b61265d806101e583390190565b6104e18061284283390190565b80356001600160a01b038116811461014e57600080fd5b919050565b6000806040838503121561016657600080fd5b61016f83610137565b915061017d60208401610137565b90509250929050565b60018060a01b038316815260006020604081840152835180604085015260005b818110156101c2578581018301518582016060015282016101a6565b506000606082860101526060601f19601f83011685010192505050939250505056fe60a06040523060805234801561001457600080fd5b5060805161261f61003e6000396000818161100001528181611029015261116f015261261f6000f3fe6080604052600436106101295760003560e01c8063715018a6116100ab578063b332180b1161006f578063b332180b14610371578063b4ec198014610391578063d3468de7146103c1578063e985e9c5146103d6578063f242432a146103f6578063f2fde38b1461041657600080fd5b8063715018a6146102955780638da5cb5b146102aa5780639873f738146102f1578063a22cb46514610320578063ad3cb1cc1461034057600080fd5b8063485cc955116100f2578063485cc955146102005780634e1273f4146102205780634f1ef2861461024d57806352d1902d146102605780636e343b941461027557600080fd5b8062fdd58e1461012e57806301ffc9a7146101615780630e89341c146101915780632e63de1c146101be5780632eb2c2d6146101e0575b600080fd5b34801561013a57600080fd5b5061014e610149366004611c5f565b610436565b6040519081526020015b60405180910390f35b34801561016d57600080fd5b5061018161017c366004611c9f565b61046d565b6040519015158152602001610158565b34801561019d57600080fd5b506101b16101ac366004611cbc565b6104bd565b6040516101589190611d25565b3480156101ca57600080fd5b506101de6101d9366004611cbc565b610582565b005b3480156101ec57600080fd5b506101de6101fb366004611e7b565b610645565b34801561020c57600080fd5b506101de61021b366004611f24565b6106ac565b34801561022c57600080fd5b5061024061023b366004611f57565b6107ff565b6040516101589190612051565b6101de61025b366004612064565b6108d3565b34801561026c57600080fd5b5061014e6108f2565b34801561028157600080fd5b506101de6102903660046120a7565b61090f565b3480156102a157600080fd5b506101de6109ca565b3480156102b657600080fd5b507f9016d09d72d40fdae2fd8ceac6b6234c7706214fd39c1cd1e609a0528c199300546040516001600160a01b039091168152602001610158565b3480156102fd57600080fd5b5061031161030c366004612113565b6109de565b6040516101589392919061212e565b34801561032c57600080fd5b506101de61033b36600461216c565b610bac565b34801561034c57600080fd5b506101b1604051806040016040528060058152602001640352e302e360dc1b81525081565b34801561037d57600080fd5b506101de61038c366004612113565b610bb7565b34801561039d57600080fd5b506101816103ac366004612113565b60026020526000908152604090205460ff1681565b3480156103cd57600080fd5b506101de610d4c565b3480156103e257600080fd5b506101816103f1366004611f24565b610e12565b34801561040257600080fd5b506101de6104113660046121a8565b610e5f565b34801561042257600080fd5b506101de610431366004612113565b610ebe565b60008181526000805160206125ca833981519152602090815260408083206001600160a01b03861684529091529020545b92915050565b60006001600160e01b03198216636cdb3d1360e11b148061049e57506001600160e01b031982166303a24d0760e21b145b8061046757506301ffc9a760e01b6001600160e01b0319831614610467565b7f88be536d5240c274a3b1d3a1be54482fd9caa294f08c62a7cde569f49a3c450280546060916000805160206125ca833981519152916104fc9061220c565b80601f01602080910402602001604051908101604052809291908181526020018280546105289061220c565b80156105755780601f1061054a57610100808354040283529160200191610575565b820191906000526020600020905b81548152906001019060200180831161055857829003601f168201915b5050505050915050919050565b60035481111580156105ad57506000818152602081905260409020600201546001600160a01b031633145b6105d25760405162461bcd60e51b81526004016105c990612246565b60405180910390fd5b6105de33826001610efc565b6000818152602081905260408120906105f78282611bf5565b610605600183016000611bf5565b5060020180546001600160a01b031916905560405181907fee0cdc4ae3243e3824b2d6e7fdc29bc86356054f8729d89bb1f980e436ebf45690600090a250565b336001600160a01b038616811480159061066657506106648682610e12565b155b156106975760405163711bec9160e11b81526001600160a01b038083166004830152871660248201526044016105c9565b6106a48686868686610f6b565b505050505050565b7ff0c57e16840df040f15088dc2f81fe391c3923bec73e23a9662efc9c229c6a008054600160401b810460ff1615906001600160401b03166000811580156106f15750825b90506000826001600160401b0316600114801561070d5750303b155b90508115801561071b575080155b156107395760405163f92ee8a960e01b815260040160405180910390fd5b845467ffffffffffffffff19166001178555831561076357845460ff60401b1916600160401b1785555b6107846040518060600160405280602a8152602001612580602a9139610fcb565b61078d87610fdc565b610795610fed565b600480546001600160a01b0319166001600160a01b03881617905583156107f657845460ff60401b19168555604051600181527fc7f505b2f371ae2175ee4913f4499e1f2633a7b5936321eed1cdaeb6115181d29060200160405180910390a15b50505050505050565b606081518351146108305781518351604051635b05999160e01b8152600481019290925260248201526044016105c9565b600083516001600160401b0381111561084b5761084b611d38565b604051908082528060200260200182016040528015610874578160200160208202803683370190505b50905060005b84518110156108cb5760208082028601015161089e90602080840287010151610436565b8282815181106108b0576108b0612288565b60209081029190910101526108c4816122b4565b905061087a565b509392505050565b6108db610ff5565b6108e48261109a565b6108ee82826110a2565b5050565b60006108fc611164565b506000805160206125aa83398151915290565b600354831115801561093a57506000838152602081905260409020600201546001600160a01b031633145b6109565760405162461bcd60e51b81526004016105c990612246565b600083815260208190526040902061096e8382612313565b50600083815260208190526040902060010161098a8282612313565b50827fe0fa826bef29f45d944c7f492f1c8d4af09825b9ebeda6fc8857301b212fefee83836040516109bd9291906123d2565b60405180910390a2505050565b6109d26111ad565b6109dc6000611208565b565b6001600160a01b0381166000908152600160205260408120546060918291808203610a425760405162461bcd60e51b815260206004820152601460248201527315995b9d5948191bd95cc81b9bdd08195e1a5cdd60621b60448201526064016105c9565b600081815260208190526040808220815160608101909252805482908290610a699061220c565b80601f0160208091040260200160405190810160405280929190818152602001828054610a959061220c565b8015610ae25780601f10610ab757610100808354040283529160200191610ae2565b820191906000526020600020905b815481529060010190602001808311610ac557829003601f168201915b50505050508152602001600182018054610afb9061220c565b80601f0160208091040260200160405190810160405280929190818152602001828054610b279061220c565b8015610b745780601f10610b4957610100808354040283529160200191610b74565b820191906000526020600020905b815481529060010190602001808311610b5757829003601f168201915b5050509183525050600291909101546001600160a01b0316602091820152815190820151604090920151909891975095509350505050565b6108ee338383611279565b60048054604051632615fb8360e21b815233928101929092526000916001600160a01b0390911690639857ee0c90602401606060405180830381865afa158015610c05573d6000803e3d6000fd5b505050506040513d601f19601f82011682018060405250810190610c2991906123f7565b90506000816040015111610c8b5760405162461bcd60e51b815260206004820152602360248201527f496e73756666696369656e742076656e756520726566657272616c206372656460448201526269747360e81b60648201526084016105c9565b600480546040516321ceab3d60e01b815233928101929092526000602483018190526044830152600160648301526001600160a01b0316906321ceab3d90608401600060405180830381600087803b158015610ce657600080fd5b505af1158015610cfa573d6000803e3d6000fd5b5050506001600160a01b038316600081815260026020526040808220805460ff19166001179055519192507f179ea4397e946d9cae2283c1107800f5a4cc157ad746eb00b9b310a20b1535e791a25050565b3360009081526002602052604090205460ff16610da15760405162461bcd60e51b8152602060048201526013602482015272139bc81b9bdb5a5b985d1a5bdb88199bdd5b99606a1b60448201526064016105c9565b336000908152600260209081526040808320805460ff19169055805180830182528381528151928301909152918152610dda9190611321565b6003546040513381527f4108d491dd9d5aec1ab384350857e890c9670a0cfc211b075c99d187b8d4cc449060200160405180910390a2565b6001600160a01b0391821660009081527f88be536d5240c274a3b1d3a1be54482fd9caa294f08c62a7cde569f49a3c45016020908152604080832093909416825291909152205460ff1690565b336001600160a01b0386168114801590610e805750610e7e8682610e12565b155b15610eb15760405163711bec9160e11b81526001600160a01b038083166004830152871660248201526044016105c9565b6106a48686868686611415565b610ec66111ad565b6001600160a01b038116610ef057604051631e4fbdf760e01b8152600060048201526024016105c9565b610ef981611208565b50565b6001600160a01b038316610f2557604051626a0d4560e21b8152600060048201526024016105c9565b604080516001808252602082018590528183019081526060820184905260a08201909252600060808201818152919291610f6491879185908590611496565b5050505050565b6001600160a01b038416610f9557604051632bfa23e760e11b8152600060048201526024016105c9565b6001600160a01b038516610fbe57604051626a0d4560e21b8152600060048201526024016105c9565b610f648585858585611496565b610fd36114e9565b610ef981611532565b610fe46114e9565b610ef981611543565b6109dc6114e9565b306001600160a01b037f000000000000000000000000000000000000000000000000000000000000000016148061107c57507f00000000000000000000000000000000000000000000000000000000000000006001600160a01b03166110706000805160206125aa833981519152546001600160a01b031690565b6001600160a01b031614155b156109dc5760405163703e46dd60e11b815260040160405180910390fd5b610ef96111ad565b816001600160a01b03166352d1902d6040518163ffffffff1660e01b8152600401602060405180830381865afa9250505080156110fc575060408051601f3d908101601f191682019092526110f991810190612452565b60015b61112457604051634c9c8ce360e01b81526001600160a01b03831660048201526024016105c9565b6000805160206125aa833981519152811461115557604051632a87526960e21b8152600481018290526024016105c9565b61115f838361154b565b505050565b306001600160a01b037f000000000000000000000000000000000000000000000000000000000000000016146109dc5760405163703e46dd60e11b815260040160405180910390fd5b336111df7f9016d09d72d40fdae2fd8ceac6b6234c7706214fd39c1cd1e609a0528c199300546001600160a01b031690565b6001600160a01b0316146109dc5760405163118cdaa760e01b81523360048201526024016105c9565b7f9016d09d72d40fdae2fd8ceac6b6234c7706214fd39c1cd1e609a0528c19930080546001600160a01b031981166001600160a01b03848116918217845560405192169182907f8be0079c531659141344cd1fd0a4f28419497f9722a3daafe3b4186f6b6457e090600090a3505050565b6000805160206125ca8339815191526001600160a01b0383166112b15760405162ced3e160e81b8152600060048201526024016105c9565b6001600160a01b038481166000818152600184016020908152604080832094881680845294825291829020805460ff191687151590811790915591519182527f17307eab39ab6107e8899845ad3d59bd9653f200f220920489ca2b5937696c31910160405180910390a350505050565b60038054906000611331836122b4565b9091555050600354604080516060810182528481526020808201859052338284018190526000858152918290529290208151819061136f9082612313565b50602082015160018201906113849082612313565b5060409182015160029190910180546001600160a01b0319166001600160a01b03928316179055821660009081526001602081815283832086905583519081019093529082526113d791839185916115a1565b817f4a1a8dd345d4634777a7739c3a6f69bce4bef57cb87046f252ae16bca95a7623856040516114079190611d25565b60405180910390a250505050565b6001600160a01b03841661143f57604051632bfa23e760e11b8152600060048201526024016105c9565b6001600160a01b03851661146857604051626a0d4560e21b8152600060048201526024016105c9565b604080516001808252602082018690528183019081526060820185905260808201909252906107f687878484875b6114a2858585856115fe565b6001600160a01b03841615610f6457825133906001036114db57602084810151908401516114d483898985858961182c565b50506106a4565b6106a4818787878787611950565b7ff0c57e16840df040f15088dc2f81fe391c3923bec73e23a9662efc9c229c6a0054600160401b900460ff166109dc57604051631afcd79f60e31b815260040160405180910390fd5b61153a6114e9565b610ef981611a39565b610ec66114e9565b61155482611a73565b6040516001600160a01b038316907fbc7cd75a20ee27fd9adebab32041f755214dbc6bffa90cc0225b39da2e5c2d3b90600090a28051156115995761115f8282611ad8565b6108ee611b4e565b6001600160a01b0384166115cb57604051632bfa23e760e11b8152600060048201526024016105c9565b604080516001808252602082018690528183019081526060820185905260808201909252906106a4600087848487611496565b805182516000805160206125ca833981519152911461163d5782518251604051635b05999160e01b8152600481019290925260248201526044016105c9565b3360005b845181101561174c576020818102868101820151908601909101516001600160a01b038916156116f4576000828152602086815260408083206001600160a01b038d168452909152902054818110156116cd576040516303dee4c560e01b81526001600160a01b038b1660048201526024810182905260448101839052606481018490526084016105c9565b6000838152602087815260408083206001600160a01b038e16845290915290209082900390555b6001600160a01b03881615611739576000828152602086815260408083206001600160a01b038c1684529091528120805483929061173390849061246b565b90915550505b505080611745906122b4565b9050611641565b5083516001036117cd5760208401516000906020850151909150866001600160a01b0316886001600160a01b0316846001600160a01b03167fc3d58168c5ae7397731d063d5bbf3d657854427343f4c083240f7aacaa2d0f6285856040516117be929190918252602082015260400190565b60405180910390a450506106a4565b846001600160a01b0316866001600160a01b0316826001600160a01b03167f4a39dc06d4c0dbc64b70af90fd698a233a518aa5d07e595d983b8c0526c8f7fb878760405161181c92919061247e565b60405180910390a4505050505050565b6001600160a01b0384163b156106a45760405163f23a6e6160e01b81526001600160a01b0385169063f23a6e619061187090899089908890889088906004016124a3565b6020604051808303816000875af19250505080156118ab575060408051601f3d908101601f191682019092526118a8918101906124e8565b60015b611914573d8080156118d9576040519150601f19603f3d011682016040523d82523d6000602084013e6118de565b606091505b50805160000361190c57604051632bfa23e760e11b81526001600160a01b03861660048201526024016105c9565b805181602001fd5b6001600160e01b0319811663f23a6e6160e01b146107f657604051632bfa23e760e11b81526001600160a01b03861660048201526024016105c9565b6001600160a01b0384163b156106a45760405163bc197c8160e01b81526001600160a01b0385169063bc197c81906119949089908990889088908890600401612505565b6020604051808303816000875af19250505080156119cf575060408051601f3d908101601f191682019092526119cc918101906124e8565b60015b6119fd573d8080156118d9576040519150601f19603f3d011682016040523d82523d6000602084013e6118de565b6001600160e01b0319811663bc197c8160e01b146107f657604051632bfa23e760e11b81526001600160a01b03861660048201526024016105c9565b6000805160206125ca8339815191527f88be536d5240c274a3b1d3a1be54482fd9caa294f08c62a7cde569f49a3c450261115f8382612313565b806001600160a01b03163b600003611aa957604051634c9c8ce360e01b81526001600160a01b03821660048201526024016105c9565b6000805160206125aa83398151915280546001600160a01b0319166001600160a01b0392909216919091179055565b6060600080846001600160a01b031684604051611af59190612563565b600060405180830381855af49150503d8060008114611b30576040519150601f19603f3d011682016040523d82523d6000602084013e611b35565b606091505b5091509150611b45858383611b6d565b95945050505050565b34156109dc5760405163b398979f60e01b815260040160405180910390fd5b606082611b8257611b7d82611bcc565b611bc5565b8151158015611b9957506001600160a01b0384163b155b15611bc257604051639996b31560e01b81526001600160a01b03851660048201526024016105c9565b50805b9392505050565b805115611bdc5780518082602001fd5b604051630a12f52160e11b815260040160405180910390fd5b508054611c019061220c565b6000825580601f10611c11575050565b601f016020900490600052602060002090810190610ef991905b80821115611c3f5760008155600101611c2b565b5090565b80356001600160a01b0381168114611c5a57600080fd5b919050565b60008060408385031215611c7257600080fd5b611c7b83611c43565b946020939093013593505050565b6001600160e01b031981168114610ef957600080fd5b600060208284031215611cb157600080fd5b8135611bc581611c89565b600060208284031215611cce57600080fd5b5035919050565b60005b83811015611cf0578181015183820152602001611cd8565b50506000910152565b60008151808452611d11816020860160208601611cd5565b601f01601f19169290920160200192915050565b602081526000611bc56020830184611cf9565b634e487b7160e01b600052604160045260246000fd5b604051601f8201601f191681016001600160401b0381118282101715611d7657611d76611d38565b604052919050565b60006001600160401b03821115611d9757611d97611d38565b5060051b60200190565b600082601f830112611db257600080fd5b81356020611dc7611dc283611d7e565b611d4e565b82815260059290921b84018101918181019086841115611de657600080fd5b8286015b84811015611e015780358352918301918301611dea565b509695505050505050565b600082601f830112611e1d57600080fd5b81356001600160401b03811115611e3657611e36611d38565b611e49601f8201601f1916602001611d4e565b818152846020838601011115611e5e57600080fd5b816020850160208301376000918101602001919091529392505050565b600080600080600060a08688031215611e9357600080fd5b611e9c86611c43565b9450611eaa60208701611c43565b935060408601356001600160401b0380821115611ec657600080fd5b611ed289838a01611da1565b94506060880135915080821115611ee857600080fd5b611ef489838a01611da1565b93506080880135915080821115611f0a57600080fd5b50611f1788828901611e0c565b9150509295509295909350565b60008060408385031215611f3757600080fd5b611f4083611c43565b9150611f4e60208401611c43565b90509250929050565b60008060408385031215611f6a57600080fd5b82356001600160401b0380821115611f8157600080fd5b818501915085601f830112611f9557600080fd5b81356020611fa5611dc283611d7e565b82815260059290921b84018101918181019089841115611fc457600080fd5b948201945b83861015611fe957611fda86611c43565b82529482019490820190611fc9565b96505086013592505080821115611fff57600080fd5b5061200c85828601611da1565b9150509250929050565b600081518084526020808501945080840160005b838110156120465781518752958201959082019060010161202a565b509495945050505050565b602081526000611bc56020830184612016565b6000806040838503121561207757600080fd5b61208083611c43565b915060208301356001600160401b0381111561209b57600080fd5b61200c85828601611e0c565b6000806000606084860312156120bc57600080fd5b8335925060208401356001600160401b03808211156120da57600080fd5b6120e687838801611e0c565b935060408601359150808211156120fc57600080fd5b5061210986828701611e0c565b9150509250925092565b60006020828403121561212557600080fd5b611bc582611c43565b6060815260006121416060830186611cf9565b82810360208401526121538186611cf9565b91505060018060a01b0383166040830152949350505050565b6000806040838503121561217f57600080fd5b61218883611c43565b91506020830135801515811461219d57600080fd5b809150509250929050565b600080600080600060a086880312156121c057600080fd5b6121c986611c43565b94506121d760208701611c43565b9350604086013592506060860135915060808601356001600160401b0381111561220057600080fd5b611f1788828901611e0c565b600181811c9082168061222057607f821691505b60208210810361224057634e487b7160e01b600052602260045260246000fd5b50919050565b60208082526022908201527f556e617574686f72697a6564206f72206e6f6e2d6578697374656e742076656e604082015261756560f01b606082015260800190565b634e487b7160e01b600052603260045260246000fd5b634e487b7160e01b600052601160045260246000fd5b6000600182016122c6576122c661229e565b5060010190565b601f82111561115f57600081815260208120601f850160051c810160208610156122f45750805b601f850160051c820191505b818110156106a457828155600101612300565b81516001600160401b0381111561232c5761232c611d38565b6123408161233a845461220c565b846122cd565b602080601f831160018114612375576000841561235d5750858301515b600019600386901b1c1916600185901b1785556106a4565b600085815260208120601f198616915b828110156123a457888601518255948401946001909101908401612385565b50858210156123c25787850151600019600388901b60f8161c191681555b5050505050600190811b01905550565b6040815260006123e56040830185611cf9565b8281036020840152611b458185611cf9565b60006060828403121561240957600080fd5b604051606081018181106001600160401b038211171561242b5761242b611d38565b80604052508251815260208301516020820152604083015160408201528091505092915050565b60006020828403121561246457600080fd5b5051919050565b808201808211156104675761046761229e565b6040815260006124916040830185612016565b8281036020840152611b458185612016565b6001600160a01b03868116825285166020820152604081018490526060810183905260a0608082018190526000906124dd90830184611cf9565b979650505050505050565b6000602082840312156124fa57600080fd5b8151611bc581611c89565b6001600160a01b0386811682528516602082015260a06040820181905260009061253190830186612016565b82810360608401526125438186612016565b905082810360808401526125578185611cf9565b98975050505050505050565b60008251612575818460208701611cd5565b919091019291505056fe68747470733a2f2f6170692e796f75726170702e636f6d2f6d657461646174612f7b69647d2e6a736f6e360894a13ba1a3210667c828492db98dca3e2076cc3735a920a3ca505d382bbc88be536d5240c274a3b1d3a1be54482fd9caa294f08c62a7cde569f49a3c4500a264697066735822122025074bb044f65513caeb5c83b5fd8e5cc333cc7d3d4cc06a3e9450fbc6bc7bcd64736f6c6343000814003360806040526040516104e13803806104e1833981016040819052610022916102de565b61002e82826000610035565b50506103fb565b61003e83610061565b60008251118061004b5750805b1561005c5761005a83836100a1565b505b505050565b61006a816100cd565b6040516001600160a01b038216907fbc7cd75a20ee27fd9adebab32041f755214dbc6bffa90cc0225b39da2e5c2d3b90600090a250565b60606100c683836040518060600160405280602781526020016104ba60279139610180565b9392505050565b6001600160a01b0381163b61013f5760405162461bcd60e51b815260206004820152602d60248201527f455243313936373a206e657720696d706c656d656e746174696f6e206973206e60448201526c1bdd08184818dbdb9d1c9858dd609a1b60648201526084015b60405180910390fd5b7f360894a13ba1a3210667c828492db98dca3e2076cc3735a920a3ca505d382bbc80546001600160a01b0319166001600160a01b0392909216919091179055565b6060600080856001600160a01b03168560405161019d91906103ac565b600060405180830381855af49150503d80600081146101d8576040519150601f19603f3d011682016040523d82523d6000602084013e6101dd565b606091505b5090925090506101ef868383876101f9565b9695505050505050565b60608315610268578251600003610261576001600160a01b0385163b6102615760405162461bcd60e51b815260206004820152601d60248201527f416464726573733a2063616c6c20746f206e6f6e2d636f6e74726163740000006044820152606401610136565b5081610272565b610272838361027a565b949350505050565b81511561028a5781518083602001fd5b8060405162461bcd60e51b815260040161013691906103c8565b634e487b7160e01b600052604160045260246000fd5b60005b838110156102d55781810151838201526020016102bd565b50506000910152565b600080604083850312156102f157600080fd5b82516001600160a01b038116811461030857600080fd5b60208401519092506001600160401b038082111561032557600080fd5b818501915085601f83011261033957600080fd5b81518181111561034b5761034b6102a4565b604051601f8201601f19908116603f01168101908382118183101715610373576103736102a4565b8160405282815288602084870101111561038c57600080fd5b61039d8360208301602088016102ba565b80955050505050509250929050565b600082516103be8184602087016102ba565b9190910192915050565b60208152600082518060208401526103e78160408501602087016102ba565b601f01601f19169190910160400192915050565b60b1806104096000396000f3fe608060405236601057600e6013565b005b600e5b601f601b6021565b6058565b565b600060537f360894a13ba1a3210667c828492db98dca3e2076cc3735a920a3ca505d382bbc546001600160a01b031690565b905090565b3660008037600080366000845af43d6000803e8080156076573d6000f35b3d6000fdfea264697066735822122027f562cde8265aa90118a53b2f65370962feb418519bf39bfc7ccbb34402bb5164736f6c63430008140033416464726573733a206c6f772d6c6576656c2064656c65676174652063616c6c206661696c6564a264697066735822122032a2b0c432698a38d7e45def1fc99280e61d7beb52db3582959ff23d286a7a1664736f6c63430008140033608060405234801561001057600080fd5b50614e2d806100206000396000f3fe608060405234801561001057600080fd5b506004361061002b5760003560e01c806360d6115314610030575b600080fd5b61004361003e36600461012e565b61005f565b6040516001600160a01b03909116815260200160405180910390f35b60008060405161006e90610114565b604051809103906000f08015801561008a573d6000803e3d6000fd5b50604080516001600160a01b03861660248083019190915282518083039091018152604490910182526020810180516001600160e01b031663189acdbd60e31b179052905191925090600090839083906100e390610121565b6100ee92919061015e565b604051809103906000f08015801561010a573d6000803e3d6000fd5b5095945050505050565b61475a806101bd83390190565b6104e18061491783390190565b60006020828403121561014057600080fd5b81356001600160a01b038116811461015757600080fd5b9392505050565b60018060a01b038316815260006020604081840152835180604085015260005b8181101561019a5785810183015185820160600152820161017e565b506000606082860101526060601f19601f83011685010192505050939250505056fe60a0604052306080526014805460ff60a01b1916905534801561002157600080fd5b5060805161470f61004b600039600081816130590152818161308201526131c8015261470f6000f3fe60806040526004361061036b5760003560e01c80637dad19db116101c6578063bd47dc5c116100f7578063de44006f11610095578063ef5023a51161006f578063ef5023a514610bdc578063f2fde38b14610bfc578063f812187314610c1c578063fca4655914610c3c57600080fd5b8063de44006f14610b7c578063e30228be14610b9c578063e9acfa7c14610bbc57600080fd5b8063c56f70fd116100d1578063c56f70fd14610ab3578063c6ab848a14610ad3578063c73a839c14610af3578063cfefb3d514610b5c57600080fd5b8063bd47dc5c14610a3b578063be44d38d14610a5b578063c4d66de814610a9357600080fd5b80638e5298a511610164578063977cb89e1161013e578063977cb89e14610969578063a2c8624c146109a2578063ad3cb1cc146109c2578063bafd4eb014610a0057600080fd5b80638e5298a5146108e4578063925e8f891461090457806393d4e1001461093157600080fd5b8063867e68af116101a0578063867e68af146108145780638d700eaf146108415780638da5cb5b146108875780638dea15a1146108c457600080fd5b80637dad19db146107c157806385266635146107e157806385ffa16c146107f457600080fd5b806346079335116102a05780635b9a1e091161023e57806366bc64cd1161021857806366bc64cd1461074c578063703ee4e51461076c578063715018a61461078c5780637d8d6a22146107a157600080fd5b80635b9a1e09146106c257806361041870146106ef578063620ec1e41461071c57600080fd5b80634f1ef2861161027a5780634f1ef2861461065a578063518193351461066d57806352d1902d1461068d57806358a86e1d146106a257600080fd5b806346079335146105a157806346c2c8a7146105dc5780634ed372da1461061c57600080fd5b80631cf2103e1161030d57806331a68da0116102e757806331a68da0146105215780633c60d2d61461054157806341adf3ad146105615780634365c06e1461058157600080fd5b80631cf2103e1461049357806327b1bf52146104b35780632f18ddfe146104e957600080fd5b80630d08c3c9116103495780630d08c3c9146103ff578063129e086b1461041f578063164889061461043f5780631a348e621461046357600080fd5b80630233ce6a1461037057806302c9a8b5146103ad578063054372ed146103dd575b600080fd5b34801561037c57600080fd5b50601054610390906001600160a01b031681565b6040516001600160a01b0390911681526020015b60405180910390f35b3480156103b957600080fd5b506103cd6103c8366004613893565b610c75565b60405190151581526020016103a4565b3480156103e957600080fd5b506103fd6103f83660046138bf565b610ca2565b005b34801561040b57600080fd5b506103fd61041a3660046138f3565b610d63565b34801561042b57600080fd5b506103fd61043a366004613915565b610e48565b34801561044b57600080fd5b5061045560015481565b6040519081526020016103a4565b34801561046f57600080fd5b5061045561047e366004613915565b6000908152600260205260409020600d015490565b34801561049f57600080fd5b50601354610390906001600160a01b031681565b3480156104bf57600080fd5b506104d36104ce366004613915565b611341565b6040516103a49a99989796959493929190613a4e565b3480156104f557600080fd5b506104556105043660046138f3565b600760209081526000928352604080842090915290825290205481565b34801561052d57600080fd5b50600f54610390906001600160a01b031681565b34801561054d57600080fd5b506103fd61055c3660046138f3565b61167e565b34801561056d57600080fd5b50600d54610390906001600160a01b031681565b34801561058d57600080fd5b506103fd61059c366004613915565b611acc565b3480156105ad57600080fd5b506103cd6105bc366004613893565b600860209081526000928352604080842090915290825290205460ff1681565b3480156105e857600080fd5b5061060f6105f7366004613915565b6000908152600260205260409020600f015460ff1690565b6040516103a49190613afa565b34801561062857600080fd5b506103cd610637366004613893565b6000908152600260205260409020600301546001600160a01b0391821691161490565b6103fd610668366004613bde565b611b8a565b34801561067957600080fd5b50600b54610390906001600160a01b031681565b34801561069957600080fd5b50610455611ba5565b3480156106ae57600080fd5b50600a54610390906001600160a01b031681565b3480156106ce57600080fd5b506106e26106dd366004613c42565b611bc2565b6040516103a49190613c97565b3480156106fb57600080fd5b5061045561070a366004613915565b60009081526006602052604090205490565b34801561072857600080fd5b50610455610737366004613915565b6000908152600260205260409020600e015490565b34801561075857600080fd5b50600e54610390906001600160a01b031681565b34801561077857600080fd5b50601454610390906001600160a01b031681565b34801561079857600080fd5b506103fd611c36565b3480156107ad57600080fd5b506104556107bc366004613caa565b611c4a565b3480156107cd57600080fd5b50600c54610390906001600160a01b031681565b6103fd6107ef366004613915565b611c88565b34801561080057600080fd5b5061045561080f366004613915565b611cf7565b34801561082057600080fd5b5061045561082f366004613915565b60046020526000908152604090205481565b34801561084d57600080fd5b506103cd61085c366004613893565b6001600160a01b03919091166000908152600860209081526040808320938352929052205460ff1690565b34801561089357600080fd5b507f9016d09d72d40fdae2fd8ceac6b6234c7706214fd39c1cd1e609a0528c199300546001600160a01b0316610390565b3480156108d057600080fd5b50601254610390906001600160a01b031681565b3480156108f057600080fd5b506103fd6108ff366004613ce2565b611d1b565b34801561091057600080fd5b5061045561091f366004613915565b60066020526000908152604090205481565b34801561093d57600080fd5b5061045561094c3660046138f3565b600091825260076020908152604080842092845291905290205490565b34801561097557600080fd5b50610390610984366004613915565b6000908152600260205260409020600301546001600160a01b031690565b3480156109ae57600080fd5b506104556109bd366004613e9c565b611d7a565b3480156109ce57600080fd5b506109f3604051806040016040528060058152602001640352e302e360dc1b81525081565b6040516103a49190613f92565b348015610a0c57600080fd5b506103cd610a1b366004613c42565b600360209081526000928352604080842090915290825290205460ff1681565b348015610a4757600080fd5b506103fd610a56366004613fa5565b61254f565b348015610a6757600080fd5b50610455610a76366004613c42565b600560209081526000928352604080842090915290825290205481565b348015610a9f57600080fd5b506103fd610aae366004613fd1565b612595565b348015610abf57600080fd5b506103fd610ace366004613fee565b6126c8565b348015610adf57600080fd5b50601154610390906001600160a01b031681565b348015610aff57600080fd5b50610b4f610b0e366004613915565b6040805180820190915260008082526020820152506000908152600260209081526040918290208251808401909352600b8101548352600c01549082015290565b6040516103a49190614099565b348015610b6857600080fd5b506103fd610b77366004613915565b61279a565b348015610b8857600080fd5b506103fd610b97366004613caa565b6129ae565b348015610ba857600080fd5b50601554610390906001600160a01b031681565b348015610bc857600080fd5b506103fd610bd7366004613915565b612a0f565b348015610be857600080fd5b506103fd610bf7366004613915565b612b7b565b348015610c0857600080fd5b506103fd610c17366004613fd1565b612cac565b348015610c2857600080fd5b506103fd610c373660046140b0565b612ce7565b348015610c4857600080fd5b50610c5c610c57366004613915565b612dcb565b6040516103a49d9c9b9a99989796959493929190614132565b60008181526003602090815260408083206001600160a01b038616845290915290205460ff165b92915050565b600b546001600160a01b0316331480610cc55750600a546001600160a01b031633145b80610ccf57503330145b610cf45760405162461bcd60e51b8152600401610ceb906141e4565b60405180910390fd5b6000828152600260205260409020600f01805482919060ff19166001836007811115610d2257610d22613a16565b0217905550817f8ed894b6f384ca9c829b9aa5b056bc9106a90845a15616607e975d4ad488ee6782604051610d579190613afa565b60405180910390a25050565b600a546001600160a01b03163314610d8d5760405162461bcd60e51b8152600401610ceb90614252565b6000828152600260205260408120600f015460ff166007811115610db357610db3613a16565b14610e005760405162461bcd60e51b815260206004820152601f60248201527f53686f77206d75737420626520696e2050726f706f73656420737461747573006044820152606401610ceb565b600082815260026020526040908190206011018290555182907fe4f26fcd7ae101f4d7c47cac6fc616fbb05e9b41e67b7a00b67b35f13654fce090610d579084815260200190565b600a546001600160a01b03163314610e725760405162461bcd60e51b8152600401610ceb90614252565b600081815260026020819052604090912090600f82015460ff166007811115610e9d57610e9d613a16565b14610ee25760405162461bcd60e51b815260206004820152601560248201527414da1bddc81b5d5cdd081899481058d8d95c1d1959605a1b6044820152606401610ceb565b60008281526004602052604090205480610f375760405162461bcd60e51b81526020600482015260166024820152754e6f2066756e647320746f206469737472696275746560501b6044820152606401610ceb565b600082601001805480602002602001604051908101604052809291908181526020018280548015610f8757602002820191906000526020600020905b815481526020019060010190808311610f73575b505050505090506000606483610f9d91906142b7565b60008681526005602090815260408083206015546001600160a01b0316845290915290208190559050610fd081846142d9565b92506000606483600081518110610fe957610fe96142ec565b602002602001015185610ffc9190614302565b61100691906142b7565b600087815260056020908152604080832060038a01546001600160a01b0316845290915281208290559091505b60048601548110156110e157600060648561104f846001614319565b8151811061105f5761105f6142ec565b6020026020010151876110729190614302565b61107c91906142b7565b905080600560008a815260200190815260200160002060008960040185815481106110a9576110a96142ec565b60009182526020808320909101546001600160a01b0316835282019290925260400190205550806110d98161432c565b915050611033565b506000606484600186516110f591906142d9565b81518110611105576111056142ec565b6020026020010151866111189190614302565b61112291906142b7565b600088815260056020908152604080832060098b01546001600160a01b0390811685529083528184208590558b845260049283905281842093909355600f8a01805460ff19168317905560115460038b0154915163416b56db60e01b815294955083169363416b56db936111a0939216916001918291829101614345565b600060405180830381600087803b1580156111ba57600080fd5b505af11580156111ce573d6000803e3d6000fd5b5050505060005b600487015481101561128f576011546004880180546001600160a01b039092169163416b56db91908490811061120d5761120d6142ec565b6000918252602090912001546040516001600160e01b031960e084901b16815261124a916001600160a01b03169060019081908190600401614345565b600060405180830381600087803b15801561126457600080fd5b505af1158015611278573d6000803e3d6000fd5b5050505080806112879061432c565b9150506111d5565b50601154600987015460405163416b56db60e01b81526001600160a01b039283169263416b56db926112cd9291169060019081908190600401614345565b600060405180830381600087803b1580156112e757600080fd5b505af11580156112fb573d6000803e3d6000fd5b50505050867f8ed894b6f384ca9c829b9aa5b056bc9106a90845a15616607e975d4ad488ee6760046040516113309190613afa565b60405180910390a250505050505050565b60608060006060611350613786565b6040805180820190915260008082526020820152600087815260026020819052604082206003810154600d820154600e830154600f84015460018501805488978897889790969395918701946001600160a01b039091169360048801936005890193600b8a0193909160ff80831692610100900416908a906113d19061436b565b80601f01602080910402602001604051908101604052809291908181526020018280546113fd9061436b565b801561144a5780601f1061141f5761010080835404028352916020019161144a565b820191906000526020600020905b81548152906001019060200180831161142d57829003601f168201915b5050505050995088805461145d9061436b565b80601f01602080910402602001604051908101604052809291908181526020018280546114899061436b565b80156114d65780601f106114ab576101008083540402835291602001916114d6565b820191906000526020600020905b8154815290600101906020018083116114b957829003601f168201915b505050505098508680548060200260200160405190810160405280929190818152602001828054801561153257602002820191906000526020600020905b81546001600160a01b03168152600190910190602001808311611514575b50505050509650856040518060800160405290816000820180546115559061436b565b80601f01602080910402602001604051908101604052809291908181526020018280546115819061436b565b80156115ce5780601f106115a3576101008083540402835291602001916115ce565b820191906000526020600020905b8154815290600101906020018083116115b157829003601f168201915b5050505050815260200160018201604051806040016040529081600082015481526020016001820154815250508152602001600382015481526020016004820160009054906101000a90046001600160a01b03166001600160a01b03166001600160a01b0316815250509550846040518060400160405290816000820154815260200160018201548152505094509a509a509a509a509a509a509a509a509a509a50509193959799509193959799565b6000828152600260205260408120600f015460ff1660078111156116a4576116a4613a16565b14806116d5575060056000838152600260205260409020600f015460ff1660078111156116d3576116d3613a16565b145b80611705575060076000838152600260205260409020600f015460ff16600781111561170357611703613a16565b145b6117445760405162461bcd60e51b815260206004820152601060248201526f119d5b991cc8185c99481b1bd8dad95960821b6044820152606401610ceb565b33600090815260086020908152604080832085845290915290205460ff166117c15760405162461bcd60e51b815260206004820152602a60248201527f5573657220646f6573206e6f74206f776e20746865207469636b657420666f7260448201526920746869732073686f7760b01b6064820152608401610ceb565b60008281526007602090815260408083208484529091528120541161181f5760405162461bcd60e51b8152602060048201526014602482015273151a58dad95d081b9bdd081c1d5c98da185cd95960621b6044820152606401610ceb565b60008281526007602090815260408083208484528252808320548584526006909252909120546118915760405162461bcd60e51b815260206004820152601d60248201527f4e6f207469636b65747320736f6c6420666f7220746869732073686f770000006044820152606401610ceb565b60008381526006602052604081208054916118ab836143a5565b90915550506000838152600760209081526040808320858452909152808220919091556010549051638e81c64d60e01b815260048101849052600160248201526001600160a01b0390911690638e81c64d90604401600060405180830381600087803b15801561191a57600080fd5b505af115801561192e573d6000803e3d6000fd5b505050506000606461194f856000908152600260205260409020600e015490565b6000868152600260205260409020600d015461196b9190614302565b61197591906142b7565b6000858152600460205260409020549091508211156119d65760405162461bcd60e51b815260206004820181905260248201527f496e73756666696369656e742066756e647320696e2073686f77207661756c746044820152606401610ceb565b6000848152600660205260409020548110611a3d57600084815260026020526040808220600f01805460ff191690555185917f8ed894b6f384ca9c829b9aa5b056bc9106a90845a15616607e975d4ad488ee6791611a349190613afa565b60405180910390a25b60008481526004602052604081208054849290611a5b9084906142d9565b9091555050600084815260056020908152604080832033845290915281208054849290611a89908490614319565b9091555050604051828152849033907f6327daeea6ce26abf9f96cd84eee9cb40d1d5b88f7f5990914540e392446bf04906020015b60405180910390a350505050565b600a546001600160a01b03163314611af65760405162461bcd60e51b8152600401610ceb90614252565b600081815260026020526040902060118101544210801590611b3157506007600f82015460ff166007811115611b2e57611b2e613a16565b14155b15611b8657600f8101805460ff1916600717905560018054906000611b55836143a5565b909155505060405182907f82b7e047c31ec5019ec913d8f5f2257c393096c9e63f6214f001f4b27e4dc0c890600090a25b5050565b611b9261304e565b611b9b826130f3565b611b8682826130fb565b6000611baf6131bd565b506000805160206146ba83398151915290565b60008281526009602090815260408083206001600160a01b0385168452825291829020805483518184028101840190945280845260609392830182828015611c2957602002820191906000526020600020905b815481526020019060010190808311611c15575b5050505050905092915050565b611c3e613206565b611c486000613261565b565b60096020528260005260406000206020528160005260406000208181548110611c7257600080fd5b9060005260206000200160009250925050505481565b600b546001600160a01b0316331480611cab5750600a546001600160a01b031633145b80611cb557503330145b611cd15760405162461bcd60e51b8152600401610ceb906141e4565b60008181526004602052604081208054349290611cef908490614319565b909155505050565b600081815260026020526040812060040154611d14816001614319565b9392505050565b600a546001600160a01b03163314611d455760405162461bcd60e51b8152600401610ceb90614252565b6001600160a01b0392909216600090815260086020908152604080832093835292905220805460ff1916911515919091179055565b6000808a5111611dbf5760405162461bcd60e51b815260206004820152601060248201526f13985b59481a5cc81c995c5d5a5c995960821b6044820152606401610ceb565b60008611611e1b5760405162461bcd60e51b815260206004820152602360248201527f56656e756520726164697573206d75737420626520677265617465722074686160448201526206e20360ec1b6064820152608401610ceb565b60008411611e795760405162461bcd60e51b815260206004820152602560248201527f546f74616c206361706163697479206d75737420626520677265617465722074604482015264068616e20360dc1b6064820152608401610ceb565b6000885111611eca5760405162461bcd60e51b815260206004820152601c60248201527f4174206c65617374206f6e6520617274697374207265717569726564000000006044820152606401610ceb565b825160208401511015611f455760405162461bcd60e51b815260206004820152603d60248201527f4d6178207469636b6574207072696365206d757374206265206772656174657260448201527f206f7220657175616c20746f206d696e207469636b65742070726963650000006064820152608401610ceb565b60328560ff1610158015611f5d575060648560ff1611155b611fbf5760405162461bcd60e51b815260206004820152602d60248201527f53656c6c2d6f7574207468726573686f6c64206d75737420626520626574776560448201526c0656e20353020616e642031303609c1b6064820152608401610ceb565b865163055d4a7f1913801590611fda5750865163055d4a8012155b6120195760405162461bcd60e51b815260206004820152601060248201526f496e76616c6964206c6174697475646560801b6044820152606401610ceb565b630aba94ff1987602001511215801561203a5750630aba9500876020015113155b61207a5760405162461bcd60e51b8152602060048201526011602482015270496e76616c6964206c6f6e67697475646560781b6044820152606401610ceb565b601454600160a01b900460ff166120d35760405162461bcd60e51b815260206004820152601e60248201527f436f6e747261637420616464726573736573206d7573742062652073657400006044820152606401610ceb565b6120dc336132d2565b6121285760405162461bcd60e51b815260206004820152601c60248201527f4f7267616e697a6572206d7573742062652072656769737465726564000000006044820152606401610ceb565b60005b88518110156121b457612156898281518110612149576121496142ec565b6020026020010151613362565b6121a25760405162461bcd60e51b815260206004820152601e60248201527f416c6c2061727469737473206d757374206265207265676973746572656400006044820152606401610ceb565b806121ac8161432c565b91505061212b565b506121c0828951613398565b86516020808901516040516121e19333938d9391928c918c918c91016143bc565b60405160208183030381529060405280519060200120905060004262278d0061220a9190614319565b9050600060405180608001604052806040518060200160405280600081525081526020018a815260200187815260200160006001600160a01b03168152509050604051806101e001604052808481526020018d81526020018c8152602001336001600160a01b031681526020018b81526020018281526020018981526020018681526020018860ff168152602001878152602001600060078111156122b1576122b1613a16565b81526001602080830182905260408084018990526060840187905260006080909401849052878452600282529092208351815591830151908201906122f69082614483565b506040820151600282019061230b9082614483565b5060608201516003820180546001600160a01b0319166001600160a01b039092169190911790556080820151805161234d9160048401916020909101906137c9565b5060a08201518051600583019081906123669082614483565b50602082810151805160018481019190915590820151600284015560408401516003840155606090930151600490920180546001600160a01b0319166001600160a01b039093169290921790915560c0840151600a84015560e08401518051600b8501550151600c830155610100830151600d830155610120830151600e830155610140830151600f830180549192909160ff19169083600781111561240e5761240e613a16565b0217905550610160820151600f820180549115156101000261ff0019909216919091179055610180820151805161244f91601084019160209091019061382e565b506101a082015160118201556101c09091015160129091015560005b8a518110156124de5760008481526003602052604081208c51600192908e908590811061249a5761249a6142ec565b6020908102919091018101516001600160a01b03168252810191909152604001600020805460ff1916911515919091179055806124d68161432c565b91505061246b565b50600180549060006124ef8361432c565b9190505550336001600160a01b0316837f5829640c990aaf491e04dbb3bede81c191d55a802b99b9194101fa3adece09e08e8d8f8a8d8b60405161253896959493929190614543565b60405180910390a350509998505050505050505050565b600a546001600160a01b031633146125795760405162461bcd60e51b8152600401610ceb90614252565b6000928352600760209081526040808520938552929052912055565b7ff0c57e16840df040f15088dc2f81fe391c3923bec73e23a9662efc9c229c6a008054600160401b810460ff16159067ffffffffffffffff166000811580156125db5750825b905060008267ffffffffffffffff1660011480156125f85750303b155b905081158015612606575080155b156126245760405163f92ee8a960e01b815260040160405180910390fd5b845467ffffffffffffffff19166001178555831561264e57845460ff60401b1916600160401b1785555b6126566134c7565b61265f866134d7565b601580546001600160a01b0319166001600160a01b03881617905583156126c057845460ff60401b19168555604051600181527fc7f505b2f371ae2175ee4913f4499e1f2633a7b5936321eed1cdaeb6115181d29060200160405180910390a15b505050505050565b600b546001600160a01b031633146126f25760405162461bcd60e51b8152600401610ceb90614252565b600082815260026020526040902081518290600583019081906127159082614483565b5060208281015180516001840155015160028201556040808301516003830155606090920151600490910180546001600160a01b0319166001600160a01b039092169190911790555183907f7ff310b69b4d32bc970badd2c29e0539de33aad17a7679f5484eb09ad6fd5fc69061278d9085906145b7565b60405180910390a2505050565b60008181526002602052604090206003015481906001600160a01b03163314806127c957506127c93382610c75565b6128065760405162461bcd60e51b815260206004820152600e60248201526d139bdd08185d5d1a1bdc9a5e995960921b6044820152606401610ceb565b60008281526002602052604090206004600f82015460ff16600781111561282f5761282f613a16565b146128755760405162461bcd60e51b815260206004820152601660248201527514da1bddc81b5d5cdd0818994810dbdb5c1b195d195960521b6044820152606401610ceb565b6012810154612887906202a300614319565b42146128d55760405162461bcd60e51b815260206004820152601c60248201527f53686f7720636f6f6c20646f776e20686173206e6f7420656e646564000000006044820152606401610ceb565b6000838152600560209081526040808320338452909152902054806129335760405162461bcd60e51b81526020600482015260146024820152734e6f2066756e647320746f20776974686472617760601b6044820152606401610ceb565b600084815260056020908152604080832033808552925280832083905551909183156108fc02918491818181858888f19350505050158015612979573d6000803e3d6000fd5b50604051818152339085907f028ab133c73f6c00ad0c5896ef40eff18378acd3d7f2ecf573c2706582bf73bf90602001611abe565b600a546001600160a01b031633146129d85760405162461bcd60e51b8152600401610ceb90614252565b60009283526009602090815260408085206001600160a01b0390941685529281529183208054600181018255908452919092200155565b612a176134e8565b600081815260056020908152604080832033845290915290205480612a755760405162461bcd60e51b81526020600482015260146024820152734e6f2066756e647320746f20776974686472617760601b6044820152606401610ceb565b80471015612ad05760405162461bcd60e51b815260206004820152602260248201527f496e73756666696369656e742066756e647320696e2074686520636f6e74726160448201526118dd60f21b6064820152608401610ceb565b600082815260056020908152604080832033808552925280832083905551909183156108fc02918491818181858888f19350505050158015612b16573d6000803e3d6000fd5b50604051818152829033907fa4d59773de0ef2d6faf35ac70331de09c09cb20909bf7453dd0d620524bd1fc99060200160405180910390a350612b7860017f9b779b17422d0df92223018b32b4d1fa46e071723d6817e2486d003becc55f0055565b50565b60008181526002602052604090206003015481906001600160a01b0316331480612baa5750612baa3382610c75565b612be75760405162461bcd60e51b815260206004820152600e60248201526d139bdd08185d5d1a1bdc9a5e995960921b6044820152606401610ceb565b60008281526002602052604090206001600f82015460ff166007811115612c1057612c10613a16565b1480612c3457506002600f82015460ff166007811115612c3257612c32613a16565b145b80612c5757506003600f82015460ff166007811115612c5557612c55613a16565b145b612c9a5760405162461bcd60e51b815260206004820152601460248201527353686f77206d7573742062652050656e64696e6760601b6044820152606401610ceb565b600f01805460ff191660051790555050565b612cb4613206565b6001600160a01b038116612cde57604051631e4fbdf760e01b815260006004820152602401610ceb565b612b7881613261565b601454600160a01b900460ff1615612d415760405162461bcd60e51b815260206004820152601e60248201527f50726f746f636f6c2061646472657373657320616c72656164792073657400006044820152606401610ceb565b600a80546001600160a01b039788166001600160a01b03199182168117909255600b805497891697821697909717909655601080548716909117905560118054948716948616949094179093556012805492861692851692909217909155601380549185169190931617909155601480546001600160a81b0319169190921617600160a01b179055565b60026020526000908152604090208054600182018054919291612ded9061436b565b80601f0160208091040260200160405190810160405280929190818152602001828054612e199061436b565b8015612e665780601f10612e3b57610100808354040283529160200191612e66565b820191906000526020600020905b815481529060010190602001808311612e4957829003601f168201915b505050505090806002018054612e7b9061436b565b80601f0160208091040260200160405190810160405280929190818152602001828054612ea79061436b565b8015612ef45780601f10612ec957610100808354040283529160200191612ef4565b820191906000526020600020905b815481529060010190602001808311612ed757829003601f168201915b5050505050908060030160009054906101000a90046001600160a01b03169080600501604051806080016040529081600082018054612f329061436b565b80601f0160208091040260200160405190810160405280929190818152602001828054612f5e9061436b565b8015612fab5780601f10612f8057610100808354040283529160200191612fab565b820191906000526020600020905b815481529060010190602001808311612f8e57829003601f168201915b5050509183525050604080518082018252600184015481526002840154602082810191909152808401919091526003840154828401526004909301546001600160a01b0316606090920191909152600a8401548151808301909252600b8501548252600c85015492820192909252600d840154600e850154600f86015460118701546012909701549596949593949293919260ff8083169361010090930416918d565b306001600160a01b037f00000000000000000000000000000000000000000000000000000000000000001614806130d557507f00000000000000000000000000000000000000000000000000000000000000006001600160a01b03166130c96000805160206146ba833981519152546001600160a01b031690565b6001600160a01b031614155b15611c485760405163703e46dd60e11b815260040160405180910390fd5b612b78613206565b816001600160a01b03166352d1902d6040518163ffffffff1660e01b8152600401602060405180830381865afa925050508015613155575060408051601f3d908101601f19168201909252613152918101906145ca565b60015b61317d57604051634c9c8ce360e01b81526001600160a01b0383166004820152602401610ceb565b6000805160206146ba83398151915281146131ae57604051632a87526960e21b815260048101829052602401610ceb565b6131b88383613558565b505050565b306001600160a01b037f00000000000000000000000000000000000000000000000000000000000000001614611c485760405163703e46dd60e11b815260040160405180910390fd5b336132387f9016d09d72d40fdae2fd8ceac6b6234c7706214fd39c1cd1e609a0528c199300546001600160a01b031690565b6001600160a01b031614611c485760405163118cdaa760e01b8152336004820152602401610ceb565b7f9016d09d72d40fdae2fd8ceac6b6234c7706214fd39c1cd1e609a0528c19930080546001600160a01b031981166001600160a01b03848116918217845560405192169182907f8be0079c531659141344cd1fd0a4f28419497f9722a3daafe3b4186f6b6457e090600090a3505050565b6013546040516306f81c4560e51b81526001600160a01b038381166004830152600092839291169063df0388a0906024015b600060405180830381865afa158015613321573d6000803e3d6000fd5b505050506040513d6000823e601f3d908101601f191682016040526133499190810190614630565b6001600160a01b03908116951694909414949350505050565b601254604051636951ae4760e11b81526001600160a01b038381166004830152600092839291169063d2a35c8e90602401613304565b6133a3816002614319565b8251146134265760405162461bcd60e51b8152602060048201526044602482018190527f53706c6974206172726179206d75737420686176652061206c656e6774682065908201527f7175616c20746f20746865206e756d626572206f66206172746973747320706c6064820152633ab9901960e11b608482015260a401610ceb565b6000805b835181101561346c57838181518110613445576134456142ec565b6020026020010151826134589190614319565b9150806134648161432c565b91505061342a565b50806064146131b85760405162461bcd60e51b815260206004820152602160248201527f53706c69742070657263656e7461676573206d7573742073756d20746f2031306044820152600360fc1b6064820152608401610ceb565b6134cf6135ae565b611c486135f7565b6134df6135ae565b612b78816135ff565b7f9b779b17422d0df92223018b32b4d1fa46e071723d6817e2486d003becc55f0080546001190161352c57604051633ee5aeb560e01b815260040160405180910390fd5b60029055565b60017f9b779b17422d0df92223018b32b4d1fa46e071723d6817e2486d003becc55f0055565b61356182613607565b6040516001600160a01b038316907fbc7cd75a20ee27fd9adebab32041f755214dbc6bffa90cc0225b39da2e5c2d3b90600090a28051156135a6576131b8828261366c565b611b866136e2565b7ff0c57e16840df040f15088dc2f81fe391c3923bec73e23a9662efc9c229c6a0054600160401b900460ff16611c4857604051631afcd79f60e31b815260040160405180910390fd5b6135326135ae565b612cb46135ae565b806001600160a01b03163b60000361363d57604051634c9c8ce360e01b81526001600160a01b0382166004820152602401610ceb565b6000805160206146ba83398151915280546001600160a01b0319166001600160a01b0392909216919091179055565b6060600080846001600160a01b031684604051613689919061469d565b600060405180830381855af49150503d80600081146136c4576040519150601f19603f3d011682016040523d82523d6000602084013e6136c9565b606091505b50915091506136d9858383613701565b95945050505050565b3415611c485760405163b398979f60e01b815260040160405180910390fd5b606082613716576137118261375d565b611d14565b815115801561372d57506001600160a01b0384163b155b1561375657604051639996b31560e01b81526001600160a01b0385166004820152602401610ceb565b5092915050565b80511561376d5780518082602001fd5b604051630a12f52160e11b815260040160405180910390fd5b6040518060800160405280606081526020016137b5604051806040016040528060008152602001600081525090565b815260006020820181905260409091015290565b82805482825590600052602060002090810192821561381e579160200282015b8281111561381e57825182546001600160a01b0319166001600160a01b039091161782556020909201916001909101906137e9565b5061382a929150613869565b5090565b82805482825590600052602060002090810192821561381e579160200282015b8281111561381e57825182559160200191906001019061384e565b5b8082111561382a576000815560010161386a565b6001600160a01b0381168114612b7857600080fd5b600080604083850312156138a657600080fd5b82356138b18161387e565b946020939093013593505050565b600080604083850312156138d257600080fd5b823591506020830135600881106138e857600080fd5b809150509250929050565b6000806040838503121561390657600080fd5b50508035926020909101359150565b60006020828403121561392757600080fd5b5035919050565b60005b83811015613949578181015183820152602001613931565b50506000910152565b6000815180845261396a81602086016020860161392e565b601f01601f19169290920160200192915050565b600081518084526020808501945080840160005b838110156139b75781516001600160a01b031687529582019590820190600101613992565b509495945050505050565b6000815160a084526139d760a0850182613952565b6020848101518051878301520151604080870191909152840151606080870191909152909301516001600160a01b031660809094019390935250919050565b634e487b7160e01b600052602160045260246000fd5b60088110613a4a57634e487b7160e01b600052602160045260246000fd5b9052565b6000610160808352613a628184018e613952565b90508281036020840152613a76818d613952565b6001600160a01b038c16604085015283810360608501529050613a99818b61397e565b90508281036080840152613aad818a6139c2565b885160a0850152602089015160c08501529150613ac79050565b8560e083015284610100830152613ae2610120830185613a2c565b8215156101408301529b9a5050505050505050505050565b60208101610c9c8284613a2c565b634e487b7160e01b600052604160045260246000fd5b6040516080810167ffffffffffffffff81118282101715613b4157613b41613b08565b60405290565b604051601f8201601f1916810167ffffffffffffffff81118282101715613b7057613b70613b08565b604052919050565b600067ffffffffffffffff821115613b9257613b92613b08565b50601f01601f191660200190565b6000613bb3613bae84613b78565b613b47565b9050828152838383011115613bc757600080fd5b828260208301376000602084830101529392505050565b60008060408385031215613bf157600080fd5b8235613bfc8161387e565b9150602083013567ffffffffffffffff811115613c1857600080fd5b8301601f81018513613c2957600080fd5b613c3885823560208401613ba0565b9150509250929050565b60008060408385031215613c5557600080fd5b8235915060208301356138e88161387e565b600081518084526020808501945080840160005b838110156139b757815187529582019590820190600101613c7b565b602081526000611d146020830184613c67565b600080600060608486031215613cbf57600080fd5b833592506020840135613cd18161387e565b929592945050506040919091013590565b600080600060608486031215613cf757600080fd5b8335613d028161387e565b92506020840135915060408401358015158114613d1e57600080fd5b809150509250925092565b600082601f830112613d3a57600080fd5b611d1483833560208501613ba0565b600067ffffffffffffffff821115613d6357613d63613b08565b5060051b60200190565b600082601f830112613d7e57600080fd5b81356020613d8e613bae83613d49565b82815260059290921b84018101918181019086841115613dad57600080fd5b8286015b84811015613dd1578035613dc48161387e565b8352918301918301613db1565b509695505050505050565b600060408284031215613dee57600080fd5b6040516040810181811067ffffffffffffffff82111715613e1157613e11613b08565b604052823581526020928301359281019290925250919050565b803560ff81168114613e3c57600080fd5b919050565b600082601f830112613e5257600080fd5b81356020613e62613bae83613d49565b82815260059290921b84018101918181019086841115613e8157600080fd5b8286015b84811015613dd15780358352918301918301613e85565b60008060008060008060008060006101608a8c031215613ebb57600080fd5b893567ffffffffffffffff80821115613ed357600080fd5b613edf8d838e01613d29565b9a5060208c0135915080821115613ef557600080fd5b613f018d838e01613d29565b995060408c0135915080821115613f1757600080fd5b613f238d838e01613d6d565b9850613f328d60608e01613ddc565b975060a08c01359650613f4760c08d01613e2b565b955060e08c01359450613f5e8d6101008e01613ddc565b93506101408c0135915080821115613f7557600080fd5b50613f828c828d01613e41565b9150509295985092959850929598565b602081526000611d146020830184613952565b600080600060608486031215613fba57600080fd5b505081359360208301359350604090920135919050565b600060208284031215613fe357600080fd5b8135611d148161387e565b6000806040838503121561400157600080fd5b82359150602083013567ffffffffffffffff8082111561402057600080fd5b9084019060a0828703121561403457600080fd5b61403c613b1e565b82358281111561404b57600080fd5b61405788828601613d29565b8252506140678760208501613ddc565b602082015260608301356040820152608083013592506140868361387e565b8260608201528093505050509250929050565b815181526020808301519082015260408101610c9c565b60008060008060008060c087890312156140c957600080fd5b86356140d48161387e565b955060208701356140e48161387e565b945060408701356140f48161387e565b935060608701356141048161387e565b925060808701356141148161387e565b915060a08701356141248161387e565b809150509295509295509295565b8d81526101c06020820152600061414d6101c083018f613952565b828103604084015261415f818f613952565b6001600160a01b038e16606085015283810360808501529050614182818d6139c2565b9150508960a08301526141a260c083018a80518252602090810151910152565b87610100830152866101208301526141be610140830187613a2c565b8415156101608301526101808201939093526101a001529b9a5050505050505050505050565b60208082526048908201527f4f6e6c79207468652056656e75652c205469636b657420636f6e74726163742c60408201527f206f72207468697320636f6e74726163742063616e2063616c6c207468697320606082015267333ab731ba34b7b760c11b608082015260a00190565b6020808252602f908201527f4f6e6c7920746865205469636b657420636f6e74726163742063616e2063616c60408201526e36103a3434b990333ab731ba34b7b760891b606082015260800190565b634e487b7160e01b600052601160045260246000fd5b6000826142d457634e487b7160e01b600052601260045260246000fd5b500490565b81810381811115610c9c57610c9c6142a1565b634e487b7160e01b600052603260045260246000fd5b8082028115828204841417610c9c57610c9c6142a1565b80820180821115610c9c57610c9c6142a1565b60006001820161433e5761433e6142a1565b5060010190565b6001600160a01b0394909416845260208401929092526040830152606082015260800190565b600181811c9082168061437f57607f821691505b60208210810361439f57634e487b7160e01b600052602260045260246000fd5b50919050565b6000816143b4576143b46142a1565b506000190190565b6bffffffffffffffffffffffff198860601b16815260006014820188516020808b0160005b838110156144065781516001600160a01b0316855293820193908201906001016143e1565b5050988252509687019590955250604085019290925260f81b6001600160f81b031916606084015260618301525060810192915050565b601f8211156131b857600081815260208120601f850160051c810160208610156144645750805b601f850160051c820191505b818110156126c057828155600101614470565b815167ffffffffffffffff81111561449d5761449d613b08565b6144b1816144ab845461436b565b8461443d565b602080601f8311600181146144e657600084156144ce5750858301515b600019600386901b1c1916600185901b1785556126c0565b600085815260208120601f198616915b82811015614515578886015182559484019460019091019084016144f6565b50858210156145335787850151600019600388901b60f8161c191681555b5050505050600190811b01905550565b60e08152600061455660e0830189613952565b8281036020840152614568818961397e565b9050828103604084015261457c8188613952565b8651606085015260208701516080850152905060ff851660a084015282810360c08401526145aa8185613c67565b9998505050505050505050565b602081526000611d1460208301846139c2565b6000602082840312156145dc57600080fd5b5051919050565b600082601f8301126145f457600080fd5b8151614602613bae82613b78565b81815284602083860101111561461757600080fd5b61462882602083016020870161392e565b949350505050565b60008060006060848603121561464557600080fd5b835167ffffffffffffffff8082111561465d57600080fd5b614669878388016145e3565b9450602086015191508082111561467f57600080fd5b5061468c868287016145e3565b9250506040840151613d1e8161387e565b600082516146af81846020870161392e565b919091019291505056fe360894a13ba1a3210667c828492db98dca3e2076cc3735a920a3ca505d382bbca264697066735822122091c15b4355f5b380508d9ae54c3bdc49adb02ac03717b4e482bf3ed6d44eee3964736f6c6343000814003360806040526040516104e13803806104e1833981016040819052610022916102de565b61002e82826000610035565b50506103fb565b61003e83610061565b60008251118061004b5750805b1561005c5761005a83836100a1565b505b505050565b61006a816100cd565b6040516001600160a01b038216907fbc7cd75a20ee27fd9adebab32041f755214dbc6bffa90cc0225b39da2e5c2d3b90600090a250565b60606100c683836040518060600160405280602781526020016104ba60279139610180565b9392505050565b6001600160a01b0381163b61013f5760405162461bcd60e51b815260206004820152602d60248201527f455243313936373a206e657720696d706c656d656e746174696f6e206973206e60448201526c1bdd08184818dbdb9d1c9858dd609a1b60648201526084015b60405180910390fd5b7f360894a13ba1a3210667c828492db98dca3e2076cc3735a920a3ca505d382bbc80546001600160a01b0319166001600160a01b0392909216919091179055565b6060600080856001600160a01b03168560405161019d91906103ac565b600060405180830381855af49150503d80600081146101d8576040519150601f19603f3d011682016040523d82523d6000602084013e6101dd565b606091505b5090925090506101ef868383876101f9565b9695505050505050565b60608315610268578251600003610261576001600160a01b0385163b6102615760405162461bcd60e51b815260206004820152601d60248201527f416464726573733a2063616c6c20746f206e6f6e2d636f6e74726163740000006044820152606401610136565b5081610272565b610272838361027a565b949350505050565b81511561028a5781518083602001fd5b8060405162461bcd60e51b815260040161013691906103c8565b634e487b7160e01b600052604160045260246000fd5b60005b838110156102d55781810151838201526020016102bd565b50506000910152565b600080604083850312156102f157600080fd5b82516001600160a01b038116811461030857600080fd5b60208401519092506001600160401b038082111561032557600080fd5b818501915085601f83011261033957600080fd5b81518181111561034b5761034b6102a4565b604051601f8201601f19908116603f01168101908382118183101715610373576103736102a4565b8160405282815288602084870101111561038c57600080fd5b61039d8360208301602088016102ba565b80955050505050509250929050565b600082516103be8184602087016102ba565b9190910192915050565b60208152600082518060208401526103e78160408501602087016102ba565b601f01601f19169190910160400192915050565b60b1806104096000396000f3fe608060405236601057600e6013565b005b600e5b601f601b6021565b6058565b565b600060537f360894a13ba1a3210667c828492db98dca3e2076cc3735a920a3ca505d382bbc546001600160a01b031690565b905090565b3660008037600080366000845af43d6000803e8080156076573d6000f35b3d6000fdfea264697066735822122027f562cde8265aa90118a53b2f65370962feb418519bf39bfc7ccbb34402bb5164736f6c63430008140033416464726573733a206c6f772d6c6576656c2064656c65676174652063616c6c206661696c6564a2646970667358221220fba60f5876ca05dcf9f0eb01ff7da7f264d05113c6c37d7bce59240e1affb8bd64736f6c63430008140033608060405234801561001057600080fd5b50613526806100206000396000f3fe608060405234801561001057600080fd5b506004361061002b5760003560e01c8063a58b157114610030575b600080fd5b61004361003e366004610153565b61005f565b6040516001600160a01b03909116815260200160405180910390f35b60008060405161006e9061011d565b604051809103906000f08015801561008a573d6000803e3d6000fd5b50604080516001600160a01b038781166024830152861660448083019190915282518083039091018152606490910182526020810180516001600160e01b031663485cc95560e01b179052905191925090600090839083906100eb9061012a565b6100f6929190610186565b604051809103906000f080158015610112573d6000803e3d6000fd5b509695505050505050565b612e2b806101e583390190565b6104e18061301083390190565b80356001600160a01b038116811461014e57600080fd5b919050565b6000806040838503121561016657600080fd5b61016f83610137565b915061017d60208401610137565b90509250929050565b60018060a01b038316815260006020604081840152835180604085015260005b818110156101c2578581018301518582016060015282016101a6565b506000606082860101526060601f19601f83011685010192505050939250505056fe60a06040523060805234801561001457600080fd5b50608051612ded61003e6000396000818161143c0152818161146501526115a60152612ded6000f3fe6080604052600436106101345760003560e01c8063715018a6116100ab578063a7d225971161006f578063a7d225971461037f578063ad3cb1cc1461039f578063e985e9c5146103d0578063f242432a146103f0578063f2fde38b14610410578063fa29a69b1461043057600080fd5b8063715018a6146102cd5780638da5cb5b146102e25780638e81c64d1461031f578063977cb89e1461033f578063a22cb4651461035f57600080fd5b8063404f49d1116100fd578063404f49d114610200578063485cc955146102385780634e1273f4146102585780634f1ef2861461028557806352d1902d146102985780635dbab132146102ad57600080fd5b8062fdd58e1461013957806301ffc9a71461016c5780630e89341c1461019c578063229df6d6146101c95780632eb2c2d6146101de575b600080fd5b34801561014557600080fd5b5061015961015436600461235c565b610443565b6040519081526020015b60405180910390f35b34801561017857600080fd5b5061018c61018736600461239e565b61047a565b6040519015158152602001610163565b3480156101a857600080fd5b506101bc6101b73660046123bb565b6104ca565b6040516101639190612424565b3480156101d557600080fd5b50610159600581565b3480156101ea57600080fd5b506101fe6101f936600461257a565b6105b1565b005b34801561020c57600080fd5b50600254610220906001600160a01b031681565b6040516001600160a01b039091168152602001610163565b34801561024457600080fd5b506101fe610253366004612627565b61061d565b34801561026457600080fd5b50610278610273366004612660565b6107d7565b604051610163919061275c565b6101fe61029336600461276f565b6108ab565b3480156102a457600080fd5b506101596108ca565b3480156102b957600080fd5b506101fe6102c83660046127b4565b6108e7565b3480156102d957600080fd5b506101fe6109b7565b3480156102ee57600080fd5b507f9016d09d72d40fdae2fd8ceac6b6234c7706214fd39c1cd1e609a0528c199300546001600160a01b0316610220565b34801561032b57600080fd5b506101fe61033a3660046127f8565b6109cb565b34801561034b57600080fd5b5061022061035a3660046123bb565b610a46565b34801561036b57600080fd5b506101fe61037a366004612828565b610ab4565b34801561038b57600080fd5b506101fe61039a366004612856565b610abf565b3480156103ab57600080fd5b506101bc604051806040016040528060058152602001640352e302e360dc1b81525081565b3480156103dc57600080fd5b5061018c6103eb366004612627565b610bf3565b3480156103fc57600080fd5b506101fe61040b3660046128a5565b610c40565b34801561041c57600080fd5b506101fe61042b36600461290d565b610c9f565b6101fe61043e3660046127f8565b610cdd565b6000818152600080516020612d98833981519152602090815260408083206001600160a01b03861684529091529020545b92915050565b60006001600160e01b03198216636cdb3d1360e11b14806104ab57506001600160e01b031982166303a24d0760e21b145b8061047457506301ffc9a760e01b6001600160e01b0319831614610474565b6000818152600360205260408120805460609291906104e89061292a565b80601f01602080910402602001604051908101604052809291908181526020018280546105149061292a565b80156105615780601f1061053657610100808354040283529160200191610561565b820191906000526020600020905b81548152906001019060200180831161054457829003601f168201915b505050505090506000815111156105785792915050565b6004610583846112fe565b60405160200161059492919061295e565b604051602081830303815290604052915050919050565b50919050565b336001600160a01b03861681148015906105d257506105d08682610bf3565b155b156106085760405163711bec9160e11b81526001600160a01b038083166004830152871660248201526044015b60405180910390fd5b6106158686868686611390565b505050505050565b7ff0c57e16840df040f15088dc2f81fe391c3923bec73e23a9662efc9c229c6a008054600160401b810460ff1615906001600160401b03166000811580156106625750825b90506000826001600160401b0316600114801561067e5750303b155b90508115801561068c575080155b156106aa5760405163f92ee8a960e01b815260040160405180910390fd5b845467ffffffffffffffff1916600117855583156106d457845460ff60401b1916600160401b1785555b6107126040518060400160405280601d81526020017f68747470733a2f2f73656c6c6f75742e6f6e636861696e2e686175732f0000008152506113f7565b61071a611408565b61072387611418565b61072b611429565b600280546001600160a01b0319166001600160a01b03881617905560408051808201909152601d81527f68747470733a2f2f73656c6c6f75742e6f6e636861696e2e686175732f00000060208201526004906107879082612a3b565b5083156107ce57845460ff60401b19168555604051600181527fc7f505b2f371ae2175ee4913f4499e1f2633a7b5936321eed1cdaeb6115181d29060200160405180910390a15b50505050505050565b606081518351146108085781518351604051635b05999160e01b8152600481019290925260248201526044016105ff565b600083516001600160401b0381111561082357610823612437565b60405190808252806020026020018201604052801561084c578160200160208202803683370190505b50905060005b84518110156108a35760208082028601015161087690602080840287010151610443565b82828151811061088857610888612afa565b602090810291909101015261089c81612b26565b9050610852565b509392505050565b6108b3611431565b6108bc826114d6565b6108c682826114de565b5050565b60006108d461159b565b50600080516020612d7883398151915290565b600254604051632769b96d60e11b8152336004820152602481018390526001600160a01b0390911690634ed372da90604401602060405180830381865afa158015610936573d6000803e3d6000fd5b505050506040513d601f19601f8201168201806040525081019061095a9190612b3f565b6109a65760405162461bcd60e51b815260206004820152601b60248201527f43616c6c6572206973206e6f7420746865206f7267616e697a6572000000000060448201526064016105ff565b60046109b28382612a3b565b505050565b6109bf6115e4565b6109c9600061163f565b565b6002546001600160a01b03163314610a3b5760405162461bcd60e51b815260206004820152602d60248201527f4f6e6c79207468652053686f7720636f6e74726163742063616e2063616c6c2060448201526c3a3434b990333ab731ba34b7b760991b60648201526084016105ff565b6108c63383836116b0565b600254604051634bbe5c4f60e11b8152600481018390526000916001600160a01b03169063977cb89e90602401602060405180830381865afa158015610a90573d6000803e3d6000fd5b505050506040513d601f19601f820116820180604052508101906104749190612b5c565b6108c6338383611718565b600254604051634bbe5c4f60e11b8152600481018590526001600160a01b039091169063977cb89e90602401602060405180830381865afa158015610b08573d6000803e3d6000fd5b505050506040513d601f19601f82011682018060405250810190610b2c9190612b5c565b6001600160a01b0316336001600160a01b031614610b9d5760405162461bcd60e51b815260206004820152602860248201527f43616c6c6572206973206e6f7420746865206f7267616e697a6572206f6620746044820152676869732073686f7760c01b60648201526084016105ff565b6000828152600360205260409020610bb58282612a3b565b50817f6bb7ff708619ba0610cba295a58592e0451dee2622938c8755667688daf3529b82604051610be69190612424565b60405180910390a2505050565b6001600160a01b0391821660009081527f88be536d5240c274a3b1d3a1be54482fd9caa294f08c62a7cde569f49a3c45016020908152604080832093909416825291909152205460ff1690565b336001600160a01b0386168114801590610c615750610c5f8682610bf3565b155b15610c925760405163711bec9160e11b81526001600160a01b038083166004830152871660248201526044016105ff565b61061586868686866117c0565b610ca76115e4565b6001600160a01b038116610cd157604051631e4fbdf760e01b8152600060048201526024016105ff565b610cda8161163f565b50565b610ce5611845565b6002546040516346c2c8a760e01b8152600481018490526000916001600160a01b0316906346c2c8a790602401602060405180830381865afa158015610d2f573d6000803e3d6000fd5b505050506040513d601f19601f82011682018060405250810190610d539190612b8f565b6007811115610d6457610d64612b79565b14610dc35760405162461bcd60e51b815260206004820152602960248201527f53686f77206973206e6f7420617661696c61626c6520666f72207469636b657460448201526820707572636861736560b81b60648201526084016105ff565b600254604051631883b07960e21b8152600481018490526001600160a01b039091169063620ec1e490602401602060405180830381865afa158015610e0c573d6000803e3d6000fd5b505050506040513d601f19601f82011682018060405250810190610e309190612bb0565b600254604051630610418760e41b81526004810185905283916001600160a01b031690636104187090602401602060405180830381865afa158015610e79573d6000803e3d6000fd5b505050506040513d601f19601f82011682018060405250810190610e9d9190612bb0565b610ea79190612bc9565b1115610ef55760405162461bcd60e51b815260206004820152601c60248201527f4e6f7420656e6f756768207469636b65747320617661696c61626c650000000060448201526064016105ff565b6000610f008361188f565b6002546040516331cea0e760e21b8152600481018690529192506000916001600160a01b039091169063c73a839c906024016040805180830381865afa158015610f4e573d6000803e3d6000fd5b505050506040513d601f19601f82011682018060405250810190610f729190612bdc565b9050600083610f8a84846000015185602001516119c6565b610f949190612c2a565b9050803414610fe55760405162461bcd60e51b815260206004820152601860248201527f496e636f7272656374207061796d656e7420616d6f756e74000000000000000060448201526064016105ff565b600254604051638526663560e01b8152600481018790526001600160a01b039091169063852666359034906024016000604051808303818588803b15801561102c57600080fd5b505af1158015611040573d6000803e3d6000fd5b50505060008781526001602090815260408083203384529091528120805488945090925061106f908490612bc9565b90915550506000858152600160209081526040808320338452825280832054815192830189905290820186905260608201526080016040516020818303038152906040528051906020012060001c90506110da33828760405180602001604052806000815250611ae5565b60025460405163de44006f60e01b815260048101889052336024820152604481018390526001600160a01b039091169063de44006f90606401600060405180830381600087803b15801561112d57600080fd5b505af1158015611141573d6000803e3d6000fd5b5050600254604051632f51f71760e21b8152600481018a9052602481018590523460448201526001600160a01b03909116925063bd47dc5c9150606401600060405180830381600087803b15801561119857600080fd5b505af11580156111ac573d6000803e3d6000fd5b5050600254604051638e5298a560e01b8152336004820152602481018a9052600160448201526001600160a01b039091169250638e5298a59150606401600060405180830381600087803b15801561120357600080fd5b505af1158015611217573d6000803e3d6000fd5b50506002546001600160a01b03169150630d08c3c990508761123c4262278d00612bc9565b6040516001600160e01b031960e085901b16815260048101929092526024820152604401600060405180830381600087803b15801561127a57600080fd5b505af115801561128e573d6000803e3d6000fd5b5050604080518881526020810188905284935089925033917ff53f6fe7b2b86daf10364d1fc7e66dfc3adc1482215b61947bf0ec712e129908910160405180910390a4505050506108c660017f9b779b17422d0df92223018b32b4d1fa46e071723d6817e2486d003becc55f0055565b6060600061130b83611b68565b60010190506000816001600160401b0381111561132a5761132a612437565b6040519080825280601f01601f191660200182016040528015611354576020820181803683370190505b5090508181016020015b600019016f181899199a1a9b1b9c1cb0b131b232b360811b600a86061a8153600a850494508461135e57509392505050565b6001600160a01b0384166113ba57604051632bfa23e760e11b8152600060048201526024016105ff565b6001600160a01b0385166113e357604051626a0d4560e21b8152600060048201526024016105ff565b6113f08585858585611c40565b5050505050565b6113ff611c93565b610cda81611cdc565b611410611c93565b6109c9611ced565b611420611c93565b610cda81611cf5565b6109c9611c93565b306001600160a01b037f00000000000000000000000000000000000000000000000000000000000000001614806114b857507f00000000000000000000000000000000000000000000000000000000000000006001600160a01b03166114ac600080516020612d78833981519152546001600160a01b031690565b6001600160a01b031614155b156109c95760405163703e46dd60e11b815260040160405180910390fd5b610cda6115e4565b816001600160a01b03166352d1902d6040518163ffffffff1660e01b8152600401602060405180830381865afa925050508015611538575060408051601f3d908101601f1916820190925261153591810190612bb0565b60015b61156057604051634c9c8ce360e01b81526001600160a01b03831660048201526024016105ff565b600080516020612d78833981519152811461159157604051632a87526960e21b8152600481018290526024016105ff565b6109b28383611cfd565b306001600160a01b037f000000000000000000000000000000000000000000000000000000000000000016146109c95760405163703e46dd60e11b815260040160405180910390fd5b336116167f9016d09d72d40fdae2fd8ceac6b6234c7706214fd39c1cd1e609a0528c199300546001600160a01b031690565b6001600160a01b0316146109c95760405163118cdaa760e01b81523360048201526024016105ff565b7f9016d09d72d40fdae2fd8ceac6b6234c7706214fd39c1cd1e609a0528c19930080546001600160a01b031981166001600160a01b03848116918217845560405192169182907f8be0079c531659141344cd1fd0a4f28419497f9722a3daafe3b4186f6b6457e090600090a3505050565b6001600160a01b0383166116d957604051626a0d4560e21b8152600060048201526024016105ff565b604080516001808252602082018590528183019081526060820184905260a082019092526000608082018181529192916113f091879185908590611c40565b600080516020612d988339815191526001600160a01b0383166117505760405162ced3e160e81b8152600060048201526024016105ff565b6001600160a01b038481166000818152600184016020908152604080832094881680845294825291829020805460ff191687151590811790915591519182527f17307eab39ab6107e8899845ad3d59bd9653f200f220920489ca2b5937696c31910160405180910390a350505050565b6001600160a01b0384166117ea57604051632bfa23e760e11b8152600060048201526024016105ff565b6001600160a01b03851661181357604051626a0d4560e21b8152600060048201526024016105ff565b604080516001808252602082018690528183019081526060820185905260808201909252906107ce8787848487611c40565b7f9b779b17422d0df92223018b32b4d1fa46e071723d6817e2486d003becc55f0080546001190161188957604051633ee5aeb560e01b815260040160405180910390fd5b60029055565b600254604051631883b07960e21b81526004810183905260009182916001600160a01b039091169063620ec1e490602401602060405180830381865afa1580156118dd573d6000803e3d6000fd5b505050506040513d601f19601f820116820180604052508101906119019190612bb0565b600254604051630610418760e41b8152600481018690529192506000916001600160a01b0390911690636104187090602401602060405180830381865afa158015611950573d6000803e3d6000fd5b505050506040513d601f19601f820116820180604052508101906119749190612bb0565b9050600082611984836064612c2a565b61198e9190612c41565b90506000600a61199f836009612bc9565b6119a99190612c41565b9050600081116119ba5760016119bc565b805b9695505050505050565b6000600184101580156119da5750600a8411155b611a1b5760405162461bcd60e51b8152602060048201526012602482015271496e76616c69642066616e2073746174757360701b60448201526064016105ff565b82821015611a835760405162461bcd60e51b815260206004820152602f60248201527f4d6178207072696365206d7573742062652067726561746572206f722065717560448201526e616c20746f206d696e20707269636560881b60648201526084016105ff565b8360011480611a9157508282145b15611a9d575081611ade565b6000611aa98484612c63565b90506000611ab8600983612c41565b9050611ac5600187612c63565b611acf9082612c2a565b611ad99086612bc9565b925050505b9392505050565b6001600160a01b038416611b0f57604051632bfa23e760e11b8152600060048201526024016105ff565b60408051600180825260208201869052818301908152606082018590526080820190925290610615600087848487611c40565b60017f9b779b17422d0df92223018b32b4d1fa46e071723d6817e2486d003becc55f0055565b60008072184f03e93ff9f4daa797ed6e38ed64bf6a1f0160401b8310611ba75772184f03e93ff9f4daa797ed6e38ed64bf6a1f0160401b830492506040015b6d04ee2d6d415b85acef81000000008310611bd3576d04ee2d6d415b85acef8100000000830492506020015b662386f26fc100008310611bf157662386f26fc10000830492506010015b6305f5e1008310611c09576305f5e100830492506008015b6127108310611c1d57612710830492506004015b60648310611c2f576064830492506002015b600a83106104745760010192915050565b611c4c85858585611d53565b6001600160a01b038416156113f05782513390600103611c855760208481015190840151611c7e838989858589611f81565b5050610615565b6106158187878787876120a5565b7ff0c57e16840df040f15088dc2f81fe391c3923bec73e23a9662efc9c229c6a0054600160401b900460ff166109c957604051631afcd79f60e31b815260040160405180910390fd5b611ce4611c93565b610cda8161218e565b611b42611c93565b610ca7611c93565b611d06826121c8565b6040516001600160a01b038316907fbc7cd75a20ee27fd9adebab32041f755214dbc6bffa90cc0225b39da2e5c2d3b90600090a2805115611d4b576109b2828261222d565b6108c66122a3565b80518251600080516020612d988339815191529114611d925782518251604051635b05999160e01b8152600481019290925260248201526044016105ff565b3360005b8451811015611ea1576020818102868101820151908601909101516001600160a01b03891615611e49576000828152602086815260408083206001600160a01b038d16845290915290205481811015611e22576040516303dee4c560e01b81526001600160a01b038b1660048201526024810182905260448101839052606481018490526084016105ff565b6000838152602087815260408083206001600160a01b038e16845290915290209082900390555b6001600160a01b03881615611e8e576000828152602086815260408083206001600160a01b038c16845290915281208054839290611e88908490612bc9565b90915550505b505080611e9a90612b26565b9050611d96565b508351600103611f225760208401516000906020850151909150866001600160a01b0316886001600160a01b0316846001600160a01b03167fc3d58168c5ae7397731d063d5bbf3d657854427343f4c083240f7aacaa2d0f628585604051611f13929190918252602082015260400190565b60405180910390a45050610615565b846001600160a01b0316866001600160a01b0316826001600160a01b03167f4a39dc06d4c0dbc64b70af90fd698a233a518aa5d07e595d983b8c0526c8f7fb8787604051611f71929190612c76565b60405180910390a4505050505050565b6001600160a01b0384163b156106155760405163f23a6e6160e01b81526001600160a01b0385169063f23a6e6190611fc59089908990889088908890600401612c9b565b6020604051808303816000875af1925050508015612000575060408051601f3d908101601f19168201909252611ffd91810190612ce0565b60015b612069573d80801561202e576040519150601f19603f3d011682016040523d82523d6000602084013e612033565b606091505b50805160000361206157604051632bfa23e760e11b81526001600160a01b03861660048201526024016105ff565b805181602001fd5b6001600160e01b0319811663f23a6e6160e01b146107ce57604051632bfa23e760e11b81526001600160a01b03861660048201526024016105ff565b6001600160a01b0384163b156106155760405163bc197c8160e01b81526001600160a01b0385169063bc197c81906120e99089908990889088908890600401612cfd565b6020604051808303816000875af1925050508015612124575060408051601f3d908101601f1916820190925261212191810190612ce0565b60015b612152573d80801561202e576040519150601f19603f3d011682016040523d82523d6000602084013e612033565b6001600160e01b0319811663bc197c8160e01b146107ce57604051632bfa23e760e11b81526001600160a01b03861660048201526024016105ff565b600080516020612d988339815191527f88be536d5240c274a3b1d3a1be54482fd9caa294f08c62a7cde569f49a3c45026109b28382612a3b565b806001600160a01b03163b6000036121fe57604051634c9c8ce360e01b81526001600160a01b03821660048201526024016105ff565b600080516020612d7883398151915280546001600160a01b0319166001600160a01b0392909216919091179055565b6060600080846001600160a01b03168460405161224a9190612d5b565b600060405180830381855af49150503d8060008114612285576040519150601f19603f3d011682016040523d82523d6000602084013e61228a565b606091505b509150915061229a8583836122c2565b95945050505050565b34156109c95760405163b398979f60e01b815260040160405180910390fd5b6060826122d7576122d28261231e565b611ade565b81511580156122ee57506001600160a01b0384163b155b1561231757604051639996b31560e01b81526001600160a01b03851660048201526024016105ff565b5080611ade565b80511561232e5780518082602001fd5b604051630a12f52160e11b815260040160405180910390fd5b6001600160a01b0381168114610cda57600080fd5b6000806040838503121561236f57600080fd5b823561237a81612347565b946020939093013593505050565b6001600160e01b031981168114610cda57600080fd5b6000602082840312156123b057600080fd5b8135611ade81612388565b6000602082840312156123cd57600080fd5b5035919050565b60005b838110156123ef5781810151838201526020016123d7565b50506000910152565b600081518084526124108160208601602086016123d4565b601f01601f19169290920160200192915050565b602081526000611ade60208301846123f8565b634e487b7160e01b600052604160045260246000fd5b604051601f8201601f191681016001600160401b038111828210171561247557612475612437565b604052919050565b60006001600160401b0382111561249657612496612437565b5060051b60200190565b600082601f8301126124b157600080fd5b813560206124c66124c18361247d565b61244d565b82815260059290921b840181019181810190868411156124e557600080fd5b8286015b8481101561250057803583529183019183016124e9565b509695505050505050565b600082601f83011261251c57600080fd5b81356001600160401b0381111561253557612535612437565b612548601f8201601f191660200161244d565b81815284602083860101111561255d57600080fd5b816020850160208301376000918101602001919091529392505050565b600080600080600060a0868803121561259257600080fd5b853561259d81612347565b945060208601356125ad81612347565b935060408601356001600160401b03808211156125c957600080fd5b6125d589838a016124a0565b945060608801359150808211156125eb57600080fd5b6125f789838a016124a0565b9350608088013591508082111561260d57600080fd5b5061261a8882890161250b565b9150509295509295909350565b6000806040838503121561263a57600080fd5b823561264581612347565b9150602083013561265581612347565b809150509250929050565b6000806040838503121561267357600080fd5b82356001600160401b038082111561268a57600080fd5b818501915085601f83011261269e57600080fd5b813560206126ae6124c18361247d565b82815260059290921b840181019181810190898411156126cd57600080fd5b948201945b838610156126f45785356126e581612347565b825294820194908201906126d2565b9650508601359250508082111561270a57600080fd5b50612717858286016124a0565b9150509250929050565b600081518084526020808501945080840160005b8381101561275157815187529582019590820190600101612735565b509495945050505050565b602081526000611ade6020830184612721565b6000806040838503121561278257600080fd5b823561278d81612347565b915060208301356001600160401b038111156127a857600080fd5b6127178582860161250b565b600080604083850312156127c757600080fd5b82356001600160401b038111156127dd57600080fd5b6127e98582860161250b565b95602094909401359450505050565b6000806040838503121561280b57600080fd5b50508035926020909101359150565b8015158114610cda57600080fd5b6000806040838503121561283b57600080fd5b823561284681612347565b915060208301356126558161281a565b60008060006060848603121561286b57600080fd5b833592506020840135915060408401356001600160401b0381111561288f57600080fd5b61289b8682870161250b565b9150509250925092565b600080600080600060a086880312156128bd57600080fd5b85356128c881612347565b945060208601356128d881612347565b9350604086013592506060860135915060808601356001600160401b0381111561290157600080fd5b61261a8882890161250b565b60006020828403121561291f57600080fd5b8135611ade81612347565b600181811c9082168061293e57607f821691505b6020821081036105ab57634e487b7160e01b600052602260045260246000fd5b600080845461296c8161292a565b600182811680156129845760018114612999576129c8565b60ff19841687528215158302870194506129c8565b8860005260208060002060005b858110156129bf5781548a8201529084019082016129a6565b50505082870194505b5050505083516129dc8183602088016123d4565b64173539b7b760d91b9101908152600501949350505050565b601f8211156109b257600081815260208120601f850160051c81016020861015612a1c5750805b601f850160051c820191505b8181101561061557828155600101612a28565b81516001600160401b03811115612a5457612a54612437565b612a6881612a62845461292a565b846129f5565b602080601f831160018114612a9d5760008415612a855750858301515b600019600386901b1c1916600185901b178555610615565b600085815260208120601f198616915b82811015612acc57888601518255948401946001909101908401612aad565b5085821015612aea5787850151600019600388901b60f8161c191681555b5050505050600190811b01905550565b634e487b7160e01b600052603260045260246000fd5b634e487b7160e01b600052601160045260246000fd5b600060018201612b3857612b38612b10565b5060010190565b600060208284031215612b5157600080fd5b8151611ade8161281a565b600060208284031215612b6e57600080fd5b8151611ade81612347565b634e487b7160e01b600052602160045260246000fd5b600060208284031215612ba157600080fd5b815160088110611ade57600080fd5b600060208284031215612bc257600080fd5b5051919050565b8082018082111561047457610474612b10565b600060408284031215612bee57600080fd5b604051604081018181106001600160401b0382111715612c1057612c10612437565b604052825181526020928301519281019290925250919050565b808202811582820484141761047457610474612b10565b600082612c5e57634e487b7160e01b600052601260045260246000fd5b500490565b8181038181111561047457610474612b10565b604081526000612c896040830185612721565b828103602084015261229a8185612721565b6001600160a01b03868116825285166020820152604081018490526060810183905260a060808201819052600090612cd5908301846123f8565b979650505050505050565b600060208284031215612cf257600080fd5b8151611ade81612388565b6001600160a01b0386811682528516602082015260a060408201819052600090612d2990830186612721565b8281036060840152612d3b8186612721565b90508281036080840152612d4f81856123f8565b98975050505050505050565b60008251612d6d8184602087016123d4565b919091019291505056fe360894a13ba1a3210667c828492db98dca3e2076cc3735a920a3ca505d382bbc88be536d5240c274a3b1d3a1be54482fd9caa294f08c62a7cde569f49a3c4500a2646970667358221220dc4a11549c67cde11013ad8a9f57a45011c365f57fac233e5b0afe223fc16fcd64736f6c6343000814003360806040526040516104e13803806104e1833981016040819052610022916102de565b61002e82826000610035565b50506103fb565b61003e83610061565b60008251118061004b5750805b1561005c5761005a83836100a1565b505b505050565b61006a816100cd565b6040516001600160a01b038216907fbc7cd75a20ee27fd9adebab32041f755214dbc6bffa90cc0225b39da2e5c2d3b90600090a250565b60606100c683836040518060600160405280602781526020016104ba60279139610180565b9392505050565b6001600160a01b0381163b61013f5760405162461bcd60e51b815260206004820152602d60248201527f455243313936373a206e657720696d706c656d656e746174696f6e206973206e60448201526c1bdd08184818dbdb9d1c9858dd609a1b60648201526084015b60405180910390fd5b7f360894a13ba1a3210667c828492db98dca3e2076cc3735a920a3ca505d382bbc80546001600160a01b0319166001600160a01b0392909216919091179055565b6060600080856001600160a01b03168560405161019d91906103ac565b600060405180830381855af49150503d80600081146101d8576040519150601f19603f3d011682016040523d82523d6000602084013e6101dd565b606091505b5090925090506101ef868383876101f9565b9695505050505050565b60608315610268578251600003610261576001600160a01b0385163b6102615760405162461bcd60e51b815260206004820152601d60248201527f416464726573733a2063616c6c20746f206e6f6e2d636f6e74726163740000006044820152606401610136565b5081610272565b610272838361027a565b949350505050565b81511561028a5781518083602001fd5b8060405162461bcd60e51b815260040161013691906103c8565b634e487b7160e01b600052604160045260246000fd5b60005b838110156102d55781810151838201526020016102bd565b50506000910152565b600080604083850312156102f157600080fd5b82516001600160a01b038116811461030857600080fd5b60208401519092506001600160401b038082111561032557600080fd5b818501915085601f83011261033957600080fd5b81518181111561034b5761034b6102a4565b604051601f8201601f19908116603f01168101908382118183101715610373576103736102a4565b8160405282815288602084870101111561038c57600080fd5b61039d8360208301602088016102ba565b80955050505050509250929050565b600082516103be8184602087016102ba565b9190910192915050565b60208152600082518060208401526103e78160408501602087016102ba565b601f01601f19169190910160400192915050565b60b1806104096000396000f3fe608060405236601057600e6013565b005b600e5b601f601b6021565b6058565b565b600060537f360894a13ba1a3210667c828492db98dca3e2076cc3735a920a3ca505d382bbc546001600160a01b031690565b905090565b3660008037600080366000845af43d6000803e8080156076573d6000f35b3d6000fdfea264697066735822122027f562cde8265aa90118a53b2f65370962feb418519bf39bfc7ccbb34402bb5164736f6c63430008140033416464726573733a206c6f772d6c6576656c2064656c65676174652063616c6c206661696c6564a264697066735822122056faccfd82f61462404585cca543765c5c80a7a381b9217c7582993ba310a6b564736f6c63430008140033608060405234801561001057600080fd5b50612d6e806100206000396000f3fe608060405234801561001057600080fd5b506004361061002b5760003560e01c80638927552414610030575b600080fd5b61004361003e36600461015c565b61005f565b6040516001600160a01b03909116815260200160405180910390f35b60008060405161006e90610126565b604051809103906000f08015801561008a573d6000803e3d6000fd5b50604080516001600160a01b0388811660248301528781166044830152861660648083019190915282518083039091018152608490910182526020810180516001600160e01b031663c0c53b8b60e01b179052905191925090600090839083906100f390610133565b6100fe92919061019f565b604051809103906000f08015801561011a573d6000803e3d6000fd5b50979650505050505050565b61265a806101fe83390190565b6104e18061285883390190565b80356001600160a01b038116811461015757600080fd5b919050565b60008060006060848603121561017157600080fd5b61017a84610140565b925061018860208501610140565b915061019660408501610140565b90509250925092565b60018060a01b038316815260006020604081840152835180604085015260005b818110156101db578581018301518582016060015282016101bf565b506000606082860101526060601f19601f83011685010192505050939250505056fe60a06040523060805234801561001457600080fd5b5060805161261c61003e600039600081816117e8015281816118110152611957015261261c6000f3fe6080604052600436106101665760003560e01c8063aadc3b72116100d1578063c15f6bd71161008a578063dda9b13c11610064578063dda9b13c14610559578063ee6b8b2e1461056c578063f2fde38b1461058c578063f51bba85146105ac57600080fd5b8063c15f6bd7146104bd578063d360fb5f146104f4578063d865ae3c1461052c57600080fd5b8063aadc3b7214610373578063ab07426f146103ae578063ad3cb1cc146103e6578063b328da1214610424578063bc3da53514610470578063c0c53b8b1461049d57600080fd5b8063715018a611610123578063715018a61461026557806381cf3ab81461027a5780638da5cb5b1461029a578063960c8b45146102d75780639ef1204c14610308578063a16026f41461032857600080fd5b80630233ce6a1461016b578063043c97fa146101a8578063404f49d1146101ee5780634f1ef2861461020e57806352d1902d146102235780636658237114610238575b600080fd5b34801561017757600080fd5b50600d5461018b906001600160a01b031681565b6040516001600160a01b0390911681526020015b60405180910390f35b3480156101b457600080fd5b506101e06101c3366004611f61565b600760209081526000928352604080842090915290825290205481565b60405190815260200161019f565b3480156101fa57600080fd5b50600c5461018b906001600160a01b031681565b61022161021c366004612055565b6105e7565b005b34801561022f57600080fd5b506101e0610606565b34801561024457600080fd5b506101e06102533660046120b7565b600a6020526000908152604090205481565b34801561027157600080fd5b50610221610623565b34801561028657600080fd5b506102216102953660046120d0565b610637565b3480156102a657600080fd5b507f9016d09d72d40fdae2fd8ceac6b6234c7706214fd39c1cd1e609a0528c199300546001600160a01b031661018b565b3480156102e357600080fd5b506102f76102f23660046120d0565b6109d7565b60405161019f959493929190612142565b34801561031457600080fd5b506102216103233660046120d0565b610b0e565b34801561033457600080fd5b50610363610343366004611f61565b600860209081526000928352604080842090915290825290205460ff1681565b604051901515815260200161019f565b34801561037f57600080fd5b5061036361038e366004611f61565b600260209081526000928352604080842090915290825290205460ff1681565b3480156103ba57600080fd5b506101e06103c9366004611f61565b600560209081526000928352604080842090915290825290205481565b3480156103f257600080fd5b50610417604051806040016040528060058152602001640352e302e360dc1b81525081565b60405161019f91906121bd565b34801561043057600080fd5b5061045b61043f3660046120b7565b6000602081905290815260409020805460019091015460ff1682565b6040805192835290151560208301520161019f565b34801561047c57600080fd5b506101e061048b3660046121d0565b600b6020526000908152604090205481565b3480156104a957600080fd5b506102216104b83660046121eb565b610ec0565b3480156104c957600080fd5b5061045b6104d83660046120b7565b6003602052600090815260409020805460019091015460ff1682565b34801561050057600080fd5b506101e061050f3660046120d0565b600660209081526000928352604080842090915290825290205481565b34801561053857600080fd5b506101e06105473660046120b7565b60096020526000908152604090205481565b6102216105673660046122ae565b61100a565b34801561057857600080fd5b506102216105873660046120d0565b611555565b34801561059857600080fd5b506102216105a73660046121d0565b61179f565b3480156105b857600080fd5b506103636105c7366004611f61565b600460209081526000928352604080842090915290825290205460ff1681565b6105ef6117dd565b6105f882611882565b610602828261188a565b5050565b600061061061194c565b506000805160206125c783398151915290565b61062b611995565b61063560006119f0565b565b600c54604051632769b96d60e11b81523360048201526024810184905283916001600160a01b031690634ed372da90604401602060405180830381865afa158015610686573d6000803e3d6000fd5b505050506040513d601f19601f820116820180604052508101906106aa919061236e565b806107235750600c546040516302c9a8b560e01b8152336004820152602481018390526001600160a01b03909116906302c9a8b590604401602060405180830381865afa1580156106ff573d6000803e3d6000fd5b505050506040513d601f19601f82011682018060405250810190610723919061236e565b6107655760405162461bcd60e51b815260206004820152600e60248201526d139bdd08185d5d1a1bdc9a5e995960921b60448201526064015b60405180910390fd5b6000838152600160209081526040808320600a909252909120548154811061078f5761078f612390565b90600052602060002090600a02016005018054905082106107e75760405162461bcd60e51b8152602060048201526012602482015271092dcecc2d8d2c840c8c2e8ca40d2dcc8caf60731b604482015260640161075c565b60008381526007602090815260408083203384529091529020548281036108505760405162461bcd60e51b815260206004820152601b60248201527f416c726561647920766f74656420666f72207468697320646174650000000000604482015260640161075c565b600084815260086020908152604080832033845290915290205460ff161561089d5760008481526006602090815260408083208484529091528120805491610897836123bc565b91905055505b600084815260066020908152604080832086845290915281208054916108c2836123d3565b9091555050600084815260086020908152604080832033808552908352818420805460ff19166001179055878452600783528184208185528352928190208690555185815286917f9be4e7a28923fc7c16e20aa07e4d848cd6b3c9a28c315d27b3c51718cfd6ef59910160405180910390a3600c5460405163217fe85b60e21b8152600481018690526000916001600160a01b0316906385ffa16c90602401602060405180830381865afa15801561097e573d6000803e3d6000fd5b505050506040513d601f19601f820116820180604052508101906109a291906123ec565b60008681526006602090815260408083208884529091529020549091508190036109d0576109d08585611a61565b5050505050565b600160205281600052604060002081815481106109f357600080fd5b90600052602060002090600a02016000915091505080600001604051806080016040529081600082018054610a2790612405565b80601f0160208091040260200160405190810160405280929190818152602001828054610a5390612405565b8015610aa05780601f10610a7557610100808354040283529160200191610aa0565b820191906000526020600020905b815481529060010190602001808311610a8357829003601f168201915b50505091835250506040805180820182526001840154815260028401546020828101919091528301526003830154908201526004909101546001600160a01b039081166060909201919091526006830154600784015460088501546009909501549394919092169260ff1685565b600c54604051632769b96d60e11b81523360048201526024810184905283916001600160a01b031690634ed372da90604401602060405180830381865afa158015610b5d573d6000803e3d6000fd5b505050506040513d601f19601f82011682018060405250810190610b81919061236e565b80610bfa5750600c546040516302c9a8b560e01b8152336004820152602481018390526001600160a01b03909116906302c9a8b590604401602060405180830381865afa158015610bd6573d6000803e3d6000fd5b505050506040513d601f19601f82011682018060405250810190610bfa919061236e565b610c375760405162461bcd60e51b815260206004820152600e60248201526d139bdd08185d5d1a1bdc9a5e995960921b604482015260640161075c565b6000838152600160205260409020548210610c8d5760405162461bcd60e51b8152602060048201526016602482015275092dcecc2d8d2c840e0e4dee0dee6c2d840d2dcc8caf60531b604482015260640161075c565b6000838152600560209081526040808320338452909152902054828103610cf65760405162461bcd60e51b815260206004820152601c60248201527f416c726561647920766f74656420666f7220746869732076656e756500000000604482015260640161075c565b600084815260026020908152604080832033845290915290205460ff1615610d5c576000848152600160205260409020805482908110610d3857610d38612390565b6000918252602082206008600a9092020101805491610d56836123bc565b91905055505b6000848152600160205260409020805484908110610d7c57610d7c612390565b6000918252602082206008600a9092020101805491610d9a836123d3565b9091555050600084815260026020908152604080832033808552908352818420805460ff19166001179055878452600583528184208185528352928190208690555185815286917f09e638baf0aa9cdb2a3233767bf1f976e138af255c4da751ab01215f4c96f2b0910160405180910390a3600c5460405163217fe85b60e21b8152600481018690526000916001600160a01b0316906385ffa16c90602401602060405180830381865afa158015610e56573d6000803e3d6000fd5b505050506040513d601f19601f82011682018060405250810190610e7a91906123ec565b60008681526001602052604090208054919250829186908110610e9f57610e9f612390565b90600052602060002090600a020160080154036109d0576109d08585611ab2565b7ff0c57e16840df040f15088dc2f81fe391c3923bec73e23a9662efc9c229c6a008054600160401b810460ff16159067ffffffffffffffff16600081158015610f065750825b905060008267ffffffffffffffff166001148015610f235750303b155b905081158015610f31575080155b15610f4f5760405163f92ee8a960e01b815260040160405180910390fd5b845467ffffffffffffffff191660011785558315610f7957845460ff60401b1916600160401b1785555b610f8288611b34565b610f8a611b45565b600c80546001600160a01b03808a166001600160a01b031992831617909255600d805492891692909116919091179055831561100057845460ff60401b19168555604051600181527fc7f505b2f371ae2175ee4913f4499e1f2633a7b5936321eed1cdaeb6115181d29060200160405180910390a15b5050505050505050565b600c546040516346c2c8a760e01b8152600481018790526001916001600160a01b0316906346c2c8a790602401602060405180830381865afa158015611054573d6000803e3d6000fd5b505050506040513d601f19601f820116820180604052508101906110789190612455565b60078111156110895761108961243f565b146110cd5760405162461bcd60e51b815260206004820152601460248201527314da1bddc81b5d5cdd0818994814dbdb1913dd5d60621b604482015260640161075c565b60008581526020819052604090205415806110f657506000858152602081905260409020544211155b6111425760405162461bcd60e51b815260206004820152601960248201527f50726f706f73616c20706572696f642068617320656e64656400000000000000604482015260640161075c565b825163055d4a7f191380159061115d5750825163055d4a8012155b61119c5760405162461bcd60e51b815260206004820152601060248201526f496e76616c6964206c6174697475646560801b604482015260640161075c565b630aba94ff198360200151121580156111bd5750630aba9500836020015113155b6111fd5760405162461bcd60e51b8152602060048201526011602482015270496e76616c6964206c6f6e67697475646560781b604482015260640161075c565b600081511161125a5760405162461bcd60e51b815260206004820152602360248201527f4174206c65617374206f6e652070726f706f73656420646174652072657175696044820152621c995960ea1b606482015260840161075c565b6005815111156112b75760405162461bcd60e51b815260206004820152602260248201527f50726f706f73616c206d75737420686176652035206f72206c65737320646174604482015261657360f01b606482015260840161075c565b60005b815181101561136d576000868152602081905260409020546112e09062278d0090612476565b8282815181106112f2576112f2612390565b60200260200101511161135b5760405162461bcd60e51b815260206004820152602b60248201527f50726f706f7365642064617465206d757374206265203630206461797320696e60448201526a207468652066757475726560a81b606482015260840161075c565b80611365816123d3565b9150506112ba565b5060008581526020819052604090206001015460ff166113905761139085611b4d565b6000858152602081905260409020546113ac9061546090612489565b42106113d957600085815260208190526040812080546201518092906113d3908490612476565b90915550505b6113e1611e5b565b8481526020810184905260408101839052336060820152611400611e9e565b81815260208082018490523360408084019190915234606084015260006080840181905260a08401819052898152600180845291812080549283018155815291909120825180518493600a02909201918290819061145e90826124ea565b5060208281015180516001840155810151600283015560408301516003830155606090920151600490910180546001600160a01b0319166001600160a01b039092169190911790558281015180516114bc9260058501920190611ee5565b506040828101516006830180546001600160a01b0319166001600160a01b03909216919091179055606083015160078301556080830151600883015560a0909201516009909101805460ff191691151591909117905551339088907fe3d9c91fef9ec1a5517b77d8f83af57508342220388c74d079df56bb9c5349e090611544908a906121bd565b60405180910390a350505050505050565b600082815260036020526040902054158015611583575060008281526003602052604090206001015460ff16155b156115915761159182611bc1565b60008281526003602052604090206001015460ff166115f25760405162461bcd60e51b815260206004820152601b60248201527f566f74696e6720706572696f64206973206e6f74206163746976650000000000604482015260640161075c565b600c54604051638d700eaf60e01b8152336004820152602481018490526001600160a01b0390911690638d700eaf90604401602060405180830381865afa158015611641573d6000803e3d6000fd5b505050506040513d601f19601f82011682018060405250810190611665919061236e565b6116a65760405162461bcd60e51b81526020600482015260126024820152712737ba1030903a34b1b5b2ba1037bbb732b960711b604482015260640161075c565b600082815260046020908152604080832033845290915290205460ff16156117005760405162461bcd60e51b815260206004820152600d60248201526c105b1c9958591e481d9bdd1959609a1b604482015260640161075c565b600082815260016020526040902080548290811061172057611720612390565b6000918252602082206008600a909202010180549161173e836123d3565b909155505060008281526004602090815260408083203380855290835292819020805460ff191660011790555183815284917f37b8aa4050778a896e18d9773bb81d7a680a33f4b9232d489a3541a7a95c8350910160405180910390a35050565b6117a7611995565b6001600160a01b0381166117d157604051631e4fbdf760e01b81526000600482015260240161075c565b6117da816119f0565b50565b306001600160a01b037f000000000000000000000000000000000000000000000000000000000000000016148061186457507f00000000000000000000000000000000000000000000000000000000000000006001600160a01b03166118586000805160206125c7833981519152546001600160a01b031690565b6001600160a01b031614155b156106355760405163703e46dd60e11b815260040160405180910390fd5b6117da611995565b816001600160a01b03166352d1902d6040518163ffffffff1660e01b8152600401602060405180830381865afa9250505080156118e4575060408051601f3d908101601f191682019092526118e1918101906123ec565b60015b61190c57604051634c9c8ce360e01b81526001600160a01b038316600482015260240161075c565b6000805160206125c7833981519152811461193d57604051632a87526960e21b81526004810182905260240161075c565b6119478383611c30565b505050565b306001600160a01b037f000000000000000000000000000000000000000000000000000000000000000016146106355760405163703e46dd60e11b815260040160405180910390fd5b336119c77f9016d09d72d40fdae2fd8ceac6b6234c7706214fd39c1cd1e609a0528c199300546001600160a01b031690565b6001600160a01b0316146106355760405163118cdaa760e01b815233600482015260240161075c565b7f9016d09d72d40fdae2fd8ceac6b6234c7706214fd39c1cd1e609a0528c19930080546001600160a01b031981166001600160a01b03848116918217845560405192169182907f8be0079c531659141344cd1fd0a4f28419497f9722a3daafe3b4186f6b6457e090600090a3505050565b600082815260096020526040908190208290555182907f30f427038b9903ed0be3f545ee5d678ba47d53ce2ffe77eb1eccbde089ec207d90611aa69084815260200190565b60405180910390a25050565b6000828152600160208190526040909120805483908110611ad557611ad5612390565b60009182526020808320600a92830201600901805460ff19169415159490941790935584825282526040908190208390555182815283917fa4cdb24ce3dbadfa51e723cabdbbd7124e6b55e68a4b41d3eb42a00d144eefe39101611aa6565b611b3c611c86565b6117da81611ccf565b610635611c86565b60008181526020819052604090206001908101805460ff19169091179055611b7862093a8042612476565b60008281526020818152604091829020839055905191825282917fbe893194ee9c4752250e88ba9de293863b73822c4663c78d6cad1f9aa7d91cdc91015b60405180910390a250565b60008181526003602052604090206001908101805460ff19169091179055611bec6203f48042612476565b600082815260036020526040908190208290555182917f58f609de0b6e6eb5c26a9c4e7c7829683497810612c1bdfdba684a4a8db0854691611bb691815260200190565b611c3982611cd7565b6040516001600160a01b038316907fbc7cd75a20ee27fd9adebab32041f755214dbc6bffa90cc0225b39da2e5c2d3b90600090a2805115611c7e576119478282611d3c565b610602611db4565b7ff0c57e16840df040f15088dc2f81fe391c3923bec73e23a9662efc9c229c6a0054600160401b900460ff1661063557604051631afcd79f60e31b815260040160405180910390fd5b6117a7611c86565b806001600160a01b03163b600003611d0d57604051634c9c8ce360e01b81526001600160a01b038216600482015260240161075c565b6000805160206125c783398151915280546001600160a01b0319166001600160a01b0392909216919091179055565b6060600080846001600160a01b031684604051611d5991906125aa565b600060405180830381855af49150503d8060008114611d94576040519150601f19603f3d011682016040523d82523d6000602084013e611d99565b606091505b5091509150611da9858383611dd3565b925050505b92915050565b34156106355760405163b398979f60e01b815260040160405180910390fd5b606082611de857611de382611e32565b611e2b565b8151158015611dff57506001600160a01b0384163b155b15611e2857604051639996b31560e01b81526001600160a01b038516600482015260240161075c565b50805b9392505050565b805115611e425780518082602001fd5b604051630a12f52160e11b815260040160405180910390fd5b604051806080016040528060608152602001611e8a604051806040016040528060008152602001600081525090565b815260006020820181905260409091015290565b6040518060c00160405280611eb1611e5b565b81526020016060815260200160006001600160a01b0316815260200160008152602001600081526020016000151581525090565b828054828255906000526020600020908101928215611f20579160200282015b82811115611f20578251825591602001919060010190611f05565b50611f2c929150611f30565b5090565b5b80821115611f2c5760008155600101611f31565b80356001600160a01b0381168114611f5c57600080fd5b919050565b60008060408385031215611f7457600080fd5b82359150611f8460208401611f45565b90509250929050565b634e487b7160e01b600052604160045260246000fd5b6040805190810167ffffffffffffffff81118282101715611fc657611fc6611f8d565b60405290565b604051601f8201601f1916810167ffffffffffffffff81118282101715611ff557611ff5611f8d565b604052919050565b600067ffffffffffffffff83111561201757612017611f8d565b61202a601f8401601f1916602001611fcc565b905082815283838301111561203e57600080fd5b828260208301376000602084830101529392505050565b6000806040838503121561206857600080fd5b61207183611f45565b9150602083013567ffffffffffffffff81111561208d57600080fd5b8301601f8101851361209e57600080fd5b6120ad85823560208401611ffd565b9150509250929050565b6000602082840312156120c957600080fd5b5035919050565b600080604083850312156120e357600080fd5b50508035926020909101359150565b60005b8381101561210d5781810151838201526020016120f5565b50506000910152565b6000815180845261212e8160208601602086016120f2565b601f01601f19169290920160200192915050565b60a081526000865160a08084015261215e610140840182612116565b602089810151805160c087015281015160e08601526040808b015161010087015260609a8b01516001600160a01b0390811661012088015299909916908501529683019590955250948501919091521515608090930192909252919050565b602081526000611e2b6020830184612116565b6000602082840312156121e257600080fd5b611e2b82611f45565b60008060006060848603121561220057600080fd5b61220984611f45565b925061221760208501611f45565b915061222560408501611f45565b90509250925092565b600082601f83011261223f57600080fd5b8135602067ffffffffffffffff82111561225b5761225b611f8d565b8160051b61226a828201611fcc565b928352848101820192828101908785111561228457600080fd5b83870192505b848310156122a35782358252918301919083019061228a565b979650505050505050565b600080600080600085870360c08112156122c757600080fd5b86359550602087013567ffffffffffffffff808211156122e657600080fd5b818901915089601f8301126122fa57600080fd5b6123098a833560208501611ffd565b96506040603f198401121561231d57600080fd5b612325611fa3565b60408a0135815260608a0135602082015295506080890135945060a089013592508083111561235357600080fd5b50506123618882890161222e565b9150509295509295909350565b60006020828403121561238057600080fd5b81518015158114611e2b57600080fd5b634e487b7160e01b600052603260045260246000fd5b634e487b7160e01b600052601160045260246000fd5b6000816123cb576123cb6123a6565b506000190190565b6000600182016123e5576123e56123a6565b5060010190565b6000602082840312156123fe57600080fd5b5051919050565b600181811c9082168061241957607f821691505b60208210810361243957634e487b7160e01b600052602260045260246000fd5b50919050565b634e487b7160e01b600052602160045260246000fd5b60006020828403121561246757600080fd5b815160088110611e2b57600080fd5b80820180821115611dae57611dae6123a6565b81810381811115611dae57611dae6123a6565b601f82111561194757600081815260208120601f850160051c810160208610156124c35750805b601f850160051c820191505b818110156124e2578281556001016124cf565b505050505050565b815167ffffffffffffffff81111561250457612504611f8d565b612518816125128454612405565b8461249c565b602080601f83116001811461254d57600084156125355750858301515b600019600386901b1c1916600185901b1785556124e2565b600085815260208120601f198616915b8281101561257c5788860151825594840194600190910190840161255d565b508582101561259a5787850151600019600388901b60f8161c191681555b5050505050600190811b01905550565b600082516125bc8184602087016120f2565b919091019291505056fe360894a13ba1a3210667c828492db98dca3e2076cc3735a920a3ca505d382bbca264697066735822122096ae0f8b1bb9662b8d499009699515cb4e9650dec3fc5bc81201b281bad2ddf764736f6c6343000814003360806040526040516104e13803806104e1833981016040819052610022916102de565b61002e82826000610035565b50506103fb565b61003e83610061565b60008251118061004b5750805b1561005c5761005a83836100a1565b505b505050565b61006a816100cd565b6040516001600160a01b038216907fbc7cd75a20ee27fd9adebab32041f755214dbc6bffa90cc0225b39da2e5c2d3b90600090a250565b60606100c683836040518060600160405280602781526020016104ba60279139610180565b9392505050565b6001600160a01b0381163b61013f5760405162461bcd60e51b815260206004820152602d60248201527f455243313936373a206e657720696d706c656d656e746174696f6e206973206e60448201526c1bdd08184818dbdb9d1c9858dd609a1b60648201526084015b60405180910390fd5b7f360894a13ba1a3210667c828492db98dca3e2076cc3735a920a3ca505d382bbc80546001600160a01b0319166001600160a01b0392909216919091179055565b6060600080856001600160a01b03168560405161019d91906103ac565b600060405180830381855af49150503d80600081146101d8576040519150601f19603f3d011682016040523d82523d6000602084013e6101dd565b606091505b5090925090506101ef868383876101f9565b9695505050505050565b60608315610268578251600003610261576001600160a01b0385163b6102615760405162461bcd60e51b815260206004820152601d60248201527f416464726573733a2063616c6c20746f206e6f6e2d636f6e74726163740000006044820152606401610136565b5081610272565b610272838361027a565b949350505050565b81511561028a5781518083602001fd5b8060405162461bcd60e51b815260040161013691906103c8565b634e487b7160e01b600052604160045260246000fd5b60005b838110156102d55781810151838201526020016102bd565b50506000910152565b600080604083850312156102f157600080fd5b82516001600160a01b038116811461030857600080fd5b60208401519092506001600160401b038082111561032557600080fd5b818501915085601f83011261033957600080fd5b81518181111561034b5761034b6102a4565b604051601f8201601f19908116603f01168101908382118183101715610373576103736102a4565b8160405282815288602084870101111561038c57600080fd5b61039d8360208301602088016102ba565b80955050505050509250929050565b600082516103be8184602087016102ba565b9190910192915050565b60208152600082518060208401526103e78160408501602087016102ba565b601f01601f19169190910160400192915050565b60b1806104096000396000f3fe608060405236601057600e6013565b005b600e5b601f601b6021565b6058565b565b600060537f360894a13ba1a3210667c828492db98dca3e2076cc3735a920a3ca505d382bbc546001600160a01b031690565b905090565b3660008037600080366000845af43d6000803e8080156076573d6000f35b3d6000fdfea264697066735822122027f562cde8265aa90118a53b2f65370962feb418519bf39bfc7ccbb34402bb5164736f6c63430008140033416464726573733a206c6f772d6c6576656c2064656c65676174652063616c6c206661696c6564a2646970667358221220328f16f7e871bfab63dd57246a6ad54a687b0c0d0ea67f06fff5858fd70e429364736f6c63430008140033","linkReferences":{}},"methodIdentifiers":{"artistRegistryAddress()":"03ff9899","deployArtistRegistry()":"af069506","deployOrganizerRegistry()":"ad53f770","deployReferralModule()":"a5daabb5","deployShow()":"2e154e56","deployTicket()":"43b3dc34","deployVenue()":"34e4d71d","deployVenueRegistry()":"7b42bac8","finalizeDeployment()":"e92c051f","organizerRegistryAddress()":"ab1ed22b","referralModuleAddress()":"e3f3a3c7","selloutProtocolWallet()":"c4b2992f","showAddress()":"85ffebd7","ticketAddress()":"57a8e3fe","venueAddress()":"69ba4f68","venueRegistryAddress()":"8210312e"},"id":33}