{"abi":[{"type":"function","name":"deployReferralModule","inputs":[{"name":"initialOwner","type":"address","internalType":"address"}],"outputs":[{"name":"","type":"address","internalType":"address"}],"stateMutability":"nonpayable"}],"bytecode":{"object":"0x608060405234801561001057600080fd5b506115bd806100206000396000f3fe608060405234801561001057600080fd5b506004361061002b5760003560e01c806398af9ab714610030575b600080fd5b61004361003e36600461012e565b61005f565b6040516001600160a01b03909116815260200160405180910390f35b60008060405161006e90610114565b604051809103906000f08015801561008a573d6000803e3d6000fd5b50604080516001600160a01b03861660248083019190915282518083039091018152604490910182526020810180516001600160e01b031663189acdbd60e31b179052905191925090600090839083906100e390610121565b6100ee92919061015e565b604051809103906000f08015801561010a573d6000803e3d6000fd5b5095945050505050565b610eea806101bd83390190565b6104e1806110a783390190565b60006020828403121561014057600080fd5b81356001600160a01b038116811461015757600080fd5b9392505050565b60018060a01b038316815260006020604081840152835180604085015260005b8181101561019a5785810183015185820160600152820161017e565b506000606082860101526060601f19601f83011685010192505050939250505056fe60a06040523060805234801561001457600080fd5b50608051610eac61003e6000396000818161074d0152818161077601526108bc0152610eac6000f3fe6080604052600436106100a75760003560e01c80638da5cb5b116100645780638da5cb5b1461017e5780639857ee0c146101c55780639e9cad2914610207578063ad3cb1cc14610227578063c4d66de814610265578063f2fde38b1461028557600080fd5b806321ceab3d146100ac578063416b56db146100ce5780634f1ef286146100ee57806352d1902d146101015780636216cd9514610129578063715018a614610169575b600080fd5b3480156100b857600080fd5b506100cc6100c7366004610c26565b6102a5565b005b3480156100da57600080fd5b506100cc6100e9366004610c26565b610421565b6100cc6100fc366004610c75565b6104d1565b34801561010d57600080fd5b506101166104f0565b6040519081526020015b60405180910390f35b34801561013557600080fd5b50610159610144366004610d37565b60016020526000908152604090205460ff1681565b6040519015158152602001610120565b34801561017557600080fd5b506100cc61050d565b34801561018a57600080fd5b507f9016d09d72d40fdae2fd8ceac6b6234c7706214fd39c1cd1e609a0528c199300546040516001600160a01b039091168152602001610120565b3480156101d157600080fd5b506101e56101e0366004610d37565b610521565b6040805182518152602080840151908201529181015190820152606001610120565b34801561021357600080fd5b506100cc610222366004610d52565b610585565b34801561023357600080fd5b50610258604051806040016040528060058152602001640352e302e360dc1b81525081565b6040516101209190610db2565b34801561027157600080fd5b506100cc610280366004610d37565b6105ec565b34801561029157600080fd5b506100cc6102a0366004610d37565b610704565b3360009081526001602052604090205460ff166102f85760405162461bcd60e51b815260206004820152600c60248201526b155b985d5d1a1bdc9a5e995960a21b60448201526064015b60405180910390fd5b6001600160a01b038416600090815260208190526040902080548411801590610325575082816001015410155b8015610335575081816002015410155b6103785760405162461bcd60e51b8152602060048201526014602482015273496e73756666696369656e74206372656469747360601b60448201526064016102ef565b8381600001600082825461038c9190610dfb565b92505081905550828160010160008282546103a79190610dfb565b92505081905550818160020160008282546103c29190610dfb565b909155505060408051825481526001830154602082015260028301548183015290516001600160a01b038716917f7cafc424f9894c1b6d1ec3f4224c92273b407136d1dda6033adc25f4378cda61919081900360600190a25050505050565b3360009081526001602052604090205460ff1661046f5760405162461bcd60e51b815260206004820152600c60248201526b155b985d5d1a1bdc9a5e995960a21b60448201526064016102ef565b6001600160a01b038416600090815260208190526040812080549091859183919061049b908490610e0e565b92505081905550828160010160008282546104b69190610e0e565b92505081905550818160020160008282546103c29190610e0e565b6104d9610742565b6104e2826107e7565b6104ec82826107ef565b5050565b60006104fa6108b1565b50600080516020610e5783398151915290565b6105156108fa565b61051f6000610955565b565b61054560405180606001604052806000815260200160008152602001600081525090565b506001600160a01b031660009081526020818152604091829020825160608101845281548152600182015492810192909252600201549181019190915290565b61058d6108fa565b6001600160a01b038216600081815260016020908152604091829020805460ff191685151590811790915591519182527f6a51febf99909656dd24dfa3562a7b303d7f130a915393f8a74402fa531061cb910160405180910390a25050565b7ff0c57e16840df040f15088dc2f81fe391c3923bec73e23a9662efc9c229c6a008054600160401b810460ff16159067ffffffffffffffff166000811580156106325750825b905060008267ffffffffffffffff16600114801561064f5750303b155b90508115801561065d575080155b1561067b5760405163f92ee8a960e01b815260040160405180910390fd5b845467ffffffffffffffff1916600117855583156106a557845460ff60401b1916600160401b1785555b6106ae866109c6565b6106b66109d7565b83156106fc57845460ff60401b19168555604051600181527fc7f505b2f371ae2175ee4913f4499e1f2633a7b5936321eed1cdaeb6115181d29060200160405180910390a15b505050505050565b61070c6108fa565b6001600160a01b03811661073657604051631e4fbdf760e01b8152600060048201526024016102ef565b61073f81610955565b50565b306001600160a01b037f00000000000000000000000000000000000000000000000000000000000000001614806107c957507f00000000000000000000000000000000000000000000000000000000000000006001600160a01b03166107bd600080516020610e57833981519152546001600160a01b031690565b6001600160a01b031614155b1561051f5760405163703e46dd60e11b815260040160405180910390fd5b61073f6108fa565b816001600160a01b03166352d1902d6040518163ffffffff1660e01b8152600401602060405180830381865afa925050508015610849575060408051601f3d908101601f1916820190925261084691810190610e21565b60015b61087157604051634c9c8ce360e01b81526001600160a01b03831660048201526024016102ef565b600080516020610e5783398151915281146108a257604051632a87526960e21b8152600481018290526024016102ef565b6108ac83836109df565b505050565b306001600160a01b037f0000000000000000000000000000000000000000000000000000000000000000161461051f5760405163703e46dd60e11b815260040160405180910390fd5b3361092c7f9016d09d72d40fdae2fd8ceac6b6234c7706214fd39c1cd1e609a0528c199300546001600160a01b031690565b6001600160a01b03161461051f5760405163118cdaa760e01b81523360048201526024016102ef565b7f9016d09d72d40fdae2fd8ceac6b6234c7706214fd39c1cd1e609a0528c19930080546001600160a01b031981166001600160a01b03848116918217845560405192169182907f8be0079c531659141344cd1fd0a4f28419497f9722a3daafe3b4186f6b6457e090600090a3505050565b6109ce610a35565b61073f81610a7e565b61051f610a35565b6109e882610a86565b6040516001600160a01b038316907fbc7cd75a20ee27fd9adebab32041f755214dbc6bffa90cc0225b39da2e5c2d3b90600090a2805115610a2d576108ac8282610aeb565b6104ec610b63565b7ff0c57e16840df040f15088dc2f81fe391c3923bec73e23a9662efc9c229c6a0054600160401b900460ff1661051f57604051631afcd79f60e31b815260040160405180910390fd5b61070c610a35565b806001600160a01b03163b600003610abc57604051634c9c8ce360e01b81526001600160a01b03821660048201526024016102ef565b600080516020610e5783398151915280546001600160a01b0319166001600160a01b0392909216919091179055565b6060600080846001600160a01b031684604051610b089190610e3a565b600060405180830381855af49150503d8060008114610b43576040519150601f19603f3d011682016040523d82523d6000602084013e610b48565b606091505b5091509150610b58858383610b82565b925050505b92915050565b341561051f5760405163b398979f60e01b815260040160405180910390fd5b606082610b9757610b9282610be1565b610bda565b8151158015610bae57506001600160a01b0384163b155b15610bd757604051639996b31560e01b81526001600160a01b03851660048201526024016102ef565b50805b9392505050565b805115610bf15780518082602001fd5b604051630a12f52160e11b815260040160405180910390fd5b80356001600160a01b0381168114610c2157600080fd5b919050565b60008060008060808587031215610c3c57600080fd5b610c4585610c0a565b966020860135965060408601359560600135945092505050565b634e487b7160e01b600052604160045260246000fd5b60008060408385031215610c8857600080fd5b610c9183610c0a565b9150602083013567ffffffffffffffff80821115610cae57600080fd5b818501915085601f830112610cc257600080fd5b813581811115610cd457610cd4610c5f565b604051601f8201601f19908116603f01168101908382118183101715610cfc57610cfc610c5f565b81604052828152886020848701011115610d1557600080fd5b8260208601602083013760006020848301015280955050505050509250929050565b600060208284031215610d4957600080fd5b610bda82610c0a565b60008060408385031215610d6557600080fd5b610d6e83610c0a565b915060208301358015158114610d8357600080fd5b809150509250929050565b60005b83811015610da9578181015183820152602001610d91565b50506000910152565b6020815260008251806020840152610dd1816040850160208701610d8e565b601f01601f19169190910160400192915050565b634e487b7160e01b600052601160045260246000fd5b81810381811115610b5d57610b5d610de5565b80820180821115610b5d57610b5d610de5565b600060208284031215610e3357600080fd5b5051919050565b60008251610e4c818460208701610d8e565b919091019291505056fe360894a13ba1a3210667c828492db98dca3e2076cc3735a920a3ca505d382bbca26469706673582212209b7db8d005713175451b7791676dc5fd59f3fb5b9865c9b25e1c3657b593567364736f6c6343000814003360806040526040516104e13803806104e1833981016040819052610022916102de565b61002e82826000610035565b50506103fb565b61003e83610061565b60008251118061004b5750805b1561005c5761005a83836100a1565b505b505050565b61006a816100cd565b6040516001600160a01b038216907fbc7cd75a20ee27fd9adebab32041f755214dbc6bffa90cc0225b39da2e5c2d3b90600090a250565b60606100c683836040518060600160405280602781526020016104ba60279139610180565b9392505050565b6001600160a01b0381163b61013f5760405162461bcd60e51b815260206004820152602d60248201527f455243313936373a206e657720696d706c656d656e746174696f6e206973206e60448201526c1bdd08184818dbdb9d1c9858dd609a1b60648201526084015b60405180910390fd5b7f360894a13ba1a3210667c828492db98dca3e2076cc3735a920a3ca505d382bbc80546001600160a01b0319166001600160a01b0392909216919091179055565b6060600080856001600160a01b03168560405161019d91906103ac565b600060405180830381855af49150503d80600081146101d8576040519150601f19603f3d011682016040523d82523d6000602084013e6101dd565b606091505b5090925090506101ef868383876101f9565b9695505050505050565b60608315610268578251600003610261576001600160a01b0385163b6102615760405162461bcd60e51b815260206004820152601d60248201527f416464726573733a2063616c6c20746f206e6f6e2d636f6e74726163740000006044820152606401610136565b5081610272565b610272838361027a565b949350505050565b81511561028a5781518083602001fd5b8060405162461bcd60e51b815260040161013691906103c8565b634e487b7160e01b600052604160045260246000fd5b60005b838110156102d55781810151838201526020016102bd565b50506000910152565b600080604083850312156102f157600080fd5b82516001600160a01b038116811461030857600080fd5b60208401519092506001600160401b038082111561032557600080fd5b818501915085601f83011261033957600080fd5b81518181111561034b5761034b6102a4565b604051601f8201601f19908116603f01168101908382118183101715610373576103736102a4565b8160405282815288602084870101111561038c57600080fd5b61039d8360208301602088016102ba565b80955050505050509250929050565b600082516103be8184602087016102ba565b9190910192915050565b60208152600082518060208401526103e78160408501602087016102ba565b601f01601f19169190910160400192915050565b60b1806104096000396000f3fe608060405236601057600e6013565b005b600e5b601f601b6021565b6058565b565b600060537f360894a13ba1a3210667c828492db98dca3e2076cc3735a920a3ca505d382bbc546001600160a01b031690565b905090565b3660008037600080366000845af43d6000803e8080156076573d6000f35b3d6000fdfea264697066735822122027f562cde8265aa90118a53b2f65370962feb418519bf39bfc7ccbb34402bb5164736f6c63430008140033416464726573733a206c6f772d6c6576656c2064656c65676174652063616c6c206661696c6564a2646970667358221220dba316a53d8eccc3dbe97e561dc37a27408eeba02e17ecf028f536e0581bfb5964736f6c63430008140033","linkReferences":{}},"methodIdentifiers":{"deployReferralModule(address)":"98af9ab7"},"id":34}