{"abi":[{"type":"function","name":"isCreditor","inputs":[{"name":"","type":"address","internalType":"address"}],"outputs":[{"name":"","type":"bool","internalType":"bool"}],"stateMutability":"view"},{"type":"event","name":"PermissionToUpdateCredits","inputs":[{"name":"contractAddress","type":"address","indexed":true,"internalType":"address"},{"name":"permission","type":"bool","indexed":false,"internalType":"bool"}],"anonymous":false},{"type":"event","name":"ReferralCreditsUpdated","inputs":[{"name":"referrer","type":"address","indexed":true,"internalType":"address"},{"name":"credits","type":"tuple","indexed":false,"internalType":"struct ReferralTypes.ReferralCredits","components":[{"name":"artist","type":"uint256","internalType":"uint256"},{"name":"organizer","type":"uint256","internalType":"uint256"},{"name":"venue","type":"uint256","internalType":"uint256"}]}],"anonymous":false}],"bytecode":{"object":"0x608060405234801561001057600080fd5b5060c58061001f6000396000f3fe6080604052348015600f57600080fd5b506004361060285760003560e01c80636216cd9514602d575b600080fd5b604d60383660046061565b60016020526000908152604090205460ff1681565b604051901515815260200160405180910390f35b600060208284031215607257600080fd5b81356001600160a01b0381168114608857600080fd5b939250505056fea264697066735822122088fc108b975d2d8420e1b4debe5fc74c81b1cf9de73a26c6ee2ef8409d28062e64736f6c63430008140033","linkReferences":{}},"methodIdentifiers":{"isCreditor(address)":"6216cd95"},"id":67}