{"abi":[{"type":"function","name":"THE_GARDEN","inputs":[],"outputs":[{"name":"","type":"address","internalType":"address"}],"stateMutability":"view"},{"type":"function","name":"THE_STEWARD","inputs":[],"outputs":[{"name":"","type":"address","internalType":"address"}],"stateMutability":"view"},{"type":"function","name":"UPGRADE_INTERFACE_VERSION","inputs":[],"outputs":[{"name":"","type":"string","internalType":"string"}],"stateMutability":"view"},{"type":"function","name":"boxOfficeContract","inputs":[],"outputs":[{"name":"","type":"address","internalType":"address"}],"stateMutability":"view"},{"type":"function","name":"calculateTotalPayoutAmount","inputs":[{"name":"showId","type":"bytes32","internalType":"bytes32"},{"name":"paymentToken","type":"address","internalType":"address"}],"outputs":[{"name":"","type":"uint256","internalType":"uint256"}],"stateMutability":"view"},{"type":"function","name":"clearVault","inputs":[{"name":"showId","type":"bytes32","internalType":"bytes32"},{"name":"paymentToken","type":"address","internalType":"address"}],"outputs":[],"stateMutability":"nonpayable"},{"type":"function","name":"depositToVault","inputs":[{"name":"showId","type":"bytes32","internalType":"bytes32"}],"outputs":[],"stateMutability":"payable"},{"type":"function","name":"depositToVaultERC20","inputs":[{"name":"showId","type":"bytes32","internalType":"bytes32"},{"name":"amount","type":"uint256","internalType":"uint256"},{"name":"paymentToken","type":"address","internalType":"address"},{"name":"tokenRecipient","type":"address","internalType":"address"}],"outputs":[],"stateMutability":"nonpayable"},{"type":"function","name":"distributeShares","inputs":[{"name":"showId","type":"bytes32","internalType":"bytes32"},{"name":"recipients","type":"address[]","internalType":"address[]"},{"name":"splits","type":"uint256[]","internalType":"uint256[]"},{"name":"totalAmount","type":"uint256","internalType":"uint256"},{"name":"paymentToken","type":"address","internalType":"address"}],"outputs":[],"stateMutability":"nonpayable"},{"type":"function","name":"getShowPaymentToken","inputs":[{"name":"showId","type":"bytes32","internalType":"bytes32"}],"outputs":[{"name":"","type":"address","internalType":"address"}],"stateMutability":"view"},{"type":"function","name":"initialize","inputs":[{"name":"_showContract","type":"address","internalType":"address"},{"name":"_selloutProtocolWallet","type":"address","internalType":"address"}],"outputs":[],"stateMutability":"nonpayable"},{"type":"function","name":"owner","inputs":[],"outputs":[{"name":"","type":"address","internalType":"address"}],"stateMutability":"view"},{"type":"function","name":"payout","inputs":[{"name":"showId","type":"bytes32","internalType":"bytes32"},{"name":"paymentToken","type":"address","internalType":"address"},{"name":"payee","type":"address","internalType":"address"}],"outputs":[],"stateMutability":"nonpayable"},{"type":"function","name":"pendingPayouts","inputs":[{"name":"","type":"bytes32","internalType":"bytes32"},{"name":"","type":"address","internalType":"address"}],"outputs":[{"name":"","type":"uint256","internalType":"uint256"}],"stateMutability":"view"},{"type":"function","name":"pendingRefunds","inputs":[{"name":"","type":"bytes32","internalType":"bytes32"},{"name":"","type":"address","internalType":"address"}],"outputs":[{"name":"","type":"uint256","internalType":"uint256"}],"stateMutability":"view"},{"type":"function","name":"pendingTokenPayouts","inputs":[{"name":"","type":"bytes32","internalType":"bytes32"},{"name":"","type":"address","internalType":"address"},{"name":"","type":"address","internalType":"address"}],"outputs":[{"name":"","type":"uint256","internalType":"uint256"}],"stateMutability":"view"},{"type":"function","name":"pendingTokenRefunds","inputs":[{"name":"","type":"bytes32","internalType":"bytes32"},{"name":"","type":"address","internalType":"address"},{"name":"","type":"address","internalType":"address"}],"outputs":[{"name":"","type":"uint256","internalType":"uint256"}],"stateMutability":"view"},{"type":"function","name":"processRefund","inputs":[{"name":"showId","type":"bytes32","internalType":"bytes32"},{"name":"refundAmount","type":"uint256","internalType":"uint256"},{"name":"paymentToken","type":"address","internalType":"address"},{"name":"recipient","type":"address","internalType":"address"}],"outputs":[],"stateMutability":"nonpayable"},{"type":"function","name":"proxiableUUID","inputs":[],"outputs":[{"name":"","type":"bytes32","internalType":"bytes32"}],"stateMutability":"view"},{"type":"function","name":"renounceOwnership","inputs":[],"outputs":[],"stateMutability":"nonpayable"},{"type":"function","name":"setContractAddresses","inputs":[{"name":"_boxOfficeContract","type":"address","internalType":"address"}],"outputs":[],"stateMutability":"nonpayable"},{"type":"function","name":"setDAOTreasuryAddress","inputs":[{"name":"_theGarden","type":"address","internalType":"address"}],"outputs":[],"stateMutability":"nonpayable"},{"type":"function","name":"setShowPaymentToken","inputs":[{"name":"showId","type":"bytes32","internalType":"bytes32"},{"name":"token","type":"address","internalType":"address"}],"outputs":[],"stateMutability":"nonpayable"},{"type":"function","name":"showContract","inputs":[],"outputs":[{"name":"","type":"address","internalType":"address"}],"stateMutability":"view"},{"type":"function","name":"showInstance","inputs":[],"outputs":[{"name":"","type":"address","internalType":"contract IShow"}],"stateMutability":"view"},{"type":"function","name":"showPaymentTokens","inputs":[{"name":"","type":"bytes32","internalType":"bytes32"}],"outputs":[{"name":"","type":"address","internalType":"address"}],"stateMutability":"view"},{"type":"function","name":"showTokenVault","inputs":[{"name":"","type":"bytes32","internalType":"bytes32"},{"name":"","type":"address","internalType":"address"}],"outputs":[{"name":"","type":"uint256","internalType":"uint256"}],"stateMutability":"view"},{"type":"function","name":"showVault","inputs":[{"name":"","type":"bytes32","internalType":"bytes32"}],"outputs":[{"name":"","type":"uint256","internalType":"uint256"}],"stateMutability":"view"},{"type":"function","name":"transferOwnership","inputs":[{"name":"newOwner","type":"address","internalType":"address"}],"outputs":[],"stateMutability":"nonpayable"},{"type":"function","name":"upgradeToAndCall","inputs":[{"name":"newImplementation","type":"address","internalType":"address"},{"name":"data","type":"bytes","internalType":"bytes"}],"outputs":[],"stateMutability":"payable"},{"type":"function","name":"withdrawRefund","inputs":[{"name":"showId","type":"bytes32","internalType":"bytes32"},{"name":"paymentToken","type":"address","internalType":"address"},{"name":"payee","type":"address","internalType":"address"}],"outputs":[],"stateMutability":"nonpayable"},{"type":"event","name":"DAOTreasuryAddressUpdated","inputs":[{"name":"newAddress","type":"address","indexed":true,"internalType":"address"}],"anonymous":false},{"type":"event","name":"Initialized","inputs":[{"name":"version","type":"uint64","indexed":false,"internalType":"uint64"}],"anonymous":false},{"type":"event","name":"OwnershipTransferred","inputs":[{"name":"previousOwner","type":"address","indexed":true,"internalType":"address"},{"name":"newOwner","type":"address","indexed":true,"internalType":"address"}],"anonymous":false},{"type":"event","name":"Upgraded","inputs":[{"name":"implementation","type":"address","indexed":true,"internalType":"address"}],"anonymous":false},{"type":"event","name":"Withdrawal","inputs":[{"name":"showId","type":"bytes32","indexed":true,"internalType":"bytes32"},{"name":"recipient","type":"address","indexed":true,"internalType":"address"},{"name":"amount","type":"uint256","indexed":false,"internalType":"uint256"},{"name":"paymentToken","type":"address","indexed":false,"internalType":"address"}],"anonymous":false},{"type":"error","name":"AddressEmptyCode","inputs":[{"name":"target","type":"address","internalType":"address"}]},{"type":"error","name":"ERC1967InvalidImplementation","inputs":[{"name":"implementation","type":"address","internalType":"address"}]},{"type":"error","name":"ERC1967NonPayable","inputs":[]},{"type":"error","name":"FailedInnerCall","inputs":[]},{"type":"error","name":"InvalidInitialization","inputs":[]},{"type":"error","name":"NotInitializing","inputs":[]},{"type":"error","name":"OwnableInvalidOwner","inputs":[{"name":"owner","type":"address","internalType":"address"}]},{"type":"error","name":"OwnableUnauthorizedAccount","inputs":[{"name":"account","type":"address","internalType":"address"}]},{"type":"error","name":"ReentrancyGuardReentrantCall","inputs":[]},{"type":"error","name":"UUPSUnauthorizedCallContext","inputs":[]},{"type":"error","name":"UUPSUnsupportedProxiableUUID","inputs":[{"name":"slot","type":"bytes32","internalType":"bytes32"}]}],"bytecode":{"object":"0x60a06040523060805234801561001457600080fd5b506080516124f561003e6000396000818161175b0152818161178401526118c501526124f56000f3fe6080604052600436106101d85760003560e01c80637597679511610102578063b25e93ff11610095578063e8aa2e5f11610064578063e8aa2e5f14610632578063f2e547be14610652578063f2fde38b14610672578063fab49c371461069257600080fd5b8063b25e93ff14610584578063c9e21e5e146105a4578063ca6644d8146105dc578063d23b85a3146105fc57600080fd5b80638da5cb5b116100d15780638da5cb5b146104935780638e70362b146104d057806392ea638814610508578063ad3cb1cc1461054657600080fd5b806375976795146103f55780637674a691146104335780638526663514610453578063867e68af1461046657600080fd5b8063486c7eb61161017a5780635696c07c116101495780635696c07c146103525780635765fec31461038a5780636c92b022146103c0578063715018a6146103e057600080fd5b8063486c7eb6146102ea5780634f1ef2861461030a57806352d1902d1461031d5780635412233f1461033257600080fd5b80632cc26d94116101b65780632cc26d94146102525780633af704bd14610272578063404f49d114610292578063485cc955146102ca57600080fd5b80631af4b9eb146101dd5780631f88bb87146101ff578063213efcab1461021f575b600080fd5b3480156101e957600080fd5b506101fd6101f8366004611ee4565b6106b2565b005b34801561020b57600080fd5b506101fd61021a366004611f26565b610971565b34801561022b57600080fd5b5061023f61023a366004611f43565b6109ec565b6040519081526020015b60405180910390f35b34801561025e57600080fd5b506101fd61026d366004612049565b610a3c565b34801561027e57600080fd5b506101fd61028d366004611f26565b610b6c565b34801561029e57600080fd5b506003546102b2906001600160a01b031681565b6040516001600160a01b039091168152602001610249565b3480156102d657600080fd5b506101fd6102e5366004612131565b610c24565b3480156102f657600080fd5b50600b546102b2906001600160a01b031681565b6101fd61031836600461215f565b610d79565b34801561032957600080fd5b5061023f610d98565b34801561033e57600080fd5b506101fd61034d366004612207565b610db5565b34801561035e57600080fd5b5061023f61036d366004611f43565b600660209081526000928352604080842090915290825290205481565b34801561039657600080fd5b506102b26103a5366004612251565b600a602052600090815260409020546001600160a01b031681565b3480156103cc57600080fd5b506002546102b2906001600160a01b031681565b3480156103ec57600080fd5b506101fd6110f2565b34801561040157600080fd5b5061023f610410366004611ee4565b600960209081526000938452604080852082529284528284209052825290205481565b34801561043f57600080fd5b506101fd61044e366004611ee4565b611106565b6101fd610461366004612251565b611153565b34801561047257600080fd5b5061023f610481366004612251565b60046020526000908152604090205481565b34801561049f57600080fd5b507f9016d09d72d40fdae2fd8ceac6b6234c7706214fd39c1cd1e609a0528c199300546001600160a01b03166102b2565b3480156104dc57600080fd5b5061023f6104eb366004611f43565b600860209081526000928352604080842090915290825290205481565b34801561051457600080fd5b5061023f610523366004611ee4565b600760209081526000938452604080852082529284528284209052825290205481565b34801561055257600080fd5b50610577604051806040016040528060058152602001640352e302e360dc1b81525081565b604051610249919061228e565b34801561059057600080fd5b506001546102b2906001600160a01b031681565b3480156105b057600080fd5b5061023f6105bf366004611f43565b600560209081526000928352604080842090915290825290205481565b3480156105e857600080fd5b506101fd6105f7366004612207565b61129f565b34801561060857600080fd5b506102b2610617366004612251565b6000908152600a60205260409020546001600160a01b031690565b34801561063e57600080fd5b506101fd61064d366004611f43565b6114df565b34801561065e57600080fd5b506000546102b2906001600160a01b031681565b34801561067e57600080fd5b506101fd61068d366004611f26565b611537565b34801561069e57600080fd5b506101fd6106ad366004611f43565b611575565b6001546001600160a01b031633146106e55760405162461bcd60e51b81526004016106dc906122c1565b60405180910390fd5b6106ed6115e6565b60006001600160a01b038316156107325760008481526007602090815260408083206001600160a01b0380881685529083528184209086168452909152902054610756565b60008481526006602090815260408083206001600160a01b03861684529091529020545b90506000811161079e5760405162461bcd60e51b81526020600482015260136024820152724e6f20726566756e6420617661696c61626c6560681b60448201526064016106dc565b6001600160a01b0383166108605760008481526006602090815260408083206001600160a01b03861680855292528083208390555183908381818185875af1925050503d806000811461080d576040519150601f19603f3d011682016040523d82523d6000602084013e610812565b606091505b505090508061085a5760405162461bcd60e51b81526020600482015260146024820152732330b4b632b2103a379039b2b7321022ba3432b960611b60448201526064016106dc565b50610942565b60008481526007602090815260408083206001600160a01b038781168086529184528285209087168086529352818420939093555163a9059cbb60e01b815260048101919091526024810183905284919063a9059cbb906044016020604051808303816000875af11580156108d9573d6000803e3d6000fd5b505050506040513d601f19601f820116820180604052508101906108fd919061230e565b6109405760405162461bcd60e51b815260206004820152601460248201527304661696c656420746f2073656e642045524332360641b60448201526064016106dc565b505b5061096c60017f9b779b17422d0df92223018b32b4d1fa46e071723d6817e2486d003becc55f0055565b505050565b6002546001600160a01b0316156109ca5760405162461bcd60e51b815260206004820152601f60248201527f426f78204f666669636520436f6e747261637420616c7265616479207365740060448201526064016106dc565b600280546001600160a01b0319166001600160a01b0392909216919091179055565b60006001600160a01b038216610a115750600082815260046020526040902054610a36565b5060008281526005602090815260408083206001600160a01b03851684529091529020545b92915050565b6001546001600160a01b03163314610a665760405162461bcd60e51b81526004016106dc906122c1565b60006064610a75846004612346565b610a7f919061235d565b905060006064610a90856001612346565b610a9a919061235d565b9050600081610aa9848761237f565b610ab3919061237f565b600054909150610acf9089906001600160a01b03168587611656565b600b54610ae89089906001600160a01b03168487611656565b60005b8751811015610b615760006064888381518110610b0a57610b0a612392565b602002602001015184610b1d9190612346565b610b27919061235d565b9050610b4e8a8a8481518110610b3f57610b3f612392565b60200260200101518389611656565b5080610b59816123a8565b915050610aeb565b505050505050505050565b610b746116d4565b6001600160a01b038116610bda5760405162461bcd60e51b815260206004820152602760248201527f496e76616c696420616464726573733a2063616e6e6f74206265207a65726f206044820152666164647265737360c81b60648201526084016106dc565b600b80546001600160a01b0319166001600160a01b0383169081179091556040517f94cd51b94aec190b168321f46d7a98a343a72e8be264bc8198613ac5ad0b06bf90600090a250565b7ff0c57e16840df040f15088dc2f81fe391c3923bec73e23a9662efc9c229c6a008054600160401b810460ff16159067ffffffffffffffff16600081158015610c6a5750825b905060008267ffffffffffffffff166001148015610c875750303b155b905081158015610c95575080155b15610cb35760405163f92ee8a960e01b815260040160405180910390fd5b845467ffffffffffffffff191660011785558315610cdd57845460ff60401b1916600160401b1785555b610ce68661172f565b610cee611740565b600180546001600160a01b03199081166001600160a01b038a81169182179093556003805483169091179055600080549091169188169190911790558315610d7057845460ff60401b19168555604051600181527fc7f505b2f371ae2175ee4913f4499e1f2633a7b5936321eed1cdaeb6115181d29060200160405180910390a15b50505050505050565b610d81611750565b610d8a826117f5565b610d9482826117fd565b5050565b6000610da26118ba565b506000805160206124a083398151915290565b600354604051633f71c19b60e21b81526004810186905285916001600160a01b03169063fdc7066c90602401602060405180830381865afa158015610dfe573d6000803e3d6000fd5b505050506040513d601f19601f82011682018060405250810190610e2291906123c1565b6001600160a01b0316336001600160a01b03161480610ebe5750600354604051630f8bfa8d60e21b8152600481018390526001600160a01b0390911690633e2fea3490602401602060405180830381865afa158015610e85573d6000803e3d6000fd5b505050506040513d601f19601f82011682018060405250810190610ea991906123c1565b6001600160a01b0316336001600160a01b0316145b610eda5760405162461bcd60e51b81526004016106dc906123de565b6001600160a01b038316610f305760405162461bcd60e51b815260206004820152601d60248201527f496e76616c6964207061796d656e7420746f6b656e206164647265737300000060448201526064016106dc565b6000858152600a60205260409020546001600160a01b03848116911614610f7e5760405162461bcd60e51b8152602060048201526002602482015261085d60f21b60448201526064016106dc565b604051636eb1769f60e11b81526001600160a01b0383811660048301523060248301528491869183169063dd62ed3e90604401602060405180830381865afa158015610fce573d6000803e3d6000fd5b505050506040513d601f19601f82011682018060405250810190610ff2919061243b565b10156110395760405162461bcd60e51b8152602060048201526016602482015275496e73756666696369656e7420616c6c6f77616e636560501b60448201526064016106dc565b6040516323b872dd60e01b81526001600160a01b038481166004830152306024830152604482018790528216906323b872dd906064016020604051808303816000875af115801561108e573d6000803e3d6000fd5b505050506040513d601f19601f820116820180604052508101906110b2919061230e565b5060008681526005602090815260408083206001600160a01b0388168452909152812080548792906110e5908490612454565b9091555050505050505050565b6110fa6116d4565b6111046000611903565b565b6001546001600160a01b031633146111305760405162461bcd60e51b81526004016106dc906122c1565b6001600160a01b0382166111485761096c8382611974565b61096c838383611a9d565b600354604051633f71c19b60e21b81526004810183905282916001600160a01b03169063fdc7066c90602401602060405180830381865afa15801561119c573d6000803e3d6000fd5b505050506040513d601f19601f820116820180604052508101906111c091906123c1565b6001600160a01b0316336001600160a01b0316148061125c5750600354604051630f8bfa8d60e21b8152600481018390526001600160a01b0390911690633e2fea3490602401602060405180830381865afa158015611223573d6000803e3d6000fd5b505050506040513d601f19601f8201168201806040525081019061124791906123c1565b6001600160a01b0316336001600160a01b0316145b6112785760405162461bcd60e51b81526004016106dc906123de565b60008281526004602052604081208054349290611296908490612454565b90915550505050565b6001546001600160a01b03163314806112c257506002546001600160a01b031633145b61132b5760405162461bcd60e51b815260206004820152603460248201527f556e617574686f72697a65643a2063616c6c6572206973206e6f74207468652060448201527314da1bddc81bdc88109bde0818dbdb9d1c9858dd60621b60648201526084016106dc565b6001600160a01b0382166113ec5760008481526004602052604090205483111561138c5760405162461bcd60e51b8152602060048201526012602482015271496e73756666696369656e742066756e647360701b60448201526064016106dc565b600084815260046020526040812080548592906113aa90849061237f565b909155505060008481526006602090815260408083206001600160a01b0385168452909152812080548592906113e1908490612454565b909155506114d99050565b60008481526005602090815260408083206001600160a01b038616845290915290205483111561145e5760405162461bcd60e51b815260206004820152601860248201527f496e73756666696369656e7420746f6b656e2066756e6473000000000000000060448201526064016106dc565b60008481526005602090815260408083206001600160a01b03861684529091528120805485929061149090849061237f565b909155505060008481526007602090815260408083206001600160a01b0380871685529083528184209085168452909152812080548592906114d3908490612454565b90915550505b50505050565b6001546001600160a01b031633146115095760405162461bcd60e51b81526004016106dc906122c1565b6000918252600a602052604090912080546001600160a01b0319166001600160a01b03909216919091179055565b61153f6116d4565b6001600160a01b03811661156957604051631e4fbdf760e01b8152600060048201526024016106dc565b61157281611903565b50565b6001546001600160a01b0316331461159f5760405162461bcd60e51b81526004016106dc906122c1565b6001600160a01b0381166115bf5750600090815260046020526040812055565b60008281526005602090815260408083206001600160a01b03851684529091528120555050565b7f9b779b17422d0df92223018b32b4d1fa46e071723d6817e2486d003becc55f0080546001190161162a57604051633ee5aeb560e01b815260040160405180910390fd5b60029055565b60017f9b779b17422d0df92223018b32b4d1fa46e071723d6817e2486d003becc55f0055565b6001600160a01b0381166116965760008481526008602090815260408083206001600160a01b0387168452909152812080548492906113e1908490612454565b60008481526009602090815260408083206001600160a01b0380861685529083528184209087168452909152812080548492906114d3908490612454565b336117067f9016d09d72d40fdae2fd8ceac6b6234c7706214fd39c1cd1e609a0528c199300546001600160a01b031690565b6001600160a01b0316146111045760405163118cdaa760e01b81523360048201526024016106dc565b611737611c8e565b61157281611cd7565b611748611c8e565b611104611cdf565b306001600160a01b037f00000000000000000000000000000000000000000000000000000000000000001614806117d757507f00000000000000000000000000000000000000000000000000000000000000006001600160a01b03166117cb6000805160206124a0833981519152546001600160a01b031690565b6001600160a01b031614155b156111045760405163703e46dd60e11b815260040160405180910390fd5b6115726116d4565b816001600160a01b03166352d1902d6040518163ffffffff1660e01b8152600401602060405180830381865afa925050508015611857575060408051601f3d908101601f191682019092526118549181019061243b565b60015b61187f57604051634c9c8ce360e01b81526001600160a01b03831660048201526024016106dc565b6000805160206124a083398151915281146118b057604051632a87526960e21b8152600481018290526024016106dc565b61096c8383611ce7565b306001600160a01b037f000000000000000000000000000000000000000000000000000000000000000016146111045760405163703e46dd60e11b815260040160405180910390fd5b7f9016d09d72d40fdae2fd8ceac6b6234c7706214fd39c1cd1e609a0528c19930080546001600160a01b031981166001600160a01b03848116918217845560405192169182907f8be0079c531659141344cd1fd0a4f28419497f9722a3daafe3b4186f6b6457e090600090a3505050565b60008281526008602090815260408083206001600160a01b0385168452909152902054806119b45760405162461bcd60e51b81526004016106dc90612467565b60008381526008602090815260408083206001600160a01b03861680855292528083208390555183908381818185875af1925050503d8060008114611a15576040519150601f19603f3d011682016040523d82523d6000602084013e611a1a565b606091505b5050905080611a515760405162461bcd60e51b815260206004820152600360248201526210969f60e91b60448201526064016106dc565b60408051838152600060208201526001600160a01b0385169186917f41211792ac12581294dfaa383a54e630322f08f25e558828f6d5e0979ac3eb23910160405180910390a350505050565b60008381526009602090815260408083206001600160a01b038087168552908352818420908516845290915290205480611ae95760405162461bcd60e51b81526004016106dc90612467565b60008481526009602090815260408083206001600160a01b0387811680865291845282852090871685529092528083209290925590516370a0823160e01b8152306004820152849183916370a0823190602401602060405180830381865afa158015611b59573d6000803e3d6000fd5b505050506040513d601f19601f82011682018060405250810190611b7d919061243b565b1015611b9b5760405162461bcd60e51b81526004016106dc90612467565b60405163a9059cbb60e01b81526001600160a01b0384811660048301526024820184905282169063a9059cbb906044016020604051808303816000875af1158015611bea573d6000803e3d6000fd5b505050506040513d601f19601f82011682018060405250810190611c0e919061230e565b611c405760405162461bcd60e51b815260206004820152600360248201526210969f60e91b60448201526064016106dc565b604080518381526001600160a01b03868116602083015285169187917f41211792ac12581294dfaa383a54e630322f08f25e558828f6d5e0979ac3eb23910160405180910390a35050505050565b7ff0c57e16840df040f15088dc2f81fe391c3923bec73e23a9662efc9c229c6a0054600160401b900460ff1661110457604051631afcd79f60e31b815260040160405180910390fd5b61153f611c8e565b611630611c8e565b611cf082611d3d565b6040516001600160a01b038316907fbc7cd75a20ee27fd9adebab32041f755214dbc6bffa90cc0225b39da2e5c2d3b90600090a2805115611d355761096c8282611da2565b610d94611e18565b806001600160a01b03163b600003611d7357604051634c9c8ce360e01b81526001600160a01b03821660048201526024016106dc565b6000805160206124a083398151915280546001600160a01b0319166001600160a01b0392909216919091179055565b6060600080846001600160a01b031684604051611dbf9190612483565b600060405180830381855af49150503d8060008114611dfa576040519150601f19603f3d011682016040523d82523d6000602084013e611dff565b606091505b5091509150611e0f858383611e37565b95945050505050565b34156111045760405163b398979f60e01b815260040160405180910390fd5b606082611e4c57611e4782611e96565b611e8f565b8151158015611e6357506001600160a01b0384163b155b15611e8c57604051639996b31560e01b81526001600160a01b03851660048201526024016106dc565b50805b9392505050565b805115611ea65780518082602001fd5b604051630a12f52160e11b815260040160405180910390fd5b6001600160a01b038116811461157257600080fd5b8035611edf81611ebf565b919050565b600080600060608486031215611ef957600080fd5b833592506020840135611f0b81611ebf565b91506040840135611f1b81611ebf565b809150509250925092565b600060208284031215611f3857600080fd5b8135611e8f81611ebf565b60008060408385031215611f5657600080fd5b823591506020830135611f6881611ebf565b809150509250929050565b634e487b7160e01b600052604160045260246000fd5b604051601f8201601f1916810167ffffffffffffffff81118282101715611fb257611fb2611f73565b604052919050565b600067ffffffffffffffff821115611fd457611fd4611f73565b5060051b60200190565b600082601f830112611fef57600080fd5b81356020612004611fff83611fba565b611f89565b82815260059290921b8401810191818101908684111561202357600080fd5b8286015b8481101561203e5780358352918301918301612027565b509695505050505050565b600080600080600060a0868803121561206157600080fd5b8535945060208087013567ffffffffffffffff8082111561208157600080fd5b818901915089601f83011261209557600080fd5b81356120a3611fff82611fba565b81815260059190911b8301840190848101908c8311156120c257600080fd5b938501935b828510156120e95784356120da81611ebf565b825293850193908501906120c7565b98505050604089013592508083111561210157600080fd5b505061210f88828901611fde565b9350506060860135915061212560808701611ed4565b90509295509295909350565b6000806040838503121561214457600080fd5b823561214f81611ebf565b91506020830135611f6881611ebf565b6000806040838503121561217257600080fd5b823561217d81611ebf565b915060208381013567ffffffffffffffff8082111561219b57600080fd5b818601915086601f8301126121af57600080fd5b8135818111156121c1576121c1611f73565b6121d3601f8201601f19168501611f89565b915080825287848285010111156121e957600080fd5b80848401858401376000848284010152508093505050509250929050565b6000806000806080858703121561221d57600080fd5b8435935060208501359250604085013561223681611ebf565b9150606085013561224681611ebf565b939692955090935050565b60006020828403121561226357600080fd5b5035919050565b60005b8381101561228557818101518382015260200161226d565b50506000910152565b60208152600082518060208401526122ad81604085016020870161226a565b601f01601f19169190910160400192915050565b6020808252602d908201527f556e617574686f72697a65643a2063616c6c6572206973206e6f74207468652060408201526c14da1bddc818dbdb9d1c9858dd609a1b606082015260800190565b60006020828403121561232057600080fd5b81518015158114611e8f57600080fd5b634e487b7160e01b600052601160045260246000fd5b8082028115828204841417610a3657610a36612330565b60008261237a57634e487b7160e01b600052601260045260246000fd5b500490565b81810381811115610a3657610a36612330565b634e487b7160e01b600052603260045260246000fd5b6000600182016123ba576123ba612330565b5060010190565b6000602082840312156123d357600080fd5b8151611e8f81611ebf565b60208082526038908201527f556e617574686f72697a65643a2063616c6c6572206973206e6f74207468652060408201527f5469636b6574206f722056656e756520636f6e74726163740000000000000000606082015260800190565b60006020828403121561244d57600080fd5b5051919050565b80820180821115610a3657610a36612330565b602080825260029082015261084960f21b604082015260600190565b6000825161249581846020870161226a565b919091019291505056fe360894a13ba1a3210667c828492db98dca3e2076cc3735a920a3ca505d382bbca26469706673582212203bcb46519ab30201dd7051b03508ab89d26efe3fc5cb4b9a3fd833605e00bdb264736f6c63430008140033","linkReferences":{}},"methodIdentifiers":{"THE_GARDEN()":"486c7eb6","THE_STEWARD()":"f2e547be","UPGRADE_INTERFACE_VERSION()":"ad3cb1cc","boxOfficeContract()":"6c92b022","calculateTotalPayoutAmount(bytes32,address)":"213efcab","clearVault(bytes32,address)":"fab49c37","depositToVault(bytes32)":"85266635","depositToVaultERC20(bytes32,uint256,address,address)":"5412233f","distributeShares(bytes32,address[],uint256[],uint256,address)":"2cc26d94","getShowPaymentToken(bytes32)":"d23b85a3","initialize(address,address)":"485cc955","owner()":"8da5cb5b","payout(bytes32,address,address)":"7674a691","pendingPayouts(bytes32,address)":"8e70362b","pendingRefunds(bytes32,address)":"5696c07c","pendingTokenPayouts(bytes32,address,address)":"75976795","pendingTokenRefunds(bytes32,address,address)":"92ea6388","processRefund(bytes32,uint256,address,address)":"ca6644d8","proxiableUUID()":"52d1902d","renounceOwnership()":"715018a6","setContractAddresses(address)":"1f88bb87","setDAOTreasuryAddress(address)":"3af704bd","setShowPaymentToken(bytes32,address)":"e8aa2e5f","showContract()":"b25e93ff","showInstance()":"404f49d1","showPaymentTokens(bytes32)":"5765fec3","showTokenVault(bytes32,address)":"c9e21e5e","showVault(bytes32)":"867e68af","transferOwnership(address)":"f2fde38b","upgradeToAndCall(address,bytes)":"4f1ef286","withdrawRefund(bytes32,address,address)":"1af4b9eb"},"id":71}