{"abi":[{"type":"function","name":"COOLDOWN","inputs":[],"outputs":[{"name":"","type":"uint256","internalType":"uint256"}],"stateMutability":"view"},{"type":"function","name":"SELLOUT_PROTOCOL_WALLET","inputs":[],"outputs":[{"name":"","type":"address","internalType":"address"}],"stateMutability":"view"},{"type":"function","name":"artistRegistryInstance","inputs":[],"outputs":[{"name":"","type":"address","internalType":"contract IArtistRegistry"}],"stateMutability":"view"},{"type":"function","name":"boxOfficeInstance","inputs":[],"outputs":[{"name":"","type":"address","internalType":"contract IBoxOffice"}],"stateMutability":"view"},{"type":"function","name":"hasVotedForEmergencyRefund","inputs":[{"name":"","type":"bytes32","internalType":"bytes32"},{"name":"","type":"address","internalType":"address"}],"outputs":[{"name":"","type":"bool","internalType":"bool"}],"stateMutability":"view"},{"type":"function","name":"isArtistMapping","inputs":[{"name":"","type":"bytes32","internalType":"bytes32"},{"name":"","type":"address","internalType":"address"}],"outputs":[{"name":"","type":"bool","internalType":"bool"}],"stateMutability":"view"},{"type":"function","name":"organizerRegistryInstance","inputs":[],"outputs":[{"name":"","type":"address","internalType":"contract IOrganizerRegistry"}],"stateMutability":"view"},{"type":"function","name":"referralInstance","inputs":[],"outputs":[{"name":"","type":"address","internalType":"contract ReferralModule"}],"stateMutability":"view"},{"type":"function","name":"showToTicketProxy","inputs":[{"name":"","type":"bytes32","internalType":"bytes32"}],"outputs":[{"name":"","type":"address","internalType":"address"}],"stateMutability":"view"},{"type":"function","name":"showToVenueProxy","inputs":[{"name":"","type":"bytes32","internalType":"bytes32"}],"outputs":[{"name":"","type":"address","internalType":"address"}],"stateMutability":"view"},{"type":"function","name":"showVaultInstance","inputs":[],"outputs":[{"name":"","type":"address","internalType":"contract IShowVault"}],"stateMutability":"view"},{"type":"function","name":"shows","inputs":[{"name":"","type":"bytes32","internalType":"bytes32"}],"outputs":[{"name":"showId","type":"bytes32","internalType":"bytes32"},{"name":"name","type":"string","internalType":"string"},{"name":"description","type":"string","internalType":"string"},{"name":"organizer","type":"address","internalType":"address"},{"name":"venue","type":"tuple","internalType":"struct VenueRegistryTypes.VenueInfo","components":[{"name":"venueId","type":"uint256","internalType":"uint256"},{"name":"name","type":"string","internalType":"string"},{"name":"bio","type":"string","internalType":"string"},{"name":"wallet","type":"address","internalType":"address"},{"name":"coordinates","type":"tuple","internalType":"struct VenueRegistryTypes.Coordinates","components":[{"name":"latitude","type":"int256","internalType":"int256"},{"name":"longitude","type":"int256","internalType":"int256"}]},{"name":"totalCapacity","type":"uint256","internalType":"uint256"},{"name":"streetAddress","type":"string","internalType":"string"}]},{"name":"radius","type":"uint256","internalType":"uint256"},{"name":"sellOutThreshold","type":"uint8","internalType":"uint8"},{"name":"totalCapacity","type":"uint256","internalType":"uint256"},{"name":"status","type":"uint8","internalType":"enum ShowTypes.Status"},{"name":"expiry","type":"uint256","internalType":"uint256"},{"name":"showDate","type":"uint256","internalType":"uint256"},{"name":"currencyAddress","type":"address","internalType":"address"}],"stateMutability":"view"},{"type":"function","name":"ticketFactoryInstance","inputs":[],"outputs":[{"name":"","type":"address","internalType":"contract ITicketFactory"}],"stateMutability":"view"},{"type":"function","name":"venueFactoryInstance","inputs":[],"outputs":[{"name":"","type":"address","internalType":"contract IVenueFactory"}],"stateMutability":"view"},{"type":"function","name":"venueRegistryInstance","inputs":[],"outputs":[{"name":"","type":"address","internalType":"contract IVenueRegistry"}],"stateMutability":"view"},{"type":"function","name":"votesForEmergencyRefund","inputs":[{"name":"","type":"bytes32","internalType":"bytes32"}],"outputs":[{"name":"","type":"uint256","internalType":"uint256"}],"stateMutability":"view"}],"bytecode":{"object":"0x60806040526008805460ff60a01b1916905534801561001d57600080fd5b506108e38061002d6000396000f3fe608060405234801561001057600080fd5b50600436106101005760003560e01c8063a2724a4d11610097578063e30228be11610066578063e30228be14610274578063e4ca73aa14610287578063e71aee7e1461029a578063fca46559146102c357600080fd5b8063a2724a4d14610216578063a2b7d17414610220578063bafd4eb014610233578063c6ab848a1461026157600080fd5b8063703ee4e5116100d3578063703ee4e5146101af5780638dea15a1146101c25780639673b1e3146101d55780639ee0a14e146101e857600080fd5b80631cf2103e146101055780633deba9641461013557806363c18a521461015e5780636a0178911461019c575b600080fd5b600554610118906001600160a01b031681565b6040516001600160a01b0390911681526020015b60405180910390f35b61011861014336600461068c565b600b602052600090815260409020546001600160a01b031681565b61018c61016c3660046106a5565b600f60209081526000928352604080842090915290825290205460ff1681565b604051901515815260200161012c565b600754610118906001600160a01b031681565b600654610118906001600160a01b031681565b600454610118906001600160a01b031681565b600154610118906001600160a01b031681565b6102086101f636600461068c565b600e6020526000908152604090205481565b60405190815260200161012c565b6102086202a30081565b600854610118906001600160a01b031681565b61018c6102413660046106a5565b600d60209081526000928352604080842090915290825290205460ff1681565b600354610118906001600160a01b031681565b600054610118906001600160a01b031681565b600254610118906001600160a01b031681565b6101186102a836600461068c565b600c602052600090815260409020546001600160a01b031681565b6102d66102d136600461068c565b6102ee565b60405161012c9c9b9a99989796959493929190610749565b600a602052600090815260409020805460018201805491929161031090610873565b80601f016020809104026020016040519081016040528092919081815260200182805461033c90610873565b80156103895780601f1061035e57610100808354040283529160200191610389565b820191906000526020600020905b81548152906001019060200180831161036c57829003601f168201915b50505050509080600201805461039e90610873565b80601f01602080910402602001604051908101604052809291908181526020018280546103ca90610873565b80156104175780601f106103ec57610100808354040283529160200191610417565b820191906000526020600020905b8154815290600101906020018083116103fa57829003601f168201915b5050505050908060030160009054906101000a90046001600160a01b031690806005016040518060e00160405290816000820154815260200160018201805461045f90610873565b80601f016020809104026020016040519081016040528092919081815260200182805461048b90610873565b80156104d85780601f106104ad576101008083540402835291602001916104d8565b820191906000526020600020905b8154815290600101906020018083116104bb57829003601f168201915b505050505081526020016002820180546104f190610873565b80601f016020809104026020016040519081016040528092919081815260200182805461051d90610873565b801561056a5780601f1061053f5761010080835404028352916020019161056a565b820191906000526020600020905b81548152906001019060200180831161054d57829003601f168201915b505050918352505060038201546001600160a01b031660208083019190915260408051808201825260048501548152600585015492810192909252820152600682015460608201526007820180546080909201916105c790610873565b80601f01602080910402602001604051908101604052809291908181526020018280546105f390610873565b80156106405780601f1061061557610100808354040283529160200191610640565b820191906000526020600020905b81548152906001019060200180831161062357829003601f168201915b50505091909252505050600d820154600f83015460108401546011850154601386015460148701546015909701549596949560ff9485169593949092169290916001600160a01b03168c565b60006020828403121561069e57600080fd5b5035919050565b600080604083850312156106b857600080fd5b8235915060208301356001600160a01b03811681146106d657600080fd5b809150509250929050565b6000815180845260005b81811015610707576020818501810151868301820152016106eb565b506000602082860101526020601f19601f83011685010191505092915050565b6008811061074557634e487b7160e01b600052602160045260246000fd5b9052565b60006101808e83528060208401526107638184018f6106e1565b90508281036040840152610777818e6106e1565b905060018060a01b03808d16606085015283820360808501526101008c51835260208d01518160208501526107ae828501826106e1565b905060408e015184820360408601526107c782826106e1565b9150508260608f015116606085015260808e0151925082516080850152602083015160a085015260a08e015160c085015260c08e0151925083810360e085015261081181846106e1565b9450508b60a086015261082960c086018c60ff169052565b8960e086015261083b8186018a610727565b50505084610120830152836101408301526108626101608301846001600160a01b03169052565b9d9c50505050505050505050505050565b600181811c9082168061088757607f821691505b6020821081036108a757634e487b7160e01b600052602260045260246000fd5b5091905056fea26469706673582212201ebb0f8fa71598ec64ff38de0a26cd45b98ff91918e571089b7c4e7c82233e3764736f6c63430008140033","linkReferences":{}},"methodIdentifiers":{"COOLDOWN()":"a2724a4d","SELLOUT_PROTOCOL_WALLET()":"e30228be","artistRegistryInstance()":"8dea15a1","boxOfficeInstance()":"a2b7d174","hasVotedForEmergencyRefund(bytes32,address)":"63c18a52","isArtistMapping(bytes32,address)":"bafd4eb0","organizerRegistryInstance()":"1cf2103e","referralInstance()":"c6ab848a","showToTicketProxy(bytes32)":"3deba964","showToVenueProxy(bytes32)":"e71aee7e","showVaultInstance()":"6a017891","shows(bytes32)":"fca46559","ticketFactoryInstance()":"e4ca73aa","venueFactoryInstance()":"9673b1e3","venueRegistryInstance()":"703ee4e5","votesForEmergencyRefund(bytes32)":"9ee0a14e"},"id":79}