{"abi":[{"type":"function","name":"SELLOUT_PROTOCOL_WALLET","inputs":[],"outputs":[{"name":"","type":"address","internalType":"address"}],"stateMutability":"view"},{"type":"function","name":"UPGRADE_INTERFACE_VERSION","inputs":[],"outputs":[{"name":"","type":"string","internalType":"string"}],"stateMutability":"view"},{"type":"function","name":"activeShowCount","inputs":[],"outputs":[{"name":"","type":"uint256","internalType":"uint256"}],"stateMutability":"view"},{"type":"function","name":"addTokenIdToWallet","inputs":[{"name":"showId","type":"bytes32","internalType":"bytes32"},{"name":"wallet","type":"address","internalType":"address"},{"name":"tokenId","type":"uint256","internalType":"uint256"}],"outputs":[],"stateMutability":"nonpayable"},{"type":"function","name":"artistRegistryInstance","inputs":[],"outputs":[{"name":"","type":"address","internalType":"contract IArtistRegistry"}],"stateMutability":"view"},{"type":"function","name":"cancelShow","inputs":[{"name":"showId","type":"bytes32","internalType":"bytes32"}],"outputs":[],"stateMutability":"nonpayable"},{"type":"function","name":"completeShow","inputs":[{"name":"showId","type":"bytes32","internalType":"bytes32"}],"outputs":[],"stateMutability":"nonpayable"},{"type":"function","name":"consumeTicketTier","inputs":[{"name":"showId","type":"bytes32","internalType":"bytes32"},{"name":"tierIndex","type":"uint256","internalType":"uint256"},{"name":"amount","type":"uint256","internalType":"uint256"}],"outputs":[],"stateMutability":"nonpayable"},{"type":"function","name":"depositToVault","inputs":[{"name":"showId","type":"bytes32","internalType":"bytes32"}],"outputs":[],"stateMutability":"payable"},{"type":"function","name":"depositToVaultERC20","inputs":[{"name":"showId","type":"bytes32","internalType":"bytes32"},{"name":"amount","type":"uint256","internalType":"uint256"},{"name":"paymentToken","type":"address","internalType":"address"},{"name":"tokenRecipient","type":"address","internalType":"address"}],"outputs":[],"stateMutability":"nonpayable"},{"type":"function","name":"getNumberOfVoters","inputs":[{"name":"showId","type":"bytes32","internalType":"bytes32"}],"outputs":[{"name":"","type":"uint256","internalType":"uint256"}],"stateMutability":"view"},{"type":"function","name":"getOrganizer","inputs":[{"name":"showId","type":"bytes32","internalType":"bytes32"}],"outputs":[{"name":"","type":"address","internalType":"address"}],"stateMutability":"view"},{"type":"function","name":"getShowById","inputs":[{"name":"showId","type":"bytes32","internalType":"bytes32"}],"outputs":[{"name":"name","type":"string","internalType":"string"},{"name":"description","type":"string","internalType":"string"},{"name":"organizer","type":"address","internalType":"address"},{"name":"artists","type":"address[]","internalType":"address[]"},{"name":"venue","type":"tuple","internalType":"struct VenueTypes.Venue","components":[{"name":"name","type":"string","internalType":"string"},{"name":"coordinates","type":"tuple","internalType":"struct VenueTypes.Coordinates","components":[{"name":"lat","type":"int256","internalType":"int256"},{"name":"lon","type":"int256","internalType":"int256"}]},{"name":"totalCapacity","type":"uint256","internalType":"uint256"},{"name":"wallet","type":"address","internalType":"address"},{"name":"venueId","type":"bytes32","internalType":"bytes32"}]},{"name":"ticketTiers","type":"tuple[]","internalType":"struct ShowTypes.TicketTier[]","components":[{"name":"name","type":"string","internalType":"string"},{"name":"price","type":"uint256","internalType":"uint256"},{"name":"ticketsAvailable","type":"uint256","internalType":"uint256"}]},{"name":"sellOutThreshold","type":"uint256","internalType":"uint256"},{"name":"totalCapacity","type":"uint256","internalType":"uint256"},{"name":"status","type":"uint8","internalType":"enum ShowTypes.Status"},{"name":"isActive","type":"bool","internalType":"bool"},{"name":"currencyAddress","type":"address","internalType":"address"}],"stateMutability":"view"},{"type":"function","name":"getShowStatus","inputs":[{"name":"showId","type":"bytes32","internalType":"bytes32"}],"outputs":[{"name":"","type":"uint8","internalType":"enum ShowTypes.Status"}],"stateMutability":"view"},{"type":"function","name":"getTicketPricePaid","inputs":[{"name":"showId","type":"bytes32","internalType":"bytes32"},{"name":"ticketId","type":"uint256","internalType":"uint256"}],"outputs":[{"name":"","type":"uint256","internalType":"uint256"}],"stateMutability":"view"},{"type":"function","name":"getTicketTierInfo","inputs":[{"name":"showId","type":"bytes32","internalType":"bytes32"},{"name":"tierIndex","type":"uint256","internalType":"uint256"}],"outputs":[{"name":"name","type":"string","internalType":"string"},{"name":"price","type":"uint256","internalType":"uint256"},{"name":"ticketsAvailable","type":"uint256","internalType":"uint256"}],"stateMutability":"view"},{"type":"function","name":"getTotalTicketsSold","inputs":[{"name":"showId","type":"bytes32","internalType":"bytes32"}],"outputs":[{"name":"","type":"uint256","internalType":"uint256"}],"stateMutability":"view"},{"type":"function","name":"getWalletTokenIds","inputs":[{"name":"showId","type":"bytes32","internalType":"bytes32"},{"name":"wallet","type":"address","internalType":"address"}],"outputs":[{"name":"","type":"uint256[]","internalType":"uint256[]"}],"stateMutability":"view"},{"type":"function","name":"hasTicket","inputs":[{"name":"wallet","type":"address","internalType":"address"},{"name":"showId","type":"bytes32","internalType":"bytes32"}],"outputs":[{"name":"ownsTicket","type":"bool","internalType":"bool"}],"stateMutability":"view"},{"type":"function","name":"hasVotedForEmergencyRefund","inputs":[{"name":"","type":"bytes32","internalType":"bytes32"},{"name":"","type":"address","internalType":"address"}],"outputs":[{"name":"","type":"bool","internalType":"bool"}],"stateMutability":"view"},{"type":"function","name":"initialize","inputs":[{"name":"_selloutProtocolWallet","type":"address","internalType":"address"}],"outputs":[],"stateMutability":"nonpayable"},{"type":"function","name":"isArtist","inputs":[{"name":"user","type":"address","internalType":"address"},{"name":"showId","type":"bytes32","internalType":"bytes32"}],"outputs":[{"name":"","type":"bool","internalType":"bool"}],"stateMutability":"view"},{"type":"function","name":"isArtistMapping","inputs":[{"name":"","type":"bytes32","internalType":"bytes32"},{"name":"","type":"address","internalType":"address"}],"outputs":[{"name":"","type":"bool","internalType":"bool"}],"stateMutability":"view"},{"type":"function","name":"isOrganizer","inputs":[{"name":"user","type":"address","internalType":"address"},{"name":"showId","type":"bytes32","internalType":"bytes32"}],"outputs":[{"name":"","type":"bool","internalType":"bool"}],"stateMutability":"view"},{"type":"function","name":"organizerRegistryInstance","inputs":[],"outputs":[{"name":"","type":"address","internalType":"contract IOrganizerRegistry"}],"stateMutability":"view"},{"type":"function","name":"owner","inputs":[],"outputs":[{"name":"","type":"address","internalType":"address"}],"stateMutability":"view"},{"type":"function","name":"payout","inputs":[{"name":"showId","type":"bytes32","internalType":"bytes32"}],"outputs":[],"stateMutability":"nonpayable"},{"type":"function","name":"pendingPayouts","inputs":[{"name":"","type":"bytes32","internalType":"bytes32"},{"name":"","type":"address","internalType":"address"}],"outputs":[{"name":"","type":"uint256","internalType":"uint256"}],"stateMutability":"view"},{"type":"function","name":"pendingRefunds","inputs":[{"name":"","type":"bytes32","internalType":"bytes32"},{"name":"","type":"address","internalType":"address"}],"outputs":[{"name":"","type":"uint256","internalType":"uint256"}],"stateMutability":"view"},{"type":"function","name":"pendingTokenPayouts","inputs":[{"name":"","type":"bytes32","internalType":"bytes32"},{"name":"","type":"address","internalType":"address"},{"name":"","type":"address","internalType":"address"}],"outputs":[{"name":"","type":"uint256","internalType":"uint256"}],"stateMutability":"view"},{"type":"function","name":"pendingTokenRefunds","inputs":[{"name":"","type":"bytes32","internalType":"bytes32"},{"name":"","type":"address","internalType":"address"},{"name":"","type":"address","internalType":"address"}],"outputs":[{"name":"","type":"uint256","internalType":"uint256"}],"stateMutability":"view"},{"type":"function","name":"proposeShow","inputs":[{"name":"proposal","type":"tuple","internalType":"struct ShowTypes.ShowProposal","components":[{"name":"name","type":"string","internalType":"string"},{"name":"description","type":"string","internalType":"string"},{"name":"artists","type":"address[]","internalType":"address[]"},{"name":"coordinates","type":"tuple","internalType":"struct VenueTypes.Coordinates","components":[{"name":"lat","type":"int256","internalType":"int256"},{"name":"lon","type":"int256","internalType":"int256"}]},{"name":"radius","type":"uint256","internalType":"uint256"},{"name":"sellOutThreshold","type":"uint8","internalType":"uint8"},{"name":"totalCapacity","type":"uint256","internalType":"uint256"},{"name":"ticketTiers","type":"tuple[]","internalType":"struct ShowTypes.TicketTier[]","components":[{"name":"name","type":"string","internalType":"string"},{"name":"price","type":"uint256","internalType":"uint256"},{"name":"ticketsAvailable","type":"uint256","internalType":"uint256"}]},{"name":"split","type":"uint256[]","internalType":"uint256[]"},{"name":"currencyAddress","type":"address","internalType":"address"},{"name":"venueProposal","type":"tuple","internalType":"struct VenueTypes.VenueProposal","components":[{"name":"proposalPeriodDuration","type":"uint32","internalType":"uint32"},{"name":"proposalDateExtension","type":"uint32","internalType":"uint32"},{"name":"proposalDateMinimumFuture","type":"uint32","internalType":"uint32"},{"name":"proposalPeriodExtensionThreshold","type":"uint32","internalType":"uint32"}]}]}],"outputs":[{"name":"showId","type":"bytes32","internalType":"bytes32"}],"stateMutability":"nonpayable"},{"type":"function","name":"proxiableUUID","inputs":[],"outputs":[{"name":"","type":"bytes32","internalType":"bytes32"}],"stateMutability":"view"},{"type":"function","name":"referralInstance","inputs":[],"outputs":[{"name":"","type":"address","internalType":"contract ReferralModule"}],"stateMutability":"view"},{"type":"function","name":"refundTicket","inputs":[{"name":"showId","type":"bytes32","internalType":"bytes32"},{"name":"tokenId","type":"uint256","internalType":"uint256"}],"outputs":[],"stateMutability":"nonpayable"},{"type":"function","name":"removeTokenIdFromWallet","inputs":[{"name":"showId","type":"bytes32","internalType":"bytes32"},{"name":"wallet","type":"address","internalType":"address"},{"name":"tokenId","type":"uint256","internalType":"uint256"}],"outputs":[],"stateMutability":"nonpayable"},{"type":"function","name":"renounceOwnership","inputs":[],"outputs":[],"stateMutability":"nonpayable"},{"type":"function","name":"setProtocolAddresses","inputs":[{"name":"_ticketFactory","type":"address","internalType":"address"},{"name":"_venueFactory","type":"address","internalType":"address"},{"name":"_referralContract","type":"address","internalType":"address"},{"name":"_artistRegistryContract","type":"address","internalType":"address"},{"name":"_organizerRegistryContract","type":"address","internalType":"address"},{"name":"_venueRegistryContract","type":"address","internalType":"address"}],"outputs":[],"stateMutability":"nonpayable"},{"type":"function","name":"setTicketPricePaid","inputs":[{"name":"showId","type":"bytes32","internalType":"bytes32"},{"name":"ticketId","type":"uint256","internalType":"uint256"},{"name":"price","type":"uint256","internalType":"uint256"}],"outputs":[],"stateMutability":"nonpayable"},{"type":"function","name":"setTotalTicketsSold","inputs":[{"name":"showId","type":"bytes32","internalType":"bytes32"},{"name":"amount","type":"uint256","internalType":"uint256"}],"outputs":[],"stateMutability":"nonpayable"},{"type":"function","name":"showPaymentToken","inputs":[{"name":"","type":"bytes32","internalType":"bytes32"}],"outputs":[{"name":"","type":"address","internalType":"address"}],"stateMutability":"view"},{"type":"function","name":"showToTicketProxy","inputs":[{"name":"","type":"bytes32","internalType":"bytes32"}],"outputs":[{"name":"","type":"address","internalType":"address"}],"stateMutability":"view"},{"type":"function","name":"showToVenueProxy","inputs":[{"name":"","type":"bytes32","internalType":"bytes32"}],"outputs":[{"name":"","type":"address","internalType":"address"}],"stateMutability":"view"},{"type":"function","name":"showTokenVault","inputs":[{"name":"","type":"bytes32","internalType":"bytes32"},{"name":"","type":"address","internalType":"address"}],"outputs":[{"name":"","type":"uint256","internalType":"uint256"}],"stateMutability":"view"},{"type":"function","name":"showVault","inputs":[{"name":"","type":"bytes32","internalType":"bytes32"}],"outputs":[{"name":"","type":"uint256","internalType":"uint256"}],"stateMutability":"view"},{"type":"function","name":"shows","inputs":[{"name":"","type":"bytes32","internalType":"bytes32"}],"outputs":[{"name":"showId","type":"bytes32","internalType":"bytes32"},{"name":"name","type":"string","internalType":"string"},{"name":"description","type":"string","internalType":"string"},{"name":"organizer","type":"address","internalType":"address"},{"name":"venue","type":"tuple","internalType":"struct VenueTypes.Venue","components":[{"name":"name","type":"string","internalType":"string"},{"name":"coordinates","type":"tuple","internalType":"struct VenueTypes.Coordinates","components":[{"name":"lat","type":"int256","internalType":"int256"},{"name":"lon","type":"int256","internalType":"int256"}]},{"name":"totalCapacity","type":"uint256","internalType":"uint256"},{"name":"wallet","type":"address","internalType":"address"},{"name":"venueId","type":"bytes32","internalType":"bytes32"}]},{"name":"radius","type":"uint256","internalType":"uint256"},{"name":"sellOutThreshold","type":"uint256","internalType":"uint256"},{"name":"totalCapacity","type":"uint256","internalType":"uint256"},{"name":"status","type":"uint8","internalType":"enum ShowTypes.Status"},{"name":"isActive","type":"bool","internalType":"bool"},{"name":"expiry","type":"uint256","internalType":"uint256"},{"name":"showDate","type":"uint256","internalType":"uint256"},{"name":"currencyAddress","type":"address","internalType":"address"}],"stateMutability":"view"},{"type":"function","name":"ticketFactoryInstance","inputs":[],"outputs":[{"name":"","type":"address","internalType":"contract ITicketFactory"}],"stateMutability":"view"},{"type":"function","name":"ticketPricePaid","inputs":[{"name":"","type":"bytes32","internalType":"bytes32"},{"name":"","type":"uint256","internalType":"uint256"}],"outputs":[{"name":"","type":"uint256","internalType":"uint256"}],"stateMutability":"view"},{"type":"function","name":"totalTicketsSold","inputs":[{"name":"","type":"bytes32","internalType":"bytes32"}],"outputs":[{"name":"","type":"uint256","internalType":"uint256"}],"stateMutability":"view"},{"type":"function","name":"transferOwnership","inputs":[{"name":"newOwner","type":"address","internalType":"address"}],"outputs":[],"stateMutability":"nonpayable"},{"type":"function","name":"updateShowDate","inputs":[{"name":"showId","type":"bytes32","internalType":"bytes32"},{"name":"newDate","type":"uint256","internalType":"uint256"}],"outputs":[],"stateMutability":"nonpayable"},{"type":"function","name":"updateShowVenue","inputs":[{"name":"showId","type":"bytes32","internalType":"bytes32"},{"name":"newVenue","type":"tuple","internalType":"struct VenueTypes.Venue","components":[{"name":"name","type":"string","internalType":"string"},{"name":"coordinates","type":"tuple","internalType":"struct VenueTypes.Coordinates","components":[{"name":"lat","type":"int256","internalType":"int256"},{"name":"lon","type":"int256","internalType":"int256"}]},{"name":"totalCapacity","type":"uint256","internalType":"uint256"},{"name":"wallet","type":"address","internalType":"address"},{"name":"venueId","type":"bytes32","internalType":"bytes32"}]}],"outputs":[],"stateMutability":"nonpayable"},{"type":"function","name":"updateStatus","inputs":[{"name":"showId","type":"bytes32","internalType":"bytes32"},{"name":"_status","type":"uint8","internalType":"enum ShowTypes.Status"}],"outputs":[],"stateMutability":"nonpayable"},{"type":"function","name":"updateStatusIfSoldOut","inputs":[{"name":"showId","type":"bytes32","internalType":"bytes32"}],"outputs":[],"stateMutability":"nonpayable"},{"type":"function","name":"upgradeToAndCall","inputs":[{"name":"newImplementation","type":"address","internalType":"address"},{"name":"data","type":"bytes","internalType":"bytes"}],"outputs":[],"stateMutability":"payable"},{"type":"function","name":"venueContract","inputs":[],"outputs":[{"name":"","type":"address","internalType":"address"}],"stateMutability":"view"},{"type":"function","name":"venueFactoryInstance","inputs":[],"outputs":[{"name":"","type":"address","internalType":"contract IVenueFactory"}],"stateMutability":"view"},{"type":"function","name":"venueRegistryInstance","inputs":[],"outputs":[{"name":"","type":"address","internalType":"contract IVenueRegistry"}],"stateMutability":"view"},{"type":"function","name":"voteForEmergencyRefund","inputs":[{"name":"showId","type":"bytes32","internalType":"bytes32"}],"outputs":[],"stateMutability":"nonpayable"},{"type":"function","name":"votesForEmergencyRefund","inputs":[{"name":"","type":"bytes32","internalType":"bytes32"}],"outputs":[{"name":"","type":"uint256","internalType":"uint256"}],"stateMutability":"view"},{"type":"function","name":"walletToShowToTokenIds","inputs":[{"name":"","type":"bytes32","internalType":"bytes32"},{"name":"","type":"address","internalType":"address"},{"name":"","type":"uint256","internalType":"uint256"}],"outputs":[{"name":"","type":"uint256","internalType":"uint256"}],"stateMutability":"view"},{"type":"function","name":"withdrawRefund","inputs":[{"name":"showId","type":"bytes32","internalType":"bytes32"}],"outputs":[],"stateMutability":"nonpayable"},{"type":"event","name":"ERC20Deposited","inputs":[{"name":"showId","type":"bytes32","indexed":true,"internalType":"bytes32"},{"name":"tokenAddress","type":"address","indexed":true,"internalType":"address"},{"name":"depositor","type":"address","indexed":true,"internalType":"address"},{"name":"amount","type":"uint256","indexed":false,"internalType":"uint256"}],"anonymous":false},{"type":"event","name":"ExpiryUpdated","inputs":[{"name":"showId","type":"bytes32","indexed":true,"internalType":"bytes32"},{"name":"expiry","type":"uint256","indexed":false,"internalType":"uint256"}],"anonymous":false},{"type":"event","name":"Initialized","inputs":[{"name":"version","type":"uint64","indexed":false,"internalType":"uint64"}],"anonymous":false},{"type":"event","name":"OwnershipTransferred","inputs":[{"name":"previousOwner","type":"address","indexed":true,"internalType":"address"},{"name":"newOwner","type":"address","indexed":true,"internalType":"address"}],"anonymous":false},{"type":"event","name":"RefundWithdrawn","inputs":[{"name":"user","type":"address","indexed":true,"internalType":"address"},{"name":"showId","type":"bytes32","indexed":true,"internalType":"bytes32"},{"name":"amount","type":"uint256","indexed":false,"internalType":"uint256"}],"anonymous":false},{"type":"event","name":"ShowCancelled","inputs":[{"name":"showId","type":"bytes32","indexed":true,"internalType":"bytes32"},{"name":"reason","type":"string","indexed":false,"internalType":"string"}],"anonymous":false},{"type":"event","name":"ShowExpired","inputs":[{"name":"showId","type":"bytes32","indexed":true,"internalType":"bytes32"}],"anonymous":false},{"type":"event","name":"ShowProposed","inputs":[{"name":"showId","type":"bytes32","indexed":true,"internalType":"bytes32"},{"name":"organizer","type":"address","indexed":true,"internalType":"address"},{"name":"name","type":"string","indexed":false,"internalType":"string"},{"name":"artists","type":"address[]","indexed":false,"internalType":"address[]"},{"name":"description","type":"string","indexed":false,"internalType":"string"},{"name":"sellOutThreshold","type":"uint256","indexed":false,"internalType":"uint256"},{"name":"split","type":"uint256[]","indexed":false,"internalType":"uint256[]"},{"name":"currencyAddress","type":"address","indexed":false,"internalType":"address"}],"anonymous":false},{"type":"event","name":"StatusUpdated","inputs":[{"name":"showId","type":"bytes32","indexed":true,"internalType":"bytes32"},{"name":"status","type":"uint8","indexed":false,"internalType":"enum ShowTypes.Status"}],"anonymous":false},{"type":"event","name":"TicketRefunded","inputs":[{"name":"user","type":"address","indexed":true,"internalType":"address"},{"name":"showId","type":"bytes32","indexed":true,"internalType":"bytes32"},{"name":"refundAmount","type":"uint256","indexed":false,"internalType":"uint256"}],"anonymous":false},{"type":"event","name":"TicketTierConsumed","inputs":[{"name":"showId","type":"bytes32","indexed":true,"internalType":"bytes32"},{"name":"tierIndex","type":"uint256","indexed":true,"internalType":"uint256"},{"name":"amount","type":"uint256","indexed":false,"internalType":"uint256"}],"anonymous":false},{"type":"event","name":"Upgraded","inputs":[{"name":"implementation","type":"address","indexed":true,"internalType":"address"}],"anonymous":false},{"type":"event","name":"VenueUpdated","inputs":[{"name":"showId","type":"bytes32","indexed":true,"internalType":"bytes32"},{"name":"newVenue","type":"tuple","indexed":false,"internalType":"struct VenueTypes.Venue","components":[{"name":"name","type":"string","internalType":"string"},{"name":"coordinates","type":"tuple","internalType":"struct VenueTypes.Coordinates","components":[{"name":"lat","type":"int256","internalType":"int256"},{"name":"lon","type":"int256","internalType":"int256"}]},{"name":"totalCapacity","type":"uint256","internalType":"uint256"},{"name":"wallet","type":"address","internalType":"address"},{"name":"venueId","type":"bytes32","internalType":"bytes32"}]}],"anonymous":false},{"type":"event","name":"Withdrawal","inputs":[{"name":"showId","type":"bytes32","indexed":true,"internalType":"bytes32"},{"name":"recipient","type":"address","indexed":true,"internalType":"address"},{"name":"amount","type":"uint256","indexed":false,"internalType":"uint256"},{"name":"paymentToken","type":"address","indexed":false,"internalType":"address"}],"anonymous":false},{"type":"error","name":"AddressEmptyCode","inputs":[{"name":"target","type":"address","internalType":"address"}]},{"type":"error","name":"ERC1967InvalidImplementation","inputs":[{"name":"implementation","type":"address","internalType":"address"}]},{"type":"error","name":"ERC1967NonPayable","inputs":[]},{"type":"error","name":"FailedInnerCall","inputs":[]},{"type":"error","name":"InvalidInitialization","inputs":[]},{"type":"error","name":"NotInitializing","inputs":[]},{"type":"error","name":"OwnableInvalidOwner","inputs":[{"name":"owner","type":"address","internalType":"address"}]},{"type":"error","name":"OwnableUnauthorizedAccount","inputs":[{"name":"account","type":"address","internalType":"address"}]},{"type":"error","name":"ReentrancyGuardReentrantCall","inputs":[]},{"type":"error","name":"UUPSUnauthorizedCallContext","inputs":[]},{"type":"error","name":"UUPSUnsupportedProxiableUUID","inputs":[{"name":"slot","type":"bytes32","internalType":"bytes32"}]}],"bytecode":{"object":"0x60a06040526006805460ff60a01b191690553060805234801561002157600080fd5b50608051615fb66200004c60003960008181613c8601528181613caf0152613df00152615fb66000f3fe6080604052600436106103ad5760003560e01c8063867e68af116101e7578063c4d66de81161010d578063e6180546116100a0578063f2fde38b1161006f578063f2fde38b14610d0d578063f812187314610d2d578063fc4bdfd414610d4d578063fca4655914610d6d57600080fd5b8063e618054614610c77578063e71aee7e14610c97578063e9acfa7c14610ccd578063ef5023a514610ced57600080fd5b8063de44006f116100dc578063de44006f14610bf7578063e30228be14610c17578063e35b1ee814610c37578063e4ca73aa14610c5757600080fd5b8063c4d66de814610b5f578063c6ab848a14610b7f578063c9e21e5e14610b9f578063cfefb3d514610bd757600080fd5b80639673b1e311610185578063ad3cb1cc11610154578063ad3cb1cc14610aa6578063bafd4eb014610ae4578063bd47dc5c14610b1f578063c29e2de414610b3f57600080fd5b80639673b1e314610a00578063977cb89e14610a205780639ee0a14e14610a59578063a110412c14610a8657600080fd5b80638e70362b116101c15780638e70362b14610925578063925e8f891461095d57806392ea63881461098a57806393d4e100146109c857600080fd5b8063867e68af1461089b5780638da5cb5b146108c85780638dea15a11461090557600080fd5b80635696c07c116102d7578063715018a61161026a5780637d8d6a22116102395780637d8d6a22146108195780637e3e393514610839578063852666351461086857806385ffa16c1461087b57600080fd5b8063715018a614610770578063729580281461078557806375976795146107bb578063787d76b8146107f957600080fd5b806363c18a52116102a657806363c18a52146106d5578063644b5e591461071057806364ad6cd614610730578063703ee4e51461075057600080fd5b80635696c07c146105ff5780635b9a1e09146106375780635c37da691461066457806361041870146106a857600080fd5b80633c60d2d61161034f5780634f1ef2861161031e5780634f1ef2861461059757806351819335146105aa57806352d1902d146105ca5780635412233f146105df57600080fd5b80633c60d2d6146104f45780633deba9641461051457806346c2c8a71461054a5780634ed372da1461057757600080fd5b8063164889061161038b57806316488906146104295780631cf2103e1461044d57806327b1bf52146104855780632f18ddfe146104bc57600080fd5b806302c9a8b5146103b2578063054372ed146103e7578063129e086b14610409575b600080fd5b3480156103be57600080fd5b506103d26103cd366004614d5e565b610da6565b60405190151581526020015b60405180910390f35b3480156103f357600080fd5b50610407610402366004614d8a565b610dd3565b005b34801561041557600080fd5b50610407610424366004614dbe565b610eaf565b34801561043557600080fd5b5061043f60095481565b6040519081526020016103de565b34801561045957600080fd5b5060055461046d906001600160a01b031681565b6040516001600160a01b0390911681526020016103de565b34801561049157600080fd5b506104a56104a0366004614dbe565b6110a3565b6040516103de9b9a99989796959493929190614f01565b3480156104c857600080fd5b5061043f6104d736600461501d565b601560209081526000928352604080842090915290825290205481565b34801561050057600080fd5b5061040761050f36600461501d565b611569565b34801561052057600080fd5b5061046d61052f366004614dbe565b600b602052600090815260409020546001600160a01b031681565b34801561055657600080fd5b5061056a610565366004614dbe565b6117ef565b6040516103de919061503f565b34801561058357600080fd5b506103d2610592366004614d5e565b611ccc565b6104076105a5366004615135565b611cef565b3480156105b657600080fd5b5060005461046d906001600160a01b031681565b3480156105d657600080fd5b5061043f611d0e565b3480156105eb57600080fd5b506104076105fa366004615198565b611d2b565b34801561060b57600080fd5b5061043f61061a3660046151e2565b601060209081526000928352604080842090915290825290205481565b34801561064357600080fd5b506106576106523660046151e2565b611fb8565b6040516103de9190615237565b34801561067057600080fd5b506103d261067f366004614d5e565b60009081526016602090815260408083206001600160a01b039490941683529290522054151590565b3480156106b457600080fd5b5061043f6106c3366004614dbe565b60009081526014602052604090205490565b3480156106e157600080fd5b506103d26106f03660046151e2565b601960209081526000928352604080842090915290825290205460ff1681565b34801561071c57600080fd5b5061040761072b36600461524a565b61202c565b34801561073c57600080fd5b5061040761074b36600461501d565b61218f565b34801561075c57600080fd5b5060065461046d906001600160a01b031681565b34801561077c57600080fd5b50610407612236565b34801561079157600080fd5b5061046d6107a0366004614dbe565b6017602052600090815260409020546001600160a01b031681565b3480156107c757600080fd5b5061043f6107d6366004615276565b601360209081526000938452604080852082529284528284209052825290205481565b34801561080557600080fd5b5061040761081436600461501d565b61224a565b34801561082557600080fd5b5061043f6108343660046152b8565b6122b3565b34801561084557600080fd5b5061085961085436600461501d565b6122f1565b6040516103de939291906152f0565b610407610876366004614dbe565b612416565b34801561088757600080fd5b5061043f610896366004614dbe565b6124a0565b3480156108a757600080fd5b5061043f6108b6366004614dbe565b600e6020526000908152604090205481565b3480156108d457600080fd5b507f9016d09d72d40fdae2fd8ceac6b6234c7706214fd39c1cd1e609a0528c199300546001600160a01b031661046d565b34801561091157600080fd5b5060045461046d906001600160a01b031681565b34801561093157600080fd5b5061043f6109403660046151e2565b601260209081526000928352604080842090915290825290205481565b34801561096957600080fd5b5061043f610978366004614dbe565b60146020526000908152604090205481565b34801561099657600080fd5b5061043f6109a5366004615276565b601160209081526000938452604080852082529284528284209052825290205481565b3480156109d457600080fd5b5061043f6109e336600461501d565b600091825260156020908152604080842092845291905290205490565b348015610a0c57600080fd5b5060015461046d906001600160a01b031681565b348015610a2c57600080fd5b5061046d610a3b366004614dbe565b6000908152600a60205260409020600301546001600160a01b031690565b348015610a6557600080fd5b5061043f610a74366004614dbe565b60186020526000908152604090205481565b348015610a9257600080fd5b5061043f610aa13660046155e3565b612527565b348015610ab257600080fd5b50610ad7604051806040016040528060058152602001640352e302e360dc1b81525081565b6040516103de9190615743565b348015610af057600080fd5b506103d2610aff3660046151e2565b600d60209081526000928352604080842090915290825290205460ff1681565b348015610b2b57600080fd5b50610407610b3a36600461524a565b61259d565b348015610b4b57600080fd5b50610407610b5a366004615756565b6125f2565b348015610b6b57600080fd5b50610407610b7a366004615798565b612701565b348015610b8b57600080fd5b5060035461046d906001600160a01b031681565b348015610bab57600080fd5b5061043f610bba3660046151e2565b600f60209081526000928352604080842090915290825290205481565b348015610be357600080fd5b50610407610bf2366004614dbe565b612831565b348015610c0357600080fd5b50610407610c123660046152b8565b612c00565b348015610c2357600080fd5b5060075461046d906001600160a01b031681565b348015610c4357600080fd5b50610407610c523660046152b8565b612c71565b348015610c6357600080fd5b5060025461046d906001600160a01b031681565b348015610c8357600080fd5b50610407610c92366004614dbe565b612cb4565b348015610ca357600080fd5b5061046d610cb2366004614dbe565b600c602052600090815260409020546001600160a01b031681565b348015610cd957600080fd5b50610407610ce8366004614dbe565b612d60565b348015610cf957600080fd5b50610407610d08366004614dbe565b613128565b348015610d1957600080fd5b50610407610d28366004615798565b613235565b348015610d3957600080fd5b50610407610d483660046157b5565b613270565b348015610d5957600080fd5b50610407610d68366004614dbe565b613330565b348015610d7957600080fd5b50610d8d610d88366004614dbe565b613488565b6040516103de9d9c9b9a99989796959493929190615837565b6000818152600d602090815260408083206001600160a01b038616845290915290205460ff165b92915050565b6000828152600c602052604090205482906001600160a01b0316331480610e1057506000818152600b60205260409020546001600160a01b031633145b80610e1a57503330145b610e3f5760405162461bcd60e51b8152600401610e36906158e9565b60405180910390fd5b6000838152600a60205260409020600f01805483919060ff19166001836007811115610e6d57610e6d614ec9565b0217905550827f8ed894b6f384ca9c829b9aa5b056bc9106a90845a15616607e975d4ad488ee6783604051610ea2919061503f565b60405180910390a2505050565b80610eba3382611ccc565b80610eca5750610eca3382610da6565b610ee65760405162461bcd60e51b8152600401610e3690615905565b6000828152600a602052604090206003600f82015460ff166007811115610f0f57610f0f614ec9565b14610f4d5760405162461bcd60e51b815260206004820152600e60248201526d696e76616c69642073746174757360901b6044820152606401610e36565b6012810154610f5e90610708615937565b421015610f9f5760405162461bcd60e51b815260206004820152600f60248201526e18dbdbdb191bdddb881c195c9a5bd9608a1b6044820152606401610e36565b6000838152601760205260408120546001600160a01b031690610fc1856136fd565b905060008111610ffe5760405162461bcd60e51b81526020600482015260086024820152676e6f2066756e647360c01b6044820152606401610e36565b60006040518060800160405280878152602001838152602001846001600160a01b031681526020018560100180548060200260200160405190810160405280929190818152602001828054801561107457602002820191906000526020600020905b815481526020019060010190808311611060575b505050505081525090506110888482613758565b61109286846138e4565b61109b8661392b565b505050505050565b606080600060606110b2614c3f565b6000868152600a60205260408120600c810154606092918291829182918291906001600160401b038111156110e9576110e961504d565b60405190808252806020026020018201604052801561113e57816020015b61112b60405180606001604052806060815260200160008152602001600081525090565b8152602001906001900390816111075790505b50965060005b600c8201548110156112545781600c0181815481106111655761116561594a565b906000526020600020906003020160405180606001604052908160008201805461118e90615960565b80601f01602080910402602001604051908101604052809291908181526020018280546111ba90615960565b80156112075780601f106111dc57610100808354040283529160200191611207565b820191906000526020600020905b8154815290600101906020018083116111ea57829003601f168201915b50505050508152602001600182015481526020016002820154815250508882815181106112365761123661594a565b6020026020010181905250808061124c90615994565b915050611144565b5080600101816002018260030160009054906101000a90046001600160a01b031683600401846005018b86600d015487600e015488600f0160009054906101000a900460ff1689600f0160019054906101000a900460ff168a60130160009054906101000a90046001600160a01b03168a80546112d090615960565b80601f01602080910402602001604051908101604052809291908181526020018280546112fc90615960565b80156113495780601f1061131e57610100808354040283529160200191611349565b820191906000526020600020905b81548152906001019060200180831161132c57829003601f168201915b50505050509a5089805461135c90615960565b80601f016020809104026020016040519081016040528092919081815260200182805461138890615960565b80156113d55780601f106113aa576101008083540402835291602001916113d5565b820191906000526020600020905b8154815290600101906020018083116113b857829003601f168201915b505050505099508780548060200260200160405190810160405280929190818152602001828054801561143157602002820191906000526020600020905b81546001600160a01b03168152600190910190602001808311611413575b50505050509750866040518060a001604052908160008201805461145490615960565b80601f016020809104026020016040519081016040528092919081815260200182805461148090615960565b80156114cd5780601f106114a2576101008083540402835291602001916114cd565b820191906000526020600020905b8154815290600101906020018083116114b057829003601f168201915b5050505050815260200160018201604051806040016040529081600082015481526020016001820154815250508152602001600382015481526020016004820160009054906101000a90046001600160a01b03166001600160a01b03166001600160a01b0316815260200160058201548152505096509b509b509b509b509b509b509b509b509b509b509b505091939597999b90929496989a50565b6000828152600b60205260409020546001600160a01b0316806115b75760405162461bcd60e51b8152600401610e36906020808252600490820152632170787960e01b604082015260600190565b6000838152600a60205260408120600f015460ff1660078111156115dd576115dd614ec9565b148061160e575060056000848152600a60205260409020600f015460ff16600781111561160c5761160c614ec9565b145b8061163e575060076000848152600a60205260409020600f015460ff16600781111561163c5761163c614ec9565b145b6116705760405162461bcd60e51b8152602060048201526003602482015262213d7360e81b6044820152606401610e36565b8061167c843385613a20565b6116ad5760405162461bcd60e51b8152602060048201526002602482015261085d60f21b6044820152606401610e36565b604051636d1d3b0b60e11b8152600481018590526024810184905260009081906001600160a01b0384169063da3a7616906044016040805180830381865afa1580156116fd573d6000803e3d6000fd5b505050506040513d601f19601f8201168201806040525081019061172191906159ad565b91509150600082116117455760405162461bcd60e51b8152600401610e36906159d1565b600086815260176020908152604080832054600a909252909120600c0180546001600160a01b0390921691839081106117805761178061594a565b60009182526020822060026003909202010180549161179e83615994565b91905055506117af87878584613a9b565b604051838152879033907f6327daeea6ce26abf9f96cd84eee9cb40d1d5b88f7f5990914540e392446bf049060200160405180910390a350505050505050565b6000818152600a60209081526040808320815161020081019092528054825260018101805485948401919061182390615960565b80601f016020809104026020016040519081016040528092919081815260200182805461184f90615960565b801561189c5780601f106118715761010080835404028352916020019161189c565b820191906000526020600020905b81548152906001019060200180831161187f57829003601f168201915b505050505081526020016002820180546118b590615960565b80601f01602080910402602001604051908101604052809291908181526020018280546118e190615960565b801561192e5780601f106119035761010080835404028352916020019161192e565b820191906000526020600020905b81548152906001019060200180831161191157829003601f168201915b505050918352505060038201546001600160a01b031660208083019190915260048301805460408051828502810185018252828152940193928301828280156119a057602002820191906000526020600020905b81546001600160a01b03168152600190910190602001808311611982575b50505050508152602001600582016040518060a00160405290816000820180546119c990615960565b80601f01602080910402602001604051908101604052809291908181526020018280546119f590615960565b8015611a425780601f10611a1757610100808354040283529160200191611a42565b820191906000526020600020905b815481529060010190602001808311611a2557829003601f168201915b50505091835250506040805180820182526001840154815260028401546020828101919091528084019190915260038401548284015260048401546001600160a01b03166060840152600590930154608090920191909152918352600b84015483820152600c840180548351818402810184018552818152949093019392909160009084015b82821015611ba05783829060005260206000209060030201604051806060016040529081600082018054611afb90615960565b80601f0160208091040260200160405190810160405280929190818152602001828054611b2790615960565b8015611b745780601f10611b4957610100808354040283529160200191611b74565b820191906000526020600020905b815481529060010190602001808311611b5757829003601f168201915b505050505081526020016001820154815260200160028201548152505081526020019060010190611ac8565b50505090825250600d8201546020820152600e8201546040820152600f82015460609091019060ff166007811115611bda57611bda614ec9565b6007811115611beb57611beb614ec9565b8152600f820154610100900460ff1615156020808301919091526010830180546040805182850281018501825282815294019392830182828015611c4e57602002820191906000526020600020905b815481526020019060010190808311611c3a575b505050918352505060118201546020820152601282015460408201526013909101546001600160a01b03166060909101526101a081015190915042118015611cad575060078161014001516007811115611caa57611caa614ec9565b14155b15611cbb5750600792915050565b610140015192915050565b50919050565b6000908152600a60205260409020600301546001600160a01b0391821691161490565b611cf7613c7b565b611d0082613d20565b611d0a8282613d28565b5050565b6000611d18613de5565b50600080516020615f6183398151915290565b6000848152600c602052604090205484906001600160a01b0316331480611d6857506000818152600b60205260409020546001600160a01b031633145b80611d7257503330145b611d8e5760405162461bcd60e51b8152600401610e36906158e9565b6001600160a01b038316611dc95760405162461bcd60e51b8152602060048201526002602482015261032360f41b6044820152606401610e36565b6000858152601760205260409020546001600160a01b03848116911614611e175760405162461bcd60e51b8152602060048201526002602482015261213d60f01b6044820152606401610e36565b604051636eb1769f60e11b81526001600160a01b0383811660048301523060248301528491869183169063dd62ed3e90604401602060405180830381865afa158015611e67573d6000803e3d6000fd5b505050506040513d601f19601f82011682018060405250810190611e8b91906159ed565b1015611ebd5760405162461bcd60e51b81526020600482015260016024820152600f60fa1b6044820152606401610e36565b6040516323b872dd60e01b81526001600160a01b038481166004830152306024830152604482018790528216906323b872dd906064016020604051808303816000875af1158015611f12573d6000803e3d6000fd5b505050506040513d601f19601f82011682018060405250810190611f369190615a06565b506000868152600f602090815260408083206001600160a01b038816845290915281208054879290611f69908490615937565b909155505060405185815233906001600160a01b0386169088907f5bc5584363e68b8a5b066d0c106bba5606176ce569e835fb8b4dc1ee0bb7f4699060200160405180910390a4505050505050565b60008281526016602090815260408083206001600160a01b038516845282529182902080548351818402810184019094528084526060939283018282801561201f57602002820191906000526020600020905b81548152602001906001019080831161200b575b5050505050905092915050565b6000838152600c602052604090205483906001600160a01b031633148061206957506000818152600b60205260409020546001600160a01b031633145b8061207357503330145b61208f5760405162461bcd60e51b8152600401610e36906158e9565b6000848152600a60205260409020600c81015484106120d45760405162461bcd60e51b81526020600482015260016024820152602160f81b6044820152606401610e36565b600081600c0185815481106120eb576120eb61594a565b9060005260206000209060030201905083816002015410156121375760405162461bcd60e51b815260206004820152600560248201526406040e8d2f60db1b6044820152606401610e36565b8381600201600082825461214b9190615a28565b9091555050604051848152859087907fb23124a400670af3347ce475459c187bbba871f316e2d1d91ae115a762def0209060200160405180910390a3505050505050565b6000828152600c602052604090205482906001600160a01b031633146121db5760405162461bcd60e51b81526020600482015260016024820152602b60f91b6044820152606401610e36565b60026000848152600a60205260409020600f015460ff16600781111561220357612203614ec9565b146122205760405162461bcd60e51b8152600401610e3690615a3b565b506000918252600a602052604090912060120155565b61223e613e2e565b6122486000613e89565b565b6000828152600b602052604090205482906001600160a01b031633146122825760405162461bcd60e51b8152600401610e3690615a56565b60008381526014602052604090205461229c908390615937565b600093845260146020526040909320929092555050565b601660205282600052604060002060205281600052604060002081815481106122db57600080fd5b9060005260206000200160009250925050505481565b6000828152600a60205260408120600c0154606091908190841061233b5760405162461bcd60e51b81526020600482015260016024820152601d60fa1b6044820152606401610e36565b6000858152600a60205260408120600c0180548690811061235e5761235e61594a565b90600052602060002090600302019050806000018160010154826002015482805461238890615960565b80601f01602080910402602001604051908101604052809291908181526020018280546123b490615960565b80156124015780601f106123d657610100808354040283529160200191612401565b820191906000526020600020905b8154815290600101906020018083116123e457829003601f168201915b50505050509250935093509350509250925092565b6000818152600c602052604090205481906001600160a01b031633148061245357506000818152600b60205260409020546001600160a01b031633145b8061245d57503330145b6124795760405162461bcd60e51b8152600401610e36906158e9565b6000828152600e602052604081208054349290612497908490615937565b90915550505050565b6000818152600a602052604081206001825b600483015481101561251f5760038301546004840180546001600160a01b0390921691839081106124e5576124e561594a565b6000918252602090912001546001600160a01b03161461250d578161250981615994565b9250505b8061251781615994565b9150506124b2565b509392505050565b600061253282613efa565b61253b82614054565b6007549091506125559082906001600160a01b03166143dd565b6007546101408301518051602082015160408301516060909301516125989486946001600160a01b039091169363ffffffff9081169381169291811691166144da565b919050565b6000838152600b602052604090205483906001600160a01b031633146125d55760405162461bcd60e51b8152600401610e3690615a56565b506000928352601560209081526040808520938552929052912055565b6000828152600c602052604090205482906001600160a01b0316331461263e5760405162461bcd60e51b81526020600482015260016024820152602b60f91b6044820152606401610e36565b6000838152600a60205260408120600f015460ff16600781111561266457612664614ec9565b1480612695575060026000848152600a60205260409020600f015460ff16600781111561269357612693614ec9565b145b6126b15760405162461bcd60e51b8152600401610e3690615a3b565b6000838152600a6020526040902082906005016126ce8282615b83565b905050827ff199f58c6628f3436415ab64e2d1e914a5e79b5ce23d59be2970b2fe46034a6183604051610ea29190615c59565b7ff0c57e16840df040f15088dc2f81fe391c3923bec73e23a9662efc9c229c6a008054600160401b810460ff1615906001600160401b03166000811580156127465750825b90506000826001600160401b031660011480156127625750303b155b905081158015612770575080155b1561278e5760405163f92ee8a960e01b815260040160405180910390fd5b845467ffffffffffffffff1916600117855583156127b857845460ff60401b1916600160401b1785555b6127c0614602565b6127c986614612565b600780546001600160a01b0319166001600160a01b038816179055831561109b57845460ff60401b19168555604051600181527fc7f505b2f371ae2175ee4913f4499e1f2633a7b5936321eed1cdaeb6115181d29060200160405180910390a1505050505050565b8061283c3382611ccc565b8061284c575061284c3382610da6565b6128685760405162461bcd60e51b8152600401610e3690615905565b6000828152600a602052604090206004600f82015460ff16600781111561289157612891614ec9565b146128c35760405162461bcd60e51b8152602060048201526002602482015261217360f01b6044820152606401610e36565b60128101546128d49061012c615937565b4210156129095760405162461bcd60e51b81526020600482015260036024820152620858db60ea1b6044820152606401610e36565b6000838152601760205260408120546001600160a01b0316908161297e575060008481526012602090815260408083203384529091529020548061295f5760405162461bcd60e51b8152600401610e36906159d1565b60008581526012602090815260408083203384529091528120556129f3565b5060008481526013602090815260408083206001600160a01b03851684528252808320338452909152902054806129c75760405162461bcd60e51b8152600401610e36906159d1565b60008581526013602090815260408083206001600160a01b038616845282528083203384529091528120555b6001600160a01b038216612a8557604051600090339083908381818185875af1925050503d8060008114612a43576040519150601f19603f3d011682016040523d82523d6000602084013e612a48565b606091505b5050905080612a7f5760405162461bcd60e51b815260206004820152600360248201526210969f60e91b6044820152606401610e36565b50612bb4565b6040516370a0823160e01b8152306004820152829082906001600160a01b038316906370a0823190602401602060405180830381865afa158015612acd573d6000803e3d6000fd5b505050506040513d601f19601f82011682018060405250810190612af191906159ed565b1015612b0f5760405162461bcd60e51b8152600401610e36906159d1565b60405163a9059cbb60e01b8152336004820152602481018390526001600160a01b0382169063a9059cbb906044016020604051808303816000875af1158015612b5c573d6000803e3d6000fd5b505050506040513d601f19601f82011682018060405250810190612b809190615a06565b612bb25760405162461bcd60e51b815260206004820152600360248201526210969f60e91b6044820152606401610e36565b505b604080518281526001600160a01b0384166020820152339187917f41211792ac12581294dfaa383a54e630322f08f25e558828f6d5e0979ac3eb23910160405180910390a35050505050565b6000838152600b602052604090205483906001600160a01b03163314612c385760405162461bcd60e51b8152600401610e3690615a56565b60008481526016602090815260408083206001600160a01b03871684528252822080546001810182559083529120018290555b50505050565b6000838152600b602052604090205483906001600160a01b03163314612ca95760405162461bcd60e51b8152600401610e3690615a56565b612c6b848484614623565b6000818152600c602052604090205481906001600160a01b0316331480612cf157506000818152600b60205260409020546001600160a01b031633145b80612cfb57503330145b612d175760405162461bcd60e51b8152600401610e36906158e9565b6000828152600a60209081526040808320601490925290912054600d820154600e830154612d459190615d0a565b612d50826064615d0a565b10612c6b57612c6b846001610dd3565b612d68614702565b6000818152600a602052604090206006600f82015460ff166007811115612d9157612d91614ec9565b1480612db557506007600f82015460ff166007811115612db357612db3614ec9565b145b80612dd857506005600f82015460ff166007811115612dd657612dd6614ec9565b145b80612dfb57506000600f82015460ff166007811115612df957612df9614ec9565b145b612e175760405162461bcd60e51b8152600401610e3690615a3b565b6000828152601760205260408120546001600160a01b03169081612e5557506000838152601060209081526040808320338452909152902054612e82565b5060008381526011602090815260408083206001600160a01b038516845282528083203384529091529020545b60008111612eb65760405162461bcd60e51b81526020600482015260016024820152600360fc1b6044820152606401610e36565b6001600160a01b038216612f5c5760008481526010602090815260408083203380855292528083208390555183908381818185875af1925050503d8060008114612f1c576040519150601f19603f3d011682016040523d82523d6000602084013e612f21565b606091505b5050905080612f565760405162461bcd60e51b81526020600482015260016024820152600f60fb1b6044820152606401610e36565b506130c2565b60008481526011602090815260408083206001600160a01b0386168085529083528184203385529092528083209290925590516370a0823160e01b8152306004820152839183916370a0823190602401602060405180830381865afa158015612fc9573d6000803e3d6000fd5b505050506040513d601f19601f82011682018060405250810190612fed91906159ed565b101561301f5760405162461bcd60e51b81526020600482015260016024820152600f60fa1b6044820152606401610e36565b60405163a9059cbb60e01b8152336004820152602481018390526001600160a01b0382169063a9059cbb906044016020604051808303816000875af115801561306c573d6000803e3d6000fd5b505050506040513d601f19601f820116820180604052508101906130909190615a06565b6130c05760405162461bcd60e51b81526020600482015260016024820152600f60fb1b6044820152606401610e36565b505b604051818152849033907fa4d59773de0ef2d6faf35ac70331de09c09cb20909bf7453dd0d620524bd1fc99060200160405180910390a350505061312560017f9b779b17422d0df92223018b32b4d1fa46e071723d6817e2486d003becc55f0055565b50565b806131333382611ccc565b8061314357506131433382610da6565b61315f5760405162461bcd60e51b8152600401610e3690615905565b6000828152600a602052604090206001600f82015460ff16600781111561318857613188614ec9565b14806131ac57506002600f82015460ff1660078111156131aa576131aa614ec9565b145b806131cf57506003600f82015460ff1660078111156131cd576131cd614ec9565b145b61320c5760405162461bcd60e51b815260206004820152600e60248201526d696e76616c69642073746174757360901b6044820152606401610e36565b600f8101805460ff191660051790556009805490600061322b83615d21565b9190505550505050565b61323d613e2e565b6001600160a01b03811661326757604051631e4fbdf760e01b815260006004820152602401610e36565b61312581613e89565b600654600160a01b900460ff16156132af5760405162461bcd60e51b8152602060048201526002602482015261212160f01b6044820152606401610e36565b600180546001600160a01b039687166001600160a01b031991821617909155600280549787169782169790971790965560038054948616948716949094179093556004805492851692861692909217909155600580549184169190941617909255600680546001600160a81b0319169290911691909117600160a01b179055565b600081815260166020908152604080832033845290915290205461337f5760405162461bcd60e51b81526020600482015260066024820152650dcde40e8d2f60d31b6044820152606401610e36565b60046000828152600a60205260409020600f015460ff1660078111156133a7576133a7614ec9565b146133d95760405162461bcd60e51b8152602060048201526002602482015261217360f01b6044820152606401610e36565b600081815260196020908152604080832033845290915290205460ff16156134295760405162461bcd60e51b81526020600482015260036024820152621090bb60e91b6044820152606401610e36565b60008181526019602090815260408083203384528252808320805460ff191660019081179091558484526018909252822080549192909161346b908490615937565b9091555061347a905081614772565b1561312557613125816147ae565b600a60205260009081526040902080546001820180549192916134aa90615960565b80601f01602080910402602001604051908101604052809291908181526020018280546134d690615960565b80156135235780601f106134f857610100808354040283529160200191613523565b820191906000526020600020905b81548152906001019060200180831161350657829003601f168201915b50505050509080600201805461353890615960565b80601f016020809104026020016040519081016040528092919081815260200182805461356490615960565b80156135b15780601f10613586576101008083540402835291602001916135b1565b820191906000526020600020905b81548152906001019060200180831161359457829003601f168201915b5050505050908060030160009054906101000a90046001600160a01b031690806005016040518060a00160405290816000820180546135ef90615960565b80601f016020809104026020016040519081016040528092919081815260200182805461361b90615960565b80156136685780601f1061363d57610100808354040283529160200191613668565b820191906000526020600020905b81548152906001019060200180831161364b57829003601f168201915b505050918352505060408051808201825260018401548152600284015460208281019190915283015260038301549082015260048201546001600160a01b039081166060830152600590920154608090910152600b830154600d840154600e850154600f86015460118701546012880154601390980154969794969395929460ff80841695610100909404169391929091168d565b6000818152601760205260408120546001600160a01b03168061372e5750506000908152600e602052604090205490565b6000928352600f602090815260408085206001600160a01b03909316855291905290912054919050565b600482015460009061376b906002615937565b6001600160401b038111156137825761378261504d565b6040519080825280602002602001820160405280156137ab578160200160208202803683370190505b50600384015481519192506001600160a01b03169082906000906137d1576137d161594a565b60200260200101906001600160a01b031690816001600160a01b03168152505060005b6004840154811015613870578360040181815481106138155761381561594a565b6000918252602090912001546001600160a01b031682613836836001615937565b815181106138465761384661594a565b6001600160a01b03909216602092830291909101909101528061386881615994565b9150506137f4565b50600983015481516001600160a01b0390911690829061389290600190615a28565b815181106138a2576138a261594a565b60200260200101906001600160a01b031690816001600160a01b0316815250506138df82600001518284606001518560200151866040015161482f565b505050565b6001600160a01b03811661390457506000908152600e6020526040812055565b6000828152600f602090815260408083206001600160a01b03851684529091528120555050565b6000818152600a602052604090206004600f82015460ff16600781111561395457613954614ec9565b0361398c5760405162461bcd60e51b8152602060048201526008602482015267636f6d706c65746560c01b6044820152606401610e36565b600f8101805460ff191660041790556009546139ce5760405162461bcd60e51b81526020600482015260016024820152600360fc1b6044820152606401610e36565b600980549060006139de83615d21565b9190505550817f8ed894b6f384ca9c829b9aa5b056bc9106a90845a15616607e975d4ad488ee676004604051613a14919061503f565b60405180910390a25050565b60008381526016602090815260408083206001600160a01b03861684529091528120815b8154811015613a8d5783828281548110613a6057613a6061594a565b906000526020600020015403613a7b57600192505050613a94565b80613a8581615994565b915050613a44565b5060009150505b9392505050565b6000848152600a602090815260408083206014909252822080549192613ac083615d21565b90915550506001600160a01b038216613b2a576000858152600e602052604081208054859290613af1908490615a28565b9091555050600085815260106020908152604080832033845290915281208054859290613b1f908490615937565b90915550613ba19050565b6000858152600f602090815260408083206001600160a01b038616845290915281208054859290613b5c908490615a28565b909155505060008581526011602090815260408083206001600160a01b0386168452825280832033845290915281208054859290613b9b908490615937565b90915550505b6000858152600b60205260409020546001600160a01b031680613bef5760405162461bcd60e51b8152600401610e36906020808252600490820152632170787960e01b604082015260600190565b6040516387f9ca5d60e01b815260048101869052600160248201523360448201526001600160a01b038216906387f9ca5d90606401600060405180830381600087803b158015613c3e57600080fd5b505af1158015613c52573d6000803e3d6000fd5b50505060008781526015602090815260408083208984529091528120555061109b863387614623565b306001600160a01b037f0000000000000000000000000000000000000000000000000000000000000000161480613d0257507f00000000000000000000000000000000000000000000000000000000000000006001600160a01b0316613cf6600080516020615f61833981519152546001600160a01b031690565b6001600160a01b031614155b156122485760405163703e46dd60e11b815260040160405180910390fd5b613125613e2e565b816001600160a01b03166352d1902d6040518163ffffffff1660e01b8152600401602060405180830381865afa925050508015613d82575060408051601f3d908101601f19168201909252613d7f918101906159ed565b60015b613daa57604051634c9c8ce360e01b81526001600160a01b0383166004820152602401610e36565b600080516020615f618339815191528114613ddb57604051632a87526960e21b815260048101829052602401610e36565b6138df83836148a8565b306001600160a01b037f000000000000000000000000000000000000000000000000000000000000000016146122485760405163703e46dd60e11b815260040160405180910390fd5b33613e607f9016d09d72d40fdae2fd8ceac6b6234c7706214fd39c1cd1e609a0528c199300546001600160a01b031690565b6001600160a01b0316146122485760405163118cdaa760e01b8152336004820152602401610e36565b7f9016d09d72d40fdae2fd8ceac6b6234c7706214fd39c1cd1e609a0528c19930080546001600160a01b031981166001600160a01b03848116918217845560405192169182907f8be0079c531659141344cd1fd0a4f28419497f9722a3daafe3b4186f6b6457e090600090a3505050565b6005546040516329e7dbd960e01b81523360048201526001600160a01b03909116906329e7dbd990602401602060405180830381865afa158015613f42573d6000803e3d6000fd5b505050506040513d601f19601f82011682018060405250810190613f669190615a06565b613f985760405162461bcd60e51b815260206004820152600360248201526221724f60e81b6044820152606401610e36565b600081604001515111613fd55760405162461bcd60e51b8152602060048201526005602482015264061203e20360dc1b6044820152606401610e36565b8051516140085760405162461bcd60e51b81526020600482015260016024820152603760f91b6044820152606401610e36565b60008160800151116140405760405162461bcd60e51b81526020600482015260016024820152603960f91b6044820152606401610e36565b6131258161010001518260400151516148fe565b80516020808301516040808501516060860151805190850151608088015160a089015160c08a01516101208b0151965160009a6140979a90999891339101615d38565b60408051601f1981840301815291815281516020928301206000818152600a909352912083519192509060018201906140d09082615dbe565b50602083015160028201906140e59082615dbe565b506003810180546001600160a01b0319163317905560408301518051614115916004840191602090910190614c89565b506040805160c08082018352600060a0830181815280845260608089015160208601529288015194840194909452908201819052608082015290600583019081906141609082615dbe565b506020828101518051600184015581015160028301556040830151600383015560608301516004830180546001600160a01b0319166001600160a01b0390921691909117905560809283015160059092019190915590840151600b83015560a084015160ff16600d83015560c0840151600e830155600f8201805461ffff191661010090811790915584015180516141fe9260108501920190614cee565b5061420c4262278d00615937565b60118201556000601282018190556101208401516013830180546001600160a01b039092166001600160a01b0319928316811790915584835260176020526040832080549092161790555b8360e00151518110156142d95781600c018460e00151828151811061427e5761427e61594a565b602090810291909101810151825460018101845560009384529190922082516003909202019081906142b09082615dbe565b5060208201516001820155604090910151600290910155806142d181615994565b915050614257565b5060005b83604001515181101561435b576001600d60008581526020019081526020016000206000866040015184815181106143175761431761594a565b6020908102919091018101516001600160a01b03168252810191909152604001600020805460ff19169115159190911790558061435381615994565b9150506142dd565b506009805490600061436c83615994565b9190505550336001600160a01b0316827fa01783f955984485ce010e7dc2b7745239040a2b48640ffd2a56fb065911fc688560000151866040015187602001518860a001518961010001518a61012001516040516143cf96959493929190615e7d565b60405180910390a350919050565b60025460405163de4ed3cf60e01b81526001600160a01b038381166004830152600092169063de4ed3cf906024016020604051808303816000875af115801561442a573d6000803e3d6000fd5b505050506040513d601f19601f8201168201806040525081019061444e9190615eef565b60405163bde9700b60e01b81523060048201529091506001600160a01b0382169063bde9700b90602401600060405180830381600087803b15801561449257600080fd5b505af11580156144a6573d6000803e3d6000fd5b505050600093845250600b602052604090922080546001600160a01b0319166001600160a01b039093169290921790915550565b600154604051634b84567160e11b81526001600160a01b038781166004830152602482018790526044820186905260648201859052608482018490526000921690639708ace29060a4016020604051808303816000875af1158015614543573d6000803e3d6000fd5b505050506040513d601f19601f820116820180604052508101906145679190615eef565b600654604051632c38999560e21b81523060048201526001600160a01b03918216602482015291925082169063b0e2665490604401600060405180830381600087803b1580156145b657600080fd5b505af11580156145ca573d6000803e3d6000fd5b505050600097885250600c602052604090962080546001600160a01b0319166001600160a01b03909716969096179095555050505050565b61460a6149d3565b612248614a1c565b61461a6149d3565b61312581614a24565b60008381526016602090815260408083206001600160a01b03861684529091528120905b81548110156146fb57828282815481106146635761466361594a565b9060005260206000200154036146e9578154829061468390600190615a28565b815481106146935761469361594a565b90600052602060002001548282815481106146b0576146b061594a565b9060005260206000200181905550818054806146ce576146ce615f0c565b600190038181906000526020600020016000905590556146fb565b806146f381615994565b915050614647565b5050505050565b7f9b779b17422d0df92223018b32b4d1fa46e071723d6817e2486d003becc55f0080546001190161474657604051633ee5aeb560e01b815260040160405180910390fd5b60029055565b60017f9b779b17422d0df92223018b32b4d1fa46e071723d6817e2486d003becc55f0055565b60008181526018602090815260408083205460149092528220546064614799826042615d0a565b6147a39190615f22565b909110159392505050565b6000818152600a60205260409020600f0180546005919060ff19166001830217905550807f6a409f0f8d124fc3c3a9f5c354dc2901c33e711b0a6f705e8682307426329fb86040516148249060208082526010908201526f115b595c99d95b98de481499599d5b9960821b604082015260600190565b60405180910390a250565b60005b845181101561109b57600060648583815181106148515761485161594a565b6020026020010151856148649190615d0a565b61486e9190615f22565b9050614895878784815181106148865761488661594a565b60200260200101518386614a2c565b50806148a081615994565b915050614832565b6148b182614ac0565b6040516001600160a01b038316907fbc7cd75a20ee27fd9adebab32041f755214dbc6bffa90cc0225b39da2e5c2d3b90600090a28051156148f6576138df8282614b25565b611d0a614b9b565b614909816002615937565b82511461494c5760405162461bcd60e51b815260206004820152601160248201527039b83634ba1030adae901590379015903b60791b6044820152606401610e36565b6000805b83518110156149925783818151811061496b5761496b61594a565b60200260200101518261497e9190615937565b91508061498a81615994565b915050614950565b50806064146138df5760405162461bcd60e51b815260206004820152600d60248201526c073706c6974203d3d3d2031303609c1b6044820152606401610e36565b7ff0c57e16840df040f15088dc2f81fe391c3923bec73e23a9662efc9c229c6a0054600160401b900460ff1661224857604051631afcd79f60e31b815260040160405180910390fd5b61474c6149d3565b61323d6149d3565b6001600160a01b038116614a775760008481526012602090815260408083206001600160a01b038716845290915281208054849290614a6c908490615937565b90915550612c6b9050565b60008481526013602090815260408083206001600160a01b038086168552908352818420908716845290915281208054849290614ab5908490615937565b909155505050505050565b806001600160a01b03163b600003614af657604051634c9c8ce360e01b81526001600160a01b0382166004820152602401610e36565b600080516020615f6183398151915280546001600160a01b0319166001600160a01b0392909216919091179055565b6060600080846001600160a01b031684604051614b429190615f44565b600060405180830381855af49150503d8060008114614b7d576040519150601f19603f3d011682016040523d82523d6000602084013e614b82565b606091505b5091509150614b92858383614bba565b95945050505050565b34156122485760405163b398979f60e01b815260040160405180910390fd5b606082614bcf57614bca82614c16565b613a94565b8151158015614be657506001600160a01b0384163b155b15614c0f57604051639996b31560e01b81526001600160a01b0385166004820152602401610e36565b5080613a94565b805115614c265780518082602001fd5b604051630a12f52160e11b815260040160405180910390fd5b6040518060a0016040528060608152602001614c6e604051806040016040528060008152602001600081525090565b81526000602082018190526040820181905260609091015290565b828054828255906000526020600020908101928215614cde579160200282015b82811115614cde57825182546001600160a01b0319166001600160a01b03909116178255602090920191600190910190614ca9565b50614cea929150614d29565b5090565b828054828255906000526020600020908101928215614cde579160200282015b82811115614cde578251825591602001919060010190614d0e565b5b80821115614cea5760008155600101614d2a565b6001600160a01b038116811461312557600080fd5b803561259881614d3e565b60008060408385031215614d7157600080fd5b8235614d7c81614d3e565b946020939093013593505050565b60008060408385031215614d9d57600080fd5b82359150602083013560088110614db357600080fd5b809150509250929050565b600060208284031215614dd057600080fd5b5035919050565b60005b83811015614df2578181015183820152602001614dda565b50506000910152565b60008151808452614e13816020860160208601614dd7565b601f01601f19169290920160200192915050565b600081518084526020808501945080840160005b83811015614e605781516001600160a01b031687529582019590820190600101614e3b565b509495945050505050565b6000815160c08452614e8060c0850182614dfb565b905060208301518051602086015260208101516040860152506040830151606085015260018060a01b036060840151166080850152608083015160a08501528091505092915050565b634e487b7160e01b600052602160045260246000fd5b60088110614efd57634e487b7160e01b600052602160045260246000fd5b9052565b6000610160808352614f158184018f614dfb565b9050602083820381850152614f2a828f614dfb565b9150604060018060a01b038e1681860152606085840381870152614f4e848f614e27565b93508584036080870152614f62848e614e6b565b935085840360a0870152838c518086528486019150848160051b870101858f0160005b83811015614fce57888303601f1901855281518051878552614fa988860182614dfb565b828b0151868c0152918901519489019490945294880194925090870190600101614f85565b5050809750505050505050508660c08301528560e0830152614ff4610100830186614edf565b8315156101208301526001600160a01b0383166101408301529c9b505050505050505050505050565b6000806040838503121561503057600080fd5b50508035926020909101359150565b60208101610dcd8284614edf565b634e487b7160e01b600052604160045260246000fd5b604051606081016001600160401b03811182821017156150855761508561504d565b60405290565b60405161016081016001600160401b03811182821017156150855761508561504d565b604051601f8201601f191681016001600160401b03811182821017156150d6576150d661504d565b604052919050565b60006001600160401b038311156150f7576150f761504d565b61510a601f8401601f19166020016150ae565b905082815283838301111561511e57600080fd5b828260208301376000602084830101529392505050565b6000806040838503121561514857600080fd5b823561515381614d3e565b915060208301356001600160401b0381111561516e57600080fd5b8301601f8101851361517f57600080fd5b61518e858235602084016150de565b9150509250929050565b600080600080608085870312156151ae57600080fd5b843593506020850135925060408501356151c781614d3e565b915060608501356151d781614d3e565b939692955090935050565b600080604083850312156151f557600080fd5b823591506020830135614db381614d3e565b600081518084526020808501945080840160005b83811015614e605781518752958201959082019060010161521b565b602081526000613a946020830184615207565b60008060006060848603121561525f57600080fd5b505081359360208301359350604090920135919050565b60008060006060848603121561528b57600080fd5b83359250602084013561529d81614d3e565b915060408401356152ad81614d3e565b809150509250925092565b6000806000606084860312156152cd57600080fd5b8335925060208401356152df81614d3e565b929592945050506040919091013590565b6060815260006153036060830186614dfb565b60208301949094525060400152919050565b600082601f83011261532657600080fd5b613a94838335602085016150de565b60006001600160401b0382111561534e5761534e61504d565b5060051b60200190565b600082601f83011261536957600080fd5b8135602061537e61537983615335565b6150ae565b82815260059290921b8401810191818101908684111561539d57600080fd5b8286015b848110156153c15780356153b481614d3e565b83529183019183016153a1565b509695505050505050565b6000604082840312156153de57600080fd5b604051604081018181106001600160401b03821117156154005761540061504d565b604052823581526020928301359281019290925250919050565b803560ff8116811461259857600080fd5b600082601f83011261543c57600080fd5b8135602061544c61537983615335565b82815260059290921b8401810191818101908684111561546b57600080fd5b8286015b848110156153c15780356001600160401b038082111561548f5760008081fd5b908801906060828b03601f19018113156154a95760008081fd5b6154b1615063565b87840135838111156154c35760008081fd5b6154d18d8a83880101615315565b8252506040848101358983015291909301359083015250835291830191830161546f565b600082601f83011261550657600080fd5b8135602061551661537983615335565b82815260059290921b8401810191818101908684111561553557600080fd5b8286015b848110156153c15780358352918301918301615539565b803563ffffffff8116811461259857600080fd5b60006080828403121561557657600080fd5b604051608081018181106001600160401b03821117156155985761559861504d565b6040529050806155a783615550565b81526155b560208401615550565b60208201526155c660408401615550565b60408201526155d760608401615550565b60608201525092915050565b6000602082840312156155f557600080fd5b81356001600160401b038082111561560c57600080fd5b908301906101e0828603121561562157600080fd5b61562961508b565b82358281111561563857600080fd5b61564487828601615315565b82525060208301358281111561565957600080fd5b61566587828601615315565b60208301525060408301358281111561567d57600080fd5b61568987828601615358565b60408301525061569c86606085016153cc565b606082015260a083013560808201526156b760c0840161541a565b60a082015260e083013560c082015261010080840135838111156156da57600080fd5b6156e68882870161542b565b60e084015250610120808501358481111561570057600080fd5b61570c898288016154f5565b83850152506101409350615721848601614d53565b9083015250615734866101608501615564565b91810191909152949350505050565b602081526000613a946020830184614dfb565b6000806040838503121561576957600080fd5b8235915060208301356001600160401b0381111561578657600080fd5b830160c08186031215614db357600080fd5b6000602082840312156157aa57600080fd5b8135613a9481614d3e565b60008060008060008060c087890312156157ce57600080fd5b86356157d981614d3e565b955060208701356157e981614d3e565b945060408701356157f981614d3e565b9350606087013561580981614d3e565b9250608087013561581981614d3e565b915060a087013561582981614d3e565b809150509295509295509295565b8d81526101a0602082015260006158526101a083018f614dfb565b8281036040840152615864818f614dfb565b6001600160a01b038e16606085015283810360808501529050615887818d614e6b565b9150508960a08301528860c08301528760e08301526158aa610100830188614edf565b85151561012083015284610140830152836101608301526158d76101808301846001600160a01b03169052565b9e9d5050505050505050505050505050565b6020808252600290820152612a2b60f11b604082015260600190565b6020808252600290820152614f4160f01b604082015260600190565b634e487b7160e01b600052601160045260246000fd5b80820180821115610dcd57610dcd615921565b634e487b7160e01b600052603260045260246000fd5b600181811c9082168061597457607f821691505b602082108103611cc657634e487b7160e01b600052602260045260246000fd5b6000600182016159a6576159a6615921565b5060010190565b600080604083850312156159c057600080fd5b505080516020909101519092909150565b602080825260029082015261084960f21b604082015260600190565b6000602082840312156159ff57600080fd5b5051919050565b600060208284031215615a1857600080fd5b81518015158114613a9457600080fd5b81810381811115610dcd57610dcd615921565b6020808252600190820152607360f81b604082015260600190565b6020808252600190820152601560fa1b604082015260600190565b601f8211156138df57600081815260208120601f850160051c81016020861015615a985750805b601f850160051c820191505b8181101561109b57828155600101615aa4565b6001600160401b03831115615ace57615ace61504d565b615ae283615adc8354615960565b83615a71565b6000601f841160018114615b165760008515615afe5750838201355b600019600387901b1c1916600186901b1783556146fb565b600083815260209020601f19861690835b82811015615b475786850135825560209485019460019092019101615b27565b5086821015615b645760001960f88860031b161c19848701351681555b505060018560011b0183555050505050565b60008135610dcd81614d3e565b8135601e19833603018112615b9757600080fd5b820180356001600160401b03811115615baf57600080fd5b602082019150803603821315615bc457600080fd5b615bcf818385615ab7565b5050602082013560018201556040820135600282015560608201356003820155615c22615bfe60808401615b76565b6004830180546001600160a01b0319166001600160a01b0392909216919091179055565b60a082013560058201555050565b81835281816020850137506000828201602090810191909152601f909101601f19169091010190565b6020815260008235601e19843603018112615c7357600080fd5b83016020810190356001600160401b03811115615c8f57600080fd5b803603821315615c9e57600080fd5b60c06020850152615cb360e085018284615c30565b915050615cd0604084016020860180358252602090810135910152565b60608401356080840152615ce660808501614d53565b6001600160a01b03811660a08501525060a084013560c08401528091505092915050565b8082028115828204841417610dcd57610dcd615921565b600081615d3057615d30615921565b506000190190565b6000610140808352615d4c8184018e614dfb565b90508281036020840152615d60818d614dfb565b90508281036040840152615d74818c614e27565b606084019a909a525050608081019690965260a086019490945260ff9290921660c085015260e08401526001600160a01b0390811661010084015216610120909101529392505050565b81516001600160401b03811115615dd757615dd761504d565b615deb81615de58454615960565b84615a71565b602080601f831160018114615e205760008415615e085750858301515b600019600386901b1c1916600185901b17855561109b565b600085815260208120601f198616915b82811015615e4f57888601518255948401946001909101908401615e30565b5085821015615e6d5787850151600019600388901b60f8161c191681555b5050505050600190811b01905550565b60c081526000615e9060c0830189614dfb565b8281036020840152615ea28189614e27565b90508281036040840152615eb68188614dfb565b905060ff861660608401528281036080840152615ed38186615207565b91505060018060a01b03831660a0830152979650505050505050565b600060208284031215615f0157600080fd5b8151613a9481614d3e565b634e487b7160e01b600052603160045260246000fd5b600082615f3f57634e487b7160e01b600052601260045260246000fd5b500490565b60008251615f56818460208701614dd7565b919091019291505056fe360894a13ba1a3210667c828492db98dca3e2076cc3735a920a3ca505d382bbca2646970667358221220464a56be148e4daded3357eeea1790c524dd1dc31b0087bdc04a3eb0115b23b164736f6c63430008140033","linkReferences":{}},"methodIdentifiers":{"SELLOUT_PROTOCOL_WALLET()":"e30228be","UPGRADE_INTERFACE_VERSION()":"ad3cb1cc","activeShowCount()":"16488906","addTokenIdToWallet(bytes32,address,uint256)":"de44006f","artistRegistryInstance()":"8dea15a1","cancelShow(bytes32)":"ef5023a5","completeShow(bytes32)":"129e086b","consumeTicketTier(bytes32,uint256,uint256)":"644b5e59","depositToVault(bytes32)":"85266635","depositToVaultERC20(bytes32,uint256,address,address)":"5412233f","getNumberOfVoters(bytes32)":"85ffa16c","getOrganizer(bytes32)":"977cb89e","getShowById(bytes32)":"27b1bf52","getShowStatus(bytes32)":"46c2c8a7","getTicketPricePaid(bytes32,uint256)":"93d4e100","getTicketTierInfo(bytes32,uint256)":"7e3e3935","getTotalTicketsSold(bytes32)":"61041870","getWalletTokenIds(bytes32,address)":"5b9a1e09","hasTicket(address,bytes32)":"5c37da69","hasVotedForEmergencyRefund(bytes32,address)":"63c18a52","initialize(address)":"c4d66de8","isArtist(address,bytes32)":"02c9a8b5","isArtistMapping(bytes32,address)":"bafd4eb0","isOrganizer(address,bytes32)":"4ed372da","organizerRegistryInstance()":"1cf2103e","owner()":"8da5cb5b","payout(bytes32)":"cfefb3d5","pendingPayouts(bytes32,address)":"8e70362b","pendingRefunds(bytes32,address)":"5696c07c","pendingTokenPayouts(bytes32,address,address)":"75976795","pendingTokenRefunds(bytes32,address,address)":"92ea6388","proposeShow((string,string,address[],(int256,int256),uint256,uint8,uint256,(string,uint256,uint256)[],uint256[],address,(uint32,uint32,uint32,uint32)))":"a110412c","proxiableUUID()":"52d1902d","referralInstance()":"c6ab848a","refundTicket(bytes32,uint256)":"3c60d2d6","removeTokenIdFromWallet(bytes32,address,uint256)":"e35b1ee8","renounceOwnership()":"715018a6","setProtocolAddresses(address,address,address,address,address,address)":"f8121873","setTicketPricePaid(bytes32,uint256,uint256)":"bd47dc5c","setTotalTicketsSold(bytes32,uint256)":"787d76b8","showPaymentToken(bytes32)":"72958028","showToTicketProxy(bytes32)":"3deba964","showToVenueProxy(bytes32)":"e71aee7e","showTokenVault(bytes32,address)":"c9e21e5e","showVault(bytes32)":"867e68af","shows(bytes32)":"fca46559","ticketFactoryInstance()":"e4ca73aa","ticketPricePaid(bytes32,uint256)":"2f18ddfe","totalTicketsSold(bytes32)":"925e8f89","transferOwnership(address)":"f2fde38b","updateShowDate(bytes32,uint256)":"64ad6cd6","updateShowVenue(bytes32,(string,(int256,int256),uint256,address,bytes32))":"c29e2de4","updateStatus(bytes32,uint8)":"054372ed","updateStatusIfSoldOut(bytes32)":"e6180546","upgradeToAndCall(address,bytes)":"4f1ef286","venueContract()":"51819335","venueFactoryInstance()":"9673b1e3","venueRegistryInstance()":"703ee4e5","voteForEmergencyRefund(bytes32)":"fc4bdfd4","votesForEmergencyRefund(bytes32)":"9ee0a14e","walletToShowToTokenIds(bytes32,address,uint256)":"7d8d6a22","withdrawRefund(bytes32)":"e9acfa7c"},"id":45}