{"abi":[{"type":"function","name":"SELLOUT_PROTOCOL_WALLET","inputs":[],"outputs":[{"name":"","type":"address","internalType":"address"}],"stateMutability":"view"},{"type":"function","name":"activeShowCount","inputs":[],"outputs":[{"name":"","type":"uint256","internalType":"uint256"}],"stateMutability":"view"},{"type":"function","name":"artistRegistryContract","inputs":[],"outputs":[{"name":"","type":"address","internalType":"address"}],"stateMutability":"view"},{"type":"function","name":"artistRegistryInstance","inputs":[],"outputs":[{"name":"","type":"address","internalType":"contract IArtistRegistry"}],"stateMutability":"view"},{"type":"function","name":"isArtistMapping","inputs":[{"name":"","type":"bytes32","internalType":"bytes32"},{"name":"","type":"address","internalType":"address"}],"outputs":[{"name":"","type":"bool","internalType":"bool"}],"stateMutability":"view"},{"type":"function","name":"organizerRegistryContract","inputs":[],"outputs":[{"name":"","type":"address","internalType":"address"}],"stateMutability":"view"},{"type":"function","name":"organizerRegistryInstance","inputs":[],"outputs":[{"name":"","type":"address","internalType":"contract IOrganizerRegistry"}],"stateMutability":"view"},{"type":"function","name":"pendingPayouts","inputs":[{"name":"","type":"bytes32","internalType":"bytes32"},{"name":"","type":"address","internalType":"address"}],"outputs":[{"name":"","type":"uint256","internalType":"uint256"}],"stateMutability":"view"},{"type":"function","name":"pendingRefunds","inputs":[{"name":"","type":"bytes32","internalType":"bytes32"},{"name":"","type":"address","internalType":"address"}],"outputs":[{"name":"","type":"uint256","internalType":"uint256"}],"stateMutability":"view"},{"type":"function","name":"referralContract","inputs":[],"outputs":[{"name":"","type":"address","internalType":"address"}],"stateMutability":"view"},{"type":"function","name":"referralInstance","inputs":[],"outputs":[{"name":"","type":"address","internalType":"contract ReferralModule"}],"stateMutability":"view"},{"type":"function","name":"showVault","inputs":[{"name":"","type":"bytes32","internalType":"bytes32"}],"outputs":[{"name":"","type":"uint256","internalType":"uint256"}],"stateMutability":"view"},{"type":"function","name":"shows","inputs":[{"name":"","type":"bytes32","internalType":"bytes32"}],"outputs":[{"name":"showId","type":"bytes32","internalType":"bytes32"},{"name":"name","type":"string","internalType":"string"},{"name":"description","type":"string","internalType":"string"},{"name":"organizer","type":"address","internalType":"address"},{"name":"venue","type":"tuple","internalType":"struct VenueTypes.Venue","components":[{"name":"name","type":"string","internalType":"string"},{"name":"coordinates","type":"tuple","internalType":"struct VenueTypes.Coordinates","components":[{"name":"lat","type":"int256","internalType":"int256"},{"name":"lon","type":"int256","internalType":"int256"}]},{"name":"totalCapacity","type":"uint256","internalType":"uint256"},{"name":"wallet","type":"address","internalType":"address"},{"name":"venueId","type":"bytes32","internalType":"bytes32"}]},{"name":"radius","type":"uint256","internalType":"uint256"},{"name":"sellOutThreshold","type":"uint256","internalType":"uint256"},{"name":"totalCapacity","type":"uint256","internalType":"uint256"},{"name":"status","type":"uint8","internalType":"enum ShowTypes.Status"},{"name":"isActive","type":"bool","internalType":"bool"},{"name":"expiry","type":"uint256","internalType":"uint256"},{"name":"showDate","type":"uint256","internalType":"uint256"}],"stateMutability":"view"},{"type":"function","name":"ticketContract","inputs":[],"outputs":[{"name":"","type":"address","internalType":"address"}],"stateMutability":"view"},{"type":"function","name":"ticketInstance","inputs":[],"outputs":[{"name":"","type":"address","internalType":"contract Ticket"}],"stateMutability":"view"},{"type":"function","name":"ticketPricePaid","inputs":[{"name":"","type":"bytes32","internalType":"bytes32"},{"name":"","type":"uint256","internalType":"uint256"}],"outputs":[{"name":"","type":"uint256","internalType":"uint256"}],"stateMutability":"view"},{"type":"function","name":"totalTicketsSold","inputs":[{"name":"","type":"bytes32","internalType":"bytes32"}],"outputs":[{"name":"","type":"uint256","internalType":"uint256"}],"stateMutability":"view"},{"type":"function","name":"venueContract","inputs":[],"outputs":[{"name":"","type":"address","internalType":"address"}],"stateMutability":"view"},{"type":"function","name":"venueRegistryContract","inputs":[],"outputs":[{"name":"","type":"address","internalType":"address"}],"stateMutability":"view"},{"type":"function","name":"venueRegistryInstance","inputs":[],"outputs":[{"name":"","type":"address","internalType":"contract IVenueRegistry"}],"stateMutability":"view"},{"type":"function","name":"walletToShowToTokenIds","inputs":[{"name":"","type":"bytes32","internalType":"bytes32"},{"name":"","type":"address","internalType":"address"},{"name":"","type":"uint256","internalType":"uint256"}],"outputs":[{"name":"","type":"uint256","internalType":"uint256"}],"stateMutability":"view"}],"bytecode":{"object":"0x6080604052600a805460ff60a01b1916905534801561001d57600080fd5b506108a78061002d6000396000f3fe608060405234801561001057600080fd5b50600436106101375760003560e01c8063703ee4e5116100b85780638e70362b1161007c5780638e70362b146102b7578063925e8f89146102e2578063bafd4eb014610302578063c6ab848a14610340578063e30228be14610353578063fca465591461036657600080fd5b8063703ee4e51461024b5780637d8d6a221461025e5780637dad19db14610271578063867e68af146102845780638dea15a1146102a457600080fd5b806341adf3ad116100ff57806341adf3ad146101d457806351819335146101e75780635696c07c146101fa57806358a86e1d1461022557806366bc64cd1461023857600080fd5b80630233ce6a1461013c578063164889061461016c5780631cf2103e146101835780632f18ddfe1461019657806331a68da0146101c1575b600080fd5b60065461014f906001600160a01b031681565b6040516001600160a01b0390911681526020015b60405180910390f35b610175600d5481565b604051908152602001610163565b60095461014f906001600160a01b031681565b6101756101a4366004610639565b601460209081526000928352604080842090915290825290205481565b60055461014f906001600160a01b031681565b60035461014f906001600160a01b031681565b60015461014f906001600160a01b031681565b610175610208366004610677565b601160209081526000928352604080842090915290825290205481565b60005461014f906001600160a01b031681565b60045461014f906001600160a01b031681565b600a5461014f906001600160a01b031681565b61017561026c3660046106a3565b610391565b60025461014f906001600160a01b031681565b6101756102923660046106d8565b60106020526000908152604090205481565b60085461014f906001600160a01b031681565b6101756102c5366004610677565b601260209081526000928352604080842090915290825290205481565b6101756102f03660046106d8565b60136020526000908152604090205481565b610330610310366004610677565b600f60209081526000928352604080842090915290825290205460ff1681565b6040519015158152602001610163565b60075461014f906001600160a01b031681565b600b5461014f906001600160a01b031681565b6103796103743660046106d8565b6103cf565b6040516101639c9b9a99989796959493929190610759565b601660205282600052604060002060205281600052604060002081815481106103b957600080fd5b9060005260206000200160009250925050505481565b600e60205260009081526040902080546001820180549192916103f190610837565b80601f016020809104026020016040519081016040528092919081815260200182805461041d90610837565b801561046a5780601f1061043f5761010080835404028352916020019161046a565b820191906000526020600020905b81548152906001019060200180831161044d57829003601f168201915b50505050509080600201805461047f90610837565b80601f01602080910402602001604051908101604052809291908181526020018280546104ab90610837565b80156104f85780601f106104cd576101008083540402835291602001916104f8565b820191906000526020600020905b8154815290600101906020018083116104db57829003601f168201915b5050505050908060030160009054906101000a90046001600160a01b031690806005016040518060a001604052908160008201805461053690610837565b80601f016020809104026020016040519081016040528092919081815260200182805461056290610837565b80156105af5780601f10610584576101008083540402835291602001916105af565b820191906000526020600020905b81548152906001019060200180831161059257829003601f168201915b505050918352505060408051808201825260018401548152600284015460208281019190915283015260038301549082015260048201546001600160a01b03166060820152600590910154608090910152600b820154600d830154600e840154600f8501546011860154601290960154949593949293919260ff808316936101009093041691908c565b6000806040838503121561064c57600080fd5b50508035926020909101359150565b80356001600160a01b038116811461067257600080fd5b919050565b6000806040838503121561068a57600080fd5b8235915061069a6020840161065b565b90509250929050565b6000806000606084860312156106b857600080fd5b833592506106c86020850161065b565b9150604084013590509250925092565b6000602082840312156106ea57600080fd5b5035919050565b6000815180845260005b81811015610717576020818501810151868301820152016106fb565b506000602082860101526020601f19601f83011685010191505092915050565b6008811061075557634e487b7160e01b600052602160045260246000fd5b9052565b60006101808e83528060208401526107738184018f6106f1565b90508281036040840152610787818e6106f1565b905060018060a01b03808d16606085015283820360808501528b5160c083526107b360c08401826106f1565b905060208d015180516020850152602081015160408501525060408d015160608401528160608e015116608084015260808d015160a08401528093505050508860a08301528760c08301528660e0830152610812610100830187610737565b84151561012083015261014082019390935261016001529a9950505050505050505050565b600181811c9082168061084b57607f821691505b60208210810361086b57634e487b7160e01b600052602260045260246000fd5b5091905056fea2646970667358221220fda24c180f4f2b2c35db16ca6a62ffca218839861cc83669e295c509626f737c64736f6c63430008140033","linkReferences":{}},"methodIdentifiers":{"SELLOUT_PROTOCOL_WALLET()":"e30228be","activeShowCount()":"16488906","artistRegistryContract()":"41adf3ad","artistRegistryInstance()":"8dea15a1","isArtistMapping(bytes32,address)":"bafd4eb0","organizerRegistryContract()":"66bc64cd","organizerRegistryInstance()":"1cf2103e","pendingPayouts(bytes32,address)":"8e70362b","pendingRefunds(bytes32,address)":"5696c07c","referralContract()":"7dad19db","referralInstance()":"c6ab848a","showVault(bytes32)":"867e68af","shows(bytes32)":"fca46559","ticketContract()":"58a86e1d","ticketInstance()":"0233ce6a","ticketPricePaid(bytes32,uint256)":"2f18ddfe","totalTicketsSold(bytes32)":"925e8f89","venueContract()":"51819335","venueRegistryContract()":"31a68da0","venueRegistryInstance()":"703ee4e5","walletToShowToTokenIds(bytes32,address,uint256)":"7d8d6a22"},"id":58}