{"abi":[{"type":"function","name":"SELLOUT_PROTOCOL_WALLET","inputs":[],"outputs":[{"name":"","type":"address","internalType":"address"}],"stateMutability":"view"},{"type":"function","name":"UPGRADE_INTERFACE_VERSION","inputs":[],"outputs":[{"name":"","type":"string","internalType":"string"}],"stateMutability":"view"},{"type":"function","name":"boxOfficeContract","inputs":[],"outputs":[{"name":"","type":"address","internalType":"address"}],"stateMutability":"view"},{"type":"function","name":"calculateTotalPayoutAmount","inputs":[{"name":"showId","type":"bytes32","internalType":"bytes32"},{"name":"paymentToken","type":"address","internalType":"address"}],"outputs":[{"name":"","type":"uint256","internalType":"uint256"}],"stateMutability":"view"},{"type":"function","name":"clearVault","inputs":[{"name":"showId","type":"bytes32","internalType":"bytes32"},{"name":"paymentToken","type":"address","internalType":"address"}],"outputs":[],"stateMutability":"nonpayable"},{"type":"function","name":"depositToVault","inputs":[{"name":"showId","type":"bytes32","internalType":"bytes32"}],"outputs":[],"stateMutability":"payable"},{"type":"function","name":"depositToVaultERC20","inputs":[{"name":"showId","type":"bytes32","internalType":"bytes32"},{"name":"amount","type":"uint256","internalType":"uint256"},{"name":"paymentToken","type":"address","internalType":"address"},{"name":"tokenRecipient","type":"address","internalType":"address"}],"outputs":[],"stateMutability":"nonpayable"},{"type":"function","name":"distributeShares","inputs":[{"name":"showId","type":"bytes32","internalType":"bytes32"},{"name":"recipients","type":"address[]","internalType":"address[]"},{"name":"splits","type":"uint256[]","internalType":"uint256[]"},{"name":"totalAmount","type":"uint256","internalType":"uint256"},{"name":"paymentToken","type":"address","internalType":"address"}],"outputs":[],"stateMutability":"nonpayable"},{"type":"function","name":"getShowPaymentToken","inputs":[{"name":"showId","type":"bytes32","internalType":"bytes32"}],"outputs":[{"name":"","type":"address","internalType":"address"}],"stateMutability":"view"},{"type":"function","name":"initialize","inputs":[{"name":"_showContract","type":"address","internalType":"address"},{"name":"_selloutProtocolWallet","type":"address","internalType":"address"}],"outputs":[],"stateMutability":"nonpayable"},{"type":"function","name":"owner","inputs":[],"outputs":[{"name":"","type":"address","internalType":"address"}],"stateMutability":"view"},{"type":"function","name":"payout","inputs":[{"name":"showId","type":"bytes32","internalType":"bytes32"},{"name":"paymentToken","type":"address","internalType":"address"},{"name":"payee","type":"address","internalType":"address"}],"outputs":[],"stateMutability":"nonpayable"},{"type":"function","name":"pendingPayouts","inputs":[{"name":"","type":"bytes32","internalType":"bytes32"},{"name":"","type":"address","internalType":"address"}],"outputs":[{"name":"","type":"uint256","internalType":"uint256"}],"stateMutability":"view"},{"type":"function","name":"pendingRefunds","inputs":[{"name":"","type":"bytes32","internalType":"bytes32"},{"name":"","type":"address","internalType":"address"}],"outputs":[{"name":"","type":"uint256","internalType":"uint256"}],"stateMutability":"view"},{"type":"function","name":"pendingTokenPayouts","inputs":[{"name":"","type":"bytes32","internalType":"bytes32"},{"name":"","type":"address","internalType":"address"},{"name":"","type":"address","internalType":"address"}],"outputs":[{"name":"","type":"uint256","internalType":"uint256"}],"stateMutability":"view"},{"type":"function","name":"pendingTokenRefunds","inputs":[{"name":"","type":"bytes32","internalType":"bytes32"},{"name":"","type":"address","internalType":"address"},{"name":"","type":"address","internalType":"address"}],"outputs":[{"name":"","type":"uint256","internalType":"uint256"}],"stateMutability":"view"},{"type":"function","name":"processRefund","inputs":[{"name":"showId","type":"bytes32","internalType":"bytes32"},{"name":"refundAmount","type":"uint256","internalType":"uint256"},{"name":"paymentToken","type":"address","internalType":"address"},{"name":"recipient","type":"address","internalType":"address"}],"outputs":[],"stateMutability":"nonpayable"},{"type":"function","name":"proxiableUUID","inputs":[],"outputs":[{"name":"","type":"bytes32","internalType":"bytes32"}],"stateMutability":"view"},{"type":"function","name":"renounceOwnership","inputs":[],"outputs":[],"stateMutability":"nonpayable"},{"type":"function","name":"setContractAddresses","inputs":[{"name":"_boxOfficeContract","type":"address","internalType":"address"}],"outputs":[],"stateMutability":"nonpayable"},{"type":"function","name":"setShowPaymentToken","inputs":[{"name":"showId","type":"bytes32","internalType":"bytes32"},{"name":"token","type":"address","internalType":"address"}],"outputs":[],"stateMutability":"nonpayable"},{"type":"function","name":"showContract","inputs":[],"outputs":[{"name":"","type":"address","internalType":"address"}],"stateMutability":"view"},{"type":"function","name":"showInstance","inputs":[],"outputs":[{"name":"","type":"address","internalType":"contract IShow"}],"stateMutability":"view"},{"type":"function","name":"showPaymentTokens","inputs":[{"name":"","type":"bytes32","internalType":"bytes32"}],"outputs":[{"name":"","type":"address","internalType":"address"}],"stateMutability":"view"},{"type":"function","name":"showTokenVault","inputs":[{"name":"","type":"bytes32","internalType":"bytes32"},{"name":"","type":"address","internalType":"address"}],"outputs":[{"name":"","type":"uint256","internalType":"uint256"}],"stateMutability":"view"},{"type":"function","name":"showVault","inputs":[{"name":"","type":"bytes32","internalType":"bytes32"}],"outputs":[{"name":"","type":"uint256","internalType":"uint256"}],"stateMutability":"view"},{"type":"function","name":"transferOwnership","inputs":[{"name":"newOwner","type":"address","internalType":"address"}],"outputs":[],"stateMutability":"nonpayable"},{"type":"function","name":"upgradeToAndCall","inputs":[{"name":"newImplementation","type":"address","internalType":"address"},{"name":"data","type":"bytes","internalType":"bytes"}],"outputs":[],"stateMutability":"payable"},{"type":"function","name":"withdrawRefund","inputs":[{"name":"showId","type":"bytes32","internalType":"bytes32"},{"name":"paymentToken","type":"address","internalType":"address"}],"outputs":[],"stateMutability":"nonpayable"},{"type":"event","name":"Initialized","inputs":[{"name":"version","type":"uint64","indexed":false,"internalType":"uint64"}],"anonymous":false},{"type":"event","name":"OwnershipTransferred","inputs":[{"name":"previousOwner","type":"address","indexed":true,"internalType":"address"},{"name":"newOwner","type":"address","indexed":true,"internalType":"address"}],"anonymous":false},{"type":"event","name":"Upgraded","inputs":[{"name":"implementation","type":"address","indexed":true,"internalType":"address"}],"anonymous":false},{"type":"event","name":"Withdrawal","inputs":[{"name":"showId","type":"bytes32","indexed":true,"internalType":"bytes32"},{"name":"recipient","type":"address","indexed":true,"internalType":"address"},{"name":"amount","type":"uint256","indexed":false,"internalType":"uint256"},{"name":"paymentToken","type":"address","indexed":false,"internalType":"address"}],"anonymous":false},{"type":"error","name":"AddressEmptyCode","inputs":[{"name":"target","type":"address","internalType":"address"}]},{"type":"error","name":"ERC1967InvalidImplementation","inputs":[{"name":"implementation","type":"address","internalType":"address"}]},{"type":"error","name":"ERC1967NonPayable","inputs":[]},{"type":"error","name":"FailedInnerCall","inputs":[]},{"type":"error","name":"InvalidInitialization","inputs":[]},{"type":"error","name":"NotInitializing","inputs":[]},{"type":"error","name":"OwnableInvalidOwner","inputs":[{"name":"owner","type":"address","internalType":"address"}]},{"type":"error","name":"OwnableUnauthorizedAccount","inputs":[{"name":"account","type":"address","internalType":"address"}]},{"type":"error","name":"ReentrancyGuardReentrantCall","inputs":[]},{"type":"error","name":"UUPSUnauthorizedCallContext","inputs":[]},{"type":"error","name":"UUPSUnsupportedProxiableUUID","inputs":[{"name":"slot","type":"bytes32","internalType":"bytes32"}]}],"bytecode":{"object":"0x60a06040523060805234801561001457600080fd5b5060805161238a61003e600039600081816115250152818161154e015261168f015261238a6000f3fe6080604052600436106101c25760003560e01c806385266635116100f7578063b25e93ff11610095578063e30228be11610064578063e30228be146105dc578063e8aa2e5f146105fc578063f2fde38b1461061c578063fab49c371461063c57600080fd5b8063b25e93ff1461052e578063c9e21e5e1461054e578063ca6644d814610586578063d23b85a3146105a657600080fd5b80638e70362b116100d15780638e70362b1461045a57806391901dcc1461049257806392ea6388146104b2578063ad3cb1cc146104f057600080fd5b806385266635146103dd578063867e68af146103f05780638da5cb5b1461041d57600080fd5b80635412233f116101645780636c92b0221161013e5780636c92b0221461034a578063715018a61461036a578063759767951461037f5780637674a691146103bd57600080fd5b80635412233f146102bc5780635696c07c146102dc5780635765fec31461031457600080fd5b8063404f49d1116101a0578063404f49d11461023c578063485cc955146102745780634f1ef2861461029457806352d1902d146102a757600080fd5b80631f88bb87146101c7578063213efcab146101e95780632cc26d941461021c575b600080fd5b3480156101d357600080fd5b506101e76101e2366004611d79565b61065c565b005b3480156101f557600080fd5b50610209610204366004611d96565b6106dc565b6040519081526020015b60405180910390f35b34801561022857600080fd5b506101e7610237366004611e9c565b61072c565b34801561024857600080fd5b5060035461025c906001600160a01b031681565b6040516001600160a01b039091168152602001610213565b34801561028057600080fd5b506101e761028f366004611f84565b61081c565b6101e76102a2366004611fb2565b610971565b3480156102b357600080fd5b50610209610990565b3480156102c857600080fd5b506101e76102d736600461205a565b6109ad565b3480156102e857600080fd5b506102096102f7366004611d96565b600660209081526000928352604080842090915290825290205481565b34801561032057600080fd5b5061025c61032f3660046120a4565b600a602052600090815260409020546001600160a01b031681565b34801561035657600080fd5b5060025461025c906001600160a01b031681565b34801561037657600080fd5b506101e7610cea565b34801561038b57600080fd5b5061020961039a3660046120bd565b600960209081526000938452604080852082529284528284209052825290205481565b3480156103c957600080fd5b506101e76103d83660046120bd565b610cfe565b6101e76103eb3660046120a4565b610d50565b3480156103fc57600080fd5b5061020961040b3660046120a4565b60046020526000908152604090205481565b34801561042957600080fd5b507f9016d09d72d40fdae2fd8ceac6b6234c7706214fd39c1cd1e609a0528c199300546001600160a01b031661025c565b34801561046657600080fd5b50610209610475366004611d96565b600860209081526000928352604080842090915290825290205481565b34801561049e57600080fd5b506101e76104ad366004611d96565b610e9c565b3480156104be57600080fd5b506102096104cd3660046120bd565b600760209081526000938452604080852082529284528284209052825290205481565b3480156104fc57600080fd5b50610521604051806040016040528060058152602001640352e302e360dc1b81525081565b6040516102139190612123565b34801561053a57600080fd5b5060015461025c906001600160a01b031681565b34801561055a57600080fd5b50610209610569366004611d96565b600560209081526000928352604080842090915290825290205481565b34801561059257600080fd5b506101e76105a136600461205a565b611134565b3480156105b257600080fd5b5061025c6105c13660046120a4565b6000908152600a60205260409020546001600160a01b031690565b3480156105e857600080fd5b5060005461025c906001600160a01b031681565b34801561060857600080fd5b506101e7610617366004611d96565b611374565b34801561062857600080fd5b506101e7610637366004611d79565b6113cc565b34801561064857600080fd5b506101e7610657366004611d96565b61140a565b6002546001600160a01b0316156106ba5760405162461bcd60e51b815260206004820152601f60248201527f426f78204f666669636520436f6e747261637420616c7265616479207365740060448201526064015b60405180910390fd5b600280546001600160a01b0319166001600160a01b0392909216919091179055565b60006001600160a01b0382166107015750600082815260046020526040902054610726565b5060008281526005602090815260408083206001600160a01b03851684529091529020545b92915050565b6001546001600160a01b031633146107565760405162461bcd60e51b81526004016106b190612156565b600060646107658460036121b9565b61076f91906121d0565b9050600061077d82856121f2565b6000549091506107999088906001600160a01b0316848661147b565b60005b865181101561081257600060648783815181106107bb576107bb612205565b6020026020010151846107ce91906121b9565b6107d891906121d0565b90506107ff898984815181106107f0576107f0612205565b6020026020010151838861147b565b508061080a8161221b565b91505061079c565b5050505050505050565b7ff0c57e16840df040f15088dc2f81fe391c3923bec73e23a9662efc9c229c6a008054600160401b810460ff16159067ffffffffffffffff166000811580156108625750825b905060008267ffffffffffffffff16600114801561087f5750303b155b90508115801561088d575080155b156108ab5760405163f92ee8a960e01b815260040160405180910390fd5b845467ffffffffffffffff1916600117855583156108d557845460ff60401b1916600160401b1785555b6108de866114f9565b6108e661150a565b600180546001600160a01b03199081166001600160a01b038a8116918217909355600380548316909117905560008054909116918816919091179055831561096857845460ff60401b19168555604051600181527fc7f505b2f371ae2175ee4913f4499e1f2633a7b5936321eed1cdaeb6115181d29060200160405180910390a15b50505050505050565b61097961151a565b610982826115bf565b61098c82826115c7565b5050565b600061099a611684565b5060008051602061233583398151915290565b600354604051633f71c19b60e21b81526004810186905285916001600160a01b03169063fdc7066c90602401602060405180830381865afa1580156109f6573d6000803e3d6000fd5b505050506040513d601f19601f82011682018060405250810190610a1a9190612234565b6001600160a01b0316336001600160a01b03161480610ab65750600354604051630f8bfa8d60e21b8152600481018390526001600160a01b0390911690633e2fea3490602401602060405180830381865afa158015610a7d573d6000803e3d6000fd5b505050506040513d601f19601f82011682018060405250810190610aa19190612234565b6001600160a01b0316336001600160a01b0316145b610ad25760405162461bcd60e51b81526004016106b190612251565b6001600160a01b038316610b285760405162461bcd60e51b815260206004820152601d60248201527f496e76616c6964207061796d656e7420746f6b656e206164647265737300000060448201526064016106b1565b6000858152600a60205260409020546001600160a01b03848116911614610b765760405162461bcd60e51b8152602060048201526002602482015261085d60f21b60448201526064016106b1565b604051636eb1769f60e11b81526001600160a01b0383811660048301523060248301528491869183169063dd62ed3e90604401602060405180830381865afa158015610bc6573d6000803e3d6000fd5b505050506040513d601f19601f82011682018060405250810190610bea91906122ae565b1015610c315760405162461bcd60e51b8152602060048201526016602482015275496e73756666696369656e7420616c6c6f77616e636560501b60448201526064016106b1565b6040516323b872dd60e01b81526001600160a01b038481166004830152306024830152604482018790528216906323b872dd906064016020604051808303816000875af1158015610c86573d6000803e3d6000fd5b505050506040513d601f19601f82011682018060405250810190610caa91906122c7565b5060008681526005602090815260408083206001600160a01b038816845290915281208054879290610cdd9084906122e9565b9091555050505050505050565b610cf26116cd565b610cfc6000611728565b565b6001546001600160a01b03163314610d285760405162461bcd60e51b81526004016106b190612156565b6001600160a01b038216610d4557610d408382611799565b505050565b610d408383836118c2565b600354604051633f71c19b60e21b81526004810183905282916001600160a01b03169063fdc7066c90602401602060405180830381865afa158015610d99573d6000803e3d6000fd5b505050506040513d601f19601f82011682018060405250810190610dbd9190612234565b6001600160a01b0316336001600160a01b03161480610e595750600354604051630f8bfa8d60e21b8152600481018390526001600160a01b0390911690633e2fea3490602401602060405180830381865afa158015610e20573d6000803e3d6000fd5b505050506040513d601f19601f82011682018060405250810190610e449190612234565b6001600160a01b0316336001600160a01b0316145b610e755760405162461bcd60e51b81526004016106b190612251565b60008281526004602052604081208054349290610e939084906122e9565b90915550505050565b6001546001600160a01b03163314610ec65760405162461bcd60e51b81526004016106b190612156565b610ece611ab3565b60006001600160a01b03821615610f0f5760008381526007602090815260408083206001600160a01b03861684528252808320338452909152902054610f2a565b60008381526006602090815260408083203384529091529020545b905060008111610f725760405162461bcd60e51b81526020600482015260136024820152724e6f20726566756e6420617661696c61626c6560681b60448201526064016106b1565b6001600160a01b03821661102b5760008381526006602090815260408083203380855292528083208390555183908381818185875af1925050503d8060008114610fd8576040519150601f19603f3d011682016040523d82523d6000602084013e610fdd565b606091505b50509050806110255760405162461bcd60e51b81526020600482015260146024820152732330b4b632b2103a379039b2b7321022ba3432b960611b60448201526064016106b1565b5061110a565b60008381526007602090815260408083206001600160a01b038616808552908352818420338086529352818420939093555163a9059cbb60e01b815260048101919091526024810183905283919063a9059cbb906044016020604051808303816000875af11580156110a1573d6000803e3d6000fd5b505050506040513d601f19601f820116820180604052508101906110c591906122c7565b6111085760405162461bcd60e51b815260206004820152601460248201527304661696c656420746f2073656e642045524332360641b60448201526064016106b1565b505b5061098c60017f9b779b17422d0df92223018b32b4d1fa46e071723d6817e2486d003becc55f0055565b6001546001600160a01b031633148061115757506002546001600160a01b031633145b6111c05760405162461bcd60e51b815260206004820152603460248201527f556e617574686f72697a65643a2063616c6c6572206973206e6f74207468652060448201527314da1bddc81bdc88109bde0818dbdb9d1c9858dd60621b60648201526084016106b1565b6001600160a01b038216611281576000848152600460205260409020548311156112215760405162461bcd60e51b8152602060048201526012602482015271496e73756666696369656e742066756e647360701b60448201526064016106b1565b6000848152600460205260408120805485929061123f9084906121f2565b909155505060008481526006602090815260408083206001600160a01b0385168452909152812080548592906112769084906122e9565b9091555061136e9050565b60008481526005602090815260408083206001600160a01b03861684529091529020548311156112f35760405162461bcd60e51b815260206004820152601860248201527f496e73756666696369656e7420746f6b656e2066756e6473000000000000000060448201526064016106b1565b60008481526005602090815260408083206001600160a01b0386168452909152812080548592906113259084906121f2565b909155505060008481526007602090815260408083206001600160a01b0380871685529083528184209085168452909152812080548592906113689084906122e9565b90915550505b50505050565b6001546001600160a01b0316331461139e5760405162461bcd60e51b81526004016106b190612156565b6000918252600a602052604090912080546001600160a01b0319166001600160a01b03909216919091179055565b6113d46116cd565b6001600160a01b0381166113fe57604051631e4fbdf760e01b8152600060048201526024016106b1565b61140781611728565b50565b6001546001600160a01b031633146114345760405162461bcd60e51b81526004016106b190612156565b6001600160a01b0381166114545750600090815260046020526040812055565b60008281526005602090815260408083206001600160a01b03851684529091528120555050565b6001600160a01b0381166114bb5760008481526008602090815260408083206001600160a01b0387168452909152812080548492906112769084906122e9565b60008481526009602090815260408083206001600160a01b0380861685529083528184209087168452909152812080548492906113689084906122e9565b611501611b23565b61140781611b6c565b611512611b23565b610cfc611b74565b306001600160a01b037f00000000000000000000000000000000000000000000000000000000000000001614806115a157507f00000000000000000000000000000000000000000000000000000000000000006001600160a01b0316611595600080516020612335833981519152546001600160a01b031690565b6001600160a01b031614155b15610cfc5760405163703e46dd60e11b815260040160405180910390fd5b6114076116cd565b816001600160a01b03166352d1902d6040518163ffffffff1660e01b8152600401602060405180830381865afa925050508015611621575060408051601f3d908101601f1916820190925261161e918101906122ae565b60015b61164957604051634c9c8ce360e01b81526001600160a01b03831660048201526024016106b1565b600080516020612335833981519152811461167a57604051632a87526960e21b8152600481018290526024016106b1565b610d408383611b7c565b306001600160a01b037f00000000000000000000000000000000000000000000000000000000000000001614610cfc5760405163703e46dd60e11b815260040160405180910390fd5b336116ff7f9016d09d72d40fdae2fd8ceac6b6234c7706214fd39c1cd1e609a0528c199300546001600160a01b031690565b6001600160a01b031614610cfc5760405163118cdaa760e01b81523360048201526024016106b1565b7f9016d09d72d40fdae2fd8ceac6b6234c7706214fd39c1cd1e609a0528c19930080546001600160a01b031981166001600160a01b03848116918217845560405192169182907f8be0079c531659141344cd1fd0a4f28419497f9722a3daafe3b4186f6b6457e090600090a3505050565b60008281526008602090815260408083206001600160a01b0385168452909152902054806117d95760405162461bcd60e51b81526004016106b1906122fc565b60008381526008602090815260408083206001600160a01b03861680855292528083208390555183908381818185875af1925050503d806000811461183a576040519150601f19603f3d011682016040523d82523d6000602084013e61183f565b606091505b50509050806118765760405162461bcd60e51b815260206004820152600360248201526210969f60e91b60448201526064016106b1565b60408051838152600060208201526001600160a01b0385169186917f41211792ac12581294dfaa383a54e630322f08f25e558828f6d5e0979ac3eb23910160405180910390a350505050565b60008381526009602090815260408083206001600160a01b03808716855290835281842090851684529091529020548061190e5760405162461bcd60e51b81526004016106b1906122fc565b60008481526009602090815260408083206001600160a01b0387811680865291845282852090871685529092528083209290925590516370a0823160e01b8152306004820152849183916370a0823190602401602060405180830381865afa15801561197e573d6000803e3d6000fd5b505050506040513d601f19601f820116820180604052508101906119a291906122ae565b10156119c05760405162461bcd60e51b81526004016106b1906122fc565b60405163a9059cbb60e01b81526001600160a01b0384811660048301526024820184905282169063a9059cbb906044016020604051808303816000875af1158015611a0f573d6000803e3d6000fd5b505050506040513d601f19601f82011682018060405250810190611a3391906122c7565b611a655760405162461bcd60e51b815260206004820152600360248201526210969f60e91b60448201526064016106b1565b604080518381526001600160a01b03868116602083015285169187917f41211792ac12581294dfaa383a54e630322f08f25e558828f6d5e0979ac3eb23910160405180910390a35050505050565b7f9b779b17422d0df92223018b32b4d1fa46e071723d6817e2486d003becc55f00805460011901611af757604051633ee5aeb560e01b815260040160405180910390fd5b60029055565b60017f9b779b17422d0df92223018b32b4d1fa46e071723d6817e2486d003becc55f0055565b7ff0c57e16840df040f15088dc2f81fe391c3923bec73e23a9662efc9c229c6a0054600160401b900460ff16610cfc57604051631afcd79f60e31b815260040160405180910390fd5b6113d4611b23565b611afd611b23565b611b8582611bd2565b6040516001600160a01b038316907fbc7cd75a20ee27fd9adebab32041f755214dbc6bffa90cc0225b39da2e5c2d3b90600090a2805115611bca57610d408282611c37565b61098c611cad565b806001600160a01b03163b600003611c0857604051634c9c8ce360e01b81526001600160a01b03821660048201526024016106b1565b60008051602061233583398151915280546001600160a01b0319166001600160a01b0392909216919091179055565b6060600080846001600160a01b031684604051611c549190612318565b600060405180830381855af49150503d8060008114611c8f576040519150601f19603f3d011682016040523d82523d6000602084013e611c94565b606091505b5091509150611ca4858383611ccc565b95945050505050565b3415610cfc5760405163b398979f60e01b815260040160405180910390fd5b606082611ce157611cdc82611d2b565b611d24565b8151158015611cf857506001600160a01b0384163b155b15611d2157604051639996b31560e01b81526001600160a01b03851660048201526024016106b1565b50805b9392505050565b805115611d3b5780518082602001fd5b604051630a12f52160e11b815260040160405180910390fd5b6001600160a01b038116811461140757600080fd5b8035611d7481611d54565b919050565b600060208284031215611d8b57600080fd5b8135611d2481611d54565b60008060408385031215611da957600080fd5b823591506020830135611dbb81611d54565b809150509250929050565b634e487b7160e01b600052604160045260246000fd5b604051601f8201601f1916810167ffffffffffffffff81118282101715611e0557611e05611dc6565b604052919050565b600067ffffffffffffffff821115611e2757611e27611dc6565b5060051b60200190565b600082601f830112611e4257600080fd5b81356020611e57611e5283611e0d565b611ddc565b82815260059290921b84018101918181019086841115611e7657600080fd5b8286015b84811015611e915780358352918301918301611e7a565b509695505050505050565b600080600080600060a08688031215611eb457600080fd5b8535945060208087013567ffffffffffffffff80821115611ed457600080fd5b818901915089601f830112611ee857600080fd5b8135611ef6611e5282611e0d565b81815260059190911b8301840190848101908c831115611f1557600080fd5b938501935b82851015611f3c578435611f2d81611d54565b82529385019390850190611f1a565b985050506040890135925080831115611f5457600080fd5b5050611f6288828901611e31565b93505060608601359150611f7860808701611d69565b90509295509295909350565b60008060408385031215611f9757600080fd5b8235611fa281611d54565b91506020830135611dbb81611d54565b60008060408385031215611fc557600080fd5b8235611fd081611d54565b915060208381013567ffffffffffffffff80821115611fee57600080fd5b818601915086601f83011261200257600080fd5b81358181111561201457612014611dc6565b612026601f8201601f19168501611ddc565b9150808252878482850101111561203c57600080fd5b80848401858401376000848284010152508093505050509250929050565b6000806000806080858703121561207057600080fd5b8435935060208501359250604085013561208981611d54565b9150606085013561209981611d54565b939692955090935050565b6000602082840312156120b657600080fd5b5035919050565b6000806000606084860312156120d257600080fd5b8335925060208401356120e481611d54565b915060408401356120f481611d54565b809150509250925092565b60005b8381101561211a578181015183820152602001612102565b50506000910152565b60208152600082518060208401526121428160408501602087016120ff565b601f01601f19169190910160400192915050565b6020808252602d908201527f556e617574686f72697a65643a2063616c6c6572206973206e6f74207468652060408201526c14da1bddc818dbdb9d1c9858dd609a1b606082015260800190565b634e487b7160e01b600052601160045260246000fd5b8082028115828204841417610726576107266121a3565b6000826121ed57634e487b7160e01b600052601260045260246000fd5b500490565b81810381811115610726576107266121a3565b634e487b7160e01b600052603260045260246000fd5b60006001820161222d5761222d6121a3565b5060010190565b60006020828403121561224657600080fd5b8151611d2481611d54565b60208082526038908201527f556e617574686f72697a65643a2063616c6c6572206973206e6f74207468652060408201527f5469636b6574206f722056656e756520636f6e74726163740000000000000000606082015260800190565b6000602082840312156122c057600080fd5b5051919050565b6000602082840312156122d957600080fd5b81518015158114611d2457600080fd5b80820180821115610726576107266121a3565b602080825260029082015261084960f21b604082015260600190565b6000825161232a8184602087016120ff565b919091019291505056fe360894a13ba1a3210667c828492db98dca3e2076cc3735a920a3ca505d382bbca2646970667358221220c2b3561a98c046a4906945006111c375f6ba282105e81297dc9af322b7fb724e64736f6c63430008140033","linkReferences":{}},"methodIdentifiers":{"SELLOUT_PROTOCOL_WALLET()":"e30228be","UPGRADE_INTERFACE_VERSION()":"ad3cb1cc","boxOfficeContract()":"6c92b022","calculateTotalPayoutAmount(bytes32,address)":"213efcab","clearVault(bytes32,address)":"fab49c37","depositToVault(bytes32)":"85266635","depositToVaultERC20(bytes32,uint256,address,address)":"5412233f","distributeShares(bytes32,address[],uint256[],uint256,address)":"2cc26d94","getShowPaymentToken(bytes32)":"d23b85a3","initialize(address,address)":"485cc955","owner()":"8da5cb5b","payout(bytes32,address,address)":"7674a691","pendingPayouts(bytes32,address)":"8e70362b","pendingRefunds(bytes32,address)":"5696c07c","pendingTokenPayouts(bytes32,address,address)":"75976795","pendingTokenRefunds(bytes32,address,address)":"92ea6388","processRefund(bytes32,uint256,address,address)":"ca6644d8","proxiableUUID()":"52d1902d","renounceOwnership()":"715018a6","setContractAddresses(address)":"1f88bb87","setShowPaymentToken(bytes32,address)":"e8aa2e5f","showContract()":"b25e93ff","showInstance()":"404f49d1","showPaymentTokens(bytes32)":"5765fec3","showTokenVault(bytes32,address)":"c9e21e5e","showVault(bytes32)":"867e68af","transferOwnership(address)":"f2fde38b","upgradeToAndCall(address,bytes)":"4f1ef286","withdrawRefund(bytes32,address)":"91901dcc"},"id":90}