{"abi":[{"type":"function","name":"SELLOUT_PROTOCOL_WALLET","inputs":[],"outputs":[{"name":"","type":"address","internalType":"address"}],"stateMutability":"view"},{"type":"function","name":"activeShowCount","inputs":[],"outputs":[{"name":"","type":"uint256","internalType":"uint256"}],"stateMutability":"view"},{"type":"function","name":"artistRegistryInstance","inputs":[],"outputs":[{"name":"","type":"address","internalType":"contract IArtistRegistry"}],"stateMutability":"view"},{"type":"function","name":"hasVotedForEmergencyRefund","inputs":[{"name":"","type":"bytes32","internalType":"bytes32"},{"name":"","type":"address","internalType":"address"}],"outputs":[{"name":"","type":"bool","internalType":"bool"}],"stateMutability":"view"},{"type":"function","name":"isArtistMapping","inputs":[{"name":"","type":"bytes32","internalType":"bytes32"},{"name":"","type":"address","internalType":"address"}],"outputs":[{"name":"","type":"bool","internalType":"bool"}],"stateMutability":"view"},{"type":"function","name":"organizerRegistryInstance","inputs":[],"outputs":[{"name":"","type":"address","internalType":"contract IOrganizerRegistry"}],"stateMutability":"view"},{"type":"function","name":"pendingPayouts","inputs":[{"name":"","type":"bytes32","internalType":"bytes32"},{"name":"","type":"address","internalType":"address"}],"outputs":[{"name":"","type":"uint256","internalType":"uint256"}],"stateMutability":"view"},{"type":"function","name":"pendingRefunds","inputs":[{"name":"","type":"bytes32","internalType":"bytes32"},{"name":"","type":"address","internalType":"address"}],"outputs":[{"name":"","type":"uint256","internalType":"uint256"}],"stateMutability":"view"},{"type":"function","name":"pendingTokenPayouts","inputs":[{"name":"","type":"bytes32","internalType":"bytes32"},{"name":"","type":"address","internalType":"address"},{"name":"","type":"address","internalType":"address"}],"outputs":[{"name":"","type":"uint256","internalType":"uint256"}],"stateMutability":"view"},{"type":"function","name":"pendingTokenRefunds","inputs":[{"name":"","type":"bytes32","internalType":"bytes32"},{"name":"","type":"address","internalType":"address"},{"name":"","type":"address","internalType":"address"}],"outputs":[{"name":"","type":"uint256","internalType":"uint256"}],"stateMutability":"view"},{"type":"function","name":"referralInstance","inputs":[],"outputs":[{"name":"","type":"address","internalType":"contract ReferralModule"}],"stateMutability":"view"},{"type":"function","name":"showPaymentToken","inputs":[{"name":"","type":"bytes32","internalType":"bytes32"}],"outputs":[{"name":"","type":"address","internalType":"address"}],"stateMutability":"view"},{"type":"function","name":"showToTicketProxy","inputs":[{"name":"","type":"bytes32","internalType":"bytes32"}],"outputs":[{"name":"","type":"address","internalType":"address"}],"stateMutability":"view"},{"type":"function","name":"showToVenueProxy","inputs":[{"name":"","type":"bytes32","internalType":"bytes32"}],"outputs":[{"name":"","type":"address","internalType":"address"}],"stateMutability":"view"},{"type":"function","name":"showTokenVault","inputs":[{"name":"","type":"bytes32","internalType":"bytes32"},{"name":"","type":"address","internalType":"address"}],"outputs":[{"name":"","type":"uint256","internalType":"uint256"}],"stateMutability":"view"},{"type":"function","name":"showVault","inputs":[{"name":"","type":"bytes32","internalType":"bytes32"}],"outputs":[{"name":"","type":"uint256","internalType":"uint256"}],"stateMutability":"view"},{"type":"function","name":"shows","inputs":[{"name":"","type":"bytes32","internalType":"bytes32"}],"outputs":[{"name":"showId","type":"bytes32","internalType":"bytes32"},{"name":"name","type":"string","internalType":"string"},{"name":"description","type":"string","internalType":"string"},{"name":"organizer","type":"address","internalType":"address"},{"name":"venue","type":"tuple","internalType":"struct VenueTypes.Venue","components":[{"name":"name","type":"string","internalType":"string"},{"name":"coordinates","type":"tuple","internalType":"struct VenueTypes.Coordinates","components":[{"name":"lat","type":"int256","internalType":"int256"},{"name":"lon","type":"int256","internalType":"int256"}]},{"name":"totalCapacity","type":"uint256","internalType":"uint256"},{"name":"wallet","type":"address","internalType":"address"},{"name":"venueId","type":"bytes32","internalType":"bytes32"}]},{"name":"radius","type":"uint256","internalType":"uint256"},{"name":"sellOutThreshold","type":"uint256","internalType":"uint256"},{"name":"totalCapacity","type":"uint256","internalType":"uint256"},{"name":"status","type":"uint8","internalType":"enum ShowTypes.Status"},{"name":"isActive","type":"bool","internalType":"bool"},{"name":"expiry","type":"uint256","internalType":"uint256"},{"name":"showDate","type":"uint256","internalType":"uint256"},{"name":"currencyAddress","type":"address","internalType":"address"}],"stateMutability":"view"},{"type":"function","name":"ticketFactoryInstance","inputs":[],"outputs":[{"name":"","type":"address","internalType":"contract ITicketFactory"}],"stateMutability":"view"},{"type":"function","name":"ticketPricePaid","inputs":[{"name":"","type":"bytes32","internalType":"bytes32"},{"name":"","type":"uint256","internalType":"uint256"}],"outputs":[{"name":"","type":"uint256","internalType":"uint256"}],"stateMutability":"view"},{"type":"function","name":"totalTicketsSold","inputs":[{"name":"","type":"bytes32","internalType":"bytes32"}],"outputs":[{"name":"","type":"uint256","internalType":"uint256"}],"stateMutability":"view"},{"type":"function","name":"venueContract","inputs":[],"outputs":[{"name":"","type":"address","internalType":"address"}],"stateMutability":"view"},{"type":"function","name":"venueFactoryInstance","inputs":[],"outputs":[{"name":"","type":"address","internalType":"contract IVenueFactory"}],"stateMutability":"view"},{"type":"function","name":"venueRegistryInstance","inputs":[],"outputs":[{"name":"","type":"address","internalType":"contract IVenueRegistry"}],"stateMutability":"view"},{"type":"function","name":"votesForEmergencyRefund","inputs":[{"name":"","type":"bytes32","internalType":"bytes32"}],"outputs":[{"name":"","type":"uint256","internalType":"uint256"}],"stateMutability":"view"},{"type":"function","name":"walletToShowToTokenIds","inputs":[{"name":"","type":"bytes32","internalType":"bytes32"},{"name":"","type":"address","internalType":"address"},{"name":"","type":"uint256","internalType":"uint256"}],"outputs":[{"name":"","type":"uint256","internalType":"uint256"}],"stateMutability":"view"}],"bytecode":{"object":"0x60806040526006805460ff60a01b1916905534801561001d57600080fd5b50610a678061002d6000396000f3fe608060405234801561001057600080fd5b50600436106101735760003560e01c80638dea15a1116100de578063bafd4eb011610097578063e30228be11610071578063e30228be1461045d578063e4ca73aa14610470578063e71aee7e14610483578063fca46559146104ac57600080fd5b8063bafd4eb0146103f1578063c6ab848a1461041f578063c9e21e5e1461043257600080fd5b80638dea15a11461032f5780638e70362b14610342578063925e8f891461036d57806392ea63881461038d5780639673b1e3146103be5780639ee0a14e146103d157600080fd5b806363c18a521161013057806363c18a5214610251578063703ee4e51461028f57806372958028146102a257806375976795146102cb5780637d8d6a22146102fc578063867e68af1461030f57600080fd5b806316488906146101785780631cf2103e146101945780632f18ddfe146101bf5780633deba964146101ea57806351819335146102135780635696c07c14610226575b600080fd5b61018160095481565b6040519081526020015b60405180910390f35b6005546101a7906001600160a01b031681565b6040516001600160a01b03909116815260200161018b565b6101816101cd36600461078b565b601560209081526000928352604080842090915290825290205481565b6101a76101f83660046107ad565b600b602052600090815260409020546001600160a01b031681565b6000546101a7906001600160a01b031681565b6101816102343660046107e2565b601060209081526000928352604080842090915290825290205481565b61027f61025f3660046107e2565b601960209081526000928352604080842090915290825290205460ff1681565b604051901515815260200161018b565b6006546101a7906001600160a01b031681565b6101a76102b03660046107ad565b6017602052600090815260409020546001600160a01b031681565b6101816102d936600461080e565b601360209081526000938452604080852082529284528284209052825290205481565b61018161030a36600461084a565b6104d8565b61018161031d3660046107ad565b600e6020526000908152604090205481565b6004546101a7906001600160a01b031681565b6101816103503660046107e2565b601260209081526000928352604080842090915290825290205481565b61018161037b3660046107ad565b60146020526000908152604090205481565b61018161039b36600461080e565b601160209081526000938452604080852082529284528284209052825290205481565b6001546101a7906001600160a01b031681565b6101816103df3660046107ad565b60186020526000908152604090205481565b61027f6103ff3660046107e2565b600d60209081526000928352604080842090915290825290205460ff1681565b6003546101a7906001600160a01b031681565b6101816104403660046107e2565b600f60209081526000928352604080842090915290825290205481565b6007546101a7906001600160a01b031681565b6002546101a7906001600160a01b031681565b6101a76104913660046107ad565b600c602052600090815260409020546001600160a01b031681565b6104bf6104ba3660046107ad565b610516565b60405161018b9d9c9b9a99989796959493929190610945565b6016602052826000526040600020602052816000526040600020818154811061050057600080fd5b9060005260206000200160009250925050505481565b600a6020526000908152604090208054600182018054919291610538906109f7565b80601f0160208091040260200160405190810160405280929190818152602001828054610564906109f7565b80156105b15780601f10610586576101008083540402835291602001916105b1565b820191906000526020600020905b81548152906001019060200180831161059457829003601f168201915b5050505050908060020180546105c6906109f7565b80601f01602080910402602001604051908101604052809291908181526020018280546105f2906109f7565b801561063f5780601f106106145761010080835404028352916020019161063f565b820191906000526020600020905b81548152906001019060200180831161062257829003601f168201915b5050505050908060030160009054906101000a90046001600160a01b031690806005016040518060a001604052908160008201805461067d906109f7565b80601f01602080910402602001604051908101604052809291908181526020018280546106a9906109f7565b80156106f65780601f106106cb576101008083540402835291602001916106f6565b820191906000526020600020905b8154815290600101906020018083116106d957829003601f168201915b505050918352505060408051808201825260018401548152600284015460208281019190915283015260038301549082015260048201546001600160a01b039081166060830152600590920154608090910152600b830154600d840154600e850154600f86015460118701546012880154601390980154969794969395929460ff80841695610100909404169391929091168d565b6000806040838503121561079e57600080fd5b50508035926020909101359150565b6000602082840312156107bf57600080fd5b5035919050565b80356001600160a01b03811681146107dd57600080fd5b919050565b600080604083850312156107f557600080fd5b82359150610805602084016107c6565b90509250929050565b60008060006060848603121561082357600080fd5b83359250610833602085016107c6565b9150610841604085016107c6565b90509250925092565b60008060006060848603121561085f57600080fd5b8335925061086f602085016107c6565b9150604084013590509250925092565b6000815180845260005b818110156108a557602081850181015186830182015201610889565b506000602082860101526020601f19601f83011685010191505092915050565b6000815160c084526108da60c085018261087f565b905060208301518051602086015260208101516040860152506040830151606085015260018060a01b036060840151166080850152608083015160a08501528091505092915050565b6008811061094157634e487b7160e01b600052602160045260246000fd5b9052565b8d81526101a0602082015260006109606101a083018f61087f565b8281036040840152610972818f61087f565b6001600160a01b038e16606085015283810360808501529050610995818d6108c5565b9150508960a08301528860c08301528760e08301526109b8610100830188610923565b85151561012083015284610140830152836101608301526109e56101808301846001600160a01b03169052565b9e9d5050505050505050505050505050565b600181811c90821680610a0b57607f821691505b602082108103610a2b57634e487b7160e01b600052602260045260246000fd5b5091905056fea264697066735822122028cc00e7fe085295f3d6f98398051286d0738773dbff9b10a43b7ac46b19360d64736f6c63430008140033","linkReferences":{}},"methodIdentifiers":{"SELLOUT_PROTOCOL_WALLET()":"e30228be","activeShowCount()":"16488906","artistRegistryInstance()":"8dea15a1","hasVotedForEmergencyRefund(bytes32,address)":"63c18a52","isArtistMapping(bytes32,address)":"bafd4eb0","organizerRegistryInstance()":"1cf2103e","pendingPayouts(bytes32,address)":"8e70362b","pendingRefunds(bytes32,address)":"5696c07c","pendingTokenPayouts(bytes32,address,address)":"75976795","pendingTokenRefunds(bytes32,address,address)":"92ea6388","referralInstance()":"c6ab848a","showPaymentToken(bytes32)":"72958028","showToTicketProxy(bytes32)":"3deba964","showToVenueProxy(bytes32)":"e71aee7e","showTokenVault(bytes32,address)":"c9e21e5e","showVault(bytes32)":"867e68af","shows(bytes32)":"fca46559","ticketFactoryInstance()":"e4ca73aa","ticketPricePaid(bytes32,uint256)":"2f18ddfe","totalTicketsSold(bytes32)":"925e8f89","venueContract()":"51819335","venueFactoryInstance()":"9673b1e3","venueRegistryInstance()":"703ee4e5","votesForEmergencyRefund(bytes32)":"9ee0a14e","walletToShowToTokenIds(bytes32,address,uint256)":"7d8d6a22"},"id":73}