{"abi":[{"type":"function","name":"boxOfficeContract","inputs":[],"outputs":[{"name":"","type":"address","internalType":"address"}],"stateMutability":"view"},{"type":"function","name":"pendingPayouts","inputs":[{"name":"","type":"bytes32","internalType":"bytes32"},{"name":"","type":"address","internalType":"address"}],"outputs":[{"name":"","type":"uint256","internalType":"uint256"}],"stateMutability":"view"},{"type":"function","name":"pendingRefunds","inputs":[{"name":"","type":"bytes32","internalType":"bytes32"},{"name":"","type":"address","internalType":"address"}],"outputs":[{"name":"","type":"uint256","internalType":"uint256"}],"stateMutability":"view"},{"type":"function","name":"pendingTokenPayouts","inputs":[{"name":"","type":"bytes32","internalType":"bytes32"},{"name":"","type":"address","internalType":"address"},{"name":"","type":"address","internalType":"address"}],"outputs":[{"name":"","type":"uint256","internalType":"uint256"}],"stateMutability":"view"},{"type":"function","name":"pendingTokenRefunds","inputs":[{"name":"","type":"bytes32","internalType":"bytes32"},{"name":"","type":"address","internalType":"address"},{"name":"","type":"address","internalType":"address"}],"outputs":[{"name":"","type":"uint256","internalType":"uint256"}],"stateMutability":"view"},{"type":"function","name":"showContract","inputs":[],"outputs":[{"name":"","type":"address","internalType":"address"}],"stateMutability":"view"},{"type":"function","name":"showInstance","inputs":[],"outputs":[{"name":"","type":"address","internalType":"contract IShow"}],"stateMutability":"view"},{"type":"function","name":"showPaymentTokens","inputs":[{"name":"","type":"bytes32","internalType":"bytes32"}],"outputs":[{"name":"","type":"address","internalType":"address"}],"stateMutability":"view"},{"type":"function","name":"showTokenVault","inputs":[{"name":"","type":"bytes32","internalType":"bytes32"},{"name":"","type":"address","internalType":"address"}],"outputs":[{"name":"","type":"uint256","internalType":"uint256"}],"stateMutability":"view"},{"type":"function","name":"showVault","inputs":[{"name":"","type":"bytes32","internalType":"bytes32"}],"outputs":[{"name":"","type":"uint256","internalType":"uint256"}],"stateMutability":"view"}],"bytecode":{"object":"0x608060405234801561001057600080fd5b50610306806100206000396000f3fe608060405234801561001057600080fd5b506004361061009e5760003560e01c8063867e68af11610066578063867e68af146101795780638e70362b1461019957806392ea6388146101c4578063b25e93ff146101f5578063c9e21e5e1461020857600080fd5b8063404f49d1146100a35780635696c07c146100d35780635765fec31461010c5780636c92b022146101355780637597679514610148575b600080fd5b6002546100b6906001600160a01b031681565b6040516001600160a01b0390911681526020015b60405180910390f35b6100fe6100e136600461024f565b600560209081526000928352604080842090915290825290205481565b6040519081526020016100ca565b6100b661011a36600461027b565b6009602052600090815260409020546001600160a01b031681565b6001546100b6906001600160a01b031681565b6100fe610156366004610294565b600860209081526000938452604080852082529284528284209052825290205481565b6100fe61018736600461027b565b60036020526000908152604090205481565b6100fe6101a736600461024f565b600760209081526000928352604080842090915290825290205481565b6100fe6101d2366004610294565b600660209081526000938452604080852082529284528284209052825290205481565b6000546100b6906001600160a01b031681565b6100fe61021636600461024f565b600460209081526000928352604080842090915290825290205481565b80356001600160a01b038116811461024a57600080fd5b919050565b6000806040838503121561026257600080fd5b8235915061027260208401610233565b90509250929050565b60006020828403121561028d57600080fd5b5035919050565b6000806000606084860312156102a957600080fd5b833592506102b960208501610233565b91506102c760408501610233565b9050925092509256fea264697066735822122076dba082021a1194c576af2ea9a3b9db85c089dd3e59c7a0c1c58b2ff54d7cf364736f6c63430008140033","linkReferences":{}},"methodIdentifiers":{"boxOfficeContract()":"6c92b022","pendingPayouts(bytes32,address)":"8e70362b","pendingRefunds(bytes32,address)":"5696c07c","pendingTokenPayouts(bytes32,address,address)":"75976795","pendingTokenRefunds(bytes32,address,address)":"92ea6388","showContract()":"b25e93ff","showInstance()":"404f49d1","showPaymentTokens(bytes32)":"5765fec3","showTokenVault(bytes32,address)":"c9e21e5e","showVault(bytes32)":"867e68af"},"id":92}