{"abi":[{"type":"function","name":"SELLOUT_PROTOCOL_WALLET","inputs":[],"outputs":[{"name":"","type":"address","internalType":"address"}],"stateMutability":"view"},{"type":"function","name":"UPGRADE_INTERFACE_VERSION","inputs":[],"outputs":[{"name":"","type":"string","internalType":"string"}],"stateMutability":"view"},{"type":"function","name":"activeShowCount","inputs":[],"outputs":[{"name":"","type":"uint256","internalType":"uint256"}],"stateMutability":"view"},{"type":"function","name":"addTokenIdToWallet","inputs":[{"name":"showId","type":"bytes32","internalType":"bytes32"},{"name":"wallet","type":"address","internalType":"address"},{"name":"tokenId","type":"uint256","internalType":"uint256"}],"outputs":[],"stateMutability":"nonpayable"},{"type":"function","name":"artistRegistryContract","inputs":[],"outputs":[{"name":"","type":"address","internalType":"address"}],"stateMutability":"view"},{"type":"function","name":"artistRegistryInstance","inputs":[],"outputs":[{"name":"","type":"address","internalType":"contract IArtistRegistry"}],"stateMutability":"view"},{"type":"function","name":"cancelShow","inputs":[{"name":"showId","type":"bytes32","internalType":"bytes32"}],"outputs":[],"stateMutability":"nonpayable"},{"type":"function","name":"completeShow","inputs":[{"name":"showId","type":"bytes32","internalType":"bytes32"}],"outputs":[],"stateMutability":"nonpayable"},{"type":"function","name":"consumeTicketTier","inputs":[{"name":"showId","type":"bytes32","internalType":"bytes32"},{"name":"tierIndex","type":"uint256","internalType":"uint256"},{"name":"amount","type":"uint256","internalType":"uint256"}],"outputs":[],"stateMutability":"nonpayable"},{"type":"function","name":"depositToVault","inputs":[{"name":"showId","type":"bytes32","internalType":"bytes32"}],"outputs":[],"stateMutability":"payable"},{"type":"function","name":"depositToVaultERC20","inputs":[{"name":"showId","type":"bytes32","internalType":"bytes32"},{"name":"amount","type":"uint256","internalType":"uint256"},{"name":"paymentToken","type":"address","internalType":"address"},{"name":"tokenRecipient","type":"address","internalType":"address"}],"outputs":[],"stateMutability":"nonpayable"},{"type":"function","name":"getNumberOfVoters","inputs":[{"name":"showId","type":"bytes32","internalType":"bytes32"}],"outputs":[{"name":"","type":"uint256","internalType":"uint256"}],"stateMutability":"view"},{"type":"function","name":"getOrganizer","inputs":[{"name":"showId","type":"bytes32","internalType":"bytes32"}],"outputs":[{"name":"","type":"address","internalType":"address"}],"stateMutability":"view"},{"type":"function","name":"getPendingPayout","inputs":[{"name":"showId","type":"bytes32","internalType":"bytes32"},{"name":"user","type":"address","internalType":"address"}],"outputs":[{"name":"amountOwed","type":"uint256","internalType":"uint256"}],"stateMutability":"view"},{"type":"function","name":"getPendingRefund","inputs":[{"name":"showId","type":"bytes32","internalType":"bytes32"},{"name":"user","type":"address","internalType":"address"}],"outputs":[{"name":"amountOwed","type":"uint256","internalType":"uint256"}],"stateMutability":"view"},{"type":"function","name":"getSellOutThreshold","inputs":[{"name":"showId","type":"bytes32","internalType":"bytes32"}],"outputs":[{"name":"","type":"uint256","internalType":"uint256"}],"stateMutability":"view"},{"type":"function","name":"getShowById","inputs":[{"name":"showId","type":"bytes32","internalType":"bytes32"}],"outputs":[{"name":"name","type":"string","internalType":"string"},{"name":"description","type":"string","internalType":"string"},{"name":"organizer","type":"address","internalType":"address"},{"name":"artists","type":"address[]","internalType":"address[]"},{"name":"venue","type":"tuple","internalType":"struct VenueTypes.Venue","components":[{"name":"name","type":"string","internalType":"string"},{"name":"coordinates","type":"tuple","internalType":"struct VenueTypes.Coordinates","components":[{"name":"lat","type":"int256","internalType":"int256"},{"name":"lon","type":"int256","internalType":"int256"}]},{"name":"totalCapacity","type":"uint256","internalType":"uint256"},{"name":"wallet","type":"address","internalType":"address"},{"name":"venueId","type":"bytes32","internalType":"bytes32"}]},{"name":"ticketTiers","type":"tuple[]","internalType":"struct ShowTypes.TicketTier[]","components":[{"name":"name","type":"string","internalType":"string"},{"name":"price","type":"uint256","internalType":"uint256"},{"name":"ticketsAvailable","type":"uint256","internalType":"uint256"}]},{"name":"sellOutThreshold","type":"uint256","internalType":"uint256"},{"name":"totalCapacity","type":"uint256","internalType":"uint256"},{"name":"status","type":"uint8","internalType":"enum ShowTypes.Status"},{"name":"isActive","type":"bool","internalType":"bool"},{"name":"currencyAddress","type":"address","internalType":"address"}],"stateMutability":"view"},{"type":"function","name":"getShowPaymentToken","inputs":[{"name":"showId","type":"bytes32","internalType":"bytes32"}],"outputs":[{"name":"","type":"address","internalType":"address"}],"stateMutability":"view"},{"type":"function","name":"getShowStatus","inputs":[{"name":"showId","type":"bytes32","internalType":"bytes32"}],"outputs":[{"name":"","type":"uint8","internalType":"enum ShowTypes.Status"}],"stateMutability":"view"},{"type":"function","name":"getTicketPricePaid","inputs":[{"name":"showId","type":"bytes32","internalType":"bytes32"},{"name":"ticketId","type":"uint256","internalType":"uint256"}],"outputs":[{"name":"","type":"uint256","internalType":"uint256"}],"stateMutability":"view"},{"type":"function","name":"getTicketTierInfo","inputs":[{"name":"showId","type":"bytes32","internalType":"bytes32"},{"name":"tierIndex","type":"uint256","internalType":"uint256"}],"outputs":[{"name":"name","type":"string","internalType":"string"},{"name":"price","type":"uint256","internalType":"uint256"},{"name":"ticketsAvailable","type":"uint256","internalType":"uint256"}],"stateMutability":"view"},{"type":"function","name":"getTotalCapacity","inputs":[{"name":"showId","type":"bytes32","internalType":"bytes32"}],"outputs":[{"name":"","type":"uint256","internalType":"uint256"}],"stateMutability":"view"},{"type":"function","name":"getTotalTicketsSold","inputs":[{"name":"showId","type":"bytes32","internalType":"bytes32"}],"outputs":[{"name":"","type":"uint256","internalType":"uint256"}],"stateMutability":"view"},{"type":"function","name":"getWalletTokenIds","inputs":[{"name":"showId","type":"bytes32","internalType":"bytes32"},{"name":"wallet","type":"address","internalType":"address"}],"outputs":[{"name":"","type":"uint256[]","internalType":"uint256[]"}],"stateMutability":"view"},{"type":"function","name":"hasTicket","inputs":[{"name":"wallet","type":"address","internalType":"address"},{"name":"showId","type":"bytes32","internalType":"bytes32"}],"outputs":[{"name":"ownsTicket","type":"bool","internalType":"bool"}],"stateMutability":"view"},{"type":"function","name":"initialize","inputs":[{"name":"_selloutProtocolWallet","type":"address","internalType":"address"}],"outputs":[],"stateMutability":"nonpayable"},{"type":"function","name":"isArtist","inputs":[{"name":"user","type":"address","internalType":"address"},{"name":"showId","type":"bytes32","internalType":"bytes32"}],"outputs":[{"name":"","type":"bool","internalType":"bool"}],"stateMutability":"view"},{"type":"function","name":"isArtistMapping","inputs":[{"name":"","type":"bytes32","internalType":"bytes32"},{"name":"","type":"address","internalType":"address"}],"outputs":[{"name":"","type":"bool","internalType":"bool"}],"stateMutability":"view"},{"type":"function","name":"isOrganizer","inputs":[{"name":"user","type":"address","internalType":"address"},{"name":"showId","type":"bytes32","internalType":"bytes32"}],"outputs":[{"name":"","type":"bool","internalType":"bool"}],"stateMutability":"view"},{"type":"function","name":"isTicketOwner","inputs":[{"name":"owner","type":"address","internalType":"address"},{"name":"showId","type":"bytes32","internalType":"bytes32"},{"name":"ticketId","type":"uint256","internalType":"uint256"}],"outputs":[{"name":"","type":"bool","internalType":"bool"}],"stateMutability":"view"},{"type":"function","name":"organizerRegistryContract","inputs":[],"outputs":[{"name":"","type":"address","internalType":"address"}],"stateMutability":"view"},{"type":"function","name":"organizerRegistryInstance","inputs":[],"outputs":[{"name":"","type":"address","internalType":"contract IOrganizerRegistry"}],"stateMutability":"view"},{"type":"function","name":"owner","inputs":[],"outputs":[{"name":"","type":"address","internalType":"address"}],"stateMutability":"view"},{"type":"function","name":"payout","inputs":[{"name":"showId","type":"bytes32","internalType":"bytes32"}],"outputs":[],"stateMutability":"nonpayable"},{"type":"function","name":"pendingPayouts","inputs":[{"name":"","type":"bytes32","internalType":"bytes32"},{"name":"","type":"address","internalType":"address"}],"outputs":[{"name":"","type":"uint256","internalType":"uint256"}],"stateMutability":"view"},{"type":"function","name":"pendingRefunds","inputs":[{"name":"","type":"bytes32","internalType":"bytes32"},{"name":"","type":"address","internalType":"address"}],"outputs":[{"name":"","type":"uint256","internalType":"uint256"}],"stateMutability":"view"},{"type":"function","name":"pendingTokenPayouts","inputs":[{"name":"","type":"bytes32","internalType":"bytes32"},{"name":"","type":"address","internalType":"address"},{"name":"","type":"address","internalType":"address"}],"outputs":[{"name":"","type":"uint256","internalType":"uint256"}],"stateMutability":"view"},{"type":"function","name":"pendingTokenRefunds","inputs":[{"name":"","type":"bytes32","internalType":"bytes32"},{"name":"","type":"address","internalType":"address"},{"name":"","type":"address","internalType":"address"}],"outputs":[{"name":"","type":"uint256","internalType":"uint256"}],"stateMutability":"view"},{"type":"function","name":"proposeShow","inputs":[{"name":"proposal","type":"tuple","internalType":"struct ShowTypes.ShowProposal","components":[{"name":"name","type":"string","internalType":"string"},{"name":"description","type":"string","internalType":"string"},{"name":"artists","type":"address[]","internalType":"address[]"},{"name":"coordinates","type":"tuple","internalType":"struct VenueTypes.Coordinates","components":[{"name":"lat","type":"int256","internalType":"int256"},{"name":"lon","type":"int256","internalType":"int256"}]},{"name":"radius","type":"uint256","internalType":"uint256"},{"name":"sellOutThreshold","type":"uint8","internalType":"uint8"},{"name":"totalCapacity","type":"uint256","internalType":"uint256"},{"name":"ticketTiers","type":"tuple[]","internalType":"struct ShowTypes.TicketTier[]","components":[{"name":"name","type":"string","internalType":"string"},{"name":"price","type":"uint256","internalType":"uint256"},{"name":"ticketsAvailable","type":"uint256","internalType":"uint256"}]},{"name":"split","type":"uint256[]","internalType":"uint256[]"},{"name":"currencyAddress","type":"address","internalType":"address"}]}],"outputs":[{"name":"showId","type":"bytes32","internalType":"bytes32"}],"stateMutability":"nonpayable"},{"type":"function","name":"proxiableUUID","inputs":[],"outputs":[{"name":"","type":"bytes32","internalType":"bytes32"}],"stateMutability":"view"},{"type":"function","name":"referralContract","inputs":[],"outputs":[{"name":"","type":"address","internalType":"address"}],"stateMutability":"view"},{"type":"function","name":"referralInstance","inputs":[],"outputs":[{"name":"","type":"address","internalType":"contract ReferralModule"}],"stateMutability":"view"},{"type":"function","name":"refundTicket","inputs":[{"name":"showId","type":"bytes32","internalType":"bytes32"},{"name":"ticketId","type":"uint256","internalType":"uint256"}],"outputs":[],"stateMutability":"nonpayable"},{"type":"function","name":"renounceOwnership","inputs":[],"outputs":[],"stateMutability":"nonpayable"},{"type":"function","name":"setProtocolAddresses","inputs":[{"name":"_ticketContract","type":"address","internalType":"address"},{"name":"_venueContract","type":"address","internalType":"address"},{"name":"_referralContract","type":"address","internalType":"address"},{"name":"_artistRegistryContract","type":"address","internalType":"address"},{"name":"_organizerRegistryContract","type":"address","internalType":"address"},{"name":"_venueRegistryContract","type":"address","internalType":"address"}],"outputs":[],"stateMutability":"nonpayable"},{"type":"function","name":"setTicketOwnership","inputs":[{"name":"showId","type":"bytes32","internalType":"bytes32"},{"name":"owner","type":"address","internalType":"address"},{"name":"ticketId","type":"uint256","internalType":"uint256"},{"name":"isOwned","type":"bool","internalType":"bool"}],"outputs":[],"stateMutability":"nonpayable"},{"type":"function","name":"setTicketPricePaid","inputs":[{"name":"showId","type":"bytes32","internalType":"bytes32"},{"name":"ticketId","type":"uint256","internalType":"uint256"},{"name":"price","type":"uint256","internalType":"uint256"}],"outputs":[],"stateMutability":"nonpayable"},{"type":"function","name":"setTotalTicketsSold","inputs":[{"name":"showId","type":"bytes32","internalType":"bytes32"},{"name":"amount","type":"uint256","internalType":"uint256"}],"outputs":[],"stateMutability":"nonpayable"},{"type":"function","name":"showPaymentToken","inputs":[{"name":"","type":"bytes32","internalType":"bytes32"}],"outputs":[{"name":"","type":"address","internalType":"address"}],"stateMutability":"view"},{"type":"function","name":"showTokenVault","inputs":[{"name":"","type":"bytes32","internalType":"bytes32"},{"name":"","type":"address","internalType":"address"}],"outputs":[{"name":"","type":"uint256","internalType":"uint256"}],"stateMutability":"view"},{"type":"function","name":"showVault","inputs":[{"name":"","type":"bytes32","internalType":"bytes32"}],"outputs":[{"name":"","type":"uint256","internalType":"uint256"}],"stateMutability":"view"},{"type":"function","name":"shows","inputs":[{"name":"","type":"bytes32","internalType":"bytes32"}],"outputs":[{"name":"showId","type":"bytes32","internalType":"bytes32"},{"name":"name","type":"string","internalType":"string"},{"name":"description","type":"string","internalType":"string"},{"name":"organizer","type":"address","internalType":"address"},{"name":"venue","type":"tuple","internalType":"struct VenueTypes.Venue","components":[{"name":"name","type":"string","internalType":"string"},{"name":"coordinates","type":"tuple","internalType":"struct VenueTypes.Coordinates","components":[{"name":"lat","type":"int256","internalType":"int256"},{"name":"lon","type":"int256","internalType":"int256"}]},{"name":"totalCapacity","type":"uint256","internalType":"uint256"},{"name":"wallet","type":"address","internalType":"address"},{"name":"venueId","type":"bytes32","internalType":"bytes32"}]},{"name":"radius","type":"uint256","internalType":"uint256"},{"name":"sellOutThreshold","type":"uint256","internalType":"uint256"},{"name":"totalCapacity","type":"uint256","internalType":"uint256"},{"name":"status","type":"uint8","internalType":"enum ShowTypes.Status"},{"name":"isActive","type":"bool","internalType":"bool"},{"name":"expiry","type":"uint256","internalType":"uint256"},{"name":"showDate","type":"uint256","internalType":"uint256"},{"name":"currencyAddress","type":"address","internalType":"address"}],"stateMutability":"view"},{"type":"function","name":"ticketContract","inputs":[],"outputs":[{"name":"","type":"address","internalType":"address"}],"stateMutability":"view"},{"type":"function","name":"ticketInstance","inputs":[],"outputs":[{"name":"","type":"address","internalType":"contract Ticket"}],"stateMutability":"view"},{"type":"function","name":"ticketPricePaid","inputs":[{"name":"","type":"bytes32","internalType":"bytes32"},{"name":"","type":"uint256","internalType":"uint256"}],"outputs":[{"name":"","type":"uint256","internalType":"uint256"}],"stateMutability":"view"},{"type":"function","name":"totalTicketsSold","inputs":[{"name":"","type":"bytes32","internalType":"bytes32"}],"outputs":[{"name":"","type":"uint256","internalType":"uint256"}],"stateMutability":"view"},{"type":"function","name":"transferOwnership","inputs":[{"name":"newOwner","type":"address","internalType":"address"}],"outputs":[],"stateMutability":"nonpayable"},{"type":"function","name":"updateShowVenue","inputs":[{"name":"showId","type":"bytes32","internalType":"bytes32"},{"name":"newVenue","type":"tuple","internalType":"struct VenueTypes.Venue","components":[{"name":"name","type":"string","internalType":"string"},{"name":"coordinates","type":"tuple","internalType":"struct VenueTypes.Coordinates","components":[{"name":"lat","type":"int256","internalType":"int256"},{"name":"lon","type":"int256","internalType":"int256"}]},{"name":"totalCapacity","type":"uint256","internalType":"uint256"},{"name":"wallet","type":"address","internalType":"address"},{"name":"venueId","type":"bytes32","internalType":"bytes32"}]}],"outputs":[],"stateMutability":"nonpayable"},{"type":"function","name":"updateStatus","inputs":[{"name":"showId","type":"bytes32","internalType":"bytes32"},{"name":"_status","type":"uint8","internalType":"enum ShowTypes.Status"}],"outputs":[],"stateMutability":"nonpayable"},{"type":"function","name":"updateStatusIfSoldOut","inputs":[{"name":"showId","type":"bytes32","internalType":"bytes32"}],"outputs":[],"stateMutability":"nonpayable"},{"type":"function","name":"upgradeToAndCall","inputs":[{"name":"newImplementation","type":"address","internalType":"address"},{"name":"data","type":"bytes","internalType":"bytes"}],"outputs":[],"stateMutability":"payable"},{"type":"function","name":"venueContract","inputs":[],"outputs":[{"name":"","type":"address","internalType":"address"}],"stateMutability":"view"},{"type":"function","name":"venueRegistryContract","inputs":[],"outputs":[{"name":"","type":"address","internalType":"address"}],"stateMutability":"view"},{"type":"function","name":"venueRegistryInstance","inputs":[],"outputs":[{"name":"","type":"address","internalType":"contract IVenueRegistry"}],"stateMutability":"view"},{"type":"function","name":"walletToShowToTokenIds","inputs":[{"name":"","type":"bytes32","internalType":"bytes32"},{"name":"","type":"address","internalType":"address"},{"name":"","type":"uint256","internalType":"uint256"}],"outputs":[{"name":"","type":"uint256","internalType":"uint256"}],"stateMutability":"view"},{"type":"function","name":"withdrawRefund","inputs":[{"name":"showId","type":"bytes32","internalType":"bytes32"}],"outputs":[],"stateMutability":"nonpayable"},{"type":"event","name":"ERC20Deposited","inputs":[{"name":"showId","type":"bytes32","indexed":true,"internalType":"bytes32"},{"name":"tokenAddress","type":"address","indexed":true,"internalType":"address"},{"name":"depositor","type":"address","indexed":true,"internalType":"address"},{"name":"amount","type":"uint256","indexed":false,"internalType":"uint256"}],"anonymous":false},{"type":"event","name":"ExpiryUpdated","inputs":[{"name":"showId","type":"bytes32","indexed":true,"internalType":"bytes32"},{"name":"expiry","type":"uint256","indexed":false,"internalType":"uint256"}],"anonymous":false},{"type":"event","name":"Initialized","inputs":[{"name":"version","type":"uint64","indexed":false,"internalType":"uint64"}],"anonymous":false},{"type":"event","name":"OwnershipTransferred","inputs":[{"name":"previousOwner","type":"address","indexed":true,"internalType":"address"},{"name":"newOwner","type":"address","indexed":true,"internalType":"address"}],"anonymous":false},{"type":"event","name":"RefundWithdrawn","inputs":[{"name":"user","type":"address","indexed":true,"internalType":"address"},{"name":"showId","type":"bytes32","indexed":true,"internalType":"bytes32"},{"name":"amount","type":"uint256","indexed":false,"internalType":"uint256"}],"anonymous":false},{"type":"event","name":"ShowExpired","inputs":[{"name":"showId","type":"bytes32","indexed":true,"internalType":"bytes32"}],"anonymous":false},{"type":"event","name":"ShowProposed","inputs":[{"name":"showId","type":"bytes32","indexed":true,"internalType":"bytes32"},{"name":"organizer","type":"address","indexed":true,"internalType":"address"},{"name":"name","type":"string","indexed":false,"internalType":"string"},{"name":"artists","type":"address[]","indexed":false,"internalType":"address[]"},{"name":"description","type":"string","indexed":false,"internalType":"string"},{"name":"sellOutThreshold","type":"uint256","indexed":false,"internalType":"uint256"},{"name":"split","type":"uint256[]","indexed":false,"internalType":"uint256[]"},{"name":"totalCapacity","type":"uint256","indexed":false,"internalType":"uint256"}],"anonymous":false},{"type":"event","name":"StatusUpdated","inputs":[{"name":"showId","type":"bytes32","indexed":true,"internalType":"bytes32"},{"name":"status","type":"uint8","indexed":false,"internalType":"enum ShowTypes.Status"}],"anonymous":false},{"type":"event","name":"TicketRefunded","inputs":[{"name":"user","type":"address","indexed":true,"internalType":"address"},{"name":"showId","type":"bytes32","indexed":true,"internalType":"bytes32"},{"name":"refundAmount","type":"uint256","indexed":false,"internalType":"uint256"}],"anonymous":false},{"type":"event","name":"TicketTierConsumed","inputs":[{"name":"showId","type":"bytes32","indexed":true,"internalType":"bytes32"},{"name":"tierIndex","type":"uint256","indexed":true,"internalType":"uint256"},{"name":"amount","type":"uint256","indexed":false,"internalType":"uint256"}],"anonymous":false},{"type":"event","name":"Upgraded","inputs":[{"name":"implementation","type":"address","indexed":true,"internalType":"address"}],"anonymous":false},{"type":"event","name":"VenueUpdated","inputs":[{"name":"showId","type":"bytes32","indexed":true,"internalType":"bytes32"},{"name":"newVenue","type":"tuple","indexed":false,"internalType":"struct VenueTypes.Venue","components":[{"name":"name","type":"string","internalType":"string"},{"name":"coordinates","type":"tuple","internalType":"struct VenueTypes.Coordinates","components":[{"name":"lat","type":"int256","internalType":"int256"},{"name":"lon","type":"int256","internalType":"int256"}]},{"name":"totalCapacity","type":"uint256","internalType":"uint256"},{"name":"wallet","type":"address","internalType":"address"},{"name":"venueId","type":"bytes32","internalType":"bytes32"}]}],"anonymous":false},{"type":"event","name":"Withdrawal","inputs":[{"name":"showId","type":"bytes32","indexed":true,"internalType":"bytes32"},{"name":"recipient","type":"address","indexed":true,"internalType":"address"},{"name":"amount","type":"uint256","indexed":false,"internalType":"uint256"},{"name":"paymentToken","type":"address","indexed":false,"internalType":"address"}],"anonymous":false},{"type":"error","name":"AddressEmptyCode","inputs":[{"name":"target","type":"address","internalType":"address"}]},{"type":"error","name":"ERC1967InvalidImplementation","inputs":[{"name":"implementation","type":"address","internalType":"address"}]},{"type":"error","name":"ERC1967NonPayable","inputs":[]},{"type":"error","name":"FailedInnerCall","inputs":[]},{"type":"error","name":"InvalidInitialization","inputs":[]},{"type":"error","name":"NotInitializing","inputs":[]},{"type":"error","name":"OwnableInvalidOwner","inputs":[{"name":"owner","type":"address","internalType":"address"}]},{"type":"error","name":"OwnableUnauthorizedAccount","inputs":[{"name":"account","type":"address","internalType":"address"}]},{"type":"error","name":"ReentrancyGuardReentrantCall","inputs":[]},{"type":"error","name":"UUPSUnauthorizedCallContext","inputs":[]},{"type":"error","name":"UUPSUnsupportedProxiableUUID","inputs":[{"name":"slot","type":"bytes32","internalType":"bytes32"}]}],"bytecode":{"object":"0x60a0604052600a805460ff60a01b191690553060805234801561002157600080fd5b50608051615f3a6200004c6000396000818161445f0152818161448801526145c90152615f3a6000f3fe6080604052600436106103d95760003560e01c8063787d76b8116101fd578063bafd4eb011610118578063d23b85a3116100ab578063e9acfa7c1161007a578063e9acfa7c14610dee578063ef5023a514610e0e578063f2fde38b14610e2e578063f812187314610e4e578063fca4655914610e6e57600080fd5b8063d23b85a314610d58578063de44006f14610d8e578063e30228be14610dae578063e618054614610dce57600080fd5b8063c6ab848a116100e7578063c6ab848a14610cc0578063c8f67e9614610ce0578063c9e21e5e14610d00578063cfefb3d514610d3857600080fd5b8063bafd4eb014610c25578063bd47dc5c14610c60578063c29e2de414610c80578063c4d66de814610ca057600080fd5b80638dea15a11161019057806393d4e1001161015f57806393d4e10014610b2a578063977cb89e14610b62578063a03f4efe14610b9b578063ad3cb1cc14610be757600080fd5b80638dea15a114610a675780638e70362b14610a87578063925e8f8914610abf57806392ea638814610aec57600080fd5b806385266635116101cc57806385266635146109ca57806385ffa16c146109dd578063867e68af146109fd5780638da5cb5b14610a2a57600080fd5b8063787d76b81461093b5780637d8d6a221461095b5780637dad19db1461097b5780637e3e39351461099b57600080fd5b80634f1ef286116102f8578063610418701161028b5780636e9cacd01161025a5780636e9cacd01461084f578063703ee4e514610892578063715018a6146108b257806372958028146108c757806375976795146108fd57600080fd5b806361041870146107b1578063620ec1e4146107de578063644b5e591461080f57806366bc64cd1461082f57600080fd5b80635696c07c116102c75780635696c07c146106e857806358a86e1d146107205780635b9a1e09146107405780635c37da691461076d57600080fd5b80634f1ef28614610680578063518193351461069357806352d1902d146106b35780635412233f146106c857600080fd5b80632f18ddfe1161037057806341adf3ad1161033f57806341adf3ad146105d057806342894bcb146105f057806346c2c8a7146106335780634ed372da1461066057600080fd5b80632f18ddfe1461053857806331a68da0146105705780633b9ce466146105905780633c60d2d6146105b057600080fd5b806316488906116103ac578063164889061461048d5780631a348e62146104b15780631cf2103e146104e157806327b1bf521461050157600080fd5b80630233ce6a146103de57806302c9a8b51461041b578063054372ed1461044b578063129e086b1461046d575b600080fd5b3480156103ea57600080fd5b506006546103fe906001600160a01b031681565b6040516001600160a01b0390911681526020015b60405180910390f35b34801561042757600080fd5b5061043b610436366004614cdc565b610ea7565b6040519015158152602001610412565b34801561045757600080fd5b5061046b610466366004614d08565b610ed4565b005b34801561047957600080fd5b5061046b610488366004614d3c565b610f95565b34801561049957600080fd5b506104a3600d5481565b604051908152602001610412565b3480156104bd57600080fd5b506104a36104cc366004614d3c565b6000908152600e60205260409020600d015490565b3480156104ed57600080fd5b506009546103fe906001600160a01b031681565b34801561050d57600080fd5b5061052161051c366004614d3c565b611244565b6040516104129b9a99989796959493929190614e7f565b34801561054457600080fd5b506104a3610553366004614f9b565b601760209081526000928352604080842090915290825290205481565b34801561057c57600080fd5b506005546103fe906001600160a01b031681565b34801561059c57600080fd5b506104a36105ab3660046152e0565b61170a565b3480156105bc57600080fd5b5061046b6105cb366004614f9b565b61171e565b3480156105dc57600080fd5b506003546103fe906001600160a01b031681565b3480156105fc57600080fd5b506104a361060b366004615429565b60009182526014602090815260408084206001600160a01b0393909316845291905290205490565b34801561063f57600080fd5b5061065361064e366004614d3c565b6119f8565b604051610412919061544e565b34801561066c57600080fd5b5061043b61067b366004614cdc565b611ed5565b61046b61068e36600461545c565b611ef8565b34801561069f57600080fd5b506001546103fe906001600160a01b031681565b3480156106bf57600080fd5b506104a3611f17565b3480156106d457600080fd5b5061046b6106e33660046154bf565b611f34565b3480156106f457600080fd5b506104a3610703366004615429565b601260209081526000928352604080842090915290825290205481565b34801561072c57600080fd5b506000546103fe906001600160a01b031681565b34801561074c57600080fd5b5061076061075b366004615429565b612226565b6040516104129190615539565b34801561077957600080fd5b5061043b610788366004614cdc565b60009081526019602090815260408083206001600160a01b039490941683529290522054151590565b3480156107bd57600080fd5b506104a36107cc366004614d3c565b60009081526016602052604090205490565b3480156107ea57600080fd5b506104a36107f9366004614d3c565b6000908152600e60208190526040909120015490565b34801561081b57600080fd5b5061046b61082a36600461554c565b61229a565b34801561083b57600080fd5b506004546103fe906001600160a01b031681565b34801561085b57600080fd5b506104a361086a366004615429565b60009182526012602090815260408084206001600160a01b0393909316845291905290205490565b34801561089e57600080fd5b50600a546103fe906001600160a01b031681565b3480156108be57600080fd5b5061046b61241e565b3480156108d357600080fd5b506103fe6108e2366004614d3c565b601a602052600090815260409020546001600160a01b031681565b34801561090957600080fd5b506104a3610918366004615578565b601560209081526000938452604080852082529284528284209052825290205481565b34801561094757600080fd5b5061046b610956366004614f9b565b612432565b34801561096757600080fd5b506104a36109763660046155ba565b61248c565b34801561098757600080fd5b506002546103fe906001600160a01b031681565b3480156109a757600080fd5b506109bb6109b6366004614f9b565b6124ca565b604051610412939291906155f2565b61046b6109d8366004614d3c565b61260b565b3480156109e957600080fd5b506104a36109f8366004614d3c565b61267a565b348015610a0957600080fd5b506104a3610a18366004614d3c565b60106020526000908152604090205481565b348015610a3657600080fd5b507f9016d09d72d40fdae2fd8ceac6b6234c7706214fd39c1cd1e609a0528c199300546001600160a01b03166103fe565b348015610a7357600080fd5b506008546103fe906001600160a01b031681565b348015610a9357600080fd5b506104a3610aa2366004615429565b601460209081526000928352604080842090915290825290205481565b348015610acb57600080fd5b506104a3610ada366004614d3c565b60166020526000908152604090205481565b348015610af857600080fd5b506104a3610b07366004615578565b601360209081526000938452604080852082529284528284209052825290205481565b348015610b3657600080fd5b506104a3610b45366004614f9b565b600091825260176020908152604080842092845291905290205490565b348015610b6e57600080fd5b506103fe610b7d366004614d3c565b6000908152600e60205260409020600301546001600160a01b031690565b348015610ba757600080fd5b5061043b610bb6366004615617565b60009182526018602090815260408084206001600160a01b0395909516845293815283832091835252205460ff1690565b348015610bf357600080fd5b50610c18604051806040016040528060058152602001640352e302e360dc1b81525081565b604051610412919061564c565b348015610c3157600080fd5b5061043b610c40366004615429565b600f60209081526000928352604080842090915290825290205460ff1681565b348015610c6c57600080fd5b5061046b610c7b36600461554c565b61269e565b348015610c8c57600080fd5b5061046b610c9b36600461565f565b6126e4565b348015610cac57600080fd5b5061046b610cbb3660046156a1565b612833565b348015610ccc57600080fd5b506007546103fe906001600160a01b031681565b348015610cec57600080fd5b5061046b610cfb3660046156cc565b612964565b348015610d0c57600080fd5b506104a3610d1b366004615429565b601160209081526000928352604080842090915290825290205481565b348015610d4457600080fd5b5061046b610d53366004614d3c565b6129cd565b348015610d6457600080fd5b506103fe610d73366004614d3c565b6000908152601a60205260409020546001600160a01b031690565b348015610d9a57600080fd5b5061046b610da93660046155ba565b612e63565b348015610dba57600080fd5b50600b546103fe906001600160a01b031681565b348015610dda57600080fd5b5061046b610de9366004614d3c565b612ec4565b348015610dfa57600080fd5b5061046b610e09366004614d3c565b612f5b565b348015610e1a57600080fd5b5061046b610e29366004614d3c565b6133b9565b348015610e3a57600080fd5b5061046b610e493660046156a1565b6134cc565b348015610e5a57600080fd5b5061046b610e6936600461570b565b613507565b348015610e7a57600080fd5b50610e8e610e89366004614d3c565b6135eb565b6040516104129d9c9b9a9998979695949392919061578d565b6000818152600f602090815260408083206001600160a01b038616845290915290205460ff165b92915050565b6001546001600160a01b0316331480610ef757506000546001600160a01b031633145b80610f0157503330145b610f265760405162461bcd60e51b8152600401610f1d9061583f565b60405180910390fd5b6000828152600e60205260409020600f01805482919060ff19166001836007811115610f5457610f54614e47565b0217905550817f8ed894b6f384ca9c829b9aa5b056bc9106a90845a15616607e975d4ad488ee6782604051610f89919061544e565b60405180910390a25050565b80610fa03382611ed5565b80610fb05750610fb03382610ea7565b610fcc5760405162461bcd60e51b8152600401610f1d906158ad565b6000828152600e602052604090206003600f82015460ff166007811115610ff557610ff5614e47565b1461103a5760405162461bcd60e51b815260206004820152601560248201527453686f77206d757374206265205570636f6d696e6760581b6044820152606401610f1d565b601281015461104b906107086158eb565b42101561109a5760405162461bcd60e51b815260206004820152601f60248201527f53686f7720686173206e6f7420796574206265656e20636f6d706c65746564006044820152606401610f1d565b6000838152601a60205260408120546001600160a01b03169081156110e15760008581526011602090815260408083206001600160a01b03861684529091529020546110f1565b6000858152601060205260409020545b90506000811161113c5760405162461bcd60e51b81526020600482015260166024820152754e6f2066756e647320746f206469737472696275746560501b6044820152606401610f1d565b61119b85848560100180548060200260200160405190810160405280929190818152602001828054801561118f57602002820191906000526020600020905b81548152602001906001019080831161117b575b50505050508486613860565b6001600160a01b0382166111bd576000858152601060205260408120556111e1565b60008581526011602090815260408083206001600160a01b03861684529091528120555b6000858152600e60205260409020600f0180546004919060ff19166001830217905550847f8ed894b6f384ca9c829b9aa5b056bc9106a90845a15616607e975d4ad488ee676004604051611235919061544e565b60405180910390a25050505050565b60608060006060611253614bb8565b6000868152600e60205260408120600c810154606092918291829182918291906001600160401b0381111561128a5761128a614fbd565b6040519080825280602002602001820160405280156112df57816020015b6112cc60405180606001604052806060815260200160008152602001600081525090565b8152602001906001900390816112a85790505b50965060005b600c8201548110156113f55781600c018181548110611306576113066158fe565b906000526020600020906003020160405180606001604052908160008201805461132f90615914565b80601f016020809104026020016040519081016040528092919081815260200182805461135b90615914565b80156113a85780601f1061137d576101008083540402835291602001916113a8565b820191906000526020600020905b81548152906001019060200180831161138b57829003601f168201915b50505050508152602001600182015481526020016002820154815250508882815181106113d7576113d76158fe565b602002602001018190525080806113ed90615948565b9150506112e5565b5080600101816002018260030160009054906101000a90046001600160a01b031683600401846005018b86600d015487600e015488600f0160009054906101000a900460ff1689600f0160019054906101000a900460ff168a60130160009054906101000a90046001600160a01b03168a805461147190615914565b80601f016020809104026020016040519081016040528092919081815260200182805461149d90615914565b80156114ea5780601f106114bf576101008083540402835291602001916114ea565b820191906000526020600020905b8154815290600101906020018083116114cd57829003601f168201915b50505050509a508980546114fd90615914565b80601f016020809104026020016040519081016040528092919081815260200182805461152990615914565b80156115765780601f1061154b57610100808354040283529160200191611576565b820191906000526020600020905b81548152906001019060200180831161155957829003601f168201915b50505050509950878054806020026020016040519081016040528092919081815260200182805480156115d257602002820191906000526020600020905b81546001600160a01b031681526001909101906020018083116115b4575b50505050509750866040518060a00160405290816000820180546115f590615914565b80601f016020809104026020016040519081016040528092919081815260200182805461162190615914565b801561166e5780601f106116435761010080835404028352916020019161166e565b820191906000526020600020905b81548152906001019060200180831161165157829003601f168201915b5050505050815260200160018201604051806040016040529081600082015481526020016001820154815250508152602001600382015481526020016004820160009054906101000a90046001600160a01b03166001600160a01b03166001600160a01b0316815260200160058201548152505096509b509b509b509b509b509b509b509b509b509b509b505091939597999b90929496989a50565b600061171582613b61565b610ece82613e85565b6000828152600e60205260408120600f015460ff16600781111561174457611744614e47565b1480611775575060056000838152600e60205260409020600f015460ff16600781111561177357611773614e47565b145b806117a5575060076000838152600e60205260409020600f015460ff1660078111156117a3576117a3614e47565b145b6118085760405162461bcd60e51b815260206004820152602e60248201527f46756e647320617265206c6f636b65642064756520746f20746865207374617460448201526d7573206f66207468652073686f7760901b6064820152608401610f1d565b6000828152601860209081526040808320338452825280832084845290915290205460ff1661188c5760405162461bcd60e51b815260206004820152602a60248201527f5573657220646f6573206e6f74206f776e20746865207469636b657420666f7260448201526920746869732073686f7760b01b6064820152608401610f1d565b600654604051636d1d3b0b60e11b8152600481018490526024810183905260009182916001600160a01b039091169063da3a7616906044016040805180830381865afa1580156118e0573d6000803e3d6000fd5b505050506040513d601f19601f820116820180604052508101906119049190615961565b915091506000821161194f5760405162461bcd60e51b8152602060048201526014602482015273151a58dad95d081b9bdd081c1d5c98da185cd95960621b6044820152606401610f1d565b6000848152601a6020908152604080832054600e909252909120600c0180546001600160a01b03909216918390811061198a5761198a6158fe565b6000918252602082206002600390920201018054916119a883615948565b91905055506119b98585858461420d565b604051838152859033907f6327daeea6ce26abf9f96cd84eee9cb40d1d5b88f7f5990914540e392446bf04906020015b60405180910390a35050505050565b6000818152600e602090815260408083208151610200810190925280548252600181018054859484019190611a2c90615914565b80601f0160208091040260200160405190810160405280929190818152602001828054611a5890615914565b8015611aa55780601f10611a7a57610100808354040283529160200191611aa5565b820191906000526020600020905b815481529060010190602001808311611a8857829003601f168201915b50505050508152602001600282018054611abe90615914565b80601f0160208091040260200160405190810160405280929190818152602001828054611aea90615914565b8015611b375780601f10611b0c57610100808354040283529160200191611b37565b820191906000526020600020905b815481529060010190602001808311611b1a57829003601f168201915b505050918352505060038201546001600160a01b03166020808301919091526004830180546040805182850281018501825282815294019392830182828015611ba957602002820191906000526020600020905b81546001600160a01b03168152600190910190602001808311611b8b575b50505050508152602001600582016040518060a0016040529081600082018054611bd290615914565b80601f0160208091040260200160405190810160405280929190818152602001828054611bfe90615914565b8015611c4b5780601f10611c2057610100808354040283529160200191611c4b565b820191906000526020600020905b815481529060010190602001808311611c2e57829003601f168201915b50505091835250506040805180820182526001840154815260028401546020828101919091528084019190915260038401548284015260048401546001600160a01b03166060840152600590930154608090920191909152918352600b84015483820152600c840180548351818402810184018552818152949093019392909160009084015b82821015611da95783829060005260206000209060030201604051806060016040529081600082018054611d0490615914565b80601f0160208091040260200160405190810160405280929190818152602001828054611d3090615914565b8015611d7d5780601f10611d5257610100808354040283529160200191611d7d565b820191906000526020600020905b815481529060010190602001808311611d6057829003601f168201915b505050505081526020016001820154815260200160028201548152505081526020019060010190611cd1565b50505090825250600d8201546020820152600e8201546040820152600f82015460609091019060ff166007811115611de357611de3614e47565b6007811115611df457611df4614e47565b8152600f820154610100900460ff1615156020808301919091526010830180546040805182850281018501825282815294019392830182828015611e5757602002820191906000526020600020905b815481526020019060010190808311611e43575b505050918352505060118201546020820152601282015460408201526013909101546001600160a01b03166060909101526101a081015190915042118015611eb6575060078161014001516007811115611eb357611eb3614e47565b14155b15611ec45750600792915050565b610140015192915050565b50919050565b6000908152600e60205260409020600301546001600160a01b0391821691161490565b611f00614454565b611f09826144f9565b611f138282614501565b5050565b6000611f216145be565b50600080516020615ee583398151915290565b6001546001600160a01b0316331480611f5757506000546001600160a01b031633145b80611f6157503330145b611f7d5760405162461bcd60e51b8152600401610f1d9061583f565b6001600160a01b038216611fe25760405162461bcd60e51b815260206004820152602660248201527f546869732073686f7720646f6573206e6f742061636365707420455448207061604482015265796d656e747360d01b6064820152608401610f1d565b6000848152601a60205260409020546001600160a01b038381169116146120595760405162461bcd60e51b815260206004820152602560248201527f4d69736d617463686564207061796d656e7420746f6b656e20666f72207468656044820152642073686f7760d81b6064820152608401610f1d565b604051636eb1769f60e11b81526001600160a01b0382811660048301523060248301528391859183169063dd62ed3e90604401602060405180830381865afa1580156120a9573d6000803e3d6000fd5b505050506040513d601f19601f820116820180604052508101906120cd9190615985565b101561212c5760405162461bcd60e51b815260206004820152602860248201527f436f6e7472616374206e6f7420617070726f76656420746f207472616e7366656044820152677220746f6b656e7360c01b6064820152608401610f1d565b6040516323b872dd60e01b81526001600160a01b038381166004830152306024830152604482018690528216906323b872dd906064016020604051808303816000875af1158015612181573d6000803e3d6000fd5b505050506040513d601f19601f820116820180604052508101906121a5919061599e565b5060008581526011602090815260408083206001600160a01b0387168452909152812080548692906121d89084906158eb565b909155505060405184815233906001600160a01b0385169087907f5bc5584363e68b8a5b066d0c106bba5606176ce569e835fb8b4dc1ee0bb7f4699060200160405180910390a45050505050565b60008281526019602090815260408083206001600160a01b038516845282529182902080548351818402810184019094528084526060939283018282801561228d57602002820191906000526020600020905b815481526020019060010190808311612279575b5050505050905092915050565b6001546001600160a01b03163314806122bd57506000546001600160a01b031633145b806122c757503330145b6122e35760405162461bcd60e51b8152600401610f1d9061583f565b6000838152600e60205260409020600c81015483106123445760405162461bcd60e51b815260206004820152601960248201527f496e76616c6964207469636b6574207469657220696e646578000000000000006044820152606401610f1d565b600081600c01848154811061235b5761235b6158fe565b9060005260206000209060030201905082816002015410156123d15760405162461bcd60e51b815260206004820152602960248201527f4e6f7420656e6f756768207469636b65747320617661696c61626c6520696e206044820152683a3434b9903a34b2b960b91b6064820152608401610f1d565b828160020160008282546123e591906159bb565b9091555050604051838152849086907fb23124a400670af3347ce475459c187bbba871f316e2d1d91ae115a762def020906020016119e9565b612426614607565b6124306000614662565b565b6000546001600160a01b0316331461245c5760405162461bcd60e51b8152600401610f1d906159ce565b6000828152601660205260409020546124769082906158eb565b6000928352601660205260409092209190915550565b601960205282600052604060002060205281600052604060002081815481106124b457600080fd5b9060005260206000200160009250925050505481565b6000828152600e60205260408120600c015460609190819084106125305760405162461bcd60e51b815260206004820152601860248201527f5469657220696e646578206f7574206f6620626f756e647300000000000000006044820152606401610f1d565b6000858152600e60205260408120600c01805486908110612553576125536158fe565b90600052602060002090600302019050806000018160010154826002015482805461257d90615914565b80601f01602080910402602001604051908101604052809291908181526020018280546125a990615914565b80156125f65780601f106125cb576101008083540402835291602001916125f6565b820191906000526020600020905b8154815290600101906020018083116125d957829003601f168201915b50505050509250935093509350509250925092565b6001546001600160a01b031633148061262e57506000546001600160a01b031633145b8061263857503330145b6126545760405162461bcd60e51b8152600401610f1d9061583f565b600081815260106020526040812080543492906126729084906158eb565b909155505050565b6000818152600e60205260408120600401546126978160016158eb565b9392505050565b6000546001600160a01b031633146126c85760405162461bcd60e51b8152600401610f1d906159ce565b6000928352601760209081526040808520938552929052912055565b6001546001600160a01b0316331461270e5760405162461bcd60e51b8152600401610f1d906159ce565b6000828152600e60205260408120600f015460ff16600781111561273457612734614e47565b1480612765575060026000838152600e60205260409020600f015460ff16600781111561276357612763614e47565b145b6127e35760405162461bcd60e51b815260206004820152604360248201527f56656e75652063616e206f6e6c79206265207570646174656420666f7220736860448201527f6f777320696e2050726f706f736564206f7220416363657074656420737461746064820152623ab99760e91b608482015260a401610f1d565b6000828152600e6020526040902081906005016128008282615b2f565b905050817ff199f58c6628f3436415ab64e2d1e914a5e79b5ce23d59be2970b2fe46034a6182604051610f899190615c05565b7ff0c57e16840df040f15088dc2f81fe391c3923bec73e23a9662efc9c229c6a008054600160401b810460ff1615906001600160401b03166000811580156128785750825b90506000826001600160401b031660011480156128945750303b155b9050811580156128a2575080155b156128c05760405163f92ee8a960e01b815260040160405180910390fd5b845467ffffffffffffffff1916600117855583156128ea57845460ff60401b1916600160401b1785555b6128f26146d3565b6128fb866146e3565b600b80546001600160a01b0319166001600160a01b038816179055831561295c57845460ff60401b19168555604051600181527fc7f505b2f371ae2175ee4913f4499e1f2633a7b5936321eed1cdaeb6115181d29060200160405180910390a15b505050505050565b6000546001600160a01b0316331461298e5760405162461bcd60e51b8152600401610f1d906159ce565b60009384526018602090815260408086206001600160a01b03959095168652938152838520928552919091529120805460ff1916911515919091179055565b806129d83382611ed5565b806129e857506129e83382610ea7565b612a045760405162461bcd60e51b8152600401610f1d906158ad565b6000828152600e602052604090206004600f82015460ff166007811115612a2d57612a2d614e47565b14612a735760405162461bcd60e51b815260206004820152601660248201527514da1bddc81b5d5cdd0818994810dbdb5c1b195d195960521b6044820152606401610f1d565b6012810154612a849061012c6158eb565b421015612ad35760405162461bcd60e51b815260206004820152601b60248201527f53686f7720636f6f6c646f776e20686173206e6f7420656e64656400000000006044820152606401610f1d565b6000838152601a60205260408120546001600160a01b03169081612b6f5750600084815260146020908152604080832033845290915290205480612b505760405162461bcd60e51b81526020600482015260146024820152734e6f2066756e647320746f20776974686472617760601b6044820152606401610f1d565b6000858152601460209081526040808320338452909152812055612c14565b5060008481526015602090815260408083206001600160a01b0385168452825280832033845290915290205480612be85760405162461bcd60e51b815260206004820152601a60248201527f4e6f20746f6b656e2066756e647320746f2077697468647261770000000000006044820152606401610f1d565b60008581526015602090815260408083206001600160a01b038616845282528083203384529091528120555b6001600160a01b038216612cb557604051600090339083908381818185875af1925050503d8060008114612c64576040519150601f19603f3d011682016040523d82523d6000602084013e612c69565b606091505b5050905080612caf5760405162461bcd60e51b815260206004820152601260248201527108cc2d2d8cac840e8de40e6cadcc8408aa8960731b6044820152606401610f1d565b50612e21565b6040516370a0823160e01b8152306004820152829082906001600160a01b038316906370a0823190602401602060405180830381865afa158015612cfd573d6000803e3d6000fd5b505050506040513d601f19601f82011682018060405250810190612d219190615985565b1015612d6a5760405162461bcd60e51b8152602060048201526018602482015277496e73756666696369656e7420746f6b656e2066756e647360401b6044820152606401610f1d565b60405163a9059cbb60e01b8152336004820152602481018390526001600160a01b0382169063a9059cbb906044016020604051808303816000875af1158015612db7573d6000803e3d6000fd5b505050506040513d601f19601f82011682018060405250810190612ddb919061599e565b612e1f5760405162461bcd60e51b8152602060048201526015602482015274151bdad95b881d1c985b9cd9995c8819985a5b1959605a1b6044820152606401610f1d565b505b604080518281526001600160a01b0384166020820152339187917f41211792ac12581294dfaa383a54e630322f08f25e558828f6d5e0979ac3eb2391016119e9565b6000546001600160a01b03163314612e8d5760405162461bcd60e51b8152600401610f1d906159ce565b60009283526019602090815260408085206001600160a01b0390941685529281529183208054600181018255908452919092200155565b6001546001600160a01b0316331480612ee757506000546001600160a01b031633145b80612ef157503330145b612f0d5760405162461bcd60e51b8152600401610f1d9061583f565b6000818152600e60208181526040808420601690925290922054600d830154918301549091612f3b91615cb6565b612f46826064615cb6565b10612f5657612f56836001610ed4565b505050565b612f636146f4565b6000818152600e602052604090206006600f82015460ff166007811115612f8c57612f8c614e47565b1480612fb057506007600f82015460ff166007811115612fae57612fae614e47565b145b80612fd357506005600f82015460ff166007811115612fd157612fd1614e47565b145b80612ff657506000600f82015460ff166007811115612ff457612ff4614e47565b145b6130595760405162461bcd60e51b815260206004820152602e60248201527f526566756e647320617265206e6f7420617661696c61626c6520666f7220746860448201526d69732073686f772073746174757360901b6064820152608401610f1d565b6000828152601a60205260408120546001600160a01b03169081613097575060008381526012602090815260408083203384529091529020546130c4565b5060008381526013602090815260408083206001600160a01b038516845282528083203384529091529020545b6000811161310b5760405162461bcd60e51b81526020600482015260146024820152734e6f2066756e647320746f20776974686472617760601b6044820152606401610f1d565b6001600160a01b0382166131c25760008481526012602090815260408083203380855292528083208390555183908381818185875af1925050503d8060008114613171576040519150601f19603f3d011682016040523d82523d6000602084013e613176565b606091505b50509050806131bc5760405162461bcd60e51b815260206004820152601260248201527108cc2d2d8cac840e8de40e6cadcc8408aa8960731b6044820152606401610f1d565b50613353565b60008481526013602090815260408083206001600160a01b0386168085529083528184203385529092528083209290925590516370a0823160e01b8152306004820152839183916370a0823190602401602060405180830381865afa15801561322f573d6000803e3d6000fd5b505050506040513d601f19601f820116820180604052508101906132539190615985565b101561329c5760405162461bcd60e51b8152602060048201526018602482015277496e73756666696369656e7420746f6b656e2066756e647360401b6044820152606401610f1d565b60405163a9059cbb60e01b8152336004820152602481018390526001600160a01b0382169063a9059cbb906044016020604051808303816000875af11580156132e9573d6000803e3d6000fd5b505050506040513d601f19601f8201168201806040525081019061330d919061599e565b6133515760405162461bcd60e51b8152602060048201526015602482015274151bdad95b881d1c985b9cd9995c8819985a5b1959605a1b6044820152606401610f1d565b505b604051818152849033907fa4d59773de0ef2d6faf35ac70331de09c09cb20909bf7453dd0d620524bd1fc99060200160405180910390a35050506133b660017f9b779b17422d0df92223018b32b4d1fa46e071723d6817e2486d003becc55f0055565b50565b806133c43382611ed5565b806133d457506133d43382610ea7565b6133f05760405162461bcd60e51b8152600401610f1d906158ad565b6000828152600e602052604090206001600f82015460ff16600781111561341957613419614e47565b148061343d57506002600f82015460ff16600781111561343b5761343b614e47565b145b8061346057506003600f82015460ff16600781111561345e5761345e614e47565b145b6134a35760405162461bcd60e51b815260206004820152601460248201527353686f77206d7573742062652050656e64696e6760601b6044820152606401610f1d565b600f8101805460ff19166005179055600d80549060006134c283615ccd565b9190505550505050565b6134d4614607565b6001600160a01b0381166134fe57604051631e4fbdf760e01b815260006004820152602401610f1d565b6133b681614662565b600a54600160a01b900460ff16156135615760405162461bcd60e51b815260206004820152601e60248201527f50726f746f636f6c2061646472657373657320616c72656164792073657400006044820152606401610f1d565b600080546001600160a01b039788166001600160a01b031991821681179092556001805497891697821697909717909655600680548716909117905560078054948716948616949094179093556008805492861692851692909217909155600980549185169190931617909155600a80546001600160a81b0319169190921617600160a01b179055565b600e602052600090815260409020805460018201805491929161360d90615914565b80601f016020809104026020016040519081016040528092919081815260200182805461363990615914565b80156136865780601f1061365b57610100808354040283529160200191613686565b820191906000526020600020905b81548152906001019060200180831161366957829003601f168201915b50505050509080600201805461369b90615914565b80601f01602080910402602001604051908101604052809291908181526020018280546136c790615914565b80156137145780601f106136e957610100808354040283529160200191613714565b820191906000526020600020905b8154815290600101906020018083116136f757829003601f168201915b5050505050908060030160009054906101000a90046001600160a01b031690806005016040518060a001604052908160008201805461375290615914565b80601f016020809104026020016040519081016040528092919081815260200182805461377e90615914565b80156137cb5780601f106137a0576101008083540402835291602001916137cb565b820191906000526020600020905b8154815290600101906020018083116137ae57829003601f168201915b505050918352505060408051808201825260018401548152600284015460208281019190915283015260038301549082015260048201546001600160a01b039081166060830152600590920154608090910152600b830154600d840154600e850154600f86015460118701546012880154601390980154969794969395929460ff80841695610100909404169391929091168d565b6000606484600081518110613877576138776158fe565b60200260200101518461388a9190615cb6565b6138949190615ce4565b90506001600160a01b0382166138e557600086815260146020908152604080832060038901546001600160a01b03168452909152812080548392906138da9084906158eb565b9091555061392e9050565b60008681526015602090815260408083206001600160a01b03808716855290835281842060038a01549091168452909152812080548392906139289084906158eb565b90915550505b60015b60048601548111613a7d5760006064868381518110613952576139526158fe565b6020026020010151866139659190615cb6565b61396f9190615ce4565b90506001600160a01b0384166139ed576000888152601460205260408120829160048a0161399e6001876159bb565b815481106139ae576139ae6158fe565b60009182526020808320909101546001600160a01b03168352820192909252604001812080549091906139e29084906158eb565b90915550613a6a9050565b60008881526015602090815260408083206001600160a01b03881684529091528120829160048a01613a206001876159bb565b81548110613a3057613a306158fe565b60009182526020808320909101546001600160a01b0316835282019290925260400181208054909190613a649084906158eb565b90915550505b5080613a7581615948565b915050613931565b50600060648560018751613a9191906159bb565b81518110613aa157613aa16158fe565b602002602001015185613ab49190615cb6565b613abe9190615ce4565b90506001600160a01b038316613b0f57600087815260146020908152604080832060098a01546001600160a01b0316845290915281208054839290613b049084906158eb565b90915550613b589050565b60008781526015602090815260408083206001600160a01b03808816855290835281842060098b0154909116845290915281208054839290613b529084906158eb565b90915550505b50505050505050565b805151613ba35760405162461bcd60e51b815260206004820152601060248201526f13985b59481a5cc81c995c5d5a5c995960821b6044820152606401610f1d565b6000816080015111613c035760405162461bcd60e51b815260206004820152602360248201527f56656e756520726164697573206d75737420626520677265617465722074686160448201526206e20360ec1b6064820152608401610f1d565b6000816020015151118015613c1f57506103e881602001515111155b613c6b5760405162461bcd60e51b815260206004820152601a60248201527f496e76616c6964206465736372697074696f6e206c656e6774680000000000006044820152606401610f1d565b60008160c0015111613ccd5760405162461bcd60e51b815260206004820152602560248201527f546f74616c206361706163697479206d75737420626520677265617465722074604482015264068616e20360dc1b6064820152608401610f1d565b600081604001515111613d225760405162461bcd60e51b815260206004820152601c60248201527f4174206c65617374206f6e6520617274697374207265717569726564000000006044820152606401610f1d565b60328160a0015160ff1610158015613d42575060648160a0015160ff1611155b613da65760405162461bcd60e51b815260206004820152602f60248201527f53656c6c2d6f7574207468726573686f6c64206d75737420626520626574776560448201526e656e2035302520616e64203130302560881b6064820152608401610f1d565b60608101515163055d4a7f1913801590613dc9575060608101515163055d4a8012155b613e085760405162461bcd60e51b815260206004820152601060248201526f496e76616c6964206c6174697475646560801b6044820152606401610f1d565b630aba94ff1981606001516020015112158015613e315750630aba950081606001516020015113155b613e715760405162461bcd60e51b8152602060048201526011602482015270496e76616c6964206c6f6e67697475646560781b6044820152606401610f1d565b6133b6816101000151826040015151614764565b80516020808301516040808501516060860151805190850151608088015160a089015160c08a01516101208b0151965160009a613ec89a90999891429101615d06565b60408051601f1981840301815291815281516020928301206000818152600e90935291208351919250906001820190613f019082615d89565b5060208301516002820190613f169082615d89565b506003810180546001600160a01b0319163317905560408301518051613f46916004840191602090910190614c02565b506040805160c08082018352600060a083018181528084526060808901516020860152928801519484019490945290820181905260808201529060058301908190613f919082615d89565b506020828101518051600184015581015160028301556040830151600383015560608301516004830180546001600160a01b0319166001600160a01b0390921691909117905560809283015160059092019190915590840151600b83015560a084015160ff16600d83015560c0840151600e830155600f8201805461ffff1916610100908117909155840151805161402f9260108501920190614c67565b5061403d4262278d006158eb565b60118201556000601282018190556101208401516013830180546001600160a01b039092166001600160a01b03199283168117909155848352601a6020526040832080549092161790555b8360e001515181101561410a5781600c018460e0015182815181106140af576140af6158fe565b602090810291909101810151825460018101845560009384529190922082516003909202019081906140e19082615d89565b50602082015160018201556040909101516002909101558061410281615948565b915050614088565b5060005b83604001515181101561418c576001600f6000858152602001908152602001600020600086604001518481518110614148576141486158fe565b6020908102919091018101516001600160a01b03168252810191909152604001600020805460ff19169115159190911790558061418481615948565b91505061410e565b50600d805490600061419d83615948565b9190505550336001600160a01b0316827fb627fd710eb93733196a5e4d106fc18af287574dcaa2cb48d76bc40d09145b498560000151866040015187602001518860a001518961010001518a60c001516040516141ff96959493929190615e48565b60405180910390a350919050565b6000848152600e60209081526040808320601690925282208054919261423283615ccd565b90915550506001600160a01b03821661429c57600085815260106020526040812080548592906142639084906159bb565b90915550506000858152601260209081526040808320338452909152812080548592906142919084906158eb565b909155506143139050565b60008581526011602090815260408083206001600160a01b0386168452909152812080548592906142ce9084906159bb565b909155505060008581526013602090815260408083206001600160a01b038616845282528083203384529091528120805485929061430d9084906158eb565b90915550505b600085815260166020526040812054600d830154600e84015491929160649161433b91615cb6565b6143459190615ce4565b9050808210801561436e57506001600f84015460ff16600781111561436c5761436c614e47565b145b156143bb57600f8301805460ff1916905560405187907f8ed894b6f384ca9c829b9aa5b056bc9106a90845a15616607e975d4ad488ee67906143b29060009061544e565b60405180910390a25b60008781526017602090815260408083208984529091528120556143e08733886148ab565b6006546040516387f9ca5d60e01b815260048101889052600160248201523360448201526001600160a01b03909116906387f9ca5d90606401600060405180830381600087803b15801561443357600080fd5b505af1158015614447573d6000803e3d6000fd5b5050505050505050505050565b306001600160a01b037f00000000000000000000000000000000000000000000000000000000000000001614806144db57507f00000000000000000000000000000000000000000000000000000000000000006001600160a01b03166144cf600080516020615ee5833981519152546001600160a01b031690565b6001600160a01b031614155b156124305760405163703e46dd60e11b815260040160405180910390fd5b6133b6614607565b816001600160a01b03166352d1902d6040518163ffffffff1660e01b8152600401602060405180830381865afa92505050801561455b575060408051601f3d908101601f1916820190925261455891810190615985565b60015b61458357604051634c9c8ce360e01b81526001600160a01b0383166004820152602401610f1d565b600080516020615ee583398151915281146145b457604051632a87526960e21b815260048101829052602401610f1d565b612f56838361498a565b306001600160a01b037f000000000000000000000000000000000000000000000000000000000000000016146124305760405163703e46dd60e11b815260040160405180910390fd5b336146397f9016d09d72d40fdae2fd8ceac6b6234c7706214fd39c1cd1e609a0528c199300546001600160a01b031690565b6001600160a01b0316146124305760405163118cdaa760e01b8152336004820152602401610f1d565b7f9016d09d72d40fdae2fd8ceac6b6234c7706214fd39c1cd1e609a0528c19930080546001600160a01b031981166001600160a01b03848116918217845560405192169182907f8be0079c531659141344cd1fd0a4f28419497f9722a3daafe3b4186f6b6457e090600090a3505050565b6146db6149e0565b612430614a29565b6146eb6149e0565b6133b681614a31565b7f9b779b17422d0df92223018b32b4d1fa46e071723d6817e2486d003becc55f0080546001190161473857604051633ee5aeb560e01b815260040160405180910390fd5b60029055565b60017f9b779b17422d0df92223018b32b4d1fa46e071723d6817e2486d003becc55f0055565b61476f8160026158eb565b82511461480a5760405162461bcd60e51b815260206004820152605a60248201527f53706c6974206172726179206d75737420686176652061206c656e677468206560448201527f7175616c20746f20746865206e756d626572206f66206172746973747320706c60648201527f7573203220286f7267616e697a657220616e642076656e756529000000000000608482015260a401610f1d565b6000805b835181101561485057838181518110614829576148296158fe565b60200260200101518261483c91906158eb565b91508061484881615948565b91505061480e565b5080606414612f565760405162461bcd60e51b815260206004820152602160248201527f53706c69742070657263656e7461676573206d7573742073756d20746f2031306044820152600360fc1b6064820152608401610f1d565b60008381526019602090815260408083206001600160a01b03861684529091528120905b815481101561498357828282815481106148eb576148eb6158fe565b906000526020600020015403614971578154829061490b906001906159bb565b8154811061491b5761491b6158fe565b9060005260206000200154828281548110614938576149386158fe565b90600052602060002001819055508180548061495657614956615eb2565b60019003818190600052602060002001600090559055614983565b8061497b81615948565b9150506148cf565b5050505050565b61499382614a39565b6040516001600160a01b038316907fbc7cd75a20ee27fd9adebab32041f755214dbc6bffa90cc0225b39da2e5c2d3b90600090a28051156149d857612f568282614a9e565b611f13614b14565b7ff0c57e16840df040f15088dc2f81fe391c3923bec73e23a9662efc9c229c6a0054600160401b900460ff1661243057604051631afcd79f60e31b815260040160405180910390fd5b61473e6149e0565b6134d46149e0565b806001600160a01b03163b600003614a6f57604051634c9c8ce360e01b81526001600160a01b0382166004820152602401610f1d565b600080516020615ee583398151915280546001600160a01b0319166001600160a01b0392909216919091179055565b6060600080846001600160a01b031684604051614abb9190615ec8565b600060405180830381855af49150503d8060008114614af6576040519150601f19603f3d011682016040523d82523d6000602084013e614afb565b606091505b5091509150614b0b858383614b33565b95945050505050565b34156124305760405163b398979f60e01b815260040160405180910390fd5b606082614b4857614b4382614b8f565b612697565b8151158015614b5f57506001600160a01b0384163b155b15614b8857604051639996b31560e01b81526001600160a01b0385166004820152602401610f1d565b5080612697565b805115614b9f5780518082602001fd5b604051630a12f52160e11b815260040160405180910390fd5b6040518060a0016040528060608152602001614be7604051806040016040528060008152602001600081525090565b81526000602082018190526040820181905260609091015290565b828054828255906000526020600020908101928215614c57579160200282015b82811115614c5757825182546001600160a01b0319166001600160a01b03909116178255602090920191600190910190614c22565b50614c63929150614ca2565b5090565b828054828255906000526020600020908101928215614c57579160200282015b82811115614c57578251825591602001919060010190614c87565b5b80821115614c635760008155600101614ca3565b6001600160a01b03811681146133b657600080fd5b8035614cd781614cb7565b919050565b60008060408385031215614cef57600080fd5b8235614cfa81614cb7565b946020939093013593505050565b60008060408385031215614d1b57600080fd5b82359150602083013560088110614d3157600080fd5b809150509250929050565b600060208284031215614d4e57600080fd5b5035919050565b60005b83811015614d70578181015183820152602001614d58565b50506000910152565b60008151808452614d91816020860160208601614d55565b601f01601f19169290920160200192915050565b600081518084526020808501945080840160005b83811015614dde5781516001600160a01b031687529582019590820190600101614db9565b509495945050505050565b6000815160c08452614dfe60c0850182614d79565b905060208301518051602086015260208101516040860152506040830151606085015260018060a01b036060840151166080850152608083015160a08501528091505092915050565b634e487b7160e01b600052602160045260246000fd5b60088110614e7b57634e487b7160e01b600052602160045260246000fd5b9052565b6000610160808352614e938184018f614d79565b9050602083820381850152614ea8828f614d79565b9150604060018060a01b038e1681860152606085840381870152614ecc848f614da5565b93508584036080870152614ee0848e614de9565b935085840360a0870152838c518086528486019150848160051b870101858f0160005b83811015614f4c57888303601f1901855281518051878552614f2788860182614d79565b828b0151868c0152918901519489019490945294880194925090870190600101614f03565b5050809750505050505050508660c08301528560e0830152614f72610100830186614e5d565b8315156101208301526001600160a01b0383166101408301529c9b505050505050505050505050565b60008060408385031215614fae57600080fd5b50508035926020909101359150565b634e487b7160e01b600052604160045260246000fd5b604051606081016001600160401b0381118282101715614ff557614ff5614fbd565b60405290565b60405161014081016001600160401b0381118282101715614ff557614ff5614fbd565b604051601f8201601f191681016001600160401b038111828210171561504657615046614fbd565b604052919050565b60006001600160401b0383111561506757615067614fbd565b61507a601f8401601f191660200161501e565b905082815283838301111561508e57600080fd5b828260208301376000602084830101529392505050565b600082601f8301126150b657600080fd5b6126978383356020850161504e565b60006001600160401b038211156150de576150de614fbd565b5060051b60200190565b600082601f8301126150f957600080fd5b8135602061510e615109836150c5565b61501e565b82815260059290921b8401810191818101908684111561512d57600080fd5b8286015b8481101561515157803561514481614cb7565b8352918301918301615131565b509695505050505050565b60006040828403121561516e57600080fd5b604051604081018181106001600160401b038211171561519057615190614fbd565b604052823581526020928301359281019290925250919050565b803560ff81168114614cd757600080fd5b600082601f8301126151cc57600080fd5b813560206151dc615109836150c5565b82815260059290921b840181019181810190868411156151fb57600080fd5b8286015b848110156151515780356001600160401b038082111561521f5760008081fd5b908801906060828b03601f19018113156152395760008081fd5b615241614fd3565b87840135838111156152535760008081fd5b6152618d8a838801016150a5565b825250604084810135898301529190930135908301525083529183019183016151ff565b600082601f83011261529657600080fd5b813560206152a6615109836150c5565b82815260059290921b840181019181810190868411156152c557600080fd5b8286015b8481101561515157803583529183019183016152c9565b6000602082840312156152f257600080fd5b81356001600160401b038082111561530957600080fd5b90830190610160828603121561531e57600080fd5b615326614ffb565b82358281111561533557600080fd5b615341878286016150a5565b82525060208301358281111561535657600080fd5b615362878286016150a5565b60208301525060408301358281111561537a57600080fd5b615386878286016150e8565b604083015250615399866060850161515c565b606082015260a083013560808201526153b460c084016151aa565b60a082015260e083013560c082015261010080840135838111156153d757600080fd5b6153e3888287016151bb565b60e08401525061012080850135848111156153fd57600080fd5b61540989828801615285565b838501525061541b6101408601614ccc565b908301525095945050505050565b6000806040838503121561543c57600080fd5b823591506020830135614d3181614cb7565b60208101610ece8284614e5d565b6000806040838503121561546f57600080fd5b823561547a81614cb7565b915060208301356001600160401b0381111561549557600080fd5b8301601f810185136154a657600080fd5b6154b58582356020840161504e565b9150509250929050565b600080600080608085870312156154d557600080fd5b843593506020850135925060408501356154ee81614cb7565b915060608501356154fe81614cb7565b939692955090935050565b600081518084526020808501945080840160005b83811015614dde5781518752958201959082019060010161551d565b6020815260006126976020830184615509565b60008060006060848603121561556157600080fd5b505081359360208301359350604090920135919050565b60008060006060848603121561558d57600080fd5b83359250602084013561559f81614cb7565b915060408401356155af81614cb7565b809150509250925092565b6000806000606084860312156155cf57600080fd5b8335925060208401356155e181614cb7565b929592945050506040919091013590565b6060815260006156056060830186614d79565b60208301949094525060400152919050565b60008060006060848603121561562c57600080fd5b833561563781614cb7565b95602085013595506040909401359392505050565b6020815260006126976020830184614d79565b6000806040838503121561567257600080fd5b8235915060208301356001600160401b0381111561568f57600080fd5b830160c08186031215614d3157600080fd5b6000602082840312156156b357600080fd5b813561269781614cb7565b80151581146133b657600080fd5b600080600080608085870312156156e257600080fd5b8435935060208501356156f481614cb7565b92506040850135915060608501356154fe816156be565b60008060008060008060c0878903121561572457600080fd5b863561572f81614cb7565b9550602087013561573f81614cb7565b9450604087013561574f81614cb7565b9350606087013561575f81614cb7565b9250608087013561576f81614cb7565b915060a087013561577f81614cb7565b809150509295509295509295565b8d81526101a0602082015260006157a86101a083018f614d79565b82810360408401526157ba818f614d79565b6001600160a01b038e166060850152838103608085015290506157dd818d614de9565b9150508960a08301528860c08301528760e0830152615800610100830188614e5d565b851515610120830152846101408301528361016083015261582d6101808301846001600160a01b03169052565b9e9d5050505050505050505050505050565b60208082526048908201527f4f6e6c79207468652056656e75652c205469636b657420636f6e74726163742c60408201527f206f72207468697320636f6e74726163742063616e2063616c6c207468697320606082015267333ab731ba34b7b760c11b608082015260a00190565b6020808252600e908201526d139bdd08185d5d1a1bdc9a5e995960921b604082015260600190565b634e487b7160e01b600052601160045260246000fd5b80820180821115610ece57610ece6158d5565b634e487b7160e01b600052603260045260246000fd5b600181811c9082168061592857607f821691505b602082108103611ecf57634e487b7160e01b600052602260045260246000fd5b60006001820161595a5761595a6158d5565b5060010190565b6000806040838503121561597457600080fd5b505080516020909101519092909150565b60006020828403121561599757600080fd5b5051919050565b6000602082840312156159b057600080fd5b8151612697816156be565b81810381811115610ece57610ece6158d5565b6020808252602f908201527f4f6e6c7920746865205469636b657420636f6e74726163742063616e2063616c60408201526e36103a3434b990333ab731ba34b7b760891b606082015260800190565b601f821115612f5657600081815260208120601f850160051c81016020861015615a445750805b601f850160051c820191505b8181101561295c57828155600101615a50565b6001600160401b03831115615a7a57615a7a614fbd565b615a8e83615a888354615914565b83615a1d565b6000601f841160018114615ac25760008515615aaa5750838201355b600019600387901b1c1916600186901b178355614983565b600083815260209020601f19861690835b82811015615af35786850135825560209485019460019092019101615ad3565b5086821015615b105760001960f88860031b161c19848701351681555b505060018560011b0183555050505050565b60008135610ece81614cb7565b8135601e19833603018112615b4357600080fd5b820180356001600160401b03811115615b5b57600080fd5b602082019150803603821315615b7057600080fd5b615b7b818385615a63565b5050602082013560018201556040820135600282015560608201356003820155615bce615baa60808401615b22565b6004830180546001600160a01b0319166001600160a01b0392909216919091179055565b60a082013560058201555050565b81835281816020850137506000828201602090810191909152601f909101601f19169091010190565b6020815260008235601e19843603018112615c1f57600080fd5b83016020810190356001600160401b03811115615c3b57600080fd5b803603821315615c4a57600080fd5b60c06020850152615c5f60e085018284615bdc565b915050615c7c604084016020860180358252602090810135910152565b60608401356080840152615c9260808501614ccc565b6001600160a01b03811660a08501525060a084013560c08401528091505092915050565b8082028115828204841417610ece57610ece6158d5565b600081615cdc57615cdc6158d5565b506000190190565b600082615d0157634e487b7160e01b600052601260045260246000fd5b500490565b6000610140808352615d1a8184018e614d79565b90508281036020840152615d2e818d614d79565b90508281036040840152615d42818c614da5565b606084019a909a525050608081019690965260a086019490945260ff9290921660c085015260e08401526001600160a01b0316610100830152610120909101529392505050565b81516001600160401b03811115615da257615da2614fbd565b615db681615db08454615914565b84615a1d565b602080601f831160018114615deb5760008415615dd35750858301515b600019600386901b1c1916600185901b17855561295c565b600085815260208120601f198616915b82811015615e1a57888601518255948401946001909101908401615dfb565b5085821015615e385787850151600019600388901b60f8161c191681555b5050505050600190811b01905550565b60c081526000615e5b60c0830189614d79565b8281036020840152615e6d8189614da5565b90508281036040840152615e818188614d79565b905060ff861660608401528281036080840152615e9e8186615509565b9150508260a0830152979650505050505050565b634e487b7160e01b600052603160045260246000fd5b60008251615eda818460208701614d55565b919091019291505056fe360894a13ba1a3210667c828492db98dca3e2076cc3735a920a3ca505d382bbca26469706673582212200f04cf5c86033a81a882e576c1bcae20ac96fecf0d125006aa6314b935d4b79964736f6c63430008140033","linkReferences":{}},"methodIdentifiers":{"SELLOUT_PROTOCOL_WALLET()":"e30228be","UPGRADE_INTERFACE_VERSION()":"ad3cb1cc","activeShowCount()":"16488906","addTokenIdToWallet(bytes32,address,uint256)":"de44006f","artistRegistryContract()":"41adf3ad","artistRegistryInstance()":"8dea15a1","cancelShow(bytes32)":"ef5023a5","completeShow(bytes32)":"129e086b","consumeTicketTier(bytes32,uint256,uint256)":"644b5e59","depositToVault(bytes32)":"85266635","depositToVaultERC20(bytes32,uint256,address,address)":"5412233f","getNumberOfVoters(bytes32)":"85ffa16c","getOrganizer(bytes32)":"977cb89e","getPendingPayout(bytes32,address)":"42894bcb","getPendingRefund(bytes32,address)":"6e9cacd0","getSellOutThreshold(bytes32)":"1a348e62","getShowById(bytes32)":"27b1bf52","getShowPaymentToken(bytes32)":"d23b85a3","getShowStatus(bytes32)":"46c2c8a7","getTicketPricePaid(bytes32,uint256)":"93d4e100","getTicketTierInfo(bytes32,uint256)":"7e3e3935","getTotalCapacity(bytes32)":"620ec1e4","getTotalTicketsSold(bytes32)":"61041870","getWalletTokenIds(bytes32,address)":"5b9a1e09","hasTicket(address,bytes32)":"5c37da69","initialize(address)":"c4d66de8","isArtist(address,bytes32)":"02c9a8b5","isArtistMapping(bytes32,address)":"bafd4eb0","isOrganizer(address,bytes32)":"4ed372da","isTicketOwner(address,bytes32,uint256)":"a03f4efe","organizerRegistryContract()":"66bc64cd","organizerRegistryInstance()":"1cf2103e","owner()":"8da5cb5b","payout(bytes32)":"cfefb3d5","pendingPayouts(bytes32,address)":"8e70362b","pendingRefunds(bytes32,address)":"5696c07c","pendingTokenPayouts(bytes32,address,address)":"75976795","pendingTokenRefunds(bytes32,address,address)":"92ea6388","proposeShow((string,string,address[],(int256,int256),uint256,uint8,uint256,(string,uint256,uint256)[],uint256[],address))":"3b9ce466","proxiableUUID()":"52d1902d","referralContract()":"7dad19db","referralInstance()":"c6ab848a","refundTicket(bytes32,uint256)":"3c60d2d6","renounceOwnership()":"715018a6","setProtocolAddresses(address,address,address,address,address,address)":"f8121873","setTicketOwnership(bytes32,address,uint256,bool)":"c8f67e96","setTicketPricePaid(bytes32,uint256,uint256)":"bd47dc5c","setTotalTicketsSold(bytes32,uint256)":"787d76b8","showPaymentToken(bytes32)":"72958028","showTokenVault(bytes32,address)":"c9e21e5e","showVault(bytes32)":"867e68af","shows(bytes32)":"fca46559","ticketContract()":"58a86e1d","ticketInstance()":"0233ce6a","ticketPricePaid(bytes32,uint256)":"2f18ddfe","totalTicketsSold(bytes32)":"925e8f89","transferOwnership(address)":"f2fde38b","updateShowVenue(bytes32,(string,(int256,int256),uint256,address,bytes32))":"c29e2de4","updateStatus(bytes32,uint8)":"054372ed","updateStatusIfSoldOut(bytes32)":"e6180546","upgradeToAndCall(address,bytes)":"4f1ef286","venueContract()":"51819335","venueRegistryContract()":"31a68da0","venueRegistryInstance()":"703ee4e5","walletToShowToTokenIds(bytes32,address,uint256)":"7d8d6a22","withdrawRefund(bytes32)":"e9acfa7c"},"id":56}