{"abi":[{"type":"function","name":"SELLOUT_PROTOCOL_WALLET","inputs":[],"outputs":[{"name":"","type":"address","internalType":"address"}],"stateMutability":"view"},{"type":"function","name":"UPGRADE_INTERFACE_VERSION","inputs":[],"outputs":[{"name":"","type":"string","internalType":"string"}],"stateMutability":"view"},{"type":"function","name":"activeShowCount","inputs":[],"outputs":[{"name":"","type":"uint256","internalType":"uint256"}],"stateMutability":"view"},{"type":"function","name":"addTokenIdToWallet","inputs":[{"name":"showId","type":"bytes32","internalType":"bytes32"},{"name":"wallet","type":"address","internalType":"address"},{"name":"tokenId","type":"uint256","internalType":"uint256"}],"outputs":[],"stateMutability":"nonpayable"},{"type":"function","name":"artistRegistryContract","inputs":[],"outputs":[{"name":"","type":"address","internalType":"address"}],"stateMutability":"view"},{"type":"function","name":"artistRegistryInstance","inputs":[],"outputs":[{"name":"","type":"address","internalType":"contract IArtistRegistry"}],"stateMutability":"view"},{"type":"function","name":"cancelShow","inputs":[{"name":"showId","type":"bytes32","internalType":"bytes32"}],"outputs":[],"stateMutability":"nonpayable"},{"type":"function","name":"completeShow","inputs":[{"name":"showId","type":"bytes32","internalType":"bytes32"}],"outputs":[],"stateMutability":"nonpayable"},{"type":"function","name":"consumeTicketTier","inputs":[{"name":"showId","type":"bytes32","internalType":"bytes32"},{"name":"tierIndex","type":"uint256","internalType":"uint256"},{"name":"amount","type":"uint256","internalType":"uint256"}],"outputs":[],"stateMutability":"nonpayable"},{"type":"function","name":"depositToVault","inputs":[{"name":"showId","type":"bytes32","internalType":"bytes32"}],"outputs":[],"stateMutability":"payable"},{"type":"function","name":"depositToVaultERC20","inputs":[{"name":"showId","type":"bytes32","internalType":"bytes32"},{"name":"amount","type":"uint256","internalType":"uint256"},{"name":"paymentToken","type":"address","internalType":"address"},{"name":"tokenRecipient","type":"address","internalType":"address"}],"outputs":[],"stateMutability":"nonpayable"},{"type":"function","name":"getNumberOfVoters","inputs":[{"name":"showId","type":"bytes32","internalType":"bytes32"}],"outputs":[{"name":"","type":"uint256","internalType":"uint256"}],"stateMutability":"view"},{"type":"function","name":"getOrganizer","inputs":[{"name":"showId","type":"bytes32","internalType":"bytes32"}],"outputs":[{"name":"","type":"address","internalType":"address"}],"stateMutability":"view"},{"type":"function","name":"getPendingPayout","inputs":[{"name":"showId","type":"bytes32","internalType":"bytes32"},{"name":"user","type":"address","internalType":"address"}],"outputs":[{"name":"amountOwed","type":"uint256","internalType":"uint256"}],"stateMutability":"view"},{"type":"function","name":"getPendingRefund","inputs":[{"name":"showId","type":"bytes32","internalType":"bytes32"},{"name":"user","type":"address","internalType":"address"}],"outputs":[{"name":"amountOwed","type":"uint256","internalType":"uint256"}],"stateMutability":"view"},{"type":"function","name":"getSellOutThreshold","inputs":[{"name":"showId","type":"bytes32","internalType":"bytes32"}],"outputs":[{"name":"","type":"uint256","internalType":"uint256"}],"stateMutability":"view"},{"type":"function","name":"getShowById","inputs":[{"name":"showId","type":"bytes32","internalType":"bytes32"}],"outputs":[{"name":"name","type":"string","internalType":"string"},{"name":"description","type":"string","internalType":"string"},{"name":"organizer","type":"address","internalType":"address"},{"name":"artists","type":"address[]","internalType":"address[]"},{"name":"venue","type":"tuple","internalType":"struct VenueTypes.Venue","components":[{"name":"name","type":"string","internalType":"string"},{"name":"coordinates","type":"tuple","internalType":"struct VenueTypes.Coordinates","components":[{"name":"lat","type":"int256","internalType":"int256"},{"name":"lon","type":"int256","internalType":"int256"}]},{"name":"totalCapacity","type":"uint256","internalType":"uint256"},{"name":"wallet","type":"address","internalType":"address"},{"name":"venueId","type":"bytes32","internalType":"bytes32"}]},{"name":"ticketTiers","type":"tuple[]","internalType":"struct ShowTypes.TicketTier[]","components":[{"name":"name","type":"string","internalType":"string"},{"name":"price","type":"uint256","internalType":"uint256"},{"name":"ticketsAvailable","type":"uint256","internalType":"uint256"}]},{"name":"sellOutThreshold","type":"uint256","internalType":"uint256"},{"name":"totalCapacity","type":"uint256","internalType":"uint256"},{"name":"status","type":"uint8","internalType":"enum ShowTypes.Status"},{"name":"isActive","type":"bool","internalType":"bool"},{"name":"currencyAddress","type":"address","internalType":"address"}],"stateMutability":"view"},{"type":"function","name":"getShowPaymentToken","inputs":[{"name":"showId","type":"bytes32","internalType":"bytes32"}],"outputs":[{"name":"","type":"address","internalType":"address"}],"stateMutability":"view"},{"type":"function","name":"getShowStatus","inputs":[{"name":"showId","type":"bytes32","internalType":"bytes32"}],"outputs":[{"name":"","type":"uint8","internalType":"enum ShowTypes.Status"}],"stateMutability":"view"},{"type":"function","name":"getTicketPricePaid","inputs":[{"name":"showId","type":"bytes32","internalType":"bytes32"},{"name":"ticketId","type":"uint256","internalType":"uint256"}],"outputs":[{"name":"","type":"uint256","internalType":"uint256"}],"stateMutability":"view"},{"type":"function","name":"getTicketTierInfo","inputs":[{"name":"showId","type":"bytes32","internalType":"bytes32"},{"name":"tierIndex","type":"uint256","internalType":"uint256"}],"outputs":[{"name":"name","type":"string","internalType":"string"},{"name":"price","type":"uint256","internalType":"uint256"},{"name":"ticketsAvailable","type":"uint256","internalType":"uint256"}],"stateMutability":"view"},{"type":"function","name":"getTotalCapacity","inputs":[{"name":"showId","type":"bytes32","internalType":"bytes32"}],"outputs":[{"name":"","type":"uint256","internalType":"uint256"}],"stateMutability":"view"},{"type":"function","name":"getTotalTicketsSold","inputs":[{"name":"showId","type":"bytes32","internalType":"bytes32"}],"outputs":[{"name":"","type":"uint256","internalType":"uint256"}],"stateMutability":"view"},{"type":"function","name":"getWalletTokenIds","inputs":[{"name":"showId","type":"bytes32","internalType":"bytes32"},{"name":"wallet","type":"address","internalType":"address"}],"outputs":[{"name":"","type":"uint256[]","internalType":"uint256[]"}],"stateMutability":"view"},{"type":"function","name":"hasTicket","inputs":[{"name":"wallet","type":"address","internalType":"address"},{"name":"showId","type":"bytes32","internalType":"bytes32"}],"outputs":[{"name":"ownsTicket","type":"bool","internalType":"bool"}],"stateMutability":"view"},{"type":"function","name":"initialize","inputs":[{"name":"_selloutProtocolWallet","type":"address","internalType":"address"}],"outputs":[],"stateMutability":"nonpayable"},{"type":"function","name":"isArtist","inputs":[{"name":"user","type":"address","internalType":"address"},{"name":"showId","type":"bytes32","internalType":"bytes32"}],"outputs":[{"name":"","type":"bool","internalType":"bool"}],"stateMutability":"view"},{"type":"function","name":"isArtistMapping","inputs":[{"name":"","type":"bytes32","internalType":"bytes32"},{"name":"","type":"address","internalType":"address"}],"outputs":[{"name":"","type":"bool","internalType":"bool"}],"stateMutability":"view"},{"type":"function","name":"isOrganizer","inputs":[{"name":"user","type":"address","internalType":"address"},{"name":"showId","type":"bytes32","internalType":"bytes32"}],"outputs":[{"name":"","type":"bool","internalType":"bool"}],"stateMutability":"view"},{"type":"function","name":"isTicketOwner","inputs":[{"name":"owner","type":"address","internalType":"address"},{"name":"showId","type":"bytes32","internalType":"bytes32"},{"name":"ticketId","type":"uint256","internalType":"uint256"}],"outputs":[{"name":"","type":"bool","internalType":"bool"}],"stateMutability":"view"},{"type":"function","name":"organizerRegistryContract","inputs":[],"outputs":[{"name":"","type":"address","internalType":"address"}],"stateMutability":"view"},{"type":"function","name":"organizerRegistryInstance","inputs":[],"outputs":[{"name":"","type":"address","internalType":"contract IOrganizerRegistry"}],"stateMutability":"view"},{"type":"function","name":"owner","inputs":[],"outputs":[{"name":"","type":"address","internalType":"address"}],"stateMutability":"view"},{"type":"function","name":"payout","inputs":[{"name":"showId","type":"bytes32","internalType":"bytes32"}],"outputs":[],"stateMutability":"nonpayable"},{"type":"function","name":"pendingPayouts","inputs":[{"name":"","type":"bytes32","internalType":"bytes32"},{"name":"","type":"address","internalType":"address"}],"outputs":[{"name":"","type":"uint256","internalType":"uint256"}],"stateMutability":"view"},{"type":"function","name":"pendingRefunds","inputs":[{"name":"","type":"bytes32","internalType":"bytes32"},{"name":"","type":"address","internalType":"address"}],"outputs":[{"name":"","type":"uint256","internalType":"uint256"}],"stateMutability":"view"},{"type":"function","name":"proposeShow","inputs":[{"name":"name","type":"string","internalType":"string"},{"name":"description","type":"string","internalType":"string"},{"name":"artists","type":"address[]","internalType":"address[]"},{"name":"coordinates","type":"tuple","internalType":"struct VenueTypes.Coordinates","components":[{"name":"lat","type":"int256","internalType":"int256"},{"name":"lon","type":"int256","internalType":"int256"}]},{"name":"radius","type":"uint256","internalType":"uint256"},{"name":"sellOutThreshold","type":"uint8","internalType":"uint8"},{"name":"totalCapacity","type":"uint256","internalType":"uint256"},{"name":"_ticketTiers","type":"tuple[]","internalType":"struct ShowTypes.TicketTier[]","components":[{"name":"name","type":"string","internalType":"string"},{"name":"price","type":"uint256","internalType":"uint256"},{"name":"ticketsAvailable","type":"uint256","internalType":"uint256"}]},{"name":"split","type":"uint256[]","internalType":"uint256[]"},{"name":"currencyAddress","type":"address","internalType":"address"}],"outputs":[{"name":"showId","type":"bytes32","internalType":"bytes32"}],"stateMutability":"nonpayable"},{"type":"function","name":"proxiableUUID","inputs":[],"outputs":[{"name":"","type":"bytes32","internalType":"bytes32"}],"stateMutability":"view"},{"type":"function","name":"referralContract","inputs":[],"outputs":[{"name":"","type":"address","internalType":"address"}],"stateMutability":"view"},{"type":"function","name":"referralInstance","inputs":[],"outputs":[{"name":"","type":"address","internalType":"contract ReferralModule"}],"stateMutability":"view"},{"type":"function","name":"refundTicket","inputs":[{"name":"showId","type":"bytes32","internalType":"bytes32"},{"name":"ticketId","type":"uint256","internalType":"uint256"}],"outputs":[],"stateMutability":"nonpayable"},{"type":"function","name":"renounceOwnership","inputs":[],"outputs":[],"stateMutability":"nonpayable"},{"type":"function","name":"setProtocolAddresses","inputs":[{"name":"_ticketContract","type":"address","internalType":"address"},{"name":"_venueContract","type":"address","internalType":"address"},{"name":"_referralContract","type":"address","internalType":"address"},{"name":"_artistRegistryContract","type":"address","internalType":"address"},{"name":"_organizerRegistryContract","type":"address","internalType":"address"},{"name":"_venueRegistryContract","type":"address","internalType":"address"}],"outputs":[],"stateMutability":"nonpayable"},{"type":"function","name":"setTicketOwnership","inputs":[{"name":"showId","type":"bytes32","internalType":"bytes32"},{"name":"owner","type":"address","internalType":"address"},{"name":"ticketId","type":"uint256","internalType":"uint256"},{"name":"isOwned","type":"bool","internalType":"bool"}],"outputs":[],"stateMutability":"nonpayable"},{"type":"function","name":"setTicketPricePaid","inputs":[{"name":"showId","type":"bytes32","internalType":"bytes32"},{"name":"ticketId","type":"uint256","internalType":"uint256"},{"name":"price","type":"uint256","internalType":"uint256"}],"outputs":[],"stateMutability":"nonpayable"},{"type":"function","name":"setTotalTicketsSold","inputs":[{"name":"showId","type":"bytes32","internalType":"bytes32"},{"name":"amount","type":"uint256","internalType":"uint256"}],"outputs":[],"stateMutability":"nonpayable"},{"type":"function","name":"showPaymentToken","inputs":[{"name":"","type":"bytes32","internalType":"bytes32"}],"outputs":[{"name":"","type":"address","internalType":"address"}],"stateMutability":"view"},{"type":"function","name":"showTokenVault","inputs":[{"name":"","type":"bytes32","internalType":"bytes32"},{"name":"","type":"address","internalType":"address"}],"outputs":[{"name":"","type":"uint256","internalType":"uint256"}],"stateMutability":"view"},{"type":"function","name":"showVault","inputs":[{"name":"","type":"bytes32","internalType":"bytes32"}],"outputs":[{"name":"","type":"uint256","internalType":"uint256"}],"stateMutability":"view"},{"type":"function","name":"shows","inputs":[{"name":"","type":"bytes32","internalType":"bytes32"}],"outputs":[{"name":"showId","type":"bytes32","internalType":"bytes32"},{"name":"name","type":"string","internalType":"string"},{"name":"description","type":"string","internalType":"string"},{"name":"organizer","type":"address","internalType":"address"},{"name":"venue","type":"tuple","internalType":"struct VenueTypes.Venue","components":[{"name":"name","type":"string","internalType":"string"},{"name":"coordinates","type":"tuple","internalType":"struct VenueTypes.Coordinates","components":[{"name":"lat","type":"int256","internalType":"int256"},{"name":"lon","type":"int256","internalType":"int256"}]},{"name":"totalCapacity","type":"uint256","internalType":"uint256"},{"name":"wallet","type":"address","internalType":"address"},{"name":"venueId","type":"bytes32","internalType":"bytes32"}]},{"name":"radius","type":"uint256","internalType":"uint256"},{"name":"sellOutThreshold","type":"uint256","internalType":"uint256"},{"name":"totalCapacity","type":"uint256","internalType":"uint256"},{"name":"status","type":"uint8","internalType":"enum ShowTypes.Status"},{"name":"isActive","type":"bool","internalType":"bool"},{"name":"expiry","type":"uint256","internalType":"uint256"},{"name":"showDate","type":"uint256","internalType":"uint256"},{"name":"currencyAddress","type":"address","internalType":"address"}],"stateMutability":"view"},{"type":"function","name":"ticketContract","inputs":[],"outputs":[{"name":"","type":"address","internalType":"address"}],"stateMutability":"view"},{"type":"function","name":"ticketInstance","inputs":[],"outputs":[{"name":"","type":"address","internalType":"contract Ticket"}],"stateMutability":"view"},{"type":"function","name":"ticketPricePaid","inputs":[{"name":"","type":"bytes32","internalType":"bytes32"},{"name":"","type":"uint256","internalType":"uint256"}],"outputs":[{"name":"","type":"uint256","internalType":"uint256"}],"stateMutability":"view"},{"type":"function","name":"totalTicketsSold","inputs":[{"name":"","type":"bytes32","internalType":"bytes32"}],"outputs":[{"name":"","type":"uint256","internalType":"uint256"}],"stateMutability":"view"},{"type":"function","name":"transferOwnership","inputs":[{"name":"newOwner","type":"address","internalType":"address"}],"outputs":[],"stateMutability":"nonpayable"},{"type":"function","name":"updateShowVenue","inputs":[{"name":"showId","type":"bytes32","internalType":"bytes32"},{"name":"newVenue","type":"tuple","internalType":"struct VenueTypes.Venue","components":[{"name":"name","type":"string","internalType":"string"},{"name":"coordinates","type":"tuple","internalType":"struct VenueTypes.Coordinates","components":[{"name":"lat","type":"int256","internalType":"int256"},{"name":"lon","type":"int256","internalType":"int256"}]},{"name":"totalCapacity","type":"uint256","internalType":"uint256"},{"name":"wallet","type":"address","internalType":"address"},{"name":"venueId","type":"bytes32","internalType":"bytes32"}]}],"outputs":[],"stateMutability":"nonpayable"},{"type":"function","name":"updateStatus","inputs":[{"name":"showId","type":"bytes32","internalType":"bytes32"},{"name":"_status","type":"uint8","internalType":"enum ShowTypes.Status"}],"outputs":[],"stateMutability":"nonpayable"},{"type":"function","name":"updateStatusIfSoldOut","inputs":[{"name":"showId","type":"bytes32","internalType":"bytes32"}],"outputs":[],"stateMutability":"nonpayable"},{"type":"function","name":"upgradeToAndCall","inputs":[{"name":"newImplementation","type":"address","internalType":"address"},{"name":"data","type":"bytes","internalType":"bytes"}],"outputs":[],"stateMutability":"payable"},{"type":"function","name":"venueContract","inputs":[],"outputs":[{"name":"","type":"address","internalType":"address"}],"stateMutability":"view"},{"type":"function","name":"venueRegistryContract","inputs":[],"outputs":[{"name":"","type":"address","internalType":"address"}],"stateMutability":"view"},{"type":"function","name":"venueRegistryInstance","inputs":[],"outputs":[{"name":"","type":"address","internalType":"contract IVenueRegistry"}],"stateMutability":"view"},{"type":"function","name":"walletToShowToTokenIds","inputs":[{"name":"","type":"bytes32","internalType":"bytes32"},{"name":"","type":"address","internalType":"address"},{"name":"","type":"uint256","internalType":"uint256"}],"outputs":[{"name":"","type":"uint256","internalType":"uint256"}],"stateMutability":"view"},{"type":"function","name":"withdrawRefund","inputs":[{"name":"showId","type":"bytes32","internalType":"bytes32"}],"outputs":[],"stateMutability":"nonpayable"},{"type":"event","name":"ERC20Deposited","inputs":[{"name":"showId","type":"bytes32","indexed":true,"internalType":"bytes32"},{"name":"tokenAddress","type":"address","indexed":true,"internalType":"address"},{"name":"depositor","type":"address","indexed":true,"internalType":"address"},{"name":"amount","type":"uint256","indexed":false,"internalType":"uint256"}],"anonymous":false},{"type":"event","name":"ExpiryUpdated","inputs":[{"name":"showId","type":"bytes32","indexed":true,"internalType":"bytes32"},{"name":"expiry","type":"uint256","indexed":false,"internalType":"uint256"}],"anonymous":false},{"type":"event","name":"Initialized","inputs":[{"name":"version","type":"uint64","indexed":false,"internalType":"uint64"}],"anonymous":false},{"type":"event","name":"OwnershipTransferred","inputs":[{"name":"previousOwner","type":"address","indexed":true,"internalType":"address"},{"name":"newOwner","type":"address","indexed":true,"internalType":"address"}],"anonymous":false},{"type":"event","name":"RefundWithdrawn","inputs":[{"name":"user","type":"address","indexed":true,"internalType":"address"},{"name":"showId","type":"bytes32","indexed":true,"internalType":"bytes32"},{"name":"amount","type":"uint256","indexed":false,"internalType":"uint256"}],"anonymous":false},{"type":"event","name":"ShowExpired","inputs":[{"name":"showId","type":"bytes32","indexed":true,"internalType":"bytes32"}],"anonymous":false},{"type":"event","name":"ShowProposed","inputs":[{"name":"showId","type":"bytes32","indexed":true,"internalType":"bytes32"},{"name":"organizer","type":"address","indexed":true,"internalType":"address"},{"name":"name","type":"string","indexed":false,"internalType":"string"},{"name":"artists","type":"address[]","indexed":false,"internalType":"address[]"},{"name":"description","type":"string","indexed":false,"internalType":"string"},{"name":"sellOutThreshold","type":"uint256","indexed":false,"internalType":"uint256"},{"name":"split","type":"uint256[]","indexed":false,"internalType":"uint256[]"},{"name":"totalCapacity","type":"uint256","indexed":false,"internalType":"uint256"}],"anonymous":false},{"type":"event","name":"StatusUpdated","inputs":[{"name":"showId","type":"bytes32","indexed":true,"internalType":"bytes32"},{"name":"status","type":"uint8","indexed":false,"internalType":"enum ShowTypes.Status"}],"anonymous":false},{"type":"event","name":"TicketRefunded","inputs":[{"name":"user","type":"address","indexed":true,"internalType":"address"},{"name":"showId","type":"bytes32","indexed":true,"internalType":"bytes32"},{"name":"refundAmount","type":"uint256","indexed":false,"internalType":"uint256"}],"anonymous":false},{"type":"event","name":"TicketTierConsumed","inputs":[{"name":"showId","type":"bytes32","indexed":true,"internalType":"bytes32"},{"name":"tierIndex","type":"uint256","indexed":true,"internalType":"uint256"},{"name":"amount","type":"uint256","indexed":false,"internalType":"uint256"}],"anonymous":false},{"type":"event","name":"Upgraded","inputs":[{"name":"implementation","type":"address","indexed":true,"internalType":"address"}],"anonymous":false},{"type":"event","name":"VenueUpdated","inputs":[{"name":"showId","type":"bytes32","indexed":true,"internalType":"bytes32"},{"name":"newVenue","type":"tuple","indexed":false,"internalType":"struct VenueTypes.Venue","components":[{"name":"name","type":"string","internalType":"string"},{"name":"coordinates","type":"tuple","internalType":"struct VenueTypes.Coordinates","components":[{"name":"lat","type":"int256","internalType":"int256"},{"name":"lon","type":"int256","internalType":"int256"}]},{"name":"totalCapacity","type":"uint256","internalType":"uint256"},{"name":"wallet","type":"address","internalType":"address"},{"name":"venueId","type":"bytes32","internalType":"bytes32"}]}],"anonymous":false},{"type":"event","name":"Withdrawal","inputs":[{"name":"showId","type":"bytes32","indexed":true,"internalType":"bytes32"},{"name":"recipient","type":"address","indexed":true,"internalType":"address"},{"name":"amount","type":"uint256","indexed":false,"internalType":"uint256"},{"name":"paymentToken","type":"address","indexed":false,"internalType":"address"}],"anonymous":false},{"type":"error","name":"AddressEmptyCode","inputs":[{"name":"target","type":"address","internalType":"address"}]},{"type":"error","name":"ERC1967InvalidImplementation","inputs":[{"name":"implementation","type":"address","internalType":"address"}]},{"type":"error","name":"ERC1967NonPayable","inputs":[]},{"type":"error","name":"FailedInnerCall","inputs":[]},{"type":"error","name":"InvalidInitialization","inputs":[]},{"type":"error","name":"NotInitializing","inputs":[]},{"type":"error","name":"OwnableInvalidOwner","inputs":[{"name":"owner","type":"address","internalType":"address"}]},{"type":"error","name":"OwnableUnauthorizedAccount","inputs":[{"name":"account","type":"address","internalType":"address"}]},{"type":"error","name":"ReentrancyGuardReentrantCall","inputs":[]},{"type":"error","name":"UUPSUnauthorizedCallContext","inputs":[]},{"type":"error","name":"UUPSUnsupportedProxiableUUID","inputs":[{"name":"slot","type":"bytes32","internalType":"bytes32"}]}],"bytecode":{"object":"0x60a0604052600a805460ff60a01b191690553060805234801561002157600080fd5b50608051615f7b6200004c600039600081816142c6015281816142ef01526144300152615f7b6000f3fe6080604052600436106103c35760003560e01c80637d8d6a22116101f2578063bd47dc5c1161010d578063de44006f116100a0578063ef5023a51161006f578063ef5023a514610d7c578063f2fde38b14610d9c578063f812187314610dbc578063fca4655914610ddc57600080fd5b8063de44006f14610cfc578063e30228be14610d1c578063e618054614610d3c578063e9acfa7c14610d5c57600080fd5b8063c8f67e96116100dc578063c8f67e9614610c4e578063c9e21e5e14610c6e578063cfefb3d514610ca6578063d23b85a314610cc657600080fd5b8063bd47dc5c14610bce578063c29e2de414610bee578063c4d66de814610c0e578063c6ab848a14610c2e57600080fd5b80638dea15a111610185578063977cb89e11610154578063977cb89e14610ad0578063a03f4efe14610b09578063ad3cb1cc14610b55578063bafd4eb014610b9357600080fd5b80638dea15a114610a135780638e70362b14610a33578063925e8f8914610a6b57806393d4e10014610a9857600080fd5b806385266635116101c1578063852666351461097657806385ffa16c14610989578063867e68af146109a95780638da5cb5b146109d657600080fd5b80637d8d6a22146108e75780637dad19db146109075780637e3e393514610927578063824f3e691461095657600080fd5b806351819335116102e2578063620ec1e411610275578063703ee4e511610244578063703ee4e51461085c578063715018a61461087c5780637295802814610891578063787d76b8146108c757600080fd5b8063620ec1e4146107a8578063644b5e59146107d957806366bc64cd146107f95780636e9cacd01461081957600080fd5b806358a86e1d116102b157806358a86e1d146106ea5780635b9a1e091461070a5780635c37da6914610737578063610418701461077b57600080fd5b8063518193351461065d57806352d1902d1461067d5780635412233f146106925780635696c07c146106b257600080fd5b80632f18ddfe1161035a57806342894bcb1161032957806342894bcb146105ba57806346c2c8a7146105fd5780634ed372da1461062a5780634f1ef2861461064a57600080fd5b80632f18ddfe1461052257806331a68da01461055a5780633c60d2d61461057a57806341adf3ad1461059a57600080fd5b8063164889061161039657806316488906146104775780631a348e621461049b5780631cf2103e146104cb57806327b1bf52146104eb57600080fd5b80630233ce6a146103c857806302c9a8b514610405578063054372ed14610435578063129e086b14610457575b600080fd5b3480156103d457600080fd5b506006546103e8906001600160a01b031681565b6040516001600160a01b0390911681526020015b60405180910390f35b34801561041157600080fd5b50610425610420366004614cc0565b610e15565b60405190151581526020016103fc565b34801561044157600080fd5b50610455610450366004614cec565b610e42565b005b34801561046357600080fd5b50610455610472366004614d20565b610f03565b34801561048357600080fd5b5061048d600d5481565b6040519081526020016103fc565b3480156104a757600080fd5b5061048d6104b6366004614d20565b6000908152600e60205260409020600d015490565b3480156104d757600080fd5b506009546103e8906001600160a01b031681565b3480156104f757600080fd5b5061050b610506366004614d20565b611489565b6040516103fc9b9a99989796959493929190614e63565b34801561052e57600080fd5b5061048d61053d366004614f7f565b601560209081526000928352604080842090915290825290205481565b34801561056657600080fd5b506005546103e8906001600160a01b031681565b34801561058657600080fd5b50610455610595366004614f7f565b61194f565b3480156105a657600080fd5b506003546103e8906001600160a01b031681565b3480156105c657600080fd5b5061048d6105d5366004614fa1565b60009182526013602090815260408084206001600160a01b0393909316845291905290205490565b34801561060957600080fd5b5061061d610618366004614d20565b611e44565b6040516103fc9190614fc6565b34801561063657600080fd5b50610425610645366004614cc0565b612321565b6104556106583660046150a7565b612344565b34801561066957600080fd5b506001546103e8906001600160a01b031681565b34801561068957600080fd5b5061048d612363565b34801561069e57600080fd5b506104556106ad36600461510a565b612380565b3480156106be57600080fd5b5061048d6106cd366004614fa1565b601260209081526000928352604080842090915290825290205481565b3480156106f657600080fd5b506000546103e8906001600160a01b031681565b34801561071657600080fd5b5061072a610725366004614fa1565b612672565b6040516103fc9190615184565b34801561074357600080fd5b50610425610752366004614cc0565b60009081526017602090815260408083206001600160a01b039490941683529290522054151590565b34801561078757600080fd5b5061048d610796366004614d20565b60009081526014602052604090205490565b3480156107b457600080fd5b5061048d6107c3366004614d20565b6000908152600e60208190526040909120015490565b3480156107e557600080fd5b506104556107f4366004615197565b6126e6565b34801561080557600080fd5b506004546103e8906001600160a01b031681565b34801561082557600080fd5b5061048d610834366004614fa1565b60009182526012602090815260408084206001600160a01b0393909316845291905290205490565b34801561086857600080fd5b50600a546103e8906001600160a01b031681565b34801561088857600080fd5b5061045561286a565b34801561089d57600080fd5b506103e86108ac366004614d20565b6018602052600090815260409020546001600160a01b031681565b3480156108d357600080fd5b506104556108e2366004614f7f565b61287e565b3480156108f357600080fd5b5061048d6109023660046151c3565b6128d8565b34801561091357600080fd5b506002546103e8906001600160a01b031681565b34801561093357600080fd5b50610947610942366004614f7f565b612916565b6040516103fc939291906151fb565b34801561096257600080fd5b5061048d610971366004615456565b612a57565b610455610984366004614d20565b613146565b34801561099557600080fd5b5061048d6109a4366004614d20565b6131b5565b3480156109b557600080fd5b5061048d6109c4366004614d20565b60106020526000908152604090205481565b3480156109e257600080fd5b507f9016d09d72d40fdae2fd8ceac6b6234c7706214fd39c1cd1e609a0528c199300546001600160a01b03166103e8565b348015610a1f57600080fd5b506008546103e8906001600160a01b031681565b348015610a3f57600080fd5b5061048d610a4e366004614fa1565b601360209081526000928352604080842090915290825290205481565b348015610a7757600080fd5b5061048d610a86366004614d20565b60146020526000908152604090205481565b348015610aa457600080fd5b5061048d610ab3366004614f7f565b600091825260156020908152604080842092845291905290205490565b348015610adc57600080fd5b506103e8610aeb366004614d20565b6000908152600e60205260409020600301546001600160a01b031690565b348015610b1557600080fd5b50610425610b24366004615570565b60009182526016602090815260408084206001600160a01b0395909516845293815283832091835252205460ff1690565b348015610b6157600080fd5b50610b86604051806040016040528060058152602001640352e302e360dc1b81525081565b6040516103fc91906155a5565b348015610b9f57600080fd5b50610425610bae366004614fa1565b600f60209081526000928352604080842090915290825290205460ff1681565b348015610bda57600080fd5b50610455610be9366004615197565b6131d9565b348015610bfa57600080fd5b50610455610c093660046155b8565b61321f565b348015610c1a57600080fd5b50610455610c293660046155fa565b61336e565b348015610c3a57600080fd5b506007546103e8906001600160a01b031681565b348015610c5a57600080fd5b50610455610c69366004615625565b61349f565b348015610c7a57600080fd5b5061048d610c89366004614fa1565b601160209081526000928352604080842090915290825290205481565b348015610cb257600080fd5b50610455610cc1366004614d20565b613508565b348015610cd257600080fd5b506103e8610ce1366004614d20565b6000908152601860205260409020546001600160a01b031690565b348015610d0857600080fd5b50610455610d173660046151c3565b613791565b348015610d2857600080fd5b50600b546103e8906001600160a01b031681565b348015610d4857600080fd5b50610455610d57366004614d20565b6137f2565b348015610d6857600080fd5b50610455610d77366004614d20565b613889565b348015610d8857600080fd5b50610455610d97366004614d20565b613c59565b348015610da857600080fd5b50610455610db73660046155fa565b613d6c565b348015610dc857600080fd5b50610455610dd7366004615664565b613da7565b348015610de857600080fd5b50610dfc610df7366004614d20565b613e8b565b6040516103fc9d9c9b9a999897969594939291906156e6565b6000818152600f602090815260408083206001600160a01b038616845290915290205460ff165b92915050565b6001546001600160a01b0316331480610e6557506000546001600160a01b031633145b80610e6f57503330145b610e945760405162461bcd60e51b8152600401610e8b90615798565b60405180910390fd5b6000828152600e60205260409020600f01805482919060ff19166001836007811115610ec257610ec2614e2b565b0217905550817f8ed894b6f384ca9c829b9aa5b056bc9106a90845a15616607e975d4ad488ee6782604051610ef79190614fc6565b60405180910390a25050565b80610f0e3382612321565b80610f1e5750610f1e3382610e15565b610f3a5760405162461bcd60e51b8152600401610e8b90615806565b6000828152600e602052604090206003600f82015460ff166007811115610f6357610f63614e2b565b14610fa85760405162461bcd60e51b815260206004820152601560248201527453686f77206d757374206265205570636f6d696e6760581b6044820152606401610e8b565b6012810154610fb990610708615844565b4210156110085760405162461bcd60e51b815260206004820152601f60248201527f53686f7720686173206e6f7420796574206265656e20636f6d706c65746564006044820152606401610e8b565b6000838152601060205260409020548061105d5760405162461bcd60e51b81526020600482015260166024820152754e6f2066756e647320746f206469737472696275746560501b6044820152606401610e8b565b6000826010018054806020026020016040519081016040528092919081815260200182805480156110ad57602002820191906000526020600020905b815481526020019060010190808311611099575b5050505050905060006064836110c39190615857565b6000878152601360209081526040808320600b546001600160a01b03168452909152902081905590506110f68184615879565b9250600060648360008151811061110f5761110f61588c565b60200260200101518561112291906158a2565b61112c9190615857565b600088815260136020908152604080832060038a01546001600160a01b0316845290915281208290559091505b6004860154811015611207576000606485611175846001615844565b815181106111855761118561588c565b60200260200101518761119891906158a2565b6111a29190615857565b905080601360008b815260200190815260200160002060008960040185815481106111cf576111cf61588c565b60009182526020808320909101546001600160a01b0316835282019290925260400190205550806111ff816158b9565b915050611159565b5060006064846001865161121b9190615879565b8151811061122b5761122b61588c565b60200260200101518661123e91906158a2565b6112489190615857565b600089815260136020908152604080832060098b01546001600160a01b0316845282528083208490558b83526010909152812055600f8701805491925060049160ff19166001830217905550600754600387015460405163416b56db60e01b81526001600160a01b039283169263416b56db926112d192911690600190819081906004016158d2565b600060405180830381600087803b1580156112eb57600080fd5b505af11580156112ff573d6000803e3d6000fd5b5050505060005b60048701548110156113c0576007546004880180546001600160a01b039092169163416b56db91908490811061133e5761133e61588c565b6000918252602090912001546040516001600160e01b031960e084901b16815261137b916001600160a01b031690600190819081906004016158d2565b600060405180830381600087803b15801561139557600080fd5b505af11580156113a9573d6000803e3d6000fd5b5050505080806113b8906158b9565b915050611306565b50600754600987015460405163416b56db60e01b81526001600160a01b039283169263416b56db926113fe92911690600190819081906004016158d2565b600060405180830381600087803b15801561141857600080fd5b505af115801561142c573d6000803e3d6000fd5b5050600d8054925090506000611441836158f8565b9190505550877f8ed894b6f384ca9c829b9aa5b056bc9106a90845a15616607e975d4ad488ee6760046040516114779190614fc6565b60405180910390a25050505050505050565b60608060006060611498614b9c565b6000868152600e60205260408120600c810154606092918291829182918291906001600160401b038111156114cf576114cf614fd4565b60405190808252806020026020018201604052801561152457816020015b61151160405180606001604052806060815260200160008152602001600081525090565b8152602001906001900390816114ed5790505b50965060005b600c82015481101561163a5781600c01818154811061154b5761154b61588c565b90600052602060002090600302016040518060600160405290816000820180546115749061590f565b80601f01602080910402602001604051908101604052809291908181526020018280546115a09061590f565b80156115ed5780601f106115c2576101008083540402835291602001916115ed565b820191906000526020600020905b8154815290600101906020018083116115d057829003601f168201915b505050505081526020016001820154815260200160028201548152505088828151811061161c5761161c61588c565b60200260200101819052508080611632906158b9565b91505061152a565b5080600101816002018260030160009054906101000a90046001600160a01b031683600401846005018b86600d015487600e015488600f0160009054906101000a900460ff1689600f0160019054906101000a900460ff168a60130160009054906101000a90046001600160a01b03168a80546116b69061590f565b80601f01602080910402602001604051908101604052809291908181526020018280546116e29061590f565b801561172f5780601f106117045761010080835404028352916020019161172f565b820191906000526020600020905b81548152906001019060200180831161171257829003601f168201915b50505050509a508980546117429061590f565b80601f016020809104026020016040519081016040528092919081815260200182805461176e9061590f565b80156117bb5780601f10611790576101008083540402835291602001916117bb565b820191906000526020600020905b81548152906001019060200180831161179e57829003601f168201915b505050505099508780548060200260200160405190810160405280929190818152602001828054801561181757602002820191906000526020600020905b81546001600160a01b031681526001909101906020018083116117f9575b50505050509750866040518060a001604052908160008201805461183a9061590f565b80601f01602080910402602001604051908101604052809291908181526020018280546118669061590f565b80156118b35780601f10611888576101008083540402835291602001916118b3565b820191906000526020600020905b81548152906001019060200180831161189657829003601f168201915b5050505050815260200160018201604051806040016040529081600082015481526020016001820154815250508152602001600382015481526020016004820160009054906101000a90046001600160a01b03166001600160a01b03166001600160a01b0316815260200160058201548152505096509b509b509b509b509b509b509b509b509b509b509b505091939597999b90929496989a50565b6000828152600e60205260408120600f015460ff16600781111561197557611975614e2b565b14806119a6575060056000838152600e60205260409020600f015460ff1660078111156119a4576119a4614e2b565b145b806119d6575060076000838152600e60205260409020600f015460ff1660078111156119d4576119d4614e2b565b145b611a395760405162461bcd60e51b815260206004820152602e60248201527f46756e647320617265206c6f636b65642064756520746f20746865207374617460448201526d7573206f66207468652073686f7760901b6064820152608401610e8b565b6000828152601660209081526040808320338452825280832084845290915290205460ff16611abd5760405162461bcd60e51b815260206004820152602a60248201527f5573657220646f6573206e6f74206f776e20746865207469636b657420666f7260448201526920746869732073686f7760b01b6064820152608401610e8b565b600654604051636d1d3b0b60e11b8152600481018490526024810183905260009182916001600160a01b039091169063da3a7616906044016040805180830381865afa158015611b11573d6000803e3d6000fd5b505050506040513d601f19601f82011682018060405250810190611b359190615943565b9150915060008211611b805760405162461bcd60e51b8152602060048201526014602482015273151a58dad95d081b9bdd081c1d5c98da185cd95960621b6044820152606401610e8b565b6000848152600e60205260409020600c01805482908110611ba357611ba361588c565b600091825260208220600260039092020101805491611bc1836158b9565b9190505550611bd1848484614100565b6000848152601860205260409020546001600160a01b031680611cd15782471015611c3e5760405162461bcd60e51b815260206004820152601860248201527f496e73756666696369656e74204554482062616c616e636500000000000000006044820152606401610e8b565b604051600090339085908381818185875af1925050503d8060008114611c80576040519150601f19603f3d011682016040523d82523d6000602084013e611c85565b606091505b5050905080611ccb5760405162461bcd60e51b815260206004820152601260248201527108cc2d2d8cac840e8de40e6cadcc8408aa8960731b6044820152606401610e8b565b50611e05565b6040516370a0823160e01b815230600482015281906000906001600160a01b038316906370a0823190602401602060405180830381865afa158015611d1a573d6000803e3d6000fd5b505050506040513d601f19601f82011682018060405250810190611d3e9190615967565b905084811015611d905760405162461bcd60e51b815260206004820152601a60248201527f496e73756666696369656e7420746f6b656e2062616c616e63650000000000006044820152606401610e8b565b60405163a9059cbb60e01b8152336004820152602481018690526001600160a01b0383169063a9059cbb906044016020604051808303816000875af1158015611ddd573d6000803e3d6000fd5b505050506040513d601f19601f82011682018060405250810190611e019190615980565b5050505b604051838152859033907f6327daeea6ce26abf9f96cd84eee9cb40d1d5b88f7f5990914540e392446bf04906020015b60405180910390a35050505050565b6000818152600e602090815260408083208151610200810190925280548252600181018054859484019190611e789061590f565b80601f0160208091040260200160405190810160405280929190818152602001828054611ea49061590f565b8015611ef15780601f10611ec657610100808354040283529160200191611ef1565b820191906000526020600020905b815481529060010190602001808311611ed457829003601f168201915b50505050508152602001600282018054611f0a9061590f565b80601f0160208091040260200160405190810160405280929190818152602001828054611f369061590f565b8015611f835780601f10611f5857610100808354040283529160200191611f83565b820191906000526020600020905b815481529060010190602001808311611f6657829003601f168201915b505050918352505060038201546001600160a01b03166020808301919091526004830180546040805182850281018501825282815294019392830182828015611ff557602002820191906000526020600020905b81546001600160a01b03168152600190910190602001808311611fd7575b50505050508152602001600582016040518060a001604052908160008201805461201e9061590f565b80601f016020809104026020016040519081016040528092919081815260200182805461204a9061590f565b80156120975780601f1061206c57610100808354040283529160200191612097565b820191906000526020600020905b81548152906001019060200180831161207a57829003601f168201915b50505091835250506040805180820182526001840154815260028401546020828101919091528084019190915260038401548284015260048401546001600160a01b03166060840152600590930154608090920191909152918352600b84015483820152600c840180548351818402810184018552818152949093019392909160009084015b828210156121f557838290600052602060002090600302016040518060600160405290816000820180546121509061590f565b80601f016020809104026020016040519081016040528092919081815260200182805461217c9061590f565b80156121c95780601f1061219e576101008083540402835291602001916121c9565b820191906000526020600020905b8154815290600101906020018083116121ac57829003601f168201915b50505050508152602001600182015481526020016002820154815250508152602001906001019061211d565b50505090825250600d8201546020820152600e8201546040820152600f82015460609091019060ff16600781111561222f5761222f614e2b565b600781111561224057612240614e2b565b8152600f820154610100900460ff16151560208083019190915260108301805460408051828502810185018252828152940193928301828280156122a357602002820191906000526020600020905b81548152602001906001019080831161228f575b505050918352505060118201546020820152601282015460408201526013909101546001600160a01b03166060909101526101a0810151909150421180156123025750600781610140015160078111156122ff576122ff614e2b565b14155b156123105750600792915050565b610140015192915050565b50919050565b6000908152600e60205260409020600301546001600160a01b0391821691161490565b61234c6142bb565b61235582614360565b61235f8282614368565b5050565b600061236d614425565b50600080516020615f2683398151915290565b6001546001600160a01b03163314806123a357506000546001600160a01b031633145b806123ad57503330145b6123c95760405162461bcd60e51b8152600401610e8b90615798565b6001600160a01b03821661242e5760405162461bcd60e51b815260206004820152602660248201527f546869732073686f7720646f6573206e6f742061636365707420455448207061604482015265796d656e747360d01b6064820152608401610e8b565b6000848152601860205260409020546001600160a01b038381169116146124a55760405162461bcd60e51b815260206004820152602560248201527f4d69736d617463686564207061796d656e7420746f6b656e20666f72207468656044820152642073686f7760d81b6064820152608401610e8b565b604051636eb1769f60e11b81526001600160a01b0382811660048301523060248301528391859183169063dd62ed3e90604401602060405180830381865afa1580156124f5573d6000803e3d6000fd5b505050506040513d601f19601f820116820180604052508101906125199190615967565b10156125785760405162461bcd60e51b815260206004820152602860248201527f436f6e7472616374206e6f7420617070726f76656420746f207472616e7366656044820152677220746f6b656e7360c01b6064820152608401610e8b565b6040516323b872dd60e01b81526001600160a01b038381166004830152306024830152604482018690528216906323b872dd906064016020604051808303816000875af11580156125cd573d6000803e3d6000fd5b505050506040513d601f19601f820116820180604052508101906125f19190615980565b5060008581526011602090815260408083206001600160a01b038716845290915281208054869290612624908490615844565b909155505060405184815233906001600160a01b0385169087907f5bc5584363e68b8a5b066d0c106bba5606176ce569e835fb8b4dc1ee0bb7f4699060200160405180910390a45050505050565b60008281526017602090815260408083206001600160a01b03851684528252918290208054835181840281018401909452808452606093928301828280156126d957602002820191906000526020600020905b8154815260200190600101908083116126c5575b5050505050905092915050565b6001546001600160a01b031633148061270957506000546001600160a01b031633145b8061271357503330145b61272f5760405162461bcd60e51b8152600401610e8b90615798565b6000838152600e60205260409020600c81015483106127905760405162461bcd60e51b815260206004820152601960248201527f496e76616c6964207469636b6574207469657220696e646578000000000000006044820152606401610e8b565b600081600c0184815481106127a7576127a761588c565b90600052602060002090600302019050828160020154101561281d5760405162461bcd60e51b815260206004820152602960248201527f4e6f7420656e6f756768207469636b65747320617661696c61626c6520696e206044820152683a3434b9903a34b2b960b91b6064820152608401610e8b565b828160020160008282546128319190615879565b9091555050604051838152849086907fb23124a400670af3347ce475459c187bbba871f316e2d1d91ae115a762def02090602001611e35565b61287261446e565b61287c60006144c9565b565b6000546001600160a01b031633146128a85760405162461bcd60e51b8152600401610e8b9061599d565b6000828152601460205260409020546128c2908290615844565b6000928352601460205260409092209190915550565b6017602052826000526040600020602052816000526040600020818154811061290057600080fd5b9060005260206000200160009250925050505481565b6000828152600e60205260408120600c0154606091908190841061297c5760405162461bcd60e51b815260206004820152601860248201527f5469657220696e646578206f7574206f6620626f756e647300000000000000006044820152606401610e8b565b6000858152600e60205260408120600c0180548690811061299f5761299f61588c565b9060005260206000209060030201905080600001816001015482600201548280546129c99061590f565b80601f01602080910402602001604051908101604052809291908181526020018280546129f59061590f565b8015612a425780601f10612a1757610100808354040283529160200191612a42565b820191906000526020600020905b815481529060010190602001808311612a2557829003601f168201915b50505050509250935093509350509250925092565b600a54600090600160a01b900460ff16612ab35760405162461bcd60e51b815260206004820152601e60248201527f436f6e747261637420616464726573736573206d7573742062652073657400006044820152606401610e8b565b60008b5111612af75760405162461bcd60e51b815260206004820152601060248201526f13985b59481a5cc81c995c5d5a5c995960821b6044820152606401610e8b565b60008711612b535760405162461bcd60e51b815260206004820152602360248201527f56656e756520726164697573206d75737420626520677265617465722074686160448201526206e20360ec1b6064820152608401610e8b565b60008511612bb15760405162461bcd60e51b815260206004820152602560248201527f546f74616c206361706163697479206d75737420626520677265617465722074604482015264068616e20360dc1b6064820152608401610e8b565b6000895111612c025760405162461bcd60e51b815260206004820152601c60248201527f4174206c65617374206f6e6520617274697374207265717569726564000000006044820152606401610e8b565b60328660ff1610158015612c1a575060648660ff1611155b612c7c5760405162461bcd60e51b815260206004820152602d60248201527f53656c6c2d6f7574207468726573686f6c64206d75737420626520626574776560448201526c0656e20353020616e642031303609c1b6064820152608401610e8b565b875163055d4a7f1913801590612c975750875163055d4a8012155b612cd65760405162461bcd60e51b815260206004820152601060248201526f496e76616c6964206c6174697475646560801b6044820152606401610e8b565b630aba94ff19886020015112158015612cf75750630aba9500886020015113155b612d375760405162461bcd60e51b8152602060048201526011602482015270496e76616c6964206c6f6e67697475646560781b6044820152606401610e8b565b612d403361453a565b612d8c5760405162461bcd60e51b815260206004820152601c60248201527f4f7267616e697a6572206d7573742062652072656769737465726564000000006044820152606401610e8b565b60005b8951811015612e1857612dba8a8281518110612dad57612dad61588c565b60200260200101516145ca565b612e065760405162461bcd60e51b815260206004820152601e60248201527f416c6c2061727469737473206d757374206265207265676973746572656400006044820152606401610e8b565b80612e10816158b9565b915050612d8f565b50612e24838a51614600565b612e2e8486614747565b87516020808a0151604051612e4f9333938e9391928d918d918d91016159ec565b60408051601f1981840301815291815281516020928301206000818152600e909352912081815590915060018101612e878d82615ab3565b5060028101612e968c82615ab3565b506003810180546001600160a01b031916331790558951612ec090600483019060208d0190614be6565b506040805160c081018252600060a08201818152808352602083018d90529282018990526060820181905260808201529060058301908190612f029082615ab3565b506020828101518051600184015581015160028301556040830151600383015560608301516004830180546001600160a01b0319166001600160a01b03909216919091179055608090920151600590910155600b820189905560ff8816600d830155600e8201879055600f8201805461ffff19166101001790558451612f9091601084019190870190614c4b565b50612f9e4262278d00615844565b60118201556000601282018190556013820180546001600160a01b0386166001600160a01b03199182168117909255848352601860205260408320805490911690911790555b855181101561305e5781600c018682815181106130035761300361588c565b602090810291909101810151825460018101845560009384529190922082516003909202019081906130359082615ab3565b506020820151600182015560409091015160029091015580613056816158b9565b915050612fe4565b5060005b8a518110156130d5576000838152600f602052604081208c51600192908e90859081106130915761309161588c565b6020908102919091018101516001600160a01b03168252810191909152604001600020805460ff1916911515919091179055806130cd816158b9565b915050613062565b50600d80549060006130e6836158b9565b9190505550336001600160a01b0316827fb627fd710eb93733196a5e4d106fc18af287574dcaa2cb48d76bc40d09145b498e8d8f8c8a8d60405161312f96959493929190615b72565b60405180910390a3509a9950505050505050505050565b6001546001600160a01b031633148061316957506000546001600160a01b031633145b8061317357503330145b61318f5760405162461bcd60e51b8152600401610e8b90615798565b600081815260106020526040812080543492906131ad908490615844565b909155505050565b6000818152600e60205260408120600401546131d2816001615844565b9392505050565b6000546001600160a01b031633146132035760405162461bcd60e51b8152600401610e8b9061599d565b6000928352601560209081526040808520938552929052912055565b6001546001600160a01b031633146132495760405162461bcd60e51b8152600401610e8b9061599d565b6000828152600e60205260408120600f015460ff16600781111561326f5761326f614e2b565b14806132a0575060026000838152600e60205260409020600f015460ff16600781111561329e5761329e614e2b565b145b61331e5760405162461bcd60e51b815260206004820152604360248201527f56656e75652063616e206f6e6c79206265207570646174656420666f7220736860448201527f6f777320696e2050726f706f736564206f7220416363657074656420737461746064820152623ab99760e91b608482015260a401610e8b565b6000828152600e60205260409020819060050161333b8282615ca8565b905050817ff199f58c6628f3436415ab64e2d1e914a5e79b5ce23d59be2970b2fe46034a6182604051610ef79190615d7e565b7ff0c57e16840df040f15088dc2f81fe391c3923bec73e23a9662efc9c229c6a008054600160401b810460ff1615906001600160401b03166000811580156133b35750825b90506000826001600160401b031660011480156133cf5750303b155b9050811580156133dd575080155b156133fb5760405163f92ee8a960e01b815260040160405180910390fd5b845467ffffffffffffffff19166001178555831561342557845460ff60401b1916600160401b1785555b61342d6147fe565b6134368661480e565b600b80546001600160a01b0319166001600160a01b038816179055831561349757845460ff60401b19168555604051600181527fc7f505b2f371ae2175ee4913f4499e1f2633a7b5936321eed1cdaeb6115181d29060200160405180910390a15b505050505050565b6000546001600160a01b031633146134c95760405162461bcd60e51b8152600401610e8b9061599d565b60009384526016602090815260408086206001600160a01b03959095168652938152838520928552919091529120805460ff1916911515919091179055565b806135133382612321565b8061352357506135233382610e15565b61353f5760405162461bcd60e51b8152600401610e8b90615806565b6000828152600e602052604090206004600f82015460ff16600781111561356857613568614e2b565b146135ae5760405162461bcd60e51b815260206004820152601660248201527514da1bddc81b5d5cdd0818994810dbdb5c1b195d195960521b6044820152606401610e8b565b60128101546135bf9061012c615844565b42101561360e5760405162461bcd60e51b815260206004820152601c60248201527f53686f7720636f6f6c20646f776e20686173206e6f7420656e646564000000006044820152606401610e8b565b60008381526018602090815260408083205460138352818420338552909252909120546001600160a01b0390911690806136815760405162461bcd60e51b81526020600482015260146024820152734e6f2066756e647320746f20776974686472617760601b6044820152606401610e8b565b60008581526013602090815260408083203384529091528120556001600160a01b0382166136dc57604051339082156108fc029083906000818181858888f193505050501580156136d6573d6000803e3d6000fd5b5061374f565b60405163a9059cbb60e01b8152336004820152602481018290526001600160a01b0383169063a9059cbb906044016020604051808303816000875af1158015613729573d6000803e3d6000fd5b505050506040513d601f19601f8201168201806040525081019061374d9190615980565b505b604080518281526001600160a01b0384166020820152339187917f41211792ac12581294dfaa383a54e630322f08f25e558828f6d5e0979ac3eb239101611e35565b6000546001600160a01b031633146137bb5760405162461bcd60e51b8152600401610e8b9061599d565b60009283526017602090815260408085206001600160a01b0390941685529281529183208054600181018255908452919092200155565b6001546001600160a01b031633148061381557506000546001600160a01b031633145b8061381f57503330145b61383b5760405162461bcd60e51b8152600401610e8b90615798565b6000818152600e60208181526040808420601490925290922054600d830154918301549091613869916158a2565b6138748260646158a2565b1061388457613884836001610e42565b505050565b61389161481f565b6000818152600e602052604090206006600f82015460ff1660078111156138ba576138ba614e2b565b14806138de57506007600f82015460ff1660078111156138dc576138dc614e2b565b145b8061390157506005600f82015460ff1660078111156138ff576138ff614e2b565b145b8061392457506000600f82015460ff16600781111561392257613922614e2b565b145b6139875760405162461bcd60e51b815260206004820152602e60248201527f526566756e647320617265206e6f7420617661696c61626c6520666f7220746860448201526d69732073686f772073746174757360901b6064820152608401610e8b565b60008281526018602090815260408083205460128352818420338552909252909120546001600160a01b0390911690806139fa5760405162461bcd60e51b81526020600482015260146024820152734e6f2066756e647320746f20776974686472617760601b6044820152606401610e8b565b60008481526012602090815260408083203384529091528120556001600160a01b038216613ab45780471015613a815760405162461bcd60e51b815260206004820152602660248201527f496e73756666696369656e74204554482066756e647320696e2074686520636f6044820152651b9d1c9858dd60d21b6064820152608401610e8b565b604051339082156108fc029083906000818181858888f19350505050158015613aae573d6000803e3d6000fd5b50613bf3565b6040516370a0823160e01b8152306004820152829082906001600160a01b038316906370a0823190602401602060405180830381865afa158015613afc573d6000803e3d6000fd5b505050506040513d601f19601f82011682018060405250810190613b209190615967565b1015613b7f5760405162461bcd60e51b815260206004820152602860248201527f496e73756666696369656e7420746f6b656e2066756e647320696e207468652060448201526718dbdb9d1c9858dd60c21b6064820152608401610e8b565b60405163a9059cbb60e01b8152336004820152602481018390526001600160a01b0382169063a9059cbb906044016020604051808303816000875af1158015613bcc573d6000803e3d6000fd5b505050506040513d601f19601f82011682018060405250810190613bf09190615980565b50505b604051818152849033907fa4d59773de0ef2d6faf35ac70331de09c09cb20909bf7453dd0d620524bd1fc99060200160405180910390a3505050613c5660017f9b779b17422d0df92223018b32b4d1fa46e071723d6817e2486d003becc55f0055565b50565b80613c643382612321565b80613c745750613c743382610e15565b613c905760405162461bcd60e51b8152600401610e8b90615806565b6000828152600e602052604090206001600f82015460ff166007811115613cb957613cb9614e2b565b1480613cdd57506002600f82015460ff166007811115613cdb57613cdb614e2b565b145b80613d0057506003600f82015460ff166007811115613cfe57613cfe614e2b565b145b613d435760405162461bcd60e51b815260206004820152601460248201527353686f77206d7573742062652050656e64696e6760601b6044820152606401610e8b565b600f8101805460ff19166005179055600d8054906000613d62836158f8565b9190505550505050565b613d7461446e565b6001600160a01b038116613d9e57604051631e4fbdf760e01b815260006004820152602401610e8b565b613c56816144c9565b600a54600160a01b900460ff1615613e015760405162461bcd60e51b815260206004820152601e60248201527f50726f746f636f6c2061646472657373657320616c72656164792073657400006044820152606401610e8b565b600080546001600160a01b039788166001600160a01b031991821681179092556001805497891697821697909717909655600680548716909117905560078054948716948616949094179093556008805492861692851692909217909155600980549185169190931617909155600a80546001600160a81b0319169190921617600160a01b179055565b600e6020526000908152604090208054600182018054919291613ead9061590f565b80601f0160208091040260200160405190810160405280929190818152602001828054613ed99061590f565b8015613f265780601f10613efb57610100808354040283529160200191613f26565b820191906000526020600020905b815481529060010190602001808311613f0957829003601f168201915b505050505090806002018054613f3b9061590f565b80601f0160208091040260200160405190810160405280929190818152602001828054613f679061590f565b8015613fb45780601f10613f8957610100808354040283529160200191613fb4565b820191906000526020600020905b815481529060010190602001808311613f9757829003601f168201915b5050505050908060030160009054906101000a90046001600160a01b031690806005016040518060a0016040529081600082018054613ff29061590f565b80601f016020809104026020016040519081016040528092919081815260200182805461401e9061590f565b801561406b5780601f106140405761010080835404028352916020019161406b565b820191906000526020600020905b81548152906001019060200180831161404e57829003601f168201915b505050918352505060408051808201825260018401548152600284015460208281019190915283015260038301549082015260048201546001600160a01b039081166060830152600590920154608090910152600b830154600d840154600e850154600f86015460118701546012880154601390980154969794969395929460ff80841695610100909404169391929091168d565b6000838152600e602090815260408083206014909252822080549192614125836158f8565b909155505060008481526010602052604081208054849290614148908490615879565b9091555050600084815260126020908152604080832033845290915281208054849290614176908490615844565b9091555050600084815260146020526040812054600d830154600e8401549192916064916141a3916158a2565b6141ad9190615857565b905080821080156141d657506001600f84015460ff1660078111156141d4576141d4614e2b565b145b1561422357600f8301805460ff1916905560405186907f8ed894b6f384ca9c829b9aa5b056bc9106a90845a15616607e975d4ad488ee679061421a90600090614fc6565b60405180910390a25b600086815260156020908152604080832088845290915281205561424886338761488f565b6006546040516387f9ca5d60e01b815260048101879052600160248201523360448201526001600160a01b03909116906387f9ca5d90606401600060405180830381600087803b15801561429b57600080fd5b505af11580156142af573d6000803e3d6000fd5b50505050505050505050565b306001600160a01b037f000000000000000000000000000000000000000000000000000000000000000016148061434257507f00000000000000000000000000000000000000000000000000000000000000006001600160a01b0316614336600080516020615f26833981519152546001600160a01b031690565b6001600160a01b031614155b1561287c5760405163703e46dd60e11b815260040160405180910390fd5b613c5661446e565b816001600160a01b03166352d1902d6040518163ffffffff1660e01b8152600401602060405180830381865afa9250505080156143c2575060408051601f3d908101601f191682019092526143bf91810190615967565b60015b6143ea57604051634c9c8ce360e01b81526001600160a01b0383166004820152602401610e8b565b600080516020615f26833981519152811461441b57604051632a87526960e21b815260048101829052602401610e8b565b613884838361496e565b306001600160a01b037f0000000000000000000000000000000000000000000000000000000000000000161461287c5760405163703e46dd60e11b815260040160405180910390fd5b336144a07f9016d09d72d40fdae2fd8ceac6b6234c7706214fd39c1cd1e609a0528c199300546001600160a01b031690565b6001600160a01b03161461287c5760405163118cdaa760e01b8152336004820152602401610e8b565b7f9016d09d72d40fdae2fd8ceac6b6234c7706214fd39c1cd1e609a0528c19930080546001600160a01b031981166001600160a01b03848116918217845560405192169182907f8be0079c531659141344cd1fd0a4f28419497f9722a3daafe3b4186f6b6457e090600090a3505050565b600954604051634092f2b760e01b81526001600160a01b0383811660048301526000928392911690634092f2b7906024015b600060405180830381865afa158015614589573d6000803e3d6000fd5b505050506040513d6000823e601f3d908101601f191682016040526145b19190810190615e7c565b6001600160a01b03908116951694909414949350505050565b600854604051632e52720160e21b81526001600160a01b038381166004830152600092839291169063b949c8049060240161456c565b61460b816002615844565b8251146146a65760405162461bcd60e51b815260206004820152605a60248201527f53706c6974206172726179206d75737420686176652061206c656e677468206560448201527f7175616c20746f20746865206e756d626572206f66206172746973747320706c60648201527f7573203220286f7267616e697a657220616e642076656e756529000000000000608482015260a401610e8b565b6000805b83518110156146ec578381815181106146c5576146c561588c565b6020026020010151826146d89190615844565b9150806146e4816158b9565b9150506146aa565b50806064146138845760405162461bcd60e51b815260206004820152602160248201527f53706c69742070657263656e7461676573206d7573742073756d20746f2031306044820152600360fc1b6064820152608401610e8b565b6000805b8351811015614791578381815181106147665761476661588c565b6020026020010151604001518261477d9190615844565b915080614789816158b9565b91505061474b565b508181146138845760405162461bcd60e51b815260206004820152603460248201527f546f74616c207469636b657473206163726f7373207469657273206d75737420604482015273657175616c20746f74616c20636170616369747960601b6064820152608401610e8b565b6148066149c4565b61287c614a0d565b6148166149c4565b613c5681614a15565b7f9b779b17422d0df92223018b32b4d1fa46e071723d6817e2486d003becc55f0080546001190161486357604051633ee5aeb560e01b815260040160405180910390fd5b60029055565b60017f9b779b17422d0df92223018b32b4d1fa46e071723d6817e2486d003becc55f0055565b60008381526017602090815260408083206001600160a01b03861684529091528120905b815481101561496757828282815481106148cf576148cf61588c565b90600052602060002001540361495557815482906148ef90600190615879565b815481106148ff576148ff61588c565b906000526020600020015482828154811061491c5761491c61588c565b90600052602060002001819055508180548061493a5761493a615ef3565b60019003818190600052602060002001600090559055614967565b8061495f816158b9565b9150506148b3565b5050505050565b61497782614a1d565b6040516001600160a01b038316907fbc7cd75a20ee27fd9adebab32041f755214dbc6bffa90cc0225b39da2e5c2d3b90600090a28051156149bc576138848282614a82565b61235f614af8565b7ff0c57e16840df040f15088dc2f81fe391c3923bec73e23a9662efc9c229c6a0054600160401b900460ff1661287c57604051631afcd79f60e31b815260040160405180910390fd5b6148696149c4565b613d746149c4565b806001600160a01b03163b600003614a5357604051634c9c8ce360e01b81526001600160a01b0382166004820152602401610e8b565b600080516020615f2683398151915280546001600160a01b0319166001600160a01b0392909216919091179055565b6060600080846001600160a01b031684604051614a9f9190615f09565b600060405180830381855af49150503d8060008114614ada576040519150601f19603f3d011682016040523d82523d6000602084013e614adf565b606091505b5091509150614aef858383614b17565b95945050505050565b341561287c5760405163b398979f60e01b815260040160405180910390fd5b606082614b2c57614b2782614b73565b6131d2565b8151158015614b4357506001600160a01b0384163b155b15614b6c57604051639996b31560e01b81526001600160a01b0385166004820152602401610e8b565b50806131d2565b805115614b835780518082602001fd5b604051630a12f52160e11b815260040160405180910390fd5b6040518060a0016040528060608152602001614bcb604051806040016040528060008152602001600081525090565b81526000602082018190526040820181905260609091015290565b828054828255906000526020600020908101928215614c3b579160200282015b82811115614c3b57825182546001600160a01b0319166001600160a01b03909116178255602090920191600190910190614c06565b50614c47929150614c86565b5090565b828054828255906000526020600020908101928215614c3b579160200282015b82811115614c3b578251825591602001919060010190614c6b565b5b80821115614c475760008155600101614c87565b6001600160a01b0381168114613c5657600080fd5b8035614cbb81614c9b565b919050565b60008060408385031215614cd357600080fd5b8235614cde81614c9b565b946020939093013593505050565b60008060408385031215614cff57600080fd5b82359150602083013560088110614d1557600080fd5b809150509250929050565b600060208284031215614d3257600080fd5b5035919050565b60005b83811015614d54578181015183820152602001614d3c565b50506000910152565b60008151808452614d75816020860160208601614d39565b601f01601f19169290920160200192915050565b600081518084526020808501945080840160005b83811015614dc25781516001600160a01b031687529582019590820190600101614d9d565b509495945050505050565b6000815160c08452614de260c0850182614d5d565b905060208301518051602086015260208101516040860152506040830151606085015260018060a01b036060840151166080850152608083015160a08501528091505092915050565b634e487b7160e01b600052602160045260246000fd5b60088110614e5f57634e487b7160e01b600052602160045260246000fd5b9052565b6000610160808352614e778184018f614d5d565b9050602083820381850152614e8c828f614d5d565b9150604060018060a01b038e1681860152606085840381870152614eb0848f614d89565b93508584036080870152614ec4848e614dcd565b935085840360a0870152838c518086528486019150848160051b870101858f0160005b83811015614f3057888303601f1901855281518051878552614f0b88860182614d5d565b828b0151868c0152918901519489019490945294880194925090870190600101614ee7565b5050809750505050505050508660c08301528560e0830152614f56610100830186614e41565b8315156101208301526001600160a01b0383166101408301529c9b505050505050505050505050565b60008060408385031215614f9257600080fd5b50508035926020909101359150565b60008060408385031215614fb457600080fd5b823591506020830135614d1581614c9b565b60208101610e3c8284614e41565b634e487b7160e01b600052604160045260246000fd5b604051606081016001600160401b038111828210171561500c5761500c614fd4565b60405290565b604051601f8201601f191681016001600160401b038111828210171561503a5761503a614fd4565b604052919050565b60006001600160401b0382111561505b5761505b614fd4565b50601f01601f191660200190565b600061507c61507784615042565b615012565b905082815283838301111561509057600080fd5b828260208301376000602084830101529392505050565b600080604083850312156150ba57600080fd5b82356150c581614c9b565b915060208301356001600160401b038111156150e057600080fd5b8301601f810185136150f157600080fd5b61510085823560208401615069565b9150509250929050565b6000806000806080858703121561512057600080fd5b8435935060208501359250604085013561513981614c9b565b9150606085013561514981614c9b565b939692955090935050565b600081518084526020808501945080840160005b83811015614dc257815187529582019590820190600101615168565b6020815260006131d26020830184615154565b6000806000606084860312156151ac57600080fd5b505081359360208301359350604090920135919050565b6000806000606084860312156151d857600080fd5b8335925060208401356151ea81614c9b565b929592945050506040919091013590565b60608152600061520e6060830186614d5d565b60208301949094525060400152919050565b600082601f83011261523157600080fd5b6131d283833560208501615069565b60006001600160401b0382111561525957615259614fd4565b5060051b60200190565b600082601f83011261527457600080fd5b8135602061528461507783615240565b82815260059290921b840181019181810190868411156152a357600080fd5b8286015b848110156152c75780356152ba81614c9b565b83529183019183016152a7565b509695505050505050565b6000604082840312156152e457600080fd5b604051604081018181106001600160401b038211171561530657615306614fd4565b604052823581526020928301359281019290925250919050565b803560ff81168114614cbb57600080fd5b600082601f83011261534257600080fd5b8135602061535261507783615240565b82815260059290921b8401810191818101908684111561537157600080fd5b8286015b848110156152c75780356001600160401b03808211156153955760008081fd5b908801906060828b03601f19018113156153af5760008081fd5b6153b7614fea565b87840135838111156153c95760008081fd5b6153d78d8a83880101615220565b82525060408481013589830152919093013590830152508352918301918301615375565b600082601f83011261540c57600080fd5b8135602061541c61507783615240565b82815260059290921b8401810191818101908684111561543b57600080fd5b8286015b848110156152c7578035835291830191830161543f565b6000806000806000806000806000806101608b8d03121561547657600080fd5b8a356001600160401b038082111561548d57600080fd5b6154998e838f01615220565b9b5060208d01359150808211156154af57600080fd5b6154bb8e838f01615220565b9a5060408d01359150808211156154d157600080fd5b6154dd8e838f01615263565b99506154ec8e60608f016152d2565b985060a08d0135975061550160c08e01615320565b965060e08d013595506101008d013591508082111561551f57600080fd5b61552b8e838f01615331565b94506101208d013591508082111561554257600080fd5b5061554f8d828e016153fb565b92505061555f6101408c01614cb0565b90509295989b9194979a5092959850565b60008060006060848603121561558557600080fd5b833561559081614c9b565b95602085013595506040909401359392505050565b6020815260006131d26020830184614d5d565b600080604083850312156155cb57600080fd5b8235915060208301356001600160401b038111156155e857600080fd5b830160c08186031215614d1557600080fd5b60006020828403121561560c57600080fd5b81356131d281614c9b565b8015158114613c5657600080fd5b6000806000806080858703121561563b57600080fd5b84359350602085013561564d81614c9b565b925060408501359150606085013561514981615617565b60008060008060008060c0878903121561567d57600080fd5b863561568881614c9b565b9550602087013561569881614c9b565b945060408701356156a881614c9b565b935060608701356156b881614c9b565b925060808701356156c881614c9b565b915060a08701356156d881614c9b565b809150509295509295509295565b8d81526101a0602082015260006157016101a083018f614d5d565b8281036040840152615713818f614d5d565b6001600160a01b038e16606085015283810360808501529050615736818d614dcd565b9150508960a08301528860c08301528760e0830152615759610100830188614e41565b85151561012083015284610140830152836101608301526157866101808301846001600160a01b03169052565b9e9d5050505050505050505050505050565b60208082526048908201527f4f6e6c79207468652056656e75652c205469636b657420636f6e74726163742c60408201527f206f72207468697320636f6e74726163742063616e2063616c6c207468697320606082015267333ab731ba34b7b760c11b608082015260a00190565b6020808252600e908201526d139bdd08185d5d1a1bdc9a5e995960921b604082015260600190565b634e487b7160e01b600052601160045260246000fd5b80820180821115610e3c57610e3c61582e565b60008261587457634e487b7160e01b600052601260045260246000fd5b500490565b81810381811115610e3c57610e3c61582e565b634e487b7160e01b600052603260045260246000fd5b8082028115828204841417610e3c57610e3c61582e565b6000600182016158cb576158cb61582e565b5060010190565b6001600160a01b0394909416845260208401929092526040830152606082015260800190565b6000816159075761590761582e565b506000190190565b600181811c9082168061592357607f821691505b60208210810361231b57634e487b7160e01b600052602260045260246000fd5b6000806040838503121561595657600080fd5b505080516020909101519092909150565b60006020828403121561597957600080fd5b5051919050565b60006020828403121561599257600080fd5b81516131d281615617565b6020808252602f908201527f4f6e6c7920746865205469636b657420636f6e74726163742063616e2063616c60408201526e36103a3434b990333ab731ba34b7b760891b606082015260800190565b6bffffffffffffffffffffffff198860601b16815260006014820188516020808b0160005b83811015615a365781516001600160a01b031685529382019390820190600101615a11565b5050988252509687019590955250604085019290925260f81b6001600160f81b031916606084015260618301525060810192915050565b601f82111561388457600081815260208120601f850160051c81016020861015615a945750805b601f850160051c820191505b8181101561349757828155600101615aa0565b81516001600160401b03811115615acc57615acc614fd4565b615ae081615ada845461590f565b84615a6d565b602080601f831160018114615b155760008415615afd5750858301515b600019600386901b1c1916600185901b178555613497565b600085815260208120601f198616915b82811015615b4457888601518255948401946001909101908401615b25565b5085821015615b625787850151600019600388901b60f8161c191681555b5050505050600190811b01905550565b60c081526000615b8560c0830189614d5d565b8281036020840152615b978189614d89565b90508281036040840152615bab8188614d5d565b905060ff861660608401528281036080840152615bc88186615154565b9150508260a0830152979650505050505050565b6001600160401b03831115615bf357615bf3614fd4565b615c0783615c01835461590f565b83615a6d565b6000601f841160018114615c3b5760008515615c235750838201355b600019600387901b1c1916600186901b178355614967565b600083815260209020601f19861690835b82811015615c6c5786850135825560209485019460019092019101615c4c565b5086821015615c895760001960f88860031b161c19848701351681555b505060018560011b0183555050505050565b60008135610e3c81614c9b565b8135601e19833603018112615cbc57600080fd5b820180356001600160401b03811115615cd457600080fd5b602082019150803603821315615ce957600080fd5b615cf4818385615bdc565b5050602082013560018201556040820135600282015560608201356003820155615d47615d2360808401615c9b565b6004830180546001600160a01b0319166001600160a01b0392909216919091179055565b60a082013560058201555050565b81835281816020850137506000828201602090810191909152601f909101601f19169091010190565b6020815260008235601e19843603018112615d9857600080fd5b83016020810190356001600160401b03811115615db457600080fd5b803603821315615dc357600080fd5b60c06020850152615dd860e085018284615d55565b915050615df5604084016020860180358252602090810135910152565b60608401356080840152615e0b60808501614cb0565b6001600160a01b03811660a08501525060a084013560c08401528091505092915050565b600082601f830112615e4057600080fd5b8151615e4e61507782615042565b818152846020838601011115615e6357600080fd5b615e74826020830160208701614d39565b949350505050565b600080600060608486031215615e9157600080fd5b83516001600160401b0380821115615ea857600080fd5b615eb487838801615e2f565b94506020860151915080821115615eca57600080fd5b50615ed786828701615e2f565b9250506040840151615ee881614c9b565b809150509250925092565b634e487b7160e01b600052603160045260246000fd5b60008251615f1b818460208701614d39565b919091019291505056fe360894a13ba1a3210667c828492db98dca3e2076cc3735a920a3ca505d382bbca2646970667358221220e9073d1cfaa44840b99a0a62b153fda694a3620690b14870e95ea1668b83105264736f6c63430008140033","linkReferences":{}},"methodIdentifiers":{"SELLOUT_PROTOCOL_WALLET()":"e30228be","UPGRADE_INTERFACE_VERSION()":"ad3cb1cc","activeShowCount()":"16488906","addTokenIdToWallet(bytes32,address,uint256)":"de44006f","artistRegistryContract()":"41adf3ad","artistRegistryInstance()":"8dea15a1","cancelShow(bytes32)":"ef5023a5","completeShow(bytes32)":"129e086b","consumeTicketTier(bytes32,uint256,uint256)":"644b5e59","depositToVault(bytes32)":"85266635","depositToVaultERC20(bytes32,uint256,address,address)":"5412233f","getNumberOfVoters(bytes32)":"85ffa16c","getOrganizer(bytes32)":"977cb89e","getPendingPayout(bytes32,address)":"42894bcb","getPendingRefund(bytes32,address)":"6e9cacd0","getSellOutThreshold(bytes32)":"1a348e62","getShowById(bytes32)":"27b1bf52","getShowPaymentToken(bytes32)":"d23b85a3","getShowStatus(bytes32)":"46c2c8a7","getTicketPricePaid(bytes32,uint256)":"93d4e100","getTicketTierInfo(bytes32,uint256)":"7e3e3935","getTotalCapacity(bytes32)":"620ec1e4","getTotalTicketsSold(bytes32)":"61041870","getWalletTokenIds(bytes32,address)":"5b9a1e09","hasTicket(address,bytes32)":"5c37da69","initialize(address)":"c4d66de8","isArtist(address,bytes32)":"02c9a8b5","isArtistMapping(bytes32,address)":"bafd4eb0","isOrganizer(address,bytes32)":"4ed372da","isTicketOwner(address,bytes32,uint256)":"a03f4efe","organizerRegistryContract()":"66bc64cd","organizerRegistryInstance()":"1cf2103e","owner()":"8da5cb5b","payout(bytes32)":"cfefb3d5","pendingPayouts(bytes32,address)":"8e70362b","pendingRefunds(bytes32,address)":"5696c07c","proposeShow(string,string,address[],(int256,int256),uint256,uint8,uint256,(string,uint256,uint256)[],uint256[],address)":"824f3e69","proxiableUUID()":"52d1902d","referralContract()":"7dad19db","referralInstance()":"c6ab848a","refundTicket(bytes32,uint256)":"3c60d2d6","renounceOwnership()":"715018a6","setProtocolAddresses(address,address,address,address,address,address)":"f8121873","setTicketOwnership(bytes32,address,uint256,bool)":"c8f67e96","setTicketPricePaid(bytes32,uint256,uint256)":"bd47dc5c","setTotalTicketsSold(bytes32,uint256)":"787d76b8","showPaymentToken(bytes32)":"72958028","showTokenVault(bytes32,address)":"c9e21e5e","showVault(bytes32)":"867e68af","shows(bytes32)":"fca46559","ticketContract()":"58a86e1d","ticketInstance()":"0233ce6a","ticketPricePaid(bytes32,uint256)":"2f18ddfe","totalTicketsSold(bytes32)":"925e8f89","transferOwnership(address)":"f2fde38b","updateShowVenue(bytes32,(string,(int256,int256),uint256,address,bytes32))":"c29e2de4","updateStatus(bytes32,uint8)":"054372ed","updateStatusIfSoldOut(bytes32)":"e6180546","upgradeToAndCall(address,bytes)":"4f1ef286","venueContract()":"51819335","venueRegistryContract()":"31a68da0","venueRegistryInstance()":"703ee4e5","walletToShowToTokenIds(bytes32,address,uint256)":"7d8d6a22","withdrawRefund(bytes32)":"e9acfa7c"},"id":58}