{"abi":[{"type":"function","name":"THE_GARDEN","inputs":[],"outputs":[{"name":"","type":"address","internalType":"address"}],"stateMutability":"view"},{"type":"function","name":"THE_STEWARD","inputs":[],"outputs":[{"name":"","type":"address","internalType":"address"}],"stateMutability":"view"},{"type":"function","name":"boxOfficeContract","inputs":[],"outputs":[{"name":"","type":"address","internalType":"address"}],"stateMutability":"view"},{"type":"function","name":"pendingPayouts","inputs":[{"name":"","type":"bytes32","internalType":"bytes32"},{"name":"","type":"address","internalType":"address"}],"outputs":[{"name":"","type":"uint256","internalType":"uint256"}],"stateMutability":"view"},{"type":"function","name":"pendingRefunds","inputs":[{"name":"","type":"bytes32","internalType":"bytes32"},{"name":"","type":"address","internalType":"address"}],"outputs":[{"name":"","type":"uint256","internalType":"uint256"}],"stateMutability":"view"},{"type":"function","name":"pendingTokenPayouts","inputs":[{"name":"","type":"bytes32","internalType":"bytes32"},{"name":"","type":"address","internalType":"address"},{"name":"","type":"address","internalType":"address"}],"outputs":[{"name":"","type":"uint256","internalType":"uint256"}],"stateMutability":"view"},{"type":"function","name":"pendingTokenRefunds","inputs":[{"name":"","type":"bytes32","internalType":"bytes32"},{"name":"","type":"address","internalType":"address"},{"name":"","type":"address","internalType":"address"}],"outputs":[{"name":"","type":"uint256","internalType":"uint256"}],"stateMutability":"view"},{"type":"function","name":"showContract","inputs":[],"outputs":[{"name":"","type":"address","internalType":"address"}],"stateMutability":"view"},{"type":"function","name":"showInstance","inputs":[],"outputs":[{"name":"","type":"address","internalType":"contract IShow"}],"stateMutability":"view"},{"type":"function","name":"showPaymentTokens","inputs":[{"name":"","type":"bytes32","internalType":"bytes32"}],"outputs":[{"name":"","type":"address","internalType":"address"}],"stateMutability":"view"},{"type":"function","name":"showTokenVault","inputs":[{"name":"","type":"bytes32","internalType":"bytes32"},{"name":"","type":"address","internalType":"address"}],"outputs":[{"name":"","type":"uint256","internalType":"uint256"}],"stateMutability":"view"},{"type":"function","name":"showVault","inputs":[{"name":"","type":"bytes32","internalType":"bytes32"}],"outputs":[{"name":"","type":"uint256","internalType":"uint256"}],"stateMutability":"view"}],"bytecode":{"object":"0x608060405234801561001057600080fd5b50610342806100206000396000f3fe608060405234801561001057600080fd5b50600436106100b45760003560e01c8063867e68af11610071578063867e68af146101a25780638e70362b146101c257806392ea6388146101ed578063b25e93ff1461021e578063c9e21e5e14610231578063f2e547be1461025c57600080fd5b8063404f49d1146100b9578063486c7eb6146100e95780635696c07c146100fc5780635765fec3146101355780636c92b0221461015e5780637597679514610171575b600080fd5b6003546100cc906001600160a01b031681565b6040516001600160a01b0390911681526020015b60405180910390f35b600b546100cc906001600160a01b031681565b61012761010a36600461028b565b600660209081526000928352604080842090915290825290205481565b6040519081526020016100e0565b6100cc6101433660046102b7565b600a602052600090815260409020546001600160a01b031681565b6002546100cc906001600160a01b031681565b61012761017f3660046102d0565b600960209081526000938452604080852082529284528284209052825290205481565b6101276101b03660046102b7565b60046020526000908152604090205481565b6101276101d036600461028b565b600860209081526000928352604080842090915290825290205481565b6101276101fb3660046102d0565b600760209081526000938452604080852082529284528284209052825290205481565b6001546100cc906001600160a01b031681565b61012761023f36600461028b565b600560209081526000928352604080842090915290825290205481565b6000546100cc906001600160a01b031681565b80356001600160a01b038116811461028657600080fd5b919050565b6000806040838503121561029e57600080fd5b823591506102ae6020840161026f565b90509250929050565b6000602082840312156102c957600080fd5b5035919050565b6000806000606084860312156102e557600080fd5b833592506102f56020850161026f565b91506103036040850161026f565b9050925092509256fea2646970667358221220bb29799ee1cfd205a484b42bfe90cb3ccff52bc46487831219188f062557ca3a64736f6c63430008140033","linkReferences":{}},"methodIdentifiers":{"THE_GARDEN()":"486c7eb6","THE_STEWARD()":"f2e547be","boxOfficeContract()":"6c92b022","pendingPayouts(bytes32,address)":"8e70362b","pendingRefunds(bytes32,address)":"5696c07c","pendingTokenPayouts(bytes32,address,address)":"75976795","pendingTokenRefunds(bytes32,address,address)":"92ea6388","showContract()":"b25e93ff","showInstance()":"404f49d1","showPaymentTokens(bytes32)":"5765fec3","showTokenVault(bytes32,address)":"c9e21e5e","showVault(bytes32)":"867e68af"},"id":93}