{"abi":[{"type":"function","name":"SELLOUT_PROTOCOL_WALLET","inputs":[],"outputs":[{"name":"","type":"address","internalType":"address"}],"stateMutability":"view"},{"type":"function","name":"UPGRADE_INTERFACE_VERSION","inputs":[],"outputs":[{"name":"","type":"string","internalType":"string"}],"stateMutability":"view"},{"type":"function","name":"activeShowCount","inputs":[],"outputs":[{"name":"","type":"uint256","internalType":"uint256"}],"stateMutability":"view"},{"type":"function","name":"addTokenIdToWallet","inputs":[{"name":"showId","type":"bytes32","internalType":"bytes32"},{"name":"wallet","type":"address","internalType":"address"},{"name":"tokenId","type":"uint256","internalType":"uint256"}],"outputs":[],"stateMutability":"nonpayable"},{"type":"function","name":"artistRegistryContract","inputs":[],"outputs":[{"name":"","type":"address","internalType":"address"}],"stateMutability":"view"},{"type":"function","name":"artistRegistryInstance","inputs":[],"outputs":[{"name":"","type":"address","internalType":"contract IArtistRegistry"}],"stateMutability":"view"},{"type":"function","name":"cancelShow","inputs":[{"name":"showId","type":"bytes32","internalType":"bytes32"}],"outputs":[],"stateMutability":"nonpayable"},{"type":"function","name":"completeShow","inputs":[{"name":"showId","type":"bytes32","internalType":"bytes32"}],"outputs":[],"stateMutability":"nonpayable"},{"type":"function","name":"consumeTicketTier","inputs":[{"name":"showId","type":"bytes32","internalType":"bytes32"},{"name":"tierIndex","type":"uint256","internalType":"uint256"},{"name":"amount","type":"uint256","internalType":"uint256"}],"outputs":[],"stateMutability":"nonpayable"},{"type":"function","name":"depositToVault","inputs":[{"name":"showId","type":"bytes32","internalType":"bytes32"}],"outputs":[],"stateMutability":"payable"},{"type":"function","name":"getNumberOfVoters","inputs":[{"name":"showId","type":"bytes32","internalType":"bytes32"}],"outputs":[{"name":"","type":"uint256","internalType":"uint256"}],"stateMutability":"view"},{"type":"function","name":"getOrganizer","inputs":[{"name":"showId","type":"bytes32","internalType":"bytes32"}],"outputs":[{"name":"","type":"address","internalType":"address"}],"stateMutability":"view"},{"type":"function","name":"getPendingRefund","inputs":[{"name":"showId","type":"bytes32","internalType":"bytes32"},{"name":"user","type":"address","internalType":"address"}],"outputs":[{"name":"amountOwed","type":"uint256","internalType":"uint256"}],"stateMutability":"view"},{"type":"function","name":"getSellOutThreshold","inputs":[{"name":"showId","type":"bytes32","internalType":"bytes32"}],"outputs":[{"name":"","type":"uint256","internalType":"uint256"}],"stateMutability":"view"},{"type":"function","name":"getShowById","inputs":[{"name":"showId","type":"bytes32","internalType":"bytes32"}],"outputs":[{"name":"name","type":"string","internalType":"string"},{"name":"description","type":"string","internalType":"string"},{"name":"organizer","type":"address","internalType":"address"},{"name":"artists","type":"address[]","internalType":"address[]"},{"name":"venue","type":"tuple","internalType":"struct VenueTypes.Venue","components":[{"name":"name","type":"string","internalType":"string"},{"name":"coordinates","type":"tuple","internalType":"struct VenueTypes.Coordinates","components":[{"name":"lat","type":"int256","internalType":"int256"},{"name":"lon","type":"int256","internalType":"int256"}]},{"name":"totalCapacity","type":"uint256","internalType":"uint256"},{"name":"wallet","type":"address","internalType":"address"},{"name":"venueId","type":"bytes32","internalType":"bytes32"}]},{"name":"ticketTiers","type":"tuple[]","internalType":"struct ShowTypes.TicketTier[]","components":[{"name":"name","type":"string","internalType":"string"},{"name":"price","type":"uint256","internalType":"uint256"},{"name":"ticketsAvailable","type":"uint256","internalType":"uint256"}]},{"name":"sellOutThreshold","type":"uint256","internalType":"uint256"},{"name":"totalCapacity","type":"uint256","internalType":"uint256"},{"name":"status","type":"uint8","internalType":"enum ShowTypes.Status"},{"name":"isActive","type":"bool","internalType":"bool"}],"stateMutability":"view"},{"type":"function","name":"getShowStatus","inputs":[{"name":"showId","type":"bytes32","internalType":"bytes32"}],"outputs":[{"name":"","type":"uint8","internalType":"enum ShowTypes.Status"}],"stateMutability":"view"},{"type":"function","name":"getTicketPricePaid","inputs":[{"name":"showId","type":"bytes32","internalType":"bytes32"},{"name":"ticketId","type":"uint256","internalType":"uint256"}],"outputs":[{"name":"","type":"uint256","internalType":"uint256"}],"stateMutability":"view"},{"type":"function","name":"getTicketTierInfo","inputs":[{"name":"showId","type":"bytes32","internalType":"bytes32"},{"name":"tierIndex","type":"uint256","internalType":"uint256"}],"outputs":[{"name":"name","type":"string","internalType":"string"},{"name":"price","type":"uint256","internalType":"uint256"},{"name":"ticketsAvailable","type":"uint256","internalType":"uint256"}],"stateMutability":"view"},{"type":"function","name":"getTotalCapacity","inputs":[{"name":"showId","type":"bytes32","internalType":"bytes32"}],"outputs":[{"name":"","type":"uint256","internalType":"uint256"}],"stateMutability":"view"},{"type":"function","name":"getTotalTicketsSold","inputs":[{"name":"showId","type":"bytes32","internalType":"bytes32"}],"outputs":[{"name":"","type":"uint256","internalType":"uint256"}],"stateMutability":"view"},{"type":"function","name":"getWalletTokenIds","inputs":[{"name":"showId","type":"bytes32","internalType":"bytes32"},{"name":"wallet","type":"address","internalType":"address"}],"outputs":[{"name":"","type":"uint256[]","internalType":"uint256[]"}],"stateMutability":"view"},{"type":"function","name":"hasTicket","inputs":[{"name":"wallet","type":"address","internalType":"address"},{"name":"showId","type":"bytes32","internalType":"bytes32"}],"outputs":[{"name":"ownsTicket","type":"bool","internalType":"bool"}],"stateMutability":"view"},{"type":"function","name":"initialize","inputs":[{"name":"_selloutProtocolWallet","type":"address","internalType":"address"}],"outputs":[],"stateMutability":"nonpayable"},{"type":"function","name":"isArtist","inputs":[{"name":"user","type":"address","internalType":"address"},{"name":"showId","type":"bytes32","internalType":"bytes32"}],"outputs":[{"name":"","type":"bool","internalType":"bool"}],"stateMutability":"view"},{"type":"function","name":"isArtistMapping","inputs":[{"name":"","type":"bytes32","internalType":"bytes32"},{"name":"","type":"address","internalType":"address"}],"outputs":[{"name":"","type":"bool","internalType":"bool"}],"stateMutability":"view"},{"type":"function","name":"isOrganizer","inputs":[{"name":"user","type":"address","internalType":"address"},{"name":"showId","type":"bytes32","internalType":"bytes32"}],"outputs":[{"name":"","type":"bool","internalType":"bool"}],"stateMutability":"view"},{"type":"function","name":"isTicketOwner","inputs":[{"name":"owner","type":"address","internalType":"address"},{"name":"showId","type":"bytes32","internalType":"bytes32"},{"name":"ticketId","type":"uint256","internalType":"uint256"}],"outputs":[{"name":"","type":"bool","internalType":"bool"}],"stateMutability":"view"},{"type":"function","name":"organizerRegistryContract","inputs":[],"outputs":[{"name":"","type":"address","internalType":"address"}],"stateMutability":"view"},{"type":"function","name":"organizerRegistryInstance","inputs":[],"outputs":[{"name":"","type":"address","internalType":"contract IOrganizerRegistry"}],"stateMutability":"view"},{"type":"function","name":"owner","inputs":[],"outputs":[{"name":"","type":"address","internalType":"address"}],"stateMutability":"view"},{"type":"function","name":"payout","inputs":[{"name":"showId","type":"bytes32","internalType":"bytes32"}],"outputs":[],"stateMutability":"nonpayable"},{"type":"function","name":"pendingPayouts","inputs":[{"name":"","type":"bytes32","internalType":"bytes32"},{"name":"","type":"address","internalType":"address"}],"outputs":[{"name":"","type":"uint256","internalType":"uint256"}],"stateMutability":"view"},{"type":"function","name":"pendingRefunds","inputs":[{"name":"","type":"bytes32","internalType":"bytes32"},{"name":"","type":"address","internalType":"address"}],"outputs":[{"name":"","type":"uint256","internalType":"uint256"}],"stateMutability":"view"},{"type":"function","name":"proposeShow","inputs":[{"name":"name","type":"string","internalType":"string"},{"name":"description","type":"string","internalType":"string"},{"name":"artists","type":"address[]","internalType":"address[]"},{"name":"coordinates","type":"tuple","internalType":"struct VenueTypes.Coordinates","components":[{"name":"lat","type":"int256","internalType":"int256"},{"name":"lon","type":"int256","internalType":"int256"}]},{"name":"radius","type":"uint256","internalType":"uint256"},{"name":"sellOutThreshold","type":"uint8","internalType":"uint8"},{"name":"totalCapacity","type":"uint256","internalType":"uint256"},{"name":"_ticketTiers","type":"tuple[]","internalType":"struct ShowTypes.TicketTier[]","components":[{"name":"name","type":"string","internalType":"string"},{"name":"price","type":"uint256","internalType":"uint256"},{"name":"ticketsAvailable","type":"uint256","internalType":"uint256"}]},{"name":"split","type":"uint256[]","internalType":"uint256[]"}],"outputs":[{"name":"showId","type":"bytes32","internalType":"bytes32"}],"stateMutability":"nonpayable"},{"type":"function","name":"proxiableUUID","inputs":[],"outputs":[{"name":"","type":"bytes32","internalType":"bytes32"}],"stateMutability":"view"},{"type":"function","name":"referralContract","inputs":[],"outputs":[{"name":"","type":"address","internalType":"address"}],"stateMutability":"view"},{"type":"function","name":"referralInstance","inputs":[],"outputs":[{"name":"","type":"address","internalType":"contract ReferralModule"}],"stateMutability":"view"},{"type":"function","name":"refundTicket","inputs":[{"name":"showId","type":"bytes32","internalType":"bytes32"},{"name":"ticketId","type":"uint256","internalType":"uint256"}],"outputs":[],"stateMutability":"nonpayable"},{"type":"function","name":"renounceOwnership","inputs":[],"outputs":[],"stateMutability":"nonpayable"},{"type":"function","name":"setProtocolAddresses","inputs":[{"name":"_ticketContract","type":"address","internalType":"address"},{"name":"_venueContract","type":"address","internalType":"address"},{"name":"_referralContract","type":"address","internalType":"address"},{"name":"_artistRegistryContract","type":"address","internalType":"address"},{"name":"_organizerRegistryContract","type":"address","internalType":"address"},{"name":"_venueRegistryContract","type":"address","internalType":"address"}],"outputs":[],"stateMutability":"nonpayable"},{"type":"function","name":"setTicketOwnership","inputs":[{"name":"showId","type":"bytes32","internalType":"bytes32"},{"name":"owner","type":"address","internalType":"address"},{"name":"ticketId","type":"uint256","internalType":"uint256"},{"name":"isOwned","type":"bool","internalType":"bool"}],"outputs":[],"stateMutability":"nonpayable"},{"type":"function","name":"setTicketPricePaid","inputs":[{"name":"showId","type":"bytes32","internalType":"bytes32"},{"name":"ticketId","type":"uint256","internalType":"uint256"},{"name":"price","type":"uint256","internalType":"uint256"}],"outputs":[],"stateMutability":"nonpayable"},{"type":"function","name":"setTotalTicketsSold","inputs":[{"name":"showId","type":"bytes32","internalType":"bytes32"},{"name":"amount","type":"uint256","internalType":"uint256"}],"outputs":[],"stateMutability":"nonpayable"},{"type":"function","name":"showTicketTiers","inputs":[{"name":"","type":"bytes32","internalType":"bytes32"},{"name":"","type":"uint256","internalType":"uint256"}],"outputs":[{"name":"name","type":"string","internalType":"string"},{"name":"price","type":"uint256","internalType":"uint256"},{"name":"ticketsAvailable","type":"uint256","internalType":"uint256"}],"stateMutability":"view"},{"type":"function","name":"showVault","inputs":[{"name":"","type":"bytes32","internalType":"bytes32"}],"outputs":[{"name":"","type":"uint256","internalType":"uint256"}],"stateMutability":"view"},{"type":"function","name":"shows","inputs":[{"name":"","type":"bytes32","internalType":"bytes32"}],"outputs":[{"name":"showId","type":"bytes32","internalType":"bytes32"},{"name":"name","type":"string","internalType":"string"},{"name":"description","type":"string","internalType":"string"},{"name":"organizer","type":"address","internalType":"address"},{"name":"venue","type":"tuple","internalType":"struct VenueTypes.Venue","components":[{"name":"name","type":"string","internalType":"string"},{"name":"coordinates","type":"tuple","internalType":"struct VenueTypes.Coordinates","components":[{"name":"lat","type":"int256","internalType":"int256"},{"name":"lon","type":"int256","internalType":"int256"}]},{"name":"totalCapacity","type":"uint256","internalType":"uint256"},{"name":"wallet","type":"address","internalType":"address"},{"name":"venueId","type":"bytes32","internalType":"bytes32"}]},{"name":"radius","type":"uint256","internalType":"uint256"},{"name":"sellOutThreshold","type":"uint256","internalType":"uint256"},{"name":"totalCapacity","type":"uint256","internalType":"uint256"},{"name":"status","type":"uint8","internalType":"enum ShowTypes.Status"},{"name":"isActive","type":"bool","internalType":"bool"},{"name":"expiry","type":"uint256","internalType":"uint256"},{"name":"showDate","type":"uint256","internalType":"uint256"}],"stateMutability":"view"},{"type":"function","name":"ticketContract","inputs":[],"outputs":[{"name":"","type":"address","internalType":"address"}],"stateMutability":"view"},{"type":"function","name":"ticketInstance","inputs":[],"outputs":[{"name":"","type":"address","internalType":"contract Ticket"}],"stateMutability":"view"},{"type":"function","name":"ticketPricePaid","inputs":[{"name":"","type":"bytes32","internalType":"bytes32"},{"name":"","type":"uint256","internalType":"uint256"}],"outputs":[{"name":"","type":"uint256","internalType":"uint256"}],"stateMutability":"view"},{"type":"function","name":"totalTicketsSold","inputs":[{"name":"","type":"bytes32","internalType":"bytes32"}],"outputs":[{"name":"","type":"uint256","internalType":"uint256"}],"stateMutability":"view"},{"type":"function","name":"transferOwnership","inputs":[{"name":"newOwner","type":"address","internalType":"address"}],"outputs":[],"stateMutability":"nonpayable"},{"type":"function","name":"updateShowVenue","inputs":[{"name":"showId","type":"bytes32","internalType":"bytes32"},{"name":"newVenue","type":"tuple","internalType":"struct VenueTypes.Venue","components":[{"name":"name","type":"string","internalType":"string"},{"name":"coordinates","type":"tuple","internalType":"struct VenueTypes.Coordinates","components":[{"name":"lat","type":"int256","internalType":"int256"},{"name":"lon","type":"int256","internalType":"int256"}]},{"name":"totalCapacity","type":"uint256","internalType":"uint256"},{"name":"wallet","type":"address","internalType":"address"},{"name":"venueId","type":"bytes32","internalType":"bytes32"}]}],"outputs":[],"stateMutability":"nonpayable"},{"type":"function","name":"updateStatus","inputs":[{"name":"showId","type":"bytes32","internalType":"bytes32"},{"name":"_status","type":"uint8","internalType":"enum ShowTypes.Status"}],"outputs":[],"stateMutability":"nonpayable"},{"type":"function","name":"updateStatusIfSoldOut","inputs":[{"name":"showId","type":"bytes32","internalType":"bytes32"}],"outputs":[],"stateMutability":"nonpayable"},{"type":"function","name":"upgradeToAndCall","inputs":[{"name":"newImplementation","type":"address","internalType":"address"},{"name":"data","type":"bytes","internalType":"bytes"}],"outputs":[],"stateMutability":"payable"},{"type":"function","name":"venueContract","inputs":[],"outputs":[{"name":"","type":"address","internalType":"address"}],"stateMutability":"view"},{"type":"function","name":"venueRegistryContract","inputs":[],"outputs":[{"name":"","type":"address","internalType":"address"}],"stateMutability":"view"},{"type":"function","name":"venueRegistryInstance","inputs":[],"outputs":[{"name":"","type":"address","internalType":"contract IVenueRegistry"}],"stateMutability":"view"},{"type":"function","name":"walletToShowToTokenIds","inputs":[{"name":"","type":"bytes32","internalType":"bytes32"},{"name":"","type":"address","internalType":"address"},{"name":"","type":"uint256","internalType":"uint256"}],"outputs":[{"name":"","type":"uint256","internalType":"uint256"}],"stateMutability":"view"},{"type":"function","name":"withdrawRefund","inputs":[{"name":"showId","type":"bytes32","internalType":"bytes32"}],"outputs":[],"stateMutability":"nonpayable"},{"type":"event","name":"ExpiryUpdated","inputs":[{"name":"showId","type":"bytes32","indexed":true,"internalType":"bytes32"},{"name":"expiry","type":"uint256","indexed":false,"internalType":"uint256"}],"anonymous":false},{"type":"event","name":"Initialized","inputs":[{"name":"version","type":"uint64","indexed":false,"internalType":"uint64"}],"anonymous":false},{"type":"event","name":"OwnershipTransferred","inputs":[{"name":"previousOwner","type":"address","indexed":true,"internalType":"address"},{"name":"newOwner","type":"address","indexed":true,"internalType":"address"}],"anonymous":false},{"type":"event","name":"RefundWithdrawn","inputs":[{"name":"user","type":"address","indexed":true,"internalType":"address"},{"name":"showId","type":"bytes32","indexed":true,"internalType":"bytes32"},{"name":"amount","type":"uint256","indexed":false,"internalType":"uint256"}],"anonymous":false},{"type":"event","name":"ShowExpired","inputs":[{"name":"showId","type":"bytes32","indexed":true,"internalType":"bytes32"}],"anonymous":false},{"type":"event","name":"ShowProposed","inputs":[{"name":"showId","type":"bytes32","indexed":true,"internalType":"bytes32"},{"name":"organizer","type":"address","indexed":true,"internalType":"address"},{"name":"name","type":"string","indexed":false,"internalType":"string"},{"name":"artists","type":"address[]","indexed":false,"internalType":"address[]"},{"name":"description","type":"string","indexed":false,"internalType":"string"},{"name":"sellOutThreshold","type":"uint256","indexed":false,"internalType":"uint256"},{"name":"split","type":"uint256[]","indexed":false,"internalType":"uint256[]"},{"name":"totalCapacity","type":"uint256","indexed":false,"internalType":"uint256"}],"anonymous":false},{"type":"event","name":"StatusUpdated","inputs":[{"name":"showId","type":"bytes32","indexed":true,"internalType":"bytes32"},{"name":"status","type":"uint8","indexed":false,"internalType":"enum ShowTypes.Status"}],"anonymous":false},{"type":"event","name":"TicketRefunded","inputs":[{"name":"user","type":"address","indexed":true,"internalType":"address"},{"name":"showId","type":"bytes32","indexed":true,"internalType":"bytes32"},{"name":"refundAmount","type":"uint256","indexed":false,"internalType":"uint256"}],"anonymous":false},{"type":"event","name":"TicketTierConsumed","inputs":[{"name":"showId","type":"bytes32","indexed":true,"internalType":"bytes32"},{"name":"tierIndex","type":"uint256","indexed":true,"internalType":"uint256"},{"name":"amount","type":"uint256","indexed":false,"internalType":"uint256"}],"anonymous":false},{"type":"event","name":"Upgraded","inputs":[{"name":"implementation","type":"address","indexed":true,"internalType":"address"}],"anonymous":false},{"type":"event","name":"VenueUpdated","inputs":[{"name":"showId","type":"bytes32","indexed":true,"internalType":"bytes32"},{"name":"newVenue","type":"tuple","indexed":false,"internalType":"struct VenueTypes.Venue","components":[{"name":"name","type":"string","internalType":"string"},{"name":"coordinates","type":"tuple","internalType":"struct VenueTypes.Coordinates","components":[{"name":"lat","type":"int256","internalType":"int256"},{"name":"lon","type":"int256","internalType":"int256"}]},{"name":"totalCapacity","type":"uint256","internalType":"uint256"},{"name":"wallet","type":"address","internalType":"address"},{"name":"venueId","type":"bytes32","internalType":"bytes32"}]}],"anonymous":false},{"type":"event","name":"Withdrawal","inputs":[{"name":"showId","type":"bytes32","indexed":true,"internalType":"bytes32"},{"name":"recipient","type":"address","indexed":true,"internalType":"address"},{"name":"amount","type":"uint256","indexed":false,"internalType":"uint256"}],"anonymous":false},{"type":"error","name":"AddressEmptyCode","inputs":[{"name":"target","type":"address","internalType":"address"}]},{"type":"error","name":"ERC1967InvalidImplementation","inputs":[{"name":"implementation","type":"address","internalType":"address"}]},{"type":"error","name":"ERC1967NonPayable","inputs":[]},{"type":"error","name":"FailedInnerCall","inputs":[]},{"type":"error","name":"InvalidInitialization","inputs":[]},{"type":"error","name":"NotInitializing","inputs":[]},{"type":"error","name":"OwnableInvalidOwner","inputs":[{"name":"owner","type":"address","internalType":"address"}]},{"type":"error","name":"OwnableUnauthorizedAccount","inputs":[{"name":"account","type":"address","internalType":"address"}]},{"type":"error","name":"ReentrancyGuardReentrantCall","inputs":[]},{"type":"error","name":"UUPSUnauthorizedCallContext","inputs":[]},{"type":"error","name":"UUPSUnsupportedProxiableUUID","inputs":[{"name":"slot","type":"bytes32","internalType":"bytes32"}]}],"bytecode":{"object":"0x60a0604052600a805460ff60a01b191690553060805234801561002157600080fd5b506080516155d96200004c60003960008181613c8801528181613cb10152613df201526155d96000f3fe6080604052600436106103975760003560e01c80637d8d6a22116101dc578063bd47dc5c11610102578063de44006f116100a0578063ef5023a51161006f578063ef5023a514610c68578063f2fde38b14610c88578063f812187314610ca8578063fca4655914610cc857600080fd5b8063de44006f14610be8578063e30228be14610c08578063e618054614610c28578063e9acfa7c14610c4857600080fd5b8063c4d66de8116100dc578063c4d66de814610b68578063c6ab848a14610b88578063c8f67e9614610ba8578063cfefb3d514610bc857600080fd5b8063bd47dc5c14610b08578063be42bd8c14610b28578063c29e2de414610b4857600080fd5b80638dea15a11161017a578063977cb89e11610149578063977cb89e14610a0a578063a03f4efe14610a43578063ad3cb1cc14610a8f578063bafd4eb014610acd57600080fd5b80638dea15a11461094d5780638e70362b1461096d578063925e8f89146109a557806393d4e100146109d257600080fd5b806385266635116101b657806385266635146108b057806385ffa16c146108c3578063867e68af146108e35780638da5cb5b1461091057600080fd5b80637d8d6a22146108415780637dad19db146108615780637e3e39351461088157600080fd5b80634f1ef286116102c1578063610418701161025f5780636e9cacd01161022e5780636e9cacd0146107a9578063703ee4e5146107ec578063715018a61461080c578063787d76b81461082157600080fd5b8063610418701461070b578063620ec1e414610738578063644b5e591461076957806366bc64cd1461078957600080fd5b80635696c07c1161029b5780635696c07c1461064257806358a86e1d1461067a5780635b9a1e091461069a5780635c37da69146106c757600080fd5b80634f1ef286146105fa578063518193351461060d57806352d1902d1461062d57600080fd5b806327b1bf521161033957806341adf3ad1161030857806341adf3ad1461056d57806346c2c8a71461058d578063484dc6ff146105ba5780634ed372da146105da57600080fd5b806327b1bf52146104bf5780632f18ddfe146104f557806331a68da01461052d5780633c60d2d61461054d57600080fd5b8063129e086b11610375578063129e086b1461042b578063164889061461044b5780631a348e621461046f5780631cf2103e1461049f57600080fd5b80630233ce6a1461039c57806302c9a8b5146103d9578063054372ed14610409575b600080fd5b3480156103a857600080fd5b506006546103bc906001600160a01b031681565b6040516001600160a01b0390911681526020015b60405180910390f35b3480156103e557600080fd5b506103f96103f43660046143be565b610d00565b60405190151581526020016103d0565b34801561041557600080fd5b506104296104243660046143ea565b610d2d565b005b34801561043757600080fd5b5061042961044636600461441e565b610dee565b34801561045757600080fd5b50610461600d5481565b6040519081526020016103d0565b34801561047b57600080fd5b5061046161048a36600461441e565b6000908152600e60205260409020600d015490565b3480156104ab57600080fd5b506009546103bc906001600160a01b031681565b3480156104cb57600080fd5b506104df6104da36600461441e565b611374565b6040516103d09a99989796959493929190614561565b34801561050157600080fd5b5061046161051036600461466c565b601560209081526000928352604080842090915290825290205481565b34801561053957600080fd5b506005546103bc906001600160a01b031681565b34801561055957600080fd5b5061042961056836600461466c565b61180c565b34801561057957600080fd5b506003546103bc906001600160a01b031681565b34801561059957600080fd5b506105ad6105a836600461441e565b611acc565b6040516103d0919061468e565b3480156105c657600080fd5b506104616105d53660046149a5565b611f94565b3480156105e657600080fd5b506103f96105f53660046143be565b612641565b610429610608366004614aad565b612664565b34801561061957600080fd5b506001546103bc906001600160a01b031681565b34801561063957600080fd5b50610461612683565b34801561064e57600080fd5b5061046161065d366004614b10565b601260209081526000928352604080842090915290825290205481565b34801561068657600080fd5b506000546103bc906001600160a01b031681565b3480156106a657600080fd5b506106ba6106b5366004614b10565b6126a0565b6040516103d09190614b65565b3480156106d357600080fd5b506103f96106e23660046143be565b60009081526017602090815260408083206001600160a01b039490941683529290522054151590565b34801561071757600080fd5b5061046161072636600461441e565b60009081526014602052604090205490565b34801561074457600080fd5b5061046161075336600461441e565b6000908152600e60208190526040909120015490565b34801561077557600080fd5b50610429610784366004614b78565b612714565b34801561079557600080fd5b506004546103bc906001600160a01b031681565b3480156107b557600080fd5b506104616107c4366004614b10565b60009182526012602090815260408084206001600160a01b0393909316845291905290205490565b3480156107f857600080fd5b50600a546103bc906001600160a01b031681565b34801561081857600080fd5b5061042961289d565b34801561082d57600080fd5b5061042961083c36600461466c565b6128b1565b34801561084d57600080fd5b5061046161085c366004614ba4565b61290b565b34801561086d57600080fd5b506002546103bc906001600160a01b031681565b34801561088d57600080fd5b506108a161089c36600461466c565b612949565b6040516103d093929190614bdc565b6104296108be36600461441e565b612a8a565b3480156108cf57600080fd5b506104616108de36600461441e565b612af9565b3480156108ef57600080fd5b506104616108fe36600461441e565b60116020526000908152604090205481565b34801561091c57600080fd5b507f9016d09d72d40fdae2fd8ceac6b6234c7706214fd39c1cd1e609a0528c199300546001600160a01b03166103bc565b34801561095957600080fd5b506008546103bc906001600160a01b031681565b34801561097957600080fd5b50610461610988366004614b10565b601360209081526000928352604080842090915290825290205481565b3480156109b157600080fd5b506104616109c036600461441e565b60146020526000908152604090205481565b3480156109de57600080fd5b506104616109ed36600461466c565b600091825260156020908152604080842092845291905290205490565b348015610a1657600080fd5b506103bc610a2536600461441e565b6000908152600e60205260409020600301546001600160a01b031690565b348015610a4f57600080fd5b506103f9610a5e366004614c01565b60009182526016602090815260408084206001600160a01b0395909516845293815283832091835252205460ff1690565b348015610a9b57600080fd5b50610ac0604051806040016040528060058152602001640352e302e360dc1b81525081565b6040516103d09190614c36565b348015610ad957600080fd5b506103f9610ae8366004614b10565b601060209081526000928352604080842090915290825290205460ff1681565b348015610b1457600080fd5b50610429610b23366004614b78565b612b1d565b348015610b3457600080fd5b506108a1610b4336600461466c565b612b63565b348015610b5457600080fd5b50610429610b63366004614c49565b612c32565b348015610b7457600080fd5b50610429610b83366004614c8b565b612d45565b348015610b9457600080fd5b506007546103bc906001600160a01b031681565b348015610bb457600080fd5b50610429610bc3366004614ca8565b612e76565b348015610bd457600080fd5b50610429610be336600461441e565b612edf565b348015610bf457600080fd5b50610429610c03366004614ba4565b6130be565b348015610c1457600080fd5b50600b546103bc906001600160a01b031681565b348015610c3457600080fd5b50610429610c4336600461441e565b61311f565b348015610c5457600080fd5b50610429610c6336600461441e565b6131b6565b348015610c7457600080fd5b50610429610c8336600461441e565b613419565b348015610c9457600080fd5b50610429610ca3366004614c8b565b61352c565b348015610cb457600080fd5b50610429610cc3366004614cf7565b613567565b348015610cd457600080fd5b50610ce8610ce336600461441e565b61364b565b6040516103d09c9b9a99989796959493929190614d79565b60008181526010602090815260408083206001600160a01b038616845290915290205460ff165b92915050565b6001546001600160a01b0316331480610d5057506000546001600160a01b031633145b80610d5a57503330145b610d7f5760405162461bcd60e51b8152600401610d7690614e13565b60405180910390fd5b6000828152600e60205260409020600f01805482919060ff19166001836007811115610dad57610dad614529565b0217905550817f8ed894b6f384ca9c829b9aa5b056bc9106a90845a15616607e975d4ad488ee6782604051610de2919061468e565b60405180910390a25050565b80610df93382612641565b80610e095750610e093382610d00565b610e255760405162461bcd60e51b8152600401610d7690614e81565b6000828152600e602052604090206003600f82015460ff166007811115610e4e57610e4e614529565b14610e935760405162461bcd60e51b815260206004820152601560248201527453686f77206d757374206265205570636f6d696e6760581b6044820152606401610d76565b6012810154610ea490610708614ebf565b421015610ef35760405162461bcd60e51b815260206004820152601f60248201527f53686f7720686173206e6f7420796574206265656e20636f6d706c65746564006044820152606401610d76565b60008381526011602052604090205480610f485760405162461bcd60e51b81526020600482015260166024820152754e6f2066756e647320746f206469737472696275746560501b6044820152606401610d76565b600082601001805480602002602001604051908101604052809291908181526020018280548015610f9857602002820191906000526020600020905b815481526020019060010190808311610f84575b505050505090506000606483610fae9190614ed2565b6000878152601360209081526040808320600b546001600160a01b0316845290915290208190559050610fe18184614ef4565b92506000606483600081518110610ffa57610ffa614f07565b60200260200101518561100d9190614f1d565b6110179190614ed2565b600088815260136020908152604080832060038a01546001600160a01b0316845290915281208290559091505b60048601548110156110f2576000606485611060846001614ebf565b8151811061107057611070614f07565b6020026020010151876110839190614f1d565b61108d9190614ed2565b905080601360008b815260200190815260200160002060008960040185815481106110ba576110ba614f07565b60009182526020808320909101546001600160a01b0316835282019290925260400190205550806110ea81614f34565b915050611044565b506000606484600186516111069190614ef4565b8151811061111657611116614f07565b6020026020010151866111299190614f1d565b6111339190614ed2565b600089815260136020908152604080832060098b01546001600160a01b0316845282528083208490558b83526011909152812055600f8701805491925060049160ff19166001830217905550600754600387015460405163416b56db60e01b81526001600160a01b039283169263416b56db926111bc9291169060019081908190600401614f4d565b600060405180830381600087803b1580156111d657600080fd5b505af11580156111ea573d6000803e3d6000fd5b5050505060005b60048701548110156112ab576007546004880180546001600160a01b039092169163416b56db91908490811061122957611229614f07565b6000918252602090912001546040516001600160e01b031960e084901b168152611266916001600160a01b03169060019081908190600401614f4d565b600060405180830381600087803b15801561128057600080fd5b505af1158015611294573d6000803e3d6000fd5b5050505080806112a390614f34565b9150506111f1565b50600754600987015460405163416b56db60e01b81526001600160a01b039283169263416b56db926112e99291169060019081908190600401614f4d565b600060405180830381600087803b15801561130357600080fd5b505af1158015611317573d6000803e3d6000fd5b5050600d805492509050600061132c83614f73565b9190505550877f8ed894b6f384ca9c829b9aa5b056bc9106a90845a15616607e975d4ad488ee676004604051611362919061468e565b60405180910390a25050505050505050565b6060806000606061138361429a565b6000868152600e60205260408120600c810154606092918291829182916001600160401b038111156113b7576113b761469c565b60405190808252806020026020018201604052801561140c57816020015b6113f960405180606001604052806060815260200160008152602001600081525090565b8152602001906001900390816113d55790505b50955060005b600c8201548110156115225781600c01818154811061143357611433614f07565b906000526020600020906003020160405180606001604052908160008201805461145c90614f8a565b80601f016020809104026020016040519081016040528092919081815260200182805461148890614f8a565b80156114d55780601f106114aa576101008083540402835291602001916114d5565b820191906000526020600020905b8154815290600101906020018083116114b857829003601f168201915b505050505081526020016001820154815260200160028201548152505087828151811061150457611504614f07565b6020026020010181905250808061151a90614f34565b915050611412565b506003810154600d820154600e830154600f840154600185018054909460028701946001600160a01b0390911693600488019360058901938e93929160ff8082169261010090920416908a9061157790614f8a565b80601f01602080910402602001604051908101604052809291908181526020018280546115a390614f8a565b80156115f05780601f106115c5576101008083540402835291602001916115f0565b820191906000526020600020905b8154815290600101906020018083116115d357829003601f168201915b5050505050995088805461160390614f8a565b80601f016020809104026020016040519081016040528092919081815260200182805461162f90614f8a565b801561167c5780601f106116515761010080835404028352916020019161167c565b820191906000526020600020905b81548152906001019060200180831161165f57829003601f168201915b50505050509850868054806020026020016040519081016040528092919081815260200182805480156116d857602002820191906000526020600020905b81546001600160a01b031681526001909101906020018083116116ba575b50505050509650856040518060a00160405290816000820180546116fb90614f8a565b80601f016020809104026020016040519081016040528092919081815260200182805461172790614f8a565b80156117745780601f1061174957610100808354040283529160200191611774565b820191906000526020600020905b81548152906001019060200180831161175757829003601f168201915b5050505050815260200160018201604051806040016040529081600082015481526020016001820154815250508152602001600382015481526020016004820160009054906101000a90046001600160a01b03166001600160a01b03166001600160a01b0316815260200160058201548152505095509a509a509a509a509a509a509a509a509a509a50509193959799509193959799565b6000828152600e60205260408120600f015460ff16600781111561183257611832614529565b1480611863575060056000838152600e60205260409020600f015460ff16600781111561186157611861614529565b145b80611893575060076000838152600e60205260409020600f015460ff16600781111561189157611891614529565b145b6118f65760405162461bcd60e51b815260206004820152602e60248201527f46756e647320617265206c6f636b65642064756520746f20746865207374617460448201526d7573206f66207468652073686f7760901b6064820152608401610d76565b6000828152601660209081526040808320338452825280832084845290915290205460ff1661197a5760405162461bcd60e51b815260206004820152602a60248201527f5573657220646f6573206e6f74206f776e20746865207469636b657420666f7260448201526920746869732073686f7760b01b6064820152608401610d76565b600654604051636d1d3b0b60e11b8152600481018490526024810183905260009182916001600160a01b039091169063da3a7616906044016040805180830381865afa1580156119ce573d6000803e3d6000fd5b505050506040513d601f19601f820116820180604052508101906119f29190614fbe565b9150915060008211611a3d5760405162461bcd60e51b8152602060048201526014602482015273151a58dad95d081b9bdd081c1d5c98da185cd95960621b6044820152606401610d76565b6000848152600e60205260409020600c01805482908110611a6057611a60614f07565b600091825260208220600260039092020101805491611a7e83614f34565b9190505550611a8e8484846138b5565b604051828152849033907f6327daeea6ce26abf9f96cd84eee9cb40d1d5b88f7f5990914540e392446bf04906020015b60405180910390a350505050565b6000818152600e6020908152604080832081516101e0810190925280548252600181018054859484019190611b0090614f8a565b80601f0160208091040260200160405190810160405280929190818152602001828054611b2c90614f8a565b8015611b795780601f10611b4e57610100808354040283529160200191611b79565b820191906000526020600020905b815481529060010190602001808311611b5c57829003601f168201915b50505050508152602001600282018054611b9290614f8a565b80601f0160208091040260200160405190810160405280929190818152602001828054611bbe90614f8a565b8015611c0b5780601f10611be057610100808354040283529160200191611c0b565b820191906000526020600020905b815481529060010190602001808311611bee57829003601f168201915b505050918352505060038201546001600160a01b03166020808301919091526004830180546040805182850281018501825282815294019392830182828015611c7d57602002820191906000526020600020905b81546001600160a01b03168152600190910190602001808311611c5f575b50505050508152602001600582016040518060a0016040529081600082018054611ca690614f8a565b80601f0160208091040260200160405190810160405280929190818152602001828054611cd290614f8a565b8015611d1f5780601f10611cf457610100808354040283529160200191611d1f565b820191906000526020600020905b815481529060010190602001808311611d0257829003601f168201915b50505091835250506040805180820182526001840154815260028401546020828101919091528084019190915260038401548284015260048401546001600160a01b03166060840152600590930154608090920191909152918352600b84015483820152600c840180548351818402810184018552818152949093019392909160009084015b82821015611e7d5783829060005260206000209060030201604051806060016040529081600082018054611dd890614f8a565b80601f0160208091040260200160405190810160405280929190818152602001828054611e0490614f8a565b8015611e515780601f10611e2657610100808354040283529160200191611e51565b820191906000526020600020905b815481529060010190602001808311611e3457829003601f168201915b505050505081526020016001820154815260200160028201548152505081526020019060010190611da5565b50505090825250600d8201546020820152600e8201546040820152600f82015460609091019060ff166007811115611eb757611eb7614529565b6007811115611ec857611ec8614529565b8152600f820154610100900460ff1615156020808301919091526010830180546040805182850281018501825282815294019392830182828015611f2b57602002820191906000526020600020905b815481526020019060010190808311611f17575b50505050508152602001601182015481526020016012820154815250509050806101a0015142118015611f75575060078161014001516007811115611f7257611f72614529565b14155b15611f835750600792915050565b610140015192915050565b50919050565b600a54600090600160a01b900460ff16611ff05760405162461bcd60e51b815260206004820152601e60248201527f436f6e747261637420616464726573736573206d7573742062652073657400006044820152606401610d76565b60008a51116120345760405162461bcd60e51b815260206004820152601060248201526f13985b59481a5cc81c995c5d5a5c995960821b6044820152606401610d76565b600086116120905760405162461bcd60e51b815260206004820152602360248201527f56656e756520726164697573206d75737420626520677265617465722074686160448201526206e20360ec1b6064820152608401610d76565b600084116120ee5760405162461bcd60e51b815260206004820152602560248201527f546f74616c206361706163697479206d75737420626520677265617465722074604482015264068616e20360dc1b6064820152608401610d76565b600088511161213f5760405162461bcd60e51b815260206004820152601c60248201527f4174206c65617374206f6e6520617274697374207265717569726564000000006044820152606401610d76565b60328560ff1610158015612157575060648560ff1611155b6121b95760405162461bcd60e51b815260206004820152602d60248201527f53656c6c2d6f7574207468726573686f6c64206d75737420626520626574776560448201526c0656e20353020616e642031303609c1b6064820152608401610d76565b865163055d4a7f19138015906121d45750865163055d4a8012155b6122135760405162461bcd60e51b815260206004820152601060248201526f496e76616c6964206c6174697475646560801b6044820152606401610d76565b630aba94ff198760200151121580156122345750630aba9500876020015113155b6122745760405162461bcd60e51b8152602060048201526011602482015270496e76616c6964206c6f6e67697475646560781b6044820152606401610d76565b61227d33613a70565b6122c95760405162461bcd60e51b815260206004820152601c60248201527f4f7267616e697a6572206d7573742062652072656769737465726564000000006044820152606401610d76565b60005b8851811015612355576122f78982815181106122ea576122ea614f07565b6020026020010151613b00565b6123435760405162461bcd60e51b815260206004820152601e60248201527f416c6c2061727469737473206d757374206265207265676973746572656400006044820152606401610d76565b8061234d81614f34565b9150506122cc565b50612361828951613b36565b86516020808901516040516123829333938d9391928c918c918c9101614fe2565b60408051601f1981840301815291815281516020928301206000818152600e9093529120818155909150600181016123ba8c826150a9565b50600281016123c98b826150a9565b506003810180546001600160a01b0319163317905588516123f390600483019060208c01906142e4565b506040805160c081018252600060a08201818152808352602083018c9052928201889052606082018190526080820152906005830190819061243590826150a9565b506020828101518051600184015581015160028301556040830151600383015560608301516004830180546001600160a01b0319166001600160a01b03909216919091179055608090920151600590910155600b820188905560ff8716600d830155600e8201869055600f8201805461ffff191661010017905583516124c391601084019190860190614349565b506124d14262278d00614ebf565b60118201556000601282018190555b845181101561255a5781600c018582815181106124ff576124ff614f07565b6020908102919091018101518254600181018455600093845291909220825160039092020190819061253190826150a9565b50602082015160018201556040909101516002909101558061255281614f34565b9150506124e0565b5060005b89518110156125d15760008381526010602052604081208b51600192908d908590811061258d5761258d614f07565b6020908102919091018101516001600160a01b03168252810191909152604001600020805460ff1916911515919091179055806125c981614f34565b91505061255e565b50600d80549060006125e283614f34565b9190505550336001600160a01b0316827fb627fd710eb93733196a5e4d106fc18af287574dcaa2cb48d76bc40d09145b498d8c8e8b898c60405161262b96959493929190615168565b60405180910390a3509998505050505050505050565b6000908152600e60205260409020600301546001600160a01b0391821691161490565b61266c613c7d565b61267582613d22565b61267f8282613d2a565b5050565b600061268d613de7565b5060008051602061558483398151915290565b60008281526017602090815260408083206001600160a01b038516845282529182902080548351818402810184019094528084526060939283018282801561270757602002820191906000526020600020905b8154815260200190600101908083116126f3575b5050505050905092915050565b6001546001600160a01b031633148061273757506000546001600160a01b031633145b8061274157503330145b61275d5760405162461bcd60e51b8152600401610d7690614e13565b6000838152600f602052604090205482106127ba5760405162461bcd60e51b815260206004820152601960248201527f496e76616c6964207469636b6574207469657220696e646578000000000000006044820152606401610d76565b6000838152600f602052604081208054849081106127da576127da614f07565b9060005260206000209060030201905081816002015410156128505760405162461bcd60e51b815260206004820152602960248201527f4e6f7420656e6f756768207469636b65747320617661696c61626c6520696e206044820152683a3434b9903a34b2b960b91b6064820152608401610d76565b818160020160008282546128649190614ef4565b9091555050604051828152839085907fb23124a400670af3347ce475459c187bbba871f316e2d1d91ae115a762def02090602001611abe565b6128a5613e30565b6128af6000613e8b565b565b6000546001600160a01b031633146128db5760405162461bcd60e51b8152600401610d76906151d2565b6000828152601460205260409020546128f5908290614ebf565b6000928352601460205260409092209190915550565b6017602052826000526040600020602052816000526040600020818154811061293357600080fd5b9060005260206000200160009250925050505481565b6000828152600e60205260408120600c015460609190819084106129af5760405162461bcd60e51b815260206004820152601860248201527f5469657220696e646578206f7574206f6620626f756e647300000000000000006044820152606401610d76565b6000858152600e60205260408120600c018054869081106129d2576129d2614f07565b9060005260206000209060030201905080600001816001015482600201548280546129fc90614f8a565b80601f0160208091040260200160405190810160405280929190818152602001828054612a2890614f8a565b8015612a755780601f10612a4a57610100808354040283529160200191612a75565b820191906000526020600020905b815481529060010190602001808311612a5857829003601f168201915b50505050509250935093509350509250925092565b6001546001600160a01b0316331480612aad57506000546001600160a01b031633145b80612ab757503330145b612ad35760405162461bcd60e51b8152600401610d7690614e13565b60008181526011602052604081208054349290612af1908490614ebf565b909155505050565b6000818152600e6020526040812060040154612b16816001614ebf565b9392505050565b6000546001600160a01b03163314612b475760405162461bcd60e51b8152600401610d76906151d2565b6000928352601560209081526040808520938552929052912055565b600f6020528160005260406000208181548110612b7f57600080fd5b906000526020600020906003020160009150915050806000018054612ba390614f8a565b80601f0160208091040260200160405190810160405280929190818152602001828054612bcf90614f8a565b8015612c1c5780601f10612bf157610100808354040283529160200191612c1c565b820191906000526020600020905b815481529060010190602001808311612bff57829003601f168201915b5050505050908060010154908060020154905083565b6001546001600160a01b03163314612c5c5760405162461bcd60e51b8152600401610d76906151d2565b6000828152600e60205260408120600f015460ff166007811115612c8257612c82614529565b14612cf55760405162461bcd60e51b815260206004820152603760248201527f56656e75652063616e206f6e6c79206265207570646174656420666f7220736860448201527f6f777320696e2050726f706f736564207374617475732e0000000000000000006064820152608401610d76565b6000828152600e602052604090208190600501612d1282826152ed565b905050817ff199f58c6628f3436415ab64e2d1e914a5e79b5ce23d59be2970b2fe46034a6182604051610de291906153c3565b7ff0c57e16840df040f15088dc2f81fe391c3923bec73e23a9662efc9c229c6a008054600160401b810460ff1615906001600160401b0316600081158015612d8a5750825b90506000826001600160401b03166001148015612da65750303b155b905081158015612db4575080155b15612dd25760405163f92ee8a960e01b815260040160405180910390fd5b845467ffffffffffffffff191660011785558315612dfc57845460ff60401b1916600160401b1785555b612e04613efc565b612e0d86613f0c565b600b80546001600160a01b0319166001600160a01b0388161790558315612e6e57845460ff60401b19168555604051600181527fc7f505b2f371ae2175ee4913f4499e1f2633a7b5936321eed1cdaeb6115181d29060200160405180910390a15b505050505050565b6000546001600160a01b03163314612ea05760405162461bcd60e51b8152600401610d76906151d2565b60009384526016602090815260408086206001600160a01b03959095168652938152838520928552919091529120805460ff1916911515919091179055565b80612eea3382612641565b80612efa5750612efa3382610d00565b612f165760405162461bcd60e51b8152600401610d7690614e81565b6000828152600e602052604090206004600f82015460ff166007811115612f3f57612f3f614529565b14612f855760405162461bcd60e51b815260206004820152601660248201527514da1bddc81b5d5cdd0818994810dbdb5c1b195d195960521b6044820152606401610d76565b6012810154612f969061012c614ebf565b421015612fe55760405162461bcd60e51b815260206004820152601c60248201527f53686f7720636f6f6c20646f776e20686173206e6f7420656e646564000000006044820152606401610d76565b6000838152601360209081526040808320338452909152902054806130435760405162461bcd60e51b81526020600482015260146024820152734e6f2066756e647320746f20776974686472617760601b6044820152606401610d76565b600084815260136020908152604080832033808552925280832083905551909183156108fc02918491818181858888f19350505050158015613089573d6000803e3d6000fd5b50604051818152339085907f028ab133c73f6c00ad0c5896ef40eff18378acd3d7f2ecf573c2706582bf73bf90602001611abe565b6000546001600160a01b031633146130e85760405162461bcd60e51b8152600401610d76906151d2565b60009283526017602090815260408085206001600160a01b0390941685529281529183208054600181018255908452919092200155565b6001546001600160a01b031633148061314257506000546001600160a01b031633145b8061314c57503330145b6131685760405162461bcd60e51b8152600401610d7690614e13565b6000818152600e60208181526040808420601490925290922054600d83015491830154909161319691614f1d565b6131a1826064614f1d565b106131b1576131b1836001610d2d565b505050565b6131be613f1d565b6000818152600e602052604090206006600f82015460ff1660078111156131e7576131e7614529565b148061320b57506007600f82015460ff16600781111561320957613209614529565b145b8061322e57506005600f82015460ff16600781111561322c5761322c614529565b145b8061325157506000600f82015460ff16600781111561324f5761324f614529565b145b6132b45760405162461bcd60e51b815260206004820152602e60248201527f526566756e647320617265206e6f7420617661696c61626c6520666f7220746860448201526d69732073686f772073746174757360901b6064820152608401610d76565b6000828152601260209081526040808320338452909152902054806133125760405162461bcd60e51b81526020600482015260146024820152734e6f2066756e647320746f20776974686472617760601b6044820152606401610d76565b8047101561336d5760405162461bcd60e51b815260206004820152602260248201527f496e73756666696369656e742066756e647320696e2074686520636f6e74726160448201526118dd60f21b6064820152608401610d76565b600083815260126020908152604080832033808552925280832083905551909183156108fc02918491818181858888f193505050501580156133b3573d6000803e3d6000fd5b50604051818152839033907fa4d59773de0ef2d6faf35ac70331de09c09cb20909bf7453dd0d620524bd1fc99060200160405180910390a3505061341660017f9b779b17422d0df92223018b32b4d1fa46e071723d6817e2486d003becc55f0055565b50565b806134243382612641565b8061343457506134343382610d00565b6134505760405162461bcd60e51b8152600401610d7690614e81565b6000828152600e602052604090206001600f82015460ff16600781111561347957613479614529565b148061349d57506002600f82015460ff16600781111561349b5761349b614529565b145b806134c057506003600f82015460ff1660078111156134be576134be614529565b145b6135035760405162461bcd60e51b815260206004820152601460248201527353686f77206d7573742062652050656e64696e6760601b6044820152606401610d76565b600f8101805460ff19166005179055600d805490600061352283614f73565b9190505550505050565b613534613e30565b6001600160a01b03811661355e57604051631e4fbdf760e01b815260006004820152602401610d76565b61341681613e8b565b600a54600160a01b900460ff16156135c15760405162461bcd60e51b815260206004820152601e60248201527f50726f746f636f6c2061646472657373657320616c72656164792073657400006044820152606401610d76565b600080546001600160a01b039788166001600160a01b031991821681179092556001805497891697821697909717909655600680548716909117905560078054948716948616949094179093556008805492861692851692909217909155600980549185169190931617909155600a80546001600160a81b0319169190921617600160a01b179055565b600e602052600090815260409020805460018201805491929161366d90614f8a565b80601f016020809104026020016040519081016040528092919081815260200182805461369990614f8a565b80156136e65780601f106136bb576101008083540402835291602001916136e6565b820191906000526020600020905b8154815290600101906020018083116136c957829003601f168201915b5050505050908060020180546136fb90614f8a565b80601f016020809104026020016040519081016040528092919081815260200182805461372790614f8a565b80156137745780601f1061374957610100808354040283529160200191613774565b820191906000526020600020905b81548152906001019060200180831161375757829003601f168201915b5050505050908060030160009054906101000a90046001600160a01b031690806005016040518060a00160405290816000820180546137b290614f8a565b80601f01602080910402602001604051908101604052809291908181526020018280546137de90614f8a565b801561382b5780601f106138005761010080835404028352916020019161382b565b820191906000526020600020905b81548152906001019060200180831161380e57829003601f168201915b505050918352505060408051808201825260018401548152600284015460208281019190915283015260038301549082015260048201546001600160a01b03166060820152600590910154608090910152600b820154600d830154600e840154600f8501546011860154601290960154949593949293919260ff808316936101009093041691908c565b6000838152600e6020908152604080832060149092528220805491926138da83614f73565b9091555050600084815260116020526040812080548492906138fd908490614ef4565b909155505060008481526012602090815260408083203384529091528120805484929061392b908490614ebf565b9091555050600084815260146020526040812054600d830154600e84015491929160649161395891614f1d565b6139629190614ed2565b9050808210801561398b57506001600f84015460ff16600781111561398957613989614529565b145b156139d857600f8301805460ff1916905560405186907f8ed894b6f384ca9c829b9aa5b056bc9106a90845a15616607e975d4ad488ee67906139cf9060009061468e565b60405180910390a25b60008681526015602090815260408083208884529091528120556139fd863387613f8d565b6006546040516387f9ca5d60e01b815260048101879052600160248201523360448201526001600160a01b03909116906387f9ca5d90606401600060405180830381600087803b158015613a5057600080fd5b505af1158015613a64573d6000803e3d6000fd5b50505050505050505050565b600954604051634092f2b760e01b81526001600160a01b0383811660048301526000928392911690634092f2b7906024015b600060405180830381865afa158015613abf573d6000803e3d6000fd5b505050506040513d6000823e601f3d908101601f19168201604052613ae791908101906154c1565b6001600160a01b03908116951694909414949350505050565b600854604051632e52720160e21b81526001600160a01b038381166004830152600092839291169063b949c80490602401613aa2565b613b41816002614ebf565b825114613bdc5760405162461bcd60e51b815260206004820152605a60248201527f53706c6974206172726179206d75737420686176652061206c656e677468206560448201527f7175616c20746f20746865206e756d626572206f66206172746973747320706c60648201527f7573203220286f7267616e697a657220616e642076656e756529000000000000608482015260a401610d76565b6000805b8351811015613c2257838181518110613bfb57613bfb614f07565b602002602001015182613c0e9190614ebf565b915080613c1a81614f34565b915050613be0565b50806064146131b15760405162461bcd60e51b815260206004820152602160248201527f53706c69742070657263656e7461676573206d7573742073756d20746f2031306044820152600360fc1b6064820152608401610d76565b306001600160a01b037f0000000000000000000000000000000000000000000000000000000000000000161480613d0457507f00000000000000000000000000000000000000000000000000000000000000006001600160a01b0316613cf8600080516020615584833981519152546001600160a01b031690565b6001600160a01b031614155b156128af5760405163703e46dd60e11b815260040160405180910390fd5b613416613e30565b816001600160a01b03166352d1902d6040518163ffffffff1660e01b8152600401602060405180830381865afa925050508015613d84575060408051601f3d908101601f19168201909252613d8191810190615538565b60015b613dac57604051634c9c8ce360e01b81526001600160a01b0383166004820152602401610d76565b6000805160206155848339815191528114613ddd57604051632a87526960e21b815260048101829052602401610d76565b6131b1838361406c565b306001600160a01b037f000000000000000000000000000000000000000000000000000000000000000016146128af5760405163703e46dd60e11b815260040160405180910390fd5b33613e627f9016d09d72d40fdae2fd8ceac6b6234c7706214fd39c1cd1e609a0528c199300546001600160a01b031690565b6001600160a01b0316146128af5760405163118cdaa760e01b8152336004820152602401610d76565b7f9016d09d72d40fdae2fd8ceac6b6234c7706214fd39c1cd1e609a0528c19930080546001600160a01b031981166001600160a01b03848116918217845560405192169182907f8be0079c531659141344cd1fd0a4f28419497f9722a3daafe3b4186f6b6457e090600090a3505050565b613f046140c2565b6128af61410b565b613f146140c2565b61341681614113565b7f9b779b17422d0df92223018b32b4d1fa46e071723d6817e2486d003becc55f00805460011901613f6157604051633ee5aeb560e01b815260040160405180910390fd5b60029055565b60017f9b779b17422d0df92223018b32b4d1fa46e071723d6817e2486d003becc55f0055565b60008381526017602090815260408083206001600160a01b03861684529091528120905b81548110156140655782828281548110613fcd57613fcd614f07565b9060005260206000200154036140535781548290613fed90600190614ef4565b81548110613ffd57613ffd614f07565b906000526020600020015482828154811061401a5761401a614f07565b90600052602060002001819055508180548061403857614038615551565b60019003818190600052602060002001600090559055614065565b8061405d81614f34565b915050613fb1565b5050505050565b6140758261411b565b6040516001600160a01b038316907fbc7cd75a20ee27fd9adebab32041f755214dbc6bffa90cc0225b39da2e5c2d3b90600090a28051156140ba576131b18282614180565b61267f6141f6565b7ff0c57e16840df040f15088dc2f81fe391c3923bec73e23a9662efc9c229c6a0054600160401b900460ff166128af57604051631afcd79f60e31b815260040160405180910390fd5b613f676140c2565b6135346140c2565b806001600160a01b03163b60000361415157604051634c9c8ce360e01b81526001600160a01b0382166004820152602401610d76565b60008051602061558483398151915280546001600160a01b0319166001600160a01b0392909216919091179055565b6060600080846001600160a01b03168460405161419d9190615567565b600060405180830381855af49150503d80600081146141d8576040519150601f19603f3d011682016040523d82523d6000602084013e6141dd565b606091505b50915091506141ed858383614215565b95945050505050565b34156128af5760405163b398979f60e01b815260040160405180910390fd5b60608261422a5761422582614271565b612b16565b815115801561424157506001600160a01b0384163b155b1561426a57604051639996b31560e01b81526001600160a01b0385166004820152602401610d76565b5080612b16565b8051156142815780518082602001fd5b604051630a12f52160e11b815260040160405180910390fd5b6040518060a00160405280606081526020016142c9604051806040016040528060008152602001600081525090565b81526000602082018190526040820181905260609091015290565b828054828255906000526020600020908101928215614339579160200282015b8281111561433957825182546001600160a01b0319166001600160a01b03909116178255602090920191600190910190614304565b50614345929150614384565b5090565b828054828255906000526020600020908101928215614339579160200282015b82811115614339578251825591602001919060010190614369565b5b808211156143455760008155600101614385565b6001600160a01b038116811461341657600080fd5b80356143b981614399565b919050565b600080604083850312156143d157600080fd5b82356143dc81614399565b946020939093013593505050565b600080604083850312156143fd57600080fd5b8235915060208301356008811061441357600080fd5b809150509250929050565b60006020828403121561443057600080fd5b5035919050565b60005b8381101561445257818101518382015260200161443a565b50506000910152565b60008151808452614473816020860160208601614437565b601f01601f19169290920160200192915050565b600081518084526020808501945080840160005b838110156144c05781516001600160a01b03168752958201959082019060010161449b565b509495945050505050565b6000815160c084526144e060c085018261445b565b905060208301518051602086015260208101516040860152506040830151606085015260018060a01b036060840151166080850152608083015160a08501528091505092915050565b634e487b7160e01b600052602160045260246000fd5b6008811061455d57634e487b7160e01b600052602160045260246000fd5b9052565b60006101408083526145758184018e61445b565b905060208382038185015261458a828e61445b565b9150604060018060a01b038d16818601526060858403818701526145ae848e614487565b935085840360808701526145c2848d6144cb565b935085840360a0870152838b518086528486019150848160051b870101858e0160005b8381101561462e57888303601f19018552815180518785526146098886018261445b565b828b0151868c01529189015194890194909452948801949250908701906001016145e5565b5050809750505050505050508560c08301528460e083015261465461010083018561453f565b8215156101208301529b9a5050505050505050505050565b6000806040838503121561467f57600080fd5b50508035926020909101359150565b60208101610d27828461453f565b634e487b7160e01b600052604160045260246000fd5b604051606081016001600160401b03811182821017156146d4576146d461469c565b60405290565b604051601f8201601f191681016001600160401b03811182821017156147025761470261469c565b604052919050565b60006001600160401b038211156147235761472361469c565b50601f01601f191660200190565b600061474461473f8461470a565b6146da565b905082815283838301111561475857600080fd5b828260208301376000602084830101529392505050565b600082601f83011261478057600080fd5b612b1683833560208501614731565b60006001600160401b038211156147a8576147a861469c565b5060051b60200190565b600082601f8301126147c357600080fd5b813560206147d361473f8361478f565b82815260059290921b840181019181810190868411156147f257600080fd5b8286015b8481101561481657803561480981614399565b83529183019183016147f6565b509695505050505050565b60006040828403121561483357600080fd5b604051604081018181106001600160401b03821117156148555761485561469c565b604052823581526020928301359281019290925250919050565b803560ff811681146143b957600080fd5b600082601f83011261489157600080fd5b813560206148a161473f8361478f565b82815260059290921b840181019181810190868411156148c057600080fd5b8286015b848110156148165780356001600160401b03808211156148e45760008081fd5b908801906060828b03601f19018113156148fe5760008081fd5b6149066146b2565b87840135838111156149185760008081fd5b6149268d8a8388010161476f565b825250604084810135898301529190930135908301525083529183019183016148c4565b600082601f83011261495b57600080fd5b8135602061496b61473f8361478f565b82815260059290921b8401810191818101908684111561498a57600080fd5b8286015b84811015614816578035835291830191830161498e565b60008060008060008060008060006101408a8c0312156149c457600080fd5b89356001600160401b03808211156149db57600080fd5b6149e78d838e0161476f565b9a5060208c01359150808211156149fd57600080fd5b614a098d838e0161476f565b995060408c0135915080821115614a1f57600080fd5b614a2b8d838e016147b2565b9850614a3a8d60608e01614821565b975060a08c01359650614a4f60c08d0161486f565b955060e08c013594506101008c0135915080821115614a6d57600080fd5b614a798d838e01614880565b93506101208c0135915080821115614a9057600080fd5b50614a9d8c828d0161494a565b9150509295985092959850929598565b60008060408385031215614ac057600080fd5b8235614acb81614399565b915060208301356001600160401b03811115614ae657600080fd5b8301601f81018513614af757600080fd5b614b0685823560208401614731565b9150509250929050565b60008060408385031215614b2357600080fd5b82359150602083013561441381614399565b600081518084526020808501945080840160005b838110156144c057815187529582019590820190600101614b49565b602081526000612b166020830184614b35565b600080600060608486031215614b8d57600080fd5b505081359360208301359350604090920135919050565b600080600060608486031215614bb957600080fd5b833592506020840135614bcb81614399565b929592945050506040919091013590565b606081526000614bef606083018661445b565b60208301949094525060400152919050565b600080600060608486031215614c1657600080fd5b8335614c2181614399565b95602085013595506040909401359392505050565b602081526000612b16602083018461445b565b60008060408385031215614c5c57600080fd5b8235915060208301356001600160401b03811115614c7957600080fd5b830160c0818603121561441357600080fd5b600060208284031215614c9d57600080fd5b8135612b1681614399565b60008060008060808587031215614cbe57600080fd5b843593506020850135614cd081614399565b92506040850135915060608501358015158114614cec57600080fd5b939692955090935050565b60008060008060008060c08789031215614d1057600080fd5b8635614d1b81614399565b95506020870135614d2b81614399565b94506040870135614d3b81614399565b93506060870135614d4b81614399565b92506080870135614d5b81614399565b915060a0870135614d6b81614399565b809150509295509295509295565b60006101808e8352806020840152614d938184018f61445b565b90508281036040840152614da7818e61445b565b6001600160a01b038d16606085015283810360808501529050614dca818c6144cb565b9150508860a08301528760c08301528660e0830152614ded61010083018761453f565b931515610120820152610140810192909252610160909101529998505050505050505050565b60208082526048908201527f4f6e6c79207468652056656e75652c205469636b657420636f6e74726163742c60408201527f206f72207468697320636f6e74726163742063616e2063616c6c207468697320606082015267333ab731ba34b7b760c11b608082015260a00190565b6020808252600e908201526d139bdd08185d5d1a1bdc9a5e995960921b604082015260600190565b634e487b7160e01b600052601160045260246000fd5b80820180821115610d2757610d27614ea9565b600082614eef57634e487b7160e01b600052601260045260246000fd5b500490565b81810381811115610d2757610d27614ea9565b634e487b7160e01b600052603260045260246000fd5b8082028115828204841417610d2757610d27614ea9565b600060018201614f4657614f46614ea9565b5060010190565b6001600160a01b0394909416845260208401929092526040830152606082015260800190565b600081614f8257614f82614ea9565b506000190190565b600181811c90821680614f9e57607f821691505b602082108103611f8e57634e487b7160e01b600052602260045260246000fd5b60008060408385031215614fd157600080fd5b505080516020909101519092909150565b6bffffffffffffffffffffffff198860601b16815260006014820188516020808b0160005b8381101561502c5781516001600160a01b031685529382019390820190600101615007565b5050988252509687019590955250604085019290925260f81b6001600160f81b031916606084015260618301525060810192915050565b601f8211156131b157600081815260208120601f850160051c8101602086101561508a5750805b601f850160051c820191505b81811015612e6e57828155600101615096565b81516001600160401b038111156150c2576150c261469c565b6150d6816150d08454614f8a565b84615063565b602080601f83116001811461510b57600084156150f35750858301515b600019600386901b1c1916600185901b178555612e6e565b600085815260208120601f198616915b8281101561513a5788860151825594840194600190910190840161511b565b50858210156151585787850151600019600388901b60f8161c191681555b5050505050600190811b01905550565b60c08152600061517b60c083018961445b565b828103602084015261518d8189614487565b905082810360408401526151a1818861445b565b905060ff8616606084015282810360808401526151be8186614b35565b9150508260a0830152979650505050505050565b6020808252602f908201527f4f6e6c7920746865205469636b657420636f6e74726163742063616e2063616c60408201526e36103a3434b990333ab731ba34b7b760891b606082015260800190565b6001600160401b038311156152385761523861469c565b61524c836152468354614f8a565b83615063565b6000601f84116001811461528057600085156152685750838201355b600019600387901b1c1916600186901b178355614065565b600083815260209020601f19861690835b828110156152b15786850135825560209485019460019092019101615291565b50868210156152ce5760001960f88860031b161c19848701351681555b505060018560011b0183555050505050565b60008135610d2781614399565b8135601e1983360301811261530157600080fd5b820180356001600160401b0381111561531957600080fd5b60208201915080360382131561532e57600080fd5b615339818385615221565b505060208201356001820155604082013560028201556060820135600382015561538c615368608084016152e0565b6004830180546001600160a01b0319166001600160a01b0392909216919091179055565b60a082013560058201555050565b81835281816020850137506000828201602090810191909152601f909101601f19169091010190565b6020815260008235601e198436030181126153dd57600080fd5b83016020810190356001600160401b038111156153f957600080fd5b80360382131561540857600080fd5b60c0602085015261541d60e08501828461539a565b91505061543a604084016020860180358252602090810135910152565b60608401356080840152615450608085016143ae565b6001600160a01b03811660a08501525060a084013560c08401528091505092915050565b600082601f83011261548557600080fd5b815161549361473f8261470a565b8181528460208386010111156154a857600080fd5b6154b9826020830160208701614437565b949350505050565b6000806000606084860312156154d657600080fd5b83516001600160401b03808211156154ed57600080fd5b6154f987838801615474565b9450602086015191508082111561550f57600080fd5b5061551c86828701615474565b925050604084015161552d81614399565b809150509250925092565b60006020828403121561554a57600080fd5b5051919050565b634e487b7160e01b600052603160045260246000fd5b60008251615579818460208701614437565b919091019291505056fe360894a13ba1a3210667c828492db98dca3e2076cc3735a920a3ca505d382bbca2646970667358221220b35563bbe983aff5a8753489bc7f49acdb64d81f8babbf6d75ff8fab989c482e64736f6c63430008140033","linkReferences":{}},"methodIdentifiers":{"SELLOUT_PROTOCOL_WALLET()":"e30228be","UPGRADE_INTERFACE_VERSION()":"ad3cb1cc","activeShowCount()":"16488906","addTokenIdToWallet(bytes32,address,uint256)":"de44006f","artistRegistryContract()":"41adf3ad","artistRegistryInstance()":"8dea15a1","cancelShow(bytes32)":"ef5023a5","completeShow(bytes32)":"129e086b","consumeTicketTier(bytes32,uint256,uint256)":"644b5e59","depositToVault(bytes32)":"85266635","getNumberOfVoters(bytes32)":"85ffa16c","getOrganizer(bytes32)":"977cb89e","getPendingRefund(bytes32,address)":"6e9cacd0","getSellOutThreshold(bytes32)":"1a348e62","getShowById(bytes32)":"27b1bf52","getShowStatus(bytes32)":"46c2c8a7","getTicketPricePaid(bytes32,uint256)":"93d4e100","getTicketTierInfo(bytes32,uint256)":"7e3e3935","getTotalCapacity(bytes32)":"620ec1e4","getTotalTicketsSold(bytes32)":"61041870","getWalletTokenIds(bytes32,address)":"5b9a1e09","hasTicket(address,bytes32)":"5c37da69","initialize(address)":"c4d66de8","isArtist(address,bytes32)":"02c9a8b5","isArtistMapping(bytes32,address)":"bafd4eb0","isOrganizer(address,bytes32)":"4ed372da","isTicketOwner(address,bytes32,uint256)":"a03f4efe","organizerRegistryContract()":"66bc64cd","organizerRegistryInstance()":"1cf2103e","owner()":"8da5cb5b","payout(bytes32)":"cfefb3d5","pendingPayouts(bytes32,address)":"8e70362b","pendingRefunds(bytes32,address)":"5696c07c","proposeShow(string,string,address[],(int256,int256),uint256,uint8,uint256,(string,uint256,uint256)[],uint256[])":"484dc6ff","proxiableUUID()":"52d1902d","referralContract()":"7dad19db","referralInstance()":"c6ab848a","refundTicket(bytes32,uint256)":"3c60d2d6","renounceOwnership()":"715018a6","setProtocolAddresses(address,address,address,address,address,address)":"f8121873","setTicketOwnership(bytes32,address,uint256,bool)":"c8f67e96","setTicketPricePaid(bytes32,uint256,uint256)":"bd47dc5c","setTotalTicketsSold(bytes32,uint256)":"787d76b8","showTicketTiers(bytes32,uint256)":"be42bd8c","showVault(bytes32)":"867e68af","shows(bytes32)":"fca46559","ticketContract()":"58a86e1d","ticketInstance()":"0233ce6a","ticketPricePaid(bytes32,uint256)":"2f18ddfe","totalTicketsSold(bytes32)":"925e8f89","transferOwnership(address)":"f2fde38b","updateShowVenue(bytes32,(string,(int256,int256),uint256,address,bytes32))":"c29e2de4","updateStatus(bytes32,uint8)":"054372ed","updateStatusIfSoldOut(bytes32)":"e6180546","upgradeToAndCall(address,bytes)":"4f1ef286","venueContract()":"51819335","venueRegistryContract()":"31a68da0","venueRegistryInstance()":"703ee4e5","walletToShowToTokenIds(bytes32,address,uint256)":"7d8d6a22","withdrawRefund(bytes32)":"e9acfa7c"},"id":57}