{"abi":[{"type":"function","name":"SELLOUT_PROTOCOL_WALLET","inputs":[],"outputs":[{"name":"","type":"address","internalType":"address"}],"stateMutability":"view"},{"type":"function","name":"UPGRADE_INTERFACE_VERSION","inputs":[],"outputs":[{"name":"","type":"string","internalType":"string"}],"stateMutability":"view"},{"type":"function","name":"activeShowCount","inputs":[],"outputs":[{"name":"","type":"uint256","internalType":"uint256"}],"stateMutability":"view"},{"type":"function","name":"addTokenIdToWallet","inputs":[{"name":"showId","type":"bytes32","internalType":"bytes32"},{"name":"wallet","type":"address","internalType":"address"},{"name":"tokenId","type":"uint256","internalType":"uint256"}],"outputs":[],"stateMutability":"nonpayable"},{"type":"function","name":"artistRegistryContract","inputs":[],"outputs":[{"name":"","type":"address","internalType":"address"}],"stateMutability":"view"},{"type":"function","name":"artistRegistryInstance","inputs":[],"outputs":[{"name":"","type":"address","internalType":"contract IArtistRegistry"}],"stateMutability":"view"},{"type":"function","name":"cancelShow","inputs":[{"name":"showId","type":"bytes32","internalType":"bytes32"}],"outputs":[],"stateMutability":"nonpayable"},{"type":"function","name":"completeShow","inputs":[{"name":"showId","type":"bytes32","internalType":"bytes32"}],"outputs":[],"stateMutability":"nonpayable"},{"type":"function","name":"consumeTicketTier","inputs":[{"name":"showId","type":"bytes32","internalType":"bytes32"},{"name":"tierIndex","type":"uint256","internalType":"uint256"},{"name":"amount","type":"uint256","internalType":"uint256"}],"outputs":[],"stateMutability":"nonpayable"},{"type":"function","name":"depositToVault","inputs":[{"name":"showId","type":"bytes32","internalType":"bytes32"}],"outputs":[],"stateMutability":"payable"},{"type":"function","name":"getNumberOfVoters","inputs":[{"name":"showId","type":"bytes32","internalType":"bytes32"}],"outputs":[{"name":"","type":"uint256","internalType":"uint256"}],"stateMutability":"view"},{"type":"function","name":"getOrganizer","inputs":[{"name":"showId","type":"bytes32","internalType":"bytes32"}],"outputs":[{"name":"","type":"address","internalType":"address"}],"stateMutability":"view"},{"type":"function","name":"getPendingPayout","inputs":[{"name":"showId","type":"bytes32","internalType":"bytes32"},{"name":"user","type":"address","internalType":"address"}],"outputs":[{"name":"amountOwed","type":"uint256","internalType":"uint256"}],"stateMutability":"view"},{"type":"function","name":"getPendingRefund","inputs":[{"name":"showId","type":"bytes32","internalType":"bytes32"},{"name":"user","type":"address","internalType":"address"}],"outputs":[{"name":"amountOwed","type":"uint256","internalType":"uint256"}],"stateMutability":"view"},{"type":"function","name":"getSellOutThreshold","inputs":[{"name":"showId","type":"bytes32","internalType":"bytes32"}],"outputs":[{"name":"","type":"uint256","internalType":"uint256"}],"stateMutability":"view"},{"type":"function","name":"getShowById","inputs":[{"name":"showId","type":"bytes32","internalType":"bytes32"}],"outputs":[{"name":"name","type":"string","internalType":"string"},{"name":"description","type":"string","internalType":"string"},{"name":"organizer","type":"address","internalType":"address"},{"name":"artists","type":"address[]","internalType":"address[]"},{"name":"venue","type":"tuple","internalType":"struct VenueTypes.Venue","components":[{"name":"name","type":"string","internalType":"string"},{"name":"coordinates","type":"tuple","internalType":"struct VenueTypes.Coordinates","components":[{"name":"lat","type":"int256","internalType":"int256"},{"name":"lon","type":"int256","internalType":"int256"}]},{"name":"totalCapacity","type":"uint256","internalType":"uint256"},{"name":"wallet","type":"address","internalType":"address"},{"name":"venueId","type":"bytes32","internalType":"bytes32"}]},{"name":"ticketTiers","type":"tuple[]","internalType":"struct ShowTypes.TicketTier[]","components":[{"name":"name","type":"string","internalType":"string"},{"name":"price","type":"uint256","internalType":"uint256"},{"name":"ticketsAvailable","type":"uint256","internalType":"uint256"}]},{"name":"sellOutThreshold","type":"uint256","internalType":"uint256"},{"name":"totalCapacity","type":"uint256","internalType":"uint256"},{"name":"status","type":"uint8","internalType":"enum ShowTypes.Status"},{"name":"isActive","type":"bool","internalType":"bool"}],"stateMutability":"view"},{"type":"function","name":"getShowStatus","inputs":[{"name":"showId","type":"bytes32","internalType":"bytes32"}],"outputs":[{"name":"","type":"uint8","internalType":"enum ShowTypes.Status"}],"stateMutability":"view"},{"type":"function","name":"getTicketPricePaid","inputs":[{"name":"showId","type":"bytes32","internalType":"bytes32"},{"name":"ticketId","type":"uint256","internalType":"uint256"}],"outputs":[{"name":"","type":"uint256","internalType":"uint256"}],"stateMutability":"view"},{"type":"function","name":"getTicketTierInfo","inputs":[{"name":"showId","type":"bytes32","internalType":"bytes32"},{"name":"tierIndex","type":"uint256","internalType":"uint256"}],"outputs":[{"name":"name","type":"string","internalType":"string"},{"name":"price","type":"uint256","internalType":"uint256"},{"name":"ticketsAvailable","type":"uint256","internalType":"uint256"}],"stateMutability":"view"},{"type":"function","name":"getTotalCapacity","inputs":[{"name":"showId","type":"bytes32","internalType":"bytes32"}],"outputs":[{"name":"","type":"uint256","internalType":"uint256"}],"stateMutability":"view"},{"type":"function","name":"getTotalTicketsSold","inputs":[{"name":"showId","type":"bytes32","internalType":"bytes32"}],"outputs":[{"name":"","type":"uint256","internalType":"uint256"}],"stateMutability":"view"},{"type":"function","name":"getWalletTokenIds","inputs":[{"name":"showId","type":"bytes32","internalType":"bytes32"},{"name":"wallet","type":"address","internalType":"address"}],"outputs":[{"name":"","type":"uint256[]","internalType":"uint256[]"}],"stateMutability":"view"},{"type":"function","name":"hasTicket","inputs":[{"name":"wallet","type":"address","internalType":"address"},{"name":"showId","type":"bytes32","internalType":"bytes32"}],"outputs":[{"name":"ownsTicket","type":"bool","internalType":"bool"}],"stateMutability":"view"},{"type":"function","name":"initialize","inputs":[{"name":"_selloutProtocolWallet","type":"address","internalType":"address"}],"outputs":[],"stateMutability":"nonpayable"},{"type":"function","name":"isArtist","inputs":[{"name":"user","type":"address","internalType":"address"},{"name":"showId","type":"bytes32","internalType":"bytes32"}],"outputs":[{"name":"","type":"bool","internalType":"bool"}],"stateMutability":"view"},{"type":"function","name":"isArtistMapping","inputs":[{"name":"","type":"bytes32","internalType":"bytes32"},{"name":"","type":"address","internalType":"address"}],"outputs":[{"name":"","type":"bool","internalType":"bool"}],"stateMutability":"view"},{"type":"function","name":"isOrganizer","inputs":[{"name":"user","type":"address","internalType":"address"},{"name":"showId","type":"bytes32","internalType":"bytes32"}],"outputs":[{"name":"","type":"bool","internalType":"bool"}],"stateMutability":"view"},{"type":"function","name":"isTicketOwner","inputs":[{"name":"owner","type":"address","internalType":"address"},{"name":"showId","type":"bytes32","internalType":"bytes32"},{"name":"ticketId","type":"uint256","internalType":"uint256"}],"outputs":[{"name":"","type":"bool","internalType":"bool"}],"stateMutability":"view"},{"type":"function","name":"organizerRegistryContract","inputs":[],"outputs":[{"name":"","type":"address","internalType":"address"}],"stateMutability":"view"},{"type":"function","name":"organizerRegistryInstance","inputs":[],"outputs":[{"name":"","type":"address","internalType":"contract IOrganizerRegistry"}],"stateMutability":"view"},{"type":"function","name":"owner","inputs":[],"outputs":[{"name":"","type":"address","internalType":"address"}],"stateMutability":"view"},{"type":"function","name":"payout","inputs":[{"name":"showId","type":"bytes32","internalType":"bytes32"}],"outputs":[],"stateMutability":"nonpayable"},{"type":"function","name":"pendingPayouts","inputs":[{"name":"","type":"bytes32","internalType":"bytes32"},{"name":"","type":"address","internalType":"address"}],"outputs":[{"name":"","type":"uint256","internalType":"uint256"}],"stateMutability":"view"},{"type":"function","name":"pendingRefunds","inputs":[{"name":"","type":"bytes32","internalType":"bytes32"},{"name":"","type":"address","internalType":"address"}],"outputs":[{"name":"","type":"uint256","internalType":"uint256"}],"stateMutability":"view"},{"type":"function","name":"proposeShow","inputs":[{"name":"name","type":"string","internalType":"string"},{"name":"description","type":"string","internalType":"string"},{"name":"artists","type":"address[]","internalType":"address[]"},{"name":"coordinates","type":"tuple","internalType":"struct VenueTypes.Coordinates","components":[{"name":"lat","type":"int256","internalType":"int256"},{"name":"lon","type":"int256","internalType":"int256"}]},{"name":"radius","type":"uint256","internalType":"uint256"},{"name":"sellOutThreshold","type":"uint8","internalType":"uint8"},{"name":"totalCapacity","type":"uint256","internalType":"uint256"},{"name":"_ticketTiers","type":"tuple[]","internalType":"struct ShowTypes.TicketTier[]","components":[{"name":"name","type":"string","internalType":"string"},{"name":"price","type":"uint256","internalType":"uint256"},{"name":"ticketsAvailable","type":"uint256","internalType":"uint256"}]},{"name":"split","type":"uint256[]","internalType":"uint256[]"}],"outputs":[{"name":"showId","type":"bytes32","internalType":"bytes32"}],"stateMutability":"nonpayable"},{"type":"function","name":"proxiableUUID","inputs":[],"outputs":[{"name":"","type":"bytes32","internalType":"bytes32"}],"stateMutability":"view"},{"type":"function","name":"referralContract","inputs":[],"outputs":[{"name":"","type":"address","internalType":"address"}],"stateMutability":"view"},{"type":"function","name":"referralInstance","inputs":[],"outputs":[{"name":"","type":"address","internalType":"contract ReferralModule"}],"stateMutability":"view"},{"type":"function","name":"refundTicket","inputs":[{"name":"showId","type":"bytes32","internalType":"bytes32"},{"name":"ticketId","type":"uint256","internalType":"uint256"}],"outputs":[],"stateMutability":"nonpayable"},{"type":"function","name":"renounceOwnership","inputs":[],"outputs":[],"stateMutability":"nonpayable"},{"type":"function","name":"setProtocolAddresses","inputs":[{"name":"_ticketContract","type":"address","internalType":"address"},{"name":"_venueContract","type":"address","internalType":"address"},{"name":"_referralContract","type":"address","internalType":"address"},{"name":"_artistRegistryContract","type":"address","internalType":"address"},{"name":"_organizerRegistryContract","type":"address","internalType":"address"},{"name":"_venueRegistryContract","type":"address","internalType":"address"}],"outputs":[],"stateMutability":"nonpayable"},{"type":"function","name":"setTicketOwnership","inputs":[{"name":"showId","type":"bytes32","internalType":"bytes32"},{"name":"owner","type":"address","internalType":"address"},{"name":"ticketId","type":"uint256","internalType":"uint256"},{"name":"isOwned","type":"bool","internalType":"bool"}],"outputs":[],"stateMutability":"nonpayable"},{"type":"function","name":"setTicketPricePaid","inputs":[{"name":"showId","type":"bytes32","internalType":"bytes32"},{"name":"ticketId","type":"uint256","internalType":"uint256"},{"name":"price","type":"uint256","internalType":"uint256"}],"outputs":[],"stateMutability":"nonpayable"},{"type":"function","name":"setTotalTicketsSold","inputs":[{"name":"showId","type":"bytes32","internalType":"bytes32"},{"name":"amount","type":"uint256","internalType":"uint256"}],"outputs":[],"stateMutability":"nonpayable"},{"type":"function","name":"showVault","inputs":[{"name":"","type":"bytes32","internalType":"bytes32"}],"outputs":[{"name":"","type":"uint256","internalType":"uint256"}],"stateMutability":"view"},{"type":"function","name":"shows","inputs":[{"name":"","type":"bytes32","internalType":"bytes32"}],"outputs":[{"name":"showId","type":"bytes32","internalType":"bytes32"},{"name":"name","type":"string","internalType":"string"},{"name":"description","type":"string","internalType":"string"},{"name":"organizer","type":"address","internalType":"address"},{"name":"venue","type":"tuple","internalType":"struct VenueTypes.Venue","components":[{"name":"name","type":"string","internalType":"string"},{"name":"coordinates","type":"tuple","internalType":"struct VenueTypes.Coordinates","components":[{"name":"lat","type":"int256","internalType":"int256"},{"name":"lon","type":"int256","internalType":"int256"}]},{"name":"totalCapacity","type":"uint256","internalType":"uint256"},{"name":"wallet","type":"address","internalType":"address"},{"name":"venueId","type":"bytes32","internalType":"bytes32"}]},{"name":"radius","type":"uint256","internalType":"uint256"},{"name":"sellOutThreshold","type":"uint256","internalType":"uint256"},{"name":"totalCapacity","type":"uint256","internalType":"uint256"},{"name":"status","type":"uint8","internalType":"enum ShowTypes.Status"},{"name":"isActive","type":"bool","internalType":"bool"},{"name":"expiry","type":"uint256","internalType":"uint256"},{"name":"showDate","type":"uint256","internalType":"uint256"}],"stateMutability":"view"},{"type":"function","name":"ticketContract","inputs":[],"outputs":[{"name":"","type":"address","internalType":"address"}],"stateMutability":"view"},{"type":"function","name":"ticketInstance","inputs":[],"outputs":[{"name":"","type":"address","internalType":"contract Ticket"}],"stateMutability":"view"},{"type":"function","name":"ticketPricePaid","inputs":[{"name":"","type":"bytes32","internalType":"bytes32"},{"name":"","type":"uint256","internalType":"uint256"}],"outputs":[{"name":"","type":"uint256","internalType":"uint256"}],"stateMutability":"view"},{"type":"function","name":"totalTicketsSold","inputs":[{"name":"","type":"bytes32","internalType":"bytes32"}],"outputs":[{"name":"","type":"uint256","internalType":"uint256"}],"stateMutability":"view"},{"type":"function","name":"transferOwnership","inputs":[{"name":"newOwner","type":"address","internalType":"address"}],"outputs":[],"stateMutability":"nonpayable"},{"type":"function","name":"updateShowVenue","inputs":[{"name":"showId","type":"bytes32","internalType":"bytes32"},{"name":"newVenue","type":"tuple","internalType":"struct VenueTypes.Venue","components":[{"name":"name","type":"string","internalType":"string"},{"name":"coordinates","type":"tuple","internalType":"struct VenueTypes.Coordinates","components":[{"name":"lat","type":"int256","internalType":"int256"},{"name":"lon","type":"int256","internalType":"int256"}]},{"name":"totalCapacity","type":"uint256","internalType":"uint256"},{"name":"wallet","type":"address","internalType":"address"},{"name":"venueId","type":"bytes32","internalType":"bytes32"}]}],"outputs":[],"stateMutability":"nonpayable"},{"type":"function","name":"updateStatus","inputs":[{"name":"showId","type":"bytes32","internalType":"bytes32"},{"name":"_status","type":"uint8","internalType":"enum ShowTypes.Status"}],"outputs":[],"stateMutability":"nonpayable"},{"type":"function","name":"updateStatusIfSoldOut","inputs":[{"name":"showId","type":"bytes32","internalType":"bytes32"}],"outputs":[],"stateMutability":"nonpayable"},{"type":"function","name":"upgradeToAndCall","inputs":[{"name":"newImplementation","type":"address","internalType":"address"},{"name":"data","type":"bytes","internalType":"bytes"}],"outputs":[],"stateMutability":"payable"},{"type":"function","name":"venueContract","inputs":[],"outputs":[{"name":"","type":"address","internalType":"address"}],"stateMutability":"view"},{"type":"function","name":"venueRegistryContract","inputs":[],"outputs":[{"name":"","type":"address","internalType":"address"}],"stateMutability":"view"},{"type":"function","name":"venueRegistryInstance","inputs":[],"outputs":[{"name":"","type":"address","internalType":"contract IVenueRegistry"}],"stateMutability":"view"},{"type":"function","name":"walletToShowToTokenIds","inputs":[{"name":"","type":"bytes32","internalType":"bytes32"},{"name":"","type":"address","internalType":"address"},{"name":"","type":"uint256","internalType":"uint256"}],"outputs":[{"name":"","type":"uint256","internalType":"uint256"}],"stateMutability":"view"},{"type":"function","name":"withdrawRefund","inputs":[{"name":"showId","type":"bytes32","internalType":"bytes32"}],"outputs":[],"stateMutability":"nonpayable"},{"type":"event","name":"ExpiryUpdated","inputs":[{"name":"showId","type":"bytes32","indexed":true,"internalType":"bytes32"},{"name":"expiry","type":"uint256","indexed":false,"internalType":"uint256"}],"anonymous":false},{"type":"event","name":"Initialized","inputs":[{"name":"version","type":"uint64","indexed":false,"internalType":"uint64"}],"anonymous":false},{"type":"event","name":"OwnershipTransferred","inputs":[{"name":"previousOwner","type":"address","indexed":true,"internalType":"address"},{"name":"newOwner","type":"address","indexed":true,"internalType":"address"}],"anonymous":false},{"type":"event","name":"RefundWithdrawn","inputs":[{"name":"user","type":"address","indexed":true,"internalType":"address"},{"name":"showId","type":"bytes32","indexed":true,"internalType":"bytes32"},{"name":"amount","type":"uint256","indexed":false,"internalType":"uint256"}],"anonymous":false},{"type":"event","name":"ShowExpired","inputs":[{"name":"showId","type":"bytes32","indexed":true,"internalType":"bytes32"}],"anonymous":false},{"type":"event","name":"ShowProposed","inputs":[{"name":"showId","type":"bytes32","indexed":true,"internalType":"bytes32"},{"name":"organizer","type":"address","indexed":true,"internalType":"address"},{"name":"name","type":"string","indexed":false,"internalType":"string"},{"name":"artists","type":"address[]","indexed":false,"internalType":"address[]"},{"name":"description","type":"string","indexed":false,"internalType":"string"},{"name":"sellOutThreshold","type":"uint256","indexed":false,"internalType":"uint256"},{"name":"split","type":"uint256[]","indexed":false,"internalType":"uint256[]"},{"name":"totalCapacity","type":"uint256","indexed":false,"internalType":"uint256"}],"anonymous":false},{"type":"event","name":"StatusUpdated","inputs":[{"name":"showId","type":"bytes32","indexed":true,"internalType":"bytes32"},{"name":"status","type":"uint8","indexed":false,"internalType":"enum ShowTypes.Status"}],"anonymous":false},{"type":"event","name":"TicketRefunded","inputs":[{"name":"user","type":"address","indexed":true,"internalType":"address"},{"name":"showId","type":"bytes32","indexed":true,"internalType":"bytes32"},{"name":"refundAmount","type":"uint256","indexed":false,"internalType":"uint256"}],"anonymous":false},{"type":"event","name":"TicketTierConsumed","inputs":[{"name":"showId","type":"bytes32","indexed":true,"internalType":"bytes32"},{"name":"tierIndex","type":"uint256","indexed":true,"internalType":"uint256"},{"name":"amount","type":"uint256","indexed":false,"internalType":"uint256"}],"anonymous":false},{"type":"event","name":"Upgraded","inputs":[{"name":"implementation","type":"address","indexed":true,"internalType":"address"}],"anonymous":false},{"type":"event","name":"VenueUpdated","inputs":[{"name":"showId","type":"bytes32","indexed":true,"internalType":"bytes32"},{"name":"newVenue","type":"tuple","indexed":false,"internalType":"struct VenueTypes.Venue","components":[{"name":"name","type":"string","internalType":"string"},{"name":"coordinates","type":"tuple","internalType":"struct VenueTypes.Coordinates","components":[{"name":"lat","type":"int256","internalType":"int256"},{"name":"lon","type":"int256","internalType":"int256"}]},{"name":"totalCapacity","type":"uint256","internalType":"uint256"},{"name":"wallet","type":"address","internalType":"address"},{"name":"venueId","type":"bytes32","internalType":"bytes32"}]}],"anonymous":false},{"type":"event","name":"Withdrawal","inputs":[{"name":"showId","type":"bytes32","indexed":true,"internalType":"bytes32"},{"name":"recipient","type":"address","indexed":true,"internalType":"address"},{"name":"amount","type":"uint256","indexed":false,"internalType":"uint256"}],"anonymous":false},{"type":"error","name":"AddressEmptyCode","inputs":[{"name":"target","type":"address","internalType":"address"}]},{"type":"error","name":"ERC1967InvalidImplementation","inputs":[{"name":"implementation","type":"address","internalType":"address"}]},{"type":"error","name":"ERC1967NonPayable","inputs":[]},{"type":"error","name":"FailedInnerCall","inputs":[]},{"type":"error","name":"InvalidInitialization","inputs":[]},{"type":"error","name":"NotInitializing","inputs":[]},{"type":"error","name":"OwnableInvalidOwner","inputs":[{"name":"owner","type":"address","internalType":"address"}]},{"type":"error","name":"OwnableUnauthorizedAccount","inputs":[{"name":"account","type":"address","internalType":"address"}]},{"type":"error","name":"ReentrancyGuardReentrantCall","inputs":[]},{"type":"error","name":"UUPSUnauthorizedCallContext","inputs":[]},{"type":"error","name":"UUPSUnsupportedProxiableUUID","inputs":[{"name":"slot","type":"bytes32","internalType":"bytes32"}]}],"bytecode":{"object":"0x60a0604052600a805460ff60a01b191690553060805234801561002157600080fd5b5060805161562f6200004c60003960008181613cde01528181613d070152613e48015261562f6000f3fe6080604052600436106103975760003560e01c8063787d76b8116101dc578063bafd4eb011610102578063de44006f116100a0578063ef5023a51161006f578063ef5023a514610c8b578063f2fde38b14610cab578063f812187314610ccb578063fca4655914610ceb57600080fd5b8063de44006f14610c0b578063e30228be14610c2b578063e618054614610c4b578063e9acfa7c14610c6b57600080fd5b8063c4d66de8116100dc578063c4d66de814610b8b578063c6ab848a14610bab578063c8f67e9614610bcb578063cfefb3d514610beb57600080fd5b8063bafd4eb014610b10578063bd47dc5c14610b4b578063c29e2de414610b6b57600080fd5b80638da5cb5b1161017a57806393d4e1001161014957806393d4e10014610a15578063977cb89e14610a4d578063a03f4efe14610a86578063ad3cb1cc14610ad257600080fd5b80638da5cb5b146109535780638dea15a1146109905780638e70362b146109b0578063925e8f89146109e857600080fd5b80637e3e3935116101b65780637e3e3935146108c457806385266635146108f357806385ffa16c14610906578063867e68af1461092657600080fd5b8063787d76b8146108645780637d8d6a22146108845780637dad19db146108a457600080fd5b80634ed372da116102c15780635c37da691161025f57806366bc64cd1161022e57806366bc64cd146107cc5780636e9cacd0146107ec578063703ee4e51461082f578063715018a61461084f57600080fd5b80635c37da691461070a578063610418701461074e578063620ec1e41461077b578063644b5e59146107ac57600080fd5b806352d1902d1161029b57806352d1902d146106705780635696c07c1461068557806358a86e1d146106bd5780635b9a1e09146106dd57600080fd5b80634ed372da1461061d5780634f1ef2861461063d578063518193351461065057600080fd5b806327b1bf521161033957806341adf3ad1161030857806341adf3ad1461056d57806342894bcb1461058d57806346c2c8a7146105d0578063484dc6ff146105fd57600080fd5b806327b1bf52146104bf5780632f18ddfe146104f557806331a68da01461052d5780633c60d2d61461054d57600080fd5b8063129e086b11610375578063129e086b1461042b578063164889061461044b5780631a348e621461046f5780631cf2103e1461049f57600080fd5b80630233ce6a1461039c57806302c9a8b5146103d9578063054372ed14610409575b600080fd5b3480156103a857600080fd5b506006546103bc906001600160a01b031681565b6040516001600160a01b0390911681526020015b60405180910390f35b3480156103e557600080fd5b506103f96103f4366004614414565b610d23565b60405190151581526020016103d0565b34801561041557600080fd5b50610429610424366004614440565b610d50565b005b34801561043757600080fd5b50610429610446366004614474565b610e11565b34801561045757600080fd5b50610461600d5481565b6040519081526020016103d0565b34801561047b57600080fd5b5061046161048a366004614474565b6000908152600e60205260409020600d015490565b3480156104ab57600080fd5b506009546103bc906001600160a01b031681565b3480156104cb57600080fd5b506104df6104da366004614474565b611397565b6040516103d09a999897969594939291906145b7565b34801561050157600080fd5b506104616105103660046146c2565b601460209081526000928352604080842090915290825290205481565b34801561053957600080fd5b506005546103bc906001600160a01b031681565b34801561055957600080fd5b506104296105683660046146c2565b61182f565b34801561057957600080fd5b506003546103bc906001600160a01b031681565b34801561059957600080fd5b506104616105a83660046146e4565b60009182526012602090815260408084206001600160a01b0393909316845291905290205490565b3480156105dc57600080fd5b506105f06105eb366004614474565b611aef565b6040516103d09190614709565b34801561060957600080fd5b50610461610618366004614a20565b611fb7565b34801561062957600080fd5b506103f9610638366004614414565b61266e565b61042961064b366004614b28565b612691565b34801561065c57600080fd5b506001546103bc906001600160a01b031681565b34801561067c57600080fd5b506104616126b0565b34801561069157600080fd5b506104616106a03660046146e4565b601160209081526000928352604080842090915290825290205481565b3480156106c957600080fd5b506000546103bc906001600160a01b031681565b3480156106e957600080fd5b506106fd6106f83660046146e4565b6126cd565b6040516103d09190614bbb565b34801561071657600080fd5b506103f9610725366004614414565b60009081526016602090815260408083206001600160a01b039490941683529290522054151590565b34801561075a57600080fd5b50610461610769366004614474565b60009081526013602052604090205490565b34801561078757600080fd5b50610461610796366004614474565b6000908152600e60208190526040909120015490565b3480156107b857600080fd5b506104296107c7366004614bce565b612741565b3480156107d857600080fd5b506004546103bc906001600160a01b031681565b3480156107f857600080fd5b506104616108073660046146e4565b60009182526011602090815260408084206001600160a01b0393909316845291905290205490565b34801561083b57600080fd5b50600a546103bc906001600160a01b031681565b34801561085b57600080fd5b506104296128cf565b34801561087057600080fd5b5061042961087f3660046146c2565b6128e3565b34801561089057600080fd5b5061046161089f366004614bfa565b61293d565b3480156108b057600080fd5b506002546103bc906001600160a01b031681565b3480156108d057600080fd5b506108e46108df3660046146c2565b61297b565b6040516103d093929190614c32565b610429610901366004614474565b612abc565b34801561091257600080fd5b50610461610921366004614474565b612b2b565b34801561093257600080fd5b50610461610941366004614474565b60106020526000908152604090205481565b34801561095f57600080fd5b507f9016d09d72d40fdae2fd8ceac6b6234c7706214fd39c1cd1e609a0528c199300546001600160a01b03166103bc565b34801561099c57600080fd5b506008546103bc906001600160a01b031681565b3480156109bc57600080fd5b506104616109cb3660046146e4565b601260209081526000928352604080842090915290825290205481565b3480156109f457600080fd5b50610461610a03366004614474565b60136020526000908152604090205481565b348015610a2157600080fd5b50610461610a303660046146c2565b600091825260146020908152604080842092845291905290205490565b348015610a5957600080fd5b506103bc610a68366004614474565b6000908152600e60205260409020600301546001600160a01b031690565b348015610a9257600080fd5b506103f9610aa1366004614c57565b60009182526015602090815260408084206001600160a01b0395909516845293815283832091835252205460ff1690565b348015610ade57600080fd5b50610b03604051806040016040528060058152602001640352e302e360dc1b81525081565b6040516103d09190614c8c565b348015610b1c57600080fd5b506103f9610b2b3660046146e4565b600f60209081526000928352604080842090915290825290205460ff1681565b348015610b5757600080fd5b50610429610b66366004614bce565b612b4f565b348015610b7757600080fd5b50610429610b86366004614c9f565b612b95565b348015610b9757600080fd5b50610429610ba6366004614ce1565b612ce4565b348015610bb757600080fd5b506007546103bc906001600160a01b031681565b348015610bd757600080fd5b50610429610be6366004614cfe565b612e15565b348015610bf757600080fd5b50610429610c06366004614474565b612e7e565b348015610c1757600080fd5b50610429610c26366004614bfa565b61305d565b348015610c3757600080fd5b50600b546103bc906001600160a01b031681565b348015610c5757600080fd5b50610429610c66366004614474565b6130be565b348015610c7757600080fd5b50610429610c86366004614474565b613155565b348015610c9757600080fd5b50610429610ca6366004614474565b6133b8565b348015610cb757600080fd5b50610429610cc6366004614ce1565b6134cb565b348015610cd757600080fd5b50610429610ce6366004614d4d565b613506565b348015610cf757600080fd5b50610d0b610d06366004614474565b6135ea565b6040516103d09c9b9a99989796959493929190614dcf565b6000818152600f602090815260408083206001600160a01b038616845290915290205460ff165b92915050565b6001546001600160a01b0316331480610d7357506000546001600160a01b031633145b80610d7d57503330145b610da25760405162461bcd60e51b8152600401610d9990614e69565b60405180910390fd5b6000828152600e60205260409020600f01805482919060ff19166001836007811115610dd057610dd061457f565b0217905550817f8ed894b6f384ca9c829b9aa5b056bc9106a90845a15616607e975d4ad488ee6782604051610e059190614709565b60405180910390a25050565b80610e1c338261266e565b80610e2c5750610e2c3382610d23565b610e485760405162461bcd60e51b8152600401610d9990614ed7565b6000828152600e602052604090206003600f82015460ff166007811115610e7157610e7161457f565b14610eb65760405162461bcd60e51b815260206004820152601560248201527453686f77206d757374206265205570636f6d696e6760581b6044820152606401610d99565b6012810154610ec790610708614f15565b421015610f165760405162461bcd60e51b815260206004820152601f60248201527f53686f7720686173206e6f7420796574206265656e20636f6d706c65746564006044820152606401610d99565b60008381526010602052604090205480610f6b5760405162461bcd60e51b81526020600482015260166024820152754e6f2066756e647320746f206469737472696275746560501b6044820152606401610d99565b600082601001805480602002602001604051908101604052809291908181526020018280548015610fbb57602002820191906000526020600020905b815481526020019060010190808311610fa7575b505050505090506000606483610fd19190614f28565b6000878152601260209081526040808320600b546001600160a01b03168452909152902081905590506110048184614f4a565b9250600060648360008151811061101d5761101d614f5d565b6020026020010151856110309190614f73565b61103a9190614f28565b600088815260126020908152604080832060038a01546001600160a01b0316845290915281208290559091505b6004860154811015611115576000606485611083846001614f15565b8151811061109357611093614f5d565b6020026020010151876110a69190614f73565b6110b09190614f28565b905080601260008b815260200190815260200160002060008960040185815481106110dd576110dd614f5d565b60009182526020808320909101546001600160a01b03168352820192909252604001902055508061110d81614f8a565b915050611067565b506000606484600186516111299190614f4a565b8151811061113957611139614f5d565b60200260200101518661114c9190614f73565b6111569190614f28565b600089815260126020908152604080832060098b01546001600160a01b0316845282528083208490558b83526010909152812055600f8701805491925060049160ff19166001830217905550600754600387015460405163416b56db60e01b81526001600160a01b039283169263416b56db926111df9291169060019081908190600401614fa3565b600060405180830381600087803b1580156111f957600080fd5b505af115801561120d573d6000803e3d6000fd5b5050505060005b60048701548110156112ce576007546004880180546001600160a01b039092169163416b56db91908490811061124c5761124c614f5d565b6000918252602090912001546040516001600160e01b031960e084901b168152611289916001600160a01b03169060019081908190600401614fa3565b600060405180830381600087803b1580156112a357600080fd5b505af11580156112b7573d6000803e3d6000fd5b5050505080806112c690614f8a565b915050611214565b50600754600987015460405163416b56db60e01b81526001600160a01b039283169263416b56db9261130c9291169060019081908190600401614fa3565b600060405180830381600087803b15801561132657600080fd5b505af115801561133a573d6000803e3d6000fd5b5050600d805492509050600061134f83614fc9565b9190505550877f8ed894b6f384ca9c829b9aa5b056bc9106a90845a15616607e975d4ad488ee6760046040516113859190614709565b60405180910390a25050505050505050565b606080600060606113a66142f0565b6000868152600e60205260408120600c810154606092918291829182916001600160401b038111156113da576113da614717565b60405190808252806020026020018201604052801561142f57816020015b61141c60405180606001604052806060815260200160008152602001600081525090565b8152602001906001900390816113f85790505b50955060005b600c8201548110156115455781600c01818154811061145657611456614f5d565b906000526020600020906003020160405180606001604052908160008201805461147f90614fe0565b80601f01602080910402602001604051908101604052809291908181526020018280546114ab90614fe0565b80156114f85780601f106114cd576101008083540402835291602001916114f8565b820191906000526020600020905b8154815290600101906020018083116114db57829003601f168201915b505050505081526020016001820154815260200160028201548152505087828151811061152757611527614f5d565b6020026020010181905250808061153d90614f8a565b915050611435565b506003810154600d820154600e830154600f840154600185018054909460028701946001600160a01b0390911693600488019360058901938e93929160ff8082169261010090920416908a9061159a90614fe0565b80601f01602080910402602001604051908101604052809291908181526020018280546115c690614fe0565b80156116135780601f106115e857610100808354040283529160200191611613565b820191906000526020600020905b8154815290600101906020018083116115f657829003601f168201915b5050505050995088805461162690614fe0565b80601f016020809104026020016040519081016040528092919081815260200182805461165290614fe0565b801561169f5780601f106116745761010080835404028352916020019161169f565b820191906000526020600020905b81548152906001019060200180831161168257829003601f168201915b50505050509850868054806020026020016040519081016040528092919081815260200182805480156116fb57602002820191906000526020600020905b81546001600160a01b031681526001909101906020018083116116dd575b50505050509650856040518060a001604052908160008201805461171e90614fe0565b80601f016020809104026020016040519081016040528092919081815260200182805461174a90614fe0565b80156117975780601f1061176c57610100808354040283529160200191611797565b820191906000526020600020905b81548152906001019060200180831161177a57829003601f168201915b5050505050815260200160018201604051806040016040529081600082015481526020016001820154815250508152602001600382015481526020016004820160009054906101000a90046001600160a01b03166001600160a01b03166001600160a01b0316815260200160058201548152505095509a509a509a509a509a509a509a509a509a509a50509193959799509193959799565b6000828152600e60205260408120600f015460ff1660078111156118555761185561457f565b1480611886575060056000838152600e60205260409020600f015460ff1660078111156118845761188461457f565b145b806118b6575060076000838152600e60205260409020600f015460ff1660078111156118b4576118b461457f565b145b6119195760405162461bcd60e51b815260206004820152602e60248201527f46756e647320617265206c6f636b65642064756520746f20746865207374617460448201526d7573206f66207468652073686f7760901b6064820152608401610d99565b6000828152601560209081526040808320338452825280832084845290915290205460ff1661199d5760405162461bcd60e51b815260206004820152602a60248201527f5573657220646f6573206e6f74206f776e20746865207469636b657420666f7260448201526920746869732073686f7760b01b6064820152608401610d99565b600654604051636d1d3b0b60e11b8152600481018490526024810183905260009182916001600160a01b039091169063da3a7616906044016040805180830381865afa1580156119f1573d6000803e3d6000fd5b505050506040513d601f19601f82011682018060405250810190611a159190615014565b9150915060008211611a605760405162461bcd60e51b8152602060048201526014602482015273151a58dad95d081b9bdd081c1d5c98da185cd95960621b6044820152606401610d99565b6000848152600e60205260409020600c01805482908110611a8357611a83614f5d565b600091825260208220600260039092020101805491611aa183614f8a565b9190505550611ab1848484613854565b604051828152849033907f6327daeea6ce26abf9f96cd84eee9cb40d1d5b88f7f5990914540e392446bf04906020015b60405180910390a350505050565b6000818152600e6020908152604080832081516101e0810190925280548252600181018054859484019190611b2390614fe0565b80601f0160208091040260200160405190810160405280929190818152602001828054611b4f90614fe0565b8015611b9c5780601f10611b7157610100808354040283529160200191611b9c565b820191906000526020600020905b815481529060010190602001808311611b7f57829003601f168201915b50505050508152602001600282018054611bb590614fe0565b80601f0160208091040260200160405190810160405280929190818152602001828054611be190614fe0565b8015611c2e5780601f10611c0357610100808354040283529160200191611c2e565b820191906000526020600020905b815481529060010190602001808311611c1157829003601f168201915b505050918352505060038201546001600160a01b03166020808301919091526004830180546040805182850281018501825282815294019392830182828015611ca057602002820191906000526020600020905b81546001600160a01b03168152600190910190602001808311611c82575b50505050508152602001600582016040518060a0016040529081600082018054611cc990614fe0565b80601f0160208091040260200160405190810160405280929190818152602001828054611cf590614fe0565b8015611d425780601f10611d1757610100808354040283529160200191611d42565b820191906000526020600020905b815481529060010190602001808311611d2557829003601f168201915b50505091835250506040805180820182526001840154815260028401546020828101919091528084019190915260038401548284015260048401546001600160a01b03166060840152600590930154608090920191909152918352600b84015483820152600c840180548351818402810184018552818152949093019392909160009084015b82821015611ea05783829060005260206000209060030201604051806060016040529081600082018054611dfb90614fe0565b80601f0160208091040260200160405190810160405280929190818152602001828054611e2790614fe0565b8015611e745780601f10611e4957610100808354040283529160200191611e74565b820191906000526020600020905b815481529060010190602001808311611e5757829003601f168201915b505050505081526020016001820154815260200160028201548152505081526020019060010190611dc8565b50505090825250600d8201546020820152600e8201546040820152600f82015460609091019060ff166007811115611eda57611eda61457f565b6007811115611eeb57611eeb61457f565b8152600f820154610100900460ff1615156020808301919091526010830180546040805182850281018501825282815294019392830182828015611f4e57602002820191906000526020600020905b815481526020019060010190808311611f3a575b50505050508152602001601182015481526020016012820154815250509050806101a0015142118015611f98575060078161014001516007811115611f9557611f9561457f565b14155b15611fa65750600792915050565b610140015192915050565b50919050565b600a54600090600160a01b900460ff166120135760405162461bcd60e51b815260206004820152601e60248201527f436f6e747261637420616464726573736573206d7573742062652073657400006044820152606401610d99565b60008a51116120575760405162461bcd60e51b815260206004820152601060248201526f13985b59481a5cc81c995c5d5a5c995960821b6044820152606401610d99565b600086116120b35760405162461bcd60e51b815260206004820152602360248201527f56656e756520726164697573206d75737420626520677265617465722074686160448201526206e20360ec1b6064820152608401610d99565b600084116121115760405162461bcd60e51b815260206004820152602560248201527f546f74616c206361706163697479206d75737420626520677265617465722074604482015264068616e20360dc1b6064820152608401610d99565b60008851116121625760405162461bcd60e51b815260206004820152601c60248201527f4174206c65617374206f6e6520617274697374207265717569726564000000006044820152606401610d99565b60328560ff161015801561217a575060648560ff1611155b6121dc5760405162461bcd60e51b815260206004820152602d60248201527f53656c6c2d6f7574207468726573686f6c64206d75737420626520626574776560448201526c0656e20353020616e642031303609c1b6064820152608401610d99565b865163055d4a7f19138015906121f75750865163055d4a8012155b6122365760405162461bcd60e51b815260206004820152601060248201526f496e76616c6964206c6174697475646560801b6044820152606401610d99565b630aba94ff198760200151121580156122575750630aba9500876020015113155b6122975760405162461bcd60e51b8152602060048201526011602482015270496e76616c6964206c6f6e67697475646560781b6044820152606401610d99565b6122a033613a0f565b6122ec5760405162461bcd60e51b815260206004820152601c60248201527f4f7267616e697a6572206d7573742062652072656769737465726564000000006044820152606401610d99565b60005b88518110156123785761231a89828151811061230d5761230d614f5d565b6020026020010151613a9f565b6123665760405162461bcd60e51b815260206004820152601e60248201527f416c6c2061727469737473206d757374206265207265676973746572656400006044820152606401610d99565b8061237081614f8a565b9150506122ef565b50612384828951613ad5565b61238e8385613c1c565b86516020808901516040516123af9333938d9391928c918c918c9101615038565b60408051601f1981840301815291815281516020928301206000818152600e9093529120818155909150600181016123e78c826150ff565b50600281016123f68b826150ff565b506003810180546001600160a01b03191633179055885161242090600483019060208c019061433a565b506040805160c081018252600060a08201818152808352602083018c9052928201889052606082018190526080820152906005830190819061246290826150ff565b506020828101518051600184015581015160028301556040830151600383015560608301516004830180546001600160a01b0319166001600160a01b03909216919091179055608090920151600590910155600b820188905560ff8716600d830155600e8201869055600f8201805461ffff191661010017905583516124f09160108401919086019061439f565b506124fe4262278d00614f15565b60118201556000601282018190555b84518110156125875781600c0185828151811061252c5761252c614f5d565b6020908102919091018101518254600181018455600093845291909220825160039092020190819061255e90826150ff565b50602082015160018201556040909101516002909101558061257f81614f8a565b91505061250d565b5060005b89518110156125fe576000838152600f602052604081208b51600192908d90859081106125ba576125ba614f5d565b6020908102919091018101516001600160a01b03168252810191909152604001600020805460ff1916911515919091179055806125f681614f8a565b91505061258b565b50600d805490600061260f83614f8a565b9190505550336001600160a01b0316827fb627fd710eb93733196a5e4d106fc18af287574dcaa2cb48d76bc40d09145b498d8c8e8b898c604051612658969594939291906151be565b60405180910390a3509998505050505050505050565b6000908152600e60205260409020600301546001600160a01b0391821691161490565b612699613cd3565b6126a282613d78565b6126ac8282613d80565b5050565b60006126ba613e3d565b506000805160206155da83398151915290565b60008281526016602090815260408083206001600160a01b038516845282529182902080548351818402810184019094528084526060939283018282801561273457602002820191906000526020600020905b815481526020019060010190808311612720575b5050505050905092915050565b6001546001600160a01b031633148061276457506000546001600160a01b031633145b8061276e57503330145b61278a5760405162461bcd60e51b8152600401610d9990614e69565b6000838152600e60205260409020600c81015483106127eb5760405162461bcd60e51b815260206004820152601960248201527f496e76616c6964207469636b6574207469657220696e646578000000000000006044820152606401610d99565b600081600c01848154811061280257612802614f5d565b9060005260206000209060030201905082816002015410156128785760405162461bcd60e51b815260206004820152602960248201527f4e6f7420656e6f756768207469636b65747320617661696c61626c6520696e206044820152683a3434b9903a34b2b960b91b6064820152608401610d99565b8281600201600082825461288c9190614f4a565b9091555050604051838152849086907fb23124a400670af3347ce475459c187bbba871f316e2d1d91ae115a762def0209060200160405180910390a35050505050565b6128d7613e86565b6128e16000613ee1565b565b6000546001600160a01b0316331461290d5760405162461bcd60e51b8152600401610d9990615228565b600082815260136020526040902054612927908290614f15565b6000928352601360205260409092209190915550565b6016602052826000526040600020602052816000526040600020818154811061296557600080fd5b9060005260206000200160009250925050505481565b6000828152600e60205260408120600c015460609190819084106129e15760405162461bcd60e51b815260206004820152601860248201527f5469657220696e646578206f7574206f6620626f756e647300000000000000006044820152606401610d99565b6000858152600e60205260408120600c01805486908110612a0457612a04614f5d565b906000526020600020906003020190508060000181600101548260020154828054612a2e90614fe0565b80601f0160208091040260200160405190810160405280929190818152602001828054612a5a90614fe0565b8015612aa75780601f10612a7c57610100808354040283529160200191612aa7565b820191906000526020600020905b815481529060010190602001808311612a8a57829003601f168201915b50505050509250935093509350509250925092565b6001546001600160a01b0316331480612adf57506000546001600160a01b031633145b80612ae957503330145b612b055760405162461bcd60e51b8152600401610d9990614e69565b60008181526010602052604081208054349290612b23908490614f15565b909155505050565b6000818152600e6020526040812060040154612b48816001614f15565b9392505050565b6000546001600160a01b03163314612b795760405162461bcd60e51b8152600401610d9990615228565b6000928352601460209081526040808520938552929052912055565b6001546001600160a01b03163314612bbf5760405162461bcd60e51b8152600401610d9990615228565b6000828152600e60205260408120600f015460ff166007811115612be557612be561457f565b1480612c16575060026000838152600e60205260409020600f015460ff166007811115612c1457612c1461457f565b145b612c945760405162461bcd60e51b815260206004820152604360248201527f56656e75652063616e206f6e6c79206265207570646174656420666f7220736860448201527f6f777320696e2050726f706f736564206f7220416363657074656420737461746064820152623ab99760e91b608482015260a401610d99565b6000828152600e602052604090208190600501612cb18282615343565b905050817ff199f58c6628f3436415ab64e2d1e914a5e79b5ce23d59be2970b2fe46034a6182604051610e059190615419565b7ff0c57e16840df040f15088dc2f81fe391c3923bec73e23a9662efc9c229c6a008054600160401b810460ff1615906001600160401b0316600081158015612d295750825b90506000826001600160401b03166001148015612d455750303b155b905081158015612d53575080155b15612d715760405163f92ee8a960e01b815260040160405180910390fd5b845467ffffffffffffffff191660011785558315612d9b57845460ff60401b1916600160401b1785555b612da3613f52565b612dac86613f62565b600b80546001600160a01b0319166001600160a01b0388161790558315612e0d57845460ff60401b19168555604051600181527fc7f505b2f371ae2175ee4913f4499e1f2633a7b5936321eed1cdaeb6115181d29060200160405180910390a15b505050505050565b6000546001600160a01b03163314612e3f5760405162461bcd60e51b8152600401610d9990615228565b60009384526015602090815260408086206001600160a01b03959095168652938152838520928552919091529120805460ff1916911515919091179055565b80612e89338261266e565b80612e995750612e993382610d23565b612eb55760405162461bcd60e51b8152600401610d9990614ed7565b6000828152600e602052604090206004600f82015460ff166007811115612ede57612ede61457f565b14612f245760405162461bcd60e51b815260206004820152601660248201527514da1bddc81b5d5cdd0818994810dbdb5c1b195d195960521b6044820152606401610d99565b6012810154612f359061012c614f15565b421015612f845760405162461bcd60e51b815260206004820152601c60248201527f53686f7720636f6f6c20646f776e20686173206e6f7420656e646564000000006044820152606401610d99565b600083815260126020908152604080832033845290915290205480612fe25760405162461bcd60e51b81526020600482015260146024820152734e6f2066756e647320746f20776974686472617760601b6044820152606401610d99565b600084815260126020908152604080832033808552925280832083905551909183156108fc02918491818181858888f19350505050158015613028573d6000803e3d6000fd5b50604051818152339085907f028ab133c73f6c00ad0c5896ef40eff18378acd3d7f2ecf573c2706582bf73bf90602001611ae1565b6000546001600160a01b031633146130875760405162461bcd60e51b8152600401610d9990615228565b60009283526016602090815260408085206001600160a01b0390941685529281529183208054600181018255908452919092200155565b6001546001600160a01b03163314806130e157506000546001600160a01b031633145b806130eb57503330145b6131075760405162461bcd60e51b8152600401610d9990614e69565b6000818152600e60208181526040808420601390925290922054600d83015491830154909161313591614f73565b613140826064614f73565b1061315057613150836001610d50565b505050565b61315d613f73565b6000818152600e602052604090206006600f82015460ff1660078111156131865761318661457f565b14806131aa57506007600f82015460ff1660078111156131a8576131a861457f565b145b806131cd57506005600f82015460ff1660078111156131cb576131cb61457f565b145b806131f057506000600f82015460ff1660078111156131ee576131ee61457f565b145b6132535760405162461bcd60e51b815260206004820152602e60248201527f526566756e647320617265206e6f7420617661696c61626c6520666f7220746860448201526d69732073686f772073746174757360901b6064820152608401610d99565b6000828152601160209081526040808320338452909152902054806132b15760405162461bcd60e51b81526020600482015260146024820152734e6f2066756e647320746f20776974686472617760601b6044820152606401610d99565b8047101561330c5760405162461bcd60e51b815260206004820152602260248201527f496e73756666696369656e742066756e647320696e2074686520636f6e74726160448201526118dd60f21b6064820152608401610d99565b600083815260116020908152604080832033808552925280832083905551909183156108fc02918491818181858888f19350505050158015613352573d6000803e3d6000fd5b50604051818152839033907fa4d59773de0ef2d6faf35ac70331de09c09cb20909bf7453dd0d620524bd1fc99060200160405180910390a350506133b560017f9b779b17422d0df92223018b32b4d1fa46e071723d6817e2486d003becc55f0055565b50565b806133c3338261266e565b806133d357506133d33382610d23565b6133ef5760405162461bcd60e51b8152600401610d9990614ed7565b6000828152600e602052604090206001600f82015460ff1660078111156134185761341861457f565b148061343c57506002600f82015460ff16600781111561343a5761343a61457f565b145b8061345f57506003600f82015460ff16600781111561345d5761345d61457f565b145b6134a25760405162461bcd60e51b815260206004820152601460248201527353686f77206d7573742062652050656e64696e6760601b6044820152606401610d99565b600f8101805460ff19166005179055600d80549060006134c183614fc9565b9190505550505050565b6134d3613e86565b6001600160a01b0381166134fd57604051631e4fbdf760e01b815260006004820152602401610d99565b6133b581613ee1565b600a54600160a01b900460ff16156135605760405162461bcd60e51b815260206004820152601e60248201527f50726f746f636f6c2061646472657373657320616c72656164792073657400006044820152606401610d99565b600080546001600160a01b039788166001600160a01b031991821681179092556001805497891697821697909717909655600680548716909117905560078054948716948616949094179093556008805492861692851692909217909155600980549185169190931617909155600a80546001600160a81b0319169190921617600160a01b179055565b600e602052600090815260409020805460018201805491929161360c90614fe0565b80601f016020809104026020016040519081016040528092919081815260200182805461363890614fe0565b80156136855780601f1061365a57610100808354040283529160200191613685565b820191906000526020600020905b81548152906001019060200180831161366857829003601f168201915b50505050509080600201805461369a90614fe0565b80601f01602080910402602001604051908101604052809291908181526020018280546136c690614fe0565b80156137135780601f106136e857610100808354040283529160200191613713565b820191906000526020600020905b8154815290600101906020018083116136f657829003601f168201915b5050505050908060030160009054906101000a90046001600160a01b031690806005016040518060a001604052908160008201805461375190614fe0565b80601f016020809104026020016040519081016040528092919081815260200182805461377d90614fe0565b80156137ca5780601f1061379f576101008083540402835291602001916137ca565b820191906000526020600020905b8154815290600101906020018083116137ad57829003601f168201915b505050918352505060408051808201825260018401548152600284015460208281019190915283015260038301549082015260048201546001600160a01b03166060820152600590910154608090910152600b820154600d830154600e840154600f8501546011860154601290960154949593949293919260ff808316936101009093041691908c565b6000838152600e60209081526040808320601390925282208054919261387983614fc9565b90915550506000848152601060205260408120805484929061389c908490614f4a565b90915550506000848152601160209081526040808320338452909152812080548492906138ca908490614f15565b9091555050600084815260136020526040812054600d830154600e8401549192916064916138f791614f73565b6139019190614f28565b9050808210801561392a57506001600f84015460ff1660078111156139285761392861457f565b145b1561397757600f8301805460ff1916905560405186907f8ed894b6f384ca9c829b9aa5b056bc9106a90845a15616607e975d4ad488ee679061396e90600090614709565b60405180910390a25b600086815260146020908152604080832088845290915281205561399c863387613fe3565b6006546040516387f9ca5d60e01b815260048101879052600160248201523360448201526001600160a01b03909116906387f9ca5d90606401600060405180830381600087803b1580156139ef57600080fd5b505af1158015613a03573d6000803e3d6000fd5b50505050505050505050565b600954604051634092f2b760e01b81526001600160a01b0383811660048301526000928392911690634092f2b7906024015b600060405180830381865afa158015613a5e573d6000803e3d6000fd5b505050506040513d6000823e601f3d908101601f19168201604052613a869190810190615517565b6001600160a01b03908116951694909414949350505050565b600854604051632e52720160e21b81526001600160a01b038381166004830152600092839291169063b949c80490602401613a41565b613ae0816002614f15565b825114613b7b5760405162461bcd60e51b815260206004820152605a60248201527f53706c6974206172726179206d75737420686176652061206c656e677468206560448201527f7175616c20746f20746865206e756d626572206f66206172746973747320706c60648201527f7573203220286f7267616e697a657220616e642076656e756529000000000000608482015260a401610d99565b6000805b8351811015613bc157838181518110613b9a57613b9a614f5d565b602002602001015182613bad9190614f15565b915080613bb981614f8a565b915050613b7f565b50806064146131505760405162461bcd60e51b815260206004820152602160248201527f53706c69742070657263656e7461676573206d7573742073756d20746f2031306044820152600360fc1b6064820152608401610d99565b6000805b8351811015613c6657838181518110613c3b57613c3b614f5d565b60200260200101516040015182613c529190614f15565b915080613c5e81614f8a565b915050613c20565b508181146131505760405162461bcd60e51b815260206004820152603460248201527f546f74616c207469636b657473206163726f7373207469657273206d75737420604482015273657175616c20746f74616c20636170616369747960601b6064820152608401610d99565b306001600160a01b037f0000000000000000000000000000000000000000000000000000000000000000161480613d5a57507f00000000000000000000000000000000000000000000000000000000000000006001600160a01b0316613d4e6000805160206155da833981519152546001600160a01b031690565b6001600160a01b031614155b156128e15760405163703e46dd60e11b815260040160405180910390fd5b6133b5613e86565b816001600160a01b03166352d1902d6040518163ffffffff1660e01b8152600401602060405180830381865afa925050508015613dda575060408051601f3d908101601f19168201909252613dd79181019061558e565b60015b613e0257604051634c9c8ce360e01b81526001600160a01b0383166004820152602401610d99565b6000805160206155da8339815191528114613e3357604051632a87526960e21b815260048101829052602401610d99565b61315083836140c2565b306001600160a01b037f000000000000000000000000000000000000000000000000000000000000000016146128e15760405163703e46dd60e11b815260040160405180910390fd5b33613eb87f9016d09d72d40fdae2fd8ceac6b6234c7706214fd39c1cd1e609a0528c199300546001600160a01b031690565b6001600160a01b0316146128e15760405163118cdaa760e01b8152336004820152602401610d99565b7f9016d09d72d40fdae2fd8ceac6b6234c7706214fd39c1cd1e609a0528c19930080546001600160a01b031981166001600160a01b03848116918217845560405192169182907f8be0079c531659141344cd1fd0a4f28419497f9722a3daafe3b4186f6b6457e090600090a3505050565b613f5a614118565b6128e1614161565b613f6a614118565b6133b581614169565b7f9b779b17422d0df92223018b32b4d1fa46e071723d6817e2486d003becc55f00805460011901613fb757604051633ee5aeb560e01b815260040160405180910390fd5b60029055565b60017f9b779b17422d0df92223018b32b4d1fa46e071723d6817e2486d003becc55f0055565b60008381526016602090815260408083206001600160a01b03861684529091528120905b81548110156140bb578282828154811061402357614023614f5d565b9060005260206000200154036140a9578154829061404390600190614f4a565b8154811061405357614053614f5d565b906000526020600020015482828154811061407057614070614f5d565b90600052602060002001819055508180548061408e5761408e6155a7565b600190038181906000526020600020016000905590556140bb565b806140b381614f8a565b915050614007565b5050505050565b6140cb82614171565b6040516001600160a01b038316907fbc7cd75a20ee27fd9adebab32041f755214dbc6bffa90cc0225b39da2e5c2d3b90600090a28051156141105761315082826141d6565b6126ac61424c565b7ff0c57e16840df040f15088dc2f81fe391c3923bec73e23a9662efc9c229c6a0054600160401b900460ff166128e157604051631afcd79f60e31b815260040160405180910390fd5b613fbd614118565b6134d3614118565b806001600160a01b03163b6000036141a757604051634c9c8ce360e01b81526001600160a01b0382166004820152602401610d99565b6000805160206155da83398151915280546001600160a01b0319166001600160a01b0392909216919091179055565b6060600080846001600160a01b0316846040516141f391906155bd565b600060405180830381855af49150503d806000811461422e576040519150601f19603f3d011682016040523d82523d6000602084013e614233565b606091505b509150915061424385838361426b565b95945050505050565b34156128e15760405163b398979f60e01b815260040160405180910390fd5b6060826142805761427b826142c7565b612b48565b815115801561429757506001600160a01b0384163b155b156142c057604051639996b31560e01b81526001600160a01b0385166004820152602401610d99565b5080612b48565b8051156142d75780518082602001fd5b604051630a12f52160e11b815260040160405180910390fd5b6040518060a001604052806060815260200161431f604051806040016040528060008152602001600081525090565b81526000602082018190526040820181905260609091015290565b82805482825590600052602060002090810192821561438f579160200282015b8281111561438f57825182546001600160a01b0319166001600160a01b0390911617825560209092019160019091019061435a565b5061439b9291506143da565b5090565b82805482825590600052602060002090810192821561438f579160200282015b8281111561438f5782518255916020019190600101906143bf565b5b8082111561439b57600081556001016143db565b6001600160a01b03811681146133b557600080fd5b803561440f816143ef565b919050565b6000806040838503121561442757600080fd5b8235614432816143ef565b946020939093013593505050565b6000806040838503121561445357600080fd5b8235915060208301356008811061446957600080fd5b809150509250929050565b60006020828403121561448657600080fd5b5035919050565b60005b838110156144a8578181015183820152602001614490565b50506000910152565b600081518084526144c981602086016020860161448d565b601f01601f19169290920160200192915050565b600081518084526020808501945080840160005b838110156145165781516001600160a01b0316875295820195908201906001016144f1565b509495945050505050565b6000815160c0845261453660c08501826144b1565b905060208301518051602086015260208101516040860152506040830151606085015260018060a01b036060840151166080850152608083015160a08501528091505092915050565b634e487b7160e01b600052602160045260246000fd5b600881106145b357634e487b7160e01b600052602160045260246000fd5b9052565b60006101408083526145cb8184018e6144b1565b90506020838203818501526145e0828e6144b1565b9150604060018060a01b038d1681860152606085840381870152614604848e6144dd565b93508584036080870152614618848d614521565b935085840360a0870152838b518086528486019150848160051b870101858e0160005b8381101561468457888303601f190185528151805187855261465f888601826144b1565b828b0151868c015291890151948901949094529488019492509087019060010161463b565b5050809750505050505050508560c08301528460e08301526146aa610100830185614595565b8215156101208301529b9a5050505050505050505050565b600080604083850312156146d557600080fd5b50508035926020909101359150565b600080604083850312156146f757600080fd5b823591506020830135614469816143ef565b60208101610d4a8284614595565b634e487b7160e01b600052604160045260246000fd5b604051606081016001600160401b038111828210171561474f5761474f614717565b60405290565b604051601f8201601f191681016001600160401b038111828210171561477d5761477d614717565b604052919050565b60006001600160401b0382111561479e5761479e614717565b50601f01601f191660200190565b60006147bf6147ba84614785565b614755565b90508281528383830111156147d357600080fd5b828260208301376000602084830101529392505050565b600082601f8301126147fb57600080fd5b612b48838335602085016147ac565b60006001600160401b0382111561482357614823614717565b5060051b60200190565b600082601f83011261483e57600080fd5b8135602061484e6147ba8361480a565b82815260059290921b8401810191818101908684111561486d57600080fd5b8286015b84811015614891578035614884816143ef565b8352918301918301614871565b509695505050505050565b6000604082840312156148ae57600080fd5b604051604081018181106001600160401b03821117156148d0576148d0614717565b604052823581526020928301359281019290925250919050565b803560ff8116811461440f57600080fd5b600082601f83011261490c57600080fd5b8135602061491c6147ba8361480a565b82815260059290921b8401810191818101908684111561493b57600080fd5b8286015b848110156148915780356001600160401b038082111561495f5760008081fd5b908801906060828b03601f19018113156149795760008081fd5b61498161472d565b87840135838111156149935760008081fd5b6149a18d8a838801016147ea565b8252506040848101358983015291909301359083015250835291830191830161493f565b600082601f8301126149d657600080fd5b813560206149e66147ba8361480a565b82815260059290921b84018101918181019086841115614a0557600080fd5b8286015b848110156148915780358352918301918301614a09565b60008060008060008060008060006101408a8c031215614a3f57600080fd5b89356001600160401b0380821115614a5657600080fd5b614a628d838e016147ea565b9a5060208c0135915080821115614a7857600080fd5b614a848d838e016147ea565b995060408c0135915080821115614a9a57600080fd5b614aa68d838e0161482d565b9850614ab58d60608e0161489c565b975060a08c01359650614aca60c08d016148ea565b955060e08c013594506101008c0135915080821115614ae857600080fd5b614af48d838e016148fb565b93506101208c0135915080821115614b0b57600080fd5b50614b188c828d016149c5565b9150509295985092959850929598565b60008060408385031215614b3b57600080fd5b8235614b46816143ef565b915060208301356001600160401b03811115614b6157600080fd5b8301601f81018513614b7257600080fd5b614b81858235602084016147ac565b9150509250929050565b600081518084526020808501945080840160005b8381101561451657815187529582019590820190600101614b9f565b602081526000612b486020830184614b8b565b600080600060608486031215614be357600080fd5b505081359360208301359350604090920135919050565b600080600060608486031215614c0f57600080fd5b833592506020840135614c21816143ef565b929592945050506040919091013590565b606081526000614c4560608301866144b1565b60208301949094525060400152919050565b600080600060608486031215614c6c57600080fd5b8335614c77816143ef565b95602085013595506040909401359392505050565b602081526000612b4860208301846144b1565b60008060408385031215614cb257600080fd5b8235915060208301356001600160401b03811115614ccf57600080fd5b830160c0818603121561446957600080fd5b600060208284031215614cf357600080fd5b8135612b48816143ef565b60008060008060808587031215614d1457600080fd5b843593506020850135614d26816143ef565b92506040850135915060608501358015158114614d4257600080fd5b939692955090935050565b60008060008060008060c08789031215614d6657600080fd5b8635614d71816143ef565b95506020870135614d81816143ef565b94506040870135614d91816143ef565b93506060870135614da1816143ef565b92506080870135614db1816143ef565b915060a0870135614dc1816143ef565b809150509295509295509295565b60006101808e8352806020840152614de98184018f6144b1565b90508281036040840152614dfd818e6144b1565b6001600160a01b038d16606085015283810360808501529050614e20818c614521565b9150508860a08301528760c08301528660e0830152614e43610100830187614595565b931515610120820152610140810192909252610160909101529998505050505050505050565b60208082526048908201527f4f6e6c79207468652056656e75652c205469636b657420636f6e74726163742c60408201527f206f72207468697320636f6e74726163742063616e2063616c6c207468697320606082015267333ab731ba34b7b760c11b608082015260a00190565b6020808252600e908201526d139bdd08185d5d1a1bdc9a5e995960921b604082015260600190565b634e487b7160e01b600052601160045260246000fd5b80820180821115610d4a57610d4a614eff565b600082614f4557634e487b7160e01b600052601260045260246000fd5b500490565b81810381811115610d4a57610d4a614eff565b634e487b7160e01b600052603260045260246000fd5b8082028115828204841417610d4a57610d4a614eff565b600060018201614f9c57614f9c614eff565b5060010190565b6001600160a01b0394909416845260208401929092526040830152606082015260800190565b600081614fd857614fd8614eff565b506000190190565b600181811c90821680614ff457607f821691505b602082108103611fb157634e487b7160e01b600052602260045260246000fd5b6000806040838503121561502757600080fd5b505080516020909101519092909150565b6bffffffffffffffffffffffff198860601b16815260006014820188516020808b0160005b838110156150825781516001600160a01b03168552938201939082019060010161505d565b5050988252509687019590955250604085019290925260f81b6001600160f81b031916606084015260618301525060810192915050565b601f82111561315057600081815260208120601f850160051c810160208610156150e05750805b601f850160051c820191505b81811015612e0d578281556001016150ec565b81516001600160401b0381111561511857615118614717565b61512c816151268454614fe0565b846150b9565b602080601f83116001811461516157600084156151495750858301515b600019600386901b1c1916600185901b178555612e0d565b600085815260208120601f198616915b8281101561519057888601518255948401946001909101908401615171565b50858210156151ae5787850151600019600388901b60f8161c191681555b5050505050600190811b01905550565b60c0815260006151d160c08301896144b1565b82810360208401526151e381896144dd565b905082810360408401526151f781886144b1565b905060ff8616606084015282810360808401526152148186614b8b565b9150508260a0830152979650505050505050565b6020808252602f908201527f4f6e6c7920746865205469636b657420636f6e74726163742063616e2063616c60408201526e36103a3434b990333ab731ba34b7b760891b606082015260800190565b6001600160401b0383111561528e5761528e614717565b6152a28361529c8354614fe0565b836150b9565b6000601f8411600181146152d657600085156152be5750838201355b600019600387901b1c1916600186901b1783556140bb565b600083815260209020601f19861690835b8281101561530757868501358255602094850194600190920191016152e7565b50868210156153245760001960f88860031b161c19848701351681555b505060018560011b0183555050505050565b60008135610d4a816143ef565b8135601e1983360301811261535757600080fd5b820180356001600160401b0381111561536f57600080fd5b60208201915080360382131561538457600080fd5b61538f818385615277565b50506020820135600182015560408201356002820155606082013560038201556153e26153be60808401615336565b6004830180546001600160a01b0319166001600160a01b0392909216919091179055565b60a082013560058201555050565b81835281816020850137506000828201602090810191909152601f909101601f19169091010190565b6020815260008235601e1984360301811261543357600080fd5b83016020810190356001600160401b0381111561544f57600080fd5b80360382131561545e57600080fd5b60c0602085015261547360e0850182846153f0565b915050615490604084016020860180358252602090810135910152565b606084013560808401526154a660808501614404565b6001600160a01b03811660a08501525060a084013560c08401528091505092915050565b600082601f8301126154db57600080fd5b81516154e96147ba82614785565b8181528460208386010111156154fe57600080fd5b61550f82602083016020870161448d565b949350505050565b60008060006060848603121561552c57600080fd5b83516001600160401b038082111561554357600080fd5b61554f878388016154ca565b9450602086015191508082111561556557600080fd5b50615572868287016154ca565b9250506040840151615583816143ef565b809150509250925092565b6000602082840312156155a057600080fd5b5051919050565b634e487b7160e01b600052603160045260246000fd5b600082516155cf81846020870161448d565b919091019291505056fe360894a13ba1a3210667c828492db98dca3e2076cc3735a920a3ca505d382bbca2646970667358221220c5a4e8c563b44ed91ec78c2ef37f8f7f53178fb39ee0fabe28565aa6ee42e05464736f6c63430008140033","linkReferences":{}},"methodIdentifiers":{"SELLOUT_PROTOCOL_WALLET()":"e30228be","UPGRADE_INTERFACE_VERSION()":"ad3cb1cc","activeShowCount()":"16488906","addTokenIdToWallet(bytes32,address,uint256)":"de44006f","artistRegistryContract()":"41adf3ad","artistRegistryInstance()":"8dea15a1","cancelShow(bytes32)":"ef5023a5","completeShow(bytes32)":"129e086b","consumeTicketTier(bytes32,uint256,uint256)":"644b5e59","depositToVault(bytes32)":"85266635","getNumberOfVoters(bytes32)":"85ffa16c","getOrganizer(bytes32)":"977cb89e","getPendingPayout(bytes32,address)":"42894bcb","getPendingRefund(bytes32,address)":"6e9cacd0","getSellOutThreshold(bytes32)":"1a348e62","getShowById(bytes32)":"27b1bf52","getShowStatus(bytes32)":"46c2c8a7","getTicketPricePaid(bytes32,uint256)":"93d4e100","getTicketTierInfo(bytes32,uint256)":"7e3e3935","getTotalCapacity(bytes32)":"620ec1e4","getTotalTicketsSold(bytes32)":"61041870","getWalletTokenIds(bytes32,address)":"5b9a1e09","hasTicket(address,bytes32)":"5c37da69","initialize(address)":"c4d66de8","isArtist(address,bytes32)":"02c9a8b5","isArtistMapping(bytes32,address)":"bafd4eb0","isOrganizer(address,bytes32)":"4ed372da","isTicketOwner(address,bytes32,uint256)":"a03f4efe","organizerRegistryContract()":"66bc64cd","organizerRegistryInstance()":"1cf2103e","owner()":"8da5cb5b","payout(bytes32)":"cfefb3d5","pendingPayouts(bytes32,address)":"8e70362b","pendingRefunds(bytes32,address)":"5696c07c","proposeShow(string,string,address[],(int256,int256),uint256,uint8,uint256,(string,uint256,uint256)[],uint256[])":"484dc6ff","proxiableUUID()":"52d1902d","referralContract()":"7dad19db","referralInstance()":"c6ab848a","refundTicket(bytes32,uint256)":"3c60d2d6","renounceOwnership()":"715018a6","setProtocolAddresses(address,address,address,address,address,address)":"f8121873","setTicketOwnership(bytes32,address,uint256,bool)":"c8f67e96","setTicketPricePaid(bytes32,uint256,uint256)":"bd47dc5c","setTotalTicketsSold(bytes32,uint256)":"787d76b8","showVault(bytes32)":"867e68af","shows(bytes32)":"fca46559","ticketContract()":"58a86e1d","ticketInstance()":"0233ce6a","ticketPricePaid(bytes32,uint256)":"2f18ddfe","totalTicketsSold(bytes32)":"925e8f89","transferOwnership(address)":"f2fde38b","updateShowVenue(bytes32,(string,(int256,int256),uint256,address,bytes32))":"c29e2de4","updateStatus(bytes32,uint8)":"054372ed","updateStatusIfSoldOut(bytes32)":"e6180546","upgradeToAndCall(address,bytes)":"4f1ef286","venueContract()":"51819335","venueRegistryContract()":"31a68da0","venueRegistryInstance()":"703ee4e5","walletToShowToTokenIds(bytes32,address,uint256)":"7d8d6a22","withdrawRefund(bytes32)":"e9acfa7c"},"id":55}