{"abi":[{"type":"function","name":"SELLOUT_PROTOCOL_WALLET","inputs":[],"outputs":[{"name":"","type":"address","internalType":"address"}],"stateMutability":"view"},{"type":"function","name":"UPGRADE_INTERFACE_VERSION","inputs":[],"outputs":[{"name":"","type":"string","internalType":"string"}],"stateMutability":"view"},{"type":"function","name":"artistRegistryInstance","inputs":[],"outputs":[{"name":"","type":"address","internalType":"contract IArtistRegistry"}],"stateMutability":"view"},{"type":"function","name":"boxOfficeInstance","inputs":[],"outputs":[{"name":"","type":"address","internalType":"contract IBoxOffice"}],"stateMutability":"view"},{"type":"function","name":"cancelShow","inputs":[{"name":"showId","type":"bytes32","internalType":"bytes32"}],"outputs":[],"stateMutability":"nonpayable"},{"type":"function","name":"completeShow","inputs":[{"name":"showId","type":"bytes32","internalType":"bytes32"}],"outputs":[],"stateMutability":"nonpayable"},{"type":"function","name":"consumeTicketTier","inputs":[{"name":"showId","type":"bytes32","internalType":"bytes32"},{"name":"tierIndex","type":"uint256","internalType":"uint256"},{"name":"amount","type":"uint256","internalType":"uint256"}],"outputs":[],"stateMutability":"nonpayable"},{"type":"function","name":"getNumberOfVoters","inputs":[{"name":"showId","type":"bytes32","internalType":"bytes32"}],"outputs":[{"name":"","type":"uint256","internalType":"uint256"}],"stateMutability":"view"},{"type":"function","name":"getOrganizer","inputs":[{"name":"showId","type":"bytes32","internalType":"bytes32"}],"outputs":[{"name":"","type":"address","internalType":"address"}],"stateMutability":"view"},{"type":"function","name":"getShowById","inputs":[{"name":"showId","type":"bytes32","internalType":"bytes32"}],"outputs":[{"name":"name","type":"string","internalType":"string"},{"name":"description","type":"string","internalType":"string"},{"name":"organizer","type":"address","internalType":"address"},{"name":"artists","type":"address[]","internalType":"address[]"},{"name":"venue","type":"tuple","internalType":"struct VenueRegistryTypes.VenueInfo","components":[{"name":"venueId","type":"uint256","internalType":"uint256"},{"name":"name","type":"string","internalType":"string"},{"name":"bio","type":"string","internalType":"string"},{"name":"wallet","type":"address","internalType":"address"},{"name":"coordinates","type":"tuple","internalType":"struct VenueRegistryTypes.Coordinates","components":[{"name":"latitude","type":"int256","internalType":"int256"},{"name":"longitude","type":"int256","internalType":"int256"}]},{"name":"totalCapacity","type":"uint256","internalType":"uint256"},{"name":"streetAddress","type":"string","internalType":"string"}]},{"name":"ticketTiers","type":"tuple[]","internalType":"struct ShowTypes.TicketTier[]","components":[{"name":"name","type":"string","internalType":"string"},{"name":"price","type":"uint256","internalType":"uint256"},{"name":"ticketsAvailable","type":"uint256","internalType":"uint256"}]},{"name":"sellOutThreshold","type":"uint256","internalType":"uint256"},{"name":"totalCapacity","type":"uint256","internalType":"uint256"},{"name":"status","type":"uint8","internalType":"enum ShowTypes.Status"},{"name":"currencyAddress","type":"address","internalType":"address"}],"stateMutability":"view"},{"type":"function","name":"getShowStatus","inputs":[{"name":"showId","type":"bytes32","internalType":"bytes32"}],"outputs":[{"name":"","type":"uint8","internalType":"enum ShowTypes.Status"}],"stateMutability":"view"},{"type":"function","name":"getShowToTicketProxy","inputs":[{"name":"showId","type":"bytes32","internalType":"bytes32"}],"outputs":[{"name":"","type":"address","internalType":"address"}],"stateMutability":"view"},{"type":"function","name":"getShowToVenueProxy","inputs":[{"name":"showId","type":"bytes32","internalType":"bytes32"}],"outputs":[{"name":"","type":"address","internalType":"address"}],"stateMutability":"view"},{"type":"function","name":"getTicketTierInfo","inputs":[{"name":"showId","type":"bytes32","internalType":"bytes32"},{"name":"tierIndex","type":"uint256","internalType":"uint256"}],"outputs":[{"name":"name","type":"string","internalType":"string"},{"name":"price","type":"uint256","internalType":"uint256"},{"name":"ticketsAvailable","type":"uint256","internalType":"uint256"}],"stateMutability":"view"},{"type":"function","name":"hasTicket","inputs":[{"name":"wallet","type":"address","internalType":"address"},{"name":"showId","type":"bytes32","internalType":"bytes32"}],"outputs":[{"name":"","type":"bool","internalType":"bool"}],"stateMutability":"view"},{"type":"function","name":"hasVotedForEmergencyRefund","inputs":[{"name":"","type":"bytes32","internalType":"bytes32"},{"name":"","type":"address","internalType":"address"}],"outputs":[{"name":"","type":"bool","internalType":"bool"}],"stateMutability":"view"},{"type":"function","name":"initialize","inputs":[{"name":"_selloutProtocolWallet","type":"address","internalType":"address"}],"outputs":[],"stateMutability":"nonpayable"},{"type":"function","name":"isArtist","inputs":[{"name":"user","type":"address","internalType":"address"},{"name":"showId","type":"bytes32","internalType":"bytes32"}],"outputs":[{"name":"","type":"bool","internalType":"bool"}],"stateMutability":"view"},{"type":"function","name":"isArtistMapping","inputs":[{"name":"","type":"bytes32","internalType":"bytes32"},{"name":"","type":"address","internalType":"address"}],"outputs":[{"name":"","type":"bool","internalType":"bool"}],"stateMutability":"view"},{"type":"function","name":"isOrganizer","inputs":[{"name":"user","type":"address","internalType":"address"},{"name":"showId","type":"bytes32","internalType":"bytes32"}],"outputs":[{"name":"","type":"bool","internalType":"bool"}],"stateMutability":"view"},{"type":"function","name":"organizerRegistryInstance","inputs":[],"outputs":[{"name":"","type":"address","internalType":"contract IOrganizerRegistry"}],"stateMutability":"view"},{"type":"function","name":"owner","inputs":[],"outputs":[{"name":"","type":"address","internalType":"address"}],"stateMutability":"view"},{"type":"function","name":"payout","inputs":[{"name":"showId","type":"bytes32","internalType":"bytes32"}],"outputs":[],"stateMutability":"nonpayable"},{"type":"function","name":"proposeShow","inputs":[{"name":"proposal","type":"tuple","internalType":"struct ShowTypes.ShowProposal","components":[{"name":"name","type":"string","internalType":"string"},{"name":"description","type":"string","internalType":"string"},{"name":"artists","type":"address[]","internalType":"address[]"},{"name":"coordinates","type":"tuple","internalType":"struct VenueRegistryTypes.Coordinates","components":[{"name":"latitude","type":"int256","internalType":"int256"},{"name":"longitude","type":"int256","internalType":"int256"}]},{"name":"radius","type":"uint256","internalType":"uint256"},{"name":"sellOutThreshold","type":"uint8","internalType":"uint8"},{"name":"totalCapacity","type":"uint256","internalType":"uint256"},{"name":"ticketTiers","type":"tuple[]","internalType":"struct ShowTypes.TicketTier[]","components":[{"name":"name","type":"string","internalType":"string"},{"name":"price","type":"uint256","internalType":"uint256"},{"name":"ticketsAvailable","type":"uint256","internalType":"uint256"}]},{"name":"split","type":"uint256[]","internalType":"uint256[]"},{"name":"currencyAddress","type":"address","internalType":"address"},{"name":"venueProposalParams","type":"tuple","internalType":"struct VenueTypes.VenueProposalParams","components":[{"name":"proposalPeriodDuration","type":"uint32","internalType":"uint32"},{"name":"proposalDateExtension","type":"uint32","internalType":"uint32"},{"name":"proposalDateMinimumFuture","type":"uint32","internalType":"uint32"},{"name":"proposalPeriodExtensionThreshold","type":"uint32","internalType":"uint32"}]}]}],"outputs":[{"name":"showId","type":"bytes32","internalType":"bytes32"}],"stateMutability":"nonpayable"},{"type":"function","name":"proxiableUUID","inputs":[],"outputs":[{"name":"","type":"bytes32","internalType":"bytes32"}],"stateMutability":"view"},{"type":"function","name":"referralInstance","inputs":[],"outputs":[{"name":"","type":"address","internalType":"contract ReferralModule"}],"stateMutability":"view"},{"type":"function","name":"refundBribe","inputs":[{"name":"showId","type":"bytes32","internalType":"bytes32"},{"name":"venueId","type":"uint256","internalType":"uint256"},{"name":"proposalIndex","type":"uint256","internalType":"uint256"}],"outputs":[],"stateMutability":"nonpayable"},{"type":"function","name":"refundTicket","inputs":[{"name":"showId","type":"bytes32","internalType":"bytes32"},{"name":"tokenId","type":"uint256","internalType":"uint256"}],"outputs":[],"stateMutability":"nonpayable"},{"type":"function","name":"renounceOwnership","inputs":[],"outputs":[],"stateMutability":"nonpayable"},{"type":"function","name":"setProtocolAddresses","inputs":[{"name":"_ticketFactory","type":"address","internalType":"address"},{"name":"_venueFactory","type":"address","internalType":"address"},{"name":"_referralContract","type":"address","internalType":"address"},{"name":"_artistRegistryContract","type":"address","internalType":"address"},{"name":"_organizerRegistryContract","type":"address","internalType":"address"},{"name":"_venueRegistryContract","type":"address","internalType":"address"},{"name":"_showVault","type":"address","internalType":"address"},{"name":"_boxOffice","type":"address","internalType":"address"}],"outputs":[],"stateMutability":"nonpayable"},{"type":"function","name":"setShowToTicketProxy","inputs":[{"name":"showId","type":"bytes32","internalType":"bytes32"},{"name":"ticketProxy","type":"address","internalType":"address"}],"outputs":[],"stateMutability":"nonpayable"},{"type":"function","name":"showToTicketProxy","inputs":[{"name":"","type":"bytes32","internalType":"bytes32"}],"outputs":[{"name":"","type":"address","internalType":"address"}],"stateMutability":"view"},{"type":"function","name":"showToVenueProxy","inputs":[{"name":"","type":"bytes32","internalType":"bytes32"}],"outputs":[{"name":"","type":"address","internalType":"address"}],"stateMutability":"view"},{"type":"function","name":"showVaultInstance","inputs":[],"outputs":[{"name":"","type":"address","internalType":"contract IShowVault"}],"stateMutability":"view"},{"type":"function","name":"shows","inputs":[{"name":"","type":"bytes32","internalType":"bytes32"}],"outputs":[{"name":"showId","type":"bytes32","internalType":"bytes32"},{"name":"name","type":"string","internalType":"string"},{"name":"description","type":"string","internalType":"string"},{"name":"organizer","type":"address","internalType":"address"},{"name":"venue","type":"tuple","internalType":"struct VenueRegistryTypes.VenueInfo","components":[{"name":"venueId","type":"uint256","internalType":"uint256"},{"name":"name","type":"string","internalType":"string"},{"name":"bio","type":"string","internalType":"string"},{"name":"wallet","type":"address","internalType":"address"},{"name":"coordinates","type":"tuple","internalType":"struct VenueRegistryTypes.Coordinates","components":[{"name":"latitude","type":"int256","internalType":"int256"},{"name":"longitude","type":"int256","internalType":"int256"}]},{"name":"totalCapacity","type":"uint256","internalType":"uint256"},{"name":"streetAddress","type":"string","internalType":"string"}]},{"name":"radius","type":"uint256","internalType":"uint256"},{"name":"sellOutThreshold","type":"uint256","internalType":"uint256"},{"name":"totalCapacity","type":"uint256","internalType":"uint256"},{"name":"status","type":"uint8","internalType":"enum ShowTypes.Status"},{"name":"expiry","type":"uint256","internalType":"uint256"},{"name":"showDate","type":"uint256","internalType":"uint256"},{"name":"currencyAddress","type":"address","internalType":"address"}],"stateMutability":"view"},{"type":"function","name":"ticketFactoryInstance","inputs":[],"outputs":[{"name":"","type":"address","internalType":"contract ITicketFactory"}],"stateMutability":"view"},{"type":"function","name":"transferOwnership","inputs":[{"name":"newOwner","type":"address","internalType":"address"}],"outputs":[],"stateMutability":"nonpayable"},{"type":"function","name":"updateShowDate","inputs":[{"name":"showId","type":"bytes32","internalType":"bytes32"},{"name":"newDate","type":"uint256","internalType":"uint256"}],"outputs":[],"stateMutability":"nonpayable"},{"type":"function","name":"updateShowVenue","inputs":[{"name":"showId","type":"bytes32","internalType":"bytes32"},{"name":"newVenue","type":"tuple","internalType":"struct VenueRegistryTypes.VenueInfo","components":[{"name":"venueId","type":"uint256","internalType":"uint256"},{"name":"name","type":"string","internalType":"string"},{"name":"bio","type":"string","internalType":"string"},{"name":"wallet","type":"address","internalType":"address"},{"name":"coordinates","type":"tuple","internalType":"struct VenueRegistryTypes.Coordinates","components":[{"name":"latitude","type":"int256","internalType":"int256"},{"name":"longitude","type":"int256","internalType":"int256"}]},{"name":"totalCapacity","type":"uint256","internalType":"uint256"},{"name":"streetAddress","type":"string","internalType":"string"}]}],"outputs":[],"stateMutability":"nonpayable"},{"type":"function","name":"updateStatus","inputs":[{"name":"showId","type":"bytes32","internalType":"bytes32"},{"name":"_status","type":"uint8","internalType":"enum ShowTypes.Status"}],"outputs":[],"stateMutability":"nonpayable"},{"type":"function","name":"updateStatusIfSoldOut","inputs":[{"name":"showId","type":"bytes32","internalType":"bytes32"}],"outputs":[],"stateMutability":"nonpayable"},{"type":"function","name":"upgradeToAndCall","inputs":[{"name":"newImplementation","type":"address","internalType":"address"},{"name":"data","type":"bytes","internalType":"bytes"}],"outputs":[],"stateMutability":"payable"},{"type":"function","name":"venueFactoryInstance","inputs":[],"outputs":[{"name":"","type":"address","internalType":"contract IVenueFactory"}],"stateMutability":"view"},{"type":"function","name":"venueRegistryInstance","inputs":[],"outputs":[{"name":"","type":"address","internalType":"contract IVenueRegistry"}],"stateMutability":"view"},{"type":"function","name":"voteForEmergencyRefund","inputs":[{"name":"showId","type":"bytes32","internalType":"bytes32"}],"outputs":[],"stateMutability":"nonpayable"},{"type":"function","name":"votesForEmergencyRefund","inputs":[{"name":"","type":"bytes32","internalType":"bytes32"}],"outputs":[{"name":"","type":"uint256","internalType":"uint256"}],"stateMutability":"view"},{"type":"function","name":"withdrawRefund","inputs":[{"name":"showId","type":"bytes32","internalType":"bytes32"}],"outputs":[],"stateMutability":"nonpayable"},{"type":"event","name":"BribeRefunded","inputs":[{"name":"showId","type":"bytes32","indexed":true,"internalType":"bytes32"},{"name":"venueId","type":"uint256","indexed":true,"internalType":"uint256"},{"name":"proposer","type":"address","indexed":true,"internalType":"address"},{"name":"bribeAmount","type":"uint256","indexed":false,"internalType":"uint256"},{"name":"paymentToken","type":"address","indexed":false,"internalType":"address"}],"anonymous":false},{"type":"event","name":"ERC20Deposited","inputs":[{"name":"showId","type":"bytes32","indexed":true,"internalType":"bytes32"},{"name":"tokenAddress","type":"address","indexed":true,"internalType":"address"},{"name":"depositor","type":"address","indexed":true,"internalType":"address"},{"name":"amount","type":"uint256","indexed":false,"internalType":"uint256"}],"anonymous":false},{"type":"event","name":"ExpiryUpdated","inputs":[{"name":"showId","type":"bytes32","indexed":true,"internalType":"bytes32"},{"name":"expiry","type":"uint256","indexed":false,"internalType":"uint256"}],"anonymous":false},{"type":"event","name":"Initialized","inputs":[{"name":"version","type":"uint64","indexed":false,"internalType":"uint64"}],"anonymous":false},{"type":"event","name":"OwnershipTransferred","inputs":[{"name":"previousOwner","type":"address","indexed":true,"internalType":"address"},{"name":"newOwner","type":"address","indexed":true,"internalType":"address"}],"anonymous":false},{"type":"event","name":"RefundWithdrawn","inputs":[{"name":"user","type":"address","indexed":true,"internalType":"address"},{"name":"showId","type":"bytes32","indexed":true,"internalType":"bytes32"},{"name":"amount","type":"uint256","indexed":false,"internalType":"uint256"}],"anonymous":false},{"type":"event","name":"ShowCancelled","inputs":[{"name":"showId","type":"bytes32","indexed":true,"internalType":"bytes32"},{"name":"reason","type":"string","indexed":false,"internalType":"string"}],"anonymous":false},{"type":"event","name":"ShowExpired","inputs":[{"name":"showId","type":"bytes32","indexed":true,"internalType":"bytes32"}],"anonymous":false},{"type":"event","name":"ShowProposed","inputs":[{"name":"showId","type":"bytes32","indexed":true,"internalType":"bytes32"},{"name":"organizer","type":"address","indexed":true,"internalType":"address"},{"name":"name","type":"string","indexed":false,"internalType":"string"},{"name":"artists","type":"address[]","indexed":false,"internalType":"address[]"},{"name":"description","type":"string","indexed":false,"internalType":"string"},{"name":"sellOutThreshold","type":"uint256","indexed":false,"internalType":"uint256"},{"name":"split","type":"uint256[]","indexed":false,"internalType":"uint256[]"},{"name":"currencyAddress","type":"address","indexed":false,"internalType":"address"}],"anonymous":false},{"type":"event","name":"StatusUpdated","inputs":[{"name":"showId","type":"bytes32","indexed":true,"internalType":"bytes32"},{"name":"status","type":"uint8","indexed":false,"internalType":"enum ShowTypes.Status"}],"anonymous":false},{"type":"event","name":"TicketRefunded","inputs":[{"name":"user","type":"address","indexed":true,"internalType":"address"},{"name":"showId","type":"bytes32","indexed":true,"internalType":"bytes32"},{"name":"refundAmount","type":"uint256","indexed":false,"internalType":"uint256"}],"anonymous":false},{"type":"event","name":"TicketTierConsumed","inputs":[{"name":"showId","type":"bytes32","indexed":true,"internalType":"bytes32"},{"name":"tierIndex","type":"uint256","indexed":true,"internalType":"uint256"},{"name":"amount","type":"uint256","indexed":false,"internalType":"uint256"}],"anonymous":false},{"type":"event","name":"Upgraded","inputs":[{"name":"implementation","type":"address","indexed":true,"internalType":"address"}],"anonymous":false},{"type":"event","name":"VenueUpdated","inputs":[{"name":"showId","type":"bytes32","indexed":true,"internalType":"bytes32"},{"name":"newVenue","type":"tuple","indexed":false,"internalType":"struct VenueRegistryTypes.VenueInfo","components":[{"name":"venueId","type":"uint256","internalType":"uint256"},{"name":"name","type":"string","internalType":"string"},{"name":"bio","type":"string","internalType":"string"},{"name":"wallet","type":"address","internalType":"address"},{"name":"coordinates","type":"tuple","internalType":"struct VenueRegistryTypes.Coordinates","components":[{"name":"latitude","type":"int256","internalType":"int256"},{"name":"longitude","type":"int256","internalType":"int256"}]},{"name":"totalCapacity","type":"uint256","internalType":"uint256"},{"name":"streetAddress","type":"string","internalType":"string"}]}],"anonymous":false},{"type":"error","name":"AddressEmptyCode","inputs":[{"name":"target","type":"address","internalType":"address"}]},{"type":"error","name":"ERC1967InvalidImplementation","inputs":[{"name":"implementation","type":"address","internalType":"address"}]},{"type":"error","name":"ERC1967NonPayable","inputs":[]},{"type":"error","name":"FailedInnerCall","inputs":[]},{"type":"error","name":"InvalidCapacity","inputs":[]},{"type":"error","name":"InvalidDescription","inputs":[]},{"type":"error","name":"InvalidInitialization","inputs":[]},{"type":"error","name":"InvalidLatitude","inputs":[]},{"type":"error","name":"InvalidLongitude","inputs":[]},{"type":"error","name":"InvalidName","inputs":[]},{"type":"error","name":"InvalidSellOutThreshold","inputs":[]},{"type":"error","name":"InvalidSplitArrayLength","inputs":[]},{"type":"error","name":"InvalidSplitSum","inputs":[]},{"type":"error","name":"InvalidVenueProposalParameters","inputs":[]},{"type":"error","name":"NotInitializing","inputs":[]},{"type":"error","name":"OwnableInvalidOwner","inputs":[{"name":"owner","type":"address","internalType":"address"}]},{"type":"error","name":"OwnableUnauthorizedAccount","inputs":[{"name":"account","type":"address","internalType":"address"}]},{"type":"error","name":"ReentrancyGuardReentrantCall","inputs":[]},{"type":"error","name":"UUPSUnauthorizedCallContext","inputs":[]},{"type":"error","name":"UUPSUnsupportedProxiableUUID","inputs":[{"name":"slot","type":"bytes32","internalType":"bytes32"}]}],"bytecode":{"object":"0x60a06040526008805460ff60a01b191690553060805234801561002157600080fd5b50608051615cd56200004c6000396000818161377f015281816137a801526138ee0152615cd56000f3fe6080604052600436106102885760003560e01c806385ffa16c1161015a578063c6ab848a116100c1578063e9acfa7c1161007a578063e9acfa7c146108d2578063ef5023a5146108f2578063f2fde38b14610912578063fc4bdfd414610932578063fca4655914610952578063fdc7066c1461098a57600080fd5b8063c6ab848a146107fc578063cfefb3d51461081c578063e30228be1461083c578063e4ca73aa1461085c578063e61805461461087c578063e71aee7e1461089c57600080fd5b8063a110412c11610113578063a110412c14610703578063a2b7d17414610723578063a94dafab14610743578063ad3cb1cc14610763578063bafd4eb0146107a1578063c4d66de8146107dc57600080fd5b806385ffa16c146106005780638da5cb5b146106205780638dea15a11461065d5780639673b1e31461067d578063977cb89e1461069d5780639ee0a14e146106d657600080fd5b80634ed372da116101fe578063644b5e59116101b7578063644b5e591461053c57806364ad6cd61461055c5780636a0178911461057c578063703ee4e51461059c578063715018a6146105bc5780637e3e3935146105d157600080fd5b80634ed372da1461046b5780634f1ef2861461048b57806352d1902d1461049e5780635c37da69146104c15780635f198834146104e157806363c18a521461050157600080fd5b80631cf2103e116102505780631cf2103e1461034457806327b1bf521461037c5780633c60d2d6146103b25780633deba964146103d25780633e2fea341461040857806346c2c8a71461043e57600080fd5b806302c9a8b51461028d578063054372ed146102c25780630a35906b146102e45780630b5c636414610304578063129e086b14610324575b600080fd5b34801561029957600080fd5b506102ad6102a8366004614719565b6109c0565b60405190151581526020015b60405180910390f35b3480156102ce57600080fd5b506102e26102dd366004614745565b6109ed565b005b3480156102f057600080fd5b506102e26102ff366004614779565b610ada565b34801561031057600080fd5b506102e261031f3660046147a5565b610e7d565b34801561033057600080fd5b506102e261033f3660046147ca565b610eeb565b34801561035057600080fd5b50600554610364906001600160a01b031681565b6040516001600160a01b0390911681526020016102b9565b34801561038857600080fd5b5061039c6103973660046147ca565b6113b1565b6040516102b99a99989796959493929190614936565b3480156103be57600080fd5b506102e26103cd366004614a48565b611965565b3480156103de57600080fd5b506103646103ed3660046147ca565b600b602052600090815260409020546001600160a01b031681565b34801561041457600080fd5b506103646104233660046147ca565b6000908152600c60205260409020546001600160a01b031690565b34801561044a57600080fd5b5061045e6104593660046147ca565b611d36565b6040516102b99190614a6a565b34801561047757600080fd5b506102ad610486366004614719565b61232b565b6102e2610499366004614bb2565b61234e565b3480156104aa57600080fd5b506104b3612369565b6040519081526020016102b9565b3480156104cd57600080fd5b506102ad6104dc366004614719565b612386565b3480156104ed57600080fd5b506102e26104fc366004614c15565b61240e565b34801561050d57600080fd5b506102ad61051c3660046147a5565b600f60209081526000928352604080842090915290825290205460ff1681565b34801561054857600080fd5b506102e2610557366004614779565b6124ee565b34801561056857600080fd5b506102e2610577366004614a48565b61263a565b34801561058857600080fd5b50600754610364906001600160a01b031681565b3480156105a857600080fd5b50600654610364906001600160a01b031681565b3480156105c857600080fd5b506102e26126e1565b3480156105dd57600080fd5b506105f16105ec366004614a48565b6126f5565b6040516102b993929190614cbe565b34801561060c57600080fd5b506104b361061b3660046147ca565b61281a565b34801561062c57600080fd5b507f9016d09d72d40fdae2fd8ceac6b6234c7706214fd39c1cd1e609a0528c199300546001600160a01b0316610364565b34801561066957600080fd5b50600454610364906001600160a01b031681565b34801561068957600080fd5b50600154610364906001600160a01b031681565b3480156106a957600080fd5b506103646106b83660046147ca565b6000908152600a60205260409020600301546001600160a01b031690565b3480156106e257600080fd5b506104b36106f13660046147ca565b600e6020526000908152604090205481565b34801561070f57600080fd5b506104b361071e366004614f8e565b6128a1565b34801561072f57600080fd5b50600854610364906001600160a01b031681565b34801561074f57600080fd5b506102e261075e3660046150ee565b612afb565b34801561076f57600080fd5b50610794604051806040016040528060058152602001640352e302e360dc1b81525081565b6040516102b99190615131565b3480156107ad57600080fd5b506102ad6107bc3660046147a5565b600d60209081526000928352604080842090915290825290205460ff1681565b3480156107e857600080fd5b506102e26107f7366004615144565b612c0a565b34801561080857600080fd5b50600354610364906001600160a01b031681565b34801561082857600080fd5b506102e26108373660046147ca565b612d3b565b34801561084857600080fd5b50600054610364906001600160a01b031681565b34801561086857600080fd5b50600254610364906001600160a01b031681565b34801561088857600080fd5b506102e26108973660046147ca565b612edb565b3480156108a857600080fd5b506103646108b73660046147ca565b600c602052600090815260409020546001600160a01b031681565b3480156108de57600080fd5b506102e26108ed3660046147ca565b612fda565b3480156108fe57600080fd5b506102e261090d3660046147ca565b613195565b34801561091e57600080fd5b506102e261092d366004615144565b61326a565b34801561093e57600080fd5b506102e261094d3660046147ca565b6132a5565b34801561095e57600080fd5b5061097261096d3660046147ca565b6133d8565b6040516102b99c9b9a99989796959493929190615161565b34801561099657600080fd5b506103646109a53660046147ca565b6000908152600b60205260409020546001600160a01b031690565b6000818152600d602090815260408083206001600160a01b038616845290915290205460ff165b92915050565b6000828152600c602052604090205482906001600160a01b0316331480610a2a57506000818152600b60205260409020546001600160a01b031633145b80610a3457503330145b610a6a5760405162461bcd60e51b81526020600482015260026024820152612a2b60f11b60448201526064015b60405180910390fd5b6000838152600a60205260409020601101805483919060ff19166001836007811115610a9857610a986148fe565b0217905550827f8ed894b6f384ca9c829b9aa5b056bc9106a90845a15616607e975d4ad488ee6783604051610acd9190614a6a565b60405180910390a2505050565b6000838152600a602052604090206004601182015460ff166007811115610b0357610b036148fe565b03610b355760405162461bcd60e51b8152602060048201526002602482015261216360f01b6044820152606401610a61565b6005810154839003610b595760405162461bcd60e51b8152600401610a6190615200565b6000848152600c6020526040808220549051633d77f7eb60e01b8152600481018790526001600160a01b0390911691908290633d77f7eb90602401602060405180830381865afa158015610bb1573d6000803e3d6000fd5b505050506040513d601f19601f82011682018060405250810190610bd5919061521c565b9050838111610c0b5760405162461bcd60e51b8152602060048201526002602482015261216960f01b6044820152606401610a61565b604051633198f7e760e21b815260048101879052602481018590526000906001600160a01b0384169063c663df9c90604401600060405180830381865afa158015610c5a573d6000803e3d6000fd5b505050506040513d6000823e601f3d908101601f19168201604052610c8291908101906153f3565b8051519091508614610cbb5760405162461bcd60e51b815260206004820152600260248201526110bb60f11b6044820152606401610a61565b60408101516001600160a01b03163314610cfd5760405162461bcd60e51b815260206004820152600360248201526210b83960e91b6044820152606401610a61565b6000816060015111610d365760405162461bcd60e51b8152602060048201526002602482015261084960f21b6044820152606401610a61565b60405163899a5ab760e01b815260048101889052602481018690526001600160a01b0384169063899a5ab790604401600060405180830381600087803b158015610d7f57600080fd5b505af1158015610d93573d6000803e3d6000fd5b5050600754606084015160c085015160405163194cc89b60e31b8152600481018d905260248101929092526001600160a01b039081166044830152336064830152909116925063ca6644d89150608401600060405180830381600087803b158015610dfd57600080fd5b505af1158015610e11573d6000803e3d6000fd5b50505050336001600160a01b031686887f028f6cd258ee3664e34f77deb25ca97b00a5d18e45eba8987a259d5f2880a9f584606001518560c00151604051610e6c9291909182526001600160a01b0316602082015260400190565b60405180910390a450505050505050565b6008546001600160a01b03163314610ebd5760405162461bcd60e51b815260206004820152600360248201526221626f60e81b6044820152606401610a61565b6000918252600b602052604090912080546001600160a01b0319166001600160a01b03909216919091179055565b80610ef6338261232b565b80610f065750610f0633826109c0565b610f225760405162461bcd60e51b8152600401610a61906154ca565b6000828152600a602052604090206003601182015460ff166007811115610f4b57610f4b6148fe565b14610f685760405162461bcd60e51b8152600401610a6190615200565b6014810154610f7a906202a3006154fc565b421015610f995760405162461bcd60e51b8152600401610a6190615200565b60075460405163d23b85a360e01b8152600481018590526000916001600160a01b03169063d23b85a390602401602060405180830381865afa158015610fe3573d6000803e3d6000fd5b505050506040513d601f19601f82011682018060405250810190611007919061550f565b60075460405163213efcab60e01b8152600481018790526001600160a01b0380841660248301529293506000929091169063213efcab90604401602060405180830381865afa15801561105e573d6000803e3d6000fd5b505050506040513d601f19601f82011682018060405250810190611082919061521c565b905080600003611093575050505050565b60048301546000906110a69060026154fc565b90506000816001600160401b038111156110c2576110c2614a78565b6040519080825280602002602001820160405280156110eb578160200160208202803683370190505b5060128601549091506000906001600160401b0381111561110e5761110e614a78565b604051908082528060200260200182016040528015611137578160200160208202803683370190505b50600387015483519192506001600160a01b031690839060009061115d5761115d61552c565b60200260200101906001600160a01b031690816001600160a01b03168152505060005b60048701548110156111fc578660040181815481106111a1576111a161552c565b6000918252602090912001546001600160a01b0316836111c28360016154fc565b815181106111d2576111d261552c565b6001600160a01b0390921660209283029190910190910152806111f481615542565b915050611180565b5060088601546001600160a01b03168261121760018661555b565b815181106112275761122761552c565b6001600160a01b0390921660209283029190910182015260128701805460408051828502810185019091528181529283018282801561128557602002820191906000526020600020905b815481526020019060010190808311611271575b5050600754604051630b309b6560e21b81529495506001600160a01b031693632cc26d9493506112c392508c9150869086908a908c9060040161559e565b600060405180830381600087803b1580156112dd57600080fd5b505af11580156112f1573d6000803e3d6000fd5b505060075460405163fab49c3760e01b8152600481018c90526001600160a01b038981166024830152909116925063fab49c379150604401600060405180830381600087803b15801561134357600080fd5b505af1158015611357573d6000803e3d6000fd5b5050505060118601805460ff1916600490811790915560405189917f8ed894b6f384ca9c829b9aa5b056bc9106a90845a15616607e975d4ad488ee679161139e9190614a6a565b60405180910390a25050505050505b5050565b606080600060606113c06145e3565b6000868152600a60205260408120600e810154606092918291829182916001600160401b038111156113f4576113f4614a78565b60405190808252806020026020018201604052801561144957816020015b61143660405180606001604052806060815260200160008152602001600081525090565b8152602001906001900390816114125790505b50955060005b600e82015481101561155f5781600e0181815481106114705761147061552c565b9060005260206000209060030201604051806060016040529081600082018054611499906155ec565b80601f01602080910402602001604051908101604052809291908181526020018280546114c5906155ec565b80156115125780601f106114e757610100808354040283529160200191611512565b820191906000526020600020905b8154815290600101906020018083116114f557829003601f168201915b50505050508152602001600182015481526020016002820154815250508782815181106115415761154161552c565b6020026020010181905250808061155790615542565b91505061144f565b5080600101816002018260030160009054906101000a90046001600160a01b031683600401846005018a86600f015487601001548860110160009054906101000a900460ff168960150160009054906101000a90046001600160a01b03168980546115c9906155ec565b80601f01602080910402602001604051908101604052809291908181526020018280546115f5906155ec565b80156116425780601f1061161757610100808354040283529160200191611642565b820191906000526020600020905b81548152906001019060200180831161162557829003601f168201915b50505050509950888054611655906155ec565b80601f0160208091040260200160405190810160405280929190818152602001828054611681906155ec565b80156116ce5780601f106116a3576101008083540402835291602001916116ce565b820191906000526020600020905b8154815290600101906020018083116116b157829003601f168201915b505050505098508680548060200260200160405190810160405280929190818152602001828054801561172a57602002820191906000526020600020905b81546001600160a01b0316815260019091019060200180831161170c575b50505050509650856040518060e001604052908160008201548152602001600182018054611757906155ec565b80601f0160208091040260200160405190810160405280929190818152602001828054611783906155ec565b80156117d05780601f106117a5576101008083540402835291602001916117d0565b820191906000526020600020905b8154815290600101906020018083116117b357829003601f168201915b505050505081526020016002820180546117e9906155ec565b80601f0160208091040260200160405190810160405280929190818152602001828054611815906155ec565b80156118625780601f1061183757610100808354040283529160200191611862565b820191906000526020600020905b81548152906001019060200180831161184557829003601f168201915b505050918352505060038201546001600160a01b031660208083019190915260408051808201825260048501548152600585015492810192909252820152600682015460608201526007820180546080909201916118bf906155ec565b80601f01602080910402602001604051908101604052809291908181526020018280546118eb906155ec565b80156119385780601f1061190d57610100808354040283529160200191611938565b820191906000526020600020905b81548152906001019060200180831161191b57829003601f168201915b50505050508152505095509a509a509a509a509a509a509a509a509a509a50509193959799509193959799565b6000828152600b60205260409020546001600160a01b0316806119b35760405162461bcd60e51b8152600401610a61906020808252600490820152632170787960e01b604082015260600190565b6000838152600a602052604081206011015460ff1660078111156119d9576119d96148fe565b1480611a0a575060056000848152600a602052604090206011015460ff166007811115611a0857611a086148fe565b145b80611a3a575060076000848152600a602052604090206011015460ff166007811115611a3857611a386148fe565b145b611a6c5760405162461bcd60e51b8152602060048201526003602482015262213d7360e81b6044820152606401610a61565b600854604051632fef62b760e01b8152600481018590523360248201526044810184905282916001600160a01b031690632fef62b790606401602060405180830381865afa158015611ac2573d6000803e3d6000fd5b505050506040513d601f19601f82011682018060405250810190611ae69190615620565b611b175760405162461bcd60e51b8152602060048201526002602482015261085d60f21b6044820152606401610a61565b604051636d1d3b0b60e11b8152600481018590526024810184905260009081906001600160a01b0384169063da3a7616906044016040805180830381865afa158015611b67573d6000803e3d6000fd5b505050506040513d601f19601f82011682018060405250810190611b8b919061563b565b9150915060008211611bc45760405162461bcd60e51b8152602060048201526002602482015261084960f21b6044820152606401610a61565b60075460405163d23b85a360e01b8152600481018890526000916001600160a01b03169063d23b85a390602401602060405180830381865afa158015611c0e573d6000803e3d6000fd5b505050506040513d601f19601f82011682018060405250810190611c32919061550f565b6000888152600a60205260409020600e0180549192509083908110611c5957611c5961552c565b600091825260208220600260039092020101805491611c7783615542565b9091555050600854604051635f1229f960e01b81526004810189905260248101889052604481018590526001600160a01b03838116606483015233608483015290911690635f1229f99060a401600060405180830381600087803b158015611cde57600080fd5b505af1158015611cf2573d6000803e3d6000fd5b50506040518581528992503391507f6327daeea6ce26abf9f96cd84eee9cb40d1d5b88f7f5990914540e392446bf049060200160405180910390a350505050505050565b6000818152600a6020908152604080832081516101e0810190925280548252600181018054859484019190611d6a906155ec565b80601f0160208091040260200160405190810160405280929190818152602001828054611d96906155ec565b8015611de35780601f10611db857610100808354040283529160200191611de3565b820191906000526020600020905b815481529060010190602001808311611dc657829003601f168201915b50505050508152602001600282018054611dfc906155ec565b80601f0160208091040260200160405190810160405280929190818152602001828054611e28906155ec565b8015611e755780601f10611e4a57610100808354040283529160200191611e75565b820191906000526020600020905b815481529060010190602001808311611e5857829003601f168201915b505050918352505060038201546001600160a01b03166020808301919091526004830180546040805182850281018501825282815294019392830182828015611ee757602002820191906000526020600020905b81546001600160a01b03168152600190910190602001808311611ec9575b50505050508152602001600582016040518060e001604052908160008201548152602001600182018054611f1a906155ec565b80601f0160208091040260200160405190810160405280929190818152602001828054611f46906155ec565b8015611f935780601f10611f6857610100808354040283529160200191611f93565b820191906000526020600020905b815481529060010190602001808311611f7657829003601f168201915b50505050508152602001600282018054611fac906155ec565b80601f0160208091040260200160405190810160405280929190818152602001828054611fd8906155ec565b80156120255780601f10611ffa57610100808354040283529160200191612025565b820191906000526020600020905b81548152906001019060200180831161200857829003601f168201915b505050918352505060038201546001600160a01b03166020808301919091526040805180820182526004850154815260058501549281019290925282015260068201546060820152600782018054608090920191612082906155ec565b80601f01602080910402602001604051908101604052809291908181526020018280546120ae906155ec565b80156120fb5780601f106120d0576101008083540402835291602001916120fb565b820191906000526020600020905b8154815290600101906020018083116120de57829003601f168201915b5050505050815250508152602001600d8201548152602001600e8201805480602002602001604051908101604052809291908181526020016000905b8282101561220f578382906000526020600020906003020160405180606001604052908160008201805461216a906155ec565b80601f0160208091040260200160405190810160405280929190818152602001828054612196906155ec565b80156121e35780601f106121b8576101008083540402835291602001916121e3565b820191906000526020600020905b8154815290600101906020018083116121c657829003601f168201915b505050505081526020016001820154815260200160028201548152505081526020019060010190612137565b50505090825250600f820154602082015260108201546040820152601182015460609091019060ff166007811115612249576122496148fe565b600781111561225a5761225a6148fe565b8152602001601282018054806020026020016040519081016040528092919081815260200182805480156122ad57602002820191906000526020600020905b815481526020019060010190808311612299575b505050918352505060138201546020820152601482015460408201526015909101546001600160a01b03166060909101526101808101519091504211801561230c575060078161014001516007811115612309576123096148fe565b14155b1561231a5750600792915050565b610140015192915050565b50919050565b6000908152600a60205260409020600301546001600160a01b0391821691161490565b612356613774565b61235f82613819565b6113ad8282613821565b60006123736138e3565b50600080516020615c8083398151915290565b600854604051635b9a1e0960e01b8152600481018390526001600160a01b0384811660248301526000928392911690635b9a1e0990604401600060405180830381865afa1580156123db573d6000803e3d6000fd5b505050506040513d6000823e601f3d908101601f19168201604052612403919081019061565f565b511515949350505050565b600854600160a01b900460ff161561244d5760405162461bcd60e51b8152602060048201526002602482015261212160f01b6044820152606401610a61565b600180546001600160a01b03199081166001600160a01b03998a161790915560028054821699891699909917909855600380548916968816969096179095556004805488169487169490941790935560058054871692861692909217909155600680548616918516919091179055600780549094169083161790925560088054600160a01b939092166001600160a81b031990921691909117919091179055565b6000838152600b602052604090205483906001600160a01b0316331461253a5760405162461bcd60e51b81526020600482015260016024820152601560fa1b6044820152606401610a61565b6000848152600a60205260409020600e810154841061257f5760405162461bcd60e51b81526020600482015260016024820152602160f81b6044820152606401610a61565b600081600e0185815481106125965761259661552c565b9060005260206000209060030201905083816002015410156125e25760405162461bcd60e51b815260206004820152600560248201526406040e8d2f60db1b6044820152606401610a61565b838160020160008282546125f6919061555b565b9091555050604051848152859087907fb23124a400670af3347ce475459c187bbba871f316e2d1d91ae115a762def0209060200160405180910390a3505050505050565b6000828152600c602052604090205482906001600160a01b031633146126865760405162461bcd60e51b81526020600482015260016024820152602b60f91b6044820152606401610a61565b60026000848152600a602052604090206011015460ff1660078111156126ae576126ae6148fe565b146126cb5760405162461bcd60e51b8152600401610a6190615200565b506000918252600a602052604090912060140155565b6126e961392c565b6126f36000613987565b565b6000828152600a60205260408120600e0154606091908190841061273f5760405162461bcd60e51b81526020600482015260016024820152601d60fa1b6044820152606401610a61565b6000858152600a60205260408120600e018054869081106127625761276261552c565b90600052602060002090600302019050806000018160010154826002015482805461278c906155ec565b80601f01602080910402602001604051908101604052809291908181526020018280546127b8906155ec565b80156128055780601f106127da57610100808354040283529160200191612805565b820191906000526020600020905b8154815290600101906020018083116127e857829003601f168201915b50505050509250935093509350509250925092565b6000818152600a602052604081206001825b60048301548110156128995760038301546004840180546001600160a01b03909216918390811061285f5761285f61552c565b6000918252602090912001546001600160a01b031614612887578161288381615542565b9250505b8061289181615542565b91505061282c565b509392505050565b6005546040516329e7dbd960e01b81523360048201526000916001600160a01b0316906329e7dbd990602401602060405180830381865afa1580156128ea573d6000803e3d6000fd5b505050506040513d601f19601f8201168201806040525081019061290e9190615620565b6129405760405162461bcd60e51b815260206004820152600360248201526221724f60e81b6044820152606401610a61565b60005b826040015151811015612a3557600454604084015180516001600160a01b03909216916364fd288691908490811061297d5761297d61552c565b60200260200101516040518263ffffffff1660e01b81526004016129b091906001600160a01b0391909116815260200190565b602060405180830381865afa1580156129cd573d6000803e3d6000fd5b505050506040513d601f19601f820116820180604052508101906129f19190615620565b612a235760405162461bcd60e51b815260206004820152600360248201526221724160e81b6044820152606401610a61565b80612a2d81615542565b915050612943565b50612a3f826139f8565b612a4882613c33565b60085460005460405163083fb40160e11b8152600481018490526001600160a01b039182166024820152929350169063107f680290604401600060405180830381600087803b158015612a9a57600080fd5b505af1158015612aae573d6000803e3d6000fd5b5050600054610140850151805160208201516040830151606090930151612af696508795506001600160a01b039094169363ffffffff92831693918316929182169116614036565b919050565b6000828152600c602052604090205482906001600160a01b03163314612b475760405162461bcd60e51b81526020600482015260016024820152602b60f91b6044820152606401610a61565b6000838152600a602052604081206011015460ff166007811115612b6d57612b6d6148fe565b1480612b9e575060026000848152600a602052604090206011015460ff166007811115612b9c57612b9c6148fe565b145b612bba5760405162461bcd60e51b8152600401610a6190615200565b6000838152600a602052604090208290600501612bd78282615802565b905050827f4af00802913ced6ade1d9ae285d2baa3b45a3d2867a08e13ea3bb5b950b8faac83604051610acd91906159c5565b7ff0c57e16840df040f15088dc2f81fe391c3923bec73e23a9662efc9c229c6a008054600160401b810460ff1615906001600160401b0316600081158015612c4f5750825b90506000826001600160401b03166001148015612c6b5750303b155b905081158015612c79575080155b15612c975760405163f92ee8a960e01b815260040160405180910390fd5b845467ffffffffffffffff191660011785558315612cc157845460ff60401b1916600160401b1785555b612cc9614169565b612cd286614179565b600080546001600160a01b0319166001600160a01b0388161790558315612d3357845460ff60401b19168555604051600181527fc7f505b2f371ae2175ee4913f4499e1f2633a7b5936321eed1cdaeb6115181d29060200160405180910390a15b505050505050565b80612d46338261232b565b80612d565750612d5633826109c0565b612d725760405162461bcd60e51b8152600401610a61906154ca565b6000828152600a602052604090206004601182015460ff166007811115612d9b57612d9b6148fe565b14612db85760405162461bcd60e51b8152600401610a6190615200565b6014810154612dca906202a3006154fc565b421015612dff5760405162461bcd60e51b81526020600482015260036024820152620858db60ea1b6044820152606401610a61565b60075460405163d23b85a360e01b8152600481018590526000916001600160a01b03169063d23b85a390602401602060405180830381865afa158015612e49573d6000803e3d6000fd5b505050506040513d601f19601f82011682018060405250810190612e6d919061550f565b6007546040516306e3daa360e51b8152600481018790526001600160a01b03808416602483015292935091169063dc7b546090604401600060405180830381600087803b158015612ebd57600080fd5b505af1158015612ed1573d6000803e3d6000fd5b5050505050505050565b6000818152600b602052604090205481906001600160a01b03163314612f275760405162461bcd60e51b81526020600482015260016024820152601560fa1b6044820152606401610a61565b6000828152600a60205260408082206008549151630610418760e41b8152600481018690529092916001600160a01b031690636104187090602401602060405180830381865afa158015612f7f573d6000803e3d6000fd5b505050506040513d601f19601f82011682018060405250810190612fa3919061521c565b905081600f01548260100154612fb99190615a8f565b612fc4826064615a8f565b10612fd457612fd48460016109ed565b50505050565b612fe261418a565b6000818152600a602052604090206006601182015460ff16600781111561300b5761300b6148fe565b148061302f57506007601182015460ff16600781111561302d5761302d6148fe565b145b8061305257506005601182015460ff166007811115613050576130506148fe565b145b8061307557506000601182015460ff166007811115613073576130736148fe565b145b6130915760405162461bcd60e51b8152600401610a6190615200565b60075460405163d23b85a360e01b8152600481018490526000916001600160a01b03169063d23b85a390602401602060405180830381865afa1580156130db573d6000803e3d6000fd5b505050506040513d601f19601f820116820180604052508101906130ff919061550f565b600754604051632464077360e21b8152600481018690526001600160a01b0380841660248301529293509116906391901dcc90604401600060405180830381600087803b15801561314f57600080fd5b505af1158015613163573d6000803e3d6000fd5b50505050505061319260017f9b779b17422d0df92223018b32b4d1fa46e071723d6817e2486d003becc55f0055565b50565b806131a0338261232b565b806131b057506131b033826109c0565b6131cc5760405162461bcd60e51b8152600401610a61906154ca565b6000828152600a602052604090206001601182015460ff1660078111156131f5576131f56148fe565b148061321957506002601182015460ff166007811115613217576132176148fe565b145b8061323c57506003601182015460ff16600781111561323a5761323a6148fe565b145b6132585760405162461bcd60e51b8152600401610a6190615200565b601101805460ff191660051790555050565b61327261392c565b6001600160a01b03811661329c57604051631e4fbdf760e01b815260006004820152602401610a61565b61319281613987565b6132af3382612386565b6132e45760405162461bcd60e51b81526020600482015260066024820152650dcde40e8d2f60d31b6044820152606401610a61565b60046000828152600a602052604090206011015460ff16600781111561330c5761330c6148fe565b146133295760405162461bcd60e51b8152600401610a6190615200565b6000818152600f6020908152604080832033845290915290205460ff16156133795760405162461bcd60e51b81526020600482015260036024820152621090bb60e91b6044820152606401610a61565b6000818152600f602090815260408083203384528252808320805460ff19166001908117909155848452600e90925282208054919290916133bb9084906154fc565b909155506133ca9050816141fa565b15613192576131928161429e565b600a60205260009081526040902080546001820180549192916133fa906155ec565b80601f0160208091040260200160405190810160405280929190818152602001828054613426906155ec565b80156134735780601f1061344857610100808354040283529160200191613473565b820191906000526020600020905b81548152906001019060200180831161345657829003601f168201915b505050505090806002018054613488906155ec565b80601f01602080910402602001604051908101604052809291908181526020018280546134b4906155ec565b80156135015780601f106134d657610100808354040283529160200191613501565b820191906000526020600020905b8154815290600101906020018083116134e457829003601f168201915b5050505050908060030160009054906101000a90046001600160a01b031690806005016040518060e001604052908160008201548152602001600182018054613549906155ec565b80601f0160208091040260200160405190810160405280929190818152602001828054613575906155ec565b80156135c25780601f10613597576101008083540402835291602001916135c2565b820191906000526020600020905b8154815290600101906020018083116135a557829003601f168201915b505050505081526020016002820180546135db906155ec565b80601f0160208091040260200160405190810160405280929190818152602001828054613607906155ec565b80156136545780601f1061362957610100808354040283529160200191613654565b820191906000526020600020905b81548152906001019060200180831161363757829003601f168201915b505050918352505060038201546001600160a01b031660208083019190915260408051808201825260048501548152600585015492810192909252820152600682015460608201526007820180546080909201916136b1906155ec565b80601f01602080910402602001604051908101604052809291908181526020018280546136dd906155ec565b801561372a5780601f106136ff5761010080835404028352916020019161372a565b820191906000526020600020905b81548152906001019060200180831161370d57829003601f168201915b50505091909252505050600d820154600f8301546010840154601185015460138601546014870154601590970154959694959394929360ff9092169290916001600160a01b03168c565b306001600160a01b037f00000000000000000000000000000000000000000000000000000000000000001614806137fb57507f00000000000000000000000000000000000000000000000000000000000000006001600160a01b03166137ef600080516020615c80833981519152546001600160a01b031690565b6001600160a01b031614155b156126f35760405163703e46dd60e11b815260040160405180910390fd5b61319261392c565b816001600160a01b03166352d1902d6040518163ffffffff1660e01b8152600401602060405180830381865afa92505050801561387b575060408051601f3d908101601f191682019092526138789181019061521c565b60015b6138a357604051634c9c8ce360e01b81526001600160a01b0383166004820152602401610a61565b600080516020615c8083398151915281146138d457604051632a87526960e21b815260048101829052602401610a61565b6138de838361431f565b505050565b306001600160a01b037f000000000000000000000000000000000000000000000000000000000000000016146126f35760405163703e46dd60e11b815260040160405180910390fd5b3361395e7f9016d09d72d40fdae2fd8ceac6b6234c7706214fd39c1cd1e609a0528c199300546001600160a01b031690565b6001600160a01b0316146126f35760405163118cdaa760e01b8152336004820152602401610a61565b7f9016d09d72d40fdae2fd8ceac6b6234c7706214fd39c1cd1e609a0528c19930080546001600160a01b031981166001600160a01b03848116918217845560405192169182907f8be0079c531659141344cd1fd0a4f28419497f9722a3daafe3b4186f6b6457e090600090a3505050565b805151600003613a1b5760405163430f13b360e01b815260040160405180910390fd5b6000816080015111613a40576040516331278a8760e01b815260040160405180910390fd5b6020810151511580613a5857506103e8816020015151115b15613a76576040516340132f1f60e01b815260040160405180910390fd5b60328160c0015111613a9b576040516331278a8760e01b815260040160405180910390fd5b60328160a0015160ff161080613ab8575060648160a0015160ff16115b15613ad65760405163ad7d3a4d60e01b815260040160405180910390fd5b60608101515163055d4a7f191380613af6575060608101515163055d4a80125b15613b145760405163c2df0dc560e01b815260040160405180910390fd5b630aba94ff198160600151602001511280613b3a5750630aba9500816060015160200151135b15613b585760405163016cb17f60e71b815260040160405180910390fd5b6107088161014001516000015163ffffffff161015613b8a57604051631e68fc9d60e21b815260040160405180910390fd5b61012c8161014001516020015163ffffffff161015613bbc57604051631e68fc9d60e21b815260040160405180910390fd5b610a8c8161014001516040015163ffffffff161015613bee57604051631e68fc9d60e21b815260040160405180910390fd5b60788161014001516060015163ffffffff161015613c1f57604051631e68fc9d60e21b815260040160405180910390fd5b613192816101000151826040015151614375565b805160408083015160608401518051602091820151608087015160a088015160c08901516101208a01519751600099613c73999098979091339101615aa6565b60408051601f1981840301815291815281516020928301206000818152600a90935291208351919250906001820190613cac9082615b16565b5060208301516002820190613cc19082615b16565b506003810180546001600160a01b0319163317905560408301518051613cf1916004840191602090910190614644565b506040805160e081018252600080825282516020818101855282825280840191825284518082018652838152848601526060808501849052880151608085015260c08089015160a086015285519182019095529182529282015280516005840190815591519091906006840190613d689082615b16565b5060408201516002820190613d7d9082615b16565b5060608201516003820180546001600160a01b0319166001600160a01b0390921691909117905560808201518051600483015560200151600582015560a0820151600682015560c08201516007820190613dd79082615b16565b5050506080830151600d82015560a083015160ff16600f82015560c0830151601082015560118101805460ff191690556101008301518051613e239160128401916020909101906146a9565b50613e314262278d006154fc565b6013820155600060148201556101208301516015820180546001600160a01b0319166001600160a01b0392831690811790915560075460405163e8aa2e5f60e01b81526004810186905260248101929092529091169063e8aa2e5f90604401600060405180830381600087803b158015613eaa57600080fd5b505af1158015613ebe573d6000803e3d6000fd5b5050505060005b8360e0015151811015613f475781600e018460e001518281518110613eec57613eec61552c565b60209081029190910181015182546001810184556000938452919092208251600390920201908190613f1e9082615b16565b506020820151600182015560409091015160029091015580613f3f81615542565b915050613ec5565b5060005b836040015151811015613fc9576001600d6000858152602001908152602001600020600086604001518481518110613f8557613f8561552c565b6020908102919091018101516001600160a01b03168252810191909152604001600020805460ff191691151591909117905580613fc181615542565b915050613f4b565b50336001600160a01b0316827fa01783f955984485ce010e7dc2b7745239040a2b48640ffd2a56fb065911fc688560000151866040015187602001518860a001518961010001518a610120015160405161402896959493929190615bcf565b60405180910390a350919050565b600154604051634b84567160e11b81526001600160a01b038781166004830152602482018790526044820186905260648201859052608482018490526000921690639708ace29060a4016020604051808303816000875af115801561409f573d6000803e3d6000fd5b505050506040513d601f19601f820116820180604052508101906140c3919061550f565b6007546006546040516301156c6760e71b81523060048201526001600160a01b0392831660248201529082166044820152919250821690638ab6338090606401600060405180830381600087803b15801561411d57600080fd5b505af1158015614131573d6000803e3d6000fd5b505050600097885250600c602052604090962080546001600160a01b0319166001600160a01b03909716969096179095555050505050565b614171614408565b6126f3614451565b614181614408565b61319281614459565b7f9b779b17422d0df92223018b32b4d1fa46e071723d6817e2486d003becc55f008054600119016141ce57604051633ee5aeb560e01b815260040160405180910390fd5b60029055565b60017f9b779b17422d0df92223018b32b4d1fa46e071723d6817e2486d003becc55f0055565b6000818152600e6020526040808220546008549151630610418760e41b815260048101859052909183916001600160a01b0390911690636104187090602401602060405180830381865afa158015614256573d6000803e3d6000fd5b505050506040513d601f19601f8201168201806040525081019061427a919061521c565b90506064614289826042615a8f565b6142939190615c41565b909110159392505050565b6000818152600a6020526040902060110180546005919060ff19166001830217905550807f6a409f0f8d124fc3c3a9f5c354dc2901c33e711b0a6f705e8682307426329fb86040516143149060208082526010908201526f115b595c99d95b98de481499599d5b9960821b604082015260600190565b60405180910390a250565b61432882614461565b6040516001600160a01b038316907fbc7cd75a20ee27fd9adebab32041f755214dbc6bffa90cc0225b39da2e5c2d3b90600090a280511561436d576138de82826144c6565b6113ad61453c565b6143808160026154fc565b8251146143a0576040516328e525af60e21b815260040160405180910390fd5b6000805b83518110156143e6578381815181106143bf576143bf61552c565b6020026020010151826143d291906154fc565b9150806143de81615542565b9150506143a4565b50806064146138de576040516317b5e2db60e01b815260040160405180910390fd5b7ff0c57e16840df040f15088dc2f81fe391c3923bec73e23a9662efc9c229c6a0054600160401b900460ff166126f357604051631afcd79f60e31b815260040160405180910390fd5b6141d4614408565b613272614408565b806001600160a01b03163b60000361449757604051634c9c8ce360e01b81526001600160a01b0382166004820152602401610a61565b600080516020615c8083398151915280546001600160a01b0319166001600160a01b0392909216919091179055565b6060600080846001600160a01b0316846040516144e39190615c63565b600060405180830381855af49150503d806000811461451e576040519150601f19603f3d011682016040523d82523d6000602084013e614523565b606091505b509150915061453385838361455b565b95945050505050565b34156126f35760405163b398979f60e01b815260040160405180910390fd5b6060826145705761456b826145ba565b6145b3565b815115801561458757506001600160a01b0384163b155b156145b057604051639996b31560e01b81526001600160a01b0385166004820152602401610a61565b50805b9392505050565b8051156145ca5780518082602001fd5b604051630a12f52160e11b815260040160405180910390fd5b6040518060e0016040528060008152602001606081526020016060815260200160006001600160a01b03168152602001614630604051806040016040528060008152602001600081525090565b815260200160008152602001606081525090565b828054828255906000526020600020908101928215614699579160200282015b8281111561469957825182546001600160a01b0319166001600160a01b03909116178255602090920191600190910190614664565b506146a59291506146e4565b5090565b828054828255906000526020600020908101928215614699579160200282015b828111156146995782518255916020019190600101906146c9565b5b808211156146a557600081556001016146e5565b6001600160a01b038116811461319257600080fd5b8035612af6816146f9565b6000806040838503121561472c57600080fd5b8235614737816146f9565b946020939093013593505050565b6000806040838503121561475857600080fd5b8235915060208301356008811061476e57600080fd5b809150509250929050565b60008060006060848603121561478e57600080fd5b505081359360208301359350604090920135919050565b600080604083850312156147b857600080fd5b82359150602083013561476e816146f9565b6000602082840312156147dc57600080fd5b5035919050565b60005b838110156147fe5781810151838201526020016147e6565b50506000910152565b6000815180845261481f8160208601602086016147e3565b601f01601f19169290920160200192915050565b600081518084526020808501945080840160005b8381101561486c5781516001600160a01b031687529582019590820190600101614847565b509495945050505050565b600061010082518452602083015181602086015261489782860182614807565b915050604083015184820360408601526148b18282614807565b91505060018060a01b036060840151166060850152608083015180516080860152602081015160a08601525060a083015160c085015260c083015184820360e08601526145338282614807565b634e487b7160e01b600052602160045260246000fd5b6008811061493257634e487b7160e01b600052602160045260246000fd5b9052565b600061014080835261494a8184018e614807565b905060208382038185015261495f828e614807565b9150604060018060a01b038d1681860152606085840381870152614983848e614833565b93508584036080870152614997848d614877565b935085840360a0870152838b518086528486019150848160051b870101858e0160005b83811015614a0357888303601f19018552815180518785526149de88860182614807565b828b0151868c01529189015194890194909452948801949250908701906001016149ba565b5050809750505050505050508560c08301528460e0830152614a29610100830185614914565b6001600160a01b0383166101208301529b9a5050505050505050505050565b60008060408385031215614a5b57600080fd5b50508035926020909101359150565b602081016109e78284614914565b634e487b7160e01b600052604160045260246000fd5b604080519081016001600160401b0381118282101715614ab057614ab0614a78565b60405290565b604051606081016001600160401b0381118282101715614ab057614ab0614a78565b60405161016081016001600160401b0381118282101715614ab057614ab0614a78565b60405160e081016001600160401b0381118282101715614ab057614ab0614a78565b604051601f8201601f191681016001600160401b0381118282101715614b4557614b45614a78565b604052919050565b60006001600160401b03821115614b6657614b66614a78565b50601f01601f191660200190565b6000614b87614b8284614b4d565b614b1d565b9050828152838383011115614b9b57600080fd5b828260208301376000602084830101529392505050565b60008060408385031215614bc557600080fd5b8235614bd0816146f9565b915060208301356001600160401b03811115614beb57600080fd5b8301601f81018513614bfc57600080fd5b614c0b85823560208401614b74565b9150509250929050565b600080600080600080600080610100898b031215614c3257600080fd5b8835614c3d816146f9565b97506020890135614c4d816146f9565b96506040890135614c5d816146f9565b95506060890135614c6d816146f9565b94506080890135614c7d816146f9565b935060a0890135614c8d816146f9565b925060c0890135614c9d816146f9565b915060e0890135614cad816146f9565b809150509295985092959890939650565b606081526000614cd16060830186614807565b60208301949094525060400152919050565b600082601f830112614cf457600080fd5b6145b383833560208501614b74565b60006001600160401b03821115614d1c57614d1c614a78565b5060051b60200190565b600082601f830112614d3757600080fd5b81356020614d47614b8283614d03565b82815260059290921b84018101918181019086841115614d6657600080fd5b8286015b84811015614d8a578035614d7d816146f9565b8352918301918301614d6a565b509695505050505050565b600060408284031215614da757600080fd5b614daf614a8e565b9050813581526020820135602082015292915050565b803560ff81168114612af657600080fd5b600082601f830112614de757600080fd5b81356020614df7614b8283614d03565b82815260059290921b84018101918181019086841115614e1657600080fd5b8286015b84811015614d8a5780356001600160401b0380821115614e3a5760008081fd5b908801906060828b03601f1901811315614e545760008081fd5b614e5c614ab6565b8784013583811115614e6e5760008081fd5b614e7c8d8a83880101614ce3565b82525060408481013589830152919093013590830152508352918301918301614e1a565b600082601f830112614eb157600080fd5b81356020614ec1614b8283614d03565b82815260059290921b84018101918181019086841115614ee057600080fd5b8286015b84811015614d8a5780358352918301918301614ee4565b803563ffffffff81168114612af657600080fd5b600060808284031215614f2157600080fd5b604051608081018181106001600160401b0382111715614f4357614f43614a78565b604052905080614f5283614efb565b8152614f6060208401614efb565b6020820152614f7160408401614efb565b6040820152614f8260608401614efb565b60608201525092915050565b600060208284031215614fa057600080fd5b81356001600160401b0380821115614fb757600080fd5b908301906101e08286031215614fcc57600080fd5b614fd4614ad8565b823582811115614fe357600080fd5b614fef87828601614ce3565b82525060208301358281111561500457600080fd5b61501087828601614ce3565b60208301525060408301358281111561502857600080fd5b61503487828601614d26565b6040830152506150478660608501614d95565b606082015260a0830135608082015261506260c08401614dc5565b60a082015260e083013560c0820152610100808401358381111561508557600080fd5b61509188828701614dd6565b60e08401525061012080850135848111156150ab57600080fd5b6150b789828801614ea0565b838501525061014093506150cc84860161470e565b90830152506150df866101608501614f0f565b91810191909152949350505050565b6000806040838503121561510157600080fd5b8235915060208301356001600160401b0381111561511e57600080fd5b8301610100818603121561476e57600080fd5b6020815260006145b36020830184614807565b60006020828403121561515657600080fd5b81356145b3816146f9565b60006101808e835280602084015261517b8184018f614807565b9050828103604084015261518f818e614807565b6001600160a01b038d8116606086015284820360808601529091506151b4828d614877565b92508a60a08501528960c08501528860e08501526151d6610100850189614914565b866101208501528561014085015280851661016085015250509d9c50505050505050505050505050565b602080825260029082015261217360f01b604082015260600190565b60006020828403121561522e57600080fd5b5051919050565b600082601f83011261524657600080fd5b8151615254614b8282614b4d565b81815284602083860101111561526957600080fd5b61527a8260208301602087016147e3565b949350505050565b8051612af6816146f9565b60006040828403121561529f57600080fd5b6152a7614a8e565b9050815181526020820151602082015292915050565b600061010082840312156152d057600080fd5b6152d8614afb565b90508151815260208201516001600160401b03808211156152f857600080fd5b61530485838601615235565b6020840152604084015191508082111561531d57600080fd5b61532985838601615235565b604084015261533a60608501615282565b606084015261534c856080860161528d565b608084015260c084015160a084015260e084015191508082111561536f57600080fd5b5061537c84828501615235565b60c08301525092915050565b600082601f83011261539957600080fd5b815160206153a9614b8283614d03565b82815260059290921b840181019181810190868411156153c857600080fd5b8286015b84811015614d8a57805183529183019183016153cc565b80518015158114612af657600080fd5b60006020828403121561540557600080fd5b81516001600160401b038082111561541c57600080fd5b9083019060e0828603121561543057600080fd5b615438614afb565b82518281111561544757600080fd5b615453878286016152bd565b82525060208301518281111561546857600080fd5b61547487828601615388565b60208301525061548660408401615282565b604082015260608301516060820152608083015160808201526154ab60a084016153e3565b60a08201526154bc60c08401615282565b60c082015295945050505050565b6020808252600290820152614f4160f01b604082015260600190565b634e487b7160e01b600052601160045260246000fd5b808201808211156109e7576109e76154e6565b60006020828403121561552157600080fd5b81516145b3816146f9565b634e487b7160e01b600052603260045260246000fd5b600060018201615554576155546154e6565b5060010190565b818103818111156109e7576109e76154e6565b600081518084526020808501945080840160005b8381101561486c57815187529582019590820190600101615582565b85815260a0602082015260006155b760a0830187614833565b82810360408401526155c9818761556e565b606084019590955250506001600160a01b03919091166080909101529392505050565b600181811c9082168061560057607f821691505b60208210810361232557634e487b7160e01b600052602260045260246000fd5b60006020828403121561563257600080fd5b6145b3826153e3565b6000806040838503121561564e57600080fd5b505080516020909101519092909150565b60006020828403121561567157600080fd5b81516001600160401b0381111561568757600080fd5b61527a84828501615388565b6000808335601e198436030181126156aa57600080fd5b8301803591506001600160401b038211156156c457600080fd5b6020019150368190038213156156d957600080fd5b9250929050565b601f8211156138de57600081815260208120601f850160051c810160208610156157075750805b601f850160051c820191505b81811015612d3357828155600101615713565b600019600383901b1c191660019190911b1790565b6001600160401b0383111561575257615752614a78565b6157668361576083546155ec565b836156e0565b6000601f84116001811461579457600085156157825750838201355b61578c8682615726565b8455506157ee565b600083815260209020601f19861690835b828110156157c557868501358255602094850194600190920191016157a5565b50868210156157e25760001960f88860031b161c19848701351681555b505060018560011b0183555b5050505050565b600081356109e7816146f9565b813581556001808201602061581981860186615693565b6001600160401b0381111561583057615830614a78565b6158448161583e86546155ec565b866156e0565b6000601f82116001811461587257600083156158605750838201355b61586a8482615726565b8755506158c7565b600086815260209020601f19841690835b828110156158a05786850135825593870193908901908701615883565b50848210156158bd5760001960f88660031b161c19848701351681555b50508683881b0186555b505050505050506158db6040830183615693565b6158e981836002860161573b565b505061591e6158fa606084016157f5565b6003830180546001600160a01b0319166001600160a01b0392909216919091179055565b6080820135600482015560a0820135600582015560c0820135600682015561594960e0830183615693565b612fd481836007860161573b565b6000808335601e1984360301811261596e57600080fd5b83016020810192503590506001600160401b0381111561598d57600080fd5b8036038213156156d957600080fd5b81835281816020850137506000828201602090810191909152601f909101601f19169091010190565b602081528135602082015260006159df6020840184615957565b6101008060408601526159f76101208601838561599c565b9250615a066040870187615957565b9250601f1980878603016060880152615a2085858461599c565b945060608801359350615a32846146f9565b60018060a01b0384166080880152608088013560a088015260a088013560c088015260c088013560e0880152615a6b60e0890189615957565b9450915080878603018388015250615a8484848361599c565b979650505050505050565b80820281158282048414176109e7576109e76154e6565b6000610120808352615aba8184018d614807565b90508281036020840152615ace818c614833565b604084019a909a5250506060810196909652608086019490945260ff9290921660a085015260c08401526001600160a01b0390811660e0840152166101009091015292915050565b81516001600160401b03811115615b2f57615b2f614a78565b615b4381615b3d84546155ec565b846156e0565b602080601f831160018114615b725760008415615b605750858301515b615b6a8582615726565b865550612d33565b600085815260208120601f198616915b82811015615ba157888601518255948401946001909101908401615b82565b5085821015615bbf5787850151600019600388901b60f8161c191681555b5050505050600190811b01905550565b60c081526000615be260c0830189614807565b8281036020840152615bf48189614833565b90508281036040840152615c088188614807565b905060ff861660608401528281036080840152615c25818661556e565b91505060018060a01b03831660a0830152979650505050505050565b600082615c5e57634e487b7160e01b600052601260045260246000fd5b500490565b60008251615c758184602087016147e3565b919091019291505056fe360894a13ba1a3210667c828492db98dca3e2076cc3735a920a3ca505d382bbca2646970667358221220c8758a570f5939c8446e3091c497818732a3ed24a2c7daf265c16386a4b6f70264736f6c63430008140033","linkReferences":{}},"methodIdentifiers":{"SELLOUT_PROTOCOL_WALLET()":"e30228be","UPGRADE_INTERFACE_VERSION()":"ad3cb1cc","artistRegistryInstance()":"8dea15a1","boxOfficeInstance()":"a2b7d174","cancelShow(bytes32)":"ef5023a5","completeShow(bytes32)":"129e086b","consumeTicketTier(bytes32,uint256,uint256)":"644b5e59","getNumberOfVoters(bytes32)":"85ffa16c","getOrganizer(bytes32)":"977cb89e","getShowById(bytes32)":"27b1bf52","getShowStatus(bytes32)":"46c2c8a7","getShowToTicketProxy(bytes32)":"fdc7066c","getShowToVenueProxy(bytes32)":"3e2fea34","getTicketTierInfo(bytes32,uint256)":"7e3e3935","hasTicket(address,bytes32)":"5c37da69","hasVotedForEmergencyRefund(bytes32,address)":"63c18a52","initialize(address)":"c4d66de8","isArtist(address,bytes32)":"02c9a8b5","isArtistMapping(bytes32,address)":"bafd4eb0","isOrganizer(address,bytes32)":"4ed372da","organizerRegistryInstance()":"1cf2103e","owner()":"8da5cb5b","payout(bytes32)":"cfefb3d5","proposeShow((string,string,address[],(int256,int256),uint256,uint8,uint256,(string,uint256,uint256)[],uint256[],address,(uint32,uint32,uint32,uint32)))":"a110412c","proxiableUUID()":"52d1902d","referralInstance()":"c6ab848a","refundBribe(bytes32,uint256,uint256)":"0a35906b","refundTicket(bytes32,uint256)":"3c60d2d6","renounceOwnership()":"715018a6","setProtocolAddresses(address,address,address,address,address,address,address,address)":"5f198834","setShowToTicketProxy(bytes32,address)":"0b5c6364","showToTicketProxy(bytes32)":"3deba964","showToVenueProxy(bytes32)":"e71aee7e","showVaultInstance()":"6a017891","shows(bytes32)":"fca46559","ticketFactoryInstance()":"e4ca73aa","transferOwnership(address)":"f2fde38b","updateShowDate(bytes32,uint256)":"64ad6cd6","updateShowVenue(bytes32,(uint256,string,string,address,(int256,int256),uint256,string))":"a94dafab","updateStatus(bytes32,uint8)":"054372ed","updateStatusIfSoldOut(bytes32)":"e6180546","upgradeToAndCall(address,bytes)":"4f1ef286","venueFactoryInstance()":"9673b1e3","venueRegistryInstance()":"703ee4e5","voteForEmergencyRefund(bytes32)":"fc4bdfd4","votesForEmergencyRefund(bytes32)":"9ee0a14e","withdrawRefund(bytes32)":"e9acfa7c"},"id":68}