{"abi":[{"type":"function","name":"SELLOUT_PROTOCOL_WALLET","inputs":[],"outputs":[{"name":"","type":"address","internalType":"address"}],"stateMutability":"view"},{"type":"function","name":"UPGRADE_INTERFACE_VERSION","inputs":[],"outputs":[{"name":"","type":"string","internalType":"string"}],"stateMutability":"view"},{"type":"function","name":"activeShowCount","inputs":[],"outputs":[{"name":"","type":"uint256","internalType":"uint256"}],"stateMutability":"view"},{"type":"function","name":"addTokenIdToWallet","inputs":[{"name":"showId","type":"bytes32","internalType":"bytes32"},{"name":"wallet","type":"address","internalType":"address"},{"name":"tokenId","type":"uint256","internalType":"uint256"}],"outputs":[],"stateMutability":"nonpayable"},{"type":"function","name":"artistRegistryContract","inputs":[],"outputs":[{"name":"","type":"address","internalType":"address"}],"stateMutability":"view"},{"type":"function","name":"artistRegistryInstance","inputs":[],"outputs":[{"name":"","type":"address","internalType":"contract IArtistRegistry"}],"stateMutability":"view"},{"type":"function","name":"cancelShow","inputs":[{"name":"showId","type":"bytes32","internalType":"bytes32"}],"outputs":[],"stateMutability":"nonpayable"},{"type":"function","name":"completeShow","inputs":[{"name":"showId","type":"bytes32","internalType":"bytes32"}],"outputs":[],"stateMutability":"nonpayable"},{"type":"function","name":"consumeTicketTier","inputs":[{"name":"showId","type":"bytes32","internalType":"bytes32"},{"name":"tierIndex","type":"uint256","internalType":"uint256"},{"name":"amount","type":"uint256","internalType":"uint256"}],"outputs":[],"stateMutability":"nonpayable"},{"type":"function","name":"depositToVault","inputs":[{"name":"showId","type":"bytes32","internalType":"bytes32"}],"outputs":[],"stateMutability":"payable"},{"type":"function","name":"depositToVaultERC20","inputs":[{"name":"showId","type":"bytes32","internalType":"bytes32"},{"name":"amount","type":"uint256","internalType":"uint256"},{"name":"paymentToken","type":"address","internalType":"address"},{"name":"tokenRecipient","type":"address","internalType":"address"}],"outputs":[],"stateMutability":"nonpayable"},{"type":"function","name":"getNumberOfVoters","inputs":[{"name":"showId","type":"bytes32","internalType":"bytes32"}],"outputs":[{"name":"","type":"uint256","internalType":"uint256"}],"stateMutability":"view"},{"type":"function","name":"getOrganizer","inputs":[{"name":"showId","type":"bytes32","internalType":"bytes32"}],"outputs":[{"name":"","type":"address","internalType":"address"}],"stateMutability":"view"},{"type":"function","name":"getPendingPayout","inputs":[{"name":"showId","type":"bytes32","internalType":"bytes32"},{"name":"user","type":"address","internalType":"address"}],"outputs":[{"name":"amountOwed","type":"uint256","internalType":"uint256"}],"stateMutability":"view"},{"type":"function","name":"getPendingRefund","inputs":[{"name":"showId","type":"bytes32","internalType":"bytes32"},{"name":"user","type":"address","internalType":"address"}],"outputs":[{"name":"amountOwed","type":"uint256","internalType":"uint256"}],"stateMutability":"view"},{"type":"function","name":"getSellOutThreshold","inputs":[{"name":"showId","type":"bytes32","internalType":"bytes32"}],"outputs":[{"name":"","type":"uint256","internalType":"uint256"}],"stateMutability":"view"},{"type":"function","name":"getShowById","inputs":[{"name":"showId","type":"bytes32","internalType":"bytes32"}],"outputs":[{"name":"name","type":"string","internalType":"string"},{"name":"description","type":"string","internalType":"string"},{"name":"organizer","type":"address","internalType":"address"},{"name":"artists","type":"address[]","internalType":"address[]"},{"name":"venue","type":"tuple","internalType":"struct VenueTypes.Venue","components":[{"name":"name","type":"string","internalType":"string"},{"name":"coordinates","type":"tuple","internalType":"struct VenueTypes.Coordinates","components":[{"name":"lat","type":"int256","internalType":"int256"},{"name":"lon","type":"int256","internalType":"int256"}]},{"name":"totalCapacity","type":"uint256","internalType":"uint256"},{"name":"wallet","type":"address","internalType":"address"},{"name":"venueId","type":"bytes32","internalType":"bytes32"}]},{"name":"ticketTiers","type":"tuple[]","internalType":"struct ShowTypes.TicketTier[]","components":[{"name":"name","type":"string","internalType":"string"},{"name":"price","type":"uint256","internalType":"uint256"},{"name":"ticketsAvailable","type":"uint256","internalType":"uint256"}]},{"name":"sellOutThreshold","type":"uint256","internalType":"uint256"},{"name":"totalCapacity","type":"uint256","internalType":"uint256"},{"name":"status","type":"uint8","internalType":"enum ShowTypes.Status"},{"name":"isActive","type":"bool","internalType":"bool"},{"name":"currencyAddress","type":"address","internalType":"address"}],"stateMutability":"view"},{"type":"function","name":"getShowPaymentToken","inputs":[{"name":"showId","type":"bytes32","internalType":"bytes32"}],"outputs":[{"name":"","type":"address","internalType":"address"}],"stateMutability":"view"},{"type":"function","name":"getShowStatus","inputs":[{"name":"showId","type":"bytes32","internalType":"bytes32"}],"outputs":[{"name":"","type":"uint8","internalType":"enum ShowTypes.Status"}],"stateMutability":"view"},{"type":"function","name":"getTicketPricePaid","inputs":[{"name":"showId","type":"bytes32","internalType":"bytes32"},{"name":"ticketId","type":"uint256","internalType":"uint256"}],"outputs":[{"name":"","type":"uint256","internalType":"uint256"}],"stateMutability":"view"},{"type":"function","name":"getTicketTierInfo","inputs":[{"name":"showId","type":"bytes32","internalType":"bytes32"},{"name":"tierIndex","type":"uint256","internalType":"uint256"}],"outputs":[{"name":"name","type":"string","internalType":"string"},{"name":"price","type":"uint256","internalType":"uint256"},{"name":"ticketsAvailable","type":"uint256","internalType":"uint256"}],"stateMutability":"view"},{"type":"function","name":"getTotalCapacity","inputs":[{"name":"showId","type":"bytes32","internalType":"bytes32"}],"outputs":[{"name":"","type":"uint256","internalType":"uint256"}],"stateMutability":"view"},{"type":"function","name":"getTotalTicketsSold","inputs":[{"name":"showId","type":"bytes32","internalType":"bytes32"}],"outputs":[{"name":"","type":"uint256","internalType":"uint256"}],"stateMutability":"view"},{"type":"function","name":"getWalletTokenIds","inputs":[{"name":"showId","type":"bytes32","internalType":"bytes32"},{"name":"wallet","type":"address","internalType":"address"}],"outputs":[{"name":"","type":"uint256[]","internalType":"uint256[]"}],"stateMutability":"view"},{"type":"function","name":"hasTicket","inputs":[{"name":"wallet","type":"address","internalType":"address"},{"name":"showId","type":"bytes32","internalType":"bytes32"}],"outputs":[{"name":"ownsTicket","type":"bool","internalType":"bool"}],"stateMutability":"view"},{"type":"function","name":"initialize","inputs":[{"name":"_selloutProtocolWallet","type":"address","internalType":"address"}],"outputs":[],"stateMutability":"nonpayable"},{"type":"function","name":"isArtist","inputs":[{"name":"user","type":"address","internalType":"address"},{"name":"showId","type":"bytes32","internalType":"bytes32"}],"outputs":[{"name":"","type":"bool","internalType":"bool"}],"stateMutability":"view"},{"type":"function","name":"isArtistMapping","inputs":[{"name":"","type":"bytes32","internalType":"bytes32"},{"name":"","type":"address","internalType":"address"}],"outputs":[{"name":"","type":"bool","internalType":"bool"}],"stateMutability":"view"},{"type":"function","name":"isOrganizer","inputs":[{"name":"user","type":"address","internalType":"address"},{"name":"showId","type":"bytes32","internalType":"bytes32"}],"outputs":[{"name":"","type":"bool","internalType":"bool"}],"stateMutability":"view"},{"type":"function","name":"isTicketOwner","inputs":[{"name":"owner","type":"address","internalType":"address"},{"name":"showId","type":"bytes32","internalType":"bytes32"},{"name":"ticketId","type":"uint256","internalType":"uint256"}],"outputs":[{"name":"","type":"bool","internalType":"bool"}],"stateMutability":"view"},{"type":"function","name":"organizerRegistryContract","inputs":[],"outputs":[{"name":"","type":"address","internalType":"address"}],"stateMutability":"view"},{"type":"function","name":"organizerRegistryInstance","inputs":[],"outputs":[{"name":"","type":"address","internalType":"contract IOrganizerRegistry"}],"stateMutability":"view"},{"type":"function","name":"owner","inputs":[],"outputs":[{"name":"","type":"address","internalType":"address"}],"stateMutability":"view"},{"type":"function","name":"payout","inputs":[{"name":"showId","type":"bytes32","internalType":"bytes32"}],"outputs":[],"stateMutability":"nonpayable"},{"type":"function","name":"pendingPayouts","inputs":[{"name":"","type":"bytes32","internalType":"bytes32"},{"name":"","type":"address","internalType":"address"}],"outputs":[{"name":"","type":"uint256","internalType":"uint256"}],"stateMutability":"view"},{"type":"function","name":"pendingRefunds","inputs":[{"name":"","type":"bytes32","internalType":"bytes32"},{"name":"","type":"address","internalType":"address"}],"outputs":[{"name":"","type":"uint256","internalType":"uint256"}],"stateMutability":"view"},{"type":"function","name":"pendingTokenPayouts","inputs":[{"name":"","type":"bytes32","internalType":"bytes32"},{"name":"","type":"address","internalType":"address"},{"name":"","type":"address","internalType":"address"}],"outputs":[{"name":"","type":"uint256","internalType":"uint256"}],"stateMutability":"view"},{"type":"function","name":"pendingTokenRefunds","inputs":[{"name":"","type":"bytes32","internalType":"bytes32"},{"name":"","type":"address","internalType":"address"},{"name":"","type":"address","internalType":"address"}],"outputs":[{"name":"","type":"uint256","internalType":"uint256"}],"stateMutability":"view"},{"type":"function","name":"proposeShow","inputs":[{"name":"proposal","type":"tuple","internalType":"struct ShowTypes.ShowProposal","components":[{"name":"name","type":"string","internalType":"string"},{"name":"description","type":"string","internalType":"string"},{"name":"artists","type":"address[]","internalType":"address[]"},{"name":"coordinates","type":"tuple","internalType":"struct VenueTypes.Coordinates","components":[{"name":"lat","type":"int256","internalType":"int256"},{"name":"lon","type":"int256","internalType":"int256"}]},{"name":"radius","type":"uint256","internalType":"uint256"},{"name":"sellOutThreshold","type":"uint8","internalType":"uint8"},{"name":"totalCapacity","type":"uint256","internalType":"uint256"},{"name":"ticketTiers","type":"tuple[]","internalType":"struct ShowTypes.TicketTier[]","components":[{"name":"name","type":"string","internalType":"string"},{"name":"price","type":"uint256","internalType":"uint256"},{"name":"ticketsAvailable","type":"uint256","internalType":"uint256"}]},{"name":"split","type":"uint256[]","internalType":"uint256[]"},{"name":"currencyAddress","type":"address","internalType":"address"}]}],"outputs":[{"name":"showId","type":"bytes32","internalType":"bytes32"}],"stateMutability":"nonpayable"},{"type":"function","name":"proxiableUUID","inputs":[],"outputs":[{"name":"","type":"bytes32","internalType":"bytes32"}],"stateMutability":"view"},{"type":"function","name":"referralContract","inputs":[],"outputs":[{"name":"","type":"address","internalType":"address"}],"stateMutability":"view"},{"type":"function","name":"referralInstance","inputs":[],"outputs":[{"name":"","type":"address","internalType":"contract ReferralModule"}],"stateMutability":"view"},{"type":"function","name":"refundTicket","inputs":[{"name":"showId","type":"bytes32","internalType":"bytes32"},{"name":"ticketId","type":"uint256","internalType":"uint256"}],"outputs":[],"stateMutability":"nonpayable"},{"type":"function","name":"renounceOwnership","inputs":[],"outputs":[],"stateMutability":"nonpayable"},{"type":"function","name":"setProtocolAddresses","inputs":[{"name":"_ticketContract","type":"address","internalType":"address"},{"name":"_venueContract","type":"address","internalType":"address"},{"name":"_referralContract","type":"address","internalType":"address"},{"name":"_artistRegistryContract","type":"address","internalType":"address"},{"name":"_organizerRegistryContract","type":"address","internalType":"address"},{"name":"_venueRegistryContract","type":"address","internalType":"address"}],"outputs":[],"stateMutability":"nonpayable"},{"type":"function","name":"setTicketOwnership","inputs":[{"name":"showId","type":"bytes32","internalType":"bytes32"},{"name":"owner","type":"address","internalType":"address"},{"name":"ticketId","type":"uint256","internalType":"uint256"},{"name":"isOwned","type":"bool","internalType":"bool"}],"outputs":[],"stateMutability":"nonpayable"},{"type":"function","name":"setTicketPricePaid","inputs":[{"name":"showId","type":"bytes32","internalType":"bytes32"},{"name":"ticketId","type":"uint256","internalType":"uint256"},{"name":"price","type":"uint256","internalType":"uint256"}],"outputs":[],"stateMutability":"nonpayable"},{"type":"function","name":"setTotalTicketsSold","inputs":[{"name":"showId","type":"bytes32","internalType":"bytes32"},{"name":"amount","type":"uint256","internalType":"uint256"}],"outputs":[],"stateMutability":"nonpayable"},{"type":"function","name":"showPaymentToken","inputs":[{"name":"","type":"bytes32","internalType":"bytes32"}],"outputs":[{"name":"","type":"address","internalType":"address"}],"stateMutability":"view"},{"type":"function","name":"showTokenVault","inputs":[{"name":"","type":"bytes32","internalType":"bytes32"},{"name":"","type":"address","internalType":"address"}],"outputs":[{"name":"","type":"uint256","internalType":"uint256"}],"stateMutability":"view"},{"type":"function","name":"showVault","inputs":[{"name":"","type":"bytes32","internalType":"bytes32"}],"outputs":[{"name":"","type":"uint256","internalType":"uint256"}],"stateMutability":"view"},{"type":"function","name":"shows","inputs":[{"name":"","type":"bytes32","internalType":"bytes32"}],"outputs":[{"name":"showId","type":"bytes32","internalType":"bytes32"},{"name":"name","type":"string","internalType":"string"},{"name":"description","type":"string","internalType":"string"},{"name":"organizer","type":"address","internalType":"address"},{"name":"venue","type":"tuple","internalType":"struct VenueTypes.Venue","components":[{"name":"name","type":"string","internalType":"string"},{"name":"coordinates","type":"tuple","internalType":"struct VenueTypes.Coordinates","components":[{"name":"lat","type":"int256","internalType":"int256"},{"name":"lon","type":"int256","internalType":"int256"}]},{"name":"totalCapacity","type":"uint256","internalType":"uint256"},{"name":"wallet","type":"address","internalType":"address"},{"name":"venueId","type":"bytes32","internalType":"bytes32"}]},{"name":"radius","type":"uint256","internalType":"uint256"},{"name":"sellOutThreshold","type":"uint256","internalType":"uint256"},{"name":"totalCapacity","type":"uint256","internalType":"uint256"},{"name":"status","type":"uint8","internalType":"enum ShowTypes.Status"},{"name":"isActive","type":"bool","internalType":"bool"},{"name":"expiry","type":"uint256","internalType":"uint256"},{"name":"showDate","type":"uint256","internalType":"uint256"},{"name":"currencyAddress","type":"address","internalType":"address"}],"stateMutability":"view"},{"type":"function","name":"ticketContract","inputs":[],"outputs":[{"name":"","type":"address","internalType":"address"}],"stateMutability":"view"},{"type":"function","name":"ticketInstance","inputs":[],"outputs":[{"name":"","type":"address","internalType":"contract Ticket"}],"stateMutability":"view"},{"type":"function","name":"ticketPricePaid","inputs":[{"name":"","type":"bytes32","internalType":"bytes32"},{"name":"","type":"uint256","internalType":"uint256"}],"outputs":[{"name":"","type":"uint256","internalType":"uint256"}],"stateMutability":"view"},{"type":"function","name":"totalTicketsSold","inputs":[{"name":"","type":"bytes32","internalType":"bytes32"}],"outputs":[{"name":"","type":"uint256","internalType":"uint256"}],"stateMutability":"view"},{"type":"function","name":"transferOwnership","inputs":[{"name":"newOwner","type":"address","internalType":"address"}],"outputs":[],"stateMutability":"nonpayable"},{"type":"function","name":"updateShowVenue","inputs":[{"name":"showId","type":"bytes32","internalType":"bytes32"},{"name":"newVenue","type":"tuple","internalType":"struct VenueTypes.Venue","components":[{"name":"name","type":"string","internalType":"string"},{"name":"coordinates","type":"tuple","internalType":"struct VenueTypes.Coordinates","components":[{"name":"lat","type":"int256","internalType":"int256"},{"name":"lon","type":"int256","internalType":"int256"}]},{"name":"totalCapacity","type":"uint256","internalType":"uint256"},{"name":"wallet","type":"address","internalType":"address"},{"name":"venueId","type":"bytes32","internalType":"bytes32"}]}],"outputs":[],"stateMutability":"nonpayable"},{"type":"function","name":"updateStatus","inputs":[{"name":"showId","type":"bytes32","internalType":"bytes32"},{"name":"_status","type":"uint8","internalType":"enum ShowTypes.Status"}],"outputs":[],"stateMutability":"nonpayable"},{"type":"function","name":"updateStatusIfSoldOut","inputs":[{"name":"showId","type":"bytes32","internalType":"bytes32"}],"outputs":[],"stateMutability":"nonpayable"},{"type":"function","name":"upgradeToAndCall","inputs":[{"name":"newImplementation","type":"address","internalType":"address"},{"name":"data","type":"bytes","internalType":"bytes"}],"outputs":[],"stateMutability":"payable"},{"type":"function","name":"venueContract","inputs":[],"outputs":[{"name":"","type":"address","internalType":"address"}],"stateMutability":"view"},{"type":"function","name":"venueRegistryContract","inputs":[],"outputs":[{"name":"","type":"address","internalType":"address"}],"stateMutability":"view"},{"type":"function","name":"venueRegistryInstance","inputs":[],"outputs":[{"name":"","type":"address","internalType":"contract IVenueRegistry"}],"stateMutability":"view"},{"type":"function","name":"walletToShowToTokenIds","inputs":[{"name":"","type":"bytes32","internalType":"bytes32"},{"name":"","type":"address","internalType":"address"},{"name":"","type":"uint256","internalType":"uint256"}],"outputs":[{"name":"","type":"uint256","internalType":"uint256"}],"stateMutability":"view"},{"type":"function","name":"withdrawRefund","inputs":[{"name":"showId","type":"bytes32","internalType":"bytes32"}],"outputs":[],"stateMutability":"nonpayable"},{"type":"event","name":"ERC20Deposited","inputs":[{"name":"showId","type":"bytes32","indexed":true,"internalType":"bytes32"},{"name":"tokenAddress","type":"address","indexed":true,"internalType":"address"},{"name":"depositor","type":"address","indexed":true,"internalType":"address"},{"name":"amount","type":"uint256","indexed":false,"internalType":"uint256"}],"anonymous":false},{"type":"event","name":"ExpiryUpdated","inputs":[{"name":"showId","type":"bytes32","indexed":true,"internalType":"bytes32"},{"name":"expiry","type":"uint256","indexed":false,"internalType":"uint256"}],"anonymous":false},{"type":"event","name":"Initialized","inputs":[{"name":"version","type":"uint64","indexed":false,"internalType":"uint64"}],"anonymous":false},{"type":"event","name":"OwnershipTransferred","inputs":[{"name":"previousOwner","type":"address","indexed":true,"internalType":"address"},{"name":"newOwner","type":"address","indexed":true,"internalType":"address"}],"anonymous":false},{"type":"event","name":"RefundWithdrawn","inputs":[{"name":"user","type":"address","indexed":true,"internalType":"address"},{"name":"showId","type":"bytes32","indexed":true,"internalType":"bytes32"},{"name":"amount","type":"uint256","indexed":false,"internalType":"uint256"}],"anonymous":false},{"type":"event","name":"ShowExpired","inputs":[{"name":"showId","type":"bytes32","indexed":true,"internalType":"bytes32"}],"anonymous":false},{"type":"event","name":"ShowProposed","inputs":[{"name":"showId","type":"bytes32","indexed":true,"internalType":"bytes32"},{"name":"organizer","type":"address","indexed":true,"internalType":"address"},{"name":"name","type":"string","indexed":false,"internalType":"string"},{"name":"artists","type":"address[]","indexed":false,"internalType":"address[]"},{"name":"description","type":"string","indexed":false,"internalType":"string"},{"name":"sellOutThreshold","type":"uint256","indexed":false,"internalType":"uint256"},{"name":"split","type":"uint256[]","indexed":false,"internalType":"uint256[]"},{"name":"totalCapacity","type":"uint256","indexed":false,"internalType":"uint256"}],"anonymous":false},{"type":"event","name":"StatusUpdated","inputs":[{"name":"showId","type":"bytes32","indexed":true,"internalType":"bytes32"},{"name":"status","type":"uint8","indexed":false,"internalType":"enum ShowTypes.Status"}],"anonymous":false},{"type":"event","name":"TicketRefunded","inputs":[{"name":"user","type":"address","indexed":true,"internalType":"address"},{"name":"showId","type":"bytes32","indexed":true,"internalType":"bytes32"},{"name":"refundAmount","type":"uint256","indexed":false,"internalType":"uint256"}],"anonymous":false},{"type":"event","name":"TicketTierConsumed","inputs":[{"name":"showId","type":"bytes32","indexed":true,"internalType":"bytes32"},{"name":"tierIndex","type":"uint256","indexed":true,"internalType":"uint256"},{"name":"amount","type":"uint256","indexed":false,"internalType":"uint256"}],"anonymous":false},{"type":"event","name":"Upgraded","inputs":[{"name":"implementation","type":"address","indexed":true,"internalType":"address"}],"anonymous":false},{"type":"event","name":"VenueUpdated","inputs":[{"name":"showId","type":"bytes32","indexed":true,"internalType":"bytes32"},{"name":"newVenue","type":"tuple","indexed":false,"internalType":"struct VenueTypes.Venue","components":[{"name":"name","type":"string","internalType":"string"},{"name":"coordinates","type":"tuple","internalType":"struct VenueTypes.Coordinates","components":[{"name":"lat","type":"int256","internalType":"int256"},{"name":"lon","type":"int256","internalType":"int256"}]},{"name":"totalCapacity","type":"uint256","internalType":"uint256"},{"name":"wallet","type":"address","internalType":"address"},{"name":"venueId","type":"bytes32","internalType":"bytes32"}]}],"anonymous":false},{"type":"event","name":"Withdrawal","inputs":[{"name":"showId","type":"bytes32","indexed":true,"internalType":"bytes32"},{"name":"recipient","type":"address","indexed":true,"internalType":"address"},{"name":"amount","type":"uint256","indexed":false,"internalType":"uint256"},{"name":"paymentToken","type":"address","indexed":false,"internalType":"address"}],"anonymous":false},{"type":"error","name":"AddressEmptyCode","inputs":[{"name":"target","type":"address","internalType":"address"}]},{"type":"error","name":"ERC1967InvalidImplementation","inputs":[{"name":"implementation","type":"address","internalType":"address"}]},{"type":"error","name":"ERC1967NonPayable","inputs":[]},{"type":"error","name":"FailedInnerCall","inputs":[]},{"type":"error","name":"InvalidInitialization","inputs":[]},{"type":"error","name":"NotInitializing","inputs":[]},{"type":"error","name":"OwnableInvalidOwner","inputs":[{"name":"owner","type":"address","internalType":"address"}]},{"type":"error","name":"OwnableUnauthorizedAccount","inputs":[{"name":"account","type":"address","internalType":"address"}]},{"type":"error","name":"ReentrancyGuardReentrantCall","inputs":[]},{"type":"error","name":"UUPSUnauthorizedCallContext","inputs":[]},{"type":"error","name":"UUPSUnsupportedProxiableUUID","inputs":[{"name":"slot","type":"bytes32","internalType":"bytes32"}]}],"bytecode":{"object":"0x60a0604052600a805460ff60a01b191690553060805234801561002157600080fd5b50608051615f8d6200004c600039600081816144b2015281816144db015261461c0152615f8d6000f3fe6080604052600436106103d95760003560e01c8063787d76b8116101fd578063bafd4eb011610118578063d23b85a3116100ab578063e9acfa7c1161007a578063e9acfa7c14610dc2578063ef5023a514610de2578063f2fde38b14610e02578063f812187314610e22578063fca4655914610e4257600080fd5b8063d23b85a314610d2c578063de44006f14610d62578063e30228be14610d82578063e618054614610da257600080fd5b8063c6ab848a116100e7578063c6ab848a14610c94578063c8f67e9614610cb4578063c9e21e5e14610cd4578063cfefb3d514610d0c57600080fd5b8063bafd4eb014610bf9578063bd47dc5c14610c34578063c29e2de414610c54578063c4d66de814610c7457600080fd5b80638dea15a11161019057806393d4e1001161015f57806393d4e10014610b2a578063977cb89e14610b62578063a03f4efe14610b9b578063ad3cb1cc14610bbb57600080fd5b80638dea15a114610a675780638e70362b14610a87578063925e8f8914610abf57806392ea638814610aec57600080fd5b806385266635116101cc57806385266635146109ca57806385ffa16c146109dd578063867e68af146109fd5780638da5cb5b14610a2a57600080fd5b8063787d76b81461093b5780637d8d6a221461095b5780637dad19db1461097b5780637e3e39351461099b57600080fd5b80634f1ef286116102f8578063610418701161028b5780636e9cacd01161025a5780636e9cacd01461084f578063703ee4e514610892578063715018a6146108b257806372958028146108c757806375976795146108fd57600080fd5b806361041870146107b1578063620ec1e4146107de578063644b5e591461080f57806366bc64cd1461082f57600080fd5b80635696c07c116102c75780635696c07c146106e857806358a86e1d146107205780635b9a1e09146107405780635c37da691461076d57600080fd5b80634f1ef28614610680578063518193351461069357806352d1902d146106b35780635412233f146106c857600080fd5b80632f18ddfe1161037057806341adf3ad1161033f57806341adf3ad146105d057806342894bcb146105f057806346c2c8a7146106335780634ed372da1461066057600080fd5b80632f18ddfe1461053857806331a68da0146105705780633b9ce466146105905780633c60d2d6146105b057600080fd5b806316488906116103ac578063164889061461048d5780631a348e62146104b15780631cf2103e146104e157806327b1bf521461050157600080fd5b80630233ce6a146103de57806302c9a8b51461041b578063054372ed1461044b578063129e086b1461046d575b600080fd5b3480156103ea57600080fd5b506006546103fe906001600160a01b031681565b6040516001600160a01b0390911681526020015b60405180910390f35b34801561042757600080fd5b5061043b610436366004614d2f565b610e7b565b6040519015158152602001610412565b34801561045757600080fd5b5061046b610466366004614d5b565b610ea8565b005b34801561047957600080fd5b5061046b610488366004614d8f565b610f69565b34801561049957600080fd5b506104a3600d5481565b604051908152602001610412565b3480156104bd57600080fd5b506104a36104cc366004614d8f565b6000908152600e60205260409020600d015490565b3480156104ed57600080fd5b506009546103fe906001600160a01b031681565b34801561050d57600080fd5b5061052161051c366004614d8f565b611218565b6040516104129b9a99989796959493929190614ed2565b34801561054457600080fd5b506104a3610553366004614fee565b601760209081526000928352604080842090915290825290205481565b34801561057c57600080fd5b506005546103fe906001600160a01b031681565b34801561059c57600080fd5b506104a36105ab366004615333565b6116de565b3480156105bc57600080fd5b5061046b6105cb366004614fee565b6116f2565b3480156105dc57600080fd5b506003546103fe906001600160a01b031681565b3480156105fc57600080fd5b506104a361060b36600461547c565b60009182526014602090815260408084206001600160a01b0393909316845291905290205490565b34801561063f57600080fd5b5061065361064e366004614d8f565b6119b2565b60405161041291906154a1565b34801561066c57600080fd5b5061043b61067b366004614d2f565b611e8f565b61046b61068e3660046154af565b611eb2565b34801561069f57600080fd5b506001546103fe906001600160a01b031681565b3480156106bf57600080fd5b506104a3611ed1565b3480156106d457600080fd5b5061046b6106e3366004615512565b611eee565b3480156106f457600080fd5b506104a361070336600461547c565b601260209081526000928352604080842090915290825290205481565b34801561072c57600080fd5b506000546103fe906001600160a01b031681565b34801561074c57600080fd5b5061076061075b36600461547c565b6121e0565b604051610412919061558c565b34801561077957600080fd5b5061043b610788366004614d2f565b60009081526019602090815260408083206001600160a01b039490941683529290522054151590565b3480156107bd57600080fd5b506104a36107cc366004614d8f565b60009081526016602052604090205490565b3480156107ea57600080fd5b506104a36107f9366004614d8f565b6000908152600e60208190526040909120015490565b34801561081b57600080fd5b5061046b61082a36600461559f565b612254565b34801561083b57600080fd5b506004546103fe906001600160a01b031681565b34801561085b57600080fd5b506104a361086a36600461547c565b60009182526012602090815260408084206001600160a01b0393909316845291905290205490565b34801561089e57600080fd5b50600a546103fe906001600160a01b031681565b3480156108be57600080fd5b5061046b6123d8565b3480156108d357600080fd5b506103fe6108e2366004614d8f565b601a602052600090815260409020546001600160a01b031681565b34801561090957600080fd5b506104a36109183660046155cb565b601560209081526000938452604080852082529284528284209052825290205481565b34801561094757600080fd5b5061046b610956366004614fee565b6123ec565b34801561096757600080fd5b506104a361097636600461560d565b612446565b34801561098757600080fd5b506002546103fe906001600160a01b031681565b3480156109a757600080fd5b506109bb6109b6366004614fee565b612484565b60405161041293929190615645565b61046b6109d8366004614d8f565b6125c5565b3480156109e957600080fd5b506104a36109f8366004614d8f565b612634565b348015610a0957600080fd5b506104a3610a18366004614d8f565b60106020526000908152604090205481565b348015610a3657600080fd5b507f9016d09d72d40fdae2fd8ceac6b6234c7706214fd39c1cd1e609a0528c199300546001600160a01b03166103fe565b348015610a7357600080fd5b506008546103fe906001600160a01b031681565b348015610a9357600080fd5b506104a3610aa236600461547c565b601460209081526000928352604080842090915290825290205481565b348015610acb57600080fd5b506104a3610ada366004614d8f565b60166020526000908152604090205481565b348015610af857600080fd5b506104a3610b073660046155cb565b601360209081526000938452604080852082529284528284209052825290205481565b348015610b3657600080fd5b506104a3610b45366004614fee565b600091825260176020908152604080842092845291905290205490565b348015610b6e57600080fd5b506103fe610b7d366004614d8f565b6000908152600e60205260409020600301546001600160a01b031690565b348015610ba757600080fd5b5061043b610bb636600461566a565b6126bb565b348015610bc757600080fd5b50610bec604051806040016040528060058152602001640352e302e360dc1b81525081565b604051610412919061569f565b348015610c0557600080fd5b5061043b610c1436600461547c565b600f60209081526000928352604080842090915290825290205460ff1681565b348015610c4057600080fd5b5061046b610c4f36600461559f565b6126f1565b348015610c6057600080fd5b5061046b610c6f3660046156b2565b612737565b348015610c8057600080fd5b5061046b610c8f3660046156f4565b612886565b348015610ca057600080fd5b506007546103fe906001600160a01b031681565b348015610cc057600080fd5b5061046b610ccf36600461571f565b6129b7565b348015610ce057600080fd5b506104a3610cef36600461547c565b601160209081526000928352604080842090915290825290205481565b348015610d1857600080fd5b5061046b610d27366004614d8f565b612a20565b348015610d3857600080fd5b506103fe610d47366004614d8f565b6000908152601a60205260409020546001600160a01b031690565b348015610d6e57600080fd5b5061046b610d7d36600461560d565b612eb6565b348015610d8e57600080fd5b50600b546103fe906001600160a01b031681565b348015610dae57600080fd5b5061046b610dbd366004614d8f565b612f17565b348015610dce57600080fd5b5061046b610ddd366004614d8f565b612fae565b348015610dee57600080fd5b5061046b610dfd366004614d8f565b61340c565b348015610e0e57600080fd5b5061046b610e1d3660046156f4565b61351f565b348015610e2e57600080fd5b5061046b610e3d36600461575e565b61355a565b348015610e4e57600080fd5b50610e62610e5d366004614d8f565b61363e565b6040516104129d9c9b9a999897969594939291906157e0565b6000818152600f602090815260408083206001600160a01b038616845290915290205460ff165b92915050565b6001546001600160a01b0316331480610ecb57506000546001600160a01b031633145b80610ed557503330145b610efa5760405162461bcd60e51b8152600401610ef190615892565b60405180910390fd5b6000828152600e60205260409020600f01805482919060ff19166001836007811115610f2857610f28614e9a565b0217905550817f8ed894b6f384ca9c829b9aa5b056bc9106a90845a15616607e975d4ad488ee6782604051610f5d91906154a1565b60405180910390a25050565b80610f743382611e8f565b80610f845750610f843382610e7b565b610fa05760405162461bcd60e51b8152600401610ef190615900565b6000828152600e602052604090206003600f82015460ff166007811115610fc957610fc9614e9a565b1461100e5760405162461bcd60e51b815260206004820152601560248201527453686f77206d757374206265205570636f6d696e6760581b6044820152606401610ef1565b601281015461101f9061070861593e565b42101561106e5760405162461bcd60e51b815260206004820152601f60248201527f53686f7720686173206e6f7420796574206265656e20636f6d706c65746564006044820152606401610ef1565b6000838152601a60205260408120546001600160a01b03169081156110b55760008581526011602090815260408083206001600160a01b03861684529091529020546110c5565b6000858152601060205260409020545b9050600081116111105760405162461bcd60e51b81526020600482015260166024820152754e6f2066756e647320746f206469737472696275746560501b6044820152606401610ef1565b61116f85848560100180548060200260200160405190810160405280929190818152602001828054801561116357602002820191906000526020600020905b81548152602001906001019080831161114f575b505050505084866138b3565b6001600160a01b038216611191576000858152601060205260408120556111b5565b60008581526011602090815260408083206001600160a01b03861684529091528120555b6000858152600e60205260409020600f0180546004919060ff19166001830217905550847f8ed894b6f384ca9c829b9aa5b056bc9106a90845a15616607e975d4ad488ee67600460405161120991906154a1565b60405180910390a25050505050565b60608060006060611227614c0b565b6000868152600e60205260408120600c810154606092918291829182918291906001600160401b0381111561125e5761125e615010565b6040519080825280602002602001820160405280156112b357816020015b6112a060405180606001604052806060815260200160008152602001600081525090565b81526020019060019003908161127c5790505b50965060005b600c8201548110156113c95781600c0181815481106112da576112da615951565b906000526020600020906003020160405180606001604052908160008201805461130390615967565b80601f016020809104026020016040519081016040528092919081815260200182805461132f90615967565b801561137c5780601f106113515761010080835404028352916020019161137c565b820191906000526020600020905b81548152906001019060200180831161135f57829003601f168201915b50505050508152602001600182015481526020016002820154815250508882815181106113ab576113ab615951565b602002602001018190525080806113c19061599b565b9150506112b9565b5080600101816002018260030160009054906101000a90046001600160a01b031683600401846005018b86600d015487600e015488600f0160009054906101000a900460ff1689600f0160019054906101000a900460ff168a60130160009054906101000a90046001600160a01b03168a805461144590615967565b80601f016020809104026020016040519081016040528092919081815260200182805461147190615967565b80156114be5780601f10611493576101008083540402835291602001916114be565b820191906000526020600020905b8154815290600101906020018083116114a157829003601f168201915b50505050509a508980546114d190615967565b80601f01602080910402602001604051908101604052809291908181526020018280546114fd90615967565b801561154a5780601f1061151f5761010080835404028352916020019161154a565b820191906000526020600020905b81548152906001019060200180831161152d57829003601f168201915b50505050509950878054806020026020016040519081016040528092919081815260200182805480156115a657602002820191906000526020600020905b81546001600160a01b03168152600190910190602001808311611588575b50505050509750866040518060a00160405290816000820180546115c990615967565b80601f01602080910402602001604051908101604052809291908181526020018280546115f590615967565b80156116425780601f1061161757610100808354040283529160200191611642565b820191906000526020600020905b81548152906001019060200180831161162557829003601f168201915b5050505050815260200160018201604051806040016040529081600082015481526020016001820154815250508152602001600382015481526020016004820160009054906101000a90046001600160a01b03166001600160a01b03166001600160a01b0316815260200160058201548152505096509b509b509b509b509b509b509b509b509b509b509b505091939597999b90929496989a50565b60006116e982613bb4565b610ea282613ed8565b6000828152600e60205260408120600f015460ff16600781111561171857611718614e9a565b1480611749575060056000838152600e60205260409020600f015460ff16600781111561174757611747614e9a565b145b80611779575060076000838152600e60205260409020600f015460ff16600781111561177757611777614e9a565b145b6117dc5760405162461bcd60e51b815260206004820152602e60248201527f46756e647320617265206c6f636b65642064756520746f20746865207374617460448201526d7573206f66207468652073686f7760901b6064820152608401610ef1565b6117e73383836126bb565b6118465760405162461bcd60e51b815260206004820152602a60248201527f5573657220646f6573206e6f74206f776e20746865207469636b657420666f7260448201526920746869732073686f7760b01b6064820152608401610ef1565b600654604051636d1d3b0b60e11b8152600481018490526024810183905260009182916001600160a01b039091169063da3a7616906044016040805180830381865afa15801561189a573d6000803e3d6000fd5b505050506040513d601f19601f820116820180604052508101906118be91906159b4565b91509150600082116119095760405162461bcd60e51b8152602060048201526014602482015273151a58dad95d081b9bdd081c1d5c98da185cd95960621b6044820152606401610ef1565b6000848152601a6020908152604080832054600e909252909120600c0180546001600160a01b03909216918390811061194457611944615951565b6000918252602082206002600390920201018054916119628361599b565b919050555061197385858584614260565b604051838152859033907f6327daeea6ce26abf9f96cd84eee9cb40d1d5b88f7f5990914540e392446bf04906020015b60405180910390a35050505050565b6000818152600e6020908152604080832081516102008101909252805482526001810180548594840191906119e690615967565b80601f0160208091040260200160405190810160405280929190818152602001828054611a1290615967565b8015611a5f5780601f10611a3457610100808354040283529160200191611a5f565b820191906000526020600020905b815481529060010190602001808311611a4257829003601f168201915b50505050508152602001600282018054611a7890615967565b80601f0160208091040260200160405190810160405280929190818152602001828054611aa490615967565b8015611af15780601f10611ac657610100808354040283529160200191611af1565b820191906000526020600020905b815481529060010190602001808311611ad457829003601f168201915b505050918352505060038201546001600160a01b03166020808301919091526004830180546040805182850281018501825282815294019392830182828015611b6357602002820191906000526020600020905b81546001600160a01b03168152600190910190602001808311611b45575b50505050508152602001600582016040518060a0016040529081600082018054611b8c90615967565b80601f0160208091040260200160405190810160405280929190818152602001828054611bb890615967565b8015611c055780601f10611bda57610100808354040283529160200191611c05565b820191906000526020600020905b815481529060010190602001808311611be857829003601f168201915b50505091835250506040805180820182526001840154815260028401546020828101919091528084019190915260038401548284015260048401546001600160a01b03166060840152600590930154608090920191909152918352600b84015483820152600c840180548351818402810184018552818152949093019392909160009084015b82821015611d635783829060005260206000209060030201604051806060016040529081600082018054611cbe90615967565b80601f0160208091040260200160405190810160405280929190818152602001828054611cea90615967565b8015611d375780601f10611d0c57610100808354040283529160200191611d37565b820191906000526020600020905b815481529060010190602001808311611d1a57829003601f168201915b505050505081526020016001820154815260200160028201548152505081526020019060010190611c8b565b50505090825250600d8201546020820152600e8201546040820152600f82015460609091019060ff166007811115611d9d57611d9d614e9a565b6007811115611dae57611dae614e9a565b8152600f820154610100900460ff1615156020808301919091526010830180546040805182850281018501825282815294019392830182828015611e1157602002820191906000526020600020905b815481526020019060010190808311611dfd575b505050918352505060118201546020820152601282015460408201526013909101546001600160a01b03166060909101526101a081015190915042118015611e70575060078161014001516007811115611e6d57611e6d614e9a565b14155b15611e7e5750600792915050565b610140015192915050565b50919050565b6000908152600e60205260409020600301546001600160a01b0391821691161490565b611eba6144a7565b611ec38261454c565b611ecd8282614554565b5050565b6000611edb614611565b50600080516020615f3883398151915290565b6001546001600160a01b0316331480611f1157506000546001600160a01b031633145b80611f1b57503330145b611f375760405162461bcd60e51b8152600401610ef190615892565b6001600160a01b038216611f9c5760405162461bcd60e51b815260206004820152602660248201527f546869732073686f7720646f6573206e6f742061636365707420455448207061604482015265796d656e747360d01b6064820152608401610ef1565b6000848152601a60205260409020546001600160a01b038381169116146120135760405162461bcd60e51b815260206004820152602560248201527f4d69736d617463686564207061796d656e7420746f6b656e20666f72207468656044820152642073686f7760d81b6064820152608401610ef1565b604051636eb1769f60e11b81526001600160a01b0382811660048301523060248301528391859183169063dd62ed3e90604401602060405180830381865afa158015612063573d6000803e3d6000fd5b505050506040513d601f19601f8201168201806040525081019061208791906159d8565b10156120e65760405162461bcd60e51b815260206004820152602860248201527f436f6e7472616374206e6f7420617070726f76656420746f207472616e7366656044820152677220746f6b656e7360c01b6064820152608401610ef1565b6040516323b872dd60e01b81526001600160a01b038381166004830152306024830152604482018690528216906323b872dd906064016020604051808303816000875af115801561213b573d6000803e3d6000fd5b505050506040513d601f19601f8201168201806040525081019061215f91906159f1565b5060008581526011602090815260408083206001600160a01b03871684529091528120805486929061219290849061593e565b909155505060405184815233906001600160a01b0385169087907f5bc5584363e68b8a5b066d0c106bba5606176ce569e835fb8b4dc1ee0bb7f4699060200160405180910390a45050505050565b60008281526019602090815260408083206001600160a01b038516845282529182902080548351818402810184019094528084526060939283018282801561224757602002820191906000526020600020905b815481526020019060010190808311612233575b5050505050905092915050565b6001546001600160a01b031633148061227757506000546001600160a01b031633145b8061228157503330145b61229d5760405162461bcd60e51b8152600401610ef190615892565b6000838152600e60205260409020600c81015483106122fe5760405162461bcd60e51b815260206004820152601960248201527f496e76616c6964207469636b6574207469657220696e646578000000000000006044820152606401610ef1565b600081600c01848154811061231557612315615951565b90600052602060002090600302019050828160020154101561238b5760405162461bcd60e51b815260206004820152602960248201527f4e6f7420656e6f756768207469636b65747320617661696c61626c6520696e206044820152683a3434b9903a34b2b960b91b6064820152608401610ef1565b8281600201600082825461239f9190615a0e565b9091555050604051838152849086907fb23124a400670af3347ce475459c187bbba871f316e2d1d91ae115a762def020906020016119a3565b6123e061465a565b6123ea60006146b5565b565b6000546001600160a01b031633146124165760405162461bcd60e51b8152600401610ef190615a21565b60008281526016602052604090205461243090829061593e565b6000928352601660205260409092209190915550565b6019602052826000526040600020602052816000526040600020818154811061246e57600080fd5b9060005260206000200160009250925050505481565b6000828152600e60205260408120600c015460609190819084106124ea5760405162461bcd60e51b815260206004820152601860248201527f5469657220696e646578206f7574206f6620626f756e647300000000000000006044820152606401610ef1565b6000858152600e60205260408120600c0180548690811061250d5761250d615951565b90600052602060002090600302019050806000018160010154826002015482805461253790615967565b80601f016020809104026020016040519081016040528092919081815260200182805461256390615967565b80156125b05780601f10612585576101008083540402835291602001916125b0565b820191906000526020600020905b81548152906001019060200180831161259357829003601f168201915b50505050509250935093509350509250925092565b6001546001600160a01b03163314806125e857506000546001600160a01b031633145b806125f257503330145b61260e5760405162461bcd60e51b8152600401610ef190615892565b6000818152601060205260408120805434929061262c90849061593e565b909155505050565b6000818152600e602052604081206001825b60048301548110156126b35760038301546004840180546001600160a01b03909216918390811061267957612679615951565b6000918252602090912001546001600160a01b0316146126a1578161269d8161599b565b9250505b806126ab8161599b565b915050612646565b509392505050565b60008281526018602090815260408083206001600160a01b0387168452825280832084845290915290205460ff165b9392505050565b6000546001600160a01b0316331461271b5760405162461bcd60e51b8152600401610ef190615a21565b6000928352601760209081526040808520938552929052912055565b6001546001600160a01b031633146127615760405162461bcd60e51b8152600401610ef190615a21565b6000828152600e60205260408120600f015460ff16600781111561278757612787614e9a565b14806127b8575060026000838152600e60205260409020600f015460ff1660078111156127b6576127b6614e9a565b145b6128365760405162461bcd60e51b815260206004820152604360248201527f56656e75652063616e206f6e6c79206265207570646174656420666f7220736860448201527f6f777320696e2050726f706f736564206f7220416363657074656420737461746064820152623ab99760e91b608482015260a401610ef1565b6000828152600e6020526040902081906005016128538282615b82565b905050817ff199f58c6628f3436415ab64e2d1e914a5e79b5ce23d59be2970b2fe46034a6182604051610f5d9190615c58565b7ff0c57e16840df040f15088dc2f81fe391c3923bec73e23a9662efc9c229c6a008054600160401b810460ff1615906001600160401b03166000811580156128cb5750825b90506000826001600160401b031660011480156128e75750303b155b9050811580156128f5575080155b156129135760405163f92ee8a960e01b815260040160405180910390fd5b845467ffffffffffffffff19166001178555831561293d57845460ff60401b1916600160401b1785555b612945614726565b61294e86614736565b600b80546001600160a01b0319166001600160a01b03881617905583156129af57845460ff60401b19168555604051600181527fc7f505b2f371ae2175ee4913f4499e1f2633a7b5936321eed1cdaeb6115181d29060200160405180910390a15b505050505050565b6000546001600160a01b031633146129e15760405162461bcd60e51b8152600401610ef190615a21565b60009384526018602090815260408086206001600160a01b03959095168652938152838520928552919091529120805460ff1916911515919091179055565b80612a2b3382611e8f565b80612a3b5750612a3b3382610e7b565b612a575760405162461bcd60e51b8152600401610ef190615900565b6000828152600e602052604090206004600f82015460ff166007811115612a8057612a80614e9a565b14612ac65760405162461bcd60e51b815260206004820152601660248201527514da1bddc81b5d5cdd0818994810dbdb5c1b195d195960521b6044820152606401610ef1565b6012810154612ad79061012c61593e565b421015612b265760405162461bcd60e51b815260206004820152601b60248201527f53686f7720636f6f6c646f776e20686173206e6f7420656e64656400000000006044820152606401610ef1565b6000838152601a60205260408120546001600160a01b03169081612bc25750600084815260146020908152604080832033845290915290205480612ba35760405162461bcd60e51b81526020600482015260146024820152734e6f2066756e647320746f20776974686472617760601b6044820152606401610ef1565b6000858152601460209081526040808320338452909152812055612c67565b5060008481526015602090815260408083206001600160a01b0385168452825280832033845290915290205480612c3b5760405162461bcd60e51b815260206004820152601a60248201527f4e6f20746f6b656e2066756e647320746f2077697468647261770000000000006044820152606401610ef1565b60008581526015602090815260408083206001600160a01b038616845282528083203384529091528120555b6001600160a01b038216612d0857604051600090339083908381818185875af1925050503d8060008114612cb7576040519150601f19603f3d011682016040523d82523d6000602084013e612cbc565b606091505b5050905080612d025760405162461bcd60e51b815260206004820152601260248201527108cc2d2d8cac840e8de40e6cadcc8408aa8960731b6044820152606401610ef1565b50612e74565b6040516370a0823160e01b8152306004820152829082906001600160a01b038316906370a0823190602401602060405180830381865afa158015612d50573d6000803e3d6000fd5b505050506040513d601f19601f82011682018060405250810190612d7491906159d8565b1015612dbd5760405162461bcd60e51b8152602060048201526018602482015277496e73756666696369656e7420746f6b656e2066756e647360401b6044820152606401610ef1565b60405163a9059cbb60e01b8152336004820152602481018390526001600160a01b0382169063a9059cbb906044016020604051808303816000875af1158015612e0a573d6000803e3d6000fd5b505050506040513d601f19601f82011682018060405250810190612e2e91906159f1565b612e725760405162461bcd60e51b8152602060048201526015602482015274151bdad95b881d1c985b9cd9995c8819985a5b1959605a1b6044820152606401610ef1565b505b604080518281526001600160a01b0384166020820152339187917f41211792ac12581294dfaa383a54e630322f08f25e558828f6d5e0979ac3eb2391016119a3565b6000546001600160a01b03163314612ee05760405162461bcd60e51b8152600401610ef190615a21565b60009283526019602090815260408085206001600160a01b0390941685529281529183208054600181018255908452919092200155565b6001546001600160a01b0316331480612f3a57506000546001600160a01b031633145b80612f4457503330145b612f605760405162461bcd60e51b8152600401610ef190615892565b6000818152600e60208181526040808420601690925290922054600d830154918301549091612f8e91615d09565b612f99826064615d09565b10612fa957612fa9836001610ea8565b505050565b612fb6614747565b6000818152600e602052604090206006600f82015460ff166007811115612fdf57612fdf614e9a565b148061300357506007600f82015460ff16600781111561300157613001614e9a565b145b8061302657506005600f82015460ff16600781111561302457613024614e9a565b145b8061304957506000600f82015460ff16600781111561304757613047614e9a565b145b6130ac5760405162461bcd60e51b815260206004820152602e60248201527f526566756e647320617265206e6f7420617661696c61626c6520666f7220746860448201526d69732073686f772073746174757360901b6064820152608401610ef1565b6000828152601a60205260408120546001600160a01b031690816130ea57506000838152601260209081526040808320338452909152902054613117565b5060008381526013602090815260408083206001600160a01b038516845282528083203384529091529020545b6000811161315e5760405162461bcd60e51b81526020600482015260146024820152734e6f2066756e647320746f20776974686472617760601b6044820152606401610ef1565b6001600160a01b0382166132155760008481526012602090815260408083203380855292528083208390555183908381818185875af1925050503d80600081146131c4576040519150601f19603f3d011682016040523d82523d6000602084013e6131c9565b606091505b505090508061320f5760405162461bcd60e51b815260206004820152601260248201527108cc2d2d8cac840e8de40e6cadcc8408aa8960731b6044820152606401610ef1565b506133a6565b60008481526013602090815260408083206001600160a01b0386168085529083528184203385529092528083209290925590516370a0823160e01b8152306004820152839183916370a0823190602401602060405180830381865afa158015613282573d6000803e3d6000fd5b505050506040513d601f19601f820116820180604052508101906132a691906159d8565b10156132ef5760405162461bcd60e51b8152602060048201526018602482015277496e73756666696369656e7420746f6b656e2066756e647360401b6044820152606401610ef1565b60405163a9059cbb60e01b8152336004820152602481018390526001600160a01b0382169063a9059cbb906044016020604051808303816000875af115801561333c573d6000803e3d6000fd5b505050506040513d601f19601f8201168201806040525081019061336091906159f1565b6133a45760405162461bcd60e51b8152602060048201526015602482015274151bdad95b881d1c985b9cd9995c8819985a5b1959605a1b6044820152606401610ef1565b505b604051818152849033907fa4d59773de0ef2d6faf35ac70331de09c09cb20909bf7453dd0d620524bd1fc99060200160405180910390a350505061340960017f9b779b17422d0df92223018b32b4d1fa46e071723d6817e2486d003becc55f0055565b50565b806134173382611e8f565b8061342757506134273382610e7b565b6134435760405162461bcd60e51b8152600401610ef190615900565b6000828152600e602052604090206001600f82015460ff16600781111561346c5761346c614e9a565b148061349057506002600f82015460ff16600781111561348e5761348e614e9a565b145b806134b357506003600f82015460ff1660078111156134b1576134b1614e9a565b145b6134f65760405162461bcd60e51b815260206004820152601460248201527353686f77206d7573742062652050656e64696e6760601b6044820152606401610ef1565b600f8101805460ff19166005179055600d805490600061351583615d20565b9190505550505050565b61352761465a565b6001600160a01b03811661355157604051631e4fbdf760e01b815260006004820152602401610ef1565b613409816146b5565b600a54600160a01b900460ff16156135b45760405162461bcd60e51b815260206004820152601e60248201527f50726f746f636f6c2061646472657373657320616c72656164792073657400006044820152606401610ef1565b600080546001600160a01b039788166001600160a01b031991821681179092556001805497891697821697909717909655600680548716909117905560078054948716948616949094179093556008805492861692851692909217909155600980549185169190931617909155600a80546001600160a81b0319169190921617600160a01b179055565b600e602052600090815260409020805460018201805491929161366090615967565b80601f016020809104026020016040519081016040528092919081815260200182805461368c90615967565b80156136d95780601f106136ae576101008083540402835291602001916136d9565b820191906000526020600020905b8154815290600101906020018083116136bc57829003601f168201915b5050505050908060020180546136ee90615967565b80601f016020809104026020016040519081016040528092919081815260200182805461371a90615967565b80156137675780601f1061373c57610100808354040283529160200191613767565b820191906000526020600020905b81548152906001019060200180831161374a57829003601f168201915b5050505050908060030160009054906101000a90046001600160a01b031690806005016040518060a00160405290816000820180546137a590615967565b80601f01602080910402602001604051908101604052809291908181526020018280546137d190615967565b801561381e5780601f106137f35761010080835404028352916020019161381e565b820191906000526020600020905b81548152906001019060200180831161380157829003601f168201915b505050918352505060408051808201825260018401548152600284015460208281019190915283015260038301549082015260048201546001600160a01b039081166060830152600590920154608090910152600b830154600d840154600e850154600f86015460118701546012880154601390980154969794969395929460ff80841695610100909404169391929091168d565b60006064846000815181106138ca576138ca615951565b6020026020010151846138dd9190615d09565b6138e79190615d37565b90506001600160a01b03821661393857600086815260146020908152604080832060038901546001600160a01b031684529091528120805483929061392d90849061593e565b909155506139819050565b60008681526015602090815260408083206001600160a01b03808716855290835281842060038a015490911684529091528120805483929061397b90849061593e565b90915550505b60015b60048601548111613ad057600060648683815181106139a5576139a5615951565b6020026020010151866139b89190615d09565b6139c29190615d37565b90506001600160a01b038416613a40576000888152601460205260408120829160048a016139f1600187615a0e565b81548110613a0157613a01615951565b60009182526020808320909101546001600160a01b0316835282019290925260400181208054909190613a3590849061593e565b90915550613abd9050565b60008881526015602090815260408083206001600160a01b03881684529091528120829160048a01613a73600187615a0e565b81548110613a8357613a83615951565b60009182526020808320909101546001600160a01b0316835282019290925260400181208054909190613ab790849061593e565b90915550505b5080613ac88161599b565b915050613984565b50600060648560018751613ae49190615a0e565b81518110613af457613af4615951565b602002602001015185613b079190615d09565b613b119190615d37565b90506001600160a01b038316613b6257600087815260146020908152604080832060098a01546001600160a01b0316845290915281208054839290613b5790849061593e565b90915550613bab9050565b60008781526015602090815260408083206001600160a01b03808816855290835281842060098b0154909116845290915281208054839290613ba590849061593e565b90915550505b50505050505050565b805151613bf65760405162461bcd60e51b815260206004820152601060248201526f13985b59481a5cc81c995c5d5a5c995960821b6044820152606401610ef1565b6000816080015111613c565760405162461bcd60e51b815260206004820152602360248201527f56656e756520726164697573206d75737420626520677265617465722074686160448201526206e20360ec1b6064820152608401610ef1565b6000816020015151118015613c7257506103e881602001515111155b613cbe5760405162461bcd60e51b815260206004820152601a60248201527f496e76616c6964206465736372697074696f6e206c656e6774680000000000006044820152606401610ef1565b60008160c0015111613d205760405162461bcd60e51b815260206004820152602560248201527f546f74616c206361706163697479206d75737420626520677265617465722074604482015264068616e20360dc1b6064820152608401610ef1565b600081604001515111613d755760405162461bcd60e51b815260206004820152601c60248201527f4174206c65617374206f6e6520617274697374207265717569726564000000006044820152606401610ef1565b60328160a0015160ff1610158015613d95575060648160a0015160ff1611155b613df95760405162461bcd60e51b815260206004820152602f60248201527f53656c6c2d6f7574207468726573686f6c64206d75737420626520626574776560448201526e656e2035302520616e64203130302560881b6064820152608401610ef1565b60608101515163055d4a7f1913801590613e1c575060608101515163055d4a8012155b613e5b5760405162461bcd60e51b815260206004820152601060248201526f496e76616c6964206c6174697475646560801b6044820152606401610ef1565b630aba94ff1981606001516020015112158015613e845750630aba950081606001516020015113155b613ec45760405162461bcd60e51b8152602060048201526011602482015270496e76616c6964206c6f6e67697475646560781b6044820152606401610ef1565b6134098161010001518260400151516147b7565b80516020808301516040808501516060860151805190850151608088015160a089015160c08a01516101208b0151965160009a613f1b9a90999891429101615d59565b60408051601f1981840301815291815281516020928301206000818152600e90935291208351919250906001820190613f549082615ddc565b5060208301516002820190613f699082615ddc565b506003810180546001600160a01b0319163317905560408301518051613f99916004840191602090910190614c55565b506040805160c08082018352600060a083018181528084526060808901516020860152928801519484019490945290820181905260808201529060058301908190613fe49082615ddc565b506020828101518051600184015581015160028301556040830151600383015560608301516004830180546001600160a01b0319166001600160a01b0390921691909117905560809283015160059092019190915590840151600b83015560a084015160ff16600d83015560c0840151600e830155600f8201805461ffff191661010090811790915584015180516140829260108501920190614cba565b506140904262278d0061593e565b60118201556000601282018190556101208401516013830180546001600160a01b039092166001600160a01b03199283168117909155848352601a6020526040832080549092161790555b8360e001515181101561415d5781600c018460e00151828151811061410257614102615951565b602090810291909101810151825460018101845560009384529190922082516003909202019081906141349082615ddc565b5060208201516001820155604090910151600290910155806141558161599b565b9150506140db565b5060005b8360400151518110156141df576001600f600085815260200190815260200160002060008660400151848151811061419b5761419b615951565b6020908102919091018101516001600160a01b03168252810191909152604001600020805460ff1916911515919091179055806141d78161599b565b915050614161565b50600d80549060006141f08361599b565b9190505550336001600160a01b0316827fb627fd710eb93733196a5e4d106fc18af287574dcaa2cb48d76bc40d09145b498560000151866040015187602001518860a001518961010001518a60c0015160405161425296959493929190615e9b565b60405180910390a350919050565b6000848152600e60209081526040808320601690925282208054919261428583615d20565b90915550506001600160a01b0382166142ef57600085815260106020526040812080548592906142b6908490615a0e565b90915550506000858152601260209081526040808320338452909152812080548592906142e490849061593e565b909155506143669050565b60008581526011602090815260408083206001600160a01b038616845290915281208054859290614321908490615a0e565b909155505060008581526013602090815260408083206001600160a01b038616845282528083203384529091528120805485929061436090849061593e565b90915550505b600085815260166020526040812054600d830154600e84015491929160649161438e91615d09565b6143989190615d37565b905080821080156143c157506001600f84015460ff1660078111156143bf576143bf614e9a565b145b1561440e57600f8301805460ff1916905560405187907f8ed894b6f384ca9c829b9aa5b056bc9106a90845a15616607e975d4ad488ee6790614405906000906154a1565b60405180910390a25b60008781526017602090815260408083208984529091528120556144338733886148fe565b6006546040516387f9ca5d60e01b815260048101889052600160248201523360448201526001600160a01b03909116906387f9ca5d90606401600060405180830381600087803b15801561448657600080fd5b505af115801561449a573d6000803e3d6000fd5b5050505050505050505050565b306001600160a01b037f000000000000000000000000000000000000000000000000000000000000000016148061452e57507f00000000000000000000000000000000000000000000000000000000000000006001600160a01b0316614522600080516020615f38833981519152546001600160a01b031690565b6001600160a01b031614155b156123ea5760405163703e46dd60e11b815260040160405180910390fd5b61340961465a565b816001600160a01b03166352d1902d6040518163ffffffff1660e01b8152600401602060405180830381865afa9250505080156145ae575060408051601f3d908101601f191682019092526145ab918101906159d8565b60015b6145d657604051634c9c8ce360e01b81526001600160a01b0383166004820152602401610ef1565b600080516020615f38833981519152811461460757604051632a87526960e21b815260048101829052602401610ef1565b612fa983836149dd565b306001600160a01b037f000000000000000000000000000000000000000000000000000000000000000016146123ea5760405163703e46dd60e11b815260040160405180910390fd5b3361468c7f9016d09d72d40fdae2fd8ceac6b6234c7706214fd39c1cd1e609a0528c199300546001600160a01b031690565b6001600160a01b0316146123ea5760405163118cdaa760e01b8152336004820152602401610ef1565b7f9016d09d72d40fdae2fd8ceac6b6234c7706214fd39c1cd1e609a0528c19930080546001600160a01b031981166001600160a01b03848116918217845560405192169182907f8be0079c531659141344cd1fd0a4f28419497f9722a3daafe3b4186f6b6457e090600090a3505050565b61472e614a33565b6123ea614a7c565b61473e614a33565b61340981614a84565b7f9b779b17422d0df92223018b32b4d1fa46e071723d6817e2486d003becc55f0080546001190161478b57604051633ee5aeb560e01b815260040160405180910390fd5b60029055565b60017f9b779b17422d0df92223018b32b4d1fa46e071723d6817e2486d003becc55f0055565b6147c281600261593e565b82511461485d5760405162461bcd60e51b815260206004820152605a60248201527f53706c6974206172726179206d75737420686176652061206c656e677468206560448201527f7175616c20746f20746865206e756d626572206f66206172746973747320706c60648201527f7573203220286f7267616e697a657220616e642076656e756529000000000000608482015260a401610ef1565b6000805b83518110156148a35783818151811061487c5761487c615951565b60200260200101518261488f919061593e565b91508061489b8161599b565b915050614861565b5080606414612fa95760405162461bcd60e51b815260206004820152602160248201527f53706c69742070657263656e7461676573206d7573742073756d20746f2031306044820152600360fc1b6064820152608401610ef1565b60008381526019602090815260408083206001600160a01b03861684529091528120905b81548110156149d6578282828154811061493e5761493e615951565b9060005260206000200154036149c4578154829061495e90600190615a0e565b8154811061496e5761496e615951565b906000526020600020015482828154811061498b5761498b615951565b9060005260206000200181905550818054806149a9576149a9615f05565b600190038181906000526020600020016000905590556149d6565b806149ce8161599b565b915050614922565b5050505050565b6149e682614a8c565b6040516001600160a01b038316907fbc7cd75a20ee27fd9adebab32041f755214dbc6bffa90cc0225b39da2e5c2d3b90600090a2805115614a2b57612fa98282614af1565b611ecd614b67565b7ff0c57e16840df040f15088dc2f81fe391c3923bec73e23a9662efc9c229c6a0054600160401b900460ff166123ea57604051631afcd79f60e31b815260040160405180910390fd5b614791614a33565b613527614a33565b806001600160a01b03163b600003614ac257604051634c9c8ce360e01b81526001600160a01b0382166004820152602401610ef1565b600080516020615f3883398151915280546001600160a01b0319166001600160a01b0392909216919091179055565b6060600080846001600160a01b031684604051614b0e9190615f1b565b600060405180830381855af49150503d8060008114614b49576040519150601f19603f3d011682016040523d82523d6000602084013e614b4e565b606091505b5091509150614b5e858383614b86565b95945050505050565b34156123ea5760405163b398979f60e01b815260040160405180910390fd5b606082614b9b57614b9682614be2565b6126ea565b8151158015614bb257506001600160a01b0384163b155b15614bdb57604051639996b31560e01b81526001600160a01b0385166004820152602401610ef1565b50806126ea565b805115614bf25780518082602001fd5b604051630a12f52160e11b815260040160405180910390fd5b6040518060a0016040528060608152602001614c3a604051806040016040528060008152602001600081525090565b81526000602082018190526040820181905260609091015290565b828054828255906000526020600020908101928215614caa579160200282015b82811115614caa57825182546001600160a01b0319166001600160a01b03909116178255602090920191600190910190614c75565b50614cb6929150614cf5565b5090565b828054828255906000526020600020908101928215614caa579160200282015b82811115614caa578251825591602001919060010190614cda565b5b80821115614cb65760008155600101614cf6565b6001600160a01b038116811461340957600080fd5b8035614d2a81614d0a565b919050565b60008060408385031215614d4257600080fd5b8235614d4d81614d0a565b946020939093013593505050565b60008060408385031215614d6e57600080fd5b82359150602083013560088110614d8457600080fd5b809150509250929050565b600060208284031215614da157600080fd5b5035919050565b60005b83811015614dc3578181015183820152602001614dab565b50506000910152565b60008151808452614de4816020860160208601614da8565b601f01601f19169290920160200192915050565b600081518084526020808501945080840160005b83811015614e315781516001600160a01b031687529582019590820190600101614e0c565b509495945050505050565b6000815160c08452614e5160c0850182614dcc565b905060208301518051602086015260208101516040860152506040830151606085015260018060a01b036060840151166080850152608083015160a08501528091505092915050565b634e487b7160e01b600052602160045260246000fd5b60088110614ece57634e487b7160e01b600052602160045260246000fd5b9052565b6000610160808352614ee68184018f614dcc565b9050602083820381850152614efb828f614dcc565b9150604060018060a01b038e1681860152606085840381870152614f1f848f614df8565b93508584036080870152614f33848e614e3c565b935085840360a0870152838c518086528486019150848160051b870101858f0160005b83811015614f9f57888303601f1901855281518051878552614f7a88860182614dcc565b828b0151868c0152918901519489019490945294880194925090870190600101614f56565b5050809750505050505050508660c08301528560e0830152614fc5610100830186614eb0565b8315156101208301526001600160a01b0383166101408301529c9b505050505050505050505050565b6000806040838503121561500157600080fd5b50508035926020909101359150565b634e487b7160e01b600052604160045260246000fd5b604051606081016001600160401b038111828210171561504857615048615010565b60405290565b60405161014081016001600160401b038111828210171561504857615048615010565b604051601f8201601f191681016001600160401b038111828210171561509957615099615010565b604052919050565b60006001600160401b038311156150ba576150ba615010565b6150cd601f8401601f1916602001615071565b90508281528383830111156150e157600080fd5b828260208301376000602084830101529392505050565b600082601f83011261510957600080fd5b6126ea838335602085016150a1565b60006001600160401b0382111561513157615131615010565b5060051b60200190565b600082601f83011261514c57600080fd5b8135602061516161515c83615118565b615071565b82815260059290921b8401810191818101908684111561518057600080fd5b8286015b848110156151a457803561519781614d0a565b8352918301918301615184565b509695505050505050565b6000604082840312156151c157600080fd5b604051604081018181106001600160401b03821117156151e3576151e3615010565b604052823581526020928301359281019290925250919050565b803560ff81168114614d2a57600080fd5b600082601f83011261521f57600080fd5b8135602061522f61515c83615118565b82815260059290921b8401810191818101908684111561524e57600080fd5b8286015b848110156151a45780356001600160401b03808211156152725760008081fd5b908801906060828b03601f190181131561528c5760008081fd5b615294615026565b87840135838111156152a65760008081fd5b6152b48d8a838801016150f8565b82525060408481013589830152919093013590830152508352918301918301615252565b600082601f8301126152e957600080fd5b813560206152f961515c83615118565b82815260059290921b8401810191818101908684111561531857600080fd5b8286015b848110156151a4578035835291830191830161531c565b60006020828403121561534557600080fd5b81356001600160401b038082111561535c57600080fd5b90830190610160828603121561537157600080fd5b61537961504e565b82358281111561538857600080fd5b615394878286016150f8565b8252506020830135828111156153a957600080fd5b6153b5878286016150f8565b6020830152506040830135828111156153cd57600080fd5b6153d98782860161513b565b6040830152506153ec86606085016151af565b606082015260a0830135608082015261540760c084016151fd565b60a082015260e083013560c0820152610100808401358381111561542a57600080fd5b6154368882870161520e565b60e084015250610120808501358481111561545057600080fd5b61545c898288016152d8565b838501525061546e6101408601614d1f565b908301525095945050505050565b6000806040838503121561548f57600080fd5b823591506020830135614d8481614d0a565b60208101610ea28284614eb0565b600080604083850312156154c257600080fd5b82356154cd81614d0a565b915060208301356001600160401b038111156154e857600080fd5b8301601f810185136154f957600080fd5b615508858235602084016150a1565b9150509250929050565b6000806000806080858703121561552857600080fd5b8435935060208501359250604085013561554181614d0a565b9150606085013561555181614d0a565b939692955090935050565b600081518084526020808501945080840160005b83811015614e3157815187529582019590820190600101615570565b6020815260006126ea602083018461555c565b6000806000606084860312156155b457600080fd5b505081359360208301359350604090920135919050565b6000806000606084860312156155e057600080fd5b8335925060208401356155f281614d0a565b9150604084013561560281614d0a565b809150509250925092565b60008060006060848603121561562257600080fd5b83359250602084013561563481614d0a565b929592945050506040919091013590565b6060815260006156586060830186614dcc565b60208301949094525060400152919050565b60008060006060848603121561567f57600080fd5b833561568a81614d0a565b95602085013595506040909401359392505050565b6020815260006126ea6020830184614dcc565b600080604083850312156156c557600080fd5b8235915060208301356001600160401b038111156156e257600080fd5b830160c08186031215614d8457600080fd5b60006020828403121561570657600080fd5b81356126ea81614d0a565b801515811461340957600080fd5b6000806000806080858703121561573557600080fd5b84359350602085013561574781614d0a565b925060408501359150606085013561555181615711565b60008060008060008060c0878903121561577757600080fd5b863561578281614d0a565b9550602087013561579281614d0a565b945060408701356157a281614d0a565b935060608701356157b281614d0a565b925060808701356157c281614d0a565b915060a08701356157d281614d0a565b809150509295509295509295565b8d81526101a0602082015260006157fb6101a083018f614dcc565b828103604084015261580d818f614dcc565b6001600160a01b038e16606085015283810360808501529050615830818d614e3c565b9150508960a08301528860c08301528760e0830152615853610100830188614eb0565b85151561012083015284610140830152836101608301526158806101808301846001600160a01b03169052565b9e9d5050505050505050505050505050565b60208082526048908201527f4f6e6c79207468652056656e75652c205469636b657420636f6e74726163742c60408201527f206f72207468697320636f6e74726163742063616e2063616c6c207468697320606082015267333ab731ba34b7b760c11b608082015260a00190565b6020808252600e908201526d139bdd08185d5d1a1bdc9a5e995960921b604082015260600190565b634e487b7160e01b600052601160045260246000fd5b80820180821115610ea257610ea2615928565b634e487b7160e01b600052603260045260246000fd5b600181811c9082168061597b57607f821691505b602082108103611e8957634e487b7160e01b600052602260045260246000fd5b6000600182016159ad576159ad615928565b5060010190565b600080604083850312156159c757600080fd5b505080516020909101519092909150565b6000602082840312156159ea57600080fd5b5051919050565b600060208284031215615a0357600080fd5b81516126ea81615711565b81810381811115610ea257610ea2615928565b6020808252602f908201527f4f6e6c7920746865205469636b657420636f6e74726163742063616e2063616c60408201526e36103a3434b990333ab731ba34b7b760891b606082015260800190565b601f821115612fa957600081815260208120601f850160051c81016020861015615a975750805b601f850160051c820191505b818110156129af57828155600101615aa3565b6001600160401b03831115615acd57615acd615010565b615ae183615adb8354615967565b83615a70565b6000601f841160018114615b155760008515615afd5750838201355b600019600387901b1c1916600186901b1783556149d6565b600083815260209020601f19861690835b82811015615b465786850135825560209485019460019092019101615b26565b5086821015615b635760001960f88860031b161c19848701351681555b505060018560011b0183555050505050565b60008135610ea281614d0a565b8135601e19833603018112615b9657600080fd5b820180356001600160401b03811115615bae57600080fd5b602082019150803603821315615bc357600080fd5b615bce818385615ab6565b5050602082013560018201556040820135600282015560608201356003820155615c21615bfd60808401615b75565b6004830180546001600160a01b0319166001600160a01b0392909216919091179055565b60a082013560058201555050565b81835281816020850137506000828201602090810191909152601f909101601f19169091010190565b6020815260008235601e19843603018112615c7257600080fd5b83016020810190356001600160401b03811115615c8e57600080fd5b803603821315615c9d57600080fd5b60c06020850152615cb260e085018284615c2f565b915050615ccf604084016020860180358252602090810135910152565b60608401356080840152615ce560808501614d1f565b6001600160a01b03811660a08501525060a084013560c08401528091505092915050565b8082028115828204841417610ea257610ea2615928565b600081615d2f57615d2f615928565b506000190190565b600082615d5457634e487b7160e01b600052601260045260246000fd5b500490565b6000610140808352615d6d8184018e614dcc565b90508281036020840152615d81818d614dcc565b90508281036040840152615d95818c614df8565b606084019a909a525050608081019690965260a086019490945260ff9290921660c085015260e08401526001600160a01b0316610100830152610120909101529392505050565b81516001600160401b03811115615df557615df5615010565b615e0981615e038454615967565b84615a70565b602080601f831160018114615e3e5760008415615e265750858301515b600019600386901b1c1916600185901b1785556129af565b600085815260208120601f198616915b82811015615e6d57888601518255948401946001909101908401615e4e565b5085821015615e8b5787850151600019600388901b60f8161c191681555b5050505050600190811b01905550565b60c081526000615eae60c0830189614dcc565b8281036020840152615ec08189614df8565b90508281036040840152615ed48188614dcc565b905060ff861660608401528281036080840152615ef1818661555c565b9150508260a0830152979650505050505050565b634e487b7160e01b600052603160045260246000fd5b60008251615f2d818460208701614da8565b919091019291505056fe360894a13ba1a3210667c828492db98dca3e2076cc3735a920a3ca505d382bbca264697066735822122026e8f72e58c195318ab913eee33168dcf418584c5ccf9bd7668801164e27fbba64736f6c63430008140033","linkReferences":{}},"methodIdentifiers":{"SELLOUT_PROTOCOL_WALLET()":"e30228be","UPGRADE_INTERFACE_VERSION()":"ad3cb1cc","activeShowCount()":"16488906","addTokenIdToWallet(bytes32,address,uint256)":"de44006f","artistRegistryContract()":"41adf3ad","artistRegistryInstance()":"8dea15a1","cancelShow(bytes32)":"ef5023a5","completeShow(bytes32)":"129e086b","consumeTicketTier(bytes32,uint256,uint256)":"644b5e59","depositToVault(bytes32)":"85266635","depositToVaultERC20(bytes32,uint256,address,address)":"5412233f","getNumberOfVoters(bytes32)":"85ffa16c","getOrganizer(bytes32)":"977cb89e","getPendingPayout(bytes32,address)":"42894bcb","getPendingRefund(bytes32,address)":"6e9cacd0","getSellOutThreshold(bytes32)":"1a348e62","getShowById(bytes32)":"27b1bf52","getShowPaymentToken(bytes32)":"d23b85a3","getShowStatus(bytes32)":"46c2c8a7","getTicketPricePaid(bytes32,uint256)":"93d4e100","getTicketTierInfo(bytes32,uint256)":"7e3e3935","getTotalCapacity(bytes32)":"620ec1e4","getTotalTicketsSold(bytes32)":"61041870","getWalletTokenIds(bytes32,address)":"5b9a1e09","hasTicket(address,bytes32)":"5c37da69","initialize(address)":"c4d66de8","isArtist(address,bytes32)":"02c9a8b5","isArtistMapping(bytes32,address)":"bafd4eb0","isOrganizer(address,bytes32)":"4ed372da","isTicketOwner(address,bytes32,uint256)":"a03f4efe","organizerRegistryContract()":"66bc64cd","organizerRegistryInstance()":"1cf2103e","owner()":"8da5cb5b","payout(bytes32)":"cfefb3d5","pendingPayouts(bytes32,address)":"8e70362b","pendingRefunds(bytes32,address)":"5696c07c","pendingTokenPayouts(bytes32,address,address)":"75976795","pendingTokenRefunds(bytes32,address,address)":"92ea6388","proposeShow((string,string,address[],(int256,int256),uint256,uint8,uint256,(string,uint256,uint256)[],uint256[],address))":"3b9ce466","proxiableUUID()":"52d1902d","referralContract()":"7dad19db","referralInstance()":"c6ab848a","refundTicket(bytes32,uint256)":"3c60d2d6","renounceOwnership()":"715018a6","setProtocolAddresses(address,address,address,address,address,address)":"f8121873","setTicketOwnership(bytes32,address,uint256,bool)":"c8f67e96","setTicketPricePaid(bytes32,uint256,uint256)":"bd47dc5c","setTotalTicketsSold(bytes32,uint256)":"787d76b8","showPaymentToken(bytes32)":"72958028","showTokenVault(bytes32,address)":"c9e21e5e","showVault(bytes32)":"867e68af","shows(bytes32)":"fca46559","ticketContract()":"58a86e1d","ticketInstance()":"0233ce6a","ticketPricePaid(bytes32,uint256)":"2f18ddfe","totalTicketsSold(bytes32)":"925e8f89","transferOwnership(address)":"f2fde38b","updateShowVenue(bytes32,(string,(int256,int256),uint256,address,bytes32))":"c29e2de4","updateStatus(bytes32,uint8)":"054372ed","updateStatusIfSoldOut(bytes32)":"e6180546","upgradeToAndCall(address,bytes)":"4f1ef286","venueContract()":"51819335","venueRegistryContract()":"31a68da0","venueRegistryInstance()":"703ee4e5","walletToShowToTokenIds(bytes32,address,uint256)":"7d8d6a22","withdrawRefund(bytes32)":"e9acfa7c"},"id":58}