{"abi":[{"type":"function","name":"activeShowCount","inputs":[],"outputs":[{"name":"","type":"uint256","internalType":"uint256"}],"stateMutability":"view"},{"type":"function","name":"isArtistMapping","inputs":[{"name":"","type":"bytes32","internalType":"bytes32"},{"name":"","type":"address","internalType":"address"}],"outputs":[{"name":"","type":"bool","internalType":"bool"}],"stateMutability":"view"},{"type":"function","name":"pendingWithdrawals","inputs":[{"name":"","type":"bytes32","internalType":"bytes32"},{"name":"","type":"address","internalType":"address"}],"outputs":[{"name":"","type":"uint256","internalType":"uint256"}],"stateMutability":"view"},{"type":"function","name":"showVault","inputs":[{"name":"","type":"bytes32","internalType":"bytes32"}],"outputs":[{"name":"","type":"uint256","internalType":"uint256"}],"stateMutability":"view"},{"type":"function","name":"shows","inputs":[{"name":"","type":"bytes32","internalType":"bytes32"}],"outputs":[{"name":"showId","type":"bytes32","internalType":"bytes32"},{"name":"name","type":"string","internalType":"string"},{"name":"description","type":"string","internalType":"string"},{"name":"organizer","type":"address","internalType":"address"},{"name":"venue","type":"tuple","internalType":"struct VenueTypes.Venue","components":[{"name":"name","type":"string","internalType":"string"},{"name":"coordinates","type":"tuple","internalType":"struct VenueTypes.Coordinates","components":[{"name":"lat","type":"int256","internalType":"int256"},{"name":"lon","type":"int256","internalType":"int256"}]},{"name":"totalCapacity","type":"uint256","internalType":"uint256"},{"name":"wallet","type":"address","internalType":"address"},{"name":"venueId","type":"bytes32","internalType":"bytes32"}]},{"name":"radius","type":"uint256","internalType":"uint256"},{"name":"ticketPrice","type":"tuple","internalType":"struct ShowTypes.TicketPrice","components":[{"name":"minPrice","type":"uint256","internalType":"uint256"},{"name":"maxPrice","type":"uint256","internalType":"uint256"}]},{"name":"sellOutThreshold","type":"uint256","internalType":"uint256"},{"name":"totalCapacity","type":"uint256","internalType":"uint256"},{"name":"status","type":"uint8","internalType":"enum ShowTypes.Status"},{"name":"isActive","type":"bool","internalType":"bool"},{"name":"expiry","type":"uint256","internalType":"uint256"},{"name":"showDate","type":"uint256","internalType":"uint256"}],"stateMutability":"view"},{"type":"function","name":"ticketOwnership","inputs":[{"name":"","type":"address","internalType":"address"},{"name":"","type":"bytes32","internalType":"bytes32"}],"outputs":[{"name":"","type":"bool","internalType":"bool"}],"stateMutability":"view"},{"type":"function","name":"ticketPricePaid","inputs":[{"name":"","type":"bytes32","internalType":"bytes32"},{"name":"","type":"uint256","internalType":"uint256"}],"outputs":[{"name":"","type":"uint256","internalType":"uint256"}],"stateMutability":"view"},{"type":"function","name":"totalTicketsSold","inputs":[{"name":"","type":"bytes32","internalType":"bytes32"}],"outputs":[{"name":"","type":"uint256","internalType":"uint256"}],"stateMutability":"view"},{"type":"function","name":"walletToShowToTokenIds","inputs":[{"name":"","type":"bytes32","internalType":"bytes32"},{"name":"","type":"address","internalType":"address"},{"name":"","type":"uint256","internalType":"uint256"}],"outputs":[{"name":"","type":"uint256","internalType":"uint256"}],"stateMutability":"view"}],"bytecode":{"object":"0x608060405234801561001057600080fd5b5061078a806100206000396000f3fe608060405234801561001057600080fd5b50600436106100935760003560e01c8063867e68af11610066578063867e68af14610130578063925e8f8914610150578063bafd4eb014610170578063be44d38d1461019e578063fca46559146101c957600080fd5b806316488906146100985780632f18ddfe146100b457806346079335146100df5780637d8d6a221461011d575b600080fd5b6100a160015481565b6040519081526020015b60405180910390f35b6100a16100c23660046104c0565b600760209081526000928352604080842090915290825290205481565b61010d6100ed3660046104fe565b600860209081526000928352604080842090915290825290205460ff1681565b60405190151581526020016100ab565b6100a161012b366004610528565b6101f5565b6100a161013e36600461055d565b60046020526000908152604090205481565b6100a161015e36600461055d565b60066020526000908152604090205481565b61010d61017e366004610576565b600360209081526000928352604080842090915290825290205460ff1681565b6100a16101ac366004610576565b600560209081526000928352604080842090915290825290205481565b6101dc6101d736600461055d565b610233565b6040516100ab9d9c9b9a99989796959493929190610668565b6009602052826000526040600020602052816000526040600020818154811061021d57600080fd5b9060005260206000200160009250925050505481565b600260205260009081526040902080546001820180549192916102559061071a565b80601f01602080910402602001604051908101604052809291908181526020018280546102819061071a565b80156102ce5780601f106102a3576101008083540402835291602001916102ce565b820191906000526020600020905b8154815290600101906020018083116102b157829003601f168201915b5050505050908060020180546102e39061071a565b80601f016020809104026020016040519081016040528092919081815260200182805461030f9061071a565b801561035c5780601f106103315761010080835404028352916020019161035c565b820191906000526020600020905b81548152906001019060200180831161033f57829003601f168201915b5050505050908060030160009054906101000a90046001600160a01b031690806005016040518060a001604052908160008201805461039a9061071a565b80601f01602080910402602001604051908101604052809291908181526020018280546103c69061071a565b80156104135780601f106103e857610100808354040283529160200191610413565b820191906000526020600020905b8154815290600101906020018083116103f657829003601f168201915b50505091835250506040805180820182526001840154815260028401546020828101919091528084019190915260038401548284015260048401546001600160a01b03166060840152600590930154608090920191909152600b8401548151808301909252600c8501548252600d85015492820192909252600e840154600f850154601086015460128701546013909701549596949593949293919260ff8083169361010090930416918d565b600080604083850312156104d357600080fd5b50508035926020909101359150565b80356001600160a01b03811681146104f957600080fd5b919050565b6000806040838503121561051157600080fd5b61051a836104e2565b946020939093013593505050565b60008060006060848603121561053d57600080fd5b8335925061054d602085016104e2565b9150604084013590509250925092565b60006020828403121561056f57600080fd5b5035919050565b6000806040838503121561058957600080fd5b82359150610599602084016104e2565b90509250929050565b6000815180845260005b818110156105c8576020818501810151868301820152016105ac565b506000602082860101526020601f19601f83011685010191505092915050565b6000815160c084526105fd60c08501826105a2565b905060208301518051602086015260208101516040860152506040830151606085015260018060a01b036060840151166080850152608083015160a08501528091505092915050565b6008811061066457634e487b7160e01b600052602160045260246000fd5b9052565b8d81526101c0602082015260006106836101c083018f6105a2565b8281036040840152610695818f6105a2565b6001600160a01b038e166060850152838103608085015290506106b8818d6105e8565b9150508960a08301526106d860c083018a80518252602090810151910152565b87610100830152866101208301526106f4610140830187610646565b8415156101608301526101808201939093526101a001529b9a5050505050505050505050565b600181811c9082168061072e57607f821691505b60208210810361074e57634e487b7160e01b600052602260045260246000fd5b5091905056fea264697066735822122046801c72ca0455603210e72907fb6c080c70b0bc461f4addccbd8bd331e39b5964736f6c63430008140033","linkReferences":{}},"methodIdentifiers":{"activeShowCount()":"16488906","isArtistMapping(bytes32,address)":"bafd4eb0","pendingWithdrawals(bytes32,address)":"be44d38d","showVault(bytes32)":"867e68af","shows(bytes32)":"fca46559","ticketOwnership(address,bytes32)":"46079335","ticketPricePaid(bytes32,uint256)":"2f18ddfe","totalTicketsSold(bytes32)":"925e8f89","walletToShowToTokenIds(bytes32,address,uint256)":"7d8d6a22"},"id":58}