{"abi":[{"type":"function","name":"UPGRADE_INTERFACE_VERSION","inputs":[],"outputs":[{"name":"","type":"string","internalType":"string"}],"stateMutability":"view"},{"type":"function","name":"boxOfficeContract","inputs":[],"outputs":[{"name":"","type":"address","internalType":"address"}],"stateMutability":"view"},{"type":"function","name":"calculateTotalPayoutAmount","inputs":[{"name":"showId","type":"bytes32","internalType":"bytes32"},{"name":"paymentToken","type":"address","internalType":"address"}],"outputs":[{"name":"","type":"uint256","internalType":"uint256"}],"stateMutability":"view"},{"type":"function","name":"clearVault","inputs":[{"name":"showId","type":"bytes32","internalType":"bytes32"},{"name":"paymentToken","type":"address","internalType":"address"}],"outputs":[],"stateMutability":"nonpayable"},{"type":"function","name":"depositToVault","inputs":[{"name":"showId","type":"bytes32","internalType":"bytes32"}],"outputs":[],"stateMutability":"payable"},{"type":"function","name":"depositToVaultERC20","inputs":[{"name":"showId","type":"bytes32","internalType":"bytes32"},{"name":"amount","type":"uint256","internalType":"uint256"},{"name":"paymentToken","type":"address","internalType":"address"},{"name":"tokenRecipient","type":"address","internalType":"address"}],"outputs":[],"stateMutability":"nonpayable"},{"type":"function","name":"distributeShares","inputs":[{"name":"showId","type":"bytes32","internalType":"bytes32"},{"name":"recipients","type":"address[]","internalType":"address[]"},{"name":"splits","type":"uint256[]","internalType":"uint256[]"},{"name":"totalAmount","type":"uint256","internalType":"uint256"},{"name":"paymentToken","type":"address","internalType":"address"}],"outputs":[],"stateMutability":"nonpayable"},{"type":"function","name":"getShowPaymentToken","inputs":[{"name":"showId","type":"bytes32","internalType":"bytes32"}],"outputs":[{"name":"","type":"address","internalType":"address"}],"stateMutability":"view"},{"type":"function","name":"initialize","inputs":[{"name":"_showContract","type":"address","internalType":"address"},{"name":"_selloutProtocolWallet","type":"address","internalType":"address"}],"outputs":[],"stateMutability":"nonpayable"},{"type":"function","name":"owner","inputs":[],"outputs":[{"name":"","type":"address","internalType":"address"}],"stateMutability":"view"},{"type":"function","name":"payout","inputs":[{"name":"showId","type":"bytes32","internalType":"bytes32"},{"name":"paymentToken","type":"address","internalType":"address"}],"outputs":[],"stateMutability":"nonpayable"},{"type":"function","name":"pendingPayouts","inputs":[{"name":"","type":"bytes32","internalType":"bytes32"},{"name":"","type":"address","internalType":"address"}],"outputs":[{"name":"","type":"uint256","internalType":"uint256"}],"stateMutability":"view"},{"type":"function","name":"pendingRefunds","inputs":[{"name":"","type":"bytes32","internalType":"bytes32"},{"name":"","type":"address","internalType":"address"}],"outputs":[{"name":"","type":"uint256","internalType":"uint256"}],"stateMutability":"view"},{"type":"function","name":"pendingTokenPayouts","inputs":[{"name":"","type":"bytes32","internalType":"bytes32"},{"name":"","type":"address","internalType":"address"},{"name":"","type":"address","internalType":"address"}],"outputs":[{"name":"","type":"uint256","internalType":"uint256"}],"stateMutability":"view"},{"type":"function","name":"pendingTokenRefunds","inputs":[{"name":"","type":"bytes32","internalType":"bytes32"},{"name":"","type":"address","internalType":"address"},{"name":"","type":"address","internalType":"address"}],"outputs":[{"name":"","type":"uint256","internalType":"uint256"}],"stateMutability":"view"},{"type":"function","name":"processRefund","inputs":[{"name":"showId","type":"bytes32","internalType":"bytes32"},{"name":"refundAmount","type":"uint256","internalType":"uint256"},{"name":"paymentToken","type":"address","internalType":"address"},{"name":"recipient","type":"address","internalType":"address"}],"outputs":[],"stateMutability":"nonpayable"},{"type":"function","name":"proxiableUUID","inputs":[],"outputs":[{"name":"","type":"bytes32","internalType":"bytes32"}],"stateMutability":"view"},{"type":"function","name":"renounceOwnership","inputs":[],"outputs":[],"stateMutability":"nonpayable"},{"type":"function","name":"setContractAddresses","inputs":[{"name":"_boxOfficeContract","type":"address","internalType":"address"}],"outputs":[],"stateMutability":"nonpayable"},{"type":"function","name":"setShowPaymentToken","inputs":[{"name":"showId","type":"bytes32","internalType":"bytes32"},{"name":"token","type":"address","internalType":"address"}],"outputs":[],"stateMutability":"nonpayable"},{"type":"function","name":"showContract","inputs":[],"outputs":[{"name":"","type":"address","internalType":"address"}],"stateMutability":"view"},{"type":"function","name":"showInstance","inputs":[],"outputs":[{"name":"","type":"address","internalType":"contract IShow"}],"stateMutability":"view"},{"type":"function","name":"showPaymentTokens","inputs":[{"name":"","type":"bytes32","internalType":"bytes32"}],"outputs":[{"name":"","type":"address","internalType":"address"}],"stateMutability":"view"},{"type":"function","name":"showTokenVault","inputs":[{"name":"","type":"bytes32","internalType":"bytes32"},{"name":"","type":"address","internalType":"address"}],"outputs":[{"name":"","type":"uint256","internalType":"uint256"}],"stateMutability":"view"},{"type":"function","name":"showVault","inputs":[{"name":"","type":"bytes32","internalType":"bytes32"}],"outputs":[{"name":"","type":"uint256","internalType":"uint256"}],"stateMutability":"view"},{"type":"function","name":"transferOwnership","inputs":[{"name":"newOwner","type":"address","internalType":"address"}],"outputs":[],"stateMutability":"nonpayable"},{"type":"function","name":"upgradeToAndCall","inputs":[{"name":"newImplementation","type":"address","internalType":"address"},{"name":"data","type":"bytes","internalType":"bytes"}],"outputs":[],"stateMutability":"payable"},{"type":"function","name":"withdrawRefund","inputs":[{"name":"showId","type":"bytes32","internalType":"bytes32"},{"name":"paymentToken","type":"address","internalType":"address"}],"outputs":[],"stateMutability":"nonpayable"},{"type":"event","name":"Initialized","inputs":[{"name":"version","type":"uint64","indexed":false,"internalType":"uint64"}],"anonymous":false},{"type":"event","name":"OwnershipTransferred","inputs":[{"name":"previousOwner","type":"address","indexed":true,"internalType":"address"},{"name":"newOwner","type":"address","indexed":true,"internalType":"address"}],"anonymous":false},{"type":"event","name":"Upgraded","inputs":[{"name":"implementation","type":"address","indexed":true,"internalType":"address"}],"anonymous":false},{"type":"event","name":"Withdrawal","inputs":[{"name":"showId","type":"bytes32","indexed":true,"internalType":"bytes32"},{"name":"recipient","type":"address","indexed":true,"internalType":"address"},{"name":"amount","type":"uint256","indexed":false,"internalType":"uint256"},{"name":"paymentToken","type":"address","indexed":false,"internalType":"address"}],"anonymous":false},{"type":"error","name":"AddressEmptyCode","inputs":[{"name":"target","type":"address","internalType":"address"}]},{"type":"error","name":"ERC1967InvalidImplementation","inputs":[{"name":"implementation","type":"address","internalType":"address"}]},{"type":"error","name":"ERC1967NonPayable","inputs":[]},{"type":"error","name":"FailedInnerCall","inputs":[]},{"type":"error","name":"InvalidInitialization","inputs":[]},{"type":"error","name":"NotInitializing","inputs":[]},{"type":"error","name":"OwnableInvalidOwner","inputs":[{"name":"owner","type":"address","internalType":"address"}]},{"type":"error","name":"OwnableUnauthorizedAccount","inputs":[{"name":"account","type":"address","internalType":"address"}]},{"type":"error","name":"ReentrancyGuardReentrantCall","inputs":[]},{"type":"error","name":"UUPSUnauthorizedCallContext","inputs":[]},{"type":"error","name":"UUPSUnsupportedProxiableUUID","inputs":[{"name":"slot","type":"bytes32","internalType":"bytes32"}]}],"bytecode":{"object":"0x60a06040523060805234801561001457600080fd5b506080516122df61003e6000396000818161149d015281816114c6015261160c01526122df6000f3fe6080604052600436106101b75760003560e01c8063867e68af116100ec578063c9e21e5e1161008a578063dc7b546011610064578063dc7b5460146105b1578063e8aa2e5f146105d1578063f2fde38b146105f1578063fab49c371461061157600080fd5b8063c9e21e5e14610523578063ca6644d81461055b578063d23b85a31461057b57600080fd5b806391901dcc116100c657806391901dcc1461046757806392ea638814610487578063ad3cb1cc146104c5578063b25e93ff1461050357600080fd5b8063867e68af146103c55780638da5cb5b146103f25780638e70362b1461042f57600080fd5b80635412233f116101595780636c92b022116101335780636c92b0221461033f578063715018a61461035f578063759767951461037457806385266635146103b257600080fd5b80635412233f146102b15780635696c07c146102d15780635765fec31461030957600080fd5b8063404f49d111610195578063404f49d114610231578063485cc955146102695780634f1ef2861461028957806352d1902d1461029c57600080fd5b80631f88bb87146101bc578063213efcab146101de5780632cc26d9414610211575b600080fd5b3480156101c857600080fd5b506101dc6101d7366004611cce565b610631565b005b3480156101ea57600080fd5b506101fe6101f9366004611ceb565b6106b1565b6040519081526020015b60405180910390f35b34801561021d57600080fd5b506101dc61022c366004611df1565b610701565b34801561023d57600080fd5b50600254610251906001600160a01b031681565b6040516001600160a01b039091168152602001610208565b34801561027557600080fd5b506101dc610284366004611ed9565b6107ac565b6101dc610297366004611f07565b6108f0565b3480156102a857600080fd5b506101fe61090f565b3480156102bd57600080fd5b506101dc6102cc366004611faf565b61092c565b3480156102dd57600080fd5b506101fe6102ec366004611ceb565b600560209081526000928352604080842090915290825290205481565b34801561031557600080fd5b50610251610324366004611ff9565b6009602052600090815260409020546001600160a01b031681565b34801561034b57600080fd5b50600154610251906001600160a01b031681565b34801561036b57600080fd5b506101dc610c69565b34801561038057600080fd5b506101fe61038f366004612012565b600860209081526000938452604080852082529284528284209052825290205481565b6101dc6103c0366004611ff9565b610c7d565b3480156103d157600080fd5b506101fe6103e0366004611ff9565b60036020526000908152604090205481565b3480156103fe57600080fd5b507f9016d09d72d40fdae2fd8ceac6b6234c7706214fd39c1cd1e609a0528c199300546001600160a01b0316610251565b34801561043b57600080fd5b506101fe61044a366004611ceb565b600760209081526000928352604080842090915290825290205481565b34801561047357600080fd5b506101dc610482366004611ceb565b610dc9565b34801561049357600080fd5b506101fe6104a2366004612012565b600660209081526000938452604080852082529284528284209052825290205481565b3480156104d157600080fd5b506104f6604051806040016040528060058152602001640352e302e360dc1b81525081565b6040516102089190612078565b34801561050f57600080fd5b50600054610251906001600160a01b031681565b34801561052f57600080fd5b506101fe61053e366004611ceb565b600460209081526000928352604080842090915290825290205481565b34801561056757600080fd5b506101dc610576366004611faf565b611061565b34801561058757600080fd5b50610251610596366004611ff9565b6000908152600960205260409020546001600160a01b031690565b3480156105bd57600080fd5b506101dc6105cc366004611ceb565b6112a1565b3480156105dd57600080fd5b506101dc6105ec366004611ceb565b6112ec565b3480156105fd57600080fd5b506101dc61060c366004611cce565b611344565b34801561061d57600080fd5b506101dc61062c366004611ceb565b611382565b6001546001600160a01b03161561068f5760405162461bcd60e51b815260206004820152601f60248201527f426f78204f666669636520436f6e747261637420616c7265616479207365740060448201526064015b60405180910390fd5b600180546001600160a01b0319166001600160a01b0392909216919091179055565b60006001600160a01b0382166106d657506000828152600360205260409020546106fb565b5060008281526004602090815260408083206001600160a01b03851684529091529020545b92915050565b6000546001600160a01b0316331461072b5760405162461bcd60e51b8152600401610686906120ab565b60005b84518110156107a4576000606485838151811061074d5761074d6120f8565b6020026020010151856107609190612124565b61076a919061213b565b905061079187878481518110610782576107826120f8565b602002602001015183866113f3565b508061079c8161215d565b91505061072e565b505050505050565b7ff0c57e16840df040f15088dc2f81fe391c3923bec73e23a9662efc9c229c6a008054600160401b810460ff16159067ffffffffffffffff166000811580156107f25750825b905060008267ffffffffffffffff16600114801561080f5750303b155b90508115801561081d575080155b1561083b5760405163f92ee8a960e01b815260040160405180910390fd5b845467ffffffffffffffff19166001178555831561086557845460ff60401b1916600160401b1785555b61086e86611471565b610876611482565b600080546001600160a01b0389166001600160a01b0319918216811790925560028054909116909117905583156108e757845460ff60401b19168555604051600181527fc7f505b2f371ae2175ee4913f4499e1f2633a7b5936321eed1cdaeb6115181d29060200160405180910390a15b50505050505050565b6108f8611492565b61090182611537565b61090b828261153f565b5050565b6000610919611601565b5060008051602061228a83398151915290565b600254604051633f71c19b60e21b81526004810186905285916001600160a01b03169063fdc7066c90602401602060405180830381865afa158015610975573d6000803e3d6000fd5b505050506040513d601f19601f820116820180604052508101906109999190612176565b6001600160a01b0316336001600160a01b03161480610a355750600254604051630f8bfa8d60e21b8152600481018390526001600160a01b0390911690633e2fea3490602401602060405180830381865afa1580156109fc573d6000803e3d6000fd5b505050506040513d601f19601f82011682018060405250810190610a209190612176565b6001600160a01b0316336001600160a01b0316145b610a515760405162461bcd60e51b815260040161068690612193565b6001600160a01b038316610aa75760405162461bcd60e51b815260206004820152601d60248201527f496e76616c6964207061796d656e7420746f6b656e20616464726573730000006044820152606401610686565b6000858152600960205260409020546001600160a01b03848116911614610af55760405162461bcd60e51b8152602060048201526002602482015261085d60f21b6044820152606401610686565b604051636eb1769f60e11b81526001600160a01b0383811660048301523060248301528491869183169063dd62ed3e90604401602060405180830381865afa158015610b45573d6000803e3d6000fd5b505050506040513d601f19601f82011682018060405250810190610b6991906121f0565b1015610bb05760405162461bcd60e51b8152602060048201526016602482015275496e73756666696369656e7420616c6c6f77616e636560501b6044820152606401610686565b6040516323b872dd60e01b81526001600160a01b038481166004830152306024830152604482018790528216906323b872dd906064016020604051808303816000875af1158015610c05573d6000803e3d6000fd5b505050506040513d601f19601f82011682018060405250810190610c299190612209565b5060008681526004602090815260408083206001600160a01b038816845290915281208054879290610c5c90849061222b565b9091555050505050505050565b610c7161164a565b610c7b60006116a5565b565b600254604051633f71c19b60e21b81526004810183905282916001600160a01b03169063fdc7066c90602401602060405180830381865afa158015610cc6573d6000803e3d6000fd5b505050506040513d601f19601f82011682018060405250810190610cea9190612176565b6001600160a01b0316336001600160a01b03161480610d865750600254604051630f8bfa8d60e21b8152600481018390526001600160a01b0390911690633e2fea3490602401602060405180830381865afa158015610d4d573d6000803e3d6000fd5b505050506040513d601f19601f82011682018060405250810190610d719190612176565b6001600160a01b0316336001600160a01b0316145b610da25760405162461bcd60e51b815260040161068690612193565b60008281526003602052604081208054349290610dc090849061222b565b90915550505050565b6000546001600160a01b03163314610df35760405162461bcd60e51b8152600401610686906120ab565b610dfb611716565b60006001600160a01b03821615610e3c5760008381526006602090815260408083206001600160a01b03861684528252808320338452909152902054610e57565b60008381526005602090815260408083203384529091529020545b905060008111610e9f5760405162461bcd60e51b81526020600482015260136024820152724e6f20726566756e6420617661696c61626c6560681b6044820152606401610686565b6001600160a01b038216610f585760008381526005602090815260408083203380855292528083208390555183908381818185875af1925050503d8060008114610f05576040519150601f19603f3d011682016040523d82523d6000602084013e610f0a565b606091505b5050905080610f525760405162461bcd60e51b81526020600482015260146024820152732330b4b632b2103a379039b2b7321022ba3432b960611b6044820152606401610686565b50611037565b60008381526006602090815260408083206001600160a01b038616808552908352818420338086529352818420939093555163a9059cbb60e01b815260048101919091526024810183905283919063a9059cbb906044016020604051808303816000875af1158015610fce573d6000803e3d6000fd5b505050506040513d601f19601f82011682018060405250810190610ff29190612209565b6110355760405162461bcd60e51b815260206004820152601460248201527304661696c656420746f2073656e642045524332360641b6044820152606401610686565b505b5061090b60017f9b779b17422d0df92223018b32b4d1fa46e071723d6817e2486d003becc55f0055565b6000546001600160a01b031633148061108457506001546001600160a01b031633145b6110ed5760405162461bcd60e51b815260206004820152603460248201527f556e617574686f72697a65643a2063616c6c6572206973206e6f74207468652060448201527314da1bddc81bdc88109bde0818dbdb9d1c9858dd60621b6064820152608401610686565b6001600160a01b0382166111ae5760008481526003602052604090205483111561114e5760405162461bcd60e51b8152602060048201526012602482015271496e73756666696369656e742066756e647360701b6044820152606401610686565b6000848152600360205260408120805485929061116c90849061223e565b909155505060008481526005602090815260408083206001600160a01b0385168452909152812080548592906111a390849061222b565b9091555061129b9050565b60008481526004602090815260408083206001600160a01b03861684529091529020548311156112205760405162461bcd60e51b815260206004820152601860248201527f496e73756666696369656e7420746f6b656e2066756e647300000000000000006044820152606401610686565b60008481526004602090815260408083206001600160a01b03861684529091528120805485929061125290849061223e565b909155505060008481526006602090815260408083206001600160a01b03808716855290835281842090851684529091528120805485929061129590849061222b565b90915550505b50505050565b6000546001600160a01b031633146112cb5760405162461bcd60e51b8152600401610686906120ab565b6001600160a01b0381166112e25761090b82611786565b61090b8282611893565b6000546001600160a01b031633146113165760405162461bcd60e51b8152600401610686906120ab565b60009182526009602052604090912080546001600160a01b0319166001600160a01b03909216919091179055565b61134c61164a565b6001600160a01b03811661137657604051631e4fbdf760e01b815260006004820152602401610686565b61137f816116a5565b50565b6000546001600160a01b031633146113ac5760405162461bcd60e51b8152600401610686906120ab565b6001600160a01b0381166113cc5750600090815260036020526040812055565b60008281526004602090815260408083206001600160a01b03851684529091528120555050565b6001600160a01b0381166114335760008481526007602090815260408083206001600160a01b0387168452909152812080548492906111a390849061222b565b60008481526008602090815260408083206001600160a01b03808616855290835281842090871684529091528120805484929061129590849061222b565b611479611a78565b61137f81611ac1565b61148a611a78565b610c7b611ac9565b306001600160a01b037f000000000000000000000000000000000000000000000000000000000000000016148061151957507f00000000000000000000000000000000000000000000000000000000000000006001600160a01b031661150d60008051602061228a833981519152546001600160a01b031690565b6001600160a01b031614155b15610c7b5760405163703e46dd60e11b815260040160405180910390fd5b61137f61164a565b816001600160a01b03166352d1902d6040518163ffffffff1660e01b8152600401602060405180830381865afa925050508015611599575060408051601f3d908101601f19168201909252611596918101906121f0565b60015b6115c157604051634c9c8ce360e01b81526001600160a01b0383166004820152602401610686565b60008051602061228a83398151915281146115f257604051632a87526960e21b815260048101829052602401610686565b6115fc8383611ad1565b505050565b306001600160a01b037f00000000000000000000000000000000000000000000000000000000000000001614610c7b5760405163703e46dd60e11b815260040160405180910390fd5b3361167c7f9016d09d72d40fdae2fd8ceac6b6234c7706214fd39c1cd1e609a0528c199300546001600160a01b031690565b6001600160a01b031614610c7b5760405163118cdaa760e01b8152336004820152602401610686565b7f9016d09d72d40fdae2fd8ceac6b6234c7706214fd39c1cd1e609a0528c19930080546001600160a01b031981166001600160a01b03848116918217845560405192169182907f8be0079c531659141344cd1fd0a4f28419497f9722a3daafe3b4186f6b6457e090600090a3505050565b7f9b779b17422d0df92223018b32b4d1fa46e071723d6817e2486d003becc55f0080546001190161175a57604051633ee5aeb560e01b815260040160405180910390fd5b60029055565b60017f9b779b17422d0df92223018b32b4d1fa46e071723d6817e2486d003becc55f0055565b6000818152600760209081526040808320338452909152902054806117bd5760405162461bcd60e51b815260040161068690612251565b60008281526007602090815260408083203380855292528083208390555183908381818185875af1925050503d8060008114611815576040519150601f19603f3d011682016040523d82523d6000602084013e61181a565b606091505b50509050806118515760405162461bcd60e51b815260206004820152600360248201526210969f60e91b6044820152606401610686565b6040805183815260006020820152339185917f41211792ac12581294dfaa383a54e630322f08f25e558828f6d5e0979ac3eb23910160405180910390a3505050565b60008281526008602090815260408083206001600160a01b03851684528252808320338452909152902054806118db5760405162461bcd60e51b815260040161068690612251565b60008381526008602090815260408083206001600160a01b0386168085529083528184203385529092528083209290925590516370a0823160e01b8152306004820152839183916370a0823190602401602060405180830381865afa158015611948573d6000803e3d6000fd5b505050506040513d601f19601f8201168201806040525081019061196c91906121f0565b101561198a5760405162461bcd60e51b815260040161068690612251565b60405163a9059cbb60e01b8152336004820152602481018390526001600160a01b0382169063a9059cbb906044016020604051808303816000875af11580156119d7573d6000803e3d6000fd5b505050506040513d601f19601f820116820180604052508101906119fb9190612209565b611a2d5760405162461bcd60e51b815260206004820152600360248201526210969f60e91b6044820152606401610686565b604080518381526001600160a01b0385166020820152339186917f41211792ac12581294dfaa383a54e630322f08f25e558828f6d5e0979ac3eb23910160405180910390a350505050565b7ff0c57e16840df040f15088dc2f81fe391c3923bec73e23a9662efc9c229c6a0054600160401b900460ff16610c7b57604051631afcd79f60e31b815260040160405180910390fd5b61134c611a78565b611760611a78565b611ada82611b27565b6040516001600160a01b038316907fbc7cd75a20ee27fd9adebab32041f755214dbc6bffa90cc0225b39da2e5c2d3b90600090a2805115611b1f576115fc8282611b8c565b61090b611c02565b806001600160a01b03163b600003611b5d57604051634c9c8ce360e01b81526001600160a01b0382166004820152602401610686565b60008051602061228a83398151915280546001600160a01b0319166001600160a01b0392909216919091179055565b6060600080846001600160a01b031684604051611ba9919061226d565b600060405180830381855af49150503d8060008114611be4576040519150601f19603f3d011682016040523d82523d6000602084013e611be9565b606091505b5091509150611bf9858383611c21565b95945050505050565b3415610c7b5760405163b398979f60e01b815260040160405180910390fd5b606082611c3657611c3182611c80565b611c79565b8151158015611c4d57506001600160a01b0384163b155b15611c7657604051639996b31560e01b81526001600160a01b0385166004820152602401610686565b50805b9392505050565b805115611c905780518082602001fd5b604051630a12f52160e11b815260040160405180910390fd5b6001600160a01b038116811461137f57600080fd5b8035611cc981611ca9565b919050565b600060208284031215611ce057600080fd5b8135611c7981611ca9565b60008060408385031215611cfe57600080fd5b823591506020830135611d1081611ca9565b809150509250929050565b634e487b7160e01b600052604160045260246000fd5b604051601f8201601f1916810167ffffffffffffffff81118282101715611d5a57611d5a611d1b565b604052919050565b600067ffffffffffffffff821115611d7c57611d7c611d1b565b5060051b60200190565b600082601f830112611d9757600080fd5b81356020611dac611da783611d62565b611d31565b82815260059290921b84018101918181019086841115611dcb57600080fd5b8286015b84811015611de65780358352918301918301611dcf565b509695505050505050565b600080600080600060a08688031215611e0957600080fd5b8535945060208087013567ffffffffffffffff80821115611e2957600080fd5b818901915089601f830112611e3d57600080fd5b8135611e4b611da782611d62565b81815260059190911b8301840190848101908c831115611e6a57600080fd5b938501935b82851015611e91578435611e8281611ca9565b82529385019390850190611e6f565b985050506040890135925080831115611ea957600080fd5b5050611eb788828901611d86565b93505060608601359150611ecd60808701611cbe565b90509295509295909350565b60008060408385031215611eec57600080fd5b8235611ef781611ca9565b91506020830135611d1081611ca9565b60008060408385031215611f1a57600080fd5b8235611f2581611ca9565b915060208381013567ffffffffffffffff80821115611f4357600080fd5b818601915086601f830112611f5757600080fd5b813581811115611f6957611f69611d1b565b611f7b601f8201601f19168501611d31565b91508082528784828501011115611f9157600080fd5b80848401858401376000848284010152508093505050509250929050565b60008060008060808587031215611fc557600080fd5b84359350602085013592506040850135611fde81611ca9565b91506060850135611fee81611ca9565b939692955090935050565b60006020828403121561200b57600080fd5b5035919050565b60008060006060848603121561202757600080fd5b83359250602084013561203981611ca9565b9150604084013561204981611ca9565b809150509250925092565b60005b8381101561206f578181015183820152602001612057565b50506000910152565b6020815260008251806020840152612097816040850160208701612054565b601f01601f19169190910160400192915050565b6020808252602d908201527f556e617574686f72697a65643a2063616c6c6572206973206e6f74207468652060408201526c14da1bddc818dbdb9d1c9858dd609a1b606082015260800190565b634e487b7160e01b600052603260045260246000fd5b634e487b7160e01b600052601160045260246000fd5b80820281158282048414176106fb576106fb61210e565b60008261215857634e487b7160e01b600052601260045260246000fd5b500490565b60006001820161216f5761216f61210e565b5060010190565b60006020828403121561218857600080fd5b8151611c7981611ca9565b60208082526038908201527f556e617574686f72697a65643a2063616c6c6572206973206e6f74207468652060408201527f5469636b6574206f722056656e756520636f6e74726163740000000000000000606082015260800190565b60006020828403121561220257600080fd5b5051919050565b60006020828403121561221b57600080fd5b81518015158114611c7957600080fd5b808201808211156106fb576106fb61210e565b818103818111156106fb576106fb61210e565b602080825260029082015261084960f21b604082015260600190565b6000825161227f818460208701612054565b919091019291505056fe360894a13ba1a3210667c828492db98dca3e2076cc3735a920a3ca505d382bbca2646970667358221220d7e476cb3a2c597a8429afefc125beed49f463a78e68a964f082d1c58193862964736f6c63430008140033","linkReferences":{}},"methodIdentifiers":{"UPGRADE_INTERFACE_VERSION()":"ad3cb1cc","boxOfficeContract()":"6c92b022","calculateTotalPayoutAmount(bytes32,address)":"213efcab","clearVault(bytes32,address)":"fab49c37","depositToVault(bytes32)":"85266635","depositToVaultERC20(bytes32,uint256,address,address)":"5412233f","distributeShares(bytes32,address[],uint256[],uint256,address)":"2cc26d94","getShowPaymentToken(bytes32)":"d23b85a3","initialize(address,address)":"485cc955","owner()":"8da5cb5b","payout(bytes32,address)":"dc7b5460","pendingPayouts(bytes32,address)":"8e70362b","pendingRefunds(bytes32,address)":"5696c07c","pendingTokenPayouts(bytes32,address,address)":"75976795","pendingTokenRefunds(bytes32,address,address)":"92ea6388","processRefund(bytes32,uint256,address,address)":"ca6644d8","proxiableUUID()":"52d1902d","renounceOwnership()":"715018a6","setContractAddresses(address)":"1f88bb87","setShowPaymentToken(bytes32,address)":"e8aa2e5f","showContract()":"b25e93ff","showInstance()":"404f49d1","showPaymentTokens(bytes32)":"5765fec3","showTokenVault(bytes32,address)":"c9e21e5e","showVault(bytes32)":"867e68af","transferOwnership(address)":"f2fde38b","upgradeToAndCall(address,bytes)":"4f1ef286","withdrawRefund(bytes32,address)":"91901dcc"},"id":70}