{"abi":[{"type":"function","name":"SELLOUT_PROTOCOL_WALLET","inputs":[],"outputs":[{"name":"","type":"address","internalType":"address"}],"stateMutability":"view"},{"type":"function","name":"UPGRADE_INTERFACE_VERSION","inputs":[],"outputs":[{"name":"","type":"string","internalType":"string"}],"stateMutability":"view"},{"type":"function","name":"activeShowCount","inputs":[],"outputs":[{"name":"","type":"uint256","internalType":"uint256"}],"stateMutability":"view"},{"type":"function","name":"addTokenIdToWallet","inputs":[{"name":"showId","type":"bytes32","internalType":"bytes32"},{"name":"wallet","type":"address","internalType":"address"},{"name":"tokenId","type":"uint256","internalType":"uint256"}],"outputs":[],"stateMutability":"nonpayable"},{"type":"function","name":"artistRegistryInstance","inputs":[],"outputs":[{"name":"","type":"address","internalType":"contract IArtistRegistry"}],"stateMutability":"view"},{"type":"function","name":"cancelShow","inputs":[{"name":"showId","type":"bytes32","internalType":"bytes32"}],"outputs":[],"stateMutability":"nonpayable"},{"type":"function","name":"completeShow","inputs":[{"name":"showId","type":"bytes32","internalType":"bytes32"}],"outputs":[],"stateMutability":"nonpayable"},{"type":"function","name":"consumeTicketTier","inputs":[{"name":"showId","type":"bytes32","internalType":"bytes32"},{"name":"tierIndex","type":"uint256","internalType":"uint256"},{"name":"amount","type":"uint256","internalType":"uint256"}],"outputs":[],"stateMutability":"nonpayable"},{"type":"function","name":"depositToVault","inputs":[{"name":"showId","type":"bytes32","internalType":"bytes32"}],"outputs":[],"stateMutability":"payable"},{"type":"function","name":"depositToVaultERC20","inputs":[{"name":"showId","type":"bytes32","internalType":"bytes32"},{"name":"amount","type":"uint256","internalType":"uint256"},{"name":"paymentToken","type":"address","internalType":"address"},{"name":"tokenRecipient","type":"address","internalType":"address"}],"outputs":[],"stateMutability":"nonpayable"},{"type":"function","name":"getNumberOfVoters","inputs":[{"name":"showId","type":"bytes32","internalType":"bytes32"}],"outputs":[{"name":"","type":"uint256","internalType":"uint256"}],"stateMutability":"view"},{"type":"function","name":"getOrganizer","inputs":[{"name":"showId","type":"bytes32","internalType":"bytes32"}],"outputs":[{"name":"","type":"address","internalType":"address"}],"stateMutability":"view"},{"type":"function","name":"getShowById","inputs":[{"name":"showId","type":"bytes32","internalType":"bytes32"}],"outputs":[{"name":"name","type":"string","internalType":"string"},{"name":"description","type":"string","internalType":"string"},{"name":"organizer","type":"address","internalType":"address"},{"name":"artists","type":"address[]","internalType":"address[]"},{"name":"venue","type":"tuple","internalType":"struct VenueTypes.Venue","components":[{"name":"name","type":"string","internalType":"string"},{"name":"coordinates","type":"tuple","internalType":"struct VenueTypes.Coordinates","components":[{"name":"lat","type":"int256","internalType":"int256"},{"name":"lon","type":"int256","internalType":"int256"}]},{"name":"totalCapacity","type":"uint256","internalType":"uint256"},{"name":"wallet","type":"address","internalType":"address"},{"name":"venueId","type":"bytes32","internalType":"bytes32"}]},{"name":"ticketTiers","type":"tuple[]","internalType":"struct ShowTypes.TicketTier[]","components":[{"name":"name","type":"string","internalType":"string"},{"name":"price","type":"uint256","internalType":"uint256"},{"name":"ticketsAvailable","type":"uint256","internalType":"uint256"}]},{"name":"sellOutThreshold","type":"uint256","internalType":"uint256"},{"name":"totalCapacity","type":"uint256","internalType":"uint256"},{"name":"status","type":"uint8","internalType":"enum ShowTypes.Status"},{"name":"isActive","type":"bool","internalType":"bool"},{"name":"currencyAddress","type":"address","internalType":"address"}],"stateMutability":"view"},{"type":"function","name":"getShowStatus","inputs":[{"name":"showId","type":"bytes32","internalType":"bytes32"}],"outputs":[{"name":"","type":"uint8","internalType":"enum ShowTypes.Status"}],"stateMutability":"view"},{"type":"function","name":"getTicketPricePaid","inputs":[{"name":"showId","type":"bytes32","internalType":"bytes32"},{"name":"ticketId","type":"uint256","internalType":"uint256"}],"outputs":[{"name":"","type":"uint256","internalType":"uint256"}],"stateMutability":"view"},{"type":"function","name":"getTicketTierInfo","inputs":[{"name":"showId","type":"bytes32","internalType":"bytes32"},{"name":"tierIndex","type":"uint256","internalType":"uint256"}],"outputs":[{"name":"name","type":"string","internalType":"string"},{"name":"price","type":"uint256","internalType":"uint256"},{"name":"ticketsAvailable","type":"uint256","internalType":"uint256"}],"stateMutability":"view"},{"type":"function","name":"getTotalTicketsSold","inputs":[{"name":"showId","type":"bytes32","internalType":"bytes32"}],"outputs":[{"name":"","type":"uint256","internalType":"uint256"}],"stateMutability":"view"},{"type":"function","name":"getWalletTokenIds","inputs":[{"name":"showId","type":"bytes32","internalType":"bytes32"},{"name":"wallet","type":"address","internalType":"address"}],"outputs":[{"name":"","type":"uint256[]","internalType":"uint256[]"}],"stateMutability":"view"},{"type":"function","name":"hasTicket","inputs":[{"name":"wallet","type":"address","internalType":"address"},{"name":"showId","type":"bytes32","internalType":"bytes32"}],"outputs":[{"name":"ownsTicket","type":"bool","internalType":"bool"}],"stateMutability":"view"},{"type":"function","name":"initialize","inputs":[{"name":"_selloutProtocolWallet","type":"address","internalType":"address"}],"outputs":[],"stateMutability":"nonpayable"},{"type":"function","name":"isArtist","inputs":[{"name":"user","type":"address","internalType":"address"},{"name":"showId","type":"bytes32","internalType":"bytes32"}],"outputs":[{"name":"","type":"bool","internalType":"bool"}],"stateMutability":"view"},{"type":"function","name":"isArtistMapping","inputs":[{"name":"","type":"bytes32","internalType":"bytes32"},{"name":"","type":"address","internalType":"address"}],"outputs":[{"name":"","type":"bool","internalType":"bool"}],"stateMutability":"view"},{"type":"function","name":"isOrganizer","inputs":[{"name":"user","type":"address","internalType":"address"},{"name":"showId","type":"bytes32","internalType":"bytes32"}],"outputs":[{"name":"","type":"bool","internalType":"bool"}],"stateMutability":"view"},{"type":"function","name":"isTicketOwner","inputs":[{"name":"owner","type":"address","internalType":"address"},{"name":"showId","type":"bytes32","internalType":"bytes32"},{"name":"ticketId","type":"uint256","internalType":"uint256"}],"outputs":[{"name":"","type":"bool","internalType":"bool"}],"stateMutability":"view"},{"type":"function","name":"organizerRegistryInstance","inputs":[],"outputs":[{"name":"","type":"address","internalType":"contract IOrganizerRegistry"}],"stateMutability":"view"},{"type":"function","name":"owner","inputs":[],"outputs":[{"name":"","type":"address","internalType":"address"}],"stateMutability":"view"},{"type":"function","name":"payout","inputs":[{"name":"showId","type":"bytes32","internalType":"bytes32"}],"outputs":[],"stateMutability":"nonpayable"},{"type":"function","name":"pendingPayouts","inputs":[{"name":"","type":"bytes32","internalType":"bytes32"},{"name":"","type":"address","internalType":"address"}],"outputs":[{"name":"","type":"uint256","internalType":"uint256"}],"stateMutability":"view"},{"type":"function","name":"pendingRefunds","inputs":[{"name":"","type":"bytes32","internalType":"bytes32"},{"name":"","type":"address","internalType":"address"}],"outputs":[{"name":"","type":"uint256","internalType":"uint256"}],"stateMutability":"view"},{"type":"function","name":"pendingTokenPayouts","inputs":[{"name":"","type":"bytes32","internalType":"bytes32"},{"name":"","type":"address","internalType":"address"},{"name":"","type":"address","internalType":"address"}],"outputs":[{"name":"","type":"uint256","internalType":"uint256"}],"stateMutability":"view"},{"type":"function","name":"pendingTokenRefunds","inputs":[{"name":"","type":"bytes32","internalType":"bytes32"},{"name":"","type":"address","internalType":"address"},{"name":"","type":"address","internalType":"address"}],"outputs":[{"name":"","type":"uint256","internalType":"uint256"}],"stateMutability":"view"},{"type":"function","name":"proposeShow","inputs":[{"name":"proposal","type":"tuple","internalType":"struct ShowTypes.ShowProposal","components":[{"name":"name","type":"string","internalType":"string"},{"name":"description","type":"string","internalType":"string"},{"name":"artists","type":"address[]","internalType":"address[]"},{"name":"coordinates","type":"tuple","internalType":"struct VenueTypes.Coordinates","components":[{"name":"lat","type":"int256","internalType":"int256"},{"name":"lon","type":"int256","internalType":"int256"}]},{"name":"radius","type":"uint256","internalType":"uint256"},{"name":"sellOutThreshold","type":"uint8","internalType":"uint8"},{"name":"totalCapacity","type":"uint256","internalType":"uint256"},{"name":"ticketTiers","type":"tuple[]","internalType":"struct ShowTypes.TicketTier[]","components":[{"name":"name","type":"string","internalType":"string"},{"name":"price","type":"uint256","internalType":"uint256"},{"name":"ticketsAvailable","type":"uint256","internalType":"uint256"}]},{"name":"split","type":"uint256[]","internalType":"uint256[]"},{"name":"currencyAddress","type":"address","internalType":"address"}]}],"outputs":[{"name":"showId","type":"bytes32","internalType":"bytes32"}],"stateMutability":"nonpayable"},{"type":"function","name":"proxiableUUID","inputs":[],"outputs":[{"name":"","type":"bytes32","internalType":"bytes32"}],"stateMutability":"view"},{"type":"function","name":"referralInstance","inputs":[],"outputs":[{"name":"","type":"address","internalType":"contract ReferralModule"}],"stateMutability":"view"},{"type":"function","name":"refundTicket","inputs":[{"name":"showId","type":"bytes32","internalType":"bytes32"},{"name":"ticketId","type":"uint256","internalType":"uint256"}],"outputs":[],"stateMutability":"nonpayable"},{"type":"function","name":"renounceOwnership","inputs":[],"outputs":[],"stateMutability":"nonpayable"},{"type":"function","name":"setProtocolAddresses","inputs":[{"name":"_ticketFactory","type":"address","internalType":"address"},{"name":"_venueContract","type":"address","internalType":"address"},{"name":"_referralContract","type":"address","internalType":"address"},{"name":"_artistRegistryContract","type":"address","internalType":"address"},{"name":"_organizerRegistryContract","type":"address","internalType":"address"},{"name":"_venueRegistryContract","type":"address","internalType":"address"}],"outputs":[],"stateMutability":"nonpayable"},{"type":"function","name":"setTicketOwnership","inputs":[{"name":"showId","type":"bytes32","internalType":"bytes32"},{"name":"owner","type":"address","internalType":"address"},{"name":"ticketId","type":"uint256","internalType":"uint256"},{"name":"isOwned","type":"bool","internalType":"bool"}],"outputs":[],"stateMutability":"nonpayable"},{"type":"function","name":"setTicketPricePaid","inputs":[{"name":"showId","type":"bytes32","internalType":"bytes32"},{"name":"ticketId","type":"uint256","internalType":"uint256"},{"name":"price","type":"uint256","internalType":"uint256"}],"outputs":[],"stateMutability":"nonpayable"},{"type":"function","name":"setTotalTicketsSold","inputs":[{"name":"showId","type":"bytes32","internalType":"bytes32"},{"name":"amount","type":"uint256","internalType":"uint256"}],"outputs":[],"stateMutability":"nonpayable"},{"type":"function","name":"showPaymentToken","inputs":[{"name":"","type":"bytes32","internalType":"bytes32"}],"outputs":[{"name":"","type":"address","internalType":"address"}],"stateMutability":"view"},{"type":"function","name":"showToTicketProxy","inputs":[{"name":"","type":"bytes32","internalType":"bytes32"}],"outputs":[{"name":"","type":"address","internalType":"address"}],"stateMutability":"view"},{"type":"function","name":"showTokenVault","inputs":[{"name":"","type":"bytes32","internalType":"bytes32"},{"name":"","type":"address","internalType":"address"}],"outputs":[{"name":"","type":"uint256","internalType":"uint256"}],"stateMutability":"view"},{"type":"function","name":"showVault","inputs":[{"name":"","type":"bytes32","internalType":"bytes32"}],"outputs":[{"name":"","type":"uint256","internalType":"uint256"}],"stateMutability":"view"},{"type":"function","name":"shows","inputs":[{"name":"","type":"bytes32","internalType":"bytes32"}],"outputs":[{"name":"showId","type":"bytes32","internalType":"bytes32"},{"name":"name","type":"string","internalType":"string"},{"name":"description","type":"string","internalType":"string"},{"name":"organizer","type":"address","internalType":"address"},{"name":"venue","type":"tuple","internalType":"struct VenueTypes.Venue","components":[{"name":"name","type":"string","internalType":"string"},{"name":"coordinates","type":"tuple","internalType":"struct VenueTypes.Coordinates","components":[{"name":"lat","type":"int256","internalType":"int256"},{"name":"lon","type":"int256","internalType":"int256"}]},{"name":"totalCapacity","type":"uint256","internalType":"uint256"},{"name":"wallet","type":"address","internalType":"address"},{"name":"venueId","type":"bytes32","internalType":"bytes32"}]},{"name":"radius","type":"uint256","internalType":"uint256"},{"name":"sellOutThreshold","type":"uint256","internalType":"uint256"},{"name":"totalCapacity","type":"uint256","internalType":"uint256"},{"name":"status","type":"uint8","internalType":"enum ShowTypes.Status"},{"name":"isActive","type":"bool","internalType":"bool"},{"name":"expiry","type":"uint256","internalType":"uint256"},{"name":"showDate","type":"uint256","internalType":"uint256"},{"name":"currencyAddress","type":"address","internalType":"address"}],"stateMutability":"view"},{"type":"function","name":"ticketFactoryInstance","inputs":[],"outputs":[{"name":"","type":"address","internalType":"contract ITicketFactory"}],"stateMutability":"view"},{"type":"function","name":"ticketPricePaid","inputs":[{"name":"","type":"bytes32","internalType":"bytes32"},{"name":"","type":"uint256","internalType":"uint256"}],"outputs":[{"name":"","type":"uint256","internalType":"uint256"}],"stateMutability":"view"},{"type":"function","name":"totalTicketsSold","inputs":[{"name":"","type":"bytes32","internalType":"bytes32"}],"outputs":[{"name":"","type":"uint256","internalType":"uint256"}],"stateMutability":"view"},{"type":"function","name":"transferOwnership","inputs":[{"name":"newOwner","type":"address","internalType":"address"}],"outputs":[],"stateMutability":"nonpayable"},{"type":"function","name":"updateShowDate","inputs":[{"name":"showId","type":"bytes32","internalType":"bytes32"},{"name":"newDate","type":"uint256","internalType":"uint256"}],"outputs":[],"stateMutability":"nonpayable"},{"type":"function","name":"updateShowVenue","inputs":[{"name":"showId","type":"bytes32","internalType":"bytes32"},{"name":"newVenue","type":"tuple","internalType":"struct VenueTypes.Venue","components":[{"name":"name","type":"string","internalType":"string"},{"name":"coordinates","type":"tuple","internalType":"struct VenueTypes.Coordinates","components":[{"name":"lat","type":"int256","internalType":"int256"},{"name":"lon","type":"int256","internalType":"int256"}]},{"name":"totalCapacity","type":"uint256","internalType":"uint256"},{"name":"wallet","type":"address","internalType":"address"},{"name":"venueId","type":"bytes32","internalType":"bytes32"}]}],"outputs":[],"stateMutability":"nonpayable"},{"type":"function","name":"updateStatus","inputs":[{"name":"showId","type":"bytes32","internalType":"bytes32"},{"name":"_status","type":"uint8","internalType":"enum ShowTypes.Status"}],"outputs":[],"stateMutability":"nonpayable"},{"type":"function","name":"updateStatusIfSoldOut","inputs":[{"name":"showId","type":"bytes32","internalType":"bytes32"}],"outputs":[],"stateMutability":"nonpayable"},{"type":"function","name":"upgradeToAndCall","inputs":[{"name":"newImplementation","type":"address","internalType":"address"},{"name":"data","type":"bytes","internalType":"bytes"}],"outputs":[],"stateMutability":"payable"},{"type":"function","name":"venueContract","inputs":[],"outputs":[{"name":"","type":"address","internalType":"address"}],"stateMutability":"view"},{"type":"function","name":"venueRegistryInstance","inputs":[],"outputs":[{"name":"","type":"address","internalType":"contract IVenueRegistry"}],"stateMutability":"view"},{"type":"function","name":"walletToShowToTokenIds","inputs":[{"name":"","type":"bytes32","internalType":"bytes32"},{"name":"","type":"address","internalType":"address"},{"name":"","type":"uint256","internalType":"uint256"}],"outputs":[{"name":"","type":"uint256","internalType":"uint256"}],"stateMutability":"view"},{"type":"function","name":"withdrawRefund","inputs":[{"name":"showId","type":"bytes32","internalType":"bytes32"}],"outputs":[],"stateMutability":"nonpayable"},{"type":"event","name":"ERC20Deposited","inputs":[{"name":"showId","type":"bytes32","indexed":true,"internalType":"bytes32"},{"name":"tokenAddress","type":"address","indexed":true,"internalType":"address"},{"name":"depositor","type":"address","indexed":true,"internalType":"address"},{"name":"amount","type":"uint256","indexed":false,"internalType":"uint256"}],"anonymous":false},{"type":"event","name":"ExpiryUpdated","inputs":[{"name":"showId","type":"bytes32","indexed":true,"internalType":"bytes32"},{"name":"expiry","type":"uint256","indexed":false,"internalType":"uint256"}],"anonymous":false},{"type":"event","name":"Initialized","inputs":[{"name":"version","type":"uint64","indexed":false,"internalType":"uint64"}],"anonymous":false},{"type":"event","name":"OwnershipTransferred","inputs":[{"name":"previousOwner","type":"address","indexed":true,"internalType":"address"},{"name":"newOwner","type":"address","indexed":true,"internalType":"address"}],"anonymous":false},{"type":"event","name":"RefundWithdrawn","inputs":[{"name":"user","type":"address","indexed":true,"internalType":"address"},{"name":"showId","type":"bytes32","indexed":true,"internalType":"bytes32"},{"name":"amount","type":"uint256","indexed":false,"internalType":"uint256"}],"anonymous":false},{"type":"event","name":"ShowExpired","inputs":[{"name":"showId","type":"bytes32","indexed":true,"internalType":"bytes32"}],"anonymous":false},{"type":"event","name":"ShowProposed","inputs":[{"name":"showId","type":"bytes32","indexed":true,"internalType":"bytes32"},{"name":"organizer","type":"address","indexed":true,"internalType":"address"},{"name":"name","type":"string","indexed":false,"internalType":"string"},{"name":"artists","type":"address[]","indexed":false,"internalType":"address[]"},{"name":"description","type":"string","indexed":false,"internalType":"string"},{"name":"sellOutThreshold","type":"uint256","indexed":false,"internalType":"uint256"},{"name":"split","type":"uint256[]","indexed":false,"internalType":"uint256[]"},{"name":"currencyAddress","type":"address","indexed":false,"internalType":"address"}],"anonymous":false},{"type":"event","name":"StatusUpdated","inputs":[{"name":"showId","type":"bytes32","indexed":true,"internalType":"bytes32"},{"name":"status","type":"uint8","indexed":false,"internalType":"enum ShowTypes.Status"}],"anonymous":false},{"type":"event","name":"TicketRefunded","inputs":[{"name":"user","type":"address","indexed":true,"internalType":"address"},{"name":"showId","type":"bytes32","indexed":true,"internalType":"bytes32"},{"name":"refundAmount","type":"uint256","indexed":false,"internalType":"uint256"}],"anonymous":false},{"type":"event","name":"TicketTierConsumed","inputs":[{"name":"showId","type":"bytes32","indexed":true,"internalType":"bytes32"},{"name":"tierIndex","type":"uint256","indexed":true,"internalType":"uint256"},{"name":"amount","type":"uint256","indexed":false,"internalType":"uint256"}],"anonymous":false},{"type":"event","name":"Upgraded","inputs":[{"name":"implementation","type":"address","indexed":true,"internalType":"address"}],"anonymous":false},{"type":"event","name":"VenueUpdated","inputs":[{"name":"showId","type":"bytes32","indexed":true,"internalType":"bytes32"},{"name":"newVenue","type":"tuple","indexed":false,"internalType":"struct VenueTypes.Venue","components":[{"name":"name","type":"string","internalType":"string"},{"name":"coordinates","type":"tuple","internalType":"struct VenueTypes.Coordinates","components":[{"name":"lat","type":"int256","internalType":"int256"},{"name":"lon","type":"int256","internalType":"int256"}]},{"name":"totalCapacity","type":"uint256","internalType":"uint256"},{"name":"wallet","type":"address","internalType":"address"},{"name":"venueId","type":"bytes32","internalType":"bytes32"}]}],"anonymous":false},{"type":"event","name":"Withdrawal","inputs":[{"name":"showId","type":"bytes32","indexed":true,"internalType":"bytes32"},{"name":"recipient","type":"address","indexed":true,"internalType":"address"},{"name":"amount","type":"uint256","indexed":false,"internalType":"uint256"},{"name":"paymentToken","type":"address","indexed":false,"internalType":"address"}],"anonymous":false},{"type":"error","name":"AddressEmptyCode","inputs":[{"name":"target","type":"address","internalType":"address"}]},{"type":"error","name":"ERC1967InvalidImplementation","inputs":[{"name":"implementation","type":"address","internalType":"address"}]},{"type":"error","name":"ERC1967NonPayable","inputs":[]},{"type":"error","name":"FailedInnerCall","inputs":[]},{"type":"error","name":"InvalidInitialization","inputs":[]},{"type":"error","name":"NotInitializing","inputs":[]},{"type":"error","name":"OwnableInvalidOwner","inputs":[{"name":"owner","type":"address","internalType":"address"}]},{"type":"error","name":"OwnableUnauthorizedAccount","inputs":[{"name":"account","type":"address","internalType":"address"}]},{"type":"error","name":"ReentrancyGuardReentrantCall","inputs":[]},{"type":"error","name":"UUPSUnauthorizedCallContext","inputs":[]},{"type":"error","name":"UUPSUnsupportedProxiableUUID","inputs":[{"name":"slot","type":"bytes32","internalType":"bytes32"}]}],"bytecode":{"object":"0x60a06040526005805460ff60a01b191690553060805234801561002157600080fd5b50608051615f736200004c6000396000818161433a0152818161436301526144a40152615f736000f3fe6080604052600436106103815760003560e01c806385266635116101d1578063c29e2de411610102578063e30228be116100a0578063ef5023a51161006f578063ef5023a514610c23578063f2fde38b14610c43578063f812187314610c63578063fca4655914610c8357600080fd5b8063e30228be14610ba3578063e4ca73aa14610bc3578063e618054614610be3578063e9acfa7c14610c0357600080fd5b8063c8f67e96116100dc578063c8f67e9614610b0b578063c9e21e5e14610b2b578063cfefb3d514610b63578063de44006f14610b8357600080fd5b8063c29e2de414610aab578063c4d66de814610acb578063c6ab848a14610aeb57600080fd5b806392ea63881161016f578063a03f4efe11610149578063a03f4efe146109f2578063ad3cb1cc14610a12578063bafd4eb014610a50578063bd47dc5c14610a8b57600080fd5b806392ea63881461094357806393d4e10014610981578063977cb89e146109b957600080fd5b80638da5cb5b116101ab5780638da5cb5b146108815780638dea15a1146108be5780638e70362b146108de578063925e8f891461091657600080fd5b8063852666351461082157806385ffa16c14610834578063867e68af1461085457600080fd5b806352d1902d116102b657806364ad6cd61161025457806375976795116102235780637597679514610774578063787d76b8146107b25780637d8d6a22146107d25780637e3e3935146107f257600080fd5b806364ad6cd6146106e9578063703ee4e514610709578063715018a614610729578063729580281461073e57600080fd5b80635b9a1e09116102905780635b9a1e091461062b5780635c37da6914610658578063610418701461069c578063644b5e59146106c957600080fd5b806352d1902d146105be5780635412233f146105d35780635696c07c146105f357600080fd5b80633b9ce4661161032357806346c2c8a7116102fd57806346c2c8a71461053e5780634ed372da1461056b5780634f1ef2861461058b578063518193351461059e57600080fd5b80633b9ce466146104c85780633c60d2d6146104e85780633deba9641461050857600080fd5b8063164889061161035f57806316488906146103fd5780631cf2103e1461042157806327b1bf52146104595780632f18ddfe1461049057600080fd5b806302c9a8b514610386578063054372ed146103bb578063129e086b146103dd575b600080fd5b34801561039257600080fd5b506103a66103a1366004614c7c565b610cbc565b60405190151581526020015b60405180910390f35b3480156103c757600080fd5b506103db6103d6366004614ca8565b610ce9565b005b3480156103e957600080fd5b506103db6103f8366004614cdc565b610db9565b34801561040957600080fd5b5061041360085481565b6040519081526020016103b2565b34801561042d57600080fd5b50600454610441906001600160a01b031681565b6040516001600160a01b0390911681526020016103b2565b34801561046557600080fd5b50610479610474366004614cdc565b610f8c565b6040516103b29b9a99989796959493929190614e1f565b34801561049c57600080fd5b506104136104ab366004614f3b565b601360209081526000928352604080842090915290825290205481565b3480156104d457600080fd5b506104136104e3366004615280565b611452565b3480156104f457600080fd5b506103db610503366004614f3b565b611477565b34801561051457600080fd5b50610441610523366004614cdc565b600a602052600090815260409020546001600160a01b031681565b34801561054a57600080fd5b5061055e610559366004614cdc565b611767565b6040516103b291906153c9565b34801561057757600080fd5b506103a6610586366004614c7c565b611c44565b6103db6105993660046153d7565b611c67565b3480156105aa57600080fd5b50600054610441906001600160a01b031681565b3480156105ca57600080fd5b50610413611c86565b3480156105df57600080fd5b506103db6105ee36600461543a565b611ca3565b3480156105ff57600080fd5b5061041361060e366004615484565b600e60209081526000928352604080842090915290825290205481565b34801561063757600080fd5b5061064b610646366004615484565b611f52565b6040516103b291906154d9565b34801561066457600080fd5b506103a6610673366004614c7c565b60009081526014602090815260408083206001600160a01b039490941683529290522054151590565b3480156106a857600080fd5b506104136106b7366004614cdc565b60009081526012602052604090205490565b3480156106d557600080fd5b506103db6106e43660046154ec565b611fc6565b3480156106f557600080fd5b506103db610704366004614f3b565b612130565b34801561071557600080fd5b50600554610441906001600160a01b031681565b34801561073557600080fd5b506103db6121dc565b34801561074a57600080fd5b50610441610759366004614cdc565b6015602052600090815260409020546001600160a01b031681565b34801561078057600080fd5b5061041361078f366004615518565b601160209081526000938452604080852082529284528284209052825290205481565b3480156107be57600080fd5b506103db6107cd366004614f3b565b6121f0565b3480156107de57600080fd5b506104136107ed36600461555a565b612259565b3480156107fe57600080fd5b5061081261080d366004614f3b565b612297565b6040516103b293929190615592565b6103db61082f366004614cdc565b6123c7565b34801561084057600080fd5b5061041361084f366004614cdc565b612445565b34801561086057600080fd5b5061041361086f366004614cdc565b600c6020526000908152604090205481565b34801561088d57600080fd5b507f9016d09d72d40fdae2fd8ceac6b6234c7706214fd39c1cd1e609a0528c199300546001600160a01b0316610441565b3480156108ca57600080fd5b50600354610441906001600160a01b031681565b3480156108ea57600080fd5b506104136108f9366004615484565b601060209081526000928352604080842090915290825290205481565b34801561092257600080fd5b50610413610931366004614cdc565b60126020526000908152604090205481565b34801561094f57600080fd5b5061041361095e366004615518565b600f60209081526000938452604080852082529284528284209052825290205481565b34801561098d57600080fd5b5061041361099c366004614f3b565b600091825260136020908152604080842092845291905290205490565b3480156109c557600080fd5b506104416109d4366004614cdc565b6000908152600960205260409020600301546001600160a01b031690565b3480156109fe57600080fd5b506103a6610a0d3660046155b7565b6124cc565b348015610a1e57600080fd5b50610a43604051806040016040528060058152602001640352e302e360dc1b81525081565b6040516103b291906155ec565b348015610a5c57600080fd5b506103a6610a6b366004615484565b600b60209081526000928352604080842090915290825290205460ff1681565b348015610a9757600080fd5b506103db610aa63660046154ec565b612502565b348015610ab757600080fd5b506103db610ac63660046155ff565b612557565b348015610ad757600080fd5b506103db610ae6366004615641565b612671565b348015610af757600080fd5b50600254610441906001600160a01b031681565b348015610b1757600080fd5b506103db610b2636600461566c565b6127a1565b348015610b3757600080fd5b50610413610b46366004615484565b600d60209081526000928352604080842090915290825290205481565b348015610b6f57600080fd5b506103db610b7e366004614cdc565b612819565b348015610b8f57600080fd5b506103db610b9e36600461555a565b612c4d565b348015610baf57600080fd5b50600654610441906001600160a01b031681565b348015610bcf57600080fd5b50600154610441906001600160a01b031681565b348015610bef57600080fd5b506103db610bfe366004614cdc565b612cbd565b348015610c0f57600080fd5b506103db610c1e366004614cdc565b612d63565b348015610c2f57600080fd5b506103db610c3e366004614cdc565b6131b5565b348015610c4f57600080fd5b506103db610c5e366004615641565b6132a1565b348015610c6f57600080fd5b506103db610c7e3660046156ab565b6132dc565b348015610c8f57600080fd5b50610ca3610c9e366004614cdc565b6133a6565b6040516103b29d9c9b9a9998979695949392919061572d565b6000818152600b602090815260408083206001600160a01b038616845290915290205460ff165b92915050565b60005482906001600160a01b0316331480610d1a57506000818152600a60205260409020546001600160a01b031633145b80610d2457503330145b610d495760405162461bcd60e51b8152600401610d40906157df565b60405180910390fd5b6000838152600960205260409020600f01805483919060ff19166001836007811115610d7757610d77614de7565b0217905550827f8ed894b6f384ca9c829b9aa5b056bc9106a90845a15616607e975d4ad488ee6783604051610dac91906153c9565b60405180910390a2505050565b80610dc43382611c44565b80610dd45750610dd43382610cbc565b610df05760405162461bcd60e51b8152600401610d409061584d565b60008281526009602052604090206003600f82015460ff166007811115610e1957610e19614de7565b14610e365760405162461bcd60e51b8152600401610d4090615875565b6012810154610e47906107086158b3565b421015610e885760405162461bcd60e51b815260206004820152600f60248201526e18dbdbdb191bdddb881c195c9a5bd9608a1b6044820152606401610d40565b6000838152601560205260408120546001600160a01b031690610eaa8561361b565b905060008111610ee75760405162461bcd60e51b81526020600482015260086024820152676e6f2066756e647360c01b6044820152606401610d40565b60006040518060800160405280878152602001838152602001846001600160a01b0316815260200185601001805480602002602001604051908101604052809291908181526020018280548015610f5d57602002820191906000526020600020905b815481526020019060010190808311610f49575b50505050508152509050610f718482613676565b610f7b8684613802565b610f8486613849565b505050505050565b60608060006060610f9b614b5d565b6000868152600960205260408120600c810154606092918291829182918291906001600160401b03811115610fd257610fd2614f5d565b60405190808252806020026020018201604052801561102757816020015b61101460405180606001604052806060815260200160008152602001600081525090565b815260200190600190039081610ff05790505b50965060005b600c82015481101561113d5781600c01818154811061104e5761104e6158c6565b9060005260206000209060030201604051806060016040529081600082018054611077906158dc565b80601f01602080910402602001604051908101604052809291908181526020018280546110a3906158dc565b80156110f05780601f106110c5576101008083540402835291602001916110f0565b820191906000526020600020905b8154815290600101906020018083116110d357829003601f168201915b505050505081526020016001820154815260200160028201548152505088828151811061111f5761111f6158c6565b6020026020010181905250808061113590615910565b91505061102d565b5080600101816002018260030160009054906101000a90046001600160a01b031683600401846005018b86600d015487600e015488600f0160009054906101000a900460ff1689600f0160019054906101000a900460ff168a60130160009054906101000a90046001600160a01b03168a80546111b9906158dc565b80601f01602080910402602001604051908101604052809291908181526020018280546111e5906158dc565b80156112325780601f1061120757610100808354040283529160200191611232565b820191906000526020600020905b81548152906001019060200180831161121557829003601f168201915b50505050509a50898054611245906158dc565b80601f0160208091040260200160405190810160405280929190818152602001828054611271906158dc565b80156112be5780601f10611293576101008083540402835291602001916112be565b820191906000526020600020905b8154815290600101906020018083116112a157829003601f168201915b505050505099508780548060200260200160405190810160405280929190818152602001828054801561131a57602002820191906000526020600020905b81546001600160a01b031681526001909101906020018083116112fc575b50505050509750866040518060a001604052908160008201805461133d906158dc565b80601f0160208091040260200160405190810160405280929190818152602001828054611369906158dc565b80156113b65780601f1061138b576101008083540402835291602001916113b6565b820191906000526020600020905b81548152906001019060200180831161139957829003601f168201915b5050505050815260200160018201604051806040016040529081600082015481526020016001820154815250508152602001600382015481526020016004820160009054906101000a90046001600160a01b03166001600160a01b03166001600160a01b0316815260200160058201548152505096509b509b509b509b509b509b509b509b509b509b509b505091939597999b90929496989a50565b600061145d82613948565b61146682613c0e565b90506114728133613f97565b919050565b6000828152600a60205260409020546001600160a01b0316806114ce5760405162461bcd60e51b815260206004820152600f60248201526e6e6f207469636b65742070726f787960881b6044820152606401610d40565b6000838152600960205260408120600f015460ff1660078111156114f4576114f4614de7565b1480611525575060056000848152600960205260409020600f015460ff16600781111561152357611523614de7565b145b80611555575060076000848152600960205260409020600f015460ff16600781111561155357611553614de7565b145b6115b45760405162461bcd60e51b815260206004820152602a60248201527f6c6f636b65642066756e64732064756520746f2074686520737461747573206f60448201526966207468652073686f7760b01b6064820152608401610d40565b806115c03385856124cc565b6115ff5760405162461bcd60e51b815260206004820152601060248201526f3737ba103a34b1b5b2ba1037bbb732b960811b6044820152606401610d40565b604051636d1d3b0b60e11b8152600481018590526024810184905260009081906001600160a01b0384169063da3a7616906044016040805180830381865afa15801561164f573d6000803e3d6000fd5b505050506040513d601f19601f820116820180604052508101906116739190615929565b91509150600082116116bd5760405162461bcd60e51b81526020600482015260136024820152726e6f20726566756e646564207469636b65747360681b6044820152606401610d40565b6000868152601560209081526040808320546009909252909120600c0180546001600160a01b0390921691839081106116f8576116f86158c6565b60009182526020822060026003909202010180549161171683615910565b919050555061172787878584614094565b604051838152879033907f6327daeea6ce26abf9f96cd84eee9cb40d1d5b88f7f5990914540e392446bf049060200160405180910390a350505050505050565b6000818152600960209081526040808320815161020081019092528054825260018101805485948401919061179b906158dc565b80601f01602080910402602001604051908101604052809291908181526020018280546117c7906158dc565b80156118145780601f106117e957610100808354040283529160200191611814565b820191906000526020600020905b8154815290600101906020018083116117f757829003601f168201915b5050505050815260200160028201805461182d906158dc565b80601f0160208091040260200160405190810160405280929190818152602001828054611859906158dc565b80156118a65780601f1061187b576101008083540402835291602001916118a6565b820191906000526020600020905b81548152906001019060200180831161188957829003601f168201915b505050918352505060038201546001600160a01b0316602080830191909152600483018054604080518285028101850182528281529401939283018282801561191857602002820191906000526020600020905b81546001600160a01b031681526001909101906020018083116118fa575b50505050508152602001600582016040518060a0016040529081600082018054611941906158dc565b80601f016020809104026020016040519081016040528092919081815260200182805461196d906158dc565b80156119ba5780601f1061198f576101008083540402835291602001916119ba565b820191906000526020600020905b81548152906001019060200180831161199d57829003601f168201915b50505091835250506040805180820182526001840154815260028401546020828101919091528084019190915260038401548284015260048401546001600160a01b03166060840152600590930154608090920191909152918352600b84015483820152600c840180548351818402810184018552818152949093019392909160009084015b82821015611b185783829060005260206000209060030201604051806060016040529081600082018054611a73906158dc565b80601f0160208091040260200160405190810160405280929190818152602001828054611a9f906158dc565b8015611aec5780601f10611ac157610100808354040283529160200191611aec565b820191906000526020600020905b815481529060010190602001808311611acf57829003601f168201915b505050505081526020016001820154815260200160028201548152505081526020019060010190611a40565b50505090825250600d8201546020820152600e8201546040820152600f82015460609091019060ff166007811115611b5257611b52614de7565b6007811115611b6357611b63614de7565b8152600f820154610100900460ff1615156020808301919091526010830180546040805182850281018501825282815294019392830182828015611bc657602002820191906000526020600020905b815481526020019060010190808311611bb2575b505050918352505060118201546020820152601282015460408201526013909101546001600160a01b03166060909101526101a081015190915042118015611c25575060078161014001516007811115611c2257611c22614de7565b14155b15611c335750600792915050565b610140015192915050565b50919050565b6000908152600960205260409020600301546001600160a01b0391821691161490565b611c6f61432f565b611c78826143d4565b611c8282826143dc565b5050565b6000611c90614499565b50600080516020615f1e83398151915290565b60005484906001600160a01b0316331480611cd457506000818152600a60205260409020546001600160a01b031633145b80611cde57503330145b611cfa5760405162461bcd60e51b8152600401610d40906157df565b6001600160a01b038316611d415760405162461bcd60e51b815260206004820152600e60248201526d072657175697265732045524332360941b6044820152606401610d40565b6000858152601560205260409020546001600160a01b03848116911614611d9c5760405162461bcd60e51b815260206004820152600f60248201526e0696e636f727265637420455243323608c1b6044820152606401610d40565b604051636eb1769f60e11b81526001600160a01b0383811660048301523060248301528491869183169063dd62ed3e90604401602060405180830381865afa158015611dec573d6000803e3d6000fd5b505050506040513d601f19601f82011682018060405250810190611e10919061594d565b1015611e575760405162461bcd60e51b8152602060048201526016602482015275696e73756666696369656e7420616c6c6f77616e636560501b6044820152606401610d40565b6040516323b872dd60e01b81526001600160a01b038481166004830152306024830152604482018790528216906323b872dd906064016020604051808303816000875af1158015611eac573d6000803e3d6000fd5b505050506040513d601f19601f82011682018060405250810190611ed09190615966565b506000868152600d602090815260408083206001600160a01b038816845290915281208054879290611f039084906158b3565b909155505060405185815233906001600160a01b0386169088907f5bc5584363e68b8a5b066d0c106bba5606176ce569e835fb8b4dc1ee0bb7f4699060200160405180910390a4505050505050565b60008281526014602090815260408083206001600160a01b0385168452825291829020805483518184028101840190945280845260609392830182828015611fb957602002820191906000526020600020905b815481526020019060010190808311611fa5575b5050505050905092915050565b60005483906001600160a01b0316331480611ff757506000818152600a60205260409020546001600160a01b031633145b8061200157503330145b61201d5760405162461bcd60e51b8152600401610d40906157df565b6000848152600960205260409020600c810154841061206d5760405162461bcd60e51b815260206004820152600c60248201526b34b73b30b634b2103a34b2b960a11b6044820152606401610d40565b600081600c018581548110612084576120846158c6565b9060005260206000209060030201905083816002015410156120d85760405162461bcd60e51b815260206004820152600d60248201526c1d1a595c881cdbdb19081bdd5d609a1b6044820152606401610d40565b838160020160008282546120ec9190615983565b9091555050604051848152859087907fb23124a400670af3347ce475459c187bbba871f316e2d1d91ae115a762def0209060200160405180910390a3505050505050565b6000546001600160a01b0316331461215a5760405162461bcd60e51b8152600401610d4090615996565b60026000838152600960205260409020600f015460ff16600781111561218257612182614de7565b146121c75760405162461bcd60e51b815260206004820152601560248201527414da1bddc81b5d5cdd081899481858d8d95c1d1959605a1b6044820152606401610d40565b60009182526009602052604090912060120155565b6121e46144e2565b6121ee600061453d565b565b6000828152600a602052604090205482906001600160a01b031633146122285760405162461bcd60e51b8152600401610d40906159e5565b6000838152601260205260409020546122429083906158b3565b600093845260126020526040909320929092555050565b6014602052826000526040600020602052816000526040600020818154811061228157600080fd5b9060005260206000200160009250925050505481565b6000828152600960205260408120600c015460609190819084106122ec5760405162461bcd60e51b815260206004820152600c60248201526b24b73b30b634b2103a34b2b960a11b6044820152606401610d40565b6000858152600960205260408120600c0180548690811061230f5761230f6158c6565b906000526020600020906003020190508060000181600101548260020154828054612339906158dc565b80601f0160208091040260200160405190810160405280929190818152602001828054612365906158dc565b80156123b25780601f10612387576101008083540402835291602001916123b2565b820191906000526020600020905b81548152906001019060200180831161239557829003601f168201915b50505050509250935093509350509250925092565b60005481906001600160a01b03163314806123f857506000818152600a60205260409020546001600160a01b031633145b8061240257503330145b61241e5760405162461bcd60e51b8152600401610d40906157df565b6000828152600c60205260408120805434929061243c9084906158b3565b90915550505050565b60008181526009602052604081206001825b60048301548110156124c45760038301546004840180546001600160a01b03909216918390811061248a5761248a6158c6565b6000918252602090912001546001600160a01b0316146124b257816124ae81615910565b9250505b806124bc81615910565b915050612457565b509392505050565b60008281526016602090815260408083206001600160a01b0387168452825280832084845290915290205460ff165b9392505050565b6000838152600a602052604090205483906001600160a01b0316331461253a5760405162461bcd60e51b8152600401610d40906159e5565b506000928352601360209081526040808520938552929052912055565b6000546001600160a01b031633146125815760405162461bcd60e51b8152600401610d4090615996565b6000828152600960205260408120600f015460ff1660078111156125a7576125a7614de7565b14806125d8575060026000838152600960205260409020600f015460ff1660078111156125d6576125d6614de7565b145b6126155760405162461bcd60e51b815260206004820152600e60248201526d496e76616c69642073746174757360901b6044820152606401610d40565b600082815260096020526040902081906005016126328282615b43565b905050817ff199f58c6628f3436415ab64e2d1e914a5e79b5ce23d59be2970b2fe46034a61826040516126659190615c19565b60405180910390a25050565b7ff0c57e16840df040f15088dc2f81fe391c3923bec73e23a9662efc9c229c6a008054600160401b810460ff1615906001600160401b03166000811580156126b65750825b90506000826001600160401b031660011480156126d25750303b155b9050811580156126e0575080155b156126fe5760405163f92ee8a960e01b815260040160405180910390fd5b845467ffffffffffffffff19166001178555831561272857845460ff60401b1916600160401b1785555b6127306145ae565b612739866145be565b600680546001600160a01b0319166001600160a01b0388161790558315610f8457845460ff60401b19168555604051600181527fc7f505b2f371ae2175ee4913f4499e1f2633a7b5936321eed1cdaeb6115181d29060200160405180910390a1505050505050565b6000848152600a602052604090205484906001600160a01b031633146127d95760405162461bcd60e51b8152600401610d40906159e5565b5060009384526016602090815260408086206001600160a01b03959095168652938152838520928552919091529120805460ff1916911515919091179055565b806128243382611c44565b8061283457506128343382610cbc565b6128505760405162461bcd60e51b8152600401610d409061584d565b60008281526009602052604090206004600f82015460ff16600781111561287957612879614de7565b146128965760405162461bcd60e51b8152600401610d4090615875565b60128101546128a79061012c6158b3565b4210156128e15760405162461bcd60e51b815260206004820152600860248201526731b7b7b63237bbb760c11b6044820152606401610d40565b6000838152601560205260408120546001600160a01b0316908161297157506000848152601060209081526040808320338452909152902054806129525760405162461bcd60e51b81526020600482015260086024820152674e6f2066756e647360c01b6044820152606401610d40565b6000858152601060209081526040808320338452909152812055612a02565b5060008481526011602090815260408083206001600160a01b03851684528252808320338452909152902054806129d65760405162461bcd60e51b81526020600482015260096024820152684e6f20746f6b656e7360b81b6044820152606401610d40565b60008581526011602090815260408083206001600160a01b038616845282528083203384529091528120555b6001600160a01b038216612a9f57604051600090339083908381818185875af1925050503d8060008114612a52576040519150601f19603f3d011682016040523d82523d6000602084013e612a57565b606091505b5050905080612a995760405162461bcd60e51b815260206004820152600e60248201526d11985a5b1959081d1bc81cd95b9960921b6044820152606401610d40565b50612c01565b6040516370a0823160e01b8152306004820152829082906001600160a01b038316906370a0823190602401602060405180830381865afa158015612ae7573d6000803e3d6000fd5b505050506040513d601f19601f82011682018060405250810190612b0b919061594d565b1015612b505760405162461bcd60e51b8152602060048201526014602482015273496e73756666696369656e742062616c616e636560601b6044820152606401610d40565b60405163a9059cbb60e01b8152336004820152602481018390526001600160a01b0382169063a9059cbb906044016020604051808303816000875af1158015612b9d573d6000803e3d6000fd5b505050506040513d601f19601f82011682018060405250810190612bc19190615966565b612bff5760405162461bcd60e51b815260206004820152600f60248201526e1d1c985b9cd9995c8819985a5b1959608a1b6044820152606401610d40565b505b604080518281526001600160a01b0384166020820152339187917f41211792ac12581294dfaa383a54e630322f08f25e558828f6d5e0979ac3eb23910160405180910390a35050505050565b6000838152600a602052604090205483906001600160a01b03163314612c855760405162461bcd60e51b8152600401610d40906159e5565b5060009283526014602090815260408085206001600160a01b0390941685529281529183208054600181018255908452919092200155565b60005481906001600160a01b0316331480612cee57506000818152600a60205260409020546001600160a01b031633145b80612cf857503330145b612d145760405162461bcd60e51b8152600401610d40906157df565b6000828152600960209081526040808320601290925290912054600d820154600e830154612d429190615cca565b612d4d826064615cca565b10612d5d57612d5d846001610ce9565b50505050565b612d6b6145cf565b60008181526009602052604090206006600f82015460ff166007811115612d9457612d94614de7565b1480612db857506007600f82015460ff166007811115612db657612db6614de7565b145b80612ddb57506005600f82015460ff166007811115612dd957612dd9614de7565b145b80612dfe57506000600f82015460ff166007811115612dfc57612dfc614de7565b145b612e615760405162461bcd60e51b815260206004820152602e60248201527f526566756e647320617265206e6f7420617661696c61626c6520666f7220746860448201526d69732073686f772073746174757360901b6064820152608401610d40565b6000828152601560205260408120546001600160a01b03169081612e9f57506000838152600e60209081526040808320338452909152902054612ecc565b506000838152600f602090815260408083206001600160a01b038516845282528083203384529091529020545b60008111612f135760405162461bcd60e51b81526020600482015260146024820152734e6f2066756e647320746f20776974686472617760601b6044820152606401610d40565b6001600160a01b038216612fca576000848152600e602090815260408083203380855292528083208390555183908381818185875af1925050503d8060008114612f79576040519150601f19603f3d011682016040523d82523d6000602084013e612f7e565b606091505b5050905080612fc45760405162461bcd60e51b815260206004820152601260248201527108cc2d2d8cac840e8de40e6cadcc8408aa8960731b6044820152606401610d40565b5061314f565b6000848152600f602090815260408083206001600160a01b0386168085529083528184203385529092528083209290925590516370a0823160e01b8152306004820152839183916370a0823190602401602060405180830381865afa158015613037573d6000803e3d6000fd5b505050506040513d601f19601f8201168201806040525081019061305b919061594d565b101561309e5760405162461bcd60e51b815260206004820152601260248201527124b739bab33334b1b4b2b73a103a37b5b2b760711b6044820152606401610d40565b60405163a9059cbb60e01b8152336004820152602481018390526001600160a01b0382169063a9059cbb906044016020604051808303816000875af11580156130eb573d6000803e3d6000fd5b505050506040513d601f19601f8201168201806040525081019061310f9190615966565b61314d5760405162461bcd60e51b815260206004820152600f60248201526e151c985b9cd9995c8819985a5b1959608a1b6044820152606401610d40565b505b604051818152849033907fa4d59773de0ef2d6faf35ac70331de09c09cb20909bf7453dd0d620524bd1fc99060200160405180910390a35050506131b260017f9b779b17422d0df92223018b32b4d1fa46e071723d6817e2486d003becc55f0055565b50565b806131c03382611c44565b806131d057506131d03382610cbc565b6131ec5760405162461bcd60e51b8152600401610d409061584d565b60008281526009602052604090206001600f82015460ff16600781111561321557613215614de7565b148061323957506002600f82015460ff16600781111561323757613237614de7565b145b8061325c57506003600f82015460ff16600781111561325a5761325a614de7565b145b6132785760405162461bcd60e51b8152600401610d4090615875565b600f8101805460ff191660051790556008805490600061329783615ce1565b9190505550505050565b6132a96144e2565b6001600160a01b0381166132d357604051631e4fbdf760e01b815260006004820152602401610d40565b6131b28161453d565b600554600160a01b900460ff16156133255760405162461bcd60e51b815260206004820152600c60248201526b18d85b9b9bdd081c995cd95d60a21b6044820152606401610d40565b600080546001600160a01b039687166001600160a01b031991821617909155600180549787169782169790971790965560028054948616948716949094179093556003805492851692861692909217909155600480549184169190941617909255600580546001600160a81b0319169290911691909117600160a01b179055565b600960205260009081526040902080546001820180549192916133c8906158dc565b80601f01602080910402602001604051908101604052809291908181526020018280546133f4906158dc565b80156134415780601f1061341657610100808354040283529160200191613441565b820191906000526020600020905b81548152906001019060200180831161342457829003601f168201915b505050505090806002018054613456906158dc565b80601f0160208091040260200160405190810160405280929190818152602001828054613482906158dc565b80156134cf5780601f106134a4576101008083540402835291602001916134cf565b820191906000526020600020905b8154815290600101906020018083116134b257829003601f168201915b5050505050908060030160009054906101000a90046001600160a01b031690806005016040518060a001604052908160008201805461350d906158dc565b80601f0160208091040260200160405190810160405280929190818152602001828054613539906158dc565b80156135865780601f1061355b57610100808354040283529160200191613586565b820191906000526020600020905b81548152906001019060200180831161356957829003601f168201915b505050918352505060408051808201825260018401548152600284015460208281019190915283015260038301549082015260048201546001600160a01b039081166060830152600590920154608090910152600b830154600d840154600e850154600f86015460118701546012880154601390980154969794969395929460ff80841695610100909404169391929091168d565b6000818152601560205260408120546001600160a01b03168061364c5750506000908152600c602052604090205490565b6000928352600d602090815260408085206001600160a01b03909316855291905290912054919050565b60048201546000906136899060026158b3565b6001600160401b038111156136a0576136a0614f5d565b6040519080825280602002602001820160405280156136c9578160200160208202803683370190505b50600384015481519192506001600160a01b03169082906000906136ef576136ef6158c6565b60200260200101906001600160a01b031690816001600160a01b03168152505060005b600484015481101561378e57836004018181548110613733576137336158c6565b6000918252602090912001546001600160a01b0316826137548360016158b3565b81518110613764576137646158c6565b6001600160a01b03909216602092830291909101909101528061378681615910565b915050613712565b50600983015481516001600160a01b039091169082906137b090600190615983565b815181106137c0576137c06158c6565b60200260200101906001600160a01b031690816001600160a01b0316815250506137fd82600001518284606001518560200151866040015161463f565b505050565b6001600160a01b03811661382257506000908152600c6020526040812055565b6000828152600d602090815260408083206001600160a01b03851684529091528120555050565b60008181526009602052604090206004600f82015460ff16600781111561387257613872614de7565b036138b25760405162461bcd60e51b815260206004820152601060248201526f616c726561647920636f6d706c65746560801b6044820152606401610d40565b600f8101805460ff191660041790556008546139025760405162461bcd60e51b815260206004820152600f60248201526e6e6f206163746976652073686f777360881b6044820152606401610d40565b6008805490600061391283615ce1565b9190505550817f8ed894b6f384ca9c829b9aa5b056bc9106a90845a15616607e975d4ad488ee67600460405161266591906153c9565b8051516139875760405162461bcd60e51b815260206004820152600d60248201526c13985b59481c995c5d5a5c9959609a1b6044820152606401610d40565b60008160800151116139cd5760405162461bcd60e51b815260206004820152600f60248201526e1c98591a5d5cc81c995c5d5a5c9959608a1b6044820152606401610d40565b60008160200151511180156139e957506103e881602001515111155b613a355760405162461bcd60e51b815260206004820152601b60248201527f6465736372697074696f6e207265717569726564203c203130303000000000006044820152606401610d40565b60008160c0015111613a785760405162461bcd60e51b815260206004820152600c60248201526b06361706163697479203e20360a41b6044820152606401610d40565b600081604001515111613acd5760405162461bcd60e51b815260206004820152601c60248201527f4174206c65617374206f6e6520617274697374207265717569726564000000006044820152606401610d40565b60328160a0015160ff1610158015613aed575060648160a0015160ff1611155b613b395760405162461bcd60e51b815260206004820152601760248201527f73656c6c6f7574207468726573686f6c64203e203530250000000000000000006044820152606401610d40565b60608101515163055d4a7f1913801590613b5c575060608101515163055d4a8012155b613b965760405162461bcd60e51b815260206004820152600b60248201526a1a5b9d985b1a59081b185d60aa1b6044820152606401610d40565b630aba94ff1981606001516020015112158015613bbf5750630aba950081606001516020015113155b613bfa5760405162461bcd60e51b815260206004820152600c60248201526b496e76616c6964206c6f6e6760a01b6044820152606401610d40565b6131b28161010001518260400151516146b8565b80516020808301516040808501516060860151805190850151608088015160a089015160c08a01516101208b0151965160009a613c519a90999891429101615cf8565b60408051601f1981840301815291815281516020928301206000818152600990935291208351919250906001820190613c8a9082615d7b565b5060208301516002820190613c9f9082615d7b565b506003810180546001600160a01b0319163317905560408301518051613ccf916004840191602090910190614ba7565b506040805160c08082018352600060a083018181528084526060808901516020860152928801519484019490945290820181905260808201529060058301908190613d1a9082615d7b565b506020828101518051600184015581015160028301556040830151600383015560608301516004830180546001600160a01b0319166001600160a01b0390921691909117905560809283015160059092019190915590840151600b83015560a084015160ff16600d83015560c0840151600e830155600f8201805461ffff19166101009081179091558401518051613db89260108501920190614c0c565b50613dc64262278d006158b3565b60118201556000601282018190556101208401516013830180546001600160a01b039092166001600160a01b0319928316811790915584835260156020526040832080549092161790555b8360e0015151811015613e935781600c018460e001518281518110613e3857613e386158c6565b60209081029190910181015182546001810184556000938452919092208251600390920201908190613e6a9082615d7b565b506020820151600182015560409091015160029091015580613e8b81615910565b915050613e11565b5060005b836040015151811015613f15576001600b6000858152602001908152602001600020600086604001518481518110613ed157613ed16158c6565b6020908102919091018101516001600160a01b03168252810191909152604001600020805460ff191691151591909117905580613f0d81615910565b915050613e97565b5060088054906000613f2683615910565b9190505550336001600160a01b0316827fa01783f955984485ce010e7dc2b7745239040a2b48640ffd2a56fb065911fc688560000151866040015187602001518860a001518961010001518a6101200151604051613f8996959493929190615e3a565b60405180910390a350919050565b60015460405163de4ed3cf60e01b81526001600160a01b038381166004830152600092169063de4ed3cf906024016020604051808303816000875af1158015613fe4573d6000803e3d6000fd5b505050506040513d601f19601f820116820180604052508101906140089190615eac565b60405163bde9700b60e01b81523060048201529091506001600160a01b0382169063bde9700b90602401600060405180830381600087803b15801561404c57600080fd5b505af1158015614060573d6000803e3d6000fd5b505050600093845250600a602052604090922080546001600160a01b0319166001600160a01b039093169290921790915550565b600084815260096020908152604080832060129092528220805491926140b983615ce1565b90915550506001600160a01b038216614123576000858152600c6020526040812080548592906140ea908490615983565b90915550506000858152600e60209081526040808320338452909152812080548592906141189084906158b3565b9091555061419a9050565b6000858152600d602090815260408083206001600160a01b038616845290915281208054859290614155908490615983565b90915550506000858152600f602090815260408083206001600160a01b03861684528252808320338452909152812080548592906141949084906158b3565b90915550505b600085815260126020526040812054600d830154600e8401549192916064916141c291615cca565b6141cc9190615ec9565b905080821080156141f557506001600f84015460ff1660078111156141f3576141f3614de7565b145b1561424257600f8301805460ff1916905560405187907f8ed894b6f384ca9c829b9aa5b056bc9106a90845a15616607e975d4ad488ee6790614239906000906153c9565b60405180910390a25b6000878152600a60205260409020546001600160a01b0316806142995760405162461bcd60e51b815260206004820152600f60248201526e6e6f207469636b65742070726f787960881b6044820152606401610d40565b6040516387f9ca5d60e01b815260048101889052600160248201523360448201526001600160a01b038216906387f9ca5d90606401600060405180830381600087803b1580156142e857600080fd5b505af11580156142fc573d6000803e3d6000fd5b50505060008981526013602090815260408083208b8452909152812055506143258833896147bc565b5050505050505050565b306001600160a01b037f00000000000000000000000000000000000000000000000000000000000000001614806143b657507f00000000000000000000000000000000000000000000000000000000000000006001600160a01b03166143aa600080516020615f1e833981519152546001600160a01b031690565b6001600160a01b031614155b156121ee5760405163703e46dd60e11b815260040160405180910390fd5b6131b26144e2565b816001600160a01b03166352d1902d6040518163ffffffff1660e01b8152600401602060405180830381865afa925050508015614436575060408051601f3d908101601f191682019092526144339181019061594d565b60015b61445e57604051634c9c8ce360e01b81526001600160a01b0383166004820152602401610d40565b600080516020615f1e833981519152811461448f57604051632a87526960e21b815260048101829052602401610d40565b6137fd838361489b565b306001600160a01b037f000000000000000000000000000000000000000000000000000000000000000016146121ee5760405163703e46dd60e11b815260040160405180910390fd5b336145147f9016d09d72d40fdae2fd8ceac6b6234c7706214fd39c1cd1e609a0528c199300546001600160a01b031690565b6001600160a01b0316146121ee5760405163118cdaa760e01b8152336004820152602401610d40565b7f9016d09d72d40fdae2fd8ceac6b6234c7706214fd39c1cd1e609a0528c19930080546001600160a01b031981166001600160a01b03848116918217845560405192169182907f8be0079c531659141344cd1fd0a4f28419497f9722a3daafe3b4186f6b6457e090600090a3505050565b6145b66148f1565b6121ee61493a565b6145c66148f1565b6131b281614942565b7f9b779b17422d0df92223018b32b4d1fa46e071723d6817e2486d003becc55f0080546001190161461357604051633ee5aeb560e01b815260040160405180910390fd5b60029055565b60017f9b779b17422d0df92223018b32b4d1fa46e071723d6817e2486d003becc55f0055565b60005b8451811015610f845760006064858381518110614661576146616158c6565b6020026020010151856146749190615cca565b61467e9190615ec9565b90506146a587878481518110614696576146966158c6565b6020026020010151838661494a565b50806146b081615910565b915050614642565b6146c38160026158b3565b8251146147305760405162461bcd60e51b815260206004820152603560248201527f73706c6974206d75737420657175616c206172746973747320706c7573203220604482015274286f7267616e697a657220616e642076656e75652960581b6064820152608401610d40565b6000805b83518110156147765783818151811061474f5761474f6158c6565b60200260200101518261476291906158b3565b91508061476e81615910565b915050614734565b50806064146137fd5760405162461bcd60e51b8152602060048201526012602482015271073706c6974206d7573742073756d203130360741b6044820152606401610d40565b60008381526014602090815260408083206001600160a01b03861684529091528120905b815481101561489457828282815481106147fc576147fc6158c6565b906000526020600020015403614882578154829061481c90600190615983565b8154811061482c5761482c6158c6565b9060005260206000200154828281548110614849576148496158c6565b90600052602060002001819055508180548061486757614867615eeb565b60019003818190600052602060002001600090559055614894565b8061488c81615910565b9150506147e0565b5050505050565b6148a4826149de565b6040516001600160a01b038316907fbc7cd75a20ee27fd9adebab32041f755214dbc6bffa90cc0225b39da2e5c2d3b90600090a28051156148e9576137fd8282614a43565b611c82614ab9565b7ff0c57e16840df040f15088dc2f81fe391c3923bec73e23a9662efc9c229c6a0054600160401b900460ff166121ee57604051631afcd79f60e31b815260040160405180910390fd5b6146196148f1565b6132a96148f1565b6001600160a01b0381166149955760008481526010602090815260408083206001600160a01b03871684529091528120805484929061498a9084906158b3565b90915550612d5d9050565b60008481526011602090815260408083206001600160a01b0380861685529083528184209087168452909152812080548492906149d39084906158b3565b909155505050505050565b806001600160a01b03163b600003614a1457604051634c9c8ce360e01b81526001600160a01b0382166004820152602401610d40565b600080516020615f1e83398151915280546001600160a01b0319166001600160a01b0392909216919091179055565b6060600080846001600160a01b031684604051614a609190615f01565b600060405180830381855af49150503d8060008114614a9b576040519150601f19603f3d011682016040523d82523d6000602084013e614aa0565b606091505b5091509150614ab0858383614ad8565b95945050505050565b34156121ee5760405163b398979f60e01b815260040160405180910390fd5b606082614aed57614ae882614b34565b6124fb565b8151158015614b0457506001600160a01b0384163b155b15614b2d57604051639996b31560e01b81526001600160a01b0385166004820152602401610d40565b50806124fb565b805115614b445780518082602001fd5b604051630a12f52160e11b815260040160405180910390fd5b6040518060a0016040528060608152602001614b8c604051806040016040528060008152602001600081525090565b81526000602082018190526040820181905260609091015290565b828054828255906000526020600020908101928215614bfc579160200282015b82811115614bfc57825182546001600160a01b0319166001600160a01b03909116178255602090920191600190910190614bc7565b50614c08929150614c47565b5090565b828054828255906000526020600020908101928215614bfc579160200282015b82811115614bfc578251825591602001919060010190614c2c565b5b80821115614c085760008155600101614c48565b6001600160a01b03811681146131b257600080fd5b803561147281614c5c565b60008060408385031215614c8f57600080fd5b8235614c9a81614c5c565b946020939093013593505050565b60008060408385031215614cbb57600080fd5b82359150602083013560088110614cd157600080fd5b809150509250929050565b600060208284031215614cee57600080fd5b5035919050565b60005b83811015614d10578181015183820152602001614cf8565b50506000910152565b60008151808452614d31816020860160208601614cf5565b601f01601f19169290920160200192915050565b600081518084526020808501945080840160005b83811015614d7e5781516001600160a01b031687529582019590820190600101614d59565b509495945050505050565b6000815160c08452614d9e60c0850182614d19565b905060208301518051602086015260208101516040860152506040830151606085015260018060a01b036060840151166080850152608083015160a08501528091505092915050565b634e487b7160e01b600052602160045260246000fd5b60088110614e1b57634e487b7160e01b600052602160045260246000fd5b9052565b6000610160808352614e338184018f614d19565b9050602083820381850152614e48828f614d19565b9150604060018060a01b038e1681860152606085840381870152614e6c848f614d45565b93508584036080870152614e80848e614d89565b935085840360a0870152838c518086528486019150848160051b870101858f0160005b83811015614eec57888303601f1901855281518051878552614ec788860182614d19565b828b0151868c0152918901519489019490945294880194925090870190600101614ea3565b5050809750505050505050508660c08301528560e0830152614f12610100830186614dfd565b8315156101208301526001600160a01b0383166101408301529c9b505050505050505050505050565b60008060408385031215614f4e57600080fd5b50508035926020909101359150565b634e487b7160e01b600052604160045260246000fd5b604051606081016001600160401b0381118282101715614f9557614f95614f5d565b60405290565b60405161014081016001600160401b0381118282101715614f9557614f95614f5d565b604051601f8201601f191681016001600160401b0381118282101715614fe657614fe6614f5d565b604052919050565b60006001600160401b0383111561500757615007614f5d565b61501a601f8401601f1916602001614fbe565b905082815283838301111561502e57600080fd5b828260208301376000602084830101529392505050565b600082601f83011261505657600080fd5b6124fb83833560208501614fee565b60006001600160401b0382111561507e5761507e614f5d565b5060051b60200190565b600082601f83011261509957600080fd5b813560206150ae6150a983615065565b614fbe565b82815260059290921b840181019181810190868411156150cd57600080fd5b8286015b848110156150f15780356150e481614c5c565b83529183019183016150d1565b509695505050505050565b60006040828403121561510e57600080fd5b604051604081018181106001600160401b038211171561513057615130614f5d565b604052823581526020928301359281019290925250919050565b803560ff8116811461147257600080fd5b600082601f83011261516c57600080fd5b8135602061517c6150a983615065565b82815260059290921b8401810191818101908684111561519b57600080fd5b8286015b848110156150f15780356001600160401b03808211156151bf5760008081fd5b908801906060828b03601f19018113156151d95760008081fd5b6151e1614f73565b87840135838111156151f35760008081fd5b6152018d8a83880101615045565b8252506040848101358983015291909301359083015250835291830191830161519f565b600082601f83011261523657600080fd5b813560206152466150a983615065565b82815260059290921b8401810191818101908684111561526557600080fd5b8286015b848110156150f15780358352918301918301615269565b60006020828403121561529257600080fd5b81356001600160401b03808211156152a957600080fd5b9083019061016082860312156152be57600080fd5b6152c6614f9b565b8235828111156152d557600080fd5b6152e187828601615045565b8252506020830135828111156152f657600080fd5b61530287828601615045565b60208301525060408301358281111561531a57600080fd5b61532687828601615088565b60408301525061533986606085016150fc565b606082015260a0830135608082015261535460c0840161514a565b60a082015260e083013560c0820152610100808401358381111561537757600080fd5b6153838882870161515b565b60e084015250610120808501358481111561539d57600080fd5b6153a989828801615225565b83850152506153bb6101408601614c71565b908301525095945050505050565b60208101610ce38284614dfd565b600080604083850312156153ea57600080fd5b82356153f581614c5c565b915060208301356001600160401b0381111561541057600080fd5b8301601f8101851361542157600080fd5b61543085823560208401614fee565b9150509250929050565b6000806000806080858703121561545057600080fd5b8435935060208501359250604085013561546981614c5c565b9150606085013561547981614c5c565b939692955090935050565b6000806040838503121561549757600080fd5b823591506020830135614cd181614c5c565b600081518084526020808501945080840160005b83811015614d7e578151875295820195908201906001016154bd565b6020815260006124fb60208301846154a9565b60008060006060848603121561550157600080fd5b505081359360208301359350604090920135919050565b60008060006060848603121561552d57600080fd5b83359250602084013561553f81614c5c565b9150604084013561554f81614c5c565b809150509250925092565b60008060006060848603121561556f57600080fd5b83359250602084013561558181614c5c565b929592945050506040919091013590565b6060815260006155a56060830186614d19565b60208301949094525060400152919050565b6000806000606084860312156155cc57600080fd5b83356155d781614c5c565b95602085013595506040909401359392505050565b6020815260006124fb6020830184614d19565b6000806040838503121561561257600080fd5b8235915060208301356001600160401b0381111561562f57600080fd5b830160c08186031215614cd157600080fd5b60006020828403121561565357600080fd5b81356124fb81614c5c565b80151581146131b257600080fd5b6000806000806080858703121561568257600080fd5b84359350602085013561569481614c5c565b92506040850135915060608501356154798161565e565b60008060008060008060c087890312156156c457600080fd5b86356156cf81614c5c565b955060208701356156df81614c5c565b945060408701356156ef81614c5c565b935060608701356156ff81614c5c565b9250608087013561570f81614c5c565b915060a087013561571f81614c5c565b809150509295509295509295565b8d81526101a0602082015260006157486101a083018f614d19565b828103604084015261575a818f614d19565b6001600160a01b038e1660608501528381036080850152905061577d818d614d89565b9150508960a08301528860c08301528760e08301526157a0610100830188614dfd565b85151561012083015284610140830152836101608301526157cd6101808301846001600160a01b03169052565b9e9d5050505050505050505050505050565b60208082526048908201527f4f6e6c79207468652056656e75652c205469636b657420636f6e74726163742c60408201527f206f72207468697320636f6e74726163742063616e2063616c6c207468697320606082015267333ab731ba34b7b760c11b608082015260a00190565b6020808252600e908201526d139bdd08185d5d1a1bdc9a5e995960921b604082015260600190565b6020808252600e908201526d696e76616c69642073746174757360901b604082015260600190565b634e487b7160e01b600052601160045260246000fd5b80820180821115610ce357610ce361589d565b634e487b7160e01b600052603260045260246000fd5b600181811c908216806158f057607f821691505b602082108103611c3e57634e487b7160e01b600052602260045260246000fd5b6000600182016159225761592261589d565b5060010190565b6000806040838503121561593c57600080fd5b505080516020909101519092909150565b60006020828403121561595f57600080fd5b5051919050565b60006020828403121561597857600080fd5b81516124fb8161565e565b81810381811115610ce357610ce361589d565b6020808252602f908201527f4f6e6c7920746865205469636b657420636f6e74726163742063616e2063616c60408201526e36103a3434b990333ab731ba34b7b760891b606082015260800190565b6020808252602c908201527f43616c6c6572206973206e6f7420746865207469636b65742070726f7879206660408201526b6f7220746869732073686f7760a01b606082015260800190565b601f8211156137fd57600081815260208120601f850160051c81016020861015615a585750805b601f850160051c820191505b81811015610f8457828155600101615a64565b6001600160401b03831115615a8e57615a8e614f5d565b615aa283615a9c83546158dc565b83615a31565b6000601f841160018114615ad65760008515615abe5750838201355b600019600387901b1c1916600186901b178355614894565b600083815260209020601f19861690835b82811015615b075786850135825560209485019460019092019101615ae7565b5086821015615b245760001960f88860031b161c19848701351681555b505060018560011b0183555050505050565b60008135610ce381614c5c565b8135601e19833603018112615b5757600080fd5b820180356001600160401b03811115615b6f57600080fd5b602082019150803603821315615b8457600080fd5b615b8f818385615a77565b5050602082013560018201556040820135600282015560608201356003820155615be2615bbe60808401615b36565b6004830180546001600160a01b0319166001600160a01b0392909216919091179055565b60a082013560058201555050565b81835281816020850137506000828201602090810191909152601f909101601f19169091010190565b6020815260008235601e19843603018112615c3357600080fd5b83016020810190356001600160401b03811115615c4f57600080fd5b803603821315615c5e57600080fd5b60c06020850152615c7360e085018284615bf0565b915050615c90604084016020860180358252602090810135910152565b60608401356080840152615ca660808501614c71565b6001600160a01b03811660a08501525060a084013560c08401528091505092915050565b8082028115828204841417610ce357610ce361589d565b600081615cf057615cf061589d565b506000190190565b6000610140808352615d0c8184018e614d19565b90508281036020840152615d20818d614d19565b90508281036040840152615d34818c614d45565b606084019a909a525050608081019690965260a086019490945260ff9290921660c085015260e08401526001600160a01b0316610100830152610120909101529392505050565b81516001600160401b03811115615d9457615d94614f5d565b615da881615da284546158dc565b84615a31565b602080601f831160018114615ddd5760008415615dc55750858301515b600019600386901b1c1916600185901b178555610f84565b600085815260208120601f198616915b82811015615e0c57888601518255948401946001909101908401615ded565b5085821015615e2a5787850151600019600388901b60f8161c191681555b5050505050600190811b01905550565b60c081526000615e4d60c0830189614d19565b8281036020840152615e5f8189614d45565b90508281036040840152615e738188614d19565b905060ff861660608401528281036080840152615e9081866154a9565b91505060018060a01b03831660a0830152979650505050505050565b600060208284031215615ebe57600080fd5b81516124fb81614c5c565b600082615ee657634e487b7160e01b600052601260045260246000fd5b500490565b634e487b7160e01b600052603160045260246000fd5b60008251615f13818460208701614cf5565b919091019291505056fe360894a13ba1a3210667c828492db98dca3e2076cc3735a920a3ca505d382bbca2646970667358221220526283990d36de12ba70aa8a885158fe03250c5e768c251668aa106f435915dd64736f6c63430008140033","linkReferences":{}},"methodIdentifiers":{"SELLOUT_PROTOCOL_WALLET()":"e30228be","UPGRADE_INTERFACE_VERSION()":"ad3cb1cc","activeShowCount()":"16488906","addTokenIdToWallet(bytes32,address,uint256)":"de44006f","artistRegistryInstance()":"8dea15a1","cancelShow(bytes32)":"ef5023a5","completeShow(bytes32)":"129e086b","consumeTicketTier(bytes32,uint256,uint256)":"644b5e59","depositToVault(bytes32)":"85266635","depositToVaultERC20(bytes32,uint256,address,address)":"5412233f","getNumberOfVoters(bytes32)":"85ffa16c","getOrganizer(bytes32)":"977cb89e","getShowById(bytes32)":"27b1bf52","getShowStatus(bytes32)":"46c2c8a7","getTicketPricePaid(bytes32,uint256)":"93d4e100","getTicketTierInfo(bytes32,uint256)":"7e3e3935","getTotalTicketsSold(bytes32)":"61041870","getWalletTokenIds(bytes32,address)":"5b9a1e09","hasTicket(address,bytes32)":"5c37da69","initialize(address)":"c4d66de8","isArtist(address,bytes32)":"02c9a8b5","isArtistMapping(bytes32,address)":"bafd4eb0","isOrganizer(address,bytes32)":"4ed372da","isTicketOwner(address,bytes32,uint256)":"a03f4efe","organizerRegistryInstance()":"1cf2103e","owner()":"8da5cb5b","payout(bytes32)":"cfefb3d5","pendingPayouts(bytes32,address)":"8e70362b","pendingRefunds(bytes32,address)":"5696c07c","pendingTokenPayouts(bytes32,address,address)":"75976795","pendingTokenRefunds(bytes32,address,address)":"92ea6388","proposeShow((string,string,address[],(int256,int256),uint256,uint8,uint256,(string,uint256,uint256)[],uint256[],address))":"3b9ce466","proxiableUUID()":"52d1902d","referralInstance()":"c6ab848a","refundTicket(bytes32,uint256)":"3c60d2d6","renounceOwnership()":"715018a6","setProtocolAddresses(address,address,address,address,address,address)":"f8121873","setTicketOwnership(bytes32,address,uint256,bool)":"c8f67e96","setTicketPricePaid(bytes32,uint256,uint256)":"bd47dc5c","setTotalTicketsSold(bytes32,uint256)":"787d76b8","showPaymentToken(bytes32)":"72958028","showToTicketProxy(bytes32)":"3deba964","showTokenVault(bytes32,address)":"c9e21e5e","showVault(bytes32)":"867e68af","shows(bytes32)":"fca46559","ticketFactoryInstance()":"e4ca73aa","ticketPricePaid(bytes32,uint256)":"2f18ddfe","totalTicketsSold(bytes32)":"925e8f89","transferOwnership(address)":"f2fde38b","updateShowDate(bytes32,uint256)":"64ad6cd6","updateShowVenue(bytes32,(string,(int256,int256),uint256,address,bytes32))":"c29e2de4","updateStatus(bytes32,uint8)":"054372ed","updateStatusIfSoldOut(bytes32)":"e6180546","upgradeToAndCall(address,bytes)":"4f1ef286","venueContract()":"51819335","venueRegistryInstance()":"703ee4e5","walletToShowToTokenIds(bytes32,address,uint256)":"7d8d6a22","withdrawRefund(bytes32)":"e9acfa7c"},"id":44}