{"abi":[{"type":"function","name":"SELLOUT_PROTOCOL_WALLET","inputs":[],"outputs":[{"name":"","type":"address","internalType":"address"}],"stateMutability":"view"},{"type":"function","name":"UPGRADE_INTERFACE_VERSION","inputs":[],"outputs":[{"name":"","type":"string","internalType":"string"}],"stateMutability":"view"},{"type":"function","name":"activeShowCount","inputs":[],"outputs":[{"name":"","type":"uint256","internalType":"uint256"}],"stateMutability":"view"},{"type":"function","name":"addTokenIdToWallet","inputs":[{"name":"showId","type":"bytes32","internalType":"bytes32"},{"name":"wallet","type":"address","internalType":"address"},{"name":"tokenId","type":"uint256","internalType":"uint256"}],"outputs":[],"stateMutability":"nonpayable"},{"type":"function","name":"artistRegistryContract","inputs":[],"outputs":[{"name":"","type":"address","internalType":"address"}],"stateMutability":"view"},{"type":"function","name":"artistRegistryInstance","inputs":[],"outputs":[{"name":"","type":"address","internalType":"contract IArtistRegistry"}],"stateMutability":"view"},{"type":"function","name":"cancelShow","inputs":[{"name":"showId","type":"bytes32","internalType":"bytes32"}],"outputs":[],"stateMutability":"nonpayable"},{"type":"function","name":"checkAndUpdateExpiry","inputs":[{"name":"showId","type":"bytes32","internalType":"bytes32"}],"outputs":[],"stateMutability":"nonpayable"},{"type":"function","name":"completeShow","inputs":[{"name":"showId","type":"bytes32","internalType":"bytes32"}],"outputs":[],"stateMutability":"nonpayable"},{"type":"function","name":"depositToVault","inputs":[{"name":"showId","type":"bytes32","internalType":"bytes32"}],"outputs":[],"stateMutability":"payable"},{"type":"function","name":"getNumberOfVoters","inputs":[{"name":"showId","type":"bytes32","internalType":"bytes32"}],"outputs":[{"name":"","type":"uint256","internalType":"uint256"}],"stateMutability":"view"},{"type":"function","name":"getOrganizer","inputs":[{"name":"showId","type":"bytes32","internalType":"bytes32"}],"outputs":[{"name":"","type":"address","internalType":"address"}],"stateMutability":"view"},{"type":"function","name":"getSellOutThreshold","inputs":[{"name":"showId","type":"bytes32","internalType":"bytes32"}],"outputs":[{"name":"","type":"uint256","internalType":"uint256"}],"stateMutability":"view"},{"type":"function","name":"getShowById","inputs":[{"name":"showId","type":"bytes32","internalType":"bytes32"}],"outputs":[{"name":"name","type":"string","internalType":"string"},{"name":"description","type":"string","internalType":"string"},{"name":"organizer","type":"address","internalType":"address"},{"name":"artists","type":"address[]","internalType":"address[]"},{"name":"venue","type":"tuple","internalType":"struct VenueTypes.Venue","components":[{"name":"name","type":"string","internalType":"string"},{"name":"coordinates","type":"tuple","internalType":"struct VenueTypes.Coordinates","components":[{"name":"lat","type":"int256","internalType":"int256"},{"name":"lon","type":"int256","internalType":"int256"}]},{"name":"totalCapacity","type":"uint256","internalType":"uint256"},{"name":"wallet","type":"address","internalType":"address"}]},{"name":"ticketPrice","type":"tuple","internalType":"struct ShowTypes.TicketPrice","components":[{"name":"minPrice","type":"uint256","internalType":"uint256"},{"name":"maxPrice","type":"uint256","internalType":"uint256"}]},{"name":"sellOutThreshold","type":"uint256","internalType":"uint256"},{"name":"totalCapacity","type":"uint256","internalType":"uint256"},{"name":"status","type":"uint8","internalType":"enum ShowTypes.Status"},{"name":"isActive","type":"bool","internalType":"bool"}],"stateMutability":"view"},{"type":"function","name":"getShowStatus","inputs":[{"name":"showId","type":"bytes32","internalType":"bytes32"}],"outputs":[{"name":"","type":"uint8","internalType":"enum ShowTypes.Status"}],"stateMutability":"view"},{"type":"function","name":"getTicketPrice","inputs":[{"name":"showId","type":"bytes32","internalType":"bytes32"}],"outputs":[{"name":"","type":"tuple","internalType":"struct ShowTypes.TicketPrice","components":[{"name":"minPrice","type":"uint256","internalType":"uint256"},{"name":"maxPrice","type":"uint256","internalType":"uint256"}]}],"stateMutability":"view"},{"type":"function","name":"getTicketPricePaid","inputs":[{"name":"showId","type":"bytes32","internalType":"bytes32"},{"name":"ticketId","type":"uint256","internalType":"uint256"}],"outputs":[{"name":"","type":"uint256","internalType":"uint256"}],"stateMutability":"view"},{"type":"function","name":"getTotalCapacity","inputs":[{"name":"showId","type":"bytes32","internalType":"bytes32"}],"outputs":[{"name":"","type":"uint256","internalType":"uint256"}],"stateMutability":"view"},{"type":"function","name":"getTotalTicketsSold","inputs":[{"name":"showId","type":"bytes32","internalType":"bytes32"}],"outputs":[{"name":"","type":"uint256","internalType":"uint256"}],"stateMutability":"view"},{"type":"function","name":"getWalletTokenIds","inputs":[{"name":"showId","type":"bytes32","internalType":"bytes32"},{"name":"wallet","type":"address","internalType":"address"}],"outputs":[{"name":"","type":"uint256[]","internalType":"uint256[]"}],"stateMutability":"view"},{"type":"function","name":"hasTicket","inputs":[{"name":"wallet","type":"address","internalType":"address"},{"name":"showId","type":"bytes32","internalType":"bytes32"}],"outputs":[{"name":"ownsTicket","type":"bool","internalType":"bool"}],"stateMutability":"view"},{"type":"function","name":"initialize","inputs":[{"name":"_selloutProtocolWallet","type":"address","internalType":"address"}],"outputs":[],"stateMutability":"nonpayable"},{"type":"function","name":"isArtist","inputs":[{"name":"user","type":"address","internalType":"address"},{"name":"showId","type":"bytes32","internalType":"bytes32"}],"outputs":[{"name":"","type":"bool","internalType":"bool"}],"stateMutability":"view"},{"type":"function","name":"isArtistMapping","inputs":[{"name":"","type":"bytes32","internalType":"bytes32"},{"name":"","type":"address","internalType":"address"}],"outputs":[{"name":"","type":"bool","internalType":"bool"}],"stateMutability":"view"},{"type":"function","name":"isOrganizer","inputs":[{"name":"user","type":"address","internalType":"address"},{"name":"showId","type":"bytes32","internalType":"bytes32"}],"outputs":[{"name":"","type":"bool","internalType":"bool"}],"stateMutability":"view"},{"type":"function","name":"isTicketOwner","inputs":[{"name":"owner","type":"address","internalType":"address"},{"name":"showId","type":"bytes32","internalType":"bytes32"},{"name":"ticketId","type":"uint256","internalType":"uint256"}],"outputs":[{"name":"","type":"bool","internalType":"bool"}],"stateMutability":"view"},{"type":"function","name":"organizerRegistryContract","inputs":[],"outputs":[{"name":"","type":"address","internalType":"address"}],"stateMutability":"view"},{"type":"function","name":"organizerRegistryInstance","inputs":[],"outputs":[{"name":"","type":"address","internalType":"contract IOrganizerRegistry"}],"stateMutability":"view"},{"type":"function","name":"owner","inputs":[],"outputs":[{"name":"","type":"address","internalType":"address"}],"stateMutability":"view"},{"type":"function","name":"payout","inputs":[{"name":"showId","type":"bytes32","internalType":"bytes32"}],"outputs":[],"stateMutability":"nonpayable"},{"type":"function","name":"pendingWithdrawals","inputs":[{"name":"","type":"bytes32","internalType":"bytes32"},{"name":"","type":"address","internalType":"address"}],"outputs":[{"name":"","type":"uint256","internalType":"uint256"}],"stateMutability":"view"},{"type":"function","name":"proposeShow","inputs":[{"name":"name","type":"string","internalType":"string"},{"name":"description","type":"string","internalType":"string"},{"name":"artists","type":"address[]","internalType":"address[]"},{"name":"coordinates","type":"tuple","internalType":"struct VenueTypes.Coordinates","components":[{"name":"lat","type":"int256","internalType":"int256"},{"name":"lon","type":"int256","internalType":"int256"}]},{"name":"radius","type":"uint256","internalType":"uint256"},{"name":"sellOutThreshold","type":"uint8","internalType":"uint8"},{"name":"totalCapacity","type":"uint256","internalType":"uint256"},{"name":"ticketPrice","type":"tuple","internalType":"struct ShowTypes.TicketPrice","components":[{"name":"minPrice","type":"uint256","internalType":"uint256"},{"name":"maxPrice","type":"uint256","internalType":"uint256"}]},{"name":"split","type":"uint256[]","internalType":"uint256[]"}],"outputs":[{"name":"showId","type":"bytes32","internalType":"bytes32"}],"stateMutability":"nonpayable"},{"type":"function","name":"proxiableUUID","inputs":[],"outputs":[{"name":"","type":"bytes32","internalType":"bytes32"}],"stateMutability":"view"},{"type":"function","name":"referralContract","inputs":[],"outputs":[{"name":"","type":"address","internalType":"address"}],"stateMutability":"view"},{"type":"function","name":"referralInstance","inputs":[],"outputs":[{"name":"","type":"address","internalType":"contract ReferralModule"}],"stateMutability":"view"},{"type":"function","name":"refundTicket","inputs":[{"name":"showId","type":"bytes32","internalType":"bytes32"},{"name":"ticketId","type":"uint256","internalType":"uint256"}],"outputs":[],"stateMutability":"nonpayable"},{"type":"function","name":"renounceOwnership","inputs":[],"outputs":[],"stateMutability":"nonpayable"},{"type":"function","name":"setProtocolAddresses","inputs":[{"name":"_ticketContract","type":"address","internalType":"address"},{"name":"_venueContract","type":"address","internalType":"address"},{"name":"_referralContract","type":"address","internalType":"address"},{"name":"_artistRegistryContract","type":"address","internalType":"address"},{"name":"_organizerRegistryContract","type":"address","internalType":"address"},{"name":"_venueRegistryContract","type":"address","internalType":"address"}],"outputs":[],"stateMutability":"nonpayable"},{"type":"function","name":"setTicketPricePaid","inputs":[{"name":"showId","type":"bytes32","internalType":"bytes32"},{"name":"ticketId","type":"uint256","internalType":"uint256"},{"name":"price","type":"uint256","internalType":"uint256"}],"outputs":[],"stateMutability":"nonpayable"},{"type":"function","name":"setTotalTicketsSold","inputs":[{"name":"showId","type":"bytes32","internalType":"bytes32"},{"name":"amount","type":"uint256","internalType":"uint256"}],"outputs":[],"stateMutability":"nonpayable"},{"type":"function","name":"showVault","inputs":[{"name":"","type":"bytes32","internalType":"bytes32"}],"outputs":[{"name":"","type":"uint256","internalType":"uint256"}],"stateMutability":"view"},{"type":"function","name":"shows","inputs":[{"name":"","type":"bytes32","internalType":"bytes32"}],"outputs":[{"name":"showId","type":"bytes32","internalType":"bytes32"},{"name":"name","type":"string","internalType":"string"},{"name":"description","type":"string","internalType":"string"},{"name":"organizer","type":"address","internalType":"address"},{"name":"venue","type":"tuple","internalType":"struct VenueTypes.Venue","components":[{"name":"name","type":"string","internalType":"string"},{"name":"coordinates","type":"tuple","internalType":"struct VenueTypes.Coordinates","components":[{"name":"lat","type":"int256","internalType":"int256"},{"name":"lon","type":"int256","internalType":"int256"}]},{"name":"totalCapacity","type":"uint256","internalType":"uint256"},{"name":"wallet","type":"address","internalType":"address"}]},{"name":"radius","type":"uint256","internalType":"uint256"},{"name":"ticketPrice","type":"tuple","internalType":"struct ShowTypes.TicketPrice","components":[{"name":"minPrice","type":"uint256","internalType":"uint256"},{"name":"maxPrice","type":"uint256","internalType":"uint256"}]},{"name":"sellOutThreshold","type":"uint256","internalType":"uint256"},{"name":"totalCapacity","type":"uint256","internalType":"uint256"},{"name":"status","type":"uint8","internalType":"enum ShowTypes.Status"},{"name":"isActive","type":"bool","internalType":"bool"},{"name":"expiry","type":"uint256","internalType":"uint256"},{"name":"showDate","type":"uint256","internalType":"uint256"}],"stateMutability":"view"},{"type":"function","name":"ticketContract","inputs":[],"outputs":[{"name":"","type":"address","internalType":"address"}],"stateMutability":"view"},{"type":"function","name":"ticketInstance","inputs":[],"outputs":[{"name":"","type":"address","internalType":"contract Ticket"}],"stateMutability":"view"},{"type":"function","name":"ticketOwnership","inputs":[{"name":"","type":"address","internalType":"address"},{"name":"","type":"bytes32","internalType":"bytes32"}],"outputs":[{"name":"","type":"bool","internalType":"bool"}],"stateMutability":"view"},{"type":"function","name":"ticketPricePaid","inputs":[{"name":"","type":"bytes32","internalType":"bytes32"},{"name":"","type":"uint256","internalType":"uint256"}],"outputs":[{"name":"","type":"uint256","internalType":"uint256"}],"stateMutability":"view"},{"type":"function","name":"totalTicketsSold","inputs":[{"name":"","type":"bytes32","internalType":"bytes32"}],"outputs":[{"name":"","type":"uint256","internalType":"uint256"}],"stateMutability":"view"},{"type":"function","name":"transferOwnership","inputs":[{"name":"newOwner","type":"address","internalType":"address"}],"outputs":[],"stateMutability":"nonpayable"},{"type":"function","name":"updateExpiry","inputs":[{"name":"showId","type":"bytes32","internalType":"bytes32"},{"name":"expiry","type":"uint256","internalType":"uint256"}],"outputs":[],"stateMutability":"nonpayable"},{"type":"function","name":"updateStatus","inputs":[{"name":"showId","type":"bytes32","internalType":"bytes32"},{"name":"_status","type":"uint8","internalType":"enum ShowTypes.Status"}],"outputs":[],"stateMutability":"nonpayable"},{"type":"function","name":"updateVenue","inputs":[{"name":"showId","type":"bytes32","internalType":"bytes32"},{"name":"newVenue","type":"tuple","internalType":"struct VenueTypes.Venue","components":[{"name":"name","type":"string","internalType":"string"},{"name":"coordinates","type":"tuple","internalType":"struct VenueTypes.Coordinates","components":[{"name":"lat","type":"int256","internalType":"int256"},{"name":"lon","type":"int256","internalType":"int256"}]},{"name":"totalCapacity","type":"uint256","internalType":"uint256"},{"name":"wallet","type":"address","internalType":"address"}]}],"outputs":[],"stateMutability":"nonpayable"},{"type":"function","name":"upgradeToAndCall","inputs":[{"name":"newImplementation","type":"address","internalType":"address"},{"name":"data","type":"bytes","internalType":"bytes"}],"outputs":[],"stateMutability":"payable"},{"type":"function","name":"venueContract","inputs":[],"outputs":[{"name":"","type":"address","internalType":"address"}],"stateMutability":"view"},{"type":"function","name":"venueRegistryContract","inputs":[],"outputs":[{"name":"","type":"address","internalType":"address"}],"stateMutability":"view"},{"type":"function","name":"venueRegistryInstance","inputs":[],"outputs":[{"name":"","type":"address","internalType":"contract IVenueRegistry"}],"stateMutability":"view"},{"type":"function","name":"walletToShowToTokenIds","inputs":[{"name":"","type":"bytes32","internalType":"bytes32"},{"name":"","type":"address","internalType":"address"},{"name":"","type":"uint256","internalType":"uint256"}],"outputs":[{"name":"","type":"uint256","internalType":"uint256"}],"stateMutability":"view"},{"type":"function","name":"withdrawRefund","inputs":[{"name":"showId","type":"bytes32","internalType":"bytes32"}],"outputs":[],"stateMutability":"nonpayable"},{"type":"event","name":"ExpiryUpdated","inputs":[{"name":"showId","type":"bytes32","indexed":true,"internalType":"bytes32"},{"name":"expiry","type":"uint256","indexed":false,"internalType":"uint256"}],"anonymous":false},{"type":"event","name":"Initialized","inputs":[{"name":"version","type":"uint64","indexed":false,"internalType":"uint64"}],"anonymous":false},{"type":"event","name":"OwnershipTransferred","inputs":[{"name":"previousOwner","type":"address","indexed":true,"internalType":"address"},{"name":"newOwner","type":"address","indexed":true,"internalType":"address"}],"anonymous":false},{"type":"event","name":"RefundWithdrawn","inputs":[{"name":"user","type":"address","indexed":true,"internalType":"address"},{"name":"showId","type":"bytes32","indexed":true,"internalType":"bytes32"},{"name":"amount","type":"uint256","indexed":false,"internalType":"uint256"}],"anonymous":false},{"type":"event","name":"ShowExpired","inputs":[{"name":"showId","type":"bytes32","indexed":true,"internalType":"bytes32"}],"anonymous":false},{"type":"event","name":"ShowProposed","inputs":[{"name":"showId","type":"bytes32","indexed":true,"internalType":"bytes32"},{"name":"organizer","type":"address","indexed":true,"internalType":"address"},{"name":"name","type":"string","indexed":false,"internalType":"string"},{"name":"artists","type":"address[]","indexed":false,"internalType":"address[]"},{"name":"description","type":"string","indexed":false,"internalType":"string"},{"name":"ticketPrice","type":"tuple","indexed":false,"internalType":"struct ShowTypes.TicketPrice","components":[{"name":"minPrice","type":"uint256","internalType":"uint256"},{"name":"maxPrice","type":"uint256","internalType":"uint256"}]},{"name":"sellOutThreshold","type":"uint256","indexed":false,"internalType":"uint256"},{"name":"split","type":"uint256[]","indexed":false,"internalType":"uint256[]"}],"anonymous":false},{"type":"event","name":"StatusUpdated","inputs":[{"name":"showId","type":"bytes32","indexed":true,"internalType":"bytes32"},{"name":"status","type":"uint8","indexed":false,"internalType":"enum ShowTypes.Status"}],"anonymous":false},{"type":"event","name":"TicketRefunded","inputs":[{"name":"user","type":"address","indexed":true,"internalType":"address"},{"name":"showId","type":"bytes32","indexed":true,"internalType":"bytes32"},{"name":"refundAmount","type":"uint256","indexed":false,"internalType":"uint256"}],"anonymous":false},{"type":"event","name":"Upgraded","inputs":[{"name":"implementation","type":"address","indexed":true,"internalType":"address"}],"anonymous":false},{"type":"event","name":"VenueUpdated","inputs":[{"name":"showId","type":"bytes32","indexed":true,"internalType":"bytes32"},{"name":"newVenue","type":"tuple","indexed":false,"internalType":"struct VenueTypes.Venue","components":[{"name":"name","type":"string","internalType":"string"},{"name":"coordinates","type":"tuple","internalType":"struct VenueTypes.Coordinates","components":[{"name":"lat","type":"int256","internalType":"int256"},{"name":"lon","type":"int256","internalType":"int256"}]},{"name":"totalCapacity","type":"uint256","internalType":"uint256"},{"name":"wallet","type":"address","internalType":"address"}]}],"anonymous":false},{"type":"event","name":"Withdrawal","inputs":[{"name":"showId","type":"bytes32","indexed":true,"internalType":"bytes32"},{"name":"recipient","type":"address","indexed":true,"internalType":"address"},{"name":"amount","type":"uint256","indexed":false,"internalType":"uint256"}],"anonymous":false},{"type":"error","name":"AddressEmptyCode","inputs":[{"name":"target","type":"address","internalType":"address"}]},{"type":"error","name":"ERC1967InvalidImplementation","inputs":[{"name":"implementation","type":"address","internalType":"address"}]},{"type":"error","name":"ERC1967NonPayable","inputs":[]},{"type":"error","name":"FailedInnerCall","inputs":[]},{"type":"error","name":"InvalidInitialization","inputs":[]},{"type":"error","name":"NotInitializing","inputs":[]},{"type":"error","name":"OwnableInvalidOwner","inputs":[{"name":"owner","type":"address","internalType":"address"}]},{"type":"error","name":"OwnableUnauthorizedAccount","inputs":[{"name":"account","type":"address","internalType":"address"}]},{"type":"error","name":"ReentrancyGuardReentrantCall","inputs":[]},{"type":"error","name":"UUPSUnauthorizedCallContext","inputs":[]},{"type":"error","name":"UUPSUnsupportedProxiableUUID","inputs":[{"name":"slot","type":"bytes32","internalType":"bytes32"}]}],"bytecode":{"object":"0x60a0604052306080526014805460ff60a01b1916905534801561002157600080fd5b506080516148dc61004b6000396000818161321701528181613240015261338601526148dc6000f3fe6080604052600436106103765760003560e01c8063787d76b8116101d1578063bafd4eb011610102578063cfefb3d5116100a0578063ef5023a51161006f578063ef5023a514610c05578063f2fde38b14610c25578063f812187314610c45578063fca4655914610c6557600080fd5b8063cfefb3d514610b85578063de44006f14610ba5578063e30228be14610bc5578063e9acfa7c14610be557600080fd5b8063c4d66de8116100dc578063c4d66de814610abc578063c56f70fd14610adc578063c6ab848a14610afc578063c73a839c14610b1c57600080fd5b8063bafd4eb014610a29578063bd47dc5c14610a64578063be44d38d14610a8457600080fd5b80638dea15a11161016f578063977cb89e11610149578063977cb89e14610972578063a03f4efe146109ab578063a2c8624c146109cb578063ad3cb1cc146109eb57600080fd5b80638dea15a1146108ed578063925e8f891461090d57806393d4e1001461093a57600080fd5b806385266635116101ab578063852666351461085057806385ffa16c14610863578063867e68af146108835780638da5cb5b146108b057600080fd5b8063787d76b8146107f05780637d8d6a22146108105780637dad19db1461083057600080fd5b806346079335116102ab5780635b9a1e0911610249578063620ec1e411610223578063620ec1e41461076b57806366bc64cd1461079b578063703ee4e5146107bb578063715018a6146107db57600080fd5b80635b9a1e09146106cd5780635c37da69146106fa578063610418701461073e57600080fd5b80634f1ef286116102855780634f1ef28614610665578063518193351461067857806352d1902d1461069857806358a86e1d146106ad57600080fd5b806346079335146105ac57806346c2c8a7146105e75780634ed372da1461062757600080fd5b80631cf2103e1161031857806331a68da0116102f257806331a68da01461052c5780633c60d2d61461054c57806341adf3ad1461056c5780634365c06e1461058c57600080fd5b80631cf2103e1461049e57806327b1bf52146104be5780632f18ddfe146104f457600080fd5b80630d08c3c9116103545780630d08c3c91461040a578063129e086b1461042a578063164889061461044a5780631a348e621461046e57600080fd5b80630233ce6a1461037b57806302c9a8b5146103b8578063054372ed146103e8575b600080fd5b34801561038757600080fd5b5060105461039b906001600160a01b031681565b6040516001600160a01b0390911681526020015b60405180910390f35b3480156103c457600080fd5b506103d86103d3366004613a51565b610c9e565b60405190151581526020016103af565b3480156103f457600080fd5b50610408610403366004613a7d565b610ccb565b005b34801561041657600080fd5b50610408610425366004613ab1565b610d8c565b34801561043657600080fd5b50610408610445366004613ad3565b610e71565b34801561045657600080fd5b5061046060015481565b6040519081526020016103af565b34801561047a57600080fd5b50610460610489366004613ad3565b6000908152600260205260409020600d015490565b3480156104aa57600080fd5b5060135461039b906001600160a01b031681565b3480156104ca57600080fd5b506104de6104d9366004613ad3565b61136a565b6040516103af9a99989796959493929190613c0c565b34801561050057600080fd5b5061046061050f366004613ab1565b600760209081526000928352604080842090915290825290205481565b34801561053857600080fd5b50600f5461039b906001600160a01b031681565b34801561055857600080fd5b50610408610567366004613ab1565b6116a7565b34801561057857600080fd5b50600d5461039b906001600160a01b031681565b34801561059857600080fd5b506104086105a7366004613ad3565b611af0565b3480156105b857600080fd5b506103d86105c7366004613a51565b600860209081526000928352604080842090915290825290205460ff1681565b3480156105f357600080fd5b5061061a610602366004613ad3565b6000908152600260205260409020600f015460ff1690565b6040516103af9190613cb8565b34801561063357600080fd5b506103d8610642366004613a51565b6000908152600260205260409020600301546001600160a01b0391821691161490565b610408610673366004613d9c565b611bae565b34801561068457600080fd5b50600b5461039b906001600160a01b031681565b3480156106a457600080fd5b50610460611bc9565b3480156106b957600080fd5b50600a5461039b906001600160a01b031681565b3480156106d957600080fd5b506106ed6106e8366004613e00565b611be6565b6040516103af9190613e55565b34801561070657600080fd5b506103d8610715366004613a51565b60009081526009602090815260408083206001600160a01b039490941683529290522054151590565b34801561074a57600080fd5b50610460610759366004613ad3565b60009081526006602052604090205490565b34801561077757600080fd5b50610460610786366004613ad3565b6000908152600260205260409020600e015490565b3480156107a757600080fd5b50600e5461039b906001600160a01b031681565b3480156107c757600080fd5b5060145461039b906001600160a01b031681565b3480156107e757600080fd5b50610408611c5a565b3480156107fc57600080fd5b5061040861080b366004613ab1565b611c6e565b34801561081c57600080fd5b5061046061082b366004613e68565b611cc8565b34801561083c57600080fd5b50600c5461039b906001600160a01b031681565b61040861085e366004613ad3565b611d06565b34801561086f57600080fd5b5061046061087e366004613ad3565b611d75565b34801561088f57600080fd5b5061046061089e366004613ad3565b60046020526000908152604090205481565b3480156108bc57600080fd5b507f9016d09d72d40fdae2fd8ceac6b6234c7706214fd39c1cd1e609a0528c199300546001600160a01b031661039b565b3480156108f957600080fd5b5060125461039b906001600160a01b031681565b34801561091957600080fd5b50610460610928366004613ad3565b60066020526000908152604090205481565b34801561094657600080fd5b50610460610955366004613ab1565b600091825260076020908152604080842092845291905290205490565b34801561097e57600080fd5b5061039b61098d366004613ad3565b6000908152600260205260409020600301546001600160a01b031690565b3480156109b757600080fd5b506103d86109c6366004613ea0565b611d99565b3480156109d757600080fd5b506104606109e6366004614048565b611e59565b3480156109f757600080fd5b50610a1c604051806040016040528060058152602001640352e302e360dc1b81525081565b6040516103af919061413e565b348015610a3557600080fd5b506103d8610a44366004613e00565b600360209081526000928352604080842090915290825290205460ff1681565b348015610a7057600080fd5b50610408610a7f366004614151565b61262e565b348015610a9057600080fd5b50610460610a9f366004613e00565b600560209081526000928352604080842090915290825290205481565b348015610ac857600080fd5b50610408610ad736600461417d565b612674565b348015610ae857600080fd5b50610408610af736600461419a565b6127a7565b348015610b0857600080fd5b5060115461039b906001600160a01b031681565b348015610b2857600080fd5b50610b78610b37366004613ad3565b6040805180820190915260008082526020820152506000908152600260209081526040918290208251808401909352600b8101548352600c01549082015290565b6040516103af9190614245565b348015610b9157600080fd5b50610408610ba0366004613ad3565b612879565b348015610bb157600080fd5b50610408610bc0366004613e68565b612a8d565b348015610bd157600080fd5b5060155461039b906001600160a01b031681565b348015610bf157600080fd5b50610408610c00366004613ad3565b612aee565b348015610c1157600080fd5b50610408610c20366004613ad3565b612c5a565b348015610c3157600080fd5b50610408610c4036600461417d565b612d8b565b348015610c5157600080fd5b50610408610c6036600461425c565b612dc6565b348015610c7157600080fd5b50610c85610c80366004613ad3565b612eaa565b6040516103af9d9c9b9a999897969594939291906142de565b60008181526003602090815260408083206001600160a01b038616845290915290205460ff165b92915050565b600b546001600160a01b0316331480610cee5750600a546001600160a01b031633145b80610cf857503330145b610d1d5760405162461bcd60e51b8152600401610d1490614390565b60405180910390fd5b6000828152600260205260409020600f01805482919060ff19166001836007811115610d4b57610d4b613bd4565b0217905550817f8ed894b6f384ca9c829b9aa5b056bc9106a90845a15616607e975d4ad488ee6782604051610d809190613cb8565b60405180910390a25050565b600a546001600160a01b03163314610db65760405162461bcd60e51b8152600401610d14906143fe565b6000828152600260205260408120600f015460ff166007811115610ddc57610ddc613bd4565b14610e295760405162461bcd60e51b815260206004820152601f60248201527f53686f77206d75737420626520696e2050726f706f73656420737461747573006044820152606401610d14565b600082815260026020526040908190206011018290555182907fe4f26fcd7ae101f4d7c47cac6fc616fbb05e9b41e67b7a00b67b35f13654fce090610d809084815260200190565b600a546001600160a01b03163314610e9b5760405162461bcd60e51b8152600401610d14906143fe565b600081815260026020819052604090912090600f82015460ff166007811115610ec657610ec6613bd4565b14610f0b5760405162461bcd60e51b815260206004820152601560248201527414da1bddc81b5d5cdd081899481058d8d95c1d1959605a1b6044820152606401610d14565b60008281526004602052604090205480610f605760405162461bcd60e51b81526020600482015260166024820152754e6f2066756e647320746f206469737472696275746560501b6044820152606401610d14565b600082601001805480602002602001604051908101604052809291908181526020018280548015610fb057602002820191906000526020600020905b815481526020019060010190808311610f9c575b505050505090506000606483610fc69190614463565b60008681526005602090815260408083206015546001600160a01b0316845290915290208190559050610ff98184614485565b9250600060648360008151811061101257611012614498565b60200260200101518561102591906144ae565b61102f9190614463565b600087815260056020908152604080832060038a01546001600160a01b0316845290915281208290559091505b600486015481101561110a5760006064856110788460016144c5565b8151811061108857611088614498565b60200260200101518761109b91906144ae565b6110a59190614463565b905080600560008a815260200190815260200160002060008960040185815481106110d2576110d2614498565b60009182526020808320909101546001600160a01b031683528201929092526040019020555080611102816144d8565b91505061105c565b5060006064846001865161111e9190614485565b8151811061112e5761112e614498565b60200260200101518661114191906144ae565b61114b9190614463565b600088815260056020908152604080832060098b01546001600160a01b0390811685529083528184208590558b845260049283905281842093909355600f8a01805460ff19168317905560115460038b0154915163416b56db60e01b815294955083169363416b56db936111c99392169160019182918291016144f1565b600060405180830381600087803b1580156111e357600080fd5b505af11580156111f7573d6000803e3d6000fd5b5050505060005b60048701548110156112b8576011546004880180546001600160a01b039092169163416b56db91908490811061123657611236614498565b6000918252602090912001546040516001600160e01b031960e084901b168152611273916001600160a01b031690600190819081906004016144f1565b600060405180830381600087803b15801561128d57600080fd5b505af11580156112a1573d6000803e3d6000fd5b5050505080806112b0906144d8565b9150506111fe565b50601154600987015460405163416b56db60e01b81526001600160a01b039283169263416b56db926112f692911690600190819081906004016144f1565b600060405180830381600087803b15801561131057600080fd5b505af1158015611324573d6000803e3d6000fd5b50505050867f8ed894b6f384ca9c829b9aa5b056bc9106a90845a15616607e975d4ad488ee6760046040516113599190613cb8565b60405180910390a250505050505050565b60608060006060611379613944565b6040805180820190915260008082526020820152600087815260026020819052604082206003810154600d820154600e830154600f84015460018501805488978897889790969395918701946001600160a01b039091169360048801936005890193600b8a0193909160ff80831692610100900416908a906113fa90614517565b80601f016020809104026020016040519081016040528092919081815260200182805461142690614517565b80156114735780601f1061144857610100808354040283529160200191611473565b820191906000526020600020905b81548152906001019060200180831161145657829003601f168201915b5050505050995088805461148690614517565b80601f01602080910402602001604051908101604052809291908181526020018280546114b290614517565b80156114ff5780601f106114d4576101008083540402835291602001916114ff565b820191906000526020600020905b8154815290600101906020018083116114e257829003601f168201915b505050505098508680548060200260200160405190810160405280929190818152602001828054801561155b57602002820191906000526020600020905b81546001600160a01b0316815260019091019060200180831161153d575b505050505096508560405180608001604052908160008201805461157e90614517565b80601f01602080910402602001604051908101604052809291908181526020018280546115aa90614517565b80156115f75780601f106115cc576101008083540402835291602001916115f7565b820191906000526020600020905b8154815290600101906020018083116115da57829003601f168201915b5050505050815260200160018201604051806040016040529081600082015481526020016001820154815250508152602001600382015481526020016004820160009054906101000a90046001600160a01b03166001600160a01b03166001600160a01b0316815250509550846040518060400160405290816000820154815260200160018201548152505094509a509a509a509a509a509a509a509a509a509a50509193959799509193959799565b6000828152600260205260408120600f015460ff1660078111156116cd576116cd613bd4565b14806116fe575060056000838152600260205260409020600f015460ff1660078111156116fc576116fc613bd4565b145b8061172e575060076000838152600260205260409020600f015460ff16600781111561172c5761172c613bd4565b145b61176d5760405162461bcd60e51b815260206004820152601060248201526f119d5b991cc8185c99481b1bd8dad95960821b6044820152606401610d14565b611778338383611d99565b6117d75760405162461bcd60e51b815260206004820152602a60248201527f5573657220646f6573206e6f74206f776e20746865207469636b657420666f7260448201526920746869732073686f7760b01b6064820152608401610d14565b6000828152600760209081526040808320848452909152812054116118355760405162461bcd60e51b8152602060048201526014602482015273151a58dad95d081b9bdd081c1d5c98da185cd95960621b6044820152606401610d14565b60008281526007602090815260408083208484528252808320548584526006909252909120546118a75760405162461bcd60e51b815260206004820152601d60248201527f4e6f207469636b65747320736f6c6420666f7220746869732073686f770000006044820152606401610d14565b60008381526006602052604081208054916118c183614551565b909155505060008381526007602090815260408083208584529091528120556118eb83338461312d565b6010546040516387f9ca5d60e01b815260048101849052600160248201523360448201526001600160a01b03909116906387f9ca5d90606401600060405180830381600087803b15801561193e57600080fd5b505af1158015611952573d6000803e3d6000fd5b5050505060006064611973856000908152600260205260409020600e015490565b6000868152600260205260409020600d015461198f91906144ae565b6119999190614463565b6000858152600460205260409020549091508211156119fa5760405162461bcd60e51b815260206004820181905260248201527f496e73756666696369656e742066756e647320696e2073686f77207661756c746044820152606401610d14565b6000848152600660205260409020548110611a6157600084815260026020526040808220600f01805460ff191690555185917f8ed894b6f384ca9c829b9aa5b056bc9106a90845a15616607e975d4ad488ee6791611a589190613cb8565b60405180910390a25b60008481526004602052604081208054849290611a7f908490614485565b9091555050600084815260056020908152604080832033845290915281208054849290611aad9084906144c5565b9091555050604051828152849033907f6327daeea6ce26abf9f96cd84eee9cb40d1d5b88f7f5990914540e392446bf04906020015b60405180910390a350505050565b600a546001600160a01b03163314611b1a5760405162461bcd60e51b8152600401610d14906143fe565b600081815260026020526040902060118101544210801590611b5557506007600f82015460ff166007811115611b5257611b52613bd4565b14155b15611baa57600f8101805460ff1916600717905560018054906000611b7983614551565b909155505060405182907f82b7e047c31ec5019ec913d8f5f2257c393096c9e63f6214f001f4b27e4dc0c890600090a25b5050565b611bb661320c565b611bbf826132b1565b611baa82826132b9565b6000611bd361337b565b5060008051602061488783398151915290565b60008281526009602090815260408083206001600160a01b0385168452825291829020805483518184028101840190945280845260609392830182828015611c4d57602002820191906000526020600020905b815481526020019060010190808311611c39575b5050505050905092915050565b611c626133c4565b611c6c600061341f565b565b600a546001600160a01b03163314611c985760405162461bcd60e51b8152600401610d14906143fe565b600082815260066020526040902054611cb29082906144c5565b6000928352600660205260409092209190915550565b60096020528260005260406000206020528160005260406000208181548110611cf057600080fd5b9060005260206000200160009250925050505481565b600b546001600160a01b0316331480611d295750600a546001600160a01b031633145b80611d3357503330145b611d4f5760405162461bcd60e51b8152600401610d1490614390565b60008181526004602052604081208054349290611d6d9084906144c5565b909155505050565b600081815260026020526040812060040154611d928160016144c5565b9392505050565b60008281526009602090815260408083206001600160a01b0387168452825280832080548251818502810185019093528083528493830182828015611dfd57602002820191906000526020600020905b815481526020019060010190808311611de9575b5050505050905060005b8151811015611e4d5783828281518110611e2357611e23614498565b602002602001015103611e3b57600192505050611d92565b80611e45816144d8565b915050611e07565b50600095945050505050565b6000808a5111611e9e5760405162461bcd60e51b815260206004820152601060248201526f13985b59481a5cc81c995c5d5a5c995960821b6044820152606401610d14565b60008611611efa5760405162461bcd60e51b815260206004820152602360248201527f56656e756520726164697573206d75737420626520677265617465722074686160448201526206e20360ec1b6064820152608401610d14565b60008411611f585760405162461bcd60e51b815260206004820152602560248201527f546f74616c206361706163697479206d75737420626520677265617465722074604482015264068616e20360dc1b6064820152608401610d14565b6000885111611fa95760405162461bcd60e51b815260206004820152601c60248201527f4174206c65617374206f6e6520617274697374207265717569726564000000006044820152606401610d14565b8251602084015110156120245760405162461bcd60e51b815260206004820152603d60248201527f4d6178207469636b6574207072696365206d757374206265206772656174657260448201527f206f7220657175616c20746f206d696e207469636b65742070726963650000006064820152608401610d14565b60328560ff161015801561203c575060648560ff1611155b61209e5760405162461bcd60e51b815260206004820152602d60248201527f53656c6c2d6f7574207468726573686f6c64206d75737420626520626574776560448201526c0656e20353020616e642031303609c1b6064820152608401610d14565b865163055d4a7f19138015906120b95750865163055d4a8012155b6120f85760405162461bcd60e51b815260206004820152601060248201526f496e76616c6964206c6174697475646560801b6044820152606401610d14565b630aba94ff198760200151121580156121195750630aba9500876020015113155b6121595760405162461bcd60e51b8152602060048201526011602482015270496e76616c6964206c6f6e67697475646560781b6044820152606401610d14565b601454600160a01b900460ff166121b25760405162461bcd60e51b815260206004820152601e60248201527f436f6e747261637420616464726573736573206d7573742062652073657400006044820152606401610d14565b6121bb33613490565b6122075760405162461bcd60e51b815260206004820152601c60248201527f4f7267616e697a6572206d7573742062652072656769737465726564000000006044820152606401610d14565b60005b88518110156122935761223589828151811061222857612228614498565b6020026020010151613520565b6122815760405162461bcd60e51b815260206004820152601e60248201527f416c6c2061727469737473206d757374206265207265676973746572656400006044820152606401610d14565b8061228b816144d8565b91505061220a565b5061229f828951613556565b86516020808901516040516122c09333938d9391928c918c918c9101614568565b60405160208183030381529060405280519060200120905060004262278d006122e991906144c5565b9050600060405180608001604052806040518060200160405280600081525081526020018a815260200187815260200160006001600160a01b03168152509050604051806101e001604052808481526020018d81526020018c8152602001336001600160a01b031681526020018b81526020018281526020018981526020018681526020018860ff1681526020018781526020016000600781111561239057612390613bd4565b81526001602080830182905260408084018990526060840187905260006080909401849052878452600282529092208351815591830151908201906123d5908261462f565b50604082015160028201906123ea908261462f565b5060608201516003820180546001600160a01b0319166001600160a01b039092169190911790556080820151805161242c916004840191602090910190613987565b5060a0820151805160058301908190612445908261462f565b50602082810151805160018481019190915590820151600284015560408401516003840155606090930151600490920180546001600160a01b0319166001600160a01b039093169290921790915560c0840151600a84015560e08401518051600b8501550151600c830155610100830151600d830155610120830151600e830155610140830151600f830180549192909160ff1916908360078111156124ed576124ed613bd4565b0217905550610160820151600f820180549115156101000261ff0019909216919091179055610180820151805161252e9160108401916020909101906139ec565b506101a082015160118201556101c09091015160129091015560005b8a518110156125bd5760008481526003602052604081208c51600192908e908590811061257957612579614498565b6020908102919091018101516001600160a01b03168252810191909152604001600020805460ff1916911515919091179055806125b5816144d8565b91505061254a565b50600180549060006125ce836144d8565b9190505550336001600160a01b0316837f5829640c990aaf491e04dbb3bede81c191d55a802b99b9194101fa3adece09e08e8d8f8a8d8b604051612617969594939291906146ef565b60405180910390a350509998505050505050505050565b600a546001600160a01b031633146126585760405162461bcd60e51b8152600401610d14906143fe565b6000928352600760209081526040808520938552929052912055565b7ff0c57e16840df040f15088dc2f81fe391c3923bec73e23a9662efc9c229c6a008054600160401b810460ff16159067ffffffffffffffff166000811580156126ba5750825b905060008267ffffffffffffffff1660011480156126d75750303b155b9050811580156126e5575080155b156127035760405163f92ee8a960e01b815260040160405180910390fd5b845467ffffffffffffffff19166001178555831561272d57845460ff60401b1916600160401b1785555b612735613685565b61273e86613695565b601580546001600160a01b0319166001600160a01b038816179055831561279f57845460ff60401b19168555604051600181527fc7f505b2f371ae2175ee4913f4499e1f2633a7b5936321eed1cdaeb6115181d29060200160405180910390a15b505050505050565b600b546001600160a01b031633146127d15760405162461bcd60e51b8152600401610d14906143fe565b600082815260026020526040902081518290600583019081906127f4908261462f565b5060208281015180516001840155015160028201556040808301516003830155606090920151600490910180546001600160a01b0319166001600160a01b039092169190911790555183907f7ff310b69b4d32bc970badd2c29e0539de33aad17a7679f5484eb09ad6fd5fc69061286c908590614763565b60405180910390a2505050565b60008181526002602052604090206003015481906001600160a01b03163314806128a857506128a83382610c9e565b6128e55760405162461bcd60e51b815260206004820152600e60248201526d139bdd08185d5d1a1bdc9a5e995960921b6044820152606401610d14565b60008281526002602052604090206004600f82015460ff16600781111561290e5761290e613bd4565b146129545760405162461bcd60e51b815260206004820152601660248201527514da1bddc81b5d5cdd0818994810dbdb5c1b195d195960521b6044820152606401610d14565b6012810154612966906202a3006144c5565b42146129b45760405162461bcd60e51b815260206004820152601c60248201527f53686f7720636f6f6c20646f776e20686173206e6f7420656e646564000000006044820152606401610d14565b600083815260056020908152604080832033845290915290205480612a125760405162461bcd60e51b81526020600482015260146024820152734e6f2066756e647320746f20776974686472617760601b6044820152606401610d14565b600084815260056020908152604080832033808552925280832083905551909183156108fc02918491818181858888f19350505050158015612a58573d6000803e3d6000fd5b50604051818152339085907f028ab133c73f6c00ad0c5896ef40eff18378acd3d7f2ecf573c2706582bf73bf90602001611ae2565b600a546001600160a01b03163314612ab75760405162461bcd60e51b8152600401610d14906143fe565b60009283526009602090815260408085206001600160a01b0390941685529281529183208054600181018255908452919092200155565b612af66136a6565b600081815260056020908152604080832033845290915290205480612b545760405162461bcd60e51b81526020600482015260146024820152734e6f2066756e647320746f20776974686472617760601b6044820152606401610d14565b80471015612baf5760405162461bcd60e51b815260206004820152602260248201527f496e73756666696369656e742066756e647320696e2074686520636f6e74726160448201526118dd60f21b6064820152608401610d14565b600082815260056020908152604080832033808552925280832083905551909183156108fc02918491818181858888f19350505050158015612bf5573d6000803e3d6000fd5b50604051818152829033907fa4d59773de0ef2d6faf35ac70331de09c09cb20909bf7453dd0d620524bd1fc99060200160405180910390a350612c5760017f9b779b17422d0df92223018b32b4d1fa46e071723d6817e2486d003becc55f0055565b50565b60008181526002602052604090206003015481906001600160a01b0316331480612c895750612c893382610c9e565b612cc65760405162461bcd60e51b815260206004820152600e60248201526d139bdd08185d5d1a1bdc9a5e995960921b6044820152606401610d14565b60008281526002602052604090206001600f82015460ff166007811115612cef57612cef613bd4565b1480612d1357506002600f82015460ff166007811115612d1157612d11613bd4565b145b80612d3657506003600f82015460ff166007811115612d3457612d34613bd4565b145b612d795760405162461bcd60e51b815260206004820152601460248201527353686f77206d7573742062652050656e64696e6760601b6044820152606401610d14565b600f01805460ff191660051790555050565b612d936133c4565b6001600160a01b038116612dbd57604051631e4fbdf760e01b815260006004820152602401610d14565b612c578161341f565b601454600160a01b900460ff1615612e205760405162461bcd60e51b815260206004820152601e60248201527f50726f746f636f6c2061646472657373657320616c72656164792073657400006044820152606401610d14565b600a80546001600160a01b039788166001600160a01b03199182168117909255600b805497891697821697909717909655601080548716909117905560118054948716948616949094179093556012805492861692851692909217909155601380549185169190931617909155601480546001600160a81b0319169190921617600160a01b179055565b60026020526000908152604090208054600182018054919291612ecc90614517565b80601f0160208091040260200160405190810160405280929190818152602001828054612ef890614517565b8015612f455780601f10612f1a57610100808354040283529160200191612f45565b820191906000526020600020905b815481529060010190602001808311612f2857829003601f168201915b505050505090806002018054612f5a90614517565b80601f0160208091040260200160405190810160405280929190818152602001828054612f8690614517565b8015612fd35780601f10612fa857610100808354040283529160200191612fd3565b820191906000526020600020905b815481529060010190602001808311612fb657829003601f168201915b5050505050908060030160009054906101000a90046001600160a01b0316908060050160405180608001604052908160008201805461301190614517565b80601f016020809104026020016040519081016040528092919081815260200182805461303d90614517565b801561308a5780601f1061305f5761010080835404028352916020019161308a565b820191906000526020600020905b81548152906001019060200180831161306d57829003601f168201915b5050509183525050604080518082018252600184015481526002840154602082810191909152808401919091526003840154828401526004909301546001600160a01b0316606090920191909152600a8401548151808301909252600b8501548252600c85015492820192909252600d840154600e850154600f86015460118701546012909701549596949593949293919260ff8083169361010090930416918d565b60008381526009602090815260408083206001600160a01b03861684529091528120905b8154811015613205578282828154811061316d5761316d614498565b9060005260206000200154036131f3578154829061318d90600190614485565b8154811061319d5761319d614498565b90600052602060002001548282815481106131ba576131ba614498565b9060005260206000200181905550818054806131d8576131d8614776565b60019003818190600052602060002001600090559055613205565b806131fd816144d8565b915050613151565b5050505050565b306001600160a01b037f000000000000000000000000000000000000000000000000000000000000000016148061329357507f00000000000000000000000000000000000000000000000000000000000000006001600160a01b0316613287600080516020614887833981519152546001600160a01b031690565b6001600160a01b031614155b15611c6c5760405163703e46dd60e11b815260040160405180910390fd5b612c576133c4565b816001600160a01b03166352d1902d6040518163ffffffff1660e01b8152600401602060405180830381865afa925050508015613313575060408051601f3d908101601f191682019092526133109181019061478c565b60015b61333b57604051634c9c8ce360e01b81526001600160a01b0383166004820152602401610d14565b600080516020614887833981519152811461336c57604051632a87526960e21b815260048101829052602401610d14565b6133768383613716565b505050565b306001600160a01b037f00000000000000000000000000000000000000000000000000000000000000001614611c6c5760405163703e46dd60e11b815260040160405180910390fd5b336133f67f9016d09d72d40fdae2fd8ceac6b6234c7706214fd39c1cd1e609a0528c199300546001600160a01b031690565b6001600160a01b031614611c6c5760405163118cdaa760e01b8152336004820152602401610d14565b7f9016d09d72d40fdae2fd8ceac6b6234c7706214fd39c1cd1e609a0528c19930080546001600160a01b031981166001600160a01b03848116918217845560405192169182907f8be0079c531659141344cd1fd0a4f28419497f9722a3daafe3b4186f6b6457e090600090a3505050565b601354604051634092f2b760e01b81526001600160a01b0383811660048301526000928392911690634092f2b7906024015b600060405180830381865afa1580156134df573d6000803e3d6000fd5b505050506040513d6000823e601f3d908101601f1916820160405261350791908101906147f2565b6001600160a01b03908116951694909414949350505050565b601254604051632e52720160e21b81526001600160a01b038381166004830152600092839291169063b949c804906024016134c2565b6135618160026144c5565b8251146135e45760405162461bcd60e51b8152602060048201526044602482018190527f53706c6974206172726179206d75737420686176652061206c656e6774682065908201527f7175616c20746f20746865206e756d626572206f66206172746973747320706c6064820152633ab9901960e11b608482015260a401610d14565b6000805b835181101561362a5783818151811061360357613603614498565b60200260200101518261361691906144c5565b915080613622816144d8565b9150506135e8565b50806064146133765760405162461bcd60e51b815260206004820152602160248201527f53706c69742070657263656e7461676573206d7573742073756d20746f2031306044820152600360fc1b6064820152608401610d14565b61368d61376c565b611c6c6137b5565b61369d61376c565b612c57816137bd565b7f9b779b17422d0df92223018b32b4d1fa46e071723d6817e2486d003becc55f008054600119016136ea57604051633ee5aeb560e01b815260040160405180910390fd5b60029055565b60017f9b779b17422d0df92223018b32b4d1fa46e071723d6817e2486d003becc55f0055565b61371f826137c5565b6040516001600160a01b038316907fbc7cd75a20ee27fd9adebab32041f755214dbc6bffa90cc0225b39da2e5c2d3b90600090a280511561376457613376828261382a565b611baa6138a0565b7ff0c57e16840df040f15088dc2f81fe391c3923bec73e23a9662efc9c229c6a0054600160401b900460ff16611c6c57604051631afcd79f60e31b815260040160405180910390fd5b6136f061376c565b612d9361376c565b806001600160a01b03163b6000036137fb57604051634c9c8ce360e01b81526001600160a01b0382166004820152602401610d14565b60008051602061488783398151915280546001600160a01b0319166001600160a01b0392909216919091179055565b6060600080846001600160a01b031684604051613847919061486a565b600060405180830381855af49150503d8060008114613882576040519150601f19603f3d011682016040523d82523d6000602084013e613887565b606091505b50915091506138978583836138bf565b95945050505050565b3415611c6c5760405163b398979f60e01b815260040160405180910390fd5b6060826138d4576138cf8261391b565b611d92565b81511580156138eb57506001600160a01b0384163b155b1561391457604051639996b31560e01b81526001600160a01b0385166004820152602401610d14565b5080611d92565b80511561392b5780518082602001fd5b604051630a12f52160e11b815260040160405180910390fd5b604051806080016040528060608152602001613973604051806040016040528060008152602001600081525090565b815260006020820181905260409091015290565b8280548282559060005260206000209081019282156139dc579160200282015b828111156139dc57825182546001600160a01b0319166001600160a01b039091161782556020909201916001909101906139a7565b506139e8929150613a27565b5090565b8280548282559060005260206000209081019282156139dc579160200282015b828111156139dc578251825591602001919060010190613a0c565b5b808211156139e85760008155600101613a28565b6001600160a01b0381168114612c5757600080fd5b60008060408385031215613a6457600080fd5b8235613a6f81613a3c565b946020939093013593505050565b60008060408385031215613a9057600080fd5b82359150602083013560088110613aa657600080fd5b809150509250929050565b60008060408385031215613ac457600080fd5b50508035926020909101359150565b600060208284031215613ae557600080fd5b5035919050565b60005b83811015613b07578181015183820152602001613aef565b50506000910152565b60008151808452613b28816020860160208601613aec565b601f01601f19169290920160200192915050565b600081518084526020808501945080840160005b83811015613b755781516001600160a01b031687529582019590820190600101613b50565b509495945050505050565b6000815160a08452613b9560a0850182613b10565b6020848101518051878301520151604080870191909152840151606080870191909152909301516001600160a01b031660809094019390935250919050565b634e487b7160e01b600052602160045260246000fd5b60088110613c0857634e487b7160e01b600052602160045260246000fd5b9052565b6000610160808352613c208184018e613b10565b90508281036020840152613c34818d613b10565b6001600160a01b038c16604085015283810360608501529050613c57818b613b3c565b90508281036080840152613c6b818a613b80565b885160a0850152602089015160c08501529150613c859050565b8560e083015284610100830152613ca0610120830185613bea565b8215156101408301529b9a5050505050505050505050565b60208101610cc58284613bea565b634e487b7160e01b600052604160045260246000fd5b6040516080810167ffffffffffffffff81118282101715613cff57613cff613cc6565b60405290565b604051601f8201601f1916810167ffffffffffffffff81118282101715613d2e57613d2e613cc6565b604052919050565b600067ffffffffffffffff821115613d5057613d50613cc6565b50601f01601f191660200190565b6000613d71613d6c84613d36565b613d05565b9050828152838383011115613d8557600080fd5b828260208301376000602084830101529392505050565b60008060408385031215613daf57600080fd5b8235613dba81613a3c565b9150602083013567ffffffffffffffff811115613dd657600080fd5b8301601f81018513613de757600080fd5b613df685823560208401613d5e565b9150509250929050565b60008060408385031215613e1357600080fd5b823591506020830135613aa681613a3c565b600081518084526020808501945080840160005b83811015613b7557815187529582019590820190600101613e39565b602081526000611d926020830184613e25565b600080600060608486031215613e7d57600080fd5b833592506020840135613e8f81613a3c565b929592945050506040919091013590565b600080600060608486031215613eb557600080fd5b8335613ec081613a3c565b95602085013595506040909401359392505050565b600082601f830112613ee657600080fd5b611d9283833560208501613d5e565b600067ffffffffffffffff821115613f0f57613f0f613cc6565b5060051b60200190565b600082601f830112613f2a57600080fd5b81356020613f3a613d6c83613ef5565b82815260059290921b84018101918181019086841115613f5957600080fd5b8286015b84811015613f7d578035613f7081613a3c565b8352918301918301613f5d565b509695505050505050565b600060408284031215613f9a57600080fd5b6040516040810181811067ffffffffffffffff82111715613fbd57613fbd613cc6565b604052823581526020928301359281019290925250919050565b803560ff81168114613fe857600080fd5b919050565b600082601f830112613ffe57600080fd5b8135602061400e613d6c83613ef5565b82815260059290921b8401810191818101908684111561402d57600080fd5b8286015b84811015613f7d5780358352918301918301614031565b60008060008060008060008060006101608a8c03121561406757600080fd5b893567ffffffffffffffff8082111561407f57600080fd5b61408b8d838e01613ed5565b9a5060208c01359150808211156140a157600080fd5b6140ad8d838e01613ed5565b995060408c01359150808211156140c357600080fd5b6140cf8d838e01613f19565b98506140de8d60608e01613f88565b975060a08c013596506140f360c08d01613fd7565b955060e08c0135945061410a8d6101008e01613f88565b93506101408c013591508082111561412157600080fd5b5061412e8c828d01613fed565b9150509295985092959850929598565b602081526000611d926020830184613b10565b60008060006060848603121561416657600080fd5b505081359360208301359350604090920135919050565b60006020828403121561418f57600080fd5b8135611d9281613a3c565b600080604083850312156141ad57600080fd5b82359150602083013567ffffffffffffffff808211156141cc57600080fd5b9084019060a082870312156141e057600080fd5b6141e8613cdc565b8235828111156141f757600080fd5b61420388828601613ed5565b8252506142138760208501613f88565b6020820152606083013560408201526080830135925061423283613a3c565b8260608201528093505050509250929050565b815181526020808301519082015260408101610cc5565b60008060008060008060c0878903121561427557600080fd5b863561428081613a3c565b9550602087013561429081613a3c565b945060408701356142a081613a3c565b935060608701356142b081613a3c565b925060808701356142c081613a3c565b915060a08701356142d081613a3c565b809150509295509295509295565b8d81526101c0602082015260006142f96101c083018f613b10565b828103604084015261430b818f613b10565b6001600160a01b038e1660608501528381036080850152905061432e818d613b80565b9150508960a083015261434e60c083018a80518252602090810151910152565b876101008301528661012083015261436a610140830187613bea565b8415156101608301526101808201939093526101a001529b9a5050505050505050505050565b60208082526048908201527f4f6e6c79207468652056656e75652c205469636b657420636f6e74726163742c60408201527f206f72207468697320636f6e74726163742063616e2063616c6c207468697320606082015267333ab731ba34b7b760c11b608082015260a00190565b6020808252602f908201527f4f6e6c7920746865205469636b657420636f6e74726163742063616e2063616c60408201526e36103a3434b990333ab731ba34b7b760891b606082015260800190565b634e487b7160e01b600052601160045260246000fd5b60008261448057634e487b7160e01b600052601260045260246000fd5b500490565b81810381811115610cc557610cc561444d565b634e487b7160e01b600052603260045260246000fd5b8082028115828204841417610cc557610cc561444d565b80820180821115610cc557610cc561444d565b6000600182016144ea576144ea61444d565b5060010190565b6001600160a01b0394909416845260208401929092526040830152606082015260800190565b600181811c9082168061452b57607f821691505b60208210810361454b57634e487b7160e01b600052602260045260246000fd5b50919050565b6000816145605761456061444d565b506000190190565b6bffffffffffffffffffffffff198860601b16815260006014820188516020808b0160005b838110156145b25781516001600160a01b03168552938201939082019060010161458d565b5050988252509687019590955250604085019290925260f81b6001600160f81b031916606084015260618301525060810192915050565b601f82111561337657600081815260208120601f850160051c810160208610156146105750805b601f850160051c820191505b8181101561279f5782815560010161461c565b815167ffffffffffffffff81111561464957614649613cc6565b61465d816146578454614517565b846145e9565b602080601f831160018114614692576000841561467a5750858301515b600019600386901b1c1916600185901b17855561279f565b600085815260208120601f198616915b828110156146c1578886015182559484019460019091019084016146a2565b50858210156146df5787850151600019600388901b60f8161c191681555b5050505050600190811b01905550565b60e08152600061470260e0830189613b10565b82810360208401526147148189613b3c565b905082810360408401526147288188613b10565b8651606085015260208701516080850152905060ff851660a084015282810360c08401526147568185613e25565b9998505050505050505050565b602081526000611d926020830184613b80565b634e487b7160e01b600052603160045260246000fd5b60006020828403121561479e57600080fd5b5051919050565b600082601f8301126147b657600080fd5b81516147c4613d6c82613d36565b8181528460208386010111156147d957600080fd5b6147ea826020830160208701613aec565b949350505050565b60008060006060848603121561480757600080fd5b835167ffffffffffffffff8082111561481f57600080fd5b61482b878388016147a5565b9450602086015191508082111561484157600080fd5b5061484e868287016147a5565b925050604084015161485f81613a3c565b809150509250925092565b6000825161487c818460208701613aec565b919091019291505056fe360894a13ba1a3210667c828492db98dca3e2076cc3735a920a3ca505d382bbca26469706673582212209f93fecf9097dfe4603bb0d842294858cd148106b5ab56bc5f0ae0a398ac997364736f6c63430008140033","linkReferences":{}},"methodIdentifiers":{"SELLOUT_PROTOCOL_WALLET()":"e30228be","UPGRADE_INTERFACE_VERSION()":"ad3cb1cc","activeShowCount()":"16488906","addTokenIdToWallet(bytes32,address,uint256)":"de44006f","artistRegistryContract()":"41adf3ad","artistRegistryInstance()":"8dea15a1","cancelShow(bytes32)":"ef5023a5","checkAndUpdateExpiry(bytes32)":"4365c06e","completeShow(bytes32)":"129e086b","depositToVault(bytes32)":"85266635","getNumberOfVoters(bytes32)":"85ffa16c","getOrganizer(bytes32)":"977cb89e","getSellOutThreshold(bytes32)":"1a348e62","getShowById(bytes32)":"27b1bf52","getShowStatus(bytes32)":"46c2c8a7","getTicketPrice(bytes32)":"c73a839c","getTicketPricePaid(bytes32,uint256)":"93d4e100","getTotalCapacity(bytes32)":"620ec1e4","getTotalTicketsSold(bytes32)":"61041870","getWalletTokenIds(bytes32,address)":"5b9a1e09","hasTicket(address,bytes32)":"5c37da69","initialize(address)":"c4d66de8","isArtist(address,bytes32)":"02c9a8b5","isArtistMapping(bytes32,address)":"bafd4eb0","isOrganizer(address,bytes32)":"4ed372da","isTicketOwner(address,bytes32,uint256)":"a03f4efe","organizerRegistryContract()":"66bc64cd","organizerRegistryInstance()":"1cf2103e","owner()":"8da5cb5b","payout(bytes32)":"cfefb3d5","pendingWithdrawals(bytes32,address)":"be44d38d","proposeShow(string,string,address[],(int256,int256),uint256,uint8,uint256,(uint256,uint256),uint256[])":"a2c8624c","proxiableUUID()":"52d1902d","referralContract()":"7dad19db","referralInstance()":"c6ab848a","refundTicket(bytes32,uint256)":"3c60d2d6","renounceOwnership()":"715018a6","setProtocolAddresses(address,address,address,address,address,address)":"f8121873","setTicketPricePaid(bytes32,uint256,uint256)":"bd47dc5c","setTotalTicketsSold(bytes32,uint256)":"787d76b8","showVault(bytes32)":"867e68af","shows(bytes32)":"fca46559","ticketContract()":"58a86e1d","ticketInstance()":"0233ce6a","ticketOwnership(address,bytes32)":"46079335","ticketPricePaid(bytes32,uint256)":"2f18ddfe","totalTicketsSold(bytes32)":"925e8f89","transferOwnership(address)":"f2fde38b","updateExpiry(bytes32,uint256)":"0d08c3c9","updateStatus(bytes32,uint8)":"054372ed","updateVenue(bytes32,(string,(int256,int256),uint256,address))":"c56f70fd","upgradeToAndCall(address,bytes)":"4f1ef286","venueContract()":"51819335","venueRegistryContract()":"31a68da0","venueRegistryInstance()":"703ee4e5","walletToShowToTokenIds(bytes32,address,uint256)":"7d8d6a22","withdrawRefund(bytes32)":"e9acfa7c"},"id":57}