{"abi":[{"type":"function","name":"SELLOUT_PROTOCOL_WALLET","inputs":[],"outputs":[{"name":"","type":"address","internalType":"address"}],"stateMutability":"view"},{"type":"function","name":"UPGRADE_INTERFACE_VERSION","inputs":[],"outputs":[{"name":"","type":"string","internalType":"string"}],"stateMutability":"view"},{"type":"function","name":"activeShowCount","inputs":[],"outputs":[{"name":"","type":"uint256","internalType":"uint256"}],"stateMutability":"view"},{"type":"function","name":"addTokenIdToWallet","inputs":[{"name":"showId","type":"bytes32","internalType":"bytes32"},{"name":"wallet","type":"address","internalType":"address"},{"name":"tokenId","type":"uint256","internalType":"uint256"}],"outputs":[],"stateMutability":"nonpayable"},{"type":"function","name":"artistRegistryContract","inputs":[],"outputs":[{"name":"","type":"address","internalType":"address"}],"stateMutability":"view"},{"type":"function","name":"artistRegistryInstance","inputs":[],"outputs":[{"name":"","type":"address","internalType":"contract IArtistRegistry"}],"stateMutability":"view"},{"type":"function","name":"cancelShow","inputs":[{"name":"showId","type":"bytes32","internalType":"bytes32"}],"outputs":[],"stateMutability":"nonpayable"},{"type":"function","name":"completeShow","inputs":[{"name":"showId","type":"bytes32","internalType":"bytes32"}],"outputs":[],"stateMutability":"nonpayable"},{"type":"function","name":"consumeTicketTier","inputs":[{"name":"showId","type":"bytes32","internalType":"bytes32"},{"name":"tierIndex","type":"uint256","internalType":"uint256"},{"name":"amount","type":"uint256","internalType":"uint256"}],"outputs":[],"stateMutability":"nonpayable"},{"type":"function","name":"depositToVault","inputs":[{"name":"showId","type":"bytes32","internalType":"bytes32"}],"outputs":[],"stateMutability":"payable"},{"type":"function","name":"depositToVaultERC20","inputs":[{"name":"showId","type":"bytes32","internalType":"bytes32"},{"name":"amount","type":"uint256","internalType":"uint256"},{"name":"paymentToken","type":"address","internalType":"address"},{"name":"tokenRecipient","type":"address","internalType":"address"}],"outputs":[],"stateMutability":"nonpayable"},{"type":"function","name":"getNumberOfVoters","inputs":[{"name":"showId","type":"bytes32","internalType":"bytes32"}],"outputs":[{"name":"","type":"uint256","internalType":"uint256"}],"stateMutability":"view"},{"type":"function","name":"getOrganizer","inputs":[{"name":"showId","type":"bytes32","internalType":"bytes32"}],"outputs":[{"name":"","type":"address","internalType":"address"}],"stateMutability":"view"},{"type":"function","name":"getShowById","inputs":[{"name":"showId","type":"bytes32","internalType":"bytes32"}],"outputs":[{"name":"name","type":"string","internalType":"string"},{"name":"description","type":"string","internalType":"string"},{"name":"organizer","type":"address","internalType":"address"},{"name":"artists","type":"address[]","internalType":"address[]"},{"name":"venue","type":"tuple","internalType":"struct VenueTypes.Venue","components":[{"name":"name","type":"string","internalType":"string"},{"name":"coordinates","type":"tuple","internalType":"struct VenueTypes.Coordinates","components":[{"name":"lat","type":"int256","internalType":"int256"},{"name":"lon","type":"int256","internalType":"int256"}]},{"name":"totalCapacity","type":"uint256","internalType":"uint256"},{"name":"wallet","type":"address","internalType":"address"},{"name":"venueId","type":"bytes32","internalType":"bytes32"}]},{"name":"ticketTiers","type":"tuple[]","internalType":"struct ShowTypes.TicketTier[]","components":[{"name":"name","type":"string","internalType":"string"},{"name":"price","type":"uint256","internalType":"uint256"},{"name":"ticketsAvailable","type":"uint256","internalType":"uint256"}]},{"name":"sellOutThreshold","type":"uint256","internalType":"uint256"},{"name":"totalCapacity","type":"uint256","internalType":"uint256"},{"name":"status","type":"uint8","internalType":"enum ShowTypes.Status"},{"name":"isActive","type":"bool","internalType":"bool"},{"name":"currencyAddress","type":"address","internalType":"address"}],"stateMutability":"view"},{"type":"function","name":"getShowStatus","inputs":[{"name":"showId","type":"bytes32","internalType":"bytes32"}],"outputs":[{"name":"","type":"uint8","internalType":"enum ShowTypes.Status"}],"stateMutability":"view"},{"type":"function","name":"getTicketPricePaid","inputs":[{"name":"showId","type":"bytes32","internalType":"bytes32"},{"name":"ticketId","type":"uint256","internalType":"uint256"}],"outputs":[{"name":"","type":"uint256","internalType":"uint256"}],"stateMutability":"view"},{"type":"function","name":"getTicketTierInfo","inputs":[{"name":"showId","type":"bytes32","internalType":"bytes32"},{"name":"tierIndex","type":"uint256","internalType":"uint256"}],"outputs":[{"name":"name","type":"string","internalType":"string"},{"name":"price","type":"uint256","internalType":"uint256"},{"name":"ticketsAvailable","type":"uint256","internalType":"uint256"}],"stateMutability":"view"},{"type":"function","name":"getTotalTicketsSold","inputs":[{"name":"showId","type":"bytes32","internalType":"bytes32"}],"outputs":[{"name":"","type":"uint256","internalType":"uint256"}],"stateMutability":"view"},{"type":"function","name":"getWalletTokenIds","inputs":[{"name":"showId","type":"bytes32","internalType":"bytes32"},{"name":"wallet","type":"address","internalType":"address"}],"outputs":[{"name":"","type":"uint256[]","internalType":"uint256[]"}],"stateMutability":"view"},{"type":"function","name":"hasTicket","inputs":[{"name":"wallet","type":"address","internalType":"address"},{"name":"showId","type":"bytes32","internalType":"bytes32"}],"outputs":[{"name":"ownsTicket","type":"bool","internalType":"bool"}],"stateMutability":"view"},{"type":"function","name":"initialize","inputs":[{"name":"_selloutProtocolWallet","type":"address","internalType":"address"}],"outputs":[],"stateMutability":"nonpayable"},{"type":"function","name":"isArtist","inputs":[{"name":"user","type":"address","internalType":"address"},{"name":"showId","type":"bytes32","internalType":"bytes32"}],"outputs":[{"name":"","type":"bool","internalType":"bool"}],"stateMutability":"view"},{"type":"function","name":"isArtistMapping","inputs":[{"name":"","type":"bytes32","internalType":"bytes32"},{"name":"","type":"address","internalType":"address"}],"outputs":[{"name":"","type":"bool","internalType":"bool"}],"stateMutability":"view"},{"type":"function","name":"isOrganizer","inputs":[{"name":"user","type":"address","internalType":"address"},{"name":"showId","type":"bytes32","internalType":"bytes32"}],"outputs":[{"name":"","type":"bool","internalType":"bool"}],"stateMutability":"view"},{"type":"function","name":"isTicketOwner","inputs":[{"name":"owner","type":"address","internalType":"address"},{"name":"showId","type":"bytes32","internalType":"bytes32"},{"name":"ticketId","type":"uint256","internalType":"uint256"}],"outputs":[{"name":"","type":"bool","internalType":"bool"}],"stateMutability":"view"},{"type":"function","name":"organizerRegistryContract","inputs":[],"outputs":[{"name":"","type":"address","internalType":"address"}],"stateMutability":"view"},{"type":"function","name":"organizerRegistryInstance","inputs":[],"outputs":[{"name":"","type":"address","internalType":"contract IOrganizerRegistry"}],"stateMutability":"view"},{"type":"function","name":"owner","inputs":[],"outputs":[{"name":"","type":"address","internalType":"address"}],"stateMutability":"view"},{"type":"function","name":"payout","inputs":[{"name":"showId","type":"bytes32","internalType":"bytes32"}],"outputs":[],"stateMutability":"nonpayable"},{"type":"function","name":"pendingPayouts","inputs":[{"name":"","type":"bytes32","internalType":"bytes32"},{"name":"","type":"address","internalType":"address"}],"outputs":[{"name":"","type":"uint256","internalType":"uint256"}],"stateMutability":"view"},{"type":"function","name":"pendingRefunds","inputs":[{"name":"","type":"bytes32","internalType":"bytes32"},{"name":"","type":"address","internalType":"address"}],"outputs":[{"name":"","type":"uint256","internalType":"uint256"}],"stateMutability":"view"},{"type":"function","name":"pendingTokenPayouts","inputs":[{"name":"","type":"bytes32","internalType":"bytes32"},{"name":"","type":"address","internalType":"address"},{"name":"","type":"address","internalType":"address"}],"outputs":[{"name":"","type":"uint256","internalType":"uint256"}],"stateMutability":"view"},{"type":"function","name":"pendingTokenRefunds","inputs":[{"name":"","type":"bytes32","internalType":"bytes32"},{"name":"","type":"address","internalType":"address"},{"name":"","type":"address","internalType":"address"}],"outputs":[{"name":"","type":"uint256","internalType":"uint256"}],"stateMutability":"view"},{"type":"function","name":"proposeShow","inputs":[{"name":"proposal","type":"tuple","internalType":"struct ShowTypes.ShowProposal","components":[{"name":"name","type":"string","internalType":"string"},{"name":"description","type":"string","internalType":"string"},{"name":"artists","type":"address[]","internalType":"address[]"},{"name":"coordinates","type":"tuple","internalType":"struct VenueTypes.Coordinates","components":[{"name":"lat","type":"int256","internalType":"int256"},{"name":"lon","type":"int256","internalType":"int256"}]},{"name":"radius","type":"uint256","internalType":"uint256"},{"name":"sellOutThreshold","type":"uint8","internalType":"uint8"},{"name":"totalCapacity","type":"uint256","internalType":"uint256"},{"name":"ticketTiers","type":"tuple[]","internalType":"struct ShowTypes.TicketTier[]","components":[{"name":"name","type":"string","internalType":"string"},{"name":"price","type":"uint256","internalType":"uint256"},{"name":"ticketsAvailable","type":"uint256","internalType":"uint256"}]},{"name":"split","type":"uint256[]","internalType":"uint256[]"},{"name":"currencyAddress","type":"address","internalType":"address"}]}],"outputs":[{"name":"showId","type":"bytes32","internalType":"bytes32"}],"stateMutability":"nonpayable"},{"type":"function","name":"proxiableUUID","inputs":[],"outputs":[{"name":"","type":"bytes32","internalType":"bytes32"}],"stateMutability":"view"},{"type":"function","name":"referralContract","inputs":[],"outputs":[{"name":"","type":"address","internalType":"address"}],"stateMutability":"view"},{"type":"function","name":"referralInstance","inputs":[],"outputs":[{"name":"","type":"address","internalType":"contract ReferralModule"}],"stateMutability":"view"},{"type":"function","name":"refundTicket","inputs":[{"name":"showId","type":"bytes32","internalType":"bytes32"},{"name":"ticketId","type":"uint256","internalType":"uint256"}],"outputs":[],"stateMutability":"nonpayable"},{"type":"function","name":"renounceOwnership","inputs":[],"outputs":[],"stateMutability":"nonpayable"},{"type":"function","name":"setProtocolAddresses","inputs":[{"name":"_ticketContract","type":"address","internalType":"address"},{"name":"_venueContract","type":"address","internalType":"address"},{"name":"_referralContract","type":"address","internalType":"address"},{"name":"_artistRegistryContract","type":"address","internalType":"address"},{"name":"_organizerRegistryContract","type":"address","internalType":"address"},{"name":"_venueRegistryContract","type":"address","internalType":"address"}],"outputs":[],"stateMutability":"nonpayable"},{"type":"function","name":"setTicketOwnership","inputs":[{"name":"showId","type":"bytes32","internalType":"bytes32"},{"name":"owner","type":"address","internalType":"address"},{"name":"ticketId","type":"uint256","internalType":"uint256"},{"name":"isOwned","type":"bool","internalType":"bool"}],"outputs":[],"stateMutability":"nonpayable"},{"type":"function","name":"setTicketPricePaid","inputs":[{"name":"showId","type":"bytes32","internalType":"bytes32"},{"name":"ticketId","type":"uint256","internalType":"uint256"},{"name":"price","type":"uint256","internalType":"uint256"}],"outputs":[],"stateMutability":"nonpayable"},{"type":"function","name":"setTotalTicketsSold","inputs":[{"name":"showId","type":"bytes32","internalType":"bytes32"},{"name":"amount","type":"uint256","internalType":"uint256"}],"outputs":[],"stateMutability":"nonpayable"},{"type":"function","name":"showPaymentToken","inputs":[{"name":"","type":"bytes32","internalType":"bytes32"}],"outputs":[{"name":"","type":"address","internalType":"address"}],"stateMutability":"view"},{"type":"function","name":"showTokenVault","inputs":[{"name":"","type":"bytes32","internalType":"bytes32"},{"name":"","type":"address","internalType":"address"}],"outputs":[{"name":"","type":"uint256","internalType":"uint256"}],"stateMutability":"view"},{"type":"function","name":"showVault","inputs":[{"name":"","type":"bytes32","internalType":"bytes32"}],"outputs":[{"name":"","type":"uint256","internalType":"uint256"}],"stateMutability":"view"},{"type":"function","name":"shows","inputs":[{"name":"","type":"bytes32","internalType":"bytes32"}],"outputs":[{"name":"showId","type":"bytes32","internalType":"bytes32"},{"name":"name","type":"string","internalType":"string"},{"name":"description","type":"string","internalType":"string"},{"name":"organizer","type":"address","internalType":"address"},{"name":"venue","type":"tuple","internalType":"struct VenueTypes.Venue","components":[{"name":"name","type":"string","internalType":"string"},{"name":"coordinates","type":"tuple","internalType":"struct VenueTypes.Coordinates","components":[{"name":"lat","type":"int256","internalType":"int256"},{"name":"lon","type":"int256","internalType":"int256"}]},{"name":"totalCapacity","type":"uint256","internalType":"uint256"},{"name":"wallet","type":"address","internalType":"address"},{"name":"venueId","type":"bytes32","internalType":"bytes32"}]},{"name":"radius","type":"uint256","internalType":"uint256"},{"name":"sellOutThreshold","type":"uint256","internalType":"uint256"},{"name":"totalCapacity","type":"uint256","internalType":"uint256"},{"name":"status","type":"uint8","internalType":"enum ShowTypes.Status"},{"name":"isActive","type":"bool","internalType":"bool"},{"name":"expiry","type":"uint256","internalType":"uint256"},{"name":"showDate","type":"uint256","internalType":"uint256"},{"name":"currencyAddress","type":"address","internalType":"address"}],"stateMutability":"view"},{"type":"function","name":"ticketContract","inputs":[],"outputs":[{"name":"","type":"address","internalType":"address"}],"stateMutability":"view"},{"type":"function","name":"ticketInstance","inputs":[],"outputs":[{"name":"","type":"address","internalType":"contract Ticket"}],"stateMutability":"view"},{"type":"function","name":"ticketPricePaid","inputs":[{"name":"","type":"bytes32","internalType":"bytes32"},{"name":"","type":"uint256","internalType":"uint256"}],"outputs":[{"name":"","type":"uint256","internalType":"uint256"}],"stateMutability":"view"},{"type":"function","name":"totalTicketsSold","inputs":[{"name":"","type":"bytes32","internalType":"bytes32"}],"outputs":[{"name":"","type":"uint256","internalType":"uint256"}],"stateMutability":"view"},{"type":"function","name":"transferOwnership","inputs":[{"name":"newOwner","type":"address","internalType":"address"}],"outputs":[],"stateMutability":"nonpayable"},{"type":"function","name":"updateShowVenue","inputs":[{"name":"showId","type":"bytes32","internalType":"bytes32"},{"name":"newVenue","type":"tuple","internalType":"struct VenueTypes.Venue","components":[{"name":"name","type":"string","internalType":"string"},{"name":"coordinates","type":"tuple","internalType":"struct VenueTypes.Coordinates","components":[{"name":"lat","type":"int256","internalType":"int256"},{"name":"lon","type":"int256","internalType":"int256"}]},{"name":"totalCapacity","type":"uint256","internalType":"uint256"},{"name":"wallet","type":"address","internalType":"address"},{"name":"venueId","type":"bytes32","internalType":"bytes32"}]}],"outputs":[],"stateMutability":"nonpayable"},{"type":"function","name":"updateStatus","inputs":[{"name":"showId","type":"bytes32","internalType":"bytes32"},{"name":"_status","type":"uint8","internalType":"enum ShowTypes.Status"}],"outputs":[],"stateMutability":"nonpayable"},{"type":"function","name":"updateStatusIfSoldOut","inputs":[{"name":"showId","type":"bytes32","internalType":"bytes32"}],"outputs":[],"stateMutability":"nonpayable"},{"type":"function","name":"upgradeToAndCall","inputs":[{"name":"newImplementation","type":"address","internalType":"address"},{"name":"data","type":"bytes","internalType":"bytes"}],"outputs":[],"stateMutability":"payable"},{"type":"function","name":"venueContract","inputs":[],"outputs":[{"name":"","type":"address","internalType":"address"}],"stateMutability":"view"},{"type":"function","name":"venueRegistryContract","inputs":[],"outputs":[{"name":"","type":"address","internalType":"address"}],"stateMutability":"view"},{"type":"function","name":"venueRegistryInstance","inputs":[],"outputs":[{"name":"","type":"address","internalType":"contract IVenueRegistry"}],"stateMutability":"view"},{"type":"function","name":"walletToShowToTokenIds","inputs":[{"name":"","type":"bytes32","internalType":"bytes32"},{"name":"","type":"address","internalType":"address"},{"name":"","type":"uint256","internalType":"uint256"}],"outputs":[{"name":"","type":"uint256","internalType":"uint256"}],"stateMutability":"view"},{"type":"function","name":"withdrawRefund","inputs":[{"name":"showId","type":"bytes32","internalType":"bytes32"}],"outputs":[],"stateMutability":"nonpayable"},{"type":"event","name":"ERC20Deposited","inputs":[{"name":"showId","type":"bytes32","indexed":true,"internalType":"bytes32"},{"name":"tokenAddress","type":"address","indexed":true,"internalType":"address"},{"name":"depositor","type":"address","indexed":true,"internalType":"address"},{"name":"amount","type":"uint256","indexed":false,"internalType":"uint256"}],"anonymous":false},{"type":"event","name":"ExpiryUpdated","inputs":[{"name":"showId","type":"bytes32","indexed":true,"internalType":"bytes32"},{"name":"expiry","type":"uint256","indexed":false,"internalType":"uint256"}],"anonymous":false},{"type":"event","name":"Initialized","inputs":[{"name":"version","type":"uint64","indexed":false,"internalType":"uint64"}],"anonymous":false},{"type":"event","name":"OwnershipTransferred","inputs":[{"name":"previousOwner","type":"address","indexed":true,"internalType":"address"},{"name":"newOwner","type":"address","indexed":true,"internalType":"address"}],"anonymous":false},{"type":"event","name":"RefundWithdrawn","inputs":[{"name":"user","type":"address","indexed":true,"internalType":"address"},{"name":"showId","type":"bytes32","indexed":true,"internalType":"bytes32"},{"name":"amount","type":"uint256","indexed":false,"internalType":"uint256"}],"anonymous":false},{"type":"event","name":"ShowExpired","inputs":[{"name":"showId","type":"bytes32","indexed":true,"internalType":"bytes32"}],"anonymous":false},{"type":"event","name":"ShowProposed","inputs":[{"name":"showId","type":"bytes32","indexed":true,"internalType":"bytes32"},{"name":"organizer","type":"address","indexed":true,"internalType":"address"},{"name":"name","type":"string","indexed":false,"internalType":"string"},{"name":"artists","type":"address[]","indexed":false,"internalType":"address[]"},{"name":"description","type":"string","indexed":false,"internalType":"string"},{"name":"sellOutThreshold","type":"uint256","indexed":false,"internalType":"uint256"},{"name":"split","type":"uint256[]","indexed":false,"internalType":"uint256[]"},{"name":"totalCapacity","type":"uint256","indexed":false,"internalType":"uint256"}],"anonymous":false},{"type":"event","name":"StatusUpdated","inputs":[{"name":"showId","type":"bytes32","indexed":true,"internalType":"bytes32"},{"name":"status","type":"uint8","indexed":false,"internalType":"enum ShowTypes.Status"}],"anonymous":false},{"type":"event","name":"TicketRefunded","inputs":[{"name":"user","type":"address","indexed":true,"internalType":"address"},{"name":"showId","type":"bytes32","indexed":true,"internalType":"bytes32"},{"name":"refundAmount","type":"uint256","indexed":false,"internalType":"uint256"}],"anonymous":false},{"type":"event","name":"TicketTierConsumed","inputs":[{"name":"showId","type":"bytes32","indexed":true,"internalType":"bytes32"},{"name":"tierIndex","type":"uint256","indexed":true,"internalType":"uint256"},{"name":"amount","type":"uint256","indexed":false,"internalType":"uint256"}],"anonymous":false},{"type":"event","name":"Upgraded","inputs":[{"name":"implementation","type":"address","indexed":true,"internalType":"address"}],"anonymous":false},{"type":"event","name":"VenueUpdated","inputs":[{"name":"showId","type":"bytes32","indexed":true,"internalType":"bytes32"},{"name":"newVenue","type":"tuple","indexed":false,"internalType":"struct VenueTypes.Venue","components":[{"name":"name","type":"string","internalType":"string"},{"name":"coordinates","type":"tuple","internalType":"struct VenueTypes.Coordinates","components":[{"name":"lat","type":"int256","internalType":"int256"},{"name":"lon","type":"int256","internalType":"int256"}]},{"name":"totalCapacity","type":"uint256","internalType":"uint256"},{"name":"wallet","type":"address","internalType":"address"},{"name":"venueId","type":"bytes32","internalType":"bytes32"}]}],"anonymous":false},{"type":"event","name":"Withdrawal","inputs":[{"name":"showId","type":"bytes32","indexed":true,"internalType":"bytes32"},{"name":"recipient","type":"address","indexed":true,"internalType":"address"},{"name":"amount","type":"uint256","indexed":false,"internalType":"uint256"},{"name":"paymentToken","type":"address","indexed":false,"internalType":"address"}],"anonymous":false},{"type":"error","name":"AddressEmptyCode","inputs":[{"name":"target","type":"address","internalType":"address"}]},{"type":"error","name":"ERC1967InvalidImplementation","inputs":[{"name":"implementation","type":"address","internalType":"address"}]},{"type":"error","name":"ERC1967NonPayable","inputs":[]},{"type":"error","name":"FailedInnerCall","inputs":[]},{"type":"error","name":"InvalidInitialization","inputs":[]},{"type":"error","name":"NotInitializing","inputs":[]},{"type":"error","name":"OwnableInvalidOwner","inputs":[{"name":"owner","type":"address","internalType":"address"}]},{"type":"error","name":"OwnableUnauthorizedAccount","inputs":[{"name":"account","type":"address","internalType":"address"}]},{"type":"error","name":"ReentrancyGuardReentrantCall","inputs":[]},{"type":"error","name":"UUPSUnauthorizedCallContext","inputs":[]},{"type":"error","name":"UUPSUnsupportedProxiableUUID","inputs":[{"name":"slot","type":"bytes32","internalType":"bytes32"}]}],"bytecode":{"object":"0x60a0604052600a805460ff60a01b191690553060805234801561002157600080fd5b50608051615fb06200004c600039600081816144d5015281816144fe015261463f0152615fb06000f3fe6080604052600436106103a25760003560e01c80637d8d6a22116101e7578063bafd4eb01161010d578063de44006f116100a0578063ef5023a51161006f578063ef5023a514610c8e578063f2fde38b14610cae578063f812187314610cce578063fca4655914610cee57600080fd5b8063de44006f14610c0e578063e30228be14610c2e578063e618054614610c4e578063e9acfa7c14610c6e57600080fd5b8063c6ab848a116100dc578063c6ab848a14610b76578063c8f67e9614610b96578063c9e21e5e14610bb6578063cfefb3d514610bee57600080fd5b8063bafd4eb014610adb578063bd47dc5c14610b16578063c29e2de414610b36578063c4d66de814610b5657600080fd5b80638dea15a11161018557806393d4e1001161015457806393d4e10014610a0c578063977cb89e14610a44578063a03f4efe14610a7d578063ad3cb1cc14610a9d57600080fd5b80638dea15a1146109495780638e70362b14610969578063925e8f89146109a157806392ea6388146109ce57600080fd5b806385266635116101c157806385266635146108ac57806385ffa16c146108bf578063867e68af146108df5780638da5cb5b1461090c57600080fd5b80637d8d6a221461083d5780637dad19db1461085d5780637e3e39351461087d57600080fd5b806351819335116102cc578063610418701161026a578063715018a611610239578063715018a61461079457806372958028146107a957806375976795146107df578063787d76b81461081d57600080fd5b80636104187014610707578063644b5e591461073457806366bc64cd14610754578063703ee4e51461077457600080fd5b80635696c07c116102a65780635696c07c1461063e57806358a86e1d146106765780635b9a1e09146106965780635c37da69146106c357600080fd5b806351819335146105e957806352d1902d146106095780635412233f1461061e57600080fd5b80632f18ddfe1161034457806341adf3ad1161031357806341adf3ad1461056957806346c2c8a7146105895780634ed372da146105b65780634f1ef286146105d657600080fd5b80632f18ddfe146104d157806331a68da0146105095780633b9ce466146105295780633c60d2d61461054957600080fd5b8063129e086b11610380578063129e086b1461043657806316488906146104565780631cf2103e1461047a57806327b1bf521461049a57600080fd5b80630233ce6a146103a757806302c9a8b5146103e4578063054372ed14610414575b600080fd5b3480156103b357600080fd5b506006546103c7906001600160a01b031681565b6040516001600160a01b0390911681526020015b60405180910390f35b3480156103f057600080fd5b506104046103ff366004614d52565b610d27565b60405190151581526020016103db565b34801561042057600080fd5b5061043461042f366004614d7e565b610d54565b005b34801561044257600080fd5b50610434610451366004614db2565b610e15565b34801561046257600080fd5b5061046c600d5481565b6040519081526020016103db565b34801561048657600080fd5b506009546103c7906001600160a01b031681565b3480156104a657600080fd5b506104ba6104b5366004614db2565b61102c565b6040516103db9b9a99989796959493929190614ef5565b3480156104dd57600080fd5b5061046c6104ec366004615011565b601760209081526000928352604080842090915290825290205481565b34801561051557600080fd5b506005546103c7906001600160a01b031681565b34801561053557600080fd5b5061046c610544366004615356565b6114f2565b34801561055557600080fd5b50610434610564366004615011565b611506565b34801561057557600080fd5b506003546103c7906001600160a01b031681565b34801561059557600080fd5b506105a96105a4366004614db2565b6117c6565b6040516103db919061549f565b3480156105c257600080fd5b506104046105d1366004614d52565b611ca3565b6104346105e43660046154ad565b611cc6565b3480156105f557600080fd5b506001546103c7906001600160a01b031681565b34801561061557600080fd5b5061046c611ce5565b34801561062a57600080fd5b50610434610639366004615510565b611d02565b34801561064a57600080fd5b5061046c61065936600461555a565b601260209081526000928352604080842090915290825290205481565b34801561068257600080fd5b506000546103c7906001600160a01b031681565b3480156106a257600080fd5b506106b66106b136600461555a565b611ff4565b6040516103db91906155af565b3480156106cf57600080fd5b506104046106de366004614d52565b60009081526018602090815260408083206001600160a01b039490941683529290522054151590565b34801561071357600080fd5b5061046c610722366004614db2565b60009081526016602052604090205490565b34801561074057600080fd5b5061043461074f3660046155c2565b612068565b34801561076057600080fd5b506004546103c7906001600160a01b031681565b34801561078057600080fd5b50600a546103c7906001600160a01b031681565b3480156107a057600080fd5b506104346121ec565b3480156107b557600080fd5b506103c76107c4366004614db2565b6019602052600090815260409020546001600160a01b031681565b3480156107eb57600080fd5b5061046c6107fa3660046155ee565b601560209081526000938452604080852082529284528284209052825290205481565b34801561082957600080fd5b50610434610838366004615011565b612200565b34801561084957600080fd5b5061046c610858366004615630565b61225a565b34801561086957600080fd5b506002546103c7906001600160a01b031681565b34801561088957600080fd5b5061089d610898366004615011565b612298565b6040516103db93929190615668565b6104346108ba366004614db2565b6123d9565b3480156108cb57600080fd5b5061046c6108da366004614db2565b612448565b3480156108eb57600080fd5b5061046c6108fa366004614db2565b60106020526000908152604090205481565b34801561091857600080fd5b507f9016d09d72d40fdae2fd8ceac6b6234c7706214fd39c1cd1e609a0528c199300546001600160a01b03166103c7565b34801561095557600080fd5b506008546103c7906001600160a01b031681565b34801561097557600080fd5b5061046c61098436600461555a565b601460209081526000928352604080842090915290825290205481565b3480156109ad57600080fd5b5061046c6109bc366004614db2565b60166020526000908152604090205481565b3480156109da57600080fd5b5061046c6109e93660046155ee565b601360209081526000938452604080852082529284528284209052825290205481565b348015610a1857600080fd5b5061046c610a27366004615011565b600091825260176020908152604080842092845291905290205490565b348015610a5057600080fd5b506103c7610a5f366004614db2565b6000908152600e60205260409020600301546001600160a01b031690565b348015610a8957600080fd5b50610404610a9836600461568d565b6124cf565b348015610aa957600080fd5b50610ace604051806040016040528060058152602001640352e302e360dc1b81525081565b6040516103db91906156c2565b348015610ae757600080fd5b50610404610af636600461555a565b600f60209081526000928352604080842090915290825290205460ff1681565b348015610b2257600080fd5b50610434610b313660046155c2565b612505565b348015610b4257600080fd5b50610434610b513660046156d5565b61254b565b348015610b6257600080fd5b50610434610b71366004615717565b61269a565b348015610b8257600080fd5b506007546103c7906001600160a01b031681565b348015610ba257600080fd5b50610434610bb1366004615742565b6127ca565b348015610bc257600080fd5b5061046c610bd136600461555a565b601160209081526000928352604080842090915290825290205481565b348015610bfa57600080fd5b50610434610c09366004614db2565b612833565b348015610c1a57600080fd5b50610434610c29366004615630565b612cc9565b348015610c3a57600080fd5b50600b546103c7906001600160a01b031681565b348015610c5a57600080fd5b50610434610c69366004614db2565b612d2a565b348015610c7a57600080fd5b50610434610c89366004614db2565b612dc1565b348015610c9a57600080fd5b50610434610ca9366004614db2565b61321f565b348015610cba57600080fd5b50610434610cc9366004615717565b613332565b348015610cda57600080fd5b50610434610ce9366004615781565b61336d565b348015610cfa57600080fd5b50610d0e610d09366004614db2565b613451565b6040516103db9d9c9b9a99989796959493929190615803565b6000818152600f602090815260408083206001600160a01b038616845290915290205460ff165b92915050565b6001546001600160a01b0316331480610d7757506000546001600160a01b031633145b80610d8157503330145b610da65760405162461bcd60e51b8152600401610d9d906158b5565b60405180910390fd5b6000828152600e60205260409020600f01805482919060ff19166001836007811115610dd457610dd4614ebd565b0217905550817f8ed894b6f384ca9c829b9aa5b056bc9106a90845a15616607e975d4ad488ee6782604051610e09919061549f565b60405180910390a25050565b80610e203382611ca3565b80610e305750610e303382610d27565b610e4c5760405162461bcd60e51b8152600401610d9d90615923565b6000828152600e602052604090206003600f82015460ff166007811115610e7557610e75614ebd565b14610eba5760405162461bcd60e51b815260206004820152601560248201527453686f77206d757374206265205570636f6d696e6760581b6044820152606401610d9d565b6012810154610ecb90610708615961565b421015610f1a5760405162461bcd60e51b815260206004820152601f60248201527f53686f7720686173206e6f7420796574206265656e20636f6d706c65746564006044820152606401610d9d565b6000838152601960205260408120546001600160a01b031690610f3c856136c6565b905060008111610f875760405162461bcd60e51b81526020600482015260166024820152754e6f2066756e647320746f206469737472696275746560501b6044820152606401610d9d565b60006040518060800160405280878152602001838152602001846001600160a01b0316815260200185601001805480602002602001604051908101604052809291908181526020018280548015610ffd57602002820191906000526020600020905b815481526020019060010190808311610fe9575b505050505081525090506110118482613721565b61101b8684613a5f565b61102486613aa6565b505050505050565b6060806000606061103b614c2e565b6000868152600e60205260408120600c810154606092918291829182918291906001600160401b0381111561107257611072615033565b6040519080825280602002602001820160405280156110c757816020015b6110b460405180606001604052806060815260200160008152602001600081525090565b8152602001906001900390816110905790505b50965060005b600c8201548110156111dd5781600c0181815481106110ee576110ee615974565b90600052602060002090600302016040518060600160405290816000820180546111179061598a565b80601f01602080910402602001604051908101604052809291908181526020018280546111439061598a565b80156111905780601f1061116557610100808354040283529160200191611190565b820191906000526020600020905b81548152906001019060200180831161117357829003601f168201915b50505050508152602001600182015481526020016002820154815250508882815181106111bf576111bf615974565b602002602001018190525080806111d5906159be565b9150506110cd565b5080600101816002018260030160009054906101000a90046001600160a01b031683600401846005018b86600d015487600e015488600f0160009054906101000a900460ff1689600f0160019054906101000a900460ff168a60130160009054906101000a90046001600160a01b03168a80546112599061598a565b80601f01602080910402602001604051908101604052809291908181526020018280546112859061598a565b80156112d25780601f106112a7576101008083540402835291602001916112d2565b820191906000526020600020905b8154815290600101906020018083116112b557829003601f168201915b50505050509a508980546112e59061598a565b80601f01602080910402602001604051908101604052809291908181526020018280546113119061598a565b801561135e5780601f106113335761010080835404028352916020019161135e565b820191906000526020600020905b81548152906001019060200180831161134157829003601f168201915b50505050509950878054806020026020016040519081016040528092919081815260200182805480156113ba57602002820191906000526020600020905b81546001600160a01b0316815260019091019060200180831161139c575b50505050509750866040518060a00160405290816000820180546113dd9061598a565b80601f01602080910402602001604051908101604052809291908181526020018280546114099061598a565b80156114565780601f1061142b57610100808354040283529160200191611456565b820191906000526020600020905b81548152906001019060200180831161143957829003601f168201915b5050505050815260200160018201604051806040016040529081600082015481526020016001820154815250508152602001600382015481526020016004820160009054906101000a90046001600160a01b03166001600160a01b03166001600160a01b0316815260200160058201548152505096509b509b509b509b509b509b509b509b509b509b509b505091939597999b90929496989a50565b60006114fd82613bd7565b610d4e82613efb565b6000828152600e60205260408120600f015460ff16600781111561152c5761152c614ebd565b148061155d575060056000838152600e60205260409020600f015460ff16600781111561155b5761155b614ebd565b145b8061158d575060076000838152600e60205260409020600f015460ff16600781111561158b5761158b614ebd565b145b6115f05760405162461bcd60e51b815260206004820152602e60248201527f46756e647320617265206c6f636b65642064756520746f20746865207374617460448201526d7573206f66207468652073686f7760901b6064820152608401610d9d565b6115fb3383836124cf565b61165a5760405162461bcd60e51b815260206004820152602a60248201527f5573657220646f6573206e6f74206f776e20746865207469636b657420666f7260448201526920746869732073686f7760b01b6064820152608401610d9d565b600654604051636d1d3b0b60e11b8152600481018490526024810183905260009182916001600160a01b039091169063da3a7616906044016040805180830381865afa1580156116ae573d6000803e3d6000fd5b505050506040513d601f19601f820116820180604052508101906116d291906159d7565b915091506000821161171d5760405162461bcd60e51b8152602060048201526014602482015273151a58dad95d081b9bdd081c1d5c98da185cd95960621b6044820152606401610d9d565b600084815260196020908152604080832054600e909252909120600c0180546001600160a01b03909216918390811061175857611758615974565b600091825260208220600260039092020101805491611776836159be565b919050555061178785858584614283565b604051838152859033907f6327daeea6ce26abf9f96cd84eee9cb40d1d5b88f7f5990914540e392446bf04906020015b60405180910390a35050505050565b6000818152600e6020908152604080832081516102008101909252805482526001810180548594840191906117fa9061598a565b80601f01602080910402602001604051908101604052809291908181526020018280546118269061598a565b80156118735780601f1061184857610100808354040283529160200191611873565b820191906000526020600020905b81548152906001019060200180831161185657829003601f168201915b5050505050815260200160028201805461188c9061598a565b80601f01602080910402602001604051908101604052809291908181526020018280546118b89061598a565b80156119055780601f106118da57610100808354040283529160200191611905565b820191906000526020600020905b8154815290600101906020018083116118e857829003601f168201915b505050918352505060038201546001600160a01b0316602080830191909152600483018054604080518285028101850182528281529401939283018282801561197757602002820191906000526020600020905b81546001600160a01b03168152600190910190602001808311611959575b50505050508152602001600582016040518060a00160405290816000820180546119a09061598a565b80601f01602080910402602001604051908101604052809291908181526020018280546119cc9061598a565b8015611a195780601f106119ee57610100808354040283529160200191611a19565b820191906000526020600020905b8154815290600101906020018083116119fc57829003601f168201915b50505091835250506040805180820182526001840154815260028401546020828101919091528084019190915260038401548284015260048401546001600160a01b03166060840152600590930154608090920191909152918352600b84015483820152600c840180548351818402810184018552818152949093019392909160009084015b82821015611b775783829060005260206000209060030201604051806060016040529081600082018054611ad29061598a565b80601f0160208091040260200160405190810160405280929190818152602001828054611afe9061598a565b8015611b4b5780601f10611b2057610100808354040283529160200191611b4b565b820191906000526020600020905b815481529060010190602001808311611b2e57829003601f168201915b505050505081526020016001820154815260200160028201548152505081526020019060010190611a9f565b50505090825250600d8201546020820152600e8201546040820152600f82015460609091019060ff166007811115611bb157611bb1614ebd565b6007811115611bc257611bc2614ebd565b8152600f820154610100900460ff1615156020808301919091526010830180546040805182850281018501825282815294019392830182828015611c2557602002820191906000526020600020905b815481526020019060010190808311611c11575b505050918352505060118201546020820152601282015460408201526013909101546001600160a01b03166060909101526101a081015190915042118015611c84575060078161014001516007811115611c8157611c81614ebd565b14155b15611c925750600792915050565b610140015192915050565b50919050565b6000908152600e60205260409020600301546001600160a01b0391821691161490565b611cce6144ca565b611cd78261456f565b611ce18282614577565b5050565b6000611cef614634565b50600080516020615f5b83398151915290565b6001546001600160a01b0316331480611d2557506000546001600160a01b031633145b80611d2f57503330145b611d4b5760405162461bcd60e51b8152600401610d9d906158b5565b6001600160a01b038216611db05760405162461bcd60e51b815260206004820152602660248201527f546869732073686f7720646f6573206e6f742061636365707420455448207061604482015265796d656e747360d01b6064820152608401610d9d565b6000848152601960205260409020546001600160a01b03838116911614611e275760405162461bcd60e51b815260206004820152602560248201527f4d69736d617463686564207061796d656e7420746f6b656e20666f72207468656044820152642073686f7760d81b6064820152608401610d9d565b604051636eb1769f60e11b81526001600160a01b0382811660048301523060248301528391859183169063dd62ed3e90604401602060405180830381865afa158015611e77573d6000803e3d6000fd5b505050506040513d601f19601f82011682018060405250810190611e9b91906159fb565b1015611efa5760405162461bcd60e51b815260206004820152602860248201527f436f6e7472616374206e6f7420617070726f76656420746f207472616e7366656044820152677220746f6b656e7360c01b6064820152608401610d9d565b6040516323b872dd60e01b81526001600160a01b038381166004830152306024830152604482018690528216906323b872dd906064016020604051808303816000875af1158015611f4f573d6000803e3d6000fd5b505050506040513d601f19601f82011682018060405250810190611f739190615a14565b5060008581526011602090815260408083206001600160a01b038716845290915281208054869290611fa6908490615961565b909155505060405184815233906001600160a01b0385169087907f5bc5584363e68b8a5b066d0c106bba5606176ce569e835fb8b4dc1ee0bb7f4699060200160405180910390a45050505050565b60008281526018602090815260408083206001600160a01b038516845282529182902080548351818402810184019094528084526060939283018282801561205b57602002820191906000526020600020905b815481526020019060010190808311612047575b5050505050905092915050565b6001546001600160a01b031633148061208b57506000546001600160a01b031633145b8061209557503330145b6120b15760405162461bcd60e51b8152600401610d9d906158b5565b6000838152600e60205260409020600c81015483106121125760405162461bcd60e51b815260206004820152601960248201527f496e76616c6964207469636b6574207469657220696e646578000000000000006044820152606401610d9d565b600081600c01848154811061212957612129615974565b90600052602060002090600302019050828160020154101561219f5760405162461bcd60e51b815260206004820152602960248201527f4e6f7420656e6f756768207469636b65747320617661696c61626c6520696e206044820152683a3434b9903a34b2b960b91b6064820152608401610d9d565b828160020160008282546121b39190615a31565b9091555050604051838152849086907fb23124a400670af3347ce475459c187bbba871f316e2d1d91ae115a762def020906020016117b7565b6121f461467d565b6121fe60006146d8565b565b6000546001600160a01b0316331461222a5760405162461bcd60e51b8152600401610d9d90615a44565b600082815260166020526040902054612244908290615961565b6000928352601660205260409092209190915550565b6018602052826000526040600020602052816000526040600020818154811061228257600080fd5b9060005260206000200160009250925050505481565b6000828152600e60205260408120600c015460609190819084106122fe5760405162461bcd60e51b815260206004820152601860248201527f5469657220696e646578206f7574206f6620626f756e647300000000000000006044820152606401610d9d565b6000858152600e60205260408120600c0180548690811061232157612321615974565b90600052602060002090600302019050806000018160010154826002015482805461234b9061598a565b80601f01602080910402602001604051908101604052809291908181526020018280546123779061598a565b80156123c45780601f10612399576101008083540402835291602001916123c4565b820191906000526020600020905b8154815290600101906020018083116123a757829003601f168201915b50505050509250935093509350509250925092565b6001546001600160a01b03163314806123fc57506000546001600160a01b031633145b8061240657503330145b6124225760405162461bcd60e51b8152600401610d9d906158b5565b60008181526010602052604081208054349290612440908490615961565b909155505050565b6000818152600e602052604081206001825b60048301548110156124c75760038301546004840180546001600160a01b03909216918390811061248d5761248d615974565b6000918252602090912001546001600160a01b0316146124b557816124b1816159be565b9250505b806124bf816159be565b91505061245a565b509392505050565b6000828152601a602090815260408083206001600160a01b0387168452825280832084845290915290205460ff165b9392505050565b6000546001600160a01b0316331461252f5760405162461bcd60e51b8152600401610d9d90615a44565b6000928352601760209081526040808520938552929052912055565b6001546001600160a01b031633146125755760405162461bcd60e51b8152600401610d9d90615a44565b6000828152600e60205260408120600f015460ff16600781111561259b5761259b614ebd565b14806125cc575060026000838152600e60205260409020600f015460ff1660078111156125ca576125ca614ebd565b145b61264a5760405162461bcd60e51b815260206004820152604360248201527f56656e75652063616e206f6e6c79206265207570646174656420666f7220736860448201527f6f777320696e2050726f706f736564206f7220416363657074656420737461746064820152623ab99760e91b608482015260a401610d9d565b6000828152600e6020526040902081906005016126678282615ba5565b905050817ff199f58c6628f3436415ab64e2d1e914a5e79b5ce23d59be2970b2fe46034a6182604051610e099190615c7b565b7ff0c57e16840df040f15088dc2f81fe391c3923bec73e23a9662efc9c229c6a008054600160401b810460ff1615906001600160401b03166000811580156126df5750825b90506000826001600160401b031660011480156126fb5750303b155b905081158015612709575080155b156127275760405163f92ee8a960e01b815260040160405180910390fd5b845467ffffffffffffffff19166001178555831561275157845460ff60401b1916600160401b1785555b612759614749565b61276286614759565b600b80546001600160a01b0319166001600160a01b038816179055831561102457845460ff60401b19168555604051600181527fc7f505b2f371ae2175ee4913f4499e1f2633a7b5936321eed1cdaeb6115181d29060200160405180910390a1505050505050565b6000546001600160a01b031633146127f45760405162461bcd60e51b8152600401610d9d90615a44565b6000938452601a602090815260408086206001600160a01b03959095168652938152838520928552919091529120805460ff1916911515919091179055565b8061283e3382611ca3565b8061284e575061284e3382610d27565b61286a5760405162461bcd60e51b8152600401610d9d90615923565b6000828152600e602052604090206004600f82015460ff16600781111561289357612893614ebd565b146128d95760405162461bcd60e51b815260206004820152601660248201527514da1bddc81b5d5cdd0818994810dbdb5c1b195d195960521b6044820152606401610d9d565b60128101546128ea9061012c615961565b4210156129395760405162461bcd60e51b815260206004820152601b60248201527f53686f7720636f6f6c646f776e20686173206e6f7420656e64656400000000006044820152606401610d9d565b6000838152601960205260408120546001600160a01b031690816129d557506000848152601460209081526040808320338452909152902054806129b65760405162461bcd60e51b81526020600482015260146024820152734e6f2066756e647320746f20776974686472617760601b6044820152606401610d9d565b6000858152601460209081526040808320338452909152812055612a7a565b5060008481526015602090815260408083206001600160a01b0385168452825280832033845290915290205480612a4e5760405162461bcd60e51b815260206004820152601a60248201527f4e6f20746f6b656e2066756e647320746f2077697468647261770000000000006044820152606401610d9d565b60008581526015602090815260408083206001600160a01b038616845282528083203384529091528120555b6001600160a01b038216612b1b57604051600090339083908381818185875af1925050503d8060008114612aca576040519150601f19603f3d011682016040523d82523d6000602084013e612acf565b606091505b5050905080612b155760405162461bcd60e51b815260206004820152601260248201527108cc2d2d8cac840e8de40e6cadcc8408aa8960731b6044820152606401610d9d565b50612c87565b6040516370a0823160e01b8152306004820152829082906001600160a01b038316906370a0823190602401602060405180830381865afa158015612b63573d6000803e3d6000fd5b505050506040513d601f19601f82011682018060405250810190612b8791906159fb565b1015612bd05760405162461bcd60e51b8152602060048201526018602482015277496e73756666696369656e7420746f6b656e2066756e647360401b6044820152606401610d9d565b60405163a9059cbb60e01b8152336004820152602481018390526001600160a01b0382169063a9059cbb906044016020604051808303816000875af1158015612c1d573d6000803e3d6000fd5b505050506040513d601f19601f82011682018060405250810190612c419190615a14565b612c855760405162461bcd60e51b8152602060048201526015602482015274151bdad95b881d1c985b9cd9995c8819985a5b1959605a1b6044820152606401610d9d565b505b604080518281526001600160a01b0384166020820152339187917f41211792ac12581294dfaa383a54e630322f08f25e558828f6d5e0979ac3eb2391016117b7565b6000546001600160a01b03163314612cf35760405162461bcd60e51b8152600401610d9d90615a44565b60009283526018602090815260408085206001600160a01b0390941685529281529183208054600181018255908452919092200155565b6001546001600160a01b0316331480612d4d57506000546001600160a01b031633145b80612d5757503330145b612d735760405162461bcd60e51b8152600401610d9d906158b5565b6000818152600e60208181526040808420601690925290922054600d830154918301549091612da191615d2c565b612dac826064615d2c565b10612dbc57612dbc836001610d54565b505050565b612dc961476a565b6000818152600e602052604090206006600f82015460ff166007811115612df257612df2614ebd565b1480612e1657506007600f82015460ff166007811115612e1457612e14614ebd565b145b80612e3957506005600f82015460ff166007811115612e3757612e37614ebd565b145b80612e5c57506000600f82015460ff166007811115612e5a57612e5a614ebd565b145b612ebf5760405162461bcd60e51b815260206004820152602e60248201527f526566756e647320617265206e6f7420617661696c61626c6520666f7220746860448201526d69732073686f772073746174757360901b6064820152608401610d9d565b6000828152601960205260408120546001600160a01b03169081612efd57506000838152601260209081526040808320338452909152902054612f2a565b5060008381526013602090815260408083206001600160a01b038516845282528083203384529091529020545b60008111612f715760405162461bcd60e51b81526020600482015260146024820152734e6f2066756e647320746f20776974686472617760601b6044820152606401610d9d565b6001600160a01b0382166130285760008481526012602090815260408083203380855292528083208390555183908381818185875af1925050503d8060008114612fd7576040519150601f19603f3d011682016040523d82523d6000602084013e612fdc565b606091505b50509050806130225760405162461bcd60e51b815260206004820152601260248201527108cc2d2d8cac840e8de40e6cadcc8408aa8960731b6044820152606401610d9d565b506131b9565b60008481526013602090815260408083206001600160a01b0386168085529083528184203385529092528083209290925590516370a0823160e01b8152306004820152839183916370a0823190602401602060405180830381865afa158015613095573d6000803e3d6000fd5b505050506040513d601f19601f820116820180604052508101906130b991906159fb565b10156131025760405162461bcd60e51b8152602060048201526018602482015277496e73756666696369656e7420746f6b656e2066756e647360401b6044820152606401610d9d565b60405163a9059cbb60e01b8152336004820152602481018390526001600160a01b0382169063a9059cbb906044016020604051808303816000875af115801561314f573d6000803e3d6000fd5b505050506040513d601f19601f820116820180604052508101906131739190615a14565b6131b75760405162461bcd60e51b8152602060048201526015602482015274151bdad95b881d1c985b9cd9995c8819985a5b1959605a1b6044820152606401610d9d565b505b604051818152849033907fa4d59773de0ef2d6faf35ac70331de09c09cb20909bf7453dd0d620524bd1fc99060200160405180910390a350505061321c60017f9b779b17422d0df92223018b32b4d1fa46e071723d6817e2486d003becc55f0055565b50565b8061322a3382611ca3565b8061323a575061323a3382610d27565b6132565760405162461bcd60e51b8152600401610d9d90615923565b6000828152600e602052604090206001600f82015460ff16600781111561327f5761327f614ebd565b14806132a357506002600f82015460ff1660078111156132a1576132a1614ebd565b145b806132c657506003600f82015460ff1660078111156132c4576132c4614ebd565b145b6133095760405162461bcd60e51b815260206004820152601460248201527353686f77206d7573742062652050656e64696e6760601b6044820152606401610d9d565b600f8101805460ff19166005179055600d805490600061332883615d43565b9190505550505050565b61333a61467d565b6001600160a01b03811661336457604051631e4fbdf760e01b815260006004820152602401610d9d565b61321c816146d8565b600a54600160a01b900460ff16156133c75760405162461bcd60e51b815260206004820152601e60248201527f50726f746f636f6c2061646472657373657320616c72656164792073657400006044820152606401610d9d565b600080546001600160a01b039788166001600160a01b031991821681179092556001805497891697821697909717909655600680548716909117905560078054948716948616949094179093556008805492861692851692909217909155600980549185169190931617909155600a80546001600160a81b0319169190921617600160a01b179055565b600e60205260009081526040902080546001820180549192916134739061598a565b80601f016020809104026020016040519081016040528092919081815260200182805461349f9061598a565b80156134ec5780601f106134c1576101008083540402835291602001916134ec565b820191906000526020600020905b8154815290600101906020018083116134cf57829003601f168201915b5050505050908060020180546135019061598a565b80601f016020809104026020016040519081016040528092919081815260200182805461352d9061598a565b801561357a5780601f1061354f5761010080835404028352916020019161357a565b820191906000526020600020905b81548152906001019060200180831161355d57829003601f168201915b5050505050908060030160009054906101000a90046001600160a01b031690806005016040518060a00160405290816000820180546135b89061598a565b80601f01602080910402602001604051908101604052809291908181526020018280546135e49061598a565b80156136315780601f1061360657610100808354040283529160200191613631565b820191906000526020600020905b81548152906001019060200180831161361457829003601f168201915b505050918352505060408051808201825260018401548152600284015460208281019190915283015260038301549082015260048201546001600160a01b039081166060830152600590920154608090910152600b830154600d840154600e850154600f86015460118701546012880154601390980154969794969395929460ff80841695610100909404169391929091168d565b6000818152601960205260408120546001600160a01b0316806136f757505060009081526010602052604090205490565b60009283526011602090815260408085206001600160a01b03909316855291905290912054919050565b60006064826060015160008151811061373c5761373c615974565b602002602001015183602001516137539190615d2c565b61375d9190615d5a565b60408301519091506001600160a01b03166137b5578151600090815260146020908152604080832060038701546001600160a01b03168452909152812080548392906137aa908490615961565b909155506138049050565b81516000908152601560209081526040808320818601516001600160a01b03908116855290835281842060038801549091168452909152812080548392906137fe908490615961565b90915550505b60015b6004840154811161396757600060648460600151838151811061382c5761382c615974565b602002602001015185602001516138439190615d2c565b61384d9190615d5a565b60408501519091506001600160a01b03166138d25783516000908152601460205260408120829160048801613883600187615a31565b8154811061389357613893615974565b60009182526020808320909101546001600160a01b03168352820192909252604001812080549091906138c7908490615961565b909155506139549050565b83516000908152601560209081526040808320818801516001600160a01b03168452909152812082916004880161390a600187615a31565b8154811061391a5761391a615974565b60009182526020808320909101546001600160a01b031683528201929092526040018120805490919061394e908490615961565b90915550505b508061395f816159be565b915050613807565b506060820151805160009160649161398190600190615a31565b8151811061399157613991615974565b602002602001015184602001516139a89190615d2c565b6139b29190615d5a565b60408401519091506001600160a01b0316613a0a578251600090815260146020908152604080832060098801546001600160a01b03168452909152812080548392906139ff908490615961565b90915550613a599050565b82516000908152601560209081526040808320818701516001600160a01b0390811685529083528184206009890154909116845290915281208054839290613a53908490615961565b90915550505b50505050565b6001600160a01b038116613a7f5750600090815260106020526040812055565b60008281526011602090815260408083206001600160a01b03851684529091528120555050565b6000818152600e602052604090206004600f82015460ff166007811115613acf57613acf614ebd565b03613b285760405162461bcd60e51b8152602060048201526024808201527f53686f7720697320616c7265616479206d61726b656420617320636f6d706c656044820152633a32b21760e11b6064820152608401610d9d565b600f8101805460ff19166004179055600d54613b915760405162461bcd60e51b815260206004820152602260248201527f4163746976652073686f7720636f756e7420697320696e636f6e73697374656e6044820152613a1760f11b6064820152608401610d9d565b600d8054906000613ba183615d43565b9190505550817f8ed894b6f384ca9c829b9aa5b056bc9106a90845a15616607e975d4ad488ee676004604051610e09919061549f565b805151613c195760405162461bcd60e51b815260206004820152601060248201526f13985b59481a5cc81c995c5d5a5c995960821b6044820152606401610d9d565b6000816080015111613c795760405162461bcd60e51b815260206004820152602360248201527f56656e756520726164697573206d75737420626520677265617465722074686160448201526206e20360ec1b6064820152608401610d9d565b6000816020015151118015613c9557506103e881602001515111155b613ce15760405162461bcd60e51b815260206004820152601a60248201527f496e76616c6964206465736372697074696f6e206c656e6774680000000000006044820152606401610d9d565b60008160c0015111613d435760405162461bcd60e51b815260206004820152602560248201527f546f74616c206361706163697479206d75737420626520677265617465722074604482015264068616e20360dc1b6064820152608401610d9d565b600081604001515111613d985760405162461bcd60e51b815260206004820152601c60248201527f4174206c65617374206f6e6520617274697374207265717569726564000000006044820152606401610d9d565b60328160a0015160ff1610158015613db8575060648160a0015160ff1611155b613e1c5760405162461bcd60e51b815260206004820152602f60248201527f53656c6c2d6f7574207468726573686f6c64206d75737420626520626574776560448201526e656e2035302520616e64203130302560881b6064820152608401610d9d565b60608101515163055d4a7f1913801590613e3f575060608101515163055d4a8012155b613e7e5760405162461bcd60e51b815260206004820152601060248201526f496e76616c6964206c6174697475646560801b6044820152606401610d9d565b630aba94ff1981606001516020015112158015613ea75750630aba950081606001516020015113155b613ee75760405162461bcd60e51b8152602060048201526011602482015270496e76616c6964206c6f6e67697475646560781b6044820152606401610d9d565b61321c8161010001518260400151516147da565b80516020808301516040808501516060860151805190850151608088015160a089015160c08a01516101208b0151965160009a613f3e9a90999891429101615d7c565b60408051601f1981840301815291815281516020928301206000818152600e90935291208351919250906001820190613f779082615dff565b5060208301516002820190613f8c9082615dff565b506003810180546001600160a01b0319163317905560408301518051613fbc916004840191602090910190614c78565b506040805160c08082018352600060a0830181815280845260608089015160208601529288015194840194909452908201819052608082015290600583019081906140079082615dff565b506020828101518051600184015581015160028301556040830151600383015560608301516004830180546001600160a01b0319166001600160a01b0390921691909117905560809283015160059092019190915590840151600b83015560a084015160ff16600d83015560c0840151600e830155600f8201805461ffff191661010090811790915584015180516140a59260108501920190614cdd565b506140b34262278d00615961565b60118201556000601282018190556101208401516013830180546001600160a01b039092166001600160a01b0319928316811790915584835260196020526040832080549092161790555b8360e00151518110156141805781600c018460e00151828151811061412557614125615974565b602090810291909101810151825460018101845560009384529190922082516003909202019081906141579082615dff565b506020820151600182015560409091015160029091015580614178816159be565b9150506140fe565b5060005b836040015151811015614202576001600f60008581526020019081526020016000206000866040015184815181106141be576141be615974565b6020908102919091018101516001600160a01b03168252810191909152604001600020805460ff1916911515919091179055806141fa816159be565b915050614184565b50600d8054906000614213836159be565b9190505550336001600160a01b0316827fb627fd710eb93733196a5e4d106fc18af287574dcaa2cb48d76bc40d09145b498560000151866040015187602001518860a001518961010001518a60c0015160405161427596959493929190615ebe565b60405180910390a350919050565b6000848152600e6020908152604080832060169092528220805491926142a883615d43565b90915550506001600160a01b03821661431257600085815260106020526040812080548592906142d9908490615a31565b9091555050600085815260126020908152604080832033845290915281208054859290614307908490615961565b909155506143899050565b60008581526011602090815260408083206001600160a01b038616845290915281208054859290614344908490615a31565b909155505060008581526013602090815260408083206001600160a01b0386168452825280832033845290915281208054859290614383908490615961565b90915550505b600085815260166020526040812054600d830154600e8401549192916064916143b191615d2c565b6143bb9190615d5a565b905080821080156143e457506001600f84015460ff1660078111156143e2576143e2614ebd565b145b1561443157600f8301805460ff1916905560405187907f8ed894b6f384ca9c829b9aa5b056bc9106a90845a15616607e975d4ad488ee67906144289060009061549f565b60405180910390a25b6000878152601760209081526040808320898452909152812055614456873388614921565b6006546040516387f9ca5d60e01b815260048101889052600160248201523360448201526001600160a01b03909116906387f9ca5d90606401600060405180830381600087803b1580156144a957600080fd5b505af11580156144bd573d6000803e3d6000fd5b5050505050505050505050565b306001600160a01b037f000000000000000000000000000000000000000000000000000000000000000016148061455157507f00000000000000000000000000000000000000000000000000000000000000006001600160a01b0316614545600080516020615f5b833981519152546001600160a01b031690565b6001600160a01b031614155b156121fe5760405163703e46dd60e11b815260040160405180910390fd5b61321c61467d565b816001600160a01b03166352d1902d6040518163ffffffff1660e01b8152600401602060405180830381865afa9250505080156145d1575060408051601f3d908101601f191682019092526145ce918101906159fb565b60015b6145f957604051634c9c8ce360e01b81526001600160a01b0383166004820152602401610d9d565b600080516020615f5b833981519152811461462a57604051632a87526960e21b815260048101829052602401610d9d565b612dbc8383614a00565b306001600160a01b037f000000000000000000000000000000000000000000000000000000000000000016146121fe5760405163703e46dd60e11b815260040160405180910390fd5b336146af7f9016d09d72d40fdae2fd8ceac6b6234c7706214fd39c1cd1e609a0528c199300546001600160a01b031690565b6001600160a01b0316146121fe5760405163118cdaa760e01b8152336004820152602401610d9d565b7f9016d09d72d40fdae2fd8ceac6b6234c7706214fd39c1cd1e609a0528c19930080546001600160a01b031981166001600160a01b03848116918217845560405192169182907f8be0079c531659141344cd1fd0a4f28419497f9722a3daafe3b4186f6b6457e090600090a3505050565b614751614a56565b6121fe614a9f565b614761614a56565b61321c81614aa7565b7f9b779b17422d0df92223018b32b4d1fa46e071723d6817e2486d003becc55f008054600119016147ae57604051633ee5aeb560e01b815260040160405180910390fd5b60029055565b60017f9b779b17422d0df92223018b32b4d1fa46e071723d6817e2486d003becc55f0055565b6147e5816002615961565b8251146148805760405162461bcd60e51b815260206004820152605a60248201527f53706c6974206172726179206d75737420686176652061206c656e677468206560448201527f7175616c20746f20746865206e756d626572206f66206172746973747320706c60648201527f7573203220286f7267616e697a657220616e642076656e756529000000000000608482015260a401610d9d565b6000805b83518110156148c65783818151811061489f5761489f615974565b6020026020010151826148b29190615961565b9150806148be816159be565b915050614884565b5080606414612dbc5760405162461bcd60e51b815260206004820152602160248201527f53706c69742070657263656e7461676573206d7573742073756d20746f2031306044820152600360fc1b6064820152608401610d9d565b60008381526018602090815260408083206001600160a01b03861684529091528120905b81548110156149f9578282828154811061496157614961615974565b9060005260206000200154036149e7578154829061498190600190615a31565b8154811061499157614991615974565b90600052602060002001548282815481106149ae576149ae615974565b9060005260206000200181905550818054806149cc576149cc615f28565b600190038181906000526020600020016000905590556149f9565b806149f1816159be565b915050614945565b5050505050565b614a0982614aaf565b6040516001600160a01b038316907fbc7cd75a20ee27fd9adebab32041f755214dbc6bffa90cc0225b39da2e5c2d3b90600090a2805115614a4e57612dbc8282614b14565b611ce1614b8a565b7ff0c57e16840df040f15088dc2f81fe391c3923bec73e23a9662efc9c229c6a0054600160401b900460ff166121fe57604051631afcd79f60e31b815260040160405180910390fd5b6147b4614a56565b61333a614a56565b806001600160a01b03163b600003614ae557604051634c9c8ce360e01b81526001600160a01b0382166004820152602401610d9d565b600080516020615f5b83398151915280546001600160a01b0319166001600160a01b0392909216919091179055565b6060600080846001600160a01b031684604051614b319190615f3e565b600060405180830381855af49150503d8060008114614b6c576040519150601f19603f3d011682016040523d82523d6000602084013e614b71565b606091505b5091509150614b81858383614ba9565b95945050505050565b34156121fe5760405163b398979f60e01b815260040160405180910390fd5b606082614bbe57614bb982614c05565b6124fe565b8151158015614bd557506001600160a01b0384163b155b15614bfe57604051639996b31560e01b81526001600160a01b0385166004820152602401610d9d565b50806124fe565b805115614c155780518082602001fd5b604051630a12f52160e11b815260040160405180910390fd5b6040518060a0016040528060608152602001614c5d604051806040016040528060008152602001600081525090565b81526000602082018190526040820181905260609091015290565b828054828255906000526020600020908101928215614ccd579160200282015b82811115614ccd57825182546001600160a01b0319166001600160a01b03909116178255602090920191600190910190614c98565b50614cd9929150614d18565b5090565b828054828255906000526020600020908101928215614ccd579160200282015b82811115614ccd578251825591602001919060010190614cfd565b5b80821115614cd95760008155600101614d19565b6001600160a01b038116811461321c57600080fd5b8035614d4d81614d2d565b919050565b60008060408385031215614d6557600080fd5b8235614d7081614d2d565b946020939093013593505050565b60008060408385031215614d9157600080fd5b82359150602083013560088110614da757600080fd5b809150509250929050565b600060208284031215614dc457600080fd5b5035919050565b60005b83811015614de6578181015183820152602001614dce565b50506000910152565b60008151808452614e07816020860160208601614dcb565b601f01601f19169290920160200192915050565b600081518084526020808501945080840160005b83811015614e545781516001600160a01b031687529582019590820190600101614e2f565b509495945050505050565b6000815160c08452614e7460c0850182614def565b905060208301518051602086015260208101516040860152506040830151606085015260018060a01b036060840151166080850152608083015160a08501528091505092915050565b634e487b7160e01b600052602160045260246000fd5b60088110614ef157634e487b7160e01b600052602160045260246000fd5b9052565b6000610160808352614f098184018f614def565b9050602083820381850152614f1e828f614def565b9150604060018060a01b038e1681860152606085840381870152614f42848f614e1b565b93508584036080870152614f56848e614e5f565b935085840360a0870152838c518086528486019150848160051b870101858f0160005b83811015614fc257888303601f1901855281518051878552614f9d88860182614def565b828b0151868c0152918901519489019490945294880194925090870190600101614f79565b5050809750505050505050508660c08301528560e0830152614fe8610100830186614ed3565b8315156101208301526001600160a01b0383166101408301529c9b505050505050505050505050565b6000806040838503121561502457600080fd5b50508035926020909101359150565b634e487b7160e01b600052604160045260246000fd5b604051606081016001600160401b038111828210171561506b5761506b615033565b60405290565b60405161014081016001600160401b038111828210171561506b5761506b615033565b604051601f8201601f191681016001600160401b03811182821017156150bc576150bc615033565b604052919050565b60006001600160401b038311156150dd576150dd615033565b6150f0601f8401601f1916602001615094565b905082815283838301111561510457600080fd5b828260208301376000602084830101529392505050565b600082601f83011261512c57600080fd5b6124fe838335602085016150c4565b60006001600160401b0382111561515457615154615033565b5060051b60200190565b600082601f83011261516f57600080fd5b8135602061518461517f8361513b565b615094565b82815260059290921b840181019181810190868411156151a357600080fd5b8286015b848110156151c75780356151ba81614d2d565b83529183019183016151a7565b509695505050505050565b6000604082840312156151e457600080fd5b604051604081018181106001600160401b038211171561520657615206615033565b604052823581526020928301359281019290925250919050565b803560ff81168114614d4d57600080fd5b600082601f83011261524257600080fd5b8135602061525261517f8361513b565b82815260059290921b8401810191818101908684111561527157600080fd5b8286015b848110156151c75780356001600160401b03808211156152955760008081fd5b908801906060828b03601f19018113156152af5760008081fd5b6152b7615049565b87840135838111156152c95760008081fd5b6152d78d8a8388010161511b565b82525060408481013589830152919093013590830152508352918301918301615275565b600082601f83011261530c57600080fd5b8135602061531c61517f8361513b565b82815260059290921b8401810191818101908684111561533b57600080fd5b8286015b848110156151c7578035835291830191830161533f565b60006020828403121561536857600080fd5b81356001600160401b038082111561537f57600080fd5b90830190610160828603121561539457600080fd5b61539c615071565b8235828111156153ab57600080fd5b6153b78782860161511b565b8252506020830135828111156153cc57600080fd5b6153d88782860161511b565b6020830152506040830135828111156153f057600080fd5b6153fc8782860161515e565b60408301525061540f86606085016151d2565b606082015260a0830135608082015261542a60c08401615220565b60a082015260e083013560c0820152610100808401358381111561544d57600080fd5b61545988828701615231565b60e084015250610120808501358481111561547357600080fd5b61547f898288016152fb565b83850152506154916101408601614d42565b908301525095945050505050565b60208101610d4e8284614ed3565b600080604083850312156154c057600080fd5b82356154cb81614d2d565b915060208301356001600160401b038111156154e657600080fd5b8301601f810185136154f757600080fd5b615506858235602084016150c4565b9150509250929050565b6000806000806080858703121561552657600080fd5b8435935060208501359250604085013561553f81614d2d565b9150606085013561554f81614d2d565b939692955090935050565b6000806040838503121561556d57600080fd5b823591506020830135614da781614d2d565b600081518084526020808501945080840160005b83811015614e5457815187529582019590820190600101615593565b6020815260006124fe602083018461557f565b6000806000606084860312156155d757600080fd5b505081359360208301359350604090920135919050565b60008060006060848603121561560357600080fd5b83359250602084013561561581614d2d565b9150604084013561562581614d2d565b809150509250925092565b60008060006060848603121561564557600080fd5b83359250602084013561565781614d2d565b929592945050506040919091013590565b60608152600061567b6060830186614def565b60208301949094525060400152919050565b6000806000606084860312156156a257600080fd5b83356156ad81614d2d565b95602085013595506040909401359392505050565b6020815260006124fe6020830184614def565b600080604083850312156156e857600080fd5b8235915060208301356001600160401b0381111561570557600080fd5b830160c08186031215614da757600080fd5b60006020828403121561572957600080fd5b81356124fe81614d2d565b801515811461321c57600080fd5b6000806000806080858703121561575857600080fd5b84359350602085013561576a81614d2d565b925060408501359150606085013561554f81615734565b60008060008060008060c0878903121561579a57600080fd5b86356157a581614d2d565b955060208701356157b581614d2d565b945060408701356157c581614d2d565b935060608701356157d581614d2d565b925060808701356157e581614d2d565b915060a08701356157f581614d2d565b809150509295509295509295565b8d81526101a06020820152600061581e6101a083018f614def565b8281036040840152615830818f614def565b6001600160a01b038e16606085015283810360808501529050615853818d614e5f565b9150508960a08301528860c08301528760e0830152615876610100830188614ed3565b85151561012083015284610140830152836101608301526158a36101808301846001600160a01b03169052565b9e9d5050505050505050505050505050565b60208082526048908201527f4f6e6c79207468652056656e75652c205469636b657420636f6e74726163742c60408201527f206f72207468697320636f6e74726163742063616e2063616c6c207468697320606082015267333ab731ba34b7b760c11b608082015260a00190565b6020808252600e908201526d139bdd08185d5d1a1bdc9a5e995960921b604082015260600190565b634e487b7160e01b600052601160045260246000fd5b80820180821115610d4e57610d4e61594b565b634e487b7160e01b600052603260045260246000fd5b600181811c9082168061599e57607f821691505b602082108103611c9d57634e487b7160e01b600052602260045260246000fd5b6000600182016159d0576159d061594b565b5060010190565b600080604083850312156159ea57600080fd5b505080516020909101519092909150565b600060208284031215615a0d57600080fd5b5051919050565b600060208284031215615a2657600080fd5b81516124fe81615734565b81810381811115610d4e57610d4e61594b565b6020808252602f908201527f4f6e6c7920746865205469636b657420636f6e74726163742063616e2063616c60408201526e36103a3434b990333ab731ba34b7b760891b606082015260800190565b601f821115612dbc57600081815260208120601f850160051c81016020861015615aba5750805b601f850160051c820191505b8181101561102457828155600101615ac6565b6001600160401b03831115615af057615af0615033565b615b0483615afe835461598a565b83615a93565b6000601f841160018114615b385760008515615b205750838201355b600019600387901b1c1916600186901b1783556149f9565b600083815260209020601f19861690835b82811015615b695786850135825560209485019460019092019101615b49565b5086821015615b865760001960f88860031b161c19848701351681555b505060018560011b0183555050505050565b60008135610d4e81614d2d565b8135601e19833603018112615bb957600080fd5b820180356001600160401b03811115615bd157600080fd5b602082019150803603821315615be657600080fd5b615bf1818385615ad9565b5050602082013560018201556040820135600282015560608201356003820155615c44615c2060808401615b98565b6004830180546001600160a01b0319166001600160a01b0392909216919091179055565b60a082013560058201555050565b81835281816020850137506000828201602090810191909152601f909101601f19169091010190565b6020815260008235601e19843603018112615c9557600080fd5b83016020810190356001600160401b03811115615cb157600080fd5b803603821315615cc057600080fd5b60c06020850152615cd560e085018284615c52565b915050615cf2604084016020860180358252602090810135910152565b60608401356080840152615d0860808501614d42565b6001600160a01b03811660a08501525060a084013560c08401528091505092915050565b8082028115828204841417610d4e57610d4e61594b565b600081615d5257615d5261594b565b506000190190565b600082615d7757634e487b7160e01b600052601260045260246000fd5b500490565b6000610140808352615d908184018e614def565b90508281036020840152615da4818d614def565b90508281036040840152615db8818c614e1b565b606084019a909a525050608081019690965260a086019490945260ff9290921660c085015260e08401526001600160a01b0316610100830152610120909101529392505050565b81516001600160401b03811115615e1857615e18615033565b615e2c81615e26845461598a565b84615a93565b602080601f831160018114615e615760008415615e495750858301515b600019600386901b1c1916600185901b178555611024565b600085815260208120601f198616915b82811015615e9057888601518255948401946001909101908401615e71565b5085821015615eae5787850151600019600388901b60f8161c191681555b5050505050600190811b01905550565b60c081526000615ed160c0830189614def565b8281036020840152615ee38189614e1b565b90508281036040840152615ef78188614def565b905060ff861660608401528281036080840152615f14818661557f565b9150508260a0830152979650505050505050565b634e487b7160e01b600052603160045260246000fd5b60008251615f50818460208701614dcb565b919091019291505056fe360894a13ba1a3210667c828492db98dca3e2076cc3735a920a3ca505d382bbca264697066735822122040f3a607b8ddcd7f18fcded20890add86c08d42907488236a9177d803aa84d8164736f6c63430008140033","linkReferences":{}},"methodIdentifiers":{"SELLOUT_PROTOCOL_WALLET()":"e30228be","UPGRADE_INTERFACE_VERSION()":"ad3cb1cc","activeShowCount()":"16488906","addTokenIdToWallet(bytes32,address,uint256)":"de44006f","artistRegistryContract()":"41adf3ad","artistRegistryInstance()":"8dea15a1","cancelShow(bytes32)":"ef5023a5","completeShow(bytes32)":"129e086b","consumeTicketTier(bytes32,uint256,uint256)":"644b5e59","depositToVault(bytes32)":"85266635","depositToVaultERC20(bytes32,uint256,address,address)":"5412233f","getNumberOfVoters(bytes32)":"85ffa16c","getOrganizer(bytes32)":"977cb89e","getShowById(bytes32)":"27b1bf52","getShowStatus(bytes32)":"46c2c8a7","getTicketPricePaid(bytes32,uint256)":"93d4e100","getTicketTierInfo(bytes32,uint256)":"7e3e3935","getTotalTicketsSold(bytes32)":"61041870","getWalletTokenIds(bytes32,address)":"5b9a1e09","hasTicket(address,bytes32)":"5c37da69","initialize(address)":"c4d66de8","isArtist(address,bytes32)":"02c9a8b5","isArtistMapping(bytes32,address)":"bafd4eb0","isOrganizer(address,bytes32)":"4ed372da","isTicketOwner(address,bytes32,uint256)":"a03f4efe","organizerRegistryContract()":"66bc64cd","organizerRegistryInstance()":"1cf2103e","owner()":"8da5cb5b","payout(bytes32)":"cfefb3d5","pendingPayouts(bytes32,address)":"8e70362b","pendingRefunds(bytes32,address)":"5696c07c","pendingTokenPayouts(bytes32,address,address)":"75976795","pendingTokenRefunds(bytes32,address,address)":"92ea6388","proposeShow((string,string,address[],(int256,int256),uint256,uint8,uint256,(string,uint256,uint256)[],uint256[],address))":"3b9ce466","proxiableUUID()":"52d1902d","referralContract()":"7dad19db","referralInstance()":"c6ab848a","refundTicket(bytes32,uint256)":"3c60d2d6","renounceOwnership()":"715018a6","setProtocolAddresses(address,address,address,address,address,address)":"f8121873","setTicketOwnership(bytes32,address,uint256,bool)":"c8f67e96","setTicketPricePaid(bytes32,uint256,uint256)":"bd47dc5c","setTotalTicketsSold(bytes32,uint256)":"787d76b8","showPaymentToken(bytes32)":"72958028","showTokenVault(bytes32,address)":"c9e21e5e","showVault(bytes32)":"867e68af","shows(bytes32)":"fca46559","ticketContract()":"58a86e1d","ticketInstance()":"0233ce6a","ticketPricePaid(bytes32,uint256)":"2f18ddfe","totalTicketsSold(bytes32)":"925e8f89","transferOwnership(address)":"f2fde38b","updateShowVenue(bytes32,(string,(int256,int256),uint256,address,bytes32))":"c29e2de4","updateStatus(bytes32,uint8)":"054372ed","updateStatusIfSoldOut(bytes32)":"e6180546","upgradeToAndCall(address,bytes)":"4f1ef286","venueContract()":"51819335","venueRegistryContract()":"31a68da0","venueRegistryInstance()":"703ee4e5","walletToShowToTokenIds(bytes32,address,uint256)":"7d8d6a22","withdrawRefund(bytes32)":"e9acfa7c"},"id":58}