{"abi":[{"type":"function","name":"SELLOUT_PROTOCOL_WALLET","inputs":[],"outputs":[{"name":"","type":"address","internalType":"address"}],"stateMutability":"view"},{"type":"function","name":"activeShowCount","inputs":[],"outputs":[{"name":"","type":"uint256","internalType":"uint256"}],"stateMutability":"view"},{"type":"function","name":"artistRegistryContract","inputs":[],"outputs":[{"name":"","type":"address","internalType":"address"}],"stateMutability":"view"},{"type":"function","name":"artistRegistryInstance","inputs":[],"outputs":[{"name":"","type":"address","internalType":"contract IArtistRegistry"}],"stateMutability":"view"},{"type":"function","name":"isArtistMapping","inputs":[{"name":"","type":"bytes32","internalType":"bytes32"},{"name":"","type":"address","internalType":"address"}],"outputs":[{"name":"","type":"bool","internalType":"bool"}],"stateMutability":"view"},{"type":"function","name":"organizerRegistryContract","inputs":[],"outputs":[{"name":"","type":"address","internalType":"address"}],"stateMutability":"view"},{"type":"function","name":"organizerRegistryInstance","inputs":[],"outputs":[{"name":"","type":"address","internalType":"contract IOrganizerRegistry"}],"stateMutability":"view"},{"type":"function","name":"pendingPayouts","inputs":[{"name":"","type":"bytes32","internalType":"bytes32"},{"name":"","type":"address","internalType":"address"}],"outputs":[{"name":"","type":"uint256","internalType":"uint256"}],"stateMutability":"view"},{"type":"function","name":"pendingRefunds","inputs":[{"name":"","type":"bytes32","internalType":"bytes32"},{"name":"","type":"address","internalType":"address"}],"outputs":[{"name":"","type":"uint256","internalType":"uint256"}],"stateMutability":"view"},{"type":"function","name":"pendingTokenPayouts","inputs":[{"name":"","type":"bytes32","internalType":"bytes32"},{"name":"","type":"address","internalType":"address"},{"name":"","type":"address","internalType":"address"}],"outputs":[{"name":"","type":"uint256","internalType":"uint256"}],"stateMutability":"view"},{"type":"function","name":"pendingTokenRefunds","inputs":[{"name":"","type":"bytes32","internalType":"bytes32"},{"name":"","type":"address","internalType":"address"},{"name":"","type":"address","internalType":"address"}],"outputs":[{"name":"","type":"uint256","internalType":"uint256"}],"stateMutability":"view"},{"type":"function","name":"referralContract","inputs":[],"outputs":[{"name":"","type":"address","internalType":"address"}],"stateMutability":"view"},{"type":"function","name":"referralInstance","inputs":[],"outputs":[{"name":"","type":"address","internalType":"contract ReferralModule"}],"stateMutability":"view"},{"type":"function","name":"showPaymentToken","inputs":[{"name":"","type":"bytes32","internalType":"bytes32"}],"outputs":[{"name":"","type":"address","internalType":"address"}],"stateMutability":"view"},{"type":"function","name":"showTokenVault","inputs":[{"name":"","type":"bytes32","internalType":"bytes32"},{"name":"","type":"address","internalType":"address"}],"outputs":[{"name":"","type":"uint256","internalType":"uint256"}],"stateMutability":"view"},{"type":"function","name":"showVault","inputs":[{"name":"","type":"bytes32","internalType":"bytes32"}],"outputs":[{"name":"","type":"uint256","internalType":"uint256"}],"stateMutability":"view"},{"type":"function","name":"shows","inputs":[{"name":"","type":"bytes32","internalType":"bytes32"}],"outputs":[{"name":"showId","type":"bytes32","internalType":"bytes32"},{"name":"name","type":"string","internalType":"string"},{"name":"description","type":"string","internalType":"string"},{"name":"organizer","type":"address","internalType":"address"},{"name":"venue","type":"tuple","internalType":"struct VenueTypes.Venue","components":[{"name":"name","type":"string","internalType":"string"},{"name":"coordinates","type":"tuple","internalType":"struct VenueTypes.Coordinates","components":[{"name":"lat","type":"int256","internalType":"int256"},{"name":"lon","type":"int256","internalType":"int256"}]},{"name":"totalCapacity","type":"uint256","internalType":"uint256"},{"name":"wallet","type":"address","internalType":"address"},{"name":"venueId","type":"bytes32","internalType":"bytes32"}]},{"name":"radius","type":"uint256","internalType":"uint256"},{"name":"sellOutThreshold","type":"uint256","internalType":"uint256"},{"name":"totalCapacity","type":"uint256","internalType":"uint256"},{"name":"status","type":"uint8","internalType":"enum ShowTypes.Status"},{"name":"isActive","type":"bool","internalType":"bool"},{"name":"expiry","type":"uint256","internalType":"uint256"},{"name":"showDate","type":"uint256","internalType":"uint256"},{"name":"currencyAddress","type":"address","internalType":"address"}],"stateMutability":"view"},{"type":"function","name":"ticketContract","inputs":[],"outputs":[{"name":"","type":"address","internalType":"address"}],"stateMutability":"view"},{"type":"function","name":"ticketInstance","inputs":[],"outputs":[{"name":"","type":"address","internalType":"contract Ticket"}],"stateMutability":"view"},{"type":"function","name":"ticketPricePaid","inputs":[{"name":"","type":"bytes32","internalType":"bytes32"},{"name":"","type":"uint256","internalType":"uint256"}],"outputs":[{"name":"","type":"uint256","internalType":"uint256"}],"stateMutability":"view"},{"type":"function","name":"totalTicketsSold","inputs":[{"name":"","type":"bytes32","internalType":"bytes32"}],"outputs":[{"name":"","type":"uint256","internalType":"uint256"}],"stateMutability":"view"},{"type":"function","name":"venueContract","inputs":[],"outputs":[{"name":"","type":"address","internalType":"address"}],"stateMutability":"view"},{"type":"function","name":"venueRegistryContract","inputs":[],"outputs":[{"name":"","type":"address","internalType":"address"}],"stateMutability":"view"},{"type":"function","name":"venueRegistryInstance","inputs":[],"outputs":[{"name":"","type":"address","internalType":"contract IVenueRegistry"}],"stateMutability":"view"},{"type":"function","name":"walletToShowToTokenIds","inputs":[{"name":"","type":"bytes32","internalType":"bytes32"},{"name":"","type":"address","internalType":"address"},{"name":"","type":"uint256","internalType":"uint256"}],"outputs":[{"name":"","type":"uint256","internalType":"uint256"}],"stateMutability":"view"}],"bytecode":{"object":"0x6080604052600a805460ff60a01b1916905534801561001d57600080fd5b50610a138061002d6000396000f3fe608060405234801561001057600080fd5b50600436106101735760003560e01c806375976795116100de578063925e8f8911610097578063c6ab848a11610071578063c6ab848a14610407578063c9e21e5e1461041a578063e30228be14610445578063fca465591461045857600080fd5b8063925e8f891461037857806392ea638814610398578063bafd4eb0146103c957600080fd5b806375976795146102c35780637d8d6a22146102f45780637dad19db14610307578063867e68af1461031a5780638dea15a11461033a5780638e70362b1461034d57600080fd5b8063518193351161013057806351819335146102235780635696c07c1461023657806358a86e1d1461026157806366bc64cd14610274578063703ee4e514610287578063729580281461029a57600080fd5b80630233ce6a1461017857806316488906146101a85780631cf2103e146101bf5780632f18ddfe146101d257806331a68da0146101fd57806341adf3ad14610210575b600080fd5b60065461018b906001600160a01b031681565b6040516001600160a01b0390911681526020015b60405180910390f35b6101b1600d5481565b60405190815260200161019f565b60095461018b906001600160a01b031681565b6101b16101e0366004610737565b601760209081526000928352604080842090915290825290205481565b60055461018b906001600160a01b031681565b60035461018b906001600160a01b031681565b60015461018b906001600160a01b031681565b6101b1610244366004610775565b601260209081526000928352604080842090915290825290205481565b60005461018b906001600160a01b031681565b60045461018b906001600160a01b031681565b600a5461018b906001600160a01b031681565b61018b6102a83660046107a1565b601a602052600090815260409020546001600160a01b031681565b6101b16102d13660046107ba565b601560209081526000938452604080852082529284528284209052825290205481565b6101b16103023660046107f6565b610484565b60025461018b906001600160a01b031681565b6101b16103283660046107a1565b60106020526000908152604090205481565b60085461018b906001600160a01b031681565b6101b161035b366004610775565b601460209081526000928352604080842090915290825290205481565b6101b16103863660046107a1565b60166020526000908152604090205481565b6101b16103a63660046107ba565b601360209081526000938452604080852082529284528284209052825290205481565b6103f76103d7366004610775565b600f60209081526000928352604080842090915290825290205460ff1681565b604051901515815260200161019f565b60075461018b906001600160a01b031681565b6101b1610428366004610775565b601160209081526000928352604080842090915290825290205481565b600b5461018b906001600160a01b031681565b61046b6104663660046107a1565b6104c2565b60405161019f9d9c9b9a999897969594939291906108f1565b601960205282600052604060002060205281600052604060002081815481106104ac57600080fd5b9060005260206000200160009250925050505481565b600e60205260009081526040902080546001820180549192916104e4906109a3565b80601f0160208091040260200160405190810160405280929190818152602001828054610510906109a3565b801561055d5780601f106105325761010080835404028352916020019161055d565b820191906000526020600020905b81548152906001019060200180831161054057829003601f168201915b505050505090806002018054610572906109a3565b80601f016020809104026020016040519081016040528092919081815260200182805461059e906109a3565b80156105eb5780601f106105c0576101008083540402835291602001916105eb565b820191906000526020600020905b8154815290600101906020018083116105ce57829003601f168201915b5050505050908060030160009054906101000a90046001600160a01b031690806005016040518060a0016040529081600082018054610629906109a3565b80601f0160208091040260200160405190810160405280929190818152602001828054610655906109a3565b80156106a25780601f10610677576101008083540402835291602001916106a2565b820191906000526020600020905b81548152906001019060200180831161068557829003601f168201915b505050918352505060408051808201825260018401548152600284015460208281019190915283015260038301549082015260048201546001600160a01b039081166060830152600590920154608090910152600b830154600d840154600e850154600f86015460118701546012880154601390980154969794969395929460ff80841695610100909404169391929091168d565b6000806040838503121561074a57600080fd5b50508035926020909101359150565b80356001600160a01b038116811461077057600080fd5b919050565b6000806040838503121561078857600080fd5b8235915061079860208401610759565b90509250929050565b6000602082840312156107b357600080fd5b5035919050565b6000806000606084860312156107cf57600080fd5b833592506107df60208501610759565b91506107ed60408501610759565b90509250925092565b60008060006060848603121561080b57600080fd5b8335925061081b60208501610759565b9150604084013590509250925092565b6000815180845260005b8181101561085157602081850181015186830182015201610835565b506000602082860101526020601f19601f83011685010191505092915050565b6000815160c0845261088660c085018261082b565b905060208301518051602086015260208101516040860152506040830151606085015260018060a01b036060840151166080850152608083015160a08501528091505092915050565b600881106108ed57634e487b7160e01b600052602160045260246000fd5b9052565b8d81526101a06020820152600061090c6101a083018f61082b565b828103604084015261091e818f61082b565b6001600160a01b038e16606085015283810360808501529050610941818d610871565b9150508960a08301528860c08301528760e08301526109646101008301886108cf565b85151561012083015284610140830152836101608301526109916101808301846001600160a01b03169052565b9e9d5050505050505050505050505050565b600181811c908216806109b757607f821691505b6020821081036109d757634e487b7160e01b600052602260045260246000fd5b5091905056fea2646970667358221220b6f13f086a3f20d194b0cd13da0608b2f8f8d9e35b678aaf1c39225f2603cf7e64736f6c63430008140033","linkReferences":{}},"methodIdentifiers":{"SELLOUT_PROTOCOL_WALLET()":"e30228be","activeShowCount()":"16488906","artistRegistryContract()":"41adf3ad","artistRegistryInstance()":"8dea15a1","isArtistMapping(bytes32,address)":"bafd4eb0","organizerRegistryContract()":"66bc64cd","organizerRegistryInstance()":"1cf2103e","pendingPayouts(bytes32,address)":"8e70362b","pendingRefunds(bytes32,address)":"5696c07c","pendingTokenPayouts(bytes32,address,address)":"75976795","pendingTokenRefunds(bytes32,address,address)":"92ea6388","referralContract()":"7dad19db","referralInstance()":"c6ab848a","showPaymentToken(bytes32)":"72958028","showTokenVault(bytes32,address)":"c9e21e5e","showVault(bytes32)":"867e68af","shows(bytes32)":"fca46559","ticketContract()":"58a86e1d","ticketInstance()":"0233ce6a","ticketPricePaid(bytes32,uint256)":"2f18ddfe","totalTicketsSold(bytes32)":"925e8f89","venueContract()":"51819335","venueRegistryContract()":"31a68da0","venueRegistryInstance()":"703ee4e5","walletToShowToTokenIds(bytes32,address,uint256)":"7d8d6a22"},"id":61}