{"abi":[{"type":"function","name":"SELLOUT_PROTOCOL_WALLET","inputs":[],"outputs":[{"name":"","type":"address","internalType":"address"}],"stateMutability":"view"},{"type":"function","name":"UPGRADE_INTERFACE_VERSION","inputs":[],"outputs":[{"name":"","type":"string","internalType":"string"}],"stateMutability":"view"},{"type":"function","name":"activeShowCount","inputs":[],"outputs":[{"name":"","type":"uint256","internalType":"uint256"}],"stateMutability":"view"},{"type":"function","name":"addTokenIdToWallet","inputs":[{"name":"showId","type":"bytes32","internalType":"bytes32"},{"name":"wallet","type":"address","internalType":"address"},{"name":"tokenId","type":"uint256","internalType":"uint256"}],"outputs":[],"stateMutability":"nonpayable"},{"type":"function","name":"artistRegistryContract","inputs":[],"outputs":[{"name":"","type":"address","internalType":"address"}],"stateMutability":"view"},{"type":"function","name":"artistRegistryInstance","inputs":[],"outputs":[{"name":"","type":"address","internalType":"contract IArtistRegistry"}],"stateMutability":"view"},{"type":"function","name":"cancelShow","inputs":[{"name":"showId","type":"bytes32","internalType":"bytes32"}],"outputs":[],"stateMutability":"nonpayable"},{"type":"function","name":"completeShow","inputs":[{"name":"showId","type":"bytes32","internalType":"bytes32"}],"outputs":[],"stateMutability":"nonpayable"},{"type":"function","name":"consumeTicketTier","inputs":[{"name":"showId","type":"bytes32","internalType":"bytes32"},{"name":"tierIndex","type":"uint256","internalType":"uint256"},{"name":"amount","type":"uint256","internalType":"uint256"}],"outputs":[],"stateMutability":"nonpayable"},{"type":"function","name":"depositToVault","inputs":[{"name":"showId","type":"bytes32","internalType":"bytes32"}],"outputs":[],"stateMutability":"payable"},{"type":"function","name":"depositToVaultERC20","inputs":[{"name":"showId","type":"bytes32","internalType":"bytes32"},{"name":"amount","type":"uint256","internalType":"uint256"},{"name":"paymentToken","type":"address","internalType":"address"}],"outputs":[],"stateMutability":"nonpayable"},{"type":"function","name":"getNumberOfVoters","inputs":[{"name":"showId","type":"bytes32","internalType":"bytes32"}],"outputs":[{"name":"","type":"uint256","internalType":"uint256"}],"stateMutability":"view"},{"type":"function","name":"getOrganizer","inputs":[{"name":"showId","type":"bytes32","internalType":"bytes32"}],"outputs":[{"name":"","type":"address","internalType":"address"}],"stateMutability":"view"},{"type":"function","name":"getPendingPayout","inputs":[{"name":"showId","type":"bytes32","internalType":"bytes32"},{"name":"user","type":"address","internalType":"address"}],"outputs":[{"name":"amountOwed","type":"uint256","internalType":"uint256"}],"stateMutability":"view"},{"type":"function","name":"getPendingRefund","inputs":[{"name":"showId","type":"bytes32","internalType":"bytes32"},{"name":"user","type":"address","internalType":"address"}],"outputs":[{"name":"amountOwed","type":"uint256","internalType":"uint256"}],"stateMutability":"view"},{"type":"function","name":"getSellOutThreshold","inputs":[{"name":"showId","type":"bytes32","internalType":"bytes32"}],"outputs":[{"name":"","type":"uint256","internalType":"uint256"}],"stateMutability":"view"},{"type":"function","name":"getShowById","inputs":[{"name":"showId","type":"bytes32","internalType":"bytes32"}],"outputs":[{"name":"name","type":"string","internalType":"string"},{"name":"description","type":"string","internalType":"string"},{"name":"organizer","type":"address","internalType":"address"},{"name":"artists","type":"address[]","internalType":"address[]"},{"name":"venue","type":"tuple","internalType":"struct VenueTypes.Venue","components":[{"name":"name","type":"string","internalType":"string"},{"name":"coordinates","type":"tuple","internalType":"struct VenueTypes.Coordinates","components":[{"name":"lat","type":"int256","internalType":"int256"},{"name":"lon","type":"int256","internalType":"int256"}]},{"name":"totalCapacity","type":"uint256","internalType":"uint256"},{"name":"wallet","type":"address","internalType":"address"},{"name":"venueId","type":"bytes32","internalType":"bytes32"}]},{"name":"ticketTiers","type":"tuple[]","internalType":"struct ShowTypes.TicketTier[]","components":[{"name":"name","type":"string","internalType":"string"},{"name":"price","type":"uint256","internalType":"uint256"},{"name":"ticketsAvailable","type":"uint256","internalType":"uint256"}]},{"name":"sellOutThreshold","type":"uint256","internalType":"uint256"},{"name":"totalCapacity","type":"uint256","internalType":"uint256"},{"name":"status","type":"uint8","internalType":"enum ShowTypes.Status"},{"name":"isActive","type":"bool","internalType":"bool"}],"stateMutability":"view"},{"type":"function","name":"getShowPaymentToken","inputs":[{"name":"showId","type":"bytes32","internalType":"bytes32"}],"outputs":[{"name":"","type":"address","internalType":"address"}],"stateMutability":"view"},{"type":"function","name":"getShowStatus","inputs":[{"name":"showId","type":"bytes32","internalType":"bytes32"}],"outputs":[{"name":"","type":"uint8","internalType":"enum ShowTypes.Status"}],"stateMutability":"view"},{"type":"function","name":"getTicketPricePaid","inputs":[{"name":"showId","type":"bytes32","internalType":"bytes32"},{"name":"ticketId","type":"uint256","internalType":"uint256"}],"outputs":[{"name":"","type":"uint256","internalType":"uint256"}],"stateMutability":"view"},{"type":"function","name":"getTicketTierInfo","inputs":[{"name":"showId","type":"bytes32","internalType":"bytes32"},{"name":"tierIndex","type":"uint256","internalType":"uint256"}],"outputs":[{"name":"name","type":"string","internalType":"string"},{"name":"price","type":"uint256","internalType":"uint256"},{"name":"ticketsAvailable","type":"uint256","internalType":"uint256"}],"stateMutability":"view"},{"type":"function","name":"getTotalCapacity","inputs":[{"name":"showId","type":"bytes32","internalType":"bytes32"}],"outputs":[{"name":"","type":"uint256","internalType":"uint256"}],"stateMutability":"view"},{"type":"function","name":"getTotalTicketsSold","inputs":[{"name":"showId","type":"bytes32","internalType":"bytes32"}],"outputs":[{"name":"","type":"uint256","internalType":"uint256"}],"stateMutability":"view"},{"type":"function","name":"getWalletTokenIds","inputs":[{"name":"showId","type":"bytes32","internalType":"bytes32"},{"name":"wallet","type":"address","internalType":"address"}],"outputs":[{"name":"","type":"uint256[]","internalType":"uint256[]"}],"stateMutability":"view"},{"type":"function","name":"hasTicket","inputs":[{"name":"wallet","type":"address","internalType":"address"},{"name":"showId","type":"bytes32","internalType":"bytes32"}],"outputs":[{"name":"ownsTicket","type":"bool","internalType":"bool"}],"stateMutability":"view"},{"type":"function","name":"initialize","inputs":[{"name":"_selloutProtocolWallet","type":"address","internalType":"address"}],"outputs":[],"stateMutability":"nonpayable"},{"type":"function","name":"isArtist","inputs":[{"name":"user","type":"address","internalType":"address"},{"name":"showId","type":"bytes32","internalType":"bytes32"}],"outputs":[{"name":"","type":"bool","internalType":"bool"}],"stateMutability":"view"},{"type":"function","name":"isArtistMapping","inputs":[{"name":"","type":"bytes32","internalType":"bytes32"},{"name":"","type":"address","internalType":"address"}],"outputs":[{"name":"","type":"bool","internalType":"bool"}],"stateMutability":"view"},{"type":"function","name":"isOrganizer","inputs":[{"name":"user","type":"address","internalType":"address"},{"name":"showId","type":"bytes32","internalType":"bytes32"}],"outputs":[{"name":"","type":"bool","internalType":"bool"}],"stateMutability":"view"},{"type":"function","name":"isTicketOwner","inputs":[{"name":"owner","type":"address","internalType":"address"},{"name":"showId","type":"bytes32","internalType":"bytes32"},{"name":"ticketId","type":"uint256","internalType":"uint256"}],"outputs":[{"name":"","type":"bool","internalType":"bool"}],"stateMutability":"view"},{"type":"function","name":"organizerRegistryContract","inputs":[],"outputs":[{"name":"","type":"address","internalType":"address"}],"stateMutability":"view"},{"type":"function","name":"organizerRegistryInstance","inputs":[],"outputs":[{"name":"","type":"address","internalType":"contract IOrganizerRegistry"}],"stateMutability":"view"},{"type":"function","name":"owner","inputs":[],"outputs":[{"name":"","type":"address","internalType":"address"}],"stateMutability":"view"},{"type":"function","name":"payout","inputs":[{"name":"showId","type":"bytes32","internalType":"bytes32"}],"outputs":[],"stateMutability":"nonpayable"},{"type":"function","name":"pendingPayouts","inputs":[{"name":"","type":"bytes32","internalType":"bytes32"},{"name":"","type":"address","internalType":"address"}],"outputs":[{"name":"","type":"uint256","internalType":"uint256"}],"stateMutability":"view"},{"type":"function","name":"pendingRefunds","inputs":[{"name":"","type":"bytes32","internalType":"bytes32"},{"name":"","type":"address","internalType":"address"}],"outputs":[{"name":"","type":"uint256","internalType":"uint256"}],"stateMutability":"view"},{"type":"function","name":"proposeShow","inputs":[{"name":"name","type":"string","internalType":"string"},{"name":"description","type":"string","internalType":"string"},{"name":"artists","type":"address[]","internalType":"address[]"},{"name":"coordinates","type":"tuple","internalType":"struct VenueTypes.Coordinates","components":[{"name":"lat","type":"int256","internalType":"int256"},{"name":"lon","type":"int256","internalType":"int256"}]},{"name":"radius","type":"uint256","internalType":"uint256"},{"name":"sellOutThreshold","type":"uint8","internalType":"uint8"},{"name":"totalCapacity","type":"uint256","internalType":"uint256"},{"name":"_ticketTiers","type":"tuple[]","internalType":"struct ShowTypes.TicketTier[]","components":[{"name":"name","type":"string","internalType":"string"},{"name":"price","type":"uint256","internalType":"uint256"},{"name":"ticketsAvailable","type":"uint256","internalType":"uint256"}]},{"name":"split","type":"uint256[]","internalType":"uint256[]"},{"name":"currencyAddress","type":"address","internalType":"address"}],"outputs":[{"name":"showId","type":"bytes32","internalType":"bytes32"}],"stateMutability":"nonpayable"},{"type":"function","name":"proxiableUUID","inputs":[],"outputs":[{"name":"","type":"bytes32","internalType":"bytes32"}],"stateMutability":"view"},{"type":"function","name":"referralContract","inputs":[],"outputs":[{"name":"","type":"address","internalType":"address"}],"stateMutability":"view"},{"type":"function","name":"referralInstance","inputs":[],"outputs":[{"name":"","type":"address","internalType":"contract ReferralModule"}],"stateMutability":"view"},{"type":"function","name":"refundTicket","inputs":[{"name":"showId","type":"bytes32","internalType":"bytes32"},{"name":"ticketId","type":"uint256","internalType":"uint256"}],"outputs":[],"stateMutability":"nonpayable"},{"type":"function","name":"renounceOwnership","inputs":[],"outputs":[],"stateMutability":"nonpayable"},{"type":"function","name":"setProtocolAddresses","inputs":[{"name":"_ticketContract","type":"address","internalType":"address"},{"name":"_venueContract","type":"address","internalType":"address"},{"name":"_referralContract","type":"address","internalType":"address"},{"name":"_artistRegistryContract","type":"address","internalType":"address"},{"name":"_organizerRegistryContract","type":"address","internalType":"address"},{"name":"_venueRegistryContract","type":"address","internalType":"address"}],"outputs":[],"stateMutability":"nonpayable"},{"type":"function","name":"setTicketOwnership","inputs":[{"name":"showId","type":"bytes32","internalType":"bytes32"},{"name":"owner","type":"address","internalType":"address"},{"name":"ticketId","type":"uint256","internalType":"uint256"},{"name":"isOwned","type":"bool","internalType":"bool"}],"outputs":[],"stateMutability":"nonpayable"},{"type":"function","name":"setTicketPricePaid","inputs":[{"name":"showId","type":"bytes32","internalType":"bytes32"},{"name":"ticketId","type":"uint256","internalType":"uint256"},{"name":"price","type":"uint256","internalType":"uint256"}],"outputs":[],"stateMutability":"nonpayable"},{"type":"function","name":"setTotalTicketsSold","inputs":[{"name":"showId","type":"bytes32","internalType":"bytes32"},{"name":"amount","type":"uint256","internalType":"uint256"}],"outputs":[],"stateMutability":"nonpayable"},{"type":"function","name":"showPaymentToken","inputs":[{"name":"","type":"bytes32","internalType":"bytes32"}],"outputs":[{"name":"","type":"address","internalType":"address"}],"stateMutability":"view"},{"type":"function","name":"showTokenVault","inputs":[{"name":"","type":"bytes32","internalType":"bytes32"},{"name":"","type":"address","internalType":"address"}],"outputs":[{"name":"","type":"uint256","internalType":"uint256"}],"stateMutability":"view"},{"type":"function","name":"showVault","inputs":[{"name":"","type":"bytes32","internalType":"bytes32"}],"outputs":[{"name":"","type":"uint256","internalType":"uint256"}],"stateMutability":"view"},{"type":"function","name":"shows","inputs":[{"name":"","type":"bytes32","internalType":"bytes32"}],"outputs":[{"name":"showId","type":"bytes32","internalType":"bytes32"},{"name":"name","type":"string","internalType":"string"},{"name":"description","type":"string","internalType":"string"},{"name":"organizer","type":"address","internalType":"address"},{"name":"venue","type":"tuple","internalType":"struct VenueTypes.Venue","components":[{"name":"name","type":"string","internalType":"string"},{"name":"coordinates","type":"tuple","internalType":"struct VenueTypes.Coordinates","components":[{"name":"lat","type":"int256","internalType":"int256"},{"name":"lon","type":"int256","internalType":"int256"}]},{"name":"totalCapacity","type":"uint256","internalType":"uint256"},{"name":"wallet","type":"address","internalType":"address"},{"name":"venueId","type":"bytes32","internalType":"bytes32"}]},{"name":"radius","type":"uint256","internalType":"uint256"},{"name":"sellOutThreshold","type":"uint256","internalType":"uint256"},{"name":"totalCapacity","type":"uint256","internalType":"uint256"},{"name":"status","type":"uint8","internalType":"enum ShowTypes.Status"},{"name":"isActive","type":"bool","internalType":"bool"},{"name":"expiry","type":"uint256","internalType":"uint256"},{"name":"showDate","type":"uint256","internalType":"uint256"}],"stateMutability":"view"},{"type":"function","name":"ticketContract","inputs":[],"outputs":[{"name":"","type":"address","internalType":"address"}],"stateMutability":"view"},{"type":"function","name":"ticketInstance","inputs":[],"outputs":[{"name":"","type":"address","internalType":"contract Ticket"}],"stateMutability":"view"},{"type":"function","name":"ticketPricePaid","inputs":[{"name":"","type":"bytes32","internalType":"bytes32"},{"name":"","type":"uint256","internalType":"uint256"}],"outputs":[{"name":"","type":"uint256","internalType":"uint256"}],"stateMutability":"view"},{"type":"function","name":"totalTicketsSold","inputs":[{"name":"","type":"bytes32","internalType":"bytes32"}],"outputs":[{"name":"","type":"uint256","internalType":"uint256"}],"stateMutability":"view"},{"type":"function","name":"transferOwnership","inputs":[{"name":"newOwner","type":"address","internalType":"address"}],"outputs":[],"stateMutability":"nonpayable"},{"type":"function","name":"updateShowVenue","inputs":[{"name":"showId","type":"bytes32","internalType":"bytes32"},{"name":"newVenue","type":"tuple","internalType":"struct VenueTypes.Venue","components":[{"name":"name","type":"string","internalType":"string"},{"name":"coordinates","type":"tuple","internalType":"struct VenueTypes.Coordinates","components":[{"name":"lat","type":"int256","internalType":"int256"},{"name":"lon","type":"int256","internalType":"int256"}]},{"name":"totalCapacity","type":"uint256","internalType":"uint256"},{"name":"wallet","type":"address","internalType":"address"},{"name":"venueId","type":"bytes32","internalType":"bytes32"}]}],"outputs":[],"stateMutability":"nonpayable"},{"type":"function","name":"updateStatus","inputs":[{"name":"showId","type":"bytes32","internalType":"bytes32"},{"name":"_status","type":"uint8","internalType":"enum ShowTypes.Status"}],"outputs":[],"stateMutability":"nonpayable"},{"type":"function","name":"updateStatusIfSoldOut","inputs":[{"name":"showId","type":"bytes32","internalType":"bytes32"}],"outputs":[],"stateMutability":"nonpayable"},{"type":"function","name":"upgradeToAndCall","inputs":[{"name":"newImplementation","type":"address","internalType":"address"},{"name":"data","type":"bytes","internalType":"bytes"}],"outputs":[],"stateMutability":"payable"},{"type":"function","name":"venueContract","inputs":[],"outputs":[{"name":"","type":"address","internalType":"address"}],"stateMutability":"view"},{"type":"function","name":"venueRegistryContract","inputs":[],"outputs":[{"name":"","type":"address","internalType":"address"}],"stateMutability":"view"},{"type":"function","name":"venueRegistryInstance","inputs":[],"outputs":[{"name":"","type":"address","internalType":"contract IVenueRegistry"}],"stateMutability":"view"},{"type":"function","name":"walletToShowToTokenIds","inputs":[{"name":"","type":"bytes32","internalType":"bytes32"},{"name":"","type":"address","internalType":"address"},{"name":"","type":"uint256","internalType":"uint256"}],"outputs":[{"name":"","type":"uint256","internalType":"uint256"}],"stateMutability":"view"},{"type":"function","name":"withdrawRefund","inputs":[{"name":"showId","type":"bytes32","internalType":"bytes32"}],"outputs":[],"stateMutability":"nonpayable"},{"type":"event","name":"ERC20Deposited","inputs":[{"name":"showId","type":"bytes32","indexed":true,"internalType":"bytes32"},{"name":"tokenAddress","type":"address","indexed":true,"internalType":"address"},{"name":"depositor","type":"address","indexed":true,"internalType":"address"},{"name":"amount","type":"uint256","indexed":false,"internalType":"uint256"}],"anonymous":false},{"type":"event","name":"ExpiryUpdated","inputs":[{"name":"showId","type":"bytes32","indexed":true,"internalType":"bytes32"},{"name":"expiry","type":"uint256","indexed":false,"internalType":"uint256"}],"anonymous":false},{"type":"event","name":"Initialized","inputs":[{"name":"version","type":"uint64","indexed":false,"internalType":"uint64"}],"anonymous":false},{"type":"event","name":"OwnershipTransferred","inputs":[{"name":"previousOwner","type":"address","indexed":true,"internalType":"address"},{"name":"newOwner","type":"address","indexed":true,"internalType":"address"}],"anonymous":false},{"type":"event","name":"RefundWithdrawn","inputs":[{"name":"user","type":"address","indexed":true,"internalType":"address"},{"name":"showId","type":"bytes32","indexed":true,"internalType":"bytes32"},{"name":"amount","type":"uint256","indexed":false,"internalType":"uint256"}],"anonymous":false},{"type":"event","name":"ShowExpired","inputs":[{"name":"showId","type":"bytes32","indexed":true,"internalType":"bytes32"}],"anonymous":false},{"type":"event","name":"ShowProposed","inputs":[{"name":"showId","type":"bytes32","indexed":true,"internalType":"bytes32"},{"name":"organizer","type":"address","indexed":true,"internalType":"address"},{"name":"name","type":"string","indexed":false,"internalType":"string"},{"name":"artists","type":"address[]","indexed":false,"internalType":"address[]"},{"name":"description","type":"string","indexed":false,"internalType":"string"},{"name":"sellOutThreshold","type":"uint256","indexed":false,"internalType":"uint256"},{"name":"split","type":"uint256[]","indexed":false,"internalType":"uint256[]"},{"name":"totalCapacity","type":"uint256","indexed":false,"internalType":"uint256"}],"anonymous":false},{"type":"event","name":"StatusUpdated","inputs":[{"name":"showId","type":"bytes32","indexed":true,"internalType":"bytes32"},{"name":"status","type":"uint8","indexed":false,"internalType":"enum ShowTypes.Status"}],"anonymous":false},{"type":"event","name":"TicketRefunded","inputs":[{"name":"user","type":"address","indexed":true,"internalType":"address"},{"name":"showId","type":"bytes32","indexed":true,"internalType":"bytes32"},{"name":"refundAmount","type":"uint256","indexed":false,"internalType":"uint256"}],"anonymous":false},{"type":"event","name":"TicketTierConsumed","inputs":[{"name":"showId","type":"bytes32","indexed":true,"internalType":"bytes32"},{"name":"tierIndex","type":"uint256","indexed":true,"internalType":"uint256"},{"name":"amount","type":"uint256","indexed":false,"internalType":"uint256"}],"anonymous":false},{"type":"event","name":"Upgraded","inputs":[{"name":"implementation","type":"address","indexed":true,"internalType":"address"}],"anonymous":false},{"type":"event","name":"VenueUpdated","inputs":[{"name":"showId","type":"bytes32","indexed":true,"internalType":"bytes32"},{"name":"newVenue","type":"tuple","indexed":false,"internalType":"struct VenueTypes.Venue","components":[{"name":"name","type":"string","internalType":"string"},{"name":"coordinates","type":"tuple","internalType":"struct VenueTypes.Coordinates","components":[{"name":"lat","type":"int256","internalType":"int256"},{"name":"lon","type":"int256","internalType":"int256"}]},{"name":"totalCapacity","type":"uint256","internalType":"uint256"},{"name":"wallet","type":"address","internalType":"address"},{"name":"venueId","type":"bytes32","internalType":"bytes32"}]}],"anonymous":false},{"type":"event","name":"Withdrawal","inputs":[{"name":"showId","type":"bytes32","indexed":true,"internalType":"bytes32"},{"name":"recipient","type":"address","indexed":true,"internalType":"address"},{"name":"amount","type":"uint256","indexed":false,"internalType":"uint256"},{"name":"paymentToken","type":"address","indexed":false,"internalType":"address"}],"anonymous":false},{"type":"error","name":"AddressEmptyCode","inputs":[{"name":"target","type":"address","internalType":"address"}]},{"type":"error","name":"ERC1967InvalidImplementation","inputs":[{"name":"implementation","type":"address","internalType":"address"}]},{"type":"error","name":"ERC1967NonPayable","inputs":[]},{"type":"error","name":"FailedInnerCall","inputs":[]},{"type":"error","name":"InvalidInitialization","inputs":[]},{"type":"error","name":"NotInitializing","inputs":[]},{"type":"error","name":"OwnableInvalidOwner","inputs":[{"name":"owner","type":"address","internalType":"address"}]},{"type":"error","name":"OwnableUnauthorizedAccount","inputs":[{"name":"account","type":"address","internalType":"address"}]},{"type":"error","name":"ReentrancyGuardReentrantCall","inputs":[]},{"type":"error","name":"UUPSUnauthorizedCallContext","inputs":[]},{"type":"error","name":"UUPSUnsupportedProxiableUUID","inputs":[{"name":"slot","type":"bytes32","internalType":"bytes32"}]}],"bytecode":{"object":"0x60a0604052600a805460ff60a01b191690553060805234801561002157600080fd5b50608051615dc26200004c600039600081816141470152818161417001526142b10152615dc26000f3fe6080604052600436106103c35760003560e01c80637dad19db116101f2578063bd47dc5c1161010d578063de44006f116100a0578063ef5023a51161006f578063ef5023a514610d7b578063f2fde38b14610d9b578063f812187314610dbb578063fca4655914610ddb57600080fd5b8063de44006f14610cfb578063e30228be14610d1b578063e618054614610d3b578063e9acfa7c14610d5b57600080fd5b8063c8f67e96116100dc578063c8f67e9614610c4d578063c9e21e5e14610c6d578063cfefb3d514610ca5578063d23b85a314610cc557600080fd5b8063bd47dc5c14610bcd578063c29e2de414610bed578063c4d66de814610c0d578063c6ab848a14610c2d57600080fd5b80638e70362b116101855780639f1e564e116101545780639f1e564e14610ae8578063a03f4efe14610b08578063ad3cb1cc14610b54578063bafd4eb014610b9257600080fd5b80638e70362b14610a12578063925e8f8914610a4a57806393d4e10014610a77578063977cb89e14610aaf57600080fd5b806385ffa16c116101c157806385ffa16c14610968578063867e68af146109885780638da5cb5b146109b55780638dea15a1146109f257600080fd5b80637dad19db146108e65780637e3e393514610906578063824f3e6914610935578063852666351461095557600080fd5b806351819335116102e2578063644b5e5911610275578063715018a611610244578063715018a61461085b5780637295802814610870578063787d76b8146108a65780637d8d6a22146108c657600080fd5b8063644b5e59146107b857806366bc64cd146107d85780636e9cacd0146107f8578063703ee4e51461083b57600080fd5b80635b9a1e09116102b15780635b9a1e09146106e95780635c37da6914610716578063610418701461075a578063620ec1e41461078757600080fd5b8063518193351461065c57806352d1902d1461067c5780635696c07c1461069157806358a86e1d146106c957600080fd5b80632f18ddfe1161035a57806342894bcb1161032957806342894bcb146105b957806346c2c8a7146105fc5780634ed372da146106295780634f1ef2861461064957600080fd5b80632f18ddfe1461052157806331a68da0146105595780633c60d2d61461057957806341adf3ad1461059957600080fd5b8063164889061161039657806316488906146104775780631a348e621461049b5780631cf2103e146104cb57806327b1bf52146104eb57600080fd5b80630233ce6a146103c857806302c9a8b514610405578063054372ed14610435578063129e086b14610457575b600080fd5b3480156103d457600080fd5b506006546103e8906001600160a01b031681565b6040516001600160a01b0390911681526020015b60405180910390f35b34801561041157600080fd5b50610425610420366004614b41565b610e13565b60405190151581526020016103fc565b34801561044157600080fd5b50610455610450366004614b6d565b610e40565b005b34801561046357600080fd5b50610455610472366004614ba1565b610f01565b34801561048357600080fd5b5061048d600d5481565b6040519081526020016103fc565b3480156104a757600080fd5b5061048d6104b6366004614ba1565b6000908152600e60205260409020600d015490565b3480156104d757600080fd5b506009546103e8906001600160a01b031681565b3480156104f757600080fd5b5061050b610506366004614ba1565b611487565b6040516103fc9a99989796959493929190614ce4565b34801561052d57600080fd5b5061048d61053c366004614def565b601560209081526000928352604080842090915290825290205481565b34801561056557600080fd5b506005546103e8906001600160a01b031681565b34801561058557600080fd5b50610455610594366004614def565b61191f565b3480156105a557600080fd5b506003546103e8906001600160a01b031681565b3480156105c557600080fd5b5061048d6105d4366004614e11565b60009182526013602090815260408084206001600160a01b0393909316845291905290205490565b34801561060857600080fd5b5061061c610617366004614ba1565b611e14565b6040516103fc9190614e36565b34801561063557600080fd5b50610425610644366004614b41565b6122dc565b610455610657366004614f17565b6122ff565b34801561066857600080fd5b506001546103e8906001600160a01b031681565b34801561068857600080fd5b5061048d61231e565b34801561069d57600080fd5b5061048d6106ac366004614e11565b601260209081526000928352604080842090915290825290205481565b3480156106d557600080fd5b506000546103e8906001600160a01b031681565b3480156106f557600080fd5b50610709610704366004614e11565b61233b565b6040516103fc9190614faa565b34801561072257600080fd5b50610425610731366004614b41565b60009081526017602090815260408083206001600160a01b039490941683529290522054151590565b34801561076657600080fd5b5061048d610775366004614ba1565b60009081526014602052604090205490565b34801561079357600080fd5b5061048d6107a2366004614ba1565b6000908152600e60208190526040909120015490565b3480156107c457600080fd5b506104556107d3366004614fbd565b6123af565b3480156107e457600080fd5b506004546103e8906001600160a01b031681565b34801561080457600080fd5b5061048d610813366004614e11565b60009182526012602090815260408084206001600160a01b0393909316845291905290205490565b34801561084757600080fd5b50600a546103e8906001600160a01b031681565b34801561086757600080fd5b50610455612533565b34801561087c57600080fd5b506103e861088b366004614ba1565b6018602052600090815260409020546001600160a01b031681565b3480156108b257600080fd5b506104556108c1366004614def565b612547565b3480156108d257600080fd5b5061048d6108e1366004614fe9565b6125a1565b3480156108f257600080fd5b506002546103e8906001600160a01b031681565b34801561091257600080fd5b50610926610921366004614def565b6125df565b6040516103fc93929190615021565b34801561094157600080fd5b5061048d61095036600461527c565b612720565b610455610963366004614ba1565b612dfd565b34801561097457600080fd5b5061048d610983366004614ba1565b612e6c565b34801561099457600080fd5b5061048d6109a3366004614ba1565b60106020526000908152604090205481565b3480156109c157600080fd5b507f9016d09d72d40fdae2fd8ceac6b6234c7706214fd39c1cd1e609a0528c199300546001600160a01b03166103e8565b3480156109fe57600080fd5b506008546103e8906001600160a01b031681565b348015610a1e57600080fd5b5061048d610a2d366004614e11565b601360209081526000928352604080842090915290825290205481565b348015610a5657600080fd5b5061048d610a65366004614ba1565b60146020526000908152604090205481565b348015610a8357600080fd5b5061048d610a92366004614def565b600091825260156020908152604080842092845291905290205490565b348015610abb57600080fd5b506103e8610aca366004614ba1565b6000908152600e60205260409020600301546001600160a01b031690565b348015610af457600080fd5b50610455610b03366004615396565b612e90565b348015610b1457600080fd5b50610425610b233660046153cf565b60009182526016602090815260408084206001600160a01b0395909516845293815283832091835252205460ff1690565b348015610b6057600080fd5b50610b85604051806040016040528060058152602001640352e302e360dc1b81525081565b6040516103fc9190615404565b348015610b9e57600080fd5b50610425610bad366004614e11565b600f60209081526000928352604080842090915290825290205460ff1681565b348015610bd957600080fd5b50610455610be8366004614fbd565b613065565b348015610bf957600080fd5b50610455610c08366004615417565b6130ab565b348015610c1957600080fd5b50610455610c28366004615459565b6131fa565b348015610c3957600080fd5b506007546103e8906001600160a01b031681565b348015610c5957600080fd5b50610455610c68366004615484565b61332b565b348015610c7957600080fd5b5061048d610c88366004614e11565b601160209081526000928352604080842090915290825290205481565b348015610cb157600080fd5b50610455610cc0366004614ba1565b613394565b348015610cd157600080fd5b506103e8610ce0366004614ba1565b6000908152601860205260409020546001600160a01b031690565b348015610d0757600080fd5b50610455610d16366004614fe9565b61361d565b348015610d2757600080fd5b50600b546103e8906001600160a01b031681565b348015610d4757600080fd5b50610455610d56366004614ba1565b61367e565b348015610d6757600080fd5b50610455610d76366004614ba1565b613715565b348015610d8757600080fd5b50610455610d96366004614ba1565b613ae5565b348015610da757600080fd5b50610455610db6366004615459565b613bf8565b348015610dc757600080fd5b50610455610dd63660046154ce565b613c33565b348015610de757600080fd5b50610dfb610df6366004614ba1565b613d17565b6040516103fc9c9b9a99989796959493929190615550565b6000818152600f602090815260408083206001600160a01b038616845290915290205460ff165b92915050565b6001546001600160a01b0316331480610e6357506000546001600160a01b031633145b80610e6d57503330145b610e925760405162461bcd60e51b8152600401610e89906155ea565b60405180910390fd5b6000828152600e60205260409020600f01805482919060ff19166001836007811115610ec057610ec0614cac565b0217905550817f8ed894b6f384ca9c829b9aa5b056bc9106a90845a15616607e975d4ad488ee6782604051610ef59190614e36565b60405180910390a25050565b80610f0c33826122dc565b80610f1c5750610f1c3382610e13565b610f385760405162461bcd60e51b8152600401610e8990615658565b6000828152600e602052604090206003600f82015460ff166007811115610f6157610f61614cac565b14610fa65760405162461bcd60e51b815260206004820152601560248201527453686f77206d757374206265205570636f6d696e6760581b6044820152606401610e89565b6012810154610fb790610708615696565b4210156110065760405162461bcd60e51b815260206004820152601f60248201527f53686f7720686173206e6f7420796574206265656e20636f6d706c65746564006044820152606401610e89565b6000838152601060205260409020548061105b5760405162461bcd60e51b81526020600482015260166024820152754e6f2066756e647320746f206469737472696275746560501b6044820152606401610e89565b6000826010018054806020026020016040519081016040528092919081815260200182805480156110ab57602002820191906000526020600020905b815481526020019060010190808311611097575b5050505050905060006064836110c191906156a9565b6000878152601360209081526040808320600b546001600160a01b03168452909152902081905590506110f481846156cb565b9250600060648360008151811061110d5761110d6156de565b60200260200101518561112091906156f4565b61112a91906156a9565b600088815260136020908152604080832060038a01546001600160a01b0316845290915281208290559091505b6004860154811015611205576000606485611173846001615696565b81518110611183576111836156de565b60200260200101518761119691906156f4565b6111a091906156a9565b905080601360008b815260200190815260200160002060008960040185815481106111cd576111cd6156de565b60009182526020808320909101546001600160a01b0316835282019290925260400190205550806111fd8161570b565b915050611157565b5060006064846001865161121991906156cb565b81518110611229576112296156de565b60200260200101518661123c91906156f4565b61124691906156a9565b600089815260136020908152604080832060098b01546001600160a01b0316845282528083208490558b83526010909152812055600f8701805491925060049160ff19166001830217905550600754600387015460405163416b56db60e01b81526001600160a01b039283169263416b56db926112cf9291169060019081908190600401615724565b600060405180830381600087803b1580156112e957600080fd5b505af11580156112fd573d6000803e3d6000fd5b5050505060005b60048701548110156113be576007546004880180546001600160a01b039092169163416b56db91908490811061133c5761133c6156de565b6000918252602090912001546040516001600160e01b031960e084901b168152611379916001600160a01b03169060019081908190600401615724565b600060405180830381600087803b15801561139357600080fd5b505af11580156113a7573d6000803e3d6000fd5b5050505080806113b69061570b565b915050611304565b50600754600987015460405163416b56db60e01b81526001600160a01b039283169263416b56db926113fc9291169060019081908190600401615724565b600060405180830381600087803b15801561141657600080fd5b505af115801561142a573d6000803e3d6000fd5b5050600d805492509050600061143f8361574a565b9190505550877f8ed894b6f384ca9c829b9aa5b056bc9106a90845a15616607e975d4ad488ee6760046040516114759190614e36565b60405180910390a25050505050505050565b60608060006060611496614a1d565b6000868152600e60205260408120600c810154606092918291829182916001600160401b038111156114ca576114ca614e44565b60405190808252806020026020018201604052801561151f57816020015b61150c60405180606001604052806060815260200160008152602001600081525090565b8152602001906001900390816114e85790505b50955060005b600c8201548110156116355781600c018181548110611546576115466156de565b906000526020600020906003020160405180606001604052908160008201805461156f90615761565b80601f016020809104026020016040519081016040528092919081815260200182805461159b90615761565b80156115e85780601f106115bd576101008083540402835291602001916115e8565b820191906000526020600020905b8154815290600101906020018083116115cb57829003601f168201915b5050505050815260200160018201548152602001600282015481525050878281518110611617576116176156de565b6020026020010181905250808061162d9061570b565b915050611525565b506003810154600d820154600e830154600f840154600185018054909460028701946001600160a01b0390911693600488019360058901938e93929160ff8082169261010090920416908a9061168a90615761565b80601f01602080910402602001604051908101604052809291908181526020018280546116b690615761565b80156117035780601f106116d857610100808354040283529160200191611703565b820191906000526020600020905b8154815290600101906020018083116116e657829003601f168201915b5050505050995088805461171690615761565b80601f016020809104026020016040519081016040528092919081815260200182805461174290615761565b801561178f5780601f106117645761010080835404028352916020019161178f565b820191906000526020600020905b81548152906001019060200180831161177257829003601f168201915b50505050509850868054806020026020016040519081016040528092919081815260200182805480156117eb57602002820191906000526020600020905b81546001600160a01b031681526001909101906020018083116117cd575b50505050509650856040518060a001604052908160008201805461180e90615761565b80601f016020809104026020016040519081016040528092919081815260200182805461183a90615761565b80156118875780601f1061185c57610100808354040283529160200191611887565b820191906000526020600020905b81548152906001019060200180831161186a57829003601f168201915b5050505050815260200160018201604051806040016040529081600082015481526020016001820154815250508152602001600382015481526020016004820160009054906101000a90046001600160a01b03166001600160a01b03166001600160a01b0316815260200160058201548152505095509a509a509a509a509a509a509a509a509a509a50509193959799509193959799565b6000828152600e60205260408120600f015460ff16600781111561194557611945614cac565b1480611976575060056000838152600e60205260409020600f015460ff16600781111561197457611974614cac565b145b806119a6575060076000838152600e60205260409020600f015460ff1660078111156119a4576119a4614cac565b145b611a095760405162461bcd60e51b815260206004820152602e60248201527f46756e647320617265206c6f636b65642064756520746f20746865207374617460448201526d7573206f66207468652073686f7760901b6064820152608401610e89565b6000828152601660209081526040808320338452825280832084845290915290205460ff16611a8d5760405162461bcd60e51b815260206004820152602a60248201527f5573657220646f6573206e6f74206f776e20746865207469636b657420666f7260448201526920746869732073686f7760b01b6064820152608401610e89565b600654604051636d1d3b0b60e11b8152600481018490526024810183905260009182916001600160a01b039091169063da3a7616906044016040805180830381865afa158015611ae1573d6000803e3d6000fd5b505050506040513d601f19601f82011682018060405250810190611b059190615795565b9150915060008211611b505760405162461bcd60e51b8152602060048201526014602482015273151a58dad95d081b9bdd081c1d5c98da185cd95960621b6044820152606401610e89565b6000848152600e60205260409020600c01805482908110611b7357611b736156de565b600091825260208220600260039092020101805491611b918361570b565b9190505550611ba1848484613f81565b6000848152601860205260409020546001600160a01b031680611ca15782471015611c0e5760405162461bcd60e51b815260206004820152601860248201527f496e73756666696369656e74204554482062616c616e636500000000000000006044820152606401610e89565b604051600090339085908381818185875af1925050503d8060008114611c50576040519150601f19603f3d011682016040523d82523d6000602084013e611c55565b606091505b5050905080611c9b5760405162461bcd60e51b815260206004820152601260248201527108cc2d2d8cac840e8de40e6cadcc8408aa8960731b6044820152606401610e89565b50611dd5565b6040516370a0823160e01b815230600482015281906000906001600160a01b038316906370a0823190602401602060405180830381865afa158015611cea573d6000803e3d6000fd5b505050506040513d601f19601f82011682018060405250810190611d0e91906157b9565b905084811015611d605760405162461bcd60e51b815260206004820152601a60248201527f496e73756666696369656e7420746f6b656e2062616c616e63650000000000006044820152606401610e89565b60405163a9059cbb60e01b8152336004820152602481018690526001600160a01b0383169063a9059cbb906044016020604051808303816000875af1158015611dad573d6000803e3d6000fd5b505050506040513d601f19601f82011682018060405250810190611dd191906157d2565b5050505b604051838152859033907f6327daeea6ce26abf9f96cd84eee9cb40d1d5b88f7f5990914540e392446bf04906020015b60405180910390a35050505050565b6000818152600e6020908152604080832081516101e0810190925280548252600181018054859484019190611e4890615761565b80601f0160208091040260200160405190810160405280929190818152602001828054611e7490615761565b8015611ec15780601f10611e9657610100808354040283529160200191611ec1565b820191906000526020600020905b815481529060010190602001808311611ea457829003601f168201915b50505050508152602001600282018054611eda90615761565b80601f0160208091040260200160405190810160405280929190818152602001828054611f0690615761565b8015611f535780601f10611f2857610100808354040283529160200191611f53565b820191906000526020600020905b815481529060010190602001808311611f3657829003601f168201915b505050918352505060038201546001600160a01b03166020808301919091526004830180546040805182850281018501825282815294019392830182828015611fc557602002820191906000526020600020905b81546001600160a01b03168152600190910190602001808311611fa7575b50505050508152602001600582016040518060a0016040529081600082018054611fee90615761565b80601f016020809104026020016040519081016040528092919081815260200182805461201a90615761565b80156120675780601f1061203c57610100808354040283529160200191612067565b820191906000526020600020905b81548152906001019060200180831161204a57829003601f168201915b50505091835250506040805180820182526001840154815260028401546020828101919091528084019190915260038401548284015260048401546001600160a01b03166060840152600590930154608090920191909152918352600b84015483820152600c840180548351818402810184018552818152949093019392909160009084015b828210156121c5578382906000526020600020906003020160405180606001604052908160008201805461212090615761565b80601f016020809104026020016040519081016040528092919081815260200182805461214c90615761565b80156121995780601f1061216e57610100808354040283529160200191612199565b820191906000526020600020905b81548152906001019060200180831161217c57829003601f168201915b5050505050815260200160018201548152602001600282015481525050815260200190600101906120ed565b50505090825250600d8201546020820152600e8201546040820152600f82015460609091019060ff1660078111156121ff576121ff614cac565b600781111561221057612210614cac565b8152600f820154610100900460ff161515602080830191909152601083018054604080518285028101850182528281529401939283018282801561227357602002820191906000526020600020905b81548152602001906001019080831161225f575b50505050508152602001601182015481526020016012820154815250509050806101a00151421180156122bd5750600781610140015160078111156122ba576122ba614cac565b14155b156122cb5750600792915050565b610140015192915050565b50919050565b6000908152600e60205260409020600301546001600160a01b0391821691161490565b61230761413c565b612310826141e1565b61231a82826141e9565b5050565b60006123286142a6565b50600080516020615d6d83398151915290565b60008281526017602090815260408083206001600160a01b03851684528252918290208054835181840281018401909452808452606093928301828280156123a257602002820191906000526020600020905b81548152602001906001019080831161238e575b5050505050905092915050565b6001546001600160a01b03163314806123d257506000546001600160a01b031633145b806123dc57503330145b6123f85760405162461bcd60e51b8152600401610e89906155ea565b6000838152600e60205260409020600c81015483106124595760405162461bcd60e51b815260206004820152601960248201527f496e76616c6964207469636b6574207469657220696e646578000000000000006044820152606401610e89565b600081600c018481548110612470576124706156de565b9060005260206000209060030201905082816002015410156124e65760405162461bcd60e51b815260206004820152602960248201527f4e6f7420656e6f756768207469636b65747320617661696c61626c6520696e206044820152683a3434b9903a34b2b960b91b6064820152608401610e89565b828160020160008282546124fa91906156cb565b9091555050604051838152849086907fb23124a400670af3347ce475459c187bbba871f316e2d1d91ae115a762def02090602001611e05565b61253b6142ef565b612545600061434a565b565b6000546001600160a01b031633146125715760405162461bcd60e51b8152600401610e89906157ef565b60008281526014602052604090205461258b908290615696565b6000928352601460205260409092209190915550565b601760205282600052604060002060205281600052604060002081815481106125c957600080fd5b9060005260206000200160009250925050505481565b6000828152600e60205260408120600c015460609190819084106126455760405162461bcd60e51b815260206004820152601860248201527f5469657220696e646578206f7574206f6620626f756e647300000000000000006044820152606401610e89565b6000858152600e60205260408120600c01805486908110612668576126686156de565b90600052602060002090600302019050806000018160010154826002015482805461269290615761565b80601f01602080910402602001604051908101604052809291908181526020018280546126be90615761565b801561270b5780601f106126e05761010080835404028352916020019161270b565b820191906000526020600020905b8154815290600101906020018083116126ee57829003601f168201915b50505050509250935093509350509250925092565b600a54600090600160a01b900460ff1661277c5760405162461bcd60e51b815260206004820152601e60248201527f436f6e747261637420616464726573736573206d7573742062652073657400006044820152606401610e89565b60008b51116127c05760405162461bcd60e51b815260206004820152601060248201526f13985b59481a5cc81c995c5d5a5c995960821b6044820152606401610e89565b6000871161281c5760405162461bcd60e51b815260206004820152602360248201527f56656e756520726164697573206d75737420626520677265617465722074686160448201526206e20360ec1b6064820152608401610e89565b6000851161287a5760405162461bcd60e51b815260206004820152602560248201527f546f74616c206361706163697479206d75737420626520677265617465722074604482015264068616e20360dc1b6064820152608401610e89565b60008951116128cb5760405162461bcd60e51b815260206004820152601c60248201527f4174206c65617374206f6e6520617274697374207265717569726564000000006044820152606401610e89565b60328660ff16101580156128e3575060648660ff1611155b6129455760405162461bcd60e51b815260206004820152602d60248201527f53656c6c2d6f7574207468726573686f6c64206d75737420626520626574776560448201526c0656e20353020616e642031303609c1b6064820152608401610e89565b875163055d4a7f19138015906129605750875163055d4a8012155b61299f5760405162461bcd60e51b815260206004820152601060248201526f496e76616c6964206c6174697475646560801b6044820152606401610e89565b630aba94ff198860200151121580156129c05750630aba9500886020015113155b612a005760405162461bcd60e51b8152602060048201526011602482015270496e76616c6964206c6f6e67697475646560781b6044820152606401610e89565b612a09336143bb565b612a555760405162461bcd60e51b815260206004820152601c60248201527f4f7267616e697a6572206d7573742062652072656769737465726564000000006044820152606401610e89565b60005b8951811015612ae157612a838a8281518110612a7657612a766156de565b602002602001015161444b565b612acf5760405162461bcd60e51b815260206004820152601e60248201527f416c6c2061727469737473206d757374206265207265676973746572656400006044820152606401610e89565b80612ad98161570b565b915050612a58565b50612aed838a51614481565b612af784866145c8565b87516020808a0151604051612b189333938e9391928d918d918d910161583e565b60408051601f1981840301815291815281516020928301206000818152600e909352912081815590915060018101612b508d82615905565b5060028101612b5f8c82615905565b506003810180546001600160a01b031916331790558951612b8990600483019060208d0190614a67565b506040805160c081018252600060a08201818152808352602083018d90529282018990526060820181905260808201529060058301908190612bcb9082615905565b506020828101518051600184015581015160028301556040830151600383015560608301516004830180546001600160a01b0319166001600160a01b03909216919091179055608090920151600590910155600b820189905560ff8816600d830155600e8201879055600f8201805461ffff19166101001790558451612c5991601084019190870190614acc565b50612c674262278d00615696565b601182015560006012820181905582815260186020526040812080546001600160a01b0319166001600160a01b0386161790555b8551811015612d155781600c01868281518110612cba57612cba6156de565b60209081029190910181015182546001810184556000938452919092208251600390920201908190612cec9082615905565b506020820151600182015560409091015160029091015580612d0d8161570b565b915050612c9b565b5060005b8a51811015612d8c576000838152600f602052604081208c51600192908e9085908110612d4857612d486156de565b6020908102919091018101516001600160a01b03168252810191909152604001600020805460ff191691151591909117905580612d848161570b565b915050612d19565b50600d8054906000612d9d8361570b565b9190505550336001600160a01b0316827fb627fd710eb93733196a5e4d106fc18af287574dcaa2cb48d76bc40d09145b498e8d8f8c8a8d604051612de6969594939291906159c4565b60405180910390a3509a9950505050505050505050565b6001546001600160a01b0316331480612e2057506000546001600160a01b031633145b80612e2a57503330145b612e465760405162461bcd60e51b8152600401610e89906155ea565b60008181526010602052604081208054349290612e64908490615696565b909155505050565b6000818152600e6020526040812060040154612e89816001615696565b9392505050565b6001600160a01b038116612ef55760405162461bcd60e51b815260206004820152602660248201527f546869732073686f7720646f6573206e6f742061636365707420455448207061604482015265796d656e747360d01b6064820152608401610e89565b6000838152601860205260409020546001600160a01b03828116911614612f6c5760405162461bcd60e51b815260206004820152602560248201527f4d69736d617463686564207061796d656e7420746f6b656e20666f72207468656044820152642073686f7760d81b6064820152608401610e89565b6040516323b872dd60e01b81523360048201523060248201526044810183905281906001600160a01b038216906323b872dd906064016020604051808303816000875af1158015612fc1573d6000803e3d6000fd5b505050506040513d601f19601f82011682018060405250810190612fe591906157d2565b5060008481526011602090815260408083206001600160a01b038616845290915281208054859290613018908490615696565b909155505060405183815233906001600160a01b0384169086907f5bc5584363e68b8a5b066d0c106bba5606176ce569e835fb8b4dc1ee0bb7f4699060200160405180910390a450505050565b6000546001600160a01b0316331461308f5760405162461bcd60e51b8152600401610e89906157ef565b6000928352601560209081526040808520938552929052912055565b6001546001600160a01b031633146130d55760405162461bcd60e51b8152600401610e89906157ef565b6000828152600e60205260408120600f015460ff1660078111156130fb576130fb614cac565b148061312c575060026000838152600e60205260409020600f015460ff16600781111561312a5761312a614cac565b145b6131aa5760405162461bcd60e51b815260206004820152604360248201527f56656e75652063616e206f6e6c79206265207570646174656420666f7220736860448201527f6f777320696e2050726f706f736564206f7220416363657074656420737461746064820152623ab99760e91b608482015260a401610e89565b6000828152600e6020526040902081906005016131c78282615afa565b905050817ff199f58c6628f3436415ab64e2d1e914a5e79b5ce23d59be2970b2fe46034a6182604051610ef59190615bd0565b7ff0c57e16840df040f15088dc2f81fe391c3923bec73e23a9662efc9c229c6a008054600160401b810460ff1615906001600160401b031660008115801561323f5750825b90506000826001600160401b0316600114801561325b5750303b155b905081158015613269575080155b156132875760405163f92ee8a960e01b815260040160405180910390fd5b845467ffffffffffffffff1916600117855583156132b157845460ff60401b1916600160401b1785555b6132b961467f565b6132c28661468f565b600b80546001600160a01b0319166001600160a01b038816179055831561332357845460ff60401b19168555604051600181527fc7f505b2f371ae2175ee4913f4499e1f2633a7b5936321eed1cdaeb6115181d29060200160405180910390a15b505050505050565b6000546001600160a01b031633146133555760405162461bcd60e51b8152600401610e89906157ef565b60009384526016602090815260408086206001600160a01b03959095168652938152838520928552919091529120805460ff1916911515919091179055565b8061339f33826122dc565b806133af57506133af3382610e13565b6133cb5760405162461bcd60e51b8152600401610e8990615658565b6000828152600e602052604090206004600f82015460ff1660078111156133f4576133f4614cac565b1461343a5760405162461bcd60e51b815260206004820152601660248201527514da1bddc81b5d5cdd0818994810dbdb5c1b195d195960521b6044820152606401610e89565b601281015461344b9061012c615696565b42101561349a5760405162461bcd60e51b815260206004820152601c60248201527f53686f7720636f6f6c20646f776e20686173206e6f7420656e646564000000006044820152606401610e89565b60008381526018602090815260408083205460138352818420338552909252909120546001600160a01b03909116908061350d5760405162461bcd60e51b81526020600482015260146024820152734e6f2066756e647320746f20776974686472617760601b6044820152606401610e89565b60008581526013602090815260408083203384529091528120556001600160a01b03821661356857604051339082156108fc029083906000818181858888f19350505050158015613562573d6000803e3d6000fd5b506135db565b60405163a9059cbb60e01b8152336004820152602481018290526001600160a01b0383169063a9059cbb906044016020604051808303816000875af11580156135b5573d6000803e3d6000fd5b505050506040513d601f19601f820116820180604052508101906135d991906157d2565b505b604080518281526001600160a01b0384166020820152339187917f41211792ac12581294dfaa383a54e630322f08f25e558828f6d5e0979ac3eb239101611e05565b6000546001600160a01b031633146136475760405162461bcd60e51b8152600401610e89906157ef565b60009283526017602090815260408085206001600160a01b0390941685529281529183208054600181018255908452919092200155565b6001546001600160a01b03163314806136a157506000546001600160a01b031633145b806136ab57503330145b6136c75760405162461bcd60e51b8152600401610e89906155ea565b6000818152600e60208181526040808420601490925290922054600d8301549183015490916136f5916156f4565b6137008260646156f4565b1061371057613710836001610e40565b505050565b61371d6146a0565b6000818152600e602052604090206006600f82015460ff16600781111561374657613746614cac565b148061376a57506007600f82015460ff16600781111561376857613768614cac565b145b8061378d57506005600f82015460ff16600781111561378b5761378b614cac565b145b806137b057506000600f82015460ff1660078111156137ae576137ae614cac565b145b6138135760405162461bcd60e51b815260206004820152602e60248201527f526566756e647320617265206e6f7420617661696c61626c6520666f7220746860448201526d69732073686f772073746174757360901b6064820152608401610e89565b60008281526018602090815260408083205460128352818420338552909252909120546001600160a01b0390911690806138865760405162461bcd60e51b81526020600482015260146024820152734e6f2066756e647320746f20776974686472617760601b6044820152606401610e89565b60008481526012602090815260408083203384529091528120556001600160a01b038216613940578047101561390d5760405162461bcd60e51b815260206004820152602660248201527f496e73756666696369656e74204554482066756e647320696e2074686520636f6044820152651b9d1c9858dd60d21b6064820152608401610e89565b604051339082156108fc029083906000818181858888f1935050505015801561393a573d6000803e3d6000fd5b50613a7f565b6040516370a0823160e01b8152306004820152829082906001600160a01b038316906370a0823190602401602060405180830381865afa158015613988573d6000803e3d6000fd5b505050506040513d601f19601f820116820180604052508101906139ac91906157b9565b1015613a0b5760405162461bcd60e51b815260206004820152602860248201527f496e73756666696369656e7420746f6b656e2066756e647320696e207468652060448201526718dbdb9d1c9858dd60c21b6064820152608401610e89565b60405163a9059cbb60e01b8152336004820152602481018390526001600160a01b0382169063a9059cbb906044016020604051808303816000875af1158015613a58573d6000803e3d6000fd5b505050506040513d601f19601f82011682018060405250810190613a7c91906157d2565b50505b604051818152849033907fa4d59773de0ef2d6faf35ac70331de09c09cb20909bf7453dd0d620524bd1fc99060200160405180910390a3505050613ae260017f9b779b17422d0df92223018b32b4d1fa46e071723d6817e2486d003becc55f0055565b50565b80613af033826122dc565b80613b005750613b003382610e13565b613b1c5760405162461bcd60e51b8152600401610e8990615658565b6000828152600e602052604090206001600f82015460ff166007811115613b4557613b45614cac565b1480613b6957506002600f82015460ff166007811115613b6757613b67614cac565b145b80613b8c57506003600f82015460ff166007811115613b8a57613b8a614cac565b145b613bcf5760405162461bcd60e51b815260206004820152601460248201527353686f77206d7573742062652050656e64696e6760601b6044820152606401610e89565b600f8101805460ff19166005179055600d8054906000613bee8361574a565b9190505550505050565b613c006142ef565b6001600160a01b038116613c2a57604051631e4fbdf760e01b815260006004820152602401610e89565b613ae28161434a565b600a54600160a01b900460ff1615613c8d5760405162461bcd60e51b815260206004820152601e60248201527f50726f746f636f6c2061646472657373657320616c72656164792073657400006044820152606401610e89565b600080546001600160a01b039788166001600160a01b031991821681179092556001805497891697821697909717909655600680548716909117905560078054948716948616949094179093556008805492861692851692909217909155600980549185169190931617909155600a80546001600160a81b0319169190921617600160a01b179055565b600e6020526000908152604090208054600182018054919291613d3990615761565b80601f0160208091040260200160405190810160405280929190818152602001828054613d6590615761565b8015613db25780601f10613d8757610100808354040283529160200191613db2565b820191906000526020600020905b815481529060010190602001808311613d9557829003601f168201915b505050505090806002018054613dc790615761565b80601f0160208091040260200160405190810160405280929190818152602001828054613df390615761565b8015613e405780601f10613e1557610100808354040283529160200191613e40565b820191906000526020600020905b815481529060010190602001808311613e2357829003601f168201915b5050505050908060030160009054906101000a90046001600160a01b031690806005016040518060a0016040529081600082018054613e7e90615761565b80601f0160208091040260200160405190810160405280929190818152602001828054613eaa90615761565b8015613ef75780601f10613ecc57610100808354040283529160200191613ef7565b820191906000526020600020905b815481529060010190602001808311613eda57829003601f168201915b505050918352505060408051808201825260018401548152600284015460208281019190915283015260038301549082015260048201546001600160a01b03166060820152600590910154608090910152600b820154600d830154600e840154600f8501546011860154601290960154949593949293919260ff808316936101009093041691908c565b6000838152600e602090815260408083206014909252822080549192613fa68361574a565b909155505060008481526010602052604081208054849290613fc99084906156cb565b9091555050600084815260126020908152604080832033845290915281208054849290613ff7908490615696565b9091555050600084815260146020526040812054600d830154600e840154919291606491614024916156f4565b61402e91906156a9565b9050808210801561405757506001600f84015460ff16600781111561405557614055614cac565b145b156140a457600f8301805460ff1916905560405186907f8ed894b6f384ca9c829b9aa5b056bc9106a90845a15616607e975d4ad488ee679061409b90600090614e36565b60405180910390a25b60008681526015602090815260408083208884529091528120556140c9863387614710565b6006546040516387f9ca5d60e01b815260048101879052600160248201523360448201526001600160a01b03909116906387f9ca5d90606401600060405180830381600087803b15801561411c57600080fd5b505af1158015614130573d6000803e3d6000fd5b50505050505050505050565b306001600160a01b037f00000000000000000000000000000000000000000000000000000000000000001614806141c357507f00000000000000000000000000000000000000000000000000000000000000006001600160a01b03166141b7600080516020615d6d833981519152546001600160a01b031690565b6001600160a01b031614155b156125455760405163703e46dd60e11b815260040160405180910390fd5b613ae26142ef565b816001600160a01b03166352d1902d6040518163ffffffff1660e01b8152600401602060405180830381865afa925050508015614243575060408051601f3d908101601f19168201909252614240918101906157b9565b60015b61426b57604051634c9c8ce360e01b81526001600160a01b0383166004820152602401610e89565b600080516020615d6d833981519152811461429c57604051632a87526960e21b815260048101829052602401610e89565b61371083836147ef565b306001600160a01b037f000000000000000000000000000000000000000000000000000000000000000016146125455760405163703e46dd60e11b815260040160405180910390fd5b336143217f9016d09d72d40fdae2fd8ceac6b6234c7706214fd39c1cd1e609a0528c199300546001600160a01b031690565b6001600160a01b0316146125455760405163118cdaa760e01b8152336004820152602401610e89565b7f9016d09d72d40fdae2fd8ceac6b6234c7706214fd39c1cd1e609a0528c19930080546001600160a01b031981166001600160a01b03848116918217845560405192169182907f8be0079c531659141344cd1fd0a4f28419497f9722a3daafe3b4186f6b6457e090600090a3505050565b600954604051634092f2b760e01b81526001600160a01b0383811660048301526000928392911690634092f2b7906024015b600060405180830381865afa15801561440a573d6000803e3d6000fd5b505050506040513d6000823e601f3d908101601f191682016040526144329190810190615cce565b6001600160a01b03908116951694909414949350505050565b600854604051632e52720160e21b81526001600160a01b038381166004830152600092839291169063b949c804906024016143ed565b61448c816002615696565b8251146145275760405162461bcd60e51b815260206004820152605a60248201527f53706c6974206172726179206d75737420686176652061206c656e677468206560448201527f7175616c20746f20746865206e756d626572206f66206172746973747320706c60648201527f7573203220286f7267616e697a657220616e642076656e756529000000000000608482015260a401610e89565b6000805b835181101561456d57838181518110614546576145466156de565b6020026020010151826145599190615696565b9150806145658161570b565b91505061452b565b50806064146137105760405162461bcd60e51b815260206004820152602160248201527f53706c69742070657263656e7461676573206d7573742073756d20746f2031306044820152600360fc1b6064820152608401610e89565b6000805b8351811015614612578381815181106145e7576145e76156de565b602002602001015160400151826145fe9190615696565b91508061460a8161570b565b9150506145cc565b508181146137105760405162461bcd60e51b815260206004820152603460248201527f546f74616c207469636b657473206163726f7373207469657273206d75737420604482015273657175616c20746f74616c20636170616369747960601b6064820152608401610e89565b614687614845565b61254561488e565b614697614845565b613ae281614896565b7f9b779b17422d0df92223018b32b4d1fa46e071723d6817e2486d003becc55f008054600119016146e457604051633ee5aeb560e01b815260040160405180910390fd5b60029055565b60017f9b779b17422d0df92223018b32b4d1fa46e071723d6817e2486d003becc55f0055565b60008381526017602090815260408083206001600160a01b03861684529091528120905b81548110156147e85782828281548110614750576147506156de565b9060005260206000200154036147d65781548290614770906001906156cb565b81548110614780576147806156de565b906000526020600020015482828154811061479d5761479d6156de565b9060005260206000200181905550818054806147bb576147bb615d3a565b600190038181906000526020600020016000905590556147e8565b806147e08161570b565b915050614734565b5050505050565b6147f88261489e565b6040516001600160a01b038316907fbc7cd75a20ee27fd9adebab32041f755214dbc6bffa90cc0225b39da2e5c2d3b90600090a280511561483d576137108282614903565b61231a614979565b7ff0c57e16840df040f15088dc2f81fe391c3923bec73e23a9662efc9c229c6a0054600160401b900460ff1661254557604051631afcd79f60e31b815260040160405180910390fd5b6146ea614845565b613c00614845565b806001600160a01b03163b6000036148d457604051634c9c8ce360e01b81526001600160a01b0382166004820152602401610e89565b600080516020615d6d83398151915280546001600160a01b0319166001600160a01b0392909216919091179055565b6060600080846001600160a01b0316846040516149209190615d50565b600060405180830381855af49150503d806000811461495b576040519150601f19603f3d011682016040523d82523d6000602084013e614960565b606091505b5091509150614970858383614998565b95945050505050565b34156125455760405163b398979f60e01b815260040160405180910390fd5b6060826149ad576149a8826149f4565b612e89565b81511580156149c457506001600160a01b0384163b155b156149ed57604051639996b31560e01b81526001600160a01b0385166004820152602401610e89565b5080612e89565b805115614a045780518082602001fd5b604051630a12f52160e11b815260040160405180910390fd5b6040518060a0016040528060608152602001614a4c604051806040016040528060008152602001600081525090565b81526000602082018190526040820181905260609091015290565b828054828255906000526020600020908101928215614abc579160200282015b82811115614abc57825182546001600160a01b0319166001600160a01b03909116178255602090920191600190910190614a87565b50614ac8929150614b07565b5090565b828054828255906000526020600020908101928215614abc579160200282015b82811115614abc578251825591602001919060010190614aec565b5b80821115614ac85760008155600101614b08565b6001600160a01b0381168114613ae257600080fd5b8035614b3c81614b1c565b919050565b60008060408385031215614b5457600080fd5b8235614b5f81614b1c565b946020939093013593505050565b60008060408385031215614b8057600080fd5b82359150602083013560088110614b9657600080fd5b809150509250929050565b600060208284031215614bb357600080fd5b5035919050565b60005b83811015614bd5578181015183820152602001614bbd565b50506000910152565b60008151808452614bf6816020860160208601614bba565b601f01601f19169290920160200192915050565b600081518084526020808501945080840160005b83811015614c435781516001600160a01b031687529582019590820190600101614c1e565b509495945050505050565b6000815160c08452614c6360c0850182614bde565b905060208301518051602086015260208101516040860152506040830151606085015260018060a01b036060840151166080850152608083015160a08501528091505092915050565b634e487b7160e01b600052602160045260246000fd5b60088110614ce057634e487b7160e01b600052602160045260246000fd5b9052565b6000610140808352614cf88184018e614bde565b9050602083820381850152614d0d828e614bde565b9150604060018060a01b038d1681860152606085840381870152614d31848e614c0a565b93508584036080870152614d45848d614c4e565b935085840360a0870152838b518086528486019150848160051b870101858e0160005b83811015614db157888303601f1901855281518051878552614d8c88860182614bde565b828b0151868c0152918901519489019490945294880194925090870190600101614d68565b5050809750505050505050508560c08301528460e0830152614dd7610100830185614cc2565b8215156101208301529b9a5050505050505050505050565b60008060408385031215614e0257600080fd5b50508035926020909101359150565b60008060408385031215614e2457600080fd5b823591506020830135614b9681614b1c565b60208101610e3a8284614cc2565b634e487b7160e01b600052604160045260246000fd5b604051606081016001600160401b0381118282101715614e7c57614e7c614e44565b60405290565b604051601f8201601f191681016001600160401b0381118282101715614eaa57614eaa614e44565b604052919050565b60006001600160401b03821115614ecb57614ecb614e44565b50601f01601f191660200190565b6000614eec614ee784614eb2565b614e82565b9050828152838383011115614f0057600080fd5b828260208301376000602084830101529392505050565b60008060408385031215614f2a57600080fd5b8235614f3581614b1c565b915060208301356001600160401b03811115614f5057600080fd5b8301601f81018513614f6157600080fd5b614f7085823560208401614ed9565b9150509250929050565b600081518084526020808501945080840160005b83811015614c4357815187529582019590820190600101614f8e565b602081526000612e896020830184614f7a565b600080600060608486031215614fd257600080fd5b505081359360208301359350604090920135919050565b600080600060608486031215614ffe57600080fd5b83359250602084013561501081614b1c565b929592945050506040919091013590565b6060815260006150346060830186614bde565b60208301949094525060400152919050565b600082601f83011261505757600080fd5b612e8983833560208501614ed9565b60006001600160401b0382111561507f5761507f614e44565b5060051b60200190565b600082601f83011261509a57600080fd5b813560206150aa614ee783615066565b82815260059290921b840181019181810190868411156150c957600080fd5b8286015b848110156150ed5780356150e081614b1c565b83529183019183016150cd565b509695505050505050565b60006040828403121561510a57600080fd5b604051604081018181106001600160401b038211171561512c5761512c614e44565b604052823581526020928301359281019290925250919050565b803560ff81168114614b3c57600080fd5b600082601f83011261516857600080fd5b81356020615178614ee783615066565b82815260059290921b8401810191818101908684111561519757600080fd5b8286015b848110156150ed5780356001600160401b03808211156151bb5760008081fd5b908801906060828b03601f19018113156151d55760008081fd5b6151dd614e5a565b87840135838111156151ef5760008081fd5b6151fd8d8a83880101615046565b8252506040848101358983015291909301359083015250835291830191830161519b565b600082601f83011261523257600080fd5b81356020615242614ee783615066565b82815260059290921b8401810191818101908684111561526157600080fd5b8286015b848110156150ed5780358352918301918301615265565b6000806000806000806000806000806101608b8d03121561529c57600080fd5b8a356001600160401b03808211156152b357600080fd5b6152bf8e838f01615046565b9b5060208d01359150808211156152d557600080fd5b6152e18e838f01615046565b9a5060408d01359150808211156152f757600080fd5b6153038e838f01615089565b99506153128e60608f016150f8565b985060a08d0135975061532760c08e01615146565b965060e08d013595506101008d013591508082111561534557600080fd5b6153518e838f01615157565b94506101208d013591508082111561536857600080fd5b506153758d828e01615221565b9250506153856101408c01614b31565b90509295989b9194979a5092959850565b6000806000606084860312156153ab57600080fd5b833592506020840135915060408401356153c481614b1c565b809150509250925092565b6000806000606084860312156153e457600080fd5b83356153ef81614b1c565b95602085013595506040909401359392505050565b602081526000612e896020830184614bde565b6000806040838503121561542a57600080fd5b8235915060208301356001600160401b0381111561544757600080fd5b830160c08186031215614b9657600080fd5b60006020828403121561546b57600080fd5b8135612e8981614b1c565b8015158114613ae257600080fd5b6000806000806080858703121561549a57600080fd5b8435935060208501356154ac81614b1c565b92506040850135915060608501356154c381615476565b939692955090935050565b60008060008060008060c087890312156154e757600080fd5b86356154f281614b1c565b9550602087013561550281614b1c565b9450604087013561551281614b1c565b9350606087013561552281614b1c565b9250608087013561553281614b1c565b915060a087013561554281614b1c565b809150509295509295509295565b60006101808e835280602084015261556a8184018f614bde565b9050828103604084015261557e818e614bde565b6001600160a01b038d166060850152838103608085015290506155a1818c614c4e565b9150508860a08301528760c08301528660e08301526155c4610100830187614cc2565b931515610120820152610140810192909252610160909101529998505050505050505050565b60208082526048908201527f4f6e6c79207468652056656e75652c205469636b657420636f6e74726163742c60408201527f206f72207468697320636f6e74726163742063616e2063616c6c207468697320606082015267333ab731ba34b7b760c11b608082015260a00190565b6020808252600e908201526d139bdd08185d5d1a1bdc9a5e995960921b604082015260600190565b634e487b7160e01b600052601160045260246000fd5b80820180821115610e3a57610e3a615680565b6000826156c657634e487b7160e01b600052601260045260246000fd5b500490565b81810381811115610e3a57610e3a615680565b634e487b7160e01b600052603260045260246000fd5b8082028115828204841417610e3a57610e3a615680565b60006001820161571d5761571d615680565b5060010190565b6001600160a01b0394909416845260208401929092526040830152606082015260800190565b60008161575957615759615680565b506000190190565b600181811c9082168061577557607f821691505b6020821081036122d657634e487b7160e01b600052602260045260246000fd5b600080604083850312156157a857600080fd5b505080516020909101519092909150565b6000602082840312156157cb57600080fd5b5051919050565b6000602082840312156157e457600080fd5b8151612e8981615476565b6020808252602f908201527f4f6e6c7920746865205469636b657420636f6e74726163742063616e2063616c60408201526e36103a3434b990333ab731ba34b7b760891b606082015260800190565b6bffffffffffffffffffffffff198860601b16815260006014820188516020808b0160005b838110156158885781516001600160a01b031685529382019390820190600101615863565b5050988252509687019590955250604085019290925260f81b6001600160f81b031916606084015260618301525060810192915050565b601f82111561371057600081815260208120601f850160051c810160208610156158e65750805b601f850160051c820191505b81811015613323578281556001016158f2565b81516001600160401b0381111561591e5761591e614e44565b6159328161592c8454615761565b846158bf565b602080601f831160018114615967576000841561594f5750858301515b600019600386901b1c1916600185901b178555613323565b600085815260208120601f198616915b8281101561599657888601518255948401946001909101908401615977565b50858210156159b45787850151600019600388901b60f8161c191681555b5050505050600190811b01905550565b60c0815260006159d760c0830189614bde565b82810360208401526159e98189614c0a565b905082810360408401526159fd8188614bde565b905060ff861660608401528281036080840152615a1a8186614f7a565b9150508260a0830152979650505050505050565b6001600160401b03831115615a4557615a45614e44565b615a5983615a538354615761565b836158bf565b6000601f841160018114615a8d5760008515615a755750838201355b600019600387901b1c1916600186901b1783556147e8565b600083815260209020601f19861690835b82811015615abe5786850135825560209485019460019092019101615a9e565b5086821015615adb5760001960f88860031b161c19848701351681555b505060018560011b0183555050505050565b60008135610e3a81614b1c565b8135601e19833603018112615b0e57600080fd5b820180356001600160401b03811115615b2657600080fd5b602082019150803603821315615b3b57600080fd5b615b46818385615a2e565b5050602082013560018201556040820135600282015560608201356003820155615b99615b7560808401615aed565b6004830180546001600160a01b0319166001600160a01b0392909216919091179055565b60a082013560058201555050565b81835281816020850137506000828201602090810191909152601f909101601f19169091010190565b6020815260008235601e19843603018112615bea57600080fd5b83016020810190356001600160401b03811115615c0657600080fd5b803603821315615c1557600080fd5b60c06020850152615c2a60e085018284615ba7565b915050615c47604084016020860180358252602090810135910152565b60608401356080840152615c5d60808501614b31565b6001600160a01b03811660a08501525060a084013560c08401528091505092915050565b600082601f830112615c9257600080fd5b8151615ca0614ee782614eb2565b818152846020838601011115615cb557600080fd5b615cc6826020830160208701614bba565b949350505050565b600080600060608486031215615ce357600080fd5b83516001600160401b0380821115615cfa57600080fd5b615d0687838801615c81565b94506020860151915080821115615d1c57600080fd5b50615d2986828701615c81565b92505060408401516153c481614b1c565b634e487b7160e01b600052603160045260246000fd5b60008251615d62818460208701614bba565b919091019291505056fe360894a13ba1a3210667c828492db98dca3e2076cc3735a920a3ca505d382bbca2646970667358221220b944b23cec146bc638b9c86ccc3c10a4f19cd0d65777d87ffae1f0e2769cb2b864736f6c63430008140033","linkReferences":{}},"methodIdentifiers":{"SELLOUT_PROTOCOL_WALLET()":"e30228be","UPGRADE_INTERFACE_VERSION()":"ad3cb1cc","activeShowCount()":"16488906","addTokenIdToWallet(bytes32,address,uint256)":"de44006f","artistRegistryContract()":"41adf3ad","artistRegistryInstance()":"8dea15a1","cancelShow(bytes32)":"ef5023a5","completeShow(bytes32)":"129e086b","consumeTicketTier(bytes32,uint256,uint256)":"644b5e59","depositToVault(bytes32)":"85266635","depositToVaultERC20(bytes32,uint256,address)":"9f1e564e","getNumberOfVoters(bytes32)":"85ffa16c","getOrganizer(bytes32)":"977cb89e","getPendingPayout(bytes32,address)":"42894bcb","getPendingRefund(bytes32,address)":"6e9cacd0","getSellOutThreshold(bytes32)":"1a348e62","getShowById(bytes32)":"27b1bf52","getShowPaymentToken(bytes32)":"d23b85a3","getShowStatus(bytes32)":"46c2c8a7","getTicketPricePaid(bytes32,uint256)":"93d4e100","getTicketTierInfo(bytes32,uint256)":"7e3e3935","getTotalCapacity(bytes32)":"620ec1e4","getTotalTicketsSold(bytes32)":"61041870","getWalletTokenIds(bytes32,address)":"5b9a1e09","hasTicket(address,bytes32)":"5c37da69","initialize(address)":"c4d66de8","isArtist(address,bytes32)":"02c9a8b5","isArtistMapping(bytes32,address)":"bafd4eb0","isOrganizer(address,bytes32)":"4ed372da","isTicketOwner(address,bytes32,uint256)":"a03f4efe","organizerRegistryContract()":"66bc64cd","organizerRegistryInstance()":"1cf2103e","owner()":"8da5cb5b","payout(bytes32)":"cfefb3d5","pendingPayouts(bytes32,address)":"8e70362b","pendingRefunds(bytes32,address)":"5696c07c","proposeShow(string,string,address[],(int256,int256),uint256,uint8,uint256,(string,uint256,uint256)[],uint256[],address)":"824f3e69","proxiableUUID()":"52d1902d","referralContract()":"7dad19db","referralInstance()":"c6ab848a","refundTicket(bytes32,uint256)":"3c60d2d6","renounceOwnership()":"715018a6","setProtocolAddresses(address,address,address,address,address,address)":"f8121873","setTicketOwnership(bytes32,address,uint256,bool)":"c8f67e96","setTicketPricePaid(bytes32,uint256,uint256)":"bd47dc5c","setTotalTicketsSold(bytes32,uint256)":"787d76b8","showPaymentToken(bytes32)":"72958028","showTokenVault(bytes32,address)":"c9e21e5e","showVault(bytes32)":"867e68af","shows(bytes32)":"fca46559","ticketContract()":"58a86e1d","ticketInstance()":"0233ce6a","ticketPricePaid(bytes32,uint256)":"2f18ddfe","totalTicketsSold(bytes32)":"925e8f89","transferOwnership(address)":"f2fde38b","updateShowVenue(bytes32,(string,(int256,int256),uint256,address,bytes32))":"c29e2de4","updateStatus(bytes32,uint8)":"054372ed","updateStatusIfSoldOut(bytes32)":"e6180546","upgradeToAndCall(address,bytes)":"4f1ef286","venueContract()":"51819335","venueRegistryContract()":"31a68da0","venueRegistryInstance()":"703ee4e5","walletToShowToTokenIds(bytes32,address,uint256)":"7d8d6a22","withdrawRefund(bytes32)":"e9acfa7c"},"id":79}