{"abi":[{"type":"function","name":"SELLOUT_PROTOCOL_WALLET","inputs":[],"outputs":[{"name":"","type":"address","internalType":"address"}],"stateMutability":"view"},{"type":"function","name":"UPGRADE_INTERFACE_VERSION","inputs":[],"outputs":[{"name":"","type":"string","internalType":"string"}],"stateMutability":"view"},{"type":"function","name":"activeShowCount","inputs":[],"outputs":[{"name":"","type":"uint256","internalType":"uint256"}],"stateMutability":"view"},{"type":"function","name":"addTokenIdToWallet","inputs":[{"name":"showId","type":"bytes32","internalType":"bytes32"},{"name":"wallet","type":"address","internalType":"address"},{"name":"tokenId","type":"uint256","internalType":"uint256"}],"outputs":[],"stateMutability":"nonpayable"},{"type":"function","name":"artistRegistryContract","inputs":[],"outputs":[{"name":"","type":"address","internalType":"address"}],"stateMutability":"view"},{"type":"function","name":"artistRegistryInstance","inputs":[],"outputs":[{"name":"","type":"address","internalType":"contract IArtistRegistry"}],"stateMutability":"view"},{"type":"function","name":"cancelShow","inputs":[{"name":"showId","type":"bytes32","internalType":"bytes32"}],"outputs":[],"stateMutability":"nonpayable"},{"type":"function","name":"checkAndUpdateExpiry","inputs":[{"name":"showId","type":"bytes32","internalType":"bytes32"}],"outputs":[],"stateMutability":"nonpayable"},{"type":"function","name":"checkAndUpdateShowStatus","inputs":[{"name":"showId","type":"bytes32","internalType":"bytes32"}],"outputs":[],"stateMutability":"nonpayable"},{"type":"function","name":"completeShow","inputs":[{"name":"showId","type":"bytes32","internalType":"bytes32"}],"outputs":[],"stateMutability":"nonpayable"},{"type":"function","name":"depositToVault","inputs":[{"name":"showId","type":"bytes32","internalType":"bytes32"}],"outputs":[],"stateMutability":"payable"},{"type":"function","name":"getNumberOfVoters","inputs":[{"name":"showId","type":"bytes32","internalType":"bytes32"}],"outputs":[{"name":"","type":"uint256","internalType":"uint256"}],"stateMutability":"view"},{"type":"function","name":"getOrganizer","inputs":[{"name":"showId","type":"bytes32","internalType":"bytes32"}],"outputs":[{"name":"","type":"address","internalType":"address"}],"stateMutability":"view"},{"type":"function","name":"getPendingRefund","inputs":[{"name":"showId","type":"bytes32","internalType":"bytes32"},{"name":"user","type":"address","internalType":"address"}],"outputs":[{"name":"amountOwed","type":"uint256","internalType":"uint256"}],"stateMutability":"view"},{"type":"function","name":"getSellOutThreshold","inputs":[{"name":"showId","type":"bytes32","internalType":"bytes32"}],"outputs":[{"name":"","type":"uint256","internalType":"uint256"}],"stateMutability":"view"},{"type":"function","name":"getShowById","inputs":[{"name":"showId","type":"bytes32","internalType":"bytes32"}],"outputs":[{"name":"name","type":"string","internalType":"string"},{"name":"description","type":"string","internalType":"string"},{"name":"organizer","type":"address","internalType":"address"},{"name":"artists","type":"address[]","internalType":"address[]"},{"name":"venue","type":"tuple","internalType":"struct VenueTypes.Venue","components":[{"name":"name","type":"string","internalType":"string"},{"name":"coordinates","type":"tuple","internalType":"struct VenueTypes.Coordinates","components":[{"name":"lat","type":"int256","internalType":"int256"},{"name":"lon","type":"int256","internalType":"int256"}]},{"name":"totalCapacity","type":"uint256","internalType":"uint256"},{"name":"wallet","type":"address","internalType":"address"},{"name":"venueId","type":"bytes32","internalType":"bytes32"}]},{"name":"ticketPrice","type":"tuple","internalType":"struct ShowTypes.TicketPrice","components":[{"name":"minPrice","type":"uint256","internalType":"uint256"},{"name":"maxPrice","type":"uint256","internalType":"uint256"}]},{"name":"sellOutThreshold","type":"uint256","internalType":"uint256"},{"name":"totalCapacity","type":"uint256","internalType":"uint256"},{"name":"status","type":"uint8","internalType":"enum ShowTypes.Status"},{"name":"isActive","type":"bool","internalType":"bool"}],"stateMutability":"view"},{"type":"function","name":"getShowStatus","inputs":[{"name":"showId","type":"bytes32","internalType":"bytes32"}],"outputs":[{"name":"","type":"uint8","internalType":"enum ShowTypes.Status"}],"stateMutability":"view"},{"type":"function","name":"getTicketPrice","inputs":[{"name":"showId","type":"bytes32","internalType":"bytes32"}],"outputs":[{"name":"","type":"tuple","internalType":"struct ShowTypes.TicketPrice","components":[{"name":"minPrice","type":"uint256","internalType":"uint256"},{"name":"maxPrice","type":"uint256","internalType":"uint256"}]}],"stateMutability":"view"},{"type":"function","name":"getTicketPricePaid","inputs":[{"name":"showId","type":"bytes32","internalType":"bytes32"},{"name":"ticketId","type":"uint256","internalType":"uint256"}],"outputs":[{"name":"","type":"uint256","internalType":"uint256"}],"stateMutability":"view"},{"type":"function","name":"getTotalCapacity","inputs":[{"name":"showId","type":"bytes32","internalType":"bytes32"}],"outputs":[{"name":"","type":"uint256","internalType":"uint256"}],"stateMutability":"view"},{"type":"function","name":"getTotalTicketsSold","inputs":[{"name":"showId","type":"bytes32","internalType":"bytes32"}],"outputs":[{"name":"","type":"uint256","internalType":"uint256"}],"stateMutability":"view"},{"type":"function","name":"getWalletTokenIds","inputs":[{"name":"showId","type":"bytes32","internalType":"bytes32"},{"name":"wallet","type":"address","internalType":"address"}],"outputs":[{"name":"","type":"uint256[]","internalType":"uint256[]"}],"stateMutability":"view"},{"type":"function","name":"hasTicket","inputs":[{"name":"wallet","type":"address","internalType":"address"},{"name":"showId","type":"bytes32","internalType":"bytes32"}],"outputs":[{"name":"ownsTicket","type":"bool","internalType":"bool"}],"stateMutability":"view"},{"type":"function","name":"initialize","inputs":[{"name":"_selloutProtocolWallet","type":"address","internalType":"address"}],"outputs":[],"stateMutability":"nonpayable"},{"type":"function","name":"isArtist","inputs":[{"name":"user","type":"address","internalType":"address"},{"name":"showId","type":"bytes32","internalType":"bytes32"}],"outputs":[{"name":"","type":"bool","internalType":"bool"}],"stateMutability":"view"},{"type":"function","name":"isArtistMapping","inputs":[{"name":"","type":"bytes32","internalType":"bytes32"},{"name":"","type":"address","internalType":"address"}],"outputs":[{"name":"","type":"bool","internalType":"bool"}],"stateMutability":"view"},{"type":"function","name":"isOrganizer","inputs":[{"name":"user","type":"address","internalType":"address"},{"name":"showId","type":"bytes32","internalType":"bytes32"}],"outputs":[{"name":"","type":"bool","internalType":"bool"}],"stateMutability":"view"},{"type":"function","name":"isTicketOwner","inputs":[{"name":"owner","type":"address","internalType":"address"},{"name":"showId","type":"bytes32","internalType":"bytes32"},{"name":"ticketId","type":"uint256","internalType":"uint256"}],"outputs":[{"name":"","type":"bool","internalType":"bool"}],"stateMutability":"view"},{"type":"function","name":"organizerRegistryContract","inputs":[],"outputs":[{"name":"","type":"address","internalType":"address"}],"stateMutability":"view"},{"type":"function","name":"organizerRegistryInstance","inputs":[],"outputs":[{"name":"","type":"address","internalType":"contract IOrganizerRegistry"}],"stateMutability":"view"},{"type":"function","name":"owner","inputs":[],"outputs":[{"name":"","type":"address","internalType":"address"}],"stateMutability":"view"},{"type":"function","name":"payout","inputs":[{"name":"showId","type":"bytes32","internalType":"bytes32"}],"outputs":[],"stateMutability":"nonpayable"},{"type":"function","name":"pendingWithdrawals","inputs":[{"name":"","type":"bytes32","internalType":"bytes32"},{"name":"","type":"address","internalType":"address"}],"outputs":[{"name":"","type":"uint256","internalType":"uint256"}],"stateMutability":"view"},{"type":"function","name":"proposeShow","inputs":[{"name":"name","type":"string","internalType":"string"},{"name":"description","type":"string","internalType":"string"},{"name":"artists","type":"address[]","internalType":"address[]"},{"name":"coordinates","type":"tuple","internalType":"struct VenueTypes.Coordinates","components":[{"name":"lat","type":"int256","internalType":"int256"},{"name":"lon","type":"int256","internalType":"int256"}]},{"name":"radius","type":"uint256","internalType":"uint256"},{"name":"sellOutThreshold","type":"uint8","internalType":"uint8"},{"name":"totalCapacity","type":"uint256","internalType":"uint256"},{"name":"ticketPrice","type":"tuple","internalType":"struct ShowTypes.TicketPrice","components":[{"name":"minPrice","type":"uint256","internalType":"uint256"},{"name":"maxPrice","type":"uint256","internalType":"uint256"}]},{"name":"split","type":"uint256[]","internalType":"uint256[]"}],"outputs":[{"name":"showId","type":"bytes32","internalType":"bytes32"}],"stateMutability":"nonpayable"},{"type":"function","name":"proxiableUUID","inputs":[],"outputs":[{"name":"","type":"bytes32","internalType":"bytes32"}],"stateMutability":"view"},{"type":"function","name":"referralContract","inputs":[],"outputs":[{"name":"","type":"address","internalType":"address"}],"stateMutability":"view"},{"type":"function","name":"referralInstance","inputs":[],"outputs":[{"name":"","type":"address","internalType":"contract ReferralModule"}],"stateMutability":"view"},{"type":"function","name":"refundTicket","inputs":[{"name":"showId","type":"bytes32","internalType":"bytes32"},{"name":"ticketId","type":"uint256","internalType":"uint256"}],"outputs":[],"stateMutability":"nonpayable"},{"type":"function","name":"renounceOwnership","inputs":[],"outputs":[],"stateMutability":"nonpayable"},{"type":"function","name":"setProtocolAddresses","inputs":[{"name":"_ticketContract","type":"address","internalType":"address"},{"name":"_venueContract","type":"address","internalType":"address"},{"name":"_referralContract","type":"address","internalType":"address"},{"name":"_artistRegistryContract","type":"address","internalType":"address"},{"name":"_organizerRegistryContract","type":"address","internalType":"address"},{"name":"_venueRegistryContract","type":"address","internalType":"address"}],"outputs":[],"stateMutability":"nonpayable"},{"type":"function","name":"setTicketPricePaid","inputs":[{"name":"showId","type":"bytes32","internalType":"bytes32"},{"name":"ticketId","type":"uint256","internalType":"uint256"},{"name":"price","type":"uint256","internalType":"uint256"}],"outputs":[],"stateMutability":"nonpayable"},{"type":"function","name":"setTotalTicketsSold","inputs":[{"name":"showId","type":"bytes32","internalType":"bytes32"},{"name":"amount","type":"uint256","internalType":"uint256"}],"outputs":[],"stateMutability":"nonpayable"},{"type":"function","name":"showVault","inputs":[{"name":"","type":"bytes32","internalType":"bytes32"}],"outputs":[{"name":"","type":"uint256","internalType":"uint256"}],"stateMutability":"view"},{"type":"function","name":"shows","inputs":[{"name":"","type":"bytes32","internalType":"bytes32"}],"outputs":[{"name":"showId","type":"bytes32","internalType":"bytes32"},{"name":"name","type":"string","internalType":"string"},{"name":"description","type":"string","internalType":"string"},{"name":"organizer","type":"address","internalType":"address"},{"name":"venue","type":"tuple","internalType":"struct VenueTypes.Venue","components":[{"name":"name","type":"string","internalType":"string"},{"name":"coordinates","type":"tuple","internalType":"struct VenueTypes.Coordinates","components":[{"name":"lat","type":"int256","internalType":"int256"},{"name":"lon","type":"int256","internalType":"int256"}]},{"name":"totalCapacity","type":"uint256","internalType":"uint256"},{"name":"wallet","type":"address","internalType":"address"},{"name":"venueId","type":"bytes32","internalType":"bytes32"}]},{"name":"radius","type":"uint256","internalType":"uint256"},{"name":"ticketPrice","type":"tuple","internalType":"struct ShowTypes.TicketPrice","components":[{"name":"minPrice","type":"uint256","internalType":"uint256"},{"name":"maxPrice","type":"uint256","internalType":"uint256"}]},{"name":"sellOutThreshold","type":"uint256","internalType":"uint256"},{"name":"totalCapacity","type":"uint256","internalType":"uint256"},{"name":"status","type":"uint8","internalType":"enum ShowTypes.Status"},{"name":"isActive","type":"bool","internalType":"bool"},{"name":"expiry","type":"uint256","internalType":"uint256"},{"name":"showDate","type":"uint256","internalType":"uint256"}],"stateMutability":"view"},{"type":"function","name":"ticketContract","inputs":[],"outputs":[{"name":"","type":"address","internalType":"address"}],"stateMutability":"view"},{"type":"function","name":"ticketInstance","inputs":[],"outputs":[{"name":"","type":"address","internalType":"contract Ticket"}],"stateMutability":"view"},{"type":"function","name":"ticketOwnership","inputs":[{"name":"","type":"address","internalType":"address"},{"name":"","type":"bytes32","internalType":"bytes32"}],"outputs":[{"name":"","type":"bool","internalType":"bool"}],"stateMutability":"view"},{"type":"function","name":"ticketPricePaid","inputs":[{"name":"","type":"bytes32","internalType":"bytes32"},{"name":"","type":"uint256","internalType":"uint256"}],"outputs":[{"name":"","type":"uint256","internalType":"uint256"}],"stateMutability":"view"},{"type":"function","name":"totalTicketsSold","inputs":[{"name":"","type":"bytes32","internalType":"bytes32"}],"outputs":[{"name":"","type":"uint256","internalType":"uint256"}],"stateMutability":"view"},{"type":"function","name":"transferOwnership","inputs":[{"name":"newOwner","type":"address","internalType":"address"}],"outputs":[],"stateMutability":"nonpayable"},{"type":"function","name":"updateExpiry","inputs":[{"name":"showId","type":"bytes32","internalType":"bytes32"},{"name":"expiry","type":"uint256","internalType":"uint256"}],"outputs":[],"stateMutability":"nonpayable"},{"type":"function","name":"updateStatus","inputs":[{"name":"showId","type":"bytes32","internalType":"bytes32"},{"name":"_status","type":"uint8","internalType":"enum ShowTypes.Status"}],"outputs":[],"stateMutability":"nonpayable"},{"type":"function","name":"updateVenue","inputs":[{"name":"showId","type":"bytes32","internalType":"bytes32"},{"name":"newVenue","type":"tuple","internalType":"struct VenueTypes.Venue","components":[{"name":"name","type":"string","internalType":"string"},{"name":"coordinates","type":"tuple","internalType":"struct VenueTypes.Coordinates","components":[{"name":"lat","type":"int256","internalType":"int256"},{"name":"lon","type":"int256","internalType":"int256"}]},{"name":"totalCapacity","type":"uint256","internalType":"uint256"},{"name":"wallet","type":"address","internalType":"address"},{"name":"venueId","type":"bytes32","internalType":"bytes32"}]}],"outputs":[],"stateMutability":"nonpayable"},{"type":"function","name":"upgradeToAndCall","inputs":[{"name":"newImplementation","type":"address","internalType":"address"},{"name":"data","type":"bytes","internalType":"bytes"}],"outputs":[],"stateMutability":"payable"},{"type":"function","name":"venueContract","inputs":[],"outputs":[{"name":"","type":"address","internalType":"address"}],"stateMutability":"view"},{"type":"function","name":"venueRegistryContract","inputs":[],"outputs":[{"name":"","type":"address","internalType":"address"}],"stateMutability":"view"},{"type":"function","name":"venueRegistryInstance","inputs":[],"outputs":[{"name":"","type":"address","internalType":"contract IVenueRegistry"}],"stateMutability":"view"},{"type":"function","name":"walletToShowToTokenIds","inputs":[{"name":"","type":"bytes32","internalType":"bytes32"},{"name":"","type":"address","internalType":"address"},{"name":"","type":"uint256","internalType":"uint256"}],"outputs":[{"name":"","type":"uint256","internalType":"uint256"}],"stateMutability":"view"},{"type":"function","name":"withdrawRefund","inputs":[{"name":"showId","type":"bytes32","internalType":"bytes32"}],"outputs":[],"stateMutability":"nonpayable"},{"type":"event","name":"ExpiryUpdated","inputs":[{"name":"showId","type":"bytes32","indexed":true,"internalType":"bytes32"},{"name":"expiry","type":"uint256","indexed":false,"internalType":"uint256"}],"anonymous":false},{"type":"event","name":"Initialized","inputs":[{"name":"version","type":"uint64","indexed":false,"internalType":"uint64"}],"anonymous":false},{"type":"event","name":"OwnershipTransferred","inputs":[{"name":"previousOwner","type":"address","indexed":true,"internalType":"address"},{"name":"newOwner","type":"address","indexed":true,"internalType":"address"}],"anonymous":false},{"type":"event","name":"RefundWithdrawn","inputs":[{"name":"user","type":"address","indexed":true,"internalType":"address"},{"name":"showId","type":"bytes32","indexed":true,"internalType":"bytes32"},{"name":"amount","type":"uint256","indexed":false,"internalType":"uint256"}],"anonymous":false},{"type":"event","name":"ShowExpired","inputs":[{"name":"showId","type":"bytes32","indexed":true,"internalType":"bytes32"}],"anonymous":false},{"type":"event","name":"ShowProposed","inputs":[{"name":"showId","type":"bytes32","indexed":true,"internalType":"bytes32"},{"name":"organizer","type":"address","indexed":true,"internalType":"address"},{"name":"name","type":"string","indexed":false,"internalType":"string"},{"name":"artists","type":"address[]","indexed":false,"internalType":"address[]"},{"name":"description","type":"string","indexed":false,"internalType":"string"},{"name":"ticketPrice","type":"tuple","indexed":false,"internalType":"struct ShowTypes.TicketPrice","components":[{"name":"minPrice","type":"uint256","internalType":"uint256"},{"name":"maxPrice","type":"uint256","internalType":"uint256"}]},{"name":"sellOutThreshold","type":"uint256","indexed":false,"internalType":"uint256"},{"name":"split","type":"uint256[]","indexed":false,"internalType":"uint256[]"}],"anonymous":false},{"type":"event","name":"StatusUpdated","inputs":[{"name":"showId","type":"bytes32","indexed":true,"internalType":"bytes32"},{"name":"status","type":"uint8","indexed":false,"internalType":"enum ShowTypes.Status"}],"anonymous":false},{"type":"event","name":"TicketRefunded","inputs":[{"name":"user","type":"address","indexed":true,"internalType":"address"},{"name":"showId","type":"bytes32","indexed":true,"internalType":"bytes32"},{"name":"refundAmount","type":"uint256","indexed":false,"internalType":"uint256"}],"anonymous":false},{"type":"event","name":"Upgraded","inputs":[{"name":"implementation","type":"address","indexed":true,"internalType":"address"}],"anonymous":false},{"type":"event","name":"VenueUpdated","inputs":[{"name":"showId","type":"bytes32","indexed":true,"internalType":"bytes32"},{"name":"newVenue","type":"tuple","indexed":false,"internalType":"struct VenueTypes.Venue","components":[{"name":"name","type":"string","internalType":"string"},{"name":"coordinates","type":"tuple","internalType":"struct VenueTypes.Coordinates","components":[{"name":"lat","type":"int256","internalType":"int256"},{"name":"lon","type":"int256","internalType":"int256"}]},{"name":"totalCapacity","type":"uint256","internalType":"uint256"},{"name":"wallet","type":"address","internalType":"address"},{"name":"venueId","type":"bytes32","internalType":"bytes32"}]}],"anonymous":false},{"type":"event","name":"Withdrawal","inputs":[{"name":"showId","type":"bytes32","indexed":true,"internalType":"bytes32"},{"name":"recipient","type":"address","indexed":true,"internalType":"address"},{"name":"amount","type":"uint256","indexed":false,"internalType":"uint256"}],"anonymous":false},{"type":"error","name":"AddressEmptyCode","inputs":[{"name":"target","type":"address","internalType":"address"}]},{"type":"error","name":"ERC1967InvalidImplementation","inputs":[{"name":"implementation","type":"address","internalType":"address"}]},{"type":"error","name":"ERC1967NonPayable","inputs":[]},{"type":"error","name":"FailedInnerCall","inputs":[]},{"type":"error","name":"InvalidInitialization","inputs":[]},{"type":"error","name":"NotInitializing","inputs":[]},{"type":"error","name":"OwnableInvalidOwner","inputs":[{"name":"owner","type":"address","internalType":"address"}]},{"type":"error","name":"OwnableUnauthorizedAccount","inputs":[{"name":"account","type":"address","internalType":"address"}]},{"type":"error","name":"ReentrancyGuardReentrantCall","inputs":[]},{"type":"error","name":"UUPSUnauthorizedCallContext","inputs":[]},{"type":"error","name":"UUPSUnsupportedProxiableUUID","inputs":[{"name":"slot","type":"bytes32","internalType":"bytes32"}]}],"bytecode":{"object":"0x60a0604052306080526014805460ff60a01b1916905534801561002157600080fd5b50608051614aeb61004b600039600081816133310152818161335a015261349b0152614aeb6000f3fe60806040526004361061038c5760003560e01c8063715018a6116101dc578063ad3cb1cc11610102578063cfefb3d5116100a0578063ef5023a51161006f578063ef5023a514610c7e578063f2fde38b14610c9e578063f812187314610cbe578063fca4655914610cde57600080fd5b8063cfefb3d514610bfe578063de44006f14610c1e578063e30228be14610c3e578063e9acfa7c14610c5e57600080fd5b8063be44d38d116100dc578063be44d38d14610b1d578063c4d66de814610b55578063c6ab848a14610b75578063c73a839c14610b9557600080fd5b8063ad3cb1cc14610a84578063bafd4eb014610ac2578063bd47dc5c14610afd57600080fd5b80638da5cb5b1161017a578063977cb89e11610149578063977cb89e146109eb578063a03f4efe14610a24578063a2c8624c14610a44578063a38311ff14610a6457600080fd5b80638da5cb5b146109295780638dea15a114610966578063925e8f891461098657806393d4e100146109b357600080fd5b80637dad19db116101b65780637dad19db146108a957806385266635146108c957806385ffa16c146108dc578063867e68af146108fc57600080fd5b8063715018a614610854578063787d76b8146108695780637d8d6a221461088957600080fd5b80634365c06e116102c157806358a86e1d1161025f578063620ec1e41161022e578063620ec1e4146107a157806366bc64cd146107d15780636e9cacd0146107f1578063703ee4e51461083457600080fd5b806358a86e1d146106e35780635b9a1e09146107035780635c37da6914610730578063610418701461077457600080fd5b80634ed372da1161029b5780634ed372da1461065d5780634f1ef2861461069b57806351819335146106ae57806352d1902d146106ce57600080fd5b80634365c06e146105c257806346079335146105e257806346c2c8a71461061d57600080fd5b80631cf2103e1161032e5780632f18ddfe116103085780632f18ddfe1461052a57806331a68da0146105625780633c60d2d61461058257806341adf3ad146105a257600080fd5b80631cf2103e146104b457806324f7827e146104d457806327b1bf52146104f457600080fd5b80630d08c3c91161036a5780630d08c3c914610420578063129e086b1461044057806316488906146104605780631a348e621461048457600080fd5b80630233ce6a1461039157806302c9a8b5146103ce578063054372ed146103fe575b600080fd5b34801561039d57600080fd5b506010546103b1906001600160a01b031681565b6040516001600160a01b0390911681526020015b60405180910390f35b3480156103da57600080fd5b506103ee6103e9366004613c4c565b610d17565b60405190151581526020016103c5565b34801561040a57600080fd5b5061041e610419366004613c78565b610d44565b005b34801561042c57600080fd5b5061041e61043b366004613cac565b610e05565b34801561044c57600080fd5b5061041e61045b366004613cce565b610eea565b34801561046c57600080fd5b5061047660015481565b6040519081526020016103c5565b34801561049057600080fd5b5061047661049f366004613cce565b6000908152600260205260409020600e015490565b3480156104c057600080fd5b506013546103b1906001600160a01b031681565b3480156104e057600080fd5b5061041e6104ef366004613cce565b6113e3565b34801561050057600080fd5b5061051461050f366004613cce565b6114a2565b6040516103c59a99989796959493929190613e11565b34801561053657600080fd5b50610476610545366004613cac565b600760209081526000928352604080842090915290825290205481565b34801561056e57600080fd5b50600f546103b1906001600160a01b031681565b34801561058e57600080fd5b5061041e61059d366004613cac565b6117e9565b3480156105ae57600080fd5b50600d546103b1906001600160a01b031681565b3480156105ce57600080fd5b5061041e6105dd366004613cce565b611a05565b3480156105ee57600080fd5b506103ee6105fd366004613c4c565b600860209081526000928352604080842090915290825290205460ff1681565b34801561062957600080fd5b50610650610638366004613cce565b60009081526002602052604090206010015460ff1690565b6040516103c59190613ebd565b34801561066957600080fd5b506103ee610678366004613c4c565b6000908152600260205260409020600301546001600160a01b0391821691161490565b61041e6106a9366004613fa1565b611ac3565b3480156106ba57600080fd5b50600b546103b1906001600160a01b031681565b3480156106da57600080fd5b50610476611ade565b3480156106ef57600080fd5b50600a546103b1906001600160a01b031681565b34801561070f57600080fd5b5061072361071e366004614005565b611afb565b6040516103c5919061405a565b34801561073c57600080fd5b506103ee61074b366004613c4c565b60009081526009602090815260408083206001600160a01b039490941683529290522054151590565b34801561078057600080fd5b5061047661078f366004613cce565b60009081526006602052604090205490565b3480156107ad57600080fd5b506104766107bc366004613cce565b6000908152600260205260409020600f015490565b3480156107dd57600080fd5b50600e546103b1906001600160a01b031681565b3480156107fd57600080fd5b5061047661080c366004614005565b60009182526005602090815260408084206001600160a01b0393909316845291905290205490565b34801561084057600080fd5b506014546103b1906001600160a01b031681565b34801561086057600080fd5b5061041e611b6f565b34801561087557600080fd5b5061041e610884366004613cac565b611b83565b34801561089557600080fd5b506104766108a436600461406d565b611bdd565b3480156108b557600080fd5b50600c546103b1906001600160a01b031681565b61041e6108d7366004613cce565b611c1b565b3480156108e857600080fd5b506104766108f7366004613cce565b611c8a565b34801561090857600080fd5b50610476610917366004613cce565b60046020526000908152604090205481565b34801561093557600080fd5b507f9016d09d72d40fdae2fd8ceac6b6234c7706214fd39c1cd1e609a0528c199300546001600160a01b03166103b1565b34801561097257600080fd5b506012546103b1906001600160a01b031681565b34801561099257600080fd5b506104766109a1366004613cce565b60066020526000908152604090205481565b3480156109bf57600080fd5b506104766109ce366004613cac565b600091825260076020908152604080842092845291905290205490565b3480156109f757600080fd5b506103b1610a06366004613cce565b6000908152600260205260409020600301546001600160a01b031690565b348015610a3057600080fd5b506103ee610a3f3660046140a5565b611cae565b348015610a5057600080fd5b50610476610a5f36600461424d565b611d6e565b348015610a7057600080fd5b5061041e610a7f366004614343565b612558565b348015610a9057600080fd5b50610ab5604051806040016040528060058152602001640352e302e360dc1b81525081565b6040516103c591906143f8565b348015610ace57600080fd5b506103ee610add366004614005565b600360209081526000928352604080842090915290825290205460ff1681565b348015610b0957600080fd5b5061041e610b1836600461440b565b612634565b348015610b2957600080fd5b50610476610b38366004614005565b600560209081526000928352604080842090915290825290205481565b348015610b6157600080fd5b5061041e610b70366004614437565b61267a565b348015610b8157600080fd5b506011546103b1906001600160a01b031681565b348015610ba157600080fd5b50610bf1610bb0366004613cce565b6040805180820190915260008082526020820152506000908152600260209081526040918290208251808401909352600c8101548352600d01549082015290565b6040516103c59190614454565b348015610c0a57600080fd5b5061041e610c19366004613cce565b6127ad565b348015610c2a57600080fd5b5061041e610c3936600461406d565b6129ca565b348015610c4a57600080fd5b506015546103b1906001600160a01b031681565b348015610c6a57600080fd5b5061041e610c79366004613cce565b612a2b565b348015610c8a57600080fd5b5061041e610c99366004613cce565b612c8e565b348015610caa57600080fd5b5061041e610cb9366004614437565b612dbf565b348015610cca57600080fd5b5061041e610cd936600461446b565b612dfa565b348015610cea57600080fd5b50610cfe610cf9366004613cce565b612ede565b6040516103c59d9c9b9a999897969594939291906144ed565b60008181526003602090815260408083206001600160a01b038616845290915290205460ff165b92915050565b600b546001600160a01b0316331480610d675750600a546001600160a01b031633145b80610d7157503330145b610d965760405162461bcd60e51b8152600401610d8d9061459f565b60405180910390fd5b6000828152600260205260409020601001805482919060ff19166001836007811115610dc457610dc4613dd9565b0217905550817f8ed894b6f384ca9c829b9aa5b056bc9106a90845a15616607e975d4ad488ee6782604051610df99190613ebd565b60405180910390a25050565b600a546001600160a01b03163314610e2f5760405162461bcd60e51b8152600401610d8d9061460d565b60008281526002602052604081206010015460ff166007811115610e5557610e55613dd9565b14610ea25760405162461bcd60e51b815260206004820152601f60248201527f53686f77206d75737420626520696e2050726f706f73656420737461747573006044820152606401610d8d565b600082815260026020526040908190206012018290555182907fe4f26fcd7ae101f4d7c47cac6fc616fbb05e9b41e67b7a00b67b35f13654fce090610df99084815260200190565b600a546001600160a01b03163314610f145760405162461bcd60e51b8152600401610d8d9061460d565b600081815260026020819052604090912090601082015460ff166007811115610f3f57610f3f613dd9565b14610f845760405162461bcd60e51b815260206004820152601560248201527414da1bddc81b5d5cdd081899481058d8d95c1d1959605a1b6044820152606401610d8d565b60008281526004602052604090205480610fd95760405162461bcd60e51b81526020600482015260166024820152754e6f2066756e647320746f206469737472696275746560501b6044820152606401610d8d565b60008260110180548060200260200160405190810160405280929190818152602001828054801561102957602002820191906000526020600020905b815481526020019060010190808311611015575b50505050509050600060648361103f9190614672565b60008681526005602090815260408083206015546001600160a01b03168452909152902081905590506110728184614694565b9250600060648360008151811061108b5761108b6146a7565b60200260200101518561109e91906146bd565b6110a89190614672565b600087815260056020908152604080832060038a01546001600160a01b0316845290915281208290559091505b60048601548110156111835760006064856110f18460016146d4565b81518110611101576111016146a7565b60200260200101518761111491906146bd565b61111e9190614672565b905080600560008a8152602001908152602001600020600089600401858154811061114b5761114b6146a7565b60009182526020808320909101546001600160a01b03168352820192909252604001902055508061117b816146e7565b9150506110d5565b506000606484600186516111979190614694565b815181106111a7576111a76146a7565b6020026020010151866111ba91906146bd565b6111c49190614672565b600088815260056020908152604080832060098b01546001600160a01b0390811685529083528184208590558b84526004928390528184209390935560108a01805460ff19168317905560115460038b0154915163416b56db60e01b815294955083169363416b56db93611242939216916001918291829101614700565b600060405180830381600087803b15801561125c57600080fd5b505af1158015611270573d6000803e3d6000fd5b5050505060005b6004870154811015611331576011546004880180546001600160a01b039092169163416b56db9190849081106112af576112af6146a7565b6000918252602090912001546040516001600160e01b031960e084901b1681526112ec916001600160a01b03169060019081908190600401614700565b600060405180830381600087803b15801561130657600080fd5b505af115801561131a573d6000803e3d6000fd5b505050508080611329906146e7565b915050611277565b50601154600987015460405163416b56db60e01b81526001600160a01b039283169263416b56db9261136f9291169060019081908190600401614700565b600060405180830381600087803b15801561138957600080fd5b505af115801561139d573d6000803e3d6000fd5b50505050867f8ed894b6f384ca9c829b9aa5b056bc9106a90845a15616607e975d4ad488ee6760046040516113d29190613ebd565b60405180910390a250505050505050565b600b546001600160a01b03163314806114065750600a546001600160a01b031633145b8061141057503330145b61142c5760405162461bcd60e51b8152600401610d8d9061459f565b6000818152600260209081526040808320600690925290912054600e820154600f83015460649161145c916146bd565b6114669190614672565b811015801561148d57506000601083015460ff16600781111561148b5761148b613dd9565b145b1561149d5761149d836001610d44565b505050565b606080600060606114b1613b38565b6040805180820190915260008082526020820152600087815260026020819052604082206003810154600e820154600f830154601084015460018501805488978897889790969395918701946001600160a01b039091169360048801936005890193600c8a0193909160ff80831692610100900416908a9061153290614726565b80601f016020809104026020016040519081016040528092919081815260200182805461155e90614726565b80156115ab5780601f10611580576101008083540402835291602001916115ab565b820191906000526020600020905b81548152906001019060200180831161158e57829003601f168201915b505050505099508880546115be90614726565b80601f01602080910402602001604051908101604052809291908181526020018280546115ea90614726565b80156116375780601f1061160c57610100808354040283529160200191611637565b820191906000526020600020905b81548152906001019060200180831161161a57829003601f168201915b505050505098508680548060200260200160405190810160405280929190818152602001828054801561169357602002820191906000526020600020905b81546001600160a01b03168152600190910190602001808311611675575b50505050509650856040518060a00160405290816000820180546116b690614726565b80601f01602080910402602001604051908101604052809291908181526020018280546116e290614726565b801561172f5780601f106117045761010080835404028352916020019161172f565b820191906000526020600020905b81548152906001019060200180831161171257829003601f168201915b5050505050815260200160018201604051806040016040529081600082015481526020016001820154815250508152602001600382015481526020016004820160009054906101000a90046001600160a01b03166001600160a01b03166001600160a01b031681526020016005820154815250509550846040518060400160405290816000820154815260200160018201548152505094509a509a509a509a509a509a509a509a509a509a50509193959799509193959799565b60008281526002602052604081206010015460ff16600781111561180f5761180f613dd9565b14806118405750600560008381526002602052604090206010015460ff16600781111561183e5761183e613dd9565b145b806118705750600760008381526002602052604090206010015460ff16600781111561186e5761186e613dd9565b145b6118c85760405162461bcd60e51b8152602060048201526024808201527f46756e647320617265206c6f636b6564206f722073686f7720697320736f6c64604482015263081bdd5d60e21b6064820152608401610d8d565b6118d3338383611cae565b6119325760405162461bcd60e51b815260206004820152602a60248201527f5573657220646f6573206e6f74206f776e20746865207469636b657420666f7260448201526920746869732073686f7760b01b6064820152608401610d8d565b6000828152600760209081526040808320848452909152902054806119905760405162461bcd60e51b8152602060048201526014602482015273151a58dad95d081b9bdd081c1d5c98da185cd95960621b6044820152606401610d8d565b61199b83838361316b565b604051339082156108fc029083906000818181858888f193505050501580156119c8573d6000803e3d6000fd5b50604051818152839033907f6327daeea6ce26abf9f96cd84eee9cb40d1d5b88f7f5990914540e392446bf049060200160405180910390a3505050565b600a546001600160a01b03163314611a2f5760405162461bcd60e51b8152600401610d8d9061460d565b600081815260026020526040902060128101544210801590611a6a57506007601082015460ff166007811115611a6757611a67613dd9565b14155b15611abf5760108101805460ff1916600717905560018054906000611a8e83614760565b909155505060405182907f82b7e047c31ec5019ec913d8f5f2257c393096c9e63f6214f001f4b27e4dc0c890600090a25b5050565b611acb613326565b611ad4826133cb565b611abf82826133d3565b6000611ae8613490565b50600080516020614a9683398151915290565b60008281526009602090815260408083206001600160a01b0385168452825291829020805483518184028101840190945280845260609392830182828015611b6257602002820191906000526020600020905b815481526020019060010190808311611b4e575b5050505050905092915050565b611b776134d9565b611b816000613534565b565b600a546001600160a01b03163314611bad5760405162461bcd60e51b8152600401610d8d9061460d565b600082815260066020526040902054611bc79082906146d4565b6000928352600660205260409092209190915550565b60096020528260005260406000206020528160005260406000208181548110611c0557600080fd5b9060005260206000200160009250925050505481565b600b546001600160a01b0316331480611c3e5750600a546001600160a01b031633145b80611c4857503330145b611c645760405162461bcd60e51b8152600401610d8d9061459f565b60008181526004602052604081208054349290611c829084906146d4565b909155505050565b600081815260026020526040812060040154611ca78160016146d4565b9392505050565b60008281526009602090815260408083206001600160a01b0387168452825280832080548251818502810185019093528083528493830182828015611d1257602002820191906000526020600020905b815481526020019060010190808311611cfe575b5050505050905060005b8151811015611d625783828281518110611d3857611d386146a7565b602002602001015103611d5057600192505050611ca7565b80611d5a816146e7565b915050611d1c565b50600095945050505050565b6000808a5111611db35760405162461bcd60e51b815260206004820152601060248201526f13985b59481a5cc81c995c5d5a5c995960821b6044820152606401610d8d565b60008611611e0f5760405162461bcd60e51b815260206004820152602360248201527f56656e756520726164697573206d75737420626520677265617465722074686160448201526206e20360ec1b6064820152608401610d8d565b60008411611e6d5760405162461bcd60e51b815260206004820152602560248201527f546f74616c206361706163697479206d75737420626520677265617465722074604482015264068616e20360dc1b6064820152608401610d8d565b6000885111611ebe5760405162461bcd60e51b815260206004820152601c60248201527f4174206c65617374206f6e6520617274697374207265717569726564000000006044820152606401610d8d565b825160208401511015611f395760405162461bcd60e51b815260206004820152603d60248201527f4d6178207469636b6574207072696365206d757374206265206772656174657260448201527f206f7220657175616c20746f206d696e207469636b65742070726963650000006064820152608401610d8d565b60328560ff1610158015611f51575060648560ff1611155b611fb35760405162461bcd60e51b815260206004820152602d60248201527f53656c6c2d6f7574207468726573686f6c64206d75737420626520626574776560448201526c0656e20353020616e642031303609c1b6064820152608401610d8d565b865163055d4a7f1913801590611fce5750865163055d4a8012155b61200d5760405162461bcd60e51b815260206004820152601060248201526f496e76616c6964206c6174697475646560801b6044820152606401610d8d565b630aba94ff1987602001511215801561202e5750630aba9500876020015113155b61206e5760405162461bcd60e51b8152602060048201526011602482015270496e76616c6964206c6f6e67697475646560781b6044820152606401610d8d565b601454600160a01b900460ff166120c75760405162461bcd60e51b815260206004820152601e60248201527f436f6e747261637420616464726573736573206d7573742062652073657400006044820152606401610d8d565b6120d0336135a5565b61211c5760405162461bcd60e51b815260206004820152601c60248201527f4f7267616e697a6572206d7573742062652072656769737465726564000000006044820152606401610d8d565b60005b88518110156121a85761214a89828151811061213d5761213d6146a7565b6020026020010151613635565b6121965760405162461bcd60e51b815260206004820152601e60248201527f416c6c2061727469737473206d757374206265207265676973746572656400006044820152606401610d8d565b806121a0816146e7565b91505061211f565b506121b482895161366b565b86516020808901516040516121d59333938d9391928c918c918c9101614777565b60405160208183030381529060405280519060200120905060004262278d006121fe91906146d4565b905060006040518060a001604052806040518060200160405280600081525081526020018a815260200187815260200160006001600160a01b031681526020016000801b8152509050604051806101e001604052808481526020018d81526020018c8152602001336001600160a01b031681526020018b81526020018281526020018981526020018681526020018860ff168152602001878152602001600060078111156122ae576122ae613dd9565b81526001602080830182905260408084018990526060840187905260006080909401849052878452600282529092208351815591830151908201906122f3908261483e565b5060408201516002820190612308908261483e565b5060608201516003820180546001600160a01b0319166001600160a01b039092169190911790556080820151805161234a916004840191602090910190613b82565b5060a0820151805160058301908190612363908261483e565b5060208281015180516001848101919091559082015160028401556040840151600384015560608401516004840180546001600160a01b0319166001600160a01b0390921691909117905560809093015160059092019190915560c0840151600b84015560e08401518051600c8501550151600d830155610100830151600e830155610120830151600f8301556101408301516010830180549192909160ff19169083600781111561241757612417613dd9565b02179055506101608201516010820180549115156101000261ff00199092169190911790556101808201518051612458916011840191602090910190613be7565b506101a082015160128201556101c09091015160139091015560005b8a518110156124e75760008481526003602052604081208c51600192908e90859081106124a3576124a36146a7565b6020908102919091018101516001600160a01b03168252810191909152604001600020805460ff1916911515919091179055806124df816146e7565b915050612474565b50600180549060006124f8836146e7565b9190505550336001600160a01b0316837f5829640c990aaf491e04dbb3bede81c191d55a802b99b9194101fa3adece09e08e8d8f8a8d8b604051612541969594939291906148fe565b60405180910390a350509998505050505050505050565b600b546001600160a01b031633146125825760405162461bcd60e51b8152600401610d8d9061460d565b600082815260026020526040902081518290600583019081906125a5908261483e565b506020828101518051600184015501516002820155604080830151600383015560608301516004830180546001600160a01b0319166001600160a01b039092169190911790556080909201516005909101555183907ff199f58c6628f3436415ab64e2d1e914a5e79b5ce23d59be2970b2fe46034a6190612627908590614972565b60405180910390a2505050565b600a546001600160a01b0316331461265e5760405162461bcd60e51b8152600401610d8d9061460d565b6000928352600760209081526040808520938552929052912055565b7ff0c57e16840df040f15088dc2f81fe391c3923bec73e23a9662efc9c229c6a008054600160401b810460ff16159067ffffffffffffffff166000811580156126c05750825b905060008267ffffffffffffffff1660011480156126dd5750303b155b9050811580156126eb575080155b156127095760405163f92ee8a960e01b815260040160405180910390fd5b845467ffffffffffffffff19166001178555831561273357845460ff60401b1916600160401b1785555b61273b61379a565b612744866137aa565b601580546001600160a01b0319166001600160a01b03881617905583156127a557845460ff60401b19168555604051600181527fc7f505b2f371ae2175ee4913f4499e1f2633a7b5936321eed1cdaeb6115181d29060200160405180910390a15b505050505050565b60008181526002602052604090206003015481906001600160a01b03163314806127dc57506127dc3382610d17565b6128195760405162461bcd60e51b815260206004820152600e60248201526d139bdd08185d5d1a1bdc9a5e995960921b6044820152606401610d8d565b60008281526002602052604090206004601082015460ff16600781111561284257612842613dd9565b146128885760405162461bcd60e51b815260206004820152601660248201527514da1bddc81b5d5cdd0818994810dbdb5c1b195d195960521b6044820152606401610d8d565b601381015461289a906202a3006146d4565b42146128e85760405162461bcd60e51b815260206004820152601c60248201527f53686f7720636f6f6c20646f776e20686173206e6f7420656e646564000000006044820152606401610d8d565b6000838152600560209081526040808320338452909152902054806129465760405162461bcd60e51b81526020600482015260146024820152734e6f2066756e647320746f20776974686472617760601b6044820152606401610d8d565b600084815260056020908152604080832033808552925280832083905551909183156108fc02918491818181858888f1935050505015801561298c573d6000803e3d6000fd5b50604051818152339085907f028ab133c73f6c00ad0c5896ef40eff18378acd3d7f2ecf573c2706582bf73bf9060200160405180910390a350505050565b600a546001600160a01b031633146129f45760405162461bcd60e51b8152600401610d8d9061460d565b60009283526009602090815260408085206001600160a01b0390941685529281529183208054600181018255908452919092200155565b612a336137bb565b60008181526002602052604090206006601082015460ff166007811115612a5c57612a5c613dd9565b1480612a8057506007601082015460ff166007811115612a7e57612a7e613dd9565b145b80612aa357506005601082015460ff166007811115612aa157612aa1613dd9565b145b80612ac657506000601082015460ff166007811115612ac457612ac4613dd9565b145b612b295760405162461bcd60e51b815260206004820152602e60248201527f526566756e647320617265206e6f7420617661696c61626c6520666f7220746860448201526d69732073686f772073746174757360901b6064820152608401610d8d565b600082815260056020908152604080832033845290915290205480612b875760405162461bcd60e51b81526020600482015260146024820152734e6f2066756e647320746f20776974686472617760601b6044820152606401610d8d565b80471015612be25760405162461bcd60e51b815260206004820152602260248201527f496e73756666696369656e742066756e647320696e2074686520636f6e74726160448201526118dd60f21b6064820152608401610d8d565b600083815260056020908152604080832033808552925280832083905551909183156108fc02918491818181858888f19350505050158015612c28573d6000803e3d6000fd5b50604051818152839033907fa4d59773de0ef2d6faf35ac70331de09c09cb20909bf7453dd0d620524bd1fc99060200160405180910390a35050612c8b60017f9b779b17422d0df92223018b32b4d1fa46e071723d6817e2486d003becc55f0055565b50565b60008181526002602052604090206003015481906001600160a01b0316331480612cbd5750612cbd3382610d17565b612cfa5760405162461bcd60e51b815260206004820152600e60248201526d139bdd08185d5d1a1bdc9a5e995960921b6044820152606401610d8d565b60008281526002602052604090206001601082015460ff166007811115612d2357612d23613dd9565b1480612d4757506002601082015460ff166007811115612d4557612d45613dd9565b145b80612d6a57506003601082015460ff166007811115612d6857612d68613dd9565b145b612dad5760405162461bcd60e51b815260206004820152601460248201527353686f77206d7573742062652050656e64696e6760601b6044820152606401610d8d565b601001805460ff191660051790555050565b612dc76134d9565b6001600160a01b038116612df157604051631e4fbdf760e01b815260006004820152602401610d8d565b612c8b81613534565b601454600160a01b900460ff1615612e545760405162461bcd60e51b815260206004820152601e60248201527f50726f746f636f6c2061646472657373657320616c72656164792073657400006044820152606401610d8d565b600a80546001600160a01b039788166001600160a01b03199182168117909255600b805497891697821697909717909655601080548716909117905560118054948716948616949094179093556012805492861692851692909217909155601380549185169190931617909155601480546001600160a81b0319169190921617600160a01b179055565b60026020526000908152604090208054600182018054919291612f0090614726565b80601f0160208091040260200160405190810160405280929190818152602001828054612f2c90614726565b8015612f795780601f10612f4e57610100808354040283529160200191612f79565b820191906000526020600020905b815481529060010190602001808311612f5c57829003601f168201915b505050505090806002018054612f8e90614726565b80601f0160208091040260200160405190810160405280929190818152602001828054612fba90614726565b80156130075780601f10612fdc57610100808354040283529160200191613007565b820191906000526020600020905b815481529060010190602001808311612fea57829003601f168201915b5050505050908060030160009054906101000a90046001600160a01b031690806005016040518060a001604052908160008201805461304590614726565b80601f016020809104026020016040519081016040528092919081815260200182805461307190614726565b80156130be5780601f10613093576101008083540402835291602001916130be565b820191906000526020600020905b8154815290600101906020018083116130a157829003601f168201915b50505091835250506040805180820182526001840154815260028401546020828101919091528084019190915260038401548284015260048401546001600160a01b03166060840152600590930154608090920191909152600b8401548151808301909252600c8501548252600d85015492820192909252600e840154600f850154601086015460128701546013909701549596949593949293919260ff8083169361010090930416918d565b6000838152600260209081526040808320600690925282208054919261319083614760565b9091555050600084815260046020526040812080548492906131b3908490614694565b90915550506000848152600560209081526040808320338452909152812080548492906131e19084906146d4565b9091555050600084815260066020526040812054600e830154600f84015491929160649161320e916146bd565b6132189190614672565b9050808210801561324157506001601084015460ff16600781111561323f5761323f613dd9565b145b1561328e5760108301805460ff1916905560405186907f8ed894b6f384ca9c829b9aa5b056bc9106a90845a15616607e975d4ad488ee679061328590600090613ebd565b60405180910390a25b60008681526007602090815260408083208884529091528120556132b386338761382b565b6010546040516387f9ca5d60e01b815260048101879052600160248201523360448201526001600160a01b03909116906387f9ca5d90606401600060405180830381600087803b15801561330657600080fd5b505af115801561331a573d6000803e3d6000fd5b50505050505050505050565b306001600160a01b037f00000000000000000000000000000000000000000000000000000000000000001614806133ad57507f00000000000000000000000000000000000000000000000000000000000000006001600160a01b03166133a1600080516020614a96833981519152546001600160a01b031690565b6001600160a01b031614155b15611b815760405163703e46dd60e11b815260040160405180910390fd5b612c8b6134d9565b816001600160a01b03166352d1902d6040518163ffffffff1660e01b8152600401602060405180830381865afa92505050801561342d575060408051601f3d908101601f1916820190925261342a91810190614985565b60015b61345557604051634c9c8ce360e01b81526001600160a01b0383166004820152602401610d8d565b600080516020614a96833981519152811461348657604051632a87526960e21b815260048101829052602401610d8d565b61149d838361390a565b306001600160a01b037f00000000000000000000000000000000000000000000000000000000000000001614611b815760405163703e46dd60e11b815260040160405180910390fd5b3361350b7f9016d09d72d40fdae2fd8ceac6b6234c7706214fd39c1cd1e609a0528c199300546001600160a01b031690565b6001600160a01b031614611b815760405163118cdaa760e01b8152336004820152602401610d8d565b7f9016d09d72d40fdae2fd8ceac6b6234c7706214fd39c1cd1e609a0528c19930080546001600160a01b031981166001600160a01b03848116918217845560405192169182907f8be0079c531659141344cd1fd0a4f28419497f9722a3daafe3b4186f6b6457e090600090a3505050565b601354604051634092f2b760e01b81526001600160a01b0383811660048301526000928392911690634092f2b7906024015b600060405180830381865afa1580156135f4573d6000803e3d6000fd5b505050506040513d6000823e601f3d908101601f1916820160405261361c91908101906149eb565b6001600160a01b03908116951694909414949350505050565b601254604051632e52720160e21b81526001600160a01b038381166004830152600092839291169063b949c804906024016135d7565b6136768160026146d4565b8251146136f95760405162461bcd60e51b8152602060048201526044602482018190527f53706c6974206172726179206d75737420686176652061206c656e6774682065908201527f7175616c20746f20746865206e756d626572206f66206172746973747320706c6064820152633ab9901960e11b608482015260a401610d8d565b6000805b835181101561373f57838181518110613718576137186146a7565b60200260200101518261372b91906146d4565b915080613737816146e7565b9150506136fd565b508060641461149d5760405162461bcd60e51b815260206004820152602160248201527f53706c69742070657263656e7461676573206d7573742073756d20746f2031306044820152600360fc1b6064820152608401610d8d565b6137a2613960565b611b816139a9565b6137b2613960565b612c8b816139b1565b7f9b779b17422d0df92223018b32b4d1fa46e071723d6817e2486d003becc55f008054600119016137ff57604051633ee5aeb560e01b815260040160405180910390fd5b60029055565b60017f9b779b17422d0df92223018b32b4d1fa46e071723d6817e2486d003becc55f0055565b60008381526009602090815260408083206001600160a01b03861684529091528120905b8154811015613903578282828154811061386b5761386b6146a7565b9060005260206000200154036138f1578154829061388b90600190614694565b8154811061389b5761389b6146a7565b90600052602060002001548282815481106138b8576138b86146a7565b9060005260206000200181905550818054806138d6576138d6614a63565b60019003818190600052602060002001600090559055613903565b806138fb816146e7565b91505061384f565b5050505050565b613913826139b9565b6040516001600160a01b038316907fbc7cd75a20ee27fd9adebab32041f755214dbc6bffa90cc0225b39da2e5c2d3b90600090a28051156139585761149d8282613a1e565b611abf613a94565b7ff0c57e16840df040f15088dc2f81fe391c3923bec73e23a9662efc9c229c6a0054600160401b900460ff16611b8157604051631afcd79f60e31b815260040160405180910390fd5b613805613960565b612dc7613960565b806001600160a01b03163b6000036139ef57604051634c9c8ce360e01b81526001600160a01b0382166004820152602401610d8d565b600080516020614a9683398151915280546001600160a01b0319166001600160a01b0392909216919091179055565b6060600080846001600160a01b031684604051613a3b9190614a79565b600060405180830381855af49150503d8060008114613a76576040519150601f19603f3d011682016040523d82523d6000602084013e613a7b565b606091505b5091509150613a8b858383613ab3565b95945050505050565b3415611b815760405163b398979f60e01b815260040160405180910390fd5b606082613ac857613ac382613b0f565b611ca7565b8151158015613adf57506001600160a01b0384163b155b15613b0857604051639996b31560e01b81526001600160a01b0385166004820152602401610d8d565b5080611ca7565b805115613b1f5780518082602001fd5b604051630a12f52160e11b815260040160405180910390fd5b6040518060a0016040528060608152602001613b67604051806040016040528060008152602001600081525090565b81526000602082018190526040820181905260609091015290565b828054828255906000526020600020908101928215613bd7579160200282015b82811115613bd757825182546001600160a01b0319166001600160a01b03909116178255602090920191600190910190613ba2565b50613be3929150613c22565b5090565b828054828255906000526020600020908101928215613bd7579160200282015b82811115613bd7578251825591602001919060010190613c07565b5b80821115613be35760008155600101613c23565b6001600160a01b0381168114612c8b57600080fd5b60008060408385031215613c5f57600080fd5b8235613c6a81613c37565b946020939093013593505050565b60008060408385031215613c8b57600080fd5b82359150602083013560088110613ca157600080fd5b809150509250929050565b60008060408385031215613cbf57600080fd5b50508035926020909101359150565b600060208284031215613ce057600080fd5b5035919050565b60005b83811015613d02578181015183820152602001613cea565b50506000910152565b60008151808452613d23816020860160208601613ce7565b601f01601f19169290920160200192915050565b600081518084526020808501945080840160005b83811015613d705781516001600160a01b031687529582019590820190600101613d4b565b509495945050505050565b6000815160c08452613d9060c0850182613d0b565b905060208301518051602086015260208101516040860152506040830151606085015260018060a01b036060840151166080850152608083015160a08501528091505092915050565b634e487b7160e01b600052602160045260246000fd5b60088110613e0d57634e487b7160e01b600052602160045260246000fd5b9052565b6000610160808352613e258184018e613d0b565b90508281036020840152613e39818d613d0b565b6001600160a01b038c16604085015283810360608501529050613e5c818b613d37565b90508281036080840152613e70818a613d7b565b885160a0850152602089015160c08501529150613e8a9050565b8560e083015284610100830152613ea5610120830185613def565b8215156101408301529b9a5050505050505050505050565b60208101610d3e8284613def565b634e487b7160e01b600052604160045260246000fd5b60405160a0810167ffffffffffffffff81118282101715613f0457613f04613ecb565b60405290565b604051601f8201601f1916810167ffffffffffffffff81118282101715613f3357613f33613ecb565b604052919050565b600067ffffffffffffffff821115613f5557613f55613ecb565b50601f01601f191660200190565b6000613f76613f7184613f3b565b613f0a565b9050828152838383011115613f8a57600080fd5b828260208301376000602084830101529392505050565b60008060408385031215613fb457600080fd5b8235613fbf81613c37565b9150602083013567ffffffffffffffff811115613fdb57600080fd5b8301601f81018513613fec57600080fd5b613ffb85823560208401613f63565b9150509250929050565b6000806040838503121561401857600080fd5b823591506020830135613ca181613c37565b600081518084526020808501945080840160005b83811015613d705781518752958201959082019060010161403e565b602081526000611ca7602083018461402a565b60008060006060848603121561408257600080fd5b83359250602084013561409481613c37565b929592945050506040919091013590565b6000806000606084860312156140ba57600080fd5b83356140c581613c37565b95602085013595506040909401359392505050565b600082601f8301126140eb57600080fd5b611ca783833560208501613f63565b600067ffffffffffffffff82111561411457614114613ecb565b5060051b60200190565b600082601f83011261412f57600080fd5b8135602061413f613f71836140fa565b82815260059290921b8401810191818101908684111561415e57600080fd5b8286015b8481101561418257803561417581613c37565b8352918301918301614162565b509695505050505050565b60006040828403121561419f57600080fd5b6040516040810181811067ffffffffffffffff821117156141c2576141c2613ecb565b604052823581526020928301359281019290925250919050565b803560ff811681146141ed57600080fd5b919050565b600082601f83011261420357600080fd5b81356020614213613f71836140fa565b82815260059290921b8401810191818101908684111561423257600080fd5b8286015b848110156141825780358352918301918301614236565b60008060008060008060008060006101608a8c03121561426c57600080fd5b893567ffffffffffffffff8082111561428457600080fd5b6142908d838e016140da565b9a5060208c01359150808211156142a657600080fd5b6142b28d838e016140da565b995060408c01359150808211156142c857600080fd5b6142d48d838e0161411e565b98506142e38d60608e0161418d565b975060a08c013596506142f860c08d016141dc565b955060e08c0135945061430f8d6101008e0161418d565b93506101408c013591508082111561432657600080fd5b506143338c828d016141f2565b9150509295985092959850929598565b6000806040838503121561435657600080fd5b82359150602083013567ffffffffffffffff8082111561437557600080fd5b9084019060c0828703121561438957600080fd5b614391613ee1565b8235828111156143a057600080fd5b6143ac888286016140da565b8252506143bc876020850161418d565b602082015260608301356040820152608083013591506143db82613c37565b81606082015260a083013560808201528093505050509250929050565b602081526000611ca76020830184613d0b565b60008060006060848603121561442057600080fd5b505081359360208301359350604090920135919050565b60006020828403121561444957600080fd5b8135611ca781613c37565b815181526020808301519082015260408101610d3e565b60008060008060008060c0878903121561448457600080fd5b863561448f81613c37565b9550602087013561449f81613c37565b945060408701356144af81613c37565b935060608701356144bf81613c37565b925060808701356144cf81613c37565b915060a08701356144df81613c37565b809150509295509295509295565b8d81526101c0602082015260006145086101c083018f613d0b565b828103604084015261451a818f613d0b565b6001600160a01b038e1660608501528381036080850152905061453d818d613d7b565b9150508960a083015261455d60c083018a80518252602090810151910152565b8761010083015286610120830152614579610140830187613def565b8415156101608301526101808201939093526101a001529b9a5050505050505050505050565b60208082526048908201527f4f6e6c79207468652056656e75652c205469636b657420636f6e74726163742c60408201527f206f72207468697320636f6e74726163742063616e2063616c6c207468697320606082015267333ab731ba34b7b760c11b608082015260a00190565b6020808252602f908201527f4f6e6c7920746865205469636b657420636f6e74726163742063616e2063616c60408201526e36103a3434b990333ab731ba34b7b760891b606082015260800190565b634e487b7160e01b600052601160045260246000fd5b60008261468f57634e487b7160e01b600052601260045260246000fd5b500490565b81810381811115610d3e57610d3e61465c565b634e487b7160e01b600052603260045260246000fd5b8082028115828204841417610d3e57610d3e61465c565b80820180821115610d3e57610d3e61465c565b6000600182016146f9576146f961465c565b5060010190565b6001600160a01b0394909416845260208401929092526040830152606082015260800190565b600181811c9082168061473a57607f821691505b60208210810361475a57634e487b7160e01b600052602260045260246000fd5b50919050565b60008161476f5761476f61465c565b506000190190565b6bffffffffffffffffffffffff198860601b16815260006014820188516020808b0160005b838110156147c15781516001600160a01b03168552938201939082019060010161479c565b5050988252509687019590955250604085019290925260f81b6001600160f81b031916606084015260618301525060810192915050565b601f82111561149d57600081815260208120601f850160051c8101602086101561481f5750805b601f850160051c820191505b818110156127a55782815560010161482b565b815167ffffffffffffffff81111561485857614858613ecb565b61486c816148668454614726565b846147f8565b602080601f8311600181146148a157600084156148895750858301515b600019600386901b1c1916600185901b1785556127a5565b600085815260208120601f198616915b828110156148d0578886015182559484019460019091019084016148b1565b50858210156148ee5787850151600019600388901b60f8161c191681555b5050505050600190811b01905550565b60e08152600061491160e0830189613d0b565b82810360208401526149238189613d37565b905082810360408401526149378188613d0b565b8651606085015260208701516080850152905060ff851660a084015282810360c0840152614965818561402a565b9998505050505050505050565b602081526000611ca76020830184613d7b565b60006020828403121561499757600080fd5b5051919050565b600082601f8301126149af57600080fd5b81516149bd613f7182613f3b565b8181528460208386010111156149d257600080fd5b6149e3826020830160208701613ce7565b949350505050565b600080600060608486031215614a0057600080fd5b835167ffffffffffffffff80821115614a1857600080fd5b614a248783880161499e565b94506020860151915080821115614a3a57600080fd5b50614a478682870161499e565b9250506040840151614a5881613c37565b809150509250925092565b634e487b7160e01b600052603160045260246000fd5b60008251614a8b818460208701613ce7565b919091019291505056fe360894a13ba1a3210667c828492db98dca3e2076cc3735a920a3ca505d382bbca2646970667358221220316a1510c14175239ee3d52ad8135269db1ebb346cd94ccd0af53625af99c67964736f6c63430008140033","linkReferences":{}},"methodIdentifiers":{"SELLOUT_PROTOCOL_WALLET()":"e30228be","UPGRADE_INTERFACE_VERSION()":"ad3cb1cc","activeShowCount()":"16488906","addTokenIdToWallet(bytes32,address,uint256)":"de44006f","artistRegistryContract()":"41adf3ad","artistRegistryInstance()":"8dea15a1","cancelShow(bytes32)":"ef5023a5","checkAndUpdateExpiry(bytes32)":"4365c06e","checkAndUpdateShowStatus(bytes32)":"24f7827e","completeShow(bytes32)":"129e086b","depositToVault(bytes32)":"85266635","getNumberOfVoters(bytes32)":"85ffa16c","getOrganizer(bytes32)":"977cb89e","getPendingRefund(bytes32,address)":"6e9cacd0","getSellOutThreshold(bytes32)":"1a348e62","getShowById(bytes32)":"27b1bf52","getShowStatus(bytes32)":"46c2c8a7","getTicketPrice(bytes32)":"c73a839c","getTicketPricePaid(bytes32,uint256)":"93d4e100","getTotalCapacity(bytes32)":"620ec1e4","getTotalTicketsSold(bytes32)":"61041870","getWalletTokenIds(bytes32,address)":"5b9a1e09","hasTicket(address,bytes32)":"5c37da69","initialize(address)":"c4d66de8","isArtist(address,bytes32)":"02c9a8b5","isArtistMapping(bytes32,address)":"bafd4eb0","isOrganizer(address,bytes32)":"4ed372da","isTicketOwner(address,bytes32,uint256)":"a03f4efe","organizerRegistryContract()":"66bc64cd","organizerRegistryInstance()":"1cf2103e","owner()":"8da5cb5b","payout(bytes32)":"cfefb3d5","pendingWithdrawals(bytes32,address)":"be44d38d","proposeShow(string,string,address[],(int256,int256),uint256,uint8,uint256,(uint256,uint256),uint256[])":"a2c8624c","proxiableUUID()":"52d1902d","referralContract()":"7dad19db","referralInstance()":"c6ab848a","refundTicket(bytes32,uint256)":"3c60d2d6","renounceOwnership()":"715018a6","setProtocolAddresses(address,address,address,address,address,address)":"f8121873","setTicketPricePaid(bytes32,uint256,uint256)":"bd47dc5c","setTotalTicketsSold(bytes32,uint256)":"787d76b8","showVault(bytes32)":"867e68af","shows(bytes32)":"fca46559","ticketContract()":"58a86e1d","ticketInstance()":"0233ce6a","ticketOwnership(address,bytes32)":"46079335","ticketPricePaid(bytes32,uint256)":"2f18ddfe","totalTicketsSold(bytes32)":"925e8f89","transferOwnership(address)":"f2fde38b","updateExpiry(bytes32,uint256)":"0d08c3c9","updateStatus(bytes32,uint8)":"054372ed","updateVenue(bytes32,(string,(int256,int256),uint256,address,bytes32))":"a38311ff","upgradeToAndCall(address,bytes)":"4f1ef286","venueContract()":"51819335","venueRegistryContract()":"31a68da0","venueRegistryInstance()":"703ee4e5","walletToShowToTokenIds(bytes32,address,uint256)":"7d8d6a22","withdrawRefund(bytes32)":"e9acfa7c"},"id":57}