{"abi":[{"type":"function","name":"SELLOUT_PROTOCOL_WALLET","inputs":[],"outputs":[{"name":"","type":"address","internalType":"address"}],"stateMutability":"view"},{"type":"function","name":"UPGRADE_INTERFACE_VERSION","inputs":[],"outputs":[{"name":"","type":"string","internalType":"string"}],"stateMutability":"view"},{"type":"function","name":"activeShowCount","inputs":[],"outputs":[{"name":"","type":"uint256","internalType":"uint256"}],"stateMutability":"view"},{"type":"function","name":"addTokenIdToWallet","inputs":[{"name":"showId","type":"bytes32","internalType":"bytes32"},{"name":"wallet","type":"address","internalType":"address"},{"name":"tokenId","type":"uint256","internalType":"uint256"}],"outputs":[],"stateMutability":"nonpayable"},{"type":"function","name":"artistRegistryContract","inputs":[],"outputs":[{"name":"","type":"address","internalType":"address"}],"stateMutability":"view"},{"type":"function","name":"artistRegistryInstance","inputs":[],"outputs":[{"name":"","type":"address","internalType":"contract IArtistRegistry"}],"stateMutability":"view"},{"type":"function","name":"cancelShow","inputs":[{"name":"showId","type":"bytes32","internalType":"bytes32"}],"outputs":[],"stateMutability":"nonpayable"},{"type":"function","name":"checkAndUpdateExpiry","inputs":[{"name":"showId","type":"bytes32","internalType":"bytes32"}],"outputs":[],"stateMutability":"nonpayable"},{"type":"function","name":"completeShow","inputs":[{"name":"showId","type":"bytes32","internalType":"bytes32"}],"outputs":[],"stateMutability":"nonpayable"},{"type":"function","name":"depositToVault","inputs":[{"name":"showId","type":"bytes32","internalType":"bytes32"}],"outputs":[],"stateMutability":"payable"},{"type":"function","name":"getNumberOfVoters","inputs":[{"name":"showId","type":"bytes32","internalType":"bytes32"}],"outputs":[{"name":"","type":"uint256","internalType":"uint256"}],"stateMutability":"view"},{"type":"function","name":"getOrganizer","inputs":[{"name":"showId","type":"bytes32","internalType":"bytes32"}],"outputs":[{"name":"","type":"address","internalType":"address"}],"stateMutability":"view"},{"type":"function","name":"getSellOutThreshold","inputs":[{"name":"showId","type":"bytes32","internalType":"bytes32"}],"outputs":[{"name":"","type":"uint256","internalType":"uint256"}],"stateMutability":"view"},{"type":"function","name":"getShowById","inputs":[{"name":"showId","type":"bytes32","internalType":"bytes32"}],"outputs":[{"name":"name","type":"string","internalType":"string"},{"name":"description","type":"string","internalType":"string"},{"name":"organizer","type":"address","internalType":"address"},{"name":"artists","type":"address[]","internalType":"address[]"},{"name":"venue","type":"tuple","internalType":"struct VenueTypes.Venue","components":[{"name":"name","type":"string","internalType":"string"},{"name":"coordinates","type":"tuple","internalType":"struct VenueTypes.Coordinates","components":[{"name":"lat","type":"int256","internalType":"int256"},{"name":"lon","type":"int256","internalType":"int256"}]},{"name":"totalCapacity","type":"uint256","internalType":"uint256"},{"name":"wallet","type":"address","internalType":"address"}]},{"name":"ticketPrice","type":"tuple","internalType":"struct ShowTypes.TicketPrice","components":[{"name":"minPrice","type":"uint256","internalType":"uint256"},{"name":"maxPrice","type":"uint256","internalType":"uint256"}]},{"name":"sellOutThreshold","type":"uint256","internalType":"uint256"},{"name":"totalCapacity","type":"uint256","internalType":"uint256"},{"name":"status","type":"uint8","internalType":"enum ShowTypes.Status"},{"name":"isActive","type":"bool","internalType":"bool"}],"stateMutability":"view"},{"type":"function","name":"getShowStatus","inputs":[{"name":"showId","type":"bytes32","internalType":"bytes32"}],"outputs":[{"name":"","type":"uint8","internalType":"enum ShowTypes.Status"}],"stateMutability":"view"},{"type":"function","name":"getTicketPrice","inputs":[{"name":"showId","type":"bytes32","internalType":"bytes32"}],"outputs":[{"name":"","type":"tuple","internalType":"struct ShowTypes.TicketPrice","components":[{"name":"minPrice","type":"uint256","internalType":"uint256"},{"name":"maxPrice","type":"uint256","internalType":"uint256"}]}],"stateMutability":"view"},{"type":"function","name":"getTicketPricePaid","inputs":[{"name":"showId","type":"bytes32","internalType":"bytes32"},{"name":"ticketId","type":"uint256","internalType":"uint256"}],"outputs":[{"name":"","type":"uint256","internalType":"uint256"}],"stateMutability":"view"},{"type":"function","name":"getTotalCapacity","inputs":[{"name":"showId","type":"bytes32","internalType":"bytes32"}],"outputs":[{"name":"","type":"uint256","internalType":"uint256"}],"stateMutability":"view"},{"type":"function","name":"getTotalTicketsSold","inputs":[{"name":"showId","type":"bytes32","internalType":"bytes32"}],"outputs":[{"name":"","type":"uint256","internalType":"uint256"}],"stateMutability":"view"},{"type":"function","name":"getWalletTokenIds","inputs":[{"name":"showId","type":"bytes32","internalType":"bytes32"},{"name":"wallet","type":"address","internalType":"address"}],"outputs":[{"name":"","type":"uint256[]","internalType":"uint256[]"}],"stateMutability":"view"},{"type":"function","name":"initialize","inputs":[{"name":"_selloutProtocolWallet","type":"address","internalType":"address"}],"outputs":[],"stateMutability":"nonpayable"},{"type":"function","name":"isArtist","inputs":[{"name":"user","type":"address","internalType":"address"},{"name":"showId","type":"bytes32","internalType":"bytes32"}],"outputs":[{"name":"","type":"bool","internalType":"bool"}],"stateMutability":"view"},{"type":"function","name":"isArtistMapping","inputs":[{"name":"","type":"bytes32","internalType":"bytes32"},{"name":"","type":"address","internalType":"address"}],"outputs":[{"name":"","type":"bool","internalType":"bool"}],"stateMutability":"view"},{"type":"function","name":"isOrganizer","inputs":[{"name":"user","type":"address","internalType":"address"},{"name":"showId","type":"bytes32","internalType":"bytes32"}],"outputs":[{"name":"","type":"bool","internalType":"bool"}],"stateMutability":"view"},{"type":"function","name":"isTicketOwner","inputs":[{"name":"owner","type":"address","internalType":"address"},{"name":"showId","type":"bytes32","internalType":"bytes32"}],"outputs":[{"name":"","type":"bool","internalType":"bool"}],"stateMutability":"view"},{"type":"function","name":"organizerRegistryContract","inputs":[],"outputs":[{"name":"","type":"address","internalType":"address"}],"stateMutability":"view"},{"type":"function","name":"organizerRegistryInstance","inputs":[],"outputs":[{"name":"","type":"address","internalType":"contract IOrganizerRegistry"}],"stateMutability":"view"},{"type":"function","name":"owner","inputs":[],"outputs":[{"name":"","type":"address","internalType":"address"}],"stateMutability":"view"},{"type":"function","name":"payout","inputs":[{"name":"showId","type":"bytes32","internalType":"bytes32"}],"outputs":[],"stateMutability":"nonpayable"},{"type":"function","name":"pendingWithdrawals","inputs":[{"name":"","type":"bytes32","internalType":"bytes32"},{"name":"","type":"address","internalType":"address"}],"outputs":[{"name":"","type":"uint256","internalType":"uint256"}],"stateMutability":"view"},{"type":"function","name":"proposeShow","inputs":[{"name":"name","type":"string","internalType":"string"},{"name":"description","type":"string","internalType":"string"},{"name":"artists","type":"address[]","internalType":"address[]"},{"name":"coordinates","type":"tuple","internalType":"struct VenueTypes.Coordinates","components":[{"name":"lat","type":"int256","internalType":"int256"},{"name":"lon","type":"int256","internalType":"int256"}]},{"name":"radius","type":"uint256","internalType":"uint256"},{"name":"sellOutThreshold","type":"uint8","internalType":"uint8"},{"name":"totalCapacity","type":"uint256","internalType":"uint256"},{"name":"ticketPrice","type":"tuple","internalType":"struct ShowTypes.TicketPrice","components":[{"name":"minPrice","type":"uint256","internalType":"uint256"},{"name":"maxPrice","type":"uint256","internalType":"uint256"}]},{"name":"split","type":"uint256[]","internalType":"uint256[]"}],"outputs":[{"name":"showId","type":"bytes32","internalType":"bytes32"}],"stateMutability":"nonpayable"},{"type":"function","name":"proxiableUUID","inputs":[],"outputs":[{"name":"","type":"bytes32","internalType":"bytes32"}],"stateMutability":"view"},{"type":"function","name":"referralContract","inputs":[],"outputs":[{"name":"","type":"address","internalType":"address"}],"stateMutability":"view"},{"type":"function","name":"referralInstance","inputs":[],"outputs":[{"name":"","type":"address","internalType":"contract ReferralModule"}],"stateMutability":"view"},{"type":"function","name":"refundTicket","inputs":[{"name":"showId","type":"bytes32","internalType":"bytes32"},{"name":"ticketId","type":"uint256","internalType":"uint256"}],"outputs":[],"stateMutability":"nonpayable"},{"type":"function","name":"renounceOwnership","inputs":[],"outputs":[],"stateMutability":"nonpayable"},{"type":"function","name":"setProtocolAddresses","inputs":[{"name":"_ticketContract","type":"address","internalType":"address"},{"name":"_venueContract","type":"address","internalType":"address"},{"name":"_referralContract","type":"address","internalType":"address"},{"name":"_artistRegistryContract","type":"address","internalType":"address"},{"name":"_organizerRegistryContract","type":"address","internalType":"address"},{"name":"_venueRegistryContract","type":"address","internalType":"address"}],"outputs":[],"stateMutability":"nonpayable"},{"type":"function","name":"setTicketOwnership","inputs":[{"name":"user","type":"address","internalType":"address"},{"name":"showId","type":"bytes32","internalType":"bytes32"},{"name":"owns","type":"bool","internalType":"bool"}],"outputs":[],"stateMutability":"nonpayable"},{"type":"function","name":"setTicketPricePaid","inputs":[{"name":"showId","type":"bytes32","internalType":"bytes32"},{"name":"ticketId","type":"uint256","internalType":"uint256"},{"name":"price","type":"uint256","internalType":"uint256"}],"outputs":[],"stateMutability":"nonpayable"},{"type":"function","name":"showVault","inputs":[{"name":"","type":"bytes32","internalType":"bytes32"}],"outputs":[{"name":"","type":"uint256","internalType":"uint256"}],"stateMutability":"view"},{"type":"function","name":"shows","inputs":[{"name":"","type":"bytes32","internalType":"bytes32"}],"outputs":[{"name":"showId","type":"bytes32","internalType":"bytes32"},{"name":"name","type":"string","internalType":"string"},{"name":"description","type":"string","internalType":"string"},{"name":"organizer","type":"address","internalType":"address"},{"name":"venue","type":"tuple","internalType":"struct VenueTypes.Venue","components":[{"name":"name","type":"string","internalType":"string"},{"name":"coordinates","type":"tuple","internalType":"struct VenueTypes.Coordinates","components":[{"name":"lat","type":"int256","internalType":"int256"},{"name":"lon","type":"int256","internalType":"int256"}]},{"name":"totalCapacity","type":"uint256","internalType":"uint256"},{"name":"wallet","type":"address","internalType":"address"}]},{"name":"radius","type":"uint256","internalType":"uint256"},{"name":"ticketPrice","type":"tuple","internalType":"struct ShowTypes.TicketPrice","components":[{"name":"minPrice","type":"uint256","internalType":"uint256"},{"name":"maxPrice","type":"uint256","internalType":"uint256"}]},{"name":"sellOutThreshold","type":"uint256","internalType":"uint256"},{"name":"totalCapacity","type":"uint256","internalType":"uint256"},{"name":"status","type":"uint8","internalType":"enum ShowTypes.Status"},{"name":"isActive","type":"bool","internalType":"bool"},{"name":"expiry","type":"uint256","internalType":"uint256"},{"name":"showDate","type":"uint256","internalType":"uint256"}],"stateMutability":"view"},{"type":"function","name":"ticketContract","inputs":[],"outputs":[{"name":"","type":"address","internalType":"address"}],"stateMutability":"view"},{"type":"function","name":"ticketInstance","inputs":[],"outputs":[{"name":"","type":"address","internalType":"contract Ticket"}],"stateMutability":"view"},{"type":"function","name":"ticketOwnership","inputs":[{"name":"","type":"address","internalType":"address"},{"name":"","type":"bytes32","internalType":"bytes32"}],"outputs":[{"name":"","type":"bool","internalType":"bool"}],"stateMutability":"view"},{"type":"function","name":"ticketPricePaid","inputs":[{"name":"","type":"bytes32","internalType":"bytes32"},{"name":"","type":"uint256","internalType":"uint256"}],"outputs":[{"name":"","type":"uint256","internalType":"uint256"}],"stateMutability":"view"},{"type":"function","name":"totalTicketsSold","inputs":[{"name":"","type":"bytes32","internalType":"bytes32"}],"outputs":[{"name":"","type":"uint256","internalType":"uint256"}],"stateMutability":"view"},{"type":"function","name":"transferOwnership","inputs":[{"name":"newOwner","type":"address","internalType":"address"}],"outputs":[],"stateMutability":"nonpayable"},{"type":"function","name":"updateExpiry","inputs":[{"name":"showId","type":"bytes32","internalType":"bytes32"},{"name":"expiry","type":"uint256","internalType":"uint256"}],"outputs":[],"stateMutability":"nonpayable"},{"type":"function","name":"updateStatus","inputs":[{"name":"showId","type":"bytes32","internalType":"bytes32"},{"name":"_status","type":"uint8","internalType":"enum ShowTypes.Status"}],"outputs":[],"stateMutability":"nonpayable"},{"type":"function","name":"updateVenue","inputs":[{"name":"showId","type":"bytes32","internalType":"bytes32"},{"name":"newVenue","type":"tuple","internalType":"struct VenueTypes.Venue","components":[{"name":"name","type":"string","internalType":"string"},{"name":"coordinates","type":"tuple","internalType":"struct VenueTypes.Coordinates","components":[{"name":"lat","type":"int256","internalType":"int256"},{"name":"lon","type":"int256","internalType":"int256"}]},{"name":"totalCapacity","type":"uint256","internalType":"uint256"},{"name":"wallet","type":"address","internalType":"address"}]}],"outputs":[],"stateMutability":"nonpayable"},{"type":"function","name":"upgradeToAndCall","inputs":[{"name":"newImplementation","type":"address","internalType":"address"},{"name":"data","type":"bytes","internalType":"bytes"}],"outputs":[],"stateMutability":"payable"},{"type":"function","name":"venueContract","inputs":[],"outputs":[{"name":"","type":"address","internalType":"address"}],"stateMutability":"view"},{"type":"function","name":"venueRegistryContract","inputs":[],"outputs":[{"name":"","type":"address","internalType":"address"}],"stateMutability":"view"},{"type":"function","name":"venueRegistryInstance","inputs":[],"outputs":[{"name":"","type":"address","internalType":"contract IVenueRegistry"}],"stateMutability":"view"},{"type":"function","name":"walletToShowToTokenIds","inputs":[{"name":"","type":"bytes32","internalType":"bytes32"},{"name":"","type":"address","internalType":"address"},{"name":"","type":"uint256","internalType":"uint256"}],"outputs":[{"name":"","type":"uint256","internalType":"uint256"}],"stateMutability":"view"},{"type":"function","name":"withdrawRefund","inputs":[{"name":"showId","type":"bytes32","internalType":"bytes32"}],"outputs":[],"stateMutability":"nonpayable"},{"type":"event","name":"ExpiryUpdated","inputs":[{"name":"showId","type":"bytes32","indexed":true,"internalType":"bytes32"},{"name":"expiry","type":"uint256","indexed":false,"internalType":"uint256"}],"anonymous":false},{"type":"event","name":"Initialized","inputs":[{"name":"version","type":"uint64","indexed":false,"internalType":"uint64"}],"anonymous":false},{"type":"event","name":"OwnershipTransferred","inputs":[{"name":"previousOwner","type":"address","indexed":true,"internalType":"address"},{"name":"newOwner","type":"address","indexed":true,"internalType":"address"}],"anonymous":false},{"type":"event","name":"RefundWithdrawn","inputs":[{"name":"user","type":"address","indexed":true,"internalType":"address"},{"name":"showId","type":"bytes32","indexed":true,"internalType":"bytes32"},{"name":"amount","type":"uint256","indexed":false,"internalType":"uint256"}],"anonymous":false},{"type":"event","name":"ShowExpired","inputs":[{"name":"showId","type":"bytes32","indexed":true,"internalType":"bytes32"}],"anonymous":false},{"type":"event","name":"ShowProposed","inputs":[{"name":"showId","type":"bytes32","indexed":true,"internalType":"bytes32"},{"name":"organizer","type":"address","indexed":true,"internalType":"address"},{"name":"name","type":"string","indexed":false,"internalType":"string"},{"name":"artists","type":"address[]","indexed":false,"internalType":"address[]"},{"name":"description","type":"string","indexed":false,"internalType":"string"},{"name":"ticketPrice","type":"tuple","indexed":false,"internalType":"struct ShowTypes.TicketPrice","components":[{"name":"minPrice","type":"uint256","internalType":"uint256"},{"name":"maxPrice","type":"uint256","internalType":"uint256"}]},{"name":"sellOutThreshold","type":"uint256","indexed":false,"internalType":"uint256"},{"name":"split","type":"uint256[]","indexed":false,"internalType":"uint256[]"}],"anonymous":false},{"type":"event","name":"StatusUpdated","inputs":[{"name":"showId","type":"bytes32","indexed":true,"internalType":"bytes32"},{"name":"status","type":"uint8","indexed":false,"internalType":"enum ShowTypes.Status"}],"anonymous":false},{"type":"event","name":"TicketRefunded","inputs":[{"name":"user","type":"address","indexed":true,"internalType":"address"},{"name":"showId","type":"bytes32","indexed":true,"internalType":"bytes32"},{"name":"refundAmount","type":"uint256","indexed":false,"internalType":"uint256"}],"anonymous":false},{"type":"event","name":"Upgraded","inputs":[{"name":"implementation","type":"address","indexed":true,"internalType":"address"}],"anonymous":false},{"type":"event","name":"VenueUpdated","inputs":[{"name":"showId","type":"bytes32","indexed":true,"internalType":"bytes32"},{"name":"newVenue","type":"tuple","indexed":false,"internalType":"struct VenueTypes.Venue","components":[{"name":"name","type":"string","internalType":"string"},{"name":"coordinates","type":"tuple","internalType":"struct VenueTypes.Coordinates","components":[{"name":"lat","type":"int256","internalType":"int256"},{"name":"lon","type":"int256","internalType":"int256"}]},{"name":"totalCapacity","type":"uint256","internalType":"uint256"},{"name":"wallet","type":"address","internalType":"address"}]}],"anonymous":false},{"type":"event","name":"Withdrawal","inputs":[{"name":"showId","type":"bytes32","indexed":true,"internalType":"bytes32"},{"name":"recipient","type":"address","indexed":true,"internalType":"address"},{"name":"amount","type":"uint256","indexed":false,"internalType":"uint256"}],"anonymous":false},{"type":"error","name":"AddressEmptyCode","inputs":[{"name":"target","type":"address","internalType":"address"}]},{"type":"error","name":"ERC1967InvalidImplementation","inputs":[{"name":"implementation","type":"address","internalType":"address"}]},{"type":"error","name":"ERC1967NonPayable","inputs":[]},{"type":"error","name":"FailedInnerCall","inputs":[]},{"type":"error","name":"InvalidInitialization","inputs":[]},{"type":"error","name":"NotInitializing","inputs":[]},{"type":"error","name":"OwnableInvalidOwner","inputs":[{"name":"owner","type":"address","internalType":"address"}]},{"type":"error","name":"OwnableUnauthorizedAccount","inputs":[{"name":"account","type":"address","internalType":"address"}]},{"type":"error","name":"ReentrancyGuardReentrantCall","inputs":[]},{"type":"error","name":"UUPSUnauthorizedCallContext","inputs":[]},{"type":"error","name":"UUPSUnsupportedProxiableUUID","inputs":[{"name":"slot","type":"bytes32","internalType":"bytes32"}]}],"bytecode":{"object":"0x60a0604052306080526014805460ff60a01b1916905534801561002157600080fd5b5060805161470f61004b600039600081816130590152818161308201526131c8015261470f6000f3fe60806040526004361061036b5760003560e01c80637dad19db116101c6578063bd47dc5c116100f7578063de44006f11610095578063ef5023a51161006f578063ef5023a514610bdc578063f2fde38b14610bfc578063f812187314610c1c578063fca4655914610c3c57600080fd5b8063de44006f14610b7c578063e30228be14610b9c578063e9acfa7c14610bbc57600080fd5b8063c56f70fd116100d1578063c56f70fd14610ab3578063c6ab848a14610ad3578063c73a839c14610af3578063cfefb3d514610b5c57600080fd5b8063bd47dc5c14610a3b578063be44d38d14610a5b578063c4d66de814610a9357600080fd5b80638e5298a511610164578063977cb89e1161013e578063977cb89e14610969578063a2c8624c146109a2578063ad3cb1cc146109c2578063bafd4eb014610a0057600080fd5b80638e5298a5146108e4578063925e8f891461090457806393d4e1001461093157600080fd5b8063867e68af116101a0578063867e68af146108145780638d700eaf146108415780638da5cb5b146108875780638dea15a1146108c457600080fd5b80637dad19db146107c157806385266635146107e157806385ffa16c146107f457600080fd5b806346079335116102a05780635b9a1e091161023e57806366bc64cd1161021857806366bc64cd1461074c578063703ee4e51461076c578063715018a61461078c5780637d8d6a22146107a157600080fd5b80635b9a1e09146106c257806361041870146106ef578063620ec1e41461071c57600080fd5b80634f1ef2861161027a5780634f1ef2861461065a578063518193351461066d57806352d1902d1461068d57806358a86e1d146106a257600080fd5b806346079335146105a157806346c2c8a7146105dc5780634ed372da1461061c57600080fd5b80631cf2103e1161030d57806331a68da0116102e757806331a68da0146105215780633c60d2d61461054157806341adf3ad146105615780634365c06e1461058157600080fd5b80631cf2103e1461049357806327b1bf52146104b35780632f18ddfe146104e957600080fd5b80630d08c3c9116103495780630d08c3c9146103ff578063129e086b1461041f578063164889061461043f5780631a348e621461046357600080fd5b80630233ce6a1461037057806302c9a8b5146103ad578063054372ed146103dd575b600080fd5b34801561037c57600080fd5b50601054610390906001600160a01b031681565b6040516001600160a01b0390911681526020015b60405180910390f35b3480156103b957600080fd5b506103cd6103c8366004613893565b610c75565b60405190151581526020016103a4565b3480156103e957600080fd5b506103fd6103f83660046138bf565b610ca2565b005b34801561040b57600080fd5b506103fd61041a3660046138f3565b610d63565b34801561042b57600080fd5b506103fd61043a366004613915565b610e48565b34801561044b57600080fd5b5061045560015481565b6040519081526020016103a4565b34801561046f57600080fd5b5061045561047e366004613915565b6000908152600260205260409020600d015490565b34801561049f57600080fd5b50601354610390906001600160a01b031681565b3480156104bf57600080fd5b506104d36104ce366004613915565b611341565b6040516103a49a99989796959493929190613a4e565b3480156104f557600080fd5b506104556105043660046138f3565b600760209081526000928352604080842090915290825290205481565b34801561052d57600080fd5b50600f54610390906001600160a01b031681565b34801561054d57600080fd5b506103fd61055c3660046138f3565b61167e565b34801561056d57600080fd5b50600d54610390906001600160a01b031681565b34801561058d57600080fd5b506103fd61059c366004613915565b611acc565b3480156105ad57600080fd5b506103cd6105bc366004613893565b600860209081526000928352604080842090915290825290205460ff1681565b3480156105e857600080fd5b5061060f6105f7366004613915565b6000908152600260205260409020600f015460ff1690565b6040516103a49190613afa565b34801561062857600080fd5b506103cd610637366004613893565b6000908152600260205260409020600301546001600160a01b0391821691161490565b6103fd610668366004613bde565b611b8a565b34801561067957600080fd5b50600b54610390906001600160a01b031681565b34801561069957600080fd5b50610455611ba5565b3480156106ae57600080fd5b50600a54610390906001600160a01b031681565b3480156106ce57600080fd5b506106e26106dd366004613c42565b611bc2565b6040516103a49190613c97565b3480156106fb57600080fd5b5061045561070a366004613915565b60009081526006602052604090205490565b34801561072857600080fd5b50610455610737366004613915565b6000908152600260205260409020600e015490565b34801561075857600080fd5b50600e54610390906001600160a01b031681565b34801561077857600080fd5b50601454610390906001600160a01b031681565b34801561079857600080fd5b506103fd611c36565b3480156107ad57600080fd5b506104556107bc366004613caa565b611c4a565b3480156107cd57600080fd5b50600c54610390906001600160a01b031681565b6103fd6107ef366004613915565b611c88565b34801561080057600080fd5b5061045561080f366004613915565b611cf7565b34801561082057600080fd5b5061045561082f366004613915565b60046020526000908152604090205481565b34801561084d57600080fd5b506103cd61085c366004613893565b6001600160a01b03919091166000908152600860209081526040808320938352929052205460ff1690565b34801561089357600080fd5b507f9016d09d72d40fdae2fd8ceac6b6234c7706214fd39c1cd1e609a0528c199300546001600160a01b0316610390565b3480156108d057600080fd5b50601254610390906001600160a01b031681565b3480156108f057600080fd5b506103fd6108ff366004613ce2565b611d1b565b34801561091057600080fd5b5061045561091f366004613915565b60066020526000908152604090205481565b34801561093d57600080fd5b5061045561094c3660046138f3565b600091825260076020908152604080842092845291905290205490565b34801561097557600080fd5b50610390610984366004613915565b6000908152600260205260409020600301546001600160a01b031690565b3480156109ae57600080fd5b506104556109bd366004613e9c565b611d7a565b3480156109ce57600080fd5b506109f3604051806040016040528060058152602001640352e302e360dc1b81525081565b6040516103a49190613f92565b348015610a0c57600080fd5b506103cd610a1b366004613c42565b600360209081526000928352604080842090915290825290205460ff1681565b348015610a4757600080fd5b506103fd610a56366004613fa5565b61254f565b348015610a6757600080fd5b50610455610a76366004613c42565b600560209081526000928352604080842090915290825290205481565b348015610a9f57600080fd5b506103fd610aae366004613fd1565b612595565b348015610abf57600080fd5b506103fd610ace366004613fee565b6126c8565b348015610adf57600080fd5b50601154610390906001600160a01b031681565b348015610aff57600080fd5b50610b4f610b0e366004613915565b6040805180820190915260008082526020820152506000908152600260209081526040918290208251808401909352600b8101548352600c01549082015290565b6040516103a49190614099565b348015610b6857600080fd5b506103fd610b77366004613915565b61279a565b348015610b8857600080fd5b506103fd610b97366004613caa565b6129ae565b348015610ba857600080fd5b50601554610390906001600160a01b031681565b348015610bc857600080fd5b506103fd610bd7366004613915565b612a0f565b348015610be857600080fd5b506103fd610bf7366004613915565b612b7b565b348015610c0857600080fd5b506103fd610c17366004613fd1565b612cac565b348015610c2857600080fd5b506103fd610c373660046140b0565b612ce7565b348015610c4857600080fd5b50610c5c610c57366004613915565b612dcb565b6040516103a49d9c9b9a99989796959493929190614132565b60008181526003602090815260408083206001600160a01b038616845290915290205460ff165b92915050565b600b546001600160a01b0316331480610cc55750600a546001600160a01b031633145b80610ccf57503330145b610cf45760405162461bcd60e51b8152600401610ceb906141e4565b60405180910390fd5b6000828152600260205260409020600f01805482919060ff19166001836007811115610d2257610d22613a16565b0217905550817f8ed894b6f384ca9c829b9aa5b056bc9106a90845a15616607e975d4ad488ee6782604051610d579190613afa565b60405180910390a25050565b600a546001600160a01b03163314610d8d5760405162461bcd60e51b8152600401610ceb90614252565b6000828152600260205260408120600f015460ff166007811115610db357610db3613a16565b14610e005760405162461bcd60e51b815260206004820152601f60248201527f53686f77206d75737420626520696e2050726f706f73656420737461747573006044820152606401610ceb565b600082815260026020526040908190206011018290555182907fe4f26fcd7ae101f4d7c47cac6fc616fbb05e9b41e67b7a00b67b35f13654fce090610d579084815260200190565b600a546001600160a01b03163314610e725760405162461bcd60e51b8152600401610ceb90614252565b600081815260026020819052604090912090600f82015460ff166007811115610e9d57610e9d613a16565b14610ee25760405162461bcd60e51b815260206004820152601560248201527414da1bddc81b5d5cdd081899481058d8d95c1d1959605a1b6044820152606401610ceb565b60008281526004602052604090205480610f375760405162461bcd60e51b81526020600482015260166024820152754e6f2066756e647320746f206469737472696275746560501b6044820152606401610ceb565b600082601001805480602002602001604051908101604052809291908181526020018280548015610f8757602002820191906000526020600020905b815481526020019060010190808311610f73575b505050505090506000606483610f9d91906142b7565b60008681526005602090815260408083206015546001600160a01b0316845290915290208190559050610fd081846142d9565b92506000606483600081518110610fe957610fe96142ec565b602002602001015185610ffc9190614302565b61100691906142b7565b600087815260056020908152604080832060038a01546001600160a01b0316845290915281208290559091505b60048601548110156110e157600060648561104f846001614319565b8151811061105f5761105f6142ec565b6020026020010151876110729190614302565b61107c91906142b7565b905080600560008a815260200190815260200160002060008960040185815481106110a9576110a96142ec565b60009182526020808320909101546001600160a01b0316835282019290925260400190205550806110d98161432c565b915050611033565b506000606484600186516110f591906142d9565b81518110611105576111056142ec565b6020026020010151866111189190614302565b61112291906142b7565b600088815260056020908152604080832060098b01546001600160a01b0390811685529083528184208590558b845260049283905281842093909355600f8a01805460ff19168317905560115460038b0154915163416b56db60e01b815294955083169363416b56db936111a0939216916001918291829101614345565b600060405180830381600087803b1580156111ba57600080fd5b505af11580156111ce573d6000803e3d6000fd5b5050505060005b600487015481101561128f576011546004880180546001600160a01b039092169163416b56db91908490811061120d5761120d6142ec565b6000918252602090912001546040516001600160e01b031960e084901b16815261124a916001600160a01b03169060019081908190600401614345565b600060405180830381600087803b15801561126457600080fd5b505af1158015611278573d6000803e3d6000fd5b5050505080806112879061432c565b9150506111d5565b50601154600987015460405163416b56db60e01b81526001600160a01b039283169263416b56db926112cd9291169060019081908190600401614345565b600060405180830381600087803b1580156112e757600080fd5b505af11580156112fb573d6000803e3d6000fd5b50505050867f8ed894b6f384ca9c829b9aa5b056bc9106a90845a15616607e975d4ad488ee6760046040516113309190613afa565b60405180910390a250505050505050565b60608060006060611350613786565b6040805180820190915260008082526020820152600087815260026020819052604082206003810154600d820154600e830154600f84015460018501805488978897889790969395918701946001600160a01b039091169360048801936005890193600b8a0193909160ff80831692610100900416908a906113d19061436b565b80601f01602080910402602001604051908101604052809291908181526020018280546113fd9061436b565b801561144a5780601f1061141f5761010080835404028352916020019161144a565b820191906000526020600020905b81548152906001019060200180831161142d57829003601f168201915b5050505050995088805461145d9061436b565b80601f01602080910402602001604051908101604052809291908181526020018280546114899061436b565b80156114d65780601f106114ab576101008083540402835291602001916114d6565b820191906000526020600020905b8154815290600101906020018083116114b957829003601f168201915b505050505098508680548060200260200160405190810160405280929190818152602001828054801561153257602002820191906000526020600020905b81546001600160a01b03168152600190910190602001808311611514575b50505050509650856040518060800160405290816000820180546115559061436b565b80601f01602080910402602001604051908101604052809291908181526020018280546115819061436b565b80156115ce5780601f106115a3576101008083540402835291602001916115ce565b820191906000526020600020905b8154815290600101906020018083116115b157829003601f168201915b5050505050815260200160018201604051806040016040529081600082015481526020016001820154815250508152602001600382015481526020016004820160009054906101000a90046001600160a01b03166001600160a01b03166001600160a01b0316815250509550846040518060400160405290816000820154815260200160018201548152505094509a509a509a509a509a509a509a509a509a509a50509193959799509193959799565b6000828152600260205260408120600f015460ff1660078111156116a4576116a4613a16565b14806116d5575060056000838152600260205260409020600f015460ff1660078111156116d3576116d3613a16565b145b80611705575060076000838152600260205260409020600f015460ff16600781111561170357611703613a16565b145b6117445760405162461bcd60e51b815260206004820152601060248201526f119d5b991cc8185c99481b1bd8dad95960821b6044820152606401610ceb565b33600090815260086020908152604080832085845290915290205460ff166117c15760405162461bcd60e51b815260206004820152602a60248201527f5573657220646f6573206e6f74206f776e20746865207469636b657420666f7260448201526920746869732073686f7760b01b6064820152608401610ceb565b60008281526007602090815260408083208484529091528120541161181f5760405162461bcd60e51b8152602060048201526014602482015273151a58dad95d081b9bdd081c1d5c98da185cd95960621b6044820152606401610ceb565b60008281526007602090815260408083208484528252808320548584526006909252909120546118915760405162461bcd60e51b815260206004820152601d60248201527f4e6f207469636b65747320736f6c6420666f7220746869732073686f770000006044820152606401610ceb565b60008381526006602052604081208054916118ab836143a5565b90915550506000838152600760209081526040808320858452909152808220919091556010549051638e81c64d60e01b815260048101849052600160248201526001600160a01b0390911690638e81c64d90604401600060405180830381600087803b15801561191a57600080fd5b505af115801561192e573d6000803e3d6000fd5b505050506000606461194f856000908152600260205260409020600e015490565b6000868152600260205260409020600d015461196b9190614302565b61197591906142b7565b6000858152600460205260409020549091508211156119d65760405162461bcd60e51b815260206004820181905260248201527f496e73756666696369656e742066756e647320696e2073686f77207661756c746044820152606401610ceb565b6000848152600660205260409020548110611a3d57600084815260026020526040808220600f01805460ff191690555185917f8ed894b6f384ca9c829b9aa5b056bc9106a90845a15616607e975d4ad488ee6791611a349190613afa565b60405180910390a25b60008481526004602052604081208054849290611a5b9084906142d9565b9091555050600084815260056020908152604080832033845290915281208054849290611a89908490614319565b9091555050604051828152849033907f6327daeea6ce26abf9f96cd84eee9cb40d1d5b88f7f5990914540e392446bf04906020015b60405180910390a350505050565b600a546001600160a01b03163314611af65760405162461bcd60e51b8152600401610ceb90614252565b600081815260026020526040902060118101544210801590611b3157506007600f82015460ff166007811115611b2e57611b2e613a16565b14155b15611b8657600f8101805460ff1916600717905560018054906000611b55836143a5565b909155505060405182907f82b7e047c31ec5019ec913d8f5f2257c393096c9e63f6214f001f4b27e4dc0c890600090a25b5050565b611b9261304e565b611b9b826130f3565b611b8682826130fb565b6000611baf6131bd565b506000805160206146ba83398151915290565b60008281526009602090815260408083206001600160a01b0385168452825291829020805483518184028101840190945280845260609392830182828015611c2957602002820191906000526020600020905b815481526020019060010190808311611c15575b5050505050905092915050565b611c3e613206565b611c486000613261565b565b60096020528260005260406000206020528160005260406000208181548110611c7257600080fd5b9060005260206000200160009250925050505481565b600b546001600160a01b0316331480611cab5750600a546001600160a01b031633145b80611cb557503330145b611cd15760405162461bcd60e51b8152600401610ceb906141e4565b60008181526004602052604081208054349290611cef908490614319565b909155505050565b600081815260026020526040812060040154611d14816001614319565b9392505050565b600a546001600160a01b03163314611d455760405162461bcd60e51b8152600401610ceb90614252565b6001600160a01b0392909216600090815260086020908152604080832093835292905220805460ff1916911515919091179055565b6000808a5111611dbf5760405162461bcd60e51b815260206004820152601060248201526f13985b59481a5cc81c995c5d5a5c995960821b6044820152606401610ceb565b60008611611e1b5760405162461bcd60e51b815260206004820152602360248201527f56656e756520726164697573206d75737420626520677265617465722074686160448201526206e20360ec1b6064820152608401610ceb565b60008411611e795760405162461bcd60e51b815260206004820152602560248201527f546f74616c206361706163697479206d75737420626520677265617465722074604482015264068616e20360dc1b6064820152608401610ceb565b6000885111611eca5760405162461bcd60e51b815260206004820152601c60248201527f4174206c65617374206f6e6520617274697374207265717569726564000000006044820152606401610ceb565b825160208401511015611f455760405162461bcd60e51b815260206004820152603d60248201527f4d6178207469636b6574207072696365206d757374206265206772656174657260448201527f206f7220657175616c20746f206d696e207469636b65742070726963650000006064820152608401610ceb565b60328560ff1610158015611f5d575060648560ff1611155b611fbf5760405162461bcd60e51b815260206004820152602d60248201527f53656c6c2d6f7574207468726573686f6c64206d75737420626520626574776560448201526c0656e20353020616e642031303609c1b6064820152608401610ceb565b865163055d4a7f1913801590611fda5750865163055d4a8012155b6120195760405162461bcd60e51b815260206004820152601060248201526f496e76616c6964206c6174697475646560801b6044820152606401610ceb565b630aba94ff1987602001511215801561203a5750630aba9500876020015113155b61207a5760405162461bcd60e51b8152602060048201526011602482015270496e76616c6964206c6f6e67697475646560781b6044820152606401610ceb565b601454600160a01b900460ff166120d35760405162461bcd60e51b815260206004820152601e60248201527f436f6e747261637420616464726573736573206d7573742062652073657400006044820152606401610ceb565b6120dc336132d2565b6121285760405162461bcd60e51b815260206004820152601c60248201527f4f7267616e697a6572206d7573742062652072656769737465726564000000006044820152606401610ceb565b60005b88518110156121b457612156898281518110612149576121496142ec565b6020026020010151613362565b6121a25760405162461bcd60e51b815260206004820152601e60248201527f416c6c2061727469737473206d757374206265207265676973746572656400006044820152606401610ceb565b806121ac8161432c565b91505061212b565b506121c0828951613398565b86516020808901516040516121e19333938d9391928c918c918c91016143bc565b60405160208183030381529060405280519060200120905060004262278d0061220a9190614319565b9050600060405180608001604052806040518060200160405280600081525081526020018a815260200187815260200160006001600160a01b03168152509050604051806101e001604052808481526020018d81526020018c8152602001336001600160a01b031681526020018b81526020018281526020018981526020018681526020018860ff168152602001878152602001600060078111156122b1576122b1613a16565b81526001602080830182905260408084018990526060840187905260006080909401849052878452600282529092208351815591830151908201906122f69082614483565b506040820151600282019061230b9082614483565b5060608201516003820180546001600160a01b0319166001600160a01b039092169190911790556080820151805161234d9160048401916020909101906137c9565b5060a08201518051600583019081906123669082614483565b50602082810151805160018481019190915590820151600284015560408401516003840155606090930151600490920180546001600160a01b0319166001600160a01b039093169290921790915560c0840151600a84015560e08401518051600b8501550151600c830155610100830151600d830155610120830151600e830155610140830151600f830180549192909160ff19169083600781111561240e5761240e613a16565b0217905550610160820151600f820180549115156101000261ff0019909216919091179055610180820151805161244f91601084019160209091019061382e565b506101a082015160118201556101c09091015160129091015560005b8a518110156124de5760008481526003602052604081208c51600192908e908590811061249a5761249a6142ec565b6020908102919091018101516001600160a01b03168252810191909152604001600020805460ff1916911515919091179055806124d68161432c565b91505061246b565b50600180549060006124ef8361432c565b9190505550336001600160a01b0316837f5829640c990aaf491e04dbb3bede81c191d55a802b99b9194101fa3adece09e08e8d8f8a8d8b60405161253896959493929190614543565b60405180910390a350509998505050505050505050565b600a546001600160a01b031633146125795760405162461bcd60e51b8152600401610ceb90614252565b6000928352600760209081526040808520938552929052912055565b7ff0c57e16840df040f15088dc2f81fe391c3923bec73e23a9662efc9c229c6a008054600160401b810460ff16159067ffffffffffffffff166000811580156125db5750825b905060008267ffffffffffffffff1660011480156125f85750303b155b905081158015612606575080155b156126245760405163f92ee8a960e01b815260040160405180910390fd5b845467ffffffffffffffff19166001178555831561264e57845460ff60401b1916600160401b1785555b6126566134c7565b61265f866134d7565b601580546001600160a01b0319166001600160a01b03881617905583156126c057845460ff60401b19168555604051600181527fc7f505b2f371ae2175ee4913f4499e1f2633a7b5936321eed1cdaeb6115181d29060200160405180910390a15b505050505050565b600b546001600160a01b031633146126f25760405162461bcd60e51b8152600401610ceb90614252565b600082815260026020526040902081518290600583019081906127159082614483565b5060208281015180516001840155015160028201556040808301516003830155606090920151600490910180546001600160a01b0319166001600160a01b039092169190911790555183907f7ff310b69b4d32bc970badd2c29e0539de33aad17a7679f5484eb09ad6fd5fc69061278d9085906145b7565b60405180910390a2505050565b60008181526002602052604090206003015481906001600160a01b03163314806127c957506127c93382610c75565b6128065760405162461bcd60e51b815260206004820152600e60248201526d139bdd08185d5d1a1bdc9a5e995960921b6044820152606401610ceb565b60008281526002602052604090206004600f82015460ff16600781111561282f5761282f613a16565b146128755760405162461bcd60e51b815260206004820152601660248201527514da1bddc81b5d5cdd0818994810dbdb5c1b195d195960521b6044820152606401610ceb565b6012810154612887906202a300614319565b42146128d55760405162461bcd60e51b815260206004820152601c60248201527f53686f7720636f6f6c20646f776e20686173206e6f7420656e646564000000006044820152606401610ceb565b6000838152600560209081526040808320338452909152902054806129335760405162461bcd60e51b81526020600482015260146024820152734e6f2066756e647320746f20776974686472617760601b6044820152606401610ceb565b600084815260056020908152604080832033808552925280832083905551909183156108fc02918491818181858888f19350505050158015612979573d6000803e3d6000fd5b50604051818152339085907f028ab133c73f6c00ad0c5896ef40eff18378acd3d7f2ecf573c2706582bf73bf90602001611abe565b600a546001600160a01b031633146129d85760405162461bcd60e51b8152600401610ceb90614252565b60009283526009602090815260408085206001600160a01b0390941685529281529183208054600181018255908452919092200155565b612a176134e8565b600081815260056020908152604080832033845290915290205480612a755760405162461bcd60e51b81526020600482015260146024820152734e6f2066756e647320746f20776974686472617760601b6044820152606401610ceb565b80471015612ad05760405162461bcd60e51b815260206004820152602260248201527f496e73756666696369656e742066756e647320696e2074686520636f6e74726160448201526118dd60f21b6064820152608401610ceb565b600082815260056020908152604080832033808552925280832083905551909183156108fc02918491818181858888f19350505050158015612b16573d6000803e3d6000fd5b50604051818152829033907fa4d59773de0ef2d6faf35ac70331de09c09cb20909bf7453dd0d620524bd1fc99060200160405180910390a350612b7860017f9b779b17422d0df92223018b32b4d1fa46e071723d6817e2486d003becc55f0055565b50565b60008181526002602052604090206003015481906001600160a01b0316331480612baa5750612baa3382610c75565b612be75760405162461bcd60e51b815260206004820152600e60248201526d139bdd08185d5d1a1bdc9a5e995960921b6044820152606401610ceb565b60008281526002602052604090206001600f82015460ff166007811115612c1057612c10613a16565b1480612c3457506002600f82015460ff166007811115612c3257612c32613a16565b145b80612c5757506003600f82015460ff166007811115612c5557612c55613a16565b145b612c9a5760405162461bcd60e51b815260206004820152601460248201527353686f77206d7573742062652050656e64696e6760601b6044820152606401610ceb565b600f01805460ff191660051790555050565b612cb4613206565b6001600160a01b038116612cde57604051631e4fbdf760e01b815260006004820152602401610ceb565b612b7881613261565b601454600160a01b900460ff1615612d415760405162461bcd60e51b815260206004820152601e60248201527f50726f746f636f6c2061646472657373657320616c72656164792073657400006044820152606401610ceb565b600a80546001600160a01b039788166001600160a01b03199182168117909255600b805497891697821697909717909655601080548716909117905560118054948716948616949094179093556012805492861692851692909217909155601380549185169190931617909155601480546001600160a81b0319169190921617600160a01b179055565b60026020526000908152604090208054600182018054919291612ded9061436b565b80601f0160208091040260200160405190810160405280929190818152602001828054612e199061436b565b8015612e665780601f10612e3b57610100808354040283529160200191612e66565b820191906000526020600020905b815481529060010190602001808311612e4957829003601f168201915b505050505090806002018054612e7b9061436b565b80601f0160208091040260200160405190810160405280929190818152602001828054612ea79061436b565b8015612ef45780601f10612ec957610100808354040283529160200191612ef4565b820191906000526020600020905b815481529060010190602001808311612ed757829003601f168201915b5050505050908060030160009054906101000a90046001600160a01b03169080600501604051806080016040529081600082018054612f329061436b565b80601f0160208091040260200160405190810160405280929190818152602001828054612f5e9061436b565b8015612fab5780601f10612f8057610100808354040283529160200191612fab565b820191906000526020600020905b815481529060010190602001808311612f8e57829003601f168201915b5050509183525050604080518082018252600184015481526002840154602082810191909152808401919091526003840154828401526004909301546001600160a01b0316606090920191909152600a8401548151808301909252600b8501548252600c85015492820192909252600d840154600e850154600f86015460118701546012909701549596949593949293919260ff8083169361010090930416918d565b306001600160a01b037f00000000000000000000000000000000000000000000000000000000000000001614806130d557507f00000000000000000000000000000000000000000000000000000000000000006001600160a01b03166130c96000805160206146ba833981519152546001600160a01b031690565b6001600160a01b031614155b15611c485760405163703e46dd60e11b815260040160405180910390fd5b612b78613206565b816001600160a01b03166352d1902d6040518163ffffffff1660e01b8152600401602060405180830381865afa925050508015613155575060408051601f3d908101601f19168201909252613152918101906145ca565b60015b61317d57604051634c9c8ce360e01b81526001600160a01b0383166004820152602401610ceb565b6000805160206146ba83398151915281146131ae57604051632a87526960e21b815260048101829052602401610ceb565b6131b88383613558565b505050565b306001600160a01b037f00000000000000000000000000000000000000000000000000000000000000001614611c485760405163703e46dd60e11b815260040160405180910390fd5b336132387f9016d09d72d40fdae2fd8ceac6b6234c7706214fd39c1cd1e609a0528c199300546001600160a01b031690565b6001600160a01b031614611c485760405163118cdaa760e01b8152336004820152602401610ceb565b7f9016d09d72d40fdae2fd8ceac6b6234c7706214fd39c1cd1e609a0528c19930080546001600160a01b031981166001600160a01b03848116918217845560405192169182907f8be0079c531659141344cd1fd0a4f28419497f9722a3daafe3b4186f6b6457e090600090a3505050565b6013546040516306f81c4560e51b81526001600160a01b038381166004830152600092839291169063df0388a0906024015b600060405180830381865afa158015613321573d6000803e3d6000fd5b505050506040513d6000823e601f3d908101601f191682016040526133499190810190614630565b6001600160a01b03908116951694909414949350505050565b601254604051636951ae4760e11b81526001600160a01b038381166004830152600092839291169063d2a35c8e90602401613304565b6133a3816002614319565b8251146134265760405162461bcd60e51b8152602060048201526044602482018190527f53706c6974206172726179206d75737420686176652061206c656e6774682065908201527f7175616c20746f20746865206e756d626572206f66206172746973747320706c6064820152633ab9901960e11b608482015260a401610ceb565b6000805b835181101561346c57838181518110613445576134456142ec565b6020026020010151826134589190614319565b9150806134648161432c565b91505061342a565b50806064146131b85760405162461bcd60e51b815260206004820152602160248201527f53706c69742070657263656e7461676573206d7573742073756d20746f2031306044820152600360fc1b6064820152608401610ceb565b6134cf6135ae565b611c486135f7565b6134df6135ae565b612b78816135ff565b7f9b779b17422d0df92223018b32b4d1fa46e071723d6817e2486d003becc55f0080546001190161352c57604051633ee5aeb560e01b815260040160405180910390fd5b60029055565b60017f9b779b17422d0df92223018b32b4d1fa46e071723d6817e2486d003becc55f0055565b61356182613607565b6040516001600160a01b038316907fbc7cd75a20ee27fd9adebab32041f755214dbc6bffa90cc0225b39da2e5c2d3b90600090a28051156135a6576131b8828261366c565b611b866136e2565b7ff0c57e16840df040f15088dc2f81fe391c3923bec73e23a9662efc9c229c6a0054600160401b900460ff16611c4857604051631afcd79f60e31b815260040160405180910390fd5b6135326135ae565b612cb46135ae565b806001600160a01b03163b60000361363d57604051634c9c8ce360e01b81526001600160a01b0382166004820152602401610ceb565b6000805160206146ba83398151915280546001600160a01b0319166001600160a01b0392909216919091179055565b6060600080846001600160a01b031684604051613689919061469d565b600060405180830381855af49150503d80600081146136c4576040519150601f19603f3d011682016040523d82523d6000602084013e6136c9565b606091505b50915091506136d9858383613701565b95945050505050565b3415611c485760405163b398979f60e01b815260040160405180910390fd5b606082613716576137118261375d565b611d14565b815115801561372d57506001600160a01b0384163b155b1561375657604051639996b31560e01b81526001600160a01b0385166004820152602401610ceb565b5092915050565b80511561376d5780518082602001fd5b604051630a12f52160e11b815260040160405180910390fd5b6040518060800160405280606081526020016137b5604051806040016040528060008152602001600081525090565b815260006020820181905260409091015290565b82805482825590600052602060002090810192821561381e579160200282015b8281111561381e57825182546001600160a01b0319166001600160a01b039091161782556020909201916001909101906137e9565b5061382a929150613869565b5090565b82805482825590600052602060002090810192821561381e579160200282015b8281111561381e57825182559160200191906001019061384e565b5b8082111561382a576000815560010161386a565b6001600160a01b0381168114612b7857600080fd5b600080604083850312156138a657600080fd5b82356138b18161387e565b946020939093013593505050565b600080604083850312156138d257600080fd5b823591506020830135600881106138e857600080fd5b809150509250929050565b6000806040838503121561390657600080fd5b50508035926020909101359150565b60006020828403121561392757600080fd5b5035919050565b60005b83811015613949578181015183820152602001613931565b50506000910152565b6000815180845261396a81602086016020860161392e565b601f01601f19169290920160200192915050565b600081518084526020808501945080840160005b838110156139b75781516001600160a01b031687529582019590820190600101613992565b509495945050505050565b6000815160a084526139d760a0850182613952565b6020848101518051878301520151604080870191909152840151606080870191909152909301516001600160a01b031660809094019390935250919050565b634e487b7160e01b600052602160045260246000fd5b60088110613a4a57634e487b7160e01b600052602160045260246000fd5b9052565b6000610160808352613a628184018e613952565b90508281036020840152613a76818d613952565b6001600160a01b038c16604085015283810360608501529050613a99818b61397e565b90508281036080840152613aad818a6139c2565b885160a0850152602089015160c08501529150613ac79050565b8560e083015284610100830152613ae2610120830185613a2c565b8215156101408301529b9a5050505050505050505050565b60208101610c9c8284613a2c565b634e487b7160e01b600052604160045260246000fd5b6040516080810167ffffffffffffffff81118282101715613b4157613b41613b08565b60405290565b604051601f8201601f1916810167ffffffffffffffff81118282101715613b7057613b70613b08565b604052919050565b600067ffffffffffffffff821115613b9257613b92613b08565b50601f01601f191660200190565b6000613bb3613bae84613b78565b613b47565b9050828152838383011115613bc757600080fd5b828260208301376000602084830101529392505050565b60008060408385031215613bf157600080fd5b8235613bfc8161387e565b9150602083013567ffffffffffffffff811115613c1857600080fd5b8301601f81018513613c2957600080fd5b613c3885823560208401613ba0565b9150509250929050565b60008060408385031215613c5557600080fd5b8235915060208301356138e88161387e565b600081518084526020808501945080840160005b838110156139b757815187529582019590820190600101613c7b565b602081526000611d146020830184613c67565b600080600060608486031215613cbf57600080fd5b833592506020840135613cd18161387e565b929592945050506040919091013590565b600080600060608486031215613cf757600080fd5b8335613d028161387e565b92506020840135915060408401358015158114613d1e57600080fd5b809150509250925092565b600082601f830112613d3a57600080fd5b611d1483833560208501613ba0565b600067ffffffffffffffff821115613d6357613d63613b08565b5060051b60200190565b600082601f830112613d7e57600080fd5b81356020613d8e613bae83613d49565b82815260059290921b84018101918181019086841115613dad57600080fd5b8286015b84811015613dd1578035613dc48161387e565b8352918301918301613db1565b509695505050505050565b600060408284031215613dee57600080fd5b6040516040810181811067ffffffffffffffff82111715613e1157613e11613b08565b604052823581526020928301359281019290925250919050565b803560ff81168114613e3c57600080fd5b919050565b600082601f830112613e5257600080fd5b81356020613e62613bae83613d49565b82815260059290921b84018101918181019086841115613e8157600080fd5b8286015b84811015613dd15780358352918301918301613e85565b60008060008060008060008060006101608a8c031215613ebb57600080fd5b893567ffffffffffffffff80821115613ed357600080fd5b613edf8d838e01613d29565b9a5060208c0135915080821115613ef557600080fd5b613f018d838e01613d29565b995060408c0135915080821115613f1757600080fd5b613f238d838e01613d6d565b9850613f328d60608e01613ddc565b975060a08c01359650613f4760c08d01613e2b565b955060e08c01359450613f5e8d6101008e01613ddc565b93506101408c0135915080821115613f7557600080fd5b50613f828c828d01613e41565b9150509295985092959850929598565b602081526000611d146020830184613952565b600080600060608486031215613fba57600080fd5b505081359360208301359350604090920135919050565b600060208284031215613fe357600080fd5b8135611d148161387e565b6000806040838503121561400157600080fd5b82359150602083013567ffffffffffffffff8082111561402057600080fd5b9084019060a0828703121561403457600080fd5b61403c613b1e565b82358281111561404b57600080fd5b61405788828601613d29565b8252506140678760208501613ddc565b602082015260608301356040820152608083013592506140868361387e565b8260608201528093505050509250929050565b815181526020808301519082015260408101610c9c565b60008060008060008060c087890312156140c957600080fd5b86356140d48161387e565b955060208701356140e48161387e565b945060408701356140f48161387e565b935060608701356141048161387e565b925060808701356141148161387e565b915060a08701356141248161387e565b809150509295509295509295565b8d81526101c06020820152600061414d6101c083018f613952565b828103604084015261415f818f613952565b6001600160a01b038e16606085015283810360808501529050614182818d6139c2565b9150508960a08301526141a260c083018a80518252602090810151910152565b87610100830152866101208301526141be610140830187613a2c565b8415156101608301526101808201939093526101a001529b9a5050505050505050505050565b60208082526048908201527f4f6e6c79207468652056656e75652c205469636b657420636f6e74726163742c60408201527f206f72207468697320636f6e74726163742063616e2063616c6c207468697320606082015267333ab731ba34b7b760c11b608082015260a00190565b6020808252602f908201527f4f6e6c7920746865205469636b657420636f6e74726163742063616e2063616c60408201526e36103a3434b990333ab731ba34b7b760891b606082015260800190565b634e487b7160e01b600052601160045260246000fd5b6000826142d457634e487b7160e01b600052601260045260246000fd5b500490565b81810381811115610c9c57610c9c6142a1565b634e487b7160e01b600052603260045260246000fd5b8082028115828204841417610c9c57610c9c6142a1565b80820180821115610c9c57610c9c6142a1565b60006001820161433e5761433e6142a1565b5060010190565b6001600160a01b0394909416845260208401929092526040830152606082015260800190565b600181811c9082168061437f57607f821691505b60208210810361439f57634e487b7160e01b600052602260045260246000fd5b50919050565b6000816143b4576143b46142a1565b506000190190565b6bffffffffffffffffffffffff198860601b16815260006014820188516020808b0160005b838110156144065781516001600160a01b0316855293820193908201906001016143e1565b5050988252509687019590955250604085019290925260f81b6001600160f81b031916606084015260618301525060810192915050565b601f8211156131b857600081815260208120601f850160051c810160208610156144645750805b601f850160051c820191505b818110156126c057828155600101614470565b815167ffffffffffffffff81111561449d5761449d613b08565b6144b1816144ab845461436b565b8461443d565b602080601f8311600181146144e657600084156144ce5750858301515b600019600386901b1c1916600185901b1785556126c0565b600085815260208120601f198616915b82811015614515578886015182559484019460019091019084016144f6565b50858210156145335787850151600019600388901b60f8161c191681555b5050505050600190811b01905550565b60e08152600061455660e0830189613952565b8281036020840152614568818961397e565b9050828103604084015261457c8188613952565b8651606085015260208701516080850152905060ff851660a084015282810360c08401526145aa8185613c67565b9998505050505050505050565b602081526000611d1460208301846139c2565b6000602082840312156145dc57600080fd5b5051919050565b600082601f8301126145f457600080fd5b8151614602613bae82613b78565b81815284602083860101111561461757600080fd5b61462882602083016020870161392e565b949350505050565b60008060006060848603121561464557600080fd5b835167ffffffffffffffff8082111561465d57600080fd5b614669878388016145e3565b9450602086015191508082111561467f57600080fd5b5061468c868287016145e3565b9250506040840151613d1e8161387e565b600082516146af81846020870161392e565b919091019291505056fe360894a13ba1a3210667c828492db98dca3e2076cc3735a920a3ca505d382bbca264697066735822122091c15b4355f5b380508d9ae54c3bdc49adb02ac03717b4e482bf3ed6d44eee3964736f6c63430008140033","linkReferences":{}},"methodIdentifiers":{"SELLOUT_PROTOCOL_WALLET()":"e30228be","UPGRADE_INTERFACE_VERSION()":"ad3cb1cc","activeShowCount()":"16488906","addTokenIdToWallet(bytes32,address,uint256)":"de44006f","artistRegistryContract()":"41adf3ad","artistRegistryInstance()":"8dea15a1","cancelShow(bytes32)":"ef5023a5","checkAndUpdateExpiry(bytes32)":"4365c06e","completeShow(bytes32)":"129e086b","depositToVault(bytes32)":"85266635","getNumberOfVoters(bytes32)":"85ffa16c","getOrganizer(bytes32)":"977cb89e","getSellOutThreshold(bytes32)":"1a348e62","getShowById(bytes32)":"27b1bf52","getShowStatus(bytes32)":"46c2c8a7","getTicketPrice(bytes32)":"c73a839c","getTicketPricePaid(bytes32,uint256)":"93d4e100","getTotalCapacity(bytes32)":"620ec1e4","getTotalTicketsSold(bytes32)":"61041870","getWalletTokenIds(bytes32,address)":"5b9a1e09","initialize(address)":"c4d66de8","isArtist(address,bytes32)":"02c9a8b5","isArtistMapping(bytes32,address)":"bafd4eb0","isOrganizer(address,bytes32)":"4ed372da","isTicketOwner(address,bytes32)":"8d700eaf","organizerRegistryContract()":"66bc64cd","organizerRegistryInstance()":"1cf2103e","owner()":"8da5cb5b","payout(bytes32)":"cfefb3d5","pendingWithdrawals(bytes32,address)":"be44d38d","proposeShow(string,string,address[],(int256,int256),uint256,uint8,uint256,(uint256,uint256),uint256[])":"a2c8624c","proxiableUUID()":"52d1902d","referralContract()":"7dad19db","referralInstance()":"c6ab848a","refundTicket(bytes32,uint256)":"3c60d2d6","renounceOwnership()":"715018a6","setProtocolAddresses(address,address,address,address,address,address)":"f8121873","setTicketOwnership(address,bytes32,bool)":"8e5298a5","setTicketPricePaid(bytes32,uint256,uint256)":"bd47dc5c","showVault(bytes32)":"867e68af","shows(bytes32)":"fca46559","ticketContract()":"58a86e1d","ticketInstance()":"0233ce6a","ticketOwnership(address,bytes32)":"46079335","ticketPricePaid(bytes32,uint256)":"2f18ddfe","totalTicketsSold(bytes32)":"925e8f89","transferOwnership(address)":"f2fde38b","updateExpiry(bytes32,uint256)":"0d08c3c9","updateStatus(bytes32,uint8)":"054372ed","updateVenue(bytes32,(string,(int256,int256),uint256,address))":"c56f70fd","upgradeToAndCall(address,bytes)":"4f1ef286","venueContract()":"51819335","venueRegistryContract()":"31a68da0","venueRegistryInstance()":"703ee4e5","walletToShowToTokenIds(bytes32,address,uint256)":"7d8d6a22","withdrawRefund(bytes32)":"e9acfa7c"},"id":68}