{"abi":[{"type":"function","name":"SELLOUT_PROTOCOL_WALLET","inputs":[],"outputs":[{"name":"","type":"address","internalType":"address"}],"stateMutability":"view"},{"type":"function","name":"activeShowCount","inputs":[],"outputs":[{"name":"","type":"uint256","internalType":"uint256"}],"stateMutability":"view"},{"type":"function","name":"artistRegistryContract","inputs":[],"outputs":[{"name":"","type":"address","internalType":"address"}],"stateMutability":"view"},{"type":"function","name":"artistRegistryInstance","inputs":[],"outputs":[{"name":"","type":"address","internalType":"contract IArtistRegistry"}],"stateMutability":"view"},{"type":"function","name":"isArtistMapping","inputs":[{"name":"","type":"bytes32","internalType":"bytes32"},{"name":"","type":"address","internalType":"address"}],"outputs":[{"name":"","type":"bool","internalType":"bool"}],"stateMutability":"view"},{"type":"function","name":"organizerRegistryContract","inputs":[],"outputs":[{"name":"","type":"address","internalType":"address"}],"stateMutability":"view"},{"type":"function","name":"organizerRegistryInstance","inputs":[],"outputs":[{"name":"","type":"address","internalType":"contract IOrganizerRegistry"}],"stateMutability":"view"},{"type":"function","name":"pendingPayouts","inputs":[{"name":"","type":"bytes32","internalType":"bytes32"},{"name":"","type":"address","internalType":"address"}],"outputs":[{"name":"","type":"uint256","internalType":"uint256"}],"stateMutability":"view"},{"type":"function","name":"pendingRefunds","inputs":[{"name":"","type":"bytes32","internalType":"bytes32"},{"name":"","type":"address","internalType":"address"}],"outputs":[{"name":"","type":"uint256","internalType":"uint256"}],"stateMutability":"view"},{"type":"function","name":"referralContract","inputs":[],"outputs":[{"name":"","type":"address","internalType":"address"}],"stateMutability":"view"},{"type":"function","name":"referralInstance","inputs":[],"outputs":[{"name":"","type":"address","internalType":"contract ReferralModule"}],"stateMutability":"view"},{"type":"function","name":"showPaymentToken","inputs":[{"name":"","type":"bytes32","internalType":"bytes32"}],"outputs":[{"name":"","type":"address","internalType":"address"}],"stateMutability":"view"},{"type":"function","name":"showTokenVault","inputs":[{"name":"","type":"bytes32","internalType":"bytes32"},{"name":"","type":"address","internalType":"address"}],"outputs":[{"name":"","type":"uint256","internalType":"uint256"}],"stateMutability":"view"},{"type":"function","name":"showVault","inputs":[{"name":"","type":"bytes32","internalType":"bytes32"}],"outputs":[{"name":"","type":"uint256","internalType":"uint256"}],"stateMutability":"view"},{"type":"function","name":"shows","inputs":[{"name":"","type":"bytes32","internalType":"bytes32"}],"outputs":[{"name":"showId","type":"bytes32","internalType":"bytes32"},{"name":"name","type":"string","internalType":"string"},{"name":"description","type":"string","internalType":"string"},{"name":"organizer","type":"address","internalType":"address"},{"name":"venue","type":"tuple","internalType":"struct VenueTypes.Venue","components":[{"name":"name","type":"string","internalType":"string"},{"name":"coordinates","type":"tuple","internalType":"struct VenueTypes.Coordinates","components":[{"name":"lat","type":"int256","internalType":"int256"},{"name":"lon","type":"int256","internalType":"int256"}]},{"name":"totalCapacity","type":"uint256","internalType":"uint256"},{"name":"wallet","type":"address","internalType":"address"},{"name":"venueId","type":"bytes32","internalType":"bytes32"}]},{"name":"radius","type":"uint256","internalType":"uint256"},{"name":"sellOutThreshold","type":"uint256","internalType":"uint256"},{"name":"totalCapacity","type":"uint256","internalType":"uint256"},{"name":"status","type":"uint8","internalType":"enum ShowTypes.Status"},{"name":"isActive","type":"bool","internalType":"bool"},{"name":"expiry","type":"uint256","internalType":"uint256"},{"name":"showDate","type":"uint256","internalType":"uint256"}],"stateMutability":"view"},{"type":"function","name":"ticketContract","inputs":[],"outputs":[{"name":"","type":"address","internalType":"address"}],"stateMutability":"view"},{"type":"function","name":"ticketInstance","inputs":[],"outputs":[{"name":"","type":"address","internalType":"contract Ticket"}],"stateMutability":"view"},{"type":"function","name":"ticketPricePaid","inputs":[{"name":"","type":"bytes32","internalType":"bytes32"},{"name":"","type":"uint256","internalType":"uint256"}],"outputs":[{"name":"","type":"uint256","internalType":"uint256"}],"stateMutability":"view"},{"type":"function","name":"totalTicketsSold","inputs":[{"name":"","type":"bytes32","internalType":"bytes32"}],"outputs":[{"name":"","type":"uint256","internalType":"uint256"}],"stateMutability":"view"},{"type":"function","name":"venueContract","inputs":[],"outputs":[{"name":"","type":"address","internalType":"address"}],"stateMutability":"view"},{"type":"function","name":"venueRegistryContract","inputs":[],"outputs":[{"name":"","type":"address","internalType":"address"}],"stateMutability":"view"},{"type":"function","name":"venueRegistryInstance","inputs":[],"outputs":[{"name":"","type":"address","internalType":"contract IVenueRegistry"}],"stateMutability":"view"},{"type":"function","name":"walletToShowToTokenIds","inputs":[{"name":"","type":"bytes32","internalType":"bytes32"},{"name":"","type":"address","internalType":"address"},{"name":"","type":"uint256","internalType":"uint256"}],"outputs":[{"name":"","type":"uint256","internalType":"uint256"}],"stateMutability":"view"}],"bytecode":{"object":"0x6080604052600a805460ff60a01b1916905534801561001d57600080fd5b506109118061002d6000396000f3fe608060405234801561001057600080fd5b506004361061014d5760003560e01c806372958028116100c3578063925e8f891161007c578063925e8f8914610321578063bafd4eb014610341578063c6ab848a1461037f578063c9e21e5e14610392578063e30228be146103bd578063fca46559146103d057600080fd5b806372958028146102745780637d8d6a221461029d5780637dad19db146102b0578063867e68af146102c35780638dea15a1146102e35780638e70362b146102f657600080fd5b806341adf3ad1161011557806341adf3ad146101ea57806351819335146101fd5780635696c07c1461021057806358a86e1d1461023b57806366bc64cd1461024e578063703ee4e51461026157600080fd5b80630233ce6a1461015257806316488906146101825780631cf2103e146101995780632f18ddfe146101ac57806331a68da0146101d7575b600080fd5b600654610165906001600160a01b031681565b6040516001600160a01b0390911681526020015b60405180910390f35b61018b600d5481565b604051908152602001610179565b600954610165906001600160a01b031681565b61018b6101ba3660046106a3565b601560209081526000928352604080842090915290825290205481565b600554610165906001600160a01b031681565b600354610165906001600160a01b031681565b600154610165906001600160a01b031681565b61018b61021e3660046106e1565b601260209081526000928352604080842090915290825290205481565b600054610165906001600160a01b031681565b600454610165906001600160a01b031681565b600a54610165906001600160a01b031681565b61016561028236600461070d565b6018602052600090815260409020546001600160a01b031681565b61018b6102ab366004610726565b6103fb565b600254610165906001600160a01b031681565b61018b6102d136600461070d565b60106020526000908152604090205481565b600854610165906001600160a01b031681565b61018b6103043660046106e1565b601360209081526000928352604080842090915290825290205481565b61018b61032f36600461070d565b60146020526000908152604090205481565b61036f61034f3660046106e1565b600f60209081526000928352604080842090915290825290205460ff1681565b6040519015158152602001610179565b600754610165906001600160a01b031681565b61018b6103a03660046106e1565b601160209081526000928352604080842090915290825290205481565b600b54610165906001600160a01b031681565b6103e36103de36600461070d565b610439565b6040516101799c9b9a999897969594939291906107c3565b6017602052826000526040600020602052816000526040600020818154811061042357600080fd5b9060005260206000200160009250925050505481565b600e602052600090815260409020805460018201805491929161045b906108a1565b80601f0160208091040260200160405190810160405280929190818152602001828054610487906108a1565b80156104d45780601f106104a9576101008083540402835291602001916104d4565b820191906000526020600020905b8154815290600101906020018083116104b757829003601f168201915b5050505050908060020180546104e9906108a1565b80601f0160208091040260200160405190810160405280929190818152602001828054610515906108a1565b80156105625780601f1061053757610100808354040283529160200191610562565b820191906000526020600020905b81548152906001019060200180831161054557829003601f168201915b5050505050908060030160009054906101000a90046001600160a01b031690806005016040518060a00160405290816000820180546105a0906108a1565b80601f01602080910402602001604051908101604052809291908181526020018280546105cc906108a1565b80156106195780601f106105ee57610100808354040283529160200191610619565b820191906000526020600020905b8154815290600101906020018083116105fc57829003601f168201915b505050918352505060408051808201825260018401548152600284015460208281019190915283015260038301549082015260048201546001600160a01b03166060820152600590910154608090910152600b820154600d830154600e840154600f8501546011860154601290960154949593949293919260ff808316936101009093041691908c565b600080604083850312156106b657600080fd5b50508035926020909101359150565b80356001600160a01b03811681146106dc57600080fd5b919050565b600080604083850312156106f457600080fd5b82359150610704602084016106c5565b90509250929050565b60006020828403121561071f57600080fd5b5035919050565b60008060006060848603121561073b57600080fd5b8335925061074b602085016106c5565b9150604084013590509250925092565b6000815180845260005b8181101561078157602081850181015186830182015201610765565b506000602082860101526020601f19601f83011685010191505092915050565b600881106107bf57634e487b7160e01b600052602160045260246000fd5b9052565b60006101808e83528060208401526107dd8184018f61075b565b905082810360408401526107f1818e61075b565b905060018060a01b03808d16606085015283820360808501528b5160c0835261081d60c084018261075b565b905060208d015180516020850152602081015160408501525060408d015160608401528160608e015116608084015260808d015160a08401528093505050508860a08301528760c08301528660e083015261087c6101008301876107a1565b84151561012083015261014082019390935261016001529a9950505050505050505050565b600181811c908216806108b557607f821691505b6020821081036108d557634e487b7160e01b600052602260045260246000fd5b5091905056fea2646970667358221220fbdee6bd0b7c726aade2eb64314ec5b46156c2890eddee4b5b7af4a3045c1a9164736f6c63430008140033","linkReferences":{}},"methodIdentifiers":{"SELLOUT_PROTOCOL_WALLET()":"e30228be","activeShowCount()":"16488906","artistRegistryContract()":"41adf3ad","artistRegistryInstance()":"8dea15a1","isArtistMapping(bytes32,address)":"bafd4eb0","organizerRegistryContract()":"66bc64cd","organizerRegistryInstance()":"1cf2103e","pendingPayouts(bytes32,address)":"8e70362b","pendingRefunds(bytes32,address)":"5696c07c","referralContract()":"7dad19db","referralInstance()":"c6ab848a","showPaymentToken(bytes32)":"72958028","showTokenVault(bytes32,address)":"c9e21e5e","showVault(bytes32)":"867e68af","shows(bytes32)":"fca46559","ticketContract()":"58a86e1d","ticketInstance()":"0233ce6a","ticketPricePaid(bytes32,uint256)":"2f18ddfe","totalTicketsSold(bytes32)":"925e8f89","venueContract()":"51819335","venueRegistryContract()":"31a68da0","venueRegistryInstance()":"703ee4e5","walletToShowToTokenIds(bytes32,address,uint256)":"7d8d6a22"},"id":80}