{"abi":[{"type":"function","name":"SELLOUT_PROTOCOL_WALLET","inputs":[],"outputs":[{"name":"","type":"address","internalType":"address"}],"stateMutability":"view"},{"type":"function","name":"artistRegistryInstance","inputs":[],"outputs":[{"name":"","type":"address","internalType":"contract IArtistRegistry"}],"stateMutability":"view"},{"type":"function","name":"boxOfficeInstance","inputs":[],"outputs":[{"name":"","type":"address","internalType":"contract IBoxOffice"}],"stateMutability":"view"},{"type":"function","name":"hasVotedForEmergencyRefund","inputs":[{"name":"","type":"bytes32","internalType":"bytes32"},{"name":"","type":"address","internalType":"address"}],"outputs":[{"name":"","type":"bool","internalType":"bool"}],"stateMutability":"view"},{"type":"function","name":"isArtistMapping","inputs":[{"name":"","type":"bytes32","internalType":"bytes32"},{"name":"","type":"address","internalType":"address"}],"outputs":[{"name":"","type":"bool","internalType":"bool"}],"stateMutability":"view"},{"type":"function","name":"organizerRegistryInstance","inputs":[],"outputs":[{"name":"","type":"address","internalType":"contract IOrganizerRegistry"}],"stateMutability":"view"},{"type":"function","name":"referralInstance","inputs":[],"outputs":[{"name":"","type":"address","internalType":"contract ReferralModule"}],"stateMutability":"view"},{"type":"function","name":"showToTicketProxy","inputs":[{"name":"","type":"bytes32","internalType":"bytes32"}],"outputs":[{"name":"","type":"address","internalType":"address"}],"stateMutability":"view"},{"type":"function","name":"showToVenueProxy","inputs":[{"name":"","type":"bytes32","internalType":"bytes32"}],"outputs":[{"name":"","type":"address","internalType":"address"}],"stateMutability":"view"},{"type":"function","name":"showVaultInstance","inputs":[],"outputs":[{"name":"","type":"address","internalType":"contract IShowVault"}],"stateMutability":"view"},{"type":"function","name":"shows","inputs":[{"name":"","type":"bytes32","internalType":"bytes32"}],"outputs":[{"name":"showId","type":"bytes32","internalType":"bytes32"},{"name":"name","type":"string","internalType":"string"},{"name":"description","type":"string","internalType":"string"},{"name":"organizer","type":"address","internalType":"address"},{"name":"venue","type":"tuple","internalType":"struct VenueRegistryTypes.VenueInfo","components":[{"name":"venueId","type":"uint256","internalType":"uint256"},{"name":"name","type":"string","internalType":"string"},{"name":"bio","type":"string","internalType":"string"},{"name":"wallet","type":"address","internalType":"address"},{"name":"coordinates","type":"tuple","internalType":"struct VenueRegistryTypes.Coordinates","components":[{"name":"latitude","type":"int256","internalType":"int256"},{"name":"longitude","type":"int256","internalType":"int256"}]},{"name":"totalCapacity","type":"uint256","internalType":"uint256"},{"name":"streetAddress","type":"string","internalType":"string"}]},{"name":"radius","type":"uint256","internalType":"uint256"},{"name":"sellOutThreshold","type":"uint256","internalType":"uint256"},{"name":"totalCapacity","type":"uint256","internalType":"uint256"},{"name":"status","type":"uint8","internalType":"enum ShowTypes.Status"},{"name":"expiry","type":"uint256","internalType":"uint256"},{"name":"showDate","type":"uint256","internalType":"uint256"},{"name":"currencyAddress","type":"address","internalType":"address"}],"stateMutability":"view"},{"type":"function","name":"ticketFactoryInstance","inputs":[],"outputs":[{"name":"","type":"address","internalType":"contract ITicketFactory"}],"stateMutability":"view"},{"type":"function","name":"venueFactoryInstance","inputs":[],"outputs":[{"name":"","type":"address","internalType":"contract IVenueFactory"}],"stateMutability":"view"},{"type":"function","name":"venueRegistryInstance","inputs":[],"outputs":[{"name":"","type":"address","internalType":"contract IVenueRegistry"}],"stateMutability":"view"},{"type":"function","name":"votesForEmergencyRefund","inputs":[{"name":"","type":"bytes32","internalType":"bytes32"}],"outputs":[{"name":"","type":"uint256","internalType":"uint256"}],"stateMutability":"view"}],"bytecode":{"object":"0x60806040526008805460ff60a01b1916905534801561001d57600080fd5b506108c38061002d6000396000f3fe608060405234801561001057600080fd5b50600436106100f55760003560e01c80639ee0a14e11610097578063e30228be11610066578063e30228be1461025f578063e4ca73aa14610272578063e71aee7e14610285578063fca46559146102ae57600080fd5b80639ee0a14e146101dd578063a2b7d1741461020b578063bafd4eb01461021e578063c6ab848a1461024c57600080fd5b80636a017891116100d35780636a01789114610191578063703ee4e5146101a45780638dea15a1146101b75780639673b1e3146101ca57600080fd5b80631cf2103e146100fa5780633deba9641461012a57806363c18a5214610153575b600080fd5b60055461010d906001600160a01b031681565b6040516001600160a01b0390911681526020015b60405180910390f35b61010d610138366004610675565b600b602052600090815260409020546001600160a01b031681565b61018161016136600461068e565b600f60209081526000928352604080842090915290825290205460ff1681565b6040519015158152602001610121565b60075461010d906001600160a01b031681565b60065461010d906001600160a01b031681565b60045461010d906001600160a01b031681565b60015461010d906001600160a01b031681565b6101fd6101eb366004610675565b600e6020526000908152604090205481565b604051908152602001610121565b60085461010d906001600160a01b031681565b61018161022c36600461068e565b600d60209081526000928352604080842090915290825290205460ff1681565b60035461010d906001600160a01b031681565b60005461010d906001600160a01b031681565b60025461010d906001600160a01b031681565b61010d610293366004610675565b600c602052600090815260409020546001600160a01b031681565b6102c16102bc366004610675565b6102d9565b6040516101219c9b9a99989796959493929190610732565b600a60205260009081526040902080546001820180549192916102fb90610853565b80601f016020809104026020016040519081016040528092919081815260200182805461032790610853565b80156103745780601f1061034957610100808354040283529160200191610374565b820191906000526020600020905b81548152906001019060200180831161035757829003601f168201915b50505050509080600201805461038990610853565b80601f01602080910402602001604051908101604052809291908181526020018280546103b590610853565b80156104025780601f106103d757610100808354040283529160200191610402565b820191906000526020600020905b8154815290600101906020018083116103e557829003601f168201915b5050505050908060030160009054906101000a90046001600160a01b031690806005016040518060e00160405290816000820154815260200160018201805461044a90610853565b80601f016020809104026020016040519081016040528092919081815260200182805461047690610853565b80156104c35780601f10610498576101008083540402835291602001916104c3565b820191906000526020600020905b8154815290600101906020018083116104a657829003601f168201915b505050505081526020016002820180546104dc90610853565b80601f016020809104026020016040519081016040528092919081815260200182805461050890610853565b80156105555780601f1061052a57610100808354040283529160200191610555565b820191906000526020600020905b81548152906001019060200180831161053857829003601f168201915b505050918352505060038201546001600160a01b031660208083019190915260408051808201825260048501548152600585015492810192909252820152600682015460608201526007820180546080909201916105b290610853565b80601f01602080910402602001604051908101604052809291908181526020018280546105de90610853565b801561062b5780601f106106005761010080835404028352916020019161062b565b820191906000526020600020905b81548152906001019060200180831161060e57829003601f168201915b50505091909252505050600d820154600f8301546010840154601185015460138601546014870154601590970154959694959394929360ff9092169290916001600160a01b03168c565b60006020828403121561068757600080fd5b5035919050565b600080604083850312156106a157600080fd5b8235915060208301356001600160a01b03811681146106bf57600080fd5b809150509250929050565b6000815180845260005b818110156106f0576020818501810151868301820152016106d4565b506000602082860101526020601f19601f83011685010191505092915050565b6008811061072e57634e487b7160e01b600052602160045260246000fd5b9052565b60006101808e835280602084015261074c8184018f6106ca565b90508281036040840152610760818e6106ca565b905060018060a01b03808d16606085015283820360808501526101008c51835260208d0151816020850152610797828501826106ca565b905060408e015184820360408601526107b082826106ca565b9150508260608f015116606085015260808e0151925082516080850152602083015160a085015260a08e015160c085015260c08e0151925083810360e08501526107fa81846106ca565b9450508b60a08601528a60c08601528960e086015261081b8186018a610710565b50505084610120830152836101408301526108426101608301846001600160a01b03169052565b9d9c50505050505050505050505050565b600181811c9082168061086757607f821691505b60208210810361088757634e487b7160e01b600052602260045260246000fd5b5091905056fea2646970667358221220c8e3f039d60d9669de258591e5961ba1ad996e59b3eeb4f4c9eba1958ef5ad8e64736f6c63430008140033","linkReferences":{}},"methodIdentifiers":{"SELLOUT_PROTOCOL_WALLET()":"e30228be","artistRegistryInstance()":"8dea15a1","boxOfficeInstance()":"a2b7d174","hasVotedForEmergencyRefund(bytes32,address)":"63c18a52","isArtistMapping(bytes32,address)":"bafd4eb0","organizerRegistryInstance()":"1cf2103e","referralInstance()":"c6ab848a","showToTicketProxy(bytes32)":"3deba964","showToVenueProxy(bytes32)":"e71aee7e","showVaultInstance()":"6a017891","shows(bytes32)":"fca46559","ticketFactoryInstance()":"e4ca73aa","venueFactoryInstance()":"9673b1e3","venueRegistryInstance()":"703ee4e5","votesForEmergencyRefund(bytes32)":"9ee0a14e"},"id":71}