{"abi":[{"type":"function","name":"SELLOUT_PROTOCOL_WALLET","inputs":[],"outputs":[{"name":"","type":"address","internalType":"address"}],"stateMutability":"view"},{"type":"function","name":"UPGRADE_INTERFACE_VERSION","inputs":[],"outputs":[{"name":"","type":"string","internalType":"string"}],"stateMutability":"view"},{"type":"function","name":"artistRegistryInstance","inputs":[],"outputs":[{"name":"","type":"address","internalType":"contract IArtistRegistry"}],"stateMutability":"view"},{"type":"function","name":"boxOfficeInstance","inputs":[],"outputs":[{"name":"","type":"address","internalType":"contract IBoxOffice"}],"stateMutability":"view"},{"type":"function","name":"cancelShow","inputs":[{"name":"showId","type":"bytes32","internalType":"bytes32"}],"outputs":[],"stateMutability":"nonpayable"},{"type":"function","name":"completeShow","inputs":[{"name":"showId","type":"bytes32","internalType":"bytes32"}],"outputs":[],"stateMutability":"nonpayable"},{"type":"function","name":"consumeTicketTier","inputs":[{"name":"showId","type":"bytes32","internalType":"bytes32"},{"name":"tierIndex","type":"uint256","internalType":"uint256"},{"name":"amount","type":"uint256","internalType":"uint256"}],"outputs":[],"stateMutability":"nonpayable"},{"type":"function","name":"getNumberOfVoters","inputs":[{"name":"showId","type":"bytes32","internalType":"bytes32"}],"outputs":[{"name":"","type":"uint256","internalType":"uint256"}],"stateMutability":"view"},{"type":"function","name":"getOrganizer","inputs":[{"name":"showId","type":"bytes32","internalType":"bytes32"}],"outputs":[{"name":"","type":"address","internalType":"address"}],"stateMutability":"view"},{"type":"function","name":"getShowById","inputs":[{"name":"showId","type":"bytes32","internalType":"bytes32"}],"outputs":[{"name":"name","type":"string","internalType":"string"},{"name":"description","type":"string","internalType":"string"},{"name":"organizer","type":"address","internalType":"address"},{"name":"artists","type":"address[]","internalType":"address[]"},{"name":"venue","type":"tuple","internalType":"struct VenueRegistryTypes.VenueInfo","components":[{"name":"venueId","type":"uint256","internalType":"uint256"},{"name":"name","type":"string","internalType":"string"},{"name":"bio","type":"string","internalType":"string"},{"name":"wallet","type":"address","internalType":"address"},{"name":"coordinates","type":"tuple","internalType":"struct VenueRegistryTypes.Coordinates","components":[{"name":"latitude","type":"int256","internalType":"int256"},{"name":"longitude","type":"int256","internalType":"int256"}]},{"name":"totalCapacity","type":"uint256","internalType":"uint256"},{"name":"streetAddress","type":"string","internalType":"string"}]},{"name":"ticketTiers","type":"tuple[]","internalType":"struct ShowTypes.TicketTier[]","components":[{"name":"name","type":"string","internalType":"string"},{"name":"price","type":"uint256","internalType":"uint256"},{"name":"ticketsAvailable","type":"uint256","internalType":"uint256"}]},{"name":"sellOutThreshold","type":"uint256","internalType":"uint256"},{"name":"totalCapacity","type":"uint256","internalType":"uint256"},{"name":"status","type":"uint8","internalType":"enum ShowTypes.Status"},{"name":"currencyAddress","type":"address","internalType":"address"}],"stateMutability":"view"},{"type":"function","name":"getShowStatus","inputs":[{"name":"showId","type":"bytes32","internalType":"bytes32"}],"outputs":[{"name":"","type":"uint8","internalType":"enum ShowTypes.Status"}],"stateMutability":"view"},{"type":"function","name":"getShowToTicketProxy","inputs":[{"name":"showId","type":"bytes32","internalType":"bytes32"}],"outputs":[{"name":"","type":"address","internalType":"address"}],"stateMutability":"view"},{"type":"function","name":"getTicketTierInfo","inputs":[{"name":"showId","type":"bytes32","internalType":"bytes32"},{"name":"tierIndex","type":"uint256","internalType":"uint256"}],"outputs":[{"name":"name","type":"string","internalType":"string"},{"name":"price","type":"uint256","internalType":"uint256"},{"name":"ticketsAvailable","type":"uint256","internalType":"uint256"}],"stateMutability":"view"},{"type":"function","name":"hasTicket","inputs":[{"name":"wallet","type":"address","internalType":"address"},{"name":"showId","type":"bytes32","internalType":"bytes32"}],"outputs":[{"name":"","type":"bool","internalType":"bool"}],"stateMutability":"view"},{"type":"function","name":"hasVotedForEmergencyRefund","inputs":[{"name":"","type":"bytes32","internalType":"bytes32"},{"name":"","type":"address","internalType":"address"}],"outputs":[{"name":"","type":"bool","internalType":"bool"}],"stateMutability":"view"},{"type":"function","name":"initialize","inputs":[{"name":"_selloutProtocolWallet","type":"address","internalType":"address"}],"outputs":[],"stateMutability":"nonpayable"},{"type":"function","name":"isArtist","inputs":[{"name":"user","type":"address","internalType":"address"},{"name":"showId","type":"bytes32","internalType":"bytes32"}],"outputs":[{"name":"","type":"bool","internalType":"bool"}],"stateMutability":"view"},{"type":"function","name":"isArtistMapping","inputs":[{"name":"","type":"bytes32","internalType":"bytes32"},{"name":"","type":"address","internalType":"address"}],"outputs":[{"name":"","type":"bool","internalType":"bool"}],"stateMutability":"view"},{"type":"function","name":"isOrganizer","inputs":[{"name":"user","type":"address","internalType":"address"},{"name":"showId","type":"bytes32","internalType":"bytes32"}],"outputs":[{"name":"","type":"bool","internalType":"bool"}],"stateMutability":"view"},{"type":"function","name":"organizerRegistryInstance","inputs":[],"outputs":[{"name":"","type":"address","internalType":"contract IOrganizerRegistry"}],"stateMutability":"view"},{"type":"function","name":"owner","inputs":[],"outputs":[{"name":"","type":"address","internalType":"address"}],"stateMutability":"view"},{"type":"function","name":"payout","inputs":[{"name":"showId","type":"bytes32","internalType":"bytes32"}],"outputs":[],"stateMutability":"nonpayable"},{"type":"function","name":"proposeShow","inputs":[{"name":"proposal","type":"tuple","internalType":"struct ShowTypes.ShowProposal","components":[{"name":"name","type":"string","internalType":"string"},{"name":"description","type":"string","internalType":"string"},{"name":"artists","type":"address[]","internalType":"address[]"},{"name":"coordinates","type":"tuple","internalType":"struct VenueRegistryTypes.Coordinates","components":[{"name":"latitude","type":"int256","internalType":"int256"},{"name":"longitude","type":"int256","internalType":"int256"}]},{"name":"radius","type":"uint256","internalType":"uint256"},{"name":"sellOutThreshold","type":"uint8","internalType":"uint8"},{"name":"totalCapacity","type":"uint256","internalType":"uint256"},{"name":"ticketTiers","type":"tuple[]","internalType":"struct ShowTypes.TicketTier[]","components":[{"name":"name","type":"string","internalType":"string"},{"name":"price","type":"uint256","internalType":"uint256"},{"name":"ticketsAvailable","type":"uint256","internalType":"uint256"}]},{"name":"split","type":"uint256[]","internalType":"uint256[]"},{"name":"currencyAddress","type":"address","internalType":"address"},{"name":"venueProposalParams","type":"tuple","internalType":"struct VenueTypes.VenueProposalParams","components":[{"name":"proposalPeriodDuration","type":"uint32","internalType":"uint32"},{"name":"proposalDateExtension","type":"uint32","internalType":"uint32"},{"name":"proposalDateMinimumFuture","type":"uint32","internalType":"uint32"},{"name":"proposalPeriodExtensionThreshold","type":"uint32","internalType":"uint32"}]}]}],"outputs":[{"name":"showId","type":"bytes32","internalType":"bytes32"}],"stateMutability":"nonpayable"},{"type":"function","name":"proxiableUUID","inputs":[],"outputs":[{"name":"","type":"bytes32","internalType":"bytes32"}],"stateMutability":"view"},{"type":"function","name":"referralInstance","inputs":[],"outputs":[{"name":"","type":"address","internalType":"contract ReferralModule"}],"stateMutability":"view"},{"type":"function","name":"refundBribe","inputs":[{"name":"showId","type":"bytes32","internalType":"bytes32"},{"name":"venueId","type":"uint256","internalType":"uint256"},{"name":"proposalIndex","type":"uint256","internalType":"uint256"}],"outputs":[],"stateMutability":"nonpayable"},{"type":"function","name":"refundTicket","inputs":[{"name":"showId","type":"bytes32","internalType":"bytes32"},{"name":"tokenId","type":"uint256","internalType":"uint256"}],"outputs":[],"stateMutability":"nonpayable"},{"type":"function","name":"renounceOwnership","inputs":[],"outputs":[],"stateMutability":"nonpayable"},{"type":"function","name":"setProtocolAddresses","inputs":[{"name":"_ticketFactory","type":"address","internalType":"address"},{"name":"_venueFactory","type":"address","internalType":"address"},{"name":"_referralContract","type":"address","internalType":"address"},{"name":"_artistRegistryContract","type":"address","internalType":"address"},{"name":"_organizerRegistryContract","type":"address","internalType":"address"},{"name":"_venueRegistryContract","type":"address","internalType":"address"},{"name":"_showVault","type":"address","internalType":"address"},{"name":"_boxOffice","type":"address","internalType":"address"}],"outputs":[],"stateMutability":"nonpayable"},{"type":"function","name":"setShowToTicketProxy","inputs":[{"name":"showId","type":"bytes32","internalType":"bytes32"},{"name":"ticketProxy","type":"address","internalType":"address"}],"outputs":[],"stateMutability":"nonpayable"},{"type":"function","name":"showToTicketProxy","inputs":[{"name":"","type":"bytes32","internalType":"bytes32"}],"outputs":[{"name":"","type":"address","internalType":"address"}],"stateMutability":"view"},{"type":"function","name":"showToVenueProxy","inputs":[{"name":"","type":"bytes32","internalType":"bytes32"}],"outputs":[{"name":"","type":"address","internalType":"address"}],"stateMutability":"view"},{"type":"function","name":"showVaultInstance","inputs":[],"outputs":[{"name":"","type":"address","internalType":"contract IShowVault"}],"stateMutability":"view"},{"type":"function","name":"shows","inputs":[{"name":"","type":"bytes32","internalType":"bytes32"}],"outputs":[{"name":"showId","type":"bytes32","internalType":"bytes32"},{"name":"name","type":"string","internalType":"string"},{"name":"description","type":"string","internalType":"string"},{"name":"organizer","type":"address","internalType":"address"},{"name":"venue","type":"tuple","internalType":"struct VenueRegistryTypes.VenueInfo","components":[{"name":"venueId","type":"uint256","internalType":"uint256"},{"name":"name","type":"string","internalType":"string"},{"name":"bio","type":"string","internalType":"string"},{"name":"wallet","type":"address","internalType":"address"},{"name":"coordinates","type":"tuple","internalType":"struct VenueRegistryTypes.Coordinates","components":[{"name":"latitude","type":"int256","internalType":"int256"},{"name":"longitude","type":"int256","internalType":"int256"}]},{"name":"totalCapacity","type":"uint256","internalType":"uint256"},{"name":"streetAddress","type":"string","internalType":"string"}]},{"name":"radius","type":"uint256","internalType":"uint256"},{"name":"sellOutThreshold","type":"uint256","internalType":"uint256"},{"name":"totalCapacity","type":"uint256","internalType":"uint256"},{"name":"status","type":"uint8","internalType":"enum ShowTypes.Status"},{"name":"expiry","type":"uint256","internalType":"uint256"},{"name":"showDate","type":"uint256","internalType":"uint256"},{"name":"currencyAddress","type":"address","internalType":"address"}],"stateMutability":"view"},{"type":"function","name":"ticketFactoryInstance","inputs":[],"outputs":[{"name":"","type":"address","internalType":"contract ITicketFactory"}],"stateMutability":"view"},{"type":"function","name":"transferOwnership","inputs":[{"name":"newOwner","type":"address","internalType":"address"}],"outputs":[],"stateMutability":"nonpayable"},{"type":"function","name":"updateShowDate","inputs":[{"name":"showId","type":"bytes32","internalType":"bytes32"},{"name":"newDate","type":"uint256","internalType":"uint256"}],"outputs":[],"stateMutability":"nonpayable"},{"type":"function","name":"updateShowVenue","inputs":[{"name":"showId","type":"bytes32","internalType":"bytes32"},{"name":"newVenue","type":"tuple","internalType":"struct VenueRegistryTypes.VenueInfo","components":[{"name":"venueId","type":"uint256","internalType":"uint256"},{"name":"name","type":"string","internalType":"string"},{"name":"bio","type":"string","internalType":"string"},{"name":"wallet","type":"address","internalType":"address"},{"name":"coordinates","type":"tuple","internalType":"struct VenueRegistryTypes.Coordinates","components":[{"name":"latitude","type":"int256","internalType":"int256"},{"name":"longitude","type":"int256","internalType":"int256"}]},{"name":"totalCapacity","type":"uint256","internalType":"uint256"},{"name":"streetAddress","type":"string","internalType":"string"}]}],"outputs":[],"stateMutability":"nonpayable"},{"type":"function","name":"updateStatus","inputs":[{"name":"showId","type":"bytes32","internalType":"bytes32"},{"name":"_status","type":"uint8","internalType":"enum ShowTypes.Status"}],"outputs":[],"stateMutability":"nonpayable"},{"type":"function","name":"updateStatusIfSoldOut","inputs":[{"name":"showId","type":"bytes32","internalType":"bytes32"}],"outputs":[],"stateMutability":"nonpayable"},{"type":"function","name":"upgradeToAndCall","inputs":[{"name":"newImplementation","type":"address","internalType":"address"},{"name":"data","type":"bytes","internalType":"bytes"}],"outputs":[],"stateMutability":"payable"},{"type":"function","name":"venueFactoryInstance","inputs":[],"outputs":[{"name":"","type":"address","internalType":"contract IVenueFactory"}],"stateMutability":"view"},{"type":"function","name":"venueRegistryInstance","inputs":[],"outputs":[{"name":"","type":"address","internalType":"contract IVenueRegistry"}],"stateMutability":"view"},{"type":"function","name":"voteForEmergencyRefund","inputs":[{"name":"showId","type":"bytes32","internalType":"bytes32"}],"outputs":[],"stateMutability":"nonpayable"},{"type":"function","name":"votesForEmergencyRefund","inputs":[{"name":"","type":"bytes32","internalType":"bytes32"}],"outputs":[{"name":"","type":"uint256","internalType":"uint256"}],"stateMutability":"view"},{"type":"function","name":"withdrawRefund","inputs":[{"name":"showId","type":"bytes32","internalType":"bytes32"}],"outputs":[],"stateMutability":"nonpayable"},{"type":"event","name":"BribeRefunded","inputs":[{"name":"showId","type":"bytes32","indexed":true,"internalType":"bytes32"},{"name":"venueId","type":"uint256","indexed":true,"internalType":"uint256"},{"name":"proposer","type":"address","indexed":true,"internalType":"address"},{"name":"bribeAmount","type":"uint256","indexed":false,"internalType":"uint256"},{"name":"paymentToken","type":"address","indexed":false,"internalType":"address"}],"anonymous":false},{"type":"event","name":"ERC20Deposited","inputs":[{"name":"showId","type":"bytes32","indexed":true,"internalType":"bytes32"},{"name":"tokenAddress","type":"address","indexed":true,"internalType":"address"},{"name":"depositor","type":"address","indexed":true,"internalType":"address"},{"name":"amount","type":"uint256","indexed":false,"internalType":"uint256"}],"anonymous":false},{"type":"event","name":"ExpiryUpdated","inputs":[{"name":"showId","type":"bytes32","indexed":true,"internalType":"bytes32"},{"name":"expiry","type":"uint256","indexed":false,"internalType":"uint256"}],"anonymous":false},{"type":"event","name":"Initialized","inputs":[{"name":"version","type":"uint64","indexed":false,"internalType":"uint64"}],"anonymous":false},{"type":"event","name":"OwnershipTransferred","inputs":[{"name":"previousOwner","type":"address","indexed":true,"internalType":"address"},{"name":"newOwner","type":"address","indexed":true,"internalType":"address"}],"anonymous":false},{"type":"event","name":"RefundWithdrawn","inputs":[{"name":"user","type":"address","indexed":true,"internalType":"address"},{"name":"showId","type":"bytes32","indexed":true,"internalType":"bytes32"},{"name":"amount","type":"uint256","indexed":false,"internalType":"uint256"}],"anonymous":false},{"type":"event","name":"ShowCancelled","inputs":[{"name":"showId","type":"bytes32","indexed":true,"internalType":"bytes32"},{"name":"reason","type":"string","indexed":false,"internalType":"string"}],"anonymous":false},{"type":"event","name":"ShowExpired","inputs":[{"name":"showId","type":"bytes32","indexed":true,"internalType":"bytes32"}],"anonymous":false},{"type":"event","name":"ShowProposed","inputs":[{"name":"showId","type":"bytes32","indexed":true,"internalType":"bytes32"},{"name":"organizer","type":"address","indexed":true,"internalType":"address"},{"name":"name","type":"string","indexed":false,"internalType":"string"},{"name":"artists","type":"address[]","indexed":false,"internalType":"address[]"},{"name":"description","type":"string","indexed":false,"internalType":"string"},{"name":"sellOutThreshold","type":"uint256","indexed":false,"internalType":"uint256"},{"name":"split","type":"uint256[]","indexed":false,"internalType":"uint256[]"},{"name":"currencyAddress","type":"address","indexed":false,"internalType":"address"}],"anonymous":false},{"type":"event","name":"StatusUpdated","inputs":[{"name":"showId","type":"bytes32","indexed":true,"internalType":"bytes32"},{"name":"status","type":"uint8","indexed":false,"internalType":"enum ShowTypes.Status"}],"anonymous":false},{"type":"event","name":"TicketRefunded","inputs":[{"name":"user","type":"address","indexed":true,"internalType":"address"},{"name":"showId","type":"bytes32","indexed":true,"internalType":"bytes32"},{"name":"refundAmount","type":"uint256","indexed":false,"internalType":"uint256"}],"anonymous":false},{"type":"event","name":"TicketTierConsumed","inputs":[{"name":"showId","type":"bytes32","indexed":true,"internalType":"bytes32"},{"name":"tierIndex","type":"uint256","indexed":true,"internalType":"uint256"},{"name":"amount","type":"uint256","indexed":false,"internalType":"uint256"}],"anonymous":false},{"type":"event","name":"Upgraded","inputs":[{"name":"implementation","type":"address","indexed":true,"internalType":"address"}],"anonymous":false},{"type":"event","name":"VenueUpdated","inputs":[{"name":"showId","type":"bytes32","indexed":true,"internalType":"bytes32"},{"name":"newVenue","type":"tuple","indexed":false,"internalType":"struct VenueRegistryTypes.VenueInfo","components":[{"name":"venueId","type":"uint256","internalType":"uint256"},{"name":"name","type":"string","internalType":"string"},{"name":"bio","type":"string","internalType":"string"},{"name":"wallet","type":"address","internalType":"address"},{"name":"coordinates","type":"tuple","internalType":"struct VenueRegistryTypes.Coordinates","components":[{"name":"latitude","type":"int256","internalType":"int256"},{"name":"longitude","type":"int256","internalType":"int256"}]},{"name":"totalCapacity","type":"uint256","internalType":"uint256"},{"name":"streetAddress","type":"string","internalType":"string"}]}],"anonymous":false},{"type":"error","name":"AddressEmptyCode","inputs":[{"name":"target","type":"address","internalType":"address"}]},{"type":"error","name":"ERC1967InvalidImplementation","inputs":[{"name":"implementation","type":"address","internalType":"address"}]},{"type":"error","name":"ERC1967NonPayable","inputs":[]},{"type":"error","name":"FailedInnerCall","inputs":[]},{"type":"error","name":"InvalidCapacity","inputs":[]},{"type":"error","name":"InvalidDescription","inputs":[]},{"type":"error","name":"InvalidInitialization","inputs":[]},{"type":"error","name":"InvalidLatitude","inputs":[]},{"type":"error","name":"InvalidLongitude","inputs":[]},{"type":"error","name":"InvalidName","inputs":[]},{"type":"error","name":"InvalidSellOutThreshold","inputs":[]},{"type":"error","name":"InvalidSplitArrayLength","inputs":[]},{"type":"error","name":"InvalidSplitSum","inputs":[]},{"type":"error","name":"InvalidVenueProposalParameters","inputs":[]},{"type":"error","name":"NotInitializing","inputs":[]},{"type":"error","name":"OwnableInvalidOwner","inputs":[{"name":"owner","type":"address","internalType":"address"}]},{"type":"error","name":"OwnableUnauthorizedAccount","inputs":[{"name":"account","type":"address","internalType":"address"}]},{"type":"error","name":"ReentrancyGuardReentrantCall","inputs":[]},{"type":"error","name":"UUPSUnauthorizedCallContext","inputs":[]},{"type":"error","name":"UUPSUnsupportedProxiableUUID","inputs":[{"name":"slot","type":"bytes32","internalType":"bytes32"}]}],"bytecode":{"object":"0x60a06040526008805460ff60a01b191690553060805234801561002157600080fd5b50608051615c946200004c6000396000818161373e0152818161376701526138ad0152615c946000f3fe60806040526004361061027d5760003560e01c80638da5cb5b1161014f578063c6ab848a116100c1578063e9acfa7c1161007a578063e9acfa7c14610891578063ef5023a5146108b1578063f2fde38b146108d1578063fc4bdfd4146108f1578063fca4655914610911578063fdc7066c1461094957600080fd5b8063c6ab848a146107bb578063cfefb3d5146107db578063e30228be146107fb578063e4ca73aa1461081b578063e61805461461083b578063e71aee7e1461085b57600080fd5b8063a110412c11610113578063a110412c146106c2578063a2b7d174146106e2578063a94dafab14610702578063ad3cb1cc14610722578063bafd4eb014610760578063c4d66de81461079b57600080fd5b80638da5cb5b146105df5780638dea15a11461061c5780639673b1e31461063c578063977cb89e1461065c5780639ee0a14e1461069557600080fd5b80634f1ef286116101f357806364ad6cd6116101ac57806364ad6cd61461051b5780636a0178911461053b578063703ee4e51461055b578063715018a61461057b5780637e3e39351461059057806385ffa16c146105bf57600080fd5b80634f1ef2861461044a57806352d1902d1461045d5780635c37da69146104805780635f198834146104a057806363c18a52146104c0578063644b5e59146104fb57600080fd5b80631cf2103e116102455780631cf2103e1461033957806327b1bf52146103715780633c60d2d6146103a75780633deba964146103c757806346c2c8a7146103fd5780634ed372da1461042a57600080fd5b806302c9a8b514610282578063054372ed146102b75780630a35906b146102d95780630b5c6364146102f9578063129e086b14610319575b600080fd5b34801561028e57600080fd5b506102a261029d3660046146d8565b61097f565b60405190151581526020015b60405180910390f35b3480156102c357600080fd5b506102d76102d2366004614704565b6109ac565b005b3480156102e557600080fd5b506102d76102f4366004614738565b610a99565b34801561030557600080fd5b506102d7610314366004614764565b610e3c565b34801561032557600080fd5b506102d7610334366004614789565b610eaa565b34801561034557600080fd5b50600554610359906001600160a01b031681565b6040516001600160a01b0390911681526020016102ae565b34801561037d57600080fd5b5061039161038c366004614789565b611370565b6040516102ae9a999897969594939291906148f5565b3480156103b357600080fd5b506102d76103c2366004614a07565b611924565b3480156103d357600080fd5b506103596103e2366004614789565b600b602052600090815260409020546001600160a01b031681565b34801561040957600080fd5b5061041d610418366004614789565b611cf5565b6040516102ae9190614a29565b34801561043657600080fd5b506102a26104453660046146d8565b6122ea565b6102d7610458366004614b71565b61230d565b34801561046957600080fd5b50610472612328565b6040519081526020016102ae565b34801561048c57600080fd5b506102a261049b3660046146d8565b612345565b3480156104ac57600080fd5b506102d76104bb366004614bd4565b6123cd565b3480156104cc57600080fd5b506102a26104db366004614764565b600f60209081526000928352604080842090915290825290205460ff1681565b34801561050757600080fd5b506102d7610516366004614738565b6124ad565b34801561052757600080fd5b506102d7610536366004614a07565b6125f9565b34801561054757600080fd5b50600754610359906001600160a01b031681565b34801561056757600080fd5b50600654610359906001600160a01b031681565b34801561058757600080fd5b506102d76126a0565b34801561059c57600080fd5b506105b06105ab366004614a07565b6126b4565b6040516102ae93929190614c7d565b3480156105cb57600080fd5b506104726105da366004614789565b6127d9565b3480156105eb57600080fd5b507f9016d09d72d40fdae2fd8ceac6b6234c7706214fd39c1cd1e609a0528c199300546001600160a01b0316610359565b34801561062857600080fd5b50600454610359906001600160a01b031681565b34801561064857600080fd5b50600154610359906001600160a01b031681565b34801561066857600080fd5b50610359610677366004614789565b6000908152600a60205260409020600301546001600160a01b031690565b3480156106a157600080fd5b506104726106b0366004614789565b600e6020526000908152604090205481565b3480156106ce57600080fd5b506104726106dd366004614f4d565b612860565b3480156106ee57600080fd5b50600854610359906001600160a01b031681565b34801561070e57600080fd5b506102d761071d3660046150ad565b612aba565b34801561072e57600080fd5b50610753604051806040016040528060058152602001640352e302e360dc1b81525081565b6040516102ae91906150f0565b34801561076c57600080fd5b506102a261077b366004614764565b600d60209081526000928352604080842090915290825290205460ff1681565b3480156107a757600080fd5b506102d76107b6366004615103565b612bc9565b3480156107c757600080fd5b50600354610359906001600160a01b031681565b3480156107e757600080fd5b506102d76107f6366004614789565b612cfa565b34801561080757600080fd5b50600054610359906001600160a01b031681565b34801561082757600080fd5b50600254610359906001600160a01b031681565b34801561084757600080fd5b506102d7610856366004614789565b612e9a565b34801561086757600080fd5b50610359610876366004614789565b600c602052600090815260409020546001600160a01b031681565b34801561089d57600080fd5b506102d76108ac366004614789565b612f99565b3480156108bd57600080fd5b506102d76108cc366004614789565b613154565b3480156108dd57600080fd5b506102d76108ec366004615103565b613229565b3480156108fd57600080fd5b506102d761090c366004614789565b613264565b34801561091d57600080fd5b5061093161092c366004614789565b613397565b6040516102ae9c9b9a99989796959493929190615120565b34801561095557600080fd5b50610359610964366004614789565b6000908152600b60205260409020546001600160a01b031690565b6000818152600d602090815260408083206001600160a01b038616845290915290205460ff165b92915050565b6000828152600c602052604090205482906001600160a01b03163314806109e957506000818152600b60205260409020546001600160a01b031633145b806109f357503330145b610a295760405162461bcd60e51b81526020600482015260026024820152612a2b60f11b60448201526064015b60405180910390fd5b6000838152600a60205260409020601101805483919060ff19166001836007811115610a5757610a576148bd565b0217905550827f8ed894b6f384ca9c829b9aa5b056bc9106a90845a15616607e975d4ad488ee6783604051610a8c9190614a29565b60405180910390a2505050565b6000838152600a602052604090206004601182015460ff166007811115610ac257610ac26148bd565b03610af45760405162461bcd60e51b8152602060048201526002602482015261216360f01b6044820152606401610a20565b6005810154839003610b185760405162461bcd60e51b8152600401610a20906151bf565b6000848152600c6020526040808220549051633d77f7eb60e01b8152600481018790526001600160a01b0390911691908290633d77f7eb90602401602060405180830381865afa158015610b70573d6000803e3d6000fd5b505050506040513d601f19601f82011682018060405250810190610b9491906151db565b9050838111610bca5760405162461bcd60e51b8152602060048201526002602482015261216960f01b6044820152606401610a20565b604051633198f7e760e21b815260048101879052602481018590526000906001600160a01b0384169063c663df9c90604401600060405180830381865afa158015610c19573d6000803e3d6000fd5b505050506040513d6000823e601f3d908101601f19168201604052610c4191908101906153b2565b8051519091508614610c7a5760405162461bcd60e51b815260206004820152600260248201526110bb60f11b6044820152606401610a20565b60408101516001600160a01b03163314610cbc5760405162461bcd60e51b815260206004820152600360248201526210b83960e91b6044820152606401610a20565b6000816060015111610cf55760405162461bcd60e51b8152602060048201526002602482015261084960f21b6044820152606401610a20565b60405163899a5ab760e01b815260048101889052602481018690526001600160a01b0384169063899a5ab790604401600060405180830381600087803b158015610d3e57600080fd5b505af1158015610d52573d6000803e3d6000fd5b5050600754606084015160c085015160405163194cc89b60e31b8152600481018d905260248101929092526001600160a01b039081166044830152336064830152909116925063ca6644d89150608401600060405180830381600087803b158015610dbc57600080fd5b505af1158015610dd0573d6000803e3d6000fd5b50505050336001600160a01b031686887f028f6cd258ee3664e34f77deb25ca97b00a5d18e45eba8987a259d5f2880a9f584606001518560c00151604051610e2b9291909182526001600160a01b0316602082015260400190565b60405180910390a450505050505050565b6008546001600160a01b03163314610e7c5760405162461bcd60e51b815260206004820152600360248201526221626f60e81b6044820152606401610a20565b6000918252600b602052604090912080546001600160a01b0319166001600160a01b03909216919091179055565b80610eb533826122ea565b80610ec55750610ec5338261097f565b610ee15760405162461bcd60e51b8152600401610a2090615489565b6000828152600a602052604090206003601182015460ff166007811115610f0a57610f0a6148bd565b14610f275760405162461bcd60e51b8152600401610a20906151bf565b6014810154610f39906202a3006154bb565b421015610f585760405162461bcd60e51b8152600401610a20906151bf565b60075460405163d23b85a360e01b8152600481018590526000916001600160a01b03169063d23b85a390602401602060405180830381865afa158015610fa2573d6000803e3d6000fd5b505050506040513d601f19601f82011682018060405250810190610fc691906154ce565b60075460405163213efcab60e01b8152600481018790526001600160a01b0380841660248301529293506000929091169063213efcab90604401602060405180830381865afa15801561101d573d6000803e3d6000fd5b505050506040513d601f19601f8201168201806040525081019061104191906151db565b905080600003611052575050505050565b60048301546000906110659060026154bb565b90506000816001600160401b0381111561108157611081614a37565b6040519080825280602002602001820160405280156110aa578160200160208202803683370190505b5060128601549091506000906001600160401b038111156110cd576110cd614a37565b6040519080825280602002602001820160405280156110f6578160200160208202803683370190505b50600387015483519192506001600160a01b031690839060009061111c5761111c6154eb565b60200260200101906001600160a01b031690816001600160a01b03168152505060005b60048701548110156111bb57866004018181548110611160576111606154eb565b6000918252602090912001546001600160a01b0316836111818360016154bb565b81518110611191576111916154eb565b6001600160a01b0390921660209283029190910190910152806111b381615501565b91505061113f565b5060088601546001600160a01b0316826111d660018661551a565b815181106111e6576111e66154eb565b6001600160a01b0390921660209283029190910182015260128701805460408051828502810185019091528181529283018282801561124457602002820191906000526020600020905b815481526020019060010190808311611230575b5050600754604051630b309b6560e21b81529495506001600160a01b031693632cc26d94935061128292508c9150869086908a908c9060040161555d565b600060405180830381600087803b15801561129c57600080fd5b505af11580156112b0573d6000803e3d6000fd5b505060075460405163fab49c3760e01b8152600481018c90526001600160a01b038981166024830152909116925063fab49c379150604401600060405180830381600087803b15801561130257600080fd5b505af1158015611316573d6000803e3d6000fd5b5050505060118601805460ff1916600490811790915560405189917f8ed894b6f384ca9c829b9aa5b056bc9106a90845a15616607e975d4ad488ee679161135d9190614a29565b60405180910390a25050505050505b5050565b6060806000606061137f6145a2565b6000868152600a60205260408120600e810154606092918291829182916001600160401b038111156113b3576113b3614a37565b60405190808252806020026020018201604052801561140857816020015b6113f560405180606001604052806060815260200160008152602001600081525090565b8152602001906001900390816113d15790505b50955060005b600e82015481101561151e5781600e01818154811061142f5761142f6154eb565b9060005260206000209060030201604051806060016040529081600082018054611458906155ab565b80601f0160208091040260200160405190810160405280929190818152602001828054611484906155ab565b80156114d15780601f106114a6576101008083540402835291602001916114d1565b820191906000526020600020905b8154815290600101906020018083116114b457829003601f168201915b5050505050815260200160018201548152602001600282015481525050878281518110611500576115006154eb565b6020026020010181905250808061151690615501565b91505061140e565b5080600101816002018260030160009054906101000a90046001600160a01b031683600401846005018a86600f015487601001548860110160009054906101000a900460ff168960150160009054906101000a90046001600160a01b0316898054611588906155ab565b80601f01602080910402602001604051908101604052809291908181526020018280546115b4906155ab565b80156116015780601f106115d657610100808354040283529160200191611601565b820191906000526020600020905b8154815290600101906020018083116115e457829003601f168201915b50505050509950888054611614906155ab565b80601f0160208091040260200160405190810160405280929190818152602001828054611640906155ab565b801561168d5780601f106116625761010080835404028352916020019161168d565b820191906000526020600020905b81548152906001019060200180831161167057829003601f168201915b50505050509850868054806020026020016040519081016040528092919081815260200182805480156116e957602002820191906000526020600020905b81546001600160a01b031681526001909101906020018083116116cb575b50505050509650856040518060e001604052908160008201548152602001600182018054611716906155ab565b80601f0160208091040260200160405190810160405280929190818152602001828054611742906155ab565b801561178f5780601f106117645761010080835404028352916020019161178f565b820191906000526020600020905b81548152906001019060200180831161177257829003601f168201915b505050505081526020016002820180546117a8906155ab565b80601f01602080910402602001604051908101604052809291908181526020018280546117d4906155ab565b80156118215780601f106117f657610100808354040283529160200191611821565b820191906000526020600020905b81548152906001019060200180831161180457829003601f168201915b505050918352505060038201546001600160a01b0316602080830191909152604080518082018252600485015481526005850154928101929092528201526006820154606082015260078201805460809092019161187e906155ab565b80601f01602080910402602001604051908101604052809291908181526020018280546118aa906155ab565b80156118f75780601f106118cc576101008083540402835291602001916118f7565b820191906000526020600020905b8154815290600101906020018083116118da57829003601f168201915b50505050508152505095509a509a509a509a509a509a509a509a509a509a50509193959799509193959799565b6000828152600b60205260409020546001600160a01b0316806119725760405162461bcd60e51b8152600401610a20906020808252600490820152632170787960e01b604082015260600190565b6000838152600a602052604081206011015460ff166007811115611998576119986148bd565b14806119c9575060056000848152600a602052604090206011015460ff1660078111156119c7576119c76148bd565b145b806119f9575060076000848152600a602052604090206011015460ff1660078111156119f7576119f76148bd565b145b611a2b5760405162461bcd60e51b8152602060048201526003602482015262213d7360e81b6044820152606401610a20565b600854604051632fef62b760e01b8152600481018590523360248201526044810184905282916001600160a01b031690632fef62b790606401602060405180830381865afa158015611a81573d6000803e3d6000fd5b505050506040513d601f19601f82011682018060405250810190611aa591906155df565b611ad65760405162461bcd60e51b8152602060048201526002602482015261085d60f21b6044820152606401610a20565b604051636d1d3b0b60e11b8152600481018590526024810184905260009081906001600160a01b0384169063da3a7616906044016040805180830381865afa158015611b26573d6000803e3d6000fd5b505050506040513d601f19601f82011682018060405250810190611b4a91906155fa565b9150915060008211611b835760405162461bcd60e51b8152602060048201526002602482015261084960f21b6044820152606401610a20565b60075460405163d23b85a360e01b8152600481018890526000916001600160a01b03169063d23b85a390602401602060405180830381865afa158015611bcd573d6000803e3d6000fd5b505050506040513d601f19601f82011682018060405250810190611bf191906154ce565b6000888152600a60205260409020600e0180549192509083908110611c1857611c186154eb565b600091825260208220600260039092020101805491611c3683615501565b9091555050600854604051635f1229f960e01b81526004810189905260248101889052604481018590526001600160a01b03838116606483015233608483015290911690635f1229f99060a401600060405180830381600087803b158015611c9d57600080fd5b505af1158015611cb1573d6000803e3d6000fd5b50506040518581528992503391507f6327daeea6ce26abf9f96cd84eee9cb40d1d5b88f7f5990914540e392446bf049060200160405180910390a350505050505050565b6000818152600a6020908152604080832081516101e0810190925280548252600181018054859484019190611d29906155ab565b80601f0160208091040260200160405190810160405280929190818152602001828054611d55906155ab565b8015611da25780601f10611d7757610100808354040283529160200191611da2565b820191906000526020600020905b815481529060010190602001808311611d8557829003601f168201915b50505050508152602001600282018054611dbb906155ab565b80601f0160208091040260200160405190810160405280929190818152602001828054611de7906155ab565b8015611e345780601f10611e0957610100808354040283529160200191611e34565b820191906000526020600020905b815481529060010190602001808311611e1757829003601f168201915b505050918352505060038201546001600160a01b03166020808301919091526004830180546040805182850281018501825282815294019392830182828015611ea657602002820191906000526020600020905b81546001600160a01b03168152600190910190602001808311611e88575b50505050508152602001600582016040518060e001604052908160008201548152602001600182018054611ed9906155ab565b80601f0160208091040260200160405190810160405280929190818152602001828054611f05906155ab565b8015611f525780601f10611f2757610100808354040283529160200191611f52565b820191906000526020600020905b815481529060010190602001808311611f3557829003601f168201915b50505050508152602001600282018054611f6b906155ab565b80601f0160208091040260200160405190810160405280929190818152602001828054611f97906155ab565b8015611fe45780601f10611fb957610100808354040283529160200191611fe4565b820191906000526020600020905b815481529060010190602001808311611fc757829003601f168201915b505050918352505060038201546001600160a01b03166020808301919091526040805180820182526004850154815260058501549281019290925282015260068201546060820152600782018054608090920191612041906155ab565b80601f016020809104026020016040519081016040528092919081815260200182805461206d906155ab565b80156120ba5780601f1061208f576101008083540402835291602001916120ba565b820191906000526020600020905b81548152906001019060200180831161209d57829003601f168201915b5050505050815250508152602001600d8201548152602001600e8201805480602002602001604051908101604052809291908181526020016000905b828210156121ce5783829060005260206000209060030201604051806060016040529081600082018054612129906155ab565b80601f0160208091040260200160405190810160405280929190818152602001828054612155906155ab565b80156121a25780601f10612177576101008083540402835291602001916121a2565b820191906000526020600020905b81548152906001019060200180831161218557829003601f168201915b5050505050815260200160018201548152602001600282015481525050815260200190600101906120f6565b50505090825250600f820154602082015260108201546040820152601182015460609091019060ff166007811115612208576122086148bd565b6007811115612219576122196148bd565b81526020016012820180548060200260200160405190810160405280929190818152602001828054801561226c57602002820191906000526020600020905b815481526020019060010190808311612258575b505050918352505060138201546020820152601482015460408201526015909101546001600160a01b0316606090910152610180810151909150421180156122cb5750600781610140015160078111156122c8576122c86148bd565b14155b156122d95750600792915050565b610140015192915050565b50919050565b6000908152600a60205260409020600301546001600160a01b0391821691161490565b612315613733565b61231e826137d8565b61136c82826137e0565b60006123326138a2565b50600080516020615c3f83398151915290565b600854604051635b9a1e0960e01b8152600481018390526001600160a01b0384811660248301526000928392911690635b9a1e0990604401600060405180830381865afa15801561239a573d6000803e3d6000fd5b505050506040513d6000823e601f3d908101601f191682016040526123c2919081019061561e565b511515949350505050565b600854600160a01b900460ff161561240c5760405162461bcd60e51b8152602060048201526002602482015261212160f01b6044820152606401610a20565b600180546001600160a01b03199081166001600160a01b03998a161790915560028054821699891699909917909855600380548916968816969096179095556004805488169487169490941790935560058054871692861692909217909155600680548616918516919091179055600780549094169083161790925560088054600160a01b939092166001600160a81b031990921691909117919091179055565b6000838152600b602052604090205483906001600160a01b031633146124f95760405162461bcd60e51b81526020600482015260016024820152601560fa1b6044820152606401610a20565b6000848152600a60205260409020600e810154841061253e5760405162461bcd60e51b81526020600482015260016024820152602160f81b6044820152606401610a20565b600081600e018581548110612555576125556154eb565b9060005260206000209060030201905083816002015410156125a15760405162461bcd60e51b815260206004820152600560248201526406040e8d2f60db1b6044820152606401610a20565b838160020160008282546125b5919061551a565b9091555050604051848152859087907fb23124a400670af3347ce475459c187bbba871f316e2d1d91ae115a762def0209060200160405180910390a3505050505050565b6000828152600c602052604090205482906001600160a01b031633146126455760405162461bcd60e51b81526020600482015260016024820152602b60f91b6044820152606401610a20565b60026000848152600a602052604090206011015460ff16600781111561266d5761266d6148bd565b1461268a5760405162461bcd60e51b8152600401610a20906151bf565b506000918252600a602052604090912060140155565b6126a86138eb565b6126b26000613946565b565b6000828152600a60205260408120600e015460609190819084106126fe5760405162461bcd60e51b81526020600482015260016024820152601d60fa1b6044820152606401610a20565b6000858152600a60205260408120600e01805486908110612721576127216154eb565b90600052602060002090600302019050806000018160010154826002015482805461274b906155ab565b80601f0160208091040260200160405190810160405280929190818152602001828054612777906155ab565b80156127c45780601f10612799576101008083540402835291602001916127c4565b820191906000526020600020905b8154815290600101906020018083116127a757829003601f168201915b50505050509250935093509350509250925092565b6000818152600a602052604081206001825b60048301548110156128585760038301546004840180546001600160a01b03909216918390811061281e5761281e6154eb565b6000918252602090912001546001600160a01b031614612846578161284281615501565b9250505b8061285081615501565b9150506127eb565b509392505050565b6005546040516329e7dbd960e01b81523360048201526000916001600160a01b0316906329e7dbd990602401602060405180830381865afa1580156128a9573d6000803e3d6000fd5b505050506040513d601f19601f820116820180604052508101906128cd91906155df565b6128ff5760405162461bcd60e51b815260206004820152600360248201526221724f60e81b6044820152606401610a20565b60005b8260400151518110156129f457600454604084015180516001600160a01b03909216916364fd288691908490811061293c5761293c6154eb565b60200260200101516040518263ffffffff1660e01b815260040161296f91906001600160a01b0391909116815260200190565b602060405180830381865afa15801561298c573d6000803e3d6000fd5b505050506040513d601f19601f820116820180604052508101906129b091906155df565b6129e25760405162461bcd60e51b815260206004820152600360248201526221724160e81b6044820152606401610a20565b806129ec81615501565b915050612902565b506129fe826139b7565b612a0782613bf2565b60085460005460405163083fb40160e11b8152600481018490526001600160a01b039182166024820152929350169063107f680290604401600060405180830381600087803b158015612a5957600080fd5b505af1158015612a6d573d6000803e3d6000fd5b5050600054610140850151805160208201516040830151606090930151612ab596508795506001600160a01b039094169363ffffffff92831693918316929182169116613ff5565b919050565b6000828152600c602052604090205482906001600160a01b03163314612b065760405162461bcd60e51b81526020600482015260016024820152602b60f91b6044820152606401610a20565b6000838152600a602052604081206011015460ff166007811115612b2c57612b2c6148bd565b1480612b5d575060026000848152600a602052604090206011015460ff166007811115612b5b57612b5b6148bd565b145b612b795760405162461bcd60e51b8152600401610a20906151bf565b6000838152600a602052604090208290600501612b9682826157c1565b905050827f4af00802913ced6ade1d9ae285d2baa3b45a3d2867a08e13ea3bb5b950b8faac83604051610a8c9190615984565b7ff0c57e16840df040f15088dc2f81fe391c3923bec73e23a9662efc9c229c6a008054600160401b810460ff1615906001600160401b0316600081158015612c0e5750825b90506000826001600160401b03166001148015612c2a5750303b155b905081158015612c38575080155b15612c565760405163f92ee8a960e01b815260040160405180910390fd5b845467ffffffffffffffff191660011785558315612c8057845460ff60401b1916600160401b1785555b612c88614128565b612c9186614138565b600080546001600160a01b0319166001600160a01b0388161790558315612cf257845460ff60401b19168555604051600181527fc7f505b2f371ae2175ee4913f4499e1f2633a7b5936321eed1cdaeb6115181d29060200160405180910390a15b505050505050565b80612d0533826122ea565b80612d155750612d15338261097f565b612d315760405162461bcd60e51b8152600401610a2090615489565b6000828152600a602052604090206004601182015460ff166007811115612d5a57612d5a6148bd565b14612d775760405162461bcd60e51b8152600401610a20906151bf565b6014810154612d89906202a3006154bb565b421015612dbe5760405162461bcd60e51b81526020600482015260036024820152620858db60ea1b6044820152606401610a20565b60075460405163d23b85a360e01b8152600481018590526000916001600160a01b03169063d23b85a390602401602060405180830381865afa158015612e08573d6000803e3d6000fd5b505050506040513d601f19601f82011682018060405250810190612e2c91906154ce565b6007546040516306e3daa360e51b8152600481018790526001600160a01b03808416602483015292935091169063dc7b546090604401600060405180830381600087803b158015612e7c57600080fd5b505af1158015612e90573d6000803e3d6000fd5b5050505050505050565b6000818152600b602052604090205481906001600160a01b03163314612ee65760405162461bcd60e51b81526020600482015260016024820152601560fa1b6044820152606401610a20565b6000828152600a60205260408082206008549151630610418760e41b8152600481018690529092916001600160a01b031690636104187090602401602060405180830381865afa158015612f3e573d6000803e3d6000fd5b505050506040513d601f19601f82011682018060405250810190612f6291906151db565b905081600f01548260100154612f789190615a4e565b612f83826064615a4e565b10612f9357612f938460016109ac565b50505050565b612fa1614149565b6000818152600a602052604090206006601182015460ff166007811115612fca57612fca6148bd565b1480612fee57506007601182015460ff166007811115612fec57612fec6148bd565b145b8061301157506005601182015460ff16600781111561300f5761300f6148bd565b145b8061303457506000601182015460ff166007811115613032576130326148bd565b145b6130505760405162461bcd60e51b8152600401610a20906151bf565b60075460405163d23b85a360e01b8152600481018490526000916001600160a01b03169063d23b85a390602401602060405180830381865afa15801561309a573d6000803e3d6000fd5b505050506040513d601f19601f820116820180604052508101906130be91906154ce565b600754604051632464077360e21b8152600481018690526001600160a01b0380841660248301529293509116906391901dcc90604401600060405180830381600087803b15801561310e57600080fd5b505af1158015613122573d6000803e3d6000fd5b50505050505061315160017f9b779b17422d0df92223018b32b4d1fa46e071723d6817e2486d003becc55f0055565b50565b8061315f33826122ea565b8061316f575061316f338261097f565b61318b5760405162461bcd60e51b8152600401610a2090615489565b6000828152600a602052604090206001601182015460ff1660078111156131b4576131b46148bd565b14806131d857506002601182015460ff1660078111156131d6576131d66148bd565b145b806131fb57506003601182015460ff1660078111156131f9576131f96148bd565b145b6132175760405162461bcd60e51b8152600401610a20906151bf565b601101805460ff191660051790555050565b6132316138eb565b6001600160a01b03811661325b57604051631e4fbdf760e01b815260006004820152602401610a20565b61315181613946565b61326e3382612345565b6132a35760405162461bcd60e51b81526020600482015260066024820152650dcde40e8d2f60d31b6044820152606401610a20565b60046000828152600a602052604090206011015460ff1660078111156132cb576132cb6148bd565b146132e85760405162461bcd60e51b8152600401610a20906151bf565b6000818152600f6020908152604080832033845290915290205460ff16156133385760405162461bcd60e51b81526020600482015260036024820152621090bb60e91b6044820152606401610a20565b6000818152600f602090815260408083203384528252808320805460ff19166001908117909155848452600e909252822080549192909161337a9084906154bb565b909155506133899050816141b9565b15613151576131518161425d565b600a60205260009081526040902080546001820180549192916133b9906155ab565b80601f01602080910402602001604051908101604052809291908181526020018280546133e5906155ab565b80156134325780601f1061340757610100808354040283529160200191613432565b820191906000526020600020905b81548152906001019060200180831161341557829003601f168201915b505050505090806002018054613447906155ab565b80601f0160208091040260200160405190810160405280929190818152602001828054613473906155ab565b80156134c05780601f10613495576101008083540402835291602001916134c0565b820191906000526020600020905b8154815290600101906020018083116134a357829003601f168201915b5050505050908060030160009054906101000a90046001600160a01b031690806005016040518060e001604052908160008201548152602001600182018054613508906155ab565b80601f0160208091040260200160405190810160405280929190818152602001828054613534906155ab565b80156135815780601f1061355657610100808354040283529160200191613581565b820191906000526020600020905b81548152906001019060200180831161356457829003601f168201915b5050505050815260200160028201805461359a906155ab565b80601f01602080910402602001604051908101604052809291908181526020018280546135c6906155ab565b80156136135780601f106135e857610100808354040283529160200191613613565b820191906000526020600020905b8154815290600101906020018083116135f657829003601f168201915b505050918352505060038201546001600160a01b03166020808301919091526040805180820182526004850154815260058501549281019290925282015260068201546060820152600782018054608090920191613670906155ab565b80601f016020809104026020016040519081016040528092919081815260200182805461369c906155ab565b80156136e95780601f106136be576101008083540402835291602001916136e9565b820191906000526020600020905b8154815290600101906020018083116136cc57829003601f168201915b50505091909252505050600d820154600f8301546010840154601185015460138601546014870154601590970154959694959394929360ff9092169290916001600160a01b03168c565b306001600160a01b037f00000000000000000000000000000000000000000000000000000000000000001614806137ba57507f00000000000000000000000000000000000000000000000000000000000000006001600160a01b03166137ae600080516020615c3f833981519152546001600160a01b031690565b6001600160a01b031614155b156126b25760405163703e46dd60e11b815260040160405180910390fd5b6131516138eb565b816001600160a01b03166352d1902d6040518163ffffffff1660e01b8152600401602060405180830381865afa92505050801561383a575060408051601f3d908101601f19168201909252613837918101906151db565b60015b61386257604051634c9c8ce360e01b81526001600160a01b0383166004820152602401610a20565b600080516020615c3f833981519152811461389357604051632a87526960e21b815260048101829052602401610a20565b61389d83836142de565b505050565b306001600160a01b037f000000000000000000000000000000000000000000000000000000000000000016146126b25760405163703e46dd60e11b815260040160405180910390fd5b3361391d7f9016d09d72d40fdae2fd8ceac6b6234c7706214fd39c1cd1e609a0528c199300546001600160a01b031690565b6001600160a01b0316146126b25760405163118cdaa760e01b8152336004820152602401610a20565b7f9016d09d72d40fdae2fd8ceac6b6234c7706214fd39c1cd1e609a0528c19930080546001600160a01b031981166001600160a01b03848116918217845560405192169182907f8be0079c531659141344cd1fd0a4f28419497f9722a3daafe3b4186f6b6457e090600090a3505050565b8051516000036139da5760405163430f13b360e01b815260040160405180910390fd5b60008160800151116139ff576040516331278a8760e01b815260040160405180910390fd5b6020810151511580613a1757506103e8816020015151115b15613a35576040516340132f1f60e01b815260040160405180910390fd5b60328160c0015111613a5a576040516331278a8760e01b815260040160405180910390fd5b60328160a0015160ff161080613a77575060648160a0015160ff16115b15613a955760405163ad7d3a4d60e01b815260040160405180910390fd5b60608101515163055d4a7f191380613ab5575060608101515163055d4a80125b15613ad35760405163c2df0dc560e01b815260040160405180910390fd5b630aba94ff198160600151602001511280613af95750630aba9500816060015160200151135b15613b175760405163016cb17f60e71b815260040160405180910390fd5b6107088161014001516000015163ffffffff161015613b4957604051631e68fc9d60e21b815260040160405180910390fd5b61012c8161014001516020015163ffffffff161015613b7b57604051631e68fc9d60e21b815260040160405180910390fd5b610a8c8161014001516040015163ffffffff161015613bad57604051631e68fc9d60e21b815260040160405180910390fd5b60788161014001516060015163ffffffff161015613bde57604051631e68fc9d60e21b815260040160405180910390fd5b613151816101000151826040015151614334565b805160408083015160608401518051602091820151608087015160a088015160c08901516101208a01519751600099613c32999098979091339101615a65565b60408051601f1981840301815291815281516020928301206000818152600a90935291208351919250906001820190613c6b9082615ad5565b5060208301516002820190613c809082615ad5565b506003810180546001600160a01b0319163317905560408301518051613cb0916004840191602090910190614603565b506040805160e081018252600080825282516020818101855282825280840191825284518082018652838152848601526060808501849052880151608085015260c08089015160a086015285519182019095529182529282015280516005840190815591519091906006840190613d279082615ad5565b5060408201516002820190613d3c9082615ad5565b5060608201516003820180546001600160a01b0319166001600160a01b0390921691909117905560808201518051600483015560200151600582015560a0820151600682015560c08201516007820190613d969082615ad5565b5050506080830151600d82015560a083015160ff16600f82015560c0830151601082015560118101805460ff191690556101008301518051613de2916012840191602090910190614668565b50613df04262278d006154bb565b6013820155600060148201556101208301516015820180546001600160a01b0319166001600160a01b0392831690811790915560075460405163e8aa2e5f60e01b81526004810186905260248101929092529091169063e8aa2e5f90604401600060405180830381600087803b158015613e6957600080fd5b505af1158015613e7d573d6000803e3d6000fd5b5050505060005b8360e0015151811015613f065781600e018460e001518281518110613eab57613eab6154eb565b60209081029190910181015182546001810184556000938452919092208251600390920201908190613edd9082615ad5565b506020820151600182015560409091015160029091015580613efe81615501565b915050613e84565b5060005b836040015151811015613f88576001600d6000858152602001908152602001600020600086604001518481518110613f4457613f446154eb565b6020908102919091018101516001600160a01b03168252810191909152604001600020805460ff191691151591909117905580613f8081615501565b915050613f0a565b50336001600160a01b0316827fa01783f955984485ce010e7dc2b7745239040a2b48640ffd2a56fb065911fc688560000151866040015187602001518860a001518961010001518a6101200151604051613fe796959493929190615b8e565b60405180910390a350919050565b600154604051634b84567160e11b81526001600160a01b038781166004830152602482018790526044820186905260648201859052608482018490526000921690639708ace29060a4016020604051808303816000875af115801561405e573d6000803e3d6000fd5b505050506040513d601f19601f8201168201806040525081019061408291906154ce565b6007546006546040516301156c6760e71b81523060048201526001600160a01b0392831660248201529082166044820152919250821690638ab6338090606401600060405180830381600087803b1580156140dc57600080fd5b505af11580156140f0573d6000803e3d6000fd5b505050600097885250600c602052604090962080546001600160a01b0319166001600160a01b03909716969096179095555050505050565b6141306143c7565b6126b2614410565b6141406143c7565b61315181614418565b7f9b779b17422d0df92223018b32b4d1fa46e071723d6817e2486d003becc55f0080546001190161418d57604051633ee5aeb560e01b815260040160405180910390fd5b60029055565b60017f9b779b17422d0df92223018b32b4d1fa46e071723d6817e2486d003becc55f0055565b6000818152600e6020526040808220546008549151630610418760e41b815260048101859052909183916001600160a01b0390911690636104187090602401602060405180830381865afa158015614215573d6000803e3d6000fd5b505050506040513d601f19601f8201168201806040525081019061423991906151db565b90506064614248826042615a4e565b6142529190615c00565b909110159392505050565b6000818152600a6020526040902060110180546005919060ff19166001830217905550807f6a409f0f8d124fc3c3a9f5c354dc2901c33e711b0a6f705e8682307426329fb86040516142d39060208082526010908201526f115b595c99d95b98de481499599d5b9960821b604082015260600190565b60405180910390a250565b6142e782614420565b6040516001600160a01b038316907fbc7cd75a20ee27fd9adebab32041f755214dbc6bffa90cc0225b39da2e5c2d3b90600090a280511561432c5761389d8282614485565b61136c6144fb565b61433f8160026154bb565b82511461435f576040516328e525af60e21b815260040160405180910390fd5b6000805b83518110156143a55783818151811061437e5761437e6154eb565b60200260200101518261439191906154bb565b91508061439d81615501565b915050614363565b508060641461389d576040516317b5e2db60e01b815260040160405180910390fd5b7ff0c57e16840df040f15088dc2f81fe391c3923bec73e23a9662efc9c229c6a0054600160401b900460ff166126b257604051631afcd79f60e31b815260040160405180910390fd5b6141936143c7565b6132316143c7565b806001600160a01b03163b60000361445657604051634c9c8ce360e01b81526001600160a01b0382166004820152602401610a20565b600080516020615c3f83398151915280546001600160a01b0319166001600160a01b0392909216919091179055565b6060600080846001600160a01b0316846040516144a29190615c22565b600060405180830381855af49150503d80600081146144dd576040519150601f19603f3d011682016040523d82523d6000602084013e6144e2565b606091505b50915091506144f285838361451a565b95945050505050565b34156126b25760405163b398979f60e01b815260040160405180910390fd5b60608261452f5761452a82614579565b614572565b815115801561454657506001600160a01b0384163b155b1561456f57604051639996b31560e01b81526001600160a01b0385166004820152602401610a20565b50805b9392505050565b8051156145895780518082602001fd5b604051630a12f52160e11b815260040160405180910390fd5b6040518060e0016040528060008152602001606081526020016060815260200160006001600160a01b031681526020016145ef604051806040016040528060008152602001600081525090565b815260200160008152602001606081525090565b828054828255906000526020600020908101928215614658579160200282015b8281111561465857825182546001600160a01b0319166001600160a01b03909116178255602090920191600190910190614623565b506146649291506146a3565b5090565b828054828255906000526020600020908101928215614658579160200282015b82811115614658578251825591602001919060010190614688565b5b8082111561466457600081556001016146a4565b6001600160a01b038116811461315157600080fd5b8035612ab5816146b8565b600080604083850312156146eb57600080fd5b82356146f6816146b8565b946020939093013593505050565b6000806040838503121561471757600080fd5b8235915060208301356008811061472d57600080fd5b809150509250929050565b60008060006060848603121561474d57600080fd5b505081359360208301359350604090920135919050565b6000806040838503121561477757600080fd5b82359150602083013561472d816146b8565b60006020828403121561479b57600080fd5b5035919050565b60005b838110156147bd5781810151838201526020016147a5565b50506000910152565b600081518084526147de8160208601602086016147a2565b601f01601f19169290920160200192915050565b600081518084526020808501945080840160005b8381101561482b5781516001600160a01b031687529582019590820190600101614806565b509495945050505050565b6000610100825184526020830151816020860152614856828601826147c6565b9150506040830151848203604086015261487082826147c6565b91505060018060a01b036060840151166060850152608083015180516080860152602081015160a08601525060a083015160c085015260c083015184820360e08601526144f282826147c6565b634e487b7160e01b600052602160045260246000fd5b600881106148f157634e487b7160e01b600052602160045260246000fd5b9052565b60006101408083526149098184018e6147c6565b905060208382038185015261491e828e6147c6565b9150604060018060a01b038d1681860152606085840381870152614942848e6147f2565b93508584036080870152614956848d614836565b935085840360a0870152838b518086528486019150848160051b870101858e0160005b838110156149c257888303601f190185528151805187855261499d888601826147c6565b828b0151868c0152918901519489019490945294880194925090870190600101614979565b5050809750505050505050508560c08301528460e08301526149e86101008301856148d3565b6001600160a01b0383166101208301529b9a5050505050505050505050565b60008060408385031215614a1a57600080fd5b50508035926020909101359150565b602081016109a682846148d3565b634e487b7160e01b600052604160045260246000fd5b604080519081016001600160401b0381118282101715614a6f57614a6f614a37565b60405290565b604051606081016001600160401b0381118282101715614a6f57614a6f614a37565b60405161016081016001600160401b0381118282101715614a6f57614a6f614a37565b60405160e081016001600160401b0381118282101715614a6f57614a6f614a37565b604051601f8201601f191681016001600160401b0381118282101715614b0457614b04614a37565b604052919050565b60006001600160401b03821115614b2557614b25614a37565b50601f01601f191660200190565b6000614b46614b4184614b0c565b614adc565b9050828152838383011115614b5a57600080fd5b828260208301376000602084830101529392505050565b60008060408385031215614b8457600080fd5b8235614b8f816146b8565b915060208301356001600160401b03811115614baa57600080fd5b8301601f81018513614bbb57600080fd5b614bca85823560208401614b33565b9150509250929050565b600080600080600080600080610100898b031215614bf157600080fd5b8835614bfc816146b8565b97506020890135614c0c816146b8565b96506040890135614c1c816146b8565b95506060890135614c2c816146b8565b94506080890135614c3c816146b8565b935060a0890135614c4c816146b8565b925060c0890135614c5c816146b8565b915060e0890135614c6c816146b8565b809150509295985092959890939650565b606081526000614c9060608301866147c6565b60208301949094525060400152919050565b600082601f830112614cb357600080fd5b61457283833560208501614b33565b60006001600160401b03821115614cdb57614cdb614a37565b5060051b60200190565b600082601f830112614cf657600080fd5b81356020614d06614b4183614cc2565b82815260059290921b84018101918181019086841115614d2557600080fd5b8286015b84811015614d49578035614d3c816146b8565b8352918301918301614d29565b509695505050505050565b600060408284031215614d6657600080fd5b614d6e614a4d565b9050813581526020820135602082015292915050565b803560ff81168114612ab557600080fd5b600082601f830112614da657600080fd5b81356020614db6614b4183614cc2565b82815260059290921b84018101918181019086841115614dd557600080fd5b8286015b84811015614d495780356001600160401b0380821115614df95760008081fd5b908801906060828b03601f1901811315614e135760008081fd5b614e1b614a75565b8784013583811115614e2d5760008081fd5b614e3b8d8a83880101614ca2565b82525060408481013589830152919093013590830152508352918301918301614dd9565b600082601f830112614e7057600080fd5b81356020614e80614b4183614cc2565b82815260059290921b84018101918181019086841115614e9f57600080fd5b8286015b84811015614d495780358352918301918301614ea3565b803563ffffffff81168114612ab557600080fd5b600060808284031215614ee057600080fd5b604051608081018181106001600160401b0382111715614f0257614f02614a37565b604052905080614f1183614eba565b8152614f1f60208401614eba565b6020820152614f3060408401614eba565b6040820152614f4160608401614eba565b60608201525092915050565b600060208284031215614f5f57600080fd5b81356001600160401b0380821115614f7657600080fd5b908301906101e08286031215614f8b57600080fd5b614f93614a97565b823582811115614fa257600080fd5b614fae87828601614ca2565b825250602083013582811115614fc357600080fd5b614fcf87828601614ca2565b602083015250604083013582811115614fe757600080fd5b614ff387828601614ce5565b6040830152506150068660608501614d54565b606082015260a0830135608082015261502160c08401614d84565b60a082015260e083013560c0820152610100808401358381111561504457600080fd5b61505088828701614d95565b60e084015250610120808501358481111561506a57600080fd5b61507689828801614e5f565b8385015250610140935061508b8486016146cd565b908301525061509e866101608501614ece565b91810191909152949350505050565b600080604083850312156150c057600080fd5b8235915060208301356001600160401b038111156150dd57600080fd5b8301610100818603121561472d57600080fd5b60208152600061457260208301846147c6565b60006020828403121561511557600080fd5b8135614572816146b8565b60006101808e835280602084015261513a8184018f6147c6565b9050828103604084015261514e818e6147c6565b6001600160a01b038d811660608601528482036080860152909150615173828d614836565b92508a60a08501528960c08501528860e08501526151956101008501896148d3565b866101208501528561014085015280851661016085015250509d9c50505050505050505050505050565b602080825260029082015261217360f01b604082015260600190565b6000602082840312156151ed57600080fd5b5051919050565b600082601f83011261520557600080fd5b8151615213614b4182614b0c565b81815284602083860101111561522857600080fd5b6152398260208301602087016147a2565b949350505050565b8051612ab5816146b8565b60006040828403121561525e57600080fd5b615266614a4d565b9050815181526020820151602082015292915050565b6000610100828403121561528f57600080fd5b615297614aba565b90508151815260208201516001600160401b03808211156152b757600080fd5b6152c3858386016151f4565b602084015260408401519150808211156152dc57600080fd5b6152e8858386016151f4565b60408401526152f960608501615241565b606084015261530b856080860161524c565b608084015260c084015160a084015260e084015191508082111561532e57600080fd5b5061533b848285016151f4565b60c08301525092915050565b600082601f83011261535857600080fd5b81516020615368614b4183614cc2565b82815260059290921b8401810191818101908684111561538757600080fd5b8286015b84811015614d49578051835291830191830161538b565b80518015158114612ab557600080fd5b6000602082840312156153c457600080fd5b81516001600160401b03808211156153db57600080fd5b9083019060e082860312156153ef57600080fd5b6153f7614aba565b82518281111561540657600080fd5b6154128782860161527c565b82525060208301518281111561542757600080fd5b61543387828601615347565b60208301525061544560408401615241565b6040820152606083015160608201526080830151608082015261546a60a084016153a2565b60a082015261547b60c08401615241565b60c082015295945050505050565b6020808252600290820152614f4160f01b604082015260600190565b634e487b7160e01b600052601160045260246000fd5b808201808211156109a6576109a66154a5565b6000602082840312156154e057600080fd5b8151614572816146b8565b634e487b7160e01b600052603260045260246000fd5b600060018201615513576155136154a5565b5060010190565b818103818111156109a6576109a66154a5565b600081518084526020808501945080840160005b8381101561482b57815187529582019590820190600101615541565b85815260a06020820152600061557660a08301876147f2565b8281036040840152615588818761552d565b606084019590955250506001600160a01b03919091166080909101529392505050565b600181811c908216806155bf57607f821691505b6020821081036122e457634e487b7160e01b600052602260045260246000fd5b6000602082840312156155f157600080fd5b614572826153a2565b6000806040838503121561560d57600080fd5b505080516020909101519092909150565b60006020828403121561563057600080fd5b81516001600160401b0381111561564657600080fd5b61523984828501615347565b6000808335601e1984360301811261566957600080fd5b8301803591506001600160401b0382111561568357600080fd5b60200191503681900382131561569857600080fd5b9250929050565b601f82111561389d57600081815260208120601f850160051c810160208610156156c65750805b601f850160051c820191505b81811015612cf2578281556001016156d2565b600019600383901b1c191660019190911b1790565b6001600160401b0383111561571157615711614a37565b6157258361571f83546155ab565b8361569f565b6000601f84116001811461575357600085156157415750838201355b61574b86826156e5565b8455506157ad565b600083815260209020601f19861690835b828110156157845786850135825560209485019460019092019101615764565b50868210156157a15760001960f88860031b161c19848701351681555b505060018560011b0183555b5050505050565b600081356109a6816146b8565b81358155600180820160206157d881860186615652565b6001600160401b038111156157ef576157ef614a37565b615803816157fd86546155ab565b8661569f565b6000601f821160018114615831576000831561581f5750838201355b61582984826156e5565b875550615886565b600086815260209020601f19841690835b8281101561585f5786850135825593870193908901908701615842565b508482101561587c5760001960f88660031b161c19848701351681555b50508683881b0186555b5050505050505061589a6040830183615652565b6158a88183600286016156fa565b50506158dd6158b9606084016157b4565b6003830180546001600160a01b0319166001600160a01b0392909216919091179055565b6080820135600482015560a0820135600582015560c0820135600682015561590860e0830183615652565b612f938183600786016156fa565b6000808335601e1984360301811261592d57600080fd5b83016020810192503590506001600160401b0381111561594c57600080fd5b80360382131561569857600080fd5b81835281816020850137506000828201602090810191909152601f909101601f19169091010190565b6020815281356020820152600061599e6020840184615916565b6101008060408601526159b66101208601838561595b565b92506159c56040870187615916565b9250601f19808786030160608801526159df85858461595b565b9450606088013593506159f1846146b8565b60018060a01b0384166080880152608088013560a088015260a088013560c088015260c088013560e0880152615a2a60e0890189615916565b9450915080878603018388015250615a4384848361595b565b979650505050505050565b80820281158282048414176109a6576109a66154a5565b6000610120808352615a798184018d6147c6565b90508281036020840152615a8d818c6147f2565b604084019a909a5250506060810196909652608086019490945260ff9290921660a085015260c08401526001600160a01b0390811660e0840152166101009091015292915050565b81516001600160401b03811115615aee57615aee614a37565b615b0281615afc84546155ab565b8461569f565b602080601f831160018114615b315760008415615b1f5750858301515b615b2985826156e5565b865550612cf2565b600085815260208120601f198616915b82811015615b6057888601518255948401946001909101908401615b41565b5085821015615b7e5787850151600019600388901b60f8161c191681555b5050505050600190811b01905550565b60c081526000615ba160c08301896147c6565b8281036020840152615bb381896147f2565b90508281036040840152615bc781886147c6565b905060ff861660608401528281036080840152615be4818661552d565b91505060018060a01b03831660a0830152979650505050505050565b600082615c1d57634e487b7160e01b600052601260045260246000fd5b500490565b60008251615c348184602087016147a2565b919091019291505056fe360894a13ba1a3210667c828492db98dca3e2076cc3735a920a3ca505d382bbca2646970667358221220eddd02c1ce141e754dddc3bbc5fd2a59fb6753a095d16ccad23299918d7f525964736f6c63430008140033","linkReferences":{}},"methodIdentifiers":{"SELLOUT_PROTOCOL_WALLET()":"e30228be","UPGRADE_INTERFACE_VERSION()":"ad3cb1cc","artistRegistryInstance()":"8dea15a1","boxOfficeInstance()":"a2b7d174","cancelShow(bytes32)":"ef5023a5","completeShow(bytes32)":"129e086b","consumeTicketTier(bytes32,uint256,uint256)":"644b5e59","getNumberOfVoters(bytes32)":"85ffa16c","getOrganizer(bytes32)":"977cb89e","getShowById(bytes32)":"27b1bf52","getShowStatus(bytes32)":"46c2c8a7","getShowToTicketProxy(bytes32)":"fdc7066c","getTicketTierInfo(bytes32,uint256)":"7e3e3935","hasTicket(address,bytes32)":"5c37da69","hasVotedForEmergencyRefund(bytes32,address)":"63c18a52","initialize(address)":"c4d66de8","isArtist(address,bytes32)":"02c9a8b5","isArtistMapping(bytes32,address)":"bafd4eb0","isOrganizer(address,bytes32)":"4ed372da","organizerRegistryInstance()":"1cf2103e","owner()":"8da5cb5b","payout(bytes32)":"cfefb3d5","proposeShow((string,string,address[],(int256,int256),uint256,uint8,uint256,(string,uint256,uint256)[],uint256[],address,(uint32,uint32,uint32,uint32)))":"a110412c","proxiableUUID()":"52d1902d","referralInstance()":"c6ab848a","refundBribe(bytes32,uint256,uint256)":"0a35906b","refundTicket(bytes32,uint256)":"3c60d2d6","renounceOwnership()":"715018a6","setProtocolAddresses(address,address,address,address,address,address,address,address)":"5f198834","setShowToTicketProxy(bytes32,address)":"0b5c6364","showToTicketProxy(bytes32)":"3deba964","showToVenueProxy(bytes32)":"e71aee7e","showVaultInstance()":"6a017891","shows(bytes32)":"fca46559","ticketFactoryInstance()":"e4ca73aa","transferOwnership(address)":"f2fde38b","updateShowDate(bytes32,uint256)":"64ad6cd6","updateShowVenue(bytes32,(uint256,string,string,address,(int256,int256),uint256,string))":"a94dafab","updateStatus(bytes32,uint8)":"054372ed","updateStatusIfSoldOut(bytes32)":"e6180546","upgradeToAndCall(address,bytes)":"4f1ef286","venueFactoryInstance()":"9673b1e3","venueRegistryInstance()":"703ee4e5","voteForEmergencyRefund(bytes32)":"fc4bdfd4","votesForEmergencyRefund(bytes32)":"9ee0a14e","withdrawRefund(bytes32)":"e9acfa7c"},"id":44}