{"abi":[{"type":"function","name":"COOLDOWN","inputs":[],"outputs":[{"name":"","type":"uint256","internalType":"uint256"}],"stateMutability":"view"},{"type":"function","name":"SELLOUT_PROTOCOL_WALLET","inputs":[],"outputs":[{"name":"","type":"address","internalType":"address"}],"stateMutability":"view"},{"type":"function","name":"UPGRADE_INTERFACE_VERSION","inputs":[],"outputs":[{"name":"","type":"string","internalType":"string"}],"stateMutability":"view"},{"type":"function","name":"artistRegistryInstance","inputs":[],"outputs":[{"name":"","type":"address","internalType":"contract IArtistRegistry"}],"stateMutability":"view"},{"type":"function","name":"boxOfficeInstance","inputs":[],"outputs":[{"name":"","type":"address","internalType":"contract IBoxOffice"}],"stateMutability":"view"},{"type":"function","name":"cancelShow","inputs":[{"name":"showId","type":"bytes32","internalType":"bytes32"}],"outputs":[],"stateMutability":"nonpayable"},{"type":"function","name":"completeShow","inputs":[{"name":"showId","type":"bytes32","internalType":"bytes32"}],"outputs":[],"stateMutability":"nonpayable"},{"type":"function","name":"consumeTicketTier","inputs":[{"name":"showId","type":"bytes32","internalType":"bytes32"},{"name":"tierIndex","type":"uint256","internalType":"uint256"},{"name":"amount","type":"uint256","internalType":"uint256"}],"outputs":[],"stateMutability":"nonpayable"},{"type":"function","name":"extendShowExpiry","inputs":[{"name":"showId","type":"bytes32","internalType":"bytes32"},{"name":"extraTime","type":"uint256","internalType":"uint256"}],"outputs":[],"stateMutability":"nonpayable"},{"type":"function","name":"getNumberOfVoters","inputs":[{"name":"showId","type":"bytes32","internalType":"bytes32"}],"outputs":[{"name":"","type":"uint256","internalType":"uint256"}],"stateMutability":"view"},{"type":"function","name":"getOrganizer","inputs":[{"name":"showId","type":"bytes32","internalType":"bytes32"}],"outputs":[{"name":"","type":"address","internalType":"address"}],"stateMutability":"view"},{"type":"function","name":"getShowById","inputs":[{"name":"showId","type":"bytes32","internalType":"bytes32"}],"outputs":[{"name":"name","type":"string","internalType":"string"},{"name":"description","type":"string","internalType":"string"},{"name":"organizer","type":"address","internalType":"address"},{"name":"artists","type":"address[]","internalType":"address[]"},{"name":"venue","type":"tuple","internalType":"struct VenueRegistryTypes.VenueInfo","components":[{"name":"venueId","type":"uint256","internalType":"uint256"},{"name":"name","type":"string","internalType":"string"},{"name":"bio","type":"string","internalType":"string"},{"name":"wallet","type":"address","internalType":"address"},{"name":"coordinates","type":"tuple","internalType":"struct VenueRegistryTypes.Coordinates","components":[{"name":"latitude","type":"int256","internalType":"int256"},{"name":"longitude","type":"int256","internalType":"int256"}]},{"name":"totalCapacity","type":"uint256","internalType":"uint256"},{"name":"streetAddress","type":"string","internalType":"string"}]},{"name":"ticketTiers","type":"tuple[]","internalType":"struct ShowTypes.TicketTier[]","components":[{"name":"name","type":"string","internalType":"string"},{"name":"price","type":"uint256","internalType":"uint256"},{"name":"ticketsAvailable","type":"uint256","internalType":"uint256"}]},{"name":"sellOutThreshold","type":"uint8","internalType":"uint8"},{"name":"totalCapacity","type":"uint256","internalType":"uint256"},{"name":"status","type":"uint8","internalType":"enum ShowTypes.Status"},{"name":"currencyAddress","type":"address","internalType":"address"}],"stateMutability":"view"},{"type":"function","name":"getShowExpiry","inputs":[{"name":"showId","type":"bytes32","internalType":"bytes32"}],"outputs":[{"name":"","type":"uint256","internalType":"uint256"}],"stateMutability":"view"},{"type":"function","name":"getShowStatus","inputs":[{"name":"showId","type":"bytes32","internalType":"bytes32"}],"outputs":[{"name":"","type":"uint8","internalType":"enum ShowTypes.Status"}],"stateMutability":"view"},{"type":"function","name":"getShowToTicketProxy","inputs":[{"name":"showId","type":"bytes32","internalType":"bytes32"}],"outputs":[{"name":"","type":"address","internalType":"address"}],"stateMutability":"view"},{"type":"function","name":"getShowToVenueProxy","inputs":[{"name":"showId","type":"bytes32","internalType":"bytes32"}],"outputs":[{"name":"","type":"address","internalType":"address"}],"stateMutability":"view"},{"type":"function","name":"getTicketTierInfo","inputs":[{"name":"showId","type":"bytes32","internalType":"bytes32"},{"name":"tierIndex","type":"uint256","internalType":"uint256"}],"outputs":[{"name":"name","type":"string","internalType":"string"},{"name":"price","type":"uint256","internalType":"uint256"},{"name":"ticketsAvailable","type":"uint256","internalType":"uint256"}],"stateMutability":"view"},{"type":"function","name":"hasTicket","inputs":[{"name":"wallet","type":"address","internalType":"address"},{"name":"showId","type":"bytes32","internalType":"bytes32"}],"outputs":[{"name":"","type":"bool","internalType":"bool"}],"stateMutability":"view"},{"type":"function","name":"hasVotedForEmergencyRefund","inputs":[{"name":"","type":"bytes32","internalType":"bytes32"},{"name":"","type":"address","internalType":"address"}],"outputs":[{"name":"","type":"bool","internalType":"bool"}],"stateMutability":"view"},{"type":"function","name":"initialize","inputs":[{"name":"_selloutProtocolWallet","type":"address","internalType":"address"}],"outputs":[],"stateMutability":"nonpayable"},{"type":"function","name":"isArtist","inputs":[{"name":"user","type":"address","internalType":"address"},{"name":"showId","type":"bytes32","internalType":"bytes32"}],"outputs":[{"name":"","type":"bool","internalType":"bool"}],"stateMutability":"view"},{"type":"function","name":"isArtistMapping","inputs":[{"name":"","type":"bytes32","internalType":"bytes32"},{"name":"","type":"address","internalType":"address"}],"outputs":[{"name":"","type":"bool","internalType":"bool"}],"stateMutability":"view"},{"type":"function","name":"isOrganizer","inputs":[{"name":"user","type":"address","internalType":"address"},{"name":"showId","type":"bytes32","internalType":"bytes32"}],"outputs":[{"name":"","type":"bool","internalType":"bool"}],"stateMutability":"view"},{"type":"function","name":"organizerRegistryInstance","inputs":[],"outputs":[{"name":"","type":"address","internalType":"contract IOrganizerRegistry"}],"stateMutability":"view"},{"type":"function","name":"owner","inputs":[],"outputs":[{"name":"","type":"address","internalType":"address"}],"stateMutability":"view"},{"type":"function","name":"payout","inputs":[{"name":"showId","type":"bytes32","internalType":"bytes32"}],"outputs":[],"stateMutability":"nonpayable"},{"type":"function","name":"proposeShow","inputs":[{"name":"proposal","type":"tuple","internalType":"struct ShowTypes.ShowProposal","components":[{"name":"name","type":"string","internalType":"string"},{"name":"description","type":"string","internalType":"string"},{"name":"artists","type":"address[]","internalType":"address[]"},{"name":"coordinates","type":"tuple","internalType":"struct VenueRegistryTypes.Coordinates","components":[{"name":"latitude","type":"int256","internalType":"int256"},{"name":"longitude","type":"int256","internalType":"int256"}]},{"name":"radius","type":"uint256","internalType":"uint256"},{"name":"sellOutThreshold","type":"uint8","internalType":"uint8"},{"name":"totalCapacity","type":"uint256","internalType":"uint256"},{"name":"ticketTiers","type":"tuple[]","internalType":"struct ShowTypes.TicketTier[]","components":[{"name":"name","type":"string","internalType":"string"},{"name":"price","type":"uint256","internalType":"uint256"},{"name":"ticketsAvailable","type":"uint256","internalType":"uint256"}]},{"name":"split","type":"uint256[]","internalType":"uint256[]"},{"name":"currencyAddress","type":"address","internalType":"address"},{"name":"venueProposalParams","type":"tuple","internalType":"struct VenueTypes.VenueProposalParams","components":[{"name":"proposalPeriodDuration","type":"uint32","internalType":"uint32"},{"name":"proposalDateExtension","type":"uint32","internalType":"uint32"},{"name":"proposalDateMinimumFuture","type":"uint32","internalType":"uint32"},{"name":"proposalPeriodExtensionThreshold","type":"uint32","internalType":"uint32"}]}]}],"outputs":[{"name":"showId","type":"bytes32","internalType":"bytes32"}],"stateMutability":"nonpayable"},{"type":"function","name":"proxiableUUID","inputs":[],"outputs":[{"name":"","type":"bytes32","internalType":"bytes32"}],"stateMutability":"view"},{"type":"function","name":"referralInstance","inputs":[],"outputs":[{"name":"","type":"address","internalType":"contract ReferralModule"}],"stateMutability":"view"},{"type":"function","name":"refundBribe","inputs":[{"name":"showId","type":"bytes32","internalType":"bytes32"},{"name":"venueId","type":"uint256","internalType":"uint256"},{"name":"proposalIndex","type":"uint256","internalType":"uint256"}],"outputs":[],"stateMutability":"nonpayable"},{"type":"function","name":"refundTicket","inputs":[{"name":"showId","type":"bytes32","internalType":"bytes32"},{"name":"tokenId","type":"uint256","internalType":"uint256"}],"outputs":[],"stateMutability":"nonpayable"},{"type":"function","name":"renounceOwnership","inputs":[],"outputs":[],"stateMutability":"nonpayable"},{"type":"function","name":"setProtocolAddresses","inputs":[{"name":"_ticketFactory","type":"address","internalType":"address"},{"name":"_venueFactory","type":"address","internalType":"address"},{"name":"_referralContract","type":"address","internalType":"address"},{"name":"_artistRegistryContract","type":"address","internalType":"address"},{"name":"_organizerRegistryContract","type":"address","internalType":"address"},{"name":"_venueRegistryContract","type":"address","internalType":"address"},{"name":"_showVault","type":"address","internalType":"address"},{"name":"_boxOffice","type":"address","internalType":"address"}],"outputs":[],"stateMutability":"nonpayable"},{"type":"function","name":"setShowToTicketProxy","inputs":[{"name":"showId","type":"bytes32","internalType":"bytes32"},{"name":"ticketProxy","type":"address","internalType":"address"}],"outputs":[],"stateMutability":"nonpayable"},{"type":"function","name":"showToTicketProxy","inputs":[{"name":"","type":"bytes32","internalType":"bytes32"}],"outputs":[{"name":"","type":"address","internalType":"address"}],"stateMutability":"view"},{"type":"function","name":"showToVenueProxy","inputs":[{"name":"","type":"bytes32","internalType":"bytes32"}],"outputs":[{"name":"","type":"address","internalType":"address"}],"stateMutability":"view"},{"type":"function","name":"showVaultInstance","inputs":[],"outputs":[{"name":"","type":"address","internalType":"contract IShowVault"}],"stateMutability":"view"},{"type":"function","name":"shows","inputs":[{"name":"","type":"bytes32","internalType":"bytes32"}],"outputs":[{"name":"showId","type":"bytes32","internalType":"bytes32"},{"name":"name","type":"string","internalType":"string"},{"name":"description","type":"string","internalType":"string"},{"name":"organizer","type":"address","internalType":"address"},{"name":"venue","type":"tuple","internalType":"struct VenueRegistryTypes.VenueInfo","components":[{"name":"venueId","type":"uint256","internalType":"uint256"},{"name":"name","type":"string","internalType":"string"},{"name":"bio","type":"string","internalType":"string"},{"name":"wallet","type":"address","internalType":"address"},{"name":"coordinates","type":"tuple","internalType":"struct VenueRegistryTypes.Coordinates","components":[{"name":"latitude","type":"int256","internalType":"int256"},{"name":"longitude","type":"int256","internalType":"int256"}]},{"name":"totalCapacity","type":"uint256","internalType":"uint256"},{"name":"streetAddress","type":"string","internalType":"string"}]},{"name":"radius","type":"uint256","internalType":"uint256"},{"name":"sellOutThreshold","type":"uint8","internalType":"uint8"},{"name":"totalCapacity","type":"uint256","internalType":"uint256"},{"name":"status","type":"uint8","internalType":"enum ShowTypes.Status"},{"name":"expiry","type":"uint256","internalType":"uint256"},{"name":"showDate","type":"uint256","internalType":"uint256"},{"name":"currencyAddress","type":"address","internalType":"address"}],"stateMutability":"view"},{"type":"function","name":"ticketFactoryInstance","inputs":[],"outputs":[{"name":"","type":"address","internalType":"contract ITicketFactory"}],"stateMutability":"view"},{"type":"function","name":"transferOwnership","inputs":[{"name":"newOwner","type":"address","internalType":"address"}],"outputs":[],"stateMutability":"nonpayable"},{"type":"function","name":"updateShowDate","inputs":[{"name":"showId","type":"bytes32","internalType":"bytes32"},{"name":"newDate","type":"uint256","internalType":"uint256"}],"outputs":[],"stateMutability":"nonpayable"},{"type":"function","name":"updateShowVenue","inputs":[{"name":"showId","type":"bytes32","internalType":"bytes32"},{"name":"newVenue","type":"tuple","internalType":"struct VenueRegistryTypes.VenueInfo","components":[{"name":"venueId","type":"uint256","internalType":"uint256"},{"name":"name","type":"string","internalType":"string"},{"name":"bio","type":"string","internalType":"string"},{"name":"wallet","type":"address","internalType":"address"},{"name":"coordinates","type":"tuple","internalType":"struct VenueRegistryTypes.Coordinates","components":[{"name":"latitude","type":"int256","internalType":"int256"},{"name":"longitude","type":"int256","internalType":"int256"}]},{"name":"totalCapacity","type":"uint256","internalType":"uint256"},{"name":"streetAddress","type":"string","internalType":"string"}]}],"outputs":[],"stateMutability":"nonpayable"},{"type":"function","name":"updateStatus","inputs":[{"name":"showId","type":"bytes32","internalType":"bytes32"},{"name":"_status","type":"uint8","internalType":"enum ShowTypes.Status"}],"outputs":[],"stateMutability":"nonpayable"},{"type":"function","name":"updateStatusIfSoldOut","inputs":[{"name":"showId","type":"bytes32","internalType":"bytes32"}],"outputs":[],"stateMutability":"nonpayable"},{"type":"function","name":"upgradeToAndCall","inputs":[{"name":"newImplementation","type":"address","internalType":"address"},{"name":"data","type":"bytes","internalType":"bytes"}],"outputs":[],"stateMutability":"payable"},{"type":"function","name":"venueFactoryInstance","inputs":[],"outputs":[{"name":"","type":"address","internalType":"contract IVenueFactory"}],"stateMutability":"view"},{"type":"function","name":"venueRegistryInstance","inputs":[],"outputs":[{"name":"","type":"address","internalType":"contract IVenueRegistry"}],"stateMutability":"view"},{"type":"function","name":"voteForEmergencyRefund","inputs":[{"name":"showId","type":"bytes32","internalType":"bytes32"}],"outputs":[],"stateMutability":"nonpayable"},{"type":"function","name":"votesForEmergencyRefund","inputs":[{"name":"","type":"bytes32","internalType":"bytes32"}],"outputs":[{"name":"","type":"uint256","internalType":"uint256"}],"stateMutability":"view"},{"type":"function","name":"withdrawRefund","inputs":[{"name":"showId","type":"bytes32","internalType":"bytes32"}],"outputs":[],"stateMutability":"nonpayable"},{"type":"event","name":"BribeRefunded","inputs":[{"name":"showId","type":"bytes32","indexed":true,"internalType":"bytes32"},{"name":"venueId","type":"uint256","indexed":true,"internalType":"uint256"},{"name":"proposer","type":"address","indexed":true,"internalType":"address"},{"name":"bribeAmount","type":"uint256","indexed":false,"internalType":"uint256"},{"name":"paymentToken","type":"address","indexed":false,"internalType":"address"}],"anonymous":false},{"type":"event","name":"ERC20Deposited","inputs":[{"name":"showId","type":"bytes32","indexed":true,"internalType":"bytes32"},{"name":"tokenAddress","type":"address","indexed":true,"internalType":"address"},{"name":"depositor","type":"address","indexed":true,"internalType":"address"},{"name":"amount","type":"uint256","indexed":false,"internalType":"uint256"}],"anonymous":false},{"type":"event","name":"ExpiryUpdated","inputs":[{"name":"showId","type":"bytes32","indexed":true,"internalType":"bytes32"},{"name":"expiry","type":"uint256","indexed":false,"internalType":"uint256"}],"anonymous":false},{"type":"event","name":"Initialized","inputs":[{"name":"version","type":"uint64","indexed":false,"internalType":"uint64"}],"anonymous":false},{"type":"event","name":"OwnershipTransferred","inputs":[{"name":"previousOwner","type":"address","indexed":true,"internalType":"address"},{"name":"newOwner","type":"address","indexed":true,"internalType":"address"}],"anonymous":false},{"type":"event","name":"RefundWithdrawn","inputs":[{"name":"user","type":"address","indexed":true,"internalType":"address"},{"name":"showId","type":"bytes32","indexed":true,"internalType":"bytes32"},{"name":"amount","type":"uint256","indexed":false,"internalType":"uint256"}],"anonymous":false},{"type":"event","name":"ShowCancelled","inputs":[{"name":"showId","type":"bytes32","indexed":true,"internalType":"bytes32"},{"name":"reason","type":"string","indexed":false,"internalType":"string"}],"anonymous":false},{"type":"event","name":"ShowExpired","inputs":[{"name":"showId","type":"bytes32","indexed":true,"internalType":"bytes32"}],"anonymous":false},{"type":"event","name":"ShowProposed","inputs":[{"name":"showId","type":"bytes32","indexed":true,"internalType":"bytes32"},{"name":"organizer","type":"address","indexed":true,"internalType":"address"},{"name":"name","type":"string","indexed":false,"internalType":"string"},{"name":"artists","type":"address[]","indexed":false,"internalType":"address[]"},{"name":"description","type":"string","indexed":false,"internalType":"string"},{"name":"sellOutThreshold","type":"uint8","indexed":false,"internalType":"uint8"},{"name":"split","type":"uint256[]","indexed":false,"internalType":"uint256[]"},{"name":"currencyAddress","type":"address","indexed":false,"internalType":"address"}],"anonymous":false},{"type":"event","name":"StatusUpdated","inputs":[{"name":"showId","type":"bytes32","indexed":true,"internalType":"bytes32"},{"name":"status","type":"uint8","indexed":false,"internalType":"enum ShowTypes.Status"}],"anonymous":false},{"type":"event","name":"TicketRefunded","inputs":[{"name":"user","type":"address","indexed":true,"internalType":"address"},{"name":"showId","type":"bytes32","indexed":true,"internalType":"bytes32"},{"name":"refundAmount","type":"uint256","indexed":false,"internalType":"uint256"}],"anonymous":false},{"type":"event","name":"TicketTierConsumed","inputs":[{"name":"showId","type":"bytes32","indexed":true,"internalType":"bytes32"},{"name":"tierIndex","type":"uint256","indexed":true,"internalType":"uint256"},{"name":"amount","type":"uint256","indexed":false,"internalType":"uint256"}],"anonymous":false},{"type":"event","name":"Upgraded","inputs":[{"name":"implementation","type":"address","indexed":true,"internalType":"address"}],"anonymous":false},{"type":"event","name":"VenueUpdated","inputs":[{"name":"showId","type":"bytes32","indexed":true,"internalType":"bytes32"},{"name":"newVenue","type":"tuple","indexed":false,"internalType":"struct VenueRegistryTypes.VenueInfo","components":[{"name":"venueId","type":"uint256","internalType":"uint256"},{"name":"name","type":"string","internalType":"string"},{"name":"bio","type":"string","internalType":"string"},{"name":"wallet","type":"address","internalType":"address"},{"name":"coordinates","type":"tuple","internalType":"struct VenueRegistryTypes.Coordinates","components":[{"name":"latitude","type":"int256","internalType":"int256"},{"name":"longitude","type":"int256","internalType":"int256"}]},{"name":"totalCapacity","type":"uint256","internalType":"uint256"},{"name":"streetAddress","type":"string","internalType":"string"}]}],"anonymous":false},{"type":"error","name":"AddressEmptyCode","inputs":[{"name":"target","type":"address","internalType":"address"}]},{"type":"error","name":"ERC1967InvalidImplementation","inputs":[{"name":"implementation","type":"address","internalType":"address"}]},{"type":"error","name":"ERC1967NonPayable","inputs":[]},{"type":"error","name":"FailedInnerCall","inputs":[]},{"type":"error","name":"InvalidCapacity","inputs":[]},{"type":"error","name":"InvalidDescription","inputs":[]},{"type":"error","name":"InvalidInitialization","inputs":[]},{"type":"error","name":"InvalidLatitude","inputs":[]},{"type":"error","name":"InvalidLongitude","inputs":[]},{"type":"error","name":"InvalidName","inputs":[]},{"type":"error","name":"InvalidSellOutThreshold","inputs":[]},{"type":"error","name":"InvalidSplitArrayLength","inputs":[]},{"type":"error","name":"InvalidSplitSum","inputs":[]},{"type":"error","name":"InvalidVenueProposalParameters","inputs":[]},{"type":"error","name":"NotInitializing","inputs":[]},{"type":"error","name":"OwnableInvalidOwner","inputs":[{"name":"owner","type":"address","internalType":"address"}]},{"type":"error","name":"OwnableUnauthorizedAccount","inputs":[{"name":"account","type":"address","internalType":"address"}]},{"type":"error","name":"ReentrancyGuardReentrantCall","inputs":[]},{"type":"error","name":"UUPSUnauthorizedCallContext","inputs":[]},{"type":"error","name":"UUPSUnsupportedProxiableUUID","inputs":[{"name":"slot","type":"bytes32","internalType":"bytes32"}]}],"bytecode":{"object":"0x60a06040526008805460ff60a01b191690553060805234801561002157600080fd5b50608051615ff16200004c60003960008181613a8301528181613aac0152613bf20152615ff16000f3fe6080604052600436106102c85760003560e01c806385ffa16c11610175578063c4d66de8116100dc578063e71aee7e11610095578063f2fde38b1161006f578063f2fde38b146109d7578063fc4bdfd4146109f7578063fca4655914610a17578063fdc7066c14610a4f57600080fd5b8063e71aee7e14610961578063e9acfa7c14610997578063ef5023a5146109b757600080fd5b8063c4d66de8146108a1578063c6ab848a146108c1578063cfefb3d5146108e1578063e30228be14610901578063e4ca73aa14610921578063e61805461461094157600080fd5b8063a110412c1161012e578063a110412c146107b1578063a2724a4d146107d1578063a2b7d174146107e8578063a94dafab14610808578063ad3cb1cc14610828578063bafd4eb01461086657600080fd5b806385ffa16c146106ae5780638da5cb5b146106ce5780638dea15a11461070b5780639673b1e31461072b578063977cb89e1461074b5780639ee0a14e1461078457600080fd5b806346c2c8a71161023457806363c18a52116101ed5780636a017891116101c75780636a0178911461062a578063703ee4e51461064a578063715018a61461066a5780637e3e39351461067f57600080fd5b806363c18a52146105af578063644b5e59146105ea57806364ad6cd61461060a57600080fd5b806346c2c8a7146104dc5780634ed372da146105095780634f1ef2861461054757806352d1902d1461055a5780635c37da691461056f5780635f1988341461058f57600080fd5b80631cf2103e116102865780631cf2103e146103c257806327b1bf52146103fa578063292d1d4a146104305780633c60d2d6146104505780633deba964146104705780633e2fea34146104a657600080fd5b8062eb5c51146102cd57806302c9a8b514610310578063054372ed146103405780630a35906b146103625780630b5c636414610382578063129e086b146103a2575b600080fd5b3480156102d957600080fd5b506102fd6102e8366004614a0c565b6000908152600a602052604090206013015490565b6040519081526020015b60405180910390f35b34801561031c57600080fd5b5061033061032b366004614a45565b610a85565b6040519015158152602001610307565b34801561034c57600080fd5b5061036061035b366004614a71565b610ab2565b005b34801561036e57600080fd5b5061036061037d366004614aa5565b610b9f565b34801561038e57600080fd5b5061036061039d366004614ad1565b610f42565b3480156103ae57600080fd5b506103606103bd366004614a0c565b610fb0565b3480156103ce57600080fd5b506005546103e2906001600160a01b031681565b6040516001600160a01b039091168152602001610307565b34801561040657600080fd5b5061041a610415366004614a0c565b61145c565b6040516103079a99989796959493929190614c49565b34801561043c57600080fd5b5061036061044b366004614d62565b611a1d565b34801561045c57600080fd5b5061036061046b366004614d62565b611b19565b34801561047c57600080fd5b506103e261048b366004614a0c565b600b602052600090815260409020546001600160a01b031681565b3480156104b257600080fd5b506103e26104c1366004614a0c565b6000908152600c60205260409020546001600160a01b031690565b3480156104e857600080fd5b506104fc6104f7366004614a0c565b611eea565b6040516103079190614d84565b34801561051557600080fd5b50610330610524366004614a45565b6000908152600a60205260409020600301546001600160a01b0391821691161490565b610360610555366004614ecc565b6124e2565b34801561056657600080fd5b506102fd6124fd565b34801561057b57600080fd5b5061033061058a366004614a45565b61251a565b34801561059b57600080fd5b506103606105aa366004614f2f565b6125a2565b3480156105bb57600080fd5b506103306105ca366004614ad1565b600f60209081526000928352604080842090915290825290205460ff1681565b3480156105f657600080fd5b50610360610605366004614aa5565b612682565b34801561061657600080fd5b50610360610625366004614d62565b6127ba565b34801561063657600080fd5b506007546103e2906001600160a01b031681565b34801561065657600080fd5b506006546103e2906001600160a01b031681565b34801561067657600080fd5b50610360612861565b34801561068b57600080fd5b5061069f61069a366004614d62565b612875565b60405161030793929190614fd8565b3480156106ba57600080fd5b506102fd6106c9366004614a0c565b61299a565b3480156106da57600080fd5b507f9016d09d72d40fdae2fd8ceac6b6234c7706214fd39c1cd1e609a0528c199300546001600160a01b03166103e2565b34801561071757600080fd5b506004546103e2906001600160a01b031681565b34801561073757600080fd5b506001546103e2906001600160a01b031681565b34801561075757600080fd5b506103e2610766366004614a0c565b6000908152600a60205260409020600301546001600160a01b031690565b34801561079057600080fd5b506102fd61079f366004614a0c565b600e6020526000908152604090205481565b3480156107bd57600080fd5b506102fd6107cc3660046152a8565b612a21565b3480156107dd57600080fd5b506102fd6202a30081565b3480156107f457600080fd5b506008546103e2906001600160a01b031681565b34801561081457600080fd5b50610360610823366004615408565b612c7b565b34801561083457600080fd5b50610859604051806040016040528060058152602001640352e302e360dc1b81525081565b604051610307919061544b565b34801561087257600080fd5b50610330610881366004614ad1565b600d60209081526000928352604080842090915290825290205460ff1681565b3480156108ad57600080fd5b506103606108bc36600461545e565b612d8a565b3480156108cd57600080fd5b506003546103e2906001600160a01b031681565b3480156108ed57600080fd5b506103606108fc366004614a0c565b612ec4565b34801561090d57600080fd5b506000546103e2906001600160a01b031681565b34801561092d57600080fd5b506002546103e2906001600160a01b031681565b34801561094d57600080fd5b5061036061095c366004614a0c565b6130c9565b34801561096d57600080fd5b506103e261097c366004614a0c565b600c602052600090815260409020546001600160a01b031681565b3480156109a357600080fd5b506103606109b2366004614a0c565b6131d9565b3480156109c357600080fd5b506103606109d2366004614a0c565b61339a565b3480156109e357600080fd5b506103606109f236600461545e565b6134ba565b348015610a0357600080fd5b50610360610a12366004614a0c565b6134f5565b348015610a2357600080fd5b50610a37610a32366004614a0c565b613628565b6040516103079c9b9a9998979695949392919061547b565b348015610a5b57600080fd5b506103e2610a6a366004614a0c565b6000908152600b60205260409020546001600160a01b031690565b6000818152600d602090815260408083206001600160a01b038616845290915290205460ff165b92915050565b6000828152600c602052604090205482906001600160a01b0316331480610aef57506000818152600b60205260409020546001600160a01b031633145b80610af957503330145b610b2f5760405162461bcd60e51b81526020600482015260026024820152612a2b60f11b60448201526064015b60405180910390fd5b6000838152600a60205260409020601101805483919060ff19166001836007811115610b5d57610b5d614c11565b0217905550827f8ed894b6f384ca9c829b9aa5b056bc9106a90845a15616607e975d4ad488ee6783604051610b929190614d84565b60405180910390a2505050565b6000838152600a602052604090206004601182015460ff166007811115610bc857610bc8614c11565b03610bfa5760405162461bcd60e51b8152602060048201526002602482015261216360f01b6044820152606401610b26565b6005810154839003610c1e5760405162461bcd60e51b8152600401610b269061551d565b6000848152600c6020526040808220549051633d77f7eb60e01b8152600481018790526001600160a01b0390911691908290633d77f7eb90602401602060405180830381865afa158015610c76573d6000803e3d6000fd5b505050506040513d601f19601f82011682018060405250810190610c9a9190615539565b9050838111610cd05760405162461bcd60e51b8152602060048201526002602482015261216960f01b6044820152606401610b26565b604051633198f7e760e21b815260048101879052602481018590526000906001600160a01b0384169063c663df9c90604401600060405180830381865afa158015610d1f573d6000803e3d6000fd5b505050506040513d6000823e601f3d908101601f19168201604052610d479190810190615710565b8051519091508614610d805760405162461bcd60e51b815260206004820152600260248201526110bb60f11b6044820152606401610b26565b60408101516001600160a01b03163314610dc25760405162461bcd60e51b815260206004820152600360248201526210b83960e91b6044820152606401610b26565b6000816060015111610dfb5760405162461bcd60e51b8152602060048201526002602482015261084960f21b6044820152606401610b26565b60405163899a5ab760e01b815260048101889052602481018690526001600160a01b0384169063899a5ab790604401600060405180830381600087803b158015610e4457600080fd5b505af1158015610e58573d6000803e3d6000fd5b5050600754606084015160c085015160405163194cc89b60e31b8152600481018d905260248101929092526001600160a01b039081166044830152336064830152909116925063ca6644d89150608401600060405180830381600087803b158015610ec257600080fd5b505af1158015610ed6573d6000803e3d6000fd5b50505050336001600160a01b031686887f028f6cd258ee3664e34f77deb25ca97b00a5d18e45eba8987a259d5f2880a9f584606001518560c00151604051610f319291909182526001600160a01b0316602082015260400190565b60405180910390a450505050505050565b6008546001600160a01b03163314610f825760405162461bcd60e51b815260206004820152600360248201526221626f60e81b6044820152606401610b26565b6000918252600b602052604090912080546001600160a01b0319166001600160a01b03909216919091179055565b6000818152600a602052604090206003015481906001600160a01b0316331480610fdf5750610fdf3382610a85565b6110105760405162461bcd60e51b81526020600482015260026024820152614f4160f01b6044820152606401610b26565b6000828152600a602052604090206003601182015460ff16600781111561103957611039614c11565b146110565760405162461bcd60e51b8152600401610b269061551d565b6202a300816014015461106991906157fd565b4210156110885760405162461bcd60e51b8152600401610b269061551d565b60075460405163d23b85a360e01b8152600481018590526000916001600160a01b03169063d23b85a390602401602060405180830381865afa1580156110d2573d6000803e3d6000fd5b505050506040513d601f19601f820116820180604052508101906110f69190615810565b60075460405163213efcab60e01b8152600481018790526001600160a01b0380841660248301529293506000929091169063213efcab90604401602060405180830381865afa15801561114d573d6000803e3d6000fd5b505050506040513d601f19601f820116820180604052508101906111719190615539565b905080600003611182575050505050565b60048301546000906111959060026157fd565b90506000816001600160401b038111156111b1576111b1614d92565b6040519080825280602002602001820160405280156111da578160200160208202803683370190505b509050600061123a8660120180548060200260200160405190810160405280929190818152602001828054801561123057602002820191906000526020600020905b81548152602001906001019080831161121c575b50505050506139c6565b600387015483519192506001600160a01b031690839060009061125f5761125f61582d565b60200260200101906001600160a01b031690816001600160a01b03168152505060005b60048701548110156112fe578660040181815481106112a3576112a361582d565b6000918252602090912001546001600160a01b0316836112c48360016157fd565b815181106112d4576112d461582d565b6001600160a01b0390921660209283029190910190910152806112f681615843565b915050611282565b5060088601546001600160a01b03168261131960018661585c565b815181106113295761132961582d565b6001600160a01b039283166020918202929092010152600754604051630b309b6560e21b8152911690632cc26d949061136e908b90869086908a908c9060040161589f565b600060405180830381600087803b15801561138857600080fd5b505af115801561139c573d6000803e3d6000fd5b505060075460405163fab49c3760e01b8152600481018c90526001600160a01b038981166024830152909116925063fab49c379150604401600060405180830381600087803b1580156113ee57600080fd5b505af1158015611402573d6000803e3d6000fd5b5050505060118601805460ff1916600490811790915560405189917f8ed894b6f384ca9c829b9aa5b056bc9106a90845a15616607e975d4ad488ee67916114499190614d84565b60405180910390a25050505050505b5050565b6060806000606061146b6148f6565b6000868152600a60205260408120600e810154606092918291829182916001600160401b0381111561149f5761149f614d92565b6040519080825280602002602001820160405280156114f457816020015b6114e160405180606001604052806060815260200160008152602001600081525090565b8152602001906001900390816114bd5790505b50955060005b600e82015481101561160a5781600e01818154811061151b5761151b61582d565b9060005260206000209060030201604051806060016040529081600082018054611544906158ed565b80601f0160208091040260200160405190810160405280929190818152602001828054611570906158ed565b80156115bd5780601f10611592576101008083540402835291602001916115bd565b820191906000526020600020905b8154815290600101906020018083116115a057829003601f168201915b50505050508152602001600182015481526020016002820154815250508782815181106115ec576115ec61582d565b6020026020010181905250808061160290615843565b9150506114fa565b5080600101816002018260030160009054906101000a90046001600160a01b031683600401846005018a86600f0160009054906101000a900460ff1687601001548860110160009054906101000a900460ff168960150160009054906101000a90046001600160a01b0316898054611681906158ed565b80601f01602080910402602001604051908101604052809291908181526020018280546116ad906158ed565b80156116fa5780601f106116cf576101008083540402835291602001916116fa565b820191906000526020600020905b8154815290600101906020018083116116dd57829003601f168201915b5050505050995088805461170d906158ed565b80601f0160208091040260200160405190810160405280929190818152602001828054611739906158ed565b80156117865780601f1061175b57610100808354040283529160200191611786565b820191906000526020600020905b81548152906001019060200180831161176957829003601f168201915b50505050509850868054806020026020016040519081016040528092919081815260200182805480156117e257602002820191906000526020600020905b81546001600160a01b031681526001909101906020018083116117c4575b50505050509650856040518060e00160405290816000820154815260200160018201805461180f906158ed565b80601f016020809104026020016040519081016040528092919081815260200182805461183b906158ed565b80156118885780601f1061185d57610100808354040283529160200191611888565b820191906000526020600020905b81548152906001019060200180831161186b57829003601f168201915b505050505081526020016002820180546118a1906158ed565b80601f01602080910402602001604051908101604052809291908181526020018280546118cd906158ed565b801561191a5780601f106118ef5761010080835404028352916020019161191a565b820191906000526020600020905b8154815290600101906020018083116118fd57829003601f168201915b505050918352505060038201546001600160a01b03166020808301919091526040805180820182526004850154815260058501549281019290925282015260068201546060820152600782018054608090920191611977906158ed565b80601f01602080910402602001604051908101604052809291908181526020018280546119a3906158ed565b80156119f05780601f106119c5576101008083540402835291602001916119f0565b820191906000526020600020905b8154815290600101906020018083116119d357829003601f168201915b50505050508152505095509a509a509a509a509a509a509a509a509a509a50509193959799509193959799565b6000828152600b602052604090205482906001600160a01b03163314611a555760405162461bcd60e51b8152600401610b2690615921565b60008211611ab15760405162461bcd60e51b8152602060048201526024808201527f45787472612074696d65206d7573742062652067726561746572207468616e206044820152637a65726f60e01b6064820152608401610b26565b6000838152600a6020526040812060138101805491928592611ad49084906157fd565b9091555050601381015460405190815284907fe4f26fcd7ae101f4d7c47cac6fc616fbb05e9b41e67b7a00b67b35f13654fce09060200160405180910390a250505050565b6000828152600b60205260409020546001600160a01b031680611b675760405162461bcd60e51b8152600401610b26906020808252600490820152632170787960e01b604082015260600190565b6000838152600a602052604081206011015460ff166007811115611b8d57611b8d614c11565b1480611bbe575060056000848152600a602052604090206011015460ff166007811115611bbc57611bbc614c11565b145b80611bee575060076000848152600a602052604090206011015460ff166007811115611bec57611bec614c11565b145b611c205760405162461bcd60e51b8152602060048201526003602482015262213d7360e81b6044820152606401610b26565b600854604051632fef62b760e01b8152600481018590523360248201526044810184905282916001600160a01b031690632fef62b790606401602060405180830381865afa158015611c76573d6000803e3d6000fd5b505050506040513d601f19601f82011682018060405250810190611c9a919061593c565b611ccb5760405162461bcd60e51b8152602060048201526002602482015261085d60f21b6044820152606401610b26565b604051636d1d3b0b60e11b8152600481018590526024810184905260009081906001600160a01b0384169063da3a7616906044016040805180830381865afa158015611d1b573d6000803e3d6000fd5b505050506040513d601f19601f82011682018060405250810190611d3f9190615957565b9150915060008211611d785760405162461bcd60e51b8152602060048201526002602482015261084960f21b6044820152606401610b26565b60075460405163d23b85a360e01b8152600481018890526000916001600160a01b03169063d23b85a390602401602060405180830381865afa158015611dc2573d6000803e3d6000fd5b505050506040513d601f19601f82011682018060405250810190611de69190615810565b6000888152600a60205260409020600e0180549192509083908110611e0d57611e0d61582d565b600091825260208220600260039092020101805491611e2b83615843565b9091555050600854604051635f1229f960e01b81526004810189905260248101889052604481018590526001600160a01b03838116606483015233608483015290911690635f1229f99060a401600060405180830381600087803b158015611e9257600080fd5b505af1158015611ea6573d6000803e3d6000fd5b50506040518581528992503391507f6327daeea6ce26abf9f96cd84eee9cb40d1d5b88f7f5990914540e392446bf049060200160405180910390a350505050505050565b6000818152600a6020908152604080832081516101e0810190925280548252600181018054859484019190611f1e906158ed565b80601f0160208091040260200160405190810160405280929190818152602001828054611f4a906158ed565b8015611f975780601f10611f6c57610100808354040283529160200191611f97565b820191906000526020600020905b815481529060010190602001808311611f7a57829003601f168201915b50505050508152602001600282018054611fb0906158ed565b80601f0160208091040260200160405190810160405280929190818152602001828054611fdc906158ed565b80156120295780601f10611ffe57610100808354040283529160200191612029565b820191906000526020600020905b81548152906001019060200180831161200c57829003601f168201915b505050918352505060038201546001600160a01b0316602080830191909152600483018054604080518285028101850182528281529401939283018282801561209b57602002820191906000526020600020905b81546001600160a01b0316815260019091019060200180831161207d575b50505050508152602001600582016040518060e0016040529081600082015481526020016001820180546120ce906158ed565b80601f01602080910402602001604051908101604052809291908181526020018280546120fa906158ed565b80156121475780601f1061211c57610100808354040283529160200191612147565b820191906000526020600020905b81548152906001019060200180831161212a57829003601f168201915b50505050508152602001600282018054612160906158ed565b80601f016020809104026020016040519081016040528092919081815260200182805461218c906158ed565b80156121d95780601f106121ae576101008083540402835291602001916121d9565b820191906000526020600020905b8154815290600101906020018083116121bc57829003601f168201915b505050918352505060038201546001600160a01b03166020808301919091526040805180820182526004850154815260058501549281019290925282015260068201546060820152600782018054608090920191612236906158ed565b80601f0160208091040260200160405190810160405280929190818152602001828054612262906158ed565b80156122af5780601f10612284576101008083540402835291602001916122af565b820191906000526020600020905b81548152906001019060200180831161229257829003601f168201915b5050505050815250508152602001600d8201548152602001600e8201805480602002602001604051908101604052809291908181526020016000905b828210156123c3578382906000526020600020906003020160405180606001604052908160008201805461231e906158ed565b80601f016020809104026020016040519081016040528092919081815260200182805461234a906158ed565b80156123975780601f1061236c57610100808354040283529160200191612397565b820191906000526020600020905b81548152906001019060200180831161237a57829003601f168201915b5050505050815260200160018201548152602001600282015481525050815260200190600101906122eb565b50505090825250600f82015460ff908116602083015260108301546040830152601183015460609092019116600781111561240057612400614c11565b600781111561241157612411614c11565b81526020016012820180548060200260200160405190810160405280929190818152602001828054801561246457602002820191906000526020600020905b815481526020019060010190808311612450575b505050918352505060138201546020820152601482015460408201526015909101546001600160a01b0316606090910152610180810151909150421180156124c35750600781610140015160078111156124c0576124c0614c11565b14155b156124d15750600792915050565b610140015192915050565b50919050565b6124ea613a78565b6124f382613b1d565b6114588282613b25565b6000612507613be7565b50600080516020615f9c83398151915290565b600854604051635b9a1e0960e01b8152600481018390526001600160a01b0384811660248301526000928392911690635b9a1e0990604401600060405180830381865afa15801561256f573d6000803e3d6000fd5b505050506040513d6000823e601f3d908101601f19168201604052612597919081019061597b565b511515949350505050565b600854600160a01b900460ff16156125e15760405162461bcd60e51b8152602060048201526002602482015261212160f01b6044820152606401610b26565b600180546001600160a01b03199081166001600160a01b03998a161790915560028054821699891699909917909855600380548916968816969096179095556004805488169487169490941790935560058054871692861692909217909155600680548616918516919091179055600780549094169083161790925560088054600160a01b939092166001600160a81b031990921691909117919091179055565b6000838152600b602052604090205483906001600160a01b031633146126ba5760405162461bcd60e51b8152600401610b2690615921565b6000848152600a60205260409020600e81015484106126ff5760405162461bcd60e51b81526020600482015260016024820152602160f81b6044820152606401610b26565b600081600e0185815481106127165761271661582d565b9060005260206000209060030201905083816002015410156127625760405162461bcd60e51b815260206004820152600560248201526406040e8d2f60db1b6044820152606401610b26565b83816002016000828254612776919061585c565b9091555050604051848152859087907fb23124a400670af3347ce475459c187bbba871f316e2d1d91ae115a762def0209060200160405180910390a3505050505050565b6000828152600c602052604090205482906001600160a01b031633146128065760405162461bcd60e51b81526020600482015260016024820152602b60f91b6044820152606401610b26565b60026000848152600a602052604090206011015460ff16600781111561282e5761282e614c11565b1461284b5760405162461bcd60e51b8152600401610b269061551d565b506000918252600a602052604090912060140155565b612869613c30565b6128736000613c8b565b565b6000828152600a60205260408120600e015460609190819084106128bf5760405162461bcd60e51b81526020600482015260016024820152601d60fa1b6044820152606401610b26565b6000858152600a60205260408120600e018054869081106128e2576128e261582d565b90600052602060002090600302019050806000018160010154826002015482805461290c906158ed565b80601f0160208091040260200160405190810160405280929190818152602001828054612938906158ed565b80156129855780601f1061295a57610100808354040283529160200191612985565b820191906000526020600020905b81548152906001019060200180831161296857829003601f168201915b50505050509250935093509350509250925092565b6000818152600a602052604081206001825b6004830154811015612a195760038301546004840180546001600160a01b0390921691839081106129df576129df61582d565b6000918252602090912001546001600160a01b031614612a075781612a0381615843565b9250505b80612a1181615843565b9150506129ac565b509392505050565b6005546040516329e7dbd960e01b81523360048201526000916001600160a01b0316906329e7dbd990602401602060405180830381865afa158015612a6a573d6000803e3d6000fd5b505050506040513d601f19601f82011682018060405250810190612a8e919061593c565b612ac05760405162461bcd60e51b815260206004820152600360248201526221724f60e81b6044820152606401610b26565b60005b826040015151811015612bb557600454604084015180516001600160a01b03909216916364fd2886919084908110612afd57612afd61582d565b60200260200101516040518263ffffffff1660e01b8152600401612b3091906001600160a01b0391909116815260200190565b602060405180830381865afa158015612b4d573d6000803e3d6000fd5b505050506040513d601f19601f82011682018060405250810190612b71919061593c565b612ba35760405162461bcd60e51b815260206004820152600360248201526221724160e81b6044820152606401610b26565b80612bad81615843565b915050612ac3565b50612bbf82613cfc565b612bc882613f39565b60085460005460405163083fb40160e11b8152600481018490526001600160a01b039182166024820152929350169063107f680290604401600060405180830381600087803b158015612c1a57600080fd5b505af1158015612c2e573d6000803e3d6000fd5b5050600054610140850151805160208201516040830151606090930151612c7696508795506001600160a01b039094169363ffffffff92831693918316929182169116614347565b919050565b6000828152600c602052604090205482906001600160a01b03163314612cc75760405162461bcd60e51b81526020600482015260016024820152602b60f91b6044820152606401610b26565b6000838152600a602052604081206011015460ff166007811115612ced57612ced614c11565b1480612d1e575060026000848152600a602052604090206011015460ff166007811115612d1c57612d1c614c11565b145b612d3a5760405162461bcd60e51b8152600401610b269061551d565b6000838152600a602052604090208290600501612d578282615b1e565b905050827f4af00802913ced6ade1d9ae285d2baa3b45a3d2867a08e13ea3bb5b950b8faac83604051610b929190615ce1565b7ff0c57e16840df040f15088dc2f81fe391c3923bec73e23a9662efc9c229c6a008054600160401b810460ff1615906001600160401b0316600081158015612dcf5750825b90506000826001600160401b03166001148015612deb5750303b155b905081158015612df9575080155b15612e175760405163f92ee8a960e01b815260040160405180910390fd5b845467ffffffffffffffff191660011785558315612e4157845460ff60401b1916600160401b1785555b612e4961447a565b612e528661448a565b600080546001600160a01b0319166001600160a01b038816179055612e76866134ba565b8315612ebc57845460ff60401b19168555604051600181527fc7f505b2f371ae2175ee4913f4499e1f2633a7b5936321eed1cdaeb6115181d29060200160405180910390a15b505050505050565b6000818152600a6020526040902060038101548291906001600160a01b0316331480612ef55750612ef53383610a85565b80612f0c575060088101546001600160a01b031633145b612f585760405162461bcd60e51b815260206004820152601f60248201527f4e6f74206f7267616e697a65722c206172746973742c206f722076656e7565006044820152606401610b26565b6000838152600a602052604090206004601182015460ff166007811115612f8157612f81614c11565b14612f9e5760405162461bcd60e51b8152600401610b269061551d565b6202a3008160140154612fb191906157fd565b421015612fe65760405162461bcd60e51b81526020600482015260036024820152620858db60ea1b6044820152606401610b26565b60075460405163d23b85a360e01b8152600481018690526000916001600160a01b03169063d23b85a390602401602060405180830381865afa158015613030573d6000803e3d6000fd5b505050506040513d601f19601f820116820180604052508101906130549190615810565b600754604051637674a69160e01b8152600481018890526001600160a01b038084166024830152336044830152929350911690637674a69190606401600060405180830381600087803b1580156130aa57600080fd5b505af11580156130be573d6000803e3d6000fd5b505050505050505050565b6000818152600b602052604090205481906001600160a01b031633146131015760405162461bcd60e51b8152600401610b2690615921565b6000828152600a60205260408082206008549151630610418760e41b8152600481018690529092916001600160a01b031690636104187090602401602060405180830381865afa158015613159573d6000803e3d6000fd5b505050506040513d601f19601f8201168201806040525081019061317d9190615539565b600f83015460108401549192506131999160ff90911690615dab565b6131a4826064615dab565b106131d3576131b64262278d006157fd565b6000858152600a60205260409020601301556131d3846001610ab2565b50505050565b6131e161449b565b6000818152600a602052604090206006601182015460ff16600781111561320a5761320a614c11565b148061322e57506007601182015460ff16600781111561322c5761322c614c11565b145b8061325157506005601182015460ff16600781111561324f5761324f614c11565b145b8061327457506000601182015460ff16600781111561327257613272614c11565b145b6132905760405162461bcd60e51b8152600401610b269061551d565b60075460405163d23b85a360e01b8152600481018490526000916001600160a01b03169063d23b85a390602401602060405180830381865afa1580156132da573d6000803e3d6000fd5b505050506040513d601f19601f820116820180604052508101906132fe9190615810565b600754604051631af4b9eb60e01b8152600481018690526001600160a01b038084166024830152336044830152929350911690631af4b9eb90606401600060405180830381600087803b15801561335457600080fd5b505af1158015613368573d6000803e3d6000fd5b50505050505061339760017f9b779b17422d0df92223018b32b4d1fa46e071723d6817e2486d003becc55f0055565b50565b6000818152600a602052604090206003015481906001600160a01b03163314806133c957506133c93382610a85565b6133fa5760405162461bcd60e51b81526020600482015260026024820152614f4160f01b6044820152606401610b26565b6000828152600a6020526040812090601182015460ff16600781111561342257613422614c11565b148061344657506001601182015460ff16600781111561344457613444614c11565b145b8061346957506002601182015460ff16600781111561346757613467614c11565b145b8061348c57506003601182015460ff16600781111561348a5761348a614c11565b145b6134a85760405162461bcd60e51b8152600401610b269061551d565b601101805460ff191660051790555050565b6134c2613c30565b6001600160a01b0381166134ec57604051631e4fbdf760e01b815260006004820152602401610b26565b61339781613c8b565b6134ff338261251a565b6135345760405162461bcd60e51b81526020600482015260066024820152650dcde40e8d2f60d31b6044820152606401610b26565b60046000828152600a602052604090206011015460ff16600781111561355c5761355c614c11565b146135795760405162461bcd60e51b8152600401610b269061551d565b6000818152600f6020908152604080832033845290915290205460ff16156135c95760405162461bcd60e51b81526020600482015260036024820152621090bb60e91b6044820152606401610b26565b6000818152600f602090815260408083203384528252808320805460ff19166001908117909155848452600e909252822080549192909161360b9084906157fd565b9091555061361a90508161450b565b1561339757613397816145af565b600a602052600090815260409020805460018201805491929161364a906158ed565b80601f0160208091040260200160405190810160405280929190818152602001828054613676906158ed565b80156136c35780601f10613698576101008083540402835291602001916136c3565b820191906000526020600020905b8154815290600101906020018083116136a657829003601f168201915b5050505050908060020180546136d8906158ed565b80601f0160208091040260200160405190810160405280929190818152602001828054613704906158ed565b80156137515780601f1061372657610100808354040283529160200191613751565b820191906000526020600020905b81548152906001019060200180831161373457829003601f168201915b5050505050908060030160009054906101000a90046001600160a01b031690806005016040518060e001604052908160008201548152602001600182018054613799906158ed565b80601f01602080910402602001604051908101604052809291908181526020018280546137c5906158ed565b80156138125780601f106137e757610100808354040283529160200191613812565b820191906000526020600020905b8154815290600101906020018083116137f557829003601f168201915b5050505050815260200160028201805461382b906158ed565b80601f0160208091040260200160405190810160405280929190818152602001828054613857906158ed565b80156138a45780601f10613879576101008083540402835291602001916138a4565b820191906000526020600020905b81548152906001019060200180831161388757829003601f168201915b505050918352505060038201546001600160a01b03166020808301919091526040805180820182526004850154815260058501549281019290925282015260068201546060820152600782018054608090920191613901906158ed565b80601f016020809104026020016040519081016040528092919081815260200182805461392d906158ed565b801561397a5780601f1061394f5761010080835404028352916020019161397a565b820191906000526020600020905b81548152906001019060200180831161395d57829003601f168201915b50505091909252505050600d820154600f83015460108401546011850154601386015460148701546015909701549596949560ff9485169593949092169290916001600160a01b03168c565b6060600082516001600160401b038111156139e3576139e3614d92565b604051908082528060200260200182016040528015613a0c578160200160208202803683370190505b50905060005b8351811015613a7157612710848281518110613a3057613a3061582d565b6020026020010151613a429190615dc2565b828281518110613a5457613a5461582d565b602090810291909101015280613a6981615843565b915050613a12565b5092915050565b306001600160a01b037f0000000000000000000000000000000000000000000000000000000000000000161480613aff57507f00000000000000000000000000000000000000000000000000000000000000006001600160a01b0316613af3600080516020615f9c833981519152546001600160a01b031690565b6001600160a01b031614155b156128735760405163703e46dd60e11b815260040160405180910390fd5b613397613c30565b816001600160a01b03166352d1902d6040518163ffffffff1660e01b8152600401602060405180830381865afa925050508015613b7f575060408051601f3d908101601f19168201909252613b7c91810190615539565b60015b613ba757604051634c9c8ce360e01b81526001600160a01b0383166004820152602401610b26565b600080516020615f9c8339815191528114613bd857604051632a87526960e21b815260048101829052602401610b26565b613be28383614630565b505050565b306001600160a01b037f000000000000000000000000000000000000000000000000000000000000000016146128735760405163703e46dd60e11b815260040160405180910390fd5b33613c627f9016d09d72d40fdae2fd8ceac6b6234c7706214fd39c1cd1e609a0528c199300546001600160a01b031690565b6001600160a01b0316146128735760405163118cdaa760e01b8152336004820152602401610b26565b7f9016d09d72d40fdae2fd8ceac6b6234c7706214fd39c1cd1e609a0528c19930080546001600160a01b031981166001600160a01b03848116918217845560405192169182907f8be0079c531659141344cd1fd0a4f28419497f9722a3daafe3b4186f6b6457e090600090a3505050565b805151600003613d1f5760405163430f13b360e01b815260040160405180910390fd5b6000816080015111613d44576040516331278a8760e01b815260040160405180910390fd5b6020810151511580613d5c57506103e8816020015151115b15613d7a576040516340132f1f60e01b815260040160405180910390fd5b60328160c001511015613da0576040516331278a8760e01b815260040160405180910390fd5b60328160a0015160ff161080613dbd575060648160a0015160ff16115b15613ddb5760405163ad7d3a4d60e01b815260040160405180910390fd5b60608101515163055d4a7f191380613dfb575060608101515163055d4a80125b15613e195760405163c2df0dc560e01b815260040160405180910390fd5b630aba94ff198160600151602001511280613e3f5750630aba9500816060015160200151135b15613e5d5760405163016cb17f60e71b815260040160405180910390fd5b61a8c08161014001516000015163ffffffff161015613e8f57604051631e68fc9d60e21b815260040160405180910390fd5b610e108161014001516020015163ffffffff161015613ec157604051631e68fc9d60e21b815260040160405180910390fd5b61a8c08161014001516040015163ffffffff161015613ef357604051631e68fc9d60e21b815260040160405180910390fd5b610e108161014001516060015163ffffffff161015613f2557604051631e68fc9d60e21b815260040160405180910390fd5b613397816101000151826040015151614686565b805160408083015160608401518051602091820151608087015160a088015160c08901516101208a01519751600099613f79999098979091339101615de4565b60408051601f1981840301815291815281516020928301206000818152600a90935291208351919250906001820190613fb29082615e54565b5060208301516002820190613fc79082615e54565b506003810180546001600160a01b0319163317905560408301518051613ff7916004840191602090910190614957565b506040805160e081018252600080825282516020818101855282825280840191825284518082018652838152848601526060808501849052880151608085015260c08089015160a08601528551918201909552918252928201528051600584019081559151909190600684019061406e9082615e54565b50604082015160028201906140839082615e54565b5060608201516003820180546001600160a01b0319166001600160a01b0390921691909117905560808201518051600483015560200151600582015560a0820151600682015560c082015160078201906140dd9082615e54565b5050506080830151600d82015560a0830151600f8201805460ff90921660ff1992831617905560c08401516010830155601182018054909116905561010083015180516141349160128401916020909101906149bc565b506141424262278d006157fd565b6013820155600060148201556101208301516015820180546001600160a01b0319166001600160a01b0392831690811790915560075460405163e8aa2e5f60e01b81526004810186905260248101929092529091169063e8aa2e5f90604401600060405180830381600087803b1580156141bb57600080fd5b505af11580156141cf573d6000803e3d6000fd5b5050505060005b8360e00151518110156142585781600e018460e0015182815181106141fd576141fd61582d565b6020908102919091018101518254600181018455600093845291909220825160039092020190819061422f9082615e54565b50602082015160018201556040909101516002909101558061425081615843565b9150506141d6565b5060005b8360400151518110156142da576001600d60008581526020019081526020016000206000866040015184815181106142965761429661582d565b6020908102919091018101516001600160a01b03168252810191909152604001600020805460ff1916911515919091179055806142d281615843565b91505061425c565b50336001600160a01b0316827f8c703010f2089192c1ad0b0d5f043883381afb402f1e74157e868848fdb7ebfb8560000151866040015187602001518860a001518961010001518a610120015160405161433996959493929190615f0d565b60405180910390a350919050565b600154604051634b84567160e11b81526001600160a01b038781166004830152602482018790526044820186905260648201859052608482018490526000921690639708ace29060a4016020604051808303816000875af11580156143b0573d6000803e3d6000fd5b505050506040513d601f19601f820116820180604052508101906143d49190615810565b6007546006546040516301156c6760e71b81523060048201526001600160a01b0392831660248201529082166044820152919250821690638ab6338090606401600060405180830381600087803b15801561442e57600080fd5b505af1158015614442573d6000803e3d6000fd5b505050600097885250600c602052604090962080546001600160a01b0319166001600160a01b03909716969096179095555050505050565b61448261471b565b612873614764565b61449261471b565b6133978161476c565b7f9b779b17422d0df92223018b32b4d1fa46e071723d6817e2486d003becc55f008054600119016144df57604051633ee5aeb560e01b815260040160405180910390fd5b60029055565b60017f9b779b17422d0df92223018b32b4d1fa46e071723d6817e2486d003becc55f0055565b6000818152600e6020526040808220546008549151630610418760e41b815260048101859052909183916001600160a01b0390911690636104187090602401602060405180830381865afa158015614567573d6000803e3d6000fd5b505050506040513d601f19601f8201168201806040525081019061458b9190615539565b9050606461459a826042615dab565b6145a49190615dc2565b909110159392505050565b6000818152600a6020526040902060110180546005919060ff19166001830217905550807f6a409f0f8d124fc3c3a9f5c354dc2901c33e711b0a6f705e8682307426329fb86040516146259060208082526010908201526f115b595c99d95b98de481499599d5b9960821b604082015260600190565b60405180910390a250565b61463982614774565b6040516001600160a01b038316907fbc7cd75a20ee27fd9adebab32041f755214dbc6bffa90cc0225b39da2e5c2d3b90600090a280511561467e57613be282826147d9565b61145861484f565b6146918160026157fd565b8251146146b1576040516328e525af60e21b815260040160405180910390fd5b6000805b83518110156146f7578381815181106146d0576146d061582d565b6020026020010151826146e391906157fd565b9150806146ef81615843565b9150506146b5565b5080620f424014613be2576040516317b5e2db60e01b815260040160405180910390fd5b7ff0c57e16840df040f15088dc2f81fe391c3923bec73e23a9662efc9c229c6a0054600160401b900460ff1661287357604051631afcd79f60e31b815260040160405180910390fd5b6144e561471b565b6134c261471b565b806001600160a01b03163b6000036147aa57604051634c9c8ce360e01b81526001600160a01b0382166004820152602401610b26565b600080516020615f9c83398151915280546001600160a01b0319166001600160a01b0392909216919091179055565b6060600080846001600160a01b0316846040516147f69190615f7f565b600060405180830381855af49150503d8060008114614831576040519150601f19603f3d011682016040523d82523d6000602084013e614836565b606091505b509150915061484685838361486e565b95945050505050565b34156128735760405163b398979f60e01b815260040160405180910390fd5b6060826148835761487e826148cd565b6148c6565b815115801561489a57506001600160a01b0384163b155b156148c357604051639996b31560e01b81526001600160a01b0385166004820152602401610b26565b50805b9392505050565b8051156148dd5780518082602001fd5b604051630a12f52160e11b815260040160405180910390fd5b6040518060e0016040528060008152602001606081526020016060815260200160006001600160a01b03168152602001614943604051806040016040528060008152602001600081525090565b815260200160008152602001606081525090565b8280548282559060005260206000209081019282156149ac579160200282015b828111156149ac57825182546001600160a01b0319166001600160a01b03909116178255602090920191600190910190614977565b506149b89291506149f7565b5090565b8280548282559060005260206000209081019282156149ac579160200282015b828111156149ac5782518255916020019190600101906149dc565b5b808211156149b857600081556001016149f8565b600060208284031215614a1e57600080fd5b5035919050565b6001600160a01b038116811461339757600080fd5b8035612c7681614a25565b60008060408385031215614a5857600080fd5b8235614a6381614a25565b946020939093013593505050565b60008060408385031215614a8457600080fd5b82359150602083013560088110614a9a57600080fd5b809150509250929050565b600080600060608486031215614aba57600080fd5b505081359360208301359350604090920135919050565b60008060408385031215614ae457600080fd5b823591506020830135614a9a81614a25565b60005b83811015614b11578181015183820152602001614af9565b50506000910152565b60008151808452614b32816020860160208601614af6565b601f01601f19169290920160200192915050565b600081518084526020808501945080840160005b83811015614b7f5781516001600160a01b031687529582019590820190600101614b5a565b509495945050505050565b6000610100825184526020830151816020860152614baa82860182614b1a565b91505060408301518482036040860152614bc48282614b1a565b91505060018060a01b036060840151166060850152608083015180516080860152602081015160a08601525060a083015160c085015260c083015184820360e08601526148468282614b1a565b634e487b7160e01b600052602160045260246000fd5b60088110614c4557634e487b7160e01b600052602160045260246000fd5b9052565b6000610140808352614c5d8184018e614b1a565b9050602083820381850152614c72828e614b1a565b9150604060018060a01b038d1681860152606085840381870152614c96848e614b46565b93508584036080870152614caa848d614b8a565b935085840360a0870152838b518086528486019150848160051b870101858e0160005b83811015614d1657888303601f1901855281518051878552614cf188860182614b1a565b828b0151868c0152918901519489019490945294880194925090870190600101614ccd565b505060ff8d1660c08a01529650614d2f95505050505050565b8460e0830152614d43610100830185614c27565b6001600160a01b0383166101208301529b9a5050505050505050505050565b60008060408385031215614d7557600080fd5b50508035926020909101359150565b60208101610aac8284614c27565b634e487b7160e01b600052604160045260246000fd5b604080519081016001600160401b0381118282101715614dca57614dca614d92565b60405290565b604051606081016001600160401b0381118282101715614dca57614dca614d92565b60405161016081016001600160401b0381118282101715614dca57614dca614d92565b60405160e081016001600160401b0381118282101715614dca57614dca614d92565b604051601f8201601f191681016001600160401b0381118282101715614e5f57614e5f614d92565b604052919050565b60006001600160401b03821115614e8057614e80614d92565b50601f01601f191660200190565b6000614ea1614e9c84614e67565b614e37565b9050828152838383011115614eb557600080fd5b828260208301376000602084830101529392505050565b60008060408385031215614edf57600080fd5b8235614eea81614a25565b915060208301356001600160401b03811115614f0557600080fd5b8301601f81018513614f1657600080fd5b614f2585823560208401614e8e565b9150509250929050565b600080600080600080600080610100898b031215614f4c57600080fd5b8835614f5781614a25565b97506020890135614f6781614a25565b96506040890135614f7781614a25565b95506060890135614f8781614a25565b94506080890135614f9781614a25565b935060a0890135614fa781614a25565b925060c0890135614fb781614a25565b915060e0890135614fc781614a25565b809150509295985092959890939650565b606081526000614feb6060830186614b1a565b60208301949094525060400152919050565b600082601f83011261500e57600080fd5b6148c683833560208501614e8e565b60006001600160401b0382111561503657615036614d92565b5060051b60200190565b600082601f83011261505157600080fd5b81356020615061614e9c8361501d565b82815260059290921b8401810191818101908684111561508057600080fd5b8286015b848110156150a457803561509781614a25565b8352918301918301615084565b509695505050505050565b6000604082840312156150c157600080fd5b6150c9614da8565b9050813581526020820135602082015292915050565b803560ff81168114612c7657600080fd5b600082601f83011261510157600080fd5b81356020615111614e9c8361501d565b82815260059290921b8401810191818101908684111561513057600080fd5b8286015b848110156150a45780356001600160401b03808211156151545760008081fd5b908801906060828b03601f190181131561516e5760008081fd5b615176614dd0565b87840135838111156151885760008081fd5b6151968d8a83880101614ffd565b82525060408481013589830152919093013590830152508352918301918301615134565b600082601f8301126151cb57600080fd5b813560206151db614e9c8361501d565b82815260059290921b840181019181810190868411156151fa57600080fd5b8286015b848110156150a457803583529183019183016151fe565b803563ffffffff81168114612c7657600080fd5b60006080828403121561523b57600080fd5b604051608081018181106001600160401b038211171561525d5761525d614d92565b60405290508061526c83615215565b815261527a60208401615215565b602082015261528b60408401615215565b604082015261529c60608401615215565b60608201525092915050565b6000602082840312156152ba57600080fd5b81356001600160401b03808211156152d157600080fd5b908301906101e082860312156152e657600080fd5b6152ee614df2565b8235828111156152fd57600080fd5b61530987828601614ffd565b82525060208301358281111561531e57600080fd5b61532a87828601614ffd565b60208301525060408301358281111561534257600080fd5b61534e87828601615040565b60408301525061536186606085016150af565b606082015260a0830135608082015261537c60c084016150df565b60a082015260e083013560c0820152610100808401358381111561539f57600080fd5b6153ab888287016150f0565b60e08401525061012080850135848111156153c557600080fd5b6153d1898288016151ba565b838501525061014093506153e6848601614a3a565b90830152506153f9866101608501615229565b91810191909152949350505050565b6000806040838503121561541b57600080fd5b8235915060208301356001600160401b0381111561543857600080fd5b83016101008186031215614a9a57600080fd5b6020815260006148c66020830184614b1a565b60006020828403121561547057600080fd5b81356148c681614a25565b60006101808e83528060208401526154958184018f614b1a565b905082810360408401526154a9818e614b1a565b6001600160a01b038d8116606086015284820360808601529091506154ce828d614b8a565b92508a60a085015260ff8a1660c08501528860e08501526154f3610100850189614c27565b866101208501528561014085015280851661016085015250509d9c50505050505050505050505050565b602080825260029082015261217360f01b604082015260600190565b60006020828403121561554b57600080fd5b5051919050565b600082601f83011261556357600080fd5b8151615571614e9c82614e67565b81815284602083860101111561558657600080fd5b615597826020830160208701614af6565b949350505050565b8051612c7681614a25565b6000604082840312156155bc57600080fd5b6155c4614da8565b9050815181526020820151602082015292915050565b600061010082840312156155ed57600080fd5b6155f5614e15565b90508151815260208201516001600160401b038082111561561557600080fd5b61562185838601615552565b6020840152604084015191508082111561563a57600080fd5b61564685838601615552565b60408401526156576060850161559f565b606084015261566985608086016155aa565b608084015260c084015160a084015260e084015191508082111561568c57600080fd5b5061569984828501615552565b60c08301525092915050565b600082601f8301126156b657600080fd5b815160206156c6614e9c8361501d565b82815260059290921b840181019181810190868411156156e557600080fd5b8286015b848110156150a457805183529183019183016156e9565b80518015158114612c7657600080fd5b60006020828403121561572257600080fd5b81516001600160401b038082111561573957600080fd5b9083019060e0828603121561574d57600080fd5b615755614e15565b82518281111561576457600080fd5b615770878286016155da565b82525060208301518281111561578557600080fd5b615791878286016156a5565b6020830152506157a36040840161559f565b604082015260608301516060820152608083015160808201526157c860a08401615700565b60a08201526157d960c0840161559f565b60c082015295945050505050565b634e487b7160e01b600052601160045260246000fd5b80820180821115610aac57610aac6157e7565b60006020828403121561582257600080fd5b81516148c681614a25565b634e487b7160e01b600052603260045260246000fd5b600060018201615855576158556157e7565b5060010190565b81810381811115610aac57610aac6157e7565b600081518084526020808501945080840160005b83811015614b7f57815187529582019590820190600101615883565b85815260a0602082015260006158b860a0830187614b46565b82810360408401526158ca818761586f565b606084019590955250506001600160a01b03919091166080909101529392505050565b600181811c9082168061590157607f821691505b6020821081036124dc57634e487b7160e01b600052602260045260246000fd5b6020808252600190820152601560fa1b604082015260600190565b60006020828403121561594e57600080fd5b6148c682615700565b6000806040838503121561596a57600080fd5b505080516020909101519092909150565b60006020828403121561598d57600080fd5b81516001600160401b038111156159a357600080fd5b615597848285016156a5565b6000808335601e198436030181126159c657600080fd5b8301803591506001600160401b038211156159e057600080fd5b6020019150368190038213156159f557600080fd5b9250929050565b601f821115613be257600081815260208120601f850160051c81016020861015615a235750805b601f850160051c820191505b81811015612ebc57828155600101615a2f565b600019600383901b1c191660019190911b1790565b6001600160401b03831115615a6e57615a6e614d92565b615a8283615a7c83546158ed565b836159fc565b6000601f841160018114615ab05760008515615a9e5750838201355b615aa88682615a42565b845550615b0a565b600083815260209020601f19861690835b82811015615ae15786850135825560209485019460019092019101615ac1565b5086821015615afe5760001960f88860031b161c19848701351681555b505060018560011b0183555b5050505050565b60008135610aac81614a25565b8135815560018082016020615b35818601866159af565b6001600160401b03811115615b4c57615b4c614d92565b615b6081615b5a86546158ed565b866159fc565b6000601f821160018114615b8e5760008315615b7c5750838201355b615b868482615a42565b875550615be3565b600086815260209020601f19841690835b82811015615bbc5786850135825593870193908901908701615b9f565b5084821015615bd95760001960f88660031b161c19848701351681555b50508683881b0186555b50505050505050615bf760408301836159af565b615c05818360028601615a57565b5050615c3a615c1660608401615b11565b6003830180546001600160a01b0319166001600160a01b0392909216919091179055565b6080820135600482015560a0820135600582015560c08201356006820155615c6560e08301836159af565b6131d3818360078601615a57565b6000808335601e19843603018112615c8a57600080fd5b83016020810192503590506001600160401b03811115615ca957600080fd5b8036038213156159f557600080fd5b81835281816020850137506000828201602090810191909152601f909101601f19169091010190565b60208152813560208201526000615cfb6020840184615c73565b610100806040860152615d1361012086018385615cb8565b9250615d226040870187615c73565b9250601f1980878603016060880152615d3c858584615cb8565b945060608801359350615d4e84614a25565b60018060a01b0384166080880152608088013560a088015260a088013560c088015260c088013560e0880152615d8760e0890189615c73565b9450915080878603018388015250615da0848483615cb8565b979650505050505050565b8082028115828204841417610aac57610aac6157e7565b600082615ddf57634e487b7160e01b600052601260045260246000fd5b500490565b6000610120808352615df88184018d614b1a565b90508281036020840152615e0c818c614b46565b604084019a909a5250506060810196909652608086019490945260ff9290921660a085015260c08401526001600160a01b0390811660e0840152166101009091015292915050565b81516001600160401b03811115615e6d57615e6d614d92565b615e8181615e7b84546158ed565b846159fc565b602080601f831160018114615eb05760008415615e9e5750858301515b615ea88582615a42565b865550612ebc565b600085815260208120601f198616915b82811015615edf57888601518255948401946001909101908401615ec0565b5085821015615efd5787850151600019600388901b60f8161c191681555b5050505050600190811b01905550565b60c081526000615f2060c0830189614b1a565b8281036020840152615f328189614b46565b90508281036040840152615f468188614b1a565b905060ff861660608401528281036080840152615f63818661586f565b91505060018060a01b03831660a0830152979650505050505050565b60008251615f91818460208701614af6565b919091019291505056fe360894a13ba1a3210667c828492db98dca3e2076cc3735a920a3ca505d382bbca26469706673582212205e7b15829944bb9e336a6e2ef89f3aea8f3323bdcf66e0c8f7a88c81e04adc4b64736f6c63430008140033","linkReferences":{}},"methodIdentifiers":{"COOLDOWN()":"a2724a4d","SELLOUT_PROTOCOL_WALLET()":"e30228be","UPGRADE_INTERFACE_VERSION()":"ad3cb1cc","artistRegistryInstance()":"8dea15a1","boxOfficeInstance()":"a2b7d174","cancelShow(bytes32)":"ef5023a5","completeShow(bytes32)":"129e086b","consumeTicketTier(bytes32,uint256,uint256)":"644b5e59","extendShowExpiry(bytes32,uint256)":"292d1d4a","getNumberOfVoters(bytes32)":"85ffa16c","getOrganizer(bytes32)":"977cb89e","getShowById(bytes32)":"27b1bf52","getShowExpiry(bytes32)":"00eb5c51","getShowStatus(bytes32)":"46c2c8a7","getShowToTicketProxy(bytes32)":"fdc7066c","getShowToVenueProxy(bytes32)":"3e2fea34","getTicketTierInfo(bytes32,uint256)":"7e3e3935","hasTicket(address,bytes32)":"5c37da69","hasVotedForEmergencyRefund(bytes32,address)":"63c18a52","initialize(address)":"c4d66de8","isArtist(address,bytes32)":"02c9a8b5","isArtistMapping(bytes32,address)":"bafd4eb0","isOrganizer(address,bytes32)":"4ed372da","organizerRegistryInstance()":"1cf2103e","owner()":"8da5cb5b","payout(bytes32)":"cfefb3d5","proposeShow((string,string,address[],(int256,int256),uint256,uint8,uint256,(string,uint256,uint256)[],uint256[],address,(uint32,uint32,uint32,uint32)))":"a110412c","proxiableUUID()":"52d1902d","referralInstance()":"c6ab848a","refundBribe(bytes32,uint256,uint256)":"0a35906b","refundTicket(bytes32,uint256)":"3c60d2d6","renounceOwnership()":"715018a6","setProtocolAddresses(address,address,address,address,address,address,address,address)":"5f198834","setShowToTicketProxy(bytes32,address)":"0b5c6364","showToTicketProxy(bytes32)":"3deba964","showToVenueProxy(bytes32)":"e71aee7e","showVaultInstance()":"6a017891","shows(bytes32)":"fca46559","ticketFactoryInstance()":"e4ca73aa","transferOwnership(address)":"f2fde38b","updateShowDate(bytes32,uint256)":"64ad6cd6","updateShowVenue(bytes32,(uint256,string,string,address,(int256,int256),uint256,string))":"a94dafab","updateStatus(bytes32,uint8)":"054372ed","updateStatusIfSoldOut(bytes32)":"e6180546","upgradeToAndCall(address,bytes)":"4f1ef286","venueFactoryInstance()":"9673b1e3","venueRegistryInstance()":"703ee4e5","voteForEmergencyRefund(bytes32)":"fc4bdfd4","votesForEmergencyRefund(bytes32)":"9ee0a14e","withdrawRefund(bytes32)":"e9acfa7c"},"id":69}