{"abi":[{"type":"function","name":"COOLDOWN","inputs":[],"outputs":[{"name":"","type":"uint256","internalType":"uint256"}],"stateMutability":"view"},{"type":"function","name":"SELLOUT_PROTOCOL_WALLET","inputs":[],"outputs":[{"name":"","type":"address","internalType":"address"}],"stateMutability":"view"},{"type":"function","name":"UPGRADE_INTERFACE_VERSION","inputs":[],"outputs":[{"name":"","type":"string","internalType":"string"}],"stateMutability":"view"},{"type":"function","name":"artistRegistryInstance","inputs":[],"outputs":[{"name":"","type":"address","internalType":"contract IArtistRegistry"}],"stateMutability":"view"},{"type":"function","name":"boxOfficeInstance","inputs":[],"outputs":[{"name":"","type":"address","internalType":"contract IBoxOffice"}],"stateMutability":"view"},{"type":"function","name":"cancelShow","inputs":[{"name":"showId","type":"bytes32","internalType":"bytes32"}],"outputs":[],"stateMutability":"nonpayable"},{"type":"function","name":"completeShow","inputs":[{"name":"showId","type":"bytes32","internalType":"bytes32"}],"outputs":[],"stateMutability":"nonpayable"},{"type":"function","name":"consumeTicketTier","inputs":[{"name":"showId","type":"bytes32","internalType":"bytes32"},{"name":"tierIndex","type":"uint256","internalType":"uint256"},{"name":"amount","type":"uint256","internalType":"uint256"}],"outputs":[],"stateMutability":"nonpayable"},{"type":"function","name":"getNumberOfVoters","inputs":[{"name":"showId","type":"bytes32","internalType":"bytes32"}],"outputs":[{"name":"","type":"uint256","internalType":"uint256"}],"stateMutability":"view"},{"type":"function","name":"getOrganizer","inputs":[{"name":"showId","type":"bytes32","internalType":"bytes32"}],"outputs":[{"name":"","type":"address","internalType":"address"}],"stateMutability":"view"},{"type":"function","name":"getShowById","inputs":[{"name":"showId","type":"bytes32","internalType":"bytes32"}],"outputs":[{"name":"name","type":"string","internalType":"string"},{"name":"description","type":"string","internalType":"string"},{"name":"organizer","type":"address","internalType":"address"},{"name":"artists","type":"address[]","internalType":"address[]"},{"name":"venue","type":"tuple","internalType":"struct VenueRegistryTypes.VenueInfo","components":[{"name":"venueId","type":"uint256","internalType":"uint256"},{"name":"name","type":"string","internalType":"string"},{"name":"bio","type":"string","internalType":"string"},{"name":"wallet","type":"address","internalType":"address"},{"name":"coordinates","type":"tuple","internalType":"struct VenueRegistryTypes.Coordinates","components":[{"name":"latitude","type":"int256","internalType":"int256"},{"name":"longitude","type":"int256","internalType":"int256"}]},{"name":"totalCapacity","type":"uint256","internalType":"uint256"},{"name":"streetAddress","type":"string","internalType":"string"}]},{"name":"ticketTiers","type":"tuple[]","internalType":"struct ShowTypes.TicketTier[]","components":[{"name":"name","type":"string","internalType":"string"},{"name":"price","type":"uint256","internalType":"uint256"},{"name":"ticketsAvailable","type":"uint256","internalType":"uint256"}]},{"name":"sellOutThreshold","type":"uint256","internalType":"uint256"},{"name":"totalCapacity","type":"uint256","internalType":"uint256"},{"name":"status","type":"uint8","internalType":"enum ShowTypes.Status"},{"name":"currencyAddress","type":"address","internalType":"address"}],"stateMutability":"view"},{"type":"function","name":"getShowStatus","inputs":[{"name":"showId","type":"bytes32","internalType":"bytes32"}],"outputs":[{"name":"","type":"uint8","internalType":"enum ShowTypes.Status"}],"stateMutability":"view"},{"type":"function","name":"getShowToTicketProxy","inputs":[{"name":"showId","type":"bytes32","internalType":"bytes32"}],"outputs":[{"name":"","type":"address","internalType":"address"}],"stateMutability":"view"},{"type":"function","name":"getShowToVenueProxy","inputs":[{"name":"showId","type":"bytes32","internalType":"bytes32"}],"outputs":[{"name":"","type":"address","internalType":"address"}],"stateMutability":"view"},{"type":"function","name":"getTicketTierInfo","inputs":[{"name":"showId","type":"bytes32","internalType":"bytes32"},{"name":"tierIndex","type":"uint256","internalType":"uint256"}],"outputs":[{"name":"name","type":"string","internalType":"string"},{"name":"price","type":"uint256","internalType":"uint256"},{"name":"ticketsAvailable","type":"uint256","internalType":"uint256"}],"stateMutability":"view"},{"type":"function","name":"hasTicket","inputs":[{"name":"wallet","type":"address","internalType":"address"},{"name":"showId","type":"bytes32","internalType":"bytes32"}],"outputs":[{"name":"","type":"bool","internalType":"bool"}],"stateMutability":"view"},{"type":"function","name":"hasVotedForEmergencyRefund","inputs":[{"name":"","type":"bytes32","internalType":"bytes32"},{"name":"","type":"address","internalType":"address"}],"outputs":[{"name":"","type":"bool","internalType":"bool"}],"stateMutability":"view"},{"type":"function","name":"initialize","inputs":[{"name":"_selloutProtocolWallet","type":"address","internalType":"address"}],"outputs":[],"stateMutability":"nonpayable"},{"type":"function","name":"isArtist","inputs":[{"name":"user","type":"address","internalType":"address"},{"name":"showId","type":"bytes32","internalType":"bytes32"}],"outputs":[{"name":"","type":"bool","internalType":"bool"}],"stateMutability":"view"},{"type":"function","name":"isArtistMapping","inputs":[{"name":"","type":"bytes32","internalType":"bytes32"},{"name":"","type":"address","internalType":"address"}],"outputs":[{"name":"","type":"bool","internalType":"bool"}],"stateMutability":"view"},{"type":"function","name":"isOrganizer","inputs":[{"name":"user","type":"address","internalType":"address"},{"name":"showId","type":"bytes32","internalType":"bytes32"}],"outputs":[{"name":"","type":"bool","internalType":"bool"}],"stateMutability":"view"},{"type":"function","name":"organizerRegistryInstance","inputs":[],"outputs":[{"name":"","type":"address","internalType":"contract IOrganizerRegistry"}],"stateMutability":"view"},{"type":"function","name":"owner","inputs":[],"outputs":[{"name":"","type":"address","internalType":"address"}],"stateMutability":"view"},{"type":"function","name":"payout","inputs":[{"name":"showId","type":"bytes32","internalType":"bytes32"}],"outputs":[],"stateMutability":"nonpayable"},{"type":"function","name":"proposeShow","inputs":[{"name":"proposal","type":"tuple","internalType":"struct ShowTypes.ShowProposal","components":[{"name":"name","type":"string","internalType":"string"},{"name":"description","type":"string","internalType":"string"},{"name":"artists","type":"address[]","internalType":"address[]"},{"name":"coordinates","type":"tuple","internalType":"struct VenueRegistryTypes.Coordinates","components":[{"name":"latitude","type":"int256","internalType":"int256"},{"name":"longitude","type":"int256","internalType":"int256"}]},{"name":"radius","type":"uint256","internalType":"uint256"},{"name":"sellOutThreshold","type":"uint8","internalType":"uint8"},{"name":"totalCapacity","type":"uint256","internalType":"uint256"},{"name":"ticketTiers","type":"tuple[]","internalType":"struct ShowTypes.TicketTier[]","components":[{"name":"name","type":"string","internalType":"string"},{"name":"price","type":"uint256","internalType":"uint256"},{"name":"ticketsAvailable","type":"uint256","internalType":"uint256"}]},{"name":"split","type":"uint256[]","internalType":"uint256[]"},{"name":"currencyAddress","type":"address","internalType":"address"},{"name":"venueProposalParams","type":"tuple","internalType":"struct VenueTypes.VenueProposalParams","components":[{"name":"proposalPeriodDuration","type":"uint32","internalType":"uint32"},{"name":"proposalDateExtension","type":"uint32","internalType":"uint32"},{"name":"proposalDateMinimumFuture","type":"uint32","internalType":"uint32"},{"name":"proposalPeriodExtensionThreshold","type":"uint32","internalType":"uint32"}]}]}],"outputs":[{"name":"showId","type":"bytes32","internalType":"bytes32"}],"stateMutability":"nonpayable"},{"type":"function","name":"proxiableUUID","inputs":[],"outputs":[{"name":"","type":"bytes32","internalType":"bytes32"}],"stateMutability":"view"},{"type":"function","name":"referralInstance","inputs":[],"outputs":[{"name":"","type":"address","internalType":"contract ReferralModule"}],"stateMutability":"view"},{"type":"function","name":"refundBribe","inputs":[{"name":"showId","type":"bytes32","internalType":"bytes32"},{"name":"venueId","type":"uint256","internalType":"uint256"},{"name":"proposalIndex","type":"uint256","internalType":"uint256"}],"outputs":[],"stateMutability":"nonpayable"},{"type":"function","name":"refundTicket","inputs":[{"name":"showId","type":"bytes32","internalType":"bytes32"},{"name":"tokenId","type":"uint256","internalType":"uint256"}],"outputs":[],"stateMutability":"nonpayable"},{"type":"function","name":"renounceOwnership","inputs":[],"outputs":[],"stateMutability":"nonpayable"},{"type":"function","name":"setProtocolAddresses","inputs":[{"name":"_ticketFactory","type":"address","internalType":"address"},{"name":"_venueFactory","type":"address","internalType":"address"},{"name":"_referralContract","type":"address","internalType":"address"},{"name":"_artistRegistryContract","type":"address","internalType":"address"},{"name":"_organizerRegistryContract","type":"address","internalType":"address"},{"name":"_venueRegistryContract","type":"address","internalType":"address"},{"name":"_showVault","type":"address","internalType":"address"},{"name":"_boxOffice","type":"address","internalType":"address"}],"outputs":[],"stateMutability":"nonpayable"},{"type":"function","name":"setShowToTicketProxy","inputs":[{"name":"showId","type":"bytes32","internalType":"bytes32"},{"name":"ticketProxy","type":"address","internalType":"address"}],"outputs":[],"stateMutability":"nonpayable"},{"type":"function","name":"showToTicketProxy","inputs":[{"name":"","type":"bytes32","internalType":"bytes32"}],"outputs":[{"name":"","type":"address","internalType":"address"}],"stateMutability":"view"},{"type":"function","name":"showToVenueProxy","inputs":[{"name":"","type":"bytes32","internalType":"bytes32"}],"outputs":[{"name":"","type":"address","internalType":"address"}],"stateMutability":"view"},{"type":"function","name":"showVaultInstance","inputs":[],"outputs":[{"name":"","type":"address","internalType":"contract IShowVault"}],"stateMutability":"view"},{"type":"function","name":"shows","inputs":[{"name":"","type":"bytes32","internalType":"bytes32"}],"outputs":[{"name":"showId","type":"bytes32","internalType":"bytes32"},{"name":"name","type":"string","internalType":"string"},{"name":"description","type":"string","internalType":"string"},{"name":"organizer","type":"address","internalType":"address"},{"name":"venue","type":"tuple","internalType":"struct VenueRegistryTypes.VenueInfo","components":[{"name":"venueId","type":"uint256","internalType":"uint256"},{"name":"name","type":"string","internalType":"string"},{"name":"bio","type":"string","internalType":"string"},{"name":"wallet","type":"address","internalType":"address"},{"name":"coordinates","type":"tuple","internalType":"struct VenueRegistryTypes.Coordinates","components":[{"name":"latitude","type":"int256","internalType":"int256"},{"name":"longitude","type":"int256","internalType":"int256"}]},{"name":"totalCapacity","type":"uint256","internalType":"uint256"},{"name":"streetAddress","type":"string","internalType":"string"}]},{"name":"radius","type":"uint256","internalType":"uint256"},{"name":"sellOutThreshold","type":"uint256","internalType":"uint256"},{"name":"totalCapacity","type":"uint256","internalType":"uint256"},{"name":"status","type":"uint8","internalType":"enum ShowTypes.Status"},{"name":"expiry","type":"uint256","internalType":"uint256"},{"name":"showDate","type":"uint256","internalType":"uint256"},{"name":"currencyAddress","type":"address","internalType":"address"}],"stateMutability":"view"},{"type":"function","name":"ticketFactoryInstance","inputs":[],"outputs":[{"name":"","type":"address","internalType":"contract ITicketFactory"}],"stateMutability":"view"},{"type":"function","name":"transferOwnership","inputs":[{"name":"newOwner","type":"address","internalType":"address"}],"outputs":[],"stateMutability":"nonpayable"},{"type":"function","name":"updateShowDate","inputs":[{"name":"showId","type":"bytes32","internalType":"bytes32"},{"name":"newDate","type":"uint256","internalType":"uint256"}],"outputs":[],"stateMutability":"nonpayable"},{"type":"function","name":"updateShowVenue","inputs":[{"name":"showId","type":"bytes32","internalType":"bytes32"},{"name":"newVenue","type":"tuple","internalType":"struct VenueRegistryTypes.VenueInfo","components":[{"name":"venueId","type":"uint256","internalType":"uint256"},{"name":"name","type":"string","internalType":"string"},{"name":"bio","type":"string","internalType":"string"},{"name":"wallet","type":"address","internalType":"address"},{"name":"coordinates","type":"tuple","internalType":"struct VenueRegistryTypes.Coordinates","components":[{"name":"latitude","type":"int256","internalType":"int256"},{"name":"longitude","type":"int256","internalType":"int256"}]},{"name":"totalCapacity","type":"uint256","internalType":"uint256"},{"name":"streetAddress","type":"string","internalType":"string"}]}],"outputs":[],"stateMutability":"nonpayable"},{"type":"function","name":"updateStatus","inputs":[{"name":"showId","type":"bytes32","internalType":"bytes32"},{"name":"_status","type":"uint8","internalType":"enum ShowTypes.Status"}],"outputs":[],"stateMutability":"nonpayable"},{"type":"function","name":"updateStatusIfSoldOut","inputs":[{"name":"showId","type":"bytes32","internalType":"bytes32"}],"outputs":[],"stateMutability":"nonpayable"},{"type":"function","name":"upgradeToAndCall","inputs":[{"name":"newImplementation","type":"address","internalType":"address"},{"name":"data","type":"bytes","internalType":"bytes"}],"outputs":[],"stateMutability":"payable"},{"type":"function","name":"venueFactoryInstance","inputs":[],"outputs":[{"name":"","type":"address","internalType":"contract IVenueFactory"}],"stateMutability":"view"},{"type":"function","name":"venueRegistryInstance","inputs":[],"outputs":[{"name":"","type":"address","internalType":"contract IVenueRegistry"}],"stateMutability":"view"},{"type":"function","name":"voteForEmergencyRefund","inputs":[{"name":"showId","type":"bytes32","internalType":"bytes32"}],"outputs":[],"stateMutability":"nonpayable"},{"type":"function","name":"votesForEmergencyRefund","inputs":[{"name":"","type":"bytes32","internalType":"bytes32"}],"outputs":[{"name":"","type":"uint256","internalType":"uint256"}],"stateMutability":"view"},{"type":"function","name":"withdrawRefund","inputs":[{"name":"showId","type":"bytes32","internalType":"bytes32"}],"outputs":[],"stateMutability":"nonpayable"},{"type":"event","name":"BribeRefunded","inputs":[{"name":"showId","type":"bytes32","indexed":true,"internalType":"bytes32"},{"name":"venueId","type":"uint256","indexed":true,"internalType":"uint256"},{"name":"proposer","type":"address","indexed":true,"internalType":"address"},{"name":"bribeAmount","type":"uint256","indexed":false,"internalType":"uint256"},{"name":"paymentToken","type":"address","indexed":false,"internalType":"address"}],"anonymous":false},{"type":"event","name":"ERC20Deposited","inputs":[{"name":"showId","type":"bytes32","indexed":true,"internalType":"bytes32"},{"name":"tokenAddress","type":"address","indexed":true,"internalType":"address"},{"name":"depositor","type":"address","indexed":true,"internalType":"address"},{"name":"amount","type":"uint256","indexed":false,"internalType":"uint256"}],"anonymous":false},{"type":"event","name":"ExpiryUpdated","inputs":[{"name":"showId","type":"bytes32","indexed":true,"internalType":"bytes32"},{"name":"expiry","type":"uint256","indexed":false,"internalType":"uint256"}],"anonymous":false},{"type":"event","name":"Initialized","inputs":[{"name":"version","type":"uint64","indexed":false,"internalType":"uint64"}],"anonymous":false},{"type":"event","name":"OwnershipTransferred","inputs":[{"name":"previousOwner","type":"address","indexed":true,"internalType":"address"},{"name":"newOwner","type":"address","indexed":true,"internalType":"address"}],"anonymous":false},{"type":"event","name":"RefundWithdrawn","inputs":[{"name":"user","type":"address","indexed":true,"internalType":"address"},{"name":"showId","type":"bytes32","indexed":true,"internalType":"bytes32"},{"name":"amount","type":"uint256","indexed":false,"internalType":"uint256"}],"anonymous":false},{"type":"event","name":"ShowCancelled","inputs":[{"name":"showId","type":"bytes32","indexed":true,"internalType":"bytes32"},{"name":"reason","type":"string","indexed":false,"internalType":"string"}],"anonymous":false},{"type":"event","name":"ShowExpired","inputs":[{"name":"showId","type":"bytes32","indexed":true,"internalType":"bytes32"}],"anonymous":false},{"type":"event","name":"ShowProposed","inputs":[{"name":"showId","type":"bytes32","indexed":true,"internalType":"bytes32"},{"name":"organizer","type":"address","indexed":true,"internalType":"address"},{"name":"name","type":"string","indexed":false,"internalType":"string"},{"name":"artists","type":"address[]","indexed":false,"internalType":"address[]"},{"name":"description","type":"string","indexed":false,"internalType":"string"},{"name":"sellOutThreshold","type":"uint256","indexed":false,"internalType":"uint256"},{"name":"split","type":"uint256[]","indexed":false,"internalType":"uint256[]"},{"name":"currencyAddress","type":"address","indexed":false,"internalType":"address"}],"anonymous":false},{"type":"event","name":"StatusUpdated","inputs":[{"name":"showId","type":"bytes32","indexed":true,"internalType":"bytes32"},{"name":"status","type":"uint8","indexed":false,"internalType":"enum ShowTypes.Status"}],"anonymous":false},{"type":"event","name":"TicketRefunded","inputs":[{"name":"user","type":"address","indexed":true,"internalType":"address"},{"name":"showId","type":"bytes32","indexed":true,"internalType":"bytes32"},{"name":"refundAmount","type":"uint256","indexed":false,"internalType":"uint256"}],"anonymous":false},{"type":"event","name":"TicketTierConsumed","inputs":[{"name":"showId","type":"bytes32","indexed":true,"internalType":"bytes32"},{"name":"tierIndex","type":"uint256","indexed":true,"internalType":"uint256"},{"name":"amount","type":"uint256","indexed":false,"internalType":"uint256"}],"anonymous":false},{"type":"event","name":"Upgraded","inputs":[{"name":"implementation","type":"address","indexed":true,"internalType":"address"}],"anonymous":false},{"type":"event","name":"VenueUpdated","inputs":[{"name":"showId","type":"bytes32","indexed":true,"internalType":"bytes32"},{"name":"newVenue","type":"tuple","indexed":false,"internalType":"struct VenueRegistryTypes.VenueInfo","components":[{"name":"venueId","type":"uint256","internalType":"uint256"},{"name":"name","type":"string","internalType":"string"},{"name":"bio","type":"string","internalType":"string"},{"name":"wallet","type":"address","internalType":"address"},{"name":"coordinates","type":"tuple","internalType":"struct VenueRegistryTypes.Coordinates","components":[{"name":"latitude","type":"int256","internalType":"int256"},{"name":"longitude","type":"int256","internalType":"int256"}]},{"name":"totalCapacity","type":"uint256","internalType":"uint256"},{"name":"streetAddress","type":"string","internalType":"string"}]}],"anonymous":false},{"type":"error","name":"AddressEmptyCode","inputs":[{"name":"target","type":"address","internalType":"address"}]},{"type":"error","name":"ERC1967InvalidImplementation","inputs":[{"name":"implementation","type":"address","internalType":"address"}]},{"type":"error","name":"ERC1967NonPayable","inputs":[]},{"type":"error","name":"FailedInnerCall","inputs":[]},{"type":"error","name":"InvalidCapacity","inputs":[]},{"type":"error","name":"InvalidDescription","inputs":[]},{"type":"error","name":"InvalidInitialization","inputs":[]},{"type":"error","name":"InvalidLatitude","inputs":[]},{"type":"error","name":"InvalidLongitude","inputs":[]},{"type":"error","name":"InvalidName","inputs":[]},{"type":"error","name":"InvalidSellOutThreshold","inputs":[]},{"type":"error","name":"InvalidSplitArrayLength","inputs":[]},{"type":"error","name":"InvalidSplitSum","inputs":[]},{"type":"error","name":"InvalidVenueProposalParameters","inputs":[]},{"type":"error","name":"NotInitializing","inputs":[]},{"type":"error","name":"OwnableInvalidOwner","inputs":[{"name":"owner","type":"address","internalType":"address"}]},{"type":"error","name":"OwnableUnauthorizedAccount","inputs":[{"name":"account","type":"address","internalType":"address"}]},{"type":"error","name":"ReentrancyGuardReentrantCall","inputs":[]},{"type":"error","name":"UUPSUnauthorizedCallContext","inputs":[]},{"type":"error","name":"UUPSUnsupportedProxiableUUID","inputs":[{"name":"slot","type":"bytes32","internalType":"bytes32"}]}],"bytecode":{"object":"0x60a06040526008805460ff60a01b191690553060805234801561002157600080fd5b50608051615cce6200004c6000396000818161379d015281816137c6015261390c0152615cce6000f3fe6080604052600436106102935760003560e01c80638da5cb5b1161015a578063c6ab848a116100c1578063e9acfa7c1161007a578063e9acfa7c146108f2578063ef5023a514610912578063f2fde38b14610932578063fc4bdfd414610952578063fca4655914610972578063fdc7066c146109aa57600080fd5b8063c6ab848a1461081c578063cfefb3d51461083c578063e30228be1461085c578063e4ca73aa1461087c578063e61805461461089c578063e71aee7e146108bc57600080fd5b8063a2724a4d11610113578063a2724a4d1461072e578063a2b7d17414610743578063a94dafab14610763578063ad3cb1cc14610783578063bafd4eb0146107c1578063c4d66de8146107fc57600080fd5b80638da5cb5b1461062b5780638dea15a1146106685780639673b1e314610688578063977cb89e146106a85780639ee0a14e146106e1578063a110412c1461070e57600080fd5b80634f1ef286116101fe57806364ad6cd6116101b757806364ad6cd6146105675780636a01789114610587578063703ee4e5146105a7578063715018a6146105c75780637e3e3935146105dc57806385ffa16c1461060b57600080fd5b80634f1ef2861461049657806352d1902d146104a95780635c37da69146104cc5780635f198834146104ec57806363c18a521461050c578063644b5e591461054757600080fd5b806327b1bf521161025057806327b1bf52146103875780633c60d2d6146103bd5780633deba964146103dd5780633e2fea341461041357806346c2c8a7146104495780634ed372da1461047657600080fd5b806302c9a8b514610298578063054372ed146102cd5780630a35906b146102ef5780630b5c63641461030f578063129e086b1461032f5780631cf2103e1461034f575b600080fd5b3480156102a457600080fd5b506102b86102b3366004614712565b6109e0565b60405190151581526020015b60405180910390f35b3480156102d957600080fd5b506102ed6102e836600461473e565b610a0d565b005b3480156102fb57600080fd5b506102ed61030a366004614772565b610afa565b34801561031b57600080fd5b506102ed61032a36600461479e565b610e9d565b34801561033b57600080fd5b506102ed61034a3660046147c3565b610f0b565b34801561035b57600080fd5b5060055461036f906001600160a01b031681565b6040516001600160a01b0390911681526020016102c4565b34801561039357600080fd5b506103a76103a23660046147c3565b6113d0565b6040516102c49a9998979695949392919061492f565b3480156103c957600080fd5b506102ed6103d8366004614a41565b611984565b3480156103e957600080fd5b5061036f6103f83660046147c3565b600b602052600090815260409020546001600160a01b031681565b34801561041f57600080fd5b5061036f61042e3660046147c3565b6000908152600c60205260409020546001600160a01b031690565b34801561045557600080fd5b506104696104643660046147c3565b611d55565b6040516102c49190614a63565b34801561048257600080fd5b506102b8610491366004614712565b61234a565b6102ed6104a4366004614bab565b61236d565b3480156104b557600080fd5b506104be612388565b6040519081526020016102c4565b3480156104d857600080fd5b506102b86104e7366004614712565b6123a5565b3480156104f857600080fd5b506102ed610507366004614c0e565b61242d565b34801561051857600080fd5b506102b861052736600461479e565b600f60209081526000928352604080842090915290825290205460ff1681565b34801561055357600080fd5b506102ed610562366004614772565b61250d565b34801561057357600080fd5b506102ed610582366004614a41565b612659565b34801561059357600080fd5b5060075461036f906001600160a01b031681565b3480156105b357600080fd5b5060065461036f906001600160a01b031681565b3480156105d357600080fd5b506102ed612700565b3480156105e857600080fd5b506105fc6105f7366004614a41565b612714565b6040516102c493929190614cb7565b34801561061757600080fd5b506104be6106263660046147c3565b612839565b34801561063757600080fd5b507f9016d09d72d40fdae2fd8ceac6b6234c7706214fd39c1cd1e609a0528c199300546001600160a01b031661036f565b34801561067457600080fd5b5060045461036f906001600160a01b031681565b34801561069457600080fd5b5060015461036f906001600160a01b031681565b3480156106b457600080fd5b5061036f6106c33660046147c3565b6000908152600a60205260409020600301546001600160a01b031690565b3480156106ed57600080fd5b506104be6106fc3660046147c3565b600e6020526000908152604090205481565b34801561071a57600080fd5b506104be610729366004614f87565b6128c0565b34801561073a57600080fd5b506104be607881565b34801561074f57600080fd5b5060085461036f906001600160a01b031681565b34801561076f57600080fd5b506102ed61077e3660046150e7565b612b1a565b34801561078f57600080fd5b506107b4604051806040016040528060058152602001640352e302e360dc1b81525081565b6040516102c4919061512a565b3480156107cd57600080fd5b506102b86107dc36600461479e565b600d60209081526000928352604080842090915290825290205460ff1681565b34801561080857600080fd5b506102ed61081736600461513d565b612c29565b34801561082857600080fd5b5060035461036f906001600160a01b031681565b34801561084857600080fd5b506102ed6108573660046147c3565b612d5a565b34801561086857600080fd5b5060005461036f906001600160a01b031681565b34801561088857600080fd5b5060025461036f906001600160a01b031681565b3480156108a857600080fd5b506102ed6108b73660046147c3565b612ef9565b3480156108c857600080fd5b5061036f6108d73660046147c3565b600c602052600090815260409020546001600160a01b031681565b3480156108fe57600080fd5b506102ed61090d3660046147c3565b612ff8565b34801561091e57600080fd5b506102ed61092d3660046147c3565b6131b3565b34801561093e57600080fd5b506102ed61094d36600461513d565b613288565b34801561095e57600080fd5b506102ed61096d3660046147c3565b6132c3565b34801561097e57600080fd5b5061099261098d3660046147c3565b6133f6565b6040516102c49c9b9a9998979695949392919061515a565b3480156109b657600080fd5b5061036f6109c53660046147c3565b6000908152600b60205260409020546001600160a01b031690565b6000818152600d602090815260408083206001600160a01b038616845290915290205460ff165b92915050565b6000828152600c602052604090205482906001600160a01b0316331480610a4a57506000818152600b60205260409020546001600160a01b031633145b80610a5457503330145b610a8a5760405162461bcd60e51b81526020600482015260026024820152612a2b60f11b60448201526064015b60405180910390fd5b6000838152600a60205260409020601101805483919060ff19166001836007811115610ab857610ab86148f7565b0217905550827f8ed894b6f384ca9c829b9aa5b056bc9106a90845a15616607e975d4ad488ee6783604051610aed9190614a63565b60405180910390a2505050565b6000838152600a602052604090206004601182015460ff166007811115610b2357610b236148f7565b03610b555760405162461bcd60e51b8152602060048201526002602482015261216360f01b6044820152606401610a81565b6005810154839003610b795760405162461bcd60e51b8152600401610a81906151f9565b6000848152600c6020526040808220549051633d77f7eb60e01b8152600481018790526001600160a01b0390911691908290633d77f7eb90602401602060405180830381865afa158015610bd1573d6000803e3d6000fd5b505050506040513d601f19601f82011682018060405250810190610bf59190615215565b9050838111610c2b5760405162461bcd60e51b8152602060048201526002602482015261216960f01b6044820152606401610a81565b604051633198f7e760e21b815260048101879052602481018590526000906001600160a01b0384169063c663df9c90604401600060405180830381865afa158015610c7a573d6000803e3d6000fd5b505050506040513d6000823e601f3d908101601f19168201604052610ca291908101906153ec565b8051519091508614610cdb5760405162461bcd60e51b815260206004820152600260248201526110bb60f11b6044820152606401610a81565b60408101516001600160a01b03163314610d1d5760405162461bcd60e51b815260206004820152600360248201526210b83960e91b6044820152606401610a81565b6000816060015111610d565760405162461bcd60e51b8152602060048201526002602482015261084960f21b6044820152606401610a81565b60405163899a5ab760e01b815260048101889052602481018690526001600160a01b0384169063899a5ab790604401600060405180830381600087803b158015610d9f57600080fd5b505af1158015610db3573d6000803e3d6000fd5b5050600754606084015160c085015160405163194cc89b60e31b8152600481018d905260248101929092526001600160a01b039081166044830152336064830152909116925063ca6644d89150608401600060405180830381600087803b158015610e1d57600080fd5b505af1158015610e31573d6000803e3d6000fd5b50505050336001600160a01b031686887f028f6cd258ee3664e34f77deb25ca97b00a5d18e45eba8987a259d5f2880a9f584606001518560c00151604051610e8c9291909182526001600160a01b0316602082015260400190565b60405180910390a450505050505050565b6008546001600160a01b03163314610edd5760405162461bcd60e51b815260206004820152600360248201526221626f60e81b6044820152606401610a81565b6000918252600b602052604090912080546001600160a01b0319166001600160a01b03909216919091179055565b80610f16338261234a565b80610f265750610f2633826109e0565b610f425760405162461bcd60e51b8152600401610a81906154c3565b6000828152600a602052604090206003601182015460ff166007811115610f6b57610f6b6148f7565b14610f885760405162461bcd60e51b8152600401610a81906151f9565b60788160140154610f9991906154f5565b421015610fb85760405162461bcd60e51b8152600401610a81906151f9565b60075460405163d23b85a360e01b8152600481018590526000916001600160a01b03169063d23b85a390602401602060405180830381865afa158015611002573d6000803e3d6000fd5b505050506040513d601f19601f820116820180604052508101906110269190615508565b60075460405163213efcab60e01b8152600481018790526001600160a01b0380841660248301529293506000929091169063213efcab90604401602060405180830381865afa15801561107d573d6000803e3d6000fd5b505050506040513d601f19601f820116820180604052508101906110a19190615215565b9050806000036110b2575050505050565b60048301546000906110c59060026154f5565b90506000816001600160401b038111156110e1576110e1614a71565b60405190808252806020026020018201604052801561110a578160200160208202803683370190505b5060128601549091506000906001600160401b0381111561112d5761112d614a71565b604051908082528060200260200182016040528015611156578160200160208202803683370190505b50600387015483519192506001600160a01b031690839060009061117c5761117c615525565b60200260200101906001600160a01b031690816001600160a01b03168152505060005b600487015481101561121b578660040181815481106111c0576111c0615525565b6000918252602090912001546001600160a01b0316836111e18360016154f5565b815181106111f1576111f1615525565b6001600160a01b0390921660209283029190910190910152806112138161553b565b91505061119f565b5060088601546001600160a01b031682611236600186615554565b8151811061124657611246615525565b6001600160a01b039092166020928302919091018201526012870180546040805182850281018501909152818152928301828280156112a457602002820191906000526020600020905b815481526020019060010190808311611290575b5050600754604051630b309b6560e21b81529495506001600160a01b031693632cc26d9493506112e292508c9150869086908a908c90600401615597565b600060405180830381600087803b1580156112fc57600080fd5b505af1158015611310573d6000803e3d6000fd5b505060075460405163fab49c3760e01b8152600481018c90526001600160a01b038981166024830152909116925063fab49c379150604401600060405180830381600087803b15801561136257600080fd5b505af1158015611376573d6000803e3d6000fd5b5050505060118601805460ff1916600490811790915560405189917f8ed894b6f384ca9c829b9aa5b056bc9106a90845a15616607e975d4ad488ee67916113bd9190614a63565b60405180910390a25050505050505b5050565b606080600060606113df6145dc565b6000868152600a60205260408120600e810154606092918291829182916001600160401b0381111561141357611413614a71565b60405190808252806020026020018201604052801561146857816020015b61145560405180606001604052806060815260200160008152602001600081525090565b8152602001906001900390816114315790505b50955060005b600e82015481101561157e5781600e01818154811061148f5761148f615525565b90600052602060002090600302016040518060600160405290816000820180546114b8906155e5565b80601f01602080910402602001604051908101604052809291908181526020018280546114e4906155e5565b80156115315780601f1061150657610100808354040283529160200191611531565b820191906000526020600020905b81548152906001019060200180831161151457829003601f168201915b505050505081526020016001820154815260200160028201548152505087828151811061156057611560615525565b602002602001018190525080806115769061553b565b91505061146e565b5080600101816002018260030160009054906101000a90046001600160a01b031683600401846005018a86600f015487601001548860110160009054906101000a900460ff168960150160009054906101000a90046001600160a01b03168980546115e8906155e5565b80601f0160208091040260200160405190810160405280929190818152602001828054611614906155e5565b80156116615780601f1061163657610100808354040283529160200191611661565b820191906000526020600020905b81548152906001019060200180831161164457829003601f168201915b50505050509950888054611674906155e5565b80601f01602080910402602001604051908101604052809291908181526020018280546116a0906155e5565b80156116ed5780601f106116c2576101008083540402835291602001916116ed565b820191906000526020600020905b8154815290600101906020018083116116d057829003601f168201915b505050505098508680548060200260200160405190810160405280929190818152602001828054801561174957602002820191906000526020600020905b81546001600160a01b0316815260019091019060200180831161172b575b50505050509650856040518060e001604052908160008201548152602001600182018054611776906155e5565b80601f01602080910402602001604051908101604052809291908181526020018280546117a2906155e5565b80156117ef5780601f106117c4576101008083540402835291602001916117ef565b820191906000526020600020905b8154815290600101906020018083116117d257829003601f168201915b50505050508152602001600282018054611808906155e5565b80601f0160208091040260200160405190810160405280929190818152602001828054611834906155e5565b80156118815780601f1061185657610100808354040283529160200191611881565b820191906000526020600020905b81548152906001019060200180831161186457829003601f168201915b505050918352505060038201546001600160a01b031660208083019190915260408051808201825260048501548152600585015492810192909252820152600682015460608201526007820180546080909201916118de906155e5565b80601f016020809104026020016040519081016040528092919081815260200182805461190a906155e5565b80156119575780601f1061192c57610100808354040283529160200191611957565b820191906000526020600020905b81548152906001019060200180831161193a57829003601f168201915b50505050508152505095509a509a509a509a509a509a509a509a509a509a50509193959799509193959799565b6000828152600b60205260409020546001600160a01b0316806119d25760405162461bcd60e51b8152600401610a81906020808252600490820152632170787960e01b604082015260600190565b6000838152600a602052604081206011015460ff1660078111156119f8576119f86148f7565b1480611a29575060056000848152600a602052604090206011015460ff166007811115611a2757611a276148f7565b145b80611a59575060076000848152600a602052604090206011015460ff166007811115611a5757611a576148f7565b145b611a8b5760405162461bcd60e51b8152602060048201526003602482015262213d7360e81b6044820152606401610a81565b600854604051632fef62b760e01b8152600481018590523360248201526044810184905282916001600160a01b031690632fef62b790606401602060405180830381865afa158015611ae1573d6000803e3d6000fd5b505050506040513d601f19601f82011682018060405250810190611b059190615619565b611b365760405162461bcd60e51b8152602060048201526002602482015261085d60f21b6044820152606401610a81565b604051636d1d3b0b60e11b8152600481018590526024810184905260009081906001600160a01b0384169063da3a7616906044016040805180830381865afa158015611b86573d6000803e3d6000fd5b505050506040513d601f19601f82011682018060405250810190611baa9190615634565b9150915060008211611be35760405162461bcd60e51b8152602060048201526002602482015261084960f21b6044820152606401610a81565b60075460405163d23b85a360e01b8152600481018890526000916001600160a01b03169063d23b85a390602401602060405180830381865afa158015611c2d573d6000803e3d6000fd5b505050506040513d601f19601f82011682018060405250810190611c519190615508565b6000888152600a60205260409020600e0180549192509083908110611c7857611c78615525565b600091825260208220600260039092020101805491611c968361553b565b9091555050600854604051635f1229f960e01b81526004810189905260248101889052604481018590526001600160a01b03838116606483015233608483015290911690635f1229f99060a401600060405180830381600087803b158015611cfd57600080fd5b505af1158015611d11573d6000803e3d6000fd5b50506040518581528992503391507f6327daeea6ce26abf9f96cd84eee9cb40d1d5b88f7f5990914540e392446bf049060200160405180910390a350505050505050565b6000818152600a6020908152604080832081516101e0810190925280548252600181018054859484019190611d89906155e5565b80601f0160208091040260200160405190810160405280929190818152602001828054611db5906155e5565b8015611e025780601f10611dd757610100808354040283529160200191611e02565b820191906000526020600020905b815481529060010190602001808311611de557829003601f168201915b50505050508152602001600282018054611e1b906155e5565b80601f0160208091040260200160405190810160405280929190818152602001828054611e47906155e5565b8015611e945780601f10611e6957610100808354040283529160200191611e94565b820191906000526020600020905b815481529060010190602001808311611e7757829003601f168201915b505050918352505060038201546001600160a01b03166020808301919091526004830180546040805182850281018501825282815294019392830182828015611f0657602002820191906000526020600020905b81546001600160a01b03168152600190910190602001808311611ee8575b50505050508152602001600582016040518060e001604052908160008201548152602001600182018054611f39906155e5565b80601f0160208091040260200160405190810160405280929190818152602001828054611f65906155e5565b8015611fb25780601f10611f8757610100808354040283529160200191611fb2565b820191906000526020600020905b815481529060010190602001808311611f9557829003601f168201915b50505050508152602001600282018054611fcb906155e5565b80601f0160208091040260200160405190810160405280929190818152602001828054611ff7906155e5565b80156120445780601f1061201957610100808354040283529160200191612044565b820191906000526020600020905b81548152906001019060200180831161202757829003601f168201915b505050918352505060038201546001600160a01b031660208083019190915260408051808201825260048501548152600585015492810192909252820152600682015460608201526007820180546080909201916120a1906155e5565b80601f01602080910402602001604051908101604052809291908181526020018280546120cd906155e5565b801561211a5780601f106120ef5761010080835404028352916020019161211a565b820191906000526020600020905b8154815290600101906020018083116120fd57829003601f168201915b5050505050815250508152602001600d8201548152602001600e8201805480602002602001604051908101604052809291908181526020016000905b8282101561222e5783829060005260206000209060030201604051806060016040529081600082018054612189906155e5565b80601f01602080910402602001604051908101604052809291908181526020018280546121b5906155e5565b80156122025780601f106121d757610100808354040283529160200191612202565b820191906000526020600020905b8154815290600101906020018083116121e557829003601f168201915b505050505081526020016001820154815260200160028201548152505081526020019060010190612156565b50505090825250600f820154602082015260108201546040820152601182015460609091019060ff166007811115612268576122686148f7565b6007811115612279576122796148f7565b8152602001601282018054806020026020016040519081016040528092919081815260200182805480156122cc57602002820191906000526020600020905b8154815260200190600101908083116122b8575b505050918352505060138201546020820152601482015460408201526015909101546001600160a01b03166060909101526101808101519091504211801561232b575060078161014001516007811115612328576123286148f7565b14155b156123395750600792915050565b610140015192915050565b50919050565b6000908152600a60205260409020600301546001600160a01b0391821691161490565b612375613792565b61237e82613837565b6113cc828261383f565b6000612392613901565b50600080516020615c7983398151915290565b600854604051635b9a1e0960e01b8152600481018390526001600160a01b0384811660248301526000928392911690635b9a1e0990604401600060405180830381865afa1580156123fa573d6000803e3d6000fd5b505050506040513d6000823e601f3d908101601f191682016040526124229190810190615658565b511515949350505050565b600854600160a01b900460ff161561246c5760405162461bcd60e51b8152602060048201526002602482015261212160f01b6044820152606401610a81565b600180546001600160a01b03199081166001600160a01b03998a161790915560028054821699891699909917909855600380548916968816969096179095556004805488169487169490941790935560058054871692861692909217909155600680548616918516919091179055600780549094169083161790925560088054600160a01b939092166001600160a81b031990921691909117919091179055565b6000838152600b602052604090205483906001600160a01b031633146125595760405162461bcd60e51b81526020600482015260016024820152601560fa1b6044820152606401610a81565b6000848152600a60205260409020600e810154841061259e5760405162461bcd60e51b81526020600482015260016024820152602160f81b6044820152606401610a81565b600081600e0185815481106125b5576125b5615525565b9060005260206000209060030201905083816002015410156126015760405162461bcd60e51b815260206004820152600560248201526406040e8d2f60db1b6044820152606401610a81565b838160020160008282546126159190615554565b9091555050604051848152859087907fb23124a400670af3347ce475459c187bbba871f316e2d1d91ae115a762def0209060200160405180910390a3505050505050565b6000828152600c602052604090205482906001600160a01b031633146126a55760405162461bcd60e51b81526020600482015260016024820152602b60f91b6044820152606401610a81565b60026000848152600a602052604090206011015460ff1660078111156126cd576126cd6148f7565b146126ea5760405162461bcd60e51b8152600401610a81906151f9565b506000918252600a602052604090912060140155565b61270861394a565b61271260006139a5565b565b6000828152600a60205260408120600e0154606091908190841061275e5760405162461bcd60e51b81526020600482015260016024820152601d60fa1b6044820152606401610a81565b6000858152600a60205260408120600e0180548690811061278157612781615525565b9060005260206000209060030201905080600001816001015482600201548280546127ab906155e5565b80601f01602080910402602001604051908101604052809291908181526020018280546127d7906155e5565b80156128245780601f106127f957610100808354040283529160200191612824565b820191906000526020600020905b81548152906001019060200180831161280757829003601f168201915b50505050509250935093509350509250925092565b6000818152600a602052604081206001825b60048301548110156128b85760038301546004840180546001600160a01b03909216918390811061287e5761287e615525565b6000918252602090912001546001600160a01b0316146128a657816128a28161553b565b9250505b806128b08161553b565b91505061284b565b509392505050565b6005546040516329e7dbd960e01b81523360048201526000916001600160a01b0316906329e7dbd990602401602060405180830381865afa158015612909573d6000803e3d6000fd5b505050506040513d601f19601f8201168201806040525081019061292d9190615619565b61295f5760405162461bcd60e51b815260206004820152600360248201526221724f60e81b6044820152606401610a81565b60005b826040015151811015612a5457600454604084015180516001600160a01b03909216916364fd288691908490811061299c5761299c615525565b60200260200101516040518263ffffffff1660e01b81526004016129cf91906001600160a01b0391909116815260200190565b602060405180830381865afa1580156129ec573d6000803e3d6000fd5b505050506040513d601f19601f82011682018060405250810190612a109190615619565b612a425760405162461bcd60e51b815260206004820152600360248201526221724160e81b6044820152606401610a81565b80612a4c8161553b565b915050612962565b50612a5e82613a16565b612a6782613c2c565b60085460005460405163083fb40160e11b8152600481018490526001600160a01b039182166024820152929350169063107f680290604401600060405180830381600087803b158015612ab957600080fd5b505af1158015612acd573d6000803e3d6000fd5b5050600054610140850151805160208201516040830151606090930151612b1596508795506001600160a01b039094169363ffffffff9283169391831692918216911661402f565b919050565b6000828152600c602052604090205482906001600160a01b03163314612b665760405162461bcd60e51b81526020600482015260016024820152602b60f91b6044820152606401610a81565b6000838152600a602052604081206011015460ff166007811115612b8c57612b8c6148f7565b1480612bbd575060026000848152600a602052604090206011015460ff166007811115612bbb57612bbb6148f7565b145b612bd95760405162461bcd60e51b8152600401610a81906151f9565b6000838152600a602052604090208290600501612bf682826157fb565b905050827f4af00802913ced6ade1d9ae285d2baa3b45a3d2867a08e13ea3bb5b950b8faac83604051610aed91906159be565b7ff0c57e16840df040f15088dc2f81fe391c3923bec73e23a9662efc9c229c6a008054600160401b810460ff1615906001600160401b0316600081158015612c6e5750825b90506000826001600160401b03166001148015612c8a5750303b155b905081158015612c98575080155b15612cb65760405163f92ee8a960e01b815260040160405180910390fd5b845467ffffffffffffffff191660011785558315612ce057845460ff60401b1916600160401b1785555b612ce8614162565b612cf186614172565b600080546001600160a01b0319166001600160a01b0388161790558315612d5257845460ff60401b19168555604051600181527fc7f505b2f371ae2175ee4913f4499e1f2633a7b5936321eed1cdaeb6115181d29060200160405180910390a15b505050505050565b80612d65338261234a565b80612d755750612d7533826109e0565b612d915760405162461bcd60e51b8152600401610a81906154c3565b6000828152600a602052604090206004601182015460ff166007811115612dba57612dba6148f7565b14612dd75760405162461bcd60e51b8152600401610a81906151f9565b60788160140154612de891906154f5565b421015612e1d5760405162461bcd60e51b81526020600482015260036024820152620858db60ea1b6044820152606401610a81565b60075460405163d23b85a360e01b8152600481018590526000916001600160a01b03169063d23b85a390602401602060405180830381865afa158015612e67573d6000803e3d6000fd5b505050506040513d601f19601f82011682018060405250810190612e8b9190615508565b6007546040516306e3daa360e51b8152600481018790526001600160a01b03808416602483015292935091169063dc7b546090604401600060405180830381600087803b158015612edb57600080fd5b505af1158015612eef573d6000803e3d6000fd5b5050505050505050565b6000818152600b602052604090205481906001600160a01b03163314612f455760405162461bcd60e51b81526020600482015260016024820152601560fa1b6044820152606401610a81565b6000828152600a60205260408082206008549151630610418760e41b8152600481018690529092916001600160a01b031690636104187090602401602060405180830381865afa158015612f9d573d6000803e3d6000fd5b505050506040513d601f19601f82011682018060405250810190612fc19190615215565b905081600f01548260100154612fd79190615a88565b612fe2826064615a88565b10612ff257612ff2846001610a0d565b50505050565b613000614183565b6000818152600a602052604090206006601182015460ff166007811115613029576130296148f7565b148061304d57506007601182015460ff16600781111561304b5761304b6148f7565b145b8061307057506005601182015460ff16600781111561306e5761306e6148f7565b145b8061309357506000601182015460ff166007811115613091576130916148f7565b145b6130af5760405162461bcd60e51b8152600401610a81906151f9565b60075460405163d23b85a360e01b8152600481018490526000916001600160a01b03169063d23b85a390602401602060405180830381865afa1580156130f9573d6000803e3d6000fd5b505050506040513d601f19601f8201168201806040525081019061311d9190615508565b600754604051632464077360e21b8152600481018690526001600160a01b0380841660248301529293509116906391901dcc90604401600060405180830381600087803b15801561316d57600080fd5b505af1158015613181573d6000803e3d6000fd5b5050505050506131b060017f9b779b17422d0df92223018b32b4d1fa46e071723d6817e2486d003becc55f0055565b50565b806131be338261234a565b806131ce57506131ce33826109e0565b6131ea5760405162461bcd60e51b8152600401610a81906154c3565b6000828152600a602052604090206001601182015460ff166007811115613213576132136148f7565b148061323757506002601182015460ff166007811115613235576132356148f7565b145b8061325a57506003601182015460ff166007811115613258576132586148f7565b145b6132765760405162461bcd60e51b8152600401610a81906151f9565b601101805460ff191660051790555050565b61329061394a565b6001600160a01b0381166132ba57604051631e4fbdf760e01b815260006004820152602401610a81565b6131b0816139a5565b6132cd33826123a5565b6133025760405162461bcd60e51b81526020600482015260066024820152650dcde40e8d2f60d31b6044820152606401610a81565b60046000828152600a602052604090206011015460ff16600781111561332a5761332a6148f7565b146133475760405162461bcd60e51b8152600401610a81906151f9565b6000818152600f6020908152604080832033845290915290205460ff16156133975760405162461bcd60e51b81526020600482015260036024820152621090bb60e91b6044820152606401610a81565b6000818152600f602090815260408083203384528252808320805460ff19166001908117909155848452600e90925282208054919290916133d99084906154f5565b909155506133e89050816141f3565b156131b0576131b081614297565b600a6020526000908152604090208054600182018054919291613418906155e5565b80601f0160208091040260200160405190810160405280929190818152602001828054613444906155e5565b80156134915780601f1061346657610100808354040283529160200191613491565b820191906000526020600020905b81548152906001019060200180831161347457829003601f168201915b5050505050908060020180546134a6906155e5565b80601f01602080910402602001604051908101604052809291908181526020018280546134d2906155e5565b801561351f5780601f106134f45761010080835404028352916020019161351f565b820191906000526020600020905b81548152906001019060200180831161350257829003601f168201915b5050505050908060030160009054906101000a90046001600160a01b031690806005016040518060e001604052908160008201548152602001600182018054613567906155e5565b80601f0160208091040260200160405190810160405280929190818152602001828054613593906155e5565b80156135e05780601f106135b5576101008083540402835291602001916135e0565b820191906000526020600020905b8154815290600101906020018083116135c357829003601f168201915b505050505081526020016002820180546135f9906155e5565b80601f0160208091040260200160405190810160405280929190818152602001828054613625906155e5565b80156136725780601f1061364757610100808354040283529160200191613672565b820191906000526020600020905b81548152906001019060200180831161365557829003601f168201915b505050918352505060038201546001600160a01b031660208083019190915260408051808201825260048501548152600585015492810192909252820152600682015460608201526007820180546080909201916136cf906155e5565b80601f01602080910402602001604051908101604052809291908181526020018280546136fb906155e5565b80156137485780601f1061371d57610100808354040283529160200191613748565b820191906000526020600020905b81548152906001019060200180831161372b57829003601f168201915b50505091909252505050600d820154600f8301546010840154601185015460138601546014870154601590970154959694959394929360ff9092169290916001600160a01b03168c565b306001600160a01b037f000000000000000000000000000000000000000000000000000000000000000016148061381957507f00000000000000000000000000000000000000000000000000000000000000006001600160a01b031661380d600080516020615c79833981519152546001600160a01b031690565b6001600160a01b031614155b156127125760405163703e46dd60e11b815260040160405180910390fd5b6131b061394a565b816001600160a01b03166352d1902d6040518163ffffffff1660e01b8152600401602060405180830381865afa925050508015613899575060408051601f3d908101601f1916820190925261389691810190615215565b60015b6138c157604051634c9c8ce360e01b81526001600160a01b0383166004820152602401610a81565b600080516020615c7983398151915281146138f257604051632a87526960e21b815260048101829052602401610a81565b6138fc8383614318565b505050565b306001600160a01b037f000000000000000000000000000000000000000000000000000000000000000016146127125760405163703e46dd60e11b815260040160405180910390fd5b3361397c7f9016d09d72d40fdae2fd8ceac6b6234c7706214fd39c1cd1e609a0528c199300546001600160a01b031690565b6001600160a01b0316146127125760405163118cdaa760e01b8152336004820152602401610a81565b7f9016d09d72d40fdae2fd8ceac6b6234c7706214fd39c1cd1e609a0528c19930080546001600160a01b031981166001600160a01b03848116918217845560405192169182907f8be0079c531659141344cd1fd0a4f28419497f9722a3daafe3b4186f6b6457e090600090a3505050565b805151600003613a395760405163430f13b360e01b815260040160405180910390fd5b6000816080015111613a5e576040516331278a8760e01b815260040160405180910390fd5b6020810151511580613a7657506103e8816020015151115b15613a94576040516340132f1f60e01b815260040160405180910390fd5b60328160a0015160ff161080613ab1575060648160a0015160ff16115b15613acf5760405163ad7d3a4d60e01b815260040160405180910390fd5b60608101515163055d4a7f191380613aef575060608101515163055d4a80125b15613b0d5760405163c2df0dc560e01b815260040160405180910390fd5b630aba94ff198160600151602001511280613b335750630aba9500816060015160200151135b15613b515760405163016cb17f60e71b815260040160405180910390fd5b6107088161014001516000015163ffffffff161015613b8357604051631e68fc9d60e21b815260040160405180910390fd5b61012c8161014001516020015163ffffffff161015613bb557604051631e68fc9d60e21b815260040160405180910390fd5b610a8c8161014001516040015163ffffffff161015613be757604051631e68fc9d60e21b815260040160405180910390fd5b60788161014001516060015163ffffffff161015613c1857604051631e68fc9d60e21b815260040160405180910390fd5b6131b081610100015182604001515161436e565b805160408083015160608401518051602091820151608087015160a088015160c08901516101208a01519751600099613c6c999098979091339101615a9f565b60408051601f1981840301815291815281516020928301206000818152600a90935291208351919250906001820190613ca59082615b0f565b5060208301516002820190613cba9082615b0f565b506003810180546001600160a01b0319163317905560408301518051613cea91600484019160209091019061463d565b506040805160e081018252600080825282516020818101855282825280840191825284518082018652838152848601526060808501849052880151608085015260c08089015160a086015285519182019095529182529282015280516005840190815591519091906006840190613d619082615b0f565b5060408201516002820190613d769082615b0f565b5060608201516003820180546001600160a01b0319166001600160a01b0390921691909117905560808201518051600483015560200151600582015560a0820151600682015560c08201516007820190613dd09082615b0f565b5050506080830151600d82015560a083015160ff16600f82015560c0830151601082015560118101805460ff191690556101008301518051613e1c9160128401916020909101906146a2565b50613e2a4262278d006154f5565b6013820155600060148201556101208301516015820180546001600160a01b0319166001600160a01b0392831690811790915560075460405163e8aa2e5f60e01b81526004810186905260248101929092529091169063e8aa2e5f90604401600060405180830381600087803b158015613ea357600080fd5b505af1158015613eb7573d6000803e3d6000fd5b5050505060005b8360e0015151811015613f405781600e018460e001518281518110613ee557613ee5615525565b60209081029190910181015182546001810184556000938452919092208251600390920201908190613f179082615b0f565b506020820151600182015560409091015160029091015580613f388161553b565b915050613ebe565b5060005b836040015151811015613fc2576001600d6000858152602001908152602001600020600086604001518481518110613f7e57613f7e615525565b6020908102919091018101516001600160a01b03168252810191909152604001600020805460ff191691151591909117905580613fba8161553b565b915050613f44565b50336001600160a01b0316827fa01783f955984485ce010e7dc2b7745239040a2b48640ffd2a56fb065911fc688560000151866040015187602001518860a001518961010001518a610120015160405161402196959493929190615bc8565b60405180910390a350919050565b600154604051634b84567160e11b81526001600160a01b038781166004830152602482018790526044820186905260648201859052608482018490526000921690639708ace29060a4016020604051808303816000875af1158015614098573d6000803e3d6000fd5b505050506040513d601f19601f820116820180604052508101906140bc9190615508565b6007546006546040516301156c6760e71b81523060048201526001600160a01b0392831660248201529082166044820152919250821690638ab6338090606401600060405180830381600087803b15801561411657600080fd5b505af115801561412a573d6000803e3d6000fd5b505050600097885250600c602052604090962080546001600160a01b0319166001600160a01b03909716969096179095555050505050565b61416a614401565b61271261444a565b61417a614401565b6131b081614452565b7f9b779b17422d0df92223018b32b4d1fa46e071723d6817e2486d003becc55f008054600119016141c757604051633ee5aeb560e01b815260040160405180910390fd5b60029055565b60017f9b779b17422d0df92223018b32b4d1fa46e071723d6817e2486d003becc55f0055565b6000818152600e6020526040808220546008549151630610418760e41b815260048101859052909183916001600160a01b0390911690636104187090602401602060405180830381865afa15801561424f573d6000803e3d6000fd5b505050506040513d601f19601f820116820180604052508101906142739190615215565b90506064614282826042615a88565b61428c9190615c3a565b909110159392505050565b6000818152600a6020526040902060110180546005919060ff19166001830217905550807f6a409f0f8d124fc3c3a9f5c354dc2901c33e711b0a6f705e8682307426329fb860405161430d9060208082526010908201526f115b595c99d95b98de481499599d5b9960821b604082015260600190565b60405180910390a250565b6143218261445a565b6040516001600160a01b038316907fbc7cd75a20ee27fd9adebab32041f755214dbc6bffa90cc0225b39da2e5c2d3b90600090a2805115614366576138fc82826144bf565b6113cc614535565b6143798160026154f5565b825114614399576040516328e525af60e21b815260040160405180910390fd5b6000805b83518110156143df578381815181106143b8576143b8615525565b6020026020010151826143cb91906154f5565b9150806143d78161553b565b91505061439d565b50806064146138fc576040516317b5e2db60e01b815260040160405180910390fd5b7ff0c57e16840df040f15088dc2f81fe391c3923bec73e23a9662efc9c229c6a0054600160401b900460ff1661271257604051631afcd79f60e31b815260040160405180910390fd5b6141cd614401565b613290614401565b806001600160a01b03163b60000361449057604051634c9c8ce360e01b81526001600160a01b0382166004820152602401610a81565b600080516020615c7983398151915280546001600160a01b0319166001600160a01b0392909216919091179055565b6060600080846001600160a01b0316846040516144dc9190615c5c565b600060405180830381855af49150503d8060008114614517576040519150601f19603f3d011682016040523d82523d6000602084013e61451c565b606091505b509150915061452c858383614554565b95945050505050565b34156127125760405163b398979f60e01b815260040160405180910390fd5b60608261456957614564826145b3565b6145ac565b815115801561458057506001600160a01b0384163b155b156145a957604051639996b31560e01b81526001600160a01b0385166004820152602401610a81565b50805b9392505050565b8051156145c35780518082602001fd5b604051630a12f52160e11b815260040160405180910390fd5b6040518060e0016040528060008152602001606081526020016060815260200160006001600160a01b03168152602001614629604051806040016040528060008152602001600081525090565b815260200160008152602001606081525090565b828054828255906000526020600020908101928215614692579160200282015b8281111561469257825182546001600160a01b0319166001600160a01b0390911617825560209092019160019091019061465d565b5061469e9291506146dd565b5090565b828054828255906000526020600020908101928215614692579160200282015b828111156146925782518255916020019190600101906146c2565b5b8082111561469e57600081556001016146de565b6001600160a01b03811681146131b057600080fd5b8035612b15816146f2565b6000806040838503121561472557600080fd5b8235614730816146f2565b946020939093013593505050565b6000806040838503121561475157600080fd5b8235915060208301356008811061476757600080fd5b809150509250929050565b60008060006060848603121561478757600080fd5b505081359360208301359350604090920135919050565b600080604083850312156147b157600080fd5b823591506020830135614767816146f2565b6000602082840312156147d557600080fd5b5035919050565b60005b838110156147f75781810151838201526020016147df565b50506000910152565b600081518084526148188160208601602086016147dc565b601f01601f19169290920160200192915050565b600081518084526020808501945080840160005b838110156148655781516001600160a01b031687529582019590820190600101614840565b509495945050505050565b600061010082518452602083015181602086015261489082860182614800565b915050604083015184820360408601526148aa8282614800565b91505060018060a01b036060840151166060850152608083015180516080860152602081015160a08601525060a083015160c085015260c083015184820360e086015261452c8282614800565b634e487b7160e01b600052602160045260246000fd5b6008811061492b57634e487b7160e01b600052602160045260246000fd5b9052565b60006101408083526149438184018e614800565b9050602083820381850152614958828e614800565b9150604060018060a01b038d168186015260608584038187015261497c848e61482c565b93508584036080870152614990848d614870565b935085840360a0870152838b518086528486019150848160051b870101858e0160005b838110156149fc57888303601f19018552815180518785526149d788860182614800565b828b0151868c01529189015194890194909452948801949250908701906001016149b3565b5050809750505050505050508560c08301528460e0830152614a2261010083018561490d565b6001600160a01b0383166101208301529b9a5050505050505050505050565b60008060408385031215614a5457600080fd5b50508035926020909101359150565b60208101610a07828461490d565b634e487b7160e01b600052604160045260246000fd5b604080519081016001600160401b0381118282101715614aa957614aa9614a71565b60405290565b604051606081016001600160401b0381118282101715614aa957614aa9614a71565b60405161016081016001600160401b0381118282101715614aa957614aa9614a71565b60405160e081016001600160401b0381118282101715614aa957614aa9614a71565b604051601f8201601f191681016001600160401b0381118282101715614b3e57614b3e614a71565b604052919050565b60006001600160401b03821115614b5f57614b5f614a71565b50601f01601f191660200190565b6000614b80614b7b84614b46565b614b16565b9050828152838383011115614b9457600080fd5b828260208301376000602084830101529392505050565b60008060408385031215614bbe57600080fd5b8235614bc9816146f2565b915060208301356001600160401b03811115614be457600080fd5b8301601f81018513614bf557600080fd5b614c0485823560208401614b6d565b9150509250929050565b600080600080600080600080610100898b031215614c2b57600080fd5b8835614c36816146f2565b97506020890135614c46816146f2565b96506040890135614c56816146f2565b95506060890135614c66816146f2565b94506080890135614c76816146f2565b935060a0890135614c86816146f2565b925060c0890135614c96816146f2565b915060e0890135614ca6816146f2565b809150509295985092959890939650565b606081526000614cca6060830186614800565b60208301949094525060400152919050565b600082601f830112614ced57600080fd5b6145ac83833560208501614b6d565b60006001600160401b03821115614d1557614d15614a71565b5060051b60200190565b600082601f830112614d3057600080fd5b81356020614d40614b7b83614cfc565b82815260059290921b84018101918181019086841115614d5f57600080fd5b8286015b84811015614d83578035614d76816146f2565b8352918301918301614d63565b509695505050505050565b600060408284031215614da057600080fd5b614da8614a87565b9050813581526020820135602082015292915050565b803560ff81168114612b1557600080fd5b600082601f830112614de057600080fd5b81356020614df0614b7b83614cfc565b82815260059290921b84018101918181019086841115614e0f57600080fd5b8286015b84811015614d835780356001600160401b0380821115614e335760008081fd5b908801906060828b03601f1901811315614e4d5760008081fd5b614e55614aaf565b8784013583811115614e675760008081fd5b614e758d8a83880101614cdc565b82525060408481013589830152919093013590830152508352918301918301614e13565b600082601f830112614eaa57600080fd5b81356020614eba614b7b83614cfc565b82815260059290921b84018101918181019086841115614ed957600080fd5b8286015b84811015614d835780358352918301918301614edd565b803563ffffffff81168114612b1557600080fd5b600060808284031215614f1a57600080fd5b604051608081018181106001600160401b0382111715614f3c57614f3c614a71565b604052905080614f4b83614ef4565b8152614f5960208401614ef4565b6020820152614f6a60408401614ef4565b6040820152614f7b60608401614ef4565b60608201525092915050565b600060208284031215614f9957600080fd5b81356001600160401b0380821115614fb057600080fd5b908301906101e08286031215614fc557600080fd5b614fcd614ad1565b823582811115614fdc57600080fd5b614fe887828601614cdc565b825250602083013582811115614ffd57600080fd5b61500987828601614cdc565b60208301525060408301358281111561502157600080fd5b61502d87828601614d1f565b6040830152506150408660608501614d8e565b606082015260a0830135608082015261505b60c08401614dbe565b60a082015260e083013560c0820152610100808401358381111561507e57600080fd5b61508a88828701614dcf565b60e08401525061012080850135848111156150a457600080fd5b6150b089828801614e99565b838501525061014093506150c5848601614707565b90830152506150d8866101608501614f08565b91810191909152949350505050565b600080604083850312156150fa57600080fd5b8235915060208301356001600160401b0381111561511757600080fd5b8301610100818603121561476757600080fd5b6020815260006145ac6020830184614800565b60006020828403121561514f57600080fd5b81356145ac816146f2565b60006101808e83528060208401526151748184018f614800565b90508281036040840152615188818e614800565b6001600160a01b038d8116606086015284820360808601529091506151ad828d614870565b92508a60a08501528960c08501528860e08501526151cf61010085018961490d565b866101208501528561014085015280851661016085015250509d9c50505050505050505050505050565b602080825260029082015261217360f01b604082015260600190565b60006020828403121561522757600080fd5b5051919050565b600082601f83011261523f57600080fd5b815161524d614b7b82614b46565b81815284602083860101111561526257600080fd5b6152738260208301602087016147dc565b949350505050565b8051612b15816146f2565b60006040828403121561529857600080fd5b6152a0614a87565b9050815181526020820151602082015292915050565b600061010082840312156152c957600080fd5b6152d1614af4565b90508151815260208201516001600160401b03808211156152f157600080fd5b6152fd8583860161522e565b6020840152604084015191508082111561531657600080fd5b6153228583860161522e565b60408401526153336060850161527b565b60608401526153458560808601615286565b608084015260c084015160a084015260e084015191508082111561536857600080fd5b506153758482850161522e565b60c08301525092915050565b600082601f83011261539257600080fd5b815160206153a2614b7b83614cfc565b82815260059290921b840181019181810190868411156153c157600080fd5b8286015b84811015614d8357805183529183019183016153c5565b80518015158114612b1557600080fd5b6000602082840312156153fe57600080fd5b81516001600160401b038082111561541557600080fd5b9083019060e0828603121561542957600080fd5b615431614af4565b82518281111561544057600080fd5b61544c878286016152b6565b82525060208301518281111561546157600080fd5b61546d87828601615381565b60208301525061547f6040840161527b565b604082015260608301516060820152608083015160808201526154a460a084016153dc565b60a08201526154b560c0840161527b565b60c082015295945050505050565b6020808252600290820152614f4160f01b604082015260600190565b634e487b7160e01b600052601160045260246000fd5b80820180821115610a0757610a076154df565b60006020828403121561551a57600080fd5b81516145ac816146f2565b634e487b7160e01b600052603260045260246000fd5b60006001820161554d5761554d6154df565b5060010190565b81810381811115610a0757610a076154df565b600081518084526020808501945080840160005b838110156148655781518752958201959082019060010161557b565b85815260a0602082015260006155b060a083018761482c565b82810360408401526155c28187615567565b606084019590955250506001600160a01b03919091166080909101529392505050565b600181811c908216806155f957607f821691505b60208210810361234457634e487b7160e01b600052602260045260246000fd5b60006020828403121561562b57600080fd5b6145ac826153dc565b6000806040838503121561564757600080fd5b505080516020909101519092909150565b60006020828403121561566a57600080fd5b81516001600160401b0381111561568057600080fd5b61527384828501615381565b6000808335601e198436030181126156a357600080fd5b8301803591506001600160401b038211156156bd57600080fd5b6020019150368190038213156156d257600080fd5b9250929050565b601f8211156138fc57600081815260208120601f850160051c810160208610156157005750805b601f850160051c820191505b81811015612d525782815560010161570c565b600019600383901b1c191660019190911b1790565b6001600160401b0383111561574b5761574b614a71565b61575f8361575983546155e5565b836156d9565b6000601f84116001811461578d576000851561577b5750838201355b615785868261571f565b8455506157e7565b600083815260209020601f19861690835b828110156157be578685013582556020948501946001909201910161579e565b50868210156157db5760001960f88860031b161c19848701351681555b505060018560011b0183555b5050505050565b60008135610a07816146f2565b81358155600180820160206158128186018661568c565b6001600160401b0381111561582957615829614a71565b61583d8161583786546155e5565b866156d9565b6000601f82116001811461586b57600083156158595750838201355b615863848261571f565b8755506158c0565b600086815260209020601f19841690835b82811015615899578685013582559387019390890190870161587c565b50848210156158b65760001960f88660031b161c19848701351681555b50508683881b0186555b505050505050506158d4604083018361568c565b6158e2818360028601615734565b50506159176158f3606084016157ee565b6003830180546001600160a01b0319166001600160a01b0392909216919091179055565b6080820135600482015560a0820135600582015560c0820135600682015561594260e083018361568c565b612ff2818360078601615734565b6000808335601e1984360301811261596757600080fd5b83016020810192503590506001600160401b0381111561598657600080fd5b8036038213156156d257600080fd5b81835281816020850137506000828201602090810191909152601f909101601f19169091010190565b602081528135602082015260006159d86020840184615950565b6101008060408601526159f061012086018385615995565b92506159ff6040870187615950565b9250601f1980878603016060880152615a19858584615995565b945060608801359350615a2b846146f2565b60018060a01b0384166080880152608088013560a088015260a088013560c088015260c088013560e0880152615a6460e0890189615950565b9450915080878603018388015250615a7d848483615995565b979650505050505050565b8082028115828204841417610a0757610a076154df565b6000610120808352615ab38184018d614800565b90508281036020840152615ac7818c61482c565b604084019a909a5250506060810196909652608086019490945260ff9290921660a085015260c08401526001600160a01b0390811660e0840152166101009091015292915050565b81516001600160401b03811115615b2857615b28614a71565b615b3c81615b3684546155e5565b846156d9565b602080601f831160018114615b6b5760008415615b595750858301515b615b63858261571f565b865550612d52565b600085815260208120601f198616915b82811015615b9a57888601518255948401946001909101908401615b7b565b5085821015615bb85787850151600019600388901b60f8161c191681555b5050505050600190811b01905550565b60c081526000615bdb60c0830189614800565b8281036020840152615bed818961482c565b90508281036040840152615c018188614800565b905060ff861660608401528281036080840152615c1e8186615567565b91505060018060a01b03831660a0830152979650505050505050565b600082615c5757634e487b7160e01b600052601260045260246000fd5b500490565b60008251615c6e8184602087016147dc565b919091019291505056fe360894a13ba1a3210667c828492db98dca3e2076cc3735a920a3ca505d382bbca264697066735822122066207461353f88b1e13f11762374358e8506eb7b49aead04530556a6e557bd6e64736f6c63430008140033","linkReferences":{}},"methodIdentifiers":{"COOLDOWN()":"a2724a4d","SELLOUT_PROTOCOL_WALLET()":"e30228be","UPGRADE_INTERFACE_VERSION()":"ad3cb1cc","artistRegistryInstance()":"8dea15a1","boxOfficeInstance()":"a2b7d174","cancelShow(bytes32)":"ef5023a5","completeShow(bytes32)":"129e086b","consumeTicketTier(bytes32,uint256,uint256)":"644b5e59","getNumberOfVoters(bytes32)":"85ffa16c","getOrganizer(bytes32)":"977cb89e","getShowById(bytes32)":"27b1bf52","getShowStatus(bytes32)":"46c2c8a7","getShowToTicketProxy(bytes32)":"fdc7066c","getShowToVenueProxy(bytes32)":"3e2fea34","getTicketTierInfo(bytes32,uint256)":"7e3e3935","hasTicket(address,bytes32)":"5c37da69","hasVotedForEmergencyRefund(bytes32,address)":"63c18a52","initialize(address)":"c4d66de8","isArtist(address,bytes32)":"02c9a8b5","isArtistMapping(bytes32,address)":"bafd4eb0","isOrganizer(address,bytes32)":"4ed372da","organizerRegistryInstance()":"1cf2103e","owner()":"8da5cb5b","payout(bytes32)":"cfefb3d5","proposeShow((string,string,address[],(int256,int256),uint256,uint8,uint256,(string,uint256,uint256)[],uint256[],address,(uint32,uint32,uint32,uint32)))":"a110412c","proxiableUUID()":"52d1902d","referralInstance()":"c6ab848a","refundBribe(bytes32,uint256,uint256)":"0a35906b","refundTicket(bytes32,uint256)":"3c60d2d6","renounceOwnership()":"715018a6","setProtocolAddresses(address,address,address,address,address,address,address,address)":"5f198834","setShowToTicketProxy(bytes32,address)":"0b5c6364","showToTicketProxy(bytes32)":"3deba964","showToVenueProxy(bytes32)":"e71aee7e","showVaultInstance()":"6a017891","shows(bytes32)":"fca46559","ticketFactoryInstance()":"e4ca73aa","transferOwnership(address)":"f2fde38b","updateShowDate(bytes32,uint256)":"64ad6cd6","updateShowVenue(bytes32,(uint256,string,string,address,(int256,int256),uint256,string))":"a94dafab","updateStatus(bytes32,uint8)":"054372ed","updateStatusIfSoldOut(bytes32)":"e6180546","upgradeToAndCall(address,bytes)":"4f1ef286","venueFactoryInstance()":"9673b1e3","venueRegistryInstance()":"703ee4e5","voteForEmergencyRefund(bytes32)":"fc4bdfd4","votesForEmergencyRefund(bytes32)":"9ee0a14e","withdrawRefund(bytes32)":"e9acfa7c"},"id":76}