{"abi":[{"type":"function","name":"SELLOUT_PROTOCOL_WALLET","inputs":[],"outputs":[{"name":"","type":"address","internalType":"address"}],"stateMutability":"view"},{"type":"function","name":"activeShowCount","inputs":[],"outputs":[{"name":"","type":"uint256","internalType":"uint256"}],"stateMutability":"view"},{"type":"function","name":"artistRegistryInstance","inputs":[],"outputs":[{"name":"","type":"address","internalType":"contract IArtistRegistry"}],"stateMutability":"view"},{"type":"function","name":"isArtistMapping","inputs":[{"name":"","type":"bytes32","internalType":"bytes32"},{"name":"","type":"address","internalType":"address"}],"outputs":[{"name":"","type":"bool","internalType":"bool"}],"stateMutability":"view"},{"type":"function","name":"organizerRegistryInstance","inputs":[],"outputs":[{"name":"","type":"address","internalType":"contract IOrganizerRegistry"}],"stateMutability":"view"},{"type":"function","name":"pendingPayouts","inputs":[{"name":"","type":"bytes32","internalType":"bytes32"},{"name":"","type":"address","internalType":"address"}],"outputs":[{"name":"","type":"uint256","internalType":"uint256"}],"stateMutability":"view"},{"type":"function","name":"pendingRefunds","inputs":[{"name":"","type":"bytes32","internalType":"bytes32"},{"name":"","type":"address","internalType":"address"}],"outputs":[{"name":"","type":"uint256","internalType":"uint256"}],"stateMutability":"view"},{"type":"function","name":"pendingTokenPayouts","inputs":[{"name":"","type":"bytes32","internalType":"bytes32"},{"name":"","type":"address","internalType":"address"},{"name":"","type":"address","internalType":"address"}],"outputs":[{"name":"","type":"uint256","internalType":"uint256"}],"stateMutability":"view"},{"type":"function","name":"pendingTokenRefunds","inputs":[{"name":"","type":"bytes32","internalType":"bytes32"},{"name":"","type":"address","internalType":"address"},{"name":"","type":"address","internalType":"address"}],"outputs":[{"name":"","type":"uint256","internalType":"uint256"}],"stateMutability":"view"},{"type":"function","name":"referralInstance","inputs":[],"outputs":[{"name":"","type":"address","internalType":"contract ReferralModule"}],"stateMutability":"view"},{"type":"function","name":"showPaymentToken","inputs":[{"name":"","type":"bytes32","internalType":"bytes32"}],"outputs":[{"name":"","type":"address","internalType":"address"}],"stateMutability":"view"},{"type":"function","name":"showToTicketProxy","inputs":[{"name":"","type":"bytes32","internalType":"bytes32"}],"outputs":[{"name":"","type":"address","internalType":"address"}],"stateMutability":"view"},{"type":"function","name":"showTokenVault","inputs":[{"name":"","type":"bytes32","internalType":"bytes32"},{"name":"","type":"address","internalType":"address"}],"outputs":[{"name":"","type":"uint256","internalType":"uint256"}],"stateMutability":"view"},{"type":"function","name":"showVault","inputs":[{"name":"","type":"bytes32","internalType":"bytes32"}],"outputs":[{"name":"","type":"uint256","internalType":"uint256"}],"stateMutability":"view"},{"type":"function","name":"shows","inputs":[{"name":"","type":"bytes32","internalType":"bytes32"}],"outputs":[{"name":"showId","type":"bytes32","internalType":"bytes32"},{"name":"name","type":"string","internalType":"string"},{"name":"description","type":"string","internalType":"string"},{"name":"organizer","type":"address","internalType":"address"},{"name":"venue","type":"tuple","internalType":"struct VenueTypes.Venue","components":[{"name":"name","type":"string","internalType":"string"},{"name":"coordinates","type":"tuple","internalType":"struct VenueTypes.Coordinates","components":[{"name":"lat","type":"int256","internalType":"int256"},{"name":"lon","type":"int256","internalType":"int256"}]},{"name":"totalCapacity","type":"uint256","internalType":"uint256"},{"name":"wallet","type":"address","internalType":"address"},{"name":"venueId","type":"bytes32","internalType":"bytes32"}]},{"name":"radius","type":"uint256","internalType":"uint256"},{"name":"sellOutThreshold","type":"uint256","internalType":"uint256"},{"name":"totalCapacity","type":"uint256","internalType":"uint256"},{"name":"status","type":"uint8","internalType":"enum ShowTypes.Status"},{"name":"isActive","type":"bool","internalType":"bool"},{"name":"expiry","type":"uint256","internalType":"uint256"},{"name":"showDate","type":"uint256","internalType":"uint256"},{"name":"currencyAddress","type":"address","internalType":"address"}],"stateMutability":"view"},{"type":"function","name":"ticketFactoryInstance","inputs":[],"outputs":[{"name":"","type":"address","internalType":"contract ITicketFactory"}],"stateMutability":"view"},{"type":"function","name":"ticketPricePaid","inputs":[{"name":"","type":"bytes32","internalType":"bytes32"},{"name":"","type":"uint256","internalType":"uint256"}],"outputs":[{"name":"","type":"uint256","internalType":"uint256"}],"stateMutability":"view"},{"type":"function","name":"totalTicketsSold","inputs":[{"name":"","type":"bytes32","internalType":"bytes32"}],"outputs":[{"name":"","type":"uint256","internalType":"uint256"}],"stateMutability":"view"},{"type":"function","name":"venueContract","inputs":[],"outputs":[{"name":"","type":"address","internalType":"address"}],"stateMutability":"view"},{"type":"function","name":"venueRegistryInstance","inputs":[],"outputs":[{"name":"","type":"address","internalType":"contract IVenueRegistry"}],"stateMutability":"view"},{"type":"function","name":"walletToShowToTokenIds","inputs":[{"name":"","type":"bytes32","internalType":"bytes32"},{"name":"","type":"address","internalType":"address"},{"name":"","type":"uint256","internalType":"uint256"}],"outputs":[{"name":"","type":"uint256","internalType":"uint256"}],"stateMutability":"view"}],"bytecode":{"object":"0x60806040526005805460ff60a01b1916905534801561001d57600080fd5b506109a18061002d6000396000f3fe608060405234801561001057600080fd5b50600436106101375760003560e01c8063867e68af116100b8578063bafd4eb01161007c578063bafd4eb014610344578063c6ab848a14610382578063c9e21e5e14610395578063e30228be146103c0578063e4ca73aa146103d3578063fca46559146103e657600080fd5b8063867e68af146102955780638dea15a1146102b55780638e70362b146102c8578063925e8f89146102f357806392ea63881461031357600080fd5b80635696c07c116100ff5780635696c07c146101ea578063703ee4e514610215578063729580281461022857806375976795146102515780637d8d6a221461028257600080fd5b8063164889061461013c5780631cf2103e146101585780632f18ddfe146101835780633deba964146101ae57806351819335146101d7575b600080fd5b61014560085481565b6040519081526020015b60405180910390f35b60045461016b906001600160a01b031681565b6040516001600160a01b03909116815260200161014f565b6101456101913660046106c5565b601360209081526000928352604080842090915290825290205481565b61016b6101bc3660046106e7565b600a602052600090815260409020546001600160a01b031681565b60005461016b906001600160a01b031681565b6101456101f836600461071c565b600e60209081526000928352604080842090915290825290205481565b60055461016b906001600160a01b031681565b61016b6102363660046106e7565b6015602052600090815260409020546001600160a01b031681565b61014561025f366004610748565b601160209081526000938452604080852082529284528284209052825290205481565b610145610290366004610784565b610412565b6101456102a33660046106e7565b600c6020526000908152604090205481565b60035461016b906001600160a01b031681565b6101456102d636600461071c565b601060209081526000928352604080842090915290825290205481565b6101456103013660046106e7565b60126020526000908152604090205481565b610145610321366004610748565b600f60209081526000938452604080852082529284528284209052825290205481565b61037261035236600461071c565b600b60209081526000928352604080842090915290825290205460ff1681565b604051901515815260200161014f565b60025461016b906001600160a01b031681565b6101456103a336600461071c565b600d60209081526000928352604080842090915290825290205481565b60065461016b906001600160a01b031681565b60015461016b906001600160a01b031681565b6103f96103f43660046106e7565b610450565b60405161014f9d9c9b9a9998979695949392919061087f565b6014602052826000526040600020602052816000526040600020818154811061043a57600080fd5b9060005260206000200160009250925050505481565b6009602052600090815260409020805460018201805491929161047290610931565b80601f016020809104026020016040519081016040528092919081815260200182805461049e90610931565b80156104eb5780601f106104c0576101008083540402835291602001916104eb565b820191906000526020600020905b8154815290600101906020018083116104ce57829003601f168201915b50505050509080600201805461050090610931565b80601f016020809104026020016040519081016040528092919081815260200182805461052c90610931565b80156105795780601f1061054e57610100808354040283529160200191610579565b820191906000526020600020905b81548152906001019060200180831161055c57829003601f168201915b5050505050908060030160009054906101000a90046001600160a01b031690806005016040518060a00160405290816000820180546105b790610931565b80601f01602080910402602001604051908101604052809291908181526020018280546105e390610931565b80156106305780601f1061060557610100808354040283529160200191610630565b820191906000526020600020905b81548152906001019060200180831161061357829003601f168201915b505050918352505060408051808201825260018401548152600284015460208281019190915283015260038301549082015260048201546001600160a01b039081166060830152600590920154608090910152600b830154600d840154600e850154600f86015460118701546012880154601390980154969794969395929460ff80841695610100909404169391929091168d565b600080604083850312156106d857600080fd5b50508035926020909101359150565b6000602082840312156106f957600080fd5b5035919050565b80356001600160a01b038116811461071757600080fd5b919050565b6000806040838503121561072f57600080fd5b8235915061073f60208401610700565b90509250929050565b60008060006060848603121561075d57600080fd5b8335925061076d60208501610700565b915061077b60408501610700565b90509250925092565b60008060006060848603121561079957600080fd5b833592506107a960208501610700565b9150604084013590509250925092565b6000815180845260005b818110156107df576020818501810151868301820152016107c3565b506000602082860101526020601f19601f83011685010191505092915050565b6000815160c0845261081460c08501826107b9565b905060208301518051602086015260208101516040860152506040830151606085015260018060a01b036060840151166080850152608083015160a08501528091505092915050565b6008811061087b57634e487b7160e01b600052602160045260246000fd5b9052565b8d81526101a06020820152600061089a6101a083018f6107b9565b82810360408401526108ac818f6107b9565b6001600160a01b038e166060850152838103608085015290506108cf818d6107ff565b9150508960a08301528860c08301528760e08301526108f261010083018861085d565b851515610120830152846101408301528361016083015261091f6101808301846001600160a01b03169052565b9e9d5050505050505050505050505050565b600181811c9082168061094557607f821691505b60208210810361096557634e487b7160e01b600052602260045260246000fd5b5091905056fea2646970667358221220bf6a22ff7ad70d7543d561cdf879d72e3d37c19937f0cca7817647615fed4e4864736f6c63430008140033","linkReferences":{}},"methodIdentifiers":{"SELLOUT_PROTOCOL_WALLET()":"e30228be","activeShowCount()":"16488906","artistRegistryInstance()":"8dea15a1","isArtistMapping(bytes32,address)":"bafd4eb0","organizerRegistryInstance()":"1cf2103e","pendingPayouts(bytes32,address)":"8e70362b","pendingRefunds(bytes32,address)":"5696c07c","pendingTokenPayouts(bytes32,address,address)":"75976795","pendingTokenRefunds(bytes32,address,address)":"92ea6388","referralInstance()":"c6ab848a","showPaymentToken(bytes32)":"72958028","showToTicketProxy(bytes32)":"3deba964","showTokenVault(bytes32,address)":"c9e21e5e","showVault(bytes32)":"867e68af","shows(bytes32)":"fca46559","ticketFactoryInstance()":"e4ca73aa","ticketPricePaid(bytes32,uint256)":"2f18ddfe","totalTicketsSold(bytes32)":"925e8f89","venueContract()":"51819335","venueRegistryInstance()":"703ee4e5","walletToShowToTokenIds(bytes32,address,uint256)":"7d8d6a22"},"id":64}