{"abi":[{"type":"function","name":"SELLOUT_PROTOCOL_WALLET","inputs":[],"outputs":[{"name":"","type":"address","internalType":"address"}],"stateMutability":"view"},{"type":"function","name":"UPGRADE_INTERFACE_VERSION","inputs":[],"outputs":[{"name":"","type":"string","internalType":"string"}],"stateMutability":"view"},{"type":"function","name":"activeShowCount","inputs":[],"outputs":[{"name":"","type":"uint256","internalType":"uint256"}],"stateMutability":"view"},{"type":"function","name":"addTokenIdToWallet","inputs":[{"name":"showId","type":"bytes32","internalType":"bytes32"},{"name":"wallet","type":"address","internalType":"address"},{"name":"tokenId","type":"uint256","internalType":"uint256"}],"outputs":[],"stateMutability":"nonpayable"},{"type":"function","name":"artistRegistryContract","inputs":[],"outputs":[{"name":"","type":"address","internalType":"address"}],"stateMutability":"view"},{"type":"function","name":"artistRegistryInstance","inputs":[],"outputs":[{"name":"","type":"address","internalType":"contract IArtistRegistry"}],"stateMutability":"view"},{"type":"function","name":"cancelShow","inputs":[{"name":"showId","type":"bytes32","internalType":"bytes32"}],"outputs":[],"stateMutability":"nonpayable"},{"type":"function","name":"checkAndUpdateExpiry","inputs":[{"name":"showId","type":"bytes32","internalType":"bytes32"}],"outputs":[],"stateMutability":"nonpayable"},{"type":"function","name":"completeShow","inputs":[{"name":"showId","type":"bytes32","internalType":"bytes32"}],"outputs":[],"stateMutability":"nonpayable"},{"type":"function","name":"depositToVault","inputs":[{"name":"showId","type":"bytes32","internalType":"bytes32"}],"outputs":[],"stateMutability":"payable"},{"type":"function","name":"getNumberOfVoters","inputs":[{"name":"showId","type":"bytes32","internalType":"bytes32"}],"outputs":[{"name":"","type":"uint256","internalType":"uint256"}],"stateMutability":"view"},{"type":"function","name":"getOrganizer","inputs":[{"name":"showId","type":"bytes32","internalType":"bytes32"}],"outputs":[{"name":"","type":"address","internalType":"address"}],"stateMutability":"view"},{"type":"function","name":"getPendingRefund","inputs":[{"name":"showId","type":"bytes32","internalType":"bytes32"},{"name":"user","type":"address","internalType":"address"}],"outputs":[{"name":"amountOwed","type":"uint256","internalType":"uint256"}],"stateMutability":"view"},{"type":"function","name":"getSellOutThreshold","inputs":[{"name":"showId","type":"bytes32","internalType":"bytes32"}],"outputs":[{"name":"","type":"uint256","internalType":"uint256"}],"stateMutability":"view"},{"type":"function","name":"getShowById","inputs":[{"name":"showId","type":"bytes32","internalType":"bytes32"}],"outputs":[{"name":"name","type":"string","internalType":"string"},{"name":"description","type":"string","internalType":"string"},{"name":"organizer","type":"address","internalType":"address"},{"name":"artists","type":"address[]","internalType":"address[]"},{"name":"venue","type":"tuple","internalType":"struct VenueTypes.Venue","components":[{"name":"name","type":"string","internalType":"string"},{"name":"coordinates","type":"tuple","internalType":"struct VenueTypes.Coordinates","components":[{"name":"lat","type":"int256","internalType":"int256"},{"name":"lon","type":"int256","internalType":"int256"}]},{"name":"totalCapacity","type":"uint256","internalType":"uint256"},{"name":"wallet","type":"address","internalType":"address"}]},{"name":"ticketPrice","type":"tuple","internalType":"struct ShowTypes.TicketPrice","components":[{"name":"minPrice","type":"uint256","internalType":"uint256"},{"name":"maxPrice","type":"uint256","internalType":"uint256"}]},{"name":"sellOutThreshold","type":"uint256","internalType":"uint256"},{"name":"totalCapacity","type":"uint256","internalType":"uint256"},{"name":"status","type":"uint8","internalType":"enum ShowTypes.Status"},{"name":"isActive","type":"bool","internalType":"bool"}],"stateMutability":"view"},{"type":"function","name":"getShowStatus","inputs":[{"name":"showId","type":"bytes32","internalType":"bytes32"}],"outputs":[{"name":"","type":"uint8","internalType":"enum ShowTypes.Status"}],"stateMutability":"view"},{"type":"function","name":"getTicketPrice","inputs":[{"name":"showId","type":"bytes32","internalType":"bytes32"}],"outputs":[{"name":"","type":"tuple","internalType":"struct ShowTypes.TicketPrice","components":[{"name":"minPrice","type":"uint256","internalType":"uint256"},{"name":"maxPrice","type":"uint256","internalType":"uint256"}]}],"stateMutability":"view"},{"type":"function","name":"getTicketPricePaid","inputs":[{"name":"showId","type":"bytes32","internalType":"bytes32"},{"name":"ticketId","type":"uint256","internalType":"uint256"}],"outputs":[{"name":"","type":"uint256","internalType":"uint256"}],"stateMutability":"view"},{"type":"function","name":"getTotalCapacity","inputs":[{"name":"showId","type":"bytes32","internalType":"bytes32"}],"outputs":[{"name":"","type":"uint256","internalType":"uint256"}],"stateMutability":"view"},{"type":"function","name":"getTotalTicketsSold","inputs":[{"name":"showId","type":"bytes32","internalType":"bytes32"}],"outputs":[{"name":"","type":"uint256","internalType":"uint256"}],"stateMutability":"view"},{"type":"function","name":"getWalletTokenIds","inputs":[{"name":"showId","type":"bytes32","internalType":"bytes32"},{"name":"wallet","type":"address","internalType":"address"}],"outputs":[{"name":"","type":"uint256[]","internalType":"uint256[]"}],"stateMutability":"view"},{"type":"function","name":"hasTicket","inputs":[{"name":"wallet","type":"address","internalType":"address"},{"name":"showId","type":"bytes32","internalType":"bytes32"}],"outputs":[{"name":"ownsTicket","type":"bool","internalType":"bool"}],"stateMutability":"view"},{"type":"function","name":"initialize","inputs":[{"name":"_selloutProtocolWallet","type":"address","internalType":"address"}],"outputs":[],"stateMutability":"nonpayable"},{"type":"function","name":"isArtist","inputs":[{"name":"user","type":"address","internalType":"address"},{"name":"showId","type":"bytes32","internalType":"bytes32"}],"outputs":[{"name":"","type":"bool","internalType":"bool"}],"stateMutability":"view"},{"type":"function","name":"isArtistMapping","inputs":[{"name":"","type":"bytes32","internalType":"bytes32"},{"name":"","type":"address","internalType":"address"}],"outputs":[{"name":"","type":"bool","internalType":"bool"}],"stateMutability":"view"},{"type":"function","name":"isOrganizer","inputs":[{"name":"user","type":"address","internalType":"address"},{"name":"showId","type":"bytes32","internalType":"bytes32"}],"outputs":[{"name":"","type":"bool","internalType":"bool"}],"stateMutability":"view"},{"type":"function","name":"isTicketOwner","inputs":[{"name":"owner","type":"address","internalType":"address"},{"name":"showId","type":"bytes32","internalType":"bytes32"},{"name":"ticketId","type":"uint256","internalType":"uint256"}],"outputs":[{"name":"","type":"bool","internalType":"bool"}],"stateMutability":"view"},{"type":"function","name":"organizerRegistryContract","inputs":[],"outputs":[{"name":"","type":"address","internalType":"address"}],"stateMutability":"view"},{"type":"function","name":"organizerRegistryInstance","inputs":[],"outputs":[{"name":"","type":"address","internalType":"contract IOrganizerRegistry"}],"stateMutability":"view"},{"type":"function","name":"owner","inputs":[],"outputs":[{"name":"","type":"address","internalType":"address"}],"stateMutability":"view"},{"type":"function","name":"payout","inputs":[{"name":"showId","type":"bytes32","internalType":"bytes32"}],"outputs":[],"stateMutability":"nonpayable"},{"type":"function","name":"pendingWithdrawals","inputs":[{"name":"","type":"bytes32","internalType":"bytes32"},{"name":"","type":"address","internalType":"address"}],"outputs":[{"name":"","type":"uint256","internalType":"uint256"}],"stateMutability":"view"},{"type":"function","name":"proposeShow","inputs":[{"name":"name","type":"string","internalType":"string"},{"name":"description","type":"string","internalType":"string"},{"name":"artists","type":"address[]","internalType":"address[]"},{"name":"coordinates","type":"tuple","internalType":"struct VenueTypes.Coordinates","components":[{"name":"lat","type":"int256","internalType":"int256"},{"name":"lon","type":"int256","internalType":"int256"}]},{"name":"radius","type":"uint256","internalType":"uint256"},{"name":"sellOutThreshold","type":"uint8","internalType":"uint8"},{"name":"totalCapacity","type":"uint256","internalType":"uint256"},{"name":"ticketPrice","type":"tuple","internalType":"struct ShowTypes.TicketPrice","components":[{"name":"minPrice","type":"uint256","internalType":"uint256"},{"name":"maxPrice","type":"uint256","internalType":"uint256"}]},{"name":"split","type":"uint256[]","internalType":"uint256[]"}],"outputs":[{"name":"showId","type":"bytes32","internalType":"bytes32"}],"stateMutability":"nonpayable"},{"type":"function","name":"proxiableUUID","inputs":[],"outputs":[{"name":"","type":"bytes32","internalType":"bytes32"}],"stateMutability":"view"},{"type":"function","name":"referralContract","inputs":[],"outputs":[{"name":"","type":"address","internalType":"address"}],"stateMutability":"view"},{"type":"function","name":"referralInstance","inputs":[],"outputs":[{"name":"","type":"address","internalType":"contract ReferralModule"}],"stateMutability":"view"},{"type":"function","name":"refundTicket","inputs":[{"name":"showId","type":"bytes32","internalType":"bytes32"},{"name":"ticketId","type":"uint256","internalType":"uint256"}],"outputs":[],"stateMutability":"nonpayable"},{"type":"function","name":"renounceOwnership","inputs":[],"outputs":[],"stateMutability":"nonpayable"},{"type":"function","name":"setProtocolAddresses","inputs":[{"name":"_ticketContract","type":"address","internalType":"address"},{"name":"_venueContract","type":"address","internalType":"address"},{"name":"_referralContract","type":"address","internalType":"address"},{"name":"_artistRegistryContract","type":"address","internalType":"address"},{"name":"_organizerRegistryContract","type":"address","internalType":"address"},{"name":"_venueRegistryContract","type":"address","internalType":"address"}],"outputs":[],"stateMutability":"nonpayable"},{"type":"function","name":"setTicketPricePaid","inputs":[{"name":"showId","type":"bytes32","internalType":"bytes32"},{"name":"ticketId","type":"uint256","internalType":"uint256"},{"name":"price","type":"uint256","internalType":"uint256"}],"outputs":[],"stateMutability":"nonpayable"},{"type":"function","name":"setTotalTicketsSold","inputs":[{"name":"showId","type":"bytes32","internalType":"bytes32"},{"name":"amount","type":"uint256","internalType":"uint256"}],"outputs":[],"stateMutability":"nonpayable"},{"type":"function","name":"showVault","inputs":[{"name":"","type":"bytes32","internalType":"bytes32"}],"outputs":[{"name":"","type":"uint256","internalType":"uint256"}],"stateMutability":"view"},{"type":"function","name":"shows","inputs":[{"name":"","type":"bytes32","internalType":"bytes32"}],"outputs":[{"name":"showId","type":"bytes32","internalType":"bytes32"},{"name":"name","type":"string","internalType":"string"},{"name":"description","type":"string","internalType":"string"},{"name":"organizer","type":"address","internalType":"address"},{"name":"venue","type":"tuple","internalType":"struct VenueTypes.Venue","components":[{"name":"name","type":"string","internalType":"string"},{"name":"coordinates","type":"tuple","internalType":"struct VenueTypes.Coordinates","components":[{"name":"lat","type":"int256","internalType":"int256"},{"name":"lon","type":"int256","internalType":"int256"}]},{"name":"totalCapacity","type":"uint256","internalType":"uint256"},{"name":"wallet","type":"address","internalType":"address"}]},{"name":"radius","type":"uint256","internalType":"uint256"},{"name":"ticketPrice","type":"tuple","internalType":"struct ShowTypes.TicketPrice","components":[{"name":"minPrice","type":"uint256","internalType":"uint256"},{"name":"maxPrice","type":"uint256","internalType":"uint256"}]},{"name":"sellOutThreshold","type":"uint256","internalType":"uint256"},{"name":"totalCapacity","type":"uint256","internalType":"uint256"},{"name":"status","type":"uint8","internalType":"enum ShowTypes.Status"},{"name":"isActive","type":"bool","internalType":"bool"},{"name":"expiry","type":"uint256","internalType":"uint256"},{"name":"showDate","type":"uint256","internalType":"uint256"}],"stateMutability":"view"},{"type":"function","name":"ticketContract","inputs":[],"outputs":[{"name":"","type":"address","internalType":"address"}],"stateMutability":"view"},{"type":"function","name":"ticketInstance","inputs":[],"outputs":[{"name":"","type":"address","internalType":"contract Ticket"}],"stateMutability":"view"},{"type":"function","name":"ticketOwnership","inputs":[{"name":"","type":"address","internalType":"address"},{"name":"","type":"bytes32","internalType":"bytes32"}],"outputs":[{"name":"","type":"bool","internalType":"bool"}],"stateMutability":"view"},{"type":"function","name":"ticketPricePaid","inputs":[{"name":"","type":"bytes32","internalType":"bytes32"},{"name":"","type":"uint256","internalType":"uint256"}],"outputs":[{"name":"","type":"uint256","internalType":"uint256"}],"stateMutability":"view"},{"type":"function","name":"totalTicketsSold","inputs":[{"name":"","type":"bytes32","internalType":"bytes32"}],"outputs":[{"name":"","type":"uint256","internalType":"uint256"}],"stateMutability":"view"},{"type":"function","name":"transferOwnership","inputs":[{"name":"newOwner","type":"address","internalType":"address"}],"outputs":[],"stateMutability":"nonpayable"},{"type":"function","name":"updateExpiry","inputs":[{"name":"showId","type":"bytes32","internalType":"bytes32"},{"name":"expiry","type":"uint256","internalType":"uint256"}],"outputs":[],"stateMutability":"nonpayable"},{"type":"function","name":"updateStatus","inputs":[{"name":"showId","type":"bytes32","internalType":"bytes32"},{"name":"_status","type":"uint8","internalType":"enum ShowTypes.Status"}],"outputs":[],"stateMutability":"nonpayable"},{"type":"function","name":"updateVenue","inputs":[{"name":"showId","type":"bytes32","internalType":"bytes32"},{"name":"newVenue","type":"tuple","internalType":"struct VenueTypes.Venue","components":[{"name":"name","type":"string","internalType":"string"},{"name":"coordinates","type":"tuple","internalType":"struct VenueTypes.Coordinates","components":[{"name":"lat","type":"int256","internalType":"int256"},{"name":"lon","type":"int256","internalType":"int256"}]},{"name":"totalCapacity","type":"uint256","internalType":"uint256"},{"name":"wallet","type":"address","internalType":"address"}]}],"outputs":[],"stateMutability":"nonpayable"},{"type":"function","name":"upgradeToAndCall","inputs":[{"name":"newImplementation","type":"address","internalType":"address"},{"name":"data","type":"bytes","internalType":"bytes"}],"outputs":[],"stateMutability":"payable"},{"type":"function","name":"venueContract","inputs":[],"outputs":[{"name":"","type":"address","internalType":"address"}],"stateMutability":"view"},{"type":"function","name":"venueRegistryContract","inputs":[],"outputs":[{"name":"","type":"address","internalType":"address"}],"stateMutability":"view"},{"type":"function","name":"venueRegistryInstance","inputs":[],"outputs":[{"name":"","type":"address","internalType":"contract IVenueRegistry"}],"stateMutability":"view"},{"type":"function","name":"walletToShowToTokenIds","inputs":[{"name":"","type":"bytes32","internalType":"bytes32"},{"name":"","type":"address","internalType":"address"},{"name":"","type":"uint256","internalType":"uint256"}],"outputs":[{"name":"","type":"uint256","internalType":"uint256"}],"stateMutability":"view"},{"type":"function","name":"withdrawRefund","inputs":[{"name":"showId","type":"bytes32","internalType":"bytes32"}],"outputs":[],"stateMutability":"nonpayable"},{"type":"event","name":"ExpiryUpdated","inputs":[{"name":"showId","type":"bytes32","indexed":true,"internalType":"bytes32"},{"name":"expiry","type":"uint256","indexed":false,"internalType":"uint256"}],"anonymous":false},{"type":"event","name":"Initialized","inputs":[{"name":"version","type":"uint64","indexed":false,"internalType":"uint64"}],"anonymous":false},{"type":"event","name":"OwnershipTransferred","inputs":[{"name":"previousOwner","type":"address","indexed":true,"internalType":"address"},{"name":"newOwner","type":"address","indexed":true,"internalType":"address"}],"anonymous":false},{"type":"event","name":"RefundWithdrawn","inputs":[{"name":"user","type":"address","indexed":true,"internalType":"address"},{"name":"showId","type":"bytes32","indexed":true,"internalType":"bytes32"},{"name":"amount","type":"uint256","indexed":false,"internalType":"uint256"}],"anonymous":false},{"type":"event","name":"ShowExpired","inputs":[{"name":"showId","type":"bytes32","indexed":true,"internalType":"bytes32"}],"anonymous":false},{"type":"event","name":"ShowProposed","inputs":[{"name":"showId","type":"bytes32","indexed":true,"internalType":"bytes32"},{"name":"organizer","type":"address","indexed":true,"internalType":"address"},{"name":"name","type":"string","indexed":false,"internalType":"string"},{"name":"artists","type":"address[]","indexed":false,"internalType":"address[]"},{"name":"description","type":"string","indexed":false,"internalType":"string"},{"name":"ticketPrice","type":"tuple","indexed":false,"internalType":"struct ShowTypes.TicketPrice","components":[{"name":"minPrice","type":"uint256","internalType":"uint256"},{"name":"maxPrice","type":"uint256","internalType":"uint256"}]},{"name":"sellOutThreshold","type":"uint256","indexed":false,"internalType":"uint256"},{"name":"split","type":"uint256[]","indexed":false,"internalType":"uint256[]"}],"anonymous":false},{"type":"event","name":"StatusUpdated","inputs":[{"name":"showId","type":"bytes32","indexed":true,"internalType":"bytes32"},{"name":"status","type":"uint8","indexed":false,"internalType":"enum ShowTypes.Status"}],"anonymous":false},{"type":"event","name":"TicketRefunded","inputs":[{"name":"user","type":"address","indexed":true,"internalType":"address"},{"name":"showId","type":"bytes32","indexed":true,"internalType":"bytes32"},{"name":"refundAmount","type":"uint256","indexed":false,"internalType":"uint256"}],"anonymous":false},{"type":"event","name":"Upgraded","inputs":[{"name":"implementation","type":"address","indexed":true,"internalType":"address"}],"anonymous":false},{"type":"event","name":"VenueUpdated","inputs":[{"name":"showId","type":"bytes32","indexed":true,"internalType":"bytes32"},{"name":"newVenue","type":"tuple","indexed":false,"internalType":"struct VenueTypes.Venue","components":[{"name":"name","type":"string","internalType":"string"},{"name":"coordinates","type":"tuple","internalType":"struct VenueTypes.Coordinates","components":[{"name":"lat","type":"int256","internalType":"int256"},{"name":"lon","type":"int256","internalType":"int256"}]},{"name":"totalCapacity","type":"uint256","internalType":"uint256"},{"name":"wallet","type":"address","internalType":"address"}]}],"anonymous":false},{"type":"event","name":"Withdrawal","inputs":[{"name":"showId","type":"bytes32","indexed":true,"internalType":"bytes32"},{"name":"recipient","type":"address","indexed":true,"internalType":"address"},{"name":"amount","type":"uint256","indexed":false,"internalType":"uint256"}],"anonymous":false},{"type":"error","name":"AddressEmptyCode","inputs":[{"name":"target","type":"address","internalType":"address"}]},{"type":"error","name":"ERC1967InvalidImplementation","inputs":[{"name":"implementation","type":"address","internalType":"address"}]},{"type":"error","name":"ERC1967NonPayable","inputs":[]},{"type":"error","name":"FailedInnerCall","inputs":[]},{"type":"error","name":"InvalidInitialization","inputs":[]},{"type":"error","name":"NotInitializing","inputs":[]},{"type":"error","name":"OwnableInvalidOwner","inputs":[{"name":"owner","type":"address","internalType":"address"}]},{"type":"error","name":"OwnableUnauthorizedAccount","inputs":[{"name":"account","type":"address","internalType":"address"}]},{"type":"error","name":"ReentrancyGuardReentrantCall","inputs":[]},{"type":"error","name":"UUPSUnauthorizedCallContext","inputs":[]},{"type":"error","name":"UUPSUnsupportedProxiableUUID","inputs":[{"name":"slot","type":"bytes32","internalType":"bytes32"}]}],"bytecode":{"object":"0x60a0604052306080526014805460ff60a01b1916905534801561002157600080fd5b5060805161492a61004b600039600081816132650152818161328e01526133d4015261492a6000f3fe6080604052600436106103815760003560e01c8063787d76b8116101d1578063bafd4eb011610102578063cfefb3d5116100a0578063ef5023a51161006f578063ef5023a514610c53578063f2fde38b14610c73578063f812187314610c93578063fca4655914610cb357600080fd5b8063cfefb3d514610bd3578063de44006f14610bf3578063e30228be14610c13578063e9acfa7c14610c3357600080fd5b8063c4d66de8116100dc578063c4d66de814610b0a578063c56f70fd14610b2a578063c6ab848a14610b4a578063c73a839c14610b6a57600080fd5b8063bafd4eb014610a77578063bd47dc5c14610ab2578063be44d38d14610ad257600080fd5b80638dea15a11161016f578063977cb89e11610149578063977cb89e146109c0578063a03f4efe146109f9578063a2c8624c14610a19578063ad3cb1cc14610a3957600080fd5b80638dea15a11461093b578063925e8f891461095b57806393d4e1001461098857600080fd5b806385266635116101ab578063852666351461089e57806385ffa16c146108b1578063867e68af146108d15780638da5cb5b146108fe57600080fd5b8063787d76b81461083e5780637d8d6a221461085e5780637dad19db1461087e57600080fd5b806346079335116102b65780635b9a1e091161025457806366bc64cd1161022357806366bc64cd146107a65780636e9cacd0146107c6578063703ee4e514610809578063715018a61461082957600080fd5b80635b9a1e09146106d85780635c37da69146107055780636104187014610749578063620ec1e41461077657600080fd5b80634f1ef286116102905780634f1ef28614610670578063518193351461068357806352d1902d146106a357806358a86e1d146106b857600080fd5b806346079335146105b757806346c2c8a7146105f25780634ed372da1461063257600080fd5b80631cf2103e1161032357806331a68da0116102fd57806331a68da0146105375780633c60d2d61461055757806341adf3ad146105775780634365c06e1461059757600080fd5b80631cf2103e146104a957806327b1bf52146104c95780632f18ddfe146104ff57600080fd5b80630d08c3c91161035f5780630d08c3c914610415578063129e086b1461043557806316488906146104555780631a348e621461047957600080fd5b80630233ce6a1461038657806302c9a8b5146103c3578063054372ed146103f3575b600080fd5b34801561039257600080fd5b506010546103a6906001600160a01b031681565b6040516001600160a01b0390911681526020015b60405180910390f35b3480156103cf57600080fd5b506103e36103de366004613a9f565b610cec565b60405190151581526020016103ba565b3480156103ff57600080fd5b5061041361040e366004613acb565b610d19565b005b34801561042157600080fd5b50610413610430366004613aff565b610dda565b34801561044157600080fd5b50610413610450366004613b21565b610ebf565b34801561046157600080fd5b5061046b60015481565b6040519081526020016103ba565b34801561048557600080fd5b5061046b610494366004613b21565b6000908152600260205260409020600d015490565b3480156104b557600080fd5b506013546103a6906001600160a01b031681565b3480156104d557600080fd5b506104e96104e4366004613b21565b6113b8565b6040516103ba9a99989796959493929190613c5a565b34801561050b57600080fd5b5061046b61051a366004613aff565b600760209081526000928352604080842090915290825290205481565b34801561054357600080fd5b50600f546103a6906001600160a01b031681565b34801561056357600080fd5b50610413610572366004613aff565b6116f5565b34801561058357600080fd5b50600d546103a6906001600160a01b031681565b3480156105a357600080fd5b506104136105b2366004613b21565b611b3e565b3480156105c357600080fd5b506103e36105d2366004613a9f565b600860209081526000928352604080842090915290825290205460ff1681565b3480156105fe57600080fd5b5061062561060d366004613b21565b6000908152600260205260409020600f015460ff1690565b6040516103ba9190613d06565b34801561063e57600080fd5b506103e361064d366004613a9f565b6000908152600260205260409020600301546001600160a01b0391821691161490565b61041361067e366004613dea565b611bfc565b34801561068f57600080fd5b50600b546103a6906001600160a01b031681565b3480156106af57600080fd5b5061046b611c17565b3480156106c457600080fd5b50600a546103a6906001600160a01b031681565b3480156106e457600080fd5b506106f86106f3366004613e4e565b611c34565b6040516103ba9190613ea3565b34801561071157600080fd5b506103e3610720366004613a9f565b60009081526009602090815260408083206001600160a01b039490941683529290522054151590565b34801561075557600080fd5b5061046b610764366004613b21565b60009081526006602052604090205490565b34801561078257600080fd5b5061046b610791366004613b21565b6000908152600260205260409020600e015490565b3480156107b257600080fd5b50600e546103a6906001600160a01b031681565b3480156107d257600080fd5b5061046b6107e1366004613e4e565b60009182526005602090815260408084206001600160a01b0393909316845291905290205490565b34801561081557600080fd5b506014546103a6906001600160a01b031681565b34801561083557600080fd5b50610413611ca8565b34801561084a57600080fd5b50610413610859366004613aff565b611cbc565b34801561086a57600080fd5b5061046b610879366004613eb6565b611d16565b34801561088a57600080fd5b50600c546103a6906001600160a01b031681565b6104136108ac366004613b21565b611d54565b3480156108bd57600080fd5b5061046b6108cc366004613b21565b611dc3565b3480156108dd57600080fd5b5061046b6108ec366004613b21565b60046020526000908152604090205481565b34801561090a57600080fd5b507f9016d09d72d40fdae2fd8ceac6b6234c7706214fd39c1cd1e609a0528c199300546001600160a01b03166103a6565b34801561094757600080fd5b506012546103a6906001600160a01b031681565b34801561096757600080fd5b5061046b610976366004613b21565b60066020526000908152604090205481565b34801561099457600080fd5b5061046b6109a3366004613aff565b600091825260076020908152604080842092845291905290205490565b3480156109cc57600080fd5b506103a66109db366004613b21565b6000908152600260205260409020600301546001600160a01b031690565b348015610a0557600080fd5b506103e3610a14366004613eee565b611de7565b348015610a2557600080fd5b5061046b610a34366004614096565b611ea7565b348015610a4557600080fd5b50610a6a604051806040016040528060058152602001640352e302e360dc1b81525081565b6040516103ba919061418c565b348015610a8357600080fd5b506103e3610a92366004613e4e565b600360209081526000928352604080842090915290825290205460ff1681565b348015610abe57600080fd5b50610413610acd36600461419f565b61267c565b348015610ade57600080fd5b5061046b610aed366004613e4e565b600560209081526000928352604080842090915290825290205481565b348015610b1657600080fd5b50610413610b253660046141cb565b6126c2565b348015610b3657600080fd5b50610413610b453660046141e8565b6127f5565b348015610b5657600080fd5b506011546103a6906001600160a01b031681565b348015610b7657600080fd5b50610bc6610b85366004613b21565b6040805180820190915260008082526020820152506000908152600260209081526040918290208251808401909352600b8101548352600c01549082015290565b6040516103ba9190614293565b348015610bdf57600080fd5b50610413610bee366004613b21565b6128c7565b348015610bff57600080fd5b50610413610c0e366004613eb6565b612adb565b348015610c1f57600080fd5b506015546103a6906001600160a01b031681565b348015610c3f57600080fd5b50610413610c4e366004613b21565b612b3c565b348015610c5f57600080fd5b50610413610c6e366004613b21565b612ca8565b348015610c7f57600080fd5b50610413610c8e3660046141cb565b612dd9565b348015610c9f57600080fd5b50610413610cae3660046142aa565b612e14565b348015610cbf57600080fd5b50610cd3610cce366004613b21565b612ef8565b6040516103ba9d9c9b9a9998979695949392919061432c565b60008181526003602090815260408083206001600160a01b038616845290915290205460ff165b92915050565b600b546001600160a01b0316331480610d3c5750600a546001600160a01b031633145b80610d4657503330145b610d6b5760405162461bcd60e51b8152600401610d62906143de565b60405180910390fd5b6000828152600260205260409020600f01805482919060ff19166001836007811115610d9957610d99613c22565b0217905550817f8ed894b6f384ca9c829b9aa5b056bc9106a90845a15616607e975d4ad488ee6782604051610dce9190613d06565b60405180910390a25050565b600a546001600160a01b03163314610e045760405162461bcd60e51b8152600401610d629061444c565b6000828152600260205260408120600f015460ff166007811115610e2a57610e2a613c22565b14610e775760405162461bcd60e51b815260206004820152601f60248201527f53686f77206d75737420626520696e2050726f706f73656420737461747573006044820152606401610d62565b600082815260026020526040908190206011018290555182907fe4f26fcd7ae101f4d7c47cac6fc616fbb05e9b41e67b7a00b67b35f13654fce090610dce9084815260200190565b600a546001600160a01b03163314610ee95760405162461bcd60e51b8152600401610d629061444c565b600081815260026020819052604090912090600f82015460ff166007811115610f1457610f14613c22565b14610f595760405162461bcd60e51b815260206004820152601560248201527414da1bddc81b5d5cdd081899481058d8d95c1d1959605a1b6044820152606401610d62565b60008281526004602052604090205480610fae5760405162461bcd60e51b81526020600482015260166024820152754e6f2066756e647320746f206469737472696275746560501b6044820152606401610d62565b600082601001805480602002602001604051908101604052809291908181526020018280548015610ffe57602002820191906000526020600020905b815481526020019060010190808311610fea575b50505050509050600060648361101491906144b1565b60008681526005602090815260408083206015546001600160a01b031684529091529020819055905061104781846144d3565b92506000606483600081518110611060576110606144e6565b60200260200101518561107391906144fc565b61107d91906144b1565b600087815260056020908152604080832060038a01546001600160a01b0316845290915281208290559091505b60048601548110156111585760006064856110c6846001614513565b815181106110d6576110d66144e6565b6020026020010151876110e991906144fc565b6110f391906144b1565b905080600560008a81526020019081526020016000206000896004018581548110611120576111206144e6565b60009182526020808320909101546001600160a01b03168352820192909252604001902055508061115081614526565b9150506110aa565b5060006064846001865161116c91906144d3565b8151811061117c5761117c6144e6565b60200260200101518661118f91906144fc565b61119991906144b1565b600088815260056020908152604080832060098b01546001600160a01b0390811685529083528184208590558b845260049283905281842093909355600f8a01805460ff19168317905560115460038b0154915163416b56db60e01b815294955083169363416b56db9361121793921691600191829182910161453f565b600060405180830381600087803b15801561123157600080fd5b505af1158015611245573d6000803e3d6000fd5b5050505060005b6004870154811015611306576011546004880180546001600160a01b039092169163416b56db919084908110611284576112846144e6565b6000918252602090912001546040516001600160e01b031960e084901b1681526112c1916001600160a01b0316906001908190819060040161453f565b600060405180830381600087803b1580156112db57600080fd5b505af11580156112ef573d6000803e3d6000fd5b5050505080806112fe90614526565b91505061124c565b50601154600987015460405163416b56db60e01b81526001600160a01b039283169263416b56db92611344929116906001908190819060040161453f565b600060405180830381600087803b15801561135e57600080fd5b505af1158015611372573d6000803e3d6000fd5b50505050867f8ed894b6f384ca9c829b9aa5b056bc9106a90845a15616607e975d4ad488ee6760046040516113a79190613d06565b60405180910390a250505050505050565b606080600060606113c7613992565b6040805180820190915260008082526020820152600087815260026020819052604082206003810154600d820154600e830154600f84015460018501805488978897889790969395918701946001600160a01b039091169360048801936005890193600b8a0193909160ff80831692610100900416908a9061144890614565565b80601f016020809104026020016040519081016040528092919081815260200182805461147490614565565b80156114c15780601f10611496576101008083540402835291602001916114c1565b820191906000526020600020905b8154815290600101906020018083116114a457829003601f168201915b505050505099508880546114d490614565565b80601f016020809104026020016040519081016040528092919081815260200182805461150090614565565b801561154d5780601f106115225761010080835404028352916020019161154d565b820191906000526020600020905b81548152906001019060200180831161153057829003601f168201915b50505050509850868054806020026020016040519081016040528092919081815260200182805480156115a957602002820191906000526020600020905b81546001600160a01b0316815260019091019060200180831161158b575b50505050509650856040518060800160405290816000820180546115cc90614565565b80601f01602080910402602001604051908101604052809291908181526020018280546115f890614565565b80156116455780601f1061161a57610100808354040283529160200191611645565b820191906000526020600020905b81548152906001019060200180831161162857829003601f168201915b5050505050815260200160018201604051806040016040529081600082015481526020016001820154815250508152602001600382015481526020016004820160009054906101000a90046001600160a01b03166001600160a01b03166001600160a01b0316815250509550846040518060400160405290816000820154815260200160018201548152505094509a509a509a509a509a509a509a509a509a509a50509193959799509193959799565b6000828152600260205260408120600f015460ff16600781111561171b5761171b613c22565b148061174c575060056000838152600260205260409020600f015460ff16600781111561174a5761174a613c22565b145b8061177c575060076000838152600260205260409020600f015460ff16600781111561177a5761177a613c22565b145b6117bb5760405162461bcd60e51b815260206004820152601060248201526f119d5b991cc8185c99481b1bd8dad95960821b6044820152606401610d62565b6117c6338383611de7565b6118255760405162461bcd60e51b815260206004820152602a60248201527f5573657220646f6573206e6f74206f776e20746865207469636b657420666f7260448201526920746869732073686f7760b01b6064820152608401610d62565b6000828152600760209081526040808320848452909152812054116118835760405162461bcd60e51b8152602060048201526014602482015273151a58dad95d081b9bdd081c1d5c98da185cd95960621b6044820152606401610d62565b60008281526007602090815260408083208484528252808320548584526006909252909120546118f55760405162461bcd60e51b815260206004820152601d60248201527f4e6f207469636b65747320736f6c6420666f7220746869732073686f770000006044820152606401610d62565b600083815260066020526040812080549161190f8361459f565b9091555050600083815260076020908152604080832085845290915281205561193983338461317b565b6010546040516387f9ca5d60e01b815260048101849052600160248201523360448201526001600160a01b03909116906387f9ca5d90606401600060405180830381600087803b15801561198c57600080fd5b505af11580156119a0573d6000803e3d6000fd5b50505050600060646119c1856000908152600260205260409020600e015490565b6000868152600260205260409020600d01546119dd91906144fc565b6119e791906144b1565b600085815260046020526040902054909150821115611a485760405162461bcd60e51b815260206004820181905260248201527f496e73756666696369656e742066756e647320696e2073686f77207661756c746044820152606401610d62565b6000848152600660205260409020548110611aaf57600084815260026020526040808220600f01805460ff191690555185917f8ed894b6f384ca9c829b9aa5b056bc9106a90845a15616607e975d4ad488ee6791611aa69190613d06565b60405180910390a25b60008481526004602052604081208054849290611acd9084906144d3565b9091555050600084815260056020908152604080832033845290915281208054849290611afb908490614513565b9091555050604051828152849033907f6327daeea6ce26abf9f96cd84eee9cb40d1d5b88f7f5990914540e392446bf04906020015b60405180910390a350505050565b600a546001600160a01b03163314611b685760405162461bcd60e51b8152600401610d629061444c565b600081815260026020526040902060118101544210801590611ba357506007600f82015460ff166007811115611ba057611ba0613c22565b14155b15611bf857600f8101805460ff1916600717905560018054906000611bc78361459f565b909155505060405182907f82b7e047c31ec5019ec913d8f5f2257c393096c9e63f6214f001f4b27e4dc0c890600090a25b5050565b611c0461325a565b611c0d826132ff565b611bf88282613307565b6000611c216133c9565b506000805160206148d583398151915290565b60008281526009602090815260408083206001600160a01b0385168452825291829020805483518184028101840190945280845260609392830182828015611c9b57602002820191906000526020600020905b815481526020019060010190808311611c87575b5050505050905092915050565b611cb0613412565b611cba600061346d565b565b600a546001600160a01b03163314611ce65760405162461bcd60e51b8152600401610d629061444c565b600082815260066020526040902054611d00908290614513565b6000928352600660205260409092209190915550565b60096020528260005260406000206020528160005260406000208181548110611d3e57600080fd5b9060005260206000200160009250925050505481565b600b546001600160a01b0316331480611d775750600a546001600160a01b031633145b80611d8157503330145b611d9d5760405162461bcd60e51b8152600401610d62906143de565b60008181526004602052604081208054349290611dbb908490614513565b909155505050565b600081815260026020526040812060040154611de0816001614513565b9392505050565b60008281526009602090815260408083206001600160a01b0387168452825280832080548251818502810185019093528083528493830182828015611e4b57602002820191906000526020600020905b815481526020019060010190808311611e37575b5050505050905060005b8151811015611e9b5783828281518110611e7157611e716144e6565b602002602001015103611e8957600192505050611de0565b80611e9381614526565b915050611e55565b50600095945050505050565b6000808a5111611eec5760405162461bcd60e51b815260206004820152601060248201526f13985b59481a5cc81c995c5d5a5c995960821b6044820152606401610d62565b60008611611f485760405162461bcd60e51b815260206004820152602360248201527f56656e756520726164697573206d75737420626520677265617465722074686160448201526206e20360ec1b6064820152608401610d62565b60008411611fa65760405162461bcd60e51b815260206004820152602560248201527f546f74616c206361706163697479206d75737420626520677265617465722074604482015264068616e20360dc1b6064820152608401610d62565b6000885111611ff75760405162461bcd60e51b815260206004820152601c60248201527f4174206c65617374206f6e6520617274697374207265717569726564000000006044820152606401610d62565b8251602084015110156120725760405162461bcd60e51b815260206004820152603d60248201527f4d6178207469636b6574207072696365206d757374206265206772656174657260448201527f206f7220657175616c20746f206d696e207469636b65742070726963650000006064820152608401610d62565b60328560ff161015801561208a575060648560ff1611155b6120ec5760405162461bcd60e51b815260206004820152602d60248201527f53656c6c2d6f7574207468726573686f6c64206d75737420626520626574776560448201526c0656e20353020616e642031303609c1b6064820152608401610d62565b865163055d4a7f19138015906121075750865163055d4a8012155b6121465760405162461bcd60e51b815260206004820152601060248201526f496e76616c6964206c6174697475646560801b6044820152606401610d62565b630aba94ff198760200151121580156121675750630aba9500876020015113155b6121a75760405162461bcd60e51b8152602060048201526011602482015270496e76616c6964206c6f6e67697475646560781b6044820152606401610d62565b601454600160a01b900460ff166122005760405162461bcd60e51b815260206004820152601e60248201527f436f6e747261637420616464726573736573206d7573742062652073657400006044820152606401610d62565b612209336134de565b6122555760405162461bcd60e51b815260206004820152601c60248201527f4f7267616e697a6572206d7573742062652072656769737465726564000000006044820152606401610d62565b60005b88518110156122e157612283898281518110612276576122766144e6565b602002602001015161356e565b6122cf5760405162461bcd60e51b815260206004820152601e60248201527f416c6c2061727469737473206d757374206265207265676973746572656400006044820152606401610d62565b806122d981614526565b915050612258565b506122ed8289516135a4565b865160208089015160405161230e9333938d9391928c918c918c91016145b6565b60405160208183030381529060405280519060200120905060004262278d006123379190614513565b9050600060405180608001604052806040518060200160405280600081525081526020018a815260200187815260200160006001600160a01b03168152509050604051806101e001604052808481526020018d81526020018c8152602001336001600160a01b031681526020018b81526020018281526020018981526020018681526020018860ff168152602001878152602001600060078111156123de576123de613c22565b8152600160208083018290526040808401899052606084018790526000608090940184905287845260028252909220835181559183015190820190612423908261467d565b5060408201516002820190612438908261467d565b5060608201516003820180546001600160a01b0319166001600160a01b039092169190911790556080820151805161247a9160048401916020909101906139d5565b5060a0820151805160058301908190612493908261467d565b50602082810151805160018481019190915590820151600284015560408401516003840155606090930151600490920180546001600160a01b0319166001600160a01b039093169290921790915560c0840151600a84015560e08401518051600b8501550151600c830155610100830151600d830155610120830151600e830155610140830151600f830180549192909160ff19169083600781111561253b5761253b613c22565b0217905550610160820151600f820180549115156101000261ff0019909216919091179055610180820151805161257c916010840191602090910190613a3a565b506101a082015160118201556101c09091015160129091015560005b8a5181101561260b5760008481526003602052604081208c51600192908e90859081106125c7576125c76144e6565b6020908102919091018101516001600160a01b03168252810191909152604001600020805460ff19169115159190911790558061260381614526565b915050612598565b506001805490600061261c83614526565b9190505550336001600160a01b0316837f5829640c990aaf491e04dbb3bede81c191d55a802b99b9194101fa3adece09e08e8d8f8a8d8b6040516126659695949392919061473d565b60405180910390a350509998505050505050505050565b600a546001600160a01b031633146126a65760405162461bcd60e51b8152600401610d629061444c565b6000928352600760209081526040808520938552929052912055565b7ff0c57e16840df040f15088dc2f81fe391c3923bec73e23a9662efc9c229c6a008054600160401b810460ff16159067ffffffffffffffff166000811580156127085750825b905060008267ffffffffffffffff1660011480156127255750303b155b905081158015612733575080155b156127515760405163f92ee8a960e01b815260040160405180910390fd5b845467ffffffffffffffff19166001178555831561277b57845460ff60401b1916600160401b1785555b6127836136d3565b61278c866136e3565b601580546001600160a01b0319166001600160a01b03881617905583156127ed57845460ff60401b19168555604051600181527fc7f505b2f371ae2175ee4913f4499e1f2633a7b5936321eed1cdaeb6115181d29060200160405180910390a15b505050505050565b600b546001600160a01b0316331461281f5760405162461bcd60e51b8152600401610d629061444c565b60008281526002602052604090208151829060058301908190612842908261467d565b5060208281015180516001840155015160028201556040808301516003830155606090920151600490910180546001600160a01b0319166001600160a01b039092169190911790555183907f7ff310b69b4d32bc970badd2c29e0539de33aad17a7679f5484eb09ad6fd5fc6906128ba9085906147b1565b60405180910390a2505050565b60008181526002602052604090206003015481906001600160a01b03163314806128f657506128f63382610cec565b6129335760405162461bcd60e51b815260206004820152600e60248201526d139bdd08185d5d1a1bdc9a5e995960921b6044820152606401610d62565b60008281526002602052604090206004600f82015460ff16600781111561295c5761295c613c22565b146129a25760405162461bcd60e51b815260206004820152601660248201527514da1bddc81b5d5cdd0818994810dbdb5c1b195d195960521b6044820152606401610d62565b60128101546129b4906202a300614513565b4214612a025760405162461bcd60e51b815260206004820152601c60248201527f53686f7720636f6f6c20646f776e20686173206e6f7420656e646564000000006044820152606401610d62565b600083815260056020908152604080832033845290915290205480612a605760405162461bcd60e51b81526020600482015260146024820152734e6f2066756e647320746f20776974686472617760601b6044820152606401610d62565b600084815260056020908152604080832033808552925280832083905551909183156108fc02918491818181858888f19350505050158015612aa6573d6000803e3d6000fd5b50604051818152339085907f028ab133c73f6c00ad0c5896ef40eff18378acd3d7f2ecf573c2706582bf73bf90602001611b30565b600a546001600160a01b03163314612b055760405162461bcd60e51b8152600401610d629061444c565b60009283526009602090815260408085206001600160a01b0390941685529281529183208054600181018255908452919092200155565b612b446136f4565b600081815260056020908152604080832033845290915290205480612ba25760405162461bcd60e51b81526020600482015260146024820152734e6f2066756e647320746f20776974686472617760601b6044820152606401610d62565b80471015612bfd5760405162461bcd60e51b815260206004820152602260248201527f496e73756666696369656e742066756e647320696e2074686520636f6e74726160448201526118dd60f21b6064820152608401610d62565b600082815260056020908152604080832033808552925280832083905551909183156108fc02918491818181858888f19350505050158015612c43573d6000803e3d6000fd5b50604051818152829033907fa4d59773de0ef2d6faf35ac70331de09c09cb20909bf7453dd0d620524bd1fc99060200160405180910390a350612ca560017f9b779b17422d0df92223018b32b4d1fa46e071723d6817e2486d003becc55f0055565b50565b60008181526002602052604090206003015481906001600160a01b0316331480612cd75750612cd73382610cec565b612d145760405162461bcd60e51b815260206004820152600e60248201526d139bdd08185d5d1a1bdc9a5e995960921b6044820152606401610d62565b60008281526002602052604090206001600f82015460ff166007811115612d3d57612d3d613c22565b1480612d6157506002600f82015460ff166007811115612d5f57612d5f613c22565b145b80612d8457506003600f82015460ff166007811115612d8257612d82613c22565b145b612dc75760405162461bcd60e51b815260206004820152601460248201527353686f77206d7573742062652050656e64696e6760601b6044820152606401610d62565b600f01805460ff191660051790555050565b612de1613412565b6001600160a01b038116612e0b57604051631e4fbdf760e01b815260006004820152602401610d62565b612ca58161346d565b601454600160a01b900460ff1615612e6e5760405162461bcd60e51b815260206004820152601e60248201527f50726f746f636f6c2061646472657373657320616c72656164792073657400006044820152606401610d62565b600a80546001600160a01b039788166001600160a01b03199182168117909255600b805497891697821697909717909655601080548716909117905560118054948716948616949094179093556012805492861692851692909217909155601380549185169190931617909155601480546001600160a81b0319169190921617600160a01b179055565b60026020526000908152604090208054600182018054919291612f1a90614565565b80601f0160208091040260200160405190810160405280929190818152602001828054612f4690614565565b8015612f935780601f10612f6857610100808354040283529160200191612f93565b820191906000526020600020905b815481529060010190602001808311612f7657829003601f168201915b505050505090806002018054612fa890614565565b80601f0160208091040260200160405190810160405280929190818152602001828054612fd490614565565b80156130215780601f10612ff657610100808354040283529160200191613021565b820191906000526020600020905b81548152906001019060200180831161300457829003601f168201915b5050505050908060030160009054906101000a90046001600160a01b0316908060050160405180608001604052908160008201805461305f90614565565b80601f016020809104026020016040519081016040528092919081815260200182805461308b90614565565b80156130d85780601f106130ad576101008083540402835291602001916130d8565b820191906000526020600020905b8154815290600101906020018083116130bb57829003601f168201915b5050509183525050604080518082018252600184015481526002840154602082810191909152808401919091526003840154828401526004909301546001600160a01b0316606090920191909152600a8401548151808301909252600b8501548252600c85015492820192909252600d840154600e850154600f86015460118701546012909701549596949593949293919260ff8083169361010090930416918d565b60008381526009602090815260408083206001600160a01b03861684529091528120905b815481101561325357828282815481106131bb576131bb6144e6565b90600052602060002001540361324157815482906131db906001906144d3565b815481106131eb576131eb6144e6565b9060005260206000200154828281548110613208576132086144e6565b906000526020600020018190555081805480613226576132266147c4565b60019003818190600052602060002001600090559055613253565b8061324b81614526565b91505061319f565b5050505050565b306001600160a01b037f00000000000000000000000000000000000000000000000000000000000000001614806132e157507f00000000000000000000000000000000000000000000000000000000000000006001600160a01b03166132d56000805160206148d5833981519152546001600160a01b031690565b6001600160a01b031614155b15611cba5760405163703e46dd60e11b815260040160405180910390fd5b612ca5613412565b816001600160a01b03166352d1902d6040518163ffffffff1660e01b8152600401602060405180830381865afa925050508015613361575060408051601f3d908101601f1916820190925261335e918101906147da565b60015b61338957604051634c9c8ce360e01b81526001600160a01b0383166004820152602401610d62565b6000805160206148d583398151915281146133ba57604051632a87526960e21b815260048101829052602401610d62565b6133c48383613764565b505050565b306001600160a01b037f00000000000000000000000000000000000000000000000000000000000000001614611cba5760405163703e46dd60e11b815260040160405180910390fd5b336134447f9016d09d72d40fdae2fd8ceac6b6234c7706214fd39c1cd1e609a0528c199300546001600160a01b031690565b6001600160a01b031614611cba5760405163118cdaa760e01b8152336004820152602401610d62565b7f9016d09d72d40fdae2fd8ceac6b6234c7706214fd39c1cd1e609a0528c19930080546001600160a01b031981166001600160a01b03848116918217845560405192169182907f8be0079c531659141344cd1fd0a4f28419497f9722a3daafe3b4186f6b6457e090600090a3505050565b601354604051634092f2b760e01b81526001600160a01b0383811660048301526000928392911690634092f2b7906024015b600060405180830381865afa15801561352d573d6000803e3d6000fd5b505050506040513d6000823e601f3d908101601f191682016040526135559190810190614840565b6001600160a01b03908116951694909414949350505050565b601254604051632e52720160e21b81526001600160a01b038381166004830152600092839291169063b949c80490602401613510565b6135af816002614513565b8251146136325760405162461bcd60e51b8152602060048201526044602482018190527f53706c6974206172726179206d75737420686176652061206c656e6774682065908201527f7175616c20746f20746865206e756d626572206f66206172746973747320706c6064820152633ab9901960e11b608482015260a401610d62565b6000805b835181101561367857838181518110613651576136516144e6565b6020026020010151826136649190614513565b91508061367081614526565b915050613636565b50806064146133c45760405162461bcd60e51b815260206004820152602160248201527f53706c69742070657263656e7461676573206d7573742073756d20746f2031306044820152600360fc1b6064820152608401610d62565b6136db6137ba565b611cba613803565b6136eb6137ba565b612ca58161380b565b7f9b779b17422d0df92223018b32b4d1fa46e071723d6817e2486d003becc55f0080546001190161373857604051633ee5aeb560e01b815260040160405180910390fd5b60029055565b60017f9b779b17422d0df92223018b32b4d1fa46e071723d6817e2486d003becc55f0055565b61376d82613813565b6040516001600160a01b038316907fbc7cd75a20ee27fd9adebab32041f755214dbc6bffa90cc0225b39da2e5c2d3b90600090a28051156137b2576133c48282613878565b611bf86138ee565b7ff0c57e16840df040f15088dc2f81fe391c3923bec73e23a9662efc9c229c6a0054600160401b900460ff16611cba57604051631afcd79f60e31b815260040160405180910390fd5b61373e6137ba565b612de16137ba565b806001600160a01b03163b60000361384957604051634c9c8ce360e01b81526001600160a01b0382166004820152602401610d62565b6000805160206148d583398151915280546001600160a01b0319166001600160a01b0392909216919091179055565b6060600080846001600160a01b03168460405161389591906148b8565b600060405180830381855af49150503d80600081146138d0576040519150601f19603f3d011682016040523d82523d6000602084013e6138d5565b606091505b50915091506138e585838361390d565b95945050505050565b3415611cba5760405163b398979f60e01b815260040160405180910390fd5b6060826139225761391d82613969565b611de0565b815115801561393957506001600160a01b0384163b155b1561396257604051639996b31560e01b81526001600160a01b0385166004820152602401610d62565b5080611de0565b8051156139795780518082602001fd5b604051630a12f52160e11b815260040160405180910390fd5b6040518060800160405280606081526020016139c1604051806040016040528060008152602001600081525090565b815260006020820181905260409091015290565b828054828255906000526020600020908101928215613a2a579160200282015b82811115613a2a57825182546001600160a01b0319166001600160a01b039091161782556020909201916001909101906139f5565b50613a36929150613a75565b5090565b828054828255906000526020600020908101928215613a2a579160200282015b82811115613a2a578251825591602001919060010190613a5a565b5b80821115613a365760008155600101613a76565b6001600160a01b0381168114612ca557600080fd5b60008060408385031215613ab257600080fd5b8235613abd81613a8a565b946020939093013593505050565b60008060408385031215613ade57600080fd5b82359150602083013560088110613af457600080fd5b809150509250929050565b60008060408385031215613b1257600080fd5b50508035926020909101359150565b600060208284031215613b3357600080fd5b5035919050565b60005b83811015613b55578181015183820152602001613b3d565b50506000910152565b60008151808452613b76816020860160208601613b3a565b601f01601f19169290920160200192915050565b600081518084526020808501945080840160005b83811015613bc35781516001600160a01b031687529582019590820190600101613b9e565b509495945050505050565b6000815160a08452613be360a0850182613b5e565b6020848101518051878301520151604080870191909152840151606080870191909152909301516001600160a01b031660809094019390935250919050565b634e487b7160e01b600052602160045260246000fd5b60088110613c5657634e487b7160e01b600052602160045260246000fd5b9052565b6000610160808352613c6e8184018e613b5e565b90508281036020840152613c82818d613b5e565b6001600160a01b038c16604085015283810360608501529050613ca5818b613b8a565b90508281036080840152613cb9818a613bce565b885160a0850152602089015160c08501529150613cd39050565b8560e083015284610100830152613cee610120830185613c38565b8215156101408301529b9a5050505050505050505050565b60208101610d138284613c38565b634e487b7160e01b600052604160045260246000fd5b6040516080810167ffffffffffffffff81118282101715613d4d57613d4d613d14565b60405290565b604051601f8201601f1916810167ffffffffffffffff81118282101715613d7c57613d7c613d14565b604052919050565b600067ffffffffffffffff821115613d9e57613d9e613d14565b50601f01601f191660200190565b6000613dbf613dba84613d84565b613d53565b9050828152838383011115613dd357600080fd5b828260208301376000602084830101529392505050565b60008060408385031215613dfd57600080fd5b8235613e0881613a8a565b9150602083013567ffffffffffffffff811115613e2457600080fd5b8301601f81018513613e3557600080fd5b613e4485823560208401613dac565b9150509250929050565b60008060408385031215613e6157600080fd5b823591506020830135613af481613a8a565b600081518084526020808501945080840160005b83811015613bc357815187529582019590820190600101613e87565b602081526000611de06020830184613e73565b600080600060608486031215613ecb57600080fd5b833592506020840135613edd81613a8a565b929592945050506040919091013590565b600080600060608486031215613f0357600080fd5b8335613f0e81613a8a565b95602085013595506040909401359392505050565b600082601f830112613f3457600080fd5b611de083833560208501613dac565b600067ffffffffffffffff821115613f5d57613f5d613d14565b5060051b60200190565b600082601f830112613f7857600080fd5b81356020613f88613dba83613f43565b82815260059290921b84018101918181019086841115613fa757600080fd5b8286015b84811015613fcb578035613fbe81613a8a565b8352918301918301613fab565b509695505050505050565b600060408284031215613fe857600080fd5b6040516040810181811067ffffffffffffffff8211171561400b5761400b613d14565b604052823581526020928301359281019290925250919050565b803560ff8116811461403657600080fd5b919050565b600082601f83011261404c57600080fd5b8135602061405c613dba83613f43565b82815260059290921b8401810191818101908684111561407b57600080fd5b8286015b84811015613fcb578035835291830191830161407f565b60008060008060008060008060006101608a8c0312156140b557600080fd5b893567ffffffffffffffff808211156140cd57600080fd5b6140d98d838e01613f23565b9a5060208c01359150808211156140ef57600080fd5b6140fb8d838e01613f23565b995060408c013591508082111561411157600080fd5b61411d8d838e01613f67565b985061412c8d60608e01613fd6565b975060a08c0135965061414160c08d01614025565b955060e08c013594506141588d6101008e01613fd6565b93506101408c013591508082111561416f57600080fd5b5061417c8c828d0161403b565b9150509295985092959850929598565b602081526000611de06020830184613b5e565b6000806000606084860312156141b457600080fd5b505081359360208301359350604090920135919050565b6000602082840312156141dd57600080fd5b8135611de081613a8a565b600080604083850312156141fb57600080fd5b82359150602083013567ffffffffffffffff8082111561421a57600080fd5b9084019060a0828703121561422e57600080fd5b614236613d2a565b82358281111561424557600080fd5b61425188828601613f23565b8252506142618760208501613fd6565b6020820152606083013560408201526080830135925061428083613a8a565b8260608201528093505050509250929050565b815181526020808301519082015260408101610d13565b60008060008060008060c087890312156142c357600080fd5b86356142ce81613a8a565b955060208701356142de81613a8a565b945060408701356142ee81613a8a565b935060608701356142fe81613a8a565b9250608087013561430e81613a8a565b915060a087013561431e81613a8a565b809150509295509295509295565b8d81526101c0602082015260006143476101c083018f613b5e565b8281036040840152614359818f613b5e565b6001600160a01b038e1660608501528381036080850152905061437c818d613bce565b9150508960a083015261439c60c083018a80518252602090810151910152565b87610100830152866101208301526143b8610140830187613c38565b8415156101608301526101808201939093526101a001529b9a5050505050505050505050565b60208082526048908201527f4f6e6c79207468652056656e75652c205469636b657420636f6e74726163742c60408201527f206f72207468697320636f6e74726163742063616e2063616c6c207468697320606082015267333ab731ba34b7b760c11b608082015260a00190565b6020808252602f908201527f4f6e6c7920746865205469636b657420636f6e74726163742063616e2063616c60408201526e36103a3434b990333ab731ba34b7b760891b606082015260800190565b634e487b7160e01b600052601160045260246000fd5b6000826144ce57634e487b7160e01b600052601260045260246000fd5b500490565b81810381811115610d1357610d1361449b565b634e487b7160e01b600052603260045260246000fd5b8082028115828204841417610d1357610d1361449b565b80820180821115610d1357610d1361449b565b6000600182016145385761453861449b565b5060010190565b6001600160a01b0394909416845260208401929092526040830152606082015260800190565b600181811c9082168061457957607f821691505b60208210810361459957634e487b7160e01b600052602260045260246000fd5b50919050565b6000816145ae576145ae61449b565b506000190190565b6bffffffffffffffffffffffff198860601b16815260006014820188516020808b0160005b838110156146005781516001600160a01b0316855293820193908201906001016145db565b5050988252509687019590955250604085019290925260f81b6001600160f81b031916606084015260618301525060810192915050565b601f8211156133c457600081815260208120601f850160051c8101602086101561465e5750805b601f850160051c820191505b818110156127ed5782815560010161466a565b815167ffffffffffffffff81111561469757614697613d14565b6146ab816146a58454614565565b84614637565b602080601f8311600181146146e057600084156146c85750858301515b600019600386901b1c1916600185901b1785556127ed565b600085815260208120601f198616915b8281101561470f578886015182559484019460019091019084016146f0565b508582101561472d5787850151600019600388901b60f8161c191681555b5050505050600190811b01905550565b60e08152600061475060e0830189613b5e565b82810360208401526147628189613b8a565b905082810360408401526147768188613b5e565b8651606085015260208701516080850152905060ff851660a084015282810360c08401526147a48185613e73565b9998505050505050505050565b602081526000611de06020830184613bce565b634e487b7160e01b600052603160045260246000fd5b6000602082840312156147ec57600080fd5b5051919050565b600082601f83011261480457600080fd5b8151614812613dba82613d84565b81815284602083860101111561482757600080fd5b614838826020830160208701613b3a565b949350505050565b60008060006060848603121561485557600080fd5b835167ffffffffffffffff8082111561486d57600080fd5b614879878388016147f3565b9450602086015191508082111561488f57600080fd5b5061489c868287016147f3565b92505060408401516148ad81613a8a565b809150509250925092565b600082516148ca818460208701613b3a565b919091019291505056fe360894a13ba1a3210667c828492db98dca3e2076cc3735a920a3ca505d382bbca2646970667358221220e8cdf134286f73b9c27b9b1ea4e3a5fce3ac4d2b4c565504731070b484053e8864736f6c63430008140033","linkReferences":{}},"methodIdentifiers":{"SELLOUT_PROTOCOL_WALLET()":"e30228be","UPGRADE_INTERFACE_VERSION()":"ad3cb1cc","activeShowCount()":"16488906","addTokenIdToWallet(bytes32,address,uint256)":"de44006f","artistRegistryContract()":"41adf3ad","artistRegistryInstance()":"8dea15a1","cancelShow(bytes32)":"ef5023a5","checkAndUpdateExpiry(bytes32)":"4365c06e","completeShow(bytes32)":"129e086b","depositToVault(bytes32)":"85266635","getNumberOfVoters(bytes32)":"85ffa16c","getOrganizer(bytes32)":"977cb89e","getPendingRefund(bytes32,address)":"6e9cacd0","getSellOutThreshold(bytes32)":"1a348e62","getShowById(bytes32)":"27b1bf52","getShowStatus(bytes32)":"46c2c8a7","getTicketPrice(bytes32)":"c73a839c","getTicketPricePaid(bytes32,uint256)":"93d4e100","getTotalCapacity(bytes32)":"620ec1e4","getTotalTicketsSold(bytes32)":"61041870","getWalletTokenIds(bytes32,address)":"5b9a1e09","hasTicket(address,bytes32)":"5c37da69","initialize(address)":"c4d66de8","isArtist(address,bytes32)":"02c9a8b5","isArtistMapping(bytes32,address)":"bafd4eb0","isOrganizer(address,bytes32)":"4ed372da","isTicketOwner(address,bytes32,uint256)":"a03f4efe","organizerRegistryContract()":"66bc64cd","organizerRegistryInstance()":"1cf2103e","owner()":"8da5cb5b","payout(bytes32)":"cfefb3d5","pendingWithdrawals(bytes32,address)":"be44d38d","proposeShow(string,string,address[],(int256,int256),uint256,uint8,uint256,(uint256,uint256),uint256[])":"a2c8624c","proxiableUUID()":"52d1902d","referralContract()":"7dad19db","referralInstance()":"c6ab848a","refundTicket(bytes32,uint256)":"3c60d2d6","renounceOwnership()":"715018a6","setProtocolAddresses(address,address,address,address,address,address)":"f8121873","setTicketPricePaid(bytes32,uint256,uint256)":"bd47dc5c","setTotalTicketsSold(bytes32,uint256)":"787d76b8","showVault(bytes32)":"867e68af","shows(bytes32)":"fca46559","ticketContract()":"58a86e1d","ticketInstance()":"0233ce6a","ticketOwnership(address,bytes32)":"46079335","ticketPricePaid(bytes32,uint256)":"2f18ddfe","totalTicketsSold(bytes32)":"925e8f89","transferOwnership(address)":"f2fde38b","updateExpiry(bytes32,uint256)":"0d08c3c9","updateStatus(bytes32,uint8)":"054372ed","updateVenue(bytes32,(string,(int256,int256),uint256,address))":"c56f70fd","upgradeToAndCall(address,bytes)":"4f1ef286","venueContract()":"51819335","venueRegistryContract()":"31a68da0","venueRegistryInstance()":"703ee4e5","walletToShowToTokenIds(bytes32,address,uint256)":"7d8d6a22","withdrawRefund(bytes32)":"e9acfa7c"},"id":55}