{"abi":[{"type":"function","name":"SELLOUT_PROTOCOL_WALLET","inputs":[],"outputs":[{"name":"","type":"address","internalType":"address"}],"stateMutability":"view"},{"type":"function","name":"activeShowCount","inputs":[],"outputs":[{"name":"","type":"uint256","internalType":"uint256"}],"stateMutability":"view"},{"type":"function","name":"artistRegistryContract","inputs":[],"outputs":[{"name":"","type":"address","internalType":"address"}],"stateMutability":"view"},{"type":"function","name":"artistRegistryInstance","inputs":[],"outputs":[{"name":"","type":"address","internalType":"contract IArtistRegistry"}],"stateMutability":"view"},{"type":"function","name":"isArtistMapping","inputs":[{"name":"","type":"bytes32","internalType":"bytes32"},{"name":"","type":"address","internalType":"address"}],"outputs":[{"name":"","type":"bool","internalType":"bool"}],"stateMutability":"view"},{"type":"function","name":"organizerRegistryContract","inputs":[],"outputs":[{"name":"","type":"address","internalType":"address"}],"stateMutability":"view"},{"type":"function","name":"organizerRegistryInstance","inputs":[],"outputs":[{"name":"","type":"address","internalType":"contract IOrganizerRegistry"}],"stateMutability":"view"},{"type":"function","name":"pendingPayouts","inputs":[{"name":"","type":"bytes32","internalType":"bytes32"},{"name":"","type":"address","internalType":"address"}],"outputs":[{"name":"","type":"uint256","internalType":"uint256"}],"stateMutability":"view"},{"type":"function","name":"pendingRefunds","inputs":[{"name":"","type":"bytes32","internalType":"bytes32"},{"name":"","type":"address","internalType":"address"}],"outputs":[{"name":"","type":"uint256","internalType":"uint256"}],"stateMutability":"view"},{"type":"function","name":"referralContract","inputs":[],"outputs":[{"name":"","type":"address","internalType":"address"}],"stateMutability":"view"},{"type":"function","name":"referralInstance","inputs":[],"outputs":[{"name":"","type":"address","internalType":"contract ReferralModule"}],"stateMutability":"view"},{"type":"function","name":"showTicketTiers","inputs":[{"name":"","type":"bytes32","internalType":"bytes32"},{"name":"","type":"uint256","internalType":"uint256"}],"outputs":[{"name":"name","type":"string","internalType":"string"},{"name":"price","type":"uint256","internalType":"uint256"},{"name":"ticketsAvailable","type":"uint256","internalType":"uint256"}],"stateMutability":"view"},{"type":"function","name":"showVault","inputs":[{"name":"","type":"bytes32","internalType":"bytes32"}],"outputs":[{"name":"","type":"uint256","internalType":"uint256"}],"stateMutability":"view"},{"type":"function","name":"shows","inputs":[{"name":"","type":"bytes32","internalType":"bytes32"}],"outputs":[{"name":"showId","type":"bytes32","internalType":"bytes32"},{"name":"name","type":"string","internalType":"string"},{"name":"description","type":"string","internalType":"string"},{"name":"organizer","type":"address","internalType":"address"},{"name":"venue","type":"tuple","internalType":"struct VenueTypes.Venue","components":[{"name":"name","type":"string","internalType":"string"},{"name":"coordinates","type":"tuple","internalType":"struct VenueTypes.Coordinates","components":[{"name":"lat","type":"int256","internalType":"int256"},{"name":"lon","type":"int256","internalType":"int256"}]},{"name":"totalCapacity","type":"uint256","internalType":"uint256"},{"name":"wallet","type":"address","internalType":"address"},{"name":"venueId","type":"bytes32","internalType":"bytes32"}]},{"name":"radius","type":"uint256","internalType":"uint256"},{"name":"sellOutThreshold","type":"uint256","internalType":"uint256"},{"name":"totalCapacity","type":"uint256","internalType":"uint256"},{"name":"status","type":"uint8","internalType":"enum ShowTypes.Status"},{"name":"isActive","type":"bool","internalType":"bool"},{"name":"expiry","type":"uint256","internalType":"uint256"},{"name":"showDate","type":"uint256","internalType":"uint256"}],"stateMutability":"view"},{"type":"function","name":"ticketContract","inputs":[],"outputs":[{"name":"","type":"address","internalType":"address"}],"stateMutability":"view"},{"type":"function","name":"ticketInstance","inputs":[],"outputs":[{"name":"","type":"address","internalType":"contract Ticket"}],"stateMutability":"view"},{"type":"function","name":"ticketPricePaid","inputs":[{"name":"","type":"bytes32","internalType":"bytes32"},{"name":"","type":"uint256","internalType":"uint256"}],"outputs":[{"name":"","type":"uint256","internalType":"uint256"}],"stateMutability":"view"},{"type":"function","name":"totalTicketsSold","inputs":[{"name":"","type":"bytes32","internalType":"bytes32"}],"outputs":[{"name":"","type":"uint256","internalType":"uint256"}],"stateMutability":"view"},{"type":"function","name":"venueContract","inputs":[],"outputs":[{"name":"","type":"address","internalType":"address"}],"stateMutability":"view"},{"type":"function","name":"venueRegistryContract","inputs":[],"outputs":[{"name":"","type":"address","internalType":"address"}],"stateMutability":"view"},{"type":"function","name":"venueRegistryInstance","inputs":[],"outputs":[{"name":"","type":"address","internalType":"contract IVenueRegistry"}],"stateMutability":"view"},{"type":"function","name":"walletToShowToTokenIds","inputs":[{"name":"","type":"bytes32","internalType":"bytes32"},{"name":"","type":"address","internalType":"address"},{"name":"","type":"uint256","internalType":"uint256"}],"outputs":[{"name":"","type":"uint256","internalType":"uint256"}],"stateMutability":"view"}],"bytecode":{"object":"0x6080604052600a805460ff60a01b1916905534801561001d57600080fd5b506109c88061002d6000396000f3fe608060405234801561001057600080fd5b50600436106101425760003560e01c80637d8d6a22116100b8578063925e8f891161007c578063925e8f89146102ed578063bafd4eb01461030d578063be42bd8c1461034b578063c6ab848a1461036d578063e30228be14610380578063fca465591461039357600080fd5b80637d8d6a22146102695780637dad19db1461027c578063867e68af1461028f5780638dea15a1146102af5780638e70362b146102c257600080fd5b806341adf3ad1161010a57806341adf3ad146101df57806351819335146101f25780635696c07c1461020557806358a86e1d1461023057806366bc64cd14610243578063703ee4e51461025657600080fd5b80630233ce6a1461014757806316488906146101775780631cf2103e1461018e5780632f18ddfe146101a157806331a68da0146101cc575b600080fd5b60065461015a906001600160a01b031681565b6040516001600160a01b0390911681526020015b60405180910390f35b610180600d5481565b60405190815260200161016e565b60095461015a906001600160a01b031681565b6101806101af366004610735565b601560209081526000928352604080842090915290825290205481565b60055461015a906001600160a01b031681565b60035461015a906001600160a01b031681565b60015461015a906001600160a01b031681565b610180610213366004610773565b601260209081526000928352604080842090915290825290205481565b60005461015a906001600160a01b031681565b60045461015a906001600160a01b031681565b600a5461015a906001600160a01b031681565b61018061027736600461079f565b6103be565b60025461015a906001600160a01b031681565b61018061029d3660046107d4565b60116020526000908152604090205481565b60085461015a906001600160a01b031681565b6101806102d0366004610773565b601360209081526000928352604080842090915290825290205481565b6101806102fb3660046107d4565b60146020526000908152604090205481565b61033b61031b366004610773565b601060209081526000928352604080842090915290825290205460ff1681565b604051901515815260200161016e565b61035e610359366004610735565b6103fc565b60405161016e93929190610833565b60075461015a906001600160a01b031681565b600b5461015a906001600160a01b031681565b6103a66103a13660046107d4565b6104cb565b60405161016e9c9b9a9998979695949392919061087a565b601760205282600052604060002060205281600052604060002081815481106103e657600080fd5b9060005260206000200160009250925050505481565b600f602052816000526040600020818154811061041857600080fd5b90600052602060002090600302016000915091505080600001805461043c90610958565b80601f016020809104026020016040519081016040528092919081815260200182805461046890610958565b80156104b55780601f1061048a576101008083540402835291602001916104b5565b820191906000526020600020905b81548152906001019060200180831161049857829003601f168201915b5050505050908060010154908060020154905083565b600e60205260009081526040902080546001820180549192916104ed90610958565b80601f016020809104026020016040519081016040528092919081815260200182805461051990610958565b80156105665780601f1061053b57610100808354040283529160200191610566565b820191906000526020600020905b81548152906001019060200180831161054957829003601f168201915b50505050509080600201805461057b90610958565b80601f01602080910402602001604051908101604052809291908181526020018280546105a790610958565b80156105f45780601f106105c9576101008083540402835291602001916105f4565b820191906000526020600020905b8154815290600101906020018083116105d757829003601f168201915b5050505050908060030160009054906101000a90046001600160a01b031690806005016040518060a001604052908160008201805461063290610958565b80601f016020809104026020016040519081016040528092919081815260200182805461065e90610958565b80156106ab5780601f10610680576101008083540402835291602001916106ab565b820191906000526020600020905b81548152906001019060200180831161068e57829003601f168201915b505050918352505060408051808201825260018401548152600284015460208281019190915283015260038301549082015260048201546001600160a01b03166060820152600590910154608090910152600b820154600d830154600e840154600f8501546011860154601290960154949593949293919260ff808316936101009093041691908c565b6000806040838503121561074857600080fd5b50508035926020909101359150565b80356001600160a01b038116811461076e57600080fd5b919050565b6000806040838503121561078657600080fd5b8235915061079660208401610757565b90509250929050565b6000806000606084860312156107b457600080fd5b833592506107c460208501610757565b9150604084013590509250925092565b6000602082840312156107e657600080fd5b5035919050565b6000815180845260005b81811015610813576020818501810151868301820152016107f7565b506000602082860101526020601f19601f83011685010191505092915050565b60608152600061084660608301866107ed565b60208301949094525060400152919050565b6008811061087657634e487b7160e01b600052602160045260246000fd5b9052565b60006101808e83528060208401526108948184018f6107ed565b905082810360408401526108a8818e6107ed565b905060018060a01b03808d16606085015283820360808501528b5160c083526108d460c08401826107ed565b905060208d015180516020850152602081015160408501525060408d015160608401528160608e015116608084015260808d015160a08401528093505050508860a08301528760c08301528660e0830152610933610100830187610858565b84151561012083015261014082019390935261016001529a9950505050505050505050565b600181811c9082168061096c57607f821691505b60208210810361098c57634e487b7160e01b600052602260045260246000fd5b5091905056fea26469706673582212201d9101176158fae14d3a6a19a183a1324e8e873c11c5765aa5468d756c8a561e64736f6c63430008140033","linkReferences":{}},"methodIdentifiers":{"SELLOUT_PROTOCOL_WALLET()":"e30228be","activeShowCount()":"16488906","artistRegistryContract()":"41adf3ad","artistRegistryInstance()":"8dea15a1","isArtistMapping(bytes32,address)":"bafd4eb0","organizerRegistryContract()":"66bc64cd","organizerRegistryInstance()":"1cf2103e","pendingPayouts(bytes32,address)":"8e70362b","pendingRefunds(bytes32,address)":"5696c07c","referralContract()":"7dad19db","referralInstance()":"c6ab848a","showTicketTiers(bytes32,uint256)":"be42bd8c","showVault(bytes32)":"867e68af","shows(bytes32)":"fca46559","ticketContract()":"58a86e1d","ticketInstance()":"0233ce6a","ticketPricePaid(bytes32,uint256)":"2f18ddfe","totalTicketsSold(bytes32)":"925e8f89","venueContract()":"51819335","venueRegistryContract()":"31a68da0","venueRegistryInstance()":"703ee4e5","walletToShowToTokenIds(bytes32,address,uint256)":"7d8d6a22"},"id":58}