{"abi":[{"type":"function","name":"SELLOUT_PROTOCOL_WALLET","inputs":[],"outputs":[{"name":"","type":"address","internalType":"address"}],"stateMutability":"view"},{"type":"function","name":"UPGRADE_INTERFACE_VERSION","inputs":[],"outputs":[{"name":"","type":"string","internalType":"string"}],"stateMutability":"view"},{"type":"function","name":"activeShowCount","inputs":[],"outputs":[{"name":"","type":"uint256","internalType":"uint256"}],"stateMutability":"view"},{"type":"function","name":"addTokenIdToWallet","inputs":[{"name":"showId","type":"bytes32","internalType":"bytes32"},{"name":"wallet","type":"address","internalType":"address"},{"name":"tokenId","type":"uint256","internalType":"uint256"}],"outputs":[],"stateMutability":"nonpayable"},{"type":"function","name":"artistRegistryContract","inputs":[],"outputs":[{"name":"","type":"address","internalType":"address"}],"stateMutability":"view"},{"type":"function","name":"artistRegistryInstance","inputs":[],"outputs":[{"name":"","type":"address","internalType":"contract IArtistRegistry"}],"stateMutability":"view"},{"type":"function","name":"cancelShow","inputs":[{"name":"showId","type":"bytes32","internalType":"bytes32"}],"outputs":[],"stateMutability":"nonpayable"},{"type":"function","name":"checkAndUpdateExpiry","inputs":[{"name":"showId","type":"bytes32","internalType":"bytes32"}],"outputs":[],"stateMutability":"nonpayable"},{"type":"function","name":"completeShow","inputs":[{"name":"showId","type":"bytes32","internalType":"bytes32"}],"outputs":[],"stateMutability":"nonpayable"},{"type":"function","name":"depositToVault","inputs":[{"name":"showId","type":"bytes32","internalType":"bytes32"}],"outputs":[],"stateMutability":"payable"},{"type":"function","name":"getNumberOfVoters","inputs":[{"name":"showId","type":"bytes32","internalType":"bytes32"}],"outputs":[{"name":"","type":"uint256","internalType":"uint256"}],"stateMutability":"view"},{"type":"function","name":"getOrganizer","inputs":[{"name":"showId","type":"bytes32","internalType":"bytes32"}],"outputs":[{"name":"","type":"address","internalType":"address"}],"stateMutability":"view"},{"type":"function","name":"getSellOutThreshold","inputs":[{"name":"showId","type":"bytes32","internalType":"bytes32"}],"outputs":[{"name":"","type":"uint256","internalType":"uint256"}],"stateMutability":"view"},{"type":"function","name":"getShowById","inputs":[{"name":"showId","type":"bytes32","internalType":"bytes32"}],"outputs":[{"name":"name","type":"string","internalType":"string"},{"name":"description","type":"string","internalType":"string"},{"name":"organizer","type":"address","internalType":"address"},{"name":"artists","type":"address[]","internalType":"address[]"},{"name":"venue","type":"tuple","internalType":"struct VenueTypes.Venue","components":[{"name":"name","type":"string","internalType":"string"},{"name":"coordinates","type":"tuple","internalType":"struct VenueTypes.Coordinates","components":[{"name":"lat","type":"int256","internalType":"int256"},{"name":"lon","type":"int256","internalType":"int256"}]},{"name":"totalCapacity","type":"uint256","internalType":"uint256"},{"name":"wallet","type":"address","internalType":"address"}]},{"name":"ticketPrice","type":"tuple","internalType":"struct ShowTypes.TicketPrice","components":[{"name":"minPrice","type":"uint256","internalType":"uint256"},{"name":"maxPrice","type":"uint256","internalType":"uint256"}]},{"name":"sellOutThreshold","type":"uint256","internalType":"uint256"},{"name":"totalCapacity","type":"uint256","internalType":"uint256"},{"name":"status","type":"uint8","internalType":"enum ShowTypes.Status"},{"name":"isActive","type":"bool","internalType":"bool"}],"stateMutability":"view"},{"type":"function","name":"getShowStatus","inputs":[{"name":"showId","type":"bytes32","internalType":"bytes32"}],"outputs":[{"name":"","type":"uint8","internalType":"enum ShowTypes.Status"}],"stateMutability":"view"},{"type":"function","name":"getTicketPrice","inputs":[{"name":"showId","type":"bytes32","internalType":"bytes32"}],"outputs":[{"name":"","type":"tuple","internalType":"struct ShowTypes.TicketPrice","components":[{"name":"minPrice","type":"uint256","internalType":"uint256"},{"name":"maxPrice","type":"uint256","internalType":"uint256"}]}],"stateMutability":"view"},{"type":"function","name":"getTicketPricePaid","inputs":[{"name":"showId","type":"bytes32","internalType":"bytes32"},{"name":"ticketId","type":"uint256","internalType":"uint256"}],"outputs":[{"name":"","type":"uint256","internalType":"uint256"}],"stateMutability":"view"},{"type":"function","name":"getTotalCapacity","inputs":[{"name":"showId","type":"bytes32","internalType":"bytes32"}],"outputs":[{"name":"","type":"uint256","internalType":"uint256"}],"stateMutability":"view"},{"type":"function","name":"getTotalTicketsSold","inputs":[{"name":"showId","type":"bytes32","internalType":"bytes32"}],"outputs":[{"name":"","type":"uint256","internalType":"uint256"}],"stateMutability":"view"},{"type":"function","name":"getWalletTokenIds","inputs":[{"name":"showId","type":"bytes32","internalType":"bytes32"},{"name":"wallet","type":"address","internalType":"address"}],"outputs":[{"name":"","type":"uint256[]","internalType":"uint256[]"}],"stateMutability":"view"},{"type":"function","name":"initialize","inputs":[{"name":"_selloutProtocolWallet","type":"address","internalType":"address"}],"outputs":[],"stateMutability":"nonpayable"},{"type":"function","name":"isArtist","inputs":[{"name":"user","type":"address","internalType":"address"},{"name":"showId","type":"bytes32","internalType":"bytes32"}],"outputs":[{"name":"","type":"bool","internalType":"bool"}],"stateMutability":"view"},{"type":"function","name":"isArtistMapping","inputs":[{"name":"","type":"bytes32","internalType":"bytes32"},{"name":"","type":"address","internalType":"address"}],"outputs":[{"name":"","type":"bool","internalType":"bool"}],"stateMutability":"view"},{"type":"function","name":"isOrganizer","inputs":[{"name":"user","type":"address","internalType":"address"},{"name":"showId","type":"bytes32","internalType":"bytes32"}],"outputs":[{"name":"","type":"bool","internalType":"bool"}],"stateMutability":"view"},{"type":"function","name":"isTicketOwner","inputs":[{"name":"owner","type":"address","internalType":"address"},{"name":"showId","type":"bytes32","internalType":"bytes32"}],"outputs":[{"name":"","type":"bool","internalType":"bool"}],"stateMutability":"view"},{"type":"function","name":"organizerRegistryContract","inputs":[],"outputs":[{"name":"","type":"address","internalType":"address"}],"stateMutability":"view"},{"type":"function","name":"organizerRegistryInstance","inputs":[],"outputs":[{"name":"","type":"address","internalType":"contract IOrganizerRegistry"}],"stateMutability":"view"},{"type":"function","name":"owner","inputs":[],"outputs":[{"name":"","type":"address","internalType":"address"}],"stateMutability":"view"},{"type":"function","name":"payout","inputs":[{"name":"showId","type":"bytes32","internalType":"bytes32"}],"outputs":[],"stateMutability":"nonpayable"},{"type":"function","name":"pendingWithdrawals","inputs":[{"name":"","type":"bytes32","internalType":"bytes32"},{"name":"","type":"address","internalType":"address"}],"outputs":[{"name":"","type":"uint256","internalType":"uint256"}],"stateMutability":"view"},{"type":"function","name":"proposeShow","inputs":[{"name":"name","type":"string","internalType":"string"},{"name":"description","type":"string","internalType":"string"},{"name":"artists","type":"address[]","internalType":"address[]"},{"name":"coordinates","type":"tuple","internalType":"struct VenueTypes.Coordinates","components":[{"name":"lat","type":"int256","internalType":"int256"},{"name":"lon","type":"int256","internalType":"int256"}]},{"name":"radius","type":"uint256","internalType":"uint256"},{"name":"sellOutThreshold","type":"uint8","internalType":"uint8"},{"name":"totalCapacity","type":"uint256","internalType":"uint256"},{"name":"ticketPrice","type":"tuple","internalType":"struct ShowTypes.TicketPrice","components":[{"name":"minPrice","type":"uint256","internalType":"uint256"},{"name":"maxPrice","type":"uint256","internalType":"uint256"}]},{"name":"split","type":"uint256[]","internalType":"uint256[]"}],"outputs":[{"name":"showId","type":"bytes32","internalType":"bytes32"}],"stateMutability":"nonpayable"},{"type":"function","name":"proxiableUUID","inputs":[],"outputs":[{"name":"","type":"bytes32","internalType":"bytes32"}],"stateMutability":"view"},{"type":"function","name":"referralContract","inputs":[],"outputs":[{"name":"","type":"address","internalType":"address"}],"stateMutability":"view"},{"type":"function","name":"referralInstance","inputs":[],"outputs":[{"name":"","type":"address","internalType":"contract ReferralModule"}],"stateMutability":"view"},{"type":"function","name":"refundTicket","inputs":[{"name":"showId","type":"bytes32","internalType":"bytes32"},{"name":"ticketId","type":"uint256","internalType":"uint256"}],"outputs":[],"stateMutability":"nonpayable"},{"type":"function","name":"renounceOwnership","inputs":[],"outputs":[],"stateMutability":"nonpayable"},{"type":"function","name":"setProtocolAddresses","inputs":[{"name":"_ticketContract","type":"address","internalType":"address"},{"name":"_venueContract","type":"address","internalType":"address"},{"name":"_referralContract","type":"address","internalType":"address"},{"name":"_artistRegistryContract","type":"address","internalType":"address"},{"name":"_organizerRegistryContract","type":"address","internalType":"address"},{"name":"_venueRegistryContract","type":"address","internalType":"address"}],"outputs":[],"stateMutability":"nonpayable"},{"type":"function","name":"setTicketOwnership","inputs":[{"name":"user","type":"address","internalType":"address"},{"name":"showId","type":"bytes32","internalType":"bytes32"},{"name":"owns","type":"bool","internalType":"bool"}],"outputs":[],"stateMutability":"nonpayable"},{"type":"function","name":"setTicketPricePaid","inputs":[{"name":"showId","type":"bytes32","internalType":"bytes32"},{"name":"ticketId","type":"uint256","internalType":"uint256"},{"name":"price","type":"uint256","internalType":"uint256"}],"outputs":[],"stateMutability":"nonpayable"},{"type":"function","name":"setTotalTicketsSold","inputs":[{"name":"showId","type":"bytes32","internalType":"bytes32"},{"name":"amount","type":"uint256","internalType":"uint256"}],"outputs":[],"stateMutability":"nonpayable"},{"type":"function","name":"showVault","inputs":[{"name":"","type":"bytes32","internalType":"bytes32"}],"outputs":[{"name":"","type":"uint256","internalType":"uint256"}],"stateMutability":"view"},{"type":"function","name":"shows","inputs":[{"name":"","type":"bytes32","internalType":"bytes32"}],"outputs":[{"name":"showId","type":"bytes32","internalType":"bytes32"},{"name":"name","type":"string","internalType":"string"},{"name":"description","type":"string","internalType":"string"},{"name":"organizer","type":"address","internalType":"address"},{"name":"venue","type":"tuple","internalType":"struct VenueTypes.Venue","components":[{"name":"name","type":"string","internalType":"string"},{"name":"coordinates","type":"tuple","internalType":"struct VenueTypes.Coordinates","components":[{"name":"lat","type":"int256","internalType":"int256"},{"name":"lon","type":"int256","internalType":"int256"}]},{"name":"totalCapacity","type":"uint256","internalType":"uint256"},{"name":"wallet","type":"address","internalType":"address"}]},{"name":"radius","type":"uint256","internalType":"uint256"},{"name":"ticketPrice","type":"tuple","internalType":"struct ShowTypes.TicketPrice","components":[{"name":"minPrice","type":"uint256","internalType":"uint256"},{"name":"maxPrice","type":"uint256","internalType":"uint256"}]},{"name":"sellOutThreshold","type":"uint256","internalType":"uint256"},{"name":"totalCapacity","type":"uint256","internalType":"uint256"},{"name":"status","type":"uint8","internalType":"enum ShowTypes.Status"},{"name":"isActive","type":"bool","internalType":"bool"},{"name":"expiry","type":"uint256","internalType":"uint256"},{"name":"showDate","type":"uint256","internalType":"uint256"}],"stateMutability":"view"},{"type":"function","name":"ticketContract","inputs":[],"outputs":[{"name":"","type":"address","internalType":"address"}],"stateMutability":"view"},{"type":"function","name":"ticketInstance","inputs":[],"outputs":[{"name":"","type":"address","internalType":"contract Ticket"}],"stateMutability":"view"},{"type":"function","name":"ticketOwnership","inputs":[{"name":"","type":"address","internalType":"address"},{"name":"","type":"bytes32","internalType":"bytes32"}],"outputs":[{"name":"","type":"bool","internalType":"bool"}],"stateMutability":"view"},{"type":"function","name":"ticketPricePaid","inputs":[{"name":"","type":"bytes32","internalType":"bytes32"},{"name":"","type":"uint256","internalType":"uint256"}],"outputs":[{"name":"","type":"uint256","internalType":"uint256"}],"stateMutability":"view"},{"type":"function","name":"totalTicketsSold","inputs":[{"name":"","type":"bytes32","internalType":"bytes32"}],"outputs":[{"name":"","type":"uint256","internalType":"uint256"}],"stateMutability":"view"},{"type":"function","name":"transferOwnership","inputs":[{"name":"newOwner","type":"address","internalType":"address"}],"outputs":[],"stateMutability":"nonpayable"},{"type":"function","name":"updateExpiry","inputs":[{"name":"showId","type":"bytes32","internalType":"bytes32"},{"name":"expiry","type":"uint256","internalType":"uint256"}],"outputs":[],"stateMutability":"nonpayable"},{"type":"function","name":"updateStatus","inputs":[{"name":"showId","type":"bytes32","internalType":"bytes32"},{"name":"_status","type":"uint8","internalType":"enum ShowTypes.Status"}],"outputs":[],"stateMutability":"nonpayable"},{"type":"function","name":"updateVenue","inputs":[{"name":"showId","type":"bytes32","internalType":"bytes32"},{"name":"newVenue","type":"tuple","internalType":"struct VenueTypes.Venue","components":[{"name":"name","type":"string","internalType":"string"},{"name":"coordinates","type":"tuple","internalType":"struct VenueTypes.Coordinates","components":[{"name":"lat","type":"int256","internalType":"int256"},{"name":"lon","type":"int256","internalType":"int256"}]},{"name":"totalCapacity","type":"uint256","internalType":"uint256"},{"name":"wallet","type":"address","internalType":"address"}]}],"outputs":[],"stateMutability":"nonpayable"},{"type":"function","name":"upgradeToAndCall","inputs":[{"name":"newImplementation","type":"address","internalType":"address"},{"name":"data","type":"bytes","internalType":"bytes"}],"outputs":[],"stateMutability":"payable"},{"type":"function","name":"venueContract","inputs":[],"outputs":[{"name":"","type":"address","internalType":"address"}],"stateMutability":"view"},{"type":"function","name":"venueRegistryContract","inputs":[],"outputs":[{"name":"","type":"address","internalType":"address"}],"stateMutability":"view"},{"type":"function","name":"venueRegistryInstance","inputs":[],"outputs":[{"name":"","type":"address","internalType":"contract IVenueRegistry"}],"stateMutability":"view"},{"type":"function","name":"walletToShowToTokenIds","inputs":[{"name":"","type":"bytes32","internalType":"bytes32"},{"name":"","type":"address","internalType":"address"},{"name":"","type":"uint256","internalType":"uint256"}],"outputs":[{"name":"","type":"uint256","internalType":"uint256"}],"stateMutability":"view"},{"type":"function","name":"withdrawRefund","inputs":[{"name":"showId","type":"bytes32","internalType":"bytes32"}],"outputs":[],"stateMutability":"nonpayable"},{"type":"event","name":"ExpiryUpdated","inputs":[{"name":"showId","type":"bytes32","indexed":true,"internalType":"bytes32"},{"name":"expiry","type":"uint256","indexed":false,"internalType":"uint256"}],"anonymous":false},{"type":"event","name":"Initialized","inputs":[{"name":"version","type":"uint64","indexed":false,"internalType":"uint64"}],"anonymous":false},{"type":"event","name":"OwnershipTransferred","inputs":[{"name":"previousOwner","type":"address","indexed":true,"internalType":"address"},{"name":"newOwner","type":"address","indexed":true,"internalType":"address"}],"anonymous":false},{"type":"event","name":"RefundWithdrawn","inputs":[{"name":"user","type":"address","indexed":true,"internalType":"address"},{"name":"showId","type":"bytes32","indexed":true,"internalType":"bytes32"},{"name":"amount","type":"uint256","indexed":false,"internalType":"uint256"}],"anonymous":false},{"type":"event","name":"ShowExpired","inputs":[{"name":"showId","type":"bytes32","indexed":true,"internalType":"bytes32"}],"anonymous":false},{"type":"event","name":"ShowProposed","inputs":[{"name":"showId","type":"bytes32","indexed":true,"internalType":"bytes32"},{"name":"organizer","type":"address","indexed":true,"internalType":"address"},{"name":"name","type":"string","indexed":false,"internalType":"string"},{"name":"artists","type":"address[]","indexed":false,"internalType":"address[]"},{"name":"description","type":"string","indexed":false,"internalType":"string"},{"name":"ticketPrice","type":"tuple","indexed":false,"internalType":"struct ShowTypes.TicketPrice","components":[{"name":"minPrice","type":"uint256","internalType":"uint256"},{"name":"maxPrice","type":"uint256","internalType":"uint256"}]},{"name":"sellOutThreshold","type":"uint256","indexed":false,"internalType":"uint256"},{"name":"split","type":"uint256[]","indexed":false,"internalType":"uint256[]"}],"anonymous":false},{"type":"event","name":"StatusUpdated","inputs":[{"name":"showId","type":"bytes32","indexed":true,"internalType":"bytes32"},{"name":"status","type":"uint8","indexed":false,"internalType":"enum ShowTypes.Status"}],"anonymous":false},{"type":"event","name":"TicketRefunded","inputs":[{"name":"user","type":"address","indexed":true,"internalType":"address"},{"name":"showId","type":"bytes32","indexed":true,"internalType":"bytes32"},{"name":"refundAmount","type":"uint256","indexed":false,"internalType":"uint256"}],"anonymous":false},{"type":"event","name":"Upgraded","inputs":[{"name":"implementation","type":"address","indexed":true,"internalType":"address"}],"anonymous":false},{"type":"event","name":"VenueUpdated","inputs":[{"name":"showId","type":"bytes32","indexed":true,"internalType":"bytes32"},{"name":"newVenue","type":"tuple","indexed":false,"internalType":"struct VenueTypes.Venue","components":[{"name":"name","type":"string","internalType":"string"},{"name":"coordinates","type":"tuple","internalType":"struct VenueTypes.Coordinates","components":[{"name":"lat","type":"int256","internalType":"int256"},{"name":"lon","type":"int256","internalType":"int256"}]},{"name":"totalCapacity","type":"uint256","internalType":"uint256"},{"name":"wallet","type":"address","internalType":"address"}]}],"anonymous":false},{"type":"event","name":"Withdrawal","inputs":[{"name":"showId","type":"bytes32","indexed":true,"internalType":"bytes32"},{"name":"recipient","type":"address","indexed":true,"internalType":"address"},{"name":"amount","type":"uint256","indexed":false,"internalType":"uint256"}],"anonymous":false},{"type":"error","name":"AddressEmptyCode","inputs":[{"name":"target","type":"address","internalType":"address"}]},{"type":"error","name":"ERC1967InvalidImplementation","inputs":[{"name":"implementation","type":"address","internalType":"address"}]},{"type":"error","name":"ERC1967NonPayable","inputs":[]},{"type":"error","name":"FailedInnerCall","inputs":[]},{"type":"error","name":"InvalidInitialization","inputs":[]},{"type":"error","name":"NotInitializing","inputs":[]},{"type":"error","name":"OwnableInvalidOwner","inputs":[{"name":"owner","type":"address","internalType":"address"}]},{"type":"error","name":"OwnableUnauthorizedAccount","inputs":[{"name":"account","type":"address","internalType":"address"}]},{"type":"error","name":"ReentrancyGuardReentrantCall","inputs":[]},{"type":"error","name":"UUPSUnauthorizedCallContext","inputs":[]},{"type":"error","name":"UUPSUnsupportedProxiableUUID","inputs":[{"name":"slot","type":"bytes32","internalType":"bytes32"}]}],"bytecode":{"object":"0x60a0604052306080526014805460ff60a01b1916905534801561002157600080fd5b5060805161479461004b600039600081816130de01528181613107015261324d01526147946000f3fe6080604052600436106103765760003560e01c80637d8d6a22116101d1578063bafd4eb011610102578063cfefb3d5116100a0578063ef5023a51161006f578063ef5023a514610c07578063f2fde38b14610c27578063f812187314610c47578063fca4655914610c6757600080fd5b8063cfefb3d514610b87578063de44006f14610ba7578063e30228be14610bc7578063e9acfa7c14610be757600080fd5b8063c4d66de8116100dc578063c4d66de814610abe578063c56f70fd14610ade578063c6ab848a14610afe578063c73a839c14610b1e57600080fd5b8063bafd4eb014610a2b578063bd47dc5c14610a66578063be44d38d14610a8657600080fd5b80638dea15a11161016f57806393d4e1001161014957806393d4e1001461095c578063977cb89e14610994578063a2c8624c146109cd578063ad3cb1cc146109ed57600080fd5b80638dea15a1146108ef5780638e5298a51461090f578063925e8f891461092f57600080fd5b806385ffa16c116101ab57806385ffa16c1461081f578063867e68af1461083f5780638d700eaf1461086c5780638da5cb5b146108b257600080fd5b80637d8d6a22146107cc5780637dad19db146107ec578063852666351461080c57600080fd5b806346079335116102ab5780635b9a1e091161024957806366bc64cd1161022357806366bc64cd14610757578063703ee4e514610777578063715018a614610797578063787d76b8146107ac57600080fd5b80635b9a1e09146106cd57806361041870146106fa578063620ec1e41461072757600080fd5b80634f1ef286116102855780634f1ef28614610665578063518193351461067857806352d1902d1461069857806358a86e1d146106ad57600080fd5b806346079335146105ac57806346c2c8a7146105e75780634ed372da1461062757600080fd5b80631cf2103e1161031857806331a68da0116102f257806331a68da01461052c5780633c60d2d61461054c57806341adf3ad1461056c5780634365c06e1461058c57600080fd5b80631cf2103e1461049e57806327b1bf52146104be5780632f18ddfe146104f457600080fd5b80630d08c3c9116103545780630d08c3c91461040a578063129e086b1461042a578063164889061461044a5780631a348e621461046e57600080fd5b80630233ce6a1461037b57806302c9a8b5146103b8578063054372ed146103e8575b600080fd5b34801561038757600080fd5b5060105461039b906001600160a01b031681565b6040516001600160a01b0390911681526020015b60405180910390f35b3480156103c457600080fd5b506103d86103d3366004613918565b610ca0565b60405190151581526020016103af565b3480156103f457600080fd5b50610408610403366004613944565b610ccd565b005b34801561041657600080fd5b50610408610425366004613978565b610d8e565b34801561043657600080fd5b5061040861044536600461399a565b610e73565b34801561045657600080fd5b5061046060015481565b6040519081526020016103af565b34801561047a57600080fd5b5061046061048936600461399a565b6000908152600260205260409020600d015490565b3480156104aa57600080fd5b5060135461039b906001600160a01b031681565b3480156104ca57600080fd5b506104de6104d936600461399a565b61136c565b6040516103af9a99989796959493929190613ad3565b34801561050057600080fd5b5061046061050f366004613978565b600760209081526000928352604080842090915290825290205481565b34801561053857600080fd5b50600f5461039b906001600160a01b031681565b34801561055857600080fd5b50610408610567366004613978565b6116a9565b34801561057857600080fd5b50600d5461039b906001600160a01b031681565b34801561059857600080fd5b506104086105a736600461399a565b611af7565b3480156105b857600080fd5b506103d86105c7366004613918565b600860209081526000928352604080842090915290825290205460ff1681565b3480156105f357600080fd5b5061061a61060236600461399a565b6000908152600260205260409020600f015460ff1690565b6040516103af9190613b7f565b34801561063357600080fd5b506103d8610642366004613918565b6000908152600260205260409020600301546001600160a01b0391821691161490565b610408610673366004613c63565b611bb5565b34801561068457600080fd5b50600b5461039b906001600160a01b031681565b3480156106a457600080fd5b50610460611bd0565b3480156106b957600080fd5b50600a5461039b906001600160a01b031681565b3480156106d957600080fd5b506106ed6106e8366004613cc7565b611bed565b6040516103af9190613d1c565b34801561070657600080fd5b5061046061071536600461399a565b60009081526006602052604090205490565b34801561073357600080fd5b5061046061074236600461399a565b6000908152600260205260409020600e015490565b34801561076357600080fd5b50600e5461039b906001600160a01b031681565b34801561078357600080fd5b5060145461039b906001600160a01b031681565b3480156107a357600080fd5b50610408611c61565b3480156107b857600080fd5b506104086107c7366004613978565b611c75565b3480156107d857600080fd5b506104606107e7366004613d2f565b611ccf565b3480156107f857600080fd5b50600c5461039b906001600160a01b031681565b61040861081a36600461399a565b611d0d565b34801561082b57600080fd5b5061046061083a36600461399a565b611d7c565b34801561084b57600080fd5b5061046061085a36600461399a565b60046020526000908152604090205481565b34801561087857600080fd5b506103d8610887366004613918565b6001600160a01b03919091166000908152600860209081526040808320938352929052205460ff1690565b3480156108be57600080fd5b507f9016d09d72d40fdae2fd8ceac6b6234c7706214fd39c1cd1e609a0528c199300546001600160a01b031661039b565b3480156108fb57600080fd5b5060125461039b906001600160a01b031681565b34801561091b57600080fd5b5061040861092a366004613d67565b611da0565b34801561093b57600080fd5b5061046061094a36600461399a565b60066020526000908152604090205481565b34801561096857600080fd5b50610460610977366004613978565b600091825260076020908152604080842092845291905290205490565b3480156109a057600080fd5b5061039b6109af36600461399a565b6000908152600260205260409020600301546001600160a01b031690565b3480156109d957600080fd5b506104606109e8366004613f21565b611dff565b3480156109f957600080fd5b50610a1e604051806040016040528060058152602001640352e302e360dc1b81525081565b6040516103af9190614017565b348015610a3757600080fd5b506103d8610a46366004613cc7565b600360209081526000928352604080842090915290825290205460ff1681565b348015610a7257600080fd5b50610408610a8136600461402a565b6125d4565b348015610a9257600080fd5b50610460610aa1366004613cc7565b600560209081526000928352604080842090915290825290205481565b348015610aca57600080fd5b50610408610ad9366004614056565b61261a565b348015610aea57600080fd5b50610408610af9366004614073565b61274d565b348015610b0a57600080fd5b5060115461039b906001600160a01b031681565b348015610b2a57600080fd5b50610b7a610b3936600461399a565b6040805180820190915260008082526020820152506000908152600260209081526040918290208251808401909352600b8101548352600c01549082015290565b6040516103af919061411e565b348015610b9357600080fd5b50610408610ba236600461399a565b61281f565b348015610bb357600080fd5b50610408610bc2366004613d2f565b612a33565b348015610bd357600080fd5b5060155461039b906001600160a01b031681565b348015610bf357600080fd5b50610408610c0236600461399a565b612a94565b348015610c1357600080fd5b50610408610c2236600461399a565b612c00565b348015610c3357600080fd5b50610408610c42366004614056565b612d31565b348015610c5357600080fd5b50610408610c62366004614135565b612d6c565b348015610c7357600080fd5b50610c87610c8236600461399a565b612e50565b6040516103af9d9c9b9a999897969594939291906141b7565b60008181526003602090815260408083206001600160a01b038616845290915290205460ff165b92915050565b600b546001600160a01b0316331480610cf05750600a546001600160a01b031633145b80610cfa57503330145b610d1f5760405162461bcd60e51b8152600401610d1690614269565b60405180910390fd5b6000828152600260205260409020600f01805482919060ff19166001836007811115610d4d57610d4d613a9b565b0217905550817f8ed894b6f384ca9c829b9aa5b056bc9106a90845a15616607e975d4ad488ee6782604051610d829190613b7f565b60405180910390a25050565b600a546001600160a01b03163314610db85760405162461bcd60e51b8152600401610d16906142d7565b6000828152600260205260408120600f015460ff166007811115610dde57610dde613a9b565b14610e2b5760405162461bcd60e51b815260206004820152601f60248201527f53686f77206d75737420626520696e2050726f706f73656420737461747573006044820152606401610d16565b600082815260026020526040908190206011018290555182907fe4f26fcd7ae101f4d7c47cac6fc616fbb05e9b41e67b7a00b67b35f13654fce090610d829084815260200190565b600a546001600160a01b03163314610e9d5760405162461bcd60e51b8152600401610d16906142d7565b600081815260026020819052604090912090600f82015460ff166007811115610ec857610ec8613a9b565b14610f0d5760405162461bcd60e51b815260206004820152601560248201527414da1bddc81b5d5cdd081899481058d8d95c1d1959605a1b6044820152606401610d16565b60008281526004602052604090205480610f625760405162461bcd60e51b81526020600482015260166024820152754e6f2066756e647320746f206469737472696275746560501b6044820152606401610d16565b600082601001805480602002602001604051908101604052809291908181526020018280548015610fb257602002820191906000526020600020905b815481526020019060010190808311610f9e575b505050505090506000606483610fc8919061433c565b60008681526005602090815260408083206015546001600160a01b0316845290915290208190559050610ffb818461435e565b9250600060648360008151811061101457611014614371565b6020026020010151856110279190614387565b611031919061433c565b600087815260056020908152604080832060038a01546001600160a01b0316845290915281208290559091505b600486015481101561110c57600060648561107a84600161439e565b8151811061108a5761108a614371565b60200260200101518761109d9190614387565b6110a7919061433c565b905080600560008a815260200190815260200160002060008960040185815481106110d4576110d4614371565b60009182526020808320909101546001600160a01b031683528201929092526040019020555080611104816143b1565b91505061105e565b50600060648460018651611120919061435e565b8151811061113057611130614371565b6020026020010151866111439190614387565b61114d919061433c565b600088815260056020908152604080832060098b01546001600160a01b0390811685529083528184208590558b845260049283905281842093909355600f8a01805460ff19168317905560115460038b0154915163416b56db60e01b815294955083169363416b56db936111cb9392169160019182918291016143ca565b600060405180830381600087803b1580156111e557600080fd5b505af11580156111f9573d6000803e3d6000fd5b5050505060005b60048701548110156112ba576011546004880180546001600160a01b039092169163416b56db91908490811061123857611238614371565b6000918252602090912001546040516001600160e01b031960e084901b168152611275916001600160a01b031690600190819081906004016143ca565b600060405180830381600087803b15801561128f57600080fd5b505af11580156112a3573d6000803e3d6000fd5b5050505080806112b2906143b1565b915050611200565b50601154600987015460405163416b56db60e01b81526001600160a01b039283169263416b56db926112f892911690600190819081906004016143ca565b600060405180830381600087803b15801561131257600080fd5b505af1158015611326573d6000803e3d6000fd5b50505050867f8ed894b6f384ca9c829b9aa5b056bc9106a90845a15616607e975d4ad488ee67600460405161135b9190613b7f565b60405180910390a250505050505050565b6060806000606061137b61380b565b6040805180820190915260008082526020820152600087815260026020819052604082206003810154600d820154600e830154600f84015460018501805488978897889790969395918701946001600160a01b039091169360048801936005890193600b8a0193909160ff80831692610100900416908a906113fc906143f0565b80601f0160208091040260200160405190810160405280929190818152602001828054611428906143f0565b80156114755780601f1061144a57610100808354040283529160200191611475565b820191906000526020600020905b81548152906001019060200180831161145857829003601f168201915b50505050509950888054611488906143f0565b80601f01602080910402602001604051908101604052809291908181526020018280546114b4906143f0565b80156115015780601f106114d657610100808354040283529160200191611501565b820191906000526020600020905b8154815290600101906020018083116114e457829003601f168201915b505050505098508680548060200260200160405190810160405280929190818152602001828054801561155d57602002820191906000526020600020905b81546001600160a01b0316815260019091019060200180831161153f575b5050505050965085604051806080016040529081600082018054611580906143f0565b80601f01602080910402602001604051908101604052809291908181526020018280546115ac906143f0565b80156115f95780601f106115ce576101008083540402835291602001916115f9565b820191906000526020600020905b8154815290600101906020018083116115dc57829003601f168201915b5050505050815260200160018201604051806040016040529081600082015481526020016001820154815250508152602001600382015481526020016004820160009054906101000a90046001600160a01b03166001600160a01b03166001600160a01b0316815250509550846040518060400160405290816000820154815260200160018201548152505094509a509a509a509a509a509a509a509a509a509a50509193959799509193959799565b6000828152600260205260408120600f015460ff1660078111156116cf576116cf613a9b565b1480611700575060056000838152600260205260409020600f015460ff1660078111156116fe576116fe613a9b565b145b80611730575060076000838152600260205260409020600f015460ff16600781111561172e5761172e613a9b565b145b61176f5760405162461bcd60e51b815260206004820152601060248201526f119d5b991cc8185c99481b1bd8dad95960821b6044820152606401610d16565b33600090815260086020908152604080832085845290915290205460ff166117ec5760405162461bcd60e51b815260206004820152602a60248201527f5573657220646f6573206e6f74206f776e20746865207469636b657420666f7260448201526920746869732073686f7760b01b6064820152608401610d16565b60008281526007602090815260408083208484529091528120541161184a5760405162461bcd60e51b8152602060048201526014602482015273151a58dad95d081b9bdd081c1d5c98da185cd95960621b6044820152606401610d16565b60008281526007602090815260408083208484528252808320548584526006909252909120546118bc5760405162461bcd60e51b815260206004820152601d60248201527f4e6f207469636b65747320736f6c6420666f7220746869732073686f770000006044820152606401610d16565b60008381526006602052604081208054916118d68361442a565b90915550506000838152600760209081526040808320858452909152808220919091556010549051638e81c64d60e01b815260048101849052600160248201526001600160a01b0390911690638e81c64d90604401600060405180830381600087803b15801561194557600080fd5b505af1158015611959573d6000803e3d6000fd5b505050506000606461197a856000908152600260205260409020600e015490565b6000868152600260205260409020600d01546119969190614387565b6119a0919061433c565b600085815260046020526040902054909150821115611a015760405162461bcd60e51b815260206004820181905260248201527f496e73756666696369656e742066756e647320696e2073686f77207661756c746044820152606401610d16565b6000848152600660205260409020548110611a6857600084815260026020526040808220600f01805460ff191690555185917f8ed894b6f384ca9c829b9aa5b056bc9106a90845a15616607e975d4ad488ee6791611a5f9190613b7f565b60405180910390a25b60008481526004602052604081208054849290611a8690849061435e565b9091555050600084815260056020908152604080832033845290915281208054849290611ab490849061439e565b9091555050604051828152849033907f6327daeea6ce26abf9f96cd84eee9cb40d1d5b88f7f5990914540e392446bf04906020015b60405180910390a350505050565b600a546001600160a01b03163314611b215760405162461bcd60e51b8152600401610d16906142d7565b600081815260026020526040902060118101544210801590611b5c57506007600f82015460ff166007811115611b5957611b59613a9b565b14155b15611bb157600f8101805460ff1916600717905560018054906000611b808361442a565b909155505060405182907f82b7e047c31ec5019ec913d8f5f2257c393096c9e63f6214f001f4b27e4dc0c890600090a25b5050565b611bbd6130d3565b611bc682613178565b611bb18282613180565b6000611bda613242565b5060008051602061473f83398151915290565b60008281526009602090815260408083206001600160a01b0385168452825291829020805483518184028101840190945280845260609392830182828015611c5457602002820191906000526020600020905b815481526020019060010190808311611c40575b5050505050905092915050565b611c6961328b565b611c7360006132e6565b565b600a546001600160a01b03163314611c9f5760405162461bcd60e51b8152600401610d16906142d7565b600082815260066020526040902054611cb990829061439e565b6000928352600660205260409092209190915550565b60096020528260005260406000206020528160005260406000208181548110611cf757600080fd5b9060005260206000200160009250925050505481565b600b546001600160a01b0316331480611d305750600a546001600160a01b031633145b80611d3a57503330145b611d565760405162461bcd60e51b8152600401610d1690614269565b60008181526004602052604081208054349290611d7490849061439e565b909155505050565b600081815260026020526040812060040154611d9981600161439e565b9392505050565b600a546001600160a01b03163314611dca5760405162461bcd60e51b8152600401610d16906142d7565b6001600160a01b0392909216600090815260086020908152604080832093835292905220805460ff1916911515919091179055565b6000808a5111611e445760405162461bcd60e51b815260206004820152601060248201526f13985b59481a5cc81c995c5d5a5c995960821b6044820152606401610d16565b60008611611ea05760405162461bcd60e51b815260206004820152602360248201527f56656e756520726164697573206d75737420626520677265617465722074686160448201526206e20360ec1b6064820152608401610d16565b60008411611efe5760405162461bcd60e51b815260206004820152602560248201527f546f74616c206361706163697479206d75737420626520677265617465722074604482015264068616e20360dc1b6064820152608401610d16565b6000885111611f4f5760405162461bcd60e51b815260206004820152601c60248201527f4174206c65617374206f6e6520617274697374207265717569726564000000006044820152606401610d16565b825160208401511015611fca5760405162461bcd60e51b815260206004820152603d60248201527f4d6178207469636b6574207072696365206d757374206265206772656174657260448201527f206f7220657175616c20746f206d696e207469636b65742070726963650000006064820152608401610d16565b60328560ff1610158015611fe2575060648560ff1611155b6120445760405162461bcd60e51b815260206004820152602d60248201527f53656c6c2d6f7574207468726573686f6c64206d75737420626520626574776560448201526c0656e20353020616e642031303609c1b6064820152608401610d16565b865163055d4a7f191380159061205f5750865163055d4a8012155b61209e5760405162461bcd60e51b815260206004820152601060248201526f496e76616c6964206c6174697475646560801b6044820152606401610d16565b630aba94ff198760200151121580156120bf5750630aba9500876020015113155b6120ff5760405162461bcd60e51b8152602060048201526011602482015270496e76616c6964206c6f6e67697475646560781b6044820152606401610d16565b601454600160a01b900460ff166121585760405162461bcd60e51b815260206004820152601e60248201527f436f6e747261637420616464726573736573206d7573742062652073657400006044820152606401610d16565b61216133613357565b6121ad5760405162461bcd60e51b815260206004820152601c60248201527f4f7267616e697a6572206d7573742062652072656769737465726564000000006044820152606401610d16565b60005b8851811015612239576121db8982815181106121ce576121ce614371565b60200260200101516133e7565b6122275760405162461bcd60e51b815260206004820152601e60248201527f416c6c2061727469737473206d757374206265207265676973746572656400006044820152606401610d16565b80612231816143b1565b9150506121b0565b5061224582895161341d565b86516020808901516040516122669333938d9391928c918c918c9101614441565b60405160208183030381529060405280519060200120905060004262278d0061228f919061439e565b9050600060405180608001604052806040518060200160405280600081525081526020018a815260200187815260200160006001600160a01b03168152509050604051806101e001604052808481526020018d81526020018c8152602001336001600160a01b031681526020018b81526020018281526020018981526020018681526020018860ff1681526020018781526020016000600781111561233657612336613a9b565b815260016020808301829052604080840189905260608401879052600060809094018490528784526002825290922083518155918301519082019061237b9082614508565b50604082015160028201906123909082614508565b5060608201516003820180546001600160a01b0319166001600160a01b03909216919091179055608082015180516123d291600484019160209091019061384e565b5060a08201518051600583019081906123eb9082614508565b50602082810151805160018481019190915590820151600284015560408401516003840155606090930151600490920180546001600160a01b0319166001600160a01b039093169290921790915560c0840151600a84015560e08401518051600b8501550151600c830155610100830151600d830155610120830151600e830155610140830151600f830180549192909160ff19169083600781111561249357612493613a9b565b0217905550610160820151600f820180549115156101000261ff001990921691909117905561018082015180516124d49160108401916020909101906138b3565b506101a082015160118201556101c09091015160129091015560005b8a518110156125635760008481526003602052604081208c51600192908e908590811061251f5761251f614371565b6020908102919091018101516001600160a01b03168252810191909152604001600020805460ff19169115159190911790558061255b816143b1565b9150506124f0565b5060018054906000612574836143b1565b9190505550336001600160a01b0316837f5829640c990aaf491e04dbb3bede81c191d55a802b99b9194101fa3adece09e08e8d8f8a8d8b6040516125bd969594939291906145c8565b60405180910390a350509998505050505050505050565b600a546001600160a01b031633146125fe5760405162461bcd60e51b8152600401610d16906142d7565b6000928352600760209081526040808520938552929052912055565b7ff0c57e16840df040f15088dc2f81fe391c3923bec73e23a9662efc9c229c6a008054600160401b810460ff16159067ffffffffffffffff166000811580156126605750825b905060008267ffffffffffffffff16600114801561267d5750303b155b90508115801561268b575080155b156126a95760405163f92ee8a960e01b815260040160405180910390fd5b845467ffffffffffffffff1916600117855583156126d357845460ff60401b1916600160401b1785555b6126db61354c565b6126e48661355c565b601580546001600160a01b0319166001600160a01b038816179055831561274557845460ff60401b19168555604051600181527fc7f505b2f371ae2175ee4913f4499e1f2633a7b5936321eed1cdaeb6115181d29060200160405180910390a15b505050505050565b600b546001600160a01b031633146127775760405162461bcd60e51b8152600401610d16906142d7565b6000828152600260205260409020815182906005830190819061279a9082614508565b5060208281015180516001840155015160028201556040808301516003830155606090920151600490910180546001600160a01b0319166001600160a01b039092169190911790555183907f7ff310b69b4d32bc970badd2c29e0539de33aad17a7679f5484eb09ad6fd5fc69061281290859061463c565b60405180910390a2505050565b60008181526002602052604090206003015481906001600160a01b031633148061284e575061284e3382610ca0565b61288b5760405162461bcd60e51b815260206004820152600e60248201526d139bdd08185d5d1a1bdc9a5e995960921b6044820152606401610d16565b60008281526002602052604090206004600f82015460ff1660078111156128b4576128b4613a9b565b146128fa5760405162461bcd60e51b815260206004820152601660248201527514da1bddc81b5d5cdd0818994810dbdb5c1b195d195960521b6044820152606401610d16565b601281015461290c906202a30061439e565b421461295a5760405162461bcd60e51b815260206004820152601c60248201527f53686f7720636f6f6c20646f776e20686173206e6f7420656e646564000000006044820152606401610d16565b6000838152600560209081526040808320338452909152902054806129b85760405162461bcd60e51b81526020600482015260146024820152734e6f2066756e647320746f20776974686472617760601b6044820152606401610d16565b600084815260056020908152604080832033808552925280832083905551909183156108fc02918491818181858888f193505050501580156129fe573d6000803e3d6000fd5b50604051818152339085907f028ab133c73f6c00ad0c5896ef40eff18378acd3d7f2ecf573c2706582bf73bf90602001611ae9565b600a546001600160a01b03163314612a5d5760405162461bcd60e51b8152600401610d16906142d7565b60009283526009602090815260408085206001600160a01b0390941685529281529183208054600181018255908452919092200155565b612a9c61356d565b600081815260056020908152604080832033845290915290205480612afa5760405162461bcd60e51b81526020600482015260146024820152734e6f2066756e647320746f20776974686472617760601b6044820152606401610d16565b80471015612b555760405162461bcd60e51b815260206004820152602260248201527f496e73756666696369656e742066756e647320696e2074686520636f6e74726160448201526118dd60f21b6064820152608401610d16565b600082815260056020908152604080832033808552925280832083905551909183156108fc02918491818181858888f19350505050158015612b9b573d6000803e3d6000fd5b50604051818152829033907fa4d59773de0ef2d6faf35ac70331de09c09cb20909bf7453dd0d620524bd1fc99060200160405180910390a350612bfd60017f9b779b17422d0df92223018b32b4d1fa46e071723d6817e2486d003becc55f0055565b50565b60008181526002602052604090206003015481906001600160a01b0316331480612c2f5750612c2f3382610ca0565b612c6c5760405162461bcd60e51b815260206004820152600e60248201526d139bdd08185d5d1a1bdc9a5e995960921b6044820152606401610d16565b60008281526002602052604090206001600f82015460ff166007811115612c9557612c95613a9b565b1480612cb957506002600f82015460ff166007811115612cb757612cb7613a9b565b145b80612cdc57506003600f82015460ff166007811115612cda57612cda613a9b565b145b612d1f5760405162461bcd60e51b815260206004820152601460248201527353686f77206d7573742062652050656e64696e6760601b6044820152606401610d16565b600f01805460ff191660051790555050565b612d3961328b565b6001600160a01b038116612d6357604051631e4fbdf760e01b815260006004820152602401610d16565b612bfd816132e6565b601454600160a01b900460ff1615612dc65760405162461bcd60e51b815260206004820152601e60248201527f50726f746f636f6c2061646472657373657320616c72656164792073657400006044820152606401610d16565b600a80546001600160a01b039788166001600160a01b03199182168117909255600b805497891697821697909717909655601080548716909117905560118054948716948616949094179093556012805492861692851692909217909155601380549185169190931617909155601480546001600160a81b0319169190921617600160a01b179055565b60026020526000908152604090208054600182018054919291612e72906143f0565b80601f0160208091040260200160405190810160405280929190818152602001828054612e9e906143f0565b8015612eeb5780601f10612ec057610100808354040283529160200191612eeb565b820191906000526020600020905b815481529060010190602001808311612ece57829003601f168201915b505050505090806002018054612f00906143f0565b80601f0160208091040260200160405190810160405280929190818152602001828054612f2c906143f0565b8015612f795780601f10612f4e57610100808354040283529160200191612f79565b820191906000526020600020905b815481529060010190602001808311612f5c57829003601f168201915b5050505050908060030160009054906101000a90046001600160a01b03169080600501604051806080016040529081600082018054612fb7906143f0565b80601f0160208091040260200160405190810160405280929190818152602001828054612fe3906143f0565b80156130305780601f1061300557610100808354040283529160200191613030565b820191906000526020600020905b81548152906001019060200180831161301357829003601f168201915b5050509183525050604080518082018252600184015481526002840154602082810191909152808401919091526003840154828401526004909301546001600160a01b0316606090920191909152600a8401548151808301909252600b8501548252600c85015492820192909252600d840154600e850154600f86015460118701546012909701549596949593949293919260ff8083169361010090930416918d565b306001600160a01b037f000000000000000000000000000000000000000000000000000000000000000016148061315a57507f00000000000000000000000000000000000000000000000000000000000000006001600160a01b031661314e60008051602061473f833981519152546001600160a01b031690565b6001600160a01b031614155b15611c735760405163703e46dd60e11b815260040160405180910390fd5b612bfd61328b565b816001600160a01b03166352d1902d6040518163ffffffff1660e01b8152600401602060405180830381865afa9250505080156131da575060408051601f3d908101601f191682019092526131d79181019061464f565b60015b61320257604051634c9c8ce360e01b81526001600160a01b0383166004820152602401610d16565b60008051602061473f833981519152811461323357604051632a87526960e21b815260048101829052602401610d16565b61323d83836135dd565b505050565b306001600160a01b037f00000000000000000000000000000000000000000000000000000000000000001614611c735760405163703e46dd60e11b815260040160405180910390fd5b336132bd7f9016d09d72d40fdae2fd8ceac6b6234c7706214fd39c1cd1e609a0528c199300546001600160a01b031690565b6001600160a01b031614611c735760405163118cdaa760e01b8152336004820152602401610d16565b7f9016d09d72d40fdae2fd8ceac6b6234c7706214fd39c1cd1e609a0528c19930080546001600160a01b031981166001600160a01b03848116918217845560405192169182907f8be0079c531659141344cd1fd0a4f28419497f9722a3daafe3b4186f6b6457e090600090a3505050565b601354604051634092f2b760e01b81526001600160a01b0383811660048301526000928392911690634092f2b7906024015b600060405180830381865afa1580156133a6573d6000803e3d6000fd5b505050506040513d6000823e601f3d908101601f191682016040526133ce91908101906146b5565b6001600160a01b03908116951694909414949350505050565b601254604051632e52720160e21b81526001600160a01b038381166004830152600092839291169063b949c80490602401613389565b61342881600261439e565b8251146134ab5760405162461bcd60e51b8152602060048201526044602482018190527f53706c6974206172726179206d75737420686176652061206c656e6774682065908201527f7175616c20746f20746865206e756d626572206f66206172746973747320706c6064820152633ab9901960e11b608482015260a401610d16565b6000805b83518110156134f1578381815181106134ca576134ca614371565b6020026020010151826134dd919061439e565b9150806134e9816143b1565b9150506134af565b508060641461323d5760405162461bcd60e51b815260206004820152602160248201527f53706c69742070657263656e7461676573206d7573742073756d20746f2031306044820152600360fc1b6064820152608401610d16565b613554613633565b611c7361367c565b613564613633565b612bfd81613684565b7f9b779b17422d0df92223018b32b4d1fa46e071723d6817e2486d003becc55f008054600119016135b157604051633ee5aeb560e01b815260040160405180910390fd5b60029055565b60017f9b779b17422d0df92223018b32b4d1fa46e071723d6817e2486d003becc55f0055565b6135e68261368c565b6040516001600160a01b038316907fbc7cd75a20ee27fd9adebab32041f755214dbc6bffa90cc0225b39da2e5c2d3b90600090a280511561362b5761323d82826136f1565b611bb1613767565b7ff0c57e16840df040f15088dc2f81fe391c3923bec73e23a9662efc9c229c6a0054600160401b900460ff16611c7357604051631afcd79f60e31b815260040160405180910390fd5b6135b7613633565b612d39613633565b806001600160a01b03163b6000036136c257604051634c9c8ce360e01b81526001600160a01b0382166004820152602401610d16565b60008051602061473f83398151915280546001600160a01b0319166001600160a01b0392909216919091179055565b6060600080846001600160a01b03168460405161370e9190614722565b600060405180830381855af49150503d8060008114613749576040519150601f19603f3d011682016040523d82523d6000602084013e61374e565b606091505b509150915061375e858383613786565b95945050505050565b3415611c735760405163b398979f60e01b815260040160405180910390fd5b60608261379b57613796826137e2565b611d99565b81511580156137b257506001600160a01b0384163b155b156137db57604051639996b31560e01b81526001600160a01b0385166004820152602401610d16565b5092915050565b8051156137f25780518082602001fd5b604051630a12f52160e11b815260040160405180910390fd5b60405180608001604052806060815260200161383a604051806040016040528060008152602001600081525090565b815260006020820181905260409091015290565b8280548282559060005260206000209081019282156138a3579160200282015b828111156138a357825182546001600160a01b0319166001600160a01b0390911617825560209092019160019091019061386e565b506138af9291506138ee565b5090565b8280548282559060005260206000209081019282156138a3579160200282015b828111156138a35782518255916020019190600101906138d3565b5b808211156138af57600081556001016138ef565b6001600160a01b0381168114612bfd57600080fd5b6000806040838503121561392b57600080fd5b823561393681613903565b946020939093013593505050565b6000806040838503121561395757600080fd5b8235915060208301356008811061396d57600080fd5b809150509250929050565b6000806040838503121561398b57600080fd5b50508035926020909101359150565b6000602082840312156139ac57600080fd5b5035919050565b60005b838110156139ce5781810151838201526020016139b6565b50506000910152565b600081518084526139ef8160208601602086016139b3565b601f01601f19169290920160200192915050565b600081518084526020808501945080840160005b83811015613a3c5781516001600160a01b031687529582019590820190600101613a17565b509495945050505050565b6000815160a08452613a5c60a08501826139d7565b6020848101518051878301520151604080870191909152840151606080870191909152909301516001600160a01b031660809094019390935250919050565b634e487b7160e01b600052602160045260246000fd5b60088110613acf57634e487b7160e01b600052602160045260246000fd5b9052565b6000610160808352613ae78184018e6139d7565b90508281036020840152613afb818d6139d7565b6001600160a01b038c16604085015283810360608501529050613b1e818b613a03565b90508281036080840152613b32818a613a47565b885160a0850152602089015160c08501529150613b4c9050565b8560e083015284610100830152613b67610120830185613ab1565b8215156101408301529b9a5050505050505050505050565b60208101610cc78284613ab1565b634e487b7160e01b600052604160045260246000fd5b6040516080810167ffffffffffffffff81118282101715613bc657613bc6613b8d565b60405290565b604051601f8201601f1916810167ffffffffffffffff81118282101715613bf557613bf5613b8d565b604052919050565b600067ffffffffffffffff821115613c1757613c17613b8d565b50601f01601f191660200190565b6000613c38613c3384613bfd565b613bcc565b9050828152838383011115613c4c57600080fd5b828260208301376000602084830101529392505050565b60008060408385031215613c7657600080fd5b8235613c8181613903565b9150602083013567ffffffffffffffff811115613c9d57600080fd5b8301601f81018513613cae57600080fd5b613cbd85823560208401613c25565b9150509250929050565b60008060408385031215613cda57600080fd5b82359150602083013561396d81613903565b600081518084526020808501945080840160005b83811015613a3c57815187529582019590820190600101613d00565b602081526000611d996020830184613cec565b600080600060608486031215613d4457600080fd5b833592506020840135613d5681613903565b929592945050506040919091013590565b600080600060608486031215613d7c57600080fd5b8335613d8781613903565b92506020840135915060408401358015158114613da357600080fd5b809150509250925092565b600082601f830112613dbf57600080fd5b611d9983833560208501613c25565b600067ffffffffffffffff821115613de857613de8613b8d565b5060051b60200190565b600082601f830112613e0357600080fd5b81356020613e13613c3383613dce565b82815260059290921b84018101918181019086841115613e3257600080fd5b8286015b84811015613e56578035613e4981613903565b8352918301918301613e36565b509695505050505050565b600060408284031215613e7357600080fd5b6040516040810181811067ffffffffffffffff82111715613e9657613e96613b8d565b604052823581526020928301359281019290925250919050565b803560ff81168114613ec157600080fd5b919050565b600082601f830112613ed757600080fd5b81356020613ee7613c3383613dce565b82815260059290921b84018101918181019086841115613f0657600080fd5b8286015b84811015613e565780358352918301918301613f0a565b60008060008060008060008060006101608a8c031215613f4057600080fd5b893567ffffffffffffffff80821115613f5857600080fd5b613f648d838e01613dae565b9a5060208c0135915080821115613f7a57600080fd5b613f868d838e01613dae565b995060408c0135915080821115613f9c57600080fd5b613fa88d838e01613df2565b9850613fb78d60608e01613e61565b975060a08c01359650613fcc60c08d01613eb0565b955060e08c01359450613fe38d6101008e01613e61565b93506101408c0135915080821115613ffa57600080fd5b506140078c828d01613ec6565b9150509295985092959850929598565b602081526000611d9960208301846139d7565b60008060006060848603121561403f57600080fd5b505081359360208301359350604090920135919050565b60006020828403121561406857600080fd5b8135611d9981613903565b6000806040838503121561408657600080fd5b82359150602083013567ffffffffffffffff808211156140a557600080fd5b9084019060a082870312156140b957600080fd5b6140c1613ba3565b8235828111156140d057600080fd5b6140dc88828601613dae565b8252506140ec8760208501613e61565b6020820152606083013560408201526080830135925061410b83613903565b8260608201528093505050509250929050565b815181526020808301519082015260408101610cc7565b60008060008060008060c0878903121561414e57600080fd5b863561415981613903565b9550602087013561416981613903565b9450604087013561417981613903565b9350606087013561418981613903565b9250608087013561419981613903565b915060a08701356141a981613903565b809150509295509295509295565b8d81526101c0602082015260006141d26101c083018f6139d7565b82810360408401526141e4818f6139d7565b6001600160a01b038e16606085015283810360808501529050614207818d613a47565b9150508960a083015261422760c083018a80518252602090810151910152565b8761010083015286610120830152614243610140830187613ab1565b8415156101608301526101808201939093526101a001529b9a5050505050505050505050565b60208082526048908201527f4f6e6c79207468652056656e75652c205469636b657420636f6e74726163742c60408201527f206f72207468697320636f6e74726163742063616e2063616c6c207468697320606082015267333ab731ba34b7b760c11b608082015260a00190565b6020808252602f908201527f4f6e6c7920746865205469636b657420636f6e74726163742063616e2063616c60408201526e36103a3434b990333ab731ba34b7b760891b606082015260800190565b634e487b7160e01b600052601160045260246000fd5b60008261435957634e487b7160e01b600052601260045260246000fd5b500490565b81810381811115610cc757610cc7614326565b634e487b7160e01b600052603260045260246000fd5b8082028115828204841417610cc757610cc7614326565b80820180821115610cc757610cc7614326565b6000600182016143c3576143c3614326565b5060010190565b6001600160a01b0394909416845260208401929092526040830152606082015260800190565b600181811c9082168061440457607f821691505b60208210810361442457634e487b7160e01b600052602260045260246000fd5b50919050565b60008161443957614439614326565b506000190190565b6bffffffffffffffffffffffff198860601b16815260006014820188516020808b0160005b8381101561448b5781516001600160a01b031685529382019390820190600101614466565b5050988252509687019590955250604085019290925260f81b6001600160f81b031916606084015260618301525060810192915050565b601f82111561323d57600081815260208120601f850160051c810160208610156144e95750805b601f850160051c820191505b81811015612745578281556001016144f5565b815167ffffffffffffffff81111561452257614522613b8d565b6145368161453084546143f0565b846144c2565b602080601f83116001811461456b57600084156145535750858301515b600019600386901b1c1916600185901b178555612745565b600085815260208120601f198616915b8281101561459a5788860151825594840194600190910190840161457b565b50858210156145b85787850151600019600388901b60f8161c191681555b5050505050600190811b01905550565b60e0815260006145db60e08301896139d7565b82810360208401526145ed8189613a03565b9050828103604084015261460181886139d7565b8651606085015260208701516080850152905060ff851660a084015282810360c084015261462f8185613cec565b9998505050505050505050565b602081526000611d996020830184613a47565b60006020828403121561466157600080fd5b5051919050565b600082601f83011261467957600080fd5b8151614687613c3382613bfd565b81815284602083860101111561469c57600080fd5b6146ad8260208301602087016139b3565b949350505050565b6000806000606084860312156146ca57600080fd5b835167ffffffffffffffff808211156146e257600080fd5b6146ee87838801614668565b9450602086015191508082111561470457600080fd5b5061471186828701614668565b9250506040840151613da381613903565b600082516147348184602087016139b3565b919091019291505056fe360894a13ba1a3210667c828492db98dca3e2076cc3735a920a3ca505d382bbca2646970667358221220d301884b1dfa3346c3b9b5bf11eb425245a734d446fdb66cdabdb23da904618864736f6c63430008140033","linkReferences":{}},"methodIdentifiers":{"SELLOUT_PROTOCOL_WALLET()":"e30228be","UPGRADE_INTERFACE_VERSION()":"ad3cb1cc","activeShowCount()":"16488906","addTokenIdToWallet(bytes32,address,uint256)":"de44006f","artistRegistryContract()":"41adf3ad","artistRegistryInstance()":"8dea15a1","cancelShow(bytes32)":"ef5023a5","checkAndUpdateExpiry(bytes32)":"4365c06e","completeShow(bytes32)":"129e086b","depositToVault(bytes32)":"85266635","getNumberOfVoters(bytes32)":"85ffa16c","getOrganizer(bytes32)":"977cb89e","getSellOutThreshold(bytes32)":"1a348e62","getShowById(bytes32)":"27b1bf52","getShowStatus(bytes32)":"46c2c8a7","getTicketPrice(bytes32)":"c73a839c","getTicketPricePaid(bytes32,uint256)":"93d4e100","getTotalCapacity(bytes32)":"620ec1e4","getTotalTicketsSold(bytes32)":"61041870","getWalletTokenIds(bytes32,address)":"5b9a1e09","initialize(address)":"c4d66de8","isArtist(address,bytes32)":"02c9a8b5","isArtistMapping(bytes32,address)":"bafd4eb0","isOrganizer(address,bytes32)":"4ed372da","isTicketOwner(address,bytes32)":"8d700eaf","organizerRegistryContract()":"66bc64cd","organizerRegistryInstance()":"1cf2103e","owner()":"8da5cb5b","payout(bytes32)":"cfefb3d5","pendingWithdrawals(bytes32,address)":"be44d38d","proposeShow(string,string,address[],(int256,int256),uint256,uint8,uint256,(uint256,uint256),uint256[])":"a2c8624c","proxiableUUID()":"52d1902d","referralContract()":"7dad19db","referralInstance()":"c6ab848a","refundTicket(bytes32,uint256)":"3c60d2d6","renounceOwnership()":"715018a6","setProtocolAddresses(address,address,address,address,address,address)":"f8121873","setTicketOwnership(address,bytes32,bool)":"8e5298a5","setTicketPricePaid(bytes32,uint256,uint256)":"bd47dc5c","setTotalTicketsSold(bytes32,uint256)":"787d76b8","showVault(bytes32)":"867e68af","shows(bytes32)":"fca46559","ticketContract()":"58a86e1d","ticketInstance()":"0233ce6a","ticketOwnership(address,bytes32)":"46079335","ticketPricePaid(bytes32,uint256)":"2f18ddfe","totalTicketsSold(bytes32)":"925e8f89","transferOwnership(address)":"f2fde38b","updateExpiry(bytes32,uint256)":"0d08c3c9","updateStatus(bytes32,uint8)":"054372ed","updateVenue(bytes32,(string,(int256,int256),uint256,address))":"c56f70fd","upgradeToAndCall(address,bytes)":"4f1ef286","venueContract()":"51819335","venueRegistryContract()":"31a68da0","venueRegistryInstance()":"703ee4e5","walletToShowToTokenIds(bytes32,address,uint256)":"7d8d6a22","withdrawRefund(bytes32)":"e9acfa7c"},"id":74}