{"abi":[{"type":"function","name":"SELLOUT_PROTOCOL_WALLET","inputs":[],"outputs":[{"name":"","type":"address","internalType":"address"}],"stateMutability":"view"},{"type":"function","name":"UPGRADE_INTERFACE_VERSION","inputs":[],"outputs":[{"name":"","type":"string","internalType":"string"}],"stateMutability":"view"},{"type":"function","name":"activeShowCount","inputs":[],"outputs":[{"name":"","type":"uint256","internalType":"uint256"}],"stateMutability":"view"},{"type":"function","name":"addTokenIdToWallet","inputs":[{"name":"showId","type":"bytes32","internalType":"bytes32"},{"name":"wallet","type":"address","internalType":"address"},{"name":"tokenId","type":"uint256","internalType":"uint256"}],"outputs":[],"stateMutability":"nonpayable"},{"type":"function","name":"artistRegistryContract","inputs":[],"outputs":[{"name":"","type":"address","internalType":"address"}],"stateMutability":"view"},{"type":"function","name":"artistRegistryInstance","inputs":[],"outputs":[{"name":"","type":"address","internalType":"contract IArtistRegistry"}],"stateMutability":"view"},{"type":"function","name":"cancelShow","inputs":[{"name":"showId","type":"bytes32","internalType":"bytes32"}],"outputs":[],"stateMutability":"nonpayable"},{"type":"function","name":"checkAndUpdateExpiry","inputs":[{"name":"showId","type":"bytes32","internalType":"bytes32"}],"outputs":[],"stateMutability":"nonpayable"},{"type":"function","name":"checkAndUpdateShowStatus","inputs":[{"name":"showId","type":"bytes32","internalType":"bytes32"}],"outputs":[],"stateMutability":"nonpayable"},{"type":"function","name":"completeShow","inputs":[{"name":"showId","type":"bytes32","internalType":"bytes32"}],"outputs":[],"stateMutability":"nonpayable"},{"type":"function","name":"depositToVault","inputs":[{"name":"showId","type":"bytes32","internalType":"bytes32"}],"outputs":[],"stateMutability":"payable"},{"type":"function","name":"getNumberOfVoters","inputs":[{"name":"showId","type":"bytes32","internalType":"bytes32"}],"outputs":[{"name":"","type":"uint256","internalType":"uint256"}],"stateMutability":"view"},{"type":"function","name":"getOrganizer","inputs":[{"name":"showId","type":"bytes32","internalType":"bytes32"}],"outputs":[{"name":"","type":"address","internalType":"address"}],"stateMutability":"view"},{"type":"function","name":"getPendingRefund","inputs":[{"name":"showId","type":"bytes32","internalType":"bytes32"},{"name":"user","type":"address","internalType":"address"}],"outputs":[{"name":"amountOwed","type":"uint256","internalType":"uint256"}],"stateMutability":"view"},{"type":"function","name":"getSellOutThreshold","inputs":[{"name":"showId","type":"bytes32","internalType":"bytes32"}],"outputs":[{"name":"","type":"uint256","internalType":"uint256"}],"stateMutability":"view"},{"type":"function","name":"getShowById","inputs":[{"name":"showId","type":"bytes32","internalType":"bytes32"}],"outputs":[{"name":"name","type":"string","internalType":"string"},{"name":"description","type":"string","internalType":"string"},{"name":"organizer","type":"address","internalType":"address"},{"name":"artists","type":"address[]","internalType":"address[]"},{"name":"venue","type":"tuple","internalType":"struct VenueTypes.Venue","components":[{"name":"name","type":"string","internalType":"string"},{"name":"coordinates","type":"tuple","internalType":"struct VenueTypes.Coordinates","components":[{"name":"lat","type":"int256","internalType":"int256"},{"name":"lon","type":"int256","internalType":"int256"}]},{"name":"totalCapacity","type":"uint256","internalType":"uint256"},{"name":"wallet","type":"address","internalType":"address"}]},{"name":"ticketPrice","type":"tuple","internalType":"struct ShowTypes.TicketPrice","components":[{"name":"minPrice","type":"uint256","internalType":"uint256"},{"name":"maxPrice","type":"uint256","internalType":"uint256"}]},{"name":"sellOutThreshold","type":"uint256","internalType":"uint256"},{"name":"totalCapacity","type":"uint256","internalType":"uint256"},{"name":"status","type":"uint8","internalType":"enum ShowTypes.Status"},{"name":"isActive","type":"bool","internalType":"bool"}],"stateMutability":"view"},{"type":"function","name":"getShowStatus","inputs":[{"name":"showId","type":"bytes32","internalType":"bytes32"}],"outputs":[{"name":"","type":"uint8","internalType":"enum ShowTypes.Status"}],"stateMutability":"view"},{"type":"function","name":"getTicketPrice","inputs":[{"name":"showId","type":"bytes32","internalType":"bytes32"}],"outputs":[{"name":"","type":"tuple","internalType":"struct ShowTypes.TicketPrice","components":[{"name":"minPrice","type":"uint256","internalType":"uint256"},{"name":"maxPrice","type":"uint256","internalType":"uint256"}]}],"stateMutability":"view"},{"type":"function","name":"getTicketPricePaid","inputs":[{"name":"showId","type":"bytes32","internalType":"bytes32"},{"name":"ticketId","type":"uint256","internalType":"uint256"}],"outputs":[{"name":"","type":"uint256","internalType":"uint256"}],"stateMutability":"view"},{"type":"function","name":"getTotalCapacity","inputs":[{"name":"showId","type":"bytes32","internalType":"bytes32"}],"outputs":[{"name":"","type":"uint256","internalType":"uint256"}],"stateMutability":"view"},{"type":"function","name":"getTotalTicketsSold","inputs":[{"name":"showId","type":"bytes32","internalType":"bytes32"}],"outputs":[{"name":"","type":"uint256","internalType":"uint256"}],"stateMutability":"view"},{"type":"function","name":"getWalletTokenIds","inputs":[{"name":"showId","type":"bytes32","internalType":"bytes32"},{"name":"wallet","type":"address","internalType":"address"}],"outputs":[{"name":"","type":"uint256[]","internalType":"uint256[]"}],"stateMutability":"view"},{"type":"function","name":"hasTicket","inputs":[{"name":"wallet","type":"address","internalType":"address"},{"name":"showId","type":"bytes32","internalType":"bytes32"}],"outputs":[{"name":"ownsTicket","type":"bool","internalType":"bool"}],"stateMutability":"view"},{"type":"function","name":"initialize","inputs":[{"name":"_selloutProtocolWallet","type":"address","internalType":"address"}],"outputs":[],"stateMutability":"nonpayable"},{"type":"function","name":"isArtist","inputs":[{"name":"user","type":"address","internalType":"address"},{"name":"showId","type":"bytes32","internalType":"bytes32"}],"outputs":[{"name":"","type":"bool","internalType":"bool"}],"stateMutability":"view"},{"type":"function","name":"isArtistMapping","inputs":[{"name":"","type":"bytes32","internalType":"bytes32"},{"name":"","type":"address","internalType":"address"}],"outputs":[{"name":"","type":"bool","internalType":"bool"}],"stateMutability":"view"},{"type":"function","name":"isOrganizer","inputs":[{"name":"user","type":"address","internalType":"address"},{"name":"showId","type":"bytes32","internalType":"bytes32"}],"outputs":[{"name":"","type":"bool","internalType":"bool"}],"stateMutability":"view"},{"type":"function","name":"isTicketOwner","inputs":[{"name":"owner","type":"address","internalType":"address"},{"name":"showId","type":"bytes32","internalType":"bytes32"},{"name":"ticketId","type":"uint256","internalType":"uint256"}],"outputs":[{"name":"","type":"bool","internalType":"bool"}],"stateMutability":"view"},{"type":"function","name":"organizerRegistryContract","inputs":[],"outputs":[{"name":"","type":"address","internalType":"address"}],"stateMutability":"view"},{"type":"function","name":"organizerRegistryInstance","inputs":[],"outputs":[{"name":"","type":"address","internalType":"contract IOrganizerRegistry"}],"stateMutability":"view"},{"type":"function","name":"owner","inputs":[],"outputs":[{"name":"","type":"address","internalType":"address"}],"stateMutability":"view"},{"type":"function","name":"payout","inputs":[{"name":"showId","type":"bytes32","internalType":"bytes32"}],"outputs":[],"stateMutability":"nonpayable"},{"type":"function","name":"pendingWithdrawals","inputs":[{"name":"","type":"bytes32","internalType":"bytes32"},{"name":"","type":"address","internalType":"address"}],"outputs":[{"name":"","type":"uint256","internalType":"uint256"}],"stateMutability":"view"},{"type":"function","name":"proposeShow","inputs":[{"name":"name","type":"string","internalType":"string"},{"name":"description","type":"string","internalType":"string"},{"name":"artists","type":"address[]","internalType":"address[]"},{"name":"coordinates","type":"tuple","internalType":"struct VenueTypes.Coordinates","components":[{"name":"lat","type":"int256","internalType":"int256"},{"name":"lon","type":"int256","internalType":"int256"}]},{"name":"radius","type":"uint256","internalType":"uint256"},{"name":"sellOutThreshold","type":"uint8","internalType":"uint8"},{"name":"totalCapacity","type":"uint256","internalType":"uint256"},{"name":"ticketPrice","type":"tuple","internalType":"struct ShowTypes.TicketPrice","components":[{"name":"minPrice","type":"uint256","internalType":"uint256"},{"name":"maxPrice","type":"uint256","internalType":"uint256"}]},{"name":"split","type":"uint256[]","internalType":"uint256[]"}],"outputs":[{"name":"showId","type":"bytes32","internalType":"bytes32"}],"stateMutability":"nonpayable"},{"type":"function","name":"proxiableUUID","inputs":[],"outputs":[{"name":"","type":"bytes32","internalType":"bytes32"}],"stateMutability":"view"},{"type":"function","name":"referralContract","inputs":[],"outputs":[{"name":"","type":"address","internalType":"address"}],"stateMutability":"view"},{"type":"function","name":"referralInstance","inputs":[],"outputs":[{"name":"","type":"address","internalType":"contract ReferralModule"}],"stateMutability":"view"},{"type":"function","name":"refundTicket","inputs":[{"name":"showId","type":"bytes32","internalType":"bytes32"},{"name":"ticketId","type":"uint256","internalType":"uint256"}],"outputs":[],"stateMutability":"nonpayable"},{"type":"function","name":"renounceOwnership","inputs":[],"outputs":[],"stateMutability":"nonpayable"},{"type":"function","name":"setProtocolAddresses","inputs":[{"name":"_ticketContract","type":"address","internalType":"address"},{"name":"_venueContract","type":"address","internalType":"address"},{"name":"_referralContract","type":"address","internalType":"address"},{"name":"_artistRegistryContract","type":"address","internalType":"address"},{"name":"_organizerRegistryContract","type":"address","internalType":"address"},{"name":"_venueRegistryContract","type":"address","internalType":"address"}],"outputs":[],"stateMutability":"nonpayable"},{"type":"function","name":"setTicketPricePaid","inputs":[{"name":"showId","type":"bytes32","internalType":"bytes32"},{"name":"ticketId","type":"uint256","internalType":"uint256"},{"name":"price","type":"uint256","internalType":"uint256"}],"outputs":[],"stateMutability":"nonpayable"},{"type":"function","name":"setTotalTicketsSold","inputs":[{"name":"showId","type":"bytes32","internalType":"bytes32"},{"name":"amount","type":"uint256","internalType":"uint256"}],"outputs":[],"stateMutability":"nonpayable"},{"type":"function","name":"showVault","inputs":[{"name":"","type":"bytes32","internalType":"bytes32"}],"outputs":[{"name":"","type":"uint256","internalType":"uint256"}],"stateMutability":"view"},{"type":"function","name":"shows","inputs":[{"name":"","type":"bytes32","internalType":"bytes32"}],"outputs":[{"name":"showId","type":"bytes32","internalType":"bytes32"},{"name":"name","type":"string","internalType":"string"},{"name":"description","type":"string","internalType":"string"},{"name":"organizer","type":"address","internalType":"address"},{"name":"venue","type":"tuple","internalType":"struct VenueTypes.Venue","components":[{"name":"name","type":"string","internalType":"string"},{"name":"coordinates","type":"tuple","internalType":"struct VenueTypes.Coordinates","components":[{"name":"lat","type":"int256","internalType":"int256"},{"name":"lon","type":"int256","internalType":"int256"}]},{"name":"totalCapacity","type":"uint256","internalType":"uint256"},{"name":"wallet","type":"address","internalType":"address"}]},{"name":"radius","type":"uint256","internalType":"uint256"},{"name":"ticketPrice","type":"tuple","internalType":"struct ShowTypes.TicketPrice","components":[{"name":"minPrice","type":"uint256","internalType":"uint256"},{"name":"maxPrice","type":"uint256","internalType":"uint256"}]},{"name":"sellOutThreshold","type":"uint256","internalType":"uint256"},{"name":"totalCapacity","type":"uint256","internalType":"uint256"},{"name":"status","type":"uint8","internalType":"enum ShowTypes.Status"},{"name":"isActive","type":"bool","internalType":"bool"},{"name":"expiry","type":"uint256","internalType":"uint256"},{"name":"showDate","type":"uint256","internalType":"uint256"}],"stateMutability":"view"},{"type":"function","name":"ticketContract","inputs":[],"outputs":[{"name":"","type":"address","internalType":"address"}],"stateMutability":"view"},{"type":"function","name":"ticketInstance","inputs":[],"outputs":[{"name":"","type":"address","internalType":"contract Ticket"}],"stateMutability":"view"},{"type":"function","name":"ticketOwnership","inputs":[{"name":"","type":"address","internalType":"address"},{"name":"","type":"bytes32","internalType":"bytes32"}],"outputs":[{"name":"","type":"bool","internalType":"bool"}],"stateMutability":"view"},{"type":"function","name":"ticketPricePaid","inputs":[{"name":"","type":"bytes32","internalType":"bytes32"},{"name":"","type":"uint256","internalType":"uint256"}],"outputs":[{"name":"","type":"uint256","internalType":"uint256"}],"stateMutability":"view"},{"type":"function","name":"totalTicketsSold","inputs":[{"name":"","type":"bytes32","internalType":"bytes32"}],"outputs":[{"name":"","type":"uint256","internalType":"uint256"}],"stateMutability":"view"},{"type":"function","name":"transferOwnership","inputs":[{"name":"newOwner","type":"address","internalType":"address"}],"outputs":[],"stateMutability":"nonpayable"},{"type":"function","name":"updateExpiry","inputs":[{"name":"showId","type":"bytes32","internalType":"bytes32"},{"name":"expiry","type":"uint256","internalType":"uint256"}],"outputs":[],"stateMutability":"nonpayable"},{"type":"function","name":"updateVenue","inputs":[{"name":"showId","type":"bytes32","internalType":"bytes32"},{"name":"newVenue","type":"tuple","internalType":"struct VenueTypes.Venue","components":[{"name":"name","type":"string","internalType":"string"},{"name":"coordinates","type":"tuple","internalType":"struct VenueTypes.Coordinates","components":[{"name":"lat","type":"int256","internalType":"int256"},{"name":"lon","type":"int256","internalType":"int256"}]},{"name":"totalCapacity","type":"uint256","internalType":"uint256"},{"name":"wallet","type":"address","internalType":"address"}]}],"outputs":[],"stateMutability":"nonpayable"},{"type":"function","name":"upgradeToAndCall","inputs":[{"name":"newImplementation","type":"address","internalType":"address"},{"name":"data","type":"bytes","internalType":"bytes"}],"outputs":[],"stateMutability":"payable"},{"type":"function","name":"venueContract","inputs":[],"outputs":[{"name":"","type":"address","internalType":"address"}],"stateMutability":"view"},{"type":"function","name":"venueRegistryContract","inputs":[],"outputs":[{"name":"","type":"address","internalType":"address"}],"stateMutability":"view"},{"type":"function","name":"venueRegistryInstance","inputs":[],"outputs":[{"name":"","type":"address","internalType":"contract IVenueRegistry"}],"stateMutability":"view"},{"type":"function","name":"walletToShowToTokenIds","inputs":[{"name":"","type":"bytes32","internalType":"bytes32"},{"name":"","type":"address","internalType":"address"},{"name":"","type":"uint256","internalType":"uint256"}],"outputs":[{"name":"","type":"uint256","internalType":"uint256"}],"stateMutability":"view"},{"type":"function","name":"withdrawRefund","inputs":[{"name":"showId","type":"bytes32","internalType":"bytes32"}],"outputs":[],"stateMutability":"nonpayable"},{"type":"event","name":"ExpiryUpdated","inputs":[{"name":"showId","type":"bytes32","indexed":true,"internalType":"bytes32"},{"name":"expiry","type":"uint256","indexed":false,"internalType":"uint256"}],"anonymous":false},{"type":"event","name":"Initialized","inputs":[{"name":"version","type":"uint64","indexed":false,"internalType":"uint64"}],"anonymous":false},{"type":"event","name":"OwnershipTransferred","inputs":[{"name":"previousOwner","type":"address","indexed":true,"internalType":"address"},{"name":"newOwner","type":"address","indexed":true,"internalType":"address"}],"anonymous":false},{"type":"event","name":"RefundWithdrawn","inputs":[{"name":"user","type":"address","indexed":true,"internalType":"address"},{"name":"showId","type":"bytes32","indexed":true,"internalType":"bytes32"},{"name":"amount","type":"uint256","indexed":false,"internalType":"uint256"}],"anonymous":false},{"type":"event","name":"ShowExpired","inputs":[{"name":"showId","type":"bytes32","indexed":true,"internalType":"bytes32"}],"anonymous":false},{"type":"event","name":"ShowProposed","inputs":[{"name":"showId","type":"bytes32","indexed":true,"internalType":"bytes32"},{"name":"organizer","type":"address","indexed":true,"internalType":"address"},{"name":"name","type":"string","indexed":false,"internalType":"string"},{"name":"artists","type":"address[]","indexed":false,"internalType":"address[]"},{"name":"description","type":"string","indexed":false,"internalType":"string"},{"name":"ticketPrice","type":"tuple","indexed":false,"internalType":"struct ShowTypes.TicketPrice","components":[{"name":"minPrice","type":"uint256","internalType":"uint256"},{"name":"maxPrice","type":"uint256","internalType":"uint256"}]},{"name":"sellOutThreshold","type":"uint256","indexed":false,"internalType":"uint256"},{"name":"split","type":"uint256[]","indexed":false,"internalType":"uint256[]"}],"anonymous":false},{"type":"event","name":"StatusUpdated","inputs":[{"name":"showId","type":"bytes32","indexed":true,"internalType":"bytes32"},{"name":"status","type":"uint8","indexed":false,"internalType":"enum ShowTypes.Status"}],"anonymous":false},{"type":"event","name":"TicketRefunded","inputs":[{"name":"user","type":"address","indexed":true,"internalType":"address"},{"name":"showId","type":"bytes32","indexed":true,"internalType":"bytes32"},{"name":"refundAmount","type":"uint256","indexed":false,"internalType":"uint256"}],"anonymous":false},{"type":"event","name":"Upgraded","inputs":[{"name":"implementation","type":"address","indexed":true,"internalType":"address"}],"anonymous":false},{"type":"event","name":"VenueUpdated","inputs":[{"name":"showId","type":"bytes32","indexed":true,"internalType":"bytes32"},{"name":"newVenue","type":"tuple","indexed":false,"internalType":"struct VenueTypes.Venue","components":[{"name":"name","type":"string","internalType":"string"},{"name":"coordinates","type":"tuple","internalType":"struct VenueTypes.Coordinates","components":[{"name":"lat","type":"int256","internalType":"int256"},{"name":"lon","type":"int256","internalType":"int256"}]},{"name":"totalCapacity","type":"uint256","internalType":"uint256"},{"name":"wallet","type":"address","internalType":"address"}]}],"anonymous":false},{"type":"event","name":"Withdrawal","inputs":[{"name":"showId","type":"bytes32","indexed":true,"internalType":"bytes32"},{"name":"recipient","type":"address","indexed":true,"internalType":"address"},{"name":"amount","type":"uint256","indexed":false,"internalType":"uint256"}],"anonymous":false},{"type":"error","name":"AddressEmptyCode","inputs":[{"name":"target","type":"address","internalType":"address"}]},{"type":"error","name":"ERC1967InvalidImplementation","inputs":[{"name":"implementation","type":"address","internalType":"address"}]},{"type":"error","name":"ERC1967NonPayable","inputs":[]},{"type":"error","name":"FailedInnerCall","inputs":[]},{"type":"error","name":"InvalidInitialization","inputs":[]},{"type":"error","name":"NotInitializing","inputs":[]},{"type":"error","name":"OwnableInvalidOwner","inputs":[{"name":"owner","type":"address","internalType":"address"}]},{"type":"error","name":"OwnableUnauthorizedAccount","inputs":[{"name":"account","type":"address","internalType":"address"}]},{"type":"error","name":"ReentrancyGuardReentrantCall","inputs":[]},{"type":"error","name":"UUPSUnauthorizedCallContext","inputs":[]},{"type":"error","name":"UUPSUnsupportedProxiableUUID","inputs":[{"name":"slot","type":"bytes32","internalType":"bytes32"}]}],"bytecode":{"object":"0x60a0604052306080526014805460ff60a01b1916905534801561002157600080fd5b50608051614a1761004b600039600081816132a1015281816132ca015261340b0152614a176000f3fe6080604052600436106103815760003560e01c8063787d76b8116101d1578063bafd4eb011610102578063cfefb3d5116100a0578063ef5023a51161006f578063ef5023a514610c53578063f2fde38b14610c73578063f812187314610c93578063fca4655914610cb357600080fd5b8063cfefb3d514610bd3578063de44006f14610bf3578063e30228be14610c13578063e9acfa7c14610c3357600080fd5b8063c4d66de8116100dc578063c4d66de814610b0a578063c56f70fd14610b2a578063c6ab848a14610b4a578063c73a839c14610b6a57600080fd5b8063bafd4eb014610a77578063bd47dc5c14610ab2578063be44d38d14610ad257600080fd5b80638dea15a11161016f578063977cb89e11610149578063977cb89e146109c0578063a03f4efe146109f9578063a2c8624c14610a19578063ad3cb1cc14610a3957600080fd5b80638dea15a11461093b578063925e8f891461095b57806393d4e1001461098857600080fd5b806385266635116101ab578063852666351461089e57806385ffa16c146108b1578063867e68af146108d15780638da5cb5b146108fe57600080fd5b8063787d76b81461083e5780637d8d6a221461085e5780637dad19db1461087e57600080fd5b806346079335116102b65780635b9a1e091161025457806366bc64cd1161022357806366bc64cd146107a65780636e9cacd0146107c6578063703ee4e514610809578063715018a61461082957600080fd5b80635b9a1e09146106d85780635c37da69146107055780636104187014610749578063620ec1e41461077657600080fd5b80634f1ef286116102905780634f1ef28614610670578063518193351461068357806352d1902d146106a357806358a86e1d146106b857600080fd5b806346079335146105b757806346c2c8a7146105f25780634ed372da1461063257600080fd5b806324f7827e1161032357806331a68da0116102fd57806331a68da0146105375780633c60d2d61461055757806341adf3ad146105775780634365c06e1461059757600080fd5b806324f7827e146104a957806327b1bf52146104c95780632f18ddfe146104ff57600080fd5b8063129e086b1161035f578063129e086b1461041557806316488906146104355780631a348e62146104595780631cf2103e1461048957600080fd5b80630233ce6a1461038657806302c9a8b5146103c35780630d08c3c9146103f3575b600080fd5b34801561039257600080fd5b506010546103a6906001600160a01b031681565b6040516001600160a01b0390911681526020015b60405180910390f35b3480156103cf57600080fd5b506103e36103de366004613bb5565b610cec565b60405190151581526020016103ba565b3480156103ff57600080fd5b5061041361040e366004613be1565b610d19565b005b34801561042157600080fd5b50610413610430366004613c03565b610e13565b34801561044157600080fd5b5061044b60015481565b6040519081526020016103ba565b34801561046557600080fd5b5061044b610474366004613c03565b6000908152600260205260409020600d015490565b34801561049557600080fd5b506013546103a6906001600160a01b031681565b3480156104b557600080fd5b506104136104c4366004613c03565b61130c565b3480156104d557600080fd5b506104e96104e4366004613c03565b6113cb565b6040516103ba9a99989796959493929190613d3c565b34801561050b57600080fd5b5061044b61051a366004613be1565b600760209081526000928352604080842090915290825290205481565b34801561054357600080fd5b50600f546103a6906001600160a01b031681565b34801561056357600080fd5b50610413610572366004613be1565b611708565b34801561058357600080fd5b50600d546103a6906001600160a01b031681565b3480156105a357600080fd5b506104136105b2366004613c03565b61193b565b3480156105c357600080fd5b506103e36105d2366004613bb5565b600860209081526000928352604080842090915290825290205460ff1681565b3480156105fe57600080fd5b5061062561060d366004613c03565b6000908152600260205260409020600f015460ff1690565b6040516103ba9190613de8565b34801561063e57600080fd5b506103e361064d366004613bb5565b6000908152600260205260409020600301546001600160a01b0391821691161490565b61041361067e366004613ecc565b6119f9565b34801561068f57600080fd5b50600b546103a6906001600160a01b031681565b3480156106af57600080fd5b5061044b611a14565b3480156106c457600080fd5b50600a546103a6906001600160a01b031681565b3480156106e457600080fd5b506106f86106f3366004613f30565b611a31565b6040516103ba9190613f90565b34801561071157600080fd5b506103e3610720366004613bb5565b60009081526009602090815260408083206001600160a01b039490941683529290522054151590565b34801561075557600080fd5b5061044b610764366004613c03565b60009081526006602052604090205490565b34801561078257600080fd5b5061044b610791366004613c03565b6000908152600260205260409020600e015490565b3480156107b257600080fd5b50600e546103a6906001600160a01b031681565b3480156107d257600080fd5b5061044b6107e1366004613f30565b60009182526005602090815260408084206001600160a01b0393909316845291905290205490565b34801561081557600080fd5b506014546103a6906001600160a01b031681565b34801561083557600080fd5b50610413611aa5565b34801561084a57600080fd5b50610413610859366004613be1565b611ab9565b34801561086a57600080fd5b5061044b610879366004613fa3565b611b13565b34801561088a57600080fd5b50600c546103a6906001600160a01b031681565b6104136108ac366004613c03565b611b51565b3480156108bd57600080fd5b5061044b6108cc366004613c03565b611bc0565b3480156108dd57600080fd5b5061044b6108ec366004613c03565b60046020526000908152604090205481565b34801561090a57600080fd5b507f9016d09d72d40fdae2fd8ceac6b6234c7706214fd39c1cd1e609a0528c199300546001600160a01b03166103a6565b34801561094757600080fd5b506012546103a6906001600160a01b031681565b34801561096757600080fd5b5061044b610976366004613c03565b60066020526000908152604090205481565b34801561099457600080fd5b5061044b6109a3366004613be1565b600091825260076020908152604080842092845291905290205490565b3480156109cc57600080fd5b506103a66109db366004613c03565b6000908152600260205260409020600301546001600160a01b031690565b348015610a0557600080fd5b506103e3610a14366004613fdb565b611be4565b348015610a2557600080fd5b5061044b610a34366004614183565b611ca4565b348015610a4557600080fd5b50610a6a604051806040016040528060058152602001640352e302e360dc1b81525081565b6040516103ba9190614279565b348015610a8357600080fd5b506103e3610a92366004613f30565b600360209081526000928352604080842090915290825290205460ff1681565b348015610abe57600080fd5b50610413610acd36600461428c565b612479565b348015610ade57600080fd5b5061044b610aed366004613f30565b600560209081526000928352604080842090915290825290205481565b348015610b1657600080fd5b50610413610b253660046142b8565b6124bf565b348015610b3657600080fd5b50610413610b453660046142d5565b6125f2565b348015610b5657600080fd5b506011546103a6906001600160a01b031681565b348015610b7657600080fd5b50610bc6610b85366004613c03565b6040805180820190915260008082526020820152506000908152600260209081526040918290208251808401909352600b8101548352600c01549082015290565b6040516103ba9190614380565b348015610bdf57600080fd5b50610413610bee366004613c03565b6126c4565b348015610bff57600080fd5b50610413610c0e366004613fa3565b6128e1565b348015610c1f57600080fd5b506015546103a6906001600160a01b031681565b348015610c3f57600080fd5b50610413610c4e366004613c03565b612942565b348015610c5f57600080fd5b50610413610c6e366004613c03565b612ba5565b348015610c7f57600080fd5b50610413610c8e3660046142b8565b612cd6565b348015610c9f57600080fd5b50610413610cae366004614397565b612d11565b348015610cbf57600080fd5b50610cd3610cce366004613c03565b612df5565b6040516103ba9d9c9b9a99989796959493929190614419565b60008181526003602090815260408083206001600160a01b038616845290915290205460ff165b92915050565b600a546001600160a01b03163314610d4c5760405162461bcd60e51b8152600401610d43906144cb565b60405180910390fd5b6000828152600260205260408120600f015460ff166007811115610d7257610d72613d04565b14610dbf5760405162461bcd60e51b815260206004820152601f60248201527f53686f77206d75737420626520696e2050726f706f73656420737461747573006044820152606401610d43565b600082815260026020526040908190206011018290555182907fe4f26fcd7ae101f4d7c47cac6fc616fbb05e9b41e67b7a00b67b35f13654fce090610e079084815260200190565b60405180910390a25050565b600a546001600160a01b03163314610e3d5760405162461bcd60e51b8152600401610d43906144cb565b600081815260026020819052604090912090600f82015460ff166007811115610e6857610e68613d04565b14610ead5760405162461bcd60e51b815260206004820152601560248201527414da1bddc81b5d5cdd081899481058d8d95c1d1959605a1b6044820152606401610d43565b60008281526004602052604090205480610f025760405162461bcd60e51b81526020600482015260166024820152754e6f2066756e647320746f206469737472696275746560501b6044820152606401610d43565b600082601001805480602002602001604051908101604052809291908181526020018280548015610f5257602002820191906000526020600020905b815481526020019060010190808311610f3e575b505050505090506000606483610f689190614530565b60008681526005602090815260408083206015546001600160a01b0316845290915290208190559050610f9b8184614552565b92506000606483600081518110610fb457610fb4614565565b602002602001015185610fc7919061457b565b610fd19190614530565b600087815260056020908152604080832060038a01546001600160a01b0316845290915281208290559091505b60048601548110156110ac57600060648561101a846001614592565b8151811061102a5761102a614565565b60200260200101518761103d919061457b565b6110479190614530565b905080600560008a8152602001908152602001600020600089600401858154811061107457611074614565565b60009182526020808320909101546001600160a01b0316835282019290925260400190205550806110a4816145a5565b915050610ffe565b506000606484600186516110c09190614552565b815181106110d0576110d0614565565b6020026020010151866110e3919061457b565b6110ed9190614530565b600088815260056020908152604080832060098b01546001600160a01b0390811685529083528184208590558b845260049283905281842093909355600f8a01805460ff19168317905560115460038b0154915163416b56db60e01b815294955083169363416b56db9361116b9392169160019182918291016145be565b600060405180830381600087803b15801561118557600080fd5b505af1158015611199573d6000803e3d6000fd5b5050505060005b600487015481101561125a576011546004880180546001600160a01b039092169163416b56db9190849081106111d8576111d8614565565b6000918252602090912001546040516001600160e01b031960e084901b168152611215916001600160a01b031690600190819081906004016145be565b600060405180830381600087803b15801561122f57600080fd5b505af1158015611243573d6000803e3d6000fd5b505050508080611252906145a5565b9150506111a0565b50601154600987015460405163416b56db60e01b81526001600160a01b039283169263416b56db9261129892911690600190819081906004016145be565b600060405180830381600087803b1580156112b257600080fd5b505af11580156112c6573d6000803e3d6000fd5b50505050867f8ed894b6f384ca9c829b9aa5b056bc9106a90845a15616607e975d4ad488ee6760046040516112fb9190613de8565b60405180910390a250505050505050565b600b546001600160a01b031633148061132f5750600a546001600160a01b031633145b8061133957503330145b6113555760405162461bcd60e51b8152600401610d43906145e4565b6000818152600260209081526040808320600690925290912054600d820154600e8301546064916113859161457b565b61138f9190614530565b81101580156113b657506000600f83015460ff1660078111156113b4576113b4613d04565b145b156113c6576113c6836001613078565b505050565b606080600060606113da613aa8565b6040805180820190915260008082526020820152600087815260026020819052604082206003810154600d820154600e830154600f84015460018501805488978897889790969395918701946001600160a01b039091169360048801936005890193600b8a0193909160ff80831692610100900416908a9061145b90614652565b80601f016020809104026020016040519081016040528092919081815260200182805461148790614652565b80156114d45780601f106114a9576101008083540402835291602001916114d4565b820191906000526020600020905b8154815290600101906020018083116114b757829003601f168201915b505050505099508880546114e790614652565b80601f016020809104026020016040519081016040528092919081815260200182805461151390614652565b80156115605780601f1061153557610100808354040283529160200191611560565b820191906000526020600020905b81548152906001019060200180831161154357829003601f168201915b50505050509850868054806020026020016040519081016040528092919081815260200182805480156115bc57602002820191906000526020600020905b81546001600160a01b0316815260019091019060200180831161159e575b50505050509650856040518060800160405290816000820180546115df90614652565b80601f016020809104026020016040519081016040528092919081815260200182805461160b90614652565b80156116585780601f1061162d57610100808354040283529160200191611658565b820191906000526020600020905b81548152906001019060200180831161163b57829003601f168201915b5050505050815260200160018201604051806040016040529081600082015481526020016001820154815250508152602001600382015481526020016004820160009054906101000a90046001600160a01b03166001600160a01b03166001600160a01b0316815250509550846040518060400160405290816000820154815260200160018201548152505094509a509a509a509a509a509a509a509a509a509a50509193959799509193959799565b6000828152600260205260408120600f015460ff16600781111561172e5761172e613d04565b148061175f575060056000838152600260205260409020600f015460ff16600781111561175d5761175d613d04565b145b8061178f575060076000838152600260205260409020600f015460ff16600781111561178d5761178d613d04565b145b806117bf575060016000838152600260205260409020600f015460ff1660078111156117bd576117bd613d04565b145b6117fe5760405162461bcd60e51b815260206004820152601060248201526f119d5b991cc8185c99481b1bd8dad95960821b6044820152606401610d43565b611809338383611be4565b6118685760405162461bcd60e51b815260206004820152602a60248201527f5573657220646f6573206e6f74206f776e20746865207469636b657420666f7260448201526920746869732073686f7760b01b6064820152608401610d43565b6000828152600760209081526040808320848452909152902054806118c65760405162461bcd60e51b8152602060048201526014602482015273151a58dad95d081b9bdd081c1d5c98da185cd95960621b6044820152606401610d43565b6118d18383836130db565b604051339082156108fc029083906000818181858888f193505050501580156118fe573d6000803e3d6000fd5b50604051818152839033907f6327daeea6ce26abf9f96cd84eee9cb40d1d5b88f7f5990914540e392446bf049060200160405180910390a3505050565b600a546001600160a01b031633146119655760405162461bcd60e51b8152600401610d43906144cb565b6000818152600260205260409020601181015442108015906119a057506007600f82015460ff16600781111561199d5761199d613d04565b14155b156119f557600f8101805460ff19166007179055600180549060006119c48361468c565b909155505060405182907f82b7e047c31ec5019ec913d8f5f2257c393096c9e63f6214f001f4b27e4dc0c890600090a25b5050565b611a01613296565b611a0a8261333b565b6119f58282613343565b6000611a1e613400565b506000805160206149c283398151915290565b60008281526009602090815260408083206001600160a01b0385168452825291829020805483518184028101840190945280845260609392830182828015611a9857602002820191906000526020600020905b815481526020019060010190808311611a84575b5050505050905092915050565b611aad613449565b611ab760006134a4565b565b600a546001600160a01b03163314611ae35760405162461bcd60e51b8152600401610d43906144cb565b600082815260066020526040902054611afd908290614592565b6000928352600660205260409092209190915550565b60096020528260005260406000206020528160005260406000208181548110611b3b57600080fd5b9060005260206000200160009250925050505481565b600b546001600160a01b0316331480611b745750600a546001600160a01b031633145b80611b7e57503330145b611b9a5760405162461bcd60e51b8152600401610d43906145e4565b60008181526004602052604081208054349290611bb8908490614592565b909155505050565b600081815260026020526040812060040154611bdd816001614592565b9392505050565b60008281526009602090815260408083206001600160a01b0387168452825280832080548251818502810185019093528083528493830182828015611c4857602002820191906000526020600020905b815481526020019060010190808311611c34575b5050505050905060005b8151811015611c985783828281518110611c6e57611c6e614565565b602002602001015103611c8657600192505050611bdd565b80611c90816145a5565b915050611c52565b50600095945050505050565b6000808a5111611ce95760405162461bcd60e51b815260206004820152601060248201526f13985b59481a5cc81c995c5d5a5c995960821b6044820152606401610d43565b60008611611d455760405162461bcd60e51b815260206004820152602360248201527f56656e756520726164697573206d75737420626520677265617465722074686160448201526206e20360ec1b6064820152608401610d43565b60008411611da35760405162461bcd60e51b815260206004820152602560248201527f546f74616c206361706163697479206d75737420626520677265617465722074604482015264068616e20360dc1b6064820152608401610d43565b6000885111611df45760405162461bcd60e51b815260206004820152601c60248201527f4174206c65617374206f6e6520617274697374207265717569726564000000006044820152606401610d43565b825160208401511015611e6f5760405162461bcd60e51b815260206004820152603d60248201527f4d6178207469636b6574207072696365206d757374206265206772656174657260448201527f206f7220657175616c20746f206d696e207469636b65742070726963650000006064820152608401610d43565b60328560ff1610158015611e87575060648560ff1611155b611ee95760405162461bcd60e51b815260206004820152602d60248201527f53656c6c2d6f7574207468726573686f6c64206d75737420626520626574776560448201526c0656e20353020616e642031303609c1b6064820152608401610d43565b865163055d4a7f1913801590611f045750865163055d4a8012155b611f435760405162461bcd60e51b815260206004820152601060248201526f496e76616c6964206c6174697475646560801b6044820152606401610d43565b630aba94ff19876020015112158015611f645750630aba9500876020015113155b611fa45760405162461bcd60e51b8152602060048201526011602482015270496e76616c6964206c6f6e67697475646560781b6044820152606401610d43565b601454600160a01b900460ff16611ffd5760405162461bcd60e51b815260206004820152601e60248201527f436f6e747261637420616464726573736573206d7573742062652073657400006044820152606401610d43565b61200633613515565b6120525760405162461bcd60e51b815260206004820152601c60248201527f4f7267616e697a6572206d7573742062652072656769737465726564000000006044820152606401610d43565b60005b88518110156120de5761208089828151811061207357612073614565565b60200260200101516135a5565b6120cc5760405162461bcd60e51b815260206004820152601e60248201527f416c6c2061727469737473206d757374206265207265676973746572656400006044820152606401610d43565b806120d6816145a5565b915050612055565b506120ea8289516135db565b865160208089015160405161210b9333938d9391928c918c918c91016146a3565b60405160208183030381529060405280519060200120905060004262278d006121349190614592565b9050600060405180608001604052806040518060200160405280600081525081526020018a815260200187815260200160006001600160a01b03168152509050604051806101e001604052808481526020018d81526020018c8152602001336001600160a01b031681526020018b81526020018281526020018981526020018681526020018860ff168152602001878152602001600060078111156121db576121db613d04565b8152600160208083018290526040808401899052606084018790526000608090940184905287845260028252909220835181559183015190820190612220908261476a565b5060408201516002820190612235908261476a565b5060608201516003820180546001600160a01b0319166001600160a01b0390921691909117905560808201518051612277916004840191602090910190613aeb565b5060a0820151805160058301908190612290908261476a565b50602082810151805160018481019190915590820151600284015560408401516003840155606090930151600490920180546001600160a01b0319166001600160a01b039093169290921790915560c0840151600a84015560e08401518051600b8501550151600c830155610100830151600d830155610120830151600e830155610140830151600f830180549192909160ff19169083600781111561233857612338613d04565b0217905550610160820151600f820180549115156101000261ff00199092169190911790556101808201518051612379916010840191602090910190613b50565b506101a082015160118201556101c09091015160129091015560005b8a518110156124085760008481526003602052604081208c51600192908e90859081106123c4576123c4614565565b6020908102919091018101516001600160a01b03168252810191909152604001600020805460ff191691151591909117905580612400816145a5565b915050612395565b5060018054906000612419836145a5565b9190505550336001600160a01b0316837f5829640c990aaf491e04dbb3bede81c191d55a802b99b9194101fa3adece09e08e8d8f8a8d8b6040516124629695949392919061482a565b60405180910390a350509998505050505050505050565b600a546001600160a01b031633146124a35760405162461bcd60e51b8152600401610d43906144cb565b6000928352600760209081526040808520938552929052912055565b7ff0c57e16840df040f15088dc2f81fe391c3923bec73e23a9662efc9c229c6a008054600160401b810460ff16159067ffffffffffffffff166000811580156125055750825b905060008267ffffffffffffffff1660011480156125225750303b155b905081158015612530575080155b1561254e5760405163f92ee8a960e01b815260040160405180910390fd5b845467ffffffffffffffff19166001178555831561257857845460ff60401b1916600160401b1785555b61258061370a565b6125898661371a565b601580546001600160a01b0319166001600160a01b03881617905583156125ea57845460ff60401b19168555604051600181527fc7f505b2f371ae2175ee4913f4499e1f2633a7b5936321eed1cdaeb6115181d29060200160405180910390a15b505050505050565b600b546001600160a01b0316331461261c5760405162461bcd60e51b8152600401610d43906144cb565b6000828152600260205260409020815182906005830190819061263f908261476a565b5060208281015180516001840155015160028201556040808301516003830155606090920151600490910180546001600160a01b0319166001600160a01b039092169190911790555183907f7ff310b69b4d32bc970badd2c29e0539de33aad17a7679f5484eb09ad6fd5fc6906126b790859061489e565b60405180910390a2505050565b60008181526002602052604090206003015481906001600160a01b03163314806126f357506126f33382610cec565b6127305760405162461bcd60e51b815260206004820152600e60248201526d139bdd08185d5d1a1bdc9a5e995960921b6044820152606401610d43565b60008281526002602052604090206004600f82015460ff16600781111561275957612759613d04565b1461279f5760405162461bcd60e51b815260206004820152601660248201527514da1bddc81b5d5cdd0818994810dbdb5c1b195d195960521b6044820152606401610d43565b60128101546127b1906202a300614592565b42146127ff5760405162461bcd60e51b815260206004820152601c60248201527f53686f7720636f6f6c20646f776e20686173206e6f7420656e646564000000006044820152606401610d43565b60008381526005602090815260408083203384529091529020548061285d5760405162461bcd60e51b81526020600482015260146024820152734e6f2066756e647320746f20776974686472617760601b6044820152606401610d43565b600084815260056020908152604080832033808552925280832083905551909183156108fc02918491818181858888f193505050501580156128a3573d6000803e3d6000fd5b50604051818152339085907f028ab133c73f6c00ad0c5896ef40eff18378acd3d7f2ecf573c2706582bf73bf9060200160405180910390a350505050565b600a546001600160a01b0316331461290b5760405162461bcd60e51b8152600401610d43906144cb565b60009283526009602090815260408085206001600160a01b0390941685529281529183208054600181018255908452919092200155565b61294a61372b565b60008181526002602052604090206006600f82015460ff16600781111561297357612973613d04565b148061299757506007600f82015460ff16600781111561299557612995613d04565b145b806129ba57506005600f82015460ff1660078111156129b8576129b8613d04565b145b806129dd57506000600f82015460ff1660078111156129db576129db613d04565b145b612a405760405162461bcd60e51b815260206004820152602e60248201527f526566756e647320617265206e6f7420617661696c61626c6520666f7220746860448201526d69732073686f772073746174757360901b6064820152608401610d43565b600082815260056020908152604080832033845290915290205480612a9e5760405162461bcd60e51b81526020600482015260146024820152734e6f2066756e647320746f20776974686472617760601b6044820152606401610d43565b80471015612af95760405162461bcd60e51b815260206004820152602260248201527f496e73756666696369656e742066756e647320696e2074686520636f6e74726160448201526118dd60f21b6064820152608401610d43565b600083815260056020908152604080832033808552925280832083905551909183156108fc02918491818181858888f19350505050158015612b3f573d6000803e3d6000fd5b50604051818152839033907fa4d59773de0ef2d6faf35ac70331de09c09cb20909bf7453dd0d620524bd1fc99060200160405180910390a35050612ba260017f9b779b17422d0df92223018b32b4d1fa46e071723d6817e2486d003becc55f0055565b50565b60008181526002602052604090206003015481906001600160a01b0316331480612bd45750612bd43382610cec565b612c115760405162461bcd60e51b815260206004820152600e60248201526d139bdd08185d5d1a1bdc9a5e995960921b6044820152606401610d43565b60008281526002602052604090206001600f82015460ff166007811115612c3a57612c3a613d04565b1480612c5e57506002600f82015460ff166007811115612c5c57612c5c613d04565b145b80612c8157506003600f82015460ff166007811115612c7f57612c7f613d04565b145b612cc45760405162461bcd60e51b815260206004820152601460248201527353686f77206d7573742062652050656e64696e6760601b6044820152606401610d43565b600f01805460ff191660051790555050565b612cde613449565b6001600160a01b038116612d0857604051631e4fbdf760e01b815260006004820152602401610d43565b612ba2816134a4565b601454600160a01b900460ff1615612d6b5760405162461bcd60e51b815260206004820152601e60248201527f50726f746f636f6c2061646472657373657320616c72656164792073657400006044820152606401610d43565b600a80546001600160a01b039788166001600160a01b03199182168117909255600b805497891697821697909717909655601080548716909117905560118054948716948616949094179093556012805492861692851692909217909155601380549185169190931617909155601480546001600160a81b0319169190921617600160a01b179055565b60026020526000908152604090208054600182018054919291612e1790614652565b80601f0160208091040260200160405190810160405280929190818152602001828054612e4390614652565b8015612e905780601f10612e6557610100808354040283529160200191612e90565b820191906000526020600020905b815481529060010190602001808311612e7357829003601f168201915b505050505090806002018054612ea590614652565b80601f0160208091040260200160405190810160405280929190818152602001828054612ed190614652565b8015612f1e5780601f10612ef357610100808354040283529160200191612f1e565b820191906000526020600020905b815481529060010190602001808311612f0157829003601f168201915b5050505050908060030160009054906101000a90046001600160a01b03169080600501604051806080016040529081600082018054612f5c90614652565b80601f0160208091040260200160405190810160405280929190818152602001828054612f8890614652565b8015612fd55780601f10612faa57610100808354040283529160200191612fd5565b820191906000526020600020905b815481529060010190602001808311612fb857829003601f168201915b5050509183525050604080518082018252600184015481526002840154602082810191909152808401919091526003840154828401526004909301546001600160a01b0316606090920191909152600a8401548151808301909252600b8501548252600c85015492820192909252600d840154600e850154600f86015460118701546012909701549596949593949293919260ff8083169361010090930416918d565b6000828152600260205260409020600f01805482919060ff191660018360078111156130a6576130a6613d04565b0217905550817f8ed894b6f384ca9c829b9aa5b056bc9106a90845a15616607e975d4ad488ee6782604051610e079190613de8565b600083815260026020908152604080832060069092528220805491926131008361468c565b909155505060008481526004602052604081208054849290613123908490614552565b9091555050600084815260056020908152604080832033845290915281208054849290613151908490614592565b9091555050600084815260066020526040812054600d830154600e84015491929160649161317e9161457b565b6131889190614530565b905080821080156131b157506001600f84015460ff1660078111156131af576131af613d04565b145b156131fe57600f8301805460ff1916905560405186907f8ed894b6f384ca9c829b9aa5b056bc9106a90845a15616607e975d4ad488ee67906131f590600090613de8565b60405180910390a25b600086815260076020908152604080832088845290915281205561322386338761379b565b6010546040516387f9ca5d60e01b815260048101879052600160248201523360448201526001600160a01b03909116906387f9ca5d90606401600060405180830381600087803b15801561327657600080fd5b505af115801561328a573d6000803e3d6000fd5b50505050505050505050565b306001600160a01b037f000000000000000000000000000000000000000000000000000000000000000016148061331d57507f00000000000000000000000000000000000000000000000000000000000000006001600160a01b03166133116000805160206149c2833981519152546001600160a01b031690565b6001600160a01b031614155b15611ab75760405163703e46dd60e11b815260040160405180910390fd5b612ba2613449565b816001600160a01b03166352d1902d6040518163ffffffff1660e01b8152600401602060405180830381865afa92505050801561339d575060408051601f3d908101601f1916820190925261339a918101906148b1565b60015b6133c557604051634c9c8ce360e01b81526001600160a01b0383166004820152602401610d43565b6000805160206149c283398151915281146133f657604051632a87526960e21b815260048101829052602401610d43565b6113c6838361387a565b306001600160a01b037f00000000000000000000000000000000000000000000000000000000000000001614611ab75760405163703e46dd60e11b815260040160405180910390fd5b3361347b7f9016d09d72d40fdae2fd8ceac6b6234c7706214fd39c1cd1e609a0528c199300546001600160a01b031690565b6001600160a01b031614611ab75760405163118cdaa760e01b8152336004820152602401610d43565b7f9016d09d72d40fdae2fd8ceac6b6234c7706214fd39c1cd1e609a0528c19930080546001600160a01b031981166001600160a01b03848116918217845560405192169182907f8be0079c531659141344cd1fd0a4f28419497f9722a3daafe3b4186f6b6457e090600090a3505050565b601354604051634092f2b760e01b81526001600160a01b0383811660048301526000928392911690634092f2b7906024015b600060405180830381865afa158015613564573d6000803e3d6000fd5b505050506040513d6000823e601f3d908101601f1916820160405261358c9190810190614917565b6001600160a01b03908116951694909414949350505050565b601254604051632e52720160e21b81526001600160a01b038381166004830152600092839291169063b949c80490602401613547565b6135e6816002614592565b8251146136695760405162461bcd60e51b8152602060048201526044602482018190527f53706c6974206172726179206d75737420686176652061206c656e6774682065908201527f7175616c20746f20746865206e756d626572206f66206172746973747320706c6064820152633ab9901960e11b608482015260a401610d43565b6000805b83518110156136af5783818151811061368857613688614565565b60200260200101518261369b9190614592565b9150806136a7816145a5565b91505061366d565b50806064146113c65760405162461bcd60e51b815260206004820152602160248201527f53706c69742070657263656e7461676573206d7573742073756d20746f2031306044820152600360fc1b6064820152608401610d43565b6137126138d0565b611ab7613919565b6137226138d0565b612ba281613921565b7f9b779b17422d0df92223018b32b4d1fa46e071723d6817e2486d003becc55f0080546001190161376f57604051633ee5aeb560e01b815260040160405180910390fd5b60029055565b60017f9b779b17422d0df92223018b32b4d1fa46e071723d6817e2486d003becc55f0055565b60008381526009602090815260408083206001600160a01b03861684529091528120905b815481101561387357828282815481106137db576137db614565565b90600052602060002001540361386157815482906137fb90600190614552565b8154811061380b5761380b614565565b906000526020600020015482828154811061382857613828614565565b9060005260206000200181905550818054806138465761384661498f565b60019003818190600052602060002001600090559055613873565b8061386b816145a5565b9150506137bf565b5050505050565b61388382613929565b6040516001600160a01b038316907fbc7cd75a20ee27fd9adebab32041f755214dbc6bffa90cc0225b39da2e5c2d3b90600090a28051156138c8576113c6828261398e565b6119f5613a04565b7ff0c57e16840df040f15088dc2f81fe391c3923bec73e23a9662efc9c229c6a0054600160401b900460ff16611ab757604051631afcd79f60e31b815260040160405180910390fd5b6137756138d0565b612cde6138d0565b806001600160a01b03163b60000361395f57604051634c9c8ce360e01b81526001600160a01b0382166004820152602401610d43565b6000805160206149c283398151915280546001600160a01b0319166001600160a01b0392909216919091179055565b6060600080846001600160a01b0316846040516139ab91906149a5565b600060405180830381855af49150503d80600081146139e6576040519150601f19603f3d011682016040523d82523d6000602084013e6139eb565b606091505b50915091506139fb858383613a23565b95945050505050565b3415611ab75760405163b398979f60e01b815260040160405180910390fd5b606082613a3857613a3382613a7f565b611bdd565b8151158015613a4f57506001600160a01b0384163b155b15613a7857604051639996b31560e01b81526001600160a01b0385166004820152602401610d43565b5080611bdd565b805115613a8f5780518082602001fd5b604051630a12f52160e11b815260040160405180910390fd5b604051806080016040528060608152602001613ad7604051806040016040528060008152602001600081525090565b815260006020820181905260409091015290565b828054828255906000526020600020908101928215613b40579160200282015b82811115613b4057825182546001600160a01b0319166001600160a01b03909116178255602090920191600190910190613b0b565b50613b4c929150613b8b565b5090565b828054828255906000526020600020908101928215613b40579160200282015b82811115613b40578251825591602001919060010190613b70565b5b80821115613b4c5760008155600101613b8c565b6001600160a01b0381168114612ba257600080fd5b60008060408385031215613bc857600080fd5b8235613bd381613ba0565b946020939093013593505050565b60008060408385031215613bf457600080fd5b50508035926020909101359150565b600060208284031215613c1557600080fd5b5035919050565b60005b83811015613c37578181015183820152602001613c1f565b50506000910152565b60008151808452613c58816020860160208601613c1c565b601f01601f19169290920160200192915050565b600081518084526020808501945080840160005b83811015613ca55781516001600160a01b031687529582019590820190600101613c80565b509495945050505050565b6000815160a08452613cc560a0850182613c40565b6020848101518051878301520151604080870191909152840151606080870191909152909301516001600160a01b031660809094019390935250919050565b634e487b7160e01b600052602160045260246000fd5b60088110613d3857634e487b7160e01b600052602160045260246000fd5b9052565b6000610160808352613d508184018e613c40565b90508281036020840152613d64818d613c40565b6001600160a01b038c16604085015283810360608501529050613d87818b613c6c565b90508281036080840152613d9b818a613cb0565b885160a0850152602089015160c08501529150613db59050565b8560e083015284610100830152613dd0610120830185613d1a565b8215156101408301529b9a5050505050505050505050565b60208101610d138284613d1a565b634e487b7160e01b600052604160045260246000fd5b6040516080810167ffffffffffffffff81118282101715613e2f57613e2f613df6565b60405290565b604051601f8201601f1916810167ffffffffffffffff81118282101715613e5e57613e5e613df6565b604052919050565b600067ffffffffffffffff821115613e8057613e80613df6565b50601f01601f191660200190565b6000613ea1613e9c84613e66565b613e35565b9050828152838383011115613eb557600080fd5b828260208301376000602084830101529392505050565b60008060408385031215613edf57600080fd5b8235613eea81613ba0565b9150602083013567ffffffffffffffff811115613f0657600080fd5b8301601f81018513613f1757600080fd5b613f2685823560208401613e8e565b9150509250929050565b60008060408385031215613f4357600080fd5b823591506020830135613f5581613ba0565b809150509250929050565b600081518084526020808501945080840160005b83811015613ca557815187529582019590820190600101613f74565b602081526000611bdd6020830184613f60565b600080600060608486031215613fb857600080fd5b833592506020840135613fca81613ba0565b929592945050506040919091013590565b600080600060608486031215613ff057600080fd5b8335613ffb81613ba0565b95602085013595506040909401359392505050565b600082601f83011261402157600080fd5b611bdd83833560208501613e8e565b600067ffffffffffffffff82111561404a5761404a613df6565b5060051b60200190565b600082601f83011261406557600080fd5b81356020614075613e9c83614030565b82815260059290921b8401810191818101908684111561409457600080fd5b8286015b848110156140b85780356140ab81613ba0565b8352918301918301614098565b509695505050505050565b6000604082840312156140d557600080fd5b6040516040810181811067ffffffffffffffff821117156140f8576140f8613df6565b604052823581526020928301359281019290925250919050565b803560ff8116811461412357600080fd5b919050565b600082601f83011261413957600080fd5b81356020614149613e9c83614030565b82815260059290921b8401810191818101908684111561416857600080fd5b8286015b848110156140b8578035835291830191830161416c565b60008060008060008060008060006101608a8c0312156141a257600080fd5b893567ffffffffffffffff808211156141ba57600080fd5b6141c68d838e01614010565b9a5060208c01359150808211156141dc57600080fd5b6141e88d838e01614010565b995060408c01359150808211156141fe57600080fd5b61420a8d838e01614054565b98506142198d60608e016140c3565b975060a08c0135965061422e60c08d01614112565b955060e08c013594506142458d6101008e016140c3565b93506101408c013591508082111561425c57600080fd5b506142698c828d01614128565b9150509295985092959850929598565b602081526000611bdd6020830184613c40565b6000806000606084860312156142a157600080fd5b505081359360208301359350604090920135919050565b6000602082840312156142ca57600080fd5b8135611bdd81613ba0565b600080604083850312156142e857600080fd5b82359150602083013567ffffffffffffffff8082111561430757600080fd5b9084019060a0828703121561431b57600080fd5b614323613e0c565b82358281111561433257600080fd5b61433e88828601614010565b82525061434e87602085016140c3565b6020820152606083013560408201526080830135925061436d83613ba0565b8260608201528093505050509250929050565b815181526020808301519082015260408101610d13565b60008060008060008060c087890312156143b057600080fd5b86356143bb81613ba0565b955060208701356143cb81613ba0565b945060408701356143db81613ba0565b935060608701356143eb81613ba0565b925060808701356143fb81613ba0565b915060a087013561440b81613ba0565b809150509295509295509295565b8d81526101c0602082015260006144346101c083018f613c40565b8281036040840152614446818f613c40565b6001600160a01b038e16606085015283810360808501529050614469818d613cb0565b9150508960a083015261448960c083018a80518252602090810151910152565b87610100830152866101208301526144a5610140830187613d1a565b8415156101608301526101808201939093526101a001529b9a5050505050505050505050565b6020808252602f908201527f4f6e6c7920746865205469636b657420636f6e74726163742063616e2063616c60408201526e36103a3434b990333ab731ba34b7b760891b606082015260800190565b634e487b7160e01b600052601160045260246000fd5b60008261454d57634e487b7160e01b600052601260045260246000fd5b500490565b81810381811115610d1357610d1361451a565b634e487b7160e01b600052603260045260246000fd5b8082028115828204841417610d1357610d1361451a565b80820180821115610d1357610d1361451a565b6000600182016145b7576145b761451a565b5060010190565b6001600160a01b0394909416845260208401929092526040830152606082015260800190565b60208082526048908201527f4f6e6c79207468652056656e75652c205469636b657420636f6e74726163742c60408201527f206f72207468697320636f6e74726163742063616e2063616c6c207468697320606082015267333ab731ba34b7b760c11b608082015260a00190565b600181811c9082168061466657607f821691505b60208210810361468657634e487b7160e01b600052602260045260246000fd5b50919050565b60008161469b5761469b61451a565b506000190190565b6bffffffffffffffffffffffff198860601b16815260006014820188516020808b0160005b838110156146ed5781516001600160a01b0316855293820193908201906001016146c8565b5050988252509687019590955250604085019290925260f81b6001600160f81b031916606084015260618301525060810192915050565b601f8211156113c657600081815260208120601f850160051c8101602086101561474b5750805b601f850160051c820191505b818110156125ea57828155600101614757565b815167ffffffffffffffff81111561478457614784613df6565b614798816147928454614652565b84614724565b602080601f8311600181146147cd57600084156147b55750858301515b600019600386901b1c1916600185901b1785556125ea565b600085815260208120601f198616915b828110156147fc578886015182559484019460019091019084016147dd565b508582101561481a5787850151600019600388901b60f8161c191681555b5050505050600190811b01905550565b60e08152600061483d60e0830189613c40565b828103602084015261484f8189613c6c565b905082810360408401526148638188613c40565b8651606085015260208701516080850152905060ff851660a084015282810360c08401526148918185613f60565b9998505050505050505050565b602081526000611bdd6020830184613cb0565b6000602082840312156148c357600080fd5b5051919050565b600082601f8301126148db57600080fd5b81516148e9613e9c82613e66565b8181528460208386010111156148fe57600080fd5b61490f826020830160208701613c1c565b949350505050565b60008060006060848603121561492c57600080fd5b835167ffffffffffffffff8082111561494457600080fd5b614950878388016148ca565b9450602086015191508082111561496657600080fd5b50614973868287016148ca565b925050604084015161498481613ba0565b809150509250925092565b634e487b7160e01b600052603160045260246000fd5b600082516149b7818460208701613c1c565b919091019291505056fe360894a13ba1a3210667c828492db98dca3e2076cc3735a920a3ca505d382bbca2646970667358221220176cdf606dcc43ea29b861e4a12fb56ed624bf3b7ea4b7e779ef93774e6baadc64736f6c63430008140033","linkReferences":{}},"methodIdentifiers":{"SELLOUT_PROTOCOL_WALLET()":"e30228be","UPGRADE_INTERFACE_VERSION()":"ad3cb1cc","activeShowCount()":"16488906","addTokenIdToWallet(bytes32,address,uint256)":"de44006f","artistRegistryContract()":"41adf3ad","artistRegistryInstance()":"8dea15a1","cancelShow(bytes32)":"ef5023a5","checkAndUpdateExpiry(bytes32)":"4365c06e","checkAndUpdateShowStatus(bytes32)":"24f7827e","completeShow(bytes32)":"129e086b","depositToVault(bytes32)":"85266635","getNumberOfVoters(bytes32)":"85ffa16c","getOrganizer(bytes32)":"977cb89e","getPendingRefund(bytes32,address)":"6e9cacd0","getSellOutThreshold(bytes32)":"1a348e62","getShowById(bytes32)":"27b1bf52","getShowStatus(bytes32)":"46c2c8a7","getTicketPrice(bytes32)":"c73a839c","getTicketPricePaid(bytes32,uint256)":"93d4e100","getTotalCapacity(bytes32)":"620ec1e4","getTotalTicketsSold(bytes32)":"61041870","getWalletTokenIds(bytes32,address)":"5b9a1e09","hasTicket(address,bytes32)":"5c37da69","initialize(address)":"c4d66de8","isArtist(address,bytes32)":"02c9a8b5","isArtistMapping(bytes32,address)":"bafd4eb0","isOrganizer(address,bytes32)":"4ed372da","isTicketOwner(address,bytes32,uint256)":"a03f4efe","organizerRegistryContract()":"66bc64cd","organizerRegistryInstance()":"1cf2103e","owner()":"8da5cb5b","payout(bytes32)":"cfefb3d5","pendingWithdrawals(bytes32,address)":"be44d38d","proposeShow(string,string,address[],(int256,int256),uint256,uint8,uint256,(uint256,uint256),uint256[])":"a2c8624c","proxiableUUID()":"52d1902d","referralContract()":"7dad19db","referralInstance()":"c6ab848a","refundTicket(bytes32,uint256)":"3c60d2d6","renounceOwnership()":"715018a6","setProtocolAddresses(address,address,address,address,address,address)":"f8121873","setTicketPricePaid(bytes32,uint256,uint256)":"bd47dc5c","setTotalTicketsSold(bytes32,uint256)":"787d76b8","showVault(bytes32)":"867e68af","shows(bytes32)":"fca46559","ticketContract()":"58a86e1d","ticketInstance()":"0233ce6a","ticketOwnership(address,bytes32)":"46079335","ticketPricePaid(bytes32,uint256)":"2f18ddfe","totalTicketsSold(bytes32)":"925e8f89","transferOwnership(address)":"f2fde38b","updateExpiry(bytes32,uint256)":"0d08c3c9","updateVenue(bytes32,(string,(int256,int256),uint256,address))":"c56f70fd","upgradeToAndCall(address,bytes)":"4f1ef286","venueContract()":"51819335","venueRegistryContract()":"31a68da0","venueRegistryInstance()":"703ee4e5","walletToShowToTokenIds(bytes32,address,uint256)":"7d8d6a22","withdrawRefund(bytes32)":"e9acfa7c"},"id":57}