{"abi":[{"type":"function","name":"COOLDOWN","inputs":[],"outputs":[{"name":"","type":"uint256","internalType":"uint256"}],"stateMutability":"view"},{"type":"function","name":"SELLOUT_PROTOCOL_WALLET","inputs":[],"outputs":[{"name":"","type":"address","internalType":"address"}],"stateMutability":"view"},{"type":"function","name":"UPGRADE_INTERFACE_VERSION","inputs":[],"outputs":[{"name":"","type":"string","internalType":"string"}],"stateMutability":"view"},{"type":"function","name":"artistRegistryInstance","inputs":[],"outputs":[{"name":"","type":"address","internalType":"contract IArtistRegistry"}],"stateMutability":"view"},{"type":"function","name":"boxOfficeInstance","inputs":[],"outputs":[{"name":"","type":"address","internalType":"contract IBoxOffice"}],"stateMutability":"view"},{"type":"function","name":"cancelShow","inputs":[{"name":"showId","type":"bytes32","internalType":"bytes32"}],"outputs":[],"stateMutability":"nonpayable"},{"type":"function","name":"completeShow","inputs":[{"name":"showId","type":"bytes32","internalType":"bytes32"}],"outputs":[],"stateMutability":"nonpayable"},{"type":"function","name":"consumeTicketTier","inputs":[{"name":"showId","type":"bytes32","internalType":"bytes32"},{"name":"tierIndex","type":"uint256","internalType":"uint256"},{"name":"amount","type":"uint256","internalType":"uint256"}],"outputs":[],"stateMutability":"nonpayable"},{"type":"function","name":"getNumberOfVoters","inputs":[{"name":"showId","type":"bytes32","internalType":"bytes32"}],"outputs":[{"name":"","type":"uint256","internalType":"uint256"}],"stateMutability":"view"},{"type":"function","name":"getOrganizer","inputs":[{"name":"showId","type":"bytes32","internalType":"bytes32"}],"outputs":[{"name":"","type":"address","internalType":"address"}],"stateMutability":"view"},{"type":"function","name":"getShowById","inputs":[{"name":"showId","type":"bytes32","internalType":"bytes32"}],"outputs":[{"name":"name","type":"string","internalType":"string"},{"name":"description","type":"string","internalType":"string"},{"name":"organizer","type":"address","internalType":"address"},{"name":"artists","type":"address[]","internalType":"address[]"},{"name":"venue","type":"tuple","internalType":"struct VenueRegistryTypes.VenueInfo","components":[{"name":"venueId","type":"uint256","internalType":"uint256"},{"name":"name","type":"string","internalType":"string"},{"name":"bio","type":"string","internalType":"string"},{"name":"wallet","type":"address","internalType":"address"},{"name":"coordinates","type":"tuple","internalType":"struct VenueRegistryTypes.Coordinates","components":[{"name":"latitude","type":"int256","internalType":"int256"},{"name":"longitude","type":"int256","internalType":"int256"}]},{"name":"totalCapacity","type":"uint256","internalType":"uint256"},{"name":"streetAddress","type":"string","internalType":"string"}]},{"name":"ticketTiers","type":"tuple[]","internalType":"struct ShowTypes.TicketTier[]","components":[{"name":"name","type":"string","internalType":"string"},{"name":"price","type":"uint256","internalType":"uint256"},{"name":"ticketsAvailable","type":"uint256","internalType":"uint256"}]},{"name":"sellOutThreshold","type":"uint256","internalType":"uint256"},{"name":"totalCapacity","type":"uint256","internalType":"uint256"},{"name":"status","type":"uint8","internalType":"enum ShowTypes.Status"},{"name":"currencyAddress","type":"address","internalType":"address"}],"stateMutability":"view"},{"type":"function","name":"getShowStatus","inputs":[{"name":"showId","type":"bytes32","internalType":"bytes32"}],"outputs":[{"name":"","type":"uint8","internalType":"enum ShowTypes.Status"}],"stateMutability":"view"},{"type":"function","name":"getShowToTicketProxy","inputs":[{"name":"showId","type":"bytes32","internalType":"bytes32"}],"outputs":[{"name":"","type":"address","internalType":"address"}],"stateMutability":"view"},{"type":"function","name":"getShowToVenueProxy","inputs":[{"name":"showId","type":"bytes32","internalType":"bytes32"}],"outputs":[{"name":"","type":"address","internalType":"address"}],"stateMutability":"view"},{"type":"function","name":"getTicketTierInfo","inputs":[{"name":"showId","type":"bytes32","internalType":"bytes32"},{"name":"tierIndex","type":"uint256","internalType":"uint256"}],"outputs":[{"name":"name","type":"string","internalType":"string"},{"name":"price","type":"uint256","internalType":"uint256"},{"name":"ticketsAvailable","type":"uint256","internalType":"uint256"}],"stateMutability":"view"},{"type":"function","name":"hasTicket","inputs":[{"name":"wallet","type":"address","internalType":"address"},{"name":"showId","type":"bytes32","internalType":"bytes32"}],"outputs":[{"name":"","type":"bool","internalType":"bool"}],"stateMutability":"view"},{"type":"function","name":"hasVotedForEmergencyRefund","inputs":[{"name":"","type":"bytes32","internalType":"bytes32"},{"name":"","type":"address","internalType":"address"}],"outputs":[{"name":"","type":"bool","internalType":"bool"}],"stateMutability":"view"},{"type":"function","name":"initialize","inputs":[{"name":"_selloutProtocolWallet","type":"address","internalType":"address"}],"outputs":[],"stateMutability":"nonpayable"},{"type":"function","name":"isArtist","inputs":[{"name":"user","type":"address","internalType":"address"},{"name":"showId","type":"bytes32","internalType":"bytes32"}],"outputs":[{"name":"","type":"bool","internalType":"bool"}],"stateMutability":"view"},{"type":"function","name":"isArtistMapping","inputs":[{"name":"","type":"bytes32","internalType":"bytes32"},{"name":"","type":"address","internalType":"address"}],"outputs":[{"name":"","type":"bool","internalType":"bool"}],"stateMutability":"view"},{"type":"function","name":"isOrganizer","inputs":[{"name":"user","type":"address","internalType":"address"},{"name":"showId","type":"bytes32","internalType":"bytes32"}],"outputs":[{"name":"","type":"bool","internalType":"bool"}],"stateMutability":"view"},{"type":"function","name":"organizerRegistryInstance","inputs":[],"outputs":[{"name":"","type":"address","internalType":"contract IOrganizerRegistry"}],"stateMutability":"view"},{"type":"function","name":"owner","inputs":[],"outputs":[{"name":"","type":"address","internalType":"address"}],"stateMutability":"view"},{"type":"function","name":"payout","inputs":[{"name":"showId","type":"bytes32","internalType":"bytes32"}],"outputs":[],"stateMutability":"nonpayable"},{"type":"function","name":"proposeShow","inputs":[{"name":"proposal","type":"tuple","internalType":"struct ShowTypes.ShowProposal","components":[{"name":"name","type":"string","internalType":"string"},{"name":"description","type":"string","internalType":"string"},{"name":"artists","type":"address[]","internalType":"address[]"},{"name":"coordinates","type":"tuple","internalType":"struct VenueRegistryTypes.Coordinates","components":[{"name":"latitude","type":"int256","internalType":"int256"},{"name":"longitude","type":"int256","internalType":"int256"}]},{"name":"radius","type":"uint256","internalType":"uint256"},{"name":"sellOutThreshold","type":"uint8","internalType":"uint8"},{"name":"totalCapacity","type":"uint256","internalType":"uint256"},{"name":"ticketTiers","type":"tuple[]","internalType":"struct ShowTypes.TicketTier[]","components":[{"name":"name","type":"string","internalType":"string"},{"name":"price","type":"uint256","internalType":"uint256"},{"name":"ticketsAvailable","type":"uint256","internalType":"uint256"}]},{"name":"split","type":"uint256[]","internalType":"uint256[]"},{"name":"currencyAddress","type":"address","internalType":"address"},{"name":"venueProposalParams","type":"tuple","internalType":"struct VenueTypes.VenueProposalParams","components":[{"name":"proposalPeriodDuration","type":"uint32","internalType":"uint32"},{"name":"proposalDateExtension","type":"uint32","internalType":"uint32"},{"name":"proposalDateMinimumFuture","type":"uint32","internalType":"uint32"},{"name":"proposalPeriodExtensionThreshold","type":"uint32","internalType":"uint32"}]}]}],"outputs":[{"name":"showId","type":"bytes32","internalType":"bytes32"}],"stateMutability":"nonpayable"},{"type":"function","name":"proxiableUUID","inputs":[],"outputs":[{"name":"","type":"bytes32","internalType":"bytes32"}],"stateMutability":"view"},{"type":"function","name":"referralInstance","inputs":[],"outputs":[{"name":"","type":"address","internalType":"contract ReferralModule"}],"stateMutability":"view"},{"type":"function","name":"refundBribe","inputs":[{"name":"showId","type":"bytes32","internalType":"bytes32"},{"name":"venueId","type":"uint256","internalType":"uint256"},{"name":"proposalIndex","type":"uint256","internalType":"uint256"}],"outputs":[],"stateMutability":"nonpayable"},{"type":"function","name":"refundTicket","inputs":[{"name":"showId","type":"bytes32","internalType":"bytes32"},{"name":"tokenId","type":"uint256","internalType":"uint256"}],"outputs":[],"stateMutability":"nonpayable"},{"type":"function","name":"renounceOwnership","inputs":[],"outputs":[],"stateMutability":"nonpayable"},{"type":"function","name":"setProtocolAddresses","inputs":[{"name":"_ticketFactory","type":"address","internalType":"address"},{"name":"_venueFactory","type":"address","internalType":"address"},{"name":"_referralContract","type":"address","internalType":"address"},{"name":"_artistRegistryContract","type":"address","internalType":"address"},{"name":"_organizerRegistryContract","type":"address","internalType":"address"},{"name":"_venueRegistryContract","type":"address","internalType":"address"},{"name":"_showVault","type":"address","internalType":"address"},{"name":"_boxOffice","type":"address","internalType":"address"}],"outputs":[],"stateMutability":"nonpayable"},{"type":"function","name":"setShowToTicketProxy","inputs":[{"name":"showId","type":"bytes32","internalType":"bytes32"},{"name":"ticketProxy","type":"address","internalType":"address"}],"outputs":[],"stateMutability":"nonpayable"},{"type":"function","name":"showToTicketProxy","inputs":[{"name":"","type":"bytes32","internalType":"bytes32"}],"outputs":[{"name":"","type":"address","internalType":"address"}],"stateMutability":"view"},{"type":"function","name":"showToVenueProxy","inputs":[{"name":"","type":"bytes32","internalType":"bytes32"}],"outputs":[{"name":"","type":"address","internalType":"address"}],"stateMutability":"view"},{"type":"function","name":"showVaultInstance","inputs":[],"outputs":[{"name":"","type":"address","internalType":"contract IShowVault"}],"stateMutability":"view"},{"type":"function","name":"shows","inputs":[{"name":"","type":"bytes32","internalType":"bytes32"}],"outputs":[{"name":"showId","type":"bytes32","internalType":"bytes32"},{"name":"name","type":"string","internalType":"string"},{"name":"description","type":"string","internalType":"string"},{"name":"organizer","type":"address","internalType":"address"},{"name":"venue","type":"tuple","internalType":"struct VenueRegistryTypes.VenueInfo","components":[{"name":"venueId","type":"uint256","internalType":"uint256"},{"name":"name","type":"string","internalType":"string"},{"name":"bio","type":"string","internalType":"string"},{"name":"wallet","type":"address","internalType":"address"},{"name":"coordinates","type":"tuple","internalType":"struct VenueRegistryTypes.Coordinates","components":[{"name":"latitude","type":"int256","internalType":"int256"},{"name":"longitude","type":"int256","internalType":"int256"}]},{"name":"totalCapacity","type":"uint256","internalType":"uint256"},{"name":"streetAddress","type":"string","internalType":"string"}]},{"name":"radius","type":"uint256","internalType":"uint256"},{"name":"sellOutThreshold","type":"uint256","internalType":"uint256"},{"name":"totalCapacity","type":"uint256","internalType":"uint256"},{"name":"status","type":"uint8","internalType":"enum ShowTypes.Status"},{"name":"expiry","type":"uint256","internalType":"uint256"},{"name":"showDate","type":"uint256","internalType":"uint256"},{"name":"currencyAddress","type":"address","internalType":"address"}],"stateMutability":"view"},{"type":"function","name":"ticketFactoryInstance","inputs":[],"outputs":[{"name":"","type":"address","internalType":"contract ITicketFactory"}],"stateMutability":"view"},{"type":"function","name":"transferOwnership","inputs":[{"name":"newOwner","type":"address","internalType":"address"}],"outputs":[],"stateMutability":"nonpayable"},{"type":"function","name":"updateShowDate","inputs":[{"name":"showId","type":"bytes32","internalType":"bytes32"},{"name":"newDate","type":"uint256","internalType":"uint256"}],"outputs":[],"stateMutability":"nonpayable"},{"type":"function","name":"updateShowVenue","inputs":[{"name":"showId","type":"bytes32","internalType":"bytes32"},{"name":"newVenue","type":"tuple","internalType":"struct VenueRegistryTypes.VenueInfo","components":[{"name":"venueId","type":"uint256","internalType":"uint256"},{"name":"name","type":"string","internalType":"string"},{"name":"bio","type":"string","internalType":"string"},{"name":"wallet","type":"address","internalType":"address"},{"name":"coordinates","type":"tuple","internalType":"struct VenueRegistryTypes.Coordinates","components":[{"name":"latitude","type":"int256","internalType":"int256"},{"name":"longitude","type":"int256","internalType":"int256"}]},{"name":"totalCapacity","type":"uint256","internalType":"uint256"},{"name":"streetAddress","type":"string","internalType":"string"}]}],"outputs":[],"stateMutability":"nonpayable"},{"type":"function","name":"updateStatus","inputs":[{"name":"showId","type":"bytes32","internalType":"bytes32"},{"name":"_status","type":"uint8","internalType":"enum ShowTypes.Status"}],"outputs":[],"stateMutability":"nonpayable"},{"type":"function","name":"updateStatusIfSoldOut","inputs":[{"name":"showId","type":"bytes32","internalType":"bytes32"}],"outputs":[],"stateMutability":"nonpayable"},{"type":"function","name":"upgradeToAndCall","inputs":[{"name":"newImplementation","type":"address","internalType":"address"},{"name":"data","type":"bytes","internalType":"bytes"}],"outputs":[],"stateMutability":"payable"},{"type":"function","name":"venueFactoryInstance","inputs":[],"outputs":[{"name":"","type":"address","internalType":"contract IVenueFactory"}],"stateMutability":"view"},{"type":"function","name":"venueRegistryInstance","inputs":[],"outputs":[{"name":"","type":"address","internalType":"contract IVenueRegistry"}],"stateMutability":"view"},{"type":"function","name":"voteForEmergencyRefund","inputs":[{"name":"showId","type":"bytes32","internalType":"bytes32"}],"outputs":[],"stateMutability":"nonpayable"},{"type":"function","name":"votesForEmergencyRefund","inputs":[{"name":"","type":"bytes32","internalType":"bytes32"}],"outputs":[{"name":"","type":"uint256","internalType":"uint256"}],"stateMutability":"view"},{"type":"function","name":"withdrawRefund","inputs":[{"name":"showId","type":"bytes32","internalType":"bytes32"}],"outputs":[],"stateMutability":"nonpayable"},{"type":"event","name":"BribeRefunded","inputs":[{"name":"showId","type":"bytes32","indexed":true,"internalType":"bytes32"},{"name":"venueId","type":"uint256","indexed":true,"internalType":"uint256"},{"name":"proposer","type":"address","indexed":true,"internalType":"address"},{"name":"bribeAmount","type":"uint256","indexed":false,"internalType":"uint256"},{"name":"paymentToken","type":"address","indexed":false,"internalType":"address"}],"anonymous":false},{"type":"event","name":"ERC20Deposited","inputs":[{"name":"showId","type":"bytes32","indexed":true,"internalType":"bytes32"},{"name":"tokenAddress","type":"address","indexed":true,"internalType":"address"},{"name":"depositor","type":"address","indexed":true,"internalType":"address"},{"name":"amount","type":"uint256","indexed":false,"internalType":"uint256"}],"anonymous":false},{"type":"event","name":"ExpiryUpdated","inputs":[{"name":"showId","type":"bytes32","indexed":true,"internalType":"bytes32"},{"name":"expiry","type":"uint256","indexed":false,"internalType":"uint256"}],"anonymous":false},{"type":"event","name":"Initialized","inputs":[{"name":"version","type":"uint64","indexed":false,"internalType":"uint64"}],"anonymous":false},{"type":"event","name":"OwnershipTransferred","inputs":[{"name":"previousOwner","type":"address","indexed":true,"internalType":"address"},{"name":"newOwner","type":"address","indexed":true,"internalType":"address"}],"anonymous":false},{"type":"event","name":"RefundWithdrawn","inputs":[{"name":"user","type":"address","indexed":true,"internalType":"address"},{"name":"showId","type":"bytes32","indexed":true,"internalType":"bytes32"},{"name":"amount","type":"uint256","indexed":false,"internalType":"uint256"}],"anonymous":false},{"type":"event","name":"ShowCancelled","inputs":[{"name":"showId","type":"bytes32","indexed":true,"internalType":"bytes32"},{"name":"reason","type":"string","indexed":false,"internalType":"string"}],"anonymous":false},{"type":"event","name":"ShowExpired","inputs":[{"name":"showId","type":"bytes32","indexed":true,"internalType":"bytes32"}],"anonymous":false},{"type":"event","name":"ShowProposed","inputs":[{"name":"showId","type":"bytes32","indexed":true,"internalType":"bytes32"},{"name":"organizer","type":"address","indexed":true,"internalType":"address"},{"name":"name","type":"string","indexed":false,"internalType":"string"},{"name":"artists","type":"address[]","indexed":false,"internalType":"address[]"},{"name":"description","type":"string","indexed":false,"internalType":"string"},{"name":"sellOutThreshold","type":"uint256","indexed":false,"internalType":"uint256"},{"name":"split","type":"uint256[]","indexed":false,"internalType":"uint256[]"},{"name":"currencyAddress","type":"address","indexed":false,"internalType":"address"}],"anonymous":false},{"type":"event","name":"StatusUpdated","inputs":[{"name":"showId","type":"bytes32","indexed":true,"internalType":"bytes32"},{"name":"status","type":"uint8","indexed":false,"internalType":"enum ShowTypes.Status"}],"anonymous":false},{"type":"event","name":"TicketRefunded","inputs":[{"name":"user","type":"address","indexed":true,"internalType":"address"},{"name":"showId","type":"bytes32","indexed":true,"internalType":"bytes32"},{"name":"refundAmount","type":"uint256","indexed":false,"internalType":"uint256"}],"anonymous":false},{"type":"event","name":"TicketTierConsumed","inputs":[{"name":"showId","type":"bytes32","indexed":true,"internalType":"bytes32"},{"name":"tierIndex","type":"uint256","indexed":true,"internalType":"uint256"},{"name":"amount","type":"uint256","indexed":false,"internalType":"uint256"}],"anonymous":false},{"type":"event","name":"Upgraded","inputs":[{"name":"implementation","type":"address","indexed":true,"internalType":"address"}],"anonymous":false},{"type":"event","name":"VenueUpdated","inputs":[{"name":"showId","type":"bytes32","indexed":true,"internalType":"bytes32"},{"name":"newVenue","type":"tuple","indexed":false,"internalType":"struct VenueRegistryTypes.VenueInfo","components":[{"name":"venueId","type":"uint256","internalType":"uint256"},{"name":"name","type":"string","internalType":"string"},{"name":"bio","type":"string","internalType":"string"},{"name":"wallet","type":"address","internalType":"address"},{"name":"coordinates","type":"tuple","internalType":"struct VenueRegistryTypes.Coordinates","components":[{"name":"latitude","type":"int256","internalType":"int256"},{"name":"longitude","type":"int256","internalType":"int256"}]},{"name":"totalCapacity","type":"uint256","internalType":"uint256"},{"name":"streetAddress","type":"string","internalType":"string"}]}],"anonymous":false},{"type":"error","name":"AddressEmptyCode","inputs":[{"name":"target","type":"address","internalType":"address"}]},{"type":"error","name":"ERC1967InvalidImplementation","inputs":[{"name":"implementation","type":"address","internalType":"address"}]},{"type":"error","name":"ERC1967NonPayable","inputs":[]},{"type":"error","name":"FailedInnerCall","inputs":[]},{"type":"error","name":"InvalidCapacity","inputs":[]},{"type":"error","name":"InvalidDescription","inputs":[]},{"type":"error","name":"InvalidInitialization","inputs":[]},{"type":"error","name":"InvalidLatitude","inputs":[]},{"type":"error","name":"InvalidLongitude","inputs":[]},{"type":"error","name":"InvalidName","inputs":[]},{"type":"error","name":"InvalidSellOutThreshold","inputs":[]},{"type":"error","name":"InvalidSplitArrayLength","inputs":[]},{"type":"error","name":"InvalidSplitSum","inputs":[]},{"type":"error","name":"InvalidVenueProposalParameters","inputs":[]},{"type":"error","name":"NotInitializing","inputs":[]},{"type":"error","name":"OwnableInvalidOwner","inputs":[{"name":"owner","type":"address","internalType":"address"}]},{"type":"error","name":"OwnableUnauthorizedAccount","inputs":[{"name":"account","type":"address","internalType":"address"}]},{"type":"error","name":"ReentrancyGuardReentrantCall","inputs":[]},{"type":"error","name":"UUPSUnauthorizedCallContext","inputs":[]},{"type":"error","name":"UUPSUnsupportedProxiableUUID","inputs":[{"name":"slot","type":"bytes32","internalType":"bytes32"}]}],"bytecode":{"object":"0x60a06040526008805460ff60a01b191690553060805234801561002157600080fd5b50608051615d3b6200004c600039600081816138260152818161384f01526139950152615d3b6000f3fe6080604052600436106102935760003560e01c80638da5cb5b1161015a578063c6ab848a116100c1578063e9acfa7c1161007a578063e9acfa7c146108f2578063ef5023a514610912578063f2fde38b14610932578063fc4bdfd414610952578063fca4655914610972578063fdc7066c146109aa57600080fd5b8063c6ab848a1461081c578063cfefb3d51461083c578063e30228be1461085c578063e4ca73aa1461087c578063e61805461461089c578063e71aee7e146108bc57600080fd5b8063a2724a4d11610113578063a2724a4d1461072e578063a2b7d17414610743578063a94dafab14610763578063ad3cb1cc14610783578063bafd4eb0146107c1578063c4d66de8146107fc57600080fd5b80638da5cb5b1461062b5780638dea15a1146106685780639673b1e314610688578063977cb89e146106a85780639ee0a14e146106e1578063a110412c1461070e57600080fd5b80634f1ef286116101fe57806364ad6cd6116101b757806364ad6cd6146105675780636a01789114610587578063703ee4e5146105a7578063715018a6146105c75780637e3e3935146105dc57806385ffa16c1461060b57600080fd5b80634f1ef2861461049657806352d1902d146104a95780635c37da69146104cc5780635f198834146104ec57806363c18a521461050c578063644b5e591461054757600080fd5b806327b1bf521161025057806327b1bf52146103875780633c60d2d6146103bd5780633deba964146103dd5780633e2fea341461041357806346c2c8a7146104495780634ed372da1461047657600080fd5b806302c9a8b514610298578063054372ed146102cd5780630a35906b146102ef5780630b5c63641461030f578063129e086b1461032f5780631cf2103e1461034f575b600080fd5b3480156102a457600080fd5b506102b86102b336600461479b565b6109e0565b60405190151581526020015b60405180910390f35b3480156102d957600080fd5b506102ed6102e83660046147c7565b610a0d565b005b3480156102fb57600080fd5b506102ed61030a3660046147fb565b610afa565b34801561031b57600080fd5b506102ed61032a366004614827565b610e9d565b34801561033b57600080fd5b506102ed61034a36600461484c565b610f0b565b34801561035b57600080fd5b5060055461036f906001600160a01b031681565b6040516001600160a01b0390911681526020016102c4565b34801561039357600080fd5b506103a76103a236600461484c565b6113e5565b6040516102c49a999897969594939291906149b8565b3480156103c957600080fd5b506102ed6103d8366004614aca565b611999565b3480156103e957600080fd5b5061036f6103f836600461484c565b600b602052600090815260409020546001600160a01b031681565b34801561041f57600080fd5b5061036f61042e36600461484c565b6000908152600c60205260409020546001600160a01b031690565b34801561045557600080fd5b5061046961046436600461484c565b611d6a565b6040516102c49190614aec565b34801561048257600080fd5b506102b861049136600461479b565b61235f565b6102ed6104a4366004614c34565b612382565b3480156104b557600080fd5b506104be61239d565b6040519081526020016102c4565b3480156104d857600080fd5b506102b86104e736600461479b565b6123ba565b3480156104f857600080fd5b506102ed610507366004614c97565b612442565b34801561051857600080fd5b506102b8610527366004614827565b600f60209081526000928352604080842090915290825290205460ff1681565b34801561055357600080fd5b506102ed6105623660046147fb565b612522565b34801561057357600080fd5b506102ed610582366004614aca565b61266e565b34801561059357600080fd5b5060075461036f906001600160a01b031681565b3480156105b357600080fd5b5060065461036f906001600160a01b031681565b3480156105d357600080fd5b506102ed612715565b3480156105e857600080fd5b506105fc6105f7366004614aca565b612729565b6040516102c493929190614d40565b34801561061757600080fd5b506104be61062636600461484c565b61284e565b34801561063757600080fd5b507f9016d09d72d40fdae2fd8ceac6b6234c7706214fd39c1cd1e609a0528c199300546001600160a01b031661036f565b34801561067457600080fd5b5060045461036f906001600160a01b031681565b34801561069457600080fd5b5060015461036f906001600160a01b031681565b3480156106b457600080fd5b5061036f6106c336600461484c565b6000908152600a60205260409020600301546001600160a01b031690565b3480156106ed57600080fd5b506104be6106fc36600461484c565b600e6020526000908152604090205481565b34801561071a57600080fd5b506104be610729366004615010565b6128d5565b34801561073a57600080fd5b506104be607881565b34801561074f57600080fd5b5060085461036f906001600160a01b031681565b34801561076f57600080fd5b506102ed61077e366004615170565b612b2f565b34801561078f57600080fd5b506107b4604051806040016040528060058152602001640352e302e360dc1b81525081565b6040516102c491906151b3565b3480156107cd57600080fd5b506102b86107dc366004614827565b600d60209081526000928352604080842090915290825290205460ff1681565b34801561080857600080fd5b506102ed6108173660046151c6565b612c3e565b34801561082857600080fd5b5060035461036f906001600160a01b031681565b34801561084857600080fd5b506102ed61085736600461484c565b612d6f565b34801561086857600080fd5b5060005461036f906001600160a01b031681565b34801561088857600080fd5b5060025461036f906001600160a01b031681565b3480156108a857600080fd5b506102ed6108b736600461484c565b612f4b565b3480156108c857600080fd5b5061036f6108d736600461484c565b600c602052600090815260409020546001600160a01b031681565b3480156108fe57600080fd5b506102ed61090d36600461484c565b61304a565b34801561091e57600080fd5b506102ed61092d36600461484c565b613205565b34801561093e57600080fd5b506102ed61094d3660046151c6565b613311565b34801561095e57600080fd5b506102ed61096d36600461484c565b61334c565b34801561097e57600080fd5b5061099261098d36600461484c565b61347f565b6040516102c49c9b9a999897969594939291906151e3565b3480156109b657600080fd5b5061036f6109c536600461484c565b6000908152600b60205260409020546001600160a01b031690565b6000818152600d602090815260408083206001600160a01b038616845290915290205460ff165b92915050565b6000828152600c602052604090205482906001600160a01b0316331480610a4a57506000818152600b60205260409020546001600160a01b031633145b80610a5457503330145b610a8a5760405162461bcd60e51b81526020600482015260026024820152612a2b60f11b60448201526064015b60405180910390fd5b6000838152600a60205260409020601101805483919060ff19166001836007811115610ab857610ab8614980565b0217905550827f8ed894b6f384ca9c829b9aa5b056bc9106a90845a15616607e975d4ad488ee6783604051610aed9190614aec565b60405180910390a2505050565b6000838152600a602052604090206004601182015460ff166007811115610b2357610b23614980565b03610b555760405162461bcd60e51b8152602060048201526002602482015261216360f01b6044820152606401610a81565b6005810154839003610b795760405162461bcd60e51b8152600401610a8190615282565b6000848152600c6020526040808220549051633d77f7eb60e01b8152600481018790526001600160a01b0390911691908290633d77f7eb90602401602060405180830381865afa158015610bd1573d6000803e3d6000fd5b505050506040513d601f19601f82011682018060405250810190610bf5919061529e565b9050838111610c2b5760405162461bcd60e51b8152602060048201526002602482015261216960f01b6044820152606401610a81565b604051633198f7e760e21b815260048101879052602481018590526000906001600160a01b0384169063c663df9c90604401600060405180830381865afa158015610c7a573d6000803e3d6000fd5b505050506040513d6000823e601f3d908101601f19168201604052610ca29190810190615475565b8051519091508614610cdb5760405162461bcd60e51b815260206004820152600260248201526110bb60f11b6044820152606401610a81565b60408101516001600160a01b03163314610d1d5760405162461bcd60e51b815260206004820152600360248201526210b83960e91b6044820152606401610a81565b6000816060015111610d565760405162461bcd60e51b8152602060048201526002602482015261084960f21b6044820152606401610a81565b60405163899a5ab760e01b815260048101889052602481018690526001600160a01b0384169063899a5ab790604401600060405180830381600087803b158015610d9f57600080fd5b505af1158015610db3573d6000803e3d6000fd5b5050600754606084015160c085015160405163194cc89b60e31b8152600481018d905260248101929092526001600160a01b039081166044830152336064830152909116925063ca6644d89150608401600060405180830381600087803b158015610e1d57600080fd5b505af1158015610e31573d6000803e3d6000fd5b50505050336001600160a01b031686887f028f6cd258ee3664e34f77deb25ca97b00a5d18e45eba8987a259d5f2880a9f584606001518560c00151604051610e8c9291909182526001600160a01b0316602082015260400190565b60405180910390a450505050505050565b6008546001600160a01b03163314610edd5760405162461bcd60e51b815260206004820152600360248201526221626f60e81b6044820152606401610a81565b6000918252600b602052604090912080546001600160a01b0319166001600160a01b03909216919091179055565b80610f16338261235f565b80610f265750610f2633826109e0565b610f575760405162461bcd60e51b81526020600482015260026024820152614f4160f01b6044820152606401610a81565b6000828152600a602052604090206003601182015460ff166007811115610f8057610f80614980565b14610f9d5760405162461bcd60e51b8152600401610a8190615282565b60788160140154610fae9190615562565b421015610fcd5760405162461bcd60e51b8152600401610a8190615282565b60075460405163d23b85a360e01b8152600481018590526000916001600160a01b03169063d23b85a390602401602060405180830381865afa158015611017573d6000803e3d6000fd5b505050506040513d601f19601f8201168201806040525081019061103b9190615575565b60075460405163213efcab60e01b8152600481018790526001600160a01b0380841660248301529293506000929091169063213efcab90604401602060405180830381865afa158015611092573d6000803e3d6000fd5b505050506040513d601f19601f820116820180604052508101906110b6919061529e565b9050806000036110c7575050505050565b60048301546000906110da906002615562565b90506000816001600160401b038111156110f6576110f6614afa565b60405190808252806020026020018201604052801561111f578160200160208202803683370190505b5060128601549091506000906001600160401b0381111561114257611142614afa565b60405190808252806020026020018201604052801561116b578160200160208202803683370190505b50600387015483519192506001600160a01b031690839060009061119157611191615592565b60200260200101906001600160a01b031690816001600160a01b03168152505060005b6004870154811015611230578660040181815481106111d5576111d5615592565b6000918252602090912001546001600160a01b0316836111f6836001615562565b8151811061120657611206615592565b6001600160a01b039092166020928302919091019091015280611228816155a8565b9150506111b4565b5060088601546001600160a01b03168261124b6001866155c1565b8151811061125b5761125b615592565b6001600160a01b039092166020928302919091018201526012870180546040805182850281018501909152818152928301828280156112b957602002820191906000526020600020905b8154815260200190600101908083116112a5575b5050600754604051630b309b6560e21b81529495506001600160a01b031693632cc26d9493506112f792508c9150869086908a908c90600401615604565b600060405180830381600087803b15801561131157600080fd5b505af1158015611325573d6000803e3d6000fd5b505060075460405163fab49c3760e01b8152600481018c90526001600160a01b038981166024830152909116925063fab49c379150604401600060405180830381600087803b15801561137757600080fd5b505af115801561138b573d6000803e3d6000fd5b5050505060118601805460ff1916600490811790915560405189917f8ed894b6f384ca9c829b9aa5b056bc9106a90845a15616607e975d4ad488ee67916113d29190614aec565b60405180910390a25050505050505b5050565b606080600060606113f4614665565b6000868152600a60205260408120600e810154606092918291829182916001600160401b0381111561142857611428614afa565b60405190808252806020026020018201604052801561147d57816020015b61146a60405180606001604052806060815260200160008152602001600081525090565b8152602001906001900390816114465790505b50955060005b600e8201548110156115935781600e0181815481106114a4576114a4615592565b90600052602060002090600302016040518060600160405290816000820180546114cd90615652565b80601f01602080910402602001604051908101604052809291908181526020018280546114f990615652565b80156115465780601f1061151b57610100808354040283529160200191611546565b820191906000526020600020905b81548152906001019060200180831161152957829003601f168201915b505050505081526020016001820154815260200160028201548152505087828151811061157557611575615592565b6020026020010181905250808061158b906155a8565b915050611483565b5080600101816002018260030160009054906101000a90046001600160a01b031683600401846005018a86600f015487601001548860110160009054906101000a900460ff168960150160009054906101000a90046001600160a01b03168980546115fd90615652565b80601f016020809104026020016040519081016040528092919081815260200182805461162990615652565b80156116765780601f1061164b57610100808354040283529160200191611676565b820191906000526020600020905b81548152906001019060200180831161165957829003601f168201915b5050505050995088805461168990615652565b80601f01602080910402602001604051908101604052809291908181526020018280546116b590615652565b80156117025780601f106116d757610100808354040283529160200191611702565b820191906000526020600020905b8154815290600101906020018083116116e557829003601f168201915b505050505098508680548060200260200160405190810160405280929190818152602001828054801561175e57602002820191906000526020600020905b81546001600160a01b03168152600190910190602001808311611740575b50505050509650856040518060e00160405290816000820154815260200160018201805461178b90615652565b80601f01602080910402602001604051908101604052809291908181526020018280546117b790615652565b80156118045780601f106117d957610100808354040283529160200191611804565b820191906000526020600020905b8154815290600101906020018083116117e757829003601f168201915b5050505050815260200160028201805461181d90615652565b80601f016020809104026020016040519081016040528092919081815260200182805461184990615652565b80156118965780601f1061186b57610100808354040283529160200191611896565b820191906000526020600020905b81548152906001019060200180831161187957829003601f168201915b505050918352505060038201546001600160a01b031660208083019190915260408051808201825260048501548152600585015492810192909252820152600682015460608201526007820180546080909201916118f390615652565b80601f016020809104026020016040519081016040528092919081815260200182805461191f90615652565b801561196c5780601f106119415761010080835404028352916020019161196c565b820191906000526020600020905b81548152906001019060200180831161194f57829003601f168201915b50505050508152505095509a509a509a509a509a509a509a509a509a509a50509193959799509193959799565b6000828152600b60205260409020546001600160a01b0316806119e75760405162461bcd60e51b8152600401610a81906020808252600490820152632170787960e01b604082015260600190565b6000838152600a602052604081206011015460ff166007811115611a0d57611a0d614980565b1480611a3e575060056000848152600a602052604090206011015460ff166007811115611a3c57611a3c614980565b145b80611a6e575060076000848152600a602052604090206011015460ff166007811115611a6c57611a6c614980565b145b611aa05760405162461bcd60e51b8152602060048201526003602482015262213d7360e81b6044820152606401610a81565b600854604051632fef62b760e01b8152600481018590523360248201526044810184905282916001600160a01b031690632fef62b790606401602060405180830381865afa158015611af6573d6000803e3d6000fd5b505050506040513d601f19601f82011682018060405250810190611b1a9190615686565b611b4b5760405162461bcd60e51b8152602060048201526002602482015261085d60f21b6044820152606401610a81565b604051636d1d3b0b60e11b8152600481018590526024810184905260009081906001600160a01b0384169063da3a7616906044016040805180830381865afa158015611b9b573d6000803e3d6000fd5b505050506040513d601f19601f82011682018060405250810190611bbf91906156a1565b9150915060008211611bf85760405162461bcd60e51b8152602060048201526002602482015261084960f21b6044820152606401610a81565b60075460405163d23b85a360e01b8152600481018890526000916001600160a01b03169063d23b85a390602401602060405180830381865afa158015611c42573d6000803e3d6000fd5b505050506040513d601f19601f82011682018060405250810190611c669190615575565b6000888152600a60205260409020600e0180549192509083908110611c8d57611c8d615592565b600091825260208220600260039092020101805491611cab836155a8565b9091555050600854604051635f1229f960e01b81526004810189905260248101889052604481018590526001600160a01b03838116606483015233608483015290911690635f1229f99060a401600060405180830381600087803b158015611d1257600080fd5b505af1158015611d26573d6000803e3d6000fd5b50506040518581528992503391507f6327daeea6ce26abf9f96cd84eee9cb40d1d5b88f7f5990914540e392446bf049060200160405180910390a350505050505050565b6000818152600a6020908152604080832081516101e0810190925280548252600181018054859484019190611d9e90615652565b80601f0160208091040260200160405190810160405280929190818152602001828054611dca90615652565b8015611e175780601f10611dec57610100808354040283529160200191611e17565b820191906000526020600020905b815481529060010190602001808311611dfa57829003601f168201915b50505050508152602001600282018054611e3090615652565b80601f0160208091040260200160405190810160405280929190818152602001828054611e5c90615652565b8015611ea95780601f10611e7e57610100808354040283529160200191611ea9565b820191906000526020600020905b815481529060010190602001808311611e8c57829003601f168201915b505050918352505060038201546001600160a01b03166020808301919091526004830180546040805182850281018501825282815294019392830182828015611f1b57602002820191906000526020600020905b81546001600160a01b03168152600190910190602001808311611efd575b50505050508152602001600582016040518060e001604052908160008201548152602001600182018054611f4e90615652565b80601f0160208091040260200160405190810160405280929190818152602001828054611f7a90615652565b8015611fc75780601f10611f9c57610100808354040283529160200191611fc7565b820191906000526020600020905b815481529060010190602001808311611faa57829003601f168201915b50505050508152602001600282018054611fe090615652565b80601f016020809104026020016040519081016040528092919081815260200182805461200c90615652565b80156120595780601f1061202e57610100808354040283529160200191612059565b820191906000526020600020905b81548152906001019060200180831161203c57829003601f168201915b505050918352505060038201546001600160a01b031660208083019190915260408051808201825260048501548152600585015492810192909252820152600682015460608201526007820180546080909201916120b690615652565b80601f01602080910402602001604051908101604052809291908181526020018280546120e290615652565b801561212f5780601f106121045761010080835404028352916020019161212f565b820191906000526020600020905b81548152906001019060200180831161211257829003601f168201915b5050505050815250508152602001600d8201548152602001600e8201805480602002602001604051908101604052809291908181526020016000905b82821015612243578382906000526020600020906003020160405180606001604052908160008201805461219e90615652565b80601f01602080910402602001604051908101604052809291908181526020018280546121ca90615652565b80156122175780601f106121ec57610100808354040283529160200191612217565b820191906000526020600020905b8154815290600101906020018083116121fa57829003601f168201915b50505050508152602001600182015481526020016002820154815250508152602001906001019061216b565b50505090825250600f820154602082015260108201546040820152601182015460609091019060ff16600781111561227d5761227d614980565b600781111561228e5761228e614980565b8152602001601282018054806020026020016040519081016040528092919081815260200182805480156122e157602002820191906000526020600020905b8154815260200190600101908083116122cd575b505050918352505060138201546020820152601482015460408201526015909101546001600160a01b03166060909101526101808101519091504211801561234057506007816101400151600781111561233d5761233d614980565b14155b1561234e5750600792915050565b610140015192915050565b50919050565b6000908152600a60205260409020600301546001600160a01b0391821691161490565b61238a61381b565b612393826138c0565b6113e182826138c8565b60006123a761398a565b50600080516020615ce683398151915290565b600854604051635b9a1e0960e01b8152600481018390526001600160a01b0384811660248301526000928392911690635b9a1e0990604401600060405180830381865afa15801561240f573d6000803e3d6000fd5b505050506040513d6000823e601f3d908101601f1916820160405261243791908101906156c5565b511515949350505050565b600854600160a01b900460ff16156124815760405162461bcd60e51b8152602060048201526002602482015261212160f01b6044820152606401610a81565b600180546001600160a01b03199081166001600160a01b03998a161790915560028054821699891699909917909855600380548916968816969096179095556004805488169487169490941790935560058054871692861692909217909155600680548616918516919091179055600780549094169083161790925560088054600160a01b939092166001600160a81b031990921691909117919091179055565b6000838152600b602052604090205483906001600160a01b0316331461256e5760405162461bcd60e51b81526020600482015260016024820152601560fa1b6044820152606401610a81565b6000848152600a60205260409020600e81015484106125b35760405162461bcd60e51b81526020600482015260016024820152602160f81b6044820152606401610a81565b600081600e0185815481106125ca576125ca615592565b9060005260206000209060030201905083816002015410156126165760405162461bcd60e51b815260206004820152600560248201526406040e8d2f60db1b6044820152606401610a81565b8381600201600082825461262a91906155c1565b9091555050604051848152859087907fb23124a400670af3347ce475459c187bbba871f316e2d1d91ae115a762def0209060200160405180910390a3505050505050565b6000828152600c602052604090205482906001600160a01b031633146126ba5760405162461bcd60e51b81526020600482015260016024820152602b60f91b6044820152606401610a81565b60026000848152600a602052604090206011015460ff1660078111156126e2576126e2614980565b146126ff5760405162461bcd60e51b8152600401610a8190615282565b506000918252600a602052604090912060140155565b61271d6139d3565b6127276000613a2e565b565b6000828152600a60205260408120600e015460609190819084106127735760405162461bcd60e51b81526020600482015260016024820152601d60fa1b6044820152606401610a81565b6000858152600a60205260408120600e0180548690811061279657612796615592565b9060005260206000209060030201905080600001816001015482600201548280546127c090615652565b80601f01602080910402602001604051908101604052809291908181526020018280546127ec90615652565b80156128395780601f1061280e57610100808354040283529160200191612839565b820191906000526020600020905b81548152906001019060200180831161281c57829003601f168201915b50505050509250935093509350509250925092565b6000818152600a602052604081206001825b60048301548110156128cd5760038301546004840180546001600160a01b03909216918390811061289357612893615592565b6000918252602090912001546001600160a01b0316146128bb57816128b7816155a8565b9250505b806128c5816155a8565b915050612860565b509392505050565b6005546040516329e7dbd960e01b81523360048201526000916001600160a01b0316906329e7dbd990602401602060405180830381865afa15801561291e573d6000803e3d6000fd5b505050506040513d601f19601f820116820180604052508101906129429190615686565b6129745760405162461bcd60e51b815260206004820152600360248201526221724f60e81b6044820152606401610a81565b60005b826040015151811015612a6957600454604084015180516001600160a01b03909216916364fd28869190849081106129b1576129b1615592565b60200260200101516040518263ffffffff1660e01b81526004016129e491906001600160a01b0391909116815260200190565b602060405180830381865afa158015612a01573d6000803e3d6000fd5b505050506040513d601f19601f82011682018060405250810190612a259190615686565b612a575760405162461bcd60e51b815260206004820152600360248201526221724160e81b6044820152606401610a81565b80612a61816155a8565b915050612977565b50612a7382613a9f565b612a7c82613cb5565b60085460005460405163083fb40160e11b8152600481018490526001600160a01b039182166024820152929350169063107f680290604401600060405180830381600087803b158015612ace57600080fd5b505af1158015612ae2573d6000803e3d6000fd5b5050600054610140850151805160208201516040830151606090930151612b2a96508795506001600160a01b039094169363ffffffff928316939183169291821691166140b8565b919050565b6000828152600c602052604090205482906001600160a01b03163314612b7b5760405162461bcd60e51b81526020600482015260016024820152602b60f91b6044820152606401610a81565b6000838152600a602052604081206011015460ff166007811115612ba157612ba1614980565b1480612bd2575060026000848152600a602052604090206011015460ff166007811115612bd057612bd0614980565b145b612bee5760405162461bcd60e51b8152600401610a8190615282565b6000838152600a602052604090208290600501612c0b8282615868565b905050827f4af00802913ced6ade1d9ae285d2baa3b45a3d2867a08e13ea3bb5b950b8faac83604051610aed9190615a2b565b7ff0c57e16840df040f15088dc2f81fe391c3923bec73e23a9662efc9c229c6a008054600160401b810460ff1615906001600160401b0316600081158015612c835750825b90506000826001600160401b03166001148015612c9f5750303b155b905081158015612cad575080155b15612ccb5760405163f92ee8a960e01b815260040160405180910390fd5b845467ffffffffffffffff191660011785558315612cf557845460ff60401b1916600160401b1785555b612cfd6141eb565b612d06866141fb565b600080546001600160a01b0319166001600160a01b0388161790558315612d6757845460ff60401b19168555604051600181527fc7f505b2f371ae2175ee4913f4499e1f2633a7b5936321eed1cdaeb6115181d29060200160405180910390a15b505050505050565b80612d7a338261235f565b80612d8a5750612d8a33826109e0565b80612dab57506000818152600c60205260409020546001600160a01b031633145b612ddd5760405162461bcd60e51b815260206004820152600360248201526227a0ab60e91b6044820152606401610a81565b6000828152600a602052604090206004601182015460ff166007811115612e0657612e06614980565b14612e235760405162461bcd60e51b8152600401610a8190615282565b60788160140154612e349190615562565b421015612e695760405162461bcd60e51b81526020600482015260036024820152620858db60ea1b6044820152606401610a81565b60075460405163d23b85a360e01b8152600481018590526000916001600160a01b03169063d23b85a390602401602060405180830381865afa158015612eb3573d6000803e3d6000fd5b505050506040513d601f19601f82011682018060405250810190612ed79190615575565b600754604051637674a69160e01b8152600481018790526001600160a01b038084166024830152336044830152929350911690637674a69190606401600060405180830381600087803b158015612f2d57600080fd5b505af1158015612f41573d6000803e3d6000fd5b5050505050505050565b6000818152600b602052604090205481906001600160a01b03163314612f975760405162461bcd60e51b81526020600482015260016024820152601560fa1b6044820152606401610a81565b6000828152600a60205260408082206008549151630610418760e41b8152600481018690529092916001600160a01b031690636104187090602401602060405180830381865afa158015612fef573d6000803e3d6000fd5b505050506040513d601f19601f82011682018060405250810190613013919061529e565b905081600f015482601001546130299190615af5565b613034826064615af5565b1061304457613044846001610a0d565b50505050565b61305261420c565b6000818152600a602052604090206006601182015460ff16600781111561307b5761307b614980565b148061309f57506007601182015460ff16600781111561309d5761309d614980565b145b806130c257506005601182015460ff1660078111156130c0576130c0614980565b145b806130e557506000601182015460ff1660078111156130e3576130e3614980565b145b6131015760405162461bcd60e51b8152600401610a8190615282565b60075460405163d23b85a360e01b8152600481018490526000916001600160a01b03169063d23b85a390602401602060405180830381865afa15801561314b573d6000803e3d6000fd5b505050506040513d601f19601f8201168201806040525081019061316f9190615575565b600754604051632464077360e21b8152600481018690526001600160a01b0380841660248301529293509116906391901dcc90604401600060405180830381600087803b1580156131bf57600080fd5b505af11580156131d3573d6000803e3d6000fd5b50505050505061320260017f9b779b17422d0df92223018b32b4d1fa46e071723d6817e2486d003becc55f0055565b50565b80613210338261235f565b80613220575061322033826109e0565b6132515760405162461bcd60e51b81526020600482015260026024820152614f4160f01b6044820152606401610a81565b6000828152600a6020526040812090601182015460ff16600781111561327957613279614980565b148061329d57506001601182015460ff16600781111561329b5761329b614980565b145b806132c057506002601182015460ff1660078111156132be576132be614980565b145b806132e357506003601182015460ff1660078111156132e1576132e1614980565b145b6132ff5760405162461bcd60e51b8152600401610a8190615282565b601101805460ff191660051790555050565b6133196139d3565b6001600160a01b03811661334357604051631e4fbdf760e01b815260006004820152602401610a81565b61320281613a2e565b61335633826123ba565b61338b5760405162461bcd60e51b81526020600482015260066024820152650dcde40e8d2f60d31b6044820152606401610a81565b60046000828152600a602052604090206011015460ff1660078111156133b3576133b3614980565b146133d05760405162461bcd60e51b8152600401610a8190615282565b6000818152600f6020908152604080832033845290915290205460ff16156134205760405162461bcd60e51b81526020600482015260036024820152621090bb60e91b6044820152606401610a81565b6000818152600f602090815260408083203384528252808320805460ff19166001908117909155848452600e9092528220805491929091613462908490615562565b9091555061347190508161427c565b156132025761320281614320565b600a60205260009081526040902080546001820180549192916134a190615652565b80601f01602080910402602001604051908101604052809291908181526020018280546134cd90615652565b801561351a5780601f106134ef5761010080835404028352916020019161351a565b820191906000526020600020905b8154815290600101906020018083116134fd57829003601f168201915b50505050509080600201805461352f90615652565b80601f016020809104026020016040519081016040528092919081815260200182805461355b90615652565b80156135a85780601f1061357d576101008083540402835291602001916135a8565b820191906000526020600020905b81548152906001019060200180831161358b57829003601f168201915b5050505050908060030160009054906101000a90046001600160a01b031690806005016040518060e0016040529081600082015481526020016001820180546135f090615652565b80601f016020809104026020016040519081016040528092919081815260200182805461361c90615652565b80156136695780601f1061363e57610100808354040283529160200191613669565b820191906000526020600020905b81548152906001019060200180831161364c57829003601f168201915b5050505050815260200160028201805461368290615652565b80601f01602080910402602001604051908101604052809291908181526020018280546136ae90615652565b80156136fb5780601f106136d0576101008083540402835291602001916136fb565b820191906000526020600020905b8154815290600101906020018083116136de57829003601f168201915b505050918352505060038201546001600160a01b0316602080830191909152604080518082018252600485015481526005850154928101929092528201526006820154606082015260078201805460809092019161375890615652565b80601f016020809104026020016040519081016040528092919081815260200182805461378490615652565b80156137d15780601f106137a6576101008083540402835291602001916137d1565b820191906000526020600020905b8154815290600101906020018083116137b457829003601f168201915b50505091909252505050600d820154600f8301546010840154601185015460138601546014870154601590970154959694959394929360ff9092169290916001600160a01b03168c565b306001600160a01b037f00000000000000000000000000000000000000000000000000000000000000001614806138a257507f00000000000000000000000000000000000000000000000000000000000000006001600160a01b0316613896600080516020615ce6833981519152546001600160a01b031690565b6001600160a01b031614155b156127275760405163703e46dd60e11b815260040160405180910390fd5b6132026139d3565b816001600160a01b03166352d1902d6040518163ffffffff1660e01b8152600401602060405180830381865afa925050508015613922575060408051601f3d908101601f1916820190925261391f9181019061529e565b60015b61394a57604051634c9c8ce360e01b81526001600160a01b0383166004820152602401610a81565b600080516020615ce6833981519152811461397b57604051632a87526960e21b815260048101829052602401610a81565b61398583836143a1565b505050565b306001600160a01b037f000000000000000000000000000000000000000000000000000000000000000016146127275760405163703e46dd60e11b815260040160405180910390fd5b33613a057f9016d09d72d40fdae2fd8ceac6b6234c7706214fd39c1cd1e609a0528c199300546001600160a01b031690565b6001600160a01b0316146127275760405163118cdaa760e01b8152336004820152602401610a81565b7f9016d09d72d40fdae2fd8ceac6b6234c7706214fd39c1cd1e609a0528c19930080546001600160a01b031981166001600160a01b03848116918217845560405192169182907f8be0079c531659141344cd1fd0a4f28419497f9722a3daafe3b4186f6b6457e090600090a3505050565b805151600003613ac25760405163430f13b360e01b815260040160405180910390fd5b6000816080015111613ae7576040516331278a8760e01b815260040160405180910390fd5b6020810151511580613aff57506103e8816020015151115b15613b1d576040516340132f1f60e01b815260040160405180910390fd5b60328160a0015160ff161080613b3a575060648160a0015160ff16115b15613b585760405163ad7d3a4d60e01b815260040160405180910390fd5b60608101515163055d4a7f191380613b78575060608101515163055d4a80125b15613b965760405163c2df0dc560e01b815260040160405180910390fd5b630aba94ff198160600151602001511280613bbc5750630aba9500816060015160200151135b15613bda5760405163016cb17f60e71b815260040160405180910390fd5b6107088161014001516000015163ffffffff161015613c0c57604051631e68fc9d60e21b815260040160405180910390fd5b61012c8161014001516020015163ffffffff161015613c3e57604051631e68fc9d60e21b815260040160405180910390fd5b610a8c8161014001516040015163ffffffff161015613c7057604051631e68fc9d60e21b815260040160405180910390fd5b60788161014001516060015163ffffffff161015613ca157604051631e68fc9d60e21b815260040160405180910390fd5b6132028161010001518260400151516143f7565b805160408083015160608401518051602091820151608087015160a088015160c08901516101208a01519751600099613cf5999098979091339101615b0c565b60408051601f1981840301815291815281516020928301206000818152600a90935291208351919250906001820190613d2e9082615b7c565b5060208301516002820190613d439082615b7c565b506003810180546001600160a01b0319163317905560408301518051613d739160048401916020909101906146c6565b506040805160e081018252600080825282516020818101855282825280840191825284518082018652838152848601526060808501849052880151608085015260c08089015160a086015285519182019095529182529282015280516005840190815591519091906006840190613dea9082615b7c565b5060408201516002820190613dff9082615b7c565b5060608201516003820180546001600160a01b0319166001600160a01b0390921691909117905560808201518051600483015560200151600582015560a0820151600682015560c08201516007820190613e599082615b7c565b5050506080830151600d82015560a083015160ff16600f82015560c0830151601082015560118101805460ff191690556101008301518051613ea591601284019160209091019061472b565b50613eb34262278d00615562565b6013820155600060148201556101208301516015820180546001600160a01b0319166001600160a01b0392831690811790915560075460405163e8aa2e5f60e01b81526004810186905260248101929092529091169063e8aa2e5f90604401600060405180830381600087803b158015613f2c57600080fd5b505af1158015613f40573d6000803e3d6000fd5b5050505060005b8360e0015151811015613fc95781600e018460e001518281518110613f6e57613f6e615592565b60209081029190910181015182546001810184556000938452919092208251600390920201908190613fa09082615b7c565b506020820151600182015560409091015160029091015580613fc1816155a8565b915050613f47565b5060005b83604001515181101561404b576001600d600085815260200190815260200160002060008660400151848151811061400757614007615592565b6020908102919091018101516001600160a01b03168252810191909152604001600020805460ff191691151591909117905580614043816155a8565b915050613fcd565b50336001600160a01b0316827fa01783f955984485ce010e7dc2b7745239040a2b48640ffd2a56fb065911fc688560000151866040015187602001518860a001518961010001518a61012001516040516140aa96959493929190615c35565b60405180910390a350919050565b600154604051634b84567160e11b81526001600160a01b038781166004830152602482018790526044820186905260648201859052608482018490526000921690639708ace29060a4016020604051808303816000875af1158015614121573d6000803e3d6000fd5b505050506040513d601f19601f820116820180604052508101906141459190615575565b6007546006546040516301156c6760e71b81523060048201526001600160a01b0392831660248201529082166044820152919250821690638ab6338090606401600060405180830381600087803b15801561419f57600080fd5b505af11580156141b3573d6000803e3d6000fd5b505050600097885250600c602052604090962080546001600160a01b0319166001600160a01b03909716969096179095555050505050565b6141f361448a565b6127276144d3565b61420361448a565b613202816144db565b7f9b779b17422d0df92223018b32b4d1fa46e071723d6817e2486d003becc55f0080546001190161425057604051633ee5aeb560e01b815260040160405180910390fd5b60029055565b60017f9b779b17422d0df92223018b32b4d1fa46e071723d6817e2486d003becc55f0055565b6000818152600e6020526040808220546008549151630610418760e41b815260048101859052909183916001600160a01b0390911690636104187090602401602060405180830381865afa1580156142d8573d6000803e3d6000fd5b505050506040513d601f19601f820116820180604052508101906142fc919061529e565b9050606461430b826042615af5565b6143159190615ca7565b909110159392505050565b6000818152600a6020526040902060110180546005919060ff19166001830217905550807f6a409f0f8d124fc3c3a9f5c354dc2901c33e711b0a6f705e8682307426329fb86040516143969060208082526010908201526f115b595c99d95b98de481499599d5b9960821b604082015260600190565b60405180910390a250565b6143aa826144e3565b6040516001600160a01b038316907fbc7cd75a20ee27fd9adebab32041f755214dbc6bffa90cc0225b39da2e5c2d3b90600090a28051156143ef576139858282614548565b6113e16145be565b614402816002615562565b825114614422576040516328e525af60e21b815260040160405180910390fd5b6000805b83518110156144685783818151811061444157614441615592565b6020026020010151826144549190615562565b915080614460816155a8565b915050614426565b5080606414613985576040516317b5e2db60e01b815260040160405180910390fd5b7ff0c57e16840df040f15088dc2f81fe391c3923bec73e23a9662efc9c229c6a0054600160401b900460ff1661272757604051631afcd79f60e31b815260040160405180910390fd5b61425661448a565b61331961448a565b806001600160a01b03163b60000361451957604051634c9c8ce360e01b81526001600160a01b0382166004820152602401610a81565b600080516020615ce683398151915280546001600160a01b0319166001600160a01b0392909216919091179055565b6060600080846001600160a01b0316846040516145659190615cc9565b600060405180830381855af49150503d80600081146145a0576040519150601f19603f3d011682016040523d82523d6000602084013e6145a5565b606091505b50915091506145b58583836145dd565b95945050505050565b34156127275760405163b398979f60e01b815260040160405180910390fd5b6060826145f2576145ed8261463c565b614635565b815115801561460957506001600160a01b0384163b155b1561463257604051639996b31560e01b81526001600160a01b0385166004820152602401610a81565b50805b9392505050565b80511561464c5780518082602001fd5b604051630a12f52160e11b815260040160405180910390fd5b6040518060e0016040528060008152602001606081526020016060815260200160006001600160a01b031681526020016146b2604051806040016040528060008152602001600081525090565b815260200160008152602001606081525090565b82805482825590600052602060002090810192821561471b579160200282015b8281111561471b57825182546001600160a01b0319166001600160a01b039091161782556020909201916001909101906146e6565b50614727929150614766565b5090565b82805482825590600052602060002090810192821561471b579160200282015b8281111561471b57825182559160200191906001019061474b565b5b808211156147275760008155600101614767565b6001600160a01b038116811461320257600080fd5b8035612b2a8161477b565b600080604083850312156147ae57600080fd5b82356147b98161477b565b946020939093013593505050565b600080604083850312156147da57600080fd5b823591506020830135600881106147f057600080fd5b809150509250929050565b60008060006060848603121561481057600080fd5b505081359360208301359350604090920135919050565b6000806040838503121561483a57600080fd5b8235915060208301356147f08161477b565b60006020828403121561485e57600080fd5b5035919050565b60005b83811015614880578181015183820152602001614868565b50506000910152565b600081518084526148a1816020860160208601614865565b601f01601f19169290920160200192915050565b600081518084526020808501945080840160005b838110156148ee5781516001600160a01b0316875295820195908201906001016148c9565b509495945050505050565b600061010082518452602083015181602086015261491982860182614889565b915050604083015184820360408601526149338282614889565b91505060018060a01b036060840151166060850152608083015180516080860152602081015160a08601525060a083015160c085015260c083015184820360e08601526145b58282614889565b634e487b7160e01b600052602160045260246000fd5b600881106149b457634e487b7160e01b600052602160045260246000fd5b9052565b60006101408083526149cc8184018e614889565b90506020838203818501526149e1828e614889565b9150604060018060a01b038d1681860152606085840381870152614a05848e6148b5565b93508584036080870152614a19848d6148f9565b935085840360a0870152838b518086528486019150848160051b870101858e0160005b83811015614a8557888303601f1901855281518051878552614a6088860182614889565b828b0151868c0152918901519489019490945294880194925090870190600101614a3c565b5050809750505050505050508560c08301528460e0830152614aab610100830185614996565b6001600160a01b0383166101208301529b9a5050505050505050505050565b60008060408385031215614add57600080fd5b50508035926020909101359150565b60208101610a078284614996565b634e487b7160e01b600052604160045260246000fd5b604080519081016001600160401b0381118282101715614b3257614b32614afa565b60405290565b604051606081016001600160401b0381118282101715614b3257614b32614afa565b60405161016081016001600160401b0381118282101715614b3257614b32614afa565b60405160e081016001600160401b0381118282101715614b3257614b32614afa565b604051601f8201601f191681016001600160401b0381118282101715614bc757614bc7614afa565b604052919050565b60006001600160401b03821115614be857614be8614afa565b50601f01601f191660200190565b6000614c09614c0484614bcf565b614b9f565b9050828152838383011115614c1d57600080fd5b828260208301376000602084830101529392505050565b60008060408385031215614c4757600080fd5b8235614c528161477b565b915060208301356001600160401b03811115614c6d57600080fd5b8301601f81018513614c7e57600080fd5b614c8d85823560208401614bf6565b9150509250929050565b600080600080600080600080610100898b031215614cb457600080fd5b8835614cbf8161477b565b97506020890135614ccf8161477b565b96506040890135614cdf8161477b565b95506060890135614cef8161477b565b94506080890135614cff8161477b565b935060a0890135614d0f8161477b565b925060c0890135614d1f8161477b565b915060e0890135614d2f8161477b565b809150509295985092959890939650565b606081526000614d536060830186614889565b60208301949094525060400152919050565b600082601f830112614d7657600080fd5b61463583833560208501614bf6565b60006001600160401b03821115614d9e57614d9e614afa565b5060051b60200190565b600082601f830112614db957600080fd5b81356020614dc9614c0483614d85565b82815260059290921b84018101918181019086841115614de857600080fd5b8286015b84811015614e0c578035614dff8161477b565b8352918301918301614dec565b509695505050505050565b600060408284031215614e2957600080fd5b614e31614b10565b9050813581526020820135602082015292915050565b803560ff81168114612b2a57600080fd5b600082601f830112614e6957600080fd5b81356020614e79614c0483614d85565b82815260059290921b84018101918181019086841115614e9857600080fd5b8286015b84811015614e0c5780356001600160401b0380821115614ebc5760008081fd5b908801906060828b03601f1901811315614ed65760008081fd5b614ede614b38565b8784013583811115614ef05760008081fd5b614efe8d8a83880101614d65565b82525060408481013589830152919093013590830152508352918301918301614e9c565b600082601f830112614f3357600080fd5b81356020614f43614c0483614d85565b82815260059290921b84018101918181019086841115614f6257600080fd5b8286015b84811015614e0c5780358352918301918301614f66565b803563ffffffff81168114612b2a57600080fd5b600060808284031215614fa357600080fd5b604051608081018181106001600160401b0382111715614fc557614fc5614afa565b604052905080614fd483614f7d565b8152614fe260208401614f7d565b6020820152614ff360408401614f7d565b604082015261500460608401614f7d565b60608201525092915050565b60006020828403121561502257600080fd5b81356001600160401b038082111561503957600080fd5b908301906101e0828603121561504e57600080fd5b615056614b5a565b82358281111561506557600080fd5b61507187828601614d65565b82525060208301358281111561508657600080fd5b61509287828601614d65565b6020830152506040830135828111156150aa57600080fd5b6150b687828601614da8565b6040830152506150c98660608501614e17565b606082015260a083013560808201526150e460c08401614e47565b60a082015260e083013560c0820152610100808401358381111561510757600080fd5b61511388828701614e58565b60e084015250610120808501358481111561512d57600080fd5b61513989828801614f22565b8385015250610140935061514e848601614790565b9083015250615161866101608501614f91565b91810191909152949350505050565b6000806040838503121561518357600080fd5b8235915060208301356001600160401b038111156151a057600080fd5b830161010081860312156147f057600080fd5b6020815260006146356020830184614889565b6000602082840312156151d857600080fd5b81356146358161477b565b60006101808e83528060208401526151fd8184018f614889565b90508281036040840152615211818e614889565b6001600160a01b038d811660608601528482036080860152909150615236828d6148f9565b92508a60a08501528960c08501528860e0850152615258610100850189614996565b866101208501528561014085015280851661016085015250509d9c50505050505050505050505050565b602080825260029082015261217360f01b604082015260600190565b6000602082840312156152b057600080fd5b5051919050565b600082601f8301126152c857600080fd5b81516152d6614c0482614bcf565b8181528460208386010111156152eb57600080fd5b6152fc826020830160208701614865565b949350505050565b8051612b2a8161477b565b60006040828403121561532157600080fd5b615329614b10565b9050815181526020820151602082015292915050565b6000610100828403121561535257600080fd5b61535a614b7d565b90508151815260208201516001600160401b038082111561537a57600080fd5b615386858386016152b7565b6020840152604084015191508082111561539f57600080fd5b6153ab858386016152b7565b60408401526153bc60608501615304565b60608401526153ce856080860161530f565b608084015260c084015160a084015260e08401519150808211156153f157600080fd5b506153fe848285016152b7565b60c08301525092915050565b600082601f83011261541b57600080fd5b8151602061542b614c0483614d85565b82815260059290921b8401810191818101908684111561544a57600080fd5b8286015b84811015614e0c578051835291830191830161544e565b80518015158114612b2a57600080fd5b60006020828403121561548757600080fd5b81516001600160401b038082111561549e57600080fd5b9083019060e082860312156154b257600080fd5b6154ba614b7d565b8251828111156154c957600080fd5b6154d58782860161533f565b8252506020830151828111156154ea57600080fd5b6154f68782860161540a565b60208301525061550860408401615304565b6040820152606083015160608201526080830151608082015261552d60a08401615465565b60a082015261553e60c08401615304565b60c082015295945050505050565b634e487b7160e01b600052601160045260246000fd5b80820180821115610a0757610a0761554c565b60006020828403121561558757600080fd5b81516146358161477b565b634e487b7160e01b600052603260045260246000fd5b6000600182016155ba576155ba61554c565b5060010190565b81810381811115610a0757610a0761554c565b600081518084526020808501945080840160005b838110156148ee578151875295820195908201906001016155e8565b85815260a06020820152600061561d60a08301876148b5565b828103604084015261562f81876155d4565b606084019590955250506001600160a01b03919091166080909101529392505050565b600181811c9082168061566657607f821691505b60208210810361235957634e487b7160e01b600052602260045260246000fd5b60006020828403121561569857600080fd5b61463582615465565b600080604083850312156156b457600080fd5b505080516020909101519092909150565b6000602082840312156156d757600080fd5b81516001600160401b038111156156ed57600080fd5b6152fc8482850161540a565b6000808335601e1984360301811261571057600080fd5b8301803591506001600160401b0382111561572a57600080fd5b60200191503681900382131561573f57600080fd5b9250929050565b601f82111561398557600081815260208120601f850160051c8101602086101561576d5750805b601f850160051c820191505b81811015612d6757828155600101615779565b600019600383901b1c191660019190911b1790565b6001600160401b038311156157b8576157b8614afa565b6157cc836157c68354615652565b83615746565b6000601f8411600181146157fa57600085156157e85750838201355b6157f2868261578c565b845550615854565b600083815260209020601f19861690835b8281101561582b578685013582556020948501946001909201910161580b565b50868210156158485760001960f88860031b161c19848701351681555b505060018560011b0183555b5050505050565b60008135610a078161477b565b813581556001808201602061587f818601866156f9565b6001600160401b0381111561589657615896614afa565b6158aa816158a48654615652565b86615746565b6000601f8211600181146158d857600083156158c65750838201355b6158d0848261578c565b87555061592d565b600086815260209020601f19841690835b8281101561590657868501358255938701939089019087016158e9565b50848210156159235760001960f88660031b161c19848701351681555b50508683881b0186555b5050505050505061594160408301836156f9565b61594f8183600286016157a1565b50506159846159606060840161585b565b6003830180546001600160a01b0319166001600160a01b0392909216919091179055565b6080820135600482015560a0820135600582015560c082013560068201556159af60e08301836156f9565b6130448183600786016157a1565b6000808335601e198436030181126159d457600080fd5b83016020810192503590506001600160401b038111156159f357600080fd5b80360382131561573f57600080fd5b81835281816020850137506000828201602090810191909152601f909101601f19169091010190565b60208152813560208201526000615a4560208401846159bd565b610100806040860152615a5d61012086018385615a02565b9250615a6c60408701876159bd565b9250601f1980878603016060880152615a86858584615a02565b945060608801359350615a988461477b565b60018060a01b0384166080880152608088013560a088015260a088013560c088015260c088013560e0880152615ad160e08901896159bd565b9450915080878603018388015250615aea848483615a02565b979650505050505050565b8082028115828204841417610a0757610a0761554c565b6000610120808352615b208184018d614889565b90508281036020840152615b34818c6148b5565b604084019a909a5250506060810196909652608086019490945260ff9290921660a085015260c08401526001600160a01b0390811660e0840152166101009091015292915050565b81516001600160401b03811115615b9557615b95614afa565b615ba981615ba38454615652565b84615746565b602080601f831160018114615bd85760008415615bc65750858301515b615bd0858261578c565b865550612d67565b600085815260208120601f198616915b82811015615c0757888601518255948401946001909101908401615be8565b5085821015615c255787850151600019600388901b60f8161c191681555b5050505050600190811b01905550565b60c081526000615c4860c0830189614889565b8281036020840152615c5a81896148b5565b90508281036040840152615c6e8188614889565b905060ff861660608401528281036080840152615c8b81866155d4565b91505060018060a01b03831660a0830152979650505050505050565b600082615cc457634e487b7160e01b600052601260045260246000fd5b500490565b60008251615cdb818460208701614865565b919091019291505056fe360894a13ba1a3210667c828492db98dca3e2076cc3735a920a3ca505d382bbca2646970667358221220941a95da55d6f08c7ea7cd3bd7cb9cf8023316a2e4fd64c892cad4f60b5bf00d64736f6c63430008140033","linkReferences":{}},"methodIdentifiers":{"COOLDOWN()":"a2724a4d","SELLOUT_PROTOCOL_WALLET()":"e30228be","UPGRADE_INTERFACE_VERSION()":"ad3cb1cc","artistRegistryInstance()":"8dea15a1","boxOfficeInstance()":"a2b7d174","cancelShow(bytes32)":"ef5023a5","completeShow(bytes32)":"129e086b","consumeTicketTier(bytes32,uint256,uint256)":"644b5e59","getNumberOfVoters(bytes32)":"85ffa16c","getOrganizer(bytes32)":"977cb89e","getShowById(bytes32)":"27b1bf52","getShowStatus(bytes32)":"46c2c8a7","getShowToTicketProxy(bytes32)":"fdc7066c","getShowToVenueProxy(bytes32)":"3e2fea34","getTicketTierInfo(bytes32,uint256)":"7e3e3935","hasTicket(address,bytes32)":"5c37da69","hasVotedForEmergencyRefund(bytes32,address)":"63c18a52","initialize(address)":"c4d66de8","isArtist(address,bytes32)":"02c9a8b5","isArtistMapping(bytes32,address)":"bafd4eb0","isOrganizer(address,bytes32)":"4ed372da","organizerRegistryInstance()":"1cf2103e","owner()":"8da5cb5b","payout(bytes32)":"cfefb3d5","proposeShow((string,string,address[],(int256,int256),uint256,uint8,uint256,(string,uint256,uint256)[],uint256[],address,(uint32,uint32,uint32,uint32)))":"a110412c","proxiableUUID()":"52d1902d","referralInstance()":"c6ab848a","refundBribe(bytes32,uint256,uint256)":"0a35906b","refundTicket(bytes32,uint256)":"3c60d2d6","renounceOwnership()":"715018a6","setProtocolAddresses(address,address,address,address,address,address,address,address)":"5f198834","setShowToTicketProxy(bytes32,address)":"0b5c6364","showToTicketProxy(bytes32)":"3deba964","showToVenueProxy(bytes32)":"e71aee7e","showVaultInstance()":"6a017891","shows(bytes32)":"fca46559","ticketFactoryInstance()":"e4ca73aa","transferOwnership(address)":"f2fde38b","updateShowDate(bytes32,uint256)":"64ad6cd6","updateShowVenue(bytes32,(uint256,string,string,address,(int256,int256),uint256,string))":"a94dafab","updateStatus(bytes32,uint8)":"054372ed","updateStatusIfSoldOut(bytes32)":"e6180546","upgradeToAndCall(address,bytes)":"4f1ef286","venueFactoryInstance()":"9673b1e3","venueRegistryInstance()":"703ee4e5","voteForEmergencyRefund(bytes32)":"fc4bdfd4","votesForEmergencyRefund(bytes32)":"9ee0a14e","withdrawRefund(bytes32)":"e9acfa7c"},"id":70}