{"abi":[{"type":"function","name":"SELLOUT_PROTOCOL_WALLET","inputs":[],"outputs":[{"name":"","type":"address","internalType":"address"}],"stateMutability":"view"},{"type":"function","name":"boxOfficeContract","inputs":[],"outputs":[{"name":"","type":"address","internalType":"address"}],"stateMutability":"view"},{"type":"function","name":"pendingPayouts","inputs":[{"name":"","type":"bytes32","internalType":"bytes32"},{"name":"","type":"address","internalType":"address"}],"outputs":[{"name":"","type":"uint256","internalType":"uint256"}],"stateMutability":"view"},{"type":"function","name":"pendingRefunds","inputs":[{"name":"","type":"bytes32","internalType":"bytes32"},{"name":"","type":"address","internalType":"address"}],"outputs":[{"name":"","type":"uint256","internalType":"uint256"}],"stateMutability":"view"},{"type":"function","name":"pendingTokenPayouts","inputs":[{"name":"","type":"bytes32","internalType":"bytes32"},{"name":"","type":"address","internalType":"address"},{"name":"","type":"address","internalType":"address"}],"outputs":[{"name":"","type":"uint256","internalType":"uint256"}],"stateMutability":"view"},{"type":"function","name":"pendingTokenRefunds","inputs":[{"name":"","type":"bytes32","internalType":"bytes32"},{"name":"","type":"address","internalType":"address"},{"name":"","type":"address","internalType":"address"}],"outputs":[{"name":"","type":"uint256","internalType":"uint256"}],"stateMutability":"view"},{"type":"function","name":"showContract","inputs":[],"outputs":[{"name":"","type":"address","internalType":"address"}],"stateMutability":"view"},{"type":"function","name":"showInstance","inputs":[],"outputs":[{"name":"","type":"address","internalType":"contract IShow"}],"stateMutability":"view"},{"type":"function","name":"showPaymentTokens","inputs":[{"name":"","type":"bytes32","internalType":"bytes32"}],"outputs":[{"name":"","type":"address","internalType":"address"}],"stateMutability":"view"},{"type":"function","name":"showTokenVault","inputs":[{"name":"","type":"bytes32","internalType":"bytes32"},{"name":"","type":"address","internalType":"address"}],"outputs":[{"name":"","type":"uint256","internalType":"uint256"}],"stateMutability":"view"},{"type":"function","name":"showVault","inputs":[{"name":"","type":"bytes32","internalType":"bytes32"}],"outputs":[{"name":"","type":"uint256","internalType":"uint256"}],"stateMutability":"view"}],"bytecode":{"object":"0x608060405234801561001057600080fd5b50610324806100206000396000f3fe608060405234801561001057600080fd5b50600436106100a95760003560e01c8063867e68af11610071578063867e68af146101845780638e70362b146101a457806392ea6388146101cf578063b25e93ff14610200578063c9e21e5e14610213578063e30228be1461023e57600080fd5b8063404f49d1146100ae5780635696c07c146100de5780635765fec3146101175780636c92b022146101405780637597679514610153575b600080fd5b6003546100c1906001600160a01b031681565b6040516001600160a01b0390911681526020015b60405180910390f35b6101096100ec36600461026d565b600660209081526000928352604080842090915290825290205481565b6040519081526020016100d5565b6100c1610125366004610299565b600a602052600090815260409020546001600160a01b031681565b6002546100c1906001600160a01b031681565b6101096101613660046102b2565b600960209081526000938452604080852082529284528284209052825290205481565b610109610192366004610299565b60046020526000908152604090205481565b6101096101b236600461026d565b600860209081526000928352604080842090915290825290205481565b6101096101dd3660046102b2565b600760209081526000938452604080852082529284528284209052825290205481565b6001546100c1906001600160a01b031681565b61010961022136600461026d565b600560209081526000928352604080842090915290825290205481565b6000546100c1906001600160a01b031681565b80356001600160a01b038116811461026857600080fd5b919050565b6000806040838503121561028057600080fd5b8235915061029060208401610251565b90509250929050565b6000602082840312156102ab57600080fd5b5035919050565b6000806000606084860312156102c757600080fd5b833592506102d760208501610251565b91506102e560408501610251565b9050925092509256fea2646970667358221220f71ce56dc4c8d8ad878c15b927b5137f5888f5c76615be405d557a51c6b3850664736f6c63430008140033","linkReferences":{}},"methodIdentifiers":{"SELLOUT_PROTOCOL_WALLET()":"e30228be","boxOfficeContract()":"6c92b022","pendingPayouts(bytes32,address)":"8e70362b","pendingRefunds(bytes32,address)":"5696c07c","pendingTokenPayouts(bytes32,address,address)":"75976795","pendingTokenRefunds(bytes32,address,address)":"92ea6388","showContract()":"b25e93ff","showInstance()":"404f49d1","showPaymentTokens(bytes32)":"5765fec3","showTokenVault(bytes32,address)":"c9e21e5e","showVault(bytes32)":"867e68af"},"id":93}