{"abi":[{"type":"function","name":"MAX_TICKETS_PER_WALLET","inputs":[],"outputs":[{"name":"","type":"uint256","internalType":"uint256"}],"stateMutability":"view"},{"type":"function","name":"UPGRADE_INTERFACE_VERSION","inputs":[],"outputs":[{"name":"","type":"string","internalType":"string"}],"stateMutability":"view"},{"type":"function","name":"balanceOf","inputs":[{"name":"account","type":"address","internalType":"address"},{"name":"id","type":"uint256","internalType":"uint256"}],"outputs":[{"name":"","type":"uint256","internalType":"uint256"}],"stateMutability":"view"},{"type":"function","name":"balanceOfBatch","inputs":[{"name":"accounts","type":"address[]","internalType":"address[]"},{"name":"ids","type":"uint256[]","internalType":"uint256[]"}],"outputs":[{"name":"","type":"uint256[]","internalType":"uint256[]"}],"stateMutability":"view"},{"type":"function","name":"boxOfficeInstance","inputs":[],"outputs":[{"name":"","type":"address","internalType":"contract IBoxOffice"}],"stateMutability":"view"},{"type":"function","name":"burnTokens","inputs":[{"name":"tokenId","type":"uint256","internalType":"uint256"},{"name":"amount","type":"uint256","internalType":"uint256"},{"name":"owner","type":"address","internalType":"address"}],"outputs":[],"stateMutability":"nonpayable"},{"type":"function","name":"bytes32ToHexString","inputs":[{"name":"_bytes32","type":"bytes32","internalType":"bytes32"}],"outputs":[{"name":"","type":"string","internalType":"string"}],"stateMutability":"pure"},{"type":"function","name":"contractURI","inputs":[],"outputs":[{"name":"","type":"string","internalType":"string"}],"stateMutability":"view"},{"type":"function","name":"getShowIdByTicketId","inputs":[{"name":"ticketId","type":"uint256","internalType":"uint256"}],"outputs":[{"name":"showId","type":"bytes32","internalType":"bytes32"}],"stateMutability":"view"},{"type":"function","name":"getTicketPricePaidAndTierIndex","inputs":[{"name":"showId","type":"bytes32","internalType":"bytes32"},{"name":"ticketId","type":"uint256","internalType":"uint256"}],"outputs":[{"name":"price","type":"uint256","internalType":"uint256"},{"name":"tierIndex","type":"uint256","internalType":"uint256"}],"stateMutability":"view"},{"type":"function","name":"initialize","inputs":[{"name":"initialOwner","type":"address","internalType":"address"},{"name":"_version","type":"string","internalType":"string"}],"outputs":[],"stateMutability":"nonpayable"},{"type":"function","name":"isApprovedForAll","inputs":[{"name":"account","type":"address","internalType":"address"},{"name":"operator","type":"address","internalType":"address"}],"outputs":[{"name":"","type":"bool","internalType":"bool"}],"stateMutability":"view"},{"type":"function","name":"owner","inputs":[],"outputs":[{"name":"","type":"address","internalType":"address"}],"stateMutability":"view"},{"type":"function","name":"proxiableUUID","inputs":[],"outputs":[{"name":"","type":"bytes32","internalType":"bytes32"}],"stateMutability":"view"},{"type":"function","name":"purchaseTickets","inputs":[{"name":"showId","type":"bytes32","internalType":"bytes32"},{"name":"tierIndex","type":"uint256","internalType":"uint256"},{"name":"amount","type":"uint256","internalType":"uint256"},{"name":"paymentToken","type":"address","internalType":"address"}],"outputs":[],"stateMutability":"payable"},{"type":"function","name":"renounceOwnership","inputs":[],"outputs":[],"stateMutability":"nonpayable"},{"type":"function","name":"safeBatchTransferFrom","inputs":[{"name":"from","type":"address","internalType":"address"},{"name":"to","type":"address","internalType":"address"},{"name":"ids","type":"uint256[]","internalType":"uint256[]"},{"name":"amounts","type":"uint256[]","internalType":"uint256[]"},{"name":"data","type":"bytes","internalType":"bytes"}],"outputs":[],"stateMutability":"nonpayable"},{"type":"function","name":"safeTransferFrom","inputs":[{"name":"from","type":"address","internalType":"address"},{"name":"to","type":"address","internalType":"address"},{"name":"id","type":"uint256","internalType":"uint256"},{"name":"amount","type":"uint256","internalType":"uint256"},{"name":"data","type":"bytes","internalType":"bytes"}],"outputs":[],"stateMutability":"nonpayable"},{"type":"function","name":"setApprovalForAll","inputs":[{"name":"operator","type":"address","internalType":"address"},{"name":"approved","type":"bool","internalType":"bool"}],"outputs":[],"stateMutability":"nonpayable"},{"type":"function","name":"setDefaultURIForShow","inputs":[{"name":"showId","type":"bytes32","internalType":"bytes32"},{"name":"newDefaultURI","type":"string","internalType":"string"}],"outputs":[],"stateMutability":"nonpayable"},{"type":"function","name":"setShowContractAddresses","inputs":[{"name":"_showContractAddress","type":"address","internalType":"address"},{"name":"_boxOfficeAddress","type":"address","internalType":"address"},{"name":"_showVaultAddress","type":"address","internalType":"address"}],"outputs":[],"stateMutability":"nonpayable"},{"type":"function","name":"setTokenURI","inputs":[{"name":"showId","type":"bytes32","internalType":"bytes32"},{"name":"tokenId","type":"uint256","internalType":"uint256"},{"name":"newURI","type":"string","internalType":"string"}],"outputs":[],"stateMutability":"nonpayable"},{"type":"function","name":"showInstance","inputs":[],"outputs":[{"name":"","type":"address","internalType":"contract IShow"}],"stateMutability":"view"},{"type":"function","name":"showVaultInstance","inputs":[],"outputs":[{"name":"","type":"address","internalType":"contract IShowVault"}],"stateMutability":"view"},{"type":"function","name":"supportsInterface","inputs":[{"name":"interfaceId","type":"bytes4","internalType":"bytes4"}],"outputs":[{"name":"","type":"bool","internalType":"bool"}],"stateMutability":"view"},{"type":"function","name":"ticketIdToTierIndex","inputs":[{"name":"","type":"uint256","internalType":"uint256"}],"outputs":[{"name":"","type":"uint256","internalType":"uint256"}],"stateMutability":"view"},{"type":"function","name":"transferOwnership","inputs":[{"name":"newOwner","type":"address","internalType":"address"}],"outputs":[],"stateMutability":"nonpayable"},{"type":"function","name":"upgradeToAndCall","inputs":[{"name":"newImplementation","type":"address","internalType":"address"},{"name":"data","type":"bytes","internalType":"bytes"}],"outputs":[],"stateMutability":"payable"},{"type":"function","name":"uri","inputs":[{"name":"tokenId","type":"uint256","internalType":"uint256"}],"outputs":[{"name":"","type":"string","internalType":"string"}],"stateMutability":"view"},{"type":"function","name":"version","inputs":[],"outputs":[{"name":"","type":"string","internalType":"string"}],"stateMutability":"view"},{"type":"event","name":"ApprovalForAll","inputs":[{"name":"account","type":"address","indexed":true,"internalType":"address"},{"name":"operator","type":"address","indexed":true,"internalType":"address"},{"name":"approved","type":"bool","indexed":false,"internalType":"bool"}],"anonymous":false},{"type":"event","name":"Initialized","inputs":[{"name":"version","type":"uint64","indexed":false,"internalType":"uint64"}],"anonymous":false},{"type":"event","name":"OwnershipTransferred","inputs":[{"name":"previousOwner","type":"address","indexed":true,"internalType":"address"},{"name":"newOwner","type":"address","indexed":true,"internalType":"address"}],"anonymous":false},{"type":"event","name":"TicketPurchased","inputs":[{"name":"buyer","type":"address","indexed":true,"internalType":"address"},{"name":"showId","type":"bytes32","indexed":true,"internalType":"bytes32"},{"name":"tierIndex","type":"uint256","indexed":false,"internalType":"uint256"},{"name":"tokenId","type":"uint256","indexed":false,"internalType":"uint256"},{"name":"amount","type":"uint256","indexed":false,"internalType":"uint256"},{"name":"paymentToken","type":"address","indexed":false,"internalType":"address"}],"anonymous":false},{"type":"event","name":"TransferBatch","inputs":[{"name":"operator","type":"address","indexed":true,"internalType":"address"},{"name":"from","type":"address","indexed":true,"internalType":"address"},{"name":"to","type":"address","indexed":true,"internalType":"address"},{"name":"ids","type":"uint256[]","indexed":false,"internalType":"uint256[]"},{"name":"values","type":"uint256[]","indexed":false,"internalType":"uint256[]"}],"anonymous":false},{"type":"event","name":"TransferSingle","inputs":[{"name":"operator","type":"address","indexed":true,"internalType":"address"},{"name":"from","type":"address","indexed":true,"internalType":"address"},{"name":"to","type":"address","indexed":true,"internalType":"address"},{"name":"id","type":"uint256","indexed":false,"internalType":"uint256"},{"name":"value","type":"uint256","indexed":false,"internalType":"uint256"}],"anonymous":false},{"type":"event","name":"URI","inputs":[{"name":"value","type":"string","indexed":false,"internalType":"string"},{"name":"id","type":"uint256","indexed":true,"internalType":"uint256"}],"anonymous":false},{"type":"event","name":"Upgraded","inputs":[{"name":"implementation","type":"address","indexed":true,"internalType":"address"}],"anonymous":false},{"type":"error","name":"AddressEmptyCode","inputs":[{"name":"target","type":"address","internalType":"address"}]},{"type":"error","name":"ERC1155InsufficientBalance","inputs":[{"name":"sender","type":"address","internalType":"address"},{"name":"balance","type":"uint256","internalType":"uint256"},{"name":"needed","type":"uint256","internalType":"uint256"},{"name":"tokenId","type":"uint256","internalType":"uint256"}]},{"type":"error","name":"ERC1155InvalidApprover","inputs":[{"name":"approver","type":"address","internalType":"address"}]},{"type":"error","name":"ERC1155InvalidArrayLength","inputs":[{"name":"idsLength","type":"uint256","internalType":"uint256"},{"name":"valuesLength","type":"uint256","internalType":"uint256"}]},{"type":"error","name":"ERC1155InvalidOperator","inputs":[{"name":"operator","type":"address","internalType":"address"}]},{"type":"error","name":"ERC1155InvalidReceiver","inputs":[{"name":"receiver","type":"address","internalType":"address"}]},{"type":"error","name":"ERC1155InvalidSender","inputs":[{"name":"sender","type":"address","internalType":"address"}]},{"type":"error","name":"ERC1155MissingApprovalForAll","inputs":[{"name":"operator","type":"address","internalType":"address"},{"name":"owner","type":"address","internalType":"address"}]},{"type":"error","name":"ERC1967InvalidImplementation","inputs":[{"name":"implementation","type":"address","internalType":"address"}]},{"type":"error","name":"ERC1967NonPayable","inputs":[]},{"type":"error","name":"FailedInnerCall","inputs":[]},{"type":"error","name":"InvalidInitialization","inputs":[]},{"type":"error","name":"NotInitializing","inputs":[]},{"type":"error","name":"OwnableInvalidOwner","inputs":[{"name":"owner","type":"address","internalType":"address"}]},{"type":"error","name":"OwnableUnauthorizedAccount","inputs":[{"name":"account","type":"address","internalType":"address"}]},{"type":"error","name":"ReentrancyGuardReentrantCall","inputs":[]},{"type":"error","name":"UUPSUnauthorizedCallContext","inputs":[]},{"type":"error","name":"UUPSUnsupportedProxiableUUID","inputs":[{"name":"slot","type":"bytes32","internalType":"bytes32"}]}],"bytecode":{"object":"0x60a060405230608052600160095534801561001957600080fd5b50608051613ca66100436000396000818161200f0152818161203801526121790152613ca66000f3fe6080604052600436106101cc5760003560e01c806387f9ca5d116100f7578063b02ee94411610095578063e985e9c511610064578063e985e9c514610574578063f242432a14610594578063f2fde38b146105b4578063f399e22e146105d457600080fd5b8063b02ee944146104ea578063c68b37871461050a578063da3a76161461052a578063e8a3d4851461055f57600080fd5b8063a22cb465116100d1578063a22cb46514610459578063a2b7d17414610479578063a7d2259714610499578063ad3cb1cc146104b957600080fd5b806387f9ca5d146103cf5780638da5cb5b146103ef5780639eacf38f1461042c57600080fd5b80634dc387c81161016f57806354fd4d501161013e57806354fd4d50146103585780635d7c188c1461036d5780636a0178911461039a578063715018a6146103ba57600080fd5b80634dc387c8146102e35780634e1273f4146103035780634f1ef2861461033057806352d1902d1461034357600080fd5b80631e87ccce116101ab5780631e87ccce14610261578063229df6d6146102765780632eb2c2d61461028b578063404f49d1146102ab57600080fd5b8062fdd58e146101d157806301ffc9a7146102045780630e89341c14610234575b600080fd5b3480156101dd57600080fd5b506101f16101ec366004613008565b6105f4565b6040519081526020015b60405180910390f35b34801561021057600080fd5b5061022461021f36600461304a565b61062b565b60405190151581526020016101fb565b34801561024057600080fd5b5061025461024f366004613067565b61067b565b6040516101fb91906130d0565b61027461026f3660046130e3565b61088f565b005b34801561028257600080fd5b506101f1600581565b34801561029757600080fd5b506102746102a6366004613270565b610a46565b3480156102b757600080fd5b506000546102cb906001600160a01b031681565b6040516001600160a01b0390911681526020016101fb565b3480156102ef57600080fd5b506102746102fe36600461331d565b610c63565b34801561030f57600080fd5b5061032361031e366004613363565b610d4d565b6040516101fb9190613455565b61027461033e366004613468565b610e21565b34801561034f57600080fd5b506101f1610e40565b34801561036457600080fd5b50610254610e5d565b34801561037957600080fd5b506101f1610388366004613067565b60056020526000908152604090205481565b3480156103a657600080fd5b506002546102cb906001600160a01b031681565b3480156103c657600080fd5b50610274610eeb565b3480156103db57600080fd5b506102746103ea3660046134a1565b610eff565b3480156103fb57600080fd5b507f9016d09d72d40fdae2fd8ceac6b6234c7706214fd39c1cd1e609a0528c199300546001600160a01b03166102cb565b34801561043857600080fd5b506101f1610447366004613067565b60009081526006602052604090205490565b34801561046557600080fd5b506102746104743660046134da565b610f4a565b34801561048557600080fd5b506001546102cb906001600160a01b031681565b3480156104a557600080fd5b506102746104b4366004613518565b610f55565b3480156104c557600080fd5b50610254604051806040016040528060058152602001640352e302e360dc1b81525081565b3480156104f657600080fd5b50610274610505366004613567565b611089565b34801561051657600080fd5b50610254610525366004613067565b611185565b34801561053657600080fd5b5061054a6105453660046135a7565b6112dd565b604080519283526020830191909152016101fb565b34801561056b57600080fd5b5061025461136f565b34801561058057600080fd5b5061022461058f3660046135c9565b611401565b3480156105a057600080fd5b506102746105af3660046135f7565b61144e565b3480156105c057600080fd5b506102746105cf36600461365f565b6115d8565b3480156105e057600080fd5b506102746105ef366004613468565b611616565b6000818152600080516020613c51833981519152602090815260408083206001600160a01b03861684529091529020545b92915050565b60006001600160e01b03198216636cdb3d1360e11b148061065c57506001600160e01b031982166303a24d0760e21b145b8061062557506301ffc9a760e01b6001600160e01b0319831614610625565b6000818152600460205260408120805460609291906106999061367c565b80601f01602080910402602001604051908101604052809291908181526020018280546106c59061367c565b80156107125780601f106106e757610100808354040283529160200191610712565b820191906000526020600020905b8154815290600101906020018083116106f557829003601f168201915b505050505090506000815111156107295792915050565b600083815260066020526040902054806107825760405162461bcd60e51b81526020600482015260156024820152742a37b5b2b7103237b2b9903737ba1032bc34b9ba1760591b60448201526064015b60405180910390fd5b600061078d82611185565b90506000806007600085815260200190815260200160002080546107b09061367c565b9050116107be5760086107cd565b60008381526007602052604090205b80546107d89061367c565b80601f01602080910402602001604051908101604052809291908181526020018280546108049061367c565b80156108515780601f1061082657610100808354040283529160200191610851565b820191906000526020600020905b81548152906001019060200180831161083457829003601f168201915b505050505090508082610863886117a7565b604051602001610875939291906136b6565b604051602081830303815290604052945050505050919050565b610897611839565b6108a2848484611883565b60006108af858585611b93565b905060006108c08686868587611c78565b9050806109015760405162461bcd60e51b815260206004820152600f60248201526e141d5c98da185cd94819985a5b1959608a1b6044820152606401610779565b600a805461090e9061367c565b90506000036109205761092086611d4b565b6000805460405162eb5c5160e01b8152600481018990526001600160a01b039091169062eb5c5190602401602060405180830381865afa158015610968573d6000803e3d6000fd5b505050506040513d601f19601f8201168201806040525081019061098c9190613728565b905061099b6201518082613757565b4210610a09576000546040516314968ea560e11b8152600481018990526201518060248201526001600160a01b039091169063292d1d4a90604401600060405180830381600087803b1580156109f057600080fd5b505af1158015610a04573d6000803e3d6000fd5b505050505b610a14878787611e54565b505050610a4060017f9b779b17422d0df92223018b32b4d1fa46e071723d6817e2486d003becc55f0055565b50505050565b6001600160a01b038516331480610a625750610a628533611401565b610ac95760405162461bcd60e51b815260206004820152603260248201527f455243313135353a207472616e736665722063616c6c6572206973206e6f74206044820152711bdddb995c881b9bdc88185c1c1c9bdd995960721b6064820152608401610779565b60005b8351811015610c4e57600060066000868481518110610aed57610aed61376a565b6020026020010151815260200190815260200160002054905060006001600160a01b0316876001600160a01b031614610ba65760015485516001600160a01b039091169063e35b1ee89083908a90899087908110610b4d57610b4d61376a565b60200260200101516040518463ffffffff1660e01b8152600401610b7393929190613780565b600060405180830381600087803b158015610b8d57600080fd5b505af1158015610ba1573d6000803e3d6000fd5b505050505b6001600160a01b03861615610c3b5760015485516001600160a01b039091169063de44006f9083908990899087908110610be257610be261376a565b60200260200101516040518463ffffffff1660e01b8152600401610c0893929190613780565b600060405180830381600087803b158015610c2257600080fd5b505af1158015610c36573d6000803e3d6000fd5b505050505b5080610c468161379f565b915050610acc565b50610c5c8585858585611fa5565b5050505050565b600054604051634bbe5c4f60e11b8152600481018490526001600160a01b039091169063977cb89e90602401602060405180830381865afa158015610cac573d6000803e3d6000fd5b505050506040513d601f19601f82011682018060405250810190610cd091906137b8565b6001600160a01b0316336001600160a01b031614610d305760405162461bcd60e51b815260206004820152601b60248201527f43616c6c6572206973206e6f7420746865206f7267616e697a657200000000006044820152606401610779565b6000828152600760205260409020610d48828261381b565b505050565b60608151835114610d7e5781518351604051635b05999160e01b815260048101929092526024820152604401610779565b600083516001600160401b03811115610d9957610d99613124565b604051908082528060200260200182016040528015610dc2578160200160208202803683370190505b50905060005b8451811015610e1957602080820286010151610dec906020808402870101516105f4565b828281518110610dfe57610dfe61376a565b6020908102919091010152610e128161379f565b9050610dc8565b509392505050565b610e29612004565b610e32826120a9565b610e3c82826120b1565b5050565b6000610e4a61216e565b50600080516020613c3183398151915290565b60038054610e6a9061367c565b80601f0160208091040260200160405190810160405280929190818152602001828054610e969061367c565b8015610ee35780601f10610eb857610100808354040283529160200191610ee3565b820191906000526020600020905b815481529060010190602001808311610ec657829003601f168201915b505050505081565b610ef36121b7565b610efd6000612212565b565b6001546001600160a01b03163314610f3f5760405162461bcd60e51b815260206004820152600360248201526221626f60e81b6044820152606401610779565b610d48818484612283565b610e3c3383836122eb565b600054604051634bbe5c4f60e11b8152600481018590526001600160a01b039091169063977cb89e90602401602060405180830381865afa158015610f9e573d6000803e3d6000fd5b505050506040513d601f19601f82011682018060405250810190610fc291906137b8565b6001600160a01b0316336001600160a01b0316146110335760405162461bcd60e51b815260206004820152602860248201527f43616c6c6572206973206e6f7420746865206f7267616e697a6572206f6620746044820152676869732073686f7760c01b6064820152608401610779565b600082815260046020526040902061104b828261381b565b50817f6bb7ff708619ba0610cba295a58592e0451dee2622938c8755667688daf3529b8260405161107c91906130d0565b60405180910390a2505050565b6000546001600160a01b0316156110b25760405162461bcd60e51b8152600401610779906138da565b6001546001600160a01b0316156110db5760405162461bcd60e51b8152600401610779906138da565b6002546001600160a01b0316156111465760405162461bcd60e51b815260206004820152602960248201527f53686f775661756c7420636f6e7472616374206164647265737320697320616c6044820152681c9958591e481cd95d60ba1b6064820152608401610779565b600080546001600160a01b039485166001600160a01b031991821617909155600180549385169382169390931790925560028054919093169116179055565b604080518082018252601081526f181899199a1a9b1b9c1cb0b131b232b360811b6020820152815182815260608181018452926000919060208201818036833701905050905060005b6020811015610e19578260048683602081106111ec576111ec61376a565b1a60f81b6001600160f81b031916901c60f81c60ff16815181106112125761121261376a565b01602001516001600160f81b0319168261122d83600261391e565b8151811061123d5761123d61376a565b60200101906001600160f81b031916908160001a905350828582602081106112675761126761376a565b825191901a600f1690811061127e5761127e61376a565b01602001516001600160f81b0319168261129983600261391e565b6112a4906001613935565b815181106112b4576112b461376a565b60200101906001600160f81b031916908160001a905350806112d58161379f565b9150506111ce565b6001546040516293d4e160e81b81526004810184905260248101839052600091829182916001600160a01b0316906393d4e10090604401602060405180830381865afa158015611331573d6000803e3d6000fd5b505050506040513d601f19601f820116820180604052508101906113559190613728565b600094855260056020526040909420549395939450505050565b6060600a805461137e9061367c565b80601f01602080910402602001604051908101604052809291908181526020018280546113aa9061367c565b80156113f75780601f106113cc576101008083540402835291602001916113f7565b820191906000526020600020905b8154815290600101906020018083116113da57829003601f168201915b5050505050905090565b6001600160a01b0391821660009081527f88be536d5240c274a3b1d3a1be54482fd9caa294f08c62a7cde569f49a3c45016020908152604080832093909416825291909152205460ff1690565b6001600160a01b03851633148061146a575061146a8533611401565b6114c85760405162461bcd60e51b815260206004820152602960248201527f455243313135353a2063616c6c6572206973206e6f74206f776e6572206e6f7260448201526808185c1c1c9bdd995960ba1b6064820152608401610779565b6000838152600660205260409020546001600160a01b0386161561154d57600154604051631c6b63dd60e31b81526001600160a01b039091169063e35b1ee89061151a9084908a908990600401613780565b600060405180830381600087803b15801561153457600080fd5b505af1158015611548573d6000803e3d6000fd5b505050505b6001600160a01b038516156115c35760015460405163de44006f60e01b81526001600160a01b039091169063de44006f9061159090849089908990600401613780565b600060405180830381600087803b1580156115aa57600080fd5b505af11580156115be573d6000803e3d6000fd5b505050505b6115d08686868686612393565b505050505050565b6115e06121b7565b6001600160a01b03811661160a57604051631e4fbdf760e01b815260006004820152602401610779565b61161381612212565b50565b7ff0c57e16840df040f15088dc2f81fe391c3923bec73e23a9662efc9c229c6a008054600160401b810460ff1615906001600160401b031660008115801561165b5750825b90506000826001600160401b031660011480156116775750303b155b905081158015611685575080155b156116a35760405163f92ee8a960e01b815260040160405180910390fd5b845467ffffffffffffffff1916600117855583156116cd57845460ff60401b1916600160401b1785555b6116ee6040518060600160405280602c8152602001613be2602c91396123f2565b6116f6612403565b6116ff87612413565b611707612424565b6003611713878261381b565b50604051806060016040528060238152602001613c0e6023913960089061173a908261381b565b50604080516020810190915260008152600a90611757908261381b565b50831561179e57845460ff60401b19168555604051600181527fc7f505b2f371ae2175ee4913f4499e1f2633a7b5936321eed1cdaeb6115181d29060200160405180910390a15b50505050505050565b606060006117b48361242c565b60010190506000816001600160401b038111156117d3576117d3613124565b6040519080825280601f01601f1916602001820160405280156117fd576020820181803683370190505b5090508181016020015b600019016f181899199a1a9b1b9c1cb0b131b232b360811b600a86061a8153600a850494508461180757509392505050565b7f9b779b17422d0df92223018b32b4d1fa46e071723d6817e2486d003becc55f0080546001190161187d57604051633ee5aeb560e01b815260040160405180910390fd5b60029055565b600080546040516346c2c8a760e01b8152600481018690526001600160a01b03909116906346c2c8a790602401602060405180830381865afa1580156118cd573d6000803e3d6000fd5b505050506040513d601f19601f820116820180604052508101906118f19190613948565b9050600081600781111561190757611907613969565b14806119245750600181600781111561192257611922613969565b145b806119405750600281600781111561193e5761193e613969565b145b8061195c5750600381600781111561195a5761195a613969565b145b6119a85760405162461bcd60e51b815260206004820152601f60248201527f53686f77206e6f7420617661696c61626c6520666f72207075726368617365006044820152606401610779565b600082116119f85760405162461bcd60e51b815260206004820152601d60248201527f416d6f756e74206d7573742062652067726561746572207468616e20300000006044820152606401610779565b60008054604051637e3e393560e01b815260048101879052602481018690526001600160a01b0390911690637e3e393590604401600060405180830381865afa158015611a49573d6000803e3d6000fd5b505050506040513d6000823e601f3d908101601f19168201604052611a71919081019061397f565b9250505082811015611ac55760405162461bcd60e51b815260206004820152601c60248201527f4e6f7420656e6f756768207469636b65747320617661696c61626c65000000006044820152606401610779565b600154604051635b9a1e0960e01b8152600481018790523360248201526000916001600160a01b031690635b9a1e0990604401600060405180830381865afa158015611b15573d6000803e3d6000fd5b505050506040513d6000823e601f3d908101601f19168201604052611b3d9190810190613a08565b90506005848251611b4e9190613935565b11156115d05760405162461bcd60e51b815260206004820152601460248201527313585e081d1a58dad95d1cc8195e18d95959195960621b6044820152606401610779565b611bbe6040518060800160405280600081526020016000815260200160008152602001600081525090565b60008054604051637e3e393560e01b8152600481018790526024810186905282916001600160a01b031690637e3e393590604401600060405180830381865afa158015611c0f573d6000803e3d6000fd5b505050506040513d6000823e601f3d908101601f19168201604052611c37919081019061397f565b909350915060009050611c4a858461391e565b60408051608081018252948552602085019390935291830191909152506000606082015290505b9392505050565b6000611c8986846040015184612504565b611c9557506000611d42565b600160005b85811015611d3e576009805460009182611cb38361379f565b919050559050611cca81898b338a60000151612698565b611cd8576000925050611d3e565b60408051898152602081018390526001818301526001600160a01b038716606082015290518a9133917f2aceb142a3587d08c8b52a9ac6b03c85fdce4097d5614383174758656261bfdd9181900360800190a35080611d368161379f565b915050611c9a565b5090505b95945050505050565b6000611d5682611185565b9050600080600760008581526020019081526020016000208054611d799061367c565b905011611d87576008611d96565b60008381526007602052604090205b8054611da19061367c565b80601f0160208091040260200160405190810160405280929190818152602001828054611dcd9061367c565b8015611e1a5780601f10611def57610100808354040283529160200191611e1a565b820191906000526020600020905b815481529060010190602001808311611dfd57829003601f168201915b5050505050905060008183604051602001611e36929190613a98565b60408051601f198184030181529190529050600a610c5c828261381b565b600154604051630f0faed760e31b815260048101859052602481018390526001600160a01b039091169063787d76b890604401600060405180830381600087803b158015611ea157600080fd5b505af1158015611eb5573d6000803e3d6000fd5b505060005460405163644b5e5960e01b81526004810187905260248101869052604481018590526001600160a01b03909116925063644b5e599150606401600060405180830381600087803b158015611f0d57600080fd5b505af1158015611f21573d6000803e3d6000fd5b505060005460405163730c02a360e11b8152600481018790526001600160a01b03909116925063e61805469150602401600060405180830381600087803b158015611f6b57600080fd5b505af115801561179e573d6000803e3d6000fd5b60017f9b779b17422d0df92223018b32b4d1fa46e071723d6817e2486d003becc55f0055565b336001600160a01b0386168114801590611fc65750611fc48682611401565b155b15611ff75760405163711bec9160e11b81526001600160a01b03808316600483015287166024820152604401610779565b6115d086868686866127b3565b306001600160a01b037f000000000000000000000000000000000000000000000000000000000000000016148061208b57507f00000000000000000000000000000000000000000000000000000000000000006001600160a01b031661207f600080516020613c31833981519152546001600160a01b031690565b6001600160a01b031614155b15610efd5760405163703e46dd60e11b815260040160405180910390fd5b6116136121b7565b816001600160a01b03166352d1902d6040518163ffffffff1660e01b8152600401602060405180830381865afa92505050801561210b575060408051601f3d908101601f1916820190925261210891810190613728565b60015b61213357604051634c9c8ce360e01b81526001600160a01b0383166004820152602401610779565b600080516020613c31833981519152811461216457604051632a87526960e21b815260048101829052602401610779565b610d488383612813565b306001600160a01b037f00000000000000000000000000000000000000000000000000000000000000001614610efd5760405163703e46dd60e11b815260040160405180910390fd5b336121e97f9016d09d72d40fdae2fd8ceac6b6234c7706214fd39c1cd1e609a0528c199300546001600160a01b031690565b6001600160a01b031614610efd5760405163118cdaa760e01b8152336004820152602401610779565b7f9016d09d72d40fdae2fd8ceac6b6234c7706214fd39c1cd1e609a0528c19930080546001600160a01b031981166001600160a01b03848116918217845560405192169182907f8be0079c531659141344cd1fd0a4f28419497f9722a3daafe3b4186f6b6457e090600090a3505050565b6001600160a01b0383166122ac57604051626a0d4560e21b815260006004820152602401610779565b604080516001808252602082018590528183019081526060820184905260a08201909252600060808201818152919291610c5c91879185908590612869565b600080516020613c518339815191526001600160a01b0383166123235760405162ced3e160e81b815260006004820152602401610779565b6001600160a01b038481166000818152600184016020908152604080832094881680845294825291829020805460ff191687151590811790915591519182527f17307eab39ab6107e8899845ad3d59bd9653f200f220920489ca2b5937696c31910160405180910390a350505050565b336001600160a01b03861681148015906123b457506123b28682611401565b155b156123e55760405163711bec9160e11b81526001600160a01b03808316600483015287166024820152604401610779565b6115d086868686866128bc565b6123fa612941565b6116138161298a565b61240b612941565b610efd61299b565b61241b612941565b611613816129a3565b610efd612941565b60008072184f03e93ff9f4daa797ed6e38ed64bf6a1f0160401b831061246b5772184f03e93ff9f4daa797ed6e38ed64bf6a1f0160401b830492506040015b6d04ee2d6d415b85acef81000000008310612497576d04ee2d6d415b85acef8100000000830492506020015b662386f26fc1000083106124b557662386f26fc10000830492506010015b6305f5e10083106124cd576305f5e100830492506008015b61271083106124e157612710830492506004015b606483106124f3576064830492506002015b600a83106106255760010192915050565b60006001600160a01b0382166125c35782341461255a5760405162461bcd60e51b8152602060048201526014602482015273125b98dbdc9c9958dd0811551208185b5bdd5b9d60621b6044820152606401610779565b600254604051638526663560e01b8152600481018690526001600160a01b039091169063852666359034906024016000604051808303818588803b1580156125a157600080fd5b505af11580156125b5573d6000803e3d6000fd5b505050505060019050611c71565b341561261c5760405162461bcd60e51b815260206004820152602260248201527f446f206e6f742073656e64204554482077697468204552433230207061796d656044820152611b9d60f21b6064820152608401610779565b600254604051635412233f60e01b815260048101869052602481018590526001600160a01b03848116604483015233606483015290911690635412233f90608401600060405180830381600087803b15801561267757600080fd5b505af115801561268b573d6000803e3d6000fd5b5050505060019050611c71565b60006126b683876001604051806020016040528060008152506129ab565b6000868152600560209081526040808320889055600690915290819020859055600154905163de44006f60e01b81526001600160a01b039091169063de44006f9061270990879087908b90600401613780565b600060405180830381600087803b15801561272357600080fd5b505af1158015612737573d6000803e3d6000fd5b5050600154604051632f51f71760e21b815260048101889052602481018a9052604481018690526001600160a01b03909116925063bd47dc5c9150606401600060405180830381600087803b15801561278f57600080fd5b505af11580156127a3573d6000803e3d6000fd5b5060019998505050505050505050565b6001600160a01b0384166127dd57604051632bfa23e760e11b815260006004820152602401610779565b6001600160a01b03851661280657604051626a0d4560e21b815260006004820152602401610779565b610c5c8585858585612869565b61281c82612a08565b6040516001600160a01b038316907fbc7cd75a20ee27fd9adebab32041f755214dbc6bffa90cc0225b39da2e5c2d3b90600090a280511561286157610d488282612a6d565b610e3c612ada565b61287585858585612af9565b6001600160a01b03841615610c5c57825133906001036128ae57602084810151908401516128a7838989858589612d27565b50506115d0565b6115d0818787878787612e4b565b6001600160a01b0384166128e657604051632bfa23e760e11b815260006004820152602401610779565b6001600160a01b03851661290f57604051626a0d4560e21b815260006004820152602401610779565b6040805160018082526020820186905281830190815260608201859052608082019092529061179e8787848487612869565b7ff0c57e16840df040f15088dc2f81fe391c3923bec73e23a9662efc9c229c6a0054600160401b900460ff16610efd57604051631afcd79f60e31b815260040160405180910390fd5b612992612941565b61161381612f34565b611f7f612941565b6115e0612941565b6001600160a01b0384166129d557604051632bfa23e760e11b815260006004820152602401610779565b604080516001808252602082018690528183019081526060820185905260808201909252906115d0600087848487612869565b806001600160a01b03163b600003612a3e57604051634c9c8ce360e01b81526001600160a01b0382166004820152602401610779565b600080516020613c3183398151915280546001600160a01b0319166001600160a01b0392909216919091179055565b6060600080846001600160a01b031684604051612a8a9190613aeb565b600060405180830381855af49150503d8060008114612ac5576040519150601f19603f3d011682016040523d82523d6000602084013e612aca565b606091505b5091509150611d42858383612f6e565b3415610efd5760405163b398979f60e01b815260040160405180910390fd5b80518251600080516020613c518339815191529114612b385782518251604051635b05999160e01b815260048101929092526024820152604401610779565b3360005b8451811015612c47576020818102868101820151908601909101516001600160a01b03891615612bef576000828152602086815260408083206001600160a01b038d16845290915290205481811015612bc8576040516303dee4c560e01b81526001600160a01b038b166004820152602481018290526044810183905260648101849052608401610779565b6000838152602087815260408083206001600160a01b038e16845290915290209082900390555b6001600160a01b03881615612c34576000828152602086815260408083206001600160a01b038c16845290915281208054839290612c2e908490613935565b90915550505b505080612c409061379f565b9050612b3c565b508351600103612cc85760208401516000906020850151909150866001600160a01b0316886001600160a01b0316846001600160a01b03167fc3d58168c5ae7397731d063d5bbf3d657854427343f4c083240f7aacaa2d0f628585604051612cb9929190918252602082015260400190565b60405180910390a450506115d0565b846001600160a01b0316866001600160a01b0316826001600160a01b03167f4a39dc06d4c0dbc64b70af90fd698a233a518aa5d07e595d983b8c0526c8f7fb8787604051612d17929190613b07565b60405180910390a4505050505050565b6001600160a01b0384163b156115d05760405163f23a6e6160e01b81526001600160a01b0385169063f23a6e6190612d6b9089908990889088908890600401613b2c565b6020604051808303816000875af1925050508015612da6575060408051601f3d908101601f19168201909252612da391810190613b66565b60015b612e0f573d808015612dd4576040519150601f19603f3d011682016040523d82523d6000602084013e612dd9565b606091505b508051600003612e0757604051632bfa23e760e11b81526001600160a01b0386166004820152602401610779565b805181602001fd5b6001600160e01b0319811663f23a6e6160e01b1461179e57604051632bfa23e760e11b81526001600160a01b0386166004820152602401610779565b6001600160a01b0384163b156115d05760405163bc197c8160e01b81526001600160a01b0385169063bc197c8190612e8f9089908990889088908890600401613b83565b6020604051808303816000875af1925050508015612eca575060408051601f3d908101601f19168201909252612ec791810190613b66565b60015b612ef8573d808015612dd4576040519150601f19603f3d011682016040523d82523d6000602084013e612dd9565b6001600160e01b0319811663bc197c8160e01b1461179e57604051632bfa23e760e11b81526001600160a01b0386166004820152602401610779565b600080516020613c518339815191527f88be536d5240c274a3b1d3a1be54482fd9caa294f08c62a7cde569f49a3c4502610d48838261381b565b606082612f8357612f7e82612fca565b611c71565b8151158015612f9a57506001600160a01b0384163b155b15612fc357604051639996b31560e01b81526001600160a01b0385166004820152602401610779565b5080611c71565b805115612fda5780518082602001fd5b604051630a12f52160e11b815260040160405180910390fd5b6001600160a01b038116811461161357600080fd5b6000806040838503121561301b57600080fd5b823561302681612ff3565b946020939093013593505050565b6001600160e01b03198116811461161357600080fd5b60006020828403121561305c57600080fd5b8135611c7181613034565b60006020828403121561307957600080fd5b5035919050565b60005b8381101561309b578181015183820152602001613083565b50506000910152565b600081518084526130bc816020860160208601613080565b601f01601f19169290920160200192915050565b602081526000611c7160208301846130a4565b600080600080608085870312156130f957600080fd5b843593506020850135925060408501359150606085013561311981612ff3565b939692955090935050565b634e487b7160e01b600052604160045260246000fd5b604051601f8201601f191681016001600160401b038111828210171561316257613162613124565b604052919050565b60006001600160401b0382111561318357613183613124565b5060051b60200190565b600082601f83011261319e57600080fd5b813560206131b36131ae8361316a565b61313a565b82815260059290921b840181019181810190868411156131d257600080fd5b8286015b848110156131ed57803583529183019183016131d6565b509695505050505050565b60006001600160401b0382111561321157613211613124565b50601f01601f191660200190565b600082601f83011261323057600080fd5b813561323e6131ae826131f8565b81815284602083860101111561325357600080fd5b816020850160208301376000918101602001919091529392505050565b600080600080600060a0868803121561328857600080fd5b853561329381612ff3565b945060208601356132a381612ff3565b935060408601356001600160401b03808211156132bf57600080fd5b6132cb89838a0161318d565b945060608801359150808211156132e157600080fd5b6132ed89838a0161318d565b9350608088013591508082111561330357600080fd5b506133108882890161321f565b9150509295509295909350565b6000806040838503121561333057600080fd5b8235915060208301356001600160401b0381111561334d57600080fd5b6133598582860161321f565b9150509250929050565b6000806040838503121561337657600080fd5b82356001600160401b038082111561338d57600080fd5b818501915085601f8301126133a157600080fd5b813560206133b16131ae8361316a565b82815260059290921b840181019181810190898411156133d057600080fd5b948201945b838610156133f75785356133e881612ff3565b825294820194908201906133d5565b9650508601359250508082111561340d57600080fd5b506133598582860161318d565b600081518084526020808501945080840160005b8381101561344a5781518752958201959082019060010161342e565b509495945050505050565b602081526000611c71602083018461341a565b6000806040838503121561347b57600080fd5b823561348681612ff3565b915060208301356001600160401b0381111561334d57600080fd5b6000806000606084860312156134b657600080fd5b833592506020840135915060408401356134cf81612ff3565b809150509250925092565b600080604083850312156134ed57600080fd5b82356134f881612ff3565b91506020830135801515811461350d57600080fd5b809150509250929050565b60008060006060848603121561352d57600080fd5b833592506020840135915060408401356001600160401b0381111561355157600080fd5b61355d8682870161321f565b9150509250925092565b60008060006060848603121561357c57600080fd5b833561358781612ff3565b9250602084013561359781612ff3565b915060408401356134cf81612ff3565b600080604083850312156135ba57600080fd5b50508035926020909101359150565b600080604083850312156135dc57600080fd5b82356135e781612ff3565b9150602083013561350d81612ff3565b600080600080600060a0868803121561360f57600080fd5b853561361a81612ff3565b9450602086013561362a81612ff3565b9350604086013592506060860135915060808601356001600160401b0381111561365357600080fd5b6133108882890161321f565b60006020828403121561367157600080fd5b8135611c7181612ff3565b600181811c9082168061369057607f821691505b6020821081036136b057634e487b7160e01b600052602260045260246000fd5b50919050565b600084516136c8818460208901613080565b61060f60f31b90830190815284516136e7816002840160208901613080565b602f60f81b600292909101918201528351613709816003840160208801613080565b64173539b7b760d91b6003929091019182015260080195945050505050565b60006020828403121561373a57600080fd5b5051919050565b634e487b7160e01b600052601160045260246000fd5b8181038181111561062557610625613741565b634e487b7160e01b600052603260045260246000fd5b9283526001600160a01b03919091166020830152604082015260600190565b6000600182016137b1576137b1613741565b5060010190565b6000602082840312156137ca57600080fd5b8151611c7181612ff3565b601f821115610d4857600081815260208120601f850160051c810160208610156137fc5750805b601f850160051c820191505b818110156115d057828155600101613808565b81516001600160401b0381111561383457613834613124565b61384881613842845461367c565b846137d5565b602080601f83116001811461387d57600084156138655750858301515b600019600386901b1c1916600185901b1785556115d0565b600085815260208120601f198616915b828110156138ac5788860151825594840194600190910190840161388d565b50858210156138ca5787850151600019600388901b60f8161c191681555b5050505050600190811b01905550565b60208082526024908201527f53686f7720636f6e7472616374206164647265737320697320616c7265616479604082015263081cd95d60e21b606082015260800190565b808202811582820484141761062557610625613741565b8082018082111561062557610625613741565b60006020828403121561395a57600080fd5b815160088110611c7157600080fd5b634e487b7160e01b600052602160045260246000fd5b60008060006060848603121561399457600080fd5b83516001600160401b038111156139aa57600080fd5b8401601f810186136139bb57600080fd5b80516139c96131ae826131f8565b8181528760208385010111156139de57600080fd5b6139ef826020830160208601613080565b6020870151604090970151909896975095945050505050565b60006020808385031215613a1b57600080fd5b82516001600160401b03811115613a3157600080fd5b8301601f81018513613a4257600080fd5b8051613a506131ae8261316a565b81815260059190911b82018301908381019087831115613a6f57600080fd5b928401925b82841015613a8d57835182529284019290840190613a74565b979650505050505050565b60008351613aaa818460208801613080565b61060f60f31b9083019081528351613ac9816002840160208801613080565b680bd8dbdb9d1c9858dd60ba1b60029290910191820152600b01949350505050565b60008251613afd818460208701613080565b9190910192915050565b604081526000613b1a604083018561341a565b8281036020840152611d42818561341a565b6001600160a01b03868116825285166020820152604081018490526060810183905260a060808201819052600090613a8d908301846130a4565b600060208284031215613b7857600080fd5b8151611c7181613034565b6001600160a01b0386811682528516602082015260a060408201819052600090613baf9083018661341a565b8281036060840152613bc1818661341a565b90508281036080840152613bd581856130a4565b9897505050505050505056fe68747470733a2f2f6d657461646174612e73656c6c6f7574732e6170702f73686f772f7b69647d2e6a736f6e68747470733a2f2f6d657461646174612e73656c6c6f7574732e6170702f73686f772f360894a13ba1a3210667c828492db98dca3e2076cc3735a920a3ca505d382bbc88be536d5240c274a3b1d3a1be54482fd9caa294f08c62a7cde569f49a3c4500a2646970667358221220bb7657821240e65a7465a3629d5a0e74d4042728d2dd7aae7e06de05b5dac66164736f6c63430008140033","linkReferences":{}},"methodIdentifiers":{"MAX_TICKETS_PER_WALLET()":"229df6d6","UPGRADE_INTERFACE_VERSION()":"ad3cb1cc","balanceOf(address,uint256)":"00fdd58e","balanceOfBatch(address[],uint256[])":"4e1273f4","boxOfficeInstance()":"a2b7d174","burnTokens(uint256,uint256,address)":"87f9ca5d","bytes32ToHexString(bytes32)":"c68b3787","contractURI()":"e8a3d485","getShowIdByTicketId(uint256)":"9eacf38f","getTicketPricePaidAndTierIndex(bytes32,uint256)":"da3a7616","initialize(address,string)":"f399e22e","isApprovedForAll(address,address)":"e985e9c5","owner()":"8da5cb5b","proxiableUUID()":"52d1902d","purchaseTickets(bytes32,uint256,uint256,address)":"1e87ccce","renounceOwnership()":"715018a6","safeBatchTransferFrom(address,address,uint256[],uint256[],bytes)":"2eb2c2d6","safeTransferFrom(address,address,uint256,uint256,bytes)":"f242432a","setApprovalForAll(address,bool)":"a22cb465","setDefaultURIForShow(bytes32,string)":"4dc387c8","setShowContractAddresses(address,address,address)":"b02ee944","setTokenURI(bytes32,uint256,string)":"a7d22597","showInstance()":"404f49d1","showVaultInstance()":"6a017891","supportsInterface(bytes4)":"01ffc9a7","ticketIdToTierIndex(uint256)":"5d7c188c","transferOwnership(address)":"f2fde38b","upgradeToAndCall(address,bytes)":"4f1ef286","uri(uint256)":"0e89341c","version()":"54fd4d50"},"id":94}