{"abi":[{"type":"function","name":"MAX_TICKETS_PER_WALLET","inputs":[],"outputs":[{"name":"","type":"uint256","internalType":"uint256"}],"stateMutability":"view"},{"type":"function","name":"UPGRADE_INTERFACE_VERSION","inputs":[],"outputs":[{"name":"","type":"string","internalType":"string"}],"stateMutability":"view"},{"type":"function","name":"balanceOf","inputs":[{"name":"account","type":"address","internalType":"address"},{"name":"id","type":"uint256","internalType":"uint256"}],"outputs":[{"name":"","type":"uint256","internalType":"uint256"}],"stateMutability":"view"},{"type":"function","name":"balanceOfBatch","inputs":[{"name":"accounts","type":"address[]","internalType":"address[]"},{"name":"ids","type":"uint256[]","internalType":"uint256[]"}],"outputs":[{"name":"","type":"uint256[]","internalType":"uint256[]"}],"stateMutability":"view"},{"type":"function","name":"boxOfficeInstance","inputs":[],"outputs":[{"name":"","type":"address","internalType":"contract IBoxOffice"}],"stateMutability":"view"},{"type":"function","name":"burnTokens","inputs":[{"name":"tokenId","type":"uint256","internalType":"uint256"},{"name":"amount","type":"uint256","internalType":"uint256"},{"name":"owner","type":"address","internalType":"address"}],"outputs":[],"stateMutability":"nonpayable"},{"type":"function","name":"bytes32ToHexString","inputs":[{"name":"_bytes32","type":"bytes32","internalType":"bytes32"}],"outputs":[{"name":"","type":"string","internalType":"string"}],"stateMutability":"pure"},{"type":"function","name":"contractURI","inputs":[],"outputs":[{"name":"","type":"string","internalType":"string"}],"stateMutability":"view"},{"type":"function","name":"getTicketPricePaidAndTierIndex","inputs":[{"name":"showId","type":"bytes32","internalType":"bytes32"},{"name":"ticketId","type":"uint256","internalType":"uint256"}],"outputs":[{"name":"price","type":"uint256","internalType":"uint256"},{"name":"tierIndex","type":"uint256","internalType":"uint256"}],"stateMutability":"view"},{"type":"function","name":"initialize","inputs":[{"name":"initialOwner","type":"address","internalType":"address"},{"name":"_version","type":"string","internalType":"string"}],"outputs":[],"stateMutability":"nonpayable"},{"type":"function","name":"isApprovedForAll","inputs":[{"name":"account","type":"address","internalType":"address"},{"name":"operator","type":"address","internalType":"address"}],"outputs":[{"name":"","type":"bool","internalType":"bool"}],"stateMutability":"view"},{"type":"function","name":"owner","inputs":[],"outputs":[{"name":"","type":"address","internalType":"address"}],"stateMutability":"view"},{"type":"function","name":"proxiableUUID","inputs":[],"outputs":[{"name":"","type":"bytes32","internalType":"bytes32"}],"stateMutability":"view"},{"type":"function","name":"purchaseTickets","inputs":[{"name":"showId","type":"bytes32","internalType":"bytes32"},{"name":"tierIndex","type":"uint256","internalType":"uint256"},{"name":"amount","type":"uint256","internalType":"uint256"},{"name":"paymentToken","type":"address","internalType":"address"}],"outputs":[],"stateMutability":"payable"},{"type":"function","name":"renounceOwnership","inputs":[],"outputs":[],"stateMutability":"nonpayable"},{"type":"function","name":"safeBatchTransferFrom","inputs":[{"name":"from","type":"address","internalType":"address"},{"name":"to","type":"address","internalType":"address"},{"name":"ids","type":"uint256[]","internalType":"uint256[]"},{"name":"amounts","type":"uint256[]","internalType":"uint256[]"},{"name":"data","type":"bytes","internalType":"bytes"}],"outputs":[],"stateMutability":"nonpayable"},{"type":"function","name":"safeTransferFrom","inputs":[{"name":"from","type":"address","internalType":"address"},{"name":"to","type":"address","internalType":"address"},{"name":"id","type":"uint256","internalType":"uint256"},{"name":"amount","type":"uint256","internalType":"uint256"},{"name":"data","type":"bytes","internalType":"bytes"}],"outputs":[],"stateMutability":"nonpayable"},{"type":"function","name":"setApprovalForAll","inputs":[{"name":"operator","type":"address","internalType":"address"},{"name":"approved","type":"bool","internalType":"bool"}],"outputs":[],"stateMutability":"nonpayable"},{"type":"function","name":"setDefaultURIForShow","inputs":[{"name":"showId","type":"bytes32","internalType":"bytes32"},{"name":"newDefaultURI","type":"string","internalType":"string"}],"outputs":[],"stateMutability":"nonpayable"},{"type":"function","name":"setShowContractAddresses","inputs":[{"name":"_showContractAddress","type":"address","internalType":"address"},{"name":"_boxOfficeAddress","type":"address","internalType":"address"},{"name":"_showVaultAddress","type":"address","internalType":"address"}],"outputs":[],"stateMutability":"nonpayable"},{"type":"function","name":"setTokenURI","inputs":[{"name":"showId","type":"bytes32","internalType":"bytes32"},{"name":"tokenId","type":"uint256","internalType":"uint256"},{"name":"newURI","type":"string","internalType":"string"}],"outputs":[],"stateMutability":"nonpayable"},{"type":"function","name":"showInstance","inputs":[],"outputs":[{"name":"","type":"address","internalType":"contract IShow"}],"stateMutability":"view"},{"type":"function","name":"showVaultInstance","inputs":[],"outputs":[{"name":"","type":"address","internalType":"contract IShowVault"}],"stateMutability":"view"},{"type":"function","name":"supportsInterface","inputs":[{"name":"interfaceId","type":"bytes4","internalType":"bytes4"}],"outputs":[{"name":"","type":"bool","internalType":"bool"}],"stateMutability":"view"},{"type":"function","name":"ticketIdToTierIndex","inputs":[{"name":"","type":"uint256","internalType":"uint256"}],"outputs":[{"name":"","type":"uint256","internalType":"uint256"}],"stateMutability":"view"},{"type":"function","name":"transferOwnership","inputs":[{"name":"newOwner","type":"address","internalType":"address"}],"outputs":[],"stateMutability":"nonpayable"},{"type":"function","name":"upgradeToAndCall","inputs":[{"name":"newImplementation","type":"address","internalType":"address"},{"name":"data","type":"bytes","internalType":"bytes"}],"outputs":[],"stateMutability":"payable"},{"type":"function","name":"uri","inputs":[{"name":"tokenId","type":"uint256","internalType":"uint256"}],"outputs":[{"name":"","type":"string","internalType":"string"}],"stateMutability":"view"},{"type":"function","name":"version","inputs":[],"outputs":[{"name":"","type":"string","internalType":"string"}],"stateMutability":"view"},{"type":"event","name":"ApprovalForAll","inputs":[{"name":"account","type":"address","indexed":true,"internalType":"address"},{"name":"operator","type":"address","indexed":true,"internalType":"address"},{"name":"approved","type":"bool","indexed":false,"internalType":"bool"}],"anonymous":false},{"type":"event","name":"Initialized","inputs":[{"name":"version","type":"uint64","indexed":false,"internalType":"uint64"}],"anonymous":false},{"type":"event","name":"OwnershipTransferred","inputs":[{"name":"previousOwner","type":"address","indexed":true,"internalType":"address"},{"name":"newOwner","type":"address","indexed":true,"internalType":"address"}],"anonymous":false},{"type":"event","name":"TicketPurchased","inputs":[{"name":"buyer","type":"address","indexed":true,"internalType":"address"},{"name":"showId","type":"bytes32","indexed":true,"internalType":"bytes32"},{"name":"tierIndex","type":"uint256","indexed":false,"internalType":"uint256"},{"name":"tokenId","type":"uint256","indexed":false,"internalType":"uint256"},{"name":"amount","type":"uint256","indexed":false,"internalType":"uint256"},{"name":"paymentToken","type":"address","indexed":false,"internalType":"address"}],"anonymous":false},{"type":"event","name":"TransferBatch","inputs":[{"name":"operator","type":"address","indexed":true,"internalType":"address"},{"name":"from","type":"address","indexed":true,"internalType":"address"},{"name":"to","type":"address","indexed":true,"internalType":"address"},{"name":"ids","type":"uint256[]","indexed":false,"internalType":"uint256[]"},{"name":"values","type":"uint256[]","indexed":false,"internalType":"uint256[]"}],"anonymous":false},{"type":"event","name":"TransferSingle","inputs":[{"name":"operator","type":"address","indexed":true,"internalType":"address"},{"name":"from","type":"address","indexed":true,"internalType":"address"},{"name":"to","type":"address","indexed":true,"internalType":"address"},{"name":"id","type":"uint256","indexed":false,"internalType":"uint256"},{"name":"value","type":"uint256","indexed":false,"internalType":"uint256"}],"anonymous":false},{"type":"event","name":"URI","inputs":[{"name":"value","type":"string","indexed":false,"internalType":"string"},{"name":"id","type":"uint256","indexed":true,"internalType":"uint256"}],"anonymous":false},{"type":"event","name":"Upgraded","inputs":[{"name":"implementation","type":"address","indexed":true,"internalType":"address"}],"anonymous":false},{"type":"error","name":"AddressEmptyCode","inputs":[{"name":"target","type":"address","internalType":"address"}]},{"type":"error","name":"ERC1155InsufficientBalance","inputs":[{"name":"sender","type":"address","internalType":"address"},{"name":"balance","type":"uint256","internalType":"uint256"},{"name":"needed","type":"uint256","internalType":"uint256"},{"name":"tokenId","type":"uint256","internalType":"uint256"}]},{"type":"error","name":"ERC1155InvalidApprover","inputs":[{"name":"approver","type":"address","internalType":"address"}]},{"type":"error","name":"ERC1155InvalidArrayLength","inputs":[{"name":"idsLength","type":"uint256","internalType":"uint256"},{"name":"valuesLength","type":"uint256","internalType":"uint256"}]},{"type":"error","name":"ERC1155InvalidOperator","inputs":[{"name":"operator","type":"address","internalType":"address"}]},{"type":"error","name":"ERC1155InvalidReceiver","inputs":[{"name":"receiver","type":"address","internalType":"address"}]},{"type":"error","name":"ERC1155InvalidSender","inputs":[{"name":"sender","type":"address","internalType":"address"}]},{"type":"error","name":"ERC1155MissingApprovalForAll","inputs":[{"name":"operator","type":"address","internalType":"address"},{"name":"owner","type":"address","internalType":"address"}]},{"type":"error","name":"ERC1967InvalidImplementation","inputs":[{"name":"implementation","type":"address","internalType":"address"}]},{"type":"error","name":"ERC1967NonPayable","inputs":[]},{"type":"error","name":"FailedInnerCall","inputs":[]},{"type":"error","name":"InvalidInitialization","inputs":[]},{"type":"error","name":"NotInitializing","inputs":[]},{"type":"error","name":"OwnableInvalidOwner","inputs":[{"name":"owner","type":"address","internalType":"address"}]},{"type":"error","name":"OwnableUnauthorizedAccount","inputs":[{"name":"account","type":"address","internalType":"address"}]},{"type":"error","name":"ReentrancyGuardReentrantCall","inputs":[]},{"type":"error","name":"UUPSUnauthorizedCallContext","inputs":[]},{"type":"error","name":"UUPSUnsupportedProxiableUUID","inputs":[{"name":"slot","type":"bytes32","internalType":"bytes32"}]}],"bytecode":{"object":"0x60a060405230608052600160095534801561001957600080fd5b50608051613b7161004360003960008181611eed01528181611f1601526120570152613b716000f3fe6080604052600436106101c15760003560e01c8063715018a6116100f7578063b02ee94411610095578063e985e9c511610064578063e985e9c51461053c578063f242432a1461055c578063f2fde38b1461057c578063f399e22e1461059c57600080fd5b8063b02ee944146104b2578063c68b3787146104d2578063da3a7616146104f2578063e8a3d4851461052757600080fd5b8063a22cb465116100d1578063a22cb46514610421578063a2b7d17414610441578063a7d2259714610461578063ad3cb1cc1461048157600080fd5b8063715018a6146103af57806387f9ca5d146103c45780638da5cb5b146103e457600080fd5b80634dc387c81161016457806352d1902d1161013e57806352d1902d1461033857806354fd4d501461034d5780635d7c188c146103625780636a0178911461038f57600080fd5b80634dc387c8146102d85780634e1273f4146102f85780634f1ef2861461032557600080fd5b80631e87ccce116101a05780631e87ccce14610256578063229df6d61461026b5780632eb2c2d614610280578063404f49d1146102a057600080fd5b8062fdd58e146101c657806301ffc9a7146101f95780630e89341c14610229575b600080fd5b3480156101d257600080fd5b506101e66101e1366004612ee6565b6105bc565b6040519081526020015b60405180910390f35b34801561020557600080fd5b50610219610214366004612f28565b6105f3565b60405190151581526020016101f0565b34801561023557600080fd5b50610249610244366004612f45565b610643565b6040516101f09190612fae565b610269610264366004612fc1565b610857565b005b34801561027757600080fd5b506101e6600581565b34801561028c57600080fd5b5061026961029b36600461314e565b610924565b3480156102ac57600080fd5b506000546102c0906001600160a01b031681565b6040516001600160a01b0390911681526020016101f0565b3480156102e457600080fd5b506102696102f33660046131fb565b610b41565b34801561030457600080fd5b50610318610313366004613241565b610c2b565b6040516101f09190613333565b610269610333366004613346565b610cff565b34801561034457600080fd5b506101e6610d1e565b34801561035957600080fd5b50610249610d3b565b34801561036e57600080fd5b506101e661037d366004612f45565b60056020526000908152604090205481565b34801561039b57600080fd5b506002546102c0906001600160a01b031681565b3480156103bb57600080fd5b50610269610dc9565b3480156103d057600080fd5b506102696103df36600461337f565b610ddd565b3480156103f057600080fd5b507f9016d09d72d40fdae2fd8ceac6b6234c7706214fd39c1cd1e609a0528c199300546001600160a01b03166102c0565b34801561042d57600080fd5b5061026961043c3660046133b8565b610e28565b34801561044d57600080fd5b506001546102c0906001600160a01b031681565b34801561046d57600080fd5b5061026961047c3660046133f6565b610e33565b34801561048d57600080fd5b50610249604051806040016040528060058152602001640352e302e360dc1b81525081565b3480156104be57600080fd5b506102696104cd366004613445565b610f67565b3480156104de57600080fd5b506102496104ed366004612f45565b611063565b3480156104fe57600080fd5b5061051261050d366004613485565b6111bb565b604080519283526020830191909152016101f0565b34801561053357600080fd5b5061024961124d565b34801561054857600080fd5b506102196105573660046134a7565b6112df565b34801561056857600080fd5b506102696105773660046134d5565b61132c565b34801561058857600080fd5b5061026961059736600461353d565b6114b6565b3480156105a857600080fd5b506102696105b7366004613346565b6114f4565b6000818152600080516020613b1c833981519152602090815260408083206001600160a01b03861684529091529020545b92915050565b60006001600160e01b03198216636cdb3d1360e11b148061062457506001600160e01b031982166303a24d0760e21b145b806105ed57506301ffc9a760e01b6001600160e01b03198316146105ed565b6000818152600460205260408120805460609291906106619061355a565b80601f016020809104026020016040519081016040528092919081815260200182805461068d9061355a565b80156106da5780601f106106af576101008083540402835291602001916106da565b820191906000526020600020905b8154815290600101906020018083116106bd57829003601f168201915b505050505090506000815111156106f15792915050565b6000838152600660205260409020548061074a5760405162461bcd60e51b81526020600482015260156024820152742a37b5b2b7103237b2b9903737ba1032bc34b9ba1760591b60448201526064015b60405180910390fd5b600061075582611063565b90506000806007600085815260200190815260200160002080546107789061355a565b905011610786576008610795565b60008381526007602052604090205b80546107a09061355a565b80601f01602080910402602001604051908101604052809291908181526020018280546107cc9061355a565b80156108195780601f106107ee57610100808354040283529160200191610819565b820191906000526020600020905b8154815290600101906020018083116107fc57829003601f168201915b50505050509050808261082b88611685565b60405160200161083d93929190613594565b604051602081830303815290604052945050505050919050565b61085f611717565b61086a848484611761565b6000610877858585611a71565b905060006108888686868587611b56565b9050806108c95760405162461bcd60e51b815260206004820152600f60248201526e141d5c98da185cd94819985a5b1959608a1b6044820152606401610741565b600a80546108d69061355a565b90506000036108e8576108e886611c29565b6108f3868686611d32565b505061091e60017f9b779b17422d0df92223018b32b4d1fa46e071723d6817e2486d003becc55f0055565b50505050565b6001600160a01b038516331480610940575061094085336112df565b6109a75760405162461bcd60e51b815260206004820152603260248201527f455243313135353a207472616e736665722063616c6c6572206973206e6f74206044820152711bdddb995c881b9bdc88185c1c1c9bdd995960721b6064820152608401610741565b60005b8351811015610b2c576000600660008684815181106109cb576109cb613606565b6020026020010151815260200190815260200160002054905060006001600160a01b0316876001600160a01b031614610a845760015485516001600160a01b039091169063e35b1ee89083908a90899087908110610a2b57610a2b613606565b60200260200101516040518463ffffffff1660e01b8152600401610a519392919061361c565b600060405180830381600087803b158015610a6b57600080fd5b505af1158015610a7f573d6000803e3d6000fd5b505050505b6001600160a01b03861615610b195760015485516001600160a01b039091169063de44006f9083908990899087908110610ac057610ac0613606565b60200260200101516040518463ffffffff1660e01b8152600401610ae69392919061361c565b600060405180830381600087803b158015610b0057600080fd5b505af1158015610b14573d6000803e3d6000fd5b505050505b5080610b2481613651565b9150506109aa565b50610b3a8585858585611e83565b5050505050565b600054604051634bbe5c4f60e11b8152600481018490526001600160a01b039091169063977cb89e90602401602060405180830381865afa158015610b8a573d6000803e3d6000fd5b505050506040513d601f19601f82011682018060405250810190610bae919061366a565b6001600160a01b0316336001600160a01b031614610c0e5760405162461bcd60e51b815260206004820152601b60248201527f43616c6c6572206973206e6f7420746865206f7267616e697a657200000000006044820152606401610741565b6000828152600760205260409020610c2682826136cd565b505050565b60608151835114610c5c5781518351604051635b05999160e01b815260048101929092526024820152604401610741565b600083516001600160401b03811115610c7757610c77613002565b604051908082528060200260200182016040528015610ca0578160200160208202803683370190505b50905060005b8451811015610cf757602080820286010151610cca906020808402870101516105bc565b828281518110610cdc57610cdc613606565b6020908102919091010152610cf081613651565b9050610ca6565b509392505050565b610d07611ee2565b610d1082611f87565b610d1a8282611f8f565b5050565b6000610d2861204c565b50600080516020613afc83398151915290565b60038054610d489061355a565b80601f0160208091040260200160405190810160405280929190818152602001828054610d749061355a565b8015610dc15780601f10610d9657610100808354040283529160200191610dc1565b820191906000526020600020905b815481529060010190602001808311610da457829003601f168201915b505050505081565b610dd1612095565b610ddb60006120f0565b565b6001546001600160a01b03163314610e1d5760405162461bcd60e51b815260206004820152600360248201526221626f60e81b6044820152606401610741565b610c26818484612161565b610d1a3383836121c9565b600054604051634bbe5c4f60e11b8152600481018590526001600160a01b039091169063977cb89e90602401602060405180830381865afa158015610e7c573d6000803e3d6000fd5b505050506040513d601f19601f82011682018060405250810190610ea0919061366a565b6001600160a01b0316336001600160a01b031614610f115760405162461bcd60e51b815260206004820152602860248201527f43616c6c6572206973206e6f7420746865206f7267616e697a6572206f6620746044820152676869732073686f7760c01b6064820152608401610741565b6000828152600460205260409020610f2982826136cd565b50817f6bb7ff708619ba0610cba295a58592e0451dee2622938c8755667688daf3529b82604051610f5a9190612fae565b60405180910390a2505050565b6000546001600160a01b031615610f905760405162461bcd60e51b81526004016107419061378c565b6001546001600160a01b031615610fb95760405162461bcd60e51b81526004016107419061378c565b6002546001600160a01b0316156110245760405162461bcd60e51b815260206004820152602960248201527f53686f775661756c7420636f6e7472616374206164647265737320697320616c6044820152681c9958591e481cd95d60ba1b6064820152608401610741565b600080546001600160a01b039485166001600160a01b031991821617909155600180549385169382169390931790925560028054919093169116179055565b604080518082018252601081526f181899199a1a9b1b9c1cb0b131b232b360811b6020820152815182815260608181018452926000919060208201818036833701905050905060005b6020811015610cf7578260048683602081106110ca576110ca613606565b1a60f81b6001600160f81b031916901c60f81c60ff16815181106110f0576110f0613606565b01602001516001600160f81b0319168261110b8360026137d0565b8151811061111b5761111b613606565b60200101906001600160f81b031916908160001a9053508285826020811061114557611145613606565b825191901a600f1690811061115c5761115c613606565b01602001516001600160f81b031916826111778360026137d0565b6111829060016137e7565b8151811061119257611192613606565b60200101906001600160f81b031916908160001a905350806111b381613651565b9150506110ac565b6001546040516293d4e160e81b81526004810184905260248101839052600091829182916001600160a01b0316906393d4e10090604401602060405180830381865afa15801561120f573d6000803e3d6000fd5b505050506040513d601f19601f8201168201806040525081019061123391906137fa565b600094855260056020526040909420549395939450505050565b6060600a805461125c9061355a565b80601f01602080910402602001604051908101604052809291908181526020018280546112889061355a565b80156112d55780601f106112aa576101008083540402835291602001916112d5565b820191906000526020600020905b8154815290600101906020018083116112b857829003601f168201915b5050505050905090565b6001600160a01b0391821660009081527f88be536d5240c274a3b1d3a1be54482fd9caa294f08c62a7cde569f49a3c45016020908152604080832093909416825291909152205460ff1690565b6001600160a01b038516331480611348575061134885336112df565b6113a65760405162461bcd60e51b815260206004820152602960248201527f455243313135353a2063616c6c6572206973206e6f74206f776e6572206e6f7260448201526808185c1c1c9bdd995960ba1b6064820152608401610741565b6000838152600660205260409020546001600160a01b0386161561142b57600154604051631c6b63dd60e31b81526001600160a01b039091169063e35b1ee8906113f89084908a90899060040161361c565b600060405180830381600087803b15801561141257600080fd5b505af1158015611426573d6000803e3d6000fd5b505050505b6001600160a01b038516156114a15760015460405163de44006f60e01b81526001600160a01b039091169063de44006f9061146e9084908990899060040161361c565b600060405180830381600087803b15801561148857600080fd5b505af115801561149c573d6000803e3d6000fd5b505050505b6114ae8686868686612271565b505050505050565b6114be612095565b6001600160a01b0381166114e857604051631e4fbdf760e01b815260006004820152602401610741565b6114f1816120f0565b50565b7ff0c57e16840df040f15088dc2f81fe391c3923bec73e23a9662efc9c229c6a008054600160401b810460ff1615906001600160401b03166000811580156115395750825b90506000826001600160401b031660011480156115555750303b155b905081158015611563575080155b156115815760405163f92ee8a960e01b815260040160405180910390fd5b845467ffffffffffffffff1916600117855583156115ab57845460ff60401b1916600160401b1785555b6115cc6040518060600160405280602c8152602001613aad602c91396122d0565b6115d46122e1565b6115dd876122f1565b6115e5612302565b60036115f187826136cd565b50604051806060016040528060238152602001613ad96023913960089061161890826136cd565b50604080516020810190915260008152600a9061163590826136cd565b50831561167c57845460ff60401b19168555604051600181527fc7f505b2f371ae2175ee4913f4499e1f2633a7b5936321eed1cdaeb6115181d29060200160405180910390a15b50505050505050565b606060006116928361230a565b60010190506000816001600160401b038111156116b1576116b1613002565b6040519080825280601f01601f1916602001820160405280156116db576020820181803683370190505b5090508181016020015b600019016f181899199a1a9b1b9c1cb0b131b232b360811b600a86061a8153600a85049450846116e557509392505050565b7f9b779b17422d0df92223018b32b4d1fa46e071723d6817e2486d003becc55f0080546001190161175b57604051633ee5aeb560e01b815260040160405180910390fd5b60029055565b600080546040516346c2c8a760e01b8152600481018690526001600160a01b03909116906346c2c8a790602401602060405180830381865afa1580156117ab573d6000803e3d6000fd5b505050506040513d601f19601f820116820180604052508101906117cf9190613813565b905060008160078111156117e5576117e5613834565b14806118025750600181600781111561180057611800613834565b145b8061181e5750600281600781111561181c5761181c613834565b145b8061183a5750600381600781111561183857611838613834565b145b6118865760405162461bcd60e51b815260206004820152601f60248201527f53686f77206e6f7420617661696c61626c6520666f72207075726368617365006044820152606401610741565b600082116118d65760405162461bcd60e51b815260206004820152601d60248201527f416d6f756e74206d7573742062652067726561746572207468616e20300000006044820152606401610741565b60008054604051637e3e393560e01b815260048101879052602481018690526001600160a01b0390911690637e3e393590604401600060405180830381865afa158015611927573d6000803e3d6000fd5b505050506040513d6000823e601f3d908101601f1916820160405261194f919081019061384a565b92505050828110156119a35760405162461bcd60e51b815260206004820152601c60248201527f4e6f7420656e6f756768207469636b65747320617661696c61626c65000000006044820152606401610741565b600154604051635b9a1e0960e01b8152600481018790523360248201526000916001600160a01b031690635b9a1e0990604401600060405180830381865afa1580156119f3573d6000803e3d6000fd5b505050506040513d6000823e601f3d908101601f19168201604052611a1b91908101906138d3565b90506005848251611a2c91906137e7565b11156114ae5760405162461bcd60e51b815260206004820152601460248201527313585e081d1a58dad95d1cc8195e18d95959195960621b6044820152606401610741565b611a9c6040518060800160405280600081526020016000815260200160008152602001600081525090565b60008054604051637e3e393560e01b8152600481018790526024810186905282916001600160a01b031690637e3e393590604401600060405180830381865afa158015611aed573d6000803e3d6000fd5b505050506040513d6000823e601f3d908101601f19168201604052611b15919081019061384a565b909350915060009050611b2885846137d0565b60408051608081018252948552602085019390935291830191909152506000606082015290505b9392505050565b6000611b67868460400151846123e2565b611b7357506000611c20565b600160005b85811015611c1c576009805460009182611b9183613651565b919050559050611ba881898b338a60000151612576565b611bb6576000925050611c1c565b60408051898152602081018390526001818301526001600160a01b038716606082015290518a9133917f2aceb142a3587d08c8b52a9ac6b03c85fdce4097d5614383174758656261bfdd9181900360800190a35080611c1481613651565b915050611b78565b5090505b95945050505050565b6000611c3482611063565b9050600080600760008581526020019081526020016000208054611c579061355a565b905011611c65576008611c74565b60008381526007602052604090205b8054611c7f9061355a565b80601f0160208091040260200160405190810160405280929190818152602001828054611cab9061355a565b8015611cf85780601f10611ccd57610100808354040283529160200191611cf8565b820191906000526020600020905b815481529060010190602001808311611cdb57829003601f168201915b5050505050905060008183604051602001611d14929190613963565b60408051601f198184030181529190529050600a610b3a82826136cd565b600154604051630f0faed760e31b815260048101859052602481018390526001600160a01b039091169063787d76b890604401600060405180830381600087803b158015611d7f57600080fd5b505af1158015611d93573d6000803e3d6000fd5b505060005460405163644b5e5960e01b81526004810187905260248101869052604481018590526001600160a01b03909116925063644b5e599150606401600060405180830381600087803b158015611deb57600080fd5b505af1158015611dff573d6000803e3d6000fd5b505060005460405163730c02a360e11b8152600481018790526001600160a01b03909116925063e61805469150602401600060405180830381600087803b158015611e4957600080fd5b505af115801561167c573d6000803e3d6000fd5b60017f9b779b17422d0df92223018b32b4d1fa46e071723d6817e2486d003becc55f0055565b336001600160a01b0386168114801590611ea45750611ea286826112df565b155b15611ed55760405163711bec9160e11b81526001600160a01b03808316600483015287166024820152604401610741565b6114ae8686868686612691565b306001600160a01b037f0000000000000000000000000000000000000000000000000000000000000000161480611f6957507f00000000000000000000000000000000000000000000000000000000000000006001600160a01b0316611f5d600080516020613afc833981519152546001600160a01b031690565b6001600160a01b031614155b15610ddb5760405163703e46dd60e11b815260040160405180910390fd5b6114f1612095565b816001600160a01b03166352d1902d6040518163ffffffff1660e01b8152600401602060405180830381865afa925050508015611fe9575060408051601f3d908101601f19168201909252611fe6918101906137fa565b60015b61201157604051634c9c8ce360e01b81526001600160a01b0383166004820152602401610741565b600080516020613afc833981519152811461204257604051632a87526960e21b815260048101829052602401610741565b610c2683836126f1565b306001600160a01b037f00000000000000000000000000000000000000000000000000000000000000001614610ddb5760405163703e46dd60e11b815260040160405180910390fd5b336120c77f9016d09d72d40fdae2fd8ceac6b6234c7706214fd39c1cd1e609a0528c199300546001600160a01b031690565b6001600160a01b031614610ddb5760405163118cdaa760e01b8152336004820152602401610741565b7f9016d09d72d40fdae2fd8ceac6b6234c7706214fd39c1cd1e609a0528c19930080546001600160a01b031981166001600160a01b03848116918217845560405192169182907f8be0079c531659141344cd1fd0a4f28419497f9722a3daafe3b4186f6b6457e090600090a3505050565b6001600160a01b03831661218a57604051626a0d4560e21b815260006004820152602401610741565b604080516001808252602082018590528183019081526060820184905260a08201909252600060808201818152919291610b3a91879185908590612747565b600080516020613b1c8339815191526001600160a01b0383166122015760405162ced3e160e81b815260006004820152602401610741565b6001600160a01b038481166000818152600184016020908152604080832094881680845294825291829020805460ff191687151590811790915591519182527f17307eab39ab6107e8899845ad3d59bd9653f200f220920489ca2b5937696c31910160405180910390a350505050565b336001600160a01b0386168114801590612292575061229086826112df565b155b156122c35760405163711bec9160e11b81526001600160a01b03808316600483015287166024820152604401610741565b6114ae868686868661279a565b6122d861281f565b6114f181612868565b6122e961281f565b610ddb612879565b6122f961281f565b6114f181612881565b610ddb61281f565b60008072184f03e93ff9f4daa797ed6e38ed64bf6a1f0160401b83106123495772184f03e93ff9f4daa797ed6e38ed64bf6a1f0160401b830492506040015b6d04ee2d6d415b85acef81000000008310612375576d04ee2d6d415b85acef8100000000830492506020015b662386f26fc10000831061239357662386f26fc10000830492506010015b6305f5e10083106123ab576305f5e100830492506008015b61271083106123bf57612710830492506004015b606483106123d1576064830492506002015b600a83106105ed5760010192915050565b60006001600160a01b0382166124a1578234146124385760405162461bcd60e51b8152602060048201526014602482015273125b98dbdc9c9958dd0811551208185b5bdd5b9d60621b6044820152606401610741565b600254604051638526663560e01b8152600481018690526001600160a01b039091169063852666359034906024016000604051808303818588803b15801561247f57600080fd5b505af1158015612493573d6000803e3d6000fd5b505050505060019050611b4f565b34156124fa5760405162461bcd60e51b815260206004820152602260248201527f446f206e6f742073656e64204554482077697468204552433230207061796d656044820152611b9d60f21b6064820152608401610741565b600254604051635412233f60e01b815260048101869052602481018590526001600160a01b03848116604483015233606483015290911690635412233f90608401600060405180830381600087803b15801561255557600080fd5b505af1158015612569573d6000803e3d6000fd5b5050505060019050611b4f565b60006125948387600160405180602001604052806000815250612889565b6000868152600560209081526040808320889055600690915290819020859055600154905163de44006f60e01b81526001600160a01b039091169063de44006f906125e790879087908b9060040161361c565b600060405180830381600087803b15801561260157600080fd5b505af1158015612615573d6000803e3d6000fd5b5050600154604051632f51f71760e21b815260048101889052602481018a9052604481018690526001600160a01b03909116925063bd47dc5c9150606401600060405180830381600087803b15801561266d57600080fd5b505af1158015612681573d6000803e3d6000fd5b5060019998505050505050505050565b6001600160a01b0384166126bb57604051632bfa23e760e11b815260006004820152602401610741565b6001600160a01b0385166126e457604051626a0d4560e21b815260006004820152602401610741565b610b3a8585858585612747565b6126fa826128e6565b6040516001600160a01b038316907fbc7cd75a20ee27fd9adebab32041f755214dbc6bffa90cc0225b39da2e5c2d3b90600090a280511561273f57610c26828261294b565b610d1a6129b8565b612753858585856129d7565b6001600160a01b03841615610b3a578251339060010361278c5760208481015190840151612785838989858589612c05565b50506114ae565b6114ae818787878787612d29565b6001600160a01b0384166127c457604051632bfa23e760e11b815260006004820152602401610741565b6001600160a01b0385166127ed57604051626a0d4560e21b815260006004820152602401610741565b6040805160018082526020820186905281830190815260608201859052608082019092529061167c8787848487612747565b7ff0c57e16840df040f15088dc2f81fe391c3923bec73e23a9662efc9c229c6a0054600160401b900460ff16610ddb57604051631afcd79f60e31b815260040160405180910390fd5b61287061281f565b6114f181612e12565b611e5d61281f565b6114be61281f565b6001600160a01b0384166128b357604051632bfa23e760e11b815260006004820152602401610741565b604080516001808252602082018690528183019081526060820185905260808201909252906114ae600087848487612747565b806001600160a01b03163b60000361291c57604051634c9c8ce360e01b81526001600160a01b0382166004820152602401610741565b600080516020613afc83398151915280546001600160a01b0319166001600160a01b0392909216919091179055565b6060600080846001600160a01b03168460405161296891906139b6565b600060405180830381855af49150503d80600081146129a3576040519150601f19603f3d011682016040523d82523d6000602084013e6129a8565b606091505b5091509150611c20858383612e4c565b3415610ddb5760405163b398979f60e01b815260040160405180910390fd5b80518251600080516020613b1c8339815191529114612a165782518251604051635b05999160e01b815260048101929092526024820152604401610741565b3360005b8451811015612b25576020818102868101820151908601909101516001600160a01b03891615612acd576000828152602086815260408083206001600160a01b038d16845290915290205481811015612aa6576040516303dee4c560e01b81526001600160a01b038b166004820152602481018290526044810183905260648101849052608401610741565b6000838152602087815260408083206001600160a01b038e16845290915290209082900390555b6001600160a01b03881615612b12576000828152602086815260408083206001600160a01b038c16845290915281208054839290612b0c9084906137e7565b90915550505b505080612b1e90613651565b9050612a1a565b508351600103612ba65760208401516000906020850151909150866001600160a01b0316886001600160a01b0316846001600160a01b03167fc3d58168c5ae7397731d063d5bbf3d657854427343f4c083240f7aacaa2d0f628585604051612b97929190918252602082015260400190565b60405180910390a450506114ae565b846001600160a01b0316866001600160a01b0316826001600160a01b03167f4a39dc06d4c0dbc64b70af90fd698a233a518aa5d07e595d983b8c0526c8f7fb8787604051612bf59291906139d2565b60405180910390a4505050505050565b6001600160a01b0384163b156114ae5760405163f23a6e6160e01b81526001600160a01b0385169063f23a6e6190612c4990899089908890889088906004016139f7565b6020604051808303816000875af1925050508015612c84575060408051601f3d908101601f19168201909252612c8191810190613a31565b60015b612ced573d808015612cb2576040519150601f19603f3d011682016040523d82523d6000602084013e612cb7565b606091505b508051600003612ce557604051632bfa23e760e11b81526001600160a01b0386166004820152602401610741565b805181602001fd5b6001600160e01b0319811663f23a6e6160e01b1461167c57604051632bfa23e760e11b81526001600160a01b0386166004820152602401610741565b6001600160a01b0384163b156114ae5760405163bc197c8160e01b81526001600160a01b0385169063bc197c8190612d6d9089908990889088908890600401613a4e565b6020604051808303816000875af1925050508015612da8575060408051601f3d908101601f19168201909252612da591810190613a31565b60015b612dd6573d808015612cb2576040519150601f19603f3d011682016040523d82523d6000602084013e612cb7565b6001600160e01b0319811663bc197c8160e01b1461167c57604051632bfa23e760e11b81526001600160a01b0386166004820152602401610741565b600080516020613b1c8339815191527f88be536d5240c274a3b1d3a1be54482fd9caa294f08c62a7cde569f49a3c4502610c2683826136cd565b606082612e6157612e5c82612ea8565b611b4f565b8151158015612e7857506001600160a01b0384163b155b15612ea157604051639996b31560e01b81526001600160a01b0385166004820152602401610741565b5080611b4f565b805115612eb85780518082602001fd5b604051630a12f52160e11b815260040160405180910390fd5b6001600160a01b03811681146114f157600080fd5b60008060408385031215612ef957600080fd5b8235612f0481612ed1565b946020939093013593505050565b6001600160e01b0319811681146114f157600080fd5b600060208284031215612f3a57600080fd5b8135611b4f81612f12565b600060208284031215612f5757600080fd5b5035919050565b60005b83811015612f79578181015183820152602001612f61565b50506000910152565b60008151808452612f9a816020860160208601612f5e565b601f01601f19169290920160200192915050565b602081526000611b4f6020830184612f82565b60008060008060808587031215612fd757600080fd5b8435935060208501359250604085013591506060850135612ff781612ed1565b939692955090935050565b634e487b7160e01b600052604160045260246000fd5b604051601f8201601f191681016001600160401b038111828210171561304057613040613002565b604052919050565b60006001600160401b0382111561306157613061613002565b5060051b60200190565b600082601f83011261307c57600080fd5b8135602061309161308c83613048565b613018565b82815260059290921b840181019181810190868411156130b057600080fd5b8286015b848110156130cb57803583529183019183016130b4565b509695505050505050565b60006001600160401b038211156130ef576130ef613002565b50601f01601f191660200190565b600082601f83011261310e57600080fd5b813561311c61308c826130d6565b81815284602083860101111561313157600080fd5b816020850160208301376000918101602001919091529392505050565b600080600080600060a0868803121561316657600080fd5b853561317181612ed1565b9450602086013561318181612ed1565b935060408601356001600160401b038082111561319d57600080fd5b6131a989838a0161306b565b945060608801359150808211156131bf57600080fd5b6131cb89838a0161306b565b935060808801359150808211156131e157600080fd5b506131ee888289016130fd565b9150509295509295909350565b6000806040838503121561320e57600080fd5b8235915060208301356001600160401b0381111561322b57600080fd5b613237858286016130fd565b9150509250929050565b6000806040838503121561325457600080fd5b82356001600160401b038082111561326b57600080fd5b818501915085601f83011261327f57600080fd5b8135602061328f61308c83613048565b82815260059290921b840181019181810190898411156132ae57600080fd5b948201945b838610156132d55785356132c681612ed1565b825294820194908201906132b3565b965050860135925050808211156132eb57600080fd5b506132378582860161306b565b600081518084526020808501945080840160005b838110156133285781518752958201959082019060010161330c565b509495945050505050565b602081526000611b4f60208301846132f8565b6000806040838503121561335957600080fd5b823561336481612ed1565b915060208301356001600160401b0381111561322b57600080fd5b60008060006060848603121561339457600080fd5b833592506020840135915060408401356133ad81612ed1565b809150509250925092565b600080604083850312156133cb57600080fd5b82356133d681612ed1565b9150602083013580151581146133eb57600080fd5b809150509250929050565b60008060006060848603121561340b57600080fd5b833592506020840135915060408401356001600160401b0381111561342f57600080fd5b61343b868287016130fd565b9150509250925092565b60008060006060848603121561345a57600080fd5b833561346581612ed1565b9250602084013561347581612ed1565b915060408401356133ad81612ed1565b6000806040838503121561349857600080fd5b50508035926020909101359150565b600080604083850312156134ba57600080fd5b82356134c581612ed1565b915060208301356133eb81612ed1565b600080600080600060a086880312156134ed57600080fd5b85356134f881612ed1565b9450602086013561350881612ed1565b9350604086013592506060860135915060808601356001600160401b0381111561353157600080fd5b6131ee888289016130fd565b60006020828403121561354f57600080fd5b8135611b4f81612ed1565b600181811c9082168061356e57607f821691505b60208210810361358e57634e487b7160e01b600052602260045260246000fd5b50919050565b600084516135a6818460208901612f5e565b61060f60f31b90830190815284516135c5816002840160208901612f5e565b602f60f81b6002929091019182015283516135e7816003840160208801612f5e565b64173539b7b760d91b6003929091019182015260080195945050505050565b634e487b7160e01b600052603260045260246000fd5b9283526001600160a01b03919091166020830152604082015260600190565b634e487b7160e01b600052601160045260246000fd5b6000600182016136635761366361363b565b5060010190565b60006020828403121561367c57600080fd5b8151611b4f81612ed1565b601f821115610c2657600081815260208120601f850160051c810160208610156136ae5750805b601f850160051c820191505b818110156114ae578281556001016136ba565b81516001600160401b038111156136e6576136e6613002565b6136fa816136f4845461355a565b84613687565b602080601f83116001811461372f57600084156137175750858301515b600019600386901b1c1916600185901b1785556114ae565b600085815260208120601f198616915b8281101561375e5788860151825594840194600190910190840161373f565b508582101561377c5787850151600019600388901b60f8161c191681555b5050505050600190811b01905550565b60208082526024908201527f53686f7720636f6e7472616374206164647265737320697320616c7265616479604082015263081cd95d60e21b606082015260800190565b80820281158282048414176105ed576105ed61363b565b808201808211156105ed576105ed61363b565b60006020828403121561380c57600080fd5b5051919050565b60006020828403121561382557600080fd5b815160088110611b4f57600080fd5b634e487b7160e01b600052602160045260246000fd5b60008060006060848603121561385f57600080fd5b83516001600160401b0381111561387557600080fd5b8401601f8101861361388657600080fd5b805161389461308c826130d6565b8181528760208385010111156138a957600080fd5b6138ba826020830160208601612f5e565b6020870151604090970151909896975095945050505050565b600060208083850312156138e657600080fd5b82516001600160401b038111156138fc57600080fd5b8301601f8101851361390d57600080fd5b805161391b61308c82613048565b81815260059190911b8201830190838101908783111561393a57600080fd5b928401925b828410156139585783518252928401929084019061393f565b979650505050505050565b60008351613975818460208801612f5e565b61060f60f31b9083019081528351613994816002840160208801612f5e565b680bd8dbdb9d1c9858dd60ba1b60029290910191820152600b01949350505050565b600082516139c8818460208701612f5e565b9190910192915050565b6040815260006139e560408301856132f8565b8281036020840152611c2081856132f8565b6001600160a01b03868116825285166020820152604081018490526060810183905260a06080820181905260009061395890830184612f82565b600060208284031215613a4357600080fd5b8151611b4f81612f12565b6001600160a01b0386811682528516602082015260a060408201819052600090613a7a908301866132f8565b8281036060840152613a8c81866132f8565b90508281036080840152613aa08185612f82565b9897505050505050505056fe68747470733a2f2f6d657461646174612e73656c6c6f7574732e6170702f73686f772f7b69647d2e6a736f6e68747470733a2f2f6d657461646174612e73656c6c6f7574732e6170702f73686f772f360894a13ba1a3210667c828492db98dca3e2076cc3735a920a3ca505d382bbc88be536d5240c274a3b1d3a1be54482fd9caa294f08c62a7cde569f49a3c4500a26469706673582212205658398d8bb41fe85b20e9f2aec920eee7c6040294847ef8abc8cf36dafeab5a64736f6c63430008140033","linkReferences":{}},"methodIdentifiers":{"MAX_TICKETS_PER_WALLET()":"229df6d6","UPGRADE_INTERFACE_VERSION()":"ad3cb1cc","balanceOf(address,uint256)":"00fdd58e","balanceOfBatch(address[],uint256[])":"4e1273f4","boxOfficeInstance()":"a2b7d174","burnTokens(uint256,uint256,address)":"87f9ca5d","bytes32ToHexString(bytes32)":"c68b3787","contractURI()":"e8a3d485","getTicketPricePaidAndTierIndex(bytes32,uint256)":"da3a7616","initialize(address,string)":"f399e22e","isApprovedForAll(address,address)":"e985e9c5","owner()":"8da5cb5b","proxiableUUID()":"52d1902d","purchaseTickets(bytes32,uint256,uint256,address)":"1e87ccce","renounceOwnership()":"715018a6","safeBatchTransferFrom(address,address,uint256[],uint256[],bytes)":"2eb2c2d6","safeTransferFrom(address,address,uint256,uint256,bytes)":"f242432a","setApprovalForAll(address,bool)":"a22cb465","setDefaultURIForShow(bytes32,string)":"4dc387c8","setShowContractAddresses(address,address,address)":"b02ee944","setTokenURI(bytes32,uint256,string)":"a7d22597","showInstance()":"404f49d1","showVaultInstance()":"6a017891","supportsInterface(bytes4)":"01ffc9a7","ticketIdToTierIndex(uint256)":"5d7c188c","transferOwnership(address)":"f2fde38b","upgradeToAndCall(address,bytes)":"4f1ef286","uri(uint256)":"0e89341c","version()":"54fd4d50"},"id":84}