{"abi":[{"type":"function","name":"MAX_TICKETS_PER_WALLET","inputs":[],"outputs":[{"name":"","type":"uint256","internalType":"uint256"}],"stateMutability":"view"},{"type":"function","name":"showInstance","inputs":[],"outputs":[{"name":"","type":"address","internalType":"contract IShow"}],"stateMutability":"view"},{"type":"function","name":"ticketIdToTierIndex","inputs":[{"name":"","type":"uint256","internalType":"uint256"}],"outputs":[{"name":"","type":"uint256","internalType":"uint256"}],"stateMutability":"view"}],"bytecode":{"object":"0x608060405234801561001057600080fd5b5060ef8061001f6000396000f3fe6080604052348015600f57600080fd5b5060043610603c5760003560e01c8063229df6d6146041578063404f49d114605b5780635d7c188c146084575b600080fd5b6048600581565b6040519081526020015b60405180910390f35b600054606d906001600160a01b031681565b6040516001600160a01b0390911681526020016052565b6048608f36600460a1565b60026020526000908152604090205481565b60006020828403121560b257600080fd5b503591905056fea2646970667358221220fc09ee8d93cdd91edbdc5c115161515dd7e2d8fd99f37ab1661aa9f7aae819ac64736f6c63430008140033","linkReferences":{}},"methodIdentifiers":{"MAX_TICKETS_PER_WALLET()":"229df6d6","showInstance()":"404f49d1","ticketIdToTierIndex(uint256)":"5d7c188c"},"id":84}