{"abi":[{"type":"function","name":"MAX_TICKETS_PER_WALLET","inputs":[],"outputs":[{"name":"","type":"uint256","internalType":"uint256"}],"stateMutability":"view"},{"type":"function","name":"UPGRADE_INTERFACE_VERSION","inputs":[],"outputs":[{"name":"","type":"string","internalType":"string"}],"stateMutability":"view"},{"type":"function","name":"balanceOf","inputs":[{"name":"account","type":"address","internalType":"address"},{"name":"id","type":"uint256","internalType":"uint256"}],"outputs":[{"name":"","type":"uint256","internalType":"uint256"}],"stateMutability":"view"},{"type":"function","name":"balanceOfBatch","inputs":[{"name":"accounts","type":"address[]","internalType":"address[]"},{"name":"ids","type":"uint256[]","internalType":"uint256[]"}],"outputs":[{"name":"","type":"uint256[]","internalType":"uint256[]"}],"stateMutability":"view"},{"type":"function","name":"burnTokens","inputs":[{"name":"tokenId","type":"uint256","internalType":"uint256"},{"name":"amount","type":"uint256","internalType":"uint256"},{"name":"owner","type":"address","internalType":"address"}],"outputs":[],"stateMutability":"nonpayable"},{"type":"function","name":"bytes32ToHexString","inputs":[{"name":"_bytes32","type":"bytes32","internalType":"bytes32"}],"outputs":[{"name":"","type":"string","internalType":"string"}],"stateMutability":"pure"},{"type":"function","name":"getTicketPricePaidAndTierIndex","inputs":[{"name":"showId","type":"bytes32","internalType":"bytes32"},{"name":"ticketId","type":"uint256","internalType":"uint256"}],"outputs":[{"name":"price","type":"uint256","internalType":"uint256"},{"name":"tierIndex","type":"uint256","internalType":"uint256"}],"stateMutability":"view"},{"type":"function","name":"initialize","inputs":[{"name":"initialOwner","type":"address","internalType":"address"},{"name":"_version","type":"string","internalType":"string"}],"outputs":[],"stateMutability":"nonpayable"},{"type":"function","name":"isApprovedForAll","inputs":[{"name":"account","type":"address","internalType":"address"},{"name":"operator","type":"address","internalType":"address"}],"outputs":[{"name":"","type":"bool","internalType":"bool"}],"stateMutability":"view"},{"type":"function","name":"owner","inputs":[],"outputs":[{"name":"","type":"address","internalType":"address"}],"stateMutability":"view"},{"type":"function","name":"proxiableUUID","inputs":[],"outputs":[{"name":"","type":"bytes32","internalType":"bytes32"}],"stateMutability":"view"},{"type":"function","name":"purchaseTickets","inputs":[{"name":"showId","type":"bytes32","internalType":"bytes32"},{"name":"tierIndex","type":"uint256","internalType":"uint256"},{"name":"amount","type":"uint256","internalType":"uint256"},{"name":"paymentToken","type":"address","internalType":"address"}],"outputs":[],"stateMutability":"payable"},{"type":"function","name":"renounceOwnership","inputs":[],"outputs":[],"stateMutability":"nonpayable"},{"type":"function","name":"safeBatchTransferFrom","inputs":[{"name":"from","type":"address","internalType":"address"},{"name":"to","type":"address","internalType":"address"},{"name":"ids","type":"uint256[]","internalType":"uint256[]"},{"name":"amounts","type":"uint256[]","internalType":"uint256[]"},{"name":"data","type":"bytes","internalType":"bytes"}],"outputs":[],"stateMutability":"nonpayable"},{"type":"function","name":"safeTransferFrom","inputs":[{"name":"from","type":"address","internalType":"address"},{"name":"to","type":"address","internalType":"address"},{"name":"id","type":"uint256","internalType":"uint256"},{"name":"amount","type":"uint256","internalType":"uint256"},{"name":"data","type":"bytes","internalType":"bytes"}],"outputs":[],"stateMutability":"nonpayable"},{"type":"function","name":"setApprovalForAll","inputs":[{"name":"operator","type":"address","internalType":"address"},{"name":"approved","type":"bool","internalType":"bool"}],"outputs":[],"stateMutability":"nonpayable"},{"type":"function","name":"setDefaultURIForShow","inputs":[{"name":"showId","type":"bytes32","internalType":"bytes32"},{"name":"newDefaultURI","type":"string","internalType":"string"}],"outputs":[],"stateMutability":"nonpayable"},{"type":"function","name":"setShowContractAddress","inputs":[{"name":"_showContractAddress","type":"address","internalType":"address"}],"outputs":[],"stateMutability":"nonpayable"},{"type":"function","name":"setTokenURI","inputs":[{"name":"showId","type":"bytes32","internalType":"bytes32"},{"name":"tokenId","type":"uint256","internalType":"uint256"},{"name":"newURI","type":"string","internalType":"string"}],"outputs":[],"stateMutability":"nonpayable"},{"type":"function","name":"showInstance","inputs":[],"outputs":[{"name":"","type":"address","internalType":"contract IShow"}],"stateMutability":"view"},{"type":"function","name":"supportsInterface","inputs":[{"name":"interfaceId","type":"bytes4","internalType":"bytes4"}],"outputs":[{"name":"","type":"bool","internalType":"bool"}],"stateMutability":"view"},{"type":"function","name":"ticketIdToTierIndex","inputs":[{"name":"","type":"uint256","internalType":"uint256"}],"outputs":[{"name":"","type":"uint256","internalType":"uint256"}],"stateMutability":"view"},{"type":"function","name":"transferOwnership","inputs":[{"name":"newOwner","type":"address","internalType":"address"}],"outputs":[],"stateMutability":"nonpayable"},{"type":"function","name":"upgradeToAndCall","inputs":[{"name":"newImplementation","type":"address","internalType":"address"},{"name":"data","type":"bytes","internalType":"bytes"}],"outputs":[],"stateMutability":"payable"},{"type":"function","name":"uri","inputs":[{"name":"tokenId","type":"uint256","internalType":"uint256"}],"outputs":[{"name":"","type":"string","internalType":"string"}],"stateMutability":"view"},{"type":"function","name":"version","inputs":[],"outputs":[{"name":"","type":"string","internalType":"string"}],"stateMutability":"view"},{"type":"event","name":"ApprovalForAll","inputs":[{"name":"account","type":"address","indexed":true,"internalType":"address"},{"name":"operator","type":"address","indexed":true,"internalType":"address"},{"name":"approved","type":"bool","indexed":false,"internalType":"bool"}],"anonymous":false},{"type":"event","name":"Initialized","inputs":[{"name":"version","type":"uint64","indexed":false,"internalType":"uint64"}],"anonymous":false},{"type":"event","name":"OwnershipTransferred","inputs":[{"name":"previousOwner","type":"address","indexed":true,"internalType":"address"},{"name":"newOwner","type":"address","indexed":true,"internalType":"address"}],"anonymous":false},{"type":"event","name":"TicketPurchased","inputs":[{"name":"buyer","type":"address","indexed":true,"internalType":"address"},{"name":"showId","type":"bytes32","indexed":true,"internalType":"bytes32"},{"name":"tierIndex","type":"uint256","indexed":false,"internalType":"uint256"},{"name":"tokenId","type":"uint256","indexed":false,"internalType":"uint256"},{"name":"amount","type":"uint256","indexed":false,"internalType":"uint256"},{"name":"paymentToken","type":"address","indexed":false,"internalType":"address"}],"anonymous":false},{"type":"event","name":"TransferBatch","inputs":[{"name":"operator","type":"address","indexed":true,"internalType":"address"},{"name":"from","type":"address","indexed":true,"internalType":"address"},{"name":"to","type":"address","indexed":true,"internalType":"address"},{"name":"ids","type":"uint256[]","indexed":false,"internalType":"uint256[]"},{"name":"values","type":"uint256[]","indexed":false,"internalType":"uint256[]"}],"anonymous":false},{"type":"event","name":"TransferSingle","inputs":[{"name":"operator","type":"address","indexed":true,"internalType":"address"},{"name":"from","type":"address","indexed":true,"internalType":"address"},{"name":"to","type":"address","indexed":true,"internalType":"address"},{"name":"id","type":"uint256","indexed":false,"internalType":"uint256"},{"name":"value","type":"uint256","indexed":false,"internalType":"uint256"}],"anonymous":false},{"type":"event","name":"URI","inputs":[{"name":"value","type":"string","indexed":false,"internalType":"string"},{"name":"id","type":"uint256","indexed":true,"internalType":"uint256"}],"anonymous":false},{"type":"event","name":"Upgraded","inputs":[{"name":"implementation","type":"address","indexed":true,"internalType":"address"}],"anonymous":false},{"type":"error","name":"AddressEmptyCode","inputs":[{"name":"target","type":"address","internalType":"address"}]},{"type":"error","name":"ERC1155InsufficientBalance","inputs":[{"name":"sender","type":"address","internalType":"address"},{"name":"balance","type":"uint256","internalType":"uint256"},{"name":"needed","type":"uint256","internalType":"uint256"},{"name":"tokenId","type":"uint256","internalType":"uint256"}]},{"type":"error","name":"ERC1155InvalidApprover","inputs":[{"name":"approver","type":"address","internalType":"address"}]},{"type":"error","name":"ERC1155InvalidArrayLength","inputs":[{"name":"idsLength","type":"uint256","internalType":"uint256"},{"name":"valuesLength","type":"uint256","internalType":"uint256"}]},{"type":"error","name":"ERC1155InvalidOperator","inputs":[{"name":"operator","type":"address","internalType":"address"}]},{"type":"error","name":"ERC1155InvalidReceiver","inputs":[{"name":"receiver","type":"address","internalType":"address"}]},{"type":"error","name":"ERC1155InvalidSender","inputs":[{"name":"sender","type":"address","internalType":"address"}]},{"type":"error","name":"ERC1155MissingApprovalForAll","inputs":[{"name":"operator","type":"address","internalType":"address"},{"name":"owner","type":"address","internalType":"address"}]},{"type":"error","name":"ERC1967InvalidImplementation","inputs":[{"name":"implementation","type":"address","internalType":"address"}]},{"type":"error","name":"ERC1967NonPayable","inputs":[]},{"type":"error","name":"FailedInnerCall","inputs":[]},{"type":"error","name":"InvalidInitialization","inputs":[]},{"type":"error","name":"NotInitializing","inputs":[]},{"type":"error","name":"OwnableInvalidOwner","inputs":[{"name":"owner","type":"address","internalType":"address"}]},{"type":"error","name":"OwnableUnauthorizedAccount","inputs":[{"name":"account","type":"address","internalType":"address"}]},{"type":"error","name":"ReentrancyGuardReentrantCall","inputs":[]},{"type":"error","name":"UUPSUnauthorizedCallContext","inputs":[]},{"type":"error","name":"UUPSUnsupportedProxiableUUID","inputs":[{"name":"slot","type":"bytes32","internalType":"bytes32"}]}],"bytecode":{"object":"0x60a060405230608052600160075534801561001957600080fd5b506080516137bf61004360003960008181611c1501528181611c3e0152611d7f01526137bf6000f3fe6080604052600436106101805760003560e01c8063715018a6116100d1578063bde9700b1161008a578063e985e9c511610064578063e985e9c5146104a6578063f242432a146104c6578063f2fde38b146104e6578063f399e22e1461050657600080fd5b8063bde9700b14610431578063c68b378714610451578063da3a76161461047157600080fd5b8063715018a61461034e57806387f9ca5d146103635780638da5cb5b14610383578063a22cb465146103c0578063a7d22597146103e0578063ad3cb1cc1461040057600080fd5b8063404f49d11161013e5780634f1ef286116101185780634f1ef286146102e457806352d1902d146102f757806354fd4d501461030c5780635d7c188c1461032157600080fd5b8063404f49d11461025f5780634dc387c8146102975780634e1273f4146102b757600080fd5b8062fdd58e1461018557806301ffc9a7146101b85780630e89341c146101e85780631e87ccce14610215578063229df6d61461022a5780632eb2c2d61461023f575b600080fd5b34801561019157600080fd5b506101a56101a0366004612c0b565b610526565b6040519081526020015b60405180910390f35b3480156101c457600080fd5b506101d86101d3366004612c4d565b61055d565b60405190151581526020016101af565b3480156101f457600080fd5b50610208610203366004612c6a565b6105ad565b6040516101af9190612cd3565b610228610223366004612ce6565b6107c1565b005b34801561023657600080fd5b506101a5600581565b34801561024b57600080fd5b5061022861025a366004612e73565b61086f565b34801561026b57600080fd5b5060005461027f906001600160a01b031681565b6040516001600160a01b0390911681526020016101af565b3480156102a357600080fd5b506102286102b2366004612f20565b610a9e565b3480156102c357600080fd5b506102d76102d2366004612f66565b610b88565b6040516101af9190613058565b6102286102f236600461306b565b610c5c565b34801561030357600080fd5b506101a5610c7b565b34801561031857600080fd5b50610208610c98565b34801561032d57600080fd5b506101a561033c366004612c6a565b60036020526000908152604090205481565b34801561035a57600080fd5b50610228610d26565b34801561036f57600080fd5b5061022861037e3660046130a4565b610d3a565b34801561038f57600080fd5b507f9016d09d72d40fdae2fd8ceac6b6234c7706214fd39c1cd1e609a0528c199300546001600160a01b031661027f565b3480156103cc57600080fd5b506102286103db3660046130dd565b610db5565b3480156103ec57600080fd5b506102286103fb36600461311b565b610dc0565b34801561040c57600080fd5b50610208604051806040016040528060058152602001640352e302e360dc1b81525081565b34801561043d57600080fd5b5061022861044c36600461316a565b610ef4565b34801561045d57600080fd5b5061020861046c366004612c6a565b610f7b565b34801561047d57600080fd5b5061049161048c366004613187565b6110d3565b604080519283526020830191909152016101af565b3480156104b257600080fd5b506101d86104c13660046131a9565b611165565b3480156104d257600080fd5b506102286104e13660046131d7565b6111b2565b3480156104f257600080fd5b5061022861050136600461316a565b61133c565b34801561051257600080fd5b5061022861052136600461306b565b61137a565b600081815260008051602061376a833981519152602090815260408083206001600160a01b03861684529091529020545b92915050565b60006001600160e01b03198216636cdb3d1360e11b148061058e57506001600160e01b031982166303a24d0760e21b145b8061055757506301ffc9a760e01b6001600160e01b0319831614610557565b6000818152600260205260408120805460609291906105cb9061323f565b80601f01602080910402602001604051908101604052809291908181526020018280546105f79061323f565b80156106445780601f1061061957610100808354040283529160200191610644565b820191906000526020600020905b81548152906001019060200180831161062757829003601f168201915b5050505050905060008151111561065b5792915050565b600083815260046020526040902054806106b45760405162461bcd60e51b81526020600482015260156024820152742a37b5b2b7103237b2b9903737ba1032bc34b9ba1760591b60448201526064015b60405180910390fd5b60006106bf82610f7b565b90506000806005600085815260200190815260200160002080546106e29061323f565b9050116106f05760066106ff565b60008381526005602052604090205b805461070a9061323f565b80601f01602080910402602001604051908101604052809291908181526020018280546107369061323f565b80156107835780601f1061075857610100808354040283529160200191610783565b820191906000526020600020905b81548152906001019060200180831161076657829003601f168201915b505050505090508082610795886114ee565b6040516020016107a793929190613279565b604051602081830303815290604052945050505050919050565b6107c9611580565b6107d48484846115ca565b60006107e18585856118a2565b905060006107f28686868587611987565b9050806108335760405162461bcd60e51b815260206004820152600f60248201526e141d5c98da185cd94819985a5b1959608a1b60448201526064016106ab565b61083e868686611a5a565b505061086960017f9b779b17422d0df92223018b32b4d1fa46e071723d6817e2486d003becc55f0055565b50505050565b6001600160a01b03851633148061088b575061088b8533611165565b6108f25760405162461bcd60e51b815260206004820152603260248201527f455243313135353a207472616e736665722063616c6c6572206973206e6f74206044820152711bdddb995c881b9bdc88185c1c1c9bdd995960721b60648201526084016106ab565b60005b8351811015610a8957600060046000868481518110610916576109166132eb565b6020026020010151815260200190815260200160002054905060006001600160a01b0316876001600160a01b0316146109d85760008054906101000a90046001600160a01b03166001600160a01b031663e35b1ee8828988868151811061097f5761097f6132eb565b60200260200101516040518463ffffffff1660e01b81526004016109a593929190613301565b600060405180830381600087803b1580156109bf57600080fd5b505af11580156109d3573d6000803e3d6000fd5b505050505b6001600160a01b03861615610a765760008054906101000a90046001600160a01b03166001600160a01b031663de44006f8288888681518110610a1d57610a1d6132eb565b60200260200101516040518463ffffffff1660e01b8152600401610a4393929190613301565b600060405180830381600087803b158015610a5d57600080fd5b505af1158015610a71573d6000803e3d6000fd5b505050505b5080610a8181613336565b9150506108f5565b50610a978585858585611bab565b5050505050565b600054604051634bbe5c4f60e11b8152600481018490526001600160a01b039091169063977cb89e90602401602060405180830381865afa158015610ae7573d6000803e3d6000fd5b505050506040513d601f19601f82011682018060405250810190610b0b919061334f565b6001600160a01b0316336001600160a01b031614610b6b5760405162461bcd60e51b815260206004820152601b60248201527f43616c6c6572206973206e6f7420746865206f7267616e697a6572000000000060448201526064016106ab565b6000828152600560205260409020610b8382826133b2565b505050565b60608151835114610bb95781518351604051635b05999160e01b8152600481019290925260248201526044016106ab565b600083516001600160401b03811115610bd457610bd4612d27565b604051908082528060200260200182016040528015610bfd578160200160208202803683370190505b50905060005b8451811015610c5457602080820286010151610c2790602080840287010151610526565b828281518110610c3957610c396132eb565b6020908102919091010152610c4d81613336565b9050610c03565b509392505050565b610c64611c0a565b610c6d82611caf565b610c778282611cb7565b5050565b6000610c85611d74565b5060008051602061374a83398151915290565b60018054610ca59061323f565b80601f0160208091040260200160405190810160405280929190818152602001828054610cd19061323f565b8015610d1e5780601f10610cf357610100808354040283529160200191610d1e565b820191906000526020600020905b815481529060010190602001808311610d0157829003601f168201915b505050505081565b610d2e611dbd565b610d386000611e18565b565b6000546001600160a01b03163314610daa5760405162461bcd60e51b815260206004820152602d60248201527f4f6e6c79207468652053686f7720636f6e74726163742063616e2063616c6c2060448201526c3a3434b990333ab731ba34b7b760991b60648201526084016106ab565b610b83818484611e89565b610c77338383611ef1565b600054604051634bbe5c4f60e11b8152600481018590526001600160a01b039091169063977cb89e90602401602060405180830381865afa158015610e09573d6000803e3d6000fd5b505050506040513d601f19601f82011682018060405250810190610e2d919061334f565b6001600160a01b0316336001600160a01b031614610e9e5760405162461bcd60e51b815260206004820152602860248201527f43616c6c6572206973206e6f7420746865206f7267616e697a6572206f6620746044820152676869732073686f7760c01b60648201526084016106ab565b6000828152600260205260409020610eb682826133b2565b50817f6bb7ff708619ba0610cba295a58592e0451dee2622938c8755667688daf3529b82604051610ee79190612cd3565b60405180910390a2505050565b6000546001600160a01b031615610f595760405162461bcd60e51b8152602060048201526024808201527f53686f7720636f6e7472616374206164647265737320697320616c7265616479604482015263081cd95d60e21b60648201526084016106ab565b600080546001600160a01b0319166001600160a01b0392909216919091179055565b604080518082018252601081526f181899199a1a9b1b9c1cb0b131b232b360811b6020820152815182815260608181018452926000919060208201818036833701905050905060005b6020811015610c5457826004868360208110610fe257610fe26132eb565b1a60f81b6001600160f81b031916901c60f81c60ff1681518110611008576110086132eb565b01602001516001600160f81b03191682611023836002613471565b81518110611033576110336132eb565b60200101906001600160f81b031916908160001a9053508285826020811061105d5761105d6132eb565b825191901a600f16908110611074576110746132eb565b01602001516001600160f81b0319168261108f836002613471565b61109a906001613488565b815181106110aa576110aa6132eb565b60200101906001600160f81b031916908160001a905350806110cb81613336565b915050610fc4565b600080546040516293d4e160e81b81526004810185905260248101849052829182916001600160a01b03909116906393d4e10090604401602060405180830381865afa158015611127573d6000803e3d6000fd5b505050506040513d601f19601f8201168201806040525081019061114b919061349b565b600094855260036020526040909420549395939450505050565b6001600160a01b0391821660009081527f88be536d5240c274a3b1d3a1be54482fd9caa294f08c62a7cde569f49a3c45016020908152604080832093909416825291909152205460ff1690565b6001600160a01b0385163314806111ce57506111ce8533611165565b61122c5760405162461bcd60e51b815260206004820152602960248201527f455243313135353a2063616c6c6572206973206e6f74206f776e6572206e6f7260448201526808185c1c1c9bdd995960ba1b60648201526084016106ab565b6000838152600460205260409020546001600160a01b038616156112b157600054604051631c6b63dd60e31b81526001600160a01b039091169063e35b1ee89061127e9084908a908990600401613301565b600060405180830381600087803b15801561129857600080fd5b505af11580156112ac573d6000803e3d6000fd5b505050505b6001600160a01b038516156113275760005460405163de44006f60e01b81526001600160a01b039091169063de44006f906112f490849089908990600401613301565b600060405180830381600087803b15801561130e57600080fd5b505af1158015611322573d6000803e3d6000fd5b505050505b6113348686868686611f99565b505050505050565b611344611dbd565b6001600160a01b03811661136e57604051631e4fbdf760e01b8152600060048201526024016106ab565b61137781611e18565b50565b7ff0c57e16840df040f15088dc2f81fe391c3923bec73e23a9662efc9c229c6a008054600160401b810460ff1615906001600160401b03166000811580156113bf5750825b90506000826001600160401b031660011480156113db5750303b155b9050811580156113e9575080155b156114075760405163f92ee8a960e01b815260040160405180910390fd5b845467ffffffffffffffff19166001178555831561143157845460ff60401b1916600160401b1785555b6114526040518060600160405280602c81526020016136fb602c9139611ff8565b61145a612009565b61146387612019565b61146b61202a565b600161147787826133b2565b506040518060600160405280602381526020016137276023913960069061149e90826133b2565b5083156114e557845460ff60401b19168555604051600181527fc7f505b2f371ae2175ee4913f4499e1f2633a7b5936321eed1cdaeb6115181d29060200160405180910390a15b50505050505050565b606060006114fb83612032565b60010190506000816001600160401b0381111561151a5761151a612d27565b6040519080825280601f01601f191660200182016040528015611544576020820181803683370190505b5090508181016020015b600019016f181899199a1a9b1b9c1cb0b131b232b360811b600a86061a8153600a850494508461154e57509392505050565b7f9b779b17422d0df92223018b32b4d1fa46e071723d6817e2486d003becc55f008054600119016115c457604051633ee5aeb560e01b815260040160405180910390fd5b60029055565b600080546040516346c2c8a760e01b8152600481018690526001600160a01b03909116906346c2c8a790602401602060405180830381865afa158015611614573d6000803e3d6000fd5b505050506040513d601f19601f8201168201806040525081019061163891906134b4565b9050600081600781111561164e5761164e6134d5565b148061166b57506002816007811115611669576116696134d5565b145b6116b75760405162461bcd60e51b815260206004820152601f60248201527f53686f77206e6f7420617661696c61626c6520666f722070757263686173650060448201526064016106ab565b600082116117075760405162461bcd60e51b815260206004820152601d60248201527f416d6f756e74206d7573742062652067726561746572207468616e203000000060448201526064016106ab565b60008054604051637e3e393560e01b815260048101879052602481018690526001600160a01b0390911690637e3e393590604401600060405180830381865afa158015611758573d6000803e3d6000fd5b505050506040513d6000823e601f3d908101601f1916820160405261178091908101906134eb565b92505050828110156117d45760405162461bcd60e51b815260206004820152601c60248201527f4e6f7420656e6f756768207469636b65747320617661696c61626c650000000060448201526064016106ab565b60008054604051635b9a1e0960e01b8152600481018890523360248201526001600160a01b0390911690635b9a1e0990604401600060405180830381865afa158015611824573d6000803e3d6000fd5b505050506040513d6000823e601f3d908101601f1916820160405261184c9190810190613574565b9050600584825161185d9190613488565b11156113345760405162461bcd60e51b815260206004820152601460248201527313585e081d1a58dad95d1cc8195e18d95959195960621b60448201526064016106ab565b6118cd6040518060800160405280600081526020016000815260200160008152602001600081525090565b60008054604051637e3e393560e01b8152600481018790526024810186905282916001600160a01b031690637e3e393590604401600060405180830381865afa15801561191e573d6000803e3d6000fd5b505050506040513d6000823e601f3d908101601f1916820160405261194691908101906134eb565b9093509150600090506119598584613471565b60408051608081018252948552602085019390935291830191909152506000606082015290505b9392505050565b60006119988684604001518461210a565b6119a457506000611a51565b600160005b85811015611a4d5760078054600091826119c283613336565b9190505590506119d981898b338a6000015161229e565b6119e7576000925050611a4d565b60408051898152602081018390526001818301526001600160a01b038716606082015290518a9133917f2aceb142a3587d08c8b52a9ac6b03c85fdce4097d5614383174758656261bfdd9181900360800190a35080611a4581613336565b9150506119a9565b5090505b95945050505050565b600054604051630f0faed760e31b815260048101859052602481018390526001600160a01b039091169063787d76b890604401600060405180830381600087803b158015611aa757600080fd5b505af1158015611abb573d6000803e3d6000fd5b505060005460405163644b5e5960e01b81526004810187905260248101869052604481018590526001600160a01b03909116925063644b5e599150606401600060405180830381600087803b158015611b1357600080fd5b505af1158015611b27573d6000803e3d6000fd5b505060005460405163730c02a360e11b8152600481018790526001600160a01b03909116925063e61805469150602401600060405180830381600087803b158015611b7157600080fd5b505af11580156114e5573d6000803e3d6000fd5b60017f9b779b17422d0df92223018b32b4d1fa46e071723d6817e2486d003becc55f0055565b336001600160a01b0386168114801590611bcc5750611bca8682611165565b155b15611bfd5760405163711bec9160e11b81526001600160a01b038083166004830152871660248201526044016106ab565b61133486868686866123b6565b306001600160a01b037f0000000000000000000000000000000000000000000000000000000000000000161480611c9157507f00000000000000000000000000000000000000000000000000000000000000006001600160a01b0316611c8560008051602061374a833981519152546001600160a01b031690565b6001600160a01b031614155b15610d385760405163703e46dd60e11b815260040160405180910390fd5b611377611dbd565b816001600160a01b03166352d1902d6040518163ffffffff1660e01b8152600401602060405180830381865afa925050508015611d11575060408051601f3d908101601f19168201909252611d0e9181019061349b565b60015b611d3957604051634c9c8ce360e01b81526001600160a01b03831660048201526024016106ab565b60008051602061374a8339815191528114611d6a57604051632a87526960e21b8152600481018290526024016106ab565b610b838383612416565b306001600160a01b037f00000000000000000000000000000000000000000000000000000000000000001614610d385760405163703e46dd60e11b815260040160405180910390fd5b33611def7f9016d09d72d40fdae2fd8ceac6b6234c7706214fd39c1cd1e609a0528c199300546001600160a01b031690565b6001600160a01b031614610d385760405163118cdaa760e01b81523360048201526024016106ab565b7f9016d09d72d40fdae2fd8ceac6b6234c7706214fd39c1cd1e609a0528c19930080546001600160a01b031981166001600160a01b03848116918217845560405192169182907f8be0079c531659141344cd1fd0a4f28419497f9722a3daafe3b4186f6b6457e090600090a3505050565b6001600160a01b038316611eb257604051626a0d4560e21b8152600060048201526024016106ab565b604080516001808252602082018590528183019081526060820184905260a08201909252600060808201818152919291610a979187918590859061246c565b60008051602061376a8339815191526001600160a01b038316611f295760405162ced3e160e81b8152600060048201526024016106ab565b6001600160a01b038481166000818152600184016020908152604080832094881680845294825291829020805460ff191687151590811790915591519182527f17307eab39ab6107e8899845ad3d59bd9653f200f220920489ca2b5937696c31910160405180910390a350505050565b336001600160a01b0386168114801590611fba5750611fb88682611165565b155b15611feb5760405163711bec9160e11b81526001600160a01b038083166004830152871660248201526044016106ab565b61133486868686866124bf565b612000612544565b6113778161258d565b612011612544565b610d3861259e565b612021612544565b611377816125a6565b610d38612544565b60008072184f03e93ff9f4daa797ed6e38ed64bf6a1f0160401b83106120715772184f03e93ff9f4daa797ed6e38ed64bf6a1f0160401b830492506040015b6d04ee2d6d415b85acef8100000000831061209d576d04ee2d6d415b85acef8100000000830492506020015b662386f26fc1000083106120bb57662386f26fc10000830492506010015b6305f5e10083106120d3576305f5e100830492506008015b61271083106120e757612710830492506004015b606483106120f9576064830492506002015b600a83106105575760010192915050565b60006001600160a01b0382166121c9578234146121605760405162461bcd60e51b8152602060048201526014602482015273125b98dbdc9c9958dd0811551208185b5bdd5b9d60621b60448201526064016106ab565b600054604051638526663560e01b8152600481018690526001600160a01b039091169063852666359034906024016000604051808303818588803b1580156121a757600080fd5b505af11580156121bb573d6000803e3d6000fd5b505050505060019050611980565b34156122225760405162461bcd60e51b815260206004820152602260248201527f446f206e6f742073656e64204554482077697468204552433230207061796d656044820152611b9d60f21b60648201526084016106ab565b600054604051635412233f60e01b815260048101869052602481018590526001600160a01b03848116604483015233606483015290911690635412233f90608401600060405180830381600087803b15801561227d57600080fd5b505af1158015612291573d6000803e3d6000fd5b5050505060019050611980565b60006122bc83876001604051806020016040528060008152506125ae565b60008681526003602090815260408083208890556004918290528083208790559154915163de44006f60e01b81526001600160a01b039092169163de44006f9161230c91889188918c9101613301565b600060405180830381600087803b15801561232657600080fd5b505af115801561233a573d6000803e3d6000fd5b5050600054604051632f51f71760e21b815260048101889052602481018a9052604481018690526001600160a01b03909116925063bd47dc5c9150606401600060405180830381600087803b15801561239257600080fd5b505af11580156123a6573d6000803e3d6000fd5b5060019998505050505050505050565b6001600160a01b0384166123e057604051632bfa23e760e11b8152600060048201526024016106ab565b6001600160a01b03851661240957604051626a0d4560e21b8152600060048201526024016106ab565b610a97858585858561246c565b61241f8261260b565b6040516001600160a01b038316907fbc7cd75a20ee27fd9adebab32041f755214dbc6bffa90cc0225b39da2e5c2d3b90600090a280511561246457610b838282612670565b610c776126dd565b612478858585856126fc565b6001600160a01b03841615610a9757825133906001036124b157602084810151908401516124aa83898985858961292a565b5050611334565b611334818787878787612a4e565b6001600160a01b0384166124e957604051632bfa23e760e11b8152600060048201526024016106ab565b6001600160a01b03851661251257604051626a0d4560e21b8152600060048201526024016106ab565b604080516001808252602082018690528183019081526060820185905260808201909252906114e5878784848761246c565b7ff0c57e16840df040f15088dc2f81fe391c3923bec73e23a9662efc9c229c6a0054600160401b900460ff16610d3857604051631afcd79f60e31b815260040160405180910390fd5b612595612544565b61137781612b37565b611b85612544565b611344612544565b6001600160a01b0384166125d857604051632bfa23e760e11b8152600060048201526024016106ab565b6040805160018082526020820186905281830190815260608201859052608082019092529061133460008784848761246c565b806001600160a01b03163b60000361264157604051634c9c8ce360e01b81526001600160a01b03821660048201526024016106ab565b60008051602061374a83398151915280546001600160a01b0319166001600160a01b0392909216919091179055565b6060600080846001600160a01b03168460405161268d9190613604565b600060405180830381855af49150503d80600081146126c8576040519150601f19603f3d011682016040523d82523d6000602084013e6126cd565b606091505b5091509150611a51858383612b71565b3415610d385760405163b398979f60e01b815260040160405180910390fd5b8051825160008051602061376a833981519152911461273b5782518251604051635b05999160e01b8152600481019290925260248201526044016106ab565b3360005b845181101561284a576020818102868101820151908601909101516001600160a01b038916156127f2576000828152602086815260408083206001600160a01b038d168452909152902054818110156127cb576040516303dee4c560e01b81526001600160a01b038b1660048201526024810182905260448101839052606481018490526084016106ab565b6000838152602087815260408083206001600160a01b038e16845290915290209082900390555b6001600160a01b03881615612837576000828152602086815260408083206001600160a01b038c16845290915281208054839290612831908490613488565b90915550505b50508061284390613336565b905061273f565b5083516001036128cb5760208401516000906020850151909150866001600160a01b0316886001600160a01b0316846001600160a01b03167fc3d58168c5ae7397731d063d5bbf3d657854427343f4c083240f7aacaa2d0f6285856040516128bc929190918252602082015260400190565b60405180910390a45050611334565b846001600160a01b0316866001600160a01b0316826001600160a01b03167f4a39dc06d4c0dbc64b70af90fd698a233a518aa5d07e595d983b8c0526c8f7fb878760405161291a929190613620565b60405180910390a4505050505050565b6001600160a01b0384163b156113345760405163f23a6e6160e01b81526001600160a01b0385169063f23a6e619061296e9089908990889088908890600401613645565b6020604051808303816000875af19250505080156129a9575060408051601f3d908101601f191682019092526129a69181019061367f565b60015b612a12573d8080156129d7576040519150601f19603f3d011682016040523d82523d6000602084013e6129dc565b606091505b508051600003612a0a57604051632bfa23e760e11b81526001600160a01b03861660048201526024016106ab565b805181602001fd5b6001600160e01b0319811663f23a6e6160e01b146114e557604051632bfa23e760e11b81526001600160a01b03861660048201526024016106ab565b6001600160a01b0384163b156113345760405163bc197c8160e01b81526001600160a01b0385169063bc197c8190612a92908990899088908890889060040161369c565b6020604051808303816000875af1925050508015612acd575060408051601f3d908101601f19168201909252612aca9181019061367f565b60015b612afb573d8080156129d7576040519150601f19603f3d011682016040523d82523d6000602084013e6129dc565b6001600160e01b0319811663bc197c8160e01b146114e557604051632bfa23e760e11b81526001600160a01b03861660048201526024016106ab565b60008051602061376a8339815191527f88be536d5240c274a3b1d3a1be54482fd9caa294f08c62a7cde569f49a3c4502610b8383826133b2565b606082612b8657612b8182612bcd565b611980565b8151158015612b9d57506001600160a01b0384163b155b15612bc657604051639996b31560e01b81526001600160a01b03851660048201526024016106ab565b5080611980565b805115612bdd5780518082602001fd5b604051630a12f52160e11b815260040160405180910390fd5b6001600160a01b038116811461137757600080fd5b60008060408385031215612c1e57600080fd5b8235612c2981612bf6565b946020939093013593505050565b6001600160e01b03198116811461137757600080fd5b600060208284031215612c5f57600080fd5b813561198081612c37565b600060208284031215612c7c57600080fd5b5035919050565b60005b83811015612c9e578181015183820152602001612c86565b50506000910152565b60008151808452612cbf816020860160208601612c83565b601f01601f19169290920160200192915050565b6020815260006119806020830184612ca7565b60008060008060808587031215612cfc57600080fd5b8435935060208501359250604085013591506060850135612d1c81612bf6565b939692955090935050565b634e487b7160e01b600052604160045260246000fd5b604051601f8201601f191681016001600160401b0381118282101715612d6557612d65612d27565b604052919050565b60006001600160401b03821115612d8657612d86612d27565b5060051b60200190565b600082601f830112612da157600080fd5b81356020612db6612db183612d6d565b612d3d565b82815260059290921b84018101918181019086841115612dd557600080fd5b8286015b84811015612df05780358352918301918301612dd9565b509695505050505050565b60006001600160401b03821115612e1457612e14612d27565b50601f01601f191660200190565b600082601f830112612e3357600080fd5b8135612e41612db182612dfb565b818152846020838601011115612e5657600080fd5b816020850160208301376000918101602001919091529392505050565b600080600080600060a08688031215612e8b57600080fd5b8535612e9681612bf6565b94506020860135612ea681612bf6565b935060408601356001600160401b0380821115612ec257600080fd5b612ece89838a01612d90565b94506060880135915080821115612ee457600080fd5b612ef089838a01612d90565b93506080880135915080821115612f0657600080fd5b50612f1388828901612e22565b9150509295509295909350565b60008060408385031215612f3357600080fd5b8235915060208301356001600160401b03811115612f5057600080fd5b612f5c85828601612e22565b9150509250929050565b60008060408385031215612f7957600080fd5b82356001600160401b0380821115612f9057600080fd5b818501915085601f830112612fa457600080fd5b81356020612fb4612db183612d6d565b82815260059290921b84018101918181019089841115612fd357600080fd5b948201945b83861015612ffa578535612feb81612bf6565b82529482019490820190612fd8565b9650508601359250508082111561301057600080fd5b50612f5c85828601612d90565b600081518084526020808501945080840160005b8381101561304d57815187529582019590820190600101613031565b509495945050505050565b602081526000611980602083018461301d565b6000806040838503121561307e57600080fd5b823561308981612bf6565b915060208301356001600160401b03811115612f5057600080fd5b6000806000606084860312156130b957600080fd5b833592506020840135915060408401356130d281612bf6565b809150509250925092565b600080604083850312156130f057600080fd5b82356130fb81612bf6565b91506020830135801515811461311057600080fd5b809150509250929050565b60008060006060848603121561313057600080fd5b833592506020840135915060408401356001600160401b0381111561315457600080fd5b61316086828701612e22565b9150509250925092565b60006020828403121561317c57600080fd5b813561198081612bf6565b6000806040838503121561319a57600080fd5b50508035926020909101359150565b600080604083850312156131bc57600080fd5b82356131c781612bf6565b9150602083013561311081612bf6565b600080600080600060a086880312156131ef57600080fd5b85356131fa81612bf6565b9450602086013561320a81612bf6565b9350604086013592506060860135915060808601356001600160401b0381111561323357600080fd5b612f1388828901612e22565b600181811c9082168061325357607f821691505b60208210810361327357634e487b7160e01b600052602260045260246000fd5b50919050565b6000845161328b818460208901612c83565b61060f60f31b90830190815284516132aa816002840160208901612c83565b602f60f81b6002929091019182015283516132cc816003840160208801612c83565b64173539b7b760d91b6003929091019182015260080195945050505050565b634e487b7160e01b600052603260045260246000fd5b9283526001600160a01b03919091166020830152604082015260600190565b634e487b7160e01b600052601160045260246000fd5b60006001820161334857613348613320565b5060010190565b60006020828403121561336157600080fd5b815161198081612bf6565b601f821115610b8357600081815260208120601f850160051c810160208610156133935750805b601f850160051c820191505b818110156113345782815560010161339f565b81516001600160401b038111156133cb576133cb612d27565b6133df816133d9845461323f565b8461336c565b602080601f83116001811461341457600084156133fc5750858301515b600019600386901b1c1916600185901b178555611334565b600085815260208120601f198616915b8281101561344357888601518255948401946001909101908401613424565b50858210156134615787850151600019600388901b60f8161c191681555b5050505050600190811b01905550565b808202811582820484141761055757610557613320565b8082018082111561055757610557613320565b6000602082840312156134ad57600080fd5b5051919050565b6000602082840312156134c657600080fd5b81516008811061198057600080fd5b634e487b7160e01b600052602160045260246000fd5b60008060006060848603121561350057600080fd5b83516001600160401b0381111561351657600080fd5b8401601f8101861361352757600080fd5b8051613535612db182612dfb565b81815287602083850101111561354a57600080fd5b61355b826020830160208601612c83565b6020870151604090970151909896975095945050505050565b6000602080838503121561358757600080fd5b82516001600160401b0381111561359d57600080fd5b8301601f810185136135ae57600080fd5b80516135bc612db182612d6d565b81815260059190911b820183019083810190878311156135db57600080fd5b928401925b828410156135f9578351825292840192908401906135e0565b979650505050505050565b60008251613616818460208701612c83565b9190910192915050565b604081526000613633604083018561301d565b8281036020840152611a51818561301d565b6001600160a01b03868116825285166020820152604081018490526060810183905260a0608082018190526000906135f990830184612ca7565b60006020828403121561369157600080fd5b815161198081612c37565b6001600160a01b0386811682528516602082015260a0604082018190526000906136c89083018661301d565b82810360608401526136da818661301d565b905082810360808401526136ee8185612ca7565b9897505050505050505056fe68747470733a2f2f6d657461646174612e73656c6c6f7574732e6170702f73686f772f7b69647d2e6a736f6e68747470733a2f2f6d657461646174612e73656c6c6f7574732e6170702f73686f772f360894a13ba1a3210667c828492db98dca3e2076cc3735a920a3ca505d382bbc88be536d5240c274a3b1d3a1be54482fd9caa294f08c62a7cde569f49a3c4500a26469706673582212203046e37779d5ebfc8ebbe78cb6b57b1e6257458d5665e50680a50ed61341d6cf64736f6c63430008140033","linkReferences":{}},"methodIdentifiers":{"MAX_TICKETS_PER_WALLET()":"229df6d6","UPGRADE_INTERFACE_VERSION()":"ad3cb1cc","balanceOf(address,uint256)":"00fdd58e","balanceOfBatch(address[],uint256[])":"4e1273f4","burnTokens(uint256,uint256,address)":"87f9ca5d","bytes32ToHexString(bytes32)":"c68b3787","getTicketPricePaidAndTierIndex(bytes32,uint256)":"da3a7616","initialize(address,string)":"f399e22e","isApprovedForAll(address,address)":"e985e9c5","owner()":"8da5cb5b","proxiableUUID()":"52d1902d","purchaseTickets(bytes32,uint256,uint256,address)":"1e87ccce","renounceOwnership()":"715018a6","safeBatchTransferFrom(address,address,uint256[],uint256[],bytes)":"2eb2c2d6","safeTransferFrom(address,address,uint256,uint256,bytes)":"f242432a","setApprovalForAll(address,bool)":"a22cb465","setDefaultURIForShow(bytes32,string)":"4dc387c8","setShowContractAddress(address)":"bde9700b","setTokenURI(bytes32,uint256,string)":"a7d22597","showInstance()":"404f49d1","supportsInterface(bytes4)":"01ffc9a7","ticketIdToTierIndex(uint256)":"5d7c188c","transferOwnership(address)":"f2fde38b","upgradeToAndCall(address,bytes)":"4f1ef286","uri(uint256)":"0e89341c","version()":"54fd4d50"},"id":65}