{"abi":[{"type":"function","name":"UPGRADE_INTERFACE_VERSION","inputs":[],"outputs":[{"name":"","type":"string","internalType":"string"}],"stateMutability":"view"},{"type":"function","name":"createTicketProxy","inputs":[{"name":"initialOwner","type":"address","internalType":"address"}],"outputs":[{"name":"","type":"address","internalType":"address"}],"stateMutability":"nonpayable"},{"type":"function","name":"deployedTickets","inputs":[{"name":"","type":"uint256","internalType":"uint256"}],"outputs":[{"name":"","type":"address","internalType":"address"}],"stateMutability":"view"},{"type":"function","name":"getDeployedTickets","inputs":[],"outputs":[{"name":"","type":"address[]","internalType":"address[]"}],"stateMutability":"view"},{"type":"function","name":"initialize","inputs":[{"name":"_ticketImplementation","type":"address","internalType":"address"},{"name":"_version","type":"string","internalType":"string"}],"outputs":[],"stateMutability":"nonpayable"},{"type":"function","name":"owner","inputs":[],"outputs":[{"name":"","type":"address","internalType":"address"}],"stateMutability":"view"},{"type":"function","name":"proxiableUUID","inputs":[],"outputs":[{"name":"","type":"bytes32","internalType":"bytes32"}],"stateMutability":"view"},{"type":"function","name":"renounceOwnership","inputs":[],"outputs":[],"stateMutability":"nonpayable"},{"type":"function","name":"setVersion","inputs":[{"name":"_version","type":"string","internalType":"string"}],"outputs":[],"stateMutability":"nonpayable"},{"type":"function","name":"ticketImplementation","inputs":[],"outputs":[{"name":"","type":"address","internalType":"address"}],"stateMutability":"view"},{"type":"function","name":"transferOwnership","inputs":[{"name":"newOwner","type":"address","internalType":"address"}],"outputs":[],"stateMutability":"nonpayable"},{"type":"function","name":"updateTicketImplementation","inputs":[{"name":"newImplementation","type":"address","internalType":"address"}],"outputs":[],"stateMutability":"nonpayable"},{"type":"function","name":"upgradeToAndCall","inputs":[{"name":"newImplementation","type":"address","internalType":"address"},{"name":"data","type":"bytes","internalType":"bytes"}],"outputs":[],"stateMutability":"payable"},{"type":"function","name":"version","inputs":[],"outputs":[{"name":"","type":"string","internalType":"string"}],"stateMutability":"view"},{"type":"event","name":"Initialized","inputs":[{"name":"version","type":"uint64","indexed":false,"internalType":"uint64"}],"anonymous":false},{"type":"event","name":"OwnershipTransferred","inputs":[{"name":"previousOwner","type":"address","indexed":true,"internalType":"address"},{"name":"newOwner","type":"address","indexed":true,"internalType":"address"}],"anonymous":false},{"type":"event","name":"TicketProxyCreated","inputs":[{"name":"ticketProxy","type":"address","indexed":true,"internalType":"address"}],"anonymous":false},{"type":"event","name":"Upgraded","inputs":[{"name":"implementation","type":"address","indexed":true,"internalType":"address"}],"anonymous":false},{"type":"error","name":"AddressEmptyCode","inputs":[{"name":"target","type":"address","internalType":"address"}]},{"type":"error","name":"ERC1967InvalidImplementation","inputs":[{"name":"implementation","type":"address","internalType":"address"}]},{"type":"error","name":"ERC1967NonPayable","inputs":[]},{"type":"error","name":"FailedInnerCall","inputs":[]},{"type":"error","name":"InvalidInitialization","inputs":[]},{"type":"error","name":"NotInitializing","inputs":[]},{"type":"error","name":"OwnableInvalidOwner","inputs":[{"name":"owner","type":"address","internalType":"address"}]},{"type":"error","name":"OwnableUnauthorizedAccount","inputs":[{"name":"account","type":"address","internalType":"address"}]},{"type":"error","name":"UUPSUnauthorizedCallContext","inputs":[]},{"type":"error","name":"UUPSUnsupportedProxiableUUID","inputs":[{"name":"slot","type":"bytes32","internalType":"bytes32"}]}],"bytecode":{"object":"0x60a06040523060805234801561001457600080fd5b5060805161115561003e600039600081816107740152818161079d01526108e301526111556000f3fe6080604052600436106100dd5760003560e01c8063788bc78c1161007f578063d83e7bfa11610059578063d83e7bfa14610262578063de4ed3cf14610282578063f2fde38b146102a2578063f399e22e146102c257600080fd5b8063788bc78c146101d45780638da5cb5b146101f4578063ad3cb1cc1461023157600080fd5b80634f1ef286116100bb5780634f1ef2861461016757806352d1902d1461017a57806354fd4d501461019d578063715018a6146101bf57600080fd5b80630d7c6d68146100e2578063232b158b1461010d5780633a72eeab1461012f575b600080fd5b3480156100ee57600080fd5b506100f76102e2565b6040516101049190610c69565b60405180910390f35b34801561011957600080fd5b5061012d610128366004610ccd565b610344565b005b34801561013b57600080fd5b5060005461014f906001600160a01b031681565b6040516001600160a01b039091168152602001610104565b61012d610175366004610d74565b61036e565b34801561018657600080fd5b5061018f61038d565b604051908152602001610104565b3480156101a957600080fd5b506101b26103aa565b6040516101049190610dfa565b3480156101cb57600080fd5b5061012d610438565b3480156101e057600080fd5b5061012d6101ef366004610e4d565b61044c565b34801561020057600080fd5b507f9016d09d72d40fdae2fd8ceac6b6234c7706214fd39c1cd1e609a0528c199300546001600160a01b031661014f565b34801561023d57600080fd5b506101b2604051806040016040528060058152602001640352e302e360dc1b81525081565b34801561026e57600080fd5b5061014f61027d366004610e8a565b610460565b34801561028e57600080fd5b5061014f61029d366004610ccd565b61048a565b3480156102ae57600080fd5b5061012d6102bd366004610ccd565b61058a565b3480156102ce57600080fd5b5061012d6102dd366004610ea3565b6105cd565b6060600180548060200260200160405190810160405280929190818152602001828054801561033a57602002820191906000526020600020905b81546001600160a01b0316815260019091019060200180831161031c575b5050505050905090565b61034c61070e565b600080546001600160a01b0319166001600160a01b0392909216919091179055565b610376610769565b61037f8261080e565b6103898282610816565b5050565b60006103976108d8565b5060008051602061110083398151915290565b600280546103b790610ee7565b80601f01602080910402602001604051908101604052809291908181526020018280546103e390610ee7565b80156104305780601f1061040557610100808354040283529160200191610430565b820191906000526020600020905b81548152906001019060200180831161041357829003601f168201915b505050505081565b61044061070e565b61044a6000610921565b565b61045461070e565b60026103898282610f6f565b6001818154811061047057600080fd5b6000918252602090912001546001600160a01b0316905081565b600061049461070e565b600080546104aa906001600160a01b0316610992565b6040516379ccf11760e11b81529091506001600160a01b0382169063f399e22e906104dc90869060029060040161102f565b600060405180830381600087803b1580156104f657600080fd5b505af115801561050a573d6000803e3d6000fd5b505060018054808201825560009182527fb10e2d527612073b26eecdfd717e6a320cf44b4afac2b0732d9fcbe2b7fa0cf60180546001600160a01b0319166001600160a01b0386169081179091556040519093507f921a2f25ad8eeed2d79f7b3300fb94d379240a97945e6c75848cba3a6d609ca49250a290505b919050565b61059261070e565b6001600160a01b0381166105c157604051631e4fbdf760e01b8152600060048201526024015b60405180910390fd5b6105ca81610921565b50565b7ff0c57e16840df040f15088dc2f81fe391c3923bec73e23a9662efc9c229c6a008054600160401b810460ff16159067ffffffffffffffff166000811580156106135750825b905060008267ffffffffffffffff1660011480156106305750303b155b90508115801561063e575080155b1561065c5760405163f92ee8a960e01b815260040160405180910390fd5b845467ffffffffffffffff19166001178555831561068657845460ff60401b1916600160401b1785555b61068f33610a27565b610697610a38565b600080546001600160a01b0319166001600160a01b03891617905560026106be8782610f6f565b50831561070557845460ff60401b19168555604051600181527fc7f505b2f371ae2175ee4913f4499e1f2633a7b5936321eed1cdaeb6115181d29060200160405180910390a15b50505050505050565b336107407f9016d09d72d40fdae2fd8ceac6b6234c7706214fd39c1cd1e609a0528c199300546001600160a01b031690565b6001600160a01b03161461044a5760405163118cdaa760e01b81523360048201526024016105b8565b306001600160a01b037f00000000000000000000000000000000000000000000000000000000000000001614806107f057507f00000000000000000000000000000000000000000000000000000000000000006001600160a01b03166107e4600080516020611100833981519152546001600160a01b031690565b6001600160a01b031614155b1561044a5760405163703e46dd60e11b815260040160405180910390fd5b6105ca61070e565b816001600160a01b03166352d1902d6040518163ffffffff1660e01b8152600401602060405180830381865afa925050508015610870575060408051601f3d908101601f1916820190925261086d918101906110ca565b60015b61089857604051634c9c8ce360e01b81526001600160a01b03831660048201526024016105b8565b60008051602061110083398151915281146108c957604051632a87526960e21b8152600481018290526024016105b8565b6108d38383610a40565b505050565b306001600160a01b037f0000000000000000000000000000000000000000000000000000000000000000161461044a5760405163703e46dd60e11b815260040160405180910390fd5b7f9016d09d72d40fdae2fd8ceac6b6234c7706214fd39c1cd1e609a0528c19930080546001600160a01b031981166001600160a01b03848116918217845560405192169182907f8be0079c531659141344cd1fd0a4f28419497f9722a3daafe3b4186f6b6457e090600090a3505050565b6000763d602d80600a3d3981f3363d3d373d3d3d363d730000008260601b60e81c176000526e5af43d82803e903d91602b57fd5bf38260781b17602052603760096000f090506001600160a01b0381166105855760405162461bcd60e51b8152602060048201526016602482015275115490cc4c4d8dce8818dc99585d194819985a5b195960521b60448201526064016105b8565b610a2f610a96565b6105ca81610adf565b61044a610a96565b610a4982610ae7565b6040516001600160a01b038316907fbc7cd75a20ee27fd9adebab32041f755214dbc6bffa90cc0225b39da2e5c2d3b90600090a2805115610a8e576108d38282610b4c565b610389610bc2565b7ff0c57e16840df040f15088dc2f81fe391c3923bec73e23a9662efc9c229c6a0054600160401b900460ff1661044a57604051631afcd79f60e31b815260040160405180910390fd5b610592610a96565b806001600160a01b03163b600003610b1d57604051634c9c8ce360e01b81526001600160a01b03821660048201526024016105b8565b60008051602061110083398151915280546001600160a01b0319166001600160a01b0392909216919091179055565b6060600080846001600160a01b031684604051610b6991906110e3565b600060405180830381855af49150503d8060008114610ba4576040519150601f19603f3d011682016040523d82523d6000602084013e610ba9565b606091505b5091509150610bb9858383610be1565b95945050505050565b341561044a5760405163b398979f60e01b815260040160405180910390fd5b606082610bf657610bf182610c40565b610c39565b8151158015610c0d57506001600160a01b0384163b155b15610c3657604051639996b31560e01b81526001600160a01b03851660048201526024016105b8565b50805b9392505050565b805115610c505780518082602001fd5b604051630a12f52160e11b815260040160405180910390fd5b6020808252825182820181905260009190848201906040850190845b81811015610caa5783516001600160a01b031683529284019291840191600101610c85565b50909695505050505050565b80356001600160a01b038116811461058557600080fd5b600060208284031215610cdf57600080fd5b610c3982610cb6565b634e487b7160e01b600052604160045260246000fd5b600067ffffffffffffffff80841115610d1957610d19610ce8565b604051601f8501601f19908116603f01168101908282118183101715610d4157610d41610ce8565b81604052809350858152868686011115610d5a57600080fd5b858560208301376000602087830101525050509392505050565b60008060408385031215610d8757600080fd5b610d9083610cb6565b9150602083013567ffffffffffffffff811115610dac57600080fd5b8301601f81018513610dbd57600080fd5b610dcc85823560208401610cfe565b9150509250929050565b60005b83811015610df1578181015183820152602001610dd9565b50506000910152565b6020815260008251806020840152610e19816040850160208701610dd6565b601f01601f19169190910160400192915050565b600082601f830112610e3e57600080fd5b610c3983833560208501610cfe565b600060208284031215610e5f57600080fd5b813567ffffffffffffffff811115610e7657600080fd5b610e8284828501610e2d565b949350505050565b600060208284031215610e9c57600080fd5b5035919050565b60008060408385031215610eb657600080fd5b610ebf83610cb6565b9150602083013567ffffffffffffffff811115610edb57600080fd5b610dcc85828601610e2d565b600181811c90821680610efb57607f821691505b602082108103610f1b57634e487b7160e01b600052602260045260246000fd5b50919050565b601f8211156108d357600081815260208120601f850160051c81016020861015610f485750805b601f850160051c820191505b81811015610f6757828155600101610f54565b505050505050565b815167ffffffffffffffff811115610f8957610f89610ce8565b610f9d81610f978454610ee7565b84610f21565b602080601f831160018114610fd25760008415610fba5750858301515b600019600386901b1c1916600185901b178555610f67565b600085815260208120601f198616915b8281101561100157888601518255948401946001909101908401610fe2565b508582101561101f5787850151600019600388901b60f8161c191681555b5050505050600190811b01905550565b60018060a01b0383168152600060206040818401526000845461105181610ee7565b8060408701526060600180841660008114611073576001811461108d576110bb565b60ff1985168984015283151560051b8901830195506110bb565b896000528660002060005b858110156110b35781548b8201860152908301908801611098565b8a0184019650505b50939998505050505050505050565b6000602082840312156110dc57600080fd5b5051919050565b600082516110f5818460208701610dd6565b919091019291505056fe360894a13ba1a3210667c828492db98dca3e2076cc3735a920a3ca505d382bbca2646970667358221220054a9cc356927829a48928ccd425cf49fd37d53e39b0b844ea36478ee3ef14b464736f6c63430008140033","linkReferences":{}},"methodIdentifiers":{"UPGRADE_INTERFACE_VERSION()":"ad3cb1cc","createTicketProxy(address)":"de4ed3cf","deployedTickets(uint256)":"d83e7bfa","getDeployedTickets()":"0d7c6d68","initialize(address,string)":"f399e22e","owner()":"8da5cb5b","proxiableUUID()":"52d1902d","renounceOwnership()":"715018a6","setVersion(string)":"788bc78c","ticketImplementation()":"3a72eeab","transferOwnership(address)":"f2fde38b","updateTicketImplementation(address)":"232b158b","upgradeToAndCall(address,bytes)":"4f1ef286","version()":"54fd4d50"},"id":54}