{"abi":[{"type":"function","name":"MAX_TICKETS_PER_WALLET","inputs":[],"outputs":[{"name":"","type":"uint256","internalType":"uint256"}],"stateMutability":"view"},{"type":"function","name":"UPGRADE_INTERFACE_VERSION","inputs":[],"outputs":[{"name":"","type":"string","internalType":"string"}],"stateMutability":"view"},{"type":"function","name":"balanceOf","inputs":[{"name":"account","type":"address","internalType":"address"},{"name":"id","type":"uint256","internalType":"uint256"}],"outputs":[{"name":"","type":"uint256","internalType":"uint256"}],"stateMutability":"view"},{"type":"function","name":"balanceOfBatch","inputs":[{"name":"accounts","type":"address[]","internalType":"address[]"},{"name":"ids","type":"uint256[]","internalType":"uint256[]"}],"outputs":[{"name":"","type":"uint256[]","internalType":"uint256[]"}],"stateMutability":"view"},{"type":"function","name":"burnTokens","inputs":[{"name":"tokenId","type":"uint256","internalType":"uint256"},{"name":"amount","type":"uint256","internalType":"uint256"},{"name":"owner","type":"address","internalType":"address"}],"outputs":[],"stateMutability":"nonpayable"},{"type":"function","name":"getTicketPricePaidAndTierIndex","inputs":[{"name":"showId","type":"bytes32","internalType":"bytes32"},{"name":"ticketId","type":"uint256","internalType":"uint256"}],"outputs":[{"name":"price","type":"uint256","internalType":"uint256"},{"name":"tierIndex","type":"uint256","internalType":"uint256"}],"stateMutability":"view"},{"type":"function","name":"initialize","inputs":[{"name":"initialOwner","type":"address","internalType":"address"},{"name":"_showContractAddress","type":"address","internalType":"address"}],"outputs":[],"stateMutability":"nonpayable"},{"type":"function","name":"isApprovedForAll","inputs":[{"name":"account","type":"address","internalType":"address"},{"name":"operator","type":"address","internalType":"address"}],"outputs":[{"name":"","type":"bool","internalType":"bool"}],"stateMutability":"view"},{"type":"function","name":"owner","inputs":[],"outputs":[{"name":"","type":"address","internalType":"address"}],"stateMutability":"view"},{"type":"function","name":"proxiableUUID","inputs":[],"outputs":[{"name":"","type":"bytes32","internalType":"bytes32"}],"stateMutability":"view"},{"type":"function","name":"purchaseTickets","inputs":[{"name":"showId","type":"bytes32","internalType":"bytes32"},{"name":"tierIndex","type":"uint256","internalType":"uint256"},{"name":"amount","type":"uint256","internalType":"uint256"}],"outputs":[],"stateMutability":"payable"},{"type":"function","name":"renounceOwnership","inputs":[],"outputs":[],"stateMutability":"nonpayable"},{"type":"function","name":"safeBatchTransferFrom","inputs":[{"name":"from","type":"address","internalType":"address"},{"name":"to","type":"address","internalType":"address"},{"name":"ids","type":"uint256[]","internalType":"uint256[]"},{"name":"values","type":"uint256[]","internalType":"uint256[]"},{"name":"data","type":"bytes","internalType":"bytes"}],"outputs":[],"stateMutability":"nonpayable"},{"type":"function","name":"safeTransferFrom","inputs":[{"name":"from","type":"address","internalType":"address"},{"name":"to","type":"address","internalType":"address"},{"name":"id","type":"uint256","internalType":"uint256"},{"name":"value","type":"uint256","internalType":"uint256"},{"name":"data","type":"bytes","internalType":"bytes"}],"outputs":[],"stateMutability":"nonpayable"},{"type":"function","name":"setApprovalForAll","inputs":[{"name":"operator","type":"address","internalType":"address"},{"name":"approved","type":"bool","internalType":"bool"}],"outputs":[],"stateMutability":"nonpayable"},{"type":"function","name":"setDefaultURI","inputs":[{"name":"newDefaultURI","type":"string","internalType":"string"},{"name":"showId","type":"bytes32","internalType":"bytes32"}],"outputs":[],"stateMutability":"nonpayable"},{"type":"function","name":"setTokenURI","inputs":[{"name":"showId","type":"bytes32","internalType":"bytes32"},{"name":"tokenId","type":"uint256","internalType":"uint256"},{"name":"newURI","type":"string","internalType":"string"}],"outputs":[],"stateMutability":"nonpayable"},{"type":"function","name":"showInstance","inputs":[],"outputs":[{"name":"","type":"address","internalType":"contract IShow"}],"stateMutability":"view"},{"type":"function","name":"supportsInterface","inputs":[{"name":"interfaceId","type":"bytes4","internalType":"bytes4"}],"outputs":[{"name":"","type":"bool","internalType":"bool"}],"stateMutability":"view"},{"type":"function","name":"ticketIdToTierIndex","inputs":[{"name":"","type":"uint256","internalType":"uint256"}],"outputs":[{"name":"","type":"uint256","internalType":"uint256"}],"stateMutability":"view"},{"type":"function","name":"transferOwnership","inputs":[{"name":"newOwner","type":"address","internalType":"address"}],"outputs":[],"stateMutability":"nonpayable"},{"type":"function","name":"upgradeToAndCall","inputs":[{"name":"newImplementation","type":"address","internalType":"address"},{"name":"data","type":"bytes","internalType":"bytes"}],"outputs":[],"stateMutability":"payable"},{"type":"function","name":"uri","inputs":[{"name":"tokenId","type":"uint256","internalType":"uint256"}],"outputs":[{"name":"","type":"string","internalType":"string"}],"stateMutability":"view"},{"type":"event","name":"ApprovalForAll","inputs":[{"name":"account","type":"address","indexed":true,"internalType":"address"},{"name":"operator","type":"address","indexed":true,"internalType":"address"},{"name":"approved","type":"bool","indexed":false,"internalType":"bool"}],"anonymous":false},{"type":"event","name":"Initialized","inputs":[{"name":"version","type":"uint64","indexed":false,"internalType":"uint64"}],"anonymous":false},{"type":"event","name":"OwnershipTransferred","inputs":[{"name":"previousOwner","type":"address","indexed":true,"internalType":"address"},{"name":"newOwner","type":"address","indexed":true,"internalType":"address"}],"anonymous":false},{"type":"event","name":"TicketPurchased","inputs":[{"name":"buyer","type":"address","indexed":true,"internalType":"address"},{"name":"showId","type":"bytes32","indexed":true,"internalType":"bytes32"},{"name":"ticketId","type":"uint256","indexed":true,"internalType":"uint256"},{"name":"amount","type":"uint256","indexed":false,"internalType":"uint256"},{"name":"tierIndex","type":"uint256","indexed":false,"internalType":"uint256"}],"anonymous":false},{"type":"event","name":"TransferBatch","inputs":[{"name":"operator","type":"address","indexed":true,"internalType":"address"},{"name":"from","type":"address","indexed":true,"internalType":"address"},{"name":"to","type":"address","indexed":true,"internalType":"address"},{"name":"ids","type":"uint256[]","indexed":false,"internalType":"uint256[]"},{"name":"values","type":"uint256[]","indexed":false,"internalType":"uint256[]"}],"anonymous":false},{"type":"event","name":"TransferSingle","inputs":[{"name":"operator","type":"address","indexed":true,"internalType":"address"},{"name":"from","type":"address","indexed":true,"internalType":"address"},{"name":"to","type":"address","indexed":true,"internalType":"address"},{"name":"id","type":"uint256","indexed":false,"internalType":"uint256"},{"name":"value","type":"uint256","indexed":false,"internalType":"uint256"}],"anonymous":false},{"type":"event","name":"URI","inputs":[{"name":"value","type":"string","indexed":false,"internalType":"string"},{"name":"id","type":"uint256","indexed":true,"internalType":"uint256"}],"anonymous":false},{"type":"event","name":"Upgraded","inputs":[{"name":"implementation","type":"address","indexed":true,"internalType":"address"}],"anonymous":false},{"type":"error","name":"AddressEmptyCode","inputs":[{"name":"target","type":"address","internalType":"address"}]},{"type":"error","name":"ERC1155InsufficientBalance","inputs":[{"name":"sender","type":"address","internalType":"address"},{"name":"balance","type":"uint256","internalType":"uint256"},{"name":"needed","type":"uint256","internalType":"uint256"},{"name":"tokenId","type":"uint256","internalType":"uint256"}]},{"type":"error","name":"ERC1155InvalidApprover","inputs":[{"name":"approver","type":"address","internalType":"address"}]},{"type":"error","name":"ERC1155InvalidArrayLength","inputs":[{"name":"idsLength","type":"uint256","internalType":"uint256"},{"name":"valuesLength","type":"uint256","internalType":"uint256"}]},{"type":"error","name":"ERC1155InvalidOperator","inputs":[{"name":"operator","type":"address","internalType":"address"}]},{"type":"error","name":"ERC1155InvalidReceiver","inputs":[{"name":"receiver","type":"address","internalType":"address"}]},{"type":"error","name":"ERC1155InvalidSender","inputs":[{"name":"sender","type":"address","internalType":"address"}]},{"type":"error","name":"ERC1155MissingApprovalForAll","inputs":[{"name":"operator","type":"address","internalType":"address"},{"name":"owner","type":"address","internalType":"address"}]},{"type":"error","name":"ERC1967InvalidImplementation","inputs":[{"name":"implementation","type":"address","internalType":"address"}]},{"type":"error","name":"ERC1967NonPayable","inputs":[]},{"type":"error","name":"FailedInnerCall","inputs":[]},{"type":"error","name":"InvalidInitialization","inputs":[]},{"type":"error","name":"NotInitializing","inputs":[]},{"type":"error","name":"OwnableInvalidOwner","inputs":[{"name":"owner","type":"address","internalType":"address"}]},{"type":"error","name":"OwnableUnauthorizedAccount","inputs":[{"name":"account","type":"address","internalType":"address"}]},{"type":"error","name":"ReentrancyGuardReentrantCall","inputs":[]},{"type":"error","name":"UUPSUnauthorizedCallContext","inputs":[]},{"type":"error","name":"UUPSUnsupportedProxiableUUID","inputs":[{"name":"slot","type":"bytes32","internalType":"bytes32"}]}],"bytecode":{"object":"0x60a06040523060805234801561001457600080fd5b50608051612f3061003e600039600081816116b5015281816116de015261181f0152612f306000f3fe60806040526004361061013f5760003560e01c80635dbab132116100b6578063a7d225971161006f578063a7d22597146103aa578063ad3cb1cc146103ca578063da3a7616146103fb578063e985e9c514610430578063f242432a14610450578063f2fde38b1461047057600080fd5b80635dbab132146102e5578063715018a6146103055780637fc7aa211461031a57806387f9ca5d1461032d5780638da5cb5b1461034d578063a22cb4651461038a57600080fd5b8063404f49d111610108578063404f49d11461020b578063485cc955146102435780634e1273f4146102635780634f1ef2861461029057806352d1902d146102a35780635d7c188c146102b857600080fd5b8062fdd58e1461014457806301ffc9a7146101775780630e89341c146101a7578063229df6d6146101d45780632eb2c2d6146101e9575b600080fd5b34801561015057600080fd5b5061016461015f366004612360565b610490565b6040519081526020015b60405180910390f35b34801561018357600080fd5b506101976101923660046123a2565b6104c7565b604051901515815260200161016e565b3480156101b357600080fd5b506101c76101c23660046123bf565b610517565b60405161016e9190612428565b3480156101e057600080fd5b50610164600581565b3480156101f557600080fd5b50610209610204366004612587565b6105f7565b005b34801561021757600080fd5b5060005461022b906001600160a01b031681565b6040516001600160a01b03909116815260200161016e565b34801561024f57600080fd5b5061020961025e366004612634565b610663565b34801561026f57600080fd5b5061028361027e36600461266d565b6107e4565b60405161016e9190612769565b61020961029e36600461277c565b6108b8565b3480156102af57600080fd5b506101646108d7565b3480156102c457600080fd5b506101646102d33660046123bf565b60026020526000908152604090205481565b3480156102f157600080fd5b506102096103003660046127c1565b6108f4565b34801561031157600080fd5b506102096109d2565b610209610328366004612805565b6109e6565b34801561033957600080fd5b50610209610348366004612831565b611241565b34801561035957600080fd5b507f9016d09d72d40fdae2fd8ceac6b6234c7706214fd39c1cd1e609a0528c199300546001600160a01b031661022b565b34801561039657600080fd5b506102096103a536600461286a565b6112bc565b3480156103b657600080fd5b506102096103c536600461289d565b6112c7565b3480156103d657600080fd5b506101c7604051806040016040528060058152602001640352e302e360dc1b81525081565b34801561040757600080fd5b5061041b6104163660046128ec565b6113fb565b6040805192835260208301919091520161016e565b34801561043c57600080fd5b5061019761044b366004612634565b61148d565b34801561045c57600080fd5b5061020961046b36600461290e565b6114da565b34801561047c57600080fd5b5061020961048b366004612976565b611539565b6000818152600080516020612ead833981519152602090815260408083206001600160a01b03861684529091529020545b92915050565b60006001600160e01b03198216636cdb3d1360e11b14806104f857506001600160e01b031982166303a24d0760e21b145b806104c157506301ffc9a760e01b6001600160e01b03198316146104c1565b60008181526001602052604081208054606092919061053590612993565b80601f016020809104026020016040519081016040528092919081815260200182805461056190612993565b80156105ae5780601f10610583576101008083540402835291602001916105ae565b820191906000526020600020905b81548152906001019060200180831161059157829003601f168201915b5050505050905060008151116105ee5760046105c984611577565b6040516020016105da9291906129cd565b6040516020818303038152906040526105f0565b805b9392505050565b336001600160a01b03861681148015906106185750610616868261148d565b155b1561064e5760405163711bec9160e11b81526001600160a01b038083166004830152871660248201526044015b60405180910390fd5b61065b8686868686611609565b505050505050565b7ff0c57e16840df040f15088dc2f81fe391c3923bec73e23a9662efc9c229c6a008054600160401b810460ff1615906001600160401b03166000811580156106a85750825b90506000826001600160401b031660011480156106c45750303b155b9050811580156106d2575080155b156106f05760405163f92ee8a960e01b815260040160405180910390fd5b845467ffffffffffffffff19166001178555831561071a57845460ff60401b1916600160401b1785555b61073b6040518060600160405280602e8152602001612ecd602e9139611670565b610743611681565b61074c87611691565b6107546116a2565b600080546001600160a01b0319166001600160a01b03881617905560408051606081019091526025808252612e6860208301396004906107949082612aaa565b5083156107db57845460ff60401b19168555604051600181527fc7f505b2f371ae2175ee4913f4499e1f2633a7b5936321eed1cdaeb6115181d29060200160405180910390a15b50505050505050565b606081518351146108155781518351604051635b05999160e01b815260048101929092526024820152604401610645565b600083516001600160401b038111156108305761083061243b565b604051908082528060200260200182016040528015610859578160200160208202803683370190505b50905060005b84518110156108b05760208082028601015161088390602080840287010151610490565b82828151811061089557610895612b69565b60209081029190910101526108a981612b95565b905061085f565b509392505050565b6108c06116aa565b6108c98261174f565b6108d38282611757565b5050565b60006108e1611814565b50600080516020612e8d83398151915290565b600054604051634bbe5c4f60e11b8152600481018390526001600160a01b039091169063977cb89e90602401602060405180830381865afa15801561093d573d6000803e3d6000fd5b505050506040513d601f19601f820116820180604052508101906109619190612bae565b6001600160a01b0316336001600160a01b0316146109c15760405162461bcd60e51b815260206004820152601b60248201527f43616c6c6572206973206e6f7420746865206f7267616e697a657200000000006044820152606401610645565b60046109cd8382612aaa565b505050565b6109da61185d565b6109e460006118b8565b565b6109ee611929565b60008111610a3e5760405162461bcd60e51b815260206004820152601d60248201527f416d6f756e74206d7573742062652067726561746572207468616e20300000006044820152606401610645565b600080546040516346c2c8a760e01b8152600481018690526001600160a01b03909116906346c2c8a790602401602060405180830381865afa158015610a88573d6000803e3d6000fd5b505050506040513d601f19601f82011682018060405250810190610aac9190612bcb565b90506000816007811115610ac257610ac2612bec565b14610b215760405162461bcd60e51b815260206004820152602960248201527f53686f77206973206e6f7420617661696c61626c6520666f72207469636b657460448201526820707572636861736560b81b6064820152608401610645565b60008054604051635b9a1e0960e01b8152600481018790523360248201526001600160a01b0390911690635b9a1e0990604401600060405180830381865afa158015610b71573d6000803e3d6000fd5b505050506040513d6000823e601f3d908101601f19168201604052610b999190810190612c02565b90506005838251610baa9190612c92565b1115610c035760405162461bcd60e51b815260206004820152602260248201527f45786365656473206d6178696d756d207469636b657473207065722077616c6c604482015261195d60f21b6064820152608401610645565b60008054604051637e3e393560e01b8152600481018890526024810187905282916001600160a01b031690637e3e393590604401600060405180830381865afa158015610c54573d6000803e3d6000fd5b505050506040513d6000823e601f3d908101601f19168201604052610c7c9190810190612ca5565b925092505084811015610ce35760405162461bcd60e51b815260206004820152602960248201527f4e6f7420656e6f756768207469636b65747320617661696c61626c6520696e206044820152683a3434b9903a34b2b960b91b6064820152608401610645565b610ced8583612d2e565b3414610d3b5760405162461bcd60e51b815260206004820152601860248201527f496e636f7272656374207061796d656e7420616d6f756e7400000000000000006044820152606401610645565b600054604051638526663560e01b8152600481018990526001600160a01b039091169063852666359034906024016000604051808303818588803b158015610d8257600080fd5b505af1158015610d96573d6000803e3d6000fd5b50505050506000856001600160401b03811115610db557610db561243b565b604051908082528060200260200182016040528015610dde578160200160208202803683370190505b5090506000866001600160401b03811115610dfb57610dfb61243b565b604051908082528060200260200182016040528015610e24578160200160208202803683370190505b50905060005b878110156110545760008a8152600360205260408120548b908b90610e50906001612c92565b60408051602081019490945283019190915260608201526080016040516020818303038152906040528051906020012060001c905080848381518110610e9857610e98612b69565b6020026020010181815250506001838381518110610eb857610eb8612b69565b6020908102919091018101919091526000828152600290915260408082208c90559054905163de44006f60e01b8152600481018d9052336024820152604481018390526001600160a01b039091169063de44006f90606401600060405180830381600087803b158015610f2a57600080fd5b505af1158015610f3e573d6000803e3d6000fd5b5050600054604051632f51f71760e21b8152600481018f905260248101859052604481018a90526001600160a01b03909116925063bd47dc5c9150606401600060405180830381600087803b158015610f9657600080fd5b505af1158015610faa573d6000803e3d6000fd5b505060005460405163647b3f4b60e11b8152600481018f905233602482015260448101859052600160648201526001600160a01b03909116925063c8f67e969150608401600060405180830381600087803b15801561100857600080fd5b505af115801561101c573d6000803e3d6000fd5b50505060008c8152600360205260408120805492509061103b83612b95565b919050555050808061104c90612b95565b915050610e2a565b5061107033838360405180602001604052806000815250611973565b60005460405163644b5e5960e01b8152600481018b9052602481018a9052604481018990526001600160a01b039091169063644b5e5990606401600060405180830381600087803b1580156110c457600080fd5b505af11580156110d8573d6000803e3d6000fd5b5050600054604051630f0faed760e31b8152600481018d9052602481018b90526001600160a01b03909116925063787d76b89150604401600060405180830381600087803b15801561112957600080fd5b505af115801561113d573d6000803e3d6000fd5b505060005460405163730c02a360e11b8152600481018d90526001600160a01b03909116925063e61805469150602401600060405180830381600087803b15801561118757600080fd5b505af115801561119b573d6000803e3d6000fd5b50505050816001886111ad9190612d45565b815181106111bd576111bd612b69565b602002602001015189336001600160a01b03167ff53f6fe7b2b86daf10364d1fc7e66dfc3adc1482215b61947bf0ec712e1299088a8c60405161120a929190918252602082015260400190565b60405180910390a45050505050506109cd60017f9b779b17422d0df92223018b32b4d1fa46e071723d6817e2486d003becc55f0055565b6000546001600160a01b031633146112b15760405162461bcd60e51b815260206004820152602d60248201527f4f6e6c79207468652053686f7720636f6e74726163742063616e2063616c6c2060448201526c3a3434b990333ab731ba34b7b760991b6064820152608401610645565b6109cd8184846119d7565b6108d3338383611a3f565b600054604051634bbe5c4f60e11b8152600481018590526001600160a01b039091169063977cb89e90602401602060405180830381865afa158015611310573d6000803e3d6000fd5b505050506040513d601f19601f820116820180604052508101906113349190612bae565b6001600160a01b0316336001600160a01b0316146113a55760405162461bcd60e51b815260206004820152602860248201527f43616c6c6572206973206e6f7420746865206f7267616e697a6572206f6620746044820152676869732073686f7760c01b6064820152608401610645565b60008281526001602052604090206113bd8282612aaa565b50817f6bb7ff708619ba0610cba295a58592e0451dee2622938c8755667688daf3529b826040516113ee9190612428565b60405180910390a2505050565b600080546040516293d4e160e81b81526004810185905260248101849052829182916001600160a01b03909116906393d4e10090604401602060405180830381865afa15801561144f573d6000803e3d6000fd5b505050506040513d601f19601f820116820180604052508101906114739190612d58565b600094855260026020526040909420549395939450505050565b6001600160a01b0391821660009081527f88be536d5240c274a3b1d3a1be54482fd9caa294f08c62a7cde569f49a3c45016020908152604080832093909416825291909152205460ff1690565b336001600160a01b03861681148015906114fb57506114f9868261148d565b155b1561152c5760405163711bec9160e11b81526001600160a01b03808316600483015287166024820152604401610645565b61065b8686868686611ae7565b61154161185d565b6001600160a01b03811661156b57604051631e4fbdf760e01b815260006004820152602401610645565b611574816118b8565b50565b6060600061158483611b6c565b60010190506000816001600160401b038111156115a3576115a361243b565b6040519080825280601f01601f1916602001820160405280156115cd576020820181803683370190505b5090508181016020015b600019016f181899199a1a9b1b9c1cb0b131b232b360811b600a86061a8153600a85049450846115d757509392505050565b6001600160a01b03841661163357604051632bfa23e760e11b815260006004820152602401610645565b6001600160a01b03851661165c57604051626a0d4560e21b815260006004820152602401610645565b6116698585858585611c44565b5050505050565b611678611c97565b61157481611ce0565b611689611c97565b6109e4611cf1565b611699611c97565b61157481611cf9565b6109e4611c97565b306001600160a01b037f000000000000000000000000000000000000000000000000000000000000000016148061173157507f00000000000000000000000000000000000000000000000000000000000000006001600160a01b0316611725600080516020612e8d833981519152546001600160a01b031690565b6001600160a01b031614155b156109e45760405163703e46dd60e11b815260040160405180910390fd5b61157461185d565b816001600160a01b03166352d1902d6040518163ffffffff1660e01b8152600401602060405180830381865afa9250505080156117b1575060408051601f3d908101601f191682019092526117ae91810190612d58565b60015b6117d957604051634c9c8ce360e01b81526001600160a01b0383166004820152602401610645565b600080516020612e8d833981519152811461180a57604051632a87526960e21b815260048101829052602401610645565b6109cd8383611d01565b306001600160a01b037f000000000000000000000000000000000000000000000000000000000000000016146109e45760405163703e46dd60e11b815260040160405180910390fd5b3361188f7f9016d09d72d40fdae2fd8ceac6b6234c7706214fd39c1cd1e609a0528c199300546001600160a01b031690565b6001600160a01b0316146109e45760405163118cdaa760e01b8152336004820152602401610645565b7f9016d09d72d40fdae2fd8ceac6b6234c7706214fd39c1cd1e609a0528c19930080546001600160a01b031981166001600160a01b03848116918217845560405192169182907f8be0079c531659141344cd1fd0a4f28419497f9722a3daafe3b4186f6b6457e090600090a3505050565b7f9b779b17422d0df92223018b32b4d1fa46e071723d6817e2486d003becc55f0080546001190161196d57604051633ee5aeb560e01b815260040160405180910390fd5b60029055565b6001600160a01b03841661199d57604051632bfa23e760e11b815260006004820152602401610645565b6119ab600085858585611c44565b50505050565b60017f9b779b17422d0df92223018b32b4d1fa46e071723d6817e2486d003becc55f0055565b6001600160a01b038316611a0057604051626a0d4560e21b815260006004820152602401610645565b604080516001808252602082018590528183019081526060820184905260a0820190925260006080820181815291929161166991879185908590611c44565b600080516020612ead8339815191526001600160a01b038316611a775760405162ced3e160e81b815260006004820152602401610645565b6001600160a01b038481166000818152600184016020908152604080832094881680845294825291829020805460ff191687151590811790915591519182527f17307eab39ab6107e8899845ad3d59bd9653f200f220920489ca2b5937696c31910160405180910390a350505050565b6001600160a01b038416611b1157604051632bfa23e760e11b815260006004820152602401610645565b6001600160a01b038516611b3a57604051626a0d4560e21b815260006004820152602401610645565b604080516001808252602082018690528183019081526060820185905260808201909252906107db8787848487611c44565b60008072184f03e93ff9f4daa797ed6e38ed64bf6a1f0160401b8310611bab5772184f03e93ff9f4daa797ed6e38ed64bf6a1f0160401b830492506040015b6d04ee2d6d415b85acef81000000008310611bd7576d04ee2d6d415b85acef8100000000830492506020015b662386f26fc100008310611bf557662386f26fc10000830492506010015b6305f5e1008310611c0d576305f5e100830492506008015b6127108310611c2157612710830492506004015b60648310611c33576064830492506002015b600a83106105ee5760010192915050565b611c5085858585611d57565b6001600160a01b038416156116695782513390600103611c895760208481015190840151611c82838989858589611f85565b505061065b565b61065b8187878787876120a9565b7ff0c57e16840df040f15088dc2f81fe391c3923bec73e23a9662efc9c229c6a0054600160401b900460ff166109e457604051631afcd79f60e31b815260040160405180910390fd5b611ce8611c97565b61157481612192565b6119b1611c97565b611541611c97565b611d0a826121cc565b6040516001600160a01b038316907fbc7cd75a20ee27fd9adebab32041f755214dbc6bffa90cc0225b39da2e5c2d3b90600090a2805115611d4f576109cd8282612231565b6108d36122a7565b80518251600080516020612ead8339815191529114611d965782518251604051635b05999160e01b815260048101929092526024820152604401610645565b3360005b8451811015611ea5576020818102868101820151908601909101516001600160a01b03891615611e4d576000828152602086815260408083206001600160a01b038d16845290915290205481811015611e26576040516303dee4c560e01b81526001600160a01b038b166004820152602481018290526044810183905260648101849052608401610645565b6000838152602087815260408083206001600160a01b038e16845290915290209082900390555b6001600160a01b03881615611e92576000828152602086815260408083206001600160a01b038c16845290915281208054839290611e8c908490612c92565b90915550505b505080611e9e90612b95565b9050611d9a565b508351600103611f265760208401516000906020850151909150866001600160a01b0316886001600160a01b0316846001600160a01b03167fc3d58168c5ae7397731d063d5bbf3d657854427343f4c083240f7aacaa2d0f628585604051611f17929190918252602082015260400190565b60405180910390a4505061065b565b846001600160a01b0316866001600160a01b0316826001600160a01b03167f4a39dc06d4c0dbc64b70af90fd698a233a518aa5d07e595d983b8c0526c8f7fb8787604051611f75929190612d71565b60405180910390a4505050505050565b6001600160a01b0384163b1561065b5760405163f23a6e6160e01b81526001600160a01b0385169063f23a6e6190611fc99089908990889088908890600401612d96565b6020604051808303816000875af1925050508015612004575060408051601f3d908101601f1916820190925261200191810190612dd0565b60015b61206d573d808015612032576040519150601f19603f3d011682016040523d82523d6000602084013e612037565b606091505b50805160000361206557604051632bfa23e760e11b81526001600160a01b0386166004820152602401610645565b805181602001fd5b6001600160e01b0319811663f23a6e6160e01b146107db57604051632bfa23e760e11b81526001600160a01b0386166004820152602401610645565b6001600160a01b0384163b1561065b5760405163bc197c8160e01b81526001600160a01b0385169063bc197c81906120ed9089908990889088908890600401612ded565b6020604051808303816000875af1925050508015612128575060408051601f3d908101601f1916820190925261212591810190612dd0565b60015b612156573d808015612032576040519150601f19603f3d011682016040523d82523d6000602084013e612037565b6001600160e01b0319811663bc197c8160e01b146107db57604051632bfa23e760e11b81526001600160a01b0386166004820152602401610645565b600080516020612ead8339815191527f88be536d5240c274a3b1d3a1be54482fd9caa294f08c62a7cde569f49a3c45026109cd8382612aaa565b806001600160a01b03163b60000361220257604051634c9c8ce360e01b81526001600160a01b0382166004820152602401610645565b600080516020612e8d83398151915280546001600160a01b0319166001600160a01b0392909216919091179055565b6060600080846001600160a01b03168460405161224e9190612e4b565b600060405180830381855af49150503d8060008114612289576040519150601f19603f3d011682016040523d82523d6000602084013e61228e565b606091505b509150915061229e8583836122c6565b95945050505050565b34156109e45760405163b398979f60e01b815260040160405180910390fd5b6060826122db576122d682612322565b6105f0565b81511580156122f257506001600160a01b0384163b155b1561231b57604051639996b31560e01b81526001600160a01b0385166004820152602401610645565b5092915050565b8051156123325780518082602001fd5b604051630a12f52160e11b815260040160405180910390fd5b6001600160a01b038116811461157457600080fd5b6000806040838503121561237357600080fd5b823561237e8161234b565b946020939093013593505050565b6001600160e01b03198116811461157457600080fd5b6000602082840312156123b457600080fd5b81356105f08161238c565b6000602082840312156123d157600080fd5b5035919050565b60005b838110156123f35781810151838201526020016123db565b50506000910152565b600081518084526124148160208601602086016123d8565b601f01601f19169290920160200192915050565b6020815260006105f060208301846123fc565b634e487b7160e01b600052604160045260246000fd5b604051601f8201601f191681016001600160401b03811182821017156124795761247961243b565b604052919050565b60006001600160401b0382111561249a5761249a61243b565b5060051b60200190565b600082601f8301126124b557600080fd5b813560206124ca6124c583612481565b612451565b82815260059290921b840181019181810190868411156124e957600080fd5b8286015b8481101561250457803583529183019183016124ed565b509695505050505050565b60006001600160401b038211156125285761252861243b565b50601f01601f191660200190565b600082601f83011261254757600080fd5b81356125556124c58261250f565b81815284602083860101111561256a57600080fd5b816020850160208301376000918101602001919091529392505050565b600080600080600060a0868803121561259f57600080fd5b85356125aa8161234b565b945060208601356125ba8161234b565b935060408601356001600160401b03808211156125d657600080fd5b6125e289838a016124a4565b945060608801359150808211156125f857600080fd5b61260489838a016124a4565b9350608088013591508082111561261a57600080fd5b5061262788828901612536565b9150509295509295909350565b6000806040838503121561264757600080fd5b82356126528161234b565b915060208301356126628161234b565b809150509250929050565b6000806040838503121561268057600080fd5b82356001600160401b038082111561269757600080fd5b818501915085601f8301126126ab57600080fd5b813560206126bb6124c583612481565b82815260059290921b840181019181810190898411156126da57600080fd5b948201945b838610156127015785356126f28161234b565b825294820194908201906126df565b9650508601359250508082111561271757600080fd5b50612724858286016124a4565b9150509250929050565b600081518084526020808501945080840160005b8381101561275e57815187529582019590820190600101612742565b509495945050505050565b6020815260006105f0602083018461272e565b6000806040838503121561278f57600080fd5b823561279a8161234b565b915060208301356001600160401b038111156127b557600080fd5b61272485828601612536565b600080604083850312156127d457600080fd5b82356001600160401b038111156127ea57600080fd5b6127f685828601612536565b95602094909401359450505050565b60008060006060848603121561281a57600080fd5b505081359360208301359350604090920135919050565b60008060006060848603121561284657600080fd5b8335925060208401359150604084013561285f8161234b565b809150509250925092565b6000806040838503121561287d57600080fd5b82356128888161234b565b91506020830135801515811461266257600080fd5b6000806000606084860312156128b257600080fd5b833592506020840135915060408401356001600160401b038111156128d657600080fd5b6128e286828701612536565b9150509250925092565b600080604083850312156128ff57600080fd5b50508035926020909101359150565b600080600080600060a0868803121561292657600080fd5b85356129318161234b565b945060208601356129418161234b565b9350604086013592506060860135915060808601356001600160401b0381111561296a57600080fd5b61262788828901612536565b60006020828403121561298857600080fd5b81356105f08161234b565b600181811c908216806129a757607f821691505b6020821081036129c757634e487b7160e01b600052602260045260246000fd5b50919050565b60008084546129db81612993565b600182811680156129f35760018114612a0857612a37565b60ff1984168752821515830287019450612a37565b8860005260208060002060005b85811015612a2e5781548a820152908401908201612a15565b50505082870194505b505050508351612a4b8183602088016123d8565b64173539b7b760d91b9101908152600501949350505050565b601f8211156109cd57600081815260208120601f850160051c81016020861015612a8b5750805b601f850160051c820191505b8181101561065b57828155600101612a97565b81516001600160401b03811115612ac357612ac361243b565b612ad781612ad18454612993565b84612a64565b602080601f831160018114612b0c5760008415612af45750858301515b600019600386901b1c1916600185901b17855561065b565b600085815260208120601f198616915b82811015612b3b57888601518255948401946001909101908401612b1c565b5085821015612b595787850151600019600388901b60f8161c191681555b5050505050600190811b01905550565b634e487b7160e01b600052603260045260246000fd5b634e487b7160e01b600052601160045260246000fd5b600060018201612ba757612ba7612b7f565b5060010190565b600060208284031215612bc057600080fd5b81516105f08161234b565b600060208284031215612bdd57600080fd5b8151600881106105f057600080fd5b634e487b7160e01b600052602160045260246000fd5b60006020808385031215612c1557600080fd5b82516001600160401b03811115612c2b57600080fd5b8301601f81018513612c3c57600080fd5b8051612c4a6124c582612481565b81815260059190911b82018301908381019087831115612c6957600080fd5b928401925b82841015612c8757835182529284019290840190612c6e565b979650505050505050565b808201808211156104c1576104c1612b7f565b600080600060608486031215612cba57600080fd5b83516001600160401b03811115612cd057600080fd5b8401601f81018613612ce157600080fd5b8051612cef6124c58261250f565b818152876020838501011115612d0457600080fd5b612d158260208301602086016123d8565b6020870151604090970151909896975095945050505050565b80820281158282048414176104c1576104c1612b7f565b818103818111156104c1576104c1612b7f565b600060208284031215612d6a57600080fd5b5051919050565b604081526000612d84604083018561272e565b828103602084015261229e818561272e565b6001600160a01b03868116825285166020820152604081018490526060810183905260a060808201819052600090612c87908301846123fc565b600060208284031215612de257600080fd5b81516105f08161238c565b6001600160a01b0386811682528516602082015260a060408201819052600090612e199083018661272e565b8281036060840152612e2b818661272e565b90508281036080840152612e3f81856123fc565b98975050505050505050565b60008251612e5d8184602087016123d8565b919091019291505056fe68747470733a2f2f6d657461646174612e73656c6c6f7574732e6170702f7469636b65742f360894a13ba1a3210667c828492db98dca3e2076cc3735a920a3ca505d382bbc88be536d5240c274a3b1d3a1be54482fd9caa294f08c62a7cde569f49a3c450068747470733a2f2f6d657461646174612e73656c6c6f7574732e6170702f7469636b65742f7b69647d2e6a736f6ea264697066735822122046a95f6f8a171b2965e87bd73c92214a0085be927be07266cc729f9ef8fa0a3c64736f6c63430008140033","linkReferences":{}},"methodIdentifiers":{"MAX_TICKETS_PER_WALLET()":"229df6d6","UPGRADE_INTERFACE_VERSION()":"ad3cb1cc","balanceOf(address,uint256)":"00fdd58e","balanceOfBatch(address[],uint256[])":"4e1273f4","burnTokens(uint256,uint256,address)":"87f9ca5d","getTicketPricePaidAndTierIndex(bytes32,uint256)":"da3a7616","initialize(address,address)":"485cc955","isApprovedForAll(address,address)":"e985e9c5","owner()":"8da5cb5b","proxiableUUID()":"52d1902d","purchaseTickets(bytes32,uint256,uint256)":"7fc7aa21","renounceOwnership()":"715018a6","safeBatchTransferFrom(address,address,uint256[],uint256[],bytes)":"2eb2c2d6","safeTransferFrom(address,address,uint256,uint256,bytes)":"f242432a","setApprovalForAll(address,bool)":"a22cb465","setDefaultURI(string,bytes32)":"5dbab132","setTokenURI(bytes32,uint256,string)":"a7d22597","showInstance()":"404f49d1","supportsInterface(bytes4)":"01ffc9a7","ticketIdToTierIndex(uint256)":"5d7c188c","transferOwnership(address)":"f2fde38b","upgradeToAndCall(address,bytes)":"4f1ef286","uri(uint256)":"0e89341c"},"id":59}