{"abi":[{"type":"function","name":"MAX_TICKETS_PER_WALLET","inputs":[],"outputs":[{"name":"","type":"uint256","internalType":"uint256"}],"stateMutability":"view"}],"bytecode":{"object":"0x6080604052348015600f57600080fd5b50607c8061001e6000396000f3fe6080604052348015600f57600080fd5b506004361060285760003560e01c8063229df6d614602d575b600080fd5b6034600581565b60405190815260200160405180910390f3fea26469706673582212202fd65d64fc90a8243745f95a28ed6f350b7247ed3ce0e518b71bc8c933ea2d3764736f6c63430008140033","linkReferences":{}},"methodIdentifiers":{"MAX_TICKETS_PER_WALLET()":"229df6d6"},"id":73}