{"abi":[{"type":"function","name":"MAX_TICKETS_PER_WALLET","inputs":[],"outputs":[{"name":"","type":"uint256","internalType":"uint256"}],"stateMutability":"view"},{"type":"function","name":"UPGRADE_INTERFACE_VERSION","inputs":[],"outputs":[{"name":"","type":"string","internalType":"string"}],"stateMutability":"view"},{"type":"function","name":"balanceOf","inputs":[{"name":"account","type":"address","internalType":"address"},{"name":"id","type":"uint256","internalType":"uint256"}],"outputs":[{"name":"","type":"uint256","internalType":"uint256"}],"stateMutability":"view"},{"type":"function","name":"balanceOfBatch","inputs":[{"name":"accounts","type":"address[]","internalType":"address[]"},{"name":"ids","type":"uint256[]","internalType":"uint256[]"}],"outputs":[{"name":"","type":"uint256[]","internalType":"uint256[]"}],"stateMutability":"view"},{"type":"function","name":"burnTokens","inputs":[{"name":"tokenId","type":"uint256","internalType":"uint256"},{"name":"amount","type":"uint256","internalType":"uint256"},{"name":"owner","type":"address","internalType":"address"}],"outputs":[],"stateMutability":"nonpayable"},{"type":"function","name":"bytes32ToHexString","inputs":[{"name":"_bytes32","type":"bytes32","internalType":"bytes32"}],"outputs":[{"name":"","type":"string","internalType":"string"}],"stateMutability":"pure"},{"type":"function","name":"getTicketPricePaidAndTierIndex","inputs":[{"name":"showId","type":"bytes32","internalType":"bytes32"},{"name":"ticketId","type":"uint256","internalType":"uint256"}],"outputs":[{"name":"price","type":"uint256","internalType":"uint256"},{"name":"tierIndex","type":"uint256","internalType":"uint256"}],"stateMutability":"view"},{"type":"function","name":"initialize","inputs":[{"name":"initialOwner","type":"address","internalType":"address"},{"name":"_showContractAddress","type":"address","internalType":"address"}],"outputs":[],"stateMutability":"nonpayable"},{"type":"function","name":"isApprovedForAll","inputs":[{"name":"account","type":"address","internalType":"address"},{"name":"operator","type":"address","internalType":"address"}],"outputs":[{"name":"","type":"bool","internalType":"bool"}],"stateMutability":"view"},{"type":"function","name":"owner","inputs":[],"outputs":[{"name":"","type":"address","internalType":"address"}],"stateMutability":"view"},{"type":"function","name":"proxiableUUID","inputs":[],"outputs":[{"name":"","type":"bytes32","internalType":"bytes32"}],"stateMutability":"view"},{"type":"function","name":"purchaseTickets","inputs":[{"name":"showId","type":"bytes32","internalType":"bytes32"},{"name":"tierIndex","type":"uint256","internalType":"uint256"},{"name":"amount","type":"uint256","internalType":"uint256"},{"name":"paymentToken","type":"address","internalType":"address"}],"outputs":[],"stateMutability":"payable"},{"type":"function","name":"renounceOwnership","inputs":[],"outputs":[],"stateMutability":"nonpayable"},{"type":"function","name":"safeBatchTransferFrom","inputs":[{"name":"from","type":"address","internalType":"address"},{"name":"to","type":"address","internalType":"address"},{"name":"ids","type":"uint256[]","internalType":"uint256[]"},{"name":"values","type":"uint256[]","internalType":"uint256[]"},{"name":"data","type":"bytes","internalType":"bytes"}],"outputs":[],"stateMutability":"nonpayable"},{"type":"function","name":"safeTransferFrom","inputs":[{"name":"from","type":"address","internalType":"address"},{"name":"to","type":"address","internalType":"address"},{"name":"id","type":"uint256","internalType":"uint256"},{"name":"value","type":"uint256","internalType":"uint256"},{"name":"data","type":"bytes","internalType":"bytes"}],"outputs":[],"stateMutability":"nonpayable"},{"type":"function","name":"setApprovalForAll","inputs":[{"name":"operator","type":"address","internalType":"address"},{"name":"approved","type":"bool","internalType":"bool"}],"outputs":[],"stateMutability":"nonpayable"},{"type":"function","name":"setDefaultURI","inputs":[{"name":"newDefaultURI","type":"string","internalType":"string"},{"name":"showId","type":"bytes32","internalType":"bytes32"}],"outputs":[],"stateMutability":"nonpayable"},{"type":"function","name":"setTokenURI","inputs":[{"name":"showId","type":"bytes32","internalType":"bytes32"},{"name":"tokenId","type":"uint256","internalType":"uint256"},{"name":"newURI","type":"string","internalType":"string"}],"outputs":[],"stateMutability":"nonpayable"},{"type":"function","name":"showInstance","inputs":[],"outputs":[{"name":"","type":"address","internalType":"contract IShow"}],"stateMutability":"view"},{"type":"function","name":"supportsInterface","inputs":[{"name":"interfaceId","type":"bytes4","internalType":"bytes4"}],"outputs":[{"name":"","type":"bool","internalType":"bool"}],"stateMutability":"view"},{"type":"function","name":"ticketIdToTierIndex","inputs":[{"name":"","type":"uint256","internalType":"uint256"}],"outputs":[{"name":"","type":"uint256","internalType":"uint256"}],"stateMutability":"view"},{"type":"function","name":"transferOwnership","inputs":[{"name":"newOwner","type":"address","internalType":"address"}],"outputs":[],"stateMutability":"nonpayable"},{"type":"function","name":"upgradeToAndCall","inputs":[{"name":"newImplementation","type":"address","internalType":"address"},{"name":"data","type":"bytes","internalType":"bytes"}],"outputs":[],"stateMutability":"payable"},{"type":"function","name":"uri","inputs":[{"name":"tokenId","type":"uint256","internalType":"uint256"}],"outputs":[{"name":"","type":"string","internalType":"string"}],"stateMutability":"view"},{"type":"event","name":"ApprovalForAll","inputs":[{"name":"account","type":"address","indexed":true,"internalType":"address"},{"name":"operator","type":"address","indexed":true,"internalType":"address"},{"name":"approved","type":"bool","indexed":false,"internalType":"bool"}],"anonymous":false},{"type":"event","name":"Initialized","inputs":[{"name":"version","type":"uint64","indexed":false,"internalType":"uint64"}],"anonymous":false},{"type":"event","name":"OwnershipTransferred","inputs":[{"name":"previousOwner","type":"address","indexed":true,"internalType":"address"},{"name":"newOwner","type":"address","indexed":true,"internalType":"address"}],"anonymous":false},{"type":"event","name":"TicketPurchased","inputs":[{"name":"buyer","type":"address","indexed":true,"internalType":"address"},{"name":"showId","type":"bytes32","indexed":true,"internalType":"bytes32"},{"name":"tierIndex","type":"uint256","indexed":false,"internalType":"uint256"},{"name":"amount","type":"uint256","indexed":false,"internalType":"uint256"},{"name":"paymentToken","type":"address","indexed":false,"internalType":"address"}],"anonymous":false},{"type":"event","name":"TransferBatch","inputs":[{"name":"operator","type":"address","indexed":true,"internalType":"address"},{"name":"from","type":"address","indexed":true,"internalType":"address"},{"name":"to","type":"address","indexed":true,"internalType":"address"},{"name":"ids","type":"uint256[]","indexed":false,"internalType":"uint256[]"},{"name":"values","type":"uint256[]","indexed":false,"internalType":"uint256[]"}],"anonymous":false},{"type":"event","name":"TransferSingle","inputs":[{"name":"operator","type":"address","indexed":true,"internalType":"address"},{"name":"from","type":"address","indexed":true,"internalType":"address"},{"name":"to","type":"address","indexed":true,"internalType":"address"},{"name":"id","type":"uint256","indexed":false,"internalType":"uint256"},{"name":"value","type":"uint256","indexed":false,"internalType":"uint256"}],"anonymous":false},{"type":"event","name":"URI","inputs":[{"name":"value","type":"string","indexed":false,"internalType":"string"},{"name":"id","type":"uint256","indexed":true,"internalType":"uint256"}],"anonymous":false},{"type":"event","name":"Upgraded","inputs":[{"name":"implementation","type":"address","indexed":true,"internalType":"address"}],"anonymous":false},{"type":"error","name":"AddressEmptyCode","inputs":[{"name":"target","type":"address","internalType":"address"}]},{"type":"error","name":"ERC1155InsufficientBalance","inputs":[{"name":"sender","type":"address","internalType":"address"},{"name":"balance","type":"uint256","internalType":"uint256"},{"name":"needed","type":"uint256","internalType":"uint256"},{"name":"tokenId","type":"uint256","internalType":"uint256"}]},{"type":"error","name":"ERC1155InvalidApprover","inputs":[{"name":"approver","type":"address","internalType":"address"}]},{"type":"error","name":"ERC1155InvalidArrayLength","inputs":[{"name":"idsLength","type":"uint256","internalType":"uint256"},{"name":"valuesLength","type":"uint256","internalType":"uint256"}]},{"type":"error","name":"ERC1155InvalidOperator","inputs":[{"name":"operator","type":"address","internalType":"address"}]},{"type":"error","name":"ERC1155InvalidReceiver","inputs":[{"name":"receiver","type":"address","internalType":"address"}]},{"type":"error","name":"ERC1155InvalidSender","inputs":[{"name":"sender","type":"address","internalType":"address"}]},{"type":"error","name":"ERC1155MissingApprovalForAll","inputs":[{"name":"operator","type":"address","internalType":"address"},{"name":"owner","type":"address","internalType":"address"}]},{"type":"error","name":"ERC1967InvalidImplementation","inputs":[{"name":"implementation","type":"address","internalType":"address"}]},{"type":"error","name":"ERC1967NonPayable","inputs":[]},{"type":"error","name":"FailedInnerCall","inputs":[]},{"type":"error","name":"InvalidInitialization","inputs":[]},{"type":"error","name":"NotInitializing","inputs":[]},{"type":"error","name":"OwnableInvalidOwner","inputs":[{"name":"owner","type":"address","internalType":"address"}]},{"type":"error","name":"OwnableUnauthorizedAccount","inputs":[{"name":"account","type":"address","internalType":"address"}]},{"type":"error","name":"ReentrancyGuardReentrantCall","inputs":[]},{"type":"error","name":"UUPSUnauthorizedCallContext","inputs":[]},{"type":"error","name":"UUPSUnsupportedProxiableUUID","inputs":[{"name":"slot","type":"bytes32","internalType":"bytes32"}]}],"bytecode":{"object":"0x60a06040523060805234801561001457600080fd5b506080516131f061003e60003960008181611a0a01528181611a330152611b7401526131f06000f3fe60806040526004361061014a5760003560e01c80635dbab132116100b6578063ad3cb1cc1161006f578063ad3cb1cc146103d5578063c68b378714610406578063da3a761614610426578063e985e9c51461045b578063f242432a1461047b578063f2fde38b1461049b57600080fd5b80635dbab13214610303578063715018a61461032357806387f9ca5d146103385780638da5cb5b14610358578063a22cb46514610395578063a7d22597146103b557600080fd5b8063404f49d111610108578063404f49d114610229578063485cc955146102615780634e1273f4146102815780634f1ef286146102ae57806352d1902d146102c15780635d7c188c146102d657600080fd5b8062fdd58e1461014f57806301ffc9a7146101825780630e89341c146101b25780631e87ccce146101df578063229df6d6146101f45780632eb2c2d614610209575b600080fd5b34801561015b57600080fd5b5061016f61016a36600461260a565b6104bb565b6040519081526020015b60405180910390f35b34801561018e57600080fd5b506101a261019d36600461264c565b6104f2565b6040519015158152602001610179565b3480156101be57600080fd5b506101d26101cd366004612669565b610542565b60405161017991906126d2565b6101f26101ed3660046126e5565b6106aa565b005b34801561020057600080fd5b5061016f600581565b34801561021557600080fd5b506101f2610224366004612872565b610f87565b34801561023557600080fd5b50600054610249906001600160a01b031681565b6040516001600160a01b039091168152602001610179565b34801561026d57600080fd5b506101f261027c36600461291f565b610fee565b34801561028d57600080fd5b506102a161029c366004612958565b61116f565b6040516101799190612a54565b6101f26102bc366004612a67565b611243565b3480156102cd57600080fd5b5061016f611262565b3480156102e257600080fd5b5061016f6102f1366004612669565b60026020526000908152604090205481565b34801561030f57600080fd5b506101f261031e366004612aac565b61127f565b34801561032f57600080fd5b506101f261135d565b34801561034457600080fd5b506101f2610353366004612af0565b611371565b34801561036457600080fd5b507f9016d09d72d40fdae2fd8ceac6b6234c7706214fd39c1cd1e609a0528c199300546001600160a01b0316610249565b3480156103a157600080fd5b506101f26103b0366004612b37565b6113ec565b3480156103c157600080fd5b506101f26103d0366004612b65565b6113f7565b3480156103e157600080fd5b506101d2604051806040016040528060058152602001640352e302e360dc1b81525081565b34801561041257600080fd5b506101d2610421366004612669565b61152b565b34801561043257600080fd5b50610446610441366004612bb4565b611683565b60408051928352602083019190915201610179565b34801561046757600080fd5b506101a261047636600461291f565b611715565b34801561048757600080fd5b506101f2610496366004612bd6565b611762565b3480156104a757600080fd5b506101f26104b6366004612c3e565b6117c1565b600081815260008051602061316d833981519152602090815260408083206001600160a01b03861684529091529020545b92915050565b60006001600160e01b03198216636cdb3d1360e11b148061052357506001600160e01b031982166303a24d0760e21b145b806104ec57506301ffc9a760e01b6001600160e01b03198316146104ec565b60008181526001602052604081208054606092919061056090612c5b565b80601f016020809104026020016040519081016040528092919081815260200182805461058c90612c5b565b80156105d95780601f106105ae576101008083540402835291602001916105d9565b820191906000526020600020905b8154815290600101906020018083116105bc57829003601f168201915b505050505090506000815111156105f05792915050565b600083815260036020526040902054806106495760405162461bcd60e51b81526020600482015260156024820152742a37b5b2b7103237b2b9903737ba1032bc34b9ba1760591b60448201526064015b60405180910390fd5b60006106548261152b565b9050600060405180606001604052806023815260200161312a602391399050808261067e886117ff565b60405160200161069093929190612c95565b604051602081830303815290604052945050505050919050565b6106b2611891565b600082116107025760405162461bcd60e51b815260206004820152601d60248201527f416d6f756e74206d7573742062652067726561746572207468616e20300000006044820152606401610640565b600080546040516346c2c8a760e01b8152600481018790526001600160a01b03909116906346c2c8a790602401602060405180830381865afa15801561074c573d6000803e3d6000fd5b505050506040513d601f19601f820116820180604052508101906107709190612cf7565b9050600081600781111561078657610786612d18565b146107e55760405162461bcd60e51b815260206004820152602960248201527f53686f77206973206e6f7420617661696c61626c6520666f72207469636b657460448201526820707572636861736560b81b6064820152608401610640565b60008054604051635b9a1e0960e01b8152600481018890523360248201526001600160a01b0390911690635b9a1e0990604401600060405180830381865afa158015610835573d6000803e3d6000fd5b505050506040513d6000823e601f3d908101601f1916820160405261085d9190810190612d2e565b9050600584825161086e9190612dd4565b11156108c75760405162461bcd60e51b815260206004820152602260248201527f45786365656473206d6178696d756d207469636b657473207065722077616c6c604482015261195d60f21b6064820152608401610640565b60008054604051637e3e393560e01b8152600481018990526024810188905282916001600160a01b031690637e3e393590604401600060405180830381865afa158015610918573d6000803e3d6000fd5b505050506040513d6000823e601f3d908101601f191682016040526109409190810190612de7565b9250925050858110156109a75760405162461bcd60e51b815260206004820152602960248201527f4e6f7420656e6f756768207469636b65747320617661696c61626c6520696e206044820152683a3434b9903a34b2b960b91b6064820152608401610640565b60006109b38784612e70565b90506001600160a01b038616610a7757803414610a125760405162461bcd60e51b815260206004820152601860248201527f496e636f7272656374207061796d656e7420616d6f756e7400000000000000006044820152606401610640565b600054604051638526663560e01b8152600481018b90526001600160a01b039091169063852666359034906024016000604051808303818588803b158015610a5957600080fd5b505af1158015610a6d573d6000803e3d6000fd5b5050505050610bb4565b3415610ad15760405162461bcd60e51b815260206004820152602360248201527f4552433230207075726368617365732073686f756c64206e6f742073656e642060448201526208aa8960eb1b6064820152608401610640565b60405163a9059cbb60e01b81523060048201526024810182905286906001600160a01b0382169063a9059cbb906044016020604051808303816000875af1158015610b20573d6000803e3d6000fd5b505050506040513d601f19601f82011682018060405250810190610b449190612e87565b50600054604051634f8f2b2760e11b8152600481018c9052602481018490526001600160a01b03898116604483015290911690639f1e564e90606401600060405180830381600087803b158015610b9a57600080fd5b505af1158015610bae573d6000803e3d6000fd5b50505050505b60005b87811015610db45760008a8152600460205260408120548b908b908490610bdf906001612dd4565b610be99190612dd4565b60408051602081019490945283019190915260608201526080016040516020818303038152906040528051906020012060001c9050610c3a33826001604051806020016040528060008152506118db565b60008181526002602090815260408083208d905560039091528082208d90559054905163647b3f4b60e11b8152600481018d905233602482015260448101839052600160648201526001600160a01b039091169063c8f67e9690608401600060405180830381600087803b158015610cb157600080fd5b505af1158015610cc5573d6000803e3d6000fd5b505060005460405163de44006f60e01b8152600481018f9052336024820152604481018590526001600160a01b03909116925063de44006f9150606401600060405180830381600087803b158015610d1c57600080fd5b505af1158015610d30573d6000803e3d6000fd5b5050600054604051632f51f71760e21b8152600481018f905260248101859052604481018990526001600160a01b03909116925063bd47dc5c9150606401600060405180830381600087803b158015610d8857600080fd5b505af1158015610d9c573d6000803e3d6000fd5b50505050508080610dac90612ea4565b915050610bb7565b5060008981526004602052604081208054899290610dd3908490612dd4565b909155505060005460405163644b5e5960e01b8152600481018b9052602481018a9052604481018990526001600160a01b039091169063644b5e5990606401600060405180830381600087803b158015610e2c57600080fd5b505af1158015610e40573d6000803e3d6000fd5b5050600054604051630f0faed760e31b8152600481018d9052602481018b90526001600160a01b03909116925063787d76b89150604401600060405180830381600087803b158015610e9157600080fd5b505af1158015610ea5573d6000803e3d6000fd5b505060005460405163730c02a360e11b8152600481018d90526001600160a01b03909116925063e61805469150602401600060405180830381600087803b158015610eef57600080fd5b505af1158015610f03573d6000803e3d6000fd5b5050604080518b8152602081018b90526001600160a01b038a168183015290518c93503392507f8d48cfac1eec3bc9e4c1b3fb9b50bbb22093e0695cd37bbbdca8e873478271949181900360600190a35050505050610f8160017f9b779b17422d0df92223018b32b4d1fa46e071723d6817e2486d003becc55f0055565b50505050565b336001600160a01b0386168114801590610fa85750610fa68682611715565b155b15610fd95760405163711bec9160e11b81526001600160a01b03808316600483015287166024820152604401610640565b610fe6868686868661195e565b505050505050565b7ff0c57e16840df040f15088dc2f81fe391c3923bec73e23a9662efc9c229c6a008054600160401b810460ff1615906001600160401b03166000811580156110335750825b90506000826001600160401b0316600114801561104f5750303b155b90508115801561105d575080155b1561107b5760405163f92ee8a960e01b815260040160405180910390fd5b845467ffffffffffffffff1916600117855583156110a557845460ff60401b1916600160401b1785555b6110c66040518060600160405280602e815260200161318d602e91396119c5565b6110ce6119d6565b6110d7876119e6565b6110df6119f7565b600080546001600160a01b0319166001600160a01b03881617905560408051606081019091526025808252613105602083013960059061111f9082612f03565b50831561116657845460ff60401b19168555604051600181527fc7f505b2f371ae2175ee4913f4499e1f2633a7b5936321eed1cdaeb6115181d29060200160405180910390a15b50505050505050565b606081518351146111a05781518351604051635b05999160e01b815260048101929092526024820152604401610640565b600083516001600160401b038111156111bb576111bb612726565b6040519080825280602002602001820160405280156111e4578160200160208202803683370190505b50905060005b845181101561123b5760208082028601015161120e906020808402870101516104bb565b82828151811061122057611220612fc2565b602090810291909101015261123481612ea4565b90506111ea565b509392505050565b61124b6119ff565b61125482611aa4565b61125e8282611aac565b5050565b600061126c611b69565b5060008051602061314d83398151915290565b600054604051634bbe5c4f60e11b8152600481018390526001600160a01b039091169063977cb89e90602401602060405180830381865afa1580156112c8573d6000803e3d6000fd5b505050506040513d601f19601f820116820180604052508101906112ec9190612fd8565b6001600160a01b0316336001600160a01b03161461134c5760405162461bcd60e51b815260206004820152601b60248201527f43616c6c6572206973206e6f7420746865206f7267616e697a657200000000006044820152606401610640565b60056113588382612f03565b505050565b611365611bb2565b61136f6000611c0d565b565b6000546001600160a01b031633146113e15760405162461bcd60e51b815260206004820152602d60248201527f4f6e6c79207468652053686f7720636f6e74726163742063616e2063616c6c2060448201526c3a3434b990333ab731ba34b7b760991b6064820152608401610640565b611358818484611c7e565b61125e338383611ce6565b600054604051634bbe5c4f60e11b8152600481018590526001600160a01b039091169063977cb89e90602401602060405180830381865afa158015611440573d6000803e3d6000fd5b505050506040513d601f19601f820116820180604052508101906114649190612fd8565b6001600160a01b0316336001600160a01b0316146114d55760405162461bcd60e51b815260206004820152602860248201527f43616c6c6572206973206e6f7420746865206f7267616e697a6572206f6620746044820152676869732073686f7760c01b6064820152608401610640565b60008281526001602052604090206114ed8282612f03565b50817f6bb7ff708619ba0610cba295a58592e0451dee2622938c8755667688daf3529b8260405161151e91906126d2565b60405180910390a2505050565b604080518082018252601081526f181899199a1a9b1b9c1cb0b131b232b360811b6020820152815182815260608181018452926000919060208201818036833701905050905060005b602081101561123b5782600486836020811061159257611592612fc2565b1a60f81b6001600160f81b031916901c60f81c60ff16815181106115b8576115b8612fc2565b01602001516001600160f81b031916826115d3836002612e70565b815181106115e3576115e3612fc2565b60200101906001600160f81b031916908160001a9053508285826020811061160d5761160d612fc2565b825191901a600f1690811061162457611624612fc2565b01602001516001600160f81b0319168261163f836002612e70565b61164a906001612dd4565b8151811061165a5761165a612fc2565b60200101906001600160f81b031916908160001a9053508061167b81612ea4565b915050611574565b600080546040516293d4e160e81b81526004810185905260248101849052829182916001600160a01b03909116906393d4e10090604401602060405180830381865afa1580156116d7573d6000803e3d6000fd5b505050506040513d601f19601f820116820180604052508101906116fb9190612ff5565b600094855260026020526040909420549395939450505050565b6001600160a01b0391821660009081527f88be536d5240c274a3b1d3a1be54482fd9caa294f08c62a7cde569f49a3c45016020908152604080832093909416825291909152205460ff1690565b336001600160a01b038616811480159061178357506117818682611715565b155b156117b45760405163711bec9160e11b81526001600160a01b03808316600483015287166024820152604401610640565b610fe68686868686611d8e565b6117c9611bb2565b6001600160a01b0381166117f357604051631e4fbdf760e01b815260006004820152602401610640565b6117fc81611c0d565b50565b6060600061180c83611e13565b60010190506000816001600160401b0381111561182b5761182b612726565b6040519080825280601f01601f191660200182016040528015611855576020820181803683370190505b5090508181016020015b600019016f181899199a1a9b1b9c1cb0b131b232b360811b600a86061a8153600a850494508461185f57509392505050565b7f9b779b17422d0df92223018b32b4d1fa46e071723d6817e2486d003becc55f008054600119016118d557604051633ee5aeb560e01b815260040160405180910390fd5b60029055565b6001600160a01b03841661190557604051632bfa23e760e11b815260006004820152602401610640565b60408051600180825260208201869052818301908152606082018590526080820190925290610fe6600087848487611eeb565b60017f9b779b17422d0df92223018b32b4d1fa46e071723d6817e2486d003becc55f0055565b6001600160a01b03841661198857604051632bfa23e760e11b815260006004820152602401610640565b6001600160a01b0385166119b157604051626a0d4560e21b815260006004820152602401610640565b6119be8585858585611eeb565b5050505050565b6119cd611f3e565b6117fc81611f87565b6119de611f3e565b61136f611f98565b6119ee611f3e565b6117fc81611fa0565b61136f611f3e565b306001600160a01b037f0000000000000000000000000000000000000000000000000000000000000000161480611a8657507f00000000000000000000000000000000000000000000000000000000000000006001600160a01b0316611a7a60008051602061314d833981519152546001600160a01b031690565b6001600160a01b031614155b1561136f5760405163703e46dd60e11b815260040160405180910390fd5b6117fc611bb2565b816001600160a01b03166352d1902d6040518163ffffffff1660e01b8152600401602060405180830381865afa925050508015611b06575060408051601f3d908101601f19168201909252611b0391810190612ff5565b60015b611b2e57604051634c9c8ce360e01b81526001600160a01b0383166004820152602401610640565b60008051602061314d8339815191528114611b5f57604051632a87526960e21b815260048101829052602401610640565b6113588383611fa8565b306001600160a01b037f0000000000000000000000000000000000000000000000000000000000000000161461136f5760405163703e46dd60e11b815260040160405180910390fd5b33611be47f9016d09d72d40fdae2fd8ceac6b6234c7706214fd39c1cd1e609a0528c199300546001600160a01b031690565b6001600160a01b03161461136f5760405163118cdaa760e01b8152336004820152602401610640565b7f9016d09d72d40fdae2fd8ceac6b6234c7706214fd39c1cd1e609a0528c19930080546001600160a01b031981166001600160a01b03848116918217845560405192169182907f8be0079c531659141344cd1fd0a4f28419497f9722a3daafe3b4186f6b6457e090600090a3505050565b6001600160a01b038316611ca757604051626a0d4560e21b815260006004820152602401610640565b604080516001808252602082018590528183019081526060820184905260a082019092526000608082018181529192916119be91879185908590611eeb565b60008051602061316d8339815191526001600160a01b038316611d1e5760405162ced3e160e81b815260006004820152602401610640565b6001600160a01b038481166000818152600184016020908152604080832094881680845294825291829020805460ff191687151590811790915591519182527f17307eab39ab6107e8899845ad3d59bd9653f200f220920489ca2b5937696c31910160405180910390a350505050565b6001600160a01b038416611db857604051632bfa23e760e11b815260006004820152602401610640565b6001600160a01b038516611de157604051626a0d4560e21b815260006004820152602401610640565b604080516001808252602082018690528183019081526060820185905260808201909252906111668787848487611eeb565b60008072184f03e93ff9f4daa797ed6e38ed64bf6a1f0160401b8310611e525772184f03e93ff9f4daa797ed6e38ed64bf6a1f0160401b830492506040015b6d04ee2d6d415b85acef81000000008310611e7e576d04ee2d6d415b85acef8100000000830492506020015b662386f26fc100008310611e9c57662386f26fc10000830492506010015b6305f5e1008310611eb4576305f5e100830492506008015b6127108310611ec857612710830492506004015b60648310611eda576064830492506002015b600a83106104ec5760010192915050565b611ef785858585611ffe565b6001600160a01b038416156119be5782513390600103611f305760208481015190840151611f2983898985858961222c565b5050610fe6565b610fe6818787878787612350565b7ff0c57e16840df040f15088dc2f81fe391c3923bec73e23a9662efc9c229c6a0054600160401b900460ff1661136f57604051631afcd79f60e31b815260040160405180910390fd5b611f8f611f3e565b6117fc81612439565b611938611f3e565b6117c9611f3e565b611fb182612473565b6040516001600160a01b038316907fbc7cd75a20ee27fd9adebab32041f755214dbc6bffa90cc0225b39da2e5c2d3b90600090a2805115611ff65761135882826124d8565b61125e61254e565b8051825160008051602061316d833981519152911461203d5782518251604051635b05999160e01b815260048101929092526024820152604401610640565b3360005b845181101561214c576020818102868101820151908601909101516001600160a01b038916156120f4576000828152602086815260408083206001600160a01b038d168452909152902054818110156120cd576040516303dee4c560e01b81526001600160a01b038b166004820152602481018290526044810183905260648101849052608401610640565b6000838152602087815260408083206001600160a01b038e16845290915290209082900390555b6001600160a01b03881615612139576000828152602086815260408083206001600160a01b038c16845290915281208054839290612133908490612dd4565b90915550505b50508061214590612ea4565b9050612041565b5083516001036121cd5760208401516000906020850151909150866001600160a01b0316886001600160a01b0316846001600160a01b03167fc3d58168c5ae7397731d063d5bbf3d657854427343f4c083240f7aacaa2d0f6285856040516121be929190918252602082015260400190565b60405180910390a45050610fe6565b846001600160a01b0316866001600160a01b0316826001600160a01b03167f4a39dc06d4c0dbc64b70af90fd698a233a518aa5d07e595d983b8c0526c8f7fb878760405161221c92919061300e565b60405180910390a4505050505050565b6001600160a01b0384163b15610fe65760405163f23a6e6160e01b81526001600160a01b0385169063f23a6e61906122709089908990889088908890600401613033565b6020604051808303816000875af19250505080156122ab575060408051601f3d908101601f191682019092526122a89181019061306d565b60015b612314573d8080156122d9576040519150601f19603f3d011682016040523d82523d6000602084013e6122de565b606091505b50805160000361230c57604051632bfa23e760e11b81526001600160a01b0386166004820152602401610640565b805181602001fd5b6001600160e01b0319811663f23a6e6160e01b1461116657604051632bfa23e760e11b81526001600160a01b0386166004820152602401610640565b6001600160a01b0384163b15610fe65760405163bc197c8160e01b81526001600160a01b0385169063bc197c8190612394908990899088908890889060040161308a565b6020604051808303816000875af19250505080156123cf575060408051601f3d908101601f191682019092526123cc9181019061306d565b60015b6123fd573d8080156122d9576040519150601f19603f3d011682016040523d82523d6000602084013e6122de565b6001600160e01b0319811663bc197c8160e01b1461116657604051632bfa23e760e11b81526001600160a01b0386166004820152602401610640565b60008051602061316d8339815191527f88be536d5240c274a3b1d3a1be54482fd9caa294f08c62a7cde569f49a3c45026113588382612f03565b806001600160a01b03163b6000036124a957604051634c9c8ce360e01b81526001600160a01b0382166004820152602401610640565b60008051602061314d83398151915280546001600160a01b0319166001600160a01b0392909216919091179055565b6060600080846001600160a01b0316846040516124f591906130e8565b600060405180830381855af49150503d8060008114612530576040519150601f19603f3d011682016040523d82523d6000602084013e612535565b606091505b509150915061254585838361256d565b95945050505050565b341561136f5760405163b398979f60e01b815260040160405180910390fd5b6060826125825761257d826125cc565b6125c5565b815115801561259957506001600160a01b0384163b155b156125c257604051639996b31560e01b81526001600160a01b0385166004820152602401610640565b50805b9392505050565b8051156125dc5780518082602001fd5b604051630a12f52160e11b815260040160405180910390fd5b6001600160a01b03811681146117fc57600080fd5b6000806040838503121561261d57600080fd5b8235612628816125f5565b946020939093013593505050565b6001600160e01b0319811681146117fc57600080fd5b60006020828403121561265e57600080fd5b81356125c581612636565b60006020828403121561267b57600080fd5b5035919050565b60005b8381101561269d578181015183820152602001612685565b50506000910152565b600081518084526126be816020860160208601612682565b601f01601f19169290920160200192915050565b6020815260006125c560208301846126a6565b600080600080608085870312156126fb57600080fd5b843593506020850135925060408501359150606085013561271b816125f5565b939692955090935050565b634e487b7160e01b600052604160045260246000fd5b604051601f8201601f191681016001600160401b038111828210171561276457612764612726565b604052919050565b60006001600160401b0382111561278557612785612726565b5060051b60200190565b600082601f8301126127a057600080fd5b813560206127b56127b08361276c565b61273c565b82815260059290921b840181019181810190868411156127d457600080fd5b8286015b848110156127ef57803583529183019183016127d8565b509695505050505050565b60006001600160401b0382111561281357612813612726565b50601f01601f191660200190565b600082601f83011261283257600080fd5b81356128406127b0826127fa565b81815284602083860101111561285557600080fd5b816020850160208301376000918101602001919091529392505050565b600080600080600060a0868803121561288a57600080fd5b8535612895816125f5565b945060208601356128a5816125f5565b935060408601356001600160401b03808211156128c157600080fd5b6128cd89838a0161278f565b945060608801359150808211156128e357600080fd5b6128ef89838a0161278f565b9350608088013591508082111561290557600080fd5b5061291288828901612821565b9150509295509295909350565b6000806040838503121561293257600080fd5b823561293d816125f5565b9150602083013561294d816125f5565b809150509250929050565b6000806040838503121561296b57600080fd5b82356001600160401b038082111561298257600080fd5b818501915085601f83011261299657600080fd5b813560206129a66127b08361276c565b82815260059290921b840181019181810190898411156129c557600080fd5b948201945b838610156129ec5785356129dd816125f5565b825294820194908201906129ca565b96505086013592505080821115612a0257600080fd5b50612a0f8582860161278f565b9150509250929050565b600081518084526020808501945080840160005b83811015612a4957815187529582019590820190600101612a2d565b509495945050505050565b6020815260006125c56020830184612a19565b60008060408385031215612a7a57600080fd5b8235612a85816125f5565b915060208301356001600160401b03811115612aa057600080fd5b612a0f85828601612821565b60008060408385031215612abf57600080fd5b82356001600160401b03811115612ad557600080fd5b612ae185828601612821565b95602094909401359450505050565b600080600060608486031215612b0557600080fd5b83359250602084013591506040840135612b1e816125f5565b809150509250925092565b80151581146117fc57600080fd5b60008060408385031215612b4a57600080fd5b8235612b55816125f5565b9150602083013561294d81612b29565b600080600060608486031215612b7a57600080fd5b833592506020840135915060408401356001600160401b03811115612b9e57600080fd5b612baa86828701612821565b9150509250925092565b60008060408385031215612bc757600080fd5b50508035926020909101359150565b600080600080600060a08688031215612bee57600080fd5b8535612bf9816125f5565b94506020860135612c09816125f5565b9350604086013592506060860135915060808601356001600160401b03811115612c3257600080fd5b61291288828901612821565b600060208284031215612c5057600080fd5b81356125c5816125f5565b600181811c90821680612c6f57607f821691505b602082108103612c8f57634e487b7160e01b600052602260045260246000fd5b50919050565b60008451612ca7818460208901612682565b845190830190612cbb818360208901612682565b602f60f81b91019081528351612cd8816001840160208801612682565b64173539b7b760d91b6001929091019182015260060195945050505050565b600060208284031215612d0957600080fd5b8151600881106125c557600080fd5b634e487b7160e01b600052602160045260246000fd5b60006020808385031215612d4157600080fd5b82516001600160401b03811115612d5757600080fd5b8301601f81018513612d6857600080fd5b8051612d766127b08261276c565b81815260059190911b82018301908381019087831115612d9557600080fd5b928401925b82841015612db357835182529284019290840190612d9a565b979650505050505050565b634e487b7160e01b600052601160045260246000fd5b808201808211156104ec576104ec612dbe565b600080600060608486031215612dfc57600080fd5b83516001600160401b03811115612e1257600080fd5b8401601f81018613612e2357600080fd5b8051612e316127b0826127fa565b818152876020838501011115612e4657600080fd5b612e57826020830160208601612682565b6020870151604090970151909896975095945050505050565b80820281158282048414176104ec576104ec612dbe565b600060208284031215612e9957600080fd5b81516125c581612b29565b600060018201612eb657612eb6612dbe565b5060010190565b601f82111561135857600081815260208120601f850160051c81016020861015612ee45750805b601f850160051c820191505b81811015610fe657828155600101612ef0565b81516001600160401b03811115612f1c57612f1c612726565b612f3081612f2a8454612c5b565b84612ebd565b602080601f831160018114612f655760008415612f4d5750858301515b600019600386901b1c1916600185901b178555610fe6565b600085815260208120601f198616915b82811015612f9457888601518255948401946001909101908401612f75565b5085821015612fb25787850151600019600388901b60f8161c191681555b5050505050600190811b01905550565b634e487b7160e01b600052603260045260246000fd5b600060208284031215612fea57600080fd5b81516125c5816125f5565b60006020828403121561300757600080fd5b5051919050565b6040815260006130216040830185612a19565b82810360208401526125458185612a19565b6001600160a01b03868116825285166020820152604081018490526060810183905260a060808201819052600090612db3908301846126a6565b60006020828403121561307f57600080fd5b81516125c581612636565b6001600160a01b0386811682528516602082015260a0604082018190526000906130b690830186612a19565b82810360608401526130c88186612a19565b905082810360808401526130dc81856126a6565b98975050505050505050565b600082516130fa818460208701612682565b919091019291505056fe68747470733a2f2f6d657461646174612e73656c6c6f7574732e6170702f7469636b65742f68747470733a2f2f6d657461646174612e73656c6c6f7574732e6170702f73686f772f360894a13ba1a3210667c828492db98dca3e2076cc3735a920a3ca505d382bbc88be536d5240c274a3b1d3a1be54482fd9caa294f08c62a7cde569f49a3c450068747470733a2f2f6d657461646174612e73656c6c6f7574732e6170702f7469636b65742f7b69647d2e6a736f6ea26469706673582212209753c89896c612abf884c5b2a4b2a79907b344c4948c941906f9492d45e9bc9964736f6c63430008140033","linkReferences":{}},"methodIdentifiers":{"MAX_TICKETS_PER_WALLET()":"229df6d6","UPGRADE_INTERFACE_VERSION()":"ad3cb1cc","balanceOf(address,uint256)":"00fdd58e","balanceOfBatch(address[],uint256[])":"4e1273f4","burnTokens(uint256,uint256,address)":"87f9ca5d","bytes32ToHexString(bytes32)":"c68b3787","getTicketPricePaidAndTierIndex(bytes32,uint256)":"da3a7616","initialize(address,address)":"485cc955","isApprovedForAll(address,address)":"e985e9c5","owner()":"8da5cb5b","proxiableUUID()":"52d1902d","purchaseTickets(bytes32,uint256,uint256,address)":"1e87ccce","renounceOwnership()":"715018a6","safeBatchTransferFrom(address,address,uint256[],uint256[],bytes)":"2eb2c2d6","safeTransferFrom(address,address,uint256,uint256,bytes)":"f242432a","setApprovalForAll(address,bool)":"a22cb465","setDefaultURI(string,bytes32)":"5dbab132","setTokenURI(bytes32,uint256,string)":"a7d22597","showInstance()":"404f49d1","supportsInterface(bytes4)":"01ffc9a7","ticketIdToTierIndex(uint256)":"5d7c188c","transferOwnership(address)":"f2fde38b","upgradeToAndCall(address,bytes)":"4f1ef286","uri(uint256)":"0e89341c"},"id":64}