{"abi":[{"type":"function","name":"UPGRADE_INTERFACE_VERSION","inputs":[],"outputs":[{"name":"","type":"string","internalType":"string"}],"stateMutability":"view"},{"type":"function","name":"createTicketProxy","inputs":[{"name":"initialOwner","type":"address","internalType":"address"}],"outputs":[{"name":"","type":"address","internalType":"address"}],"stateMutability":"nonpayable"},{"type":"function","name":"deployedTickets","inputs":[{"name":"","type":"uint256","internalType":"uint256"}],"outputs":[{"name":"","type":"address","internalType":"address"}],"stateMutability":"view"},{"type":"function","name":"getDeployedTickets","inputs":[],"outputs":[{"name":"","type":"address[]","internalType":"address[]"}],"stateMutability":"view"},{"type":"function","name":"initialize","inputs":[{"name":"_ticketImplementation","type":"address","internalType":"address"},{"name":"_version","type":"string","internalType":"string"},{"name":"_showAddress","type":"address","internalType":"address"}],"outputs":[],"stateMutability":"nonpayable"},{"type":"function","name":"owner","inputs":[],"outputs":[{"name":"","type":"address","internalType":"address"}],"stateMutability":"view"},{"type":"function","name":"proxiableUUID","inputs":[],"outputs":[{"name":"","type":"bytes32","internalType":"bytes32"}],"stateMutability":"view"},{"type":"function","name":"renounceOwnership","inputs":[],"outputs":[],"stateMutability":"nonpayable"},{"type":"function","name":"setVersion","inputs":[{"name":"_version","type":"string","internalType":"string"}],"outputs":[],"stateMutability":"nonpayable"},{"type":"function","name":"showAddress","inputs":[],"outputs":[{"name":"","type":"address","internalType":"address"}],"stateMutability":"view"},{"type":"function","name":"ticketImplementation","inputs":[],"outputs":[{"name":"","type":"address","internalType":"address"}],"stateMutability":"view"},{"type":"function","name":"transferOwnership","inputs":[{"name":"newOwner","type":"address","internalType":"address"}],"outputs":[],"stateMutability":"nonpayable"},{"type":"function","name":"updateTicketImplementation","inputs":[{"name":"newImplementation","type":"address","internalType":"address"}],"outputs":[],"stateMutability":"nonpayable"},{"type":"function","name":"upgradeToAndCall","inputs":[{"name":"newImplementation","type":"address","internalType":"address"},{"name":"data","type":"bytes","internalType":"bytes"}],"outputs":[],"stateMutability":"payable"},{"type":"function","name":"version","inputs":[],"outputs":[{"name":"","type":"string","internalType":"string"}],"stateMutability":"view"},{"type":"event","name":"Initialized","inputs":[{"name":"version","type":"uint64","indexed":false,"internalType":"uint64"}],"anonymous":false},{"type":"event","name":"OwnershipTransferred","inputs":[{"name":"previousOwner","type":"address","indexed":true,"internalType":"address"},{"name":"newOwner","type":"address","indexed":true,"internalType":"address"}],"anonymous":false},{"type":"event","name":"TicketProxyCreated","inputs":[{"name":"ticketProxy","type":"address","indexed":true,"internalType":"address"}],"anonymous":false},{"type":"event","name":"Upgraded","inputs":[{"name":"implementation","type":"address","indexed":true,"internalType":"address"}],"anonymous":false},{"type":"error","name":"AddressEmptyCode","inputs":[{"name":"target","type":"address","internalType":"address"}]},{"type":"error","name":"ERC1967InvalidImplementation","inputs":[{"name":"implementation","type":"address","internalType":"address"}]},{"type":"error","name":"ERC1967NonPayable","inputs":[]},{"type":"error","name":"FailedInnerCall","inputs":[]},{"type":"error","name":"InvalidInitialization","inputs":[]},{"type":"error","name":"NotInitializing","inputs":[]},{"type":"error","name":"OwnableInvalidOwner","inputs":[{"name":"owner","type":"address","internalType":"address"}]},{"type":"error","name":"OwnableUnauthorizedAccount","inputs":[{"name":"account","type":"address","internalType":"address"}]},{"type":"error","name":"UUPSUnauthorizedCallContext","inputs":[]},{"type":"error","name":"UUPSUnsupportedProxiableUUID","inputs":[{"name":"slot","type":"bytes32","internalType":"bytes32"}]}],"bytecode":{"object":"0x60a06040523060805234801561001457600080fd5b5060805161120961003e6000396000818161080e01528181610837015261097d01526112096000f3fe6080604052600436106100e85760003560e01c8063788bc78c1161008a578063ad3cb1cc11610059578063ad3cb1cc1461027c578063d83e7bfa146102ad578063de4ed3cf146102cd578063f2fde38b146102ed57600080fd5b8063788bc78c146101df5780637bb7c0d8146101ff57806385ffebd71461021f5780638da5cb5b1461023f57600080fd5b80634f1ef286116100c65780634f1ef2861461017257806352d1902d1461018557806354fd4d50146101a8578063715018a6146101ca57600080fd5b80630d7c6d68146100ed578063232b158b146101185780633a72eeab1461013a575b600080fd5b3480156100f957600080fd5b5061010261030d565b60405161010f9190610d03565b60405180910390f35b34801561012457600080fd5b50610138610133366004610d67565b61036f565b005b34801561014657600080fd5b5060005461015a906001600160a01b031681565b6040516001600160a01b03909116815260200161010f565b610138610180366004610e0e565b610399565b34801561019157600080fd5b5061019a6103b8565b60405190815260200161010f565b3480156101b457600080fd5b506101bd6103d5565b60405161010f9190610e94565b3480156101d657600080fd5b50610138610463565b3480156101eb57600080fd5b506101386101fa366004610ee7565b610477565b34801561020b57600080fd5b5061013861021a366004610f24565b61048b565b34801561022b57600080fd5b5060035461015a906001600160a01b031681565b34801561024b57600080fd5b507f9016d09d72d40fdae2fd8ceac6b6234c7706214fd39c1cd1e609a0528c199300546001600160a01b031661015a565b34801561028857600080fd5b506101bd604051806040016040528060058152602001640352e302e360dc1b81525081565b3480156102b957600080fd5b5061015a6102c8366004610f82565b6105e8565b3480156102d957600080fd5b5061015a6102e8366004610d67565b610612565b3480156102f957600080fd5b50610138610308366004610d67565b61076a565b6060600180548060200260200160405190810160405280929190818152602001828054801561036557602002820191906000526020600020905b81546001600160a01b03168152600190910190602001808311610347575b5050505050905090565b6103776107a8565b600080546001600160a01b0319166001600160a01b0392909216919091179055565b6103a1610803565b6103aa826108a8565b6103b482826108b0565b5050565b60006103c2610972565b506000805160206111b483398151915290565b600280546103e290610f9b565b80601f016020809104026020016040519081016040528092919081815260200182805461040e90610f9b565b801561045b5780601f106104305761010080835404028352916020019161045b565b820191906000526020600020905b81548152906001019060200180831161043e57829003601f168201915b505050505081565b61046b6107a8565b61047560006109bb565b565b61047f6107a8565b60026103b48282611023565b7ff0c57e16840df040f15088dc2f81fe391c3923bec73e23a9662efc9c229c6a008054600160401b810460ff16159067ffffffffffffffff166000811580156104d15750825b905060008267ffffffffffffffff1660011480156104ee5750303b155b9050811580156104fc575080155b1561051a5760405163f92ee8a960e01b815260040160405180910390fd5b845467ffffffffffffffff19166001178555831561054457845460ff60401b1916600160401b1785555b61054d33610a2c565b610555610a3d565b600080546001600160a01b0319166001600160a01b038a16179055600261057c8882611023565b50600380546001600160a01b0319166001600160a01b03881617905583156105de57845460ff60401b19168555604051600181527fc7f505b2f371ae2175ee4913f4499e1f2633a7b5936321eed1cdaeb6115181d29060200160405180910390a15b5050505050505050565b600181815481106105f857600080fd5b6000918252602090912001546001600160a01b0316905081565b6003546000906001600160a01b031633146106745760405162461bcd60e51b815260206004820152601f60248201527f43616c6c6572206973206e6f74207468652053686f7720636f6e74726163740060448201526064015b60405180910390fd5b6000805461068a906001600160a01b0316610a45565b6040516379ccf11760e11b81529091506001600160a01b0382169063f399e22e906106bc9086906002906004016110e3565b600060405180830381600087803b1580156106d657600080fd5b505af11580156106ea573d6000803e3d6000fd5b505060018054808201825560009182527fb10e2d527612073b26eecdfd717e6a320cf44b4afac2b0732d9fcbe2b7fa0cf60180546001600160a01b0319166001600160a01b0386169081179091556040519093507f921a2f25ad8eeed2d79f7b3300fb94d379240a97945e6c75848cba3a6d609ca49250a290505b919050565b6107726107a8565b6001600160a01b03811661079c57604051631e4fbdf760e01b81526000600482015260240161066b565b6107a5816109bb565b50565b336107da7f9016d09d72d40fdae2fd8ceac6b6234c7706214fd39c1cd1e609a0528c199300546001600160a01b031690565b6001600160a01b0316146104755760405163118cdaa760e01b815233600482015260240161066b565b306001600160a01b037f000000000000000000000000000000000000000000000000000000000000000016148061088a57507f00000000000000000000000000000000000000000000000000000000000000006001600160a01b031661087e6000805160206111b4833981519152546001600160a01b031690565b6001600160a01b031614155b156104755760405163703e46dd60e11b815260040160405180910390fd5b6107a56107a8565b816001600160a01b03166352d1902d6040518163ffffffff1660e01b8152600401602060405180830381865afa92505050801561090a575060408051601f3d908101601f191682019092526109079181019061117e565b60015b61093257604051634c9c8ce360e01b81526001600160a01b038316600482015260240161066b565b6000805160206111b4833981519152811461096357604051632a87526960e21b81526004810182905260240161066b565b61096d8383610ada565b505050565b306001600160a01b037f000000000000000000000000000000000000000000000000000000000000000016146104755760405163703e46dd60e11b815260040160405180910390fd5b7f9016d09d72d40fdae2fd8ceac6b6234c7706214fd39c1cd1e609a0528c19930080546001600160a01b031981166001600160a01b03848116918217845560405192169182907f8be0079c531659141344cd1fd0a4f28419497f9722a3daafe3b4186f6b6457e090600090a3505050565b610a34610b30565b6107a581610b79565b610475610b30565b6000763d602d80600a3d3981f3363d3d373d3d3d363d730000008260601b60e81c176000526e5af43d82803e903d91602b57fd5bf38260781b17602052603760096000f090506001600160a01b0381166107655760405162461bcd60e51b8152602060048201526016602482015275115490cc4c4d8dce8818dc99585d194819985a5b195960521b604482015260640161066b565b610ae382610b81565b6040516001600160a01b038316907fbc7cd75a20ee27fd9adebab32041f755214dbc6bffa90cc0225b39da2e5c2d3b90600090a2805115610b285761096d8282610be6565b6103b4610c5c565b7ff0c57e16840df040f15088dc2f81fe391c3923bec73e23a9662efc9c229c6a0054600160401b900460ff1661047557604051631afcd79f60e31b815260040160405180910390fd5b610772610b30565b806001600160a01b03163b600003610bb757604051634c9c8ce360e01b81526001600160a01b038216600482015260240161066b565b6000805160206111b483398151915280546001600160a01b0319166001600160a01b0392909216919091179055565b6060600080846001600160a01b031684604051610c039190611197565b600060405180830381855af49150503d8060008114610c3e576040519150601f19603f3d011682016040523d82523d6000602084013e610c43565b606091505b5091509150610c53858383610c7b565b95945050505050565b34156104755760405163b398979f60e01b815260040160405180910390fd5b606082610c9057610c8b82610cda565b610cd3565b8151158015610ca757506001600160a01b0384163b155b15610cd057604051639996b31560e01b81526001600160a01b038516600482015260240161066b565b50805b9392505050565b805115610cea5780518082602001fd5b604051630a12f52160e11b815260040160405180910390fd5b6020808252825182820181905260009190848201906040850190845b81811015610d445783516001600160a01b031683529284019291840191600101610d1f565b50909695505050505050565b80356001600160a01b038116811461076557600080fd5b600060208284031215610d7957600080fd5b610cd382610d50565b634e487b7160e01b600052604160045260246000fd5b600067ffffffffffffffff80841115610db357610db3610d82565b604051601f8501601f19908116603f01168101908282118183101715610ddb57610ddb610d82565b81604052809350858152868686011115610df457600080fd5b858560208301376000602087830101525050509392505050565b60008060408385031215610e2157600080fd5b610e2a83610d50565b9150602083013567ffffffffffffffff811115610e4657600080fd5b8301601f81018513610e5757600080fd5b610e6685823560208401610d98565b9150509250929050565b60005b83811015610e8b578181015183820152602001610e73565b50506000910152565b6020815260008251806020840152610eb3816040850160208701610e70565b601f01601f19169190910160400192915050565b600082601f830112610ed857600080fd5b610cd383833560208501610d98565b600060208284031215610ef957600080fd5b813567ffffffffffffffff811115610f1057600080fd5b610f1c84828501610ec7565b949350505050565b600080600060608486031215610f3957600080fd5b610f4284610d50565b9250602084013567ffffffffffffffff811115610f5e57600080fd5b610f6a86828701610ec7565b925050610f7960408501610d50565b90509250925092565b600060208284031215610f9457600080fd5b5035919050565b600181811c90821680610faf57607f821691505b602082108103610fcf57634e487b7160e01b600052602260045260246000fd5b50919050565b601f82111561096d57600081815260208120601f850160051c81016020861015610ffc5750805b601f850160051c820191505b8181101561101b57828155600101611008565b505050505050565b815167ffffffffffffffff81111561103d5761103d610d82565b6110518161104b8454610f9b565b84610fd5565b602080601f831160018114611086576000841561106e5750858301515b600019600386901b1c1916600185901b17855561101b565b600085815260208120601f198616915b828110156110b557888601518255948401946001909101908401611096565b50858210156110d35787850151600019600388901b60f8161c191681555b5050505050600190811b01905550565b60018060a01b0383168152600060206040818401526000845461110581610f9b565b806040870152606060018084166000811461112757600181146111415761116f565b60ff1985168984015283151560051b89018301955061116f565b896000528660002060005b858110156111675781548b820186015290830190880161114c565b8a0184019650505b50939998505050505050505050565b60006020828403121561119057600080fd5b5051919050565b600082516111a9818460208701610e70565b919091019291505056fe360894a13ba1a3210667c828492db98dca3e2076cc3735a920a3ca505d382bbca264697066735822122047e349f9d78535fa29c455e874d2075446da640389bdf24ac54c7f16e538370864736f6c63430008140033","linkReferences":{}},"methodIdentifiers":{"UPGRADE_INTERFACE_VERSION()":"ad3cb1cc","createTicketProxy(address)":"de4ed3cf","deployedTickets(uint256)":"d83e7bfa","getDeployedTickets()":"0d7c6d68","initialize(address,string,address)":"7bb7c0d8","owner()":"8da5cb5b","proxiableUUID()":"52d1902d","renounceOwnership()":"715018a6","setVersion(string)":"788bc78c","showAddress()":"85ffebd7","ticketImplementation()":"3a72eeab","transferOwnership(address)":"f2fde38b","updateTicketImplementation(address)":"232b158b","upgradeToAndCall(address,bytes)":"4f1ef286","version()":"54fd4d50"},"id":70}