{"abi":[{"type":"function","name":"MAX_TICKETS_PER_WALLET","inputs":[],"outputs":[{"name":"","type":"uint256","internalType":"uint256"}],"stateMutability":"view"},{"type":"function","name":"UPGRADE_INTERFACE_VERSION","inputs":[],"outputs":[{"name":"","type":"string","internalType":"string"}],"stateMutability":"view"},{"type":"function","name":"balanceOf","inputs":[{"name":"account","type":"address","internalType":"address"},{"name":"id","type":"uint256","internalType":"uint256"}],"outputs":[{"name":"","type":"uint256","internalType":"uint256"}],"stateMutability":"view"},{"type":"function","name":"balanceOfBatch","inputs":[{"name":"accounts","type":"address[]","internalType":"address[]"},{"name":"ids","type":"uint256[]","internalType":"uint256[]"}],"outputs":[{"name":"","type":"uint256[]","internalType":"uint256[]"}],"stateMutability":"view"},{"type":"function","name":"burnTokens","inputs":[{"name":"tokenId","type":"uint256","internalType":"uint256"},{"name":"amount","type":"uint256","internalType":"uint256"},{"name":"owner","type":"address","internalType":"address"}],"outputs":[],"stateMutability":"nonpayable"},{"type":"function","name":"initialize","inputs":[{"name":"initialOwner","type":"address","internalType":"address"},{"name":"_showContractAddress","type":"address","internalType":"address"}],"outputs":[],"stateMutability":"nonpayable"},{"type":"function","name":"isApprovedForAll","inputs":[{"name":"account","type":"address","internalType":"address"},{"name":"operator","type":"address","internalType":"address"}],"outputs":[{"name":"","type":"bool","internalType":"bool"}],"stateMutability":"view"},{"type":"function","name":"owner","inputs":[],"outputs":[{"name":"","type":"address","internalType":"address"}],"stateMutability":"view"},{"type":"function","name":"proxiableUUID","inputs":[],"outputs":[{"name":"","type":"bytes32","internalType":"bytes32"}],"stateMutability":"view"},{"type":"function","name":"purchaseTickets","inputs":[{"name":"showId","type":"bytes32","internalType":"bytes32"},{"name":"amount","type":"uint256","internalType":"uint256"}],"outputs":[],"stateMutability":"payable"},{"type":"function","name":"renounceOwnership","inputs":[],"outputs":[],"stateMutability":"nonpayable"},{"type":"function","name":"safeBatchTransferFrom","inputs":[{"name":"from","type":"address","internalType":"address"},{"name":"to","type":"address","internalType":"address"},{"name":"ids","type":"uint256[]","internalType":"uint256[]"},{"name":"values","type":"uint256[]","internalType":"uint256[]"},{"name":"data","type":"bytes","internalType":"bytes"}],"outputs":[],"stateMutability":"nonpayable"},{"type":"function","name":"safeTransferFrom","inputs":[{"name":"from","type":"address","internalType":"address"},{"name":"to","type":"address","internalType":"address"},{"name":"id","type":"uint256","internalType":"uint256"},{"name":"value","type":"uint256","internalType":"uint256"},{"name":"data","type":"bytes","internalType":"bytes"}],"outputs":[],"stateMutability":"nonpayable"},{"type":"function","name":"setApprovalForAll","inputs":[{"name":"operator","type":"address","internalType":"address"},{"name":"approved","type":"bool","internalType":"bool"}],"outputs":[],"stateMutability":"nonpayable"},{"type":"function","name":"setDefaultURI","inputs":[{"name":"newDefaultURI","type":"string","internalType":"string"},{"name":"showId","type":"bytes32","internalType":"bytes32"}],"outputs":[],"stateMutability":"nonpayable"},{"type":"function","name":"setTokenURI","inputs":[{"name":"showId","type":"bytes32","internalType":"bytes32"},{"name":"tokenId","type":"uint256","internalType":"uint256"},{"name":"newURI","type":"string","internalType":"string"}],"outputs":[],"stateMutability":"nonpayable"},{"type":"function","name":"showInstance","inputs":[],"outputs":[{"name":"","type":"address","internalType":"contract IShow"}],"stateMutability":"view"},{"type":"function","name":"supportsInterface","inputs":[{"name":"interfaceId","type":"bytes4","internalType":"bytes4"}],"outputs":[{"name":"","type":"bool","internalType":"bool"}],"stateMutability":"view"},{"type":"function","name":"transferOwnership","inputs":[{"name":"newOwner","type":"address","internalType":"address"}],"outputs":[],"stateMutability":"nonpayable"},{"type":"function","name":"upgradeToAndCall","inputs":[{"name":"newImplementation","type":"address","internalType":"address"},{"name":"data","type":"bytes","internalType":"bytes"}],"outputs":[],"stateMutability":"payable"},{"type":"function","name":"uri","inputs":[{"name":"tokenId","type":"uint256","internalType":"uint256"}],"outputs":[{"name":"","type":"string","internalType":"string"}],"stateMutability":"view"},{"type":"event","name":"ApprovalForAll","inputs":[{"name":"account","type":"address","indexed":true,"internalType":"address"},{"name":"operator","type":"address","indexed":true,"internalType":"address"},{"name":"approved","type":"bool","indexed":false,"internalType":"bool"}],"anonymous":false},{"type":"event","name":"Initialized","inputs":[{"name":"version","type":"uint64","indexed":false,"internalType":"uint64"}],"anonymous":false},{"type":"event","name":"OwnershipTransferred","inputs":[{"name":"previousOwner","type":"address","indexed":true,"internalType":"address"},{"name":"newOwner","type":"address","indexed":true,"internalType":"address"}],"anonymous":false},{"type":"event","name":"TicketPurchased","inputs":[{"name":"buyer","type":"address","indexed":true,"internalType":"address"},{"name":"showId","type":"bytes32","indexed":true,"internalType":"bytes32"},{"name":"ticketId","type":"uint256","indexed":true,"internalType":"uint256"},{"name":"amount","type":"uint256","indexed":false,"internalType":"uint256"},{"name":"fanStatus","type":"uint256","indexed":false,"internalType":"uint256"}],"anonymous":false},{"type":"event","name":"TransferBatch","inputs":[{"name":"operator","type":"address","indexed":true,"internalType":"address"},{"name":"from","type":"address","indexed":true,"internalType":"address"},{"name":"to","type":"address","indexed":true,"internalType":"address"},{"name":"ids","type":"uint256[]","indexed":false,"internalType":"uint256[]"},{"name":"values","type":"uint256[]","indexed":false,"internalType":"uint256[]"}],"anonymous":false},{"type":"event","name":"TransferSingle","inputs":[{"name":"operator","type":"address","indexed":true,"internalType":"address"},{"name":"from","type":"address","indexed":true,"internalType":"address"},{"name":"to","type":"address","indexed":true,"internalType":"address"},{"name":"id","type":"uint256","indexed":false,"internalType":"uint256"},{"name":"value","type":"uint256","indexed":false,"internalType":"uint256"}],"anonymous":false},{"type":"event","name":"URI","inputs":[{"name":"value","type":"string","indexed":false,"internalType":"string"},{"name":"id","type":"uint256","indexed":true,"internalType":"uint256"}],"anonymous":false},{"type":"event","name":"Upgraded","inputs":[{"name":"implementation","type":"address","indexed":true,"internalType":"address"}],"anonymous":false},{"type":"error","name":"AddressEmptyCode","inputs":[{"name":"target","type":"address","internalType":"address"}]},{"type":"error","name":"ERC1155InsufficientBalance","inputs":[{"name":"sender","type":"address","internalType":"address"},{"name":"balance","type":"uint256","internalType":"uint256"},{"name":"needed","type":"uint256","internalType":"uint256"},{"name":"tokenId","type":"uint256","internalType":"uint256"}]},{"type":"error","name":"ERC1155InvalidApprover","inputs":[{"name":"approver","type":"address","internalType":"address"}]},{"type":"error","name":"ERC1155InvalidArrayLength","inputs":[{"name":"idsLength","type":"uint256","internalType":"uint256"},{"name":"valuesLength","type":"uint256","internalType":"uint256"}]},{"type":"error","name":"ERC1155InvalidOperator","inputs":[{"name":"operator","type":"address","internalType":"address"}]},{"type":"error","name":"ERC1155InvalidReceiver","inputs":[{"name":"receiver","type":"address","internalType":"address"}]},{"type":"error","name":"ERC1155InvalidSender","inputs":[{"name":"sender","type":"address","internalType":"address"}]},{"type":"error","name":"ERC1155MissingApprovalForAll","inputs":[{"name":"operator","type":"address","internalType":"address"},{"name":"owner","type":"address","internalType":"address"}]},{"type":"error","name":"ERC1967InvalidImplementation","inputs":[{"name":"implementation","type":"address","internalType":"address"}]},{"type":"error","name":"ERC1967NonPayable","inputs":[]},{"type":"error","name":"FailedInnerCall","inputs":[]},{"type":"error","name":"InvalidInitialization","inputs":[]},{"type":"error","name":"NotInitializing","inputs":[]},{"type":"error","name":"OwnableInvalidOwner","inputs":[{"name":"owner","type":"address","internalType":"address"}]},{"type":"error","name":"OwnableUnauthorizedAccount","inputs":[{"name":"account","type":"address","internalType":"address"}]},{"type":"error","name":"ReentrancyGuardReentrantCall","inputs":[]},{"type":"error","name":"UUPSUnauthorizedCallContext","inputs":[]},{"type":"error","name":"UUPSUnsupportedProxiableUUID","inputs":[{"name":"slot","type":"bytes32","internalType":"bytes32"}]}],"bytecode":{"object":"0x60a06040523060805234801561001457600080fd5b50608051612fb661003e600039600081816114f80152818161152101526116620152612fb66000f3fe6080604052600436106101295760003560e01c80635dbab132116100ab578063a7d225971161006f578063a7d2259714610354578063ad3cb1cc14610374578063e985e9c5146103a5578063f242432a146103c5578063f2fde38b146103e5578063fa29a69b1461040557600080fd5b80635dbab132146102a2578063715018a6146102c257806387f9ca5d146102d75780638da5cb5b146102f7578063a22cb4651461033457600080fd5b8063404f49d1116100f2578063404f49d1146101f5578063485cc9551461022d5780634e1273f41461024d5780634f1ef2861461027a57806352d1902d1461028d57600080fd5b8062fdd58e1461012e57806301ffc9a7146101615780630e89341c14610191578063229df6d6146101be5780632eb2c2d6146101d3575b600080fd5b34801561013a57600080fd5b5061014e610149366004612414565b610418565b6040519081526020015b60405180910390f35b34801561016d57600080fd5b5061018161017c366004612456565b61044f565b6040519015158152602001610158565b34801561019d57600080fd5b506101b16101ac366004612473565b61049f565b60405161015891906124dc565b3480156101ca57600080fd5b5061014e600581565b3480156101df57600080fd5b506101f36101ee366004612632565b610586565b005b34801561020157600080fd5b50600054610215906001600160a01b031681565b6040516001600160a01b039091168152602001610158565b34801561023957600080fd5b506101f36102483660046126df565b6105f2565b34801561025957600080fd5b5061026d610268366004612718565b610773565b6040516101589190612814565b6101f3610288366004612827565b610847565b34801561029957600080fd5b5061014e610866565b3480156102ae57600080fd5b506101f36102bd36600461286c565b610883565b3480156102ce57600080fd5b506101f3610953565b3480156102e357600080fd5b506101f36102f23660046128b0565b610967565b34801561030357600080fd5b507f9016d09d72d40fdae2fd8ceac6b6234c7706214fd39c1cd1e609a0528c199300546001600160a01b0316610215565b34801561034057600080fd5b506101f361034f3660046128f7565b6109e2565b34801561036057600080fd5b506101f361036f366004612925565b6109ed565b34801561038057600080fd5b506101b1604051806040016040528060058152602001640352e302e360dc1b81525081565b3480156103b157600080fd5b506101816103c03660046126df565b610b21565b3480156103d157600080fd5b506101f36103e0366004612974565b610b6e565b3480156103f157600080fd5b506101f36104003660046129dc565b610bcd565b6101f36104133660046129f9565b610c0b565b6000818152600080516020612f33833981519152602090815260408083206001600160a01b03861684529091529020545b92915050565b60006001600160e01b03198216636cdb3d1360e11b148061048057506001600160e01b031982166303a24d0760e21b145b8061044957506301ffc9a760e01b6001600160e01b0319831614610449565b6000818152600160205260408120805460609291906104bd90612a1b565b80601f01602080910402602001604051908101604052809291908181526020018280546104e990612a1b565b80156105365780601f1061050b57610100808354040283529160200191610536565b820191906000526020600020905b81548152906001019060200180831161051957829003601f168201915b5050505050905060008151111561054d5792915050565b6002610558846113ba565b604051602001610569929190612a4f565b604051602081830303815290604052915050919050565b50919050565b336001600160a01b03861681148015906105a757506105a58682610b21565b155b156105dd5760405163711bec9160e11b81526001600160a01b038083166004830152871660248201526044015b60405180910390fd5b6105ea868686868661144c565b505050505050565b7ff0c57e16840df040f15088dc2f81fe391c3923bec73e23a9662efc9c229c6a008054600160401b810460ff1615906001600160401b03166000811580156106375750825b90506000826001600160401b031660011480156106535750303b155b905081158015610661575080155b1561067f5760405163f92ee8a960e01b815260040160405180910390fd5b845467ffffffffffffffff1916600117855583156106a957845460ff60401b1916600160401b1785555b6106ca6040518060600160405280602e8152602001612f53602e91396114b3565b6106d26114c4565b6106db876114d4565b6106e36114e5565b600080546001600160a01b0319166001600160a01b03881617905560408051606081019091526025808252612eee60208301396002906107239082612b2c565b50831561076a57845460ff60401b19168555604051600181527fc7f505b2f371ae2175ee4913f4499e1f2633a7b5936321eed1cdaeb6115181d29060200160405180910390a15b50505050505050565b606081518351146107a45781518351604051635b05999160e01b8152600481019290925260248201526044016105d4565b600083516001600160401b038111156107bf576107bf6124ef565b6040519080825280602002602001820160405280156107e8578160200160208202803683370190505b50905060005b845181101561083f5760208082028601015161081290602080840287010151610418565b82828151811061082457610824612beb565b602090810291909101015261083881612c17565b90506107ee565b509392505050565b61084f6114ed565b61085882611592565b610862828261159a565b5050565b6000610870611657565b50600080516020612f1383398151915290565b600054604051632769b96d60e11b8152336004820152602481018390526001600160a01b0390911690634ed372da90604401602060405180830381865afa1580156108d2573d6000803e3d6000fd5b505050506040513d601f19601f820116820180604052508101906108f69190612c30565b6109425760405162461bcd60e51b815260206004820152601b60248201527f43616c6c6572206973206e6f7420746865206f7267616e697a6572000000000060448201526064016105d4565b600261094e8382612b2c565b505050565b61095b6116a0565b61096560006116fb565b565b6000546001600160a01b031633146109d75760405162461bcd60e51b815260206004820152602d60248201527f4f6e6c79207468652053686f7720636f6e74726163742063616e2063616c6c2060448201526c3a3434b990333ab731ba34b7b760991b60648201526084016105d4565b61094e81848461176c565b6108623383836117d4565b600054604051634bbe5c4f60e11b8152600481018590526001600160a01b039091169063977cb89e90602401602060405180830381865afa158015610a36573d6000803e3d6000fd5b505050506040513d601f19601f82011682018060405250810190610a5a9190612c4d565b6001600160a01b0316336001600160a01b031614610acb5760405162461bcd60e51b815260206004820152602860248201527f43616c6c6572206973206e6f7420746865206f7267616e697a6572206f6620746044820152676869732073686f7760c01b60648201526084016105d4565b6000828152600160205260409020610ae38282612b2c565b50817f6bb7ff708619ba0610cba295a58592e0451dee2622938c8755667688daf3529b82604051610b1491906124dc565b60405180910390a2505050565b6001600160a01b0391821660009081527f88be536d5240c274a3b1d3a1be54482fd9caa294f08c62a7cde569f49a3c45016020908152604080832093909416825291909152205460ff1690565b336001600160a01b0386168114801590610b8f5750610b8d8682610b21565b155b15610bc05760405163711bec9160e11b81526001600160a01b038083166004830152871660248201526044016105d4565b6105ea868686868661187c565b610bd56116a0565b6001600160a01b038116610bff57604051631e4fbdf760e01b8152600060048201526024016105d4565b610c08816116fb565b50565b610c13611901565b600080546040516346c2c8a760e01b8152600481018590526001600160a01b03909116906346c2c8a790602401602060405180830381865afa158015610c5d573d6000803e3d6000fd5b505050506040513d601f19601f82011682018060405250810190610c819190612c80565b6007811115610c9257610c92612c6a565b14610cf15760405162461bcd60e51b815260206004820152602960248201527f53686f77206973206e6f7420617661696c61626c6520666f72207469636b657460448201526820707572636861736560b81b60648201526084016105d4565b60008054604051635b9a1e0960e01b8152600481018590523360248201526001600160a01b0390911690635b9a1e0990604401600060405180830381865afa158015610d41573d6000803e3d6000fd5b505050506040513d6000823e601f3d908101601f19168201604052610d699190810190612ca1565b80519091506005610d7a8483612d31565b1115610dd35760405162461bcd60e51b815260206004820152602260248201527f45786365656473206d6178696d756d207469636b657473207065722077616c6c604482015261195d60f21b60648201526084016105d4565b60008054604051630610418760e41b8152600481018790526001600160a01b0390911690636104187090602401602060405180830381865afa158015610e1d573d6000803e3d6000fd5b505050506040513d601f19601f82011682018060405250810190610e419190612d44565b600054604051631883b07960e21b8152600481018890529192506001600160a01b03169063620ec1e490602401602060405180830381865afa158015610e8b573d6000803e3d6000fd5b505050506040513d601f19601f82011682018060405250810190610eaf9190612d44565b600054604051630610418760e41b81526004810188905286916001600160a01b031690636104187090602401602060405180830381865afa158015610ef8573d6000803e3d6000fd5b505050506040513d601f19601f82011682018060405250810190610f1c9190612d44565b610f269190612d31565b1115610f745760405162461bcd60e51b815260206004820152601c60248201527f4e6f7420656e6f756768207469636b65747320617661696c61626c650000000060448201526064016105d4565b6000610f7f8661194b565b600080546040516331cea0e760e21b8152600481018a905292935090916001600160a01b039091169063c73a839c906024016040805180830381865afa158015610fcd573d6000803e3d6000fd5b505050506040513d601f19601f82011682018060405250810190610ff19190612d5d565b90506000866110098484600001518560200151611a7e565b6110139190612dab565b90508034146110645760405162461bcd60e51b815260206004820152601860248201527f496e636f7272656374207061796d656e7420616d6f756e74000000000000000060448201526064016105d4565b600054604051638526663560e01b8152600481018a90526001600160a01b039091169063852666359034906024016000604051808303818588803b1580156110ab57600080fd5b505af11580156110bf573d6000803e3d6000fd5b505050505060008833868a604051602001611105949392919093845260609290921b6bffffffffffffffffffffffff191660208401526034830152605482015260740190565b6040516020818303038152906040528051906020012060001c905061113b33828a60405180602001604052806000815250611b9d565b60005460405163de44006f60e01b8152600481018b9052336024820152604481018390526001600160a01b039091169063de44006f90606401600060405180830381600087803b15801561118e57600080fd5b505af11580156111a2573d6000803e3d6000fd5b5050600054604051632f51f71760e21b8152600481018d9052602481018590523460448201526001600160a01b03909116925063bd47dc5c9150606401600060405180830381600087803b1580156111f957600080fd5b505af115801561120d573d6000803e3d6000fd5b50506000546001600160a01b03169150630d08c3c990508a6112324262278d00612d31565b6040516001600160e01b031960e085901b16815260048101929092526024820152604401600060405180830381600087803b15801561127057600080fd5b505af1158015611284573d6000803e3d6000fd5b5050600054604051630f0faed760e31b8152600481018d9052602481018c90526001600160a01b03909116925063787d76b89150604401600060405180830381600087803b1580156112d557600080fd5b505af11580156112e9573d6000803e3d6000fd5b505060005460405163127bc13f60e11b8152600481018d90526001600160a01b0390911692506324f7827e9150602401600060405180830381600087803b15801561133357600080fd5b505af1158015611347573d6000803e3d6000fd5b5050604080518b8152602081018890528493508c925033917ff53f6fe7b2b86daf10364d1fc7e66dfc3adc1482215b61947bf0ec712e129908910160405180910390a45050505050505061086260017f9b779b17422d0df92223018b32b4d1fa46e071723d6817e2486d003becc55f0055565b606060006113c783611c20565b60010190506000816001600160401b038111156113e6576113e66124ef565b6040519080825280601f01601f191660200182016040528015611410576020820181803683370190505b5090508181016020015b600019016f181899199a1a9b1b9c1cb0b131b232b360811b600a86061a8153600a850494508461141a57509392505050565b6001600160a01b03841661147657604051632bfa23e760e11b8152600060048201526024016105d4565b6001600160a01b03851661149f57604051626a0d4560e21b8152600060048201526024016105d4565b6114ac8585858585611cf8565b5050505050565b6114bb611d4b565b610c0881611d94565b6114cc611d4b565b610965611da5565b6114dc611d4b565b610c0881611dad565b610965611d4b565b306001600160a01b037f000000000000000000000000000000000000000000000000000000000000000016148061157457507f00000000000000000000000000000000000000000000000000000000000000006001600160a01b0316611568600080516020612f13833981519152546001600160a01b031690565b6001600160a01b031614155b156109655760405163703e46dd60e11b815260040160405180910390fd5b610c086116a0565b816001600160a01b03166352d1902d6040518163ffffffff1660e01b8152600401602060405180830381865afa9250505080156115f4575060408051601f3d908101601f191682019092526115f191810190612d44565b60015b61161c57604051634c9c8ce360e01b81526001600160a01b03831660048201526024016105d4565b600080516020612f13833981519152811461164d57604051632a87526960e21b8152600481018290526024016105d4565b61094e8383611db5565b306001600160a01b037f000000000000000000000000000000000000000000000000000000000000000016146109655760405163703e46dd60e11b815260040160405180910390fd5b336116d27f9016d09d72d40fdae2fd8ceac6b6234c7706214fd39c1cd1e609a0528c199300546001600160a01b031690565b6001600160a01b0316146109655760405163118cdaa760e01b81523360048201526024016105d4565b7f9016d09d72d40fdae2fd8ceac6b6234c7706214fd39c1cd1e609a0528c19930080546001600160a01b031981166001600160a01b03848116918217845560405192169182907f8be0079c531659141344cd1fd0a4f28419497f9722a3daafe3b4186f6b6457e090600090a3505050565b6001600160a01b03831661179557604051626a0d4560e21b8152600060048201526024016105d4565b604080516001808252602082018590528183019081526060820184905260a082019092526000608082018181529192916114ac91879185908590611cf8565b600080516020612f338339815191526001600160a01b03831661180c5760405162ced3e160e81b8152600060048201526024016105d4565b6001600160a01b038481166000818152600184016020908152604080832094881680845294825291829020805460ff191687151590811790915591519182527f17307eab39ab6107e8899845ad3d59bd9653f200f220920489ca2b5937696c31910160405180910390a350505050565b6001600160a01b0384166118a657604051632bfa23e760e11b8152600060048201526024016105d4565b6001600160a01b0385166118cf57604051626a0d4560e21b8152600060048201526024016105d4565b6040805160018082526020820186905281830190815260608201859052608082019092529061076a8787848487611cf8565b7f9b779b17422d0df92223018b32b4d1fa46e071723d6817e2486d003becc55f0080546001190161194557604051633ee5aeb560e01b815260040160405180910390fd5b60029055565b60008054604051631883b07960e21b81526004810184905282916001600160a01b03169063620ec1e490602401602060405180830381865afa158015611995573d6000803e3d6000fd5b505050506040513d601f19601f820116820180604052508101906119b99190612d44565b60008054604051630610418760e41b81526004810187905292935090916001600160a01b0390911690636104187090602401602060405180830381865afa158015611a08573d6000803e3d6000fd5b505050506040513d601f19601f82011682018060405250810190611a2c9190612d44565b9050600082611a3c836064612dab565b611a469190612dc2565b90506000600a611a57836009612d31565b611a619190612dc2565b905060008111611a72576001611a74565b805b9695505050505050565b600060018410158015611a925750600a8411155b611ad35760405162461bcd60e51b8152602060048201526012602482015271496e76616c69642066616e2073746174757360701b60448201526064016105d4565b82821015611b3b5760405162461bcd60e51b815260206004820152602f60248201527f4d6178207072696365206d7573742062652067726561746572206f722065717560448201526e616c20746f206d696e20707269636560881b60648201526084016105d4565b8360011480611b4957508282145b15611b55575081611b96565b6000611b618484612de4565b90506000611b70600983612dc2565b9050611b7d600187612de4565b611b879082612dab565b611b919086612d31565b925050505b9392505050565b6001600160a01b038416611bc757604051632bfa23e760e11b8152600060048201526024016105d4565b604080516001808252602082018690528183019081526060820185905260808201909252906105ea600087848487611cf8565b60017f9b779b17422d0df92223018b32b4d1fa46e071723d6817e2486d003becc55f0055565b60008072184f03e93ff9f4daa797ed6e38ed64bf6a1f0160401b8310611c5f5772184f03e93ff9f4daa797ed6e38ed64bf6a1f0160401b830492506040015b6d04ee2d6d415b85acef81000000008310611c8b576d04ee2d6d415b85acef8100000000830492506020015b662386f26fc100008310611ca957662386f26fc10000830492506010015b6305f5e1008310611cc1576305f5e100830492506008015b6127108310611cd557612710830492506004015b60648310611ce7576064830492506002015b600a83106104495760010192915050565b611d0485858585611e0b565b6001600160a01b038416156114ac5782513390600103611d3d5760208481015190840151611d36838989858589612039565b50506105ea565b6105ea81878787878761215d565b7ff0c57e16840df040f15088dc2f81fe391c3923bec73e23a9662efc9c229c6a0054600160401b900460ff1661096557604051631afcd79f60e31b815260040160405180910390fd5b611d9c611d4b565b610c0881612246565b611bfa611d4b565b610bd5611d4b565b611dbe82612280565b6040516001600160a01b038316907fbc7cd75a20ee27fd9adebab32041f755214dbc6bffa90cc0225b39da2e5c2d3b90600090a2805115611e035761094e82826122e5565b61086261235b565b80518251600080516020612f338339815191529114611e4a5782518251604051635b05999160e01b8152600481019290925260248201526044016105d4565b3360005b8451811015611f59576020818102868101820151908601909101516001600160a01b03891615611f01576000828152602086815260408083206001600160a01b038d16845290915290205481811015611eda576040516303dee4c560e01b81526001600160a01b038b1660048201526024810182905260448101839052606481018490526084016105d4565b6000838152602087815260408083206001600160a01b038e16845290915290209082900390555b6001600160a01b03881615611f46576000828152602086815260408083206001600160a01b038c16845290915281208054839290611f40908490612d31565b90915550505b505080611f5290612c17565b9050611e4e565b508351600103611fda5760208401516000906020850151909150866001600160a01b0316886001600160a01b0316846001600160a01b03167fc3d58168c5ae7397731d063d5bbf3d657854427343f4c083240f7aacaa2d0f628585604051611fcb929190918252602082015260400190565b60405180910390a450506105ea565b846001600160a01b0316866001600160a01b0316826001600160a01b03167f4a39dc06d4c0dbc64b70af90fd698a233a518aa5d07e595d983b8c0526c8f7fb8787604051612029929190612df7565b60405180910390a4505050505050565b6001600160a01b0384163b156105ea5760405163f23a6e6160e01b81526001600160a01b0385169063f23a6e619061207d9089908990889088908890600401612e1c565b6020604051808303816000875af19250505080156120b8575060408051601f3d908101601f191682019092526120b591810190612e56565b60015b612121573d8080156120e6576040519150601f19603f3d011682016040523d82523d6000602084013e6120eb565b606091505b50805160000361211957604051632bfa23e760e11b81526001600160a01b03861660048201526024016105d4565b805181602001fd5b6001600160e01b0319811663f23a6e6160e01b1461076a57604051632bfa23e760e11b81526001600160a01b03861660048201526024016105d4565b6001600160a01b0384163b156105ea5760405163bc197c8160e01b81526001600160a01b0385169063bc197c81906121a19089908990889088908890600401612e73565b6020604051808303816000875af19250505080156121dc575060408051601f3d908101601f191682019092526121d991810190612e56565b60015b61220a573d8080156120e6576040519150601f19603f3d011682016040523d82523d6000602084013e6120eb565b6001600160e01b0319811663bc197c8160e01b1461076a57604051632bfa23e760e11b81526001600160a01b03861660048201526024016105d4565b600080516020612f338339815191527f88be536d5240c274a3b1d3a1be54482fd9caa294f08c62a7cde569f49a3c450261094e8382612b2c565b806001600160a01b03163b6000036122b657604051634c9c8ce360e01b81526001600160a01b03821660048201526024016105d4565b600080516020612f1383398151915280546001600160a01b0319166001600160a01b0392909216919091179055565b6060600080846001600160a01b0316846040516123029190612ed1565b600060405180830381855af49150503d806000811461233d576040519150601f19603f3d011682016040523d82523d6000602084013e612342565b606091505b509150915061235285838361237a565b95945050505050565b34156109655760405163b398979f60e01b815260040160405180910390fd5b60608261238f5761238a826123d6565b611b96565b81511580156123a657506001600160a01b0384163b155b156123cf57604051639996b31560e01b81526001600160a01b03851660048201526024016105d4565b5080611b96565b8051156123e65780518082602001fd5b604051630a12f52160e11b815260040160405180910390fd5b6001600160a01b0381168114610c0857600080fd5b6000806040838503121561242757600080fd5b8235612432816123ff565b946020939093013593505050565b6001600160e01b031981168114610c0857600080fd5b60006020828403121561246857600080fd5b8135611b9681612440565b60006020828403121561248557600080fd5b5035919050565b60005b838110156124a757818101518382015260200161248f565b50506000910152565b600081518084526124c881602086016020860161248c565b601f01601f19169290920160200192915050565b602081526000611b9660208301846124b0565b634e487b7160e01b600052604160045260246000fd5b604051601f8201601f191681016001600160401b038111828210171561252d5761252d6124ef565b604052919050565b60006001600160401b0382111561254e5761254e6124ef565b5060051b60200190565b600082601f83011261256957600080fd5b8135602061257e61257983612535565b612505565b82815260059290921b8401810191818101908684111561259d57600080fd5b8286015b848110156125b857803583529183019183016125a1565b509695505050505050565b600082601f8301126125d457600080fd5b81356001600160401b038111156125ed576125ed6124ef565b612600601f8201601f1916602001612505565b81815284602083860101111561261557600080fd5b816020850160208301376000918101602001919091529392505050565b600080600080600060a0868803121561264a57600080fd5b8535612655816123ff565b94506020860135612665816123ff565b935060408601356001600160401b038082111561268157600080fd5b61268d89838a01612558565b945060608801359150808211156126a357600080fd5b6126af89838a01612558565b935060808801359150808211156126c557600080fd5b506126d2888289016125c3565b9150509295509295909350565b600080604083850312156126f257600080fd5b82356126fd816123ff565b9150602083013561270d816123ff565b809150509250929050565b6000806040838503121561272b57600080fd5b82356001600160401b038082111561274257600080fd5b818501915085601f83011261275657600080fd5b8135602061276661257983612535565b82815260059290921b8401810191818101908984111561278557600080fd5b948201945b838610156127ac57853561279d816123ff565b8252948201949082019061278a565b965050860135925050808211156127c257600080fd5b506127cf85828601612558565b9150509250929050565b600081518084526020808501945080840160005b83811015612809578151875295820195908201906001016127ed565b509495945050505050565b602081526000611b9660208301846127d9565b6000806040838503121561283a57600080fd5b8235612845816123ff565b915060208301356001600160401b0381111561286057600080fd5b6127cf858286016125c3565b6000806040838503121561287f57600080fd5b82356001600160401b0381111561289557600080fd5b6128a1858286016125c3565b95602094909401359450505050565b6000806000606084860312156128c557600080fd5b833592506020840135915060408401356128de816123ff565b809150509250925092565b8015158114610c0857600080fd5b6000806040838503121561290a57600080fd5b8235612915816123ff565b9150602083013561270d816128e9565b60008060006060848603121561293a57600080fd5b833592506020840135915060408401356001600160401b0381111561295e57600080fd5b61296a868287016125c3565b9150509250925092565b600080600080600060a0868803121561298c57600080fd5b8535612997816123ff565b945060208601356129a7816123ff565b9350604086013592506060860135915060808601356001600160401b038111156129d057600080fd5b6126d2888289016125c3565b6000602082840312156129ee57600080fd5b8135611b96816123ff565b60008060408385031215612a0c57600080fd5b50508035926020909101359150565b600181811c90821680612a2f57607f821691505b60208210810361058057634e487b7160e01b600052602260045260246000fd5b6000808454612a5d81612a1b565b60018281168015612a755760018114612a8a57612ab9565b60ff1984168752821515830287019450612ab9565b8860005260208060002060005b85811015612ab05781548a820152908401908201612a97565b50505082870194505b505050508351612acd81836020880161248c565b64173539b7b760d91b9101908152600501949350505050565b601f82111561094e57600081815260208120601f850160051c81016020861015612b0d5750805b601f850160051c820191505b818110156105ea57828155600101612b19565b81516001600160401b03811115612b4557612b456124ef565b612b5981612b538454612a1b565b84612ae6565b602080601f831160018114612b8e5760008415612b765750858301515b600019600386901b1c1916600185901b1785556105ea565b600085815260208120601f198616915b82811015612bbd57888601518255948401946001909101908401612b9e565b5085821015612bdb5787850151600019600388901b60f8161c191681555b5050505050600190811b01905550565b634e487b7160e01b600052603260045260246000fd5b634e487b7160e01b600052601160045260246000fd5b600060018201612c2957612c29612c01565b5060010190565b600060208284031215612c4257600080fd5b8151611b96816128e9565b600060208284031215612c5f57600080fd5b8151611b96816123ff565b634e487b7160e01b600052602160045260246000fd5b600060208284031215612c9257600080fd5b815160088110611b9657600080fd5b60006020808385031215612cb457600080fd5b82516001600160401b03811115612cca57600080fd5b8301601f81018513612cdb57600080fd5b8051612ce961257982612535565b81815260059190911b82018301908381019087831115612d0857600080fd5b928401925b82841015612d2657835182529284019290840190612d0d565b979650505050505050565b8082018082111561044957610449612c01565b600060208284031215612d5657600080fd5b5051919050565b600060408284031215612d6f57600080fd5b604051604081018181106001600160401b0382111715612d9157612d916124ef565b604052825181526020928301519281019290925250919050565b808202811582820484141761044957610449612c01565b600082612ddf57634e487b7160e01b600052601260045260246000fd5b500490565b8181038181111561044957610449612c01565b604081526000612e0a60408301856127d9565b828103602084015261235281856127d9565b6001600160a01b03868116825285166020820152604081018490526060810183905260a060808201819052600090612d26908301846124b0565b600060208284031215612e6857600080fd5b8151611b9681612440565b6001600160a01b0386811682528516602082015260a060408201819052600090612e9f908301866127d9565b8281036060840152612eb181866127d9565b90508281036080840152612ec581856124b0565b98975050505050505050565b60008251612ee381846020870161248c565b919091019291505056fe68747470733a2f2f6d657461646174612e73656c6c6f7574732e6170702f7469636b65742f360894a13ba1a3210667c828492db98dca3e2076cc3735a920a3ca505d382bbc88be536d5240c274a3b1d3a1be54482fd9caa294f08c62a7cde569f49a3c450068747470733a2f2f6d657461646174612e73656c6c6f7574732e6170702f7469636b65742f7b69647d2e6a736f6ea26469706673582212200c0588ddedbede58d04eb105cac95b388c7496d90f769c66fe347f5e5afa447e64736f6c63430008140033","linkReferences":{}},"methodIdentifiers":{"MAX_TICKETS_PER_WALLET()":"229df6d6","UPGRADE_INTERFACE_VERSION()":"ad3cb1cc","balanceOf(address,uint256)":"00fdd58e","balanceOfBatch(address[],uint256[])":"4e1273f4","burnTokens(uint256,uint256,address)":"87f9ca5d","initialize(address,address)":"485cc955","isApprovedForAll(address,address)":"e985e9c5","owner()":"8da5cb5b","proxiableUUID()":"52d1902d","purchaseTickets(bytes32,uint256)":"fa29a69b","renounceOwnership()":"715018a6","safeBatchTransferFrom(address,address,uint256[],uint256[],bytes)":"2eb2c2d6","safeTransferFrom(address,address,uint256,uint256,bytes)":"f242432a","setApprovalForAll(address,bool)":"a22cb465","setDefaultURI(string,bytes32)":"5dbab132","setTokenURI(bytes32,uint256,string)":"a7d22597","showInstance()":"404f49d1","supportsInterface(bytes4)":"01ffc9a7","transferOwnership(address)":"f2fde38b","upgradeToAndCall(address,bytes)":"4f1ef286","uri(uint256)":"0e89341c"},"id":61}