{"abi":[{"type":"function","name":"UPGRADE_INTERFACE_VERSION","inputs":[],"outputs":[{"name":"","type":"string","internalType":"string"}],"stateMutability":"view"},{"type":"function","name":"createTicketProxy","inputs":[{"name":"initialOwner","type":"address","internalType":"address"},{"name":"newVersion","type":"string","internalType":"string"}],"outputs":[{"name":"","type":"address","internalType":"address"}],"stateMutability":"nonpayable"},{"type":"function","name":"deployedTickets","inputs":[{"name":"","type":"uint256","internalType":"uint256"}],"outputs":[{"name":"","type":"address","internalType":"address"}],"stateMutability":"view"},{"type":"function","name":"getDeployedTickets","inputs":[],"outputs":[{"name":"","type":"address[]","internalType":"address[]"}],"stateMutability":"view"},{"type":"function","name":"initialize","inputs":[{"name":"_ticketImplementation","type":"address","internalType":"address"},{"name":"_version","type":"string","internalType":"string"}],"outputs":[],"stateMutability":"nonpayable"},{"type":"function","name":"owner","inputs":[],"outputs":[{"name":"","type":"address","internalType":"address"}],"stateMutability":"view"},{"type":"function","name":"proxiableUUID","inputs":[],"outputs":[{"name":"","type":"bytes32","internalType":"bytes32"}],"stateMutability":"view"},{"type":"function","name":"renounceOwnership","inputs":[],"outputs":[],"stateMutability":"nonpayable"},{"type":"function","name":"setVersion","inputs":[{"name":"_version","type":"string","internalType":"string"}],"outputs":[],"stateMutability":"nonpayable"},{"type":"function","name":"ticketImplementation","inputs":[],"outputs":[{"name":"","type":"address","internalType":"address"}],"stateMutability":"view"},{"type":"function","name":"transferOwnership","inputs":[{"name":"newOwner","type":"address","internalType":"address"}],"outputs":[],"stateMutability":"nonpayable"},{"type":"function","name":"updateTicketImplementation","inputs":[{"name":"newImplementation","type":"address","internalType":"address"}],"outputs":[],"stateMutability":"nonpayable"},{"type":"function","name":"upgradeToAndCall","inputs":[{"name":"newImplementation","type":"address","internalType":"address"},{"name":"data","type":"bytes","internalType":"bytes"}],"outputs":[],"stateMutability":"payable"},{"type":"function","name":"version","inputs":[],"outputs":[{"name":"","type":"string","internalType":"string"}],"stateMutability":"view"},{"type":"event","name":"Initialized","inputs":[{"name":"version","type":"uint64","indexed":false,"internalType":"uint64"}],"anonymous":false},{"type":"event","name":"OwnershipTransferred","inputs":[{"name":"previousOwner","type":"address","indexed":true,"internalType":"address"},{"name":"newOwner","type":"address","indexed":true,"internalType":"address"}],"anonymous":false},{"type":"event","name":"TicketProxyCreated","inputs":[{"name":"ticketProxy","type":"address","indexed":true,"internalType":"address"}],"anonymous":false},{"type":"event","name":"Upgraded","inputs":[{"name":"implementation","type":"address","indexed":true,"internalType":"address"}],"anonymous":false},{"type":"error","name":"AddressEmptyCode","inputs":[{"name":"target","type":"address","internalType":"address"}]},{"type":"error","name":"ERC1967InvalidImplementation","inputs":[{"name":"implementation","type":"address","internalType":"address"}]},{"type":"error","name":"ERC1967NonPayable","inputs":[]},{"type":"error","name":"FailedInnerCall","inputs":[]},{"type":"error","name":"InvalidInitialization","inputs":[]},{"type":"error","name":"NotInitializing","inputs":[]},{"type":"error","name":"OwnableInvalidOwner","inputs":[{"name":"owner","type":"address","internalType":"address"}]},{"type":"error","name":"OwnableUnauthorizedAccount","inputs":[{"name":"account","type":"address","internalType":"address"}]},{"type":"error","name":"UUPSUnauthorizedCallContext","inputs":[]},{"type":"error","name":"UUPSUnsupportedProxiableUUID","inputs":[{"name":"slot","type":"bytes32","internalType":"bytes32"}]}],"bytecode":{"object":"0x60a06040523060805234801561001457600080fd5b506080516110ed61003e600039600081816107720152818161079b01526108e101526110ed6000f3fe6080604052600436106100dd5760003560e01c8063788bc78c1161007f578063bb17532e11610059578063bb17532e14610262578063d83e7bfa14610282578063f2fde38b146102a2578063f399e22e146102c257600080fd5b8063788bc78c146101d45780638da5cb5b146101f4578063ad3cb1cc1461023157600080fd5b80634f1ef286116100bb5780634f1ef2861461016757806352d1902d1461017a57806354fd4d501461019d578063715018a6146101bf57600080fd5b80630d7c6d68146100e2578063232b158b1461010d5780633a72eeab1461012f575b600080fd5b3480156100ee57600080fd5b506100f76102e2565b6040516101049190610c6c565b60405180910390f35b34801561011957600080fd5b5061012d610128366004610cd0565b610344565b005b34801561013b57600080fd5b5060005461014f906001600160a01b031681565b6040516001600160a01b039091168152602001610104565b61012d610175366004610d77565b61036e565b34801561018657600080fd5b5061018f61038d565b604051908152602001610104565b3480156101a957600080fd5b506101b26103aa565b6040516101049190610e29565b3480156101cb57600080fd5b5061012d610438565b3480156101e057600080fd5b5061012d6101ef366004610e5c565b61044c565b34801561020057600080fd5b507f9016d09d72d40fdae2fd8ceac6b6234c7706214fd39c1cd1e609a0528c199300546001600160a01b031661014f565b34801561023d57600080fd5b506101b2604051806040016040528060058152602001640352e302e360dc1b81525081565b34801561026e57600080fd5b5061014f61027d366004610e99565b610460565b34801561028e57600080fd5b5061014f61029d366004610edd565b61055e565b3480156102ae57600080fd5b5061012d6102bd366004610cd0565b610588565b3480156102ce57600080fd5b5061012d6102dd366004610e99565b6105cb565b6060600180548060200260200160405190810160405280929190818152602001828054801561033a57602002820191906000526020600020905b81546001600160a01b0316815260019091019060200180831161031c575b5050505050905090565b61034c61070c565b600080546001600160a01b0319166001600160a01b0392909216919091179055565b610376610767565b61037f8261080c565b6103898282610814565b5050565b60006103976108d6565b5060008051602061109883398151915290565b600280546103b790610ef6565b80601f01602080910402602001604051908101604052809291908181526020018280546103e390610ef6565b80156104305780601f1061040557610100808354040283529160200191610430565b820191906000526020600020905b81548152906001019060200180831161041357829003601f168201915b505050505081565b61044061070c565b61044a600061091f565b565b61045461070c565b60026103898282610f7e565b600061046a61070c565b60008054610480906001600160a01b0316610990565b6040516379ccf11760e11b81529091506001600160a01b0382169063f399e22e906104b1908790879060040161103e565b600060405180830381600087803b1580156104cb57600080fd5b505af11580156104df573d6000803e3d6000fd5b505060018054808201825560009182527fb10e2d527612073b26eecdfd717e6a320cf44b4afac2b0732d9fcbe2b7fa0cf60180546001600160a01b0319166001600160a01b0386169081179091556040519093507f921a2f25ad8eeed2d79f7b3300fb94d379240a97945e6c75848cba3a6d609ca49250a29392505050565b6001818154811061056e57600080fd5b6000918252602090912001546001600160a01b0316905081565b61059061070c565b6001600160a01b0381166105bf57604051631e4fbdf760e01b8152600060048201526024015b60405180910390fd5b6105c88161091f565b50565b7ff0c57e16840df040f15088dc2f81fe391c3923bec73e23a9662efc9c229c6a008054600160401b810460ff16159067ffffffffffffffff166000811580156106115750825b905060008267ffffffffffffffff16600114801561062e5750303b155b90508115801561063c575080155b1561065a5760405163f92ee8a960e01b815260040160405180910390fd5b845467ffffffffffffffff19166001178555831561068457845460ff60401b1916600160401b1785555b61068d33610a2a565b610695610a3b565b600080546001600160a01b0319166001600160a01b03891617905560026106bc8782610f7e565b50831561070357845460ff60401b19168555604051600181527fc7f505b2f371ae2175ee4913f4499e1f2633a7b5936321eed1cdaeb6115181d29060200160405180910390a15b50505050505050565b3361073e7f9016d09d72d40fdae2fd8ceac6b6234c7706214fd39c1cd1e609a0528c199300546001600160a01b031690565b6001600160a01b03161461044a5760405163118cdaa760e01b81523360048201526024016105b6565b306001600160a01b037f00000000000000000000000000000000000000000000000000000000000000001614806107ee57507f00000000000000000000000000000000000000000000000000000000000000006001600160a01b03166107e2600080516020611098833981519152546001600160a01b031690565b6001600160a01b031614155b1561044a5760405163703e46dd60e11b815260040160405180910390fd5b6105c861070c565b816001600160a01b03166352d1902d6040518163ffffffff1660e01b8152600401602060405180830381865afa92505050801561086e575060408051601f3d908101601f1916820190925261086b91810190611062565b60015b61089657604051634c9c8ce360e01b81526001600160a01b03831660048201526024016105b6565b60008051602061109883398151915281146108c757604051632a87526960e21b8152600481018290526024016105b6565b6108d18383610a43565b505050565b306001600160a01b037f0000000000000000000000000000000000000000000000000000000000000000161461044a5760405163703e46dd60e11b815260040160405180910390fd5b7f9016d09d72d40fdae2fd8ceac6b6234c7706214fd39c1cd1e609a0528c19930080546001600160a01b031981166001600160a01b03848116918217845560405192169182907f8be0079c531659141344cd1fd0a4f28419497f9722a3daafe3b4186f6b6457e090600090a3505050565b6000763d602d80600a3d3981f3363d3d373d3d3d363d730000008260601b60e81c176000526e5af43d82803e903d91602b57fd5bf38260781b17602052603760096000f090506001600160a01b038116610a255760405162461bcd60e51b8152602060048201526016602482015275115490cc4c4d8dce8818dc99585d194819985a5b195960521b60448201526064016105b6565b919050565b610a32610a99565b6105c881610ae2565b61044a610a99565b610a4c82610aea565b6040516001600160a01b038316907fbc7cd75a20ee27fd9adebab32041f755214dbc6bffa90cc0225b39da2e5c2d3b90600090a2805115610a91576108d18282610b4f565b610389610bc5565b7ff0c57e16840df040f15088dc2f81fe391c3923bec73e23a9662efc9c229c6a0054600160401b900460ff1661044a57604051631afcd79f60e31b815260040160405180910390fd5b610590610a99565b806001600160a01b03163b600003610b2057604051634c9c8ce360e01b81526001600160a01b03821660048201526024016105b6565b60008051602061109883398151915280546001600160a01b0319166001600160a01b0392909216919091179055565b6060600080846001600160a01b031684604051610b6c919061107b565b600060405180830381855af49150503d8060008114610ba7576040519150601f19603f3d011682016040523d82523d6000602084013e610bac565b606091505b5091509150610bbc858383610be4565b95945050505050565b341561044a5760405163b398979f60e01b815260040160405180910390fd5b606082610bf957610bf482610c43565b610c3c565b8151158015610c1057506001600160a01b0384163b155b15610c3957604051639996b31560e01b81526001600160a01b03851660048201526024016105b6565b50805b9392505050565b805115610c535780518082602001fd5b604051630a12f52160e11b815260040160405180910390fd5b6020808252825182820181905260009190848201906040850190845b81811015610cad5783516001600160a01b031683529284019291840191600101610c88565b50909695505050505050565b80356001600160a01b0381168114610a2557600080fd5b600060208284031215610ce257600080fd5b610c3c82610cb9565b634e487b7160e01b600052604160045260246000fd5b600067ffffffffffffffff80841115610d1c57610d1c610ceb565b604051601f8501601f19908116603f01168101908282118183101715610d4457610d44610ceb565b81604052809350858152868686011115610d5d57600080fd5b858560208301376000602087830101525050509392505050565b60008060408385031215610d8a57600080fd5b610d9383610cb9565b9150602083013567ffffffffffffffff811115610daf57600080fd5b8301601f81018513610dc057600080fd5b610dcf85823560208401610d01565b9150509250929050565b60005b83811015610df4578181015183820152602001610ddc565b50506000910152565b60008151808452610e15816020860160208601610dd9565b601f01601f19169290920160200192915050565b602081526000610c3c6020830184610dfd565b600082601f830112610e4d57600080fd5b610c3c83833560208501610d01565b600060208284031215610e6e57600080fd5b813567ffffffffffffffff811115610e8557600080fd5b610e9184828501610e3c565b949350505050565b60008060408385031215610eac57600080fd5b610eb583610cb9565b9150602083013567ffffffffffffffff811115610ed157600080fd5b610dcf85828601610e3c565b600060208284031215610eef57600080fd5b5035919050565b600181811c90821680610f0a57607f821691505b602082108103610f2a57634e487b7160e01b600052602260045260246000fd5b50919050565b601f8211156108d157600081815260208120601f850160051c81016020861015610f575750805b601f850160051c820191505b81811015610f7657828155600101610f63565b505050505050565b815167ffffffffffffffff811115610f9857610f98610ceb565b610fac81610fa68454610ef6565b84610f30565b602080601f831160018114610fe15760008415610fc95750858301515b600019600386901b1c1916600185901b178555610f76565b600085815260208120601f198616915b8281101561101057888601518255948401946001909101908401610ff1565b508582101561102e5787850151600019600388901b60f8161c191681555b5050505050600190811b01905550565b6001600160a01b0383168152604060208201819052600090610e9190830184610dfd565b60006020828403121561107457600080fd5b5051919050565b6000825161108d818460208701610dd9565b919091019291505056fe360894a13ba1a3210667c828492db98dca3e2076cc3735a920a3ca505d382bbca26469706673582212202a5811dc9c91d1c223f55f0d2876d6f5cdbd8628ef54d1acbd9ef5d310c297f364736f6c63430008140033","linkReferences":{}},"methodIdentifiers":{"UPGRADE_INTERFACE_VERSION()":"ad3cb1cc","createTicketProxy(address,string)":"bb17532e","deployedTickets(uint256)":"d83e7bfa","getDeployedTickets()":"0d7c6d68","initialize(address,string)":"f399e22e","owner()":"8da5cb5b","proxiableUUID()":"52d1902d","renounceOwnership()":"715018a6","setVersion(string)":"788bc78c","ticketImplementation()":"3a72eeab","transferOwnership(address)":"f2fde38b","updateTicketImplementation(address)":"232b158b","upgradeToAndCall(address,bytes)":"4f1ef286","version()":"54fd4d50"},"id":45}