{"abi":[{"type":"function","name":"MAX_TICKETS_PER_WALLET","inputs":[],"outputs":[{"name":"","type":"uint256","internalType":"uint256"}],"stateMutability":"view"},{"type":"function","name":"UPGRADE_INTERFACE_VERSION","inputs":[],"outputs":[{"name":"","type":"string","internalType":"string"}],"stateMutability":"view"},{"type":"function","name":"balanceOf","inputs":[{"name":"account","type":"address","internalType":"address"},{"name":"id","type":"uint256","internalType":"uint256"}],"outputs":[{"name":"","type":"uint256","internalType":"uint256"}],"stateMutability":"view"},{"type":"function","name":"balanceOfBatch","inputs":[{"name":"accounts","type":"address[]","internalType":"address[]"},{"name":"ids","type":"uint256[]","internalType":"uint256[]"}],"outputs":[{"name":"","type":"uint256[]","internalType":"uint256[]"}],"stateMutability":"view"},{"type":"function","name":"boxOfficeInstance","inputs":[],"outputs":[{"name":"","type":"address","internalType":"contract IBoxOffice"}],"stateMutability":"view"},{"type":"function","name":"burnTokens","inputs":[{"name":"tokenId","type":"uint256","internalType":"uint256"},{"name":"amount","type":"uint256","internalType":"uint256"},{"name":"owner","type":"address","internalType":"address"}],"outputs":[],"stateMutability":"nonpayable"},{"type":"function","name":"bytes32ToHexString","inputs":[{"name":"_bytes32","type":"bytes32","internalType":"bytes32"}],"outputs":[{"name":"","type":"string","internalType":"string"}],"stateMutability":"pure"},{"type":"function","name":"getTicketPricePaidAndTierIndex","inputs":[{"name":"showId","type":"bytes32","internalType":"bytes32"},{"name":"ticketId","type":"uint256","internalType":"uint256"}],"outputs":[{"name":"price","type":"uint256","internalType":"uint256"},{"name":"tierIndex","type":"uint256","internalType":"uint256"}],"stateMutability":"view"},{"type":"function","name":"initialize","inputs":[{"name":"initialOwner","type":"address","internalType":"address"},{"name":"_version","type":"string","internalType":"string"}],"outputs":[],"stateMutability":"nonpayable"},{"type":"function","name":"isApprovedForAll","inputs":[{"name":"account","type":"address","internalType":"address"},{"name":"operator","type":"address","internalType":"address"}],"outputs":[{"name":"","type":"bool","internalType":"bool"}],"stateMutability":"view"},{"type":"function","name":"owner","inputs":[],"outputs":[{"name":"","type":"address","internalType":"address"}],"stateMutability":"view"},{"type":"function","name":"proxiableUUID","inputs":[],"outputs":[{"name":"","type":"bytes32","internalType":"bytes32"}],"stateMutability":"view"},{"type":"function","name":"purchaseTickets","inputs":[{"name":"showId","type":"bytes32","internalType":"bytes32"},{"name":"tierIndex","type":"uint256","internalType":"uint256"},{"name":"amount","type":"uint256","internalType":"uint256"},{"name":"paymentToken","type":"address","internalType":"address"}],"outputs":[],"stateMutability":"payable"},{"type":"function","name":"renounceOwnership","inputs":[],"outputs":[],"stateMutability":"nonpayable"},{"type":"function","name":"safeBatchTransferFrom","inputs":[{"name":"from","type":"address","internalType":"address"},{"name":"to","type":"address","internalType":"address"},{"name":"ids","type":"uint256[]","internalType":"uint256[]"},{"name":"amounts","type":"uint256[]","internalType":"uint256[]"},{"name":"data","type":"bytes","internalType":"bytes"}],"outputs":[],"stateMutability":"nonpayable"},{"type":"function","name":"safeTransferFrom","inputs":[{"name":"from","type":"address","internalType":"address"},{"name":"to","type":"address","internalType":"address"},{"name":"id","type":"uint256","internalType":"uint256"},{"name":"amount","type":"uint256","internalType":"uint256"},{"name":"data","type":"bytes","internalType":"bytes"}],"outputs":[],"stateMutability":"nonpayable"},{"type":"function","name":"setApprovalForAll","inputs":[{"name":"operator","type":"address","internalType":"address"},{"name":"approved","type":"bool","internalType":"bool"}],"outputs":[],"stateMutability":"nonpayable"},{"type":"function","name":"setDefaultURIForShow","inputs":[{"name":"showId","type":"bytes32","internalType":"bytes32"},{"name":"newDefaultURI","type":"string","internalType":"string"}],"outputs":[],"stateMutability":"nonpayable"},{"type":"function","name":"setShowContractAddresses","inputs":[{"name":"_showContractAddress","type":"address","internalType":"address"},{"name":"_boxOfficeAddress","type":"address","internalType":"address"},{"name":"_showVaultAddress","type":"address","internalType":"address"}],"outputs":[],"stateMutability":"nonpayable"},{"type":"function","name":"setTokenURI","inputs":[{"name":"showId","type":"bytes32","internalType":"bytes32"},{"name":"tokenId","type":"uint256","internalType":"uint256"},{"name":"newURI","type":"string","internalType":"string"}],"outputs":[],"stateMutability":"nonpayable"},{"type":"function","name":"showInstance","inputs":[],"outputs":[{"name":"","type":"address","internalType":"contract IShow"}],"stateMutability":"view"},{"type":"function","name":"showVaultInstance","inputs":[],"outputs":[{"name":"","type":"address","internalType":"contract IShowVault"}],"stateMutability":"view"},{"type":"function","name":"supportsInterface","inputs":[{"name":"interfaceId","type":"bytes4","internalType":"bytes4"}],"outputs":[{"name":"","type":"bool","internalType":"bool"}],"stateMutability":"view"},{"type":"function","name":"ticketIdToTierIndex","inputs":[{"name":"","type":"uint256","internalType":"uint256"}],"outputs":[{"name":"","type":"uint256","internalType":"uint256"}],"stateMutability":"view"},{"type":"function","name":"transferOwnership","inputs":[{"name":"newOwner","type":"address","internalType":"address"}],"outputs":[],"stateMutability":"nonpayable"},{"type":"function","name":"upgradeToAndCall","inputs":[{"name":"newImplementation","type":"address","internalType":"address"},{"name":"data","type":"bytes","internalType":"bytes"}],"outputs":[],"stateMutability":"payable"},{"type":"function","name":"uri","inputs":[{"name":"tokenId","type":"uint256","internalType":"uint256"}],"outputs":[{"name":"","type":"string","internalType":"string"}],"stateMutability":"view"},{"type":"function","name":"version","inputs":[],"outputs":[{"name":"","type":"string","internalType":"string"}],"stateMutability":"view"},{"type":"event","name":"ApprovalForAll","inputs":[{"name":"account","type":"address","indexed":true,"internalType":"address"},{"name":"operator","type":"address","indexed":true,"internalType":"address"},{"name":"approved","type":"bool","indexed":false,"internalType":"bool"}],"anonymous":false},{"type":"event","name":"Initialized","inputs":[{"name":"version","type":"uint64","indexed":false,"internalType":"uint64"}],"anonymous":false},{"type":"event","name":"OwnershipTransferred","inputs":[{"name":"previousOwner","type":"address","indexed":true,"internalType":"address"},{"name":"newOwner","type":"address","indexed":true,"internalType":"address"}],"anonymous":false},{"type":"event","name":"TicketPurchased","inputs":[{"name":"buyer","type":"address","indexed":true,"internalType":"address"},{"name":"showId","type":"bytes32","indexed":true,"internalType":"bytes32"},{"name":"tierIndex","type":"uint256","indexed":false,"internalType":"uint256"},{"name":"tokenId","type":"uint256","indexed":false,"internalType":"uint256"},{"name":"amount","type":"uint256","indexed":false,"internalType":"uint256"},{"name":"paymentToken","type":"address","indexed":false,"internalType":"address"}],"anonymous":false},{"type":"event","name":"TransferBatch","inputs":[{"name":"operator","type":"address","indexed":true,"internalType":"address"},{"name":"from","type":"address","indexed":true,"internalType":"address"},{"name":"to","type":"address","indexed":true,"internalType":"address"},{"name":"ids","type":"uint256[]","indexed":false,"internalType":"uint256[]"},{"name":"values","type":"uint256[]","indexed":false,"internalType":"uint256[]"}],"anonymous":false},{"type":"event","name":"TransferSingle","inputs":[{"name":"operator","type":"address","indexed":true,"internalType":"address"},{"name":"from","type":"address","indexed":true,"internalType":"address"},{"name":"to","type":"address","indexed":true,"internalType":"address"},{"name":"id","type":"uint256","indexed":false,"internalType":"uint256"},{"name":"value","type":"uint256","indexed":false,"internalType":"uint256"}],"anonymous":false},{"type":"event","name":"URI","inputs":[{"name":"value","type":"string","indexed":false,"internalType":"string"},{"name":"id","type":"uint256","indexed":true,"internalType":"uint256"}],"anonymous":false},{"type":"event","name":"Upgraded","inputs":[{"name":"implementation","type":"address","indexed":true,"internalType":"address"}],"anonymous":false},{"type":"error","name":"AddressEmptyCode","inputs":[{"name":"target","type":"address","internalType":"address"}]},{"type":"error","name":"ERC1155InsufficientBalance","inputs":[{"name":"sender","type":"address","internalType":"address"},{"name":"balance","type":"uint256","internalType":"uint256"},{"name":"needed","type":"uint256","internalType":"uint256"},{"name":"tokenId","type":"uint256","internalType":"uint256"}]},{"type":"error","name":"ERC1155InvalidApprover","inputs":[{"name":"approver","type":"address","internalType":"address"}]},{"type":"error","name":"ERC1155InvalidArrayLength","inputs":[{"name":"idsLength","type":"uint256","internalType":"uint256"},{"name":"valuesLength","type":"uint256","internalType":"uint256"}]},{"type":"error","name":"ERC1155InvalidOperator","inputs":[{"name":"operator","type":"address","internalType":"address"}]},{"type":"error","name":"ERC1155InvalidReceiver","inputs":[{"name":"receiver","type":"address","internalType":"address"}]},{"type":"error","name":"ERC1155InvalidSender","inputs":[{"name":"sender","type":"address","internalType":"address"}]},{"type":"error","name":"ERC1155MissingApprovalForAll","inputs":[{"name":"operator","type":"address","internalType":"address"},{"name":"owner","type":"address","internalType":"address"}]},{"type":"error","name":"ERC1967InvalidImplementation","inputs":[{"name":"implementation","type":"address","internalType":"address"}]},{"type":"error","name":"ERC1967NonPayable","inputs":[]},{"type":"error","name":"FailedInnerCall","inputs":[]},{"type":"error","name":"InvalidInitialization","inputs":[]},{"type":"error","name":"NotInitializing","inputs":[]},{"type":"error","name":"OwnableInvalidOwner","inputs":[{"name":"owner","type":"address","internalType":"address"}]},{"type":"error","name":"OwnableUnauthorizedAccount","inputs":[{"name":"account","type":"address","internalType":"address"}]},{"type":"error","name":"ReentrancyGuardReentrantCall","inputs":[]},{"type":"error","name":"UUPSUnauthorizedCallContext","inputs":[]},{"type":"error","name":"UUPSUnsupportedProxiableUUID","inputs":[{"name":"slot","type":"bytes32","internalType":"bytes32"}]}],"bytecode":{"object":"0x60a060405230608052600160095534801561001957600080fd5b5060805161392761004360003960008181611cf601528181611d1f0152611e6001526139276000f3fe6080604052600436106101b65760003560e01c8063715018a6116100ec578063b02ee9441161008a578063e985e9c511610064578063e985e9c51461051c578063f242432a1461053c578063f2fde38b1461055c578063f399e22e1461057c57600080fd5b8063b02ee944146104a7578063c68b3787146104c7578063da3a7616146104e757600080fd5b8063a22cb465116100c6578063a22cb46514610416578063a2b7d17414610436578063a7d2259714610456578063ad3cb1cc1461047657600080fd5b8063715018a6146103a457806387f9ca5d146103b95780638da5cb5b146103d957600080fd5b80634dc387c81161015957806352d1902d1161013357806352d1902d1461032d57806354fd4d50146103425780635d7c188c146103575780636a0178911461038457600080fd5b80634dc387c8146102cd5780634e1273f4146102ed5780634f1ef2861461031a57600080fd5b80631e87ccce116101955780631e87ccce1461024b578063229df6d6146102605780632eb2c2d614610275578063404f49d11461029557600080fd5b8062fdd58e146101bb57806301ffc9a7146101ee5780630e89341c1461021e575b600080fd5b3480156101c757600080fd5b506101db6101d6366004612cef565b61059c565b6040519081526020015b60405180910390f35b3480156101fa57600080fd5b5061020e610209366004612d31565b6105d3565b60405190151581526020016101e5565b34801561022a57600080fd5b5061023e610239366004612d4e565b610623565b6040516101e59190612db7565b61025e610259366004612dca565b610837565b005b34801561026c57600080fd5b506101db600581565b34801561028157600080fd5b5061025e610290366004612f57565b6108e5565b3480156102a157600080fd5b506000546102b5906001600160a01b031681565b6040516001600160a01b0390911681526020016101e5565b3480156102d957600080fd5b5061025e6102e8366004613004565b610b02565b3480156102f957600080fd5b5061030d61030836600461304a565b610bec565b6040516101e5919061313c565b61025e61032836600461314f565b610cc0565b34801561033957600080fd5b506101db610cdf565b34801561034e57600080fd5b5061023e610cfc565b34801561036357600080fd5b506101db610372366004612d4e565b60056020526000908152604090205481565b34801561039057600080fd5b506002546102b5906001600160a01b031681565b3480156103b057600080fd5b5061025e610d8a565b3480156103c557600080fd5b5061025e6103d4366004613188565b610d9e565b3480156103e557600080fd5b507f9016d09d72d40fdae2fd8ceac6b6234c7706214fd39c1cd1e609a0528c199300546001600160a01b03166102b5565b34801561042257600080fd5b5061025e6104313660046131c1565b610de9565b34801561044257600080fd5b506001546102b5906001600160a01b031681565b34801561046257600080fd5b5061025e6104713660046131ff565b610df4565b34801561048257600080fd5b5061023e604051806040016040528060058152602001640352e302e360dc1b81525081565b3480156104b357600080fd5b5061025e6104c236600461324e565b610f28565b3480156104d357600080fd5b5061023e6104e2366004612d4e565b611024565b3480156104f357600080fd5b5061050761050236600461328e565b61117c565b604080519283526020830191909152016101e5565b34801561052857600080fd5b5061020e6105373660046132b0565b61120e565b34801561054857600080fd5b5061025e6105573660046132de565b61125b565b34801561056857600080fd5b5061025e610577366004613346565b6113e5565b34801561058857600080fd5b5061025e61059736600461314f565b611423565b60008181526000805160206138d2833981519152602090815260408083206001600160a01b03861684529091529020545b92915050565b60006001600160e01b03198216636cdb3d1360e11b148061060457506001600160e01b031982166303a24d0760e21b145b806105cd57506301ffc9a760e01b6001600160e01b03198316146105cd565b60008181526004602052604081208054606092919061064190613363565b80601f016020809104026020016040519081016040528092919081815260200182805461066d90613363565b80156106ba5780601f1061068f576101008083540402835291602001916106ba565b820191906000526020600020905b81548152906001019060200180831161069d57829003601f168201915b505050505090506000815111156106d15792915050565b6000838152600660205260409020548061072a5760405162461bcd60e51b81526020600482015260156024820152742a37b5b2b7103237b2b9903737ba1032bc34b9ba1760591b60448201526064015b60405180910390fd5b600061073582611024565b905060008060076000858152602001908152602001600020805461075890613363565b905011610766576008610775565b60008381526007602052604090205b805461078090613363565b80601f01602080910402602001604051908101604052809291908181526020018280546107ac90613363565b80156107f95780601f106107ce576101008083540402835291602001916107f9565b820191906000526020600020905b8154815290600101906020018083116107dc57829003601f168201915b50505050509050808261080b88611597565b60405160200161081d9392919061339d565b604051602081830303815290604052945050505050919050565b61083f611629565b61084a848484611673565b6000610857858585611983565b905060006108688686868587611a68565b9050806108a95760405162461bcd60e51b815260206004820152600f60248201526e141d5c98da185cd94819985a5b1959608a1b6044820152606401610721565b6108b4868686611b3b565b50506108df60017f9b779b17422d0df92223018b32b4d1fa46e071723d6817e2486d003becc55f0055565b50505050565b6001600160a01b0385163314806109015750610901853361120e565b6109685760405162461bcd60e51b815260206004820152603260248201527f455243313135353a207472616e736665722063616c6c6572206973206e6f74206044820152711bdddb995c881b9bdc88185c1c1c9bdd995960721b6064820152608401610721565b60005b8351811015610aed5760006006600086848151811061098c5761098c61340f565b6020026020010151815260200190815260200160002054905060006001600160a01b0316876001600160a01b031614610a455760015485516001600160a01b039091169063e35b1ee89083908a908990879081106109ec576109ec61340f565b60200260200101516040518463ffffffff1660e01b8152600401610a1293929190613425565b600060405180830381600087803b158015610a2c57600080fd5b505af1158015610a40573d6000803e3d6000fd5b505050505b6001600160a01b03861615610ada5760015485516001600160a01b039091169063de44006f9083908990899087908110610a8157610a8161340f565b60200260200101516040518463ffffffff1660e01b8152600401610aa793929190613425565b600060405180830381600087803b158015610ac157600080fd5b505af1158015610ad5573d6000803e3d6000fd5b505050505b5080610ae58161345a565b91505061096b565b50610afb8585858585611c8c565b5050505050565b600054604051634bbe5c4f60e11b8152600481018490526001600160a01b039091169063977cb89e90602401602060405180830381865afa158015610b4b573d6000803e3d6000fd5b505050506040513d601f19601f82011682018060405250810190610b6f9190613473565b6001600160a01b0316336001600160a01b031614610bcf5760405162461bcd60e51b815260206004820152601b60248201527f43616c6c6572206973206e6f7420746865206f7267616e697a657200000000006044820152606401610721565b6000828152600760205260409020610be782826134d6565b505050565b60608151835114610c1d5781518351604051635b05999160e01b815260048101929092526024820152604401610721565b600083516001600160401b03811115610c3857610c38612e0b565b604051908082528060200260200182016040528015610c61578160200160208202803683370190505b50905060005b8451811015610cb857602080820286010151610c8b9060208084028701015161059c565b828281518110610c9d57610c9d61340f565b6020908102919091010152610cb18161345a565b9050610c67565b509392505050565b610cc8611ceb565b610cd182611d90565b610cdb8282611d98565b5050565b6000610ce9611e55565b506000805160206138b283398151915290565b60038054610d0990613363565b80601f0160208091040260200160405190810160405280929190818152602001828054610d3590613363565b8015610d825780601f10610d5757610100808354040283529160200191610d82565b820191906000526020600020905b815481529060010190602001808311610d6557829003601f168201915b505050505081565b610d92611e9e565b610d9c6000611ef9565b565b6001546001600160a01b03163314610dde5760405162461bcd60e51b815260206004820152600360248201526221626f60e81b6044820152606401610721565b610be7818484611f6a565b610cdb338383611fd2565b600054604051634bbe5c4f60e11b8152600481018590526001600160a01b039091169063977cb89e90602401602060405180830381865afa158015610e3d573d6000803e3d6000fd5b505050506040513d601f19601f82011682018060405250810190610e619190613473565b6001600160a01b0316336001600160a01b031614610ed25760405162461bcd60e51b815260206004820152602860248201527f43616c6c6572206973206e6f7420746865206f7267616e697a6572206f6620746044820152676869732073686f7760c01b6064820152608401610721565b6000828152600460205260409020610eea82826134d6565b50817f6bb7ff708619ba0610cba295a58592e0451dee2622938c8755667688daf3529b82604051610f1b9190612db7565b60405180910390a2505050565b6000546001600160a01b031615610f515760405162461bcd60e51b815260040161072190613595565b6001546001600160a01b031615610f7a5760405162461bcd60e51b815260040161072190613595565b6002546001600160a01b031615610fe55760405162461bcd60e51b815260206004820152602960248201527f53686f775661756c7420636f6e7472616374206164647265737320697320616c6044820152681c9958591e481cd95d60ba1b6064820152608401610721565b600080546001600160a01b039485166001600160a01b031991821617909155600180549385169382169390931790925560028054919093169116179055565b604080518082018252601081526f181899199a1a9b1b9c1cb0b131b232b360811b6020820152815182815260608181018452926000919060208201818036833701905050905060005b6020811015610cb85782600486836020811061108b5761108b61340f565b1a60f81b6001600160f81b031916901c60f81c60ff16815181106110b1576110b161340f565b01602001516001600160f81b031916826110cc8360026135d9565b815181106110dc576110dc61340f565b60200101906001600160f81b031916908160001a905350828582602081106111065761110661340f565b825191901a600f1690811061111d5761111d61340f565b01602001516001600160f81b031916826111388360026135d9565b6111439060016135f0565b815181106111535761115361340f565b60200101906001600160f81b031916908160001a905350806111748161345a565b91505061106d565b6001546040516293d4e160e81b81526004810184905260248101839052600091829182916001600160a01b0316906393d4e10090604401602060405180830381865afa1580156111d0573d6000803e3d6000fd5b505050506040513d601f19601f820116820180604052508101906111f49190613603565b600094855260056020526040909420549395939450505050565b6001600160a01b0391821660009081527f88be536d5240c274a3b1d3a1be54482fd9caa294f08c62a7cde569f49a3c45016020908152604080832093909416825291909152205460ff1690565b6001600160a01b0385163314806112775750611277853361120e565b6112d55760405162461bcd60e51b815260206004820152602960248201527f455243313135353a2063616c6c6572206973206e6f74206f776e6572206e6f7260448201526808185c1c1c9bdd995960ba1b6064820152608401610721565b6000838152600660205260409020546001600160a01b0386161561135a57600154604051631c6b63dd60e31b81526001600160a01b039091169063e35b1ee8906113279084908a908990600401613425565b600060405180830381600087803b15801561134157600080fd5b505af1158015611355573d6000803e3d6000fd5b505050505b6001600160a01b038516156113d05760015460405163de44006f60e01b81526001600160a01b039091169063de44006f9061139d90849089908990600401613425565b600060405180830381600087803b1580156113b757600080fd5b505af11580156113cb573d6000803e3d6000fd5b505050505b6113dd868686868661207a565b505050505050565b6113ed611e9e565b6001600160a01b03811661141757604051631e4fbdf760e01b815260006004820152602401610721565b61142081611ef9565b50565b7ff0c57e16840df040f15088dc2f81fe391c3923bec73e23a9662efc9c229c6a008054600160401b810460ff1615906001600160401b03166000811580156114685750825b90506000826001600160401b031660011480156114845750303b155b905081158015611492575080155b156114b05760405163f92ee8a960e01b815260040160405180910390fd5b845467ffffffffffffffff1916600117855583156114da57845460ff60401b1916600160401b1785555b6114fb6040518060600160405280602c8152602001613863602c91396120d9565b6115036120ea565b61150c876120fa565b61151461210b565b600361152087826134d6565b5060405180606001604052806023815260200161388f6023913960089061154790826134d6565b50831561158e57845460ff60401b19168555604051600181527fc7f505b2f371ae2175ee4913f4499e1f2633a7b5936321eed1cdaeb6115181d29060200160405180910390a15b50505050505050565b606060006115a483612113565b60010190506000816001600160401b038111156115c3576115c3612e0b565b6040519080825280601f01601f1916602001820160405280156115ed576020820181803683370190505b5090508181016020015b600019016f181899199a1a9b1b9c1cb0b131b232b360811b600a86061a8153600a85049450846115f757509392505050565b7f9b779b17422d0df92223018b32b4d1fa46e071723d6817e2486d003becc55f0080546001190161166d57604051633ee5aeb560e01b815260040160405180910390fd5b60029055565b600080546040516346c2c8a760e01b8152600481018690526001600160a01b03909116906346c2c8a790602401602060405180830381865afa1580156116bd573d6000803e3d6000fd5b505050506040513d601f19601f820116820180604052508101906116e1919061361c565b905060008160078111156116f7576116f761363d565b1480611714575060018160078111156117125761171261363d565b145b806117305750600281600781111561172e5761172e61363d565b145b8061174c5750600381600781111561174a5761174a61363d565b145b6117985760405162461bcd60e51b815260206004820152601f60248201527f53686f77206e6f7420617661696c61626c6520666f72207075726368617365006044820152606401610721565b600082116117e85760405162461bcd60e51b815260206004820152601d60248201527f416d6f756e74206d7573742062652067726561746572207468616e20300000006044820152606401610721565b60008054604051637e3e393560e01b815260048101879052602481018690526001600160a01b0390911690637e3e393590604401600060405180830381865afa158015611839573d6000803e3d6000fd5b505050506040513d6000823e601f3d908101601f191682016040526118619190810190613653565b92505050828110156118b55760405162461bcd60e51b815260206004820152601c60248201527f4e6f7420656e6f756768207469636b65747320617661696c61626c65000000006044820152606401610721565b600154604051635b9a1e0960e01b8152600481018790523360248201526000916001600160a01b031690635b9a1e0990604401600060405180830381865afa158015611905573d6000803e3d6000fd5b505050506040513d6000823e601f3d908101601f1916820160405261192d91908101906136dc565b9050600584825161193e91906135f0565b11156113dd5760405162461bcd60e51b815260206004820152601460248201527313585e081d1a58dad95d1cc8195e18d95959195960621b6044820152606401610721565b6119ae6040518060800160405280600081526020016000815260200160008152602001600081525090565b60008054604051637e3e393560e01b8152600481018790526024810186905282916001600160a01b031690637e3e393590604401600060405180830381865afa1580156119ff573d6000803e3d6000fd5b505050506040513d6000823e601f3d908101601f19168201604052611a279190810190613653565b909350915060009050611a3a85846135d9565b60408051608081018252948552602085019390935291830191909152506000606082015290505b9392505050565b6000611a79868460400151846121eb565b611a8557506000611b32565b600160005b85811015611b2e576009805460009182611aa38361345a565b919050559050611aba81898b338a6000015161237f565b611ac8576000925050611b2e565b60408051898152602081018390526001818301526001600160a01b038716606082015290518a9133917f2aceb142a3587d08c8b52a9ac6b03c85fdce4097d5614383174758656261bfdd9181900360800190a35080611b268161345a565b915050611a8a565b5090505b95945050505050565b600154604051630f0faed760e31b815260048101859052602481018390526001600160a01b039091169063787d76b890604401600060405180830381600087803b158015611b8857600080fd5b505af1158015611b9c573d6000803e3d6000fd5b505060005460405163644b5e5960e01b81526004810187905260248101869052604481018590526001600160a01b03909116925063644b5e599150606401600060405180830381600087803b158015611bf457600080fd5b505af1158015611c08573d6000803e3d6000fd5b505060005460405163730c02a360e11b8152600481018790526001600160a01b03909116925063e61805469150602401600060405180830381600087803b158015611c5257600080fd5b505af115801561158e573d6000803e3d6000fd5b60017f9b779b17422d0df92223018b32b4d1fa46e071723d6817e2486d003becc55f0055565b336001600160a01b0386168114801590611cad5750611cab868261120e565b155b15611cde5760405163711bec9160e11b81526001600160a01b03808316600483015287166024820152604401610721565b6113dd868686868661249a565b306001600160a01b037f0000000000000000000000000000000000000000000000000000000000000000161480611d7257507f00000000000000000000000000000000000000000000000000000000000000006001600160a01b0316611d666000805160206138b2833981519152546001600160a01b031690565b6001600160a01b031614155b15610d9c5760405163703e46dd60e11b815260040160405180910390fd5b611420611e9e565b816001600160a01b03166352d1902d6040518163ffffffff1660e01b8152600401602060405180830381865afa925050508015611df2575060408051601f3d908101601f19168201909252611def91810190613603565b60015b611e1a57604051634c9c8ce360e01b81526001600160a01b0383166004820152602401610721565b6000805160206138b28339815191528114611e4b57604051632a87526960e21b815260048101829052602401610721565b610be783836124fa565b306001600160a01b037f00000000000000000000000000000000000000000000000000000000000000001614610d9c5760405163703e46dd60e11b815260040160405180910390fd5b33611ed07f9016d09d72d40fdae2fd8ceac6b6234c7706214fd39c1cd1e609a0528c199300546001600160a01b031690565b6001600160a01b031614610d9c5760405163118cdaa760e01b8152336004820152602401610721565b7f9016d09d72d40fdae2fd8ceac6b6234c7706214fd39c1cd1e609a0528c19930080546001600160a01b031981166001600160a01b03848116918217845560405192169182907f8be0079c531659141344cd1fd0a4f28419497f9722a3daafe3b4186f6b6457e090600090a3505050565b6001600160a01b038316611f9357604051626a0d4560e21b815260006004820152602401610721565b604080516001808252602082018590528183019081526060820184905260a08201909252600060808201818152919291610afb91879185908590612550565b6000805160206138d28339815191526001600160a01b03831661200a5760405162ced3e160e81b815260006004820152602401610721565b6001600160a01b038481166000818152600184016020908152604080832094881680845294825291829020805460ff191687151590811790915591519182527f17307eab39ab6107e8899845ad3d59bd9653f200f220920489ca2b5937696c31910160405180910390a350505050565b336001600160a01b038616811480159061209b5750612099868261120e565b155b156120cc5760405163711bec9160e11b81526001600160a01b03808316600483015287166024820152604401610721565b6113dd86868686866125a3565b6120e1612628565b61142081612671565b6120f2612628565b610d9c612682565b612102612628565b6114208161268a565b610d9c612628565b60008072184f03e93ff9f4daa797ed6e38ed64bf6a1f0160401b83106121525772184f03e93ff9f4daa797ed6e38ed64bf6a1f0160401b830492506040015b6d04ee2d6d415b85acef8100000000831061217e576d04ee2d6d415b85acef8100000000830492506020015b662386f26fc10000831061219c57662386f26fc10000830492506010015b6305f5e10083106121b4576305f5e100830492506008015b61271083106121c857612710830492506004015b606483106121da576064830492506002015b600a83106105cd5760010192915050565b60006001600160a01b0382166122aa578234146122415760405162461bcd60e51b8152602060048201526014602482015273125b98dbdc9c9958dd0811551208185b5bdd5b9d60621b6044820152606401610721565b600254604051638526663560e01b8152600481018690526001600160a01b039091169063852666359034906024016000604051808303818588803b15801561228857600080fd5b505af115801561229c573d6000803e3d6000fd5b505050505060019050611a61565b34156123035760405162461bcd60e51b815260206004820152602260248201527f446f206e6f742073656e64204554482077697468204552433230207061796d656044820152611b9d60f21b6064820152608401610721565b600254604051635412233f60e01b815260048101869052602481018590526001600160a01b03848116604483015233606483015290911690635412233f90608401600060405180830381600087803b15801561235e57600080fd5b505af1158015612372573d6000803e3d6000fd5b5050505060019050611a61565b600061239d8387600160405180602001604052806000815250612692565b6000868152600560209081526040808320889055600690915290819020859055600154905163de44006f60e01b81526001600160a01b039091169063de44006f906123f090879087908b90600401613425565b600060405180830381600087803b15801561240a57600080fd5b505af115801561241e573d6000803e3d6000fd5b5050600154604051632f51f71760e21b815260048101889052602481018a9052604481018690526001600160a01b03909116925063bd47dc5c9150606401600060405180830381600087803b15801561247657600080fd5b505af115801561248a573d6000803e3d6000fd5b5060019998505050505050505050565b6001600160a01b0384166124c457604051632bfa23e760e11b815260006004820152602401610721565b6001600160a01b0385166124ed57604051626a0d4560e21b815260006004820152602401610721565b610afb8585858585612550565b612503826126ef565b6040516001600160a01b038316907fbc7cd75a20ee27fd9adebab32041f755214dbc6bffa90cc0225b39da2e5c2d3b90600090a280511561254857610be78282612754565b610cdb6127c1565b61255c858585856127e0565b6001600160a01b03841615610afb5782513390600103612595576020848101519084015161258e838989858589612a0e565b50506113dd565b6113dd818787878787612b32565b6001600160a01b0384166125cd57604051632bfa23e760e11b815260006004820152602401610721565b6001600160a01b0385166125f657604051626a0d4560e21b815260006004820152602401610721565b6040805160018082526020820186905281830190815260608201859052608082019092529061158e8787848487612550565b7ff0c57e16840df040f15088dc2f81fe391c3923bec73e23a9662efc9c229c6a0054600160401b900460ff16610d9c57604051631afcd79f60e31b815260040160405180910390fd5b612679612628565b61142081612c1b565b611c66612628565b6113ed612628565b6001600160a01b0384166126bc57604051632bfa23e760e11b815260006004820152602401610721565b604080516001808252602082018690528183019081526060820185905260808201909252906113dd600087848487612550565b806001600160a01b03163b60000361272557604051634c9c8ce360e01b81526001600160a01b0382166004820152602401610721565b6000805160206138b283398151915280546001600160a01b0319166001600160a01b0392909216919091179055565b6060600080846001600160a01b031684604051612771919061376c565b600060405180830381855af49150503d80600081146127ac576040519150601f19603f3d011682016040523d82523d6000602084013e6127b1565b606091505b5091509150611b32858383612c55565b3415610d9c5760405163b398979f60e01b815260040160405180910390fd5b805182516000805160206138d2833981519152911461281f5782518251604051635b05999160e01b815260048101929092526024820152604401610721565b3360005b845181101561292e576020818102868101820151908601909101516001600160a01b038916156128d6576000828152602086815260408083206001600160a01b038d168452909152902054818110156128af576040516303dee4c560e01b81526001600160a01b038b166004820152602481018290526044810183905260648101849052608401610721565b6000838152602087815260408083206001600160a01b038e16845290915290209082900390555b6001600160a01b0388161561291b576000828152602086815260408083206001600160a01b038c168452909152812080548392906129159084906135f0565b90915550505b5050806129279061345a565b9050612823565b5083516001036129af5760208401516000906020850151909150866001600160a01b0316886001600160a01b0316846001600160a01b03167fc3d58168c5ae7397731d063d5bbf3d657854427343f4c083240f7aacaa2d0f6285856040516129a0929190918252602082015260400190565b60405180910390a450506113dd565b846001600160a01b0316866001600160a01b0316826001600160a01b03167f4a39dc06d4c0dbc64b70af90fd698a233a518aa5d07e595d983b8c0526c8f7fb87876040516129fe929190613788565b60405180910390a4505050505050565b6001600160a01b0384163b156113dd5760405163f23a6e6160e01b81526001600160a01b0385169063f23a6e6190612a5290899089908890889088906004016137ad565b6020604051808303816000875af1925050508015612a8d575060408051601f3d908101601f19168201909252612a8a918101906137e7565b60015b612af6573d808015612abb576040519150601f19603f3d011682016040523d82523d6000602084013e612ac0565b606091505b508051600003612aee57604051632bfa23e760e11b81526001600160a01b0386166004820152602401610721565b805181602001fd5b6001600160e01b0319811663f23a6e6160e01b1461158e57604051632bfa23e760e11b81526001600160a01b0386166004820152602401610721565b6001600160a01b0384163b156113dd5760405163bc197c8160e01b81526001600160a01b0385169063bc197c8190612b769089908990889088908890600401613804565b6020604051808303816000875af1925050508015612bb1575060408051601f3d908101601f19168201909252612bae918101906137e7565b60015b612bdf573d808015612abb576040519150601f19603f3d011682016040523d82523d6000602084013e612ac0565b6001600160e01b0319811663bc197c8160e01b1461158e57604051632bfa23e760e11b81526001600160a01b0386166004820152602401610721565b6000805160206138d28339815191527f88be536d5240c274a3b1d3a1be54482fd9caa294f08c62a7cde569f49a3c4502610be783826134d6565b606082612c6a57612c6582612cb1565b611a61565b8151158015612c8157506001600160a01b0384163b155b15612caa57604051639996b31560e01b81526001600160a01b0385166004820152602401610721565b5080611a61565b805115612cc15780518082602001fd5b604051630a12f52160e11b815260040160405180910390fd5b6001600160a01b038116811461142057600080fd5b60008060408385031215612d0257600080fd5b8235612d0d81612cda565b946020939093013593505050565b6001600160e01b03198116811461142057600080fd5b600060208284031215612d4357600080fd5b8135611a6181612d1b565b600060208284031215612d6057600080fd5b5035919050565b60005b83811015612d82578181015183820152602001612d6a565b50506000910152565b60008151808452612da3816020860160208601612d67565b601f01601f19169290920160200192915050565b602081526000611a616020830184612d8b565b60008060008060808587031215612de057600080fd5b8435935060208501359250604085013591506060850135612e0081612cda565b939692955090935050565b634e487b7160e01b600052604160045260246000fd5b604051601f8201601f191681016001600160401b0381118282101715612e4957612e49612e0b565b604052919050565b60006001600160401b03821115612e6a57612e6a612e0b565b5060051b60200190565b600082601f830112612e8557600080fd5b81356020612e9a612e9583612e51565b612e21565b82815260059290921b84018101918181019086841115612eb957600080fd5b8286015b84811015612ed45780358352918301918301612ebd565b509695505050505050565b60006001600160401b03821115612ef857612ef8612e0b565b50601f01601f191660200190565b600082601f830112612f1757600080fd5b8135612f25612e9582612edf565b818152846020838601011115612f3a57600080fd5b816020850160208301376000918101602001919091529392505050565b600080600080600060a08688031215612f6f57600080fd5b8535612f7a81612cda565b94506020860135612f8a81612cda565b935060408601356001600160401b0380821115612fa657600080fd5b612fb289838a01612e74565b94506060880135915080821115612fc857600080fd5b612fd489838a01612e74565b93506080880135915080821115612fea57600080fd5b50612ff788828901612f06565b9150509295509295909350565b6000806040838503121561301757600080fd5b8235915060208301356001600160401b0381111561303457600080fd5b61304085828601612f06565b9150509250929050565b6000806040838503121561305d57600080fd5b82356001600160401b038082111561307457600080fd5b818501915085601f83011261308857600080fd5b81356020613098612e9583612e51565b82815260059290921b840181019181810190898411156130b757600080fd5b948201945b838610156130de5785356130cf81612cda565b825294820194908201906130bc565b965050860135925050808211156130f457600080fd5b5061304085828601612e74565b600081518084526020808501945080840160005b8381101561313157815187529582019590820190600101613115565b509495945050505050565b602081526000611a616020830184613101565b6000806040838503121561316257600080fd5b823561316d81612cda565b915060208301356001600160401b0381111561303457600080fd5b60008060006060848603121561319d57600080fd5b833592506020840135915060408401356131b681612cda565b809150509250925092565b600080604083850312156131d457600080fd5b82356131df81612cda565b9150602083013580151581146131f457600080fd5b809150509250929050565b60008060006060848603121561321457600080fd5b833592506020840135915060408401356001600160401b0381111561323857600080fd5b61324486828701612f06565b9150509250925092565b60008060006060848603121561326357600080fd5b833561326e81612cda565b9250602084013561327e81612cda565b915060408401356131b681612cda565b600080604083850312156132a157600080fd5b50508035926020909101359150565b600080604083850312156132c357600080fd5b82356132ce81612cda565b915060208301356131f481612cda565b600080600080600060a086880312156132f657600080fd5b853561330181612cda565b9450602086013561331181612cda565b9350604086013592506060860135915060808601356001600160401b0381111561333a57600080fd5b612ff788828901612f06565b60006020828403121561335857600080fd5b8135611a6181612cda565b600181811c9082168061337757607f821691505b60208210810361339757634e487b7160e01b600052602260045260246000fd5b50919050565b600084516133af818460208901612d67565b61060f60f31b90830190815284516133ce816002840160208901612d67565b602f60f81b6002929091019182015283516133f0816003840160208801612d67565b64173539b7b760d91b6003929091019182015260080195945050505050565b634e487b7160e01b600052603260045260246000fd5b9283526001600160a01b03919091166020830152604082015260600190565b634e487b7160e01b600052601160045260246000fd5b60006001820161346c5761346c613444565b5060010190565b60006020828403121561348557600080fd5b8151611a6181612cda565b601f821115610be757600081815260208120601f850160051c810160208610156134b75750805b601f850160051c820191505b818110156113dd578281556001016134c3565b81516001600160401b038111156134ef576134ef612e0b565b613503816134fd8454613363565b84613490565b602080601f83116001811461353857600084156135205750858301515b600019600386901b1c1916600185901b1785556113dd565b600085815260208120601f198616915b8281101561356757888601518255948401946001909101908401613548565b50858210156135855787850151600019600388901b60f8161c191681555b5050505050600190811b01905550565b60208082526024908201527f53686f7720636f6e7472616374206164647265737320697320616c7265616479604082015263081cd95d60e21b606082015260800190565b80820281158282048414176105cd576105cd613444565b808201808211156105cd576105cd613444565b60006020828403121561361557600080fd5b5051919050565b60006020828403121561362e57600080fd5b815160088110611a6157600080fd5b634e487b7160e01b600052602160045260246000fd5b60008060006060848603121561366857600080fd5b83516001600160401b0381111561367e57600080fd5b8401601f8101861361368f57600080fd5b805161369d612e9582612edf565b8181528760208385010111156136b257600080fd5b6136c3826020830160208601612d67565b6020870151604090970151909896975095945050505050565b600060208083850312156136ef57600080fd5b82516001600160401b0381111561370557600080fd5b8301601f8101851361371657600080fd5b8051613724612e9582612e51565b81815260059190911b8201830190838101908783111561374357600080fd5b928401925b8284101561376157835182529284019290840190613748565b979650505050505050565b6000825161377e818460208701612d67565b9190910192915050565b60408152600061379b6040830185613101565b8281036020840152611b328185613101565b6001600160a01b03868116825285166020820152604081018490526060810183905260a06080820181905260009061376190830184612d8b565b6000602082840312156137f957600080fd5b8151611a6181612d1b565b6001600160a01b0386811682528516602082015260a06040820181905260009061383090830186613101565b82810360608401526138428186613101565b905082810360808401526138568185612d8b565b9897505050505050505056fe68747470733a2f2f6d657461646174612e73656c6c6f7574732e6170702f73686f772f7b69647d2e6a736f6e68747470733a2f2f6d657461646174612e73656c6c6f7574732e6170702f73686f772f360894a13ba1a3210667c828492db98dca3e2076cc3735a920a3ca505d382bbc88be536d5240c274a3b1d3a1be54482fd9caa294f08c62a7cde569f49a3c4500a26469706673582212205ac2085a18d987337ac2d13b8938ab45c9d88bcde264052b8fccdeb7f56c5fe764736f6c63430008140033","linkReferences":{}},"methodIdentifiers":{"MAX_TICKETS_PER_WALLET()":"229df6d6","UPGRADE_INTERFACE_VERSION()":"ad3cb1cc","balanceOf(address,uint256)":"00fdd58e","balanceOfBatch(address[],uint256[])":"4e1273f4","boxOfficeInstance()":"a2b7d174","burnTokens(uint256,uint256,address)":"87f9ca5d","bytes32ToHexString(bytes32)":"c68b3787","getTicketPricePaidAndTierIndex(bytes32,uint256)":"da3a7616","initialize(address,string)":"f399e22e","isApprovedForAll(address,address)":"e985e9c5","owner()":"8da5cb5b","proxiableUUID()":"52d1902d","purchaseTickets(bytes32,uint256,uint256,address)":"1e87ccce","renounceOwnership()":"715018a6","safeBatchTransferFrom(address,address,uint256[],uint256[],bytes)":"2eb2c2d6","safeTransferFrom(address,address,uint256,uint256,bytes)":"f242432a","setApprovalForAll(address,bool)":"a22cb465","setDefaultURIForShow(bytes32,string)":"4dc387c8","setShowContractAddresses(address,address,address)":"b02ee944","setTokenURI(bytes32,uint256,string)":"a7d22597","showInstance()":"404f49d1","showVaultInstance()":"6a017891","supportsInterface(bytes4)":"01ffc9a7","ticketIdToTierIndex(uint256)":"5d7c188c","transferOwnership(address)":"f2fde38b","upgradeToAndCall(address,bytes)":"4f1ef286","uri(uint256)":"0e89341c","version()":"54fd4d50"},"id":79}