{"abi":[{"type":"function","name":"MAX_TICKETS_PER_WALLET","inputs":[],"outputs":[{"name":"","type":"uint256","internalType":"uint256"}],"stateMutability":"view"},{"type":"function","name":"boxOfficeInstance","inputs":[],"outputs":[{"name":"","type":"address","internalType":"contract IBoxOffice"}],"stateMutability":"view"},{"type":"function","name":"showInstance","inputs":[],"outputs":[{"name":"","type":"address","internalType":"contract IShow"}],"stateMutability":"view"},{"type":"function","name":"showVaultInstance","inputs":[],"outputs":[{"name":"","type":"address","internalType":"contract IShowVault"}],"stateMutability":"view"},{"type":"function","name":"ticketIdToTierIndex","inputs":[{"name":"","type":"uint256","internalType":"uint256"}],"outputs":[{"name":"","type":"uint256","internalType":"uint256"}],"stateMutability":"view"},{"type":"function","name":"version","inputs":[],"outputs":[{"name":"","type":"string","internalType":"string"}],"stateMutability":"view"}],"bytecode":{"object":"0x608060405234801561001057600080fd5b5061026d806100206000396000f3fe608060405234801561001057600080fd5b50600436106100625760003560e01c8063229df6d614610067578063404f49d11461008257806354fd4d50146100ad5780635d7c188c146100c25780636a017891146100e2578063a2b7d174146100f5575b600080fd5b61006f600581565b6040519081526020015b60405180910390f35b600054610095906001600160a01b031681565b6040516001600160a01b039091168152602001610079565b6100b5610108565b6040516100799190610196565b61006f6100d03660046101e4565b60056020526000908152604090205481565b600254610095906001600160a01b031681565b600154610095906001600160a01b031681565b60038054610115906101fd565b80601f0160208091040260200160405190810160405280929190818152602001828054610141906101fd565b801561018e5780601f106101635761010080835404028352916020019161018e565b820191906000526020600020905b81548152906001019060200180831161017157829003601f168201915b505050505081565b600060208083528351808285015260005b818110156101c3578581018301518582016040015282016101a7565b506000604082860101526040601f19601f8301168501019250505092915050565b6000602082840312156101f657600080fd5b5035919050565b600181811c9082168061021157607f821691505b60208210810361023157634e487b7160e01b600052602260045260246000fd5b5091905056fea2646970667358221220e26bbe983971a43502ff1aa64f78e696228be75ed6e66aa6ebc2afbda0c4c64e64736f6c63430008140033","linkReferences":{}},"methodIdentifiers":{"MAX_TICKETS_PER_WALLET()":"229df6d6","boxOfficeInstance()":"a2b7d174","showInstance()":"404f49d1","showVaultInstance()":"6a017891","ticketIdToTierIndex(uint256)":"5d7c188c","version()":"54fd4d50"},"id":99}