{"abi":[{"type":"function","name":"MAX_TICKETS_PER_WALLET","inputs":[],"outputs":[{"name":"","type":"uint256","internalType":"uint256"}],"stateMutability":"view"},{"type":"function","name":"UPGRADE_INTERFACE_VERSION","inputs":[],"outputs":[{"name":"","type":"string","internalType":"string"}],"stateMutability":"view"},{"type":"function","name":"balanceOf","inputs":[{"name":"account","type":"address","internalType":"address"},{"name":"id","type":"uint256","internalType":"uint256"}],"outputs":[{"name":"","type":"uint256","internalType":"uint256"}],"stateMutability":"view"},{"type":"function","name":"balanceOfBatch","inputs":[{"name":"accounts","type":"address[]","internalType":"address[]"},{"name":"ids","type":"uint256[]","internalType":"uint256[]"}],"outputs":[{"name":"","type":"uint256[]","internalType":"uint256[]"}],"stateMutability":"view"},{"type":"function","name":"burnTokens","inputs":[{"name":"tokenId","type":"uint256","internalType":"uint256"},{"name":"amount","type":"uint256","internalType":"uint256"}],"outputs":[],"stateMutability":"nonpayable"},{"type":"function","name":"initialize","inputs":[{"name":"initialOwner","type":"address","internalType":"address"},{"name":"_showContractAddress","type":"address","internalType":"address"}],"outputs":[],"stateMutability":"nonpayable"},{"type":"function","name":"isApprovedForAll","inputs":[{"name":"account","type":"address","internalType":"address"},{"name":"operator","type":"address","internalType":"address"}],"outputs":[{"name":"","type":"bool","internalType":"bool"}],"stateMutability":"view"},{"type":"function","name":"owner","inputs":[],"outputs":[{"name":"","type":"address","internalType":"address"}],"stateMutability":"view"},{"type":"function","name":"proxiableUUID","inputs":[],"outputs":[{"name":"","type":"bytes32","internalType":"bytes32"}],"stateMutability":"view"},{"type":"function","name":"purchaseTickets","inputs":[{"name":"showId","type":"bytes32","internalType":"bytes32"},{"name":"amount","type":"uint256","internalType":"uint256"}],"outputs":[],"stateMutability":"payable"},{"type":"function","name":"renounceOwnership","inputs":[],"outputs":[],"stateMutability":"nonpayable"},{"type":"function","name":"safeBatchTransferFrom","inputs":[{"name":"from","type":"address","internalType":"address"},{"name":"to","type":"address","internalType":"address"},{"name":"ids","type":"uint256[]","internalType":"uint256[]"},{"name":"values","type":"uint256[]","internalType":"uint256[]"},{"name":"data","type":"bytes","internalType":"bytes"}],"outputs":[],"stateMutability":"nonpayable"},{"type":"function","name":"safeTransferFrom","inputs":[{"name":"from","type":"address","internalType":"address"},{"name":"to","type":"address","internalType":"address"},{"name":"id","type":"uint256","internalType":"uint256"},{"name":"value","type":"uint256","internalType":"uint256"},{"name":"data","type":"bytes","internalType":"bytes"}],"outputs":[],"stateMutability":"nonpayable"},{"type":"function","name":"setApprovalForAll","inputs":[{"name":"operator","type":"address","internalType":"address"},{"name":"approved","type":"bool","internalType":"bool"}],"outputs":[],"stateMutability":"nonpayable"},{"type":"function","name":"setDefaultURI","inputs":[{"name":"newDefaultURI","type":"string","internalType":"string"},{"name":"showId","type":"bytes32","internalType":"bytes32"}],"outputs":[],"stateMutability":"nonpayable"},{"type":"function","name":"setTokenURI","inputs":[{"name":"showId","type":"bytes32","internalType":"bytes32"},{"name":"tokenId","type":"uint256","internalType":"uint256"},{"name":"newURI","type":"string","internalType":"string"}],"outputs":[],"stateMutability":"nonpayable"},{"type":"function","name":"showInstance","inputs":[],"outputs":[{"name":"","type":"address","internalType":"contract IShow"}],"stateMutability":"view"},{"type":"function","name":"supportsInterface","inputs":[{"name":"interfaceId","type":"bytes4","internalType":"bytes4"}],"outputs":[{"name":"","type":"bool","internalType":"bool"}],"stateMutability":"view"},{"type":"function","name":"transferOwnership","inputs":[{"name":"newOwner","type":"address","internalType":"address"}],"outputs":[],"stateMutability":"nonpayable"},{"type":"function","name":"upgradeToAndCall","inputs":[{"name":"newImplementation","type":"address","internalType":"address"},{"name":"data","type":"bytes","internalType":"bytes"}],"outputs":[],"stateMutability":"payable"},{"type":"function","name":"uri","inputs":[{"name":"tokenId","type":"uint256","internalType":"uint256"}],"outputs":[{"name":"","type":"string","internalType":"string"}],"stateMutability":"view"},{"type":"event","name":"ApprovalForAll","inputs":[{"name":"account","type":"address","indexed":true,"internalType":"address"},{"name":"operator","type":"address","indexed":true,"internalType":"address"},{"name":"approved","type":"bool","indexed":false,"internalType":"bool"}],"anonymous":false},{"type":"event","name":"Initialized","inputs":[{"name":"version","type":"uint64","indexed":false,"internalType":"uint64"}],"anonymous":false},{"type":"event","name":"OwnershipTransferred","inputs":[{"name":"previousOwner","type":"address","indexed":true,"internalType":"address"},{"name":"newOwner","type":"address","indexed":true,"internalType":"address"}],"anonymous":false},{"type":"event","name":"TicketPurchased","inputs":[{"name":"buyer","type":"address","indexed":true,"internalType":"address"},{"name":"showId","type":"bytes32","indexed":true,"internalType":"bytes32"},{"name":"ticketId","type":"uint256","indexed":true,"internalType":"uint256"},{"name":"amount","type":"uint256","indexed":false,"internalType":"uint256"},{"name":"fanStatus","type":"uint256","indexed":false,"internalType":"uint256"}],"anonymous":false},{"type":"event","name":"TransferBatch","inputs":[{"name":"operator","type":"address","indexed":true,"internalType":"address"},{"name":"from","type":"address","indexed":true,"internalType":"address"},{"name":"to","type":"address","indexed":true,"internalType":"address"},{"name":"ids","type":"uint256[]","indexed":false,"internalType":"uint256[]"},{"name":"values","type":"uint256[]","indexed":false,"internalType":"uint256[]"}],"anonymous":false},{"type":"event","name":"TransferSingle","inputs":[{"name":"operator","type":"address","indexed":true,"internalType":"address"},{"name":"from","type":"address","indexed":true,"internalType":"address"},{"name":"to","type":"address","indexed":true,"internalType":"address"},{"name":"id","type":"uint256","indexed":false,"internalType":"uint256"},{"name":"value","type":"uint256","indexed":false,"internalType":"uint256"}],"anonymous":false},{"type":"event","name":"URI","inputs":[{"name":"value","type":"string","indexed":false,"internalType":"string"},{"name":"id","type":"uint256","indexed":true,"internalType":"uint256"}],"anonymous":false},{"type":"event","name":"Upgraded","inputs":[{"name":"implementation","type":"address","indexed":true,"internalType":"address"}],"anonymous":false},{"type":"error","name":"AddressEmptyCode","inputs":[{"name":"target","type":"address","internalType":"address"}]},{"type":"error","name":"ERC1155InsufficientBalance","inputs":[{"name":"sender","type":"address","internalType":"address"},{"name":"balance","type":"uint256","internalType":"uint256"},{"name":"needed","type":"uint256","internalType":"uint256"},{"name":"tokenId","type":"uint256","internalType":"uint256"}]},{"type":"error","name":"ERC1155InvalidApprover","inputs":[{"name":"approver","type":"address","internalType":"address"}]},{"type":"error","name":"ERC1155InvalidArrayLength","inputs":[{"name":"idsLength","type":"uint256","internalType":"uint256"},{"name":"valuesLength","type":"uint256","internalType":"uint256"}]},{"type":"error","name":"ERC1155InvalidOperator","inputs":[{"name":"operator","type":"address","internalType":"address"}]},{"type":"error","name":"ERC1155InvalidReceiver","inputs":[{"name":"receiver","type":"address","internalType":"address"}]},{"type":"error","name":"ERC1155InvalidSender","inputs":[{"name":"sender","type":"address","internalType":"address"}]},{"type":"error","name":"ERC1155MissingApprovalForAll","inputs":[{"name":"operator","type":"address","internalType":"address"},{"name":"owner","type":"address","internalType":"address"}]},{"type":"error","name":"ERC1967InvalidImplementation","inputs":[{"name":"implementation","type":"address","internalType":"address"}]},{"type":"error","name":"ERC1967NonPayable","inputs":[]},{"type":"error","name":"FailedInnerCall","inputs":[]},{"type":"error","name":"InvalidInitialization","inputs":[]},{"type":"error","name":"NotInitializing","inputs":[]},{"type":"error","name":"OwnableInvalidOwner","inputs":[{"name":"owner","type":"address","internalType":"address"}]},{"type":"error","name":"OwnableUnauthorizedAccount","inputs":[{"name":"account","type":"address","internalType":"address"}]},{"type":"error","name":"ReentrancyGuardReentrantCall","inputs":[]},{"type":"error","name":"UUPSUnauthorizedCallContext","inputs":[]},{"type":"error","name":"UUPSUnsupportedProxiableUUID","inputs":[{"name":"slot","type":"bytes32","internalType":"bytes32"}]}],"bytecode":{"object":"0x60a06040523060805234801561001457600080fd5b50608051612ec961003e600039600081816114c5015281816114ee015261162f0152612ec96000f3fe6080604052600436106101295760003560e01c80635dbab132116100ab578063a7d225971161006f578063a7d2259714610354578063ad3cb1cc14610374578063e985e9c5146103a5578063f242432a146103c5578063f2fde38b146103e5578063fa29a69b1461040557600080fd5b80635dbab132146102a2578063715018a6146102c25780638da5cb5b146102d75780638e81c64d14610314578063a22cb4651461033457600080fd5b8063404f49d1116100f2578063404f49d1146101f5578063485cc9551461022d5780634e1273f41461024d5780634f1ef2861461027a57806352d1902d1461028d57600080fd5b8062fdd58e1461012e57806301ffc9a7146101615780630e89341c14610191578063229df6d6146101be5780632eb2c2d6146101d3575b600080fd5b34801561013a57600080fd5b5061014e6101493660046123e5565b610418565b6040519081526020015b60405180910390f35b34801561016d57600080fd5b5061018161017c366004612427565b61044f565b6040519015158152602001610158565b34801561019d57600080fd5b506101b16101ac366004612444565b61049f565b60405161015891906124ad565b3480156101ca57600080fd5b5061014e600581565b3480156101df57600080fd5b506101f36101ee366004612603565b610586565b005b34801561020157600080fd5b50600154610215906001600160a01b031681565b6040516001600160a01b039091168152602001610158565b34801561023957600080fd5b506101f36102483660046126b0565b6105f2565b34801561025957600080fd5b5061026d6102683660046126e9565b610773565b60405161015891906127e5565b6101f36102883660046127f8565b610847565b34801561029957600080fd5b5061014e610866565b3480156102ae57600080fd5b506101f36102bd36600461283d565b610883565b3480156102ce57600080fd5b506101f3610953565b3480156102e357600080fd5b507f9016d09d72d40fdae2fd8ceac6b6234c7706214fd39c1cd1e609a0528c199300546001600160a01b0316610215565b34801561032057600080fd5b506101f361032f366004612881565b610967565b34801561034057600080fd5b506101f361034f3660046128b1565b6109e2565b34801561036057600080fd5b506101f361036f3660046128df565b6109ed565b34801561038057600080fd5b506101b1604051806040016040528060058152602001640352e302e360dc1b81525081565b3480156103b157600080fd5b506101816103c03660046126b0565b610b21565b3480156103d157600080fd5b506101f36103e036600461292e565b610b6e565b3480156103f157600080fd5b506101f3610400366004612996565b610bcd565b6101f3610413366004612881565b610c0b565b6000818152600080516020612e46833981519152602090815260408083206001600160a01b03861684529091529020545b92915050565b60006001600160e01b03198216636cdb3d1360e11b148061048057506001600160e01b031982166303a24d0760e21b145b8061044957506301ffc9a760e01b6001600160e01b0319831614610449565b6000818152600260205260408120805460609291906104bd906129b3565b80601f01602080910402602001604051908101604052809291908181526020018280546104e9906129b3565b80156105365780601f1061050b57610100808354040283529160200191610536565b820191906000526020600020905b81548152906001019060200180831161051957829003601f168201915b5050505050905060008151111561054d5792915050565b600361055884611387565b6040516020016105699291906129e7565b604051602081830303815290604052915050919050565b50919050565b336001600160a01b03861681148015906105a757506105a58682610b21565b155b156105dd5760405163711bec9160e11b81526001600160a01b038083166004830152871660248201526044015b60405180910390fd5b6105ea8686868686611419565b505050505050565b7ff0c57e16840df040f15088dc2f81fe391c3923bec73e23a9662efc9c229c6a008054600160401b810460ff1615906001600160401b03166000811580156106375750825b90506000826001600160401b031660011480156106535750303b155b905081158015610661575080155b1561067f5760405163f92ee8a960e01b815260040160405180910390fd5b845467ffffffffffffffff1916600117855583156106a957845460ff60401b1916600160401b1785555b6106ca6040518060600160405280602e8152602001612e66602e9139611480565b6106d2611491565b6106db876114a1565b6106e36114b2565b600180546001600160a01b0319166001600160a01b03881617905560408051606081019091526025808252612e0160208301396003906107239082612ac4565b50831561076a57845460ff60401b19168555604051600181527fc7f505b2f371ae2175ee4913f4499e1f2633a7b5936321eed1cdaeb6115181d29060200160405180910390a15b50505050505050565b606081518351146107a45781518351604051635b05999160e01b8152600481019290925260248201526044016105d4565b600083516001600160401b038111156107bf576107bf6124c0565b6040519080825280602002602001820160405280156107e8578160200160208202803683370190505b50905060005b845181101561083f5760208082028601015161081290602080840287010151610418565b82828151811061082457610824612b83565b602090810291909101015261083881612baf565b90506107ee565b509392505050565b61084f6114ba565b6108588261155f565b6108628282611567565b5050565b6000610870611624565b50600080516020612e2683398151915290565b600154604051632769b96d60e11b8152336004820152602481018390526001600160a01b0390911690634ed372da90604401602060405180830381865afa1580156108d2573d6000803e3d6000fd5b505050506040513d601f19601f820116820180604052508101906108f69190612bc8565b6109425760405162461bcd60e51b815260206004820152601b60248201527f43616c6c6572206973206e6f7420746865206f7267616e697a6572000000000060448201526064016105d4565b600361094e8382612ac4565b505050565b61095b61166d565b61096560006116c8565b565b6001546001600160a01b031633146109d75760405162461bcd60e51b815260206004820152602d60248201527f4f6e6c79207468652053686f7720636f6e74726163742063616e2063616c6c2060448201526c3a3434b990333ab731ba34b7b760991b60648201526084016105d4565b610862338383611739565b6108623383836117a1565b600154604051634bbe5c4f60e11b8152600481018590526001600160a01b039091169063977cb89e90602401602060405180830381865afa158015610a36573d6000803e3d6000fd5b505050506040513d601f19601f82011682018060405250810190610a5a9190612be5565b6001600160a01b0316336001600160a01b031614610acb5760405162461bcd60e51b815260206004820152602860248201527f43616c6c6572206973206e6f7420746865206f7267616e697a6572206f6620746044820152676869732073686f7760c01b60648201526084016105d4565b6000828152600260205260409020610ae38282612ac4565b50817f6bb7ff708619ba0610cba295a58592e0451dee2622938c8755667688daf3529b82604051610b1491906124ad565b60405180910390a2505050565b6001600160a01b0391821660009081527f88be536d5240c274a3b1d3a1be54482fd9caa294f08c62a7cde569f49a3c45016020908152604080832093909416825291909152205460ff1690565b336001600160a01b0386168114801590610b8f5750610b8d8682610b21565b155b15610bc05760405163711bec9160e11b81526001600160a01b038083166004830152871660248201526044016105d4565b6105ea8686868686611849565b610bd561166d565b6001600160a01b038116610bff57604051631e4fbdf760e01b8152600060048201526024016105d4565b610c08816116c8565b50565b610c136118ce565b600082815260208181526040808320338452909152808220546001549151630610418760e41b8152600481018690529092916001600160a01b031690636104187090602401602060405180830381865afa158015610c75573d6000803e3d6000fd5b505050506040513d601f19601f82011682018060405250810190610c999190612c02565b90506005610ca78484612c1b565b1115610d005760405162461bcd60e51b815260206004820152602260248201527f45786365656473206d6178696d756d207469636b657473207065722077616c6c604482015261195d60f21b60648201526084016105d4565b6001546040516346c2c8a760e01b8152600481018690526000916001600160a01b0316906346c2c8a790602401602060405180830381865afa158015610d4a573d6000803e3d6000fd5b505050506040513d601f19601f82011682018060405250810190610d6e9190612c44565b6007811115610d7f57610d7f612c2e565b14610dde5760405162461bcd60e51b815260206004820152602960248201527f53686f77206973206e6f7420617661696c61626c6520666f72207469636b657460448201526820707572636861736560b81b60648201526084016105d4565b600154604051631883b07960e21b8152600481018690526001600160a01b039091169063620ec1e490602401602060405180830381865afa158015610e27573d6000803e3d6000fd5b505050506040513d601f19601f82011682018060405250810190610e4b9190612c02565b600154604051630610418760e41b81526004810187905285916001600160a01b031690636104187090602401602060405180830381865afa158015610e94573d6000803e3d6000fd5b505050506040513d601f19601f82011682018060405250810190610eb89190612c02565b610ec29190612c1b565b1115610f105760405162461bcd60e51b815260206004820152601c60248201527f4e6f7420656e6f756768207469636b65747320617661696c61626c650000000060448201526064016105d4565b6000610f1b85611918565b6001546040516331cea0e760e21b8152600481018890529192506000916001600160a01b039091169063c73a839c906024016040805180830381865afa158015610f69573d6000803e3d6000fd5b505050506040513d601f19601f82011682018060405250810190610f8d9190612c65565b9050600085610fa58484600001518560200151611a4f565b610faf9190612cb3565b90508034146110005760405162461bcd60e51b815260206004820152601860248201527f496e636f7272656374207061796d656e7420616d6f756e74000000000000000060448201526064016105d4565b600154604051638526663560e01b8152600481018990526001600160a01b039091169063852666359034906024016000604051808303818588803b15801561104757600080fd5b505af115801561105b573d6000803e3d6000fd5b505050600089815260208181526040808320338452909152812080548a9450909250611088908490612c1b565b909155505060408051602081018990526bffffffffffffffffffffffff193360601b169181019190915260548101859052607481018790526000906094016040516020818303038152906040528051906020012060001c90506110fc33828960405180602001604052806000815250611b6e565b60015460405163de44006f60e01b8152600481018a9052336024820152604481018390526001600160a01b039091169063de44006f90606401600060405180830381600087803b15801561114f57600080fd5b505af1158015611163573d6000803e3d6000fd5b5050600154604051632f51f71760e21b8152600481018c9052602481018590523460448201526001600160a01b03909116925063bd47dc5c9150606401600060405180830381600087803b1580156111ba57600080fd5b505af11580156111ce573d6000803e3d6000fd5b505060018054604051638e5298a560e01b8152336004820152602481018d905260448101929092526001600160a01b03169250638e5298a59150606401600060405180830381600087803b15801561122557600080fd5b505af1158015611239573d6000803e3d6000fd5b50506001546001600160a01b03169150630d08c3c990508961125e4262278d00612c1b565b6040516001600160e01b031960e085901b16815260048101929092526024820152604401600060405180830381600087803b15801561129c57600080fd5b505af11580156112b0573d6000803e3d6000fd5b5050600154604051630f0faed760e31b8152600481018c9052602481018b90526001600160a01b03909116925063787d76b89150604401600060405180830381600087803b15801561130157600080fd5b505af1158015611315573d6000803e3d6000fd5b5050604080518a8152602081018890528493508b925033917ff53f6fe7b2b86daf10364d1fc7e66dfc3adc1482215b61947bf0ec712e129908910160405180910390a450505050505061086260017f9b779b17422d0df92223018b32b4d1fa46e071723d6817e2486d003becc55f0055565b6060600061139483611bf1565b60010190506000816001600160401b038111156113b3576113b36124c0565b6040519080825280601f01601f1916602001820160405280156113dd576020820181803683370190505b5090508181016020015b600019016f181899199a1a9b1b9c1cb0b131b232b360811b600a86061a8153600a85049450846113e757509392505050565b6001600160a01b03841661144357604051632bfa23e760e11b8152600060048201526024016105d4565b6001600160a01b03851661146c57604051626a0d4560e21b8152600060048201526024016105d4565b6114798585858585611cc9565b5050505050565b611488611d1c565b610c0881611d65565b611499611d1c565b610965611d76565b6114a9611d1c565b610c0881611d7e565b610965611d1c565b306001600160a01b037f000000000000000000000000000000000000000000000000000000000000000016148061154157507f00000000000000000000000000000000000000000000000000000000000000006001600160a01b0316611535600080516020612e26833981519152546001600160a01b031690565b6001600160a01b031614155b156109655760405163703e46dd60e11b815260040160405180910390fd5b610c0861166d565b816001600160a01b03166352d1902d6040518163ffffffff1660e01b8152600401602060405180830381865afa9250505080156115c1575060408051601f3d908101601f191682019092526115be91810190612c02565b60015b6115e957604051634c9c8ce360e01b81526001600160a01b03831660048201526024016105d4565b600080516020612e26833981519152811461161a57604051632a87526960e21b8152600481018290526024016105d4565b61094e8383611d86565b306001600160a01b037f000000000000000000000000000000000000000000000000000000000000000016146109655760405163703e46dd60e11b815260040160405180910390fd5b3361169f7f9016d09d72d40fdae2fd8ceac6b6234c7706214fd39c1cd1e609a0528c199300546001600160a01b031690565b6001600160a01b0316146109655760405163118cdaa760e01b81523360048201526024016105d4565b7f9016d09d72d40fdae2fd8ceac6b6234c7706214fd39c1cd1e609a0528c19930080546001600160a01b031981166001600160a01b03848116918217845560405192169182907f8be0079c531659141344cd1fd0a4f28419497f9722a3daafe3b4186f6b6457e090600090a3505050565b6001600160a01b03831661176257604051626a0d4560e21b8152600060048201526024016105d4565b604080516001808252602082018590528183019081526060820184905260a0820190925260006080820181815291929161147991879185908590611cc9565b600080516020612e468339815191526001600160a01b0383166117d95760405162ced3e160e81b8152600060048201526024016105d4565b6001600160a01b038481166000818152600184016020908152604080832094881680845294825291829020805460ff191687151590811790915591519182527f17307eab39ab6107e8899845ad3d59bd9653f200f220920489ca2b5937696c31910160405180910390a350505050565b6001600160a01b03841661187357604051632bfa23e760e11b8152600060048201526024016105d4565b6001600160a01b03851661189c57604051626a0d4560e21b8152600060048201526024016105d4565b6040805160018082526020820186905281830190815260608201859052608082019092529061076a8787848487611cc9565b7f9b779b17422d0df92223018b32b4d1fa46e071723d6817e2486d003becc55f0080546001190161191257604051633ee5aeb560e01b815260040160405180910390fd5b60029055565b600154604051631883b07960e21b81526004810183905260009182916001600160a01b039091169063620ec1e490602401602060405180830381865afa158015611966573d6000803e3d6000fd5b505050506040513d601f19601f8201168201806040525081019061198a9190612c02565b600154604051630610418760e41b8152600481018690529192506000916001600160a01b0390911690636104187090602401602060405180830381865afa1580156119d9573d6000803e3d6000fd5b505050506040513d601f19601f820116820180604052508101906119fd9190612c02565b9050600082611a0d836064612cb3565b611a179190612cca565b90506000600a611a28836009612c1b565b611a329190612cca565b905060008111611a43576001611a45565b805b9695505050505050565b600060018410158015611a635750600a8411155b611aa45760405162461bcd60e51b8152602060048201526012602482015271496e76616c69642066616e2073746174757360701b60448201526064016105d4565b82821015611b0c5760405162461bcd60e51b815260206004820152602f60248201527f4d6178207072696365206d7573742062652067726561746572206f722065717560448201526e616c20746f206d696e20707269636560881b60648201526084016105d4565b8360011480611b1a57508282145b15611b26575081611b67565b6000611b328484612cec565b90506000611b41600983612cca565b9050611b4e600187612cec565b611b589082612cb3565b611b629086612c1b565b925050505b9392505050565b6001600160a01b038416611b9857604051632bfa23e760e11b8152600060048201526024016105d4565b604080516001808252602082018690528183019081526060820185905260808201909252906105ea600087848487611cc9565b60017f9b779b17422d0df92223018b32b4d1fa46e071723d6817e2486d003becc55f0055565b60008072184f03e93ff9f4daa797ed6e38ed64bf6a1f0160401b8310611c305772184f03e93ff9f4daa797ed6e38ed64bf6a1f0160401b830492506040015b6d04ee2d6d415b85acef81000000008310611c5c576d04ee2d6d415b85acef8100000000830492506020015b662386f26fc100008310611c7a57662386f26fc10000830492506010015b6305f5e1008310611c92576305f5e100830492506008015b6127108310611ca657612710830492506004015b60648310611cb8576064830492506002015b600a83106104495760010192915050565b611cd585858585611ddc565b6001600160a01b038416156114795782513390600103611d0e5760208481015190840151611d0783898985858961200a565b50506105ea565b6105ea81878787878761212e565b7ff0c57e16840df040f15088dc2f81fe391c3923bec73e23a9662efc9c229c6a0054600160401b900460ff1661096557604051631afcd79f60e31b815260040160405180910390fd5b611d6d611d1c565b610c0881612217565b611bcb611d1c565b610bd5611d1c565b611d8f82612251565b6040516001600160a01b038316907fbc7cd75a20ee27fd9adebab32041f755214dbc6bffa90cc0225b39da2e5c2d3b90600090a2805115611dd45761094e82826122b6565b61086261232c565b80518251600080516020612e468339815191529114611e1b5782518251604051635b05999160e01b8152600481019290925260248201526044016105d4565b3360005b8451811015611f2a576020818102868101820151908601909101516001600160a01b03891615611ed2576000828152602086815260408083206001600160a01b038d16845290915290205481811015611eab576040516303dee4c560e01b81526001600160a01b038b1660048201526024810182905260448101839052606481018490526084016105d4565b6000838152602087815260408083206001600160a01b038e16845290915290209082900390555b6001600160a01b03881615611f17576000828152602086815260408083206001600160a01b038c16845290915281208054839290611f11908490612c1b565b90915550505b505080611f2390612baf565b9050611e1f565b508351600103611fab5760208401516000906020850151909150866001600160a01b0316886001600160a01b0316846001600160a01b03167fc3d58168c5ae7397731d063d5bbf3d657854427343f4c083240f7aacaa2d0f628585604051611f9c929190918252602082015260400190565b60405180910390a450506105ea565b846001600160a01b0316866001600160a01b0316826001600160a01b03167f4a39dc06d4c0dbc64b70af90fd698a233a518aa5d07e595d983b8c0526c8f7fb8787604051611ffa929190612cff565b60405180910390a4505050505050565b6001600160a01b0384163b156105ea5760405163f23a6e6160e01b81526001600160a01b0385169063f23a6e619061204e9089908990889088908890600401612d24565b6020604051808303816000875af1925050508015612089575060408051601f3d908101601f1916820190925261208691810190612d69565b60015b6120f2573d8080156120b7576040519150601f19603f3d011682016040523d82523d6000602084013e6120bc565b606091505b5080516000036120ea57604051632bfa23e760e11b81526001600160a01b03861660048201526024016105d4565b805181602001fd5b6001600160e01b0319811663f23a6e6160e01b1461076a57604051632bfa23e760e11b81526001600160a01b03861660048201526024016105d4565b6001600160a01b0384163b156105ea5760405163bc197c8160e01b81526001600160a01b0385169063bc197c81906121729089908990889088908890600401612d86565b6020604051808303816000875af19250505080156121ad575060408051601f3d908101601f191682019092526121aa91810190612d69565b60015b6121db573d8080156120b7576040519150601f19603f3d011682016040523d82523d6000602084013e6120bc565b6001600160e01b0319811663bc197c8160e01b1461076a57604051632bfa23e760e11b81526001600160a01b03861660048201526024016105d4565b600080516020612e468339815191527f88be536d5240c274a3b1d3a1be54482fd9caa294f08c62a7cde569f49a3c450261094e8382612ac4565b806001600160a01b03163b60000361228757604051634c9c8ce360e01b81526001600160a01b03821660048201526024016105d4565b600080516020612e2683398151915280546001600160a01b0319166001600160a01b0392909216919091179055565b6060600080846001600160a01b0316846040516122d39190612de4565b600060405180830381855af49150503d806000811461230e576040519150601f19603f3d011682016040523d82523d6000602084013e612313565b606091505b509150915061232385838361234b565b95945050505050565b34156109655760405163b398979f60e01b815260040160405180910390fd5b6060826123605761235b826123a7565b611b67565b815115801561237757506001600160a01b0384163b155b156123a057604051639996b31560e01b81526001600160a01b03851660048201526024016105d4565b5080611b67565b8051156123b75780518082602001fd5b604051630a12f52160e11b815260040160405180910390fd5b6001600160a01b0381168114610c0857600080fd5b600080604083850312156123f857600080fd5b8235612403816123d0565b946020939093013593505050565b6001600160e01b031981168114610c0857600080fd5b60006020828403121561243957600080fd5b8135611b6781612411565b60006020828403121561245657600080fd5b5035919050565b60005b83811015612478578181015183820152602001612460565b50506000910152565b6000815180845261249981602086016020860161245d565b601f01601f19169290920160200192915050565b602081526000611b676020830184612481565b634e487b7160e01b600052604160045260246000fd5b604051601f8201601f191681016001600160401b03811182821017156124fe576124fe6124c0565b604052919050565b60006001600160401b0382111561251f5761251f6124c0565b5060051b60200190565b600082601f83011261253a57600080fd5b8135602061254f61254a83612506565b6124d6565b82815260059290921b8401810191818101908684111561256e57600080fd5b8286015b848110156125895780358352918301918301612572565b509695505050505050565b600082601f8301126125a557600080fd5b81356001600160401b038111156125be576125be6124c0565b6125d1601f8201601f19166020016124d6565b8181528460208386010111156125e657600080fd5b816020850160208301376000918101602001919091529392505050565b600080600080600060a0868803121561261b57600080fd5b8535612626816123d0565b94506020860135612636816123d0565b935060408601356001600160401b038082111561265257600080fd5b61265e89838a01612529565b9450606088013591508082111561267457600080fd5b61268089838a01612529565b9350608088013591508082111561269657600080fd5b506126a388828901612594565b9150509295509295909350565b600080604083850312156126c357600080fd5b82356126ce816123d0565b915060208301356126de816123d0565b809150509250929050565b600080604083850312156126fc57600080fd5b82356001600160401b038082111561271357600080fd5b818501915085601f83011261272757600080fd5b8135602061273761254a83612506565b82815260059290921b8401810191818101908984111561275657600080fd5b948201945b8386101561277d57853561276e816123d0565b8252948201949082019061275b565b9650508601359250508082111561279357600080fd5b506127a085828601612529565b9150509250929050565b600081518084526020808501945080840160005b838110156127da578151875295820195908201906001016127be565b509495945050505050565b602081526000611b6760208301846127aa565b6000806040838503121561280b57600080fd5b8235612816816123d0565b915060208301356001600160401b0381111561283157600080fd5b6127a085828601612594565b6000806040838503121561285057600080fd5b82356001600160401b0381111561286657600080fd5b61287285828601612594565b95602094909401359450505050565b6000806040838503121561289457600080fd5b50508035926020909101359150565b8015158114610c0857600080fd5b600080604083850312156128c457600080fd5b82356128cf816123d0565b915060208301356126de816128a3565b6000806000606084860312156128f457600080fd5b833592506020840135915060408401356001600160401b0381111561291857600080fd5b61292486828701612594565b9150509250925092565b600080600080600060a0868803121561294657600080fd5b8535612951816123d0565b94506020860135612961816123d0565b9350604086013592506060860135915060808601356001600160401b0381111561298a57600080fd5b6126a388828901612594565b6000602082840312156129a857600080fd5b8135611b67816123d0565b600181811c908216806129c757607f821691505b60208210810361058057634e487b7160e01b600052602260045260246000fd5b60008084546129f5816129b3565b60018281168015612a0d5760018114612a2257612a51565b60ff1984168752821515830287019450612a51565b8860005260208060002060005b85811015612a485781548a820152908401908201612a2f565b50505082870194505b505050508351612a6581836020880161245d565b64173539b7b760d91b9101908152600501949350505050565b601f82111561094e57600081815260208120601f850160051c81016020861015612aa55750805b601f850160051c820191505b818110156105ea57828155600101612ab1565b81516001600160401b03811115612add57612add6124c0565b612af181612aeb84546129b3565b84612a7e565b602080601f831160018114612b265760008415612b0e5750858301515b600019600386901b1c1916600185901b1785556105ea565b600085815260208120601f198616915b82811015612b5557888601518255948401946001909101908401612b36565b5085821015612b735787850151600019600388901b60f8161c191681555b5050505050600190811b01905550565b634e487b7160e01b600052603260045260246000fd5b634e487b7160e01b600052601160045260246000fd5b600060018201612bc157612bc1612b99565b5060010190565b600060208284031215612bda57600080fd5b8151611b67816128a3565b600060208284031215612bf757600080fd5b8151611b67816123d0565b600060208284031215612c1457600080fd5b5051919050565b8082018082111561044957610449612b99565b634e487b7160e01b600052602160045260246000fd5b600060208284031215612c5657600080fd5b815160088110611b6757600080fd5b600060408284031215612c7757600080fd5b604051604081018181106001600160401b0382111715612c9957612c996124c0565b604052825181526020928301519281019290925250919050565b808202811582820484141761044957610449612b99565b600082612ce757634e487b7160e01b600052601260045260246000fd5b500490565b8181038181111561044957610449612b99565b604081526000612d1260408301856127aa565b828103602084015261232381856127aa565b6001600160a01b03868116825285166020820152604081018490526060810183905260a060808201819052600090612d5e90830184612481565b979650505050505050565b600060208284031215612d7b57600080fd5b8151611b6781612411565b6001600160a01b0386811682528516602082015260a060408201819052600090612db2908301866127aa565b8281036060840152612dc481866127aa565b90508281036080840152612dd88185612481565b98975050505050505050565b60008251612df681846020870161245d565b919091019291505056fe68747470733a2f2f6d657461646174612e73656c6c6f7574732e6170702f7469636b65742f360894a13ba1a3210667c828492db98dca3e2076cc3735a920a3ca505d382bbc88be536d5240c274a3b1d3a1be54482fd9caa294f08c62a7cde569f49a3c450068747470733a2f2f6d657461646174612e73656c6c6f7574732e6170702f7469636b65742f7b69647d2e6a736f6ea2646970667358221220a7d1babd6b43e90e536df4748e09cd5c402a44dc6e1995171c68bfcbf622d32964736f6c63430008140033","linkReferences":{}},"methodIdentifiers":{"MAX_TICKETS_PER_WALLET()":"229df6d6","UPGRADE_INTERFACE_VERSION()":"ad3cb1cc","balanceOf(address,uint256)":"00fdd58e","balanceOfBatch(address[],uint256[])":"4e1273f4","burnTokens(uint256,uint256)":"8e81c64d","initialize(address,address)":"485cc955","isApprovedForAll(address,address)":"e985e9c5","owner()":"8da5cb5b","proxiableUUID()":"52d1902d","purchaseTickets(bytes32,uint256)":"fa29a69b","renounceOwnership()":"715018a6","safeBatchTransferFrom(address,address,uint256[],uint256[],bytes)":"2eb2c2d6","safeTransferFrom(address,address,uint256,uint256,bytes)":"f242432a","setApprovalForAll(address,bool)":"a22cb465","setDefaultURI(string,bytes32)":"5dbab132","setTokenURI(bytes32,uint256,string)":"a7d22597","showInstance()":"404f49d1","supportsInterface(bytes4)":"01ffc9a7","transferOwnership(address)":"f2fde38b","upgradeToAndCall(address,bytes)":"4f1ef286","uri(uint256)":"0e89341c"},"id":78}