{"abi":[{"type":"function","name":"MAX_TICKETS_PER_WALLET","inputs":[],"outputs":[{"name":"","type":"uint256","internalType":"uint256"}],"stateMutability":"view"},{"type":"function","name":"showInstance","inputs":[],"outputs":[{"name":"","type":"address","internalType":"contract IShow"}],"stateMutability":"view"},{"type":"function","name":"ticketIdToTierIndex","inputs":[{"name":"","type":"uint256","internalType":"uint256"}],"outputs":[{"name":"","type":"uint256","internalType":"uint256"}],"stateMutability":"view"},{"type":"function","name":"version","inputs":[],"outputs":[{"name":"","type":"string","internalType":"string"}],"stateMutability":"view"}],"bytecode":{"object":"0x608060405234801561001057600080fd5b50610231806100206000396000f3fe608060405234801561001057600080fd5b506004361061004c5760003560e01c8063229df6d614610051578063404f49d11461006c57806354fd4d50146100975780635d7c188c146100ac575b600080fd5b610059600581565b6040519081526020015b60405180910390f35b60005461007f906001600160a01b031681565b6040516001600160a01b039091168152602001610063565b61009f6100cc565b604051610063919061015a565b6100596100ba3660046101a8565b60036020526000908152604090205481565b600180546100d9906101c1565b80601f0160208091040260200160405190810160405280929190818152602001828054610105906101c1565b80156101525780601f1061012757610100808354040283529160200191610152565b820191906000526020600020905b81548152906001019060200180831161013557829003601f168201915b505050505081565b600060208083528351808285015260005b818110156101875785810183015185820160400152820161016b565b506000604082860101526040601f19601f8301168501019250505092915050565b6000602082840312156101ba57600080fd5b5035919050565b600181811c908216806101d557607f821691505b6020821081036101f557634e487b7160e01b600052602260045260246000fd5b5091905056fea26469706673582212206ff10a56ee4a6b797a04faeee145d6d6179889c1bf62239dd3d976bf5f37b28264736f6c63430008140033","linkReferences":{}},"methodIdentifiers":{"MAX_TICKETS_PER_WALLET()":"229df6d6","showInstance()":"404f49d1","ticketIdToTierIndex(uint256)":"5d7c188c","version()":"54fd4d50"},"id":71}