{"abi":[{"type":"function","name":"MAX_TICKETS_PER_WALLET","inputs":[],"outputs":[{"name":"","type":"uint256","internalType":"uint256"}],"stateMutability":"view"},{"type":"function","name":"UPGRADE_INTERFACE_VERSION","inputs":[],"outputs":[{"name":"","type":"string","internalType":"string"}],"stateMutability":"view"},{"type":"function","name":"balanceOf","inputs":[{"name":"account","type":"address","internalType":"address"},{"name":"id","type":"uint256","internalType":"uint256"}],"outputs":[{"name":"","type":"uint256","internalType":"uint256"}],"stateMutability":"view"},{"type":"function","name":"balanceOfBatch","inputs":[{"name":"accounts","type":"address[]","internalType":"address[]"},{"name":"ids","type":"uint256[]","internalType":"uint256[]"}],"outputs":[{"name":"","type":"uint256[]","internalType":"uint256[]"}],"stateMutability":"view"},{"type":"function","name":"burnTokens","inputs":[{"name":"tokenId","type":"uint256","internalType":"uint256"},{"name":"amount","type":"uint256","internalType":"uint256"},{"name":"owner","type":"address","internalType":"address"}],"outputs":[],"stateMutability":"nonpayable"},{"type":"function","name":"bytes32ToHexString","inputs":[{"name":"_bytes32","type":"bytes32","internalType":"bytes32"}],"outputs":[{"name":"","type":"string","internalType":"string"}],"stateMutability":"pure"},{"type":"function","name":"getTicketPricePaidAndTierIndex","inputs":[{"name":"showId","type":"bytes32","internalType":"bytes32"},{"name":"ticketId","type":"uint256","internalType":"uint256"}],"outputs":[{"name":"price","type":"uint256","internalType":"uint256"},{"name":"tierIndex","type":"uint256","internalType":"uint256"}],"stateMutability":"view"},{"type":"function","name":"initialize","inputs":[{"name":"initialOwner","type":"address","internalType":"address"},{"name":"_showContractAddress","type":"address","internalType":"address"}],"outputs":[],"stateMutability":"nonpayable"},{"type":"function","name":"isApprovedForAll","inputs":[{"name":"account","type":"address","internalType":"address"},{"name":"operator","type":"address","internalType":"address"}],"outputs":[{"name":"","type":"bool","internalType":"bool"}],"stateMutability":"view"},{"type":"function","name":"owner","inputs":[],"outputs":[{"name":"","type":"address","internalType":"address"}],"stateMutability":"view"},{"type":"function","name":"proxiableUUID","inputs":[],"outputs":[{"name":"","type":"bytes32","internalType":"bytes32"}],"stateMutability":"view"},{"type":"function","name":"purchaseTickets","inputs":[{"name":"showId","type":"bytes32","internalType":"bytes32"},{"name":"tierIndex","type":"uint256","internalType":"uint256"},{"name":"amount","type":"uint256","internalType":"uint256"},{"name":"paymentToken","type":"address","internalType":"address"}],"outputs":[],"stateMutability":"payable"},{"type":"function","name":"renounceOwnership","inputs":[],"outputs":[],"stateMutability":"nonpayable"},{"type":"function","name":"safeBatchTransferFrom","inputs":[{"name":"from","type":"address","internalType":"address"},{"name":"to","type":"address","internalType":"address"},{"name":"ids","type":"uint256[]","internalType":"uint256[]"},{"name":"values","type":"uint256[]","internalType":"uint256[]"},{"name":"data","type":"bytes","internalType":"bytes"}],"outputs":[],"stateMutability":"nonpayable"},{"type":"function","name":"safeTransferFrom","inputs":[{"name":"from","type":"address","internalType":"address"},{"name":"to","type":"address","internalType":"address"},{"name":"id","type":"uint256","internalType":"uint256"},{"name":"value","type":"uint256","internalType":"uint256"},{"name":"data","type":"bytes","internalType":"bytes"}],"outputs":[],"stateMutability":"nonpayable"},{"type":"function","name":"setApprovalForAll","inputs":[{"name":"operator","type":"address","internalType":"address"},{"name":"approved","type":"bool","internalType":"bool"}],"outputs":[],"stateMutability":"nonpayable"},{"type":"function","name":"setDefaultURI","inputs":[{"name":"newDefaultURI","type":"string","internalType":"string"},{"name":"showId","type":"bytes32","internalType":"bytes32"}],"outputs":[],"stateMutability":"nonpayable"},{"type":"function","name":"setTokenURI","inputs":[{"name":"showId","type":"bytes32","internalType":"bytes32"},{"name":"tokenId","type":"uint256","internalType":"uint256"},{"name":"newURI","type":"string","internalType":"string"}],"outputs":[],"stateMutability":"nonpayable"},{"type":"function","name":"showInstance","inputs":[],"outputs":[{"name":"","type":"address","internalType":"contract IShow"}],"stateMutability":"view"},{"type":"function","name":"supportsInterface","inputs":[{"name":"interfaceId","type":"bytes4","internalType":"bytes4"}],"outputs":[{"name":"","type":"bool","internalType":"bool"}],"stateMutability":"view"},{"type":"function","name":"ticketIdToTierIndex","inputs":[{"name":"","type":"uint256","internalType":"uint256"}],"outputs":[{"name":"","type":"uint256","internalType":"uint256"}],"stateMutability":"view"},{"type":"function","name":"transferOwnership","inputs":[{"name":"newOwner","type":"address","internalType":"address"}],"outputs":[],"stateMutability":"nonpayable"},{"type":"function","name":"upgradeToAndCall","inputs":[{"name":"newImplementation","type":"address","internalType":"address"},{"name":"data","type":"bytes","internalType":"bytes"}],"outputs":[],"stateMutability":"payable"},{"type":"function","name":"uri","inputs":[{"name":"tokenId","type":"uint256","internalType":"uint256"}],"outputs":[{"name":"","type":"string","internalType":"string"}],"stateMutability":"view"},{"type":"event","name":"ApprovalForAll","inputs":[{"name":"account","type":"address","indexed":true,"internalType":"address"},{"name":"operator","type":"address","indexed":true,"internalType":"address"},{"name":"approved","type":"bool","indexed":false,"internalType":"bool"}],"anonymous":false},{"type":"event","name":"Initialized","inputs":[{"name":"version","type":"uint64","indexed":false,"internalType":"uint64"}],"anonymous":false},{"type":"event","name":"OwnershipTransferred","inputs":[{"name":"previousOwner","type":"address","indexed":true,"internalType":"address"},{"name":"newOwner","type":"address","indexed":true,"internalType":"address"}],"anonymous":false},{"type":"event","name":"TicketPurchased","inputs":[{"name":"buyer","type":"address","indexed":true,"internalType":"address"},{"name":"showId","type":"bytes32","indexed":true,"internalType":"bytes32"},{"name":"tierIndex","type":"uint256","indexed":false,"internalType":"uint256"},{"name":"amount","type":"uint256","indexed":false,"internalType":"uint256"},{"name":"paymentToken","type":"address","indexed":false,"internalType":"address"}],"anonymous":false},{"type":"event","name":"TransferBatch","inputs":[{"name":"operator","type":"address","indexed":true,"internalType":"address"},{"name":"from","type":"address","indexed":true,"internalType":"address"},{"name":"to","type":"address","indexed":true,"internalType":"address"},{"name":"ids","type":"uint256[]","indexed":false,"internalType":"uint256[]"},{"name":"values","type":"uint256[]","indexed":false,"internalType":"uint256[]"}],"anonymous":false},{"type":"event","name":"TransferSingle","inputs":[{"name":"operator","type":"address","indexed":true,"internalType":"address"},{"name":"from","type":"address","indexed":true,"internalType":"address"},{"name":"to","type":"address","indexed":true,"internalType":"address"},{"name":"id","type":"uint256","indexed":false,"internalType":"uint256"},{"name":"value","type":"uint256","indexed":false,"internalType":"uint256"}],"anonymous":false},{"type":"event","name":"URI","inputs":[{"name":"value","type":"string","indexed":false,"internalType":"string"},{"name":"id","type":"uint256","indexed":true,"internalType":"uint256"}],"anonymous":false},{"type":"event","name":"Upgraded","inputs":[{"name":"implementation","type":"address","indexed":true,"internalType":"address"}],"anonymous":false},{"type":"error","name":"AddressEmptyCode","inputs":[{"name":"target","type":"address","internalType":"address"}]},{"type":"error","name":"ERC1155InsufficientBalance","inputs":[{"name":"sender","type":"address","internalType":"address"},{"name":"balance","type":"uint256","internalType":"uint256"},{"name":"needed","type":"uint256","internalType":"uint256"},{"name":"tokenId","type":"uint256","internalType":"uint256"}]},{"type":"error","name":"ERC1155InvalidApprover","inputs":[{"name":"approver","type":"address","internalType":"address"}]},{"type":"error","name":"ERC1155InvalidArrayLength","inputs":[{"name":"idsLength","type":"uint256","internalType":"uint256"},{"name":"valuesLength","type":"uint256","internalType":"uint256"}]},{"type":"error","name":"ERC1155InvalidOperator","inputs":[{"name":"operator","type":"address","internalType":"address"}]},{"type":"error","name":"ERC1155InvalidReceiver","inputs":[{"name":"receiver","type":"address","internalType":"address"}]},{"type":"error","name":"ERC1155InvalidSender","inputs":[{"name":"sender","type":"address","internalType":"address"}]},{"type":"error","name":"ERC1155MissingApprovalForAll","inputs":[{"name":"operator","type":"address","internalType":"address"},{"name":"owner","type":"address","internalType":"address"}]},{"type":"error","name":"ERC1967InvalidImplementation","inputs":[{"name":"implementation","type":"address","internalType":"address"}]},{"type":"error","name":"ERC1967NonPayable","inputs":[]},{"type":"error","name":"FailedInnerCall","inputs":[]},{"type":"error","name":"InvalidInitialization","inputs":[]},{"type":"error","name":"NotInitializing","inputs":[]},{"type":"error","name":"OwnableInvalidOwner","inputs":[{"name":"owner","type":"address","internalType":"address"}]},{"type":"error","name":"OwnableUnauthorizedAccount","inputs":[{"name":"account","type":"address","internalType":"address"}]},{"type":"error","name":"ReentrancyGuardReentrantCall","inputs":[]},{"type":"error","name":"UUPSUnauthorizedCallContext","inputs":[]},{"type":"error","name":"UUPSUnsupportedProxiableUUID","inputs":[{"name":"slot","type":"bytes32","internalType":"bytes32"}]}],"bytecode":{"object":"0x60a06040523060805234801561001457600080fd5b5060805161327061003e600039600081816116bd015281816116e6015261182701526132706000f3fe60806040526004361061014a5760003560e01c80635dbab132116100b6578063ad3cb1cc1161006f578063ad3cb1cc146103d5578063c68b378714610406578063da3a761614610426578063e985e9c51461045b578063f242432a1461047b578063f2fde38b1461049b57600080fd5b80635dbab13214610303578063715018a61461032357806387f9ca5d146103385780638da5cb5b14610358578063a22cb46514610395578063a7d22597146103b557600080fd5b8063404f49d111610108578063404f49d114610229578063485cc955146102615780634e1273f4146102815780634f1ef286146102ae57806352d1902d146102c15780635d7c188c146102d657600080fd5b8062fdd58e1461014f57806301ffc9a7146101825780630e89341c146101b25780631e87ccce146101df578063229df6d6146101f45780632eb2c2d614610209575b600080fd5b34801561015b57600080fd5b5061016f61016a3660046126b0565b6104bb565b6040519081526020015b60405180910390f35b34801561018e57600080fd5b506101a261019d3660046126f2565b6104f2565b6040519015158152602001610179565b3480156101be57600080fd5b506101d26101cd36600461270f565b610542565b6040516101799190612778565b6101f26101ed36600461278b565b6106aa565b005b34801561020057600080fd5b5061016f600581565b34801561021557600080fd5b506101f2610224366004612918565b610758565b34801561023557600080fd5b50600054610249906001600160a01b031681565b6040516001600160a01b039091168152602001610179565b34801561026d57600080fd5b506101f261027c3660046129c5565b6107bf565b34801561028d57600080fd5b506102a161029c3660046129fe565b610940565b6040516101799190612afa565b6101f26102bc366004612b0d565b610a14565b3480156102cd57600080fd5b5061016f610a33565b3480156102e257600080fd5b5061016f6102f136600461270f565b60026020526000908152604090205481565b34801561030f57600080fd5b506101f261031e366004612b52565b610a50565b34801561032f57600080fd5b506101f2610b2e565b34801561034457600080fd5b506101f2610353366004612b96565b610b42565b34801561036457600080fd5b507f9016d09d72d40fdae2fd8ceac6b6234c7706214fd39c1cd1e609a0528c199300546001600160a01b0316610249565b3480156103a157600080fd5b506101f26103b0366004612bcf565b610bbd565b3480156103c157600080fd5b506101f26103d0366004612c02565b610bc8565b3480156103e157600080fd5b506101d2604051806040016040528060058152602001640352e302e360dc1b81525081565b34801561041257600080fd5b506101d261042136600461270f565b610cfc565b34801561043257600080fd5b50610446610441366004612c51565b610e54565b60408051928352602083019190915201610179565b34801561046757600080fd5b506101a26104763660046129c5565b610ee6565b34801561048757600080fd5b506101f2610496366004612c73565b610f33565b3480156104a757600080fd5b506101f26104b6366004612cdb565b610f92565b60008181526000805160206131ed833981519152602090815260408083206001600160a01b03861684529091529020545b92915050565b60006001600160e01b03198216636cdb3d1360e11b148061052357506001600160e01b031982166303a24d0760e21b145b806104ec57506301ffc9a760e01b6001600160e01b03198316146104ec565b60008181526001602052604081208054606092919061056090612cf8565b80601f016020809104026020016040519081016040528092919081815260200182805461058c90612cf8565b80156105d95780601f106105ae576101008083540402835291602001916105d9565b820191906000526020600020905b8154815290600101906020018083116105bc57829003601f168201915b505050505090506000815111156105f05792915050565b600083815260036020526040902054806106495760405162461bcd60e51b81526020600482015260156024820152742a37b5b2b7103237b2b9903737ba1032bc34b9ba1760591b60448201526064015b60405180910390fd5b600061065482610cfc565b905060006040518060600160405280602381526020016131aa602391399050808261067e88610fd0565b60405160200161069093929190612d32565b604051602081830303815290604052945050505050919050565b6106b2611062565b6106bd8484846110ac565b60006106ca85858561136a565b905060006106db868686858761144f565b90508061071c5760405162461bcd60e51b815260206004820152600f60248201526e141d5c98da185cd94819985a5b1959608a1b6044820152606401610640565b6107278686866114c7565b505061075260017f9b779b17422d0df92223018b32b4d1fa46e071723d6817e2486d003becc55f0055565b50505050565b336001600160a01b038616811480159061077957506107778682610ee6565b155b156107aa5760405163711bec9160e11b81526001600160a01b03808316600483015287166024820152604401610640565b6107b78686868686611618565b505050505050565b7ff0c57e16840df040f15088dc2f81fe391c3923bec73e23a9662efc9c229c6a008054600160401b810460ff1615906001600160401b03166000811580156108045750825b90506000826001600160401b031660011480156108205750303b155b90508115801561082e575080155b1561084c5760405163f92ee8a960e01b815260040160405180910390fd5b845467ffffffffffffffff19166001178555831561087657845460ff60401b1916600160401b1785555b6108976040518060600160405280602e815260200161320d602e9139611678565b61089f611689565b6108a887611699565b6108b06116aa565b600080546001600160a01b0319166001600160a01b0388161790556040805160608101909152602580825261318560208301396006906108f09082612dda565b50831561093757845460ff60401b19168555604051600181527fc7f505b2f371ae2175ee4913f4499e1f2633a7b5936321eed1cdaeb6115181d29060200160405180910390a15b50505050505050565b606081518351146109715781518351604051635b05999160e01b815260048101929092526024820152604401610640565b600083516001600160401b0381111561098c5761098c6127cc565b6040519080825280602002602001820160405280156109b5578160200160208202803683370190505b50905060005b8451811015610a0c576020808202860101516109df906020808402870101516104bb565b8282815181106109f1576109f1612e99565b6020908102919091010152610a0581612ec5565b90506109bb565b509392505050565b610a1c6116b2565b610a2582611757565b610a2f828261175f565b5050565b6000610a3d61181c565b506000805160206131cd83398151915290565b600054604051634bbe5c4f60e11b8152600481018390526001600160a01b039091169063977cb89e90602401602060405180830381865afa158015610a99573d6000803e3d6000fd5b505050506040513d601f19601f82011682018060405250810190610abd9190612ede565b6001600160a01b0316336001600160a01b031614610b1d5760405162461bcd60e51b815260206004820152601b60248201527f43616c6c6572206973206e6f7420746865206f7267616e697a657200000000006044820152606401610640565b6006610b298382612dda565b505050565b610b36611865565b610b4060006118c0565b565b6000546001600160a01b03163314610bb25760405162461bcd60e51b815260206004820152602d60248201527f4f6e6c79207468652053686f7720636f6e74726163742063616e2063616c6c2060448201526c3a3434b990333ab731ba34b7b760991b6064820152608401610640565b610b29818484611931565b610a2f338383611999565b600054604051634bbe5c4f60e11b8152600481018590526001600160a01b039091169063977cb89e90602401602060405180830381865afa158015610c11573d6000803e3d6000fd5b505050506040513d601f19601f82011682018060405250810190610c359190612ede565b6001600160a01b0316336001600160a01b031614610ca65760405162461bcd60e51b815260206004820152602860248201527f43616c6c6572206973206e6f7420746865206f7267616e697a6572206f6620746044820152676869732073686f7760c01b6064820152608401610640565b6000828152600160205260409020610cbe8282612dda565b50817f6bb7ff708619ba0610cba295a58592e0451dee2622938c8755667688daf3529b82604051610cef9190612778565b60405180910390a2505050565b604080518082018252601081526f181899199a1a9b1b9c1cb0b131b232b360811b6020820152815182815260608181018452926000919060208201818036833701905050905060005b6020811015610a0c57826004868360208110610d6357610d63612e99565b1a60f81b6001600160f81b031916901c60f81c60ff1681518110610d8957610d89612e99565b01602001516001600160f81b03191682610da4836002612efb565b81518110610db457610db4612e99565b60200101906001600160f81b031916908160001a90535082858260208110610dde57610dde612e99565b825191901a600f16908110610df557610df5612e99565b01602001516001600160f81b03191682610e10836002612efb565b610e1b906001612f12565b81518110610e2b57610e2b612e99565b60200101906001600160f81b031916908160001a90535080610e4c81612ec5565b915050610d45565b600080546040516293d4e160e81b81526004810185905260248101849052829182916001600160a01b03909116906393d4e10090604401602060405180830381865afa158015610ea8573d6000803e3d6000fd5b505050506040513d601f19601f82011682018060405250810190610ecc9190612f25565b600094855260026020526040909420549395939450505050565b6001600160a01b0391821660009081527f88be536d5240c274a3b1d3a1be54482fd9caa294f08c62a7cde569f49a3c45016020908152604080832093909416825291909152205460ff1690565b336001600160a01b0386168114801590610f545750610f528682610ee6565b155b15610f855760405163711bec9160e11b81526001600160a01b03808316600483015287166024820152604401610640565b6107b78686868686611a41565b610f9a611865565b6001600160a01b038116610fc457604051631e4fbdf760e01b815260006004820152602401610640565b610fcd816118c0565b50565b60606000610fdd83611ac6565b60010190506000816001600160401b03811115610ffc57610ffc6127cc565b6040519080825280601f01601f191660200182016040528015611026576020820181803683370190505b5090508181016020015b600019016f181899199a1a9b1b9c1cb0b131b232b360811b600a86061a8153600a850494508461103057509392505050565b7f9b779b17422d0df92223018b32b4d1fa46e071723d6817e2486d003becc55f008054600119016110a657604051633ee5aeb560e01b815260040160405180910390fd5b60029055565b600080546040516346c2c8a760e01b8152600481018690526001600160a01b03909116906346c2c8a790602401602060405180830381865afa1580156110f6573d6000803e3d6000fd5b505050506040513d601f19601f8201168201806040525081019061111a9190612f54565b600781111561112b5761112b612f3e565b146111785760405162461bcd60e51b815260206004820152601f60248201527f53686f77206e6f7420617661696c61626c6520666f72207075726368617365006044820152606401610640565b600081116111c85760405162461bcd60e51b815260206004820152601d60248201527f416d6f756e74206d7573742062652067726561746572207468616e20300000006044820152606401610640565b60008054604051637e3e393560e01b815260048101869052602481018590526001600160a01b0390911690637e3e393590604401600060405180830381865afa158015611219573d6000803e3d6000fd5b505050506040513d6000823e601f3d908101601f191682016040526112419190810190612f75565b92505050818110156112955760405162461bcd60e51b815260206004820152601c60248201527f4e6f7420656e6f756768207469636b65747320617661696c61626c65000000006044820152606401610640565b60008054604051635b9a1e0960e01b8152600481018790523360248201526001600160a01b0390911690635b9a1e0990604401600060405180830381865afa1580156112e5573d6000803e3d6000fd5b505050506040513d6000823e601f3d908101601f1916820160405261130d9190810190612ffe565b9050600583825161131e9190612f12565b11156113635760405162461bcd60e51b815260206004820152601460248201527313585e081d1a58dad95d1cc8195e18d95959195960621b6044820152606401610640565b5050505050565b6113956040518060800160405280600081526020016000815260200160008152602001600081525090565b60008054604051637e3e393560e01b8152600481018790526024810186905282916001600160a01b031690637e3e393590604401600060405180830381865afa1580156113e6573d6000803e3d6000fd5b505050506040513d6000823e601f3d908101601f1916820160405261140e9190810190612f75565b9093509150600090506114218584612efb565b60408051608081018252948552602085019390935291830191909152506000606082015290505b9392505050565b600061146086846040015184611b9e565b61146c575060006114be565b600160005b858110156114ba57600061148689338a611d32565b905061149981898b338a60000151611dac565b6114a75760009250506114ba565b50806114b281612ec5565b915050611471565b5090505b95945050505050565b600054604051630f0faed760e31b815260048101859052602481018390526001600160a01b039091169063787d76b890604401600060405180830381600087803b15801561151457600080fd5b505af1158015611528573d6000803e3d6000fd5b505060005460405163644b5e5960e01b81526004810187905260248101869052604481018590526001600160a01b03909116925063644b5e599150606401600060405180830381600087803b15801561158057600080fd5b505af1158015611594573d6000803e3d6000fd5b505060005460405163730c02a360e11b8152600481018790526001600160a01b03909116925063e61805469150602401600060405180830381600087803b1580156115de57600080fd5b505af1158015610937573d6000803e3d6000fd5b60017f9b779b17422d0df92223018b32b4d1fa46e071723d6817e2486d003becc55f0055565b6001600160a01b03841661164257604051632bfa23e760e11b815260006004820152602401610640565b6001600160a01b03851661166b57604051626a0d4560e21b815260006004820152602401610640565b6113638585858585611f40565b611680611f93565b610fcd81611fdc565b611691611f93565b610b40611fed565b6116a1611f93565b610fcd81611ff5565b610b40611f93565b306001600160a01b037f000000000000000000000000000000000000000000000000000000000000000016148061173957507f00000000000000000000000000000000000000000000000000000000000000006001600160a01b031661172d6000805160206131cd833981519152546001600160a01b031690565b6001600160a01b031614155b15610b405760405163703e46dd60e11b815260040160405180910390fd5b610fcd611865565b816001600160a01b03166352d1902d6040518163ffffffff1660e01b8152600401602060405180830381865afa9250505080156117b9575060408051601f3d908101601f191682019092526117b691810190612f25565b60015b6117e157604051634c9c8ce360e01b81526001600160a01b0383166004820152602401610640565b6000805160206131cd833981519152811461181257604051632a87526960e21b815260048101829052602401610640565b610b298383611ffd565b306001600160a01b037f00000000000000000000000000000000000000000000000000000000000000001614610b405760405163703e46dd60e11b815260040160405180910390fd5b336118977f9016d09d72d40fdae2fd8ceac6b6234c7706214fd39c1cd1e609a0528c199300546001600160a01b031690565b6001600160a01b031614610b405760405163118cdaa760e01b8152336004820152602401610640565b7f9016d09d72d40fdae2fd8ceac6b6234c7706214fd39c1cd1e609a0528c19930080546001600160a01b031981166001600160a01b03848116918217845560405192169182907f8be0079c531659141344cd1fd0a4f28419497f9722a3daafe3b4186f6b6457e090600090a3505050565b6001600160a01b03831661195a57604051626a0d4560e21b815260006004820152602401610640565b604080516001808252602082018590528183019081526060820184905260a0820190925260006080820181815291929161136391879185908590611f40565b6000805160206131ed8339815191526001600160a01b0383166119d15760405162ced3e160e81b815260006004820152602401610640565b6001600160a01b038481166000818152600184016020908152604080832094881680845294825291829020805460ff191687151590811790915591519182527f17307eab39ab6107e8899845ad3d59bd9653f200f220920489ca2b5937696c31910160405180910390a350505050565b6001600160a01b038416611a6b57604051632bfa23e760e11b815260006004820152602401610640565b6001600160a01b038516611a9457604051626a0d4560e21b815260006004820152602401610640565b604080516001808252602082018690528183019081526060820185905260808201909252906109378787848487611f40565b60008072184f03e93ff9f4daa797ed6e38ed64bf6a1f0160401b8310611b055772184f03e93ff9f4daa797ed6e38ed64bf6a1f0160401b830492506040015b6d04ee2d6d415b85acef81000000008310611b31576d04ee2d6d415b85acef8100000000830492506020015b662386f26fc100008310611b4f57662386f26fc10000830492506010015b6305f5e1008310611b67576305f5e100830492506008015b6127108310611b7b57612710830492506004015b60648310611b8d576064830492506002015b600a83106104ec5760010192915050565b60006001600160a01b038216611c5d57823414611bf45760405162461bcd60e51b8152602060048201526014602482015273125b98dbdc9c9958dd0811551208185b5bdd5b9d60621b6044820152606401610640565b600054604051638526663560e01b8152600481018690526001600160a01b039091169063852666359034906024016000604051808303818588803b158015611c3b57600080fd5b505af1158015611c4f573d6000803e3d6000fd5b505050505060019050611448565b3415611cb65760405162461bcd60e51b815260206004820152602260248201527f446f206e6f742073656e64204554482077697468204552433230207061796d656044820152611b9d60f21b6064820152608401610640565b600054604051635412233f60e01b815260048101869052602481018590526001600160a01b03848116604483015233606483015290911690635412233f90608401600060405180830381600087803b158015611d1157600080fd5b505af1158015611d25573d6000803e3d6000fd5b5050505060019050611448565b6007805460009182611d4383612ec5565b91905055506000848484600754604051602001611d8b949392919093845260609290921b6bffffffffffffffffffffffff191660208401526034830152605482015260740190565b60408051808303601f19018152919052805160209091012095945050505050565b6000611dca8387600160405180602001604052806000815250612053565b600086815260026020908152604080832088905560039091528082208690559054905163647b3f4b60e11b8152600481018690526001600160a01b03858116602483015260448201899052600160648301529091169063c8f67e9690608401600060405180830381600087803b158015611e4357600080fd5b505af1158015611e57573d6000803e3d6000fd5b505060005460405163de44006f60e01b8152600481018890526001600160a01b038781166024830152604482018b9052909116925063de44006f9150606401600060405180830381600087803b158015611eb057600080fd5b505af1158015611ec4573d6000803e3d6000fd5b5050600054604051632f51f71760e21b815260048101889052602481018a9052604481018690526001600160a01b03909116925063bd47dc5c9150606401600060405180830381600087803b158015611f1c57600080fd5b505af1158015611f30573d6000803e3d6000fd5b5060019998505050505050505050565b611f4c858585856120b0565b6001600160a01b038416156113635782513390600103611f855760208481015190840151611f7e8389898585896122de565b50506107b7565b6107b7818787878787612402565b7ff0c57e16840df040f15088dc2f81fe391c3923bec73e23a9662efc9c229c6a0054600160401b900460ff16610b4057604051631afcd79f60e31b815260040160405180910390fd5b611fe4611f93565b610fcd816124eb565b6115f2611f93565b610f9a611f93565b61200682612525565b6040516001600160a01b038316907fbc7cd75a20ee27fd9adebab32041f755214dbc6bffa90cc0225b39da2e5c2d3b90600090a280511561204b57610b29828261258a565b610a2f6125f7565b6001600160a01b03841661207d57604051632bfa23e760e11b815260006004820152602401610640565b604080516001808252602082018690528183019081526060820185905260808201909252906107b7600087848487611f40565b805182516000805160206131ed83398151915291146120ef5782518251604051635b05999160e01b815260048101929092526024820152604401610640565b3360005b84518110156121fe576020818102868101820151908601909101516001600160a01b038916156121a6576000828152602086815260408083206001600160a01b038d1684529091529020548181101561217f576040516303dee4c560e01b81526001600160a01b038b166004820152602481018290526044810183905260648101849052608401610640565b6000838152602087815260408083206001600160a01b038e16845290915290209082900390555b6001600160a01b038816156121eb576000828152602086815260408083206001600160a01b038c168452909152812080548392906121e5908490612f12565b90915550505b5050806121f790612ec5565b90506120f3565b50835160010361227f5760208401516000906020850151909150866001600160a01b0316886001600160a01b0316846001600160a01b03167fc3d58168c5ae7397731d063d5bbf3d657854427343f4c083240f7aacaa2d0f628585604051612270929190918252602082015260400190565b60405180910390a450506107b7565b846001600160a01b0316866001600160a01b0316826001600160a01b03167f4a39dc06d4c0dbc64b70af90fd698a233a518aa5d07e595d983b8c0526c8f7fb87876040516122ce92919061308e565b60405180910390a4505050505050565b6001600160a01b0384163b156107b75760405163f23a6e6160e01b81526001600160a01b0385169063f23a6e619061232290899089908890889088906004016130b3565b6020604051808303816000875af192505050801561235d575060408051601f3d908101601f1916820190925261235a918101906130ed565b60015b6123c6573d80801561238b576040519150601f19603f3d011682016040523d82523d6000602084013e612390565b606091505b5080516000036123be57604051632bfa23e760e11b81526001600160a01b0386166004820152602401610640565b805181602001fd5b6001600160e01b0319811663f23a6e6160e01b1461093757604051632bfa23e760e11b81526001600160a01b0386166004820152602401610640565b6001600160a01b0384163b156107b75760405163bc197c8160e01b81526001600160a01b0385169063bc197c8190612446908990899088908890889060040161310a565b6020604051808303816000875af1925050508015612481575060408051601f3d908101601f1916820190925261247e918101906130ed565b60015b6124af573d80801561238b576040519150601f19603f3d011682016040523d82523d6000602084013e612390565b6001600160e01b0319811663bc197c8160e01b1461093757604051632bfa23e760e11b81526001600160a01b0386166004820152602401610640565b6000805160206131ed8339815191527f88be536d5240c274a3b1d3a1be54482fd9caa294f08c62a7cde569f49a3c4502610b298382612dda565b806001600160a01b03163b60000361255b57604051634c9c8ce360e01b81526001600160a01b0382166004820152602401610640565b6000805160206131cd83398151915280546001600160a01b0319166001600160a01b0392909216919091179055565b6060600080846001600160a01b0316846040516125a79190613168565b600060405180830381855af49150503d80600081146125e2576040519150601f19603f3d011682016040523d82523d6000602084013e6125e7565b606091505b50915091506114be858383612616565b3415610b405760405163b398979f60e01b815260040160405180910390fd5b60608261262b5761262682612672565b611448565b815115801561264257506001600160a01b0384163b155b1561266b57604051639996b31560e01b81526001600160a01b0385166004820152602401610640565b5080611448565b8051156126825780518082602001fd5b604051630a12f52160e11b815260040160405180910390fd5b6001600160a01b0381168114610fcd57600080fd5b600080604083850312156126c357600080fd5b82356126ce8161269b565b946020939093013593505050565b6001600160e01b031981168114610fcd57600080fd5b60006020828403121561270457600080fd5b8135611448816126dc565b60006020828403121561272157600080fd5b5035919050565b60005b8381101561274357818101518382015260200161272b565b50506000910152565b60008151808452612764816020860160208601612728565b601f01601f19169290920160200192915050565b602081526000611448602083018461274c565b600080600080608085870312156127a157600080fd5b84359350602085013592506040850135915060608501356127c18161269b565b939692955090935050565b634e487b7160e01b600052604160045260246000fd5b604051601f8201601f191681016001600160401b038111828210171561280a5761280a6127cc565b604052919050565b60006001600160401b0382111561282b5761282b6127cc565b5060051b60200190565b600082601f83011261284657600080fd5b8135602061285b61285683612812565b6127e2565b82815260059290921b8401810191818101908684111561287a57600080fd5b8286015b84811015612895578035835291830191830161287e565b509695505050505050565b60006001600160401b038211156128b9576128b96127cc565b50601f01601f191660200190565b600082601f8301126128d857600080fd5b81356128e6612856826128a0565b8181528460208386010111156128fb57600080fd5b816020850160208301376000918101602001919091529392505050565b600080600080600060a0868803121561293057600080fd5b853561293b8161269b565b9450602086013561294b8161269b565b935060408601356001600160401b038082111561296757600080fd5b61297389838a01612835565b9450606088013591508082111561298957600080fd5b61299589838a01612835565b935060808801359150808211156129ab57600080fd5b506129b8888289016128c7565b9150509295509295909350565b600080604083850312156129d857600080fd5b82356129e38161269b565b915060208301356129f38161269b565b809150509250929050565b60008060408385031215612a1157600080fd5b82356001600160401b0380821115612a2857600080fd5b818501915085601f830112612a3c57600080fd5b81356020612a4c61285683612812565b82815260059290921b84018101918181019089841115612a6b57600080fd5b948201945b83861015612a92578535612a838161269b565b82529482019490820190612a70565b96505086013592505080821115612aa857600080fd5b50612ab585828601612835565b9150509250929050565b600081518084526020808501945080840160005b83811015612aef57815187529582019590820190600101612ad3565b509495945050505050565b6020815260006114486020830184612abf565b60008060408385031215612b2057600080fd5b8235612b2b8161269b565b915060208301356001600160401b03811115612b4657600080fd5b612ab5858286016128c7565b60008060408385031215612b6557600080fd5b82356001600160401b03811115612b7b57600080fd5b612b87858286016128c7565b95602094909401359450505050565b600080600060608486031215612bab57600080fd5b83359250602084013591506040840135612bc48161269b565b809150509250925092565b60008060408385031215612be257600080fd5b8235612bed8161269b565b9150602083013580151581146129f357600080fd5b600080600060608486031215612c1757600080fd5b833592506020840135915060408401356001600160401b03811115612c3b57600080fd5b612c47868287016128c7565b9150509250925092565b60008060408385031215612c6457600080fd5b50508035926020909101359150565b600080600080600060a08688031215612c8b57600080fd5b8535612c968161269b565b94506020860135612ca68161269b565b9350604086013592506060860135915060808601356001600160401b03811115612ccf57600080fd5b6129b8888289016128c7565b600060208284031215612ced57600080fd5b81356114488161269b565b600181811c90821680612d0c57607f821691505b602082108103612d2c57634e487b7160e01b600052602260045260246000fd5b50919050565b60008451612d44818460208901612728565b845190830190612d58818360208901612728565b602f60f81b91019081528351612d75816001840160208801612728565b64173539b7b760d91b6001929091019182015260060195945050505050565b601f821115610b2957600081815260208120601f850160051c81016020861015612dbb5750805b601f850160051c820191505b818110156107b757828155600101612dc7565b81516001600160401b03811115612df357612df36127cc565b612e0781612e018454612cf8565b84612d94565b602080601f831160018114612e3c5760008415612e245750858301515b600019600386901b1c1916600185901b1785556107b7565b600085815260208120601f198616915b82811015612e6b57888601518255948401946001909101908401612e4c565b5085821015612e895787850151600019600388901b60f8161c191681555b5050505050600190811b01905550565b634e487b7160e01b600052603260045260246000fd5b634e487b7160e01b600052601160045260246000fd5b600060018201612ed757612ed7612eaf565b5060010190565b600060208284031215612ef057600080fd5b81516114488161269b565b80820281158282048414176104ec576104ec612eaf565b808201808211156104ec576104ec612eaf565b600060208284031215612f3757600080fd5b5051919050565b634e487b7160e01b600052602160045260246000fd5b600060208284031215612f6657600080fd5b81516008811061144857600080fd5b600080600060608486031215612f8a57600080fd5b83516001600160401b03811115612fa057600080fd5b8401601f81018613612fb157600080fd5b8051612fbf612856826128a0565b818152876020838501011115612fd457600080fd5b612fe5826020830160208601612728565b6020870151604090970151909896975095945050505050565b6000602080838503121561301157600080fd5b82516001600160401b0381111561302757600080fd5b8301601f8101851361303857600080fd5b805161304661285682612812565b81815260059190911b8201830190838101908783111561306557600080fd5b928401925b828410156130835783518252928401929084019061306a565b979650505050505050565b6040815260006130a16040830185612abf565b82810360208401526114be8185612abf565b6001600160a01b03868116825285166020820152604081018490526060810183905260a0608082018190526000906130839083018461274c565b6000602082840312156130ff57600080fd5b8151611448816126dc565b6001600160a01b0386811682528516602082015260a06040820181905260009061313690830186612abf565b82810360608401526131488186612abf565b9050828103608084015261315c818561274c565b98975050505050505050565b6000825161317a818460208701612728565b919091019291505056fe68747470733a2f2f6d657461646174612e73656c6c6f7574732e6170702f7469636b65742f68747470733a2f2f6d657461646174612e73656c6c6f7574732e6170702f73686f772f360894a13ba1a3210667c828492db98dca3e2076cc3735a920a3ca505d382bbc88be536d5240c274a3b1d3a1be54482fd9caa294f08c62a7cde569f49a3c450068747470733a2f2f6d657461646174612e73656c6c6f7574732e6170702f7469636b65742f7b69647d2e6a736f6ea264697066735822122029c6e74055f321585c65a61bbb005ed399913a5fadd745163cfa27804d57ea1f64736f6c63430008140033","linkReferences":{}},"methodIdentifiers":{"MAX_TICKETS_PER_WALLET()":"229df6d6","UPGRADE_INTERFACE_VERSION()":"ad3cb1cc","balanceOf(address,uint256)":"00fdd58e","balanceOfBatch(address[],uint256[])":"4e1273f4","burnTokens(uint256,uint256,address)":"87f9ca5d","bytes32ToHexString(bytes32)":"c68b3787","getTicketPricePaidAndTierIndex(bytes32,uint256)":"da3a7616","initialize(address,address)":"485cc955","isApprovedForAll(address,address)":"e985e9c5","owner()":"8da5cb5b","proxiableUUID()":"52d1902d","purchaseTickets(bytes32,uint256,uint256,address)":"1e87ccce","renounceOwnership()":"715018a6","safeBatchTransferFrom(address,address,uint256[],uint256[],bytes)":"2eb2c2d6","safeTransferFrom(address,address,uint256,uint256,bytes)":"f242432a","setApprovalForAll(address,bool)":"a22cb465","setDefaultURI(string,bytes32)":"5dbab132","setTokenURI(bytes32,uint256,string)":"a7d22597","showInstance()":"404f49d1","supportsInterface(bytes4)":"01ffc9a7","ticketIdToTierIndex(uint256)":"5d7c188c","transferOwnership(address)":"f2fde38b","upgradeToAndCall(address,bytes)":"4f1ef286","uri(uint256)":"0e89341c"},"id":62}