{"abi":[{"type":"function","name":"MAX_TICKETS_PER_WALLET","inputs":[],"outputs":[{"name":"","type":"uint256","internalType":"uint256"}],"stateMutability":"view"},{"type":"function","name":"UPGRADE_INTERFACE_VERSION","inputs":[],"outputs":[{"name":"","type":"string","internalType":"string"}],"stateMutability":"view"},{"type":"function","name":"balanceOf","inputs":[{"name":"account","type":"address","internalType":"address"},{"name":"id","type":"uint256","internalType":"uint256"}],"outputs":[{"name":"","type":"uint256","internalType":"uint256"}],"stateMutability":"view"},{"type":"function","name":"balanceOfBatch","inputs":[{"name":"accounts","type":"address[]","internalType":"address[]"},{"name":"ids","type":"uint256[]","internalType":"uint256[]"}],"outputs":[{"name":"","type":"uint256[]","internalType":"uint256[]"}],"stateMutability":"view"},{"type":"function","name":"burnTokens","inputs":[{"name":"tokenId","type":"uint256","internalType":"uint256"},{"name":"amount","type":"uint256","internalType":"uint256"},{"name":"owner","type":"address","internalType":"address"}],"outputs":[],"stateMutability":"nonpayable"},{"type":"function","name":"bytes32ToHexString","inputs":[{"name":"_bytes32","type":"bytes32","internalType":"bytes32"}],"outputs":[{"name":"","type":"string","internalType":"string"}],"stateMutability":"pure"},{"type":"function","name":"getTicketPricePaidAndTierIndex","inputs":[{"name":"showId","type":"bytes32","internalType":"bytes32"},{"name":"ticketId","type":"uint256","internalType":"uint256"}],"outputs":[{"name":"price","type":"uint256","internalType":"uint256"},{"name":"tierIndex","type":"uint256","internalType":"uint256"}],"stateMutability":"view"},{"type":"function","name":"initialize","inputs":[{"name":"initialOwner","type":"address","internalType":"address"},{"name":"_version","type":"string","internalType":"string"}],"outputs":[],"stateMutability":"nonpayable"},{"type":"function","name":"isApprovedForAll","inputs":[{"name":"account","type":"address","internalType":"address"},{"name":"operator","type":"address","internalType":"address"}],"outputs":[{"name":"","type":"bool","internalType":"bool"}],"stateMutability":"view"},{"type":"function","name":"owner","inputs":[],"outputs":[{"name":"","type":"address","internalType":"address"}],"stateMutability":"view"},{"type":"function","name":"proxiableUUID","inputs":[],"outputs":[{"name":"","type":"bytes32","internalType":"bytes32"}],"stateMutability":"view"},{"type":"function","name":"purchaseTickets","inputs":[{"name":"showId","type":"bytes32","internalType":"bytes32"},{"name":"tierIndex","type":"uint256","internalType":"uint256"},{"name":"amount","type":"uint256","internalType":"uint256"},{"name":"paymentToken","type":"address","internalType":"address"}],"outputs":[],"stateMutability":"payable"},{"type":"function","name":"renounceOwnership","inputs":[],"outputs":[],"stateMutability":"nonpayable"},{"type":"function","name":"safeBatchTransferFrom","inputs":[{"name":"from","type":"address","internalType":"address"},{"name":"to","type":"address","internalType":"address"},{"name":"ids","type":"uint256[]","internalType":"uint256[]"},{"name":"values","type":"uint256[]","internalType":"uint256[]"},{"name":"data","type":"bytes","internalType":"bytes"}],"outputs":[],"stateMutability":"nonpayable"},{"type":"function","name":"safeTransferFrom","inputs":[{"name":"from","type":"address","internalType":"address"},{"name":"to","type":"address","internalType":"address"},{"name":"id","type":"uint256","internalType":"uint256"},{"name":"value","type":"uint256","internalType":"uint256"},{"name":"data","type":"bytes","internalType":"bytes"}],"outputs":[],"stateMutability":"nonpayable"},{"type":"function","name":"setApprovalForAll","inputs":[{"name":"operator","type":"address","internalType":"address"},{"name":"approved","type":"bool","internalType":"bool"}],"outputs":[],"stateMutability":"nonpayable"},{"type":"function","name":"setDefaultURI","inputs":[{"name":"newDefaultURI","type":"string","internalType":"string"},{"name":"showId","type":"bytes32","internalType":"bytes32"}],"outputs":[],"stateMutability":"nonpayable"},{"type":"function","name":"setShowContractAddress","inputs":[{"name":"_showContractAddress","type":"address","internalType":"address"}],"outputs":[],"stateMutability":"nonpayable"},{"type":"function","name":"setTokenURI","inputs":[{"name":"showId","type":"bytes32","internalType":"bytes32"},{"name":"tokenId","type":"uint256","internalType":"uint256"},{"name":"newURI","type":"string","internalType":"string"}],"outputs":[],"stateMutability":"nonpayable"},{"type":"function","name":"showInstance","inputs":[],"outputs":[{"name":"","type":"address","internalType":"contract IShow"}],"stateMutability":"view"},{"type":"function","name":"supportsInterface","inputs":[{"name":"interfaceId","type":"bytes4","internalType":"bytes4"}],"outputs":[{"name":"","type":"bool","internalType":"bool"}],"stateMutability":"view"},{"type":"function","name":"ticketIdToTierIndex","inputs":[{"name":"","type":"uint256","internalType":"uint256"}],"outputs":[{"name":"","type":"uint256","internalType":"uint256"}],"stateMutability":"view"},{"type":"function","name":"transferOwnership","inputs":[{"name":"newOwner","type":"address","internalType":"address"}],"outputs":[],"stateMutability":"nonpayable"},{"type":"function","name":"upgradeToAndCall","inputs":[{"name":"newImplementation","type":"address","internalType":"address"},{"name":"data","type":"bytes","internalType":"bytes"}],"outputs":[],"stateMutability":"payable"},{"type":"function","name":"uri","inputs":[{"name":"tokenId","type":"uint256","internalType":"uint256"}],"outputs":[{"name":"","type":"string","internalType":"string"}],"stateMutability":"view"},{"type":"function","name":"version","inputs":[],"outputs":[{"name":"","type":"string","internalType":"string"}],"stateMutability":"view"},{"type":"event","name":"ApprovalForAll","inputs":[{"name":"account","type":"address","indexed":true,"internalType":"address"},{"name":"operator","type":"address","indexed":true,"internalType":"address"},{"name":"approved","type":"bool","indexed":false,"internalType":"bool"}],"anonymous":false},{"type":"event","name":"Initialized","inputs":[{"name":"version","type":"uint64","indexed":false,"internalType":"uint64"}],"anonymous":false},{"type":"event","name":"OwnershipTransferred","inputs":[{"name":"previousOwner","type":"address","indexed":true,"internalType":"address"},{"name":"newOwner","type":"address","indexed":true,"internalType":"address"}],"anonymous":false},{"type":"event","name":"TicketPurchased","inputs":[{"name":"buyer","type":"address","indexed":true,"internalType":"address"},{"name":"showId","type":"bytes32","indexed":true,"internalType":"bytes32"},{"name":"tierIndex","type":"uint256","indexed":false,"internalType":"uint256"},{"name":"tokenId","type":"uint256","indexed":false,"internalType":"uint256"},{"name":"amount","type":"uint256","indexed":false,"internalType":"uint256"},{"name":"paymentToken","type":"address","indexed":false,"internalType":"address"}],"anonymous":false},{"type":"event","name":"TransferBatch","inputs":[{"name":"operator","type":"address","indexed":true,"internalType":"address"},{"name":"from","type":"address","indexed":true,"internalType":"address"},{"name":"to","type":"address","indexed":true,"internalType":"address"},{"name":"ids","type":"uint256[]","indexed":false,"internalType":"uint256[]"},{"name":"values","type":"uint256[]","indexed":false,"internalType":"uint256[]"}],"anonymous":false},{"type":"event","name":"TransferSingle","inputs":[{"name":"operator","type":"address","indexed":true,"internalType":"address"},{"name":"from","type":"address","indexed":true,"internalType":"address"},{"name":"to","type":"address","indexed":true,"internalType":"address"},{"name":"id","type":"uint256","indexed":false,"internalType":"uint256"},{"name":"value","type":"uint256","indexed":false,"internalType":"uint256"}],"anonymous":false},{"type":"event","name":"URI","inputs":[{"name":"value","type":"string","indexed":false,"internalType":"string"},{"name":"id","type":"uint256","indexed":true,"internalType":"uint256"}],"anonymous":false},{"type":"event","name":"Upgraded","inputs":[{"name":"implementation","type":"address","indexed":true,"internalType":"address"}],"anonymous":false},{"type":"error","name":"AddressEmptyCode","inputs":[{"name":"target","type":"address","internalType":"address"}]},{"type":"error","name":"ERC1155InsufficientBalance","inputs":[{"name":"sender","type":"address","internalType":"address"},{"name":"balance","type":"uint256","internalType":"uint256"},{"name":"needed","type":"uint256","internalType":"uint256"},{"name":"tokenId","type":"uint256","internalType":"uint256"}]},{"type":"error","name":"ERC1155InvalidApprover","inputs":[{"name":"approver","type":"address","internalType":"address"}]},{"type":"error","name":"ERC1155InvalidArrayLength","inputs":[{"name":"idsLength","type":"uint256","internalType":"uint256"},{"name":"valuesLength","type":"uint256","internalType":"uint256"}]},{"type":"error","name":"ERC1155InvalidOperator","inputs":[{"name":"operator","type":"address","internalType":"address"}]},{"type":"error","name":"ERC1155InvalidReceiver","inputs":[{"name":"receiver","type":"address","internalType":"address"}]},{"type":"error","name":"ERC1155InvalidSender","inputs":[{"name":"sender","type":"address","internalType":"address"}]},{"type":"error","name":"ERC1155MissingApprovalForAll","inputs":[{"name":"operator","type":"address","internalType":"address"},{"name":"owner","type":"address","internalType":"address"}]},{"type":"error","name":"ERC1967InvalidImplementation","inputs":[{"name":"implementation","type":"address","internalType":"address"}]},{"type":"error","name":"ERC1967NonPayable","inputs":[]},{"type":"error","name":"FailedInnerCall","inputs":[]},{"type":"error","name":"InvalidInitialization","inputs":[]},{"type":"error","name":"NotInitializing","inputs":[]},{"type":"error","name":"OwnableInvalidOwner","inputs":[{"name":"owner","type":"address","internalType":"address"}]},{"type":"error","name":"OwnableUnauthorizedAccount","inputs":[{"name":"account","type":"address","internalType":"address"}]},{"type":"error","name":"ReentrancyGuardReentrantCall","inputs":[]},{"type":"error","name":"UUPSUnauthorizedCallContext","inputs":[]},{"type":"error","name":"UUPSUnsupportedProxiableUUID","inputs":[{"name":"slot","type":"bytes32","internalType":"bytes32"}]}],"bytecode":{"object":"0x60a06040523060805234801561001457600080fd5b5060805161346761003e6000396000818161182d01528181611856015261199701526134676000f3fe6080604052600436106101805760003560e01c8063715018a6116100d1578063bde9700b1161008a578063e985e9c511610064578063e985e9c5146104a6578063f242432a146104c6578063f2fde38b146104e6578063f399e22e1461050657600080fd5b8063bde9700b14610431578063c68b378714610451578063da3a76161461047157600080fd5b8063715018a61461034e57806387f9ca5d146103635780638da5cb5b14610383578063a22cb465146103c0578063a7d22597146103e0578063ad3cb1cc1461040057600080fd5b8063404f49d11161013e57806352d1902d1161011857806352d1902d146102d757806354fd4d50146102ec5780635d7c188c146103015780635dbab1321461032e57600080fd5b8063404f49d11461025f5780634e1273f4146102975780634f1ef286146102c457600080fd5b8062fdd58e1461018557806301ffc9a7146101b85780630e89341c146101e85780631e87ccce14610215578063229df6d61461022a5780632eb2c2d61461023f575b600080fd5b34801561019157600080fd5b506101a56101a036600461285a565b610526565b6040519081526020015b60405180910390f35b3480156101c457600080fd5b506101d86101d336600461289c565b61055d565b60405190151581526020016101af565b3480156101f457600080fd5b506102086102033660046128b9565b6105ad565b6040516101af9190612922565b610228610223366004612935565b610715565b005b34801561023657600080fd5b506101a5600581565b34801561024b57600080fd5b5061022861025a366004612ac2565b6107c3565b34801561026b57600080fd5b5060005461027f906001600160a01b031681565b6040516001600160a01b0390911681526020016101af565b3480156102a357600080fd5b506102b76102b2366004612b6f565b61082a565b6040516101af9190612c6b565b6102286102d2366004612c7e565b6108fe565b3480156102e357600080fd5b506101a561091d565b3480156102f857600080fd5b5061020861093a565b34801561030d57600080fd5b506101a561031c3660046128b9565b60036020526000908152604090205481565b34801561033a57600080fd5b50610228610349366004612cc3565b6109c8565b34801561035a57600080fd5b50610228610aa6565b34801561036f57600080fd5b5061022861037e366004612d07565b610aba565b34801561038f57600080fd5b507f9016d09d72d40fdae2fd8ceac6b6234c7706214fd39c1cd1e609a0528c199300546001600160a01b031661027f565b3480156103cc57600080fd5b506102286103db366004612d40565b610aef565b3480156103ec57600080fd5b506102286103fb366004612d7e565b610afa565b34801561040c57600080fd5b50610208604051806040016040528060058152602001640352e302e360dc1b81525081565b34801561043d57600080fd5b5061022861044c366004612dcd565b610c2e565b34801561045d57600080fd5b5061020861046c3660046128b9565b610cdf565b34801561047d57600080fd5b5061049161048c366004612dea565b610e37565b604080519283526020830191909152016101af565b3480156104b257600080fd5b506101d86104c1366004612e0c565b610ec9565b3480156104d257600080fd5b506102286104e1366004612e3a565b610f16565b3480156104f257600080fd5b50610228610501366004612dcd565b610f75565b34801561051257600080fd5b50610228610521366004612c7e565b610fb3565b60008181526000805160206133e4833981519152602090815260408083206001600160a01b03861684529091529020545b92915050565b60006001600160e01b03198216636cdb3d1360e11b148061058e57506001600160e01b031982166303a24d0760e21b145b8061055757506301ffc9a760e01b6001600160e01b0319831614610557565b6000818152600260205260408120805460609291906105cb90612ea2565b80601f01602080910402602001604051908101604052809291908181526020018280546105f790612ea2565b80156106445780601f1061061957610100808354040283529160200191610644565b820191906000526020600020905b81548152906001019060200180831161062757829003601f168201915b5050505050905060008151111561065b5792915050565b600083815260046020526040902054806106b45760405162461bcd60e51b81526020600482015260156024820152742a37b5b2b7103237b2b9903737ba1032bc34b9ba1760591b60448201526064015b60405180910390fd5b60006106bf82610cdf565b905060006040518060600160405280602381526020016133a160239139905080826106e988611127565b6040516020016106fb93929190612edc565b604051602081830303815290604052945050505050919050565b61071d6111b9565b610728848484611203565b60006107358585856114c1565b9050600061074686868685876115a6565b9050806107875760405162461bcd60e51b815260206004820152600f60248201526e141d5c98da185cd94819985a5b1959608a1b60448201526064016106ab565b610792868686611671565b50506107bd60017f9b779b17422d0df92223018b32b4d1fa46e071723d6817e2486d003becc55f0055565b50505050565b336001600160a01b03861681148015906107e457506107e28682610ec9565b155b156108155760405163711bec9160e11b81526001600160a01b038083166004830152871660248201526044016106ab565b61082286868686866117c2565b505050505050565b6060815183511461085b5781518351604051635b05999160e01b8152600481019290925260248201526044016106ab565b600083516001600160401b0381111561087657610876612976565b60405190808252806020026020018201604052801561089f578160200160208202803683370190505b50905060005b84518110156108f6576020808202860101516108c990602080840287010151610526565b8282815181106108db576108db612f3e565b60209081029190910101526108ef81612f6a565b90506108a5565b509392505050565b610906611822565b61090f826118c7565b61091982826118cf565b5050565b600061092761198c565b506000805160206133c483398151915290565b6001805461094790612ea2565b80601f016020809104026020016040519081016040528092919081815260200182805461097390612ea2565b80156109c05780601f10610995576101008083540402835291602001916109c0565b820191906000526020600020905b8154815290600101906020018083116109a357829003601f168201915b505050505081565b600054604051634bbe5c4f60e11b8152600481018390526001600160a01b039091169063977cb89e90602401602060405180830381865afa158015610a11573d6000803e3d6000fd5b505050506040513d601f19601f82011682018060405250810190610a359190612f83565b6001600160a01b0316336001600160a01b031614610a955760405162461bcd60e51b815260206004820152601b60248201527f43616c6c6572206973206e6f7420746865206f7267616e697a6572000000000060448201526064016106ab565b6007610aa18382612fe6565b505050565b610aae6119d5565b610ab86000611a30565b565b6000546001600160a01b03163314610ae45760405162461bcd60e51b81526004016106ab906130a5565b610aa1818484611aa1565b610919338383611b09565b600054604051634bbe5c4f60e11b8152600481018590526001600160a01b039091169063977cb89e90602401602060405180830381865afa158015610b43573d6000803e3d6000fd5b505050506040513d601f19601f82011682018060405250810190610b679190612f83565b6001600160a01b0316336001600160a01b031614610bd85760405162461bcd60e51b815260206004820152602860248201527f43616c6c6572206973206e6f7420746865206f7267616e697a6572206f6620746044820152676869732073686f7760c01b60648201526084016106ab565b6000828152600260205260409020610bf08282612fe6565b50817f6bb7ff708619ba0610cba295a58592e0451dee2622938c8755667688daf3529b82604051610c219190612922565b60405180910390a2505050565b6000546001600160a01b03163314610c585760405162461bcd60e51b81526004016106ab906130a5565b6000546001600160a01b031615610cbd5760405162461bcd60e51b8152602060048201526024808201527f53686f7720636f6e7472616374206164647265737320697320616c7265616479604482015263081cd95d60e21b60648201526084016106ab565b600080546001600160a01b0319166001600160a01b0392909216919091179055565b604080518082018252601081526f181899199a1a9b1b9c1cb0b131b232b360811b6020820152815182815260608181018452926000919060208201818036833701905050905060005b60208110156108f657826004868360208110610d4657610d46612f3e565b1a60f81b6001600160f81b031916901c60f81c60ff1681518110610d6c57610d6c612f3e565b01602001516001600160f81b03191682610d878360026130f2565b81518110610d9757610d97612f3e565b60200101906001600160f81b031916908160001a90535082858260208110610dc157610dc1612f3e565b825191901a600f16908110610dd857610dd8612f3e565b01602001516001600160f81b03191682610df38360026130f2565b610dfe906001613109565b81518110610e0e57610e0e612f3e565b60200101906001600160f81b031916908160001a90535080610e2f81612f6a565b915050610d28565b600080546040516293d4e160e81b81526004810185905260248101849052829182916001600160a01b03909116906393d4e10090604401602060405180830381865afa158015610e8b573d6000803e3d6000fd5b505050506040513d601f19601f82011682018060405250810190610eaf919061311c565b600094855260036020526040909420549395939450505050565b6001600160a01b0391821660009081527f88be536d5240c274a3b1d3a1be54482fd9caa294f08c62a7cde569f49a3c45016020908152604080832093909416825291909152205460ff1690565b336001600160a01b0386168114801590610f375750610f358682610ec9565b155b15610f685760405163711bec9160e11b81526001600160a01b038083166004830152871660248201526044016106ab565b6108228686868686611bb1565b610f7d6119d5565b6001600160a01b038116610fa757604051631e4fbdf760e01b8152600060048201526024016106ab565b610fb081611a30565b50565b7ff0c57e16840df040f15088dc2f81fe391c3923bec73e23a9662efc9c229c6a008054600160401b810460ff1615906001600160401b0316600081158015610ff85750825b90506000826001600160401b031660011480156110145750303b155b905081158015611022575080155b156110405760405163f92ee8a960e01b815260040160405180910390fd5b845467ffffffffffffffff19166001178555831561106a57845460ff60401b1916600160401b1785555b61108b6040518060600160405280602e8152602001613404602e9139611c36565b611093611c47565b61109c87611c57565b6110a4611c68565b60016110b08782612fe6565b5060405180606001604052806025815260200161337c602591396007906110d79082612fe6565b50831561111e57845460ff60401b19168555604051600181527fc7f505b2f371ae2175ee4913f4499e1f2633a7b5936321eed1cdaeb6115181d29060200160405180910390a15b50505050505050565b6060600061113483611c70565b60010190506000816001600160401b0381111561115357611153612976565b6040519080825280601f01601f19166020018201604052801561117d576020820181803683370190505b5090508181016020015b600019016f181899199a1a9b1b9c1cb0b131b232b360811b600a86061a8153600a850494508461118757509392505050565b7f9b779b17422d0df92223018b32b4d1fa46e071723d6817e2486d003becc55f008054600119016111fd57604051633ee5aeb560e01b815260040160405180910390fd5b60029055565b600080546040516346c2c8a760e01b8152600481018690526001600160a01b03909116906346c2c8a790602401602060405180830381865afa15801561124d573d6000803e3d6000fd5b505050506040513d601f19601f82011682018060405250810190611271919061314b565b600781111561128257611282613135565b146112cf5760405162461bcd60e51b815260206004820152601f60248201527f53686f77206e6f7420617661696c61626c6520666f722070757263686173650060448201526064016106ab565b6000811161131f5760405162461bcd60e51b815260206004820152601d60248201527f416d6f756e74206d7573742062652067726561746572207468616e203000000060448201526064016106ab565b60008054604051637e3e393560e01b815260048101869052602481018590526001600160a01b0390911690637e3e393590604401600060405180830381865afa158015611370573d6000803e3d6000fd5b505050506040513d6000823e601f3d908101601f19168201604052611398919081019061316c565b92505050818110156113ec5760405162461bcd60e51b815260206004820152601c60248201527f4e6f7420656e6f756768207469636b65747320617661696c61626c650000000060448201526064016106ab565b60008054604051635b9a1e0960e01b8152600481018790523360248201526001600160a01b0390911690635b9a1e0990604401600060405180830381865afa15801561143c573d6000803e3d6000fd5b505050506040513d6000823e601f3d908101601f1916820160405261146491908101906131f5565b905060058382516114759190613109565b11156114ba5760405162461bcd60e51b815260206004820152601460248201527313585e081d1a58dad95d1cc8195e18d95959195960621b60448201526064016106ab565b5050505050565b6114ec6040518060800160405280600081526020016000815260200160008152602001600081525090565b60008054604051637e3e393560e01b8152600481018790526024810186905282916001600160a01b031690637e3e393590604401600060405180830381865afa15801561153d573d6000803e3d6000fd5b505050506040513d6000823e601f3d908101601f19168201604052611565919081019061316c565b90935091506000905061157885846130f2565b60408051608081018252948552602085019390935291830191909152506000606082015290505b9392505050565b60006115b786846040015184611d48565b6115c357506000611668565b600160005b858110156116645760006115dd89338a611edc565b90506115f081898b338a60000151611f56565b6115fe576000925050611664565b60408051898152602081018390526001818301526001600160a01b038716606082015290518a9133917f2aceb142a3587d08c8b52a9ac6b03c85fdce4097d5614383174758656261bfdd9181900360800190a3508061165c81612f6a565b9150506115c8565b5090505b95945050505050565b600054604051630f0faed760e31b815260048101859052602481018390526001600160a01b039091169063787d76b890604401600060405180830381600087803b1580156116be57600080fd5b505af11580156116d2573d6000803e3d6000fd5b505060005460405163644b5e5960e01b81526004810187905260248101869052604481018590526001600160a01b03909116925063644b5e599150606401600060405180830381600087803b15801561172a57600080fd5b505af115801561173e573d6000803e3d6000fd5b505060005460405163730c02a360e11b8152600481018790526001600160a01b03909116925063e61805469150602401600060405180830381600087803b15801561178857600080fd5b505af115801561111e573d6000803e3d6000fd5b60017f9b779b17422d0df92223018b32b4d1fa46e071723d6817e2486d003becc55f0055565b6001600160a01b0384166117ec57604051632bfa23e760e11b8152600060048201526024016106ab565b6001600160a01b03851661181557604051626a0d4560e21b8152600060048201526024016106ab565b6114ba85858585856120ea565b306001600160a01b037f00000000000000000000000000000000000000000000000000000000000000001614806118a957507f00000000000000000000000000000000000000000000000000000000000000006001600160a01b031661189d6000805160206133c4833981519152546001600160a01b031690565b6001600160a01b031614155b15610ab85760405163703e46dd60e11b815260040160405180910390fd5b610fb06119d5565b816001600160a01b03166352d1902d6040518163ffffffff1660e01b8152600401602060405180830381865afa925050508015611929575060408051601f3d908101601f191682019092526119269181019061311c565b60015b61195157604051634c9c8ce360e01b81526001600160a01b03831660048201526024016106ab565b6000805160206133c4833981519152811461198257604051632a87526960e21b8152600481018290526024016106ab565b610aa1838361213d565b306001600160a01b037f00000000000000000000000000000000000000000000000000000000000000001614610ab85760405163703e46dd60e11b815260040160405180910390fd5b33611a077f9016d09d72d40fdae2fd8ceac6b6234c7706214fd39c1cd1e609a0528c199300546001600160a01b031690565b6001600160a01b031614610ab85760405163118cdaa760e01b81523360048201526024016106ab565b7f9016d09d72d40fdae2fd8ceac6b6234c7706214fd39c1cd1e609a0528c19930080546001600160a01b031981166001600160a01b03848116918217845560405192169182907f8be0079c531659141344cd1fd0a4f28419497f9722a3daafe3b4186f6b6457e090600090a3505050565b6001600160a01b038316611aca57604051626a0d4560e21b8152600060048201526024016106ab565b604080516001808252602082018590528183019081526060820184905260a082019092526000608082018181529192916114ba918791859085906120ea565b6000805160206133e48339815191526001600160a01b038316611b415760405162ced3e160e81b8152600060048201526024016106ab565b6001600160a01b038481166000818152600184016020908152604080832094881680845294825291829020805460ff191687151590811790915591519182527f17307eab39ab6107e8899845ad3d59bd9653f200f220920489ca2b5937696c31910160405180910390a350505050565b6001600160a01b038416611bdb57604051632bfa23e760e11b8152600060048201526024016106ab565b6001600160a01b038516611c0457604051626a0d4560e21b8152600060048201526024016106ab565b6040805160018082526020820186905281830190815260608201859052608082019092529061111e87878484876120ea565b611c3e612193565b610fb0816121dc565b611c4f612193565b610ab86121ed565b611c5f612193565b610fb0816121f5565b610ab8612193565b60008072184f03e93ff9f4daa797ed6e38ed64bf6a1f0160401b8310611caf5772184f03e93ff9f4daa797ed6e38ed64bf6a1f0160401b830492506040015b6d04ee2d6d415b85acef81000000008310611cdb576d04ee2d6d415b85acef8100000000830492506020015b662386f26fc100008310611cf957662386f26fc10000830492506010015b6305f5e1008310611d11576305f5e100830492506008015b6127108310611d2557612710830492506004015b60648310611d37576064830492506002015b600a83106105575760010192915050565b60006001600160a01b038216611e0757823414611d9e5760405162461bcd60e51b8152602060048201526014602482015273125b98dbdc9c9958dd0811551208185b5bdd5b9d60621b60448201526064016106ab565b600054604051638526663560e01b8152600481018690526001600160a01b039091169063852666359034906024016000604051808303818588803b158015611de557600080fd5b505af1158015611df9573d6000803e3d6000fd5b50505050506001905061159f565b3415611e605760405162461bcd60e51b815260206004820152602260248201527f446f206e6f742073656e64204554482077697468204552433230207061796d656044820152611b9d60f21b60648201526084016106ab565b600054604051635412233f60e01b815260048101869052602481018590526001600160a01b03848116604483015233606483015290911690635412233f90608401600060405180830381600087803b158015611ebb57600080fd5b505af1158015611ecf573d6000803e3d6000fd5b505050506001905061159f565b6008805460009182611eed83612f6a565b91905055506000848484600854604051602001611f35949392919093845260609290921b6bffffffffffffffffffffffff191660208401526034830152605482015260740190565b60408051808303601f19018152919052805160209091012095945050505050565b6000611f7483876001604051806020016040528060008152506121fd565b60008681526003602090815260408083208890556004918290528083208790559154915163647b3f4b60e11b81529081018690526001600160a01b03858116602483015260448201899052600160648301529091169063c8f67e9690608401600060405180830381600087803b158015611fed57600080fd5b505af1158015612001573d6000803e3d6000fd5b505060005460405163de44006f60e01b8152600481018890526001600160a01b038781166024830152604482018b9052909116925063de44006f9150606401600060405180830381600087803b15801561205a57600080fd5b505af115801561206e573d6000803e3d6000fd5b5050600054604051632f51f71760e21b815260048101889052602481018a9052604481018690526001600160a01b03909116925063bd47dc5c9150606401600060405180830381600087803b1580156120c657600080fd5b505af11580156120da573d6000803e3d6000fd5b5060019998505050505050505050565b6120f68585858561225a565b6001600160a01b038416156114ba578251339060010361212f5760208481015190840151612128838989858589612488565b5050610822565b6108228187878787876125ac565b61214682612695565b6040516001600160a01b038316907fbc7cd75a20ee27fd9adebab32041f755214dbc6bffa90cc0225b39da2e5c2d3b90600090a280511561218b57610aa182826126fa565b610919612767565b7ff0c57e16840df040f15088dc2f81fe391c3923bec73e23a9662efc9c229c6a0054600160401b900460ff16610ab857604051631afcd79f60e31b815260040160405180910390fd5b6121e4612193565b610fb081612786565b61179c612193565b610f7d612193565b6001600160a01b03841661222757604051632bfa23e760e11b8152600060048201526024016106ab565b604080516001808252602082018690528183019081526060820185905260808201909252906108226000878484876120ea565b805182516000805160206133e483398151915291146122995782518251604051635b05999160e01b8152600481019290925260248201526044016106ab565b3360005b84518110156123a8576020818102868101820151908601909101516001600160a01b03891615612350576000828152602086815260408083206001600160a01b038d16845290915290205481811015612329576040516303dee4c560e01b81526001600160a01b038b1660048201526024810182905260448101839052606481018490526084016106ab565b6000838152602087815260408083206001600160a01b038e16845290915290209082900390555b6001600160a01b03881615612395576000828152602086815260408083206001600160a01b038c1684529091528120805483929061238f908490613109565b90915550505b5050806123a190612f6a565b905061229d565b5083516001036124295760208401516000906020850151909150866001600160a01b0316886001600160a01b0316846001600160a01b03167fc3d58168c5ae7397731d063d5bbf3d657854427343f4c083240f7aacaa2d0f62858560405161241a929190918252602082015260400190565b60405180910390a45050610822565b846001600160a01b0316866001600160a01b0316826001600160a01b03167f4a39dc06d4c0dbc64b70af90fd698a233a518aa5d07e595d983b8c0526c8f7fb8787604051612478929190613285565b60405180910390a4505050505050565b6001600160a01b0384163b156108225760405163f23a6e6160e01b81526001600160a01b0385169063f23a6e61906124cc90899089908890889088906004016132aa565b6020604051808303816000875af1925050508015612507575060408051601f3d908101601f19168201909252612504918101906132e4565b60015b612570573d808015612535576040519150601f19603f3d011682016040523d82523d6000602084013e61253a565b606091505b50805160000361256857604051632bfa23e760e11b81526001600160a01b03861660048201526024016106ab565b805181602001fd5b6001600160e01b0319811663f23a6e6160e01b1461111e57604051632bfa23e760e11b81526001600160a01b03861660048201526024016106ab565b6001600160a01b0384163b156108225760405163bc197c8160e01b81526001600160a01b0385169063bc197c81906125f09089908990889088908890600401613301565b6020604051808303816000875af192505050801561262b575060408051601f3d908101601f19168201909252612628918101906132e4565b60015b612659573d808015612535576040519150601f19603f3d011682016040523d82523d6000602084013e61253a565b6001600160e01b0319811663bc197c8160e01b1461111e57604051632bfa23e760e11b81526001600160a01b03861660048201526024016106ab565b806001600160a01b03163b6000036126cb57604051634c9c8ce360e01b81526001600160a01b03821660048201526024016106ab565b6000805160206133c483398151915280546001600160a01b0319166001600160a01b0392909216919091179055565b6060600080846001600160a01b031684604051612717919061335f565b600060405180830381855af49150503d8060008114612752576040519150601f19603f3d011682016040523d82523d6000602084013e612757565b606091505b50915091506116688583836127c0565b3415610ab85760405163b398979f60e01b815260040160405180910390fd5b6000805160206133e48339815191527f88be536d5240c274a3b1d3a1be54482fd9caa294f08c62a7cde569f49a3c4502610aa18382612fe6565b6060826127d5576127d08261281c565b61159f565b81511580156127ec57506001600160a01b0384163b155b1561281557604051639996b31560e01b81526001600160a01b03851660048201526024016106ab565b508061159f565b80511561282c5780518082602001fd5b604051630a12f52160e11b815260040160405180910390fd5b6001600160a01b0381168114610fb057600080fd5b6000806040838503121561286d57600080fd5b823561287881612845565b946020939093013593505050565b6001600160e01b031981168114610fb057600080fd5b6000602082840312156128ae57600080fd5b813561159f81612886565b6000602082840312156128cb57600080fd5b5035919050565b60005b838110156128ed5781810151838201526020016128d5565b50506000910152565b6000815180845261290e8160208601602086016128d2565b601f01601f19169290920160200192915050565b60208152600061159f60208301846128f6565b6000806000806080858703121561294b57600080fd5b843593506020850135925060408501359150606085013561296b81612845565b939692955090935050565b634e487b7160e01b600052604160045260246000fd5b604051601f8201601f191681016001600160401b03811182821017156129b4576129b4612976565b604052919050565b60006001600160401b038211156129d5576129d5612976565b5060051b60200190565b600082601f8301126129f057600080fd5b81356020612a05612a00836129bc565b61298c565b82815260059290921b84018101918181019086841115612a2457600080fd5b8286015b84811015612a3f5780358352918301918301612a28565b509695505050505050565b60006001600160401b03821115612a6357612a63612976565b50601f01601f191660200190565b600082601f830112612a8257600080fd5b8135612a90612a0082612a4a565b818152846020838601011115612aa557600080fd5b816020850160208301376000918101602001919091529392505050565b600080600080600060a08688031215612ada57600080fd5b8535612ae581612845565b94506020860135612af581612845565b935060408601356001600160401b0380821115612b1157600080fd5b612b1d89838a016129df565b94506060880135915080821115612b3357600080fd5b612b3f89838a016129df565b93506080880135915080821115612b5557600080fd5b50612b6288828901612a71565b9150509295509295909350565b60008060408385031215612b8257600080fd5b82356001600160401b0380821115612b9957600080fd5b818501915085601f830112612bad57600080fd5b81356020612bbd612a00836129bc565b82815260059290921b84018101918181019089841115612bdc57600080fd5b948201945b83861015612c03578535612bf481612845565b82529482019490820190612be1565b96505086013592505080821115612c1957600080fd5b50612c26858286016129df565b9150509250929050565b600081518084526020808501945080840160005b83811015612c6057815187529582019590820190600101612c44565b509495945050505050565b60208152600061159f6020830184612c30565b60008060408385031215612c9157600080fd5b8235612c9c81612845565b915060208301356001600160401b03811115612cb757600080fd5b612c2685828601612a71565b60008060408385031215612cd657600080fd5b82356001600160401b03811115612cec57600080fd5b612cf885828601612a71565b95602094909401359450505050565b600080600060608486031215612d1c57600080fd5b83359250602084013591506040840135612d3581612845565b809150509250925092565b60008060408385031215612d5357600080fd5b8235612d5e81612845565b915060208301358015158114612d7357600080fd5b809150509250929050565b600080600060608486031215612d9357600080fd5b833592506020840135915060408401356001600160401b03811115612db757600080fd5b612dc386828701612a71565b9150509250925092565b600060208284031215612ddf57600080fd5b813561159f81612845565b60008060408385031215612dfd57600080fd5b50508035926020909101359150565b60008060408385031215612e1f57600080fd5b8235612e2a81612845565b91506020830135612d7381612845565b600080600080600060a08688031215612e5257600080fd5b8535612e5d81612845565b94506020860135612e6d81612845565b9350604086013592506060860135915060808601356001600160401b03811115612e9657600080fd5b612b6288828901612a71565b600181811c90821680612eb657607f821691505b602082108103612ed657634e487b7160e01b600052602260045260246000fd5b50919050565b60008451612eee8184602089016128d2565b845190830190612f028183602089016128d2565b602f60f81b91019081528351612f1f8160018401602088016128d2565b64173539b7b760d91b6001929091019182015260060195945050505050565b634e487b7160e01b600052603260045260246000fd5b634e487b7160e01b600052601160045260246000fd5b600060018201612f7c57612f7c612f54565b5060010190565b600060208284031215612f9557600080fd5b815161159f81612845565b601f821115610aa157600081815260208120601f850160051c81016020861015612fc75750805b601f850160051c820191505b8181101561082257828155600101612fd3565b81516001600160401b03811115612fff57612fff612976565b6130138161300d8454612ea2565b84612fa0565b602080601f83116001811461304857600084156130305750858301515b600019600386901b1c1916600185901b178555610822565b600085815260208120601f198616915b8281101561307757888601518255948401946001909101908401613058565b50858210156130955787850151600019600388901b60f8161c191681555b5050505050600190811b01905550565b6020808252602d908201527f4f6e6c79207468652053686f7720636f6e74726163742063616e2063616c6c2060408201526c3a3434b990333ab731ba34b7b760991b606082015260800190565b808202811582820484141761055757610557612f54565b8082018082111561055757610557612f54565b60006020828403121561312e57600080fd5b5051919050565b634e487b7160e01b600052602160045260246000fd5b60006020828403121561315d57600080fd5b81516008811061159f57600080fd5b60008060006060848603121561318157600080fd5b83516001600160401b0381111561319757600080fd5b8401601f810186136131a857600080fd5b80516131b6612a0082612a4a565b8181528760208385010111156131cb57600080fd5b6131dc8260208301602086016128d2565b6020870151604090970151909896975095945050505050565b6000602080838503121561320857600080fd5b82516001600160401b0381111561321e57600080fd5b8301601f8101851361322f57600080fd5b805161323d612a00826129bc565b81815260059190911b8201830190838101908783111561325c57600080fd5b928401925b8284101561327a57835182529284019290840190613261565b979650505050505050565b6040815260006132986040830185612c30565b82810360208401526116688185612c30565b6001600160a01b03868116825285166020820152604081018490526060810183905260a06080820181905260009061327a908301846128f6565b6000602082840312156132f657600080fd5b815161159f81612886565b6001600160a01b0386811682528516602082015260a06040820181905260009061332d90830186612c30565b828103606084015261333f8186612c30565b9050828103608084015261335381856128f6565b98975050505050505050565b600082516133718184602087016128d2565b919091019291505056fe68747470733a2f2f6d657461646174612e73656c6c6f7574732e6170702f7469636b65742f68747470733a2f2f6d657461646174612e73656c6c6f7574732e6170702f73686f772f360894a13ba1a3210667c828492db98dca3e2076cc3735a920a3ca505d382bbc88be536d5240c274a3b1d3a1be54482fd9caa294f08c62a7cde569f49a3c450068747470733a2f2f6d657461646174612e73656c6c6f7574732e6170702f7469636b65742f7b69647d2e6a736f6ea2646970667358221220504688d33475a81dc1d70805b053ab22ab4112847490a2605ba2fdd73d3ef0d764736f6c63430008140033","linkReferences":{}},"methodIdentifiers":{"MAX_TICKETS_PER_WALLET()":"229df6d6","UPGRADE_INTERFACE_VERSION()":"ad3cb1cc","balanceOf(address,uint256)":"00fdd58e","balanceOfBatch(address[],uint256[])":"4e1273f4","burnTokens(uint256,uint256,address)":"87f9ca5d","bytes32ToHexString(bytes32)":"c68b3787","getTicketPricePaidAndTierIndex(bytes32,uint256)":"da3a7616","initialize(address,string)":"f399e22e","isApprovedForAll(address,address)":"e985e9c5","owner()":"8da5cb5b","proxiableUUID()":"52d1902d","purchaseTickets(bytes32,uint256,uint256,address)":"1e87ccce","renounceOwnership()":"715018a6","safeBatchTransferFrom(address,address,uint256[],uint256[],bytes)":"2eb2c2d6","safeTransferFrom(address,address,uint256,uint256,bytes)":"f242432a","setApprovalForAll(address,bool)":"a22cb465","setDefaultURI(string,bytes32)":"5dbab132","setShowContractAddress(address)":"bde9700b","setTokenURI(bytes32,uint256,string)":"a7d22597","showInstance()":"404f49d1","supportsInterface(bytes4)":"01ffc9a7","ticketIdToTierIndex(uint256)":"5d7c188c","transferOwnership(address)":"f2fde38b","upgradeToAndCall(address,bytes)":"4f1ef286","uri(uint256)":"0e89341c","version()":"54fd4d50"},"id":55}