{"abi":[{"type":"function","name":"MAX_TICKETS_PER_WALLET","inputs":[],"outputs":[{"name":"","type":"uint256","internalType":"uint256"}],"stateMutability":"view"},{"type":"function","name":"UPGRADE_INTERFACE_VERSION","inputs":[],"outputs":[{"name":"","type":"string","internalType":"string"}],"stateMutability":"view"},{"type":"function","name":"balanceOf","inputs":[{"name":"account","type":"address","internalType":"address"},{"name":"id","type":"uint256","internalType":"uint256"}],"outputs":[{"name":"","type":"uint256","internalType":"uint256"}],"stateMutability":"view"},{"type":"function","name":"balanceOfBatch","inputs":[{"name":"accounts","type":"address[]","internalType":"address[]"},{"name":"ids","type":"uint256[]","internalType":"uint256[]"}],"outputs":[{"name":"","type":"uint256[]","internalType":"uint256[]"}],"stateMutability":"view"},{"type":"function","name":"burnTokens","inputs":[{"name":"tokenId","type":"uint256","internalType":"uint256"},{"name":"amount","type":"uint256","internalType":"uint256"},{"name":"owner","type":"address","internalType":"address"}],"outputs":[],"stateMutability":"nonpayable"},{"type":"function","name":"getTicketPricePaidAndTierIndex","inputs":[{"name":"showId","type":"bytes32","internalType":"bytes32"},{"name":"ticketId","type":"uint256","internalType":"uint256"}],"outputs":[{"name":"price","type":"uint256","internalType":"uint256"},{"name":"tierIndex","type":"uint256","internalType":"uint256"}],"stateMutability":"view"},{"type":"function","name":"initialize","inputs":[{"name":"initialOwner","type":"address","internalType":"address"},{"name":"_showContractAddress","type":"address","internalType":"address"}],"outputs":[],"stateMutability":"nonpayable"},{"type":"function","name":"isApprovedForAll","inputs":[{"name":"account","type":"address","internalType":"address"},{"name":"operator","type":"address","internalType":"address"}],"outputs":[{"name":"","type":"bool","internalType":"bool"}],"stateMutability":"view"},{"type":"function","name":"owner","inputs":[],"outputs":[{"name":"","type":"address","internalType":"address"}],"stateMutability":"view"},{"type":"function","name":"proxiableUUID","inputs":[],"outputs":[{"name":"","type":"bytes32","internalType":"bytes32"}],"stateMutability":"view"},{"type":"function","name":"purchaseTickets","inputs":[{"name":"showId","type":"bytes32","internalType":"bytes32"},{"name":"tierIndex","type":"uint256","internalType":"uint256"},{"name":"amount","type":"uint256","internalType":"uint256"},{"name":"paymentToken","type":"address","internalType":"address"}],"outputs":[],"stateMutability":"payable"},{"type":"function","name":"renounceOwnership","inputs":[],"outputs":[],"stateMutability":"nonpayable"},{"type":"function","name":"safeBatchTransferFrom","inputs":[{"name":"from","type":"address","internalType":"address"},{"name":"to","type":"address","internalType":"address"},{"name":"ids","type":"uint256[]","internalType":"uint256[]"},{"name":"values","type":"uint256[]","internalType":"uint256[]"},{"name":"data","type":"bytes","internalType":"bytes"}],"outputs":[],"stateMutability":"nonpayable"},{"type":"function","name":"safeTransferFrom","inputs":[{"name":"from","type":"address","internalType":"address"},{"name":"to","type":"address","internalType":"address"},{"name":"id","type":"uint256","internalType":"uint256"},{"name":"value","type":"uint256","internalType":"uint256"},{"name":"data","type":"bytes","internalType":"bytes"}],"outputs":[],"stateMutability":"nonpayable"},{"type":"function","name":"setApprovalForAll","inputs":[{"name":"operator","type":"address","internalType":"address"},{"name":"approved","type":"bool","internalType":"bool"}],"outputs":[],"stateMutability":"nonpayable"},{"type":"function","name":"setDefaultURI","inputs":[{"name":"newDefaultURI","type":"string","internalType":"string"},{"name":"showId","type":"bytes32","internalType":"bytes32"}],"outputs":[],"stateMutability":"nonpayable"},{"type":"function","name":"setTokenURI","inputs":[{"name":"showId","type":"bytes32","internalType":"bytes32"},{"name":"tokenId","type":"uint256","internalType":"uint256"},{"name":"newURI","type":"string","internalType":"string"}],"outputs":[],"stateMutability":"nonpayable"},{"type":"function","name":"showInstance","inputs":[],"outputs":[{"name":"","type":"address","internalType":"contract IShow"}],"stateMutability":"view"},{"type":"function","name":"supportsInterface","inputs":[{"name":"interfaceId","type":"bytes4","internalType":"bytes4"}],"outputs":[{"name":"","type":"bool","internalType":"bool"}],"stateMutability":"view"},{"type":"function","name":"ticketIdToTierIndex","inputs":[{"name":"","type":"uint256","internalType":"uint256"}],"outputs":[{"name":"","type":"uint256","internalType":"uint256"}],"stateMutability":"view"},{"type":"function","name":"transferOwnership","inputs":[{"name":"newOwner","type":"address","internalType":"address"}],"outputs":[],"stateMutability":"nonpayable"},{"type":"function","name":"upgradeToAndCall","inputs":[{"name":"newImplementation","type":"address","internalType":"address"},{"name":"data","type":"bytes","internalType":"bytes"}],"outputs":[],"stateMutability":"payable"},{"type":"function","name":"uri","inputs":[{"name":"tokenId","type":"uint256","internalType":"uint256"}],"outputs":[{"name":"","type":"string","internalType":"string"}],"stateMutability":"view"},{"type":"event","name":"ApprovalForAll","inputs":[{"name":"account","type":"address","indexed":true,"internalType":"address"},{"name":"operator","type":"address","indexed":true,"internalType":"address"},{"name":"approved","type":"bool","indexed":false,"internalType":"bool"}],"anonymous":false},{"type":"event","name":"Initialized","inputs":[{"name":"version","type":"uint64","indexed":false,"internalType":"uint64"}],"anonymous":false},{"type":"event","name":"OwnershipTransferred","inputs":[{"name":"previousOwner","type":"address","indexed":true,"internalType":"address"},{"name":"newOwner","type":"address","indexed":true,"internalType":"address"}],"anonymous":false},{"type":"event","name":"TicketPurchased","inputs":[{"name":"buyer","type":"address","indexed":true,"internalType":"address"},{"name":"showId","type":"bytes32","indexed":true,"internalType":"bytes32"},{"name":"tierIndex","type":"uint256","indexed":false,"internalType":"uint256"},{"name":"amount","type":"uint256","indexed":false,"internalType":"uint256"},{"name":"paymentToken","type":"address","indexed":false,"internalType":"address"}],"anonymous":false},{"type":"event","name":"TransferBatch","inputs":[{"name":"operator","type":"address","indexed":true,"internalType":"address"},{"name":"from","type":"address","indexed":true,"internalType":"address"},{"name":"to","type":"address","indexed":true,"internalType":"address"},{"name":"ids","type":"uint256[]","indexed":false,"internalType":"uint256[]"},{"name":"values","type":"uint256[]","indexed":false,"internalType":"uint256[]"}],"anonymous":false},{"type":"event","name":"TransferSingle","inputs":[{"name":"operator","type":"address","indexed":true,"internalType":"address"},{"name":"from","type":"address","indexed":true,"internalType":"address"},{"name":"to","type":"address","indexed":true,"internalType":"address"},{"name":"id","type":"uint256","indexed":false,"internalType":"uint256"},{"name":"value","type":"uint256","indexed":false,"internalType":"uint256"}],"anonymous":false},{"type":"event","name":"URI","inputs":[{"name":"value","type":"string","indexed":false,"internalType":"string"},{"name":"id","type":"uint256","indexed":true,"internalType":"uint256"}],"anonymous":false},{"type":"event","name":"Upgraded","inputs":[{"name":"implementation","type":"address","indexed":true,"internalType":"address"}],"anonymous":false},{"type":"error","name":"AddressEmptyCode","inputs":[{"name":"target","type":"address","internalType":"address"}]},{"type":"error","name":"ERC1155InsufficientBalance","inputs":[{"name":"sender","type":"address","internalType":"address"},{"name":"balance","type":"uint256","internalType":"uint256"},{"name":"needed","type":"uint256","internalType":"uint256"},{"name":"tokenId","type":"uint256","internalType":"uint256"}]},{"type":"error","name":"ERC1155InvalidApprover","inputs":[{"name":"approver","type":"address","internalType":"address"}]},{"type":"error","name":"ERC1155InvalidArrayLength","inputs":[{"name":"idsLength","type":"uint256","internalType":"uint256"},{"name":"valuesLength","type":"uint256","internalType":"uint256"}]},{"type":"error","name":"ERC1155InvalidOperator","inputs":[{"name":"operator","type":"address","internalType":"address"}]},{"type":"error","name":"ERC1155InvalidReceiver","inputs":[{"name":"receiver","type":"address","internalType":"address"}]},{"type":"error","name":"ERC1155InvalidSender","inputs":[{"name":"sender","type":"address","internalType":"address"}]},{"type":"error","name":"ERC1155MissingApprovalForAll","inputs":[{"name":"operator","type":"address","internalType":"address"},{"name":"owner","type":"address","internalType":"address"}]},{"type":"error","name":"ERC1967InvalidImplementation","inputs":[{"name":"implementation","type":"address","internalType":"address"}]},{"type":"error","name":"ERC1967NonPayable","inputs":[]},{"type":"error","name":"FailedInnerCall","inputs":[]},{"type":"error","name":"InvalidInitialization","inputs":[]},{"type":"error","name":"NotInitializing","inputs":[]},{"type":"error","name":"OwnableInvalidOwner","inputs":[{"name":"owner","type":"address","internalType":"address"}]},{"type":"error","name":"OwnableUnauthorizedAccount","inputs":[{"name":"account","type":"address","internalType":"address"}]},{"type":"error","name":"ReentrancyGuardReentrantCall","inputs":[]},{"type":"error","name":"UUPSUnauthorizedCallContext","inputs":[]},{"type":"error","name":"UUPSUnsupportedProxiableUUID","inputs":[{"name":"slot","type":"bytes32","internalType":"bytes32"}]}],"bytecode":{"object":"0x60a06040523060805234801561001457600080fd5b50608051612fec61003e600039600081816117f70152818161182001526119610152612fec6000f3fe60806040526004361061013f5760003560e01c80635d7c188c116100b6578063a7d225971161006f578063a7d22597146103aa578063ad3cb1cc146103ca578063da3a7616146103fb578063e985e9c514610430578063f242432a14610450578063f2fde38b1461047057600080fd5b80635d7c188c146102cb5780635dbab132146102f8578063715018a61461031857806387f9ca5d1461032d5780638da5cb5b1461034d578063a22cb4651461038a57600080fd5b80632eb2c2d6116101085780632eb2c2d6146101fe578063404f49d11461021e578063485cc955146102565780634e1273f4146102765780634f1ef286146102a357806352d1902d146102b657600080fd5b8062fdd58e1461014457806301ffc9a7146101775780630e89341c146101a75780631e87ccce146101d4578063229df6d6146101e9575b600080fd5b34801561015057600080fd5b5061016461015f3660046123f4565b610490565b6040519081526020015b60405180910390f35b34801561018357600080fd5b50610197610192366004612436565b6104c7565b604051901515815260200161016e565b3480156101b357600080fd5b506101c76101c2366004612453565b610517565b60405161016e91906124bc565b6101e76101e23660046124cf565b6105f7565b005b3480156101f557600080fd5b50610164600581565b34801561020a57600080fd5b506101e761021936600461265c565b610ecc565b34801561022a57600080fd5b5060005461023e906001600160a01b031681565b6040516001600160a01b03909116815260200161016e565b34801561026257600080fd5b506101e7610271366004612709565b610f33565b34801561028257600080fd5b50610296610291366004612742565b6110b4565b60405161016e919061283e565b6101e76102b1366004612851565b611188565b3480156102c257600080fd5b506101646111a7565b3480156102d757600080fd5b506101646102e6366004612453565b60026020526000908152604090205481565b34801561030457600080fd5b506101e7610313366004612896565b6111c4565b34801561032457600080fd5b506101e76112a2565b34801561033957600080fd5b506101e76103483660046128da565b6112b6565b34801561035957600080fd5b507f9016d09d72d40fdae2fd8ceac6b6234c7706214fd39c1cd1e609a0528c199300546001600160a01b031661023e565b34801561039657600080fd5b506101e76103a5366004612921565b611331565b3480156103b657600080fd5b506101e76103c536600461294f565b61133c565b3480156103d657600080fd5b506101c7604051806040016040528060058152602001640352e302e360dc1b81525081565b34801561040757600080fd5b5061041b61041636600461299e565b611470565b6040805192835260208301919091520161016e565b34801561043c57600080fd5b5061019761044b366004612709565b611502565b34801561045c57600080fd5b506101e761046b3660046129c0565b61154f565b34801561047c57600080fd5b506101e761048b366004612a28565b6115ae565b6000818152600080516020612f69833981519152602090815260408083206001600160a01b03861684529091529020545b92915050565b60006001600160e01b03198216636cdb3d1360e11b14806104f857506001600160e01b031982166303a24d0760e21b145b806104c157506301ffc9a760e01b6001600160e01b03198316146104c1565b60008181526001602052604081208054606092919061053590612a45565b80601f016020809104026020016040519081016040528092919081815260200182805461056190612a45565b80156105ae5780601f10610583576101008083540402835291602001916105ae565b820191906000526020600020905b81548152906001019060200180831161059157829003601f168201915b5050505050905060008151116105ee5760046105c9846115ec565b6040516020016105da929190612a7f565b6040516020818303038152906040526105f0565b805b9392505050565b6105ff61167e565b600082116106545760405162461bcd60e51b815260206004820152601d60248201527f416d6f756e74206d7573742062652067726561746572207468616e203000000060448201526064015b60405180910390fd5b600080546040516346c2c8a760e01b8152600481018790526001600160a01b03909116906346c2c8a790602401602060405180830381865afa15801561069e573d6000803e3d6000fd5b505050506040513d601f19601f820116820180604052508101906106c29190612b16565b905060008160078111156106d8576106d8612b37565b146107375760405162461bcd60e51b815260206004820152602960248201527f53686f77206973206e6f7420617661696c61626c6520666f72207469636b657460448201526820707572636861736560b81b606482015260840161064b565b60008054604051635b9a1e0960e01b8152600481018890523360248201526001600160a01b0390911690635b9a1e0990604401600060405180830381865afa158015610787573d6000803e3d6000fd5b505050506040513d6000823e601f3d908101601f191682016040526107af9190810190612b4d565b905060058482516107c09190612bf3565b11156108195760405162461bcd60e51b815260206004820152602260248201527f45786365656473206d6178696d756d207469636b657473207065722077616c6c604482015261195d60f21b606482015260840161064b565b60008054604051637e3e393560e01b8152600481018990526024810188905282916001600160a01b031690637e3e393590604401600060405180830381865afa15801561086a573d6000803e3d6000fd5b505050506040513d6000823e601f3d908101601f191682016040526108929190810190612c06565b9250925050858110156108f95760405162461bcd60e51b815260206004820152602960248201527f4e6f7420656e6f756768207469636b65747320617661696c61626c6520696e206044820152683a3434b9903a34b2b960b91b606482015260840161064b565b60006109058784612c8f565b90506001600160a01b0386166109c9578034146109645760405162461bcd60e51b815260206004820152601860248201527f496e636f7272656374207061796d656e7420616d6f756e740000000000000000604482015260640161064b565b600054604051638526663560e01b8152600481018b90526001600160a01b039091169063852666359034906024016000604051808303818588803b1580156109ab57600080fd5b505af11580156109bf573d6000803e3d6000fd5b5050505050610b06565b3415610a235760405162461bcd60e51b815260206004820152602360248201527f4552433230207075726368617365732073686f756c64206e6f742073656e642060448201526208aa8960eb1b606482015260840161064b565b60405163a9059cbb60e01b81523060048201526024810182905286906001600160a01b0382169063a9059cbb906044016020604051808303816000875af1158015610a72573d6000803e3d6000fd5b505050506040513d601f19601f82011682018060405250810190610a969190612ca6565b50600054604051634f8f2b2760e11b8152600481018c9052602481018490526001600160a01b03898116604483015290911690639f1e564e90606401600060405180830381600087803b158015610aec57600080fd5b505af1158015610b00573d6000803e3d6000fd5b50505050505b60005b87811015610cf95760008a8152600360205260408120548b908b908490610b31906001612bf3565b610b3b9190612bf3565b60408051602081019490945283019190915260608201526080016040516020818303038152906040528051906020012060001c9050610b8c33826001604051806020016040528060008152506116c8565b6000818152600260205260408082208c90559054905163647b3f4b60e11b8152600481018d905233602482015260448101839052600160648201526001600160a01b039091169063c8f67e9690608401600060405180830381600087803b158015610bf657600080fd5b505af1158015610c0a573d6000803e3d6000fd5b505060005460405163de44006f60e01b8152600481018f9052336024820152604481018590526001600160a01b03909116925063de44006f9150606401600060405180830381600087803b158015610c6157600080fd5b505af1158015610c75573d6000803e3d6000fd5b5050600054604051632f51f71760e21b8152600481018f905260248101859052604481018990526001600160a01b03909116925063bd47dc5c9150606401600060405180830381600087803b158015610ccd57600080fd5b505af1158015610ce1573d6000803e3d6000fd5b50505050508080610cf190612cc3565b915050610b09565b5060008981526003602052604081208054899290610d18908490612bf3565b909155505060005460405163644b5e5960e01b8152600481018b9052602481018a9052604481018990526001600160a01b039091169063644b5e5990606401600060405180830381600087803b158015610d7157600080fd5b505af1158015610d85573d6000803e3d6000fd5b5050600054604051630f0faed760e31b8152600481018d9052602481018b90526001600160a01b03909116925063787d76b89150604401600060405180830381600087803b158015610dd657600080fd5b505af1158015610dea573d6000803e3d6000fd5b505060005460405163730c02a360e11b8152600481018d90526001600160a01b03909116925063e61805469150602401600060405180830381600087803b158015610e3457600080fd5b505af1158015610e48573d6000803e3d6000fd5b5050604080518b8152602081018b90526001600160a01b038a168183015290518c93503392507f8d48cfac1eec3bc9e4c1b3fb9b50bbb22093e0695cd37bbbdca8e873478271949181900360600190a35050505050610ec660017f9b779b17422d0df92223018b32b4d1fa46e071723d6817e2486d003becc55f0055565b50505050565b336001600160a01b0386168114801590610eed5750610eeb8682611502565b155b15610f1e5760405163711bec9160e11b81526001600160a01b0380831660048301528716602482015260440161064b565b610f2b868686868661174b565b505050505050565b7ff0c57e16840df040f15088dc2f81fe391c3923bec73e23a9662efc9c229c6a008054600160401b810460ff1615906001600160401b0316600081158015610f785750825b90506000826001600160401b03166001148015610f945750303b155b905081158015610fa2575080155b15610fc05760405163f92ee8a960e01b815260040160405180910390fd5b845467ffffffffffffffff191660011785558315610fea57845460ff60401b1916600160401b1785555b61100b6040518060600160405280602e8152602001612f89602e91396117b2565b6110136117c3565b61101c876117d3565b6110246117e4565b600080546001600160a01b0319166001600160a01b03881617905560408051606081019091526025808252612f2460208301396004906110649082612d22565b5083156110ab57845460ff60401b19168555604051600181527fc7f505b2f371ae2175ee4913f4499e1f2633a7b5936321eed1cdaeb6115181d29060200160405180910390a15b50505050505050565b606081518351146110e55781518351604051635b05999160e01b81526004810192909252602482015260440161064b565b600083516001600160401b0381111561110057611100612510565b604051908082528060200260200182016040528015611129578160200160208202803683370190505b50905060005b84518110156111805760208082028601015161115390602080840287010151610490565b82828151811061116557611165612de1565b602090810291909101015261117981612cc3565b905061112f565b509392505050565b6111906117ec565b61119982611891565b6111a38282611899565b5050565b60006111b1611956565b50600080516020612f4983398151915290565b600054604051634bbe5c4f60e11b8152600481018390526001600160a01b039091169063977cb89e90602401602060405180830381865afa15801561120d573d6000803e3d6000fd5b505050506040513d601f19601f820116820180604052508101906112319190612df7565b6001600160a01b0316336001600160a01b0316146112915760405162461bcd60e51b815260206004820152601b60248201527f43616c6c6572206973206e6f7420746865206f7267616e697a65720000000000604482015260640161064b565b600461129d8382612d22565b505050565b6112aa61199f565b6112b460006119fa565b565b6000546001600160a01b031633146113265760405162461bcd60e51b815260206004820152602d60248201527f4f6e6c79207468652053686f7720636f6e74726163742063616e2063616c6c2060448201526c3a3434b990333ab731ba34b7b760991b606482015260840161064b565b61129d818484611a6b565b6111a3338383611ad3565b600054604051634bbe5c4f60e11b8152600481018590526001600160a01b039091169063977cb89e90602401602060405180830381865afa158015611385573d6000803e3d6000fd5b505050506040513d601f19601f820116820180604052508101906113a99190612df7565b6001600160a01b0316336001600160a01b03161461141a5760405162461bcd60e51b815260206004820152602860248201527f43616c6c6572206973206e6f7420746865206f7267616e697a6572206f6620746044820152676869732073686f7760c01b606482015260840161064b565b60008281526001602052604090206114328282612d22565b50817f6bb7ff708619ba0610cba295a58592e0451dee2622938c8755667688daf3529b8260405161146391906124bc565b60405180910390a2505050565b600080546040516293d4e160e81b81526004810185905260248101849052829182916001600160a01b03909116906393d4e10090604401602060405180830381865afa1580156114c4573d6000803e3d6000fd5b505050506040513d601f19601f820116820180604052508101906114e89190612e14565b600094855260026020526040909420549395939450505050565b6001600160a01b0391821660009081527f88be536d5240c274a3b1d3a1be54482fd9caa294f08c62a7cde569f49a3c45016020908152604080832093909416825291909152205460ff1690565b336001600160a01b0386168114801590611570575061156e8682611502565b155b156115a15760405163711bec9160e11b81526001600160a01b0380831660048301528716602482015260440161064b565b610f2b8686868686611b7b565b6115b661199f565b6001600160a01b0381166115e057604051631e4fbdf760e01b81526000600482015260240161064b565b6115e9816119fa565b50565b606060006115f983611c00565b60010190506000816001600160401b0381111561161857611618612510565b6040519080825280601f01601f191660200182016040528015611642576020820181803683370190505b5090508181016020015b600019016f181899199a1a9b1b9c1cb0b131b232b360811b600a86061a8153600a850494508461164c57509392505050565b7f9b779b17422d0df92223018b32b4d1fa46e071723d6817e2486d003becc55f008054600119016116c257604051633ee5aeb560e01b815260040160405180910390fd5b60029055565b6001600160a01b0384166116f257604051632bfa23e760e11b81526000600482015260240161064b565b60408051600180825260208201869052818301908152606082018590526080820190925290610f2b600087848487611cd8565b60017f9b779b17422d0df92223018b32b4d1fa46e071723d6817e2486d003becc55f0055565b6001600160a01b03841661177557604051632bfa23e760e11b81526000600482015260240161064b565b6001600160a01b03851661179e57604051626a0d4560e21b81526000600482015260240161064b565b6117ab8585858585611cd8565b5050505050565b6117ba611d2b565b6115e981611d74565b6117cb611d2b565b6112b4611d85565b6117db611d2b565b6115e981611d8d565b6112b4611d2b565b306001600160a01b037f000000000000000000000000000000000000000000000000000000000000000016148061187357507f00000000000000000000000000000000000000000000000000000000000000006001600160a01b0316611867600080516020612f49833981519152546001600160a01b031690565b6001600160a01b031614155b156112b45760405163703e46dd60e11b815260040160405180910390fd5b6115e961199f565b816001600160a01b03166352d1902d6040518163ffffffff1660e01b8152600401602060405180830381865afa9250505080156118f3575060408051601f3d908101601f191682019092526118f091810190612e14565b60015b61191b57604051634c9c8ce360e01b81526001600160a01b038316600482015260240161064b565b600080516020612f49833981519152811461194c57604051632a87526960e21b81526004810182905260240161064b565b61129d8383611d95565b306001600160a01b037f000000000000000000000000000000000000000000000000000000000000000016146112b45760405163703e46dd60e11b815260040160405180910390fd5b336119d17f9016d09d72d40fdae2fd8ceac6b6234c7706214fd39c1cd1e609a0528c199300546001600160a01b031690565b6001600160a01b0316146112b45760405163118cdaa760e01b815233600482015260240161064b565b7f9016d09d72d40fdae2fd8ceac6b6234c7706214fd39c1cd1e609a0528c19930080546001600160a01b031981166001600160a01b03848116918217845560405192169182907f8be0079c531659141344cd1fd0a4f28419497f9722a3daafe3b4186f6b6457e090600090a3505050565b6001600160a01b038316611a9457604051626a0d4560e21b81526000600482015260240161064b565b604080516001808252602082018590528183019081526060820184905260a082019092526000608082018181529192916117ab91879185908590611cd8565b600080516020612f698339815191526001600160a01b038316611b0b5760405162ced3e160e81b81526000600482015260240161064b565b6001600160a01b038481166000818152600184016020908152604080832094881680845294825291829020805460ff191687151590811790915591519182527f17307eab39ab6107e8899845ad3d59bd9653f200f220920489ca2b5937696c31910160405180910390a350505050565b6001600160a01b038416611ba557604051632bfa23e760e11b81526000600482015260240161064b565b6001600160a01b038516611bce57604051626a0d4560e21b81526000600482015260240161064b565b604080516001808252602082018690528183019081526060820185905260808201909252906110ab8787848487611cd8565b60008072184f03e93ff9f4daa797ed6e38ed64bf6a1f0160401b8310611c3f5772184f03e93ff9f4daa797ed6e38ed64bf6a1f0160401b830492506040015b6d04ee2d6d415b85acef81000000008310611c6b576d04ee2d6d415b85acef8100000000830492506020015b662386f26fc100008310611c8957662386f26fc10000830492506010015b6305f5e1008310611ca1576305f5e100830492506008015b6127108310611cb557612710830492506004015b60648310611cc7576064830492506002015b600a83106105ee5760010192915050565b611ce485858585611deb565b6001600160a01b038416156117ab5782513390600103611d1d5760208481015190840151611d16838989858589612019565b5050610f2b565b610f2b81878787878761213d565b7ff0c57e16840df040f15088dc2f81fe391c3923bec73e23a9662efc9c229c6a0054600160401b900460ff166112b457604051631afcd79f60e31b815260040160405180910390fd5b611d7c611d2b565b6115e981612226565b611725611d2b565b6115b6611d2b565b611d9e82612260565b6040516001600160a01b038316907fbc7cd75a20ee27fd9adebab32041f755214dbc6bffa90cc0225b39da2e5c2d3b90600090a2805115611de35761129d82826122c5565b6111a361233b565b80518251600080516020612f698339815191529114611e2a5782518251604051635b05999160e01b81526004810192909252602482015260440161064b565b3360005b8451811015611f39576020818102868101820151908601909101516001600160a01b03891615611ee1576000828152602086815260408083206001600160a01b038d16845290915290205481811015611eba576040516303dee4c560e01b81526001600160a01b038b16600482015260248101829052604481018390526064810184905260840161064b565b6000838152602087815260408083206001600160a01b038e16845290915290209082900390555b6001600160a01b03881615611f26576000828152602086815260408083206001600160a01b038c16845290915281208054839290611f20908490612bf3565b90915550505b505080611f3290612cc3565b9050611e2e565b508351600103611fba5760208401516000906020850151909150866001600160a01b0316886001600160a01b0316846001600160a01b03167fc3d58168c5ae7397731d063d5bbf3d657854427343f4c083240f7aacaa2d0f628585604051611fab929190918252602082015260400190565b60405180910390a45050610f2b565b846001600160a01b0316866001600160a01b0316826001600160a01b03167f4a39dc06d4c0dbc64b70af90fd698a233a518aa5d07e595d983b8c0526c8f7fb8787604051612009929190612e2d565b60405180910390a4505050505050565b6001600160a01b0384163b15610f2b5760405163f23a6e6160e01b81526001600160a01b0385169063f23a6e619061205d9089908990889088908890600401612e52565b6020604051808303816000875af1925050508015612098575060408051601f3d908101601f1916820190925261209591810190612e8c565b60015b612101573d8080156120c6576040519150601f19603f3d011682016040523d82523d6000602084013e6120cb565b606091505b5080516000036120f957604051632bfa23e760e11b81526001600160a01b038616600482015260240161064b565b805181602001fd5b6001600160e01b0319811663f23a6e6160e01b146110ab57604051632bfa23e760e11b81526001600160a01b038616600482015260240161064b565b6001600160a01b0384163b15610f2b5760405163bc197c8160e01b81526001600160a01b0385169063bc197c81906121819089908990889088908890600401612ea9565b6020604051808303816000875af19250505080156121bc575060408051601f3d908101601f191682019092526121b991810190612e8c565b60015b6121ea573d8080156120c6576040519150601f19603f3d011682016040523d82523d6000602084013e6120cb565b6001600160e01b0319811663bc197c8160e01b146110ab57604051632bfa23e760e11b81526001600160a01b038616600482015260240161064b565b600080516020612f698339815191527f88be536d5240c274a3b1d3a1be54482fd9caa294f08c62a7cde569f49a3c450261129d8382612d22565b806001600160a01b03163b60000361229657604051634c9c8ce360e01b81526001600160a01b038216600482015260240161064b565b600080516020612f4983398151915280546001600160a01b0319166001600160a01b0392909216919091179055565b6060600080846001600160a01b0316846040516122e29190612f07565b600060405180830381855af49150503d806000811461231d576040519150601f19603f3d011682016040523d82523d6000602084013e612322565b606091505b509150915061233285838361235a565b95945050505050565b34156112b45760405163b398979f60e01b815260040160405180910390fd5b60608261236f5761236a826123b6565b6105f0565b815115801561238657506001600160a01b0384163b155b156123af57604051639996b31560e01b81526001600160a01b038516600482015260240161064b565b5092915050565b8051156123c65780518082602001fd5b604051630a12f52160e11b815260040160405180910390fd5b6001600160a01b03811681146115e957600080fd5b6000806040838503121561240757600080fd5b8235612412816123df565b946020939093013593505050565b6001600160e01b0319811681146115e957600080fd5b60006020828403121561244857600080fd5b81356105f081612420565b60006020828403121561246557600080fd5b5035919050565b60005b8381101561248757818101518382015260200161246f565b50506000910152565b600081518084526124a881602086016020860161246c565b601f01601f19169290920160200192915050565b6020815260006105f06020830184612490565b600080600080608085870312156124e557600080fd5b8435935060208501359250604085013591506060850135612505816123df565b939692955090935050565b634e487b7160e01b600052604160045260246000fd5b604051601f8201601f191681016001600160401b038111828210171561254e5761254e612510565b604052919050565b60006001600160401b0382111561256f5761256f612510565b5060051b60200190565b600082601f83011261258a57600080fd5b8135602061259f61259a83612556565b612526565b82815260059290921b840181019181810190868411156125be57600080fd5b8286015b848110156125d957803583529183019183016125c2565b509695505050505050565b60006001600160401b038211156125fd576125fd612510565b50601f01601f191660200190565b600082601f83011261261c57600080fd5b813561262a61259a826125e4565b81815284602083860101111561263f57600080fd5b816020850160208301376000918101602001919091529392505050565b600080600080600060a0868803121561267457600080fd5b853561267f816123df565b9450602086013561268f816123df565b935060408601356001600160401b03808211156126ab57600080fd5b6126b789838a01612579565b945060608801359150808211156126cd57600080fd5b6126d989838a01612579565b935060808801359150808211156126ef57600080fd5b506126fc8882890161260b565b9150509295509295909350565b6000806040838503121561271c57600080fd5b8235612727816123df565b91506020830135612737816123df565b809150509250929050565b6000806040838503121561275557600080fd5b82356001600160401b038082111561276c57600080fd5b818501915085601f83011261278057600080fd5b8135602061279061259a83612556565b82815260059290921b840181019181810190898411156127af57600080fd5b948201945b838610156127d65785356127c7816123df565b825294820194908201906127b4565b965050860135925050808211156127ec57600080fd5b506127f985828601612579565b9150509250929050565b600081518084526020808501945080840160005b8381101561283357815187529582019590820190600101612817565b509495945050505050565b6020815260006105f06020830184612803565b6000806040838503121561286457600080fd5b823561286f816123df565b915060208301356001600160401b0381111561288a57600080fd5b6127f98582860161260b565b600080604083850312156128a957600080fd5b82356001600160401b038111156128bf57600080fd5b6128cb8582860161260b565b95602094909401359450505050565b6000806000606084860312156128ef57600080fd5b83359250602084013591506040840135612908816123df565b809150509250925092565b80151581146115e957600080fd5b6000806040838503121561293457600080fd5b823561293f816123df565b9150602083013561273781612913565b60008060006060848603121561296457600080fd5b833592506020840135915060408401356001600160401b0381111561298857600080fd5b6129948682870161260b565b9150509250925092565b600080604083850312156129b157600080fd5b50508035926020909101359150565b600080600080600060a086880312156129d857600080fd5b85356129e3816123df565b945060208601356129f3816123df565b9350604086013592506060860135915060808601356001600160401b03811115612a1c57600080fd5b6126fc8882890161260b565b600060208284031215612a3a57600080fd5b81356105f0816123df565b600181811c90821680612a5957607f821691505b602082108103612a7957634e487b7160e01b600052602260045260246000fd5b50919050565b6000808454612a8d81612a45565b60018281168015612aa55760018114612aba57612ae9565b60ff1984168752821515830287019450612ae9565b8860005260208060002060005b85811015612ae05781548a820152908401908201612ac7565b50505082870194505b505050508351612afd81836020880161246c565b64173539b7b760d91b9101908152600501949350505050565b600060208284031215612b2857600080fd5b8151600881106105f057600080fd5b634e487b7160e01b600052602160045260246000fd5b60006020808385031215612b6057600080fd5b82516001600160401b03811115612b7657600080fd5b8301601f81018513612b8757600080fd5b8051612b9561259a82612556565b81815260059190911b82018301908381019087831115612bb457600080fd5b928401925b82841015612bd257835182529284019290840190612bb9565b979650505050505050565b634e487b7160e01b600052601160045260246000fd5b808201808211156104c1576104c1612bdd565b600080600060608486031215612c1b57600080fd5b83516001600160401b03811115612c3157600080fd5b8401601f81018613612c4257600080fd5b8051612c5061259a826125e4565b818152876020838501011115612c6557600080fd5b612c7682602083016020860161246c565b6020870151604090970151909896975095945050505050565b80820281158282048414176104c1576104c1612bdd565b600060208284031215612cb857600080fd5b81516105f081612913565b600060018201612cd557612cd5612bdd565b5060010190565b601f82111561129d57600081815260208120601f850160051c81016020861015612d035750805b601f850160051c820191505b81811015610f2b57828155600101612d0f565b81516001600160401b03811115612d3b57612d3b612510565b612d4f81612d498454612a45565b84612cdc565b602080601f831160018114612d845760008415612d6c5750858301515b600019600386901b1c1916600185901b178555610f2b565b600085815260208120601f198616915b82811015612db357888601518255948401946001909101908401612d94565b5085821015612dd15787850151600019600388901b60f8161c191681555b5050505050600190811b01905550565b634e487b7160e01b600052603260045260246000fd5b600060208284031215612e0957600080fd5b81516105f0816123df565b600060208284031215612e2657600080fd5b5051919050565b604081526000612e406040830185612803565b82810360208401526123328185612803565b6001600160a01b03868116825285166020820152604081018490526060810183905260a060808201819052600090612bd290830184612490565b600060208284031215612e9e57600080fd5b81516105f081612420565b6001600160a01b0386811682528516602082015260a060408201819052600090612ed590830186612803565b8281036060840152612ee78186612803565b90508281036080840152612efb8185612490565b98975050505050505050565b60008251612f1981846020870161246c565b919091019291505056fe68747470733a2f2f6d657461646174612e73656c6c6f7574732e6170702f7469636b65742f360894a13ba1a3210667c828492db98dca3e2076cc3735a920a3ca505d382bbc88be536d5240c274a3b1d3a1be54482fd9caa294f08c62a7cde569f49a3c450068747470733a2f2f6d657461646174612e73656c6c6f7574732e6170702f7469636b65742f7b69647d2e6a736f6ea2646970667358221220c4f54417c563aa68249cf7ba60c603d0cc06604c6c14986855b1fb8fde904bb964736f6c63430008140033","linkReferences":{}},"methodIdentifiers":{"MAX_TICKETS_PER_WALLET()":"229df6d6","UPGRADE_INTERFACE_VERSION()":"ad3cb1cc","balanceOf(address,uint256)":"00fdd58e","balanceOfBatch(address[],uint256[])":"4e1273f4","burnTokens(uint256,uint256,address)":"87f9ca5d","getTicketPricePaidAndTierIndex(bytes32,uint256)":"da3a7616","initialize(address,address)":"485cc955","isApprovedForAll(address,address)":"e985e9c5","owner()":"8da5cb5b","proxiableUUID()":"52d1902d","purchaseTickets(bytes32,uint256,uint256,address)":"1e87ccce","renounceOwnership()":"715018a6","safeBatchTransferFrom(address,address,uint256[],uint256[],bytes)":"2eb2c2d6","safeTransferFrom(address,address,uint256,uint256,bytes)":"f242432a","setApprovalForAll(address,bool)":"a22cb465","setDefaultURI(string,bytes32)":"5dbab132","setTokenURI(bytes32,uint256,string)":"a7d22597","showInstance()":"404f49d1","supportsInterface(bytes4)":"01ffc9a7","ticketIdToTierIndex(uint256)":"5d7c188c","transferOwnership(address)":"f2fde38b","upgradeToAndCall(address,bytes)":"4f1ef286","uri(uint256)":"0e89341c"},"id":83}