{"abi":[{"type":"function","name":"MAX_TICKETS_PER_WALLET","inputs":[],"outputs":[{"name":"","type":"uint256","internalType":"uint256"}],"stateMutability":"view"},{"type":"function","name":"UPGRADE_INTERFACE_VERSION","inputs":[],"outputs":[{"name":"","type":"string","internalType":"string"}],"stateMutability":"view"},{"type":"function","name":"balanceOf","inputs":[{"name":"account","type":"address","internalType":"address"},{"name":"id","type":"uint256","internalType":"uint256"}],"outputs":[{"name":"","type":"uint256","internalType":"uint256"}],"stateMutability":"view"},{"type":"function","name":"balanceOfBatch","inputs":[{"name":"accounts","type":"address[]","internalType":"address[]"},{"name":"ids","type":"uint256[]","internalType":"uint256[]"}],"outputs":[{"name":"","type":"uint256[]","internalType":"uint256[]"}],"stateMutability":"view"},{"type":"function","name":"boxOfficeInstance","inputs":[],"outputs":[{"name":"","type":"address","internalType":"contract IBoxOffice"}],"stateMutability":"view"},{"type":"function","name":"burnTokens","inputs":[{"name":"tokenId","type":"uint256","internalType":"uint256"},{"name":"amount","type":"uint256","internalType":"uint256"},{"name":"owner","type":"address","internalType":"address"}],"outputs":[],"stateMutability":"nonpayable"},{"type":"function","name":"bytes32ToHexString","inputs":[{"name":"_bytes32","type":"bytes32","internalType":"bytes32"}],"outputs":[{"name":"","type":"string","internalType":"string"}],"stateMutability":"pure"},{"type":"function","name":"contractURI","inputs":[],"outputs":[{"name":"","type":"string","internalType":"string"}],"stateMutability":"view"},{"type":"function","name":"getShowIdByTicketId","inputs":[{"name":"ticketId","type":"uint256","internalType":"uint256"}],"outputs":[{"name":"showId","type":"bytes32","internalType":"bytes32"}],"stateMutability":"view"},{"type":"function","name":"getTicketPricePaidAndTierIndex","inputs":[{"name":"showId","type":"bytes32","internalType":"bytes32"},{"name":"ticketId","type":"uint256","internalType":"uint256"}],"outputs":[{"name":"price","type":"uint256","internalType":"uint256"},{"name":"tierIndex","type":"uint256","internalType":"uint256"}],"stateMutability":"view"},{"type":"function","name":"initialize","inputs":[{"name":"initialOwner","type":"address","internalType":"address"},{"name":"_version","type":"string","internalType":"string"}],"outputs":[],"stateMutability":"nonpayable"},{"type":"function","name":"isApprovedForAll","inputs":[{"name":"account","type":"address","internalType":"address"},{"name":"operator","type":"address","internalType":"address"}],"outputs":[{"name":"","type":"bool","internalType":"bool"}],"stateMutability":"view"},{"type":"function","name":"owner","inputs":[],"outputs":[{"name":"","type":"address","internalType":"address"}],"stateMutability":"view"},{"type":"function","name":"proxiableUUID","inputs":[],"outputs":[{"name":"","type":"bytes32","internalType":"bytes32"}],"stateMutability":"view"},{"type":"function","name":"purchaseTickets","inputs":[{"name":"showId","type":"bytes32","internalType":"bytes32"},{"name":"tierIndex","type":"uint256","internalType":"uint256"},{"name":"amount","type":"uint256","internalType":"uint256"},{"name":"paymentToken","type":"address","internalType":"address"}],"outputs":[],"stateMutability":"payable"},{"type":"function","name":"purchaseTicketsFor","inputs":[{"name":"recipient","type":"address","internalType":"address"},{"name":"showId","type":"bytes32","internalType":"bytes32"},{"name":"tierIndex","type":"uint256","internalType":"uint256"},{"name":"amount","type":"uint256","internalType":"uint256"},{"name":"paymentToken","type":"address","internalType":"address"}],"outputs":[],"stateMutability":"payable"},{"type":"function","name":"renounceOwnership","inputs":[],"outputs":[],"stateMutability":"nonpayable"},{"type":"function","name":"safeBatchTransferFrom","inputs":[{"name":"from","type":"address","internalType":"address"},{"name":"to","type":"address","internalType":"address"},{"name":"ids","type":"uint256[]","internalType":"uint256[]"},{"name":"amounts","type":"uint256[]","internalType":"uint256[]"},{"name":"data","type":"bytes","internalType":"bytes"}],"outputs":[],"stateMutability":"nonpayable"},{"type":"function","name":"safeTransferFrom","inputs":[{"name":"from","type":"address","internalType":"address"},{"name":"to","type":"address","internalType":"address"},{"name":"id","type":"uint256","internalType":"uint256"},{"name":"amount","type":"uint256","internalType":"uint256"},{"name":"data","type":"bytes","internalType":"bytes"}],"outputs":[],"stateMutability":"nonpayable"},{"type":"function","name":"setApprovalForAll","inputs":[{"name":"operator","type":"address","internalType":"address"},{"name":"approved","type":"bool","internalType":"bool"}],"outputs":[],"stateMutability":"nonpayable"},{"type":"function","name":"setDefaultURIForShow","inputs":[{"name":"showId","type":"bytes32","internalType":"bytes32"},{"name":"newDefaultURI","type":"string","internalType":"string"}],"outputs":[],"stateMutability":"nonpayable"},{"type":"function","name":"setShowContractAddresses","inputs":[{"name":"_showContractAddress","type":"address","internalType":"address"},{"name":"_boxOfficeAddress","type":"address","internalType":"address"},{"name":"_showVaultAddress","type":"address","internalType":"address"}],"outputs":[],"stateMutability":"nonpayable"},{"type":"function","name":"setTokenURI","inputs":[{"name":"showId","type":"bytes32","internalType":"bytes32"},{"name":"tokenId","type":"uint256","internalType":"uint256"},{"name":"newURI","type":"string","internalType":"string"}],"outputs":[],"stateMutability":"nonpayable"},{"type":"function","name":"showInstance","inputs":[],"outputs":[{"name":"","type":"address","internalType":"contract IShow"}],"stateMutability":"view"},{"type":"function","name":"showVaultInstance","inputs":[],"outputs":[{"name":"","type":"address","internalType":"contract IShowVault"}],"stateMutability":"view"},{"type":"function","name":"supportsInterface","inputs":[{"name":"interfaceId","type":"bytes4","internalType":"bytes4"}],"outputs":[{"name":"","type":"bool","internalType":"bool"}],"stateMutability":"view"},{"type":"function","name":"ticketIdToTierIndex","inputs":[{"name":"","type":"uint256","internalType":"uint256"}],"outputs":[{"name":"","type":"uint256","internalType":"uint256"}],"stateMutability":"view"},{"type":"function","name":"transferOwnership","inputs":[{"name":"newOwner","type":"address","internalType":"address"}],"outputs":[],"stateMutability":"nonpayable"},{"type":"function","name":"upgradeToAndCall","inputs":[{"name":"newImplementation","type":"address","internalType":"address"},{"name":"data","type":"bytes","internalType":"bytes"}],"outputs":[],"stateMutability":"payable"},{"type":"function","name":"uri","inputs":[{"name":"tokenId","type":"uint256","internalType":"uint256"}],"outputs":[{"name":"","type":"string","internalType":"string"}],"stateMutability":"view"},{"type":"function","name":"version","inputs":[],"outputs":[{"name":"","type":"string","internalType":"string"}],"stateMutability":"view"},{"type":"event","name":"ApprovalForAll","inputs":[{"name":"account","type":"address","indexed":true,"internalType":"address"},{"name":"operator","type":"address","indexed":true,"internalType":"address"},{"name":"approved","type":"bool","indexed":false,"internalType":"bool"}],"anonymous":false},{"type":"event","name":"Initialized","inputs":[{"name":"version","type":"uint64","indexed":false,"internalType":"uint64"}],"anonymous":false},{"type":"event","name":"OwnershipTransferred","inputs":[{"name":"previousOwner","type":"address","indexed":true,"internalType":"address"},{"name":"newOwner","type":"address","indexed":true,"internalType":"address"}],"anonymous":false},{"type":"event","name":"TicketPurchased","inputs":[{"name":"buyer","type":"address","indexed":true,"internalType":"address"},{"name":"showId","type":"bytes32","indexed":true,"internalType":"bytes32"},{"name":"tierIndex","type":"uint256","indexed":false,"internalType":"uint256"},{"name":"tokenId","type":"uint256","indexed":false,"internalType":"uint256"},{"name":"amount","type":"uint256","indexed":false,"internalType":"uint256"},{"name":"paymentToken","type":"address","indexed":false,"internalType":"address"}],"anonymous":false},{"type":"event","name":"TransferBatch","inputs":[{"name":"operator","type":"address","indexed":true,"internalType":"address"},{"name":"from","type":"address","indexed":true,"internalType":"address"},{"name":"to","type":"address","indexed":true,"internalType":"address"},{"name":"ids","type":"uint256[]","indexed":false,"internalType":"uint256[]"},{"name":"values","type":"uint256[]","indexed":false,"internalType":"uint256[]"}],"anonymous":false},{"type":"event","name":"TransferSingle","inputs":[{"name":"operator","type":"address","indexed":true,"internalType":"address"},{"name":"from","type":"address","indexed":true,"internalType":"address"},{"name":"to","type":"address","indexed":true,"internalType":"address"},{"name":"id","type":"uint256","indexed":false,"internalType":"uint256"},{"name":"value","type":"uint256","indexed":false,"internalType":"uint256"}],"anonymous":false},{"type":"event","name":"URI","inputs":[{"name":"value","type":"string","indexed":false,"internalType":"string"},{"name":"id","type":"uint256","indexed":true,"internalType":"uint256"}],"anonymous":false},{"type":"event","name":"Upgraded","inputs":[{"name":"implementation","type":"address","indexed":true,"internalType":"address"}],"anonymous":false},{"type":"error","name":"AddressEmptyCode","inputs":[{"name":"target","type":"address","internalType":"address"}]},{"type":"error","name":"ERC1155InsufficientBalance","inputs":[{"name":"sender","type":"address","internalType":"address"},{"name":"balance","type":"uint256","internalType":"uint256"},{"name":"needed","type":"uint256","internalType":"uint256"},{"name":"tokenId","type":"uint256","internalType":"uint256"}]},{"type":"error","name":"ERC1155InvalidApprover","inputs":[{"name":"approver","type":"address","internalType":"address"}]},{"type":"error","name":"ERC1155InvalidArrayLength","inputs":[{"name":"idsLength","type":"uint256","internalType":"uint256"},{"name":"valuesLength","type":"uint256","internalType":"uint256"}]},{"type":"error","name":"ERC1155InvalidOperator","inputs":[{"name":"operator","type":"address","internalType":"address"}]},{"type":"error","name":"ERC1155InvalidReceiver","inputs":[{"name":"receiver","type":"address","internalType":"address"}]},{"type":"error","name":"ERC1155InvalidSender","inputs":[{"name":"sender","type":"address","internalType":"address"}]},{"type":"error","name":"ERC1155MissingApprovalForAll","inputs":[{"name":"operator","type":"address","internalType":"address"},{"name":"owner","type":"address","internalType":"address"}]},{"type":"error","name":"ERC1967InvalidImplementation","inputs":[{"name":"implementation","type":"address","internalType":"address"}]},{"type":"error","name":"ERC1967NonPayable","inputs":[]},{"type":"error","name":"FailedInnerCall","inputs":[]},{"type":"error","name":"InvalidInitialization","inputs":[]},{"type":"error","name":"NotInitializing","inputs":[]},{"type":"error","name":"OwnableInvalidOwner","inputs":[{"name":"owner","type":"address","internalType":"address"}]},{"type":"error","name":"OwnableUnauthorizedAccount","inputs":[{"name":"account","type":"address","internalType":"address"}]},{"type":"error","name":"ReentrancyGuardReentrantCall","inputs":[]},{"type":"error","name":"UUPSUnauthorizedCallContext","inputs":[]},{"type":"error","name":"UUPSUnsupportedProxiableUUID","inputs":[{"name":"slot","type":"bytes32","internalType":"bytes32"}]}],"bytecode":{"object":"0x60a060405230608052600160095534801561001957600080fd5b50608051613f9761004360003960008181612286015281816122af01526123f00152613f976000f3fe6080604052600436106101d75760003560e01c8063715018a611610102578063b02ee94411610095578063e985e9c511610064578063e985e9c514610592578063f242432a146105b2578063f2fde38b146105d2578063f399e22e146105f257600080fd5b8063b02ee94414610508578063c68b378714610528578063da3a761614610548578063e8a3d4851461057d57600080fd5b8063a22cb465116100d1578063a22cb46514610477578063a2b7d17414610497578063a7d22597146104b7578063ad3cb1cc146104d757600080fd5b8063715018a6146103d857806387f9ca5d146103ed5780638da5cb5b1461040d5780639eacf38f1461044a57600080fd5b8063404f49d11161017a57806352d1902d1161014957806352d1902d1461036157806354fd4d50146103765780635d7c188c1461038b5780636a017891146103b857600080fd5b8063404f49d1146102c95780634dc387c8146103015780634e1273f4146103215780634f1ef2861461034e57600080fd5b80631e87ccce116101b65780631e87ccce1461026c578063229df6d6146102815780632eb2c2d6146102965780633f35abb5146102b657600080fd5b8062fdd58e146101dc57806301ffc9a71461020f5780630e89341c1461023f575b600080fd5b3480156101e857600080fd5b506101fc6101f736600461327f565b610612565b6040519081526020015b60405180910390f35b34801561021b57600080fd5b5061022f61022a3660046132c1565b610649565b6040519015158152602001610206565b34801561024b57600080fd5b5061025f61025a3660046132de565b610699565b6040516102069190613347565b61027f61027a36600461335a565b6108ad565b005b34801561028d57600080fd5b506101fc600581565b3480156102a257600080fd5b5061027f6102b13660046134e7565b610a53565b61027f6102c4366004613594565b610c70565b3480156102d557600080fd5b506000546102e9906001600160a01b031681565b6040516001600160a01b039091168152602001610206565b34801561030d57600080fd5b5061027f61031c3660046135ea565b610e11565b34801561032d57600080fd5b5061034161033c366004613630565b610efb565b6040516102069190613722565b61027f61035c366004613735565b610fcf565b34801561036d57600080fd5b506101fc610fee565b34801561038257600080fd5b5061025f61100b565b34801561039757600080fd5b506101fc6103a63660046132de565b60056020526000908152604090205481565b3480156103c457600080fd5b506002546102e9906001600160a01b031681565b3480156103e457600080fd5b5061027f611099565b3480156103f957600080fd5b5061027f61040836600461376e565b6110ad565b34801561041957600080fd5b507f9016d09d72d40fdae2fd8ceac6b6234c7706214fd39c1cd1e609a0528c199300546001600160a01b03166102e9565b34801561045657600080fd5b506101fc6104653660046132de565b60009081526006602052604090205490565b34801561048357600080fd5b5061027f6104923660046137a7565b6110f8565b3480156104a357600080fd5b506001546102e9906001600160a01b031681565b3480156104c357600080fd5b5061027f6104d23660046137e5565b611103565b3480156104e357600080fd5b5061025f604051806040016040528060058152602001640352e302e360dc1b81525081565b34801561051457600080fd5b5061027f610523366004613834565b611237565b34801561053457600080fd5b5061025f6105433660046132de565b611333565b34801561055457600080fd5b50610568610563366004613874565b61148b565b60408051928352602083019190915201610206565b34801561058957600080fd5b5061025f61151d565b34801561059e57600080fd5b5061022f6105ad366004613896565b6115af565b3480156105be57600080fd5b5061027f6105cd3660046138c4565b6115fc565b3480156105de57600080fd5b5061027f6105ed36600461392c565b611786565b3480156105fe57600080fd5b5061027f61060d366004613735565b6117c4565b6000818152600080516020613efd833981519152602090815260408083206001600160a01b03861684529091529020545b92915050565b60006001600160e01b03198216636cdb3d1360e11b148061067a57506001600160e01b031982166303a24d0760e21b145b8061064357506301ffc9a760e01b6001600160e01b0319831614610643565b6000818152600460205260408120805460609291906106b790613949565b80601f01602080910402602001604051908101604052809291908181526020018280546106e390613949565b80156107305780601f1061070557610100808354040283529160200191610730565b820191906000526020600020905b81548152906001019060200180831161071357829003601f168201915b505050505090506000815111156107475792915050565b600083815260066020526040902054806107a05760405162461bcd60e51b81526020600482015260156024820152742a37b5b2b7103237b2b9903737ba1032bc34b9ba1760591b60448201526064015b60405180910390fd5b60006107ab82611333565b90506000806007600085815260200190815260200160002080546107ce90613949565b9050116107dc5760086107eb565b60008381526007602052604090205b80546107f690613949565b80601f016020809104026020016040519081016040528092919081815260200182805461082290613949565b801561086f5780601f106108445761010080835404028352916020019161086f565b820191906000526020600020905b81548152906001019060200180831161085257829003601f168201915b50505050509050808261088188611955565b60405160200161089393929190613983565b604051602081830303815290604052945050505050919050565b6108b56119e7565b6108c184848433611a1f565b60006108ce858585611d45565b905060006108df8686868587611e2a565b9050806109205760405162461bcd60e51b815260206004820152600f60248201526e141d5c98da185cd94819985a5b1959608a1b6044820152606401610797565b600a805461092d90613949565b905060000361093f5761093f86611efd565b6000805460405162eb5c5160e01b8152600481018990526001600160a01b039091169062eb5c5190602401602060405180830381865afa158015610987573d6000803e3d6000fd5b505050506040513d601f19601f820116820180604052508101906109ab91906139f5565b90506109ba6201518082613a24565b4210610a28576000546040516314968ea560e11b8152600481018990526201518060248201526001600160a01b039091169063292d1d4a90604401600060405180830381600087803b158015610a0f57600080fd5b505af1158015610a23573d6000803e3d6000fd5b505050505b610a33878787612006565b505050610a4d6001600080516020613f1d83398151915255565b50505050565b6001600160a01b038516331480610a6f5750610a6f85336115af565b610ad65760405162461bcd60e51b815260206004820152603260248201527f455243313135353a207472616e736665722063616c6c6572206973206e6f74206044820152711bdddb995c881b9bdc88185c1c1c9bdd995960721b6064820152608401610797565b60005b8351811015610c5b57600060066000868481518110610afa57610afa613a37565b6020026020010151815260200190815260200160002054905060006001600160a01b0316876001600160a01b031614610bb35760015485516001600160a01b039091169063e35b1ee89083908a90899087908110610b5a57610b5a613a37565b60200260200101516040518463ffffffff1660e01b8152600401610b8093929190613a4d565b600060405180830381600087803b158015610b9a57600080fd5b505af1158015610bae573d6000803e3d6000fd5b505050505b6001600160a01b03861615610c485760015485516001600160a01b039091169063de44006f9083908990899087908110610bef57610bef613a37565b60200260200101516040518463ffffffff1660e01b8152600401610c1593929190613a4d565b600060405180830381600087803b158015610c2f57600080fd5b505af1158015610c43573d6000803e3d6000fd5b505050505b5080610c5381613a6c565b915050610ad9565b50610c698585858585612145565b5050505050565b610c786119e7565b610c8484848488611a1f565b6000610c91858585611d45565b90506000610ca38787878786886121a4565b905080610ce45760405162461bcd60e51b815260206004820152600f60248201526e141d5c98da185cd94819985a5b1959608a1b6044820152606401610797565b600a8054610cf190613949565b9050600003610d0357610d0386611efd565b6000805460405162eb5c5160e01b8152600481018990526001600160a01b039091169062eb5c5190602401602060405180830381865afa158015610d4b573d6000803e3d6000fd5b505050506040513d601f19601f82011682018060405250810190610d6f91906139f5565b9050610d7e6201518082613a24565b4210610dec576000546040516314968ea560e11b8152600481018990526201518060248201526001600160a01b039091169063292d1d4a90604401600060405180830381600087803b158015610dd357600080fd5b505af1158015610de7573d6000803e3d6000fd5b505050505b610df7878787612006565b505050610c696001600080516020613f1d83398151915255565b600054604051634bbe5c4f60e11b8152600481018490526001600160a01b039091169063977cb89e90602401602060405180830381865afa158015610e5a573d6000803e3d6000fd5b505050506040513d601f19601f82011682018060405250810190610e7e9190613a85565b6001600160a01b0316336001600160a01b031614610ede5760405162461bcd60e51b815260206004820152601b60248201527f43616c6c6572206973206e6f7420746865206f7267616e697a657200000000006044820152606401610797565b6000828152600760205260409020610ef68282613ae8565b505050565b60608151835114610f2c5781518351604051635b05999160e01b815260048101929092526024820152604401610797565b600083516001600160401b03811115610f4757610f4761339b565b604051908082528060200260200182016040528015610f70578160200160208202803683370190505b50905060005b8451811015610fc757602080820286010151610f9a90602080840287010151610612565b828281518110610fac57610fac613a37565b6020908102919091010152610fc081613a6c565b9050610f76565b509392505050565b610fd761227b565b610fe082612320565b610fea8282612328565b5050565b6000610ff86123e5565b50600080516020613edd83398151915290565b6003805461101890613949565b80601f016020809104026020016040519081016040528092919081815260200182805461104490613949565b80156110915780601f1061106657610100808354040283529160200191611091565b820191906000526020600020905b81548152906001019060200180831161107457829003601f168201915b505050505081565b6110a161242e565b6110ab6000612489565b565b6001546001600160a01b031633146110ed5760405162461bcd60e51b815260206004820152600360248201526221626f60e81b6044820152606401610797565b610ef68184846124fa565b610fea338383612562565b600054604051634bbe5c4f60e11b8152600481018590526001600160a01b039091169063977cb89e90602401602060405180830381865afa15801561114c573d6000803e3d6000fd5b505050506040513d601f19601f820116820180604052508101906111709190613a85565b6001600160a01b0316336001600160a01b0316146111e15760405162461bcd60e51b815260206004820152602860248201527f43616c6c6572206973206e6f7420746865206f7267616e697a6572206f6620746044820152676869732073686f7760c01b6064820152608401610797565b60008281526004602052604090206111f98282613ae8565b50817f6bb7ff708619ba0610cba295a58592e0451dee2622938c8755667688daf3529b8260405161122a9190613347565b60405180910390a2505050565b6000546001600160a01b0316156112605760405162461bcd60e51b815260040161079790613ba7565b6001546001600160a01b0316156112895760405162461bcd60e51b815260040161079790613ba7565b6002546001600160a01b0316156112f45760405162461bcd60e51b815260206004820152602960248201527f53686f775661756c7420636f6e7472616374206164647265737320697320616c6044820152681c9958591e481cd95d60ba1b6064820152608401610797565b600080546001600160a01b039485166001600160a01b031991821617909155600180549385169382169390931790925560028054919093169116179055565b604080518082018252601081526f181899199a1a9b1b9c1cb0b131b232b360811b6020820152815182815260608181018452926000919060208201818036833701905050905060005b6020811015610fc75782600486836020811061139a5761139a613a37565b1a60f81b6001600160f81b031916901c60f81c60ff16815181106113c0576113c0613a37565b01602001516001600160f81b031916826113db836002613beb565b815181106113eb576113eb613a37565b60200101906001600160f81b031916908160001a9053508285826020811061141557611415613a37565b825191901a600f1690811061142c5761142c613a37565b01602001516001600160f81b03191682611447836002613beb565b611452906001613c02565b8151811061146257611462613a37565b60200101906001600160f81b031916908160001a9053508061148381613a6c565b91505061137c565b6001546040516293d4e160e81b81526004810184905260248101839052600091829182916001600160a01b0316906393d4e10090604401602060405180830381865afa1580156114df573d6000803e3d6000fd5b505050506040513d601f19601f8201168201806040525081019061150391906139f5565b600094855260056020526040909420549395939450505050565b6060600a805461152c90613949565b80601f016020809104026020016040519081016040528092919081815260200182805461155890613949565b80156115a55780601f1061157a576101008083540402835291602001916115a5565b820191906000526020600020905b81548152906001019060200180831161158857829003601f168201915b5050505050905090565b6001600160a01b0391821660009081527f88be536d5240c274a3b1d3a1be54482fd9caa294f08c62a7cde569f49a3c45016020908152604080832093909416825291909152205460ff1690565b6001600160a01b038516331480611618575061161885336115af565b6116765760405162461bcd60e51b815260206004820152602960248201527f455243313135353a2063616c6c6572206973206e6f74206f776e6572206e6f7260448201526808185c1c1c9bdd995960ba1b6064820152608401610797565b6000838152600660205260409020546001600160a01b038616156116fb57600154604051631c6b63dd60e31b81526001600160a01b039091169063e35b1ee8906116c89084908a908990600401613a4d565b600060405180830381600087803b1580156116e257600080fd5b505af11580156116f6573d6000803e3d6000fd5b505050505b6001600160a01b038516156117715760015460405163de44006f60e01b81526001600160a01b039091169063de44006f9061173e90849089908990600401613a4d565b600060405180830381600087803b15801561175857600080fd5b505af115801561176c573d6000803e3d6000fd5b505050505b61177e868686868661260a565b505050505050565b61178e61242e565b6001600160a01b0381166117b857604051631e4fbdf760e01b815260006004820152602401610797565b6117c181612489565b50565b7ff0c57e16840df040f15088dc2f81fe391c3923bec73e23a9662efc9c229c6a008054600160401b810460ff1615906001600160401b03166000811580156118095750825b90506000826001600160401b031660011480156118255750303b155b905081158015611833575080155b156118515760405163f92ee8a960e01b815260040160405180910390fd5b845467ffffffffffffffff19166001178555831561187b57845460ff60401b1916600160401b1785555b61189c6040518060600160405280602e8152602001613eaf602e9139612669565b6118a461267a565b6118ad8761268a565b6118b561269b565b60036118c18782613ae8565b50604051806060016040528060258152602001613f3d602591396008906118e89082613ae8565b50604080516020810190915260008152600a906119059082613ae8565b50831561194c57845460ff60401b19168555604051600181527fc7f505b2f371ae2175ee4913f4499e1f2633a7b5936321eed1cdaeb6115181d29060200160405180910390a15b50505050505050565b60606000611962836126a3565b60010190506000816001600160401b038111156119815761198161339b565b6040519080825280601f01601f1916602001820160405280156119ab576020820181803683370190505b5090508181016020015b600019016f181899199a1a9b1b9c1cb0b131b232b360811b600a86061a8153600a85049450846119b557509392505050565b600080516020613f1d833981519152805460011901611a1957604051633ee5aeb560e01b815260040160405180910390fd5b60029055565b600080546040516346c2c8a760e01b8152600481018790526001600160a01b03909116906346c2c8a790602401602060405180830381865afa158015611a69573d6000803e3d6000fd5b505050506040513d601f19601f82011682018060405250810190611a8d9190613c15565b90506000816007811115611aa357611aa3613c36565b1480611ac057506001816007811115611abe57611abe613c36565b145b80611adc57506002816007811115611ada57611ada613c36565b145b80611af857506003816007811115611af657611af6613c36565b145b611b445760405162461bcd60e51b815260206004820152601f60248201527f53686f77206e6f7420617661696c61626c6520666f72207075726368617365006044820152606401610797565b60008311611b945760405162461bcd60e51b815260206004820152601d60248201527f416d6f756e74206d7573742062652067726561746572207468616e20300000006044820152606401610797565b60008054604051637e3e393560e01b815260048101889052602481018790526001600160a01b0390911690637e3e393590604401600060405180830381865afa158015611be5573d6000803e3d6000fd5b505050506040513d6000823e601f3d908101601f19168201604052611c0d9190810190613c4c565b9250505083811015611c615760405162461bcd60e51b815260206004820152601c60248201527f4e6f7420656e6f756768207469636b65747320617661696c61626c65000000006044820152606401610797565b600154604051635b9a1e0960e01b8152600481018890526001600160a01b0385811660248301526000921690635b9a1e0990604401600060405180830381865afa158015611cb3573d6000803e3d6000fd5b505050506040513d6000823e601f3d908101601f19168201604052611cdb9190810190613cd5565b90506005858251611cec9190613c02565b111561194c5760405162461bcd60e51b815260206004820152602260248201527f4d6178207469636b65747320657863656564656420666f7220726563697069656044820152611b9d60f21b6064820152608401610797565b611d706040518060800160405280600081526020016000815260200160008152602001600081525090565b60008054604051637e3e393560e01b8152600481018790526024810186905282916001600160a01b031690637e3e393590604401600060405180830381865afa158015611dc1573d6000803e3d6000fd5b505050506040513d6000823e601f3d908101601f19168201604052611de99190810190613c4c565b909350915060009050611dfc8584613beb565b60408051608081018252948552602085019390935291830191909152506000606082015290505b9392505050565b6000611e3b8684604001518461277b565b611e4757506000611ef4565b600160005b85811015611ef0576009805460009182611e6583613a6c565b919050559050611e7c81898b338a6000015161290f565b611e8a576000925050611ef0565b60408051898152602081018390526001818301526001600160a01b038716606082015290518a9133917f2aceb142a3587d08c8b52a9ac6b03c85fdce4097d5614383174758656261bfdd9181900360800190a35080611ee881613a6c565b915050611e4c565b5090505b95945050505050565b6000611f0882611333565b9050600080600760008581526020019081526020016000208054611f2b90613949565b905011611f39576008611f48565b60008381526007602052604090205b8054611f5390613949565b80601f0160208091040260200160405190810160405280929190818152602001828054611f7f90613949565b8015611fcc5780601f10611fa157610100808354040283529160200191611fcc565b820191906000526020600020905b815481529060010190602001808311611faf57829003601f168201915b5050505050905060008183604051602001611fe8929190613d65565b60408051601f198184030181529190529050600a610c698282613ae8565b600154604051630f0faed760e31b815260048101859052602481018390526001600160a01b039091169063787d76b890604401600060405180830381600087803b15801561205357600080fd5b505af1158015612067573d6000803e3d6000fd5b505060005460405163644b5e5960e01b81526004810187905260248101869052604481018590526001600160a01b03909116925063644b5e599150606401600060405180830381600087803b1580156120bf57600080fd5b505af11580156120d3573d6000803e3d6000fd5b505060005460405163730c02a360e11b8152600481018790526001600160a01b03909116925063e61805469150602401600060405180830381600087803b15801561211d57600080fd5b505af115801561194c573d6000803e3d6000fd5b6001600080516020613f1d83398151915255565b336001600160a01b0386168114801590612166575061216486826115af565b155b156121975760405163711bec9160e11b81526001600160a01b03808316600483015287166024820152604401610797565b61177e8686868686612a2a565b60006121b58684604001518461277b565b6121c157506000612271565b600160005b8581101561226d5760098054600091826121df83613a6c565b9190505590506121f681898b8d8a6000015161290f565b61220457600092505061226d565b60408051898152602081018390526001818301526001600160a01b03878116606083015291518b928d16917f2aceb142a3587d08c8b52a9ac6b03c85fdce4097d5614383174758656261bfdd919081900360800190a3508061226581613a6c565b9150506121c6565b5090505b9695505050505050565b306001600160a01b037f000000000000000000000000000000000000000000000000000000000000000016148061230257507f00000000000000000000000000000000000000000000000000000000000000006001600160a01b03166122f6600080516020613edd833981519152546001600160a01b031690565b6001600160a01b031614155b156110ab5760405163703e46dd60e11b815260040160405180910390fd5b6117c161242e565b816001600160a01b03166352d1902d6040518163ffffffff1660e01b8152600401602060405180830381865afa925050508015612382575060408051601f3d908101601f1916820190925261237f918101906139f5565b60015b6123aa57604051634c9c8ce360e01b81526001600160a01b0383166004820152602401610797565b600080516020613edd83398151915281146123db57604051632a87526960e21b815260048101829052602401610797565b610ef68383612a8a565b306001600160a01b037f000000000000000000000000000000000000000000000000000000000000000016146110ab5760405163703e46dd60e11b815260040160405180910390fd5b336124607f9016d09d72d40fdae2fd8ceac6b6234c7706214fd39c1cd1e609a0528c199300546001600160a01b031690565b6001600160a01b0316146110ab5760405163118cdaa760e01b8152336004820152602401610797565b7f9016d09d72d40fdae2fd8ceac6b6234c7706214fd39c1cd1e609a0528c19930080546001600160a01b031981166001600160a01b03848116918217845560405192169182907f8be0079c531659141344cd1fd0a4f28419497f9722a3daafe3b4186f6b6457e090600090a3505050565b6001600160a01b03831661252357604051626a0d4560e21b815260006004820152602401610797565b604080516001808252602082018590528183019081526060820184905260a08201909252600060808201818152919291610c6991879185908590612ae0565b600080516020613efd8339815191526001600160a01b03831661259a5760405162ced3e160e81b815260006004820152602401610797565b6001600160a01b038481166000818152600184016020908152604080832094881680845294825291829020805460ff191687151590811790915591519182527f17307eab39ab6107e8899845ad3d59bd9653f200f220920489ca2b5937696c31910160405180910390a350505050565b336001600160a01b038616811480159061262b575061262986826115af565b155b1561265c5760405163711bec9160e11b81526001600160a01b03808316600483015287166024820152604401610797565b61177e8686868686612b33565b612671612bb8565b6117c181612c01565b612682612bb8565b6110ab612c12565b612692612bb8565b6117c181612c1a565b6110ab612bb8565b60008072184f03e93ff9f4daa797ed6e38ed64bf6a1f0160401b83106126e25772184f03e93ff9f4daa797ed6e38ed64bf6a1f0160401b830492506040015b6d04ee2d6d415b85acef8100000000831061270e576d04ee2d6d415b85acef8100000000830492506020015b662386f26fc10000831061272c57662386f26fc10000830492506010015b6305f5e1008310612744576305f5e100830492506008015b612710831061275857612710830492506004015b6064831061276a576064830492506002015b600a83106106435760010192915050565b60006001600160a01b03821661283a578234146127d15760405162461bcd60e51b8152602060048201526014602482015273125b98dbdc9c9958dd0811551208185b5bdd5b9d60621b6044820152606401610797565b600254604051638526663560e01b8152600481018690526001600160a01b039091169063852666359034906024016000604051808303818588803b15801561281857600080fd5b505af115801561282c573d6000803e3d6000fd5b505050505060019050611e23565b34156128935760405162461bcd60e51b815260206004820152602260248201527f446f206e6f742073656e64204554482077697468204552433230207061796d656044820152611b9d60f21b6064820152608401610797565b600254604051635412233f60e01b815260048101869052602481018590526001600160a01b03848116604483015233606483015290911690635412233f90608401600060405180830381600087803b1580156128ee57600080fd5b505af1158015612902573d6000803e3d6000fd5b5050505060019050611e23565b600061292d8387600160405180602001604052806000815250612c22565b6000868152600560209081526040808320889055600690915290819020859055600154905163de44006f60e01b81526001600160a01b039091169063de44006f9061298090879087908b90600401613a4d565b600060405180830381600087803b15801561299a57600080fd5b505af11580156129ae573d6000803e3d6000fd5b5050600154604051632f51f71760e21b815260048101889052602481018a9052604481018690526001600160a01b03909116925063bd47dc5c9150606401600060405180830381600087803b158015612a0657600080fd5b505af1158015612a1a573d6000803e3d6000fd5b5060019998505050505050505050565b6001600160a01b038416612a5457604051632bfa23e760e11b815260006004820152602401610797565b6001600160a01b038516612a7d57604051626a0d4560e21b815260006004820152602401610797565b610c698585858585612ae0565b612a9382612c7f565b6040516001600160a01b038316907fbc7cd75a20ee27fd9adebab32041f755214dbc6bffa90cc0225b39da2e5c2d3b90600090a2805115612ad857610ef68282612ce4565b610fea612d51565b612aec85858585612d70565b6001600160a01b03841615610c695782513390600103612b255760208481015190840151612b1e838989858589612f9e565b505061177e565b61177e8187878787876130c2565b6001600160a01b038416612b5d57604051632bfa23e760e11b815260006004820152602401610797565b6001600160a01b038516612b8657604051626a0d4560e21b815260006004820152602401610797565b6040805160018082526020820186905281830190815260608201859052608082019092529061194c8787848487612ae0565b7ff0c57e16840df040f15088dc2f81fe391c3923bec73e23a9662efc9c229c6a0054600160401b900460ff166110ab57604051631afcd79f60e31b815260040160405180910390fd5b612c09612bb8565b6117c1816131ab565b612131612bb8565b61178e612bb8565b6001600160a01b038416612c4c57604051632bfa23e760e11b815260006004820152602401610797565b6040805160018082526020820186905281830190815260608201859052608082019092529061177e600087848487612ae0565b806001600160a01b03163b600003612cb557604051634c9c8ce360e01b81526001600160a01b0382166004820152602401610797565b600080516020613edd83398151915280546001600160a01b0319166001600160a01b0392909216919091179055565b6060600080846001600160a01b031684604051612d019190613db8565b600060405180830381855af49150503d8060008114612d3c576040519150601f19603f3d011682016040523d82523d6000602084013e612d41565b606091505b5091509150611ef48583836131e5565b34156110ab5760405163b398979f60e01b815260040160405180910390fd5b80518251600080516020613efd8339815191529114612daf5782518251604051635b05999160e01b815260048101929092526024820152604401610797565b3360005b8451811015612ebe576020818102868101820151908601909101516001600160a01b03891615612e66576000828152602086815260408083206001600160a01b038d16845290915290205481811015612e3f576040516303dee4c560e01b81526001600160a01b038b166004820152602481018290526044810183905260648101849052608401610797565b6000838152602087815260408083206001600160a01b038e16845290915290209082900390555b6001600160a01b03881615612eab576000828152602086815260408083206001600160a01b038c16845290915281208054839290612ea5908490613c02565b90915550505b505080612eb790613a6c565b9050612db3565b508351600103612f3f5760208401516000906020850151909150866001600160a01b0316886001600160a01b0316846001600160a01b03167fc3d58168c5ae7397731d063d5bbf3d657854427343f4c083240f7aacaa2d0f628585604051612f30929190918252602082015260400190565b60405180910390a4505061177e565b846001600160a01b0316866001600160a01b0316826001600160a01b03167f4a39dc06d4c0dbc64b70af90fd698a233a518aa5d07e595d983b8c0526c8f7fb8787604051612f8e929190613dd4565b60405180910390a4505050505050565b6001600160a01b0384163b1561177e5760405163f23a6e6160e01b81526001600160a01b0385169063f23a6e6190612fe29089908990889088908890600401613df9565b6020604051808303816000875af192505050801561301d575060408051601f3d908101601f1916820190925261301a91810190613e33565b60015b613086573d80801561304b576040519150601f19603f3d011682016040523d82523d6000602084013e613050565b606091505b50805160000361307e57604051632bfa23e760e11b81526001600160a01b0386166004820152602401610797565b805181602001fd5b6001600160e01b0319811663f23a6e6160e01b1461194c57604051632bfa23e760e11b81526001600160a01b0386166004820152602401610797565b6001600160a01b0384163b1561177e5760405163bc197c8160e01b81526001600160a01b0385169063bc197c81906131069089908990889088908890600401613e50565b6020604051808303816000875af1925050508015613141575060408051601f3d908101601f1916820190925261313e91810190613e33565b60015b61316f573d80801561304b576040519150601f19603f3d011682016040523d82523d6000602084013e613050565b6001600160e01b0319811663bc197c8160e01b1461194c57604051632bfa23e760e11b81526001600160a01b0386166004820152602401610797565b600080516020613efd8339815191527f88be536d5240c274a3b1d3a1be54482fd9caa294f08c62a7cde569f49a3c4502610ef68382613ae8565b6060826131fa576131f582613241565b611e23565b815115801561321157506001600160a01b0384163b155b1561323a57604051639996b31560e01b81526001600160a01b0385166004820152602401610797565b5080611e23565b8051156132515780518082602001fd5b604051630a12f52160e11b815260040160405180910390fd5b6001600160a01b03811681146117c157600080fd5b6000806040838503121561329257600080fd5b823561329d8161326a565b946020939093013593505050565b6001600160e01b0319811681146117c157600080fd5b6000602082840312156132d357600080fd5b8135611e23816132ab565b6000602082840312156132f057600080fd5b5035919050565b60005b838110156133125781810151838201526020016132fa565b50506000910152565b600081518084526133338160208601602086016132f7565b601f01601f19169290920160200192915050565b602081526000611e23602083018461331b565b6000806000806080858703121561337057600080fd5b84359350602085013592506040850135915060608501356133908161326a565b939692955090935050565b634e487b7160e01b600052604160045260246000fd5b604051601f8201601f191681016001600160401b03811182821017156133d9576133d961339b565b604052919050565b60006001600160401b038211156133fa576133fa61339b565b5060051b60200190565b600082601f83011261341557600080fd5b8135602061342a613425836133e1565b6133b1565b82815260059290921b8401810191818101908684111561344957600080fd5b8286015b84811015613464578035835291830191830161344d565b509695505050505050565b60006001600160401b038211156134885761348861339b565b50601f01601f191660200190565b600082601f8301126134a757600080fd5b81356134b56134258261346f565b8181528460208386010111156134ca57600080fd5b816020850160208301376000918101602001919091529392505050565b600080600080600060a086880312156134ff57600080fd5b853561350a8161326a565b9450602086013561351a8161326a565b935060408601356001600160401b038082111561353657600080fd5b61354289838a01613404565b9450606088013591508082111561355857600080fd5b61356489838a01613404565b9350608088013591508082111561357a57600080fd5b5061358788828901613496565b9150509295509295909350565b600080600080600060a086880312156135ac57600080fd5b85356135b78161326a565b945060208601359350604086013592506060860135915060808601356135dc8161326a565b809150509295509295909350565b600080604083850312156135fd57600080fd5b8235915060208301356001600160401b0381111561361a57600080fd5b61362685828601613496565b9150509250929050565b6000806040838503121561364357600080fd5b82356001600160401b038082111561365a57600080fd5b818501915085601f83011261366e57600080fd5b8135602061367e613425836133e1565b82815260059290921b8401810191818101908984111561369d57600080fd5b948201945b838610156136c45785356136b58161326a565b825294820194908201906136a2565b965050860135925050808211156136da57600080fd5b5061362685828601613404565b600081518084526020808501945080840160005b83811015613717578151875295820195908201906001016136fb565b509495945050505050565b602081526000611e2360208301846136e7565b6000806040838503121561374857600080fd5b82356137538161326a565b915060208301356001600160401b0381111561361a57600080fd5b60008060006060848603121561378357600080fd5b8335925060208401359150604084013561379c8161326a565b809150509250925092565b600080604083850312156137ba57600080fd5b82356137c58161326a565b9150602083013580151581146137da57600080fd5b809150509250929050565b6000806000606084860312156137fa57600080fd5b833592506020840135915060408401356001600160401b0381111561381e57600080fd5b61382a86828701613496565b9150509250925092565b60008060006060848603121561384957600080fd5b83356138548161326a565b925060208401356138648161326a565b9150604084013561379c8161326a565b6000806040838503121561388757600080fd5b50508035926020909101359150565b600080604083850312156138a957600080fd5b82356138b48161326a565b915060208301356137da8161326a565b600080600080600060a086880312156138dc57600080fd5b85356138e78161326a565b945060208601356138f78161326a565b9350604086013592506060860135915060808601356001600160401b0381111561392057600080fd5b61358788828901613496565b60006020828403121561393e57600080fd5b8135611e238161326a565b600181811c9082168061395d57607f821691505b60208210810361397d57634e487b7160e01b600052602260045260246000fd5b50919050565b600084516139958184602089016132f7565b61060f60f31b90830190815284516139b48160028401602089016132f7565b602f60f81b6002929091019182015283516139d68160038401602088016132f7565b64173539b7b760d91b6003929091019182015260080195945050505050565b600060208284031215613a0757600080fd5b5051919050565b634e487b7160e01b600052601160045260246000fd5b8181038181111561064357610643613a0e565b634e487b7160e01b600052603260045260246000fd5b9283526001600160a01b03919091166020830152604082015260600190565b600060018201613a7e57613a7e613a0e565b5060010190565b600060208284031215613a9757600080fd5b8151611e238161326a565b601f821115610ef657600081815260208120601f850160051c81016020861015613ac95750805b601f850160051c820191505b8181101561177e57828155600101613ad5565b81516001600160401b03811115613b0157613b0161339b565b613b1581613b0f8454613949565b84613aa2565b602080601f831160018114613b4a5760008415613b325750858301515b600019600386901b1c1916600185901b17855561177e565b600085815260208120601f198616915b82811015613b7957888601518255948401946001909101908401613b5a565b5085821015613b975787850151600019600388901b60f8161c191681555b5050505050600190811b01905550565b60208082526024908201527f53686f7720636f6e7472616374206164647265737320697320616c7265616479604082015263081cd95d60e21b606082015260800190565b808202811582820484141761064357610643613a0e565b8082018082111561064357610643613a0e565b600060208284031215613c2757600080fd5b815160088110611e2357600080fd5b634e487b7160e01b600052602160045260246000fd5b600080600060608486031215613c6157600080fd5b83516001600160401b03811115613c7757600080fd5b8401601f81018613613c8857600080fd5b8051613c966134258261346f565b818152876020838501011115613cab57600080fd5b613cbc8260208301602086016132f7565b6020870151604090970151909896975095945050505050565b60006020808385031215613ce857600080fd5b82516001600160401b03811115613cfe57600080fd5b8301601f81018513613d0f57600080fd5b8051613d1d613425826133e1565b81815260059190911b82018301908381019087831115613d3c57600080fd5b928401925b82841015613d5a57835182529284019290840190613d41565b979650505050505050565b60008351613d778184602088016132f7565b61060f60f31b9083019081528351613d968160028401602088016132f7565b680bd8dbdb9d1c9858dd60ba1b60029290910191820152600b01949350505050565b60008251613dca8184602087016132f7565b9190910192915050565b604081526000613de760408301856136e7565b8281036020840152611ef481856136e7565b6001600160a01b03868116825285166020820152604081018490526060810183905260a060808201819052600090613d5a9083018461331b565b600060208284031215613e4557600080fd5b8151611e23816132ab565b6001600160a01b0386811682528516602082015260a060408201819052600090613e7c908301866136e7565b8281036060840152613e8e81866136e7565b90508281036080840152613ea2818561331b565b9897505050505050505056fe68747470733a2f2f6d657461646174612e73656c6c6f75742e656e657267792f73686f772f7b69647d2e6a736f6e360894a13ba1a3210667c828492db98dca3e2076cc3735a920a3ca505d382bbc88be536d5240c274a3b1d3a1be54482fd9caa294f08c62a7cde569f49a3c45009b779b17422d0df92223018b32b4d1fa46e071723d6817e2486d003becc55f0068747470733a2f2f6d657461646174612e73656c6c6f75742e656e657267792f73686f772fa2646970667358221220960ea23957f6f42ed75019f4fdadd0aa18a5433eb390d0d9cab0450f43bd1d6964736f6c63430008140033","linkReferences":{}},"methodIdentifiers":{"MAX_TICKETS_PER_WALLET()":"229df6d6","UPGRADE_INTERFACE_VERSION()":"ad3cb1cc","balanceOf(address,uint256)":"00fdd58e","balanceOfBatch(address[],uint256[])":"4e1273f4","boxOfficeInstance()":"a2b7d174","burnTokens(uint256,uint256,address)":"87f9ca5d","bytes32ToHexString(bytes32)":"c68b3787","contractURI()":"e8a3d485","getShowIdByTicketId(uint256)":"9eacf38f","getTicketPricePaidAndTierIndex(bytes32,uint256)":"da3a7616","initialize(address,string)":"f399e22e","isApprovedForAll(address,address)":"e985e9c5","owner()":"8da5cb5b","proxiableUUID()":"52d1902d","purchaseTickets(bytes32,uint256,uint256,address)":"1e87ccce","purchaseTicketsFor(address,bytes32,uint256,uint256,address)":"3f35abb5","renounceOwnership()":"715018a6","safeBatchTransferFrom(address,address,uint256[],uint256[],bytes)":"2eb2c2d6","safeTransferFrom(address,address,uint256,uint256,bytes)":"f242432a","setApprovalForAll(address,bool)":"a22cb465","setDefaultURIForShow(bytes32,string)":"4dc387c8","setShowContractAddresses(address,address,address)":"b02ee944","setTokenURI(bytes32,uint256,string)":"a7d22597","showInstance()":"404f49d1","showVaultInstance()":"6a017891","supportsInterface(bytes4)":"01ffc9a7","ticketIdToTierIndex(uint256)":"5d7c188c","transferOwnership(address)":"f2fde38b","upgradeToAndCall(address,bytes)":"4f1ef286","uri(uint256)":"0e89341c","version()":"54fd4d50"},"id":79}