{"abi":[{"type":"function","name":"MAX_TICKETS_PER_WALLET","inputs":[],"outputs":[{"name":"","type":"uint256","internalType":"uint256"}],"stateMutability":"view"},{"type":"function","name":"UPGRADE_INTERFACE_VERSION","inputs":[],"outputs":[{"name":"","type":"string","internalType":"string"}],"stateMutability":"view"},{"type":"function","name":"balanceOf","inputs":[{"name":"account","type":"address","internalType":"address"},{"name":"id","type":"uint256","internalType":"uint256"}],"outputs":[{"name":"","type":"uint256","internalType":"uint256"}],"stateMutability":"view"},{"type":"function","name":"balanceOfBatch","inputs":[{"name":"accounts","type":"address[]","internalType":"address[]"},{"name":"ids","type":"uint256[]","internalType":"uint256[]"}],"outputs":[{"name":"","type":"uint256[]","internalType":"uint256[]"}],"stateMutability":"view"},{"type":"function","name":"burnTokens","inputs":[{"name":"tokenId","type":"uint256","internalType":"uint256"},{"name":"amount","type":"uint256","internalType":"uint256"},{"name":"owner","type":"address","internalType":"address"}],"outputs":[],"stateMutability":"nonpayable"},{"type":"function","name":"getTicketPricePaidAndTierIndex","inputs":[{"name":"showId","type":"bytes32","internalType":"bytes32"},{"name":"ticketId","type":"uint256","internalType":"uint256"}],"outputs":[{"name":"price","type":"uint256","internalType":"uint256"},{"name":"tierIndex","type":"uint256","internalType":"uint256"}],"stateMutability":"view"},{"type":"function","name":"initialize","inputs":[{"name":"initialOwner","type":"address","internalType":"address"},{"name":"_showContractAddress","type":"address","internalType":"address"}],"outputs":[],"stateMutability":"nonpayable"},{"type":"function","name":"isApprovedForAll","inputs":[{"name":"account","type":"address","internalType":"address"},{"name":"operator","type":"address","internalType":"address"}],"outputs":[{"name":"","type":"bool","internalType":"bool"}],"stateMutability":"view"},{"type":"function","name":"owner","inputs":[],"outputs":[{"name":"","type":"address","internalType":"address"}],"stateMutability":"view"},{"type":"function","name":"proxiableUUID","inputs":[],"outputs":[{"name":"","type":"bytes32","internalType":"bytes32"}],"stateMutability":"view"},{"type":"function","name":"purchaseTickets","inputs":[{"name":"showId","type":"bytes32","internalType":"bytes32"},{"name":"tierIndex","type":"uint256","internalType":"uint256"},{"name":"amount","type":"uint256","internalType":"uint256"}],"outputs":[],"stateMutability":"payable"},{"type":"function","name":"renounceOwnership","inputs":[],"outputs":[],"stateMutability":"nonpayable"},{"type":"function","name":"safeBatchTransferFrom","inputs":[{"name":"from","type":"address","internalType":"address"},{"name":"to","type":"address","internalType":"address"},{"name":"ids","type":"uint256[]","internalType":"uint256[]"},{"name":"values","type":"uint256[]","internalType":"uint256[]"},{"name":"data","type":"bytes","internalType":"bytes"}],"outputs":[],"stateMutability":"nonpayable"},{"type":"function","name":"safeTransferFrom","inputs":[{"name":"from","type":"address","internalType":"address"},{"name":"to","type":"address","internalType":"address"},{"name":"id","type":"uint256","internalType":"uint256"},{"name":"value","type":"uint256","internalType":"uint256"},{"name":"data","type":"bytes","internalType":"bytes"}],"outputs":[],"stateMutability":"nonpayable"},{"type":"function","name":"setApprovalForAll","inputs":[{"name":"operator","type":"address","internalType":"address"},{"name":"approved","type":"bool","internalType":"bool"}],"outputs":[],"stateMutability":"nonpayable"},{"type":"function","name":"setDefaultURI","inputs":[{"name":"newDefaultURI","type":"string","internalType":"string"},{"name":"showId","type":"bytes32","internalType":"bytes32"}],"outputs":[],"stateMutability":"nonpayable"},{"type":"function","name":"setTokenURI","inputs":[{"name":"showId","type":"bytes32","internalType":"bytes32"},{"name":"tokenId","type":"uint256","internalType":"uint256"},{"name":"newURI","type":"string","internalType":"string"}],"outputs":[],"stateMutability":"nonpayable"},{"type":"function","name":"showInstance","inputs":[],"outputs":[{"name":"","type":"address","internalType":"contract IShow"}],"stateMutability":"view"},{"type":"function","name":"supportsInterface","inputs":[{"name":"interfaceId","type":"bytes4","internalType":"bytes4"}],"outputs":[{"name":"","type":"bool","internalType":"bool"}],"stateMutability":"view"},{"type":"function","name":"ticketIdToTierIndex","inputs":[{"name":"","type":"uint256","internalType":"uint256"}],"outputs":[{"name":"","type":"uint256","internalType":"uint256"}],"stateMutability":"view"},{"type":"function","name":"transferOwnership","inputs":[{"name":"newOwner","type":"address","internalType":"address"}],"outputs":[],"stateMutability":"nonpayable"},{"type":"function","name":"upgradeToAndCall","inputs":[{"name":"newImplementation","type":"address","internalType":"address"},{"name":"data","type":"bytes","internalType":"bytes"}],"outputs":[],"stateMutability":"payable"},{"type":"function","name":"uri","inputs":[{"name":"tokenId","type":"uint256","internalType":"uint256"}],"outputs":[{"name":"","type":"string","internalType":"string"}],"stateMutability":"view"},{"type":"event","name":"ApprovalForAll","inputs":[{"name":"account","type":"address","indexed":true,"internalType":"address"},{"name":"operator","type":"address","indexed":true,"internalType":"address"},{"name":"approved","type":"bool","indexed":false,"internalType":"bool"}],"anonymous":false},{"type":"event","name":"Initialized","inputs":[{"name":"version","type":"uint64","indexed":false,"internalType":"uint64"}],"anonymous":false},{"type":"event","name":"OwnershipTransferred","inputs":[{"name":"previousOwner","type":"address","indexed":true,"internalType":"address"},{"name":"newOwner","type":"address","indexed":true,"internalType":"address"}],"anonymous":false},{"type":"event","name":"TicketPurchased","inputs":[{"name":"buyer","type":"address","indexed":true,"internalType":"address"},{"name":"showId","type":"bytes32","indexed":true,"internalType":"bytes32"},{"name":"ticketId","type":"uint256","indexed":true,"internalType":"uint256"},{"name":"amount","type":"uint256","indexed":false,"internalType":"uint256"},{"name":"tierIndex","type":"uint256","indexed":false,"internalType":"uint256"}],"anonymous":false},{"type":"event","name":"TransferBatch","inputs":[{"name":"operator","type":"address","indexed":true,"internalType":"address"},{"name":"from","type":"address","indexed":true,"internalType":"address"},{"name":"to","type":"address","indexed":true,"internalType":"address"},{"name":"ids","type":"uint256[]","indexed":false,"internalType":"uint256[]"},{"name":"values","type":"uint256[]","indexed":false,"internalType":"uint256[]"}],"anonymous":false},{"type":"event","name":"TransferSingle","inputs":[{"name":"operator","type":"address","indexed":true,"internalType":"address"},{"name":"from","type":"address","indexed":true,"internalType":"address"},{"name":"to","type":"address","indexed":true,"internalType":"address"},{"name":"id","type":"uint256","indexed":false,"internalType":"uint256"},{"name":"value","type":"uint256","indexed":false,"internalType":"uint256"}],"anonymous":false},{"type":"event","name":"URI","inputs":[{"name":"value","type":"string","indexed":false,"internalType":"string"},{"name":"id","type":"uint256","indexed":true,"internalType":"uint256"}],"anonymous":false},{"type":"event","name":"Upgraded","inputs":[{"name":"implementation","type":"address","indexed":true,"internalType":"address"}],"anonymous":false},{"type":"error","name":"AddressEmptyCode","inputs":[{"name":"target","type":"address","internalType":"address"}]},{"type":"error","name":"ERC1155InsufficientBalance","inputs":[{"name":"sender","type":"address","internalType":"address"},{"name":"balance","type":"uint256","internalType":"uint256"},{"name":"needed","type":"uint256","internalType":"uint256"},{"name":"tokenId","type":"uint256","internalType":"uint256"}]},{"type":"error","name":"ERC1155InvalidApprover","inputs":[{"name":"approver","type":"address","internalType":"address"}]},{"type":"error","name":"ERC1155InvalidArrayLength","inputs":[{"name":"idsLength","type":"uint256","internalType":"uint256"},{"name":"valuesLength","type":"uint256","internalType":"uint256"}]},{"type":"error","name":"ERC1155InvalidOperator","inputs":[{"name":"operator","type":"address","internalType":"address"}]},{"type":"error","name":"ERC1155InvalidReceiver","inputs":[{"name":"receiver","type":"address","internalType":"address"}]},{"type":"error","name":"ERC1155InvalidSender","inputs":[{"name":"sender","type":"address","internalType":"address"}]},{"type":"error","name":"ERC1155MissingApprovalForAll","inputs":[{"name":"operator","type":"address","internalType":"address"},{"name":"owner","type":"address","internalType":"address"}]},{"type":"error","name":"ERC1967InvalidImplementation","inputs":[{"name":"implementation","type":"address","internalType":"address"}]},{"type":"error","name":"ERC1967NonPayable","inputs":[]},{"type":"error","name":"FailedInnerCall","inputs":[]},{"type":"error","name":"InvalidInitialization","inputs":[]},{"type":"error","name":"NotInitializing","inputs":[]},{"type":"error","name":"OwnableInvalidOwner","inputs":[{"name":"owner","type":"address","internalType":"address"}]},{"type":"error","name":"OwnableUnauthorizedAccount","inputs":[{"name":"account","type":"address","internalType":"address"}]},{"type":"error","name":"ReentrancyGuardReentrantCall","inputs":[]},{"type":"error","name":"UUPSUnauthorizedCallContext","inputs":[]},{"type":"error","name":"UUPSUnsupportedProxiableUUID","inputs":[{"name":"slot","type":"bytes32","internalType":"bytes32"}]}],"bytecode":{"object":"0x60a06040523060805234801561001457600080fd5b5060805161300461003e60003960008181611789015281816117b201526118f301526130046000f3fe60806040526004361061013f5760003560e01c80635dbab132116100b6578063a7d225971161006f578063a7d22597146103aa578063ad3cb1cc146103ca578063da3a7616146103fb578063e985e9c514610430578063f242432a14610450578063f2fde38b1461047057600080fd5b80635dbab132146102e5578063715018a6146103055780637fc7aa211461031a57806387f9ca5d1461032d5780638da5cb5b1461034d578063a22cb4651461038a57600080fd5b8063404f49d111610108578063404f49d11461020b578063485cc955146102435780634e1273f4146102635780634f1ef2861461029057806352d1902d146102a35780635d7c188c146102b857600080fd5b8062fdd58e1461014457806301ffc9a7146101775780630e89341c146101a7578063229df6d6146101d45780632eb2c2d6146101e9575b600080fd5b34801561015057600080fd5b5061016461015f366004612434565b610490565b6040519081526020015b60405180910390f35b34801561018357600080fd5b50610197610192366004612476565b6104c7565b604051901515815260200161016e565b3480156101b357600080fd5b506101c76101c2366004612493565b610517565b60405161016e91906124fc565b3480156101e057600080fd5b50610164600581565b3480156101f557600080fd5b5061020961020436600461265b565b6105f7565b005b34801561021757600080fd5b5060005461022b906001600160a01b031681565b6040516001600160a01b03909116815260200161016e565b34801561024f57600080fd5b5061020961025e366004612708565b610663565b34801561026f57600080fd5b5061028361027e366004612741565b6107e4565b60405161016e919061283d565b61020961029e366004612850565b6108b8565b3480156102af57600080fd5b506101646108d7565b3480156102c457600080fd5b506101646102d3366004612493565b60026020526000908152604090205481565b3480156102f157600080fd5b50610209610300366004612895565b6108f4565b34801561031157600080fd5b506102096109d2565b6102096103283660046128d9565b6109e6565b34801561033957600080fd5b50610209610348366004612905565b6112ae565b34801561035957600080fd5b507f9016d09d72d40fdae2fd8ceac6b6234c7706214fd39c1cd1e609a0528c199300546001600160a01b031661022b565b34801561039657600080fd5b506102096103a536600461293e565b611329565b3480156103b657600080fd5b506102096103c5366004612971565b611334565b3480156103d657600080fd5b506101c7604051806040016040528060058152602001640352e302e360dc1b81525081565b34801561040757600080fd5b5061041b6104163660046129c0565b611468565b6040805192835260208301919091520161016e565b34801561043c57600080fd5b5061019761044b366004612708565b611561565b34801561045c57600080fd5b5061020961046b3660046129e2565b6115ae565b34801561047c57600080fd5b5061020961048b366004612a4a565b61160d565b6000818152600080516020612f81833981519152602090815260408083206001600160a01b03861684529091529020545b92915050565b60006001600160e01b03198216636cdb3d1360e11b14806104f857506001600160e01b031982166303a24d0760e21b145b806104c157506301ffc9a760e01b6001600160e01b03198316146104c1565b60008181526001602052604081208054606092919061053590612a67565b80601f016020809104026020016040519081016040528092919081815260200182805461056190612a67565b80156105ae5780601f10610583576101008083540402835291602001916105ae565b820191906000526020600020905b81548152906001019060200180831161059157829003601f168201915b5050505050905060008151116105ee5760046105c98461164b565b6040516020016105da929190612aa1565b6040516020818303038152906040526105f0565b805b9392505050565b336001600160a01b038616811480159061061857506106168682611561565b155b1561064e5760405163711bec9160e11b81526001600160a01b038083166004830152871660248201526044015b60405180910390fd5b61065b86868686866116dd565b505050505050565b7ff0c57e16840df040f15088dc2f81fe391c3923bec73e23a9662efc9c229c6a008054600160401b810460ff1615906001600160401b03166000811580156106a85750825b90506000826001600160401b031660011480156106c45750303b155b9050811580156106d2575080155b156106f05760405163f92ee8a960e01b815260040160405180910390fd5b845467ffffffffffffffff19166001178555831561071a57845460ff60401b1916600160401b1785555b61073b6040518060600160405280602e8152602001612fa1602e9139611744565b610743611755565b61074c87611765565b610754611776565b600080546001600160a01b0319166001600160a01b03881617905560408051606081019091526025808252612f3c60208301396004906107949082612b7e565b5083156107db57845460ff60401b19168555604051600181527fc7f505b2f371ae2175ee4913f4499e1f2633a7b5936321eed1cdaeb6115181d29060200160405180910390a15b50505050505050565b606081518351146108155781518351604051635b05999160e01b815260048101929092526024820152604401610645565b600083516001600160401b038111156108305761083061250f565b604051908082528060200260200182016040528015610859578160200160208202803683370190505b50905060005b84518110156108b05760208082028601015161088390602080840287010151610490565b82828151811061089557610895612c3d565b60209081029190910101526108a981612c69565b905061085f565b509392505050565b6108c061177e565b6108c982611823565b6108d3828261182b565b5050565b60006108e16118e8565b50600080516020612f6183398151915290565b600054604051634bbe5c4f60e11b8152600481018390526001600160a01b039091169063977cb89e90602401602060405180830381865afa15801561093d573d6000803e3d6000fd5b505050506040513d601f19601f820116820180604052508101906109619190612c82565b6001600160a01b0316336001600160a01b0316146109c15760405162461bcd60e51b815260206004820152601b60248201527f43616c6c6572206973206e6f7420746865206f7267616e697a657200000000006044820152606401610645565b60046109cd8382612b7e565b505050565b6109da611931565b6109e4600061198c565b565b6109ee6119fd565b60008111610a3e5760405162461bcd60e51b815260206004820152601d60248201527f416d6f756e74206d7573742062652067726561746572207468616e20300000006044820152606401610645565b600080546040516346c2c8a760e01b8152600481018690526001600160a01b03909116906346c2c8a790602401602060405180830381865afa158015610a88573d6000803e3d6000fd5b505050506040513d601f19601f82011682018060405250810190610aac9190612c9f565b90506000816007811115610ac257610ac2612cc0565b14610b215760405162461bcd60e51b815260206004820152602960248201527f53686f77206973206e6f7420617661696c61626c6520666f72207469636b657460448201526820707572636861736560b81b6064820152608401610645565b60008054604051635b9a1e0960e01b8152600481018790523360248201526001600160a01b0390911690635b9a1e0990604401600060405180830381865afa158015610b71573d6000803e3d6000fd5b505050506040513d6000823e601f3d908101601f19168201604052610b999190810190612cd6565b90506005838251610baa9190612d66565b1115610c035760405162461bcd60e51b815260206004820152602260248201527f45786365656473206d6178696d756d207469636b657473207065722077616c6c604482015261195d60f21b6064820152608401610645565b60008054604051637e3e393560e01b8152600481018890526024810187905282916001600160a01b031690637e3e393590604401600060405180830381865afa158015610c54573d6000803e3d6000fd5b505050506040513d6000823e601f3d908101601f19168201604052610c7c9190810190612d79565b925092505084811015610ce35760405162461bcd60e51b815260206004820152602960248201527f4e6f7420656e6f756768207469636b65747320617661696c61626c6520696e206044820152683a3434b9903a34b2b960b91b6064820152608401610645565b610ced8583612e02565b3414610d3b5760405162461bcd60e51b815260206004820152601860248201527f496e636f7272656374207061796d656e7420616d6f756e7400000000000000006044820152606401610645565b600054604051638526663560e01b8152600481018990526001600160a01b039091169063852666359034906024016000604051808303818588803b158015610d8257600080fd5b505af1158015610d96573d6000803e3d6000fd5b50505050506000856001600160401b03811115610db557610db561250f565b604051908082528060200260200182016040528015610dde578160200160208202803683370190505b5090506000866001600160401b03811115610dfb57610dfb61250f565b604051908082528060200260200182016040528015610e24578160200160208202803683370190505b50905060005b878110156110c15760008a81526003602052604081208054909190610e4e90612c69565b919050819055838281518110610e6657610e66612c3d565b6020026020010181815250506001828281518110610e8657610e86612c3d565b6020026020010181815250508860026000858481518110610ea957610ea9612c3d565b602002602001015181526020019081526020016000208190555060008054906101000a90046001600160a01b03166001600160a01b031663de44006f8b33868581518110610ef957610ef9612c3d565b60200260200101516040518463ffffffff1660e01b8152600401610f39939291909283526001600160a01b03919091166020830152604082015260600190565b600060405180830381600087803b158015610f5357600080fd5b505af1158015610f67573d6000803e3d6000fd5b505060005485516001600160a01b03909116925063bd47dc5c91508c90869085908110610f9657610f96612c3d565b6020026020010151886040518463ffffffff1660e01b8152600401610fce939291909283526020830191909152604082015260600190565b600060405180830381600087803b158015610fe857600080fd5b505af1158015610ffc573d6000803e3d6000fd5b5050505060008054906101000a90046001600160a01b03166001600160a01b031663c8f67e968b3386858151811061103657611036612c3d565b60209081029190910101516040516001600160e01b031960e086901b16815260048101939093526001600160a01b039091166024830152604482015260016064820152608401600060405180830381600087803b15801561109657600080fd5b505af11580156110aa573d6000803e3d6000fd5b5050505080806110b990612c69565b915050610e2a565b506110dd33838360405180602001604052806000815250611a47565b60005460405163644b5e5960e01b8152600481018b9052602481018a9052604481018990526001600160a01b039091169063644b5e5990606401600060405180830381600087803b15801561113157600080fd5b505af1158015611145573d6000803e3d6000fd5b505060005460405163730c02a360e11b8152600481018d90526001600160a01b03909116925063e61805469150602401600060405180830381600087803b15801561118f57600080fd5b505af11580156111a3573d6000803e3d6000fd5b5050600054604051630f0faed760e31b8152600481018d9052602481018b90526001600160a01b03909116925063787d76b89150604401600060405180830381600087803b1580156111f457600080fd5b505af1158015611208573d6000803e3d6000fd5b505050508160018861121a9190612e19565b8151811061122a5761122a612c3d565b602002602001015189336001600160a01b03167ff53f6fe7b2b86daf10364d1fc7e66dfc3adc1482215b61947bf0ec712e1299088a8c604051611277929190918252602082015260400190565b60405180910390a45050505050506109cd60017f9b779b17422d0df92223018b32b4d1fa46e071723d6817e2486d003becc55f0055565b6000546001600160a01b0316331461131e5760405162461bcd60e51b815260206004820152602d60248201527f4f6e6c79207468652053686f7720636f6e74726163742063616e2063616c6c2060448201526c3a3434b990333ab731ba34b7b760991b6064820152608401610645565b6109cd818484611aab565b6108d3338383611b13565b600054604051634bbe5c4f60e11b8152600481018590526001600160a01b039091169063977cb89e90602401602060405180830381865afa15801561137d573d6000803e3d6000fd5b505050506040513d601f19601f820116820180604052508101906113a19190612c82565b6001600160a01b0316336001600160a01b0316146114125760405162461bcd60e51b815260206004820152602860248201527f43616c6c6572206973206e6f7420746865206f7267616e697a6572206f6620746044820152676869732073686f7760c01b6064820152608401610645565b600082815260016020526040902061142a8282612b7e565b50817f6bb7ff708619ba0610cba295a58592e0451dee2622938c8755667688daf3529b8260405161145b91906124fc565b60405180910390a2505050565b600081815260026020526040812054819081036114d35760405162461bcd60e51b815260206004820152602360248201527f5469636b6574206f72207469657220696e64657820646f6573206e6f742065786044820152621a5cdd60ea1b6064820152608401610645565b600080546040516293d4e160e81b815260048101879052602481018690526001600160a01b03909116906393d4e10090604401602060405180830381865afa158015611523573d6000803e3d6000fd5b505050506040513d601f19601f820116820180604052508101906115479190612e2c565b600094855260026020526040909420549395939450505050565b6001600160a01b0391821660009081527f88be536d5240c274a3b1d3a1be54482fd9caa294f08c62a7cde569f49a3c45016020908152604080832093909416825291909152205460ff1690565b336001600160a01b03861681148015906115cf57506115cd8682611561565b155b156116005760405163711bec9160e11b81526001600160a01b03808316600483015287166024820152604401610645565b61065b8686868686611bbb565b611615611931565b6001600160a01b03811661163f57604051631e4fbdf760e01b815260006004820152602401610645565b6116488161198c565b50565b6060600061165883611c40565b60010190506000816001600160401b038111156116775761167761250f565b6040519080825280601f01601f1916602001820160405280156116a1576020820181803683370190505b5090508181016020015b600019016f181899199a1a9b1b9c1cb0b131b232b360811b600a86061a8153600a85049450846116ab57509392505050565b6001600160a01b03841661170757604051632bfa23e760e11b815260006004820152602401610645565b6001600160a01b03851661173057604051626a0d4560e21b815260006004820152602401610645565b61173d8585858585611d18565b5050505050565b61174c611d6b565b61164881611db4565b61175d611d6b565b6109e4611dc5565b61176d611d6b565b61164881611dcd565b6109e4611d6b565b306001600160a01b037f000000000000000000000000000000000000000000000000000000000000000016148061180557507f00000000000000000000000000000000000000000000000000000000000000006001600160a01b03166117f9600080516020612f61833981519152546001600160a01b031690565b6001600160a01b031614155b156109e45760405163703e46dd60e11b815260040160405180910390fd5b611648611931565b816001600160a01b03166352d1902d6040518163ffffffff1660e01b8152600401602060405180830381865afa925050508015611885575060408051601f3d908101601f1916820190925261188291810190612e2c565b60015b6118ad57604051634c9c8ce360e01b81526001600160a01b0383166004820152602401610645565b600080516020612f6183398151915281146118de57604051632a87526960e21b815260048101829052602401610645565b6109cd8383611dd5565b306001600160a01b037f000000000000000000000000000000000000000000000000000000000000000016146109e45760405163703e46dd60e11b815260040160405180910390fd5b336119637f9016d09d72d40fdae2fd8ceac6b6234c7706214fd39c1cd1e609a0528c199300546001600160a01b031690565b6001600160a01b0316146109e45760405163118cdaa760e01b8152336004820152602401610645565b7f9016d09d72d40fdae2fd8ceac6b6234c7706214fd39c1cd1e609a0528c19930080546001600160a01b031981166001600160a01b03848116918217845560405192169182907f8be0079c531659141344cd1fd0a4f28419497f9722a3daafe3b4186f6b6457e090600090a3505050565b7f9b779b17422d0df92223018b32b4d1fa46e071723d6817e2486d003becc55f00805460011901611a4157604051633ee5aeb560e01b815260040160405180910390fd5b60029055565b6001600160a01b038416611a7157604051632bfa23e760e11b815260006004820152602401610645565b611a7f600085858585611d18565b50505050565b60017f9b779b17422d0df92223018b32b4d1fa46e071723d6817e2486d003becc55f0055565b6001600160a01b038316611ad457604051626a0d4560e21b815260006004820152602401610645565b604080516001808252602082018590528183019081526060820184905260a0820190925260006080820181815291929161173d91879185908590611d18565b600080516020612f818339815191526001600160a01b038316611b4b5760405162ced3e160e81b815260006004820152602401610645565b6001600160a01b038481166000818152600184016020908152604080832094881680845294825291829020805460ff191687151590811790915591519182527f17307eab39ab6107e8899845ad3d59bd9653f200f220920489ca2b5937696c31910160405180910390a350505050565b6001600160a01b038416611be557604051632bfa23e760e11b815260006004820152602401610645565b6001600160a01b038516611c0e57604051626a0d4560e21b815260006004820152602401610645565b604080516001808252602082018690528183019081526060820185905260808201909252906107db8787848487611d18565b60008072184f03e93ff9f4daa797ed6e38ed64bf6a1f0160401b8310611c7f5772184f03e93ff9f4daa797ed6e38ed64bf6a1f0160401b830492506040015b6d04ee2d6d415b85acef81000000008310611cab576d04ee2d6d415b85acef8100000000830492506020015b662386f26fc100008310611cc957662386f26fc10000830492506010015b6305f5e1008310611ce1576305f5e100830492506008015b6127108310611cf557612710830492506004015b60648310611d07576064830492506002015b600a83106105ee5760010192915050565b611d2485858585611e2b565b6001600160a01b0384161561173d5782513390600103611d5d5760208481015190840151611d56838989858589612059565b505061065b565b61065b81878787878761217d565b7ff0c57e16840df040f15088dc2f81fe391c3923bec73e23a9662efc9c229c6a0054600160401b900460ff166109e457604051631afcd79f60e31b815260040160405180910390fd5b611dbc611d6b565b61164881612266565b611a85611d6b565b611615611d6b565b611dde826122a0565b6040516001600160a01b038316907fbc7cd75a20ee27fd9adebab32041f755214dbc6bffa90cc0225b39da2e5c2d3b90600090a2805115611e23576109cd8282612305565b6108d361237b565b80518251600080516020612f818339815191529114611e6a5782518251604051635b05999160e01b815260048101929092526024820152604401610645565b3360005b8451811015611f79576020818102868101820151908601909101516001600160a01b03891615611f21576000828152602086815260408083206001600160a01b038d16845290915290205481811015611efa576040516303dee4c560e01b81526001600160a01b038b166004820152602481018290526044810183905260648101849052608401610645565b6000838152602087815260408083206001600160a01b038e16845290915290209082900390555b6001600160a01b03881615611f66576000828152602086815260408083206001600160a01b038c16845290915281208054839290611f60908490612d66565b90915550505b505080611f7290612c69565b9050611e6e565b508351600103611ffa5760208401516000906020850151909150866001600160a01b0316886001600160a01b0316846001600160a01b03167fc3d58168c5ae7397731d063d5bbf3d657854427343f4c083240f7aacaa2d0f628585604051611feb929190918252602082015260400190565b60405180910390a4505061065b565b846001600160a01b0316866001600160a01b0316826001600160a01b03167f4a39dc06d4c0dbc64b70af90fd698a233a518aa5d07e595d983b8c0526c8f7fb8787604051612049929190612e45565b60405180910390a4505050505050565b6001600160a01b0384163b1561065b5760405163f23a6e6160e01b81526001600160a01b0385169063f23a6e619061209d9089908990889088908890600401612e6a565b6020604051808303816000875af19250505080156120d8575060408051601f3d908101601f191682019092526120d591810190612ea4565b60015b612141573d808015612106576040519150601f19603f3d011682016040523d82523d6000602084013e61210b565b606091505b50805160000361213957604051632bfa23e760e11b81526001600160a01b0386166004820152602401610645565b805181602001fd5b6001600160e01b0319811663f23a6e6160e01b146107db57604051632bfa23e760e11b81526001600160a01b0386166004820152602401610645565b6001600160a01b0384163b1561065b5760405163bc197c8160e01b81526001600160a01b0385169063bc197c81906121c19089908990889088908890600401612ec1565b6020604051808303816000875af19250505080156121fc575060408051601f3d908101601f191682019092526121f991810190612ea4565b60015b61222a573d808015612106576040519150601f19603f3d011682016040523d82523d6000602084013e61210b565b6001600160e01b0319811663bc197c8160e01b146107db57604051632bfa23e760e11b81526001600160a01b0386166004820152602401610645565b600080516020612f818339815191527f88be536d5240c274a3b1d3a1be54482fd9caa294f08c62a7cde569f49a3c45026109cd8382612b7e565b806001600160a01b03163b6000036122d657604051634c9c8ce360e01b81526001600160a01b0382166004820152602401610645565b600080516020612f6183398151915280546001600160a01b0319166001600160a01b0392909216919091179055565b6060600080846001600160a01b0316846040516123229190612f1f565b600060405180830381855af49150503d806000811461235d576040519150601f19603f3d011682016040523d82523d6000602084013e612362565b606091505b509150915061237285838361239a565b95945050505050565b34156109e45760405163b398979f60e01b815260040160405180910390fd5b6060826123af576123aa826123f6565b6105f0565b81511580156123c657506001600160a01b0384163b155b156123ef57604051639996b31560e01b81526001600160a01b0385166004820152602401610645565b5092915050565b8051156124065780518082602001fd5b604051630a12f52160e11b815260040160405180910390fd5b6001600160a01b038116811461164857600080fd5b6000806040838503121561244757600080fd5b82356124528161241f565b946020939093013593505050565b6001600160e01b03198116811461164857600080fd5b60006020828403121561248857600080fd5b81356105f081612460565b6000602082840312156124a557600080fd5b5035919050565b60005b838110156124c75781810151838201526020016124af565b50506000910152565b600081518084526124e88160208601602086016124ac565b601f01601f19169290920160200192915050565b6020815260006105f060208301846124d0565b634e487b7160e01b600052604160045260246000fd5b604051601f8201601f191681016001600160401b038111828210171561254d5761254d61250f565b604052919050565b60006001600160401b0382111561256e5761256e61250f565b5060051b60200190565b600082601f83011261258957600080fd5b8135602061259e61259983612555565b612525565b82815260059290921b840181019181810190868411156125bd57600080fd5b8286015b848110156125d857803583529183019183016125c1565b509695505050505050565b60006001600160401b038211156125fc576125fc61250f565b50601f01601f191660200190565b600082601f83011261261b57600080fd5b8135612629612599826125e3565b81815284602083860101111561263e57600080fd5b816020850160208301376000918101602001919091529392505050565b600080600080600060a0868803121561267357600080fd5b853561267e8161241f565b9450602086013561268e8161241f565b935060408601356001600160401b03808211156126aa57600080fd5b6126b689838a01612578565b945060608801359150808211156126cc57600080fd5b6126d889838a01612578565b935060808801359150808211156126ee57600080fd5b506126fb8882890161260a565b9150509295509295909350565b6000806040838503121561271b57600080fd5b82356127268161241f565b915060208301356127368161241f565b809150509250929050565b6000806040838503121561275457600080fd5b82356001600160401b038082111561276b57600080fd5b818501915085601f83011261277f57600080fd5b8135602061278f61259983612555565b82815260059290921b840181019181810190898411156127ae57600080fd5b948201945b838610156127d55785356127c68161241f565b825294820194908201906127b3565b965050860135925050808211156127eb57600080fd5b506127f885828601612578565b9150509250929050565b600081518084526020808501945080840160005b8381101561283257815187529582019590820190600101612816565b509495945050505050565b6020815260006105f06020830184612802565b6000806040838503121561286357600080fd5b823561286e8161241f565b915060208301356001600160401b0381111561288957600080fd5b6127f88582860161260a565b600080604083850312156128a857600080fd5b82356001600160401b038111156128be57600080fd5b6128ca8582860161260a565b95602094909401359450505050565b6000806000606084860312156128ee57600080fd5b505081359360208301359350604090920135919050565b60008060006060848603121561291a57600080fd5b833592506020840135915060408401356129338161241f565b809150509250925092565b6000806040838503121561295157600080fd5b823561295c8161241f565b91506020830135801515811461273657600080fd5b60008060006060848603121561298657600080fd5b833592506020840135915060408401356001600160401b038111156129aa57600080fd5b6129b68682870161260a565b9150509250925092565b600080604083850312156129d357600080fd5b50508035926020909101359150565b600080600080600060a086880312156129fa57600080fd5b8535612a058161241f565b94506020860135612a158161241f565b9350604086013592506060860135915060808601356001600160401b03811115612a3e57600080fd5b6126fb8882890161260a565b600060208284031215612a5c57600080fd5b81356105f08161241f565b600181811c90821680612a7b57607f821691505b602082108103612a9b57634e487b7160e01b600052602260045260246000fd5b50919050565b6000808454612aaf81612a67565b60018281168015612ac75760018114612adc57612b0b565b60ff1984168752821515830287019450612b0b565b8860005260208060002060005b85811015612b025781548a820152908401908201612ae9565b50505082870194505b505050508351612b1f8183602088016124ac565b64173539b7b760d91b9101908152600501949350505050565b601f8211156109cd57600081815260208120601f850160051c81016020861015612b5f5750805b601f850160051c820191505b8181101561065b57828155600101612b6b565b81516001600160401b03811115612b9757612b9761250f565b612bab81612ba58454612a67565b84612b38565b602080601f831160018114612be05760008415612bc85750858301515b600019600386901b1c1916600185901b17855561065b565b600085815260208120601f198616915b82811015612c0f57888601518255948401946001909101908401612bf0565b5085821015612c2d5787850151600019600388901b60f8161c191681555b5050505050600190811b01905550565b634e487b7160e01b600052603260045260246000fd5b634e487b7160e01b600052601160045260246000fd5b600060018201612c7b57612c7b612c53565b5060010190565b600060208284031215612c9457600080fd5b81516105f08161241f565b600060208284031215612cb157600080fd5b8151600881106105f057600080fd5b634e487b7160e01b600052602160045260246000fd5b60006020808385031215612ce957600080fd5b82516001600160401b03811115612cff57600080fd5b8301601f81018513612d1057600080fd5b8051612d1e61259982612555565b81815260059190911b82018301908381019087831115612d3d57600080fd5b928401925b82841015612d5b57835182529284019290840190612d42565b979650505050505050565b808201808211156104c1576104c1612c53565b600080600060608486031215612d8e57600080fd5b83516001600160401b03811115612da457600080fd5b8401601f81018613612db557600080fd5b8051612dc3612599826125e3565b818152876020838501011115612dd857600080fd5b612de98260208301602086016124ac565b6020870151604090970151909896975095945050505050565b80820281158282048414176104c1576104c1612c53565b818103818111156104c1576104c1612c53565b600060208284031215612e3e57600080fd5b5051919050565b604081526000612e586040830185612802565b82810360208401526123728185612802565b6001600160a01b03868116825285166020820152604081018490526060810183905260a060808201819052600090612d5b908301846124d0565b600060208284031215612eb657600080fd5b81516105f081612460565b6001600160a01b0386811682528516602082015260a060408201819052600090612eed90830186612802565b8281036060840152612eff8186612802565b90508281036080840152612f1381856124d0565b98975050505050505050565b60008251612f318184602087016124ac565b919091019291505056fe68747470733a2f2f6d657461646174612e73656c6c6f7574732e6170702f7469636b65742f360894a13ba1a3210667c828492db98dca3e2076cc3735a920a3ca505d382bbc88be536d5240c274a3b1d3a1be54482fd9caa294f08c62a7cde569f49a3c450068747470733a2f2f6d657461646174612e73656c6c6f7574732e6170702f7469636b65742f7b69647d2e6a736f6ea2646970667358221220802511a983af0613aed50843e0a1852757bcee70e75b71043ec27e6154fcb27164736f6c63430008140033","linkReferences":{}},"methodIdentifiers":{"MAX_TICKETS_PER_WALLET()":"229df6d6","UPGRADE_INTERFACE_VERSION()":"ad3cb1cc","balanceOf(address,uint256)":"00fdd58e","balanceOfBatch(address[],uint256[])":"4e1273f4","burnTokens(uint256,uint256,address)":"87f9ca5d","getTicketPricePaidAndTierIndex(bytes32,uint256)":"da3a7616","initialize(address,address)":"485cc955","isApprovedForAll(address,address)":"e985e9c5","owner()":"8da5cb5b","proxiableUUID()":"52d1902d","purchaseTickets(bytes32,uint256,uint256)":"7fc7aa21","renounceOwnership()":"715018a6","safeBatchTransferFrom(address,address,uint256[],uint256[],bytes)":"2eb2c2d6","safeTransferFrom(address,address,uint256,uint256,bytes)":"f242432a","setApprovalForAll(address,bool)":"a22cb465","setDefaultURI(string,bytes32)":"5dbab132","setTokenURI(bytes32,uint256,string)":"a7d22597","showInstance()":"404f49d1","supportsInterface(bytes4)":"01ffc9a7","ticketIdToTierIndex(uint256)":"5d7c188c","transferOwnership(address)":"f2fde38b","upgradeToAndCall(address,bytes)":"4f1ef286","uri(uint256)":"0e89341c"},"id":61}