{"abi":[{"type":"function","name":"UPGRADE_INTERFACE_VERSION","inputs":[],"outputs":[{"name":"","type":"string","internalType":"string"}],"stateMutability":"view"},{"type":"function","name":"boxOfficeAddress","inputs":[],"outputs":[{"name":"","type":"address","internalType":"address"}],"stateMutability":"view"},{"type":"function","name":"createTicketProxy","inputs":[{"name":"initialOwner","type":"address","internalType":"address"}],"outputs":[{"name":"","type":"address","internalType":"address"}],"stateMutability":"nonpayable"},{"type":"function","name":"deployedTickets","inputs":[{"name":"","type":"uint256","internalType":"uint256"}],"outputs":[{"name":"","type":"address","internalType":"address"}],"stateMutability":"view"},{"type":"function","name":"getDeployedTickets","inputs":[],"outputs":[{"name":"","type":"address[]","internalType":"address[]"}],"stateMutability":"view"},{"type":"function","name":"initialize","inputs":[{"name":"_ticketImplementation","type":"address","internalType":"address"},{"name":"_version","type":"string","internalType":"string"}],"outputs":[],"stateMutability":"nonpayable"},{"type":"function","name":"owner","inputs":[],"outputs":[{"name":"","type":"address","internalType":"address"}],"stateMutability":"view"},{"type":"function","name":"proxiableUUID","inputs":[],"outputs":[{"name":"","type":"bytes32","internalType":"bytes32"}],"stateMutability":"view"},{"type":"function","name":"renounceOwnership","inputs":[],"outputs":[],"stateMutability":"nonpayable"},{"type":"function","name":"setContractAddresses","inputs":[{"name":"_boxOfficeAddress","type":"address","internalType":"address"}],"outputs":[],"stateMutability":"nonpayable"},{"type":"function","name":"setVersion","inputs":[{"name":"_version","type":"string","internalType":"string"}],"outputs":[],"stateMutability":"nonpayable"},{"type":"function","name":"ticketImplementation","inputs":[],"outputs":[{"name":"","type":"address","internalType":"address"}],"stateMutability":"view"},{"type":"function","name":"transferOwnership","inputs":[{"name":"newOwner","type":"address","internalType":"address"}],"outputs":[],"stateMutability":"nonpayable"},{"type":"function","name":"updateTicketImplementation","inputs":[{"name":"newImplementation","type":"address","internalType":"address"}],"outputs":[],"stateMutability":"nonpayable"},{"type":"function","name":"upgradeToAndCall","inputs":[{"name":"newImplementation","type":"address","internalType":"address"},{"name":"data","type":"bytes","internalType":"bytes"}],"outputs":[],"stateMutability":"payable"},{"type":"function","name":"version","inputs":[],"outputs":[{"name":"","type":"string","internalType":"string"}],"stateMutability":"view"},{"type":"event","name":"Initialized","inputs":[{"name":"version","type":"uint64","indexed":false,"internalType":"uint64"}],"anonymous":false},{"type":"event","name":"OwnershipTransferred","inputs":[{"name":"previousOwner","type":"address","indexed":true,"internalType":"address"},{"name":"newOwner","type":"address","indexed":true,"internalType":"address"}],"anonymous":false},{"type":"event","name":"TicketProxyCreated","inputs":[{"name":"ticketProxy","type":"address","indexed":true,"internalType":"address"}],"anonymous":false},{"type":"event","name":"Upgraded","inputs":[{"name":"implementation","type":"address","indexed":true,"internalType":"address"}],"anonymous":false},{"type":"error","name":"AddressEmptyCode","inputs":[{"name":"target","type":"address","internalType":"address"}]},{"type":"error","name":"ERC1967InvalidImplementation","inputs":[{"name":"implementation","type":"address","internalType":"address"}]},{"type":"error","name":"ERC1967NonPayable","inputs":[]},{"type":"error","name":"FailedInnerCall","inputs":[]},{"type":"error","name":"InvalidInitialization","inputs":[]},{"type":"error","name":"NotInitializing","inputs":[]},{"type":"error","name":"OwnableInvalidOwner","inputs":[{"name":"owner","type":"address","internalType":"address"}]},{"type":"error","name":"OwnableUnauthorizedAccount","inputs":[{"name":"account","type":"address","internalType":"address"}]},{"type":"error","name":"UUPSUnauthorizedCallContext","inputs":[]},{"type":"error","name":"UUPSUnsupportedProxiableUUID","inputs":[{"name":"slot","type":"bytes32","internalType":"bytes32"}]}],"bytecode":{"object":"0x60a06040523060805234801561001457600080fd5b5060805161184061003e6000396000818161095a015281816109840152610ad901526118406000f3fe608060405260043610620001075760003560e01c8063715018a61162000095578063d83e7bfa1162000060578063d83e7bfa14620002f9578063de4ed3cf146200031e578063f2fde38b1462000343578063f399e22e146200036857600080fd5b8063715018a6146200024a578063788bc78c14620002625780638da5cb5b1462000287578063ad3cb1cc14620002c657600080fd5b80634f1ef28611620000d65780634f1ef28614620001c357806352d1902d14620001da57806354fd4d5014620002015780635683d2de146200022857600080fd5b80630d7c6d68146200010c5780631f88bb87146200013c578063232b158b14620001635780633a72eeab1462000188575b600080fd5b3480156200011957600080fd5b50620001246200038d565b60405162000133919062000dfb565b60405180910390f35b3480156200014957600080fd5b50620001616200015b36600462000e62565b620003f1565b005b3480156200017057600080fd5b50620001616200018236600462000e62565b62000472565b3480156200019557600080fd5b50600054620001aa906001600160a01b031681565b6040516001600160a01b03909116815260200162000133565b62000161620001d436600462000f13565b6200049e565b348015620001e757600080fd5b50620001f2620004c3565b60405190815260200162000133565b3480156200020e57600080fd5b5062000219620004e3565b60405162000133919062000fd0565b3480156200023557600080fd5b50600354620001aa906001600160a01b031681565b3480156200025757600080fd5b506200016162000579565b3480156200026f57600080fd5b50620001616200028136600462001008565b62000591565b3480156200029457600080fd5b507f9016d09d72d40fdae2fd8ceac6b6234c7706214fd39c1cd1e609a0528c199300546001600160a01b0316620001aa565b348015620002d357600080fd5b5062000219604051806040016040528060058152602001640352e302e360dc1b81525081565b3480156200030657600080fd5b50620001aa6200031836600462001049565b620005a9565b3480156200032b57600080fd5b50620001aa6200033d36600462000e62565b620005d4565b3480156200035057600080fd5b50620001616200036236600462000e62565b62000760565b3480156200037557600080fd5b50620001616200038736600462001063565b620007a4565b60606001805480602002602001604051908101604052809291908181526020018280548015620003e757602002820191906000526020600020905b81546001600160a01b03168152600190910190602001808311620003c8575b5050505050905090565b6003546001600160a01b031615620004505760405162461bcd60e51b815260206004820152601d60248201527f426f784f6666696365206164647265737320616c72656164792073657400000060448201526064015b60405180910390fd5b600380546001600160a01b0319166001600160a01b0392909216919091179055565b6200047c620008f1565b600080546001600160a01b0319166001600160a01b0392909216919091179055565b620004a86200094f565b620004b382620009f8565b620004bf828262000a02565b5050565b6000620004cf62000ace565b50600080516020620017eb83398151915290565b60028054620004f290620010ad565b80601f01602080910402602001604051908101604052809291908181526020018280546200052090620010ad565b8015620005715780601f10620005455761010080835404028352916020019162000571565b820191906000526020600020905b8154815290600101906020018083116200055357829003601f168201915b505050505081565b62000583620008f1565b6200058f600062000b18565b565b6200059b620008f1565b6002620004bf82826200113b565b60018181548110620005ba57600080fd5b6000918252602090912001546001600160a01b0316905081565b6003546000906001600160a01b031633146200063f5760405162461bcd60e51b8152602060048201526024808201527f43616c6c6572206973206e6f742074686520426f784f666669636520636f6e746044820152631c9858dd60e21b606482015260840162000447565b600063f399e22e60e01b8360026040516024016200065f92919062001208565b60408051601f198184030181529181526020820180516001600160e01b03166001600160e01b031990941693909317909252600080549251919350916001600160a01b0316908390620006b29062000ded565b620006bf929190620012ab565b604051809103906000f080158015620006dc573d6000803e3d6000fd5b5060018054808201825560009182527fb10e2d527612073b26eecdfd717e6a320cf44b4afac2b0732d9fcbe2b7fa0cf60180546001600160a01b0319166001600160a01b038416908117909155604051929350839290917f921a2f25ad8eeed2d79f7b3300fb94d379240a97945e6c75848cba3a6d609ca491a2925050505b919050565b6200076a620008f1565b6001600160a01b0381166200079657604051631e4fbdf760e01b81526000600482015260240162000447565b620007a18162000b18565b50565b7ff0c57e16840df040f15088dc2f81fe391c3923bec73e23a9662efc9c229c6a008054600160401b810460ff16159067ffffffffffffffff16600081158015620007eb5750825b905060008267ffffffffffffffff166001148015620008095750303b155b90508115801562000818575080155b15620008375760405163f92ee8a960e01b815260040160405180910390fd5b845467ffffffffffffffff1916600117855583156200086257845460ff60401b1916600160401b1785555b6200086d3362000b89565b6200087762000b9e565b600080546001600160a01b0319166001600160a01b0389161790556002620008a087826200113b565b508315620008e857845460ff60401b19168555604051600181527fc7f505b2f371ae2175ee4913f4499e1f2633a7b5936321eed1cdaeb6115181d29060200160405180910390a15b50505050505050565b33620009247f9016d09d72d40fdae2fd8ceac6b6234c7706214fd39c1cd1e609a0528c199300546001600160a01b031690565b6001600160a01b0316146200058f5760405163118cdaa760e01b815233600482015260240162000447565b306001600160a01b037f0000000000000000000000000000000000000000000000000000000000000000161480620009d957507f00000000000000000000000000000000000000000000000000000000000000006001600160a01b0316620009cd600080516020620017eb833981519152546001600160a01b031690565b6001600160a01b031614155b156200058f5760405163703e46dd60e11b815260040160405180910390fd5b620007a1620008f1565b816001600160a01b03166352d1902d6040518163ffffffff1660e01b8152600401602060405180830381865afa92505050801562000a5f575060408051601f3d908101601f1916820190925262000a5c91810190620012d1565b60015b62000a8957604051634c9c8ce360e01b81526001600160a01b038316600482015260240162000447565b600080516020620017eb833981519152811462000abd57604051632a87526960e21b81526004810182905260240162000447565b62000ac9838362000ba8565b505050565b306001600160a01b037f000000000000000000000000000000000000000000000000000000000000000016146200058f5760405163703e46dd60e11b815260040160405180910390fd5b7f9016d09d72d40fdae2fd8ceac6b6234c7706214fd39c1cd1e609a0528c19930080546001600160a01b031981166001600160a01b03848116918217845560405192169182907f8be0079c531659141344cd1fd0a4f28419497f9722a3daafe3b4186f6b6457e090600090a3505050565b62000b9362000c05565b620007a18162000c4f565b6200058f62000c05565b62000bb38262000c59565b6040516001600160a01b038316907fbc7cd75a20ee27fd9adebab32041f755214dbc6bffa90cc0225b39da2e5c2d3b90600090a280511562000bfb5762000ac9828262000cc1565b620004bf62000d3d565b7ff0c57e16840df040f15088dc2f81fe391c3923bec73e23a9662efc9c229c6a0054600160401b900460ff166200058f57604051631afcd79f60e31b815260040160405180910390fd5b6200076a62000c05565b806001600160a01b03163b60000362000c9157604051634c9c8ce360e01b81526001600160a01b038216600482015260240162000447565b600080516020620017eb83398151915280546001600160a01b0319166001600160a01b0392909216919091179055565b6060600080846001600160a01b03168460405162000ce09190620012eb565b600060405180830381855af49150503d806000811462000d1d576040519150601f19603f3d011682016040523d82523d6000602084013e62000d22565b606091505b509150915062000d3485838362000d5d565b95945050505050565b34156200058f5760405163b398979f60e01b815260040160405180910390fd5b60608262000d765762000d708262000dc3565b62000dbc565b815115801562000d8e57506001600160a01b0384163b155b1562000db957604051639996b31560e01b81526001600160a01b038516600482015260240162000447565b50805b9392505050565b80511562000dd45780518082602001fd5b604051630a12f52160e11b815260040160405180910390fd5b6104e1806200130a83390190565b6020808252825182820181905260009190848201906040850190845b8181101562000e3e5783516001600160a01b03168352928401929184019160010162000e17565b50909695505050505050565b80356001600160a01b03811681146200075b57600080fd5b60006020828403121562000e7557600080fd5b62000dbc8262000e4a565b634e487b7160e01b600052604160045260246000fd5b600067ffffffffffffffff8084111562000eb45762000eb462000e80565b604051601f8501601f19908116603f0116810190828211818310171562000edf5762000edf62000e80565b8160405280935085815286868601111562000ef957600080fd5b858560208301376000602087830101525050509392505050565b6000806040838503121562000f2757600080fd5b62000f328362000e4a565b9150602083013567ffffffffffffffff81111562000f4f57600080fd5b8301601f8101851362000f6157600080fd5b62000f728582356020840162000e96565b9150509250929050565b60005b8381101562000f9957818101518382015260200162000f7f565b50506000910152565b6000815180845262000fbc81602086016020860162000f7c565b601f01601f19169290920160200192915050565b60208152600062000dbc602083018462000fa2565b600082601f83011262000ff757600080fd5b62000dbc8383356020850162000e96565b6000602082840312156200101b57600080fd5b813567ffffffffffffffff8111156200103357600080fd5b620010418482850162000fe5565b949350505050565b6000602082840312156200105c57600080fd5b5035919050565b600080604083850312156200107757600080fd5b620010828362000e4a565b9150602083013567ffffffffffffffff8111156200109f57600080fd5b62000f728582860162000fe5565b600181811c90821680620010c257607f821691505b602082108103620010e357634e487b7160e01b600052602260045260246000fd5b50919050565b601f82111562000ac957600081815260208120601f850160051c81016020861015620011125750805b601f850160051c820191505b8181101562001133578281556001016200111e565b505050505050565b815167ffffffffffffffff81111562001158576200115862000e80565b6200117081620011698454620010ad565b84620010e9565b602080601f831160018114620011a857600084156200118f5750858301515b600019600386901b1c1916600185901b17855562001133565b600085815260208120601f198616915b82811015620011d957888601518255948401946001909101908401620011b8565b5085821015620011f85787850151600019600388901b60f8161c191681555b5050505050600190811b01905550565b60018060a01b038316815260006020604081840152600084546200122c81620010ad565b80604087015260606001808416600081146200125157600181146200126c576200129c565b60ff1985168984015283151560051b8901830195506200129c565b896000528660002060005b85811015620012945781548b820186015290830190880162001277565b8a0184019650505b50939998505050505050505050565b6001600160a01b0383168152604060208201819052600090620010419083018462000fa2565b600060208284031215620012e457600080fd5b5051919050565b60008251620012ff81846020870162000f7c565b919091019291505056fe60806040526040516104e13803806104e1833981016040819052610022916102de565b61002e82826000610035565b50506103fb565b61003e83610061565b60008251118061004b5750805b1561005c5761005a83836100a1565b505b505050565b61006a816100cd565b6040516001600160a01b038216907fbc7cd75a20ee27fd9adebab32041f755214dbc6bffa90cc0225b39da2e5c2d3b90600090a250565b60606100c683836040518060600160405280602781526020016104ba60279139610180565b9392505050565b6001600160a01b0381163b61013f5760405162461bcd60e51b815260206004820152602d60248201527f455243313936373a206e657720696d706c656d656e746174696f6e206973206e60448201526c1bdd08184818dbdb9d1c9858dd609a1b60648201526084015b60405180910390fd5b7f360894a13ba1a3210667c828492db98dca3e2076cc3735a920a3ca505d382bbc80546001600160a01b0319166001600160a01b0392909216919091179055565b6060600080856001600160a01b03168560405161019d91906103ac565b600060405180830381855af49150503d80600081146101d8576040519150601f19603f3d011682016040523d82523d6000602084013e6101dd565b606091505b5090925090506101ef868383876101f9565b9695505050505050565b60608315610268578251600003610261576001600160a01b0385163b6102615760405162461bcd60e51b815260206004820152601d60248201527f416464726573733a2063616c6c20746f206e6f6e2d636f6e74726163740000006044820152606401610136565b5081610272565b610272838361027a565b949350505050565b81511561028a5781518083602001fd5b8060405162461bcd60e51b815260040161013691906103c8565b634e487b7160e01b600052604160045260246000fd5b60005b838110156102d55781810151838201526020016102bd565b50506000910152565b600080604083850312156102f157600080fd5b82516001600160a01b038116811461030857600080fd5b60208401519092506001600160401b038082111561032557600080fd5b818501915085601f83011261033957600080fd5b81518181111561034b5761034b6102a4565b604051601f8201601f19908116603f01168101908382118183101715610373576103736102a4565b8160405282815288602084870101111561038c57600080fd5b61039d8360208301602088016102ba565b80955050505050509250929050565b600082516103be8184602087016102ba565b9190910192915050565b60208152600082518060208401526103e78160408501602087016102ba565b601f01601f19169190910160400192915050565b60b1806104096000396000f3fe608060405236601057600e6013565b005b600e5b601f601b6021565b6058565b565b600060537f360894a13ba1a3210667c828492db98dca3e2076cc3735a920a3ca505d382bbc546001600160a01b031690565b905090565b3660008037600080366000845af43d6000803e8080156076573d6000f35b3d6000fdfea264697066735822122027f562cde8265aa90118a53b2f65370962feb418519bf39bfc7ccbb34402bb5164736f6c63430008140033416464726573733a206c6f772d6c6576656c2064656c65676174652063616c6c206661696c6564360894a13ba1a3210667c828492db98dca3e2076cc3735a920a3ca505d382bbca26469706673582212204fdbaf8833c529a4850fd0d0737c2f718ec96c61aab853f82b19a1595675a0df64736f6c63430008140033","linkReferences":{}},"methodIdentifiers":{"UPGRADE_INTERFACE_VERSION()":"ad3cb1cc","boxOfficeAddress()":"5683d2de","createTicketProxy(address)":"de4ed3cf","deployedTickets(uint256)":"d83e7bfa","getDeployedTickets()":"0d7c6d68","initialize(address,string)":"f399e22e","owner()":"8da5cb5b","proxiableUUID()":"52d1902d","renounceOwnership()":"715018a6","setContractAddresses(address)":"1f88bb87","setVersion(string)":"788bc78c","ticketImplementation()":"3a72eeab","transferOwnership(address)":"f2fde38b","updateTicketImplementation(address)":"232b158b","upgradeToAndCall(address,bytes)":"4f1ef286","version()":"54fd4d50"},"id":95}