{"abi":[{"type":"function","name":"MAX_TICKETS_PER_WALLET","inputs":[],"outputs":[{"name":"","type":"uint256","internalType":"uint256"}],"stateMutability":"view"},{"type":"function","name":"UPGRADE_INTERFACE_VERSION","inputs":[],"outputs":[{"name":"","type":"string","internalType":"string"}],"stateMutability":"view"},{"type":"function","name":"balanceOf","inputs":[{"name":"account","type":"address","internalType":"address"},{"name":"id","type":"uint256","internalType":"uint256"}],"outputs":[{"name":"","type":"uint256","internalType":"uint256"}],"stateMutability":"view"},{"type":"function","name":"balanceOfBatch","inputs":[{"name":"accounts","type":"address[]","internalType":"address[]"},{"name":"ids","type":"uint256[]","internalType":"uint256[]"}],"outputs":[{"name":"","type":"uint256[]","internalType":"uint256[]"}],"stateMutability":"view"},{"type":"function","name":"burnTokens","inputs":[{"name":"tokenId","type":"uint256","internalType":"uint256"},{"name":"amount","type":"uint256","internalType":"uint256"},{"name":"owner","type":"address","internalType":"address"}],"outputs":[],"stateMutability":"nonpayable"},{"type":"function","name":"initialize","inputs":[{"name":"initialOwner","type":"address","internalType":"address"},{"name":"_showContractAddress","type":"address","internalType":"address"}],"outputs":[],"stateMutability":"nonpayable"},{"type":"function","name":"isApprovedForAll","inputs":[{"name":"account","type":"address","internalType":"address"},{"name":"operator","type":"address","internalType":"address"}],"outputs":[{"name":"","type":"bool","internalType":"bool"}],"stateMutability":"view"},{"type":"function","name":"owner","inputs":[],"outputs":[{"name":"","type":"address","internalType":"address"}],"stateMutability":"view"},{"type":"function","name":"proxiableUUID","inputs":[],"outputs":[{"name":"","type":"bytes32","internalType":"bytes32"}],"stateMutability":"view"},{"type":"function","name":"purchaseTickets","inputs":[{"name":"showId","type":"bytes32","internalType":"bytes32"},{"name":"amount","type":"uint256","internalType":"uint256"}],"outputs":[],"stateMutability":"payable"},{"type":"function","name":"renounceOwnership","inputs":[],"outputs":[],"stateMutability":"nonpayable"},{"type":"function","name":"safeBatchTransferFrom","inputs":[{"name":"from","type":"address","internalType":"address"},{"name":"to","type":"address","internalType":"address"},{"name":"ids","type":"uint256[]","internalType":"uint256[]"},{"name":"values","type":"uint256[]","internalType":"uint256[]"},{"name":"data","type":"bytes","internalType":"bytes"}],"outputs":[],"stateMutability":"nonpayable"},{"type":"function","name":"safeTransferFrom","inputs":[{"name":"from","type":"address","internalType":"address"},{"name":"to","type":"address","internalType":"address"},{"name":"id","type":"uint256","internalType":"uint256"},{"name":"value","type":"uint256","internalType":"uint256"},{"name":"data","type":"bytes","internalType":"bytes"}],"outputs":[],"stateMutability":"nonpayable"},{"type":"function","name":"setApprovalForAll","inputs":[{"name":"operator","type":"address","internalType":"address"},{"name":"approved","type":"bool","internalType":"bool"}],"outputs":[],"stateMutability":"nonpayable"},{"type":"function","name":"setDefaultURI","inputs":[{"name":"newDefaultURI","type":"string","internalType":"string"},{"name":"showId","type":"bytes32","internalType":"bytes32"}],"outputs":[],"stateMutability":"nonpayable"},{"type":"function","name":"setTokenURI","inputs":[{"name":"showId","type":"bytes32","internalType":"bytes32"},{"name":"tokenId","type":"uint256","internalType":"uint256"},{"name":"newURI","type":"string","internalType":"string"}],"outputs":[],"stateMutability":"nonpayable"},{"type":"function","name":"showInstance","inputs":[],"outputs":[{"name":"","type":"address","internalType":"contract IShow"}],"stateMutability":"view"},{"type":"function","name":"supportsInterface","inputs":[{"name":"interfaceId","type":"bytes4","internalType":"bytes4"}],"outputs":[{"name":"","type":"bool","internalType":"bool"}],"stateMutability":"view"},{"type":"function","name":"transferOwnership","inputs":[{"name":"newOwner","type":"address","internalType":"address"}],"outputs":[],"stateMutability":"nonpayable"},{"type":"function","name":"upgradeToAndCall","inputs":[{"name":"newImplementation","type":"address","internalType":"address"},{"name":"data","type":"bytes","internalType":"bytes"}],"outputs":[],"stateMutability":"payable"},{"type":"function","name":"uri","inputs":[{"name":"tokenId","type":"uint256","internalType":"uint256"}],"outputs":[{"name":"","type":"string","internalType":"string"}],"stateMutability":"view"},{"type":"event","name":"ApprovalForAll","inputs":[{"name":"account","type":"address","indexed":true,"internalType":"address"},{"name":"operator","type":"address","indexed":true,"internalType":"address"},{"name":"approved","type":"bool","indexed":false,"internalType":"bool"}],"anonymous":false},{"type":"event","name":"Initialized","inputs":[{"name":"version","type":"uint64","indexed":false,"internalType":"uint64"}],"anonymous":false},{"type":"event","name":"OwnershipTransferred","inputs":[{"name":"previousOwner","type":"address","indexed":true,"internalType":"address"},{"name":"newOwner","type":"address","indexed":true,"internalType":"address"}],"anonymous":false},{"type":"event","name":"TicketPurchased","inputs":[{"name":"buyer","type":"address","indexed":true,"internalType":"address"},{"name":"showId","type":"bytes32","indexed":true,"internalType":"bytes32"},{"name":"ticketId","type":"uint256","indexed":true,"internalType":"uint256"},{"name":"amount","type":"uint256","indexed":false,"internalType":"uint256"},{"name":"fanStatus","type":"uint256","indexed":false,"internalType":"uint256"}],"anonymous":false},{"type":"event","name":"TransferBatch","inputs":[{"name":"operator","type":"address","indexed":true,"internalType":"address"},{"name":"from","type":"address","indexed":true,"internalType":"address"},{"name":"to","type":"address","indexed":true,"internalType":"address"},{"name":"ids","type":"uint256[]","indexed":false,"internalType":"uint256[]"},{"name":"values","type":"uint256[]","indexed":false,"internalType":"uint256[]"}],"anonymous":false},{"type":"event","name":"TransferSingle","inputs":[{"name":"operator","type":"address","indexed":true,"internalType":"address"},{"name":"from","type":"address","indexed":true,"internalType":"address"},{"name":"to","type":"address","indexed":true,"internalType":"address"},{"name":"id","type":"uint256","indexed":false,"internalType":"uint256"},{"name":"value","type":"uint256","indexed":false,"internalType":"uint256"}],"anonymous":false},{"type":"event","name":"URI","inputs":[{"name":"value","type":"string","indexed":false,"internalType":"string"},{"name":"id","type":"uint256","indexed":true,"internalType":"uint256"}],"anonymous":false},{"type":"event","name":"Upgraded","inputs":[{"name":"implementation","type":"address","indexed":true,"internalType":"address"}],"anonymous":false},{"type":"error","name":"AddressEmptyCode","inputs":[{"name":"target","type":"address","internalType":"address"}]},{"type":"error","name":"ERC1155InsufficientBalance","inputs":[{"name":"sender","type":"address","internalType":"address"},{"name":"balance","type":"uint256","internalType":"uint256"},{"name":"needed","type":"uint256","internalType":"uint256"},{"name":"tokenId","type":"uint256","internalType":"uint256"}]},{"type":"error","name":"ERC1155InvalidApprover","inputs":[{"name":"approver","type":"address","internalType":"address"}]},{"type":"error","name":"ERC1155InvalidArrayLength","inputs":[{"name":"idsLength","type":"uint256","internalType":"uint256"},{"name":"valuesLength","type":"uint256","internalType":"uint256"}]},{"type":"error","name":"ERC1155InvalidOperator","inputs":[{"name":"operator","type":"address","internalType":"address"}]},{"type":"error","name":"ERC1155InvalidReceiver","inputs":[{"name":"receiver","type":"address","internalType":"address"}]},{"type":"error","name":"ERC1155InvalidSender","inputs":[{"name":"sender","type":"address","internalType":"address"}]},{"type":"error","name":"ERC1155MissingApprovalForAll","inputs":[{"name":"operator","type":"address","internalType":"address"},{"name":"owner","type":"address","internalType":"address"}]},{"type":"error","name":"ERC1967InvalidImplementation","inputs":[{"name":"implementation","type":"address","internalType":"address"}]},{"type":"error","name":"ERC1967NonPayable","inputs":[]},{"type":"error","name":"FailedInnerCall","inputs":[]},{"type":"error","name":"InvalidInitialization","inputs":[]},{"type":"error","name":"NotInitializing","inputs":[]},{"type":"error","name":"OwnableInvalidOwner","inputs":[{"name":"owner","type":"address","internalType":"address"}]},{"type":"error","name":"OwnableUnauthorizedAccount","inputs":[{"name":"account","type":"address","internalType":"address"}]},{"type":"error","name":"ReentrancyGuardReentrantCall","inputs":[]},{"type":"error","name":"UUPSUnauthorizedCallContext","inputs":[]},{"type":"error","name":"UUPSUnsupportedProxiableUUID","inputs":[{"name":"slot","type":"bytes32","internalType":"bytes32"}]}],"bytecode":{"object":"0x60a06040523060805234801561001457600080fd5b50608051612f5861003e6000396000818161149a015281816114c301526116040152612f586000f3fe6080604052600436106101295760003560e01c80635dbab132116100ab578063a7d225971161006f578063a7d2259714610354578063ad3cb1cc14610374578063e985e9c5146103a5578063f242432a146103c5578063f2fde38b146103e5578063fa29a69b1461040557600080fd5b80635dbab132146102a2578063715018a6146102c257806387f9ca5d146102d75780638da5cb5b146102f7578063a22cb4651461033457600080fd5b8063404f49d1116100f2578063404f49d1146101f5578063485cc9551461022d5780634e1273f41461024d5780634f1ef2861461027a57806352d1902d1461028d57600080fd5b8062fdd58e1461012e57806301ffc9a7146101615780630e89341c14610191578063229df6d6146101be5780632eb2c2d6146101d3575b600080fd5b34801561013a57600080fd5b5061014e6101493660046123b6565b610418565b6040519081526020015b60405180910390f35b34801561016d57600080fd5b5061018161017c3660046123f8565b61044f565b6040519015158152602001610158565b34801561019d57600080fd5b506101b16101ac366004612415565b61049f565b604051610158919061247e565b3480156101ca57600080fd5b5061014e600581565b3480156101df57600080fd5b506101f36101ee3660046125d4565b610586565b005b34801561020157600080fd5b50600054610215906001600160a01b031681565b6040516001600160a01b039091168152602001610158565b34801561023957600080fd5b506101f3610248366004612681565b6105f2565b34801561025957600080fd5b5061026d6102683660046126ba565b610773565b60405161015891906127b6565b6101f36102883660046127c9565b610847565b34801561029957600080fd5b5061014e610866565b3480156102ae57600080fd5b506101f36102bd36600461280e565b610883565b3480156102ce57600080fd5b506101f3610953565b3480156102e357600080fd5b506101f36102f2366004612852565b610967565b34801561030357600080fd5b507f9016d09d72d40fdae2fd8ceac6b6234c7706214fd39c1cd1e609a0528c199300546001600160a01b0316610215565b34801561034057600080fd5b506101f361034f366004612899565b6109e2565b34801561036057600080fd5b506101f361036f3660046128c7565b6109ed565b34801561038057600080fd5b506101b1604051806040016040528060058152602001640352e302e360dc1b81525081565b3480156103b157600080fd5b506101816103c0366004612681565b610b21565b3480156103d157600080fd5b506101f36103e0366004612916565b610b6e565b3480156103f157600080fd5b506101f361040036600461297e565b610bcd565b6101f361041336600461299b565b610c0b565b6000818152600080516020612ed5833981519152602090815260408083206001600160a01b03861684529091529020545b92915050565b60006001600160e01b03198216636cdb3d1360e11b148061048057506001600160e01b031982166303a24d0760e21b145b8061044957506301ffc9a760e01b6001600160e01b0319831614610449565b6000818152600160205260408120805460609291906104bd906129bd565b80601f01602080910402602001604051908101604052809291908181526020018280546104e9906129bd565b80156105365780601f1061050b57610100808354040283529160200191610536565b820191906000526020600020905b81548152906001019060200180831161051957829003601f168201915b5050505050905060008151111561054d5792915050565b60026105588461135c565b6040516020016105699291906129f1565b604051602081830303815290604052915050919050565b50919050565b336001600160a01b03861681148015906105a757506105a58682610b21565b155b156105dd5760405163711bec9160e11b81526001600160a01b038083166004830152871660248201526044015b60405180910390fd5b6105ea86868686866113ee565b505050505050565b7ff0c57e16840df040f15088dc2f81fe391c3923bec73e23a9662efc9c229c6a008054600160401b810460ff1615906001600160401b03166000811580156106375750825b90506000826001600160401b031660011480156106535750303b155b905081158015610661575080155b1561067f5760405163f92ee8a960e01b815260040160405180910390fd5b845467ffffffffffffffff1916600117855583156106a957845460ff60401b1916600160401b1785555b6106ca6040518060600160405280602e8152602001612ef5602e9139611455565b6106d2611466565b6106db87611476565b6106e3611487565b600080546001600160a01b0319166001600160a01b03881617905560408051606081019091526025808252612e9060208301396002906107239082612ace565b50831561076a57845460ff60401b19168555604051600181527fc7f505b2f371ae2175ee4913f4499e1f2633a7b5936321eed1cdaeb6115181d29060200160405180910390a15b50505050505050565b606081518351146107a45781518351604051635b05999160e01b8152600481019290925260248201526044016105d4565b600083516001600160401b038111156107bf576107bf612491565b6040519080825280602002602001820160405280156107e8578160200160208202803683370190505b50905060005b845181101561083f5760208082028601015161081290602080840287010151610418565b82828151811061082457610824612b8d565b602090810291909101015261083881612bb9565b90506107ee565b509392505050565b61084f61148f565b61085882611534565b610862828261153c565b5050565b60006108706115f9565b50600080516020612eb583398151915290565b600054604051632769b96d60e11b8152336004820152602481018390526001600160a01b0390911690634ed372da90604401602060405180830381865afa1580156108d2573d6000803e3d6000fd5b505050506040513d601f19601f820116820180604052508101906108f69190612bd2565b6109425760405162461bcd60e51b815260206004820152601b60248201527f43616c6c6572206973206e6f7420746865206f7267616e697a6572000000000060448201526064016105d4565b600261094e8382612ace565b505050565b61095b611642565b610965600061169d565b565b6000546001600160a01b031633146109d75760405162461bcd60e51b815260206004820152602d60248201527f4f6e6c79207468652053686f7720636f6e74726163742063616e2063616c6c2060448201526c3a3434b990333ab731ba34b7b760991b60648201526084016105d4565b61094e81848461170e565b610862338383611776565b600054604051634bbe5c4f60e11b8152600481018590526001600160a01b039091169063977cb89e90602401602060405180830381865afa158015610a36573d6000803e3d6000fd5b505050506040513d601f19601f82011682018060405250810190610a5a9190612bef565b6001600160a01b0316336001600160a01b031614610acb5760405162461bcd60e51b815260206004820152602860248201527f43616c6c6572206973206e6f7420746865206f7267616e697a6572206f6620746044820152676869732073686f7760c01b60648201526084016105d4565b6000828152600160205260409020610ae38282612ace565b50817f6bb7ff708619ba0610cba295a58592e0451dee2622938c8755667688daf3529b82604051610b14919061247e565b60405180910390a2505050565b6001600160a01b0391821660009081527f88be536d5240c274a3b1d3a1be54482fd9caa294f08c62a7cde569f49a3c45016020908152604080832093909416825291909152205460ff1690565b336001600160a01b0386168114801590610b8f5750610b8d8682610b21565b155b15610bc05760405163711bec9160e11b81526001600160a01b038083166004830152871660248201526044016105d4565b6105ea868686868661181e565b610bd5611642565b6001600160a01b038116610bff57604051631e4fbdf760e01b8152600060048201526024016105d4565b610c088161169d565b50565b610c136118a3565b600080546040516346c2c8a760e01b8152600481018590526001600160a01b03909116906346c2c8a790602401602060405180830381865afa158015610c5d573d6000803e3d6000fd5b505050506040513d601f19601f82011682018060405250810190610c819190612c22565b6007811115610c9257610c92612c0c565b14610cf15760405162461bcd60e51b815260206004820152602960248201527f53686f77206973206e6f7420617661696c61626c6520666f72207469636b657460448201526820707572636861736560b81b60648201526084016105d4565b60008054604051635b9a1e0960e01b8152600481018590523360248201526001600160a01b0390911690635b9a1e0990604401600060405180830381865afa158015610d41573d6000803e3d6000fd5b505050506040513d6000823e601f3d908101601f19168201604052610d699190810190612c43565b80519091506005610d7a8483612cd3565b1115610dd35760405162461bcd60e51b815260206004820152602260248201527f45786365656473206d6178696d756d207469636b657473207065722077616c6c604482015261195d60f21b60648201526084016105d4565b60008054604051630610418760e41b8152600481018790526001600160a01b0390911690636104187090602401602060405180830381865afa158015610e1d573d6000803e3d6000fd5b505050506040513d601f19601f82011682018060405250810190610e419190612ce6565b600054604051631883b07960e21b8152600481018890529192506001600160a01b03169063620ec1e490602401602060405180830381865afa158015610e8b573d6000803e3d6000fd5b505050506040513d601f19601f82011682018060405250810190610eaf9190612ce6565b600054604051630610418760e41b81526004810188905286916001600160a01b031690636104187090602401602060405180830381865afa158015610ef8573d6000803e3d6000fd5b505050506040513d601f19601f82011682018060405250810190610f1c9190612ce6565b610f269190612cd3565b1115610f745760405162461bcd60e51b815260206004820152601c60248201527f4e6f7420656e6f756768207469636b65747320617661696c61626c650000000060448201526064016105d4565b6000610f7f866118ed565b600080546040516331cea0e760e21b8152600481018a905292935090916001600160a01b039091169063c73a839c906024016040805180830381865afa158015610fcd573d6000803e3d6000fd5b505050506040513d601f19601f82011682018060405250810190610ff19190612cff565b90506000866110098484600001518560200151611a20565b6110139190612d4d565b90508034146110645760405162461bcd60e51b815260206004820152601860248201527f496e636f7272656374207061796d656e7420616d6f756e74000000000000000060448201526064016105d4565b600054604051638526663560e01b8152600481018a90526001600160a01b039091169063852666359034906024016000604051808303818588803b1580156110ab57600080fd5b505af11580156110bf573d6000803e3d6000fd5b505050505060008833868a604051602001611105949392919093845260609290921b6bffffffffffffffffffffffff191660208401526034830152605482015260740190565b6040516020818303038152906040528051906020012060001c905061113b33828a60405180602001604052806000815250611b3f565b60005460405163de44006f60e01b8152600481018b9052336024820152604481018390526001600160a01b039091169063de44006f90606401600060405180830381600087803b15801561118e57600080fd5b505af11580156111a2573d6000803e3d6000fd5b5050600054604051632f51f71760e21b8152600481018d9052602481018590523460448201526001600160a01b03909116925063bd47dc5c9150606401600060405180830381600087803b1580156111f957600080fd5b505af115801561120d573d6000803e3d6000fd5b50506000546001600160a01b03169150630d08c3c990508a6112324262278d00612cd3565b6040516001600160e01b031960e085901b16815260048101929092526024820152604401600060405180830381600087803b15801561127057600080fd5b505af1158015611284573d6000803e3d6000fd5b5050600054604051630f0faed760e31b8152600481018d9052602481018c90526001600160a01b03909116925063787d76b89150604401600060405180830381600087803b1580156112d557600080fd5b505af11580156112e9573d6000803e3d6000fd5b5050604080518b8152602081018890528493508c925033917ff53f6fe7b2b86daf10364d1fc7e66dfc3adc1482215b61947bf0ec712e129908910160405180910390a45050505050505061086260017f9b779b17422d0df92223018b32b4d1fa46e071723d6817e2486d003becc55f0055565b6060600061136983611bc2565b60010190506000816001600160401b0381111561138857611388612491565b6040519080825280601f01601f1916602001820160405280156113b2576020820181803683370190505b5090508181016020015b600019016f181899199a1a9b1b9c1cb0b131b232b360811b600a86061a8153600a85049450846113bc57509392505050565b6001600160a01b03841661141857604051632bfa23e760e11b8152600060048201526024016105d4565b6001600160a01b03851661144157604051626a0d4560e21b8152600060048201526024016105d4565b61144e8585858585611c9a565b5050505050565b61145d611ced565b610c0881611d36565b61146e611ced565b610965611d47565b61147e611ced565b610c0881611d4f565b610965611ced565b306001600160a01b037f000000000000000000000000000000000000000000000000000000000000000016148061151657507f00000000000000000000000000000000000000000000000000000000000000006001600160a01b031661150a600080516020612eb5833981519152546001600160a01b031690565b6001600160a01b031614155b156109655760405163703e46dd60e11b815260040160405180910390fd5b610c08611642565b816001600160a01b03166352d1902d6040518163ffffffff1660e01b8152600401602060405180830381865afa925050508015611596575060408051601f3d908101601f1916820190925261159391810190612ce6565b60015b6115be57604051634c9c8ce360e01b81526001600160a01b03831660048201526024016105d4565b600080516020612eb583398151915281146115ef57604051632a87526960e21b8152600481018290526024016105d4565b61094e8383611d57565b306001600160a01b037f000000000000000000000000000000000000000000000000000000000000000016146109655760405163703e46dd60e11b815260040160405180910390fd5b336116747f9016d09d72d40fdae2fd8ceac6b6234c7706214fd39c1cd1e609a0528c199300546001600160a01b031690565b6001600160a01b0316146109655760405163118cdaa760e01b81523360048201526024016105d4565b7f9016d09d72d40fdae2fd8ceac6b6234c7706214fd39c1cd1e609a0528c19930080546001600160a01b031981166001600160a01b03848116918217845560405192169182907f8be0079c531659141344cd1fd0a4f28419497f9722a3daafe3b4186f6b6457e090600090a3505050565b6001600160a01b03831661173757604051626a0d4560e21b8152600060048201526024016105d4565b604080516001808252602082018590528183019081526060820184905260a0820190925260006080820181815291929161144e91879185908590611c9a565b600080516020612ed58339815191526001600160a01b0383166117ae5760405162ced3e160e81b8152600060048201526024016105d4565b6001600160a01b038481166000818152600184016020908152604080832094881680845294825291829020805460ff191687151590811790915591519182527f17307eab39ab6107e8899845ad3d59bd9653f200f220920489ca2b5937696c31910160405180910390a350505050565b6001600160a01b03841661184857604051632bfa23e760e11b8152600060048201526024016105d4565b6001600160a01b03851661187157604051626a0d4560e21b8152600060048201526024016105d4565b6040805160018082526020820186905281830190815260608201859052608082019092529061076a8787848487611c9a565b7f9b779b17422d0df92223018b32b4d1fa46e071723d6817e2486d003becc55f008054600119016118e757604051633ee5aeb560e01b815260040160405180910390fd5b60029055565b60008054604051631883b07960e21b81526004810184905282916001600160a01b03169063620ec1e490602401602060405180830381865afa158015611937573d6000803e3d6000fd5b505050506040513d601f19601f8201168201806040525081019061195b9190612ce6565b60008054604051630610418760e41b81526004810187905292935090916001600160a01b0390911690636104187090602401602060405180830381865afa1580156119aa573d6000803e3d6000fd5b505050506040513d601f19601f820116820180604052508101906119ce9190612ce6565b90506000826119de836064612d4d565b6119e89190612d64565b90506000600a6119f9836009612cd3565b611a039190612d64565b905060008111611a14576001611a16565b805b9695505050505050565b600060018410158015611a345750600a8411155b611a755760405162461bcd60e51b8152602060048201526012602482015271496e76616c69642066616e2073746174757360701b60448201526064016105d4565b82821015611add5760405162461bcd60e51b815260206004820152602f60248201527f4d6178207072696365206d7573742062652067726561746572206f722065717560448201526e616c20746f206d696e20707269636560881b60648201526084016105d4565b8360011480611aeb57508282145b15611af7575081611b38565b6000611b038484612d86565b90506000611b12600983612d64565b9050611b1f600187612d86565b611b299082612d4d565b611b339086612cd3565b925050505b9392505050565b6001600160a01b038416611b6957604051632bfa23e760e11b8152600060048201526024016105d4565b604080516001808252602082018690528183019081526060820185905260808201909252906105ea600087848487611c9a565b60017f9b779b17422d0df92223018b32b4d1fa46e071723d6817e2486d003becc55f0055565b60008072184f03e93ff9f4daa797ed6e38ed64bf6a1f0160401b8310611c015772184f03e93ff9f4daa797ed6e38ed64bf6a1f0160401b830492506040015b6d04ee2d6d415b85acef81000000008310611c2d576d04ee2d6d415b85acef8100000000830492506020015b662386f26fc100008310611c4b57662386f26fc10000830492506010015b6305f5e1008310611c63576305f5e100830492506008015b6127108310611c7757612710830492506004015b60648310611c89576064830492506002015b600a83106104495760010192915050565b611ca685858585611dad565b6001600160a01b0384161561144e5782513390600103611cdf5760208481015190840151611cd8838989858589611fdb565b50506105ea565b6105ea8187878787876120ff565b7ff0c57e16840df040f15088dc2f81fe391c3923bec73e23a9662efc9c229c6a0054600160401b900460ff1661096557604051631afcd79f60e31b815260040160405180910390fd5b611d3e611ced565b610c08816121e8565b611b9c611ced565b610bd5611ced565b611d6082612222565b6040516001600160a01b038316907fbc7cd75a20ee27fd9adebab32041f755214dbc6bffa90cc0225b39da2e5c2d3b90600090a2805115611da55761094e8282612287565b6108626122fd565b80518251600080516020612ed58339815191529114611dec5782518251604051635b05999160e01b8152600481019290925260248201526044016105d4565b3360005b8451811015611efb576020818102868101820151908601909101516001600160a01b03891615611ea3576000828152602086815260408083206001600160a01b038d16845290915290205481811015611e7c576040516303dee4c560e01b81526001600160a01b038b1660048201526024810182905260448101839052606481018490526084016105d4565b6000838152602087815260408083206001600160a01b038e16845290915290209082900390555b6001600160a01b03881615611ee8576000828152602086815260408083206001600160a01b038c16845290915281208054839290611ee2908490612cd3565b90915550505b505080611ef490612bb9565b9050611df0565b508351600103611f7c5760208401516000906020850151909150866001600160a01b0316886001600160a01b0316846001600160a01b03167fc3d58168c5ae7397731d063d5bbf3d657854427343f4c083240f7aacaa2d0f628585604051611f6d929190918252602082015260400190565b60405180910390a450506105ea565b846001600160a01b0316866001600160a01b0316826001600160a01b03167f4a39dc06d4c0dbc64b70af90fd698a233a518aa5d07e595d983b8c0526c8f7fb8787604051611fcb929190612d99565b60405180910390a4505050505050565b6001600160a01b0384163b156105ea5760405163f23a6e6160e01b81526001600160a01b0385169063f23a6e619061201f9089908990889088908890600401612dbe565b6020604051808303816000875af192505050801561205a575060408051601f3d908101601f1916820190925261205791810190612df8565b60015b6120c3573d808015612088576040519150601f19603f3d011682016040523d82523d6000602084013e61208d565b606091505b5080516000036120bb57604051632bfa23e760e11b81526001600160a01b03861660048201526024016105d4565b805181602001fd5b6001600160e01b0319811663f23a6e6160e01b1461076a57604051632bfa23e760e11b81526001600160a01b03861660048201526024016105d4565b6001600160a01b0384163b156105ea5760405163bc197c8160e01b81526001600160a01b0385169063bc197c81906121439089908990889088908890600401612e15565b6020604051808303816000875af192505050801561217e575060408051601f3d908101601f1916820190925261217b91810190612df8565b60015b6121ac573d808015612088576040519150601f19603f3d011682016040523d82523d6000602084013e61208d565b6001600160e01b0319811663bc197c8160e01b1461076a57604051632bfa23e760e11b81526001600160a01b03861660048201526024016105d4565b600080516020612ed58339815191527f88be536d5240c274a3b1d3a1be54482fd9caa294f08c62a7cde569f49a3c450261094e8382612ace565b806001600160a01b03163b60000361225857604051634c9c8ce360e01b81526001600160a01b03821660048201526024016105d4565b600080516020612eb583398151915280546001600160a01b0319166001600160a01b0392909216919091179055565b6060600080846001600160a01b0316846040516122a49190612e73565b600060405180830381855af49150503d80600081146122df576040519150601f19603f3d011682016040523d82523d6000602084013e6122e4565b606091505b50915091506122f485838361231c565b95945050505050565b34156109655760405163b398979f60e01b815260040160405180910390fd5b6060826123315761232c82612378565b611b38565b815115801561234857506001600160a01b0384163b155b1561237157604051639996b31560e01b81526001600160a01b03851660048201526024016105d4565b5080611b38565b8051156123885780518082602001fd5b604051630a12f52160e11b815260040160405180910390fd5b6001600160a01b0381168114610c0857600080fd5b600080604083850312156123c957600080fd5b82356123d4816123a1565b946020939093013593505050565b6001600160e01b031981168114610c0857600080fd5b60006020828403121561240a57600080fd5b8135611b38816123e2565b60006020828403121561242757600080fd5b5035919050565b60005b83811015612449578181015183820152602001612431565b50506000910152565b6000815180845261246a81602086016020860161242e565b601f01601f19169290920160200192915050565b602081526000611b386020830184612452565b634e487b7160e01b600052604160045260246000fd5b604051601f8201601f191681016001600160401b03811182821017156124cf576124cf612491565b604052919050565b60006001600160401b038211156124f0576124f0612491565b5060051b60200190565b600082601f83011261250b57600080fd5b8135602061252061251b836124d7565b6124a7565b82815260059290921b8401810191818101908684111561253f57600080fd5b8286015b8481101561255a5780358352918301918301612543565b509695505050505050565b600082601f83011261257657600080fd5b81356001600160401b0381111561258f5761258f612491565b6125a2601f8201601f19166020016124a7565b8181528460208386010111156125b757600080fd5b816020850160208301376000918101602001919091529392505050565b600080600080600060a086880312156125ec57600080fd5b85356125f7816123a1565b94506020860135612607816123a1565b935060408601356001600160401b038082111561262357600080fd5b61262f89838a016124fa565b9450606088013591508082111561264557600080fd5b61265189838a016124fa565b9350608088013591508082111561266757600080fd5b5061267488828901612565565b9150509295509295909350565b6000806040838503121561269457600080fd5b823561269f816123a1565b915060208301356126af816123a1565b809150509250929050565b600080604083850312156126cd57600080fd5b82356001600160401b03808211156126e457600080fd5b818501915085601f8301126126f857600080fd5b8135602061270861251b836124d7565b82815260059290921b8401810191818101908984111561272757600080fd5b948201945b8386101561274e57853561273f816123a1565b8252948201949082019061272c565b9650508601359250508082111561276457600080fd5b50612771858286016124fa565b9150509250929050565b600081518084526020808501945080840160005b838110156127ab5781518752958201959082019060010161278f565b509495945050505050565b602081526000611b38602083018461277b565b600080604083850312156127dc57600080fd5b82356127e7816123a1565b915060208301356001600160401b0381111561280257600080fd5b61277185828601612565565b6000806040838503121561282157600080fd5b82356001600160401b0381111561283757600080fd5b61284385828601612565565b95602094909401359450505050565b60008060006060848603121561286757600080fd5b83359250602084013591506040840135612880816123a1565b809150509250925092565b8015158114610c0857600080fd5b600080604083850312156128ac57600080fd5b82356128b7816123a1565b915060208301356126af8161288b565b6000806000606084860312156128dc57600080fd5b833592506020840135915060408401356001600160401b0381111561290057600080fd5b61290c86828701612565565b9150509250925092565b600080600080600060a0868803121561292e57600080fd5b8535612939816123a1565b94506020860135612949816123a1565b9350604086013592506060860135915060808601356001600160401b0381111561297257600080fd5b61267488828901612565565b60006020828403121561299057600080fd5b8135611b38816123a1565b600080604083850312156129ae57600080fd5b50508035926020909101359150565b600181811c908216806129d157607f821691505b60208210810361058057634e487b7160e01b600052602260045260246000fd5b60008084546129ff816129bd565b60018281168015612a175760018114612a2c57612a5b565b60ff1984168752821515830287019450612a5b565b8860005260208060002060005b85811015612a525781548a820152908401908201612a39565b50505082870194505b505050508351612a6f81836020880161242e565b64173539b7b760d91b9101908152600501949350505050565b601f82111561094e57600081815260208120601f850160051c81016020861015612aaf5750805b601f850160051c820191505b818110156105ea57828155600101612abb565b81516001600160401b03811115612ae757612ae7612491565b612afb81612af584546129bd565b84612a88565b602080601f831160018114612b305760008415612b185750858301515b600019600386901b1c1916600185901b1785556105ea565b600085815260208120601f198616915b82811015612b5f57888601518255948401946001909101908401612b40565b5085821015612b7d5787850151600019600388901b60f8161c191681555b5050505050600190811b01905550565b634e487b7160e01b600052603260045260246000fd5b634e487b7160e01b600052601160045260246000fd5b600060018201612bcb57612bcb612ba3565b5060010190565b600060208284031215612be457600080fd5b8151611b388161288b565b600060208284031215612c0157600080fd5b8151611b38816123a1565b634e487b7160e01b600052602160045260246000fd5b600060208284031215612c3457600080fd5b815160088110611b3857600080fd5b60006020808385031215612c5657600080fd5b82516001600160401b03811115612c6c57600080fd5b8301601f81018513612c7d57600080fd5b8051612c8b61251b826124d7565b81815260059190911b82018301908381019087831115612caa57600080fd5b928401925b82841015612cc857835182529284019290840190612caf565b979650505050505050565b8082018082111561044957610449612ba3565b600060208284031215612cf857600080fd5b5051919050565b600060408284031215612d1157600080fd5b604051604081018181106001600160401b0382111715612d3357612d33612491565b604052825181526020928301519281019290925250919050565b808202811582820484141761044957610449612ba3565b600082612d8157634e487b7160e01b600052601260045260246000fd5b500490565b8181038181111561044957610449612ba3565b604081526000612dac604083018561277b565b82810360208401526122f4818561277b565b6001600160a01b03868116825285166020820152604081018490526060810183905260a060808201819052600090612cc890830184612452565b600060208284031215612e0a57600080fd5b8151611b38816123e2565b6001600160a01b0386811682528516602082015260a060408201819052600090612e419083018661277b565b8281036060840152612e53818661277b565b90508281036080840152612e678185612452565b98975050505050505050565b60008251612e8581846020870161242e565b919091019291505056fe68747470733a2f2f6d657461646174612e73656c6c6f7574732e6170702f7469636b65742f360894a13ba1a3210667c828492db98dca3e2076cc3735a920a3ca505d382bbc88be536d5240c274a3b1d3a1be54482fd9caa294f08c62a7cde569f49a3c450068747470733a2f2f6d657461646174612e73656c6c6f7574732e6170702f7469636b65742f7b69647d2e6a736f6ea2646970667358221220b3213a21b607e832baff42a3d798041410d3ea79405b9f63e7cca91b0db9c55464736f6c63430008140033","linkReferences":{}},"methodIdentifiers":{"MAX_TICKETS_PER_WALLET()":"229df6d6","UPGRADE_INTERFACE_VERSION()":"ad3cb1cc","balanceOf(address,uint256)":"00fdd58e","balanceOfBatch(address[],uint256[])":"4e1273f4","burnTokens(uint256,uint256,address)":"87f9ca5d","initialize(address,address)":"485cc955","isApprovedForAll(address,address)":"e985e9c5","owner()":"8da5cb5b","proxiableUUID()":"52d1902d","purchaseTickets(bytes32,uint256)":"fa29a69b","renounceOwnership()":"715018a6","safeBatchTransferFrom(address,address,uint256[],uint256[],bytes)":"2eb2c2d6","safeTransferFrom(address,address,uint256,uint256,bytes)":"f242432a","setApprovalForAll(address,bool)":"a22cb465","setDefaultURI(string,bytes32)":"5dbab132","setTokenURI(bytes32,uint256,string)":"a7d22597","showInstance()":"404f49d1","supportsInterface(bytes4)":"01ffc9a7","transferOwnership(address)":"f2fde38b","upgradeToAndCall(address,bytes)":"4f1ef286","uri(uint256)":"0e89341c"},"id":59}