{"abi":[{"type":"function","name":"UPGRADE_INTERFACE_VERSION","inputs":[],"outputs":[{"name":"","type":"string","internalType":"string"}],"stateMutability":"view"},{"type":"function","name":"boxOfficeAddress","inputs":[],"outputs":[{"name":"","type":"address","internalType":"address"}],"stateMutability":"view"},{"type":"function","name":"createTicketProxy","inputs":[{"name":"initialOwner","type":"address","internalType":"address"}],"outputs":[{"name":"","type":"address","internalType":"address"}],"stateMutability":"nonpayable"},{"type":"function","name":"deployedTickets","inputs":[{"name":"","type":"uint256","internalType":"uint256"}],"outputs":[{"name":"","type":"address","internalType":"address"}],"stateMutability":"view"},{"type":"function","name":"getDeployedTickets","inputs":[],"outputs":[{"name":"","type":"address[]","internalType":"address[]"}],"stateMutability":"view"},{"type":"function","name":"initialize","inputs":[{"name":"_ticketImplementation","type":"address","internalType":"address"},{"name":"_version","type":"string","internalType":"string"}],"outputs":[],"stateMutability":"nonpayable"},{"type":"function","name":"owner","inputs":[],"outputs":[{"name":"","type":"address","internalType":"address"}],"stateMutability":"view"},{"type":"function","name":"proxiableUUID","inputs":[],"outputs":[{"name":"","type":"bytes32","internalType":"bytes32"}],"stateMutability":"view"},{"type":"function","name":"renounceOwnership","inputs":[],"outputs":[],"stateMutability":"nonpayable"},{"type":"function","name":"setContractAddresses","inputs":[{"name":"_boxOfficeAddress","type":"address","internalType":"address"}],"outputs":[],"stateMutability":"nonpayable"},{"type":"function","name":"setVersion","inputs":[{"name":"_version","type":"string","internalType":"string"}],"outputs":[],"stateMutability":"nonpayable"},{"type":"function","name":"ticketImplementation","inputs":[],"outputs":[{"name":"","type":"address","internalType":"address"}],"stateMutability":"view"},{"type":"function","name":"transferOwnership","inputs":[{"name":"newOwner","type":"address","internalType":"address"}],"outputs":[],"stateMutability":"nonpayable"},{"type":"function","name":"updateTicketImplementation","inputs":[{"name":"newImplementation","type":"address","internalType":"address"}],"outputs":[],"stateMutability":"nonpayable"},{"type":"function","name":"upgradeToAndCall","inputs":[{"name":"newImplementation","type":"address","internalType":"address"},{"name":"data","type":"bytes","internalType":"bytes"}],"outputs":[],"stateMutability":"payable"},{"type":"function","name":"version","inputs":[],"outputs":[{"name":"","type":"string","internalType":"string"}],"stateMutability":"view"},{"type":"event","name":"Initialized","inputs":[{"name":"version","type":"uint64","indexed":false,"internalType":"uint64"}],"anonymous":false},{"type":"event","name":"OwnershipTransferred","inputs":[{"name":"previousOwner","type":"address","indexed":true,"internalType":"address"},{"name":"newOwner","type":"address","indexed":true,"internalType":"address"}],"anonymous":false},{"type":"event","name":"TicketProxyCreated","inputs":[{"name":"ticketProxy","type":"address","indexed":true,"internalType":"address"}],"anonymous":false},{"type":"event","name":"Upgraded","inputs":[{"name":"implementation","type":"address","indexed":true,"internalType":"address"}],"anonymous":false},{"type":"error","name":"AddressEmptyCode","inputs":[{"name":"target","type":"address","internalType":"address"}]},{"type":"error","name":"ERC1967InvalidImplementation","inputs":[{"name":"implementation","type":"address","internalType":"address"}]},{"type":"error","name":"ERC1967NonPayable","inputs":[]},{"type":"error","name":"FailedInnerCall","inputs":[]},{"type":"error","name":"InvalidInitialization","inputs":[]},{"type":"error","name":"NotInitializing","inputs":[]},{"type":"error","name":"OwnableInvalidOwner","inputs":[{"name":"owner","type":"address","internalType":"address"}]},{"type":"error","name":"OwnableUnauthorizedAccount","inputs":[{"name":"account","type":"address","internalType":"address"}]},{"type":"error","name":"UUPSUnauthorizedCallContext","inputs":[]},{"type":"error","name":"UUPSUnsupportedProxiableUUID","inputs":[{"name":"slot","type":"bytes32","internalType":"bytes32"}]}],"bytecode":{"object":"0x60a06040523060805234801561001457600080fd5b5060805161128561003e600039600081816108a4015281816108cd0152610a1301526112856000f3fe6080604052600436106100f35760003560e01c8063715018a61161008a578063d83e7bfa11610059578063d83e7bfa146102b8578063de4ed3cf146102d8578063f2fde38b146102f8578063f399e22e1461031857600080fd5b8063715018a614610215578063788bc78c1461022a5780638da5cb5b1461024a578063ad3cb1cc1461028757600080fd5b80634f1ef286116100c65780634f1ef2861461019d57806352d1902d146101b057806354fd4d50146101d35780635683d2de146101f557600080fd5b80630d7c6d68146100f85780631f88bb8714610123578063232b158b146101455780633a72eeab14610165575b600080fd5b34801561010457600080fd5b5061010d610338565b60405161011a9190610d99565b60405180910390f35b34801561012f57600080fd5b5061014361013e366004610dfd565b61039a565b005b34801561015157600080fd5b50610143610160366004610dfd565b61041a565b34801561017157600080fd5b50600054610185906001600160a01b031681565b6040516001600160a01b03909116815260200161011a565b6101436101ab366004610ea4565b610444565b3480156101bc57600080fd5b506101c5610463565b60405190815260200161011a565b3480156101df57600080fd5b506101e8610480565b60405161011a9190610f2a565b34801561020157600080fd5b50600354610185906001600160a01b031681565b34801561022157600080fd5b5061014361050e565b34801561023657600080fd5b50610143610245366004610f7d565b610522565b34801561025657600080fd5b507f9016d09d72d40fdae2fd8ceac6b6234c7706214fd39c1cd1e609a0528c199300546001600160a01b0316610185565b34801561029357600080fd5b506101e8604051806040016040528060058152602001640352e302e360dc1b81525081565b3480156102c457600080fd5b506101856102d3366004610fba565b610536565b3480156102e457600080fd5b506101856102f3366004610dfd565b610560565b34801561030457600080fd5b50610143610313366004610dfd565b6106bf565b34801561032457600080fd5b50610143610333366004610fd3565b6106fd565b6060600180548060200260200160405190810160405280929190818152602001828054801561039057602002820191906000526020600020905b81546001600160a01b03168152600190910190602001808311610372575b5050505050905090565b6003546001600160a01b0316156103f85760405162461bcd60e51b815260206004820152601d60248201527f426f784f6666696365206164647265737320616c72656164792073657400000060448201526064015b60405180910390fd5b600380546001600160a01b0319166001600160a01b0392909216919091179055565b61042261083e565b600080546001600160a01b0319166001600160a01b0392909216919091179055565b61044c610899565b6104558261093e565b61045f8282610946565b5050565b600061046d610a08565b5060008051602061123083398151915290565b6002805461048d90611017565b80601f01602080910402602001604051908101604052809291908181526020018280546104b990611017565b80156105065780601f106104db57610100808354040283529160200191610506565b820191906000526020600020905b8154815290600101906020018083116104e957829003601f168201915b505050505081565b61051661083e565b6105206000610a51565b565b61052a61083e565b600261045f828261109f565b6001818154811061054657600080fd5b6000918252602090912001546001600160a01b0316905081565b6003546000906001600160a01b031633146105c95760405162461bcd60e51b8152602060048201526024808201527f43616c6c6572206973206e6f742074686520426f784f666669636520636f6e746044820152631c9858dd60e21b60648201526084016103ef565b600080546105df906001600160a01b0316610ac2565b6040516379ccf11760e11b81529091506001600160a01b0382169063f399e22e9061061190869060029060040161115f565b600060405180830381600087803b15801561062b57600080fd5b505af115801561063f573d6000803e3d6000fd5b505060018054808201825560009182527fb10e2d527612073b26eecdfd717e6a320cf44b4afac2b0732d9fcbe2b7fa0cf60180546001600160a01b0319166001600160a01b0386169081179091556040519093507f921a2f25ad8eeed2d79f7b3300fb94d379240a97945e6c75848cba3a6d609ca49250a290505b919050565b6106c761083e565b6001600160a01b0381166106f157604051631e4fbdf760e01b8152600060048201526024016103ef565b6106fa81610a51565b50565b7ff0c57e16840df040f15088dc2f81fe391c3923bec73e23a9662efc9c229c6a008054600160401b810460ff16159067ffffffffffffffff166000811580156107435750825b905060008267ffffffffffffffff1660011480156107605750303b155b90508115801561076e575080155b1561078c5760405163f92ee8a960e01b815260040160405180910390fd5b845467ffffffffffffffff1916600117855583156107b657845460ff60401b1916600160401b1785555b6107bf33610b57565b6107c7610b68565b600080546001600160a01b0319166001600160a01b03891617905560026107ee878261109f565b50831561083557845460ff60401b19168555604051600181527fc7f505b2f371ae2175ee4913f4499e1f2633a7b5936321eed1cdaeb6115181d29060200160405180910390a15b50505050505050565b336108707f9016d09d72d40fdae2fd8ceac6b6234c7706214fd39c1cd1e609a0528c199300546001600160a01b031690565b6001600160a01b0316146105205760405163118cdaa760e01b81523360048201526024016103ef565b306001600160a01b037f000000000000000000000000000000000000000000000000000000000000000016148061092057507f00000000000000000000000000000000000000000000000000000000000000006001600160a01b0316610914600080516020611230833981519152546001600160a01b031690565b6001600160a01b031614155b156105205760405163703e46dd60e11b815260040160405180910390fd5b6106fa61083e565b816001600160a01b03166352d1902d6040518163ffffffff1660e01b8152600401602060405180830381865afa9250505080156109a0575060408051601f3d908101601f1916820190925261099d918101906111fa565b60015b6109c857604051634c9c8ce360e01b81526001600160a01b03831660048201526024016103ef565b60008051602061123083398151915281146109f957604051632a87526960e21b8152600481018290526024016103ef565b610a038383610b70565b505050565b306001600160a01b037f000000000000000000000000000000000000000000000000000000000000000016146105205760405163703e46dd60e11b815260040160405180910390fd5b7f9016d09d72d40fdae2fd8ceac6b6234c7706214fd39c1cd1e609a0528c19930080546001600160a01b031981166001600160a01b03848116918217845560405192169182907f8be0079c531659141344cd1fd0a4f28419497f9722a3daafe3b4186f6b6457e090600090a3505050565b6000763d602d80600a3d3981f3363d3d373d3d3d363d730000008260601b60e81c176000526e5af43d82803e903d91602b57fd5bf38260781b17602052603760096000f090506001600160a01b0381166106ba5760405162461bcd60e51b8152602060048201526016602482015275115490cc4c4d8dce8818dc99585d194819985a5b195960521b60448201526064016103ef565b610b5f610bc6565b6106fa81610c0f565b610520610bc6565b610b7982610c17565b6040516001600160a01b038316907fbc7cd75a20ee27fd9adebab32041f755214dbc6bffa90cc0225b39da2e5c2d3b90600090a2805115610bbe57610a038282610c7c565b61045f610cf2565b7ff0c57e16840df040f15088dc2f81fe391c3923bec73e23a9662efc9c229c6a0054600160401b900460ff1661052057604051631afcd79f60e31b815260040160405180910390fd5b6106c7610bc6565b806001600160a01b03163b600003610c4d57604051634c9c8ce360e01b81526001600160a01b03821660048201526024016103ef565b60008051602061123083398151915280546001600160a01b0319166001600160a01b0392909216919091179055565b6060600080846001600160a01b031684604051610c999190611213565b600060405180830381855af49150503d8060008114610cd4576040519150601f19603f3d011682016040523d82523d6000602084013e610cd9565b606091505b5091509150610ce9858383610d11565b95945050505050565b34156105205760405163b398979f60e01b815260040160405180910390fd5b606082610d2657610d2182610d70565b610d69565b8151158015610d3d57506001600160a01b0384163b155b15610d6657604051639996b31560e01b81526001600160a01b03851660048201526024016103ef565b50805b9392505050565b805115610d805780518082602001fd5b604051630a12f52160e11b815260040160405180910390fd5b6020808252825182820181905260009190848201906040850190845b81811015610dda5783516001600160a01b031683529284019291840191600101610db5565b50909695505050505050565b80356001600160a01b03811681146106ba57600080fd5b600060208284031215610e0f57600080fd5b610d6982610de6565b634e487b7160e01b600052604160045260246000fd5b600067ffffffffffffffff80841115610e4957610e49610e18565b604051601f8501601f19908116603f01168101908282118183101715610e7157610e71610e18565b81604052809350858152868686011115610e8a57600080fd5b858560208301376000602087830101525050509392505050565b60008060408385031215610eb757600080fd5b610ec083610de6565b9150602083013567ffffffffffffffff811115610edc57600080fd5b8301601f81018513610eed57600080fd5b610efc85823560208401610e2e565b9150509250929050565b60005b83811015610f21578181015183820152602001610f09565b50506000910152565b6020815260008251806020840152610f49816040850160208701610f06565b601f01601f19169190910160400192915050565b600082601f830112610f6e57600080fd5b610d6983833560208501610e2e565b600060208284031215610f8f57600080fd5b813567ffffffffffffffff811115610fa657600080fd5b610fb284828501610f5d565b949350505050565b600060208284031215610fcc57600080fd5b5035919050565b60008060408385031215610fe657600080fd5b610fef83610de6565b9150602083013567ffffffffffffffff81111561100b57600080fd5b610efc85828601610f5d565b600181811c9082168061102b57607f821691505b60208210810361104b57634e487b7160e01b600052602260045260246000fd5b50919050565b601f821115610a0357600081815260208120601f850160051c810160208610156110785750805b601f850160051c820191505b8181101561109757828155600101611084565b505050505050565b815167ffffffffffffffff8111156110b9576110b9610e18565b6110cd816110c78454611017565b84611051565b602080601f83116001811461110257600084156110ea5750858301515b600019600386901b1c1916600185901b178555611097565b600085815260208120601f198616915b8281101561113157888601518255948401946001909101908401611112565b508582101561114f5787850151600019600388901b60f8161c191681555b5050505050600190811b01905550565b60018060a01b0383168152600060206040818401526000845461118181611017565b80604087015260606001808416600081146111a357600181146111bd576111eb565b60ff1985168984015283151560051b8901830195506111eb565b896000528660002060005b858110156111e35781548b82018601529083019088016111c8565b8a0184019650505b50939998505050505050505050565b60006020828403121561120c57600080fd5b5051919050565b60008251611225818460208701610f06565b919091019291505056fe360894a13ba1a3210667c828492db98dca3e2076cc3735a920a3ca505d382bbca264697066735822122030361df43b14d44d0f061c023f5a856d9b2b230e3053a78d11fcec670a27c46664736f6c63430008140033","linkReferences":{}},"methodIdentifiers":{"UPGRADE_INTERFACE_VERSION()":"ad3cb1cc","boxOfficeAddress()":"5683d2de","createTicketProxy(address)":"de4ed3cf","deployedTickets(uint256)":"d83e7bfa","getDeployedTickets()":"0d7c6d68","initialize(address,string)":"f399e22e","owner()":"8da5cb5b","proxiableUUID()":"52d1902d","renounceOwnership()":"715018a6","setContractAddresses(address)":"1f88bb87","setVersion(string)":"788bc78c","ticketImplementation()":"3a72eeab","transferOwnership(address)":"f2fde38b","updateTicketImplementation(address)":"232b158b","upgradeToAndCall(address,bytes)":"4f1ef286","version()":"54fd4d50"},"id":98}