{"abi":[{"type":"function","name":"deployTicket","inputs":[{"name":"initialOwner","type":"address","internalType":"address"},{"name":"showAddress","type":"address","internalType":"address"}],"outputs":[{"name":"","type":"address","internalType":"address"}],"stateMutability":"nonpayable"}],"bytecode":{"object":"0x608060405234801561001057600080fd5b50613526806100206000396000f3fe608060405234801561001057600080fd5b506004361061002b5760003560e01c8063a58b157114610030575b600080fd5b61004361003e366004610153565b61005f565b6040516001600160a01b03909116815260200160405180910390f35b60008060405161006e9061011d565b604051809103906000f08015801561008a573d6000803e3d6000fd5b50604080516001600160a01b038781166024830152861660448083019190915282518083039091018152606490910182526020810180516001600160e01b031663485cc95560e01b179052905191925090600090839083906100eb9061012a565b6100f6929190610186565b604051809103906000f080158015610112573d6000803e3d6000fd5b509695505050505050565b612e2b806101e583390190565b6104e18061301083390190565b80356001600160a01b038116811461014e57600080fd5b919050565b6000806040838503121561016657600080fd5b61016f83610137565b915061017d60208401610137565b90509250929050565b60018060a01b038316815260006020604081840152835180604085015260005b818110156101c2578581018301518582016060015282016101a6565b506000606082860101526060601f19601f83011685010192505050939250505056fe60a06040523060805234801561001457600080fd5b50608051612ded61003e6000396000818161143c0152818161146501526115a60152612ded6000f3fe6080604052600436106101345760003560e01c8063715018a6116100ab578063a7d225971161006f578063a7d225971461037f578063ad3cb1cc1461039f578063e985e9c5146103d0578063f242432a146103f0578063f2fde38b14610410578063fa29a69b1461043057600080fd5b8063715018a6146102cd5780638da5cb5b146102e25780638e81c64d1461031f578063977cb89e1461033f578063a22cb4651461035f57600080fd5b8063404f49d1116100fd578063404f49d114610200578063485cc955146102385780634e1273f4146102585780634f1ef2861461028557806352d1902d146102985780635dbab132146102ad57600080fd5b8062fdd58e1461013957806301ffc9a71461016c5780630e89341c1461019c578063229df6d6146101c95780632eb2c2d6146101de575b600080fd5b34801561014557600080fd5b5061015961015436600461235c565b610443565b6040519081526020015b60405180910390f35b34801561017857600080fd5b5061018c61018736600461239e565b61047a565b6040519015158152602001610163565b3480156101a857600080fd5b506101bc6101b73660046123bb565b6104ca565b6040516101639190612424565b3480156101d557600080fd5b50610159600581565b3480156101ea57600080fd5b506101fe6101f936600461257a565b6105b1565b005b34801561020c57600080fd5b50600254610220906001600160a01b031681565b6040516001600160a01b039091168152602001610163565b34801561024457600080fd5b506101fe610253366004612627565b61061d565b34801561026457600080fd5b50610278610273366004612660565b6107d7565b604051610163919061275c565b6101fe61029336600461276f565b6108ab565b3480156102a457600080fd5b506101596108ca565b3480156102b957600080fd5b506101fe6102c83660046127b4565b6108e7565b3480156102d957600080fd5b506101fe6109b7565b3480156102ee57600080fd5b507f9016d09d72d40fdae2fd8ceac6b6234c7706214fd39c1cd1e609a0528c199300546001600160a01b0316610220565b34801561032b57600080fd5b506101fe61033a3660046127f8565b6109cb565b34801561034b57600080fd5b5061022061035a3660046123bb565b610a46565b34801561036b57600080fd5b506101fe61037a366004612828565b610ab4565b34801561038b57600080fd5b506101fe61039a366004612856565b610abf565b3480156103ab57600080fd5b506101bc604051806040016040528060058152602001640352e302e360dc1b81525081565b3480156103dc57600080fd5b5061018c6103eb366004612627565b610bf3565b3480156103fc57600080fd5b506101fe61040b3660046128a5565b610c40565b34801561041c57600080fd5b506101fe61042b36600461290d565b610c9f565b6101fe61043e3660046127f8565b610cdd565b6000818152600080516020612d98833981519152602090815260408083206001600160a01b03861684529091529020545b92915050565b60006001600160e01b03198216636cdb3d1360e11b14806104ab57506001600160e01b031982166303a24d0760e21b145b8061047457506301ffc9a760e01b6001600160e01b0319831614610474565b6000818152600360205260408120805460609291906104e89061292a565b80601f01602080910402602001604051908101604052809291908181526020018280546105149061292a565b80156105615780601f1061053657610100808354040283529160200191610561565b820191906000526020600020905b81548152906001019060200180831161054457829003601f168201915b505050505090506000815111156105785792915050565b6004610583846112fe565b60405160200161059492919061295e565b604051602081830303815290604052915050919050565b50919050565b336001600160a01b03861681148015906105d257506105d08682610bf3565b155b156106085760405163711bec9160e11b81526001600160a01b038083166004830152871660248201526044015b60405180910390fd5b6106158686868686611390565b505050505050565b7ff0c57e16840df040f15088dc2f81fe391c3923bec73e23a9662efc9c229c6a008054600160401b810460ff1615906001600160401b03166000811580156106625750825b90506000826001600160401b0316600114801561067e5750303b155b90508115801561068c575080155b156106aa5760405163f92ee8a960e01b815260040160405180910390fd5b845467ffffffffffffffff1916600117855583156106d457845460ff60401b1916600160401b1785555b6107126040518060400160405280601d81526020017f68747470733a2f2f73656c6c6f75742e6f6e636861696e2e686175732f0000008152506113f7565b61071a611408565b61072387611418565b61072b611429565b600280546001600160a01b0319166001600160a01b03881617905560408051808201909152601d81527f68747470733a2f2f73656c6c6f75742e6f6e636861696e2e686175732f00000060208201526004906107879082612a3b565b5083156107ce57845460ff60401b19168555604051600181527fc7f505b2f371ae2175ee4913f4499e1f2633a7b5936321eed1cdaeb6115181d29060200160405180910390a15b50505050505050565b606081518351146108085781518351604051635b05999160e01b8152600481019290925260248201526044016105ff565b600083516001600160401b0381111561082357610823612437565b60405190808252806020026020018201604052801561084c578160200160208202803683370190505b50905060005b84518110156108a35760208082028601015161087690602080840287010151610443565b82828151811061088857610888612afa565b602090810291909101015261089c81612b26565b9050610852565b509392505050565b6108b3611431565b6108bc826114d6565b6108c682826114de565b5050565b60006108d461159b565b50600080516020612d7883398151915290565b600254604051632769b96d60e11b8152336004820152602481018390526001600160a01b0390911690634ed372da90604401602060405180830381865afa158015610936573d6000803e3d6000fd5b505050506040513d601f19601f8201168201806040525081019061095a9190612b3f565b6109a65760405162461bcd60e51b815260206004820152601b60248201527f43616c6c6572206973206e6f7420746865206f7267616e697a6572000000000060448201526064016105ff565b60046109b28382612a3b565b505050565b6109bf6115e4565b6109c9600061163f565b565b6002546001600160a01b03163314610a3b5760405162461bcd60e51b815260206004820152602d60248201527f4f6e6c79207468652053686f7720636f6e74726163742063616e2063616c6c2060448201526c3a3434b990333ab731ba34b7b760991b60648201526084016105ff565b6108c63383836116b0565b600254604051634bbe5c4f60e11b8152600481018390526000916001600160a01b03169063977cb89e90602401602060405180830381865afa158015610a90573d6000803e3d6000fd5b505050506040513d601f19601f820116820180604052508101906104749190612b5c565b6108c6338383611718565b600254604051634bbe5c4f60e11b8152600481018590526001600160a01b039091169063977cb89e90602401602060405180830381865afa158015610b08573d6000803e3d6000fd5b505050506040513d601f19601f82011682018060405250810190610b2c9190612b5c565b6001600160a01b0316336001600160a01b031614610b9d5760405162461bcd60e51b815260206004820152602860248201527f43616c6c6572206973206e6f7420746865206f7267616e697a6572206f6620746044820152676869732073686f7760c01b60648201526084016105ff565b6000828152600360205260409020610bb58282612a3b565b50817f6bb7ff708619ba0610cba295a58592e0451dee2622938c8755667688daf3529b82604051610be69190612424565b60405180910390a2505050565b6001600160a01b0391821660009081527f88be536d5240c274a3b1d3a1be54482fd9caa294f08c62a7cde569f49a3c45016020908152604080832093909416825291909152205460ff1690565b336001600160a01b0386168114801590610c615750610c5f8682610bf3565b155b15610c925760405163711bec9160e11b81526001600160a01b038083166004830152871660248201526044016105ff565b61061586868686866117c0565b610ca76115e4565b6001600160a01b038116610cd157604051631e4fbdf760e01b8152600060048201526024016105ff565b610cda8161163f565b50565b610ce5611845565b6002546040516346c2c8a760e01b8152600481018490526000916001600160a01b0316906346c2c8a790602401602060405180830381865afa158015610d2f573d6000803e3d6000fd5b505050506040513d601f19601f82011682018060405250810190610d539190612b8f565b6007811115610d6457610d64612b79565b14610dc35760405162461bcd60e51b815260206004820152602960248201527f53686f77206973206e6f7420617661696c61626c6520666f72207469636b657460448201526820707572636861736560b81b60648201526084016105ff565b600254604051631883b07960e21b8152600481018490526001600160a01b039091169063620ec1e490602401602060405180830381865afa158015610e0c573d6000803e3d6000fd5b505050506040513d601f19601f82011682018060405250810190610e309190612bb0565b600254604051630610418760e41b81526004810185905283916001600160a01b031690636104187090602401602060405180830381865afa158015610e79573d6000803e3d6000fd5b505050506040513d601f19601f82011682018060405250810190610e9d9190612bb0565b610ea79190612bc9565b1115610ef55760405162461bcd60e51b815260206004820152601c60248201527f4e6f7420656e6f756768207469636b65747320617661696c61626c650000000060448201526064016105ff565b6000610f008361188f565b6002546040516331cea0e760e21b8152600481018690529192506000916001600160a01b039091169063c73a839c906024016040805180830381865afa158015610f4e573d6000803e3d6000fd5b505050506040513d601f19601f82011682018060405250810190610f729190612bdc565b9050600083610f8a84846000015185602001516119c6565b610f949190612c2a565b9050803414610fe55760405162461bcd60e51b815260206004820152601860248201527f496e636f7272656374207061796d656e7420616d6f756e74000000000000000060448201526064016105ff565b600254604051638526663560e01b8152600481018790526001600160a01b039091169063852666359034906024016000604051808303818588803b15801561102c57600080fd5b505af1158015611040573d6000803e3d6000fd5b50505060008781526001602090815260408083203384529091528120805488945090925061106f908490612bc9565b90915550506000858152600160209081526040808320338452825280832054815192830189905290820186905260608201526080016040516020818303038152906040528051906020012060001c90506110da33828760405180602001604052806000815250611ae5565b60025460405163de44006f60e01b815260048101889052336024820152604481018390526001600160a01b039091169063de44006f90606401600060405180830381600087803b15801561112d57600080fd5b505af1158015611141573d6000803e3d6000fd5b5050600254604051632f51f71760e21b8152600481018a9052602481018590523460448201526001600160a01b03909116925063bd47dc5c9150606401600060405180830381600087803b15801561119857600080fd5b505af11580156111ac573d6000803e3d6000fd5b5050600254604051638e5298a560e01b8152336004820152602481018a9052600160448201526001600160a01b039091169250638e5298a59150606401600060405180830381600087803b15801561120357600080fd5b505af1158015611217573d6000803e3d6000fd5b50506002546001600160a01b03169150630d08c3c990508761123c4262278d00612bc9565b6040516001600160e01b031960e085901b16815260048101929092526024820152604401600060405180830381600087803b15801561127a57600080fd5b505af115801561128e573d6000803e3d6000fd5b5050604080518881526020810188905284935089925033917ff53f6fe7b2b86daf10364d1fc7e66dfc3adc1482215b61947bf0ec712e129908910160405180910390a4505050506108c660017f9b779b17422d0df92223018b32b4d1fa46e071723d6817e2486d003becc55f0055565b6060600061130b83611b68565b60010190506000816001600160401b0381111561132a5761132a612437565b6040519080825280601f01601f191660200182016040528015611354576020820181803683370190505b5090508181016020015b600019016f181899199a1a9b1b9c1cb0b131b232b360811b600a86061a8153600a850494508461135e57509392505050565b6001600160a01b0384166113ba57604051632bfa23e760e11b8152600060048201526024016105ff565b6001600160a01b0385166113e357604051626a0d4560e21b8152600060048201526024016105ff565b6113f08585858585611c40565b5050505050565b6113ff611c93565b610cda81611cdc565b611410611c93565b6109c9611ced565b611420611c93565b610cda81611cf5565b6109c9611c93565b306001600160a01b037f00000000000000000000000000000000000000000000000000000000000000001614806114b857507f00000000000000000000000000000000000000000000000000000000000000006001600160a01b03166114ac600080516020612d78833981519152546001600160a01b031690565b6001600160a01b031614155b156109c95760405163703e46dd60e11b815260040160405180910390fd5b610cda6115e4565b816001600160a01b03166352d1902d6040518163ffffffff1660e01b8152600401602060405180830381865afa925050508015611538575060408051601f3d908101601f1916820190925261153591810190612bb0565b60015b61156057604051634c9c8ce360e01b81526001600160a01b03831660048201526024016105ff565b600080516020612d78833981519152811461159157604051632a87526960e21b8152600481018290526024016105ff565b6109b28383611cfd565b306001600160a01b037f000000000000000000000000000000000000000000000000000000000000000016146109c95760405163703e46dd60e11b815260040160405180910390fd5b336116167f9016d09d72d40fdae2fd8ceac6b6234c7706214fd39c1cd1e609a0528c199300546001600160a01b031690565b6001600160a01b0316146109c95760405163118cdaa760e01b81523360048201526024016105ff565b7f9016d09d72d40fdae2fd8ceac6b6234c7706214fd39c1cd1e609a0528c19930080546001600160a01b031981166001600160a01b03848116918217845560405192169182907f8be0079c531659141344cd1fd0a4f28419497f9722a3daafe3b4186f6b6457e090600090a3505050565b6001600160a01b0383166116d957604051626a0d4560e21b8152600060048201526024016105ff565b604080516001808252602082018590528183019081526060820184905260a082019092526000608082018181529192916113f091879185908590611c40565b600080516020612d988339815191526001600160a01b0383166117505760405162ced3e160e81b8152600060048201526024016105ff565b6001600160a01b038481166000818152600184016020908152604080832094881680845294825291829020805460ff191687151590811790915591519182527f17307eab39ab6107e8899845ad3d59bd9653f200f220920489ca2b5937696c31910160405180910390a350505050565b6001600160a01b0384166117ea57604051632bfa23e760e11b8152600060048201526024016105ff565b6001600160a01b03851661181357604051626a0d4560e21b8152600060048201526024016105ff565b604080516001808252602082018690528183019081526060820185905260808201909252906107ce8787848487611c40565b7f9b779b17422d0df92223018b32b4d1fa46e071723d6817e2486d003becc55f0080546001190161188957604051633ee5aeb560e01b815260040160405180910390fd5b60029055565b600254604051631883b07960e21b81526004810183905260009182916001600160a01b039091169063620ec1e490602401602060405180830381865afa1580156118dd573d6000803e3d6000fd5b505050506040513d601f19601f820116820180604052508101906119019190612bb0565b600254604051630610418760e41b8152600481018690529192506000916001600160a01b0390911690636104187090602401602060405180830381865afa158015611950573d6000803e3d6000fd5b505050506040513d601f19601f820116820180604052508101906119749190612bb0565b9050600082611984836064612c2a565b61198e9190612c41565b90506000600a61199f836009612bc9565b6119a99190612c41565b9050600081116119ba5760016119bc565b805b9695505050505050565b6000600184101580156119da5750600a8411155b611a1b5760405162461bcd60e51b8152602060048201526012602482015271496e76616c69642066616e2073746174757360701b60448201526064016105ff565b82821015611a835760405162461bcd60e51b815260206004820152602f60248201527f4d6178207072696365206d7573742062652067726561746572206f722065717560448201526e616c20746f206d696e20707269636560881b60648201526084016105ff565b8360011480611a9157508282145b15611a9d575081611ade565b6000611aa98484612c63565b90506000611ab8600983612c41565b9050611ac5600187612c63565b611acf9082612c2a565b611ad99086612bc9565b925050505b9392505050565b6001600160a01b038416611b0f57604051632bfa23e760e11b8152600060048201526024016105ff565b60408051600180825260208201869052818301908152606082018590526080820190925290610615600087848487611c40565b60017f9b779b17422d0df92223018b32b4d1fa46e071723d6817e2486d003becc55f0055565b60008072184f03e93ff9f4daa797ed6e38ed64bf6a1f0160401b8310611ba75772184f03e93ff9f4daa797ed6e38ed64bf6a1f0160401b830492506040015b6d04ee2d6d415b85acef81000000008310611bd3576d04ee2d6d415b85acef8100000000830492506020015b662386f26fc100008310611bf157662386f26fc10000830492506010015b6305f5e1008310611c09576305f5e100830492506008015b6127108310611c1d57612710830492506004015b60648310611c2f576064830492506002015b600a83106104745760010192915050565b611c4c85858585611d53565b6001600160a01b038416156113f05782513390600103611c855760208481015190840151611c7e838989858589611f81565b5050610615565b6106158187878787876120a5565b7ff0c57e16840df040f15088dc2f81fe391c3923bec73e23a9662efc9c229c6a0054600160401b900460ff166109c957604051631afcd79f60e31b815260040160405180910390fd5b611ce4611c93565b610cda8161218e565b611b42611c93565b610ca7611c93565b611d06826121c8565b6040516001600160a01b038316907fbc7cd75a20ee27fd9adebab32041f755214dbc6bffa90cc0225b39da2e5c2d3b90600090a2805115611d4b576109b2828261222d565b6108c66122a3565b80518251600080516020612d988339815191529114611d925782518251604051635b05999160e01b8152600481019290925260248201526044016105ff565b3360005b8451811015611ea1576020818102868101820151908601909101516001600160a01b03891615611e49576000828152602086815260408083206001600160a01b038d16845290915290205481811015611e22576040516303dee4c560e01b81526001600160a01b038b1660048201526024810182905260448101839052606481018490526084016105ff565b6000838152602087815260408083206001600160a01b038e16845290915290209082900390555b6001600160a01b03881615611e8e576000828152602086815260408083206001600160a01b038c16845290915281208054839290611e88908490612bc9565b90915550505b505080611e9a90612b26565b9050611d96565b508351600103611f225760208401516000906020850151909150866001600160a01b0316886001600160a01b0316846001600160a01b03167fc3d58168c5ae7397731d063d5bbf3d657854427343f4c083240f7aacaa2d0f628585604051611f13929190918252602082015260400190565b60405180910390a45050610615565b846001600160a01b0316866001600160a01b0316826001600160a01b03167f4a39dc06d4c0dbc64b70af90fd698a233a518aa5d07e595d983b8c0526c8f7fb8787604051611f71929190612c76565b60405180910390a4505050505050565b6001600160a01b0384163b156106155760405163f23a6e6160e01b81526001600160a01b0385169063f23a6e6190611fc59089908990889088908890600401612c9b565b6020604051808303816000875af1925050508015612000575060408051601f3d908101601f19168201909252611ffd91810190612ce0565b60015b612069573d80801561202e576040519150601f19603f3d011682016040523d82523d6000602084013e612033565b606091505b50805160000361206157604051632bfa23e760e11b81526001600160a01b03861660048201526024016105ff565b805181602001fd5b6001600160e01b0319811663f23a6e6160e01b146107ce57604051632bfa23e760e11b81526001600160a01b03861660048201526024016105ff565b6001600160a01b0384163b156106155760405163bc197c8160e01b81526001600160a01b0385169063bc197c81906120e99089908990889088908890600401612cfd565b6020604051808303816000875af1925050508015612124575060408051601f3d908101601f1916820190925261212191810190612ce0565b60015b612152573d80801561202e576040519150601f19603f3d011682016040523d82523d6000602084013e612033565b6001600160e01b0319811663bc197c8160e01b146107ce57604051632bfa23e760e11b81526001600160a01b03861660048201526024016105ff565b600080516020612d988339815191527f88be536d5240c274a3b1d3a1be54482fd9caa294f08c62a7cde569f49a3c45026109b28382612a3b565b806001600160a01b03163b6000036121fe57604051634c9c8ce360e01b81526001600160a01b03821660048201526024016105ff565b600080516020612d7883398151915280546001600160a01b0319166001600160a01b0392909216919091179055565b6060600080846001600160a01b03168460405161224a9190612d5b565b600060405180830381855af49150503d8060008114612285576040519150601f19603f3d011682016040523d82523d6000602084013e61228a565b606091505b509150915061229a8583836122c2565b95945050505050565b34156109c95760405163b398979f60e01b815260040160405180910390fd5b6060826122d7576122d28261231e565b611ade565b81511580156122ee57506001600160a01b0384163b155b1561231757604051639996b31560e01b81526001600160a01b03851660048201526024016105ff565b5080611ade565b80511561232e5780518082602001fd5b604051630a12f52160e11b815260040160405180910390fd5b6001600160a01b0381168114610cda57600080fd5b6000806040838503121561236f57600080fd5b823561237a81612347565b946020939093013593505050565b6001600160e01b031981168114610cda57600080fd5b6000602082840312156123b057600080fd5b8135611ade81612388565b6000602082840312156123cd57600080fd5b5035919050565b60005b838110156123ef5781810151838201526020016123d7565b50506000910152565b600081518084526124108160208601602086016123d4565b601f01601f19169290920160200192915050565b602081526000611ade60208301846123f8565b634e487b7160e01b600052604160045260246000fd5b604051601f8201601f191681016001600160401b038111828210171561247557612475612437565b604052919050565b60006001600160401b0382111561249657612496612437565b5060051b60200190565b600082601f8301126124b157600080fd5b813560206124c66124c18361247d565b61244d565b82815260059290921b840181019181810190868411156124e557600080fd5b8286015b8481101561250057803583529183019183016124e9565b509695505050505050565b600082601f83011261251c57600080fd5b81356001600160401b0381111561253557612535612437565b612548601f8201601f191660200161244d565b81815284602083860101111561255d57600080fd5b816020850160208301376000918101602001919091529392505050565b600080600080600060a0868803121561259257600080fd5b853561259d81612347565b945060208601356125ad81612347565b935060408601356001600160401b03808211156125c957600080fd5b6125d589838a016124a0565b945060608801359150808211156125eb57600080fd5b6125f789838a016124a0565b9350608088013591508082111561260d57600080fd5b5061261a8882890161250b565b9150509295509295909350565b6000806040838503121561263a57600080fd5b823561264581612347565b9150602083013561265581612347565b809150509250929050565b6000806040838503121561267357600080fd5b82356001600160401b038082111561268a57600080fd5b818501915085601f83011261269e57600080fd5b813560206126ae6124c18361247d565b82815260059290921b840181019181810190898411156126cd57600080fd5b948201945b838610156126f45785356126e581612347565b825294820194908201906126d2565b9650508601359250508082111561270a57600080fd5b50612717858286016124a0565b9150509250929050565b600081518084526020808501945080840160005b8381101561275157815187529582019590820190600101612735565b509495945050505050565b602081526000611ade6020830184612721565b6000806040838503121561278257600080fd5b823561278d81612347565b915060208301356001600160401b038111156127a857600080fd5b6127178582860161250b565b600080604083850312156127c757600080fd5b82356001600160401b038111156127dd57600080fd5b6127e98582860161250b565b95602094909401359450505050565b6000806040838503121561280b57600080fd5b50508035926020909101359150565b8015158114610cda57600080fd5b6000806040838503121561283b57600080fd5b823561284681612347565b915060208301356126558161281a565b60008060006060848603121561286b57600080fd5b833592506020840135915060408401356001600160401b0381111561288f57600080fd5b61289b8682870161250b565b9150509250925092565b600080600080600060a086880312156128bd57600080fd5b85356128c881612347565b945060208601356128d881612347565b9350604086013592506060860135915060808601356001600160401b0381111561290157600080fd5b61261a8882890161250b565b60006020828403121561291f57600080fd5b8135611ade81612347565b600181811c9082168061293e57607f821691505b6020821081036105ab57634e487b7160e01b600052602260045260246000fd5b600080845461296c8161292a565b600182811680156129845760018114612999576129c8565b60ff19841687528215158302870194506129c8565b8860005260208060002060005b858110156129bf5781548a8201529084019082016129a6565b50505082870194505b5050505083516129dc8183602088016123d4565b64173539b7b760d91b9101908152600501949350505050565b601f8211156109b257600081815260208120601f850160051c81016020861015612a1c5750805b601f850160051c820191505b8181101561061557828155600101612a28565b81516001600160401b03811115612a5457612a54612437565b612a6881612a62845461292a565b846129f5565b602080601f831160018114612a9d5760008415612a855750858301515b600019600386901b1c1916600185901b178555610615565b600085815260208120601f198616915b82811015612acc57888601518255948401946001909101908401612aad565b5085821015612aea5787850151600019600388901b60f8161c191681555b5050505050600190811b01905550565b634e487b7160e01b600052603260045260246000fd5b634e487b7160e01b600052601160045260246000fd5b600060018201612b3857612b38612b10565b5060010190565b600060208284031215612b5157600080fd5b8151611ade8161281a565b600060208284031215612b6e57600080fd5b8151611ade81612347565b634e487b7160e01b600052602160045260246000fd5b600060208284031215612ba157600080fd5b815160088110611ade57600080fd5b600060208284031215612bc257600080fd5b5051919050565b8082018082111561047457610474612b10565b600060408284031215612bee57600080fd5b604051604081018181106001600160401b0382111715612c1057612c10612437565b604052825181526020928301519281019290925250919050565b808202811582820484141761047457610474612b10565b600082612c5e57634e487b7160e01b600052601260045260246000fd5b500490565b8181038181111561047457610474612b10565b604081526000612c896040830185612721565b828103602084015261229a8185612721565b6001600160a01b03868116825285166020820152604081018490526060810183905260a060808201819052600090612cd5908301846123f8565b979650505050505050565b600060208284031215612cf257600080fd5b8151611ade81612388565b6001600160a01b0386811682528516602082015260a060408201819052600090612d2990830186612721565b8281036060840152612d3b8186612721565b90508281036080840152612d4f81856123f8565b98975050505050505050565b60008251612d6d8184602087016123d4565b919091019291505056fe360894a13ba1a3210667c828492db98dca3e2076cc3735a920a3ca505d382bbc88be536d5240c274a3b1d3a1be54482fd9caa294f08c62a7cde569f49a3c4500a2646970667358221220dc4a11549c67cde11013ad8a9f57a45011c365f57fac233e5b0afe223fc16fcd64736f6c6343000814003360806040526040516104e13803806104e1833981016040819052610022916102de565b61002e82826000610035565b50506103fb565b61003e83610061565b60008251118061004b5750805b1561005c5761005a83836100a1565b505b505050565b61006a816100cd565b6040516001600160a01b038216907fbc7cd75a20ee27fd9adebab32041f755214dbc6bffa90cc0225b39da2e5c2d3b90600090a250565b60606100c683836040518060600160405280602781526020016104ba60279139610180565b9392505050565b6001600160a01b0381163b61013f5760405162461bcd60e51b815260206004820152602d60248201527f455243313936373a206e657720696d706c656d656e746174696f6e206973206e60448201526c1bdd08184818dbdb9d1c9858dd609a1b60648201526084015b60405180910390fd5b7f360894a13ba1a3210667c828492db98dca3e2076cc3735a920a3ca505d382bbc80546001600160a01b0319166001600160a01b0392909216919091179055565b6060600080856001600160a01b03168560405161019d91906103ac565b600060405180830381855af49150503d80600081146101d8576040519150601f19603f3d011682016040523d82523d6000602084013e6101dd565b606091505b5090925090506101ef868383876101f9565b9695505050505050565b60608315610268578251600003610261576001600160a01b0385163b6102615760405162461bcd60e51b815260206004820152601d60248201527f416464726573733a2063616c6c20746f206e6f6e2d636f6e74726163740000006044820152606401610136565b5081610272565b610272838361027a565b949350505050565b81511561028a5781518083602001fd5b8060405162461bcd60e51b815260040161013691906103c8565b634e487b7160e01b600052604160045260246000fd5b60005b838110156102d55781810151838201526020016102bd565b50506000910152565b600080604083850312156102f157600080fd5b82516001600160a01b038116811461030857600080fd5b60208401519092506001600160401b038082111561032557600080fd5b818501915085601f83011261033957600080fd5b81518181111561034b5761034b6102a4565b604051601f8201601f19908116603f01168101908382118183101715610373576103736102a4565b8160405282815288602084870101111561038c57600080fd5b61039d8360208301602088016102ba565b80955050505050509250929050565b600082516103be8184602087016102ba565b9190910192915050565b60208152600082518060208401526103e78160408501602087016102ba565b601f01601f19169190910160400192915050565b60b1806104096000396000f3fe608060405236601057600e6013565b005b600e5b601f601b6021565b6058565b565b600060537f360894a13ba1a3210667c828492db98dca3e2076cc3735a920a3ca505d382bbc546001600160a01b031690565b905090565b3660008037600080366000845af43d6000803e8080156076573d6000f35b3d6000fdfea264697066735822122027f562cde8265aa90118a53b2f65370962feb418519bf39bfc7ccbb34402bb5164736f6c63430008140033416464726573733a206c6f772d6c6576656c2064656c65676174652063616c6c206661696c6564a264697066735822122056faccfd82f61462404585cca543765c5c80a7a381b9217c7582993ba310a6b564736f6c63430008140033","linkReferences":{}},"methodIdentifiers":{"deployTicket(address,address)":"a58b1571"},"id":36}