{"abi":[{"type":"function","name":"UPGRADE_INTERFACE_VERSION","inputs":[],"outputs":[{"name":"","type":"string","internalType":"string"}],"stateMutability":"view"},{"type":"function","name":"acceptNomination","inputs":[{"name":"_name","type":"string","internalType":"string"},{"name":"_bio","type":"string","internalType":"string"},{"name":"_latitude","type":"int256","internalType":"int256"},{"name":"_longitude","type":"int256","internalType":"int256"},{"name":"_totalCapacity","type":"uint256","internalType":"uint256"},{"name":"_streetAddress","type":"string","internalType":"string"}],"outputs":[],"stateMutability":"nonpayable"},{"type":"function","name":"balanceOf","inputs":[{"name":"account","type":"address","internalType":"address"},{"name":"id","type":"uint256","internalType":"uint256"}],"outputs":[{"name":"","type":"uint256","internalType":"uint256"}],"stateMutability":"view"},{"type":"function","name":"balanceOfBatch","inputs":[{"name":"accounts","type":"address[]","internalType":"address[]"},{"name":"ids","type":"uint256[]","internalType":"uint256[]"}],"outputs":[{"name":"","type":"uint256[]","internalType":"uint256[]"}],"stateMutability":"view"},{"type":"function","name":"deregisterVenue","inputs":[{"name":"_venueId","type":"uint256","internalType":"uint256"}],"outputs":[],"stateMutability":"nonpayable"},{"type":"function","name":"getVenue","inputs":[{"name":"venueAddress","type":"address","internalType":"address"}],"outputs":[{"name":"name","type":"string","internalType":"string"},{"name":"bio","type":"string","internalType":"string"},{"name":"wallet","type":"address","internalType":"address"},{"name":"latitude","type":"int256","internalType":"int256"},{"name":"longitude","type":"int256","internalType":"int256"},{"name":"totalCapacity","type":"uint256","internalType":"uint256"},{"name":"streetAddress","type":"string","internalType":"string"}],"stateMutability":"view"},{"type":"function","name":"getVenueById","inputs":[{"name":"venueId","type":"uint256","internalType":"uint256"}],"outputs":[{"name":"","type":"tuple","internalType":"struct VenueRegistryTypes.VenueInfo","components":[{"name":"venueId","type":"uint256","internalType":"uint256"},{"name":"name","type":"string","internalType":"string"},{"name":"bio","type":"string","internalType":"string"},{"name":"wallet","type":"address","internalType":"address"},{"name":"coordinates","type":"tuple","internalType":"struct VenueRegistryTypes.Coordinates","components":[{"name":"latitude","type":"int256","internalType":"int256"},{"name":"longitude","type":"int256","internalType":"int256"}]},{"name":"totalCapacity","type":"uint256","internalType":"uint256"},{"name":"streetAddress","type":"string","internalType":"string"}]}],"stateMutability":"view"},{"type":"function","name":"initialize","inputs":[{"name":"initialOwner","type":"address","internalType":"address"},{"name":"_referralModuleAddress","type":"address","internalType":"address"}],"outputs":[],"stateMutability":"nonpayable"},{"type":"function","name":"isApprovedForAll","inputs":[{"name":"account","type":"address","internalType":"address"},{"name":"operator","type":"address","internalType":"address"}],"outputs":[{"name":"","type":"bool","internalType":"bool"}],"stateMutability":"view"},{"type":"function","name":"isVenueRegistered","inputs":[{"name":"venueAddress","type":"address","internalType":"address"}],"outputs":[{"name":"isRegistered","type":"bool","internalType":"bool"}],"stateMutability":"view"},{"type":"function","name":"nominate","inputs":[{"name":"nominee","type":"address","internalType":"address"}],"outputs":[],"stateMutability":"nonpayable"},{"type":"function","name":"nominatedVenues","inputs":[{"name":"","type":"address","internalType":"address"}],"outputs":[{"name":"","type":"bool","internalType":"bool"}],"stateMutability":"view"},{"type":"function","name":"owner","inputs":[],"outputs":[{"name":"","type":"address","internalType":"address"}],"stateMutability":"view"},{"type":"function","name":"proxiableUUID","inputs":[],"outputs":[{"name":"","type":"bytes32","internalType":"bytes32"}],"stateMutability":"view"},{"type":"function","name":"renounceOwnership","inputs":[],"outputs":[],"stateMutability":"nonpayable"},{"type":"function","name":"safeBatchTransferFrom","inputs":[{"name":"from","type":"address","internalType":"address"},{"name":"to","type":"address","internalType":"address"},{"name":"ids","type":"uint256[]","internalType":"uint256[]"},{"name":"values","type":"uint256[]","internalType":"uint256[]"},{"name":"data","type":"bytes","internalType":"bytes"}],"outputs":[],"stateMutability":"nonpayable"},{"type":"function","name":"safeTransferFrom","inputs":[{"name":"from","type":"address","internalType":"address"},{"name":"to","type":"address","internalType":"address"},{"name":"id","type":"uint256","internalType":"uint256"},{"name":"value","type":"uint256","internalType":"uint256"},{"name":"data","type":"bytes","internalType":"bytes"}],"outputs":[],"stateMutability":"nonpayable"},{"type":"function","name":"setApprovalForAll","inputs":[{"name":"operator","type":"address","internalType":"address"},{"name":"approved","type":"bool","internalType":"bool"}],"outputs":[],"stateMutability":"nonpayable"},{"type":"function","name":"setTokenURI","inputs":[{"name":"tokenId","type":"uint256","internalType":"uint256"},{"name":"newURI","type":"string","internalType":"string"}],"outputs":[],"stateMutability":"nonpayable"},{"type":"function","name":"supportsInterface","inputs":[{"name":"interfaceId","type":"bytes4","internalType":"bytes4"}],"outputs":[{"name":"","type":"bool","internalType":"bool"}],"stateMutability":"view"},{"type":"function","name":"transferOwnership","inputs":[{"name":"newOwner","type":"address","internalType":"address"}],"outputs":[],"stateMutability":"nonpayable"},{"type":"function","name":"updateVenue","inputs":[{"name":"_venueId","type":"uint256","internalType":"uint256"},{"name":"_name","type":"string","internalType":"string"},{"name":"_bio","type":"string","internalType":"string"},{"name":"_wallet","type":"address","internalType":"address"},{"name":"_latitude","type":"int256","internalType":"int256"},{"name":"_longitude","type":"int256","internalType":"int256"},{"name":"_totalCapacity","type":"uint256","internalType":"uint256"},{"name":"_streetAddress","type":"string","internalType":"string"}],"outputs":[],"stateMutability":"nonpayable"},{"type":"function","name":"upgradeToAndCall","inputs":[{"name":"newImplementation","type":"address","internalType":"address"},{"name":"data","type":"bytes","internalType":"bytes"}],"outputs":[],"stateMutability":"payable"},{"type":"function","name":"uri","inputs":[{"name":"tokenId","type":"uint256","internalType":"uint256"}],"outputs":[{"name":"","type":"string","internalType":"string"}],"stateMutability":"view"},{"type":"event","name":"ApprovalForAll","inputs":[{"name":"account","type":"address","indexed":true,"internalType":"address"},{"name":"operator","type":"address","indexed":true,"internalType":"address"},{"name":"approved","type":"bool","indexed":false,"internalType":"bool"}],"anonymous":false},{"type":"event","name":"Initialized","inputs":[{"name":"version","type":"uint64","indexed":false,"internalType":"uint64"}],"anonymous":false},{"type":"event","name":"OwnershipTransferred","inputs":[{"name":"previousOwner","type":"address","indexed":true,"internalType":"address"},{"name":"newOwner","type":"address","indexed":true,"internalType":"address"}],"anonymous":false},{"type":"event","name":"TransferBatch","inputs":[{"name":"operator","type":"address","indexed":true,"internalType":"address"},{"name":"from","type":"address","indexed":true,"internalType":"address"},{"name":"to","type":"address","indexed":true,"internalType":"address"},{"name":"ids","type":"uint256[]","indexed":false,"internalType":"uint256[]"},{"name":"values","type":"uint256[]","indexed":false,"internalType":"uint256[]"}],"anonymous":false},{"type":"event","name":"TransferSingle","inputs":[{"name":"operator","type":"address","indexed":true,"internalType":"address"},{"name":"from","type":"address","indexed":true,"internalType":"address"},{"name":"to","type":"address","indexed":true,"internalType":"address"},{"name":"id","type":"uint256","indexed":false,"internalType":"uint256"},{"name":"value","type":"uint256","indexed":false,"internalType":"uint256"}],"anonymous":false},{"type":"event","name":"URI","inputs":[{"name":"value","type":"string","indexed":false,"internalType":"string"},{"name":"id","type":"uint256","indexed":true,"internalType":"uint256"}],"anonymous":false},{"type":"event","name":"Upgraded","inputs":[{"name":"implementation","type":"address","indexed":true,"internalType":"address"}],"anonymous":false},{"type":"event","name":"VenueAccepted","inputs":[{"name":"venueId","type":"uint256","indexed":true,"internalType":"uint256"},{"name":"venueAddress","type":"address","indexed":false,"internalType":"address"}],"anonymous":false},{"type":"event","name":"VenueDeregistered","inputs":[{"name":"venueId","type":"uint256","indexed":true,"internalType":"uint256"}],"anonymous":false},{"type":"event","name":"VenueNominated","inputs":[{"name":"nominee","type":"address","indexed":true,"internalType":"address"}],"anonymous":false},{"type":"event","name":"VenueRegistered","inputs":[{"name":"venueId","type":"uint256","indexed":true,"internalType":"uint256"},{"name":"name","type":"string","indexed":false,"internalType":"string"}],"anonymous":false},{"type":"event","name":"VenueUpdated","inputs":[{"name":"venueId","type":"uint256","indexed":true,"internalType":"uint256"},{"name":"name","type":"string","indexed":false,"internalType":"string"},{"name":"bio","type":"string","indexed":false,"internalType":"string"},{"name":"wallet","type":"address","indexed":false,"internalType":"address"},{"name":"latitude","type":"int256","indexed":false,"internalType":"int256"},{"name":"longitude","type":"int256","indexed":false,"internalType":"int256"},{"name":"totalCapacity","type":"uint256","indexed":false,"internalType":"uint256"},{"name":"streetAddress","type":"string","indexed":false,"internalType":"string"}],"anonymous":false},{"type":"error","name":"AddressEmptyCode","inputs":[{"name":"target","type":"address","internalType":"address"}]},{"type":"error","name":"ERC1155InsufficientBalance","inputs":[{"name":"sender","type":"address","internalType":"address"},{"name":"balance","type":"uint256","internalType":"uint256"},{"name":"needed","type":"uint256","internalType":"uint256"},{"name":"tokenId","type":"uint256","internalType":"uint256"}]},{"type":"error","name":"ERC1155InvalidApprover","inputs":[{"name":"approver","type":"address","internalType":"address"}]},{"type":"error","name":"ERC1155InvalidArrayLength","inputs":[{"name":"idsLength","type":"uint256","internalType":"uint256"},{"name":"valuesLength","type":"uint256","internalType":"uint256"}]},{"type":"error","name":"ERC1155InvalidOperator","inputs":[{"name":"operator","type":"address","internalType":"address"}]},{"type":"error","name":"ERC1155InvalidReceiver","inputs":[{"name":"receiver","type":"address","internalType":"address"}]},{"type":"error","name":"ERC1155InvalidSender","inputs":[{"name":"sender","type":"address","internalType":"address"}]},{"type":"error","name":"ERC1155MissingApprovalForAll","inputs":[{"name":"operator","type":"address","internalType":"address"},{"name":"owner","type":"address","internalType":"address"}]},{"type":"error","name":"ERC1967InvalidImplementation","inputs":[{"name":"implementation","type":"address","internalType":"address"}]},{"type":"error","name":"ERC1967NonPayable","inputs":[]},{"type":"error","name":"FailedInnerCall","inputs":[]},{"type":"error","name":"InvalidInitialization","inputs":[]},{"type":"error","name":"NotInitializing","inputs":[]},{"type":"error","name":"OwnableInvalidOwner","inputs":[{"name":"owner","type":"address","internalType":"address"}]},{"type":"error","name":"OwnableUnauthorizedAccount","inputs":[{"name":"account","type":"address","internalType":"address"}]},{"type":"error","name":"UUPSUnauthorizedCallContext","inputs":[]},{"type":"error","name":"UUPSUnsupportedProxiableUUID","inputs":[{"name":"slot","type":"bytes32","internalType":"bytes32"}]}],"bytecode":{"object":"0x60a06040523060805234801561001457600080fd5b50608051612f9b61003e600039600081816118680152818161189101526119d20152612f9b6000f3fe60806040526004361061014a5760003560e01c806352d1902d116100b6578063ad3cb1cc1161006f578063ad3cb1cc146103d8578063b332180b14610409578063b4ec198014610429578063e985e9c514610459578063f242432a14610479578063f2fde38b1461049957600080fd5b806352d1902d1461030e5780636befc55c14610323578063715018a61461035657806384b03c441461036b5780638da5cb5b1461038b578063a22cb465146103b857600080fd5b80632eb2c2d6116101085780632eb2c2d6146102415780633a7f44d3146102615780633cfb92071461028e578063485cc955146102ae5780634e1273f4146102ce5780634f1ef286146102fb57600080fd5b8062fdd58e1461014f57806301ffc9a71461018257806309a4a302146101b25780630e89341c146101d2578063162094c4146101ff5780632e63de1c14610221575b600080fd5b34801561015b57600080fd5b5061016f61016a366004612408565b6104b9565b6040519081526020015b60405180910390f35b34801561018e57600080fd5b506101a261019d366004612448565b6104f0565b6040519015158152602001610179565b3480156101be57600080fd5b506101a26101cd366004612465565b610540565b3480156101de57600080fd5b506101f26101ed366004612480565b61058b565b60405161017991906124e9565b34801561020b57600080fd5b5061021f61021a3660046125b1565b610642565b005b34801561022d57600080fd5b5061021f61023c366004612480565b610701565b34801561024d57600080fd5b5061021f61025c366004612685565b6107e8565b34801561026d57600080fd5b5061028161027c366004612480565b61084f565b604051610179919061272e565b34801561029a57600080fd5b5061021f6102a93660046127d0565b610ad7565b3480156102ba57600080fd5b5061021f6102c9366004612873565b610b8f565b3480156102da57600080fd5b506102ee6102e93660046128a6565b610ce2565b6040516101799190612996565b61021f6103093660046129a9565b610db6565b34801561031a57600080fd5b5061016f610dd5565b34801561032f57600080fd5b5061034361033e366004612465565b610df2565b60405161017997969594939291906129e0565b34801561036257600080fd5b5061021f6110c9565b34801561037757600080fd5b5061021f610386366004612a4b565b6110dd565b34801561039757600080fd5b506103a06111e0565b6040516001600160a01b039091168152602001610179565b3480156103c457600080fd5b5061021f6103d3366004612b0a565b61120e565b3480156103e457600080fd5b506101f2604051806040016040528060058152602001640352e302e360dc1b81525081565b34801561041557600080fd5b5061021f610424366004612465565b611219565b34801561043557600080fd5b506101a2610444366004612465565b60026020526000908152604090205460ff1681565b34801561046557600080fd5b506101a2610474366004612873565b6113ae565b34801561048557600080fd5b5061021f610494366004612b46565b6113fb565b3480156104a557600080fd5b5061021f6104b4366004612465565b61145a565b6000818152600080516020612f19833981519152602090815260408083206001600160a01b03861684529091529020545b92915050565b60006001600160e01b03198216636cdb3d1360e11b148061052157506001600160e01b031982166303a24d0760e21b145b806104ea57506301ffc9a760e01b6001600160e01b03198316146104ea565b6001600160a01b038116600090815260016020526040812054801580159061058457506000818152602081905260409020600301546001600160a01b038481169116145b9392505050565b6000818152600560205260408120805460609291906105a990612baa565b80601f01602080910402602001604051908101604052809291908181526020018280546105d590612baa565b80156106225780601f106105f757610100808354040283529160200191610622565b820191906000526020600020905b81548152906001019060200180831161060557829003601f168201915b505050505090506000815111156106395792915050565b61058483611498565b61064a6111e0565b6001600160a01b0316336001600160a01b0316148061068257506000828152602081905260409020600301546001600160a01b031633145b6106e45760405162461bcd60e51b815260206004820152602860248201527f43616c6c6572206973206e6f7420746865206f776e6572206f7220746865206f6044820152673933b0b734bd32b960c11b60648201526084015b60405180910390fd5b60008281526005602052604090206106fc8282612c2a565b505050565b600354811115801561072c57506000818152602081905260409020600301546001600160a01b031633145b6107485760405162461bcd60e51b81526004016106db90612ce9565b6107543382600161155d565b6000818152602081905260408120818155906107736001830182612338565b610781600283016000612338565b6003820180546001600160a01b031916905560006004830181905560058301819055600683018190556107b8906007840190612338565b505060405181907fee0cdc4ae3243e3824b2d6e7fdc29bc86356054f8729d89bb1f980e436ebf45690600090a250565b336001600160a01b0386168114801590610809575061080786826113ae565b155b1561083a5760405163711bec9160e11b81526001600160a01b038083166004830152871660248201526044016106db565b61084786868686866115cc565b505050505050565b610857612372565b6000828152602081905260409020600301546001600160a01b03166108b55760405162461bcd60e51b815260206004820152601460248201527315995b9d5948191bd95cc81b9bdd08195e1a5cdd60621b60448201526064016106db565b60008281526020818152604091829020825160e081019093528054835260018101805491928401916108e690612baa565b80601f016020809104026020016040519081016040528092919081815260200182805461091290612baa565b801561095f5780601f106109345761010080835404028352916020019161095f565b820191906000526020600020905b81548152906001019060200180831161094257829003601f168201915b5050505050815260200160028201805461097890612baa565b80601f01602080910402602001604051908101604052809291908181526020018280546109a490612baa565b80156109f15780601f106109c6576101008083540402835291602001916109f1565b820191906000526020600020905b8154815290600101906020018083116109d457829003601f168201915b505050918352505060038201546001600160a01b03166020808301919091526040805180820182526004850154815260058501549281019290925282015260068201546060820152600782018054608090920191610a4e90612baa565b80601f0160208091040260200160405190810160405280929190818152602001828054610a7a90612baa565b8015610ac75780601f10610a9c57610100808354040283529160200191610ac7565b820191906000526020600020905b815481529060010190602001808311610aaa57829003601f168201915b5050505050815250509050919050565b3360009081526002602052604090205460ff16610b2c5760405162461bcd60e51b8152602060048201526013602482015272139bc81b9bdb5a5b985d1a5bdb88199bdd5b99606a1b60448201526064016106db565b336000908152600260205260409020805460ff19169055610b5186868686868661162c565b6003546040513381527f4108d491dd9d5aec1ab384350857e890c9670a0cfc211b075c99d187b8d4cc449060200160405180910390a2505050505050565b7ff0c57e16840df040f15088dc2f81fe391c3923bec73e23a9662efc9c229c6a008054600160401b810460ff1615906001600160401b0316600081158015610bd45750825b90506000826001600160401b03166001148015610bf05750303b155b905081158015610bfe575080155b15610c1c5760405163f92ee8a960e01b815260040160405180910390fd5b845467ffffffffffffffff191660011785558315610c4657845460ff60401b1916600160401b1785555b610c676040518060600160405280602d8152602001612f39602d9139611833565b610c7087611844565b610c78611855565b600480546001600160a01b0319166001600160a01b0388161790558315610cd957845460ff60401b19168555604051600181527fc7f505b2f371ae2175ee4913f4499e1f2633a7b5936321eed1cdaeb6115181d29060200160405180910390a15b50505050505050565b60608151835114610d135781518351604051635b05999160e01b8152600481019290925260248201526044016106db565b600083516001600160401b03811115610d2e57610d2e6124fc565b604051908082528060200260200182016040528015610d57578160200160208202803683370190505b50905060005b8451811015610dae57602080820286010151610d81906020808402870101516104b9565b828281518110610d9357610d93612d2b565b6020908102919091010152610da781612d57565b9050610d5d565b509392505050565b610dbe61185d565b610dc782611902565b610dd1828261190a565b5050565b6000610ddf6119c7565b50600080516020612ef983398151915290565b6001600160a01b03811660009081526001602052604081205460609182918190819081908590808303610e5e5760405162461bcd60e51b815260206004820152601460248201527315995b9d5948191bd95cc81b9bdd08195e1a5cdd60621b60448201526064016106db565b60008060008381526020019081526020016000206040518060e001604052908160008201548152602001600182018054610e9790612baa565b80601f0160208091040260200160405190810160405280929190818152602001828054610ec390612baa565b8015610f105780601f10610ee557610100808354040283529160200191610f10565b820191906000526020600020905b815481529060010190602001808311610ef357829003601f168201915b50505050508152602001600282018054610f2990612baa565b80601f0160208091040260200160405190810160405280929190818152602001828054610f5590612baa565b8015610fa25780601f10610f7757610100808354040283529160200191610fa2565b820191906000526020600020905b815481529060010190602001808311610f8557829003601f168201915b505050918352505060038201546001600160a01b03166020808301919091526040805180820182526004850154815260058501549281019290925282015260068201546060820152600782018054608090920191610fff90612baa565b80601f016020809104026020016040519081016040528092919081815260200182805461102b90612baa565b80156110785780601f1061104d57610100808354040283529160200191611078565b820191906000526020600020905b81548152906001019060200180831161105b57829003601f168201915b50505050508152505090508060200151816040015182606001518360800151600001518460800151602001518560a001518660c0015198509850985098509850985098505050919395979092949650565b6110d1611a10565b6110db6000611a42565b565b600354881115801561110857506000888152602081905260409020600301546001600160a01b031633145b6111245760405162461bcd60e51b81526004016106db90612ce9565b6000888152602081905260409020600181016111408982612c2a565b506002810161114f8882612c2a565b506003810180546001600160a01b0319166001600160a01b038816179055600481018590556005810184905560068101839055600781016111908382612c2a565b50887fe35006029198ae6c56e2996867117cc3c8cbdd3b84ee37d6b36924d6b84d052d898989898989896040516111cd97969594939291906129e0565b60405180910390a2505050505050505050565b7f9016d09d72d40fdae2fd8ceac6b6234c7706214fd39c1cd1e609a0528c199300546001600160a01b031690565b610dd1338383611ab3565b60048054604051632615fb8360e21b815233928101929092526000916001600160a01b0390911690639857ee0c90602401606060405180830381865afa158015611267573d6000803e3d6000fd5b505050506040513d601f19601f8201168201806040525081019061128b9190612d70565b905060008160400151116112ed5760405162461bcd60e51b815260206004820152602360248201527f496e73756666696369656e742076656e756520726566657272616c206372656460448201526269747360e81b60648201526084016106db565b600480546040516321ceab3d60e01b815233928101929092526000602483018190526044830152600160648301526001600160a01b0316906321ceab3d90608401600060405180830381600087803b15801561134857600080fd5b505af115801561135c573d6000803e3d6000fd5b5050506001600160a01b038316600081815260026020526040808220805460ff19166001179055519192507f179ea4397e946d9cae2283c1107800f5a4cc157ad746eb00b9b310a20b1535e791a25050565b6001600160a01b0391821660009081527f88be536d5240c274a3b1d3a1be54482fd9caa294f08c62a7cde569f49a3c45016020908152604080832093909416825291909152205460ff1690565b336001600160a01b038616811480159061141c575061141a86826113ae565b155b1561144d5760405163711bec9160e11b81526001600160a01b038083166004830152871660248201526044016106db565b6108478686868686611b5b565b611462611a10565b6001600160a01b03811661148c57604051631e4fbdf760e01b8152600060048201526024016106db565b61149581611a42565b50565b7f88be536d5240c274a3b1d3a1be54482fd9caa294f08c62a7cde569f49a3c45028054606091600080516020612f19833981519152916114d790612baa565b80601f016020809104026020016040519081016040528092919081815260200182805461150390612baa565b80156115505780601f1061152557610100808354040283529160200191611550565b820191906000526020600020905b81548152906001019060200180831161153357829003601f168201915b5050505050915050919050565b6001600160a01b03831661158657604051626a0d4560e21b8152600060048201526024016106db565b604080516001808252602082018590528183019081526060820184905260a082019092526000608082018181529192916115c591879185908590611bdc565b5050505050565b6001600160a01b0384166115f657604051632bfa23e760e11b8152600060048201526024016106db565b6001600160a01b03851661161f57604051626a0d4560e21b8152600060048201526024016106db565b6115c58585858585611bdc565b6000604051806040016040528086815260200185815250905060006040518060e0016040528060008152602001898152602001888152602001336001600160a01b031681526020018381526020018581526020018481525090506000888833898989896040516020016116a597969594939291906129e0565b60408051601f19818403018152918152815160209283012060008181529283905291206003015490915081906001600160a01b0316156117275760405162461bcd60e51b815260206004820152601860248201527f56656e756520616c72656164792072656769737465726564000000000000000060448201526064016106db565b808352600081815260208181526040909120845181559084015184919060018201906117539082612c2a565b50604082015160028201906117689082612c2a565b5060608201516003820180546001600160a01b0319166001600160a01b0390921691909117905560808201518051600483015560200151600582015560a0820151600682015560c082015160078201906117c29082612c2a565b5050336000818152600160208181526040808420879055805191820190529182526117ef93508491611c2f565b807f4a1a8dd345d4634777a7739c3a6f69bce4bef57cb87046f252ae16bca95a76238b60405161181f91906124e9565b60405180910390a250505050505050505050565b61183b611c8c565b61149581611cd5565b61184c611c8c565b61149581611ce6565b6110db611c8c565b306001600160a01b037f00000000000000000000000000000000000000000000000000000000000000001614806118e457507f00000000000000000000000000000000000000000000000000000000000000006001600160a01b03166118d8600080516020612ef9833981519152546001600160a01b031690565b6001600160a01b031614155b156110db5760405163703e46dd60e11b815260040160405180910390fd5b611495611a10565b816001600160a01b03166352d1902d6040518163ffffffff1660e01b8152600401602060405180830381865afa925050508015611964575060408051601f3d908101601f1916820190925261196191810190612dcb565b60015b61198c57604051634c9c8ce360e01b81526001600160a01b03831660048201526024016106db565b600080516020612ef983398151915281146119bd57604051632a87526960e21b8152600481018290526024016106db565b6106fc8383611cee565b306001600160a01b037f000000000000000000000000000000000000000000000000000000000000000016146110db5760405163703e46dd60e11b815260040160405180910390fd5b33611a196111e0565b6001600160a01b0316146110db5760405163118cdaa760e01b81523360048201526024016106db565b7f9016d09d72d40fdae2fd8ceac6b6234c7706214fd39c1cd1e609a0528c19930080546001600160a01b031981166001600160a01b03848116918217845560405192169182907f8be0079c531659141344cd1fd0a4f28419497f9722a3daafe3b4186f6b6457e090600090a3505050565b600080516020612f198339815191526001600160a01b038316611aeb5760405162ced3e160e81b8152600060048201526024016106db565b6001600160a01b038481166000818152600184016020908152604080832094881680845294825291829020805460ff191687151590811790915591519182527f17307eab39ab6107e8899845ad3d59bd9653f200f220920489ca2b5937696c31910160405180910390a350505050565b6001600160a01b038416611b8557604051632bfa23e760e11b8152600060048201526024016106db565b6001600160a01b038516611bae57604051626a0d4560e21b8152600060048201526024016106db565b60408051600180825260208201869052818301908152606082018590526080820190925290610cd987878484875b611be885858585611d44565b6001600160a01b038416156115c55782513390600103611c215760208481015190840151611c1a838989858589611f72565b5050610847565b610847818787878787612096565b6001600160a01b038416611c5957604051632bfa23e760e11b8152600060048201526024016106db565b60408051600180825260208201869052818301908152606082018590526080820190925290610847600087848487611bdc565b7ff0c57e16840df040f15088dc2f81fe391c3923bec73e23a9662efc9c229c6a0054600160401b900460ff166110db57604051631afcd79f60e31b815260040160405180910390fd5b611cdd611c8c565b6114958161217f565b611462611c8c565b611cf7826121b9565b6040516001600160a01b038316907fbc7cd75a20ee27fd9adebab32041f755214dbc6bffa90cc0225b39da2e5c2d3b90600090a2805115611d3c576106fc828261221e565b610dd1612294565b80518251600080516020612f198339815191529114611d835782518251604051635b05999160e01b8152600481019290925260248201526044016106db565b3360005b8451811015611e92576020818102868101820151908601909101516001600160a01b03891615611e3a576000828152602086815260408083206001600160a01b038d16845290915290205481811015611e13576040516303dee4c560e01b81526001600160a01b038b1660048201526024810182905260448101839052606481018490526084016106db565b6000838152602087815260408083206001600160a01b038e16845290915290209082900390555b6001600160a01b03881615611e7f576000828152602086815260408083206001600160a01b038c16845290915281208054839290611e79908490612de4565b90915550505b505080611e8b90612d57565b9050611d87565b508351600103611f135760208401516000906020850151909150866001600160a01b0316886001600160a01b0316846001600160a01b03167fc3d58168c5ae7397731d063d5bbf3d657854427343f4c083240f7aacaa2d0f628585604051611f04929190918252602082015260400190565b60405180910390a45050610847565b846001600160a01b0316866001600160a01b0316826001600160a01b03167f4a39dc06d4c0dbc64b70af90fd698a233a518aa5d07e595d983b8c0526c8f7fb8787604051611f62929190612df7565b60405180910390a4505050505050565b6001600160a01b0384163b156108475760405163f23a6e6160e01b81526001600160a01b0385169063f23a6e6190611fb69089908990889088908890600401612e1c565b6020604051808303816000875af1925050508015611ff1575060408051601f3d908101601f19168201909252611fee91810190612e61565b60015b61205a573d80801561201f576040519150601f19603f3d011682016040523d82523d6000602084013e612024565b606091505b50805160000361205257604051632bfa23e760e11b81526001600160a01b03861660048201526024016106db565b805181602001fd5b6001600160e01b0319811663f23a6e6160e01b14610cd957604051632bfa23e760e11b81526001600160a01b03861660048201526024016106db565b6001600160a01b0384163b156108475760405163bc197c8160e01b81526001600160a01b0385169063bc197c81906120da9089908990889088908890600401612e7e565b6020604051808303816000875af1925050508015612115575060408051601f3d908101601f1916820190925261211291810190612e61565b60015b612143573d80801561201f576040519150601f19603f3d011682016040523d82523d6000602084013e612024565b6001600160e01b0319811663bc197c8160e01b14610cd957604051632bfa23e760e11b81526001600160a01b03861660048201526024016106db565b600080516020612f198339815191527f88be536d5240c274a3b1d3a1be54482fd9caa294f08c62a7cde569f49a3c45026106fc8382612c2a565b806001600160a01b03163b6000036121ef57604051634c9c8ce360e01b81526001600160a01b03821660048201526024016106db565b600080516020612ef983398151915280546001600160a01b0319166001600160a01b0392909216919091179055565b6060600080846001600160a01b03168460405161223b9190612edc565b600060405180830381855af49150503d8060008114612276576040519150601f19603f3d011682016040523d82523d6000602084013e61227b565b606091505b509150915061228b8583836122b3565b95945050505050565b34156110db5760405163b398979f60e01b815260040160405180910390fd5b6060826122c8576122c38261230f565b610584565b81511580156122df57506001600160a01b0384163b155b1561230857604051639996b31560e01b81526001600160a01b03851660048201526024016106db565b5092915050565b80511561231f5780518082602001fd5b604051630a12f52160e11b815260040160405180910390fd5b50805461234490612baa565b6000825580601f10612354575050565b601f01602090049060005260206000209081019061149591906123d3565b6040518060e0016040528060008152602001606081526020016060815260200160006001600160a01b031681526020016123bf604051806040016040528060008152602001600081525090565b815260200160008152602001606081525090565b5b808211156123e857600081556001016123d4565b5090565b80356001600160a01b038116811461240357600080fd5b919050565b6000806040838503121561241b57600080fd5b612424836123ec565b946020939093013593505050565b6001600160e01b03198116811461149557600080fd5b60006020828403121561245a57600080fd5b813561058481612432565b60006020828403121561247757600080fd5b610584826123ec565b60006020828403121561249257600080fd5b5035919050565b60005b838110156124b457818101518382015260200161249c565b50506000910152565b600081518084526124d5816020860160208601612499565b601f01601f19169290920160200192915050565b60208152600061058460208301846124bd565b634e487b7160e01b600052604160045260246000fd5b604051601f8201601f191681016001600160401b038111828210171561253a5761253a6124fc565b604052919050565b600082601f83011261255357600080fd5b81356001600160401b0381111561256c5761256c6124fc565b61257f601f8201601f1916602001612512565b81815284602083860101111561259457600080fd5b816020850160208301376000918101602001919091529392505050565b600080604083850312156125c457600080fd5b8235915060208301356001600160401b038111156125e157600080fd5b6125ed85828601612542565b9150509250929050565b60006001600160401b03821115612610576126106124fc565b5060051b60200190565b600082601f83011261262b57600080fd5b8135602061264061263b836125f7565b612512565b82815260059290921b8401810191818101908684111561265f57600080fd5b8286015b8481101561267a5780358352918301918301612663565b509695505050505050565b600080600080600060a0868803121561269d57600080fd5b6126a6866123ec565b94506126b4602087016123ec565b935060408601356001600160401b03808211156126d057600080fd5b6126dc89838a0161261a565b945060608801359150808211156126f257600080fd5b6126fe89838a0161261a565b9350608088013591508082111561271457600080fd5b5061272188828901612542565b9150509295509295909350565b6020815281516020820152600060208301516101008060408501526127576101208501836124bd565b91506040850151601f198086850301606087015261277584836124bd565b935060018060a01b03606088015116608087015260808701519150815160a0870152602082015160c087015260a087015160e087015260c08701519150808685030183870152506127c683826124bd565b9695505050505050565b60008060008060008060c087890312156127e957600080fd5b86356001600160401b038082111561280057600080fd5b61280c8a838b01612542565b9750602089013591508082111561282257600080fd5b61282e8a838b01612542565b965060408901359550606089013594506080890135935060a089013591508082111561285957600080fd5b5061286689828a01612542565b9150509295509295509295565b6000806040838503121561288657600080fd5b61288f836123ec565b915061289d602084016123ec565b90509250929050565b600080604083850312156128b957600080fd5b82356001600160401b03808211156128d057600080fd5b818501915085601f8301126128e457600080fd5b813560206128f461263b836125f7565b82815260059290921b8401810191818101908984111561291357600080fd5b948201945b8386101561293857612929866123ec565b82529482019490820190612918565b9650508601359250508082111561294e57600080fd5b506125ed8582860161261a565b600081518084526020808501945080840160005b8381101561298b5781518752958201959082019060010161296f565b509495945050505050565b602081526000610584602083018461295b565b600080604083850312156129bc57600080fd5b6129c5836123ec565b915060208301356001600160401b038111156125e157600080fd5b60e0815260006129f360e083018a6124bd565b8281036020840152612a05818a6124bd565b6001600160a01b0389166040850152606084018890526080840187905260a0840186905283810360c08501529050612a3d81856124bd565b9a9950505050505050505050565b600080600080600080600080610100898b031215612a6857600080fd5b8835975060208901356001600160401b0380821115612a8657600080fd5b612a928c838d01612542565b985060408b0135915080821115612aa857600080fd5b612ab48c838d01612542565b9750612ac260608c016123ec565b965060808b0135955060a08b0135945060c08b0135935060e08b0135915080821115612aed57600080fd5b50612afa8b828c01612542565b9150509295985092959890939650565b60008060408385031215612b1d57600080fd5b612b26836123ec565b915060208301358015158114612b3b57600080fd5b809150509250929050565b600080600080600060a08688031215612b5e57600080fd5b612b67866123ec565b9450612b75602087016123ec565b9350604086013592506060860135915060808601356001600160401b03811115612b9e57600080fd5b61272188828901612542565b600181811c90821680612bbe57607f821691505b602082108103612bde57634e487b7160e01b600052602260045260246000fd5b50919050565b601f8211156106fc57600081815260208120601f850160051c81016020861015612c0b5750805b601f850160051c820191505b8181101561084757828155600101612c17565b81516001600160401b03811115612c4357612c436124fc565b612c5781612c518454612baa565b84612be4565b602080601f831160018114612c8c5760008415612c745750858301515b600019600386901b1c1916600185901b178555610847565b600085815260208120601f198616915b82811015612cbb57888601518255948401946001909101908401612c9c565b5085821015612cd95787850151600019600388901b60f8161c191681555b5050505050600190811b01905550565b60208082526022908201527f556e617574686f72697a6564206f72206e6f6e2d6578697374656e742076656e604082015261756560f01b606082015260800190565b634e487b7160e01b600052603260045260246000fd5b634e487b7160e01b600052601160045260246000fd5b600060018201612d6957612d69612d41565b5060010190565b600060608284031215612d8257600080fd5b604051606081018181106001600160401b0382111715612da457612da46124fc565b80604052508251815260208301516020820152604083015160408201528091505092915050565b600060208284031215612ddd57600080fd5b5051919050565b808201808211156104ea576104ea612d41565b604081526000612e0a604083018561295b565b828103602084015261228b818561295b565b6001600160a01b03868116825285166020820152604081018490526060810183905260a060808201819052600090612e56908301846124bd565b979650505050505050565b600060208284031215612e7357600080fd5b815161058481612432565b6001600160a01b0386811682528516602082015260a060408201819052600090612eaa9083018661295b565b8281036060840152612ebc818661295b565b90508281036080840152612ed081856124bd565b98975050505050505050565b60008251612eee818460208701612499565b919091019291505056fe360894a13ba1a3210667c828492db98dca3e2076cc3735a920a3ca505d382bbc88be536d5240c274a3b1d3a1be54482fd9caa294f08c62a7cde569f49a3c450068747470733a2f2f6d657461646174612e73656c6c6f7574732e6170702f76656e75652f7b69647d2e6a736f6ea2646970667358221220ae2b32780a061f19123f30a23b3f42c9a03425b388283256f0f6eb2cbe95c8ee64736f6c63430008140033","linkReferences":{}},"methodIdentifiers":{"UPGRADE_INTERFACE_VERSION()":"ad3cb1cc","acceptNomination(string,string,int256,int256,uint256,string)":"3cfb9207","balanceOf(address,uint256)":"00fdd58e","balanceOfBatch(address[],uint256[])":"4e1273f4","deregisterVenue(uint256)":"2e63de1c","getVenue(address)":"6befc55c","getVenueById(uint256)":"3a7f44d3","initialize(address,address)":"485cc955","isApprovedForAll(address,address)":"e985e9c5","isVenueRegistered(address)":"09a4a302","nominate(address)":"b332180b","nominatedVenues(address)":"b4ec1980","owner()":"8da5cb5b","proxiableUUID()":"52d1902d","renounceOwnership()":"715018a6","safeBatchTransferFrom(address,address,uint256[],uint256[],bytes)":"2eb2c2d6","safeTransferFrom(address,address,uint256,uint256,bytes)":"f242432a","setApprovalForAll(address,bool)":"a22cb465","setTokenURI(uint256,string)":"162094c4","supportsInterface(bytes4)":"01ffc9a7","transferOwnership(address)":"f2fde38b","updateVenue(uint256,string,string,address,int256,int256,uint256,string)":"84b03c44","upgradeToAndCall(address,bytes)":"4f1ef286","uri(uint256)":"0e89341c"},"id":70}