{"abi":[{"type":"function","name":"UPGRADE_INTERFACE_VERSION","inputs":[],"outputs":[{"name":"","type":"string","internalType":"string"}],"stateMutability":"view"},{"type":"function","name":"dateVotes","inputs":[{"name":"","type":"bytes32","internalType":"bytes32"},{"name":"","type":"uint256","internalType":"uint256"}],"outputs":[{"name":"","type":"uint256","internalType":"uint256"}],"stateMutability":"view"},{"type":"function","name":"getDateVotes","inputs":[{"name":"showId","type":"bytes32","internalType":"bytes32"},{"name":"date","type":"uint256","internalType":"uint256"}],"outputs":[{"name":"","type":"uint256","internalType":"uint256"}],"stateMutability":"view"},{"type":"function","name":"getHasDateVoted","inputs":[{"name":"showId","type":"bytes32","internalType":"bytes32"},{"name":"user","type":"address","internalType":"address"}],"outputs":[{"name":"","type":"bool","internalType":"bool"}],"stateMutability":"view"},{"type":"function","name":"getHasTicketOwnerVoted","inputs":[{"name":"showId","type":"bytes32","internalType":"bytes32"},{"name":"user","type":"address","internalType":"address"}],"outputs":[{"name":"","type":"bool","internalType":"bool"}],"stateMutability":"view"},{"type":"function","name":"getHasVoted","inputs":[{"name":"showId","type":"bytes32","internalType":"bytes32"},{"name":"user","type":"address","internalType":"address"}],"outputs":[{"name":"","type":"bool","internalType":"bool"}],"stateMutability":"view"},{"type":"function","name":"getPreviousDateVote","inputs":[{"name":"showId","type":"bytes32","internalType":"bytes32"},{"name":"user","type":"address","internalType":"address"}],"outputs":[{"name":"","type":"uint256","internalType":"uint256"}],"stateMutability":"view"},{"type":"function","name":"getPreviousVote","inputs":[{"name":"showId","type":"bytes32","internalType":"bytes32"},{"name":"user","type":"address","internalType":"address"}],"outputs":[{"name":"","type":"uint256","internalType":"uint256"}],"stateMutability":"view"},{"type":"function","name":"getProposalPeriod","inputs":[{"name":"showId","type":"bytes32","internalType":"bytes32"}],"outputs":[{"name":"","type":"tuple","internalType":"struct VenueTypes.ProposalPeriod","components":[{"name":"endTime","type":"uint256","internalType":"uint256"},{"name":"isPeriodActive","type":"bool","internalType":"bool"}]}],"stateMutability":"view"},{"type":"function","name":"getRefunds","inputs":[{"name":"user","type":"address","internalType":"address"}],"outputs":[{"name":"","type":"uint256","internalType":"uint256"}],"stateMutability":"view"},{"type":"function","name":"getSelectedDate","inputs":[{"name":"showId","type":"bytes32","internalType":"bytes32"}],"outputs":[{"name":"","type":"uint256","internalType":"uint256"}],"stateMutability":"view"},{"type":"function","name":"getSelectedProposalIndex","inputs":[{"name":"showId","type":"bytes32","internalType":"bytes32"}],"outputs":[{"name":"","type":"uint256","internalType":"uint256"}],"stateMutability":"view"},{"type":"function","name":"getShowProposals","inputs":[{"name":"showId","type":"bytes32","internalType":"bytes32"}],"outputs":[{"name":"","type":"tuple[]","internalType":"struct VenueTypes.Proposal[]","components":[{"name":"venue","type":"tuple","internalType":"struct VenueTypes.Venue","components":[{"name":"name","type":"string","internalType":"string"},{"name":"coordinates","type":"tuple","internalType":"struct VenueTypes.Coordinates","components":[{"name":"lat","type":"int256","internalType":"int256"},{"name":"lon","type":"int256","internalType":"int256"}]},{"name":"totalCapacity","type":"uint256","internalType":"uint256"},{"name":"wallet","type":"address","internalType":"address"},{"name":"venueId","type":"bytes32","internalType":"bytes32"}]},{"name":"proposedDates","type":"uint256[]","internalType":"uint256[]"},{"name":"proposer","type":"address","internalType":"address"},{"name":"bribe","type":"uint256","internalType":"uint256"},{"name":"votes","type":"uint256","internalType":"uint256"},{"name":"accepted","type":"bool","internalType":"bool"}]}],"stateMutability":"view"},{"type":"function","name":"getVotingPeriods","inputs":[{"name":"showId","type":"bytes32","internalType":"bytes32"}],"outputs":[{"name":"","type":"tuple","internalType":"struct VenueTypes.VotingPeriod","components":[{"name":"endTime","type":"uint256","internalType":"uint256"},{"name":"isPeriodActive","type":"bool","internalType":"bool"}]}],"stateMutability":"view"},{"type":"function","name":"hasDateVoted","inputs":[{"name":"","type":"bytes32","internalType":"bytes32"},{"name":"","type":"address","internalType":"address"}],"outputs":[{"name":"","type":"bool","internalType":"bool"}],"stateMutability":"view"},{"type":"function","name":"hasTicketOwnerVoted","inputs":[{"name":"","type":"bytes32","internalType":"bytes32"},{"name":"","type":"address","internalType":"address"}],"outputs":[{"name":"","type":"bool","internalType":"bool"}],"stateMutability":"view"},{"type":"function","name":"hasVoted","inputs":[{"name":"","type":"bytes32","internalType":"bytes32"},{"name":"","type":"address","internalType":"address"}],"outputs":[{"name":"","type":"bool","internalType":"bool"}],"stateMutability":"view"},{"type":"function","name":"initialize","inputs":[{"name":"initialOwner","type":"address","internalType":"address"},{"name":"_proposalPeriodDuration","type":"uint256","internalType":"uint256"},{"name":"_proposalDateExtension","type":"uint256","internalType":"uint256"},{"name":"_proposalDateMinimumFuture","type":"uint256","internalType":"uint256"},{"name":"_proposalPeriodExtensionThreshold","type":"uint256","internalType":"uint256"}],"outputs":[],"stateMutability":"nonpayable"},{"type":"function","name":"owner","inputs":[],"outputs":[{"name":"","type":"address","internalType":"address"}],"stateMutability":"view"},{"type":"function","name":"previousDateVote","inputs":[{"name":"","type":"bytes32","internalType":"bytes32"},{"name":"","type":"address","internalType":"address"}],"outputs":[{"name":"","type":"uint256","internalType":"uint256"}],"stateMutability":"view"},{"type":"function","name":"previousVote","inputs":[{"name":"","type":"bytes32","internalType":"bytes32"},{"name":"","type":"address","internalType":"address"}],"outputs":[{"name":"","type":"uint256","internalType":"uint256"}],"stateMutability":"view"},{"type":"function","name":"proposalDateExtension","inputs":[],"outputs":[{"name":"","type":"uint256","internalType":"uint256"}],"stateMutability":"view"},{"type":"function","name":"proposalDateMinimumFuture","inputs":[],"outputs":[{"name":"","type":"uint256","internalType":"uint256"}],"stateMutability":"view"},{"type":"function","name":"proposalPeriod","inputs":[{"name":"","type":"bytes32","internalType":"bytes32"}],"outputs":[{"name":"endTime","type":"uint256","internalType":"uint256"},{"name":"isPeriodActive","type":"bool","internalType":"bool"}],"stateMutability":"view"},{"type":"function","name":"proposalPeriodDuration","inputs":[],"outputs":[{"name":"","type":"uint256","internalType":"uint256"}],"stateMutability":"view"},{"type":"function","name":"proposalPeriodExtensionThreshold","inputs":[],"outputs":[{"name":"","type":"uint256","internalType":"uint256"}],"stateMutability":"view"},{"type":"function","name":"proxiableUUID","inputs":[],"outputs":[{"name":"","type":"bytes32","internalType":"bytes32"}],"stateMutability":"view"},{"type":"function","name":"refunds","inputs":[{"name":"","type":"address","internalType":"address"}],"outputs":[{"name":"","type":"uint256","internalType":"uint256"}],"stateMutability":"view"},{"type":"function","name":"renounceOwnership","inputs":[],"outputs":[],"stateMutability":"nonpayable"},{"type":"function","name":"selectedDate","inputs":[{"name":"","type":"bytes32","internalType":"bytes32"}],"outputs":[{"name":"","type":"uint256","internalType":"uint256"}],"stateMutability":"view"},{"type":"function","name":"selectedProposalIndex","inputs":[{"name":"","type":"bytes32","internalType":"bytes32"}],"outputs":[{"name":"","type":"uint256","internalType":"uint256"}],"stateMutability":"view"},{"type":"function","name":"setShowAndVenueRegistryAddresses","inputs":[{"name":"_showContractAddress","type":"address","internalType":"address"},{"name":"_venueRegistryAddress","type":"address","internalType":"address"}],"outputs":[],"stateMutability":"nonpayable"},{"type":"function","name":"showInstance","inputs":[],"outputs":[{"name":"","type":"address","internalType":"contract IShow"}],"stateMutability":"view"},{"type":"function","name":"showProposals","inputs":[{"name":"","type":"bytes32","internalType":"bytes32"},{"name":"","type":"uint256","internalType":"uint256"}],"outputs":[{"name":"venue","type":"tuple","internalType":"struct VenueTypes.Venue","components":[{"name":"name","type":"string","internalType":"string"},{"name":"coordinates","type":"tuple","internalType":"struct VenueTypes.Coordinates","components":[{"name":"lat","type":"int256","internalType":"int256"},{"name":"lon","type":"int256","internalType":"int256"}]},{"name":"totalCapacity","type":"uint256","internalType":"uint256"},{"name":"wallet","type":"address","internalType":"address"},{"name":"venueId","type":"bytes32","internalType":"bytes32"}]},{"name":"proposer","type":"address","internalType":"address"},{"name":"bribe","type":"uint256","internalType":"uint256"},{"name":"votes","type":"uint256","internalType":"uint256"},{"name":"accepted","type":"bool","internalType":"bool"}],"stateMutability":"view"},{"type":"function","name":"submitProposal","inputs":[{"name":"showId","type":"bytes32","internalType":"bytes32"},{"name":"venueName","type":"string","internalType":"string"},{"name":"coordinates","type":"tuple","internalType":"struct VenueTypes.Coordinates","components":[{"name":"lat","type":"int256","internalType":"int256"},{"name":"lon","type":"int256","internalType":"int256"}]},{"name":"totalCapacity","type":"uint256","internalType":"uint256"},{"name":"proposedDates","type":"uint256[]","internalType":"uint256[]"}],"outputs":[],"stateMutability":"payable"},{"type":"function","name":"ticketHolderVenueVote","inputs":[{"name":"showId","type":"bytes32","internalType":"bytes32"},{"name":"proposalIndex","type":"uint256","internalType":"uint256"}],"outputs":[],"stateMutability":"nonpayable"},{"type":"function","name":"ticketHolderVotingActive","inputs":[{"name":"","type":"bytes32","internalType":"bytes32"}],"outputs":[{"name":"","type":"bool","internalType":"bool"}],"stateMutability":"view"},{"type":"function","name":"ticketHolderVotingPeriods","inputs":[{"name":"","type":"bytes32","internalType":"bytes32"}],"outputs":[{"name":"endTime","type":"uint256","internalType":"uint256"},{"name":"isPeriodActive","type":"bool","internalType":"bool"}],"stateMutability":"view"},{"type":"function","name":"ticketOwnerVoteIndex","inputs":[{"name":"","type":"bytes32","internalType":"bytes32"},{"name":"","type":"address","internalType":"address"}],"outputs":[{"name":"","type":"uint256","internalType":"uint256"}],"stateMutability":"view"},{"type":"function","name":"transferOwnership","inputs":[{"name":"newOwner","type":"address","internalType":"address"}],"outputs":[],"stateMutability":"nonpayable"},{"type":"function","name":"upgradeToAndCall","inputs":[{"name":"newImplementation","type":"address","internalType":"address"},{"name":"data","type":"bytes","internalType":"bytes"}],"outputs":[],"stateMutability":"payable"},{"type":"function","name":"venueRegistryInstance","inputs":[],"outputs":[{"name":"","type":"address","internalType":"contract IVenueRegistry"}],"stateMutability":"view"},{"type":"function","name":"vote","inputs":[{"name":"showId","type":"bytes32","internalType":"bytes32"},{"name":"proposalIndex","type":"uint256","internalType":"uint256"}],"outputs":[],"stateMutability":"nonpayable"},{"type":"function","name":"voteForDate","inputs":[{"name":"showId","type":"bytes32","internalType":"bytes32"},{"name":"dateIndex","type":"uint256","internalType":"uint256"}],"outputs":[],"stateMutability":"nonpayable"},{"type":"function","name":"votingPeriods","inputs":[{"name":"","type":"bytes32","internalType":"bytes32"}],"outputs":[{"name":"endTime","type":"uint256","internalType":"uint256"},{"name":"isPeriodActive","type":"bool","internalType":"bool"}],"stateMutability":"view"},{"type":"event","name":"DateAccepted","inputs":[{"name":"showId","type":"bytes32","indexed":true,"internalType":"bytes32"},{"name":"dateIndex","type":"uint256","indexed":false,"internalType":"uint256"}],"anonymous":false},{"type":"event","name":"DateVoted","inputs":[{"name":"showId","type":"bytes32","indexed":true,"internalType":"bytes32"},{"name":"voter","type":"address","indexed":true,"internalType":"address"},{"name":"dateIndex","type":"uint256","indexed":false,"internalType":"uint256"}],"anonymous":false},{"type":"event","name":"Initialized","inputs":[{"name":"version","type":"uint64","indexed":false,"internalType":"uint64"}],"anonymous":false},{"type":"event","name":"OwnershipTransferred","inputs":[{"name":"previousOwner","type":"address","indexed":true,"internalType":"address"},{"name":"newOwner","type":"address","indexed":true,"internalType":"address"}],"anonymous":false},{"type":"event","name":"ProposalAccepted","inputs":[{"name":"showId","type":"bytes32","indexed":true,"internalType":"bytes32"},{"name":"proposalIndex","type":"uint256","indexed":false,"internalType":"uint256"}],"anonymous":false},{"type":"event","name":"ProposalPeriodStarted","inputs":[{"name":"showId","type":"bytes32","indexed":true,"internalType":"bytes32"},{"name":"endTime","type":"uint256","indexed":false,"internalType":"uint256"}],"anonymous":false},{"type":"event","name":"ProposalSubmitted","inputs":[{"name":"showId","type":"bytes32","indexed":true,"internalType":"bytes32"},{"name":"proposer","type":"address","indexed":true,"internalType":"address"},{"name":"venueName","type":"string","indexed":false,"internalType":"string"},{"name":"bribe","type":"uint256","indexed":false,"internalType":"uint256"}],"anonymous":false},{"type":"event","name":"ProposalVoted","inputs":[{"name":"showId","type":"bytes32","indexed":true,"internalType":"bytes32"},{"name":"voter","type":"address","indexed":true,"internalType":"address"},{"name":"proposalIndex","type":"uint256","indexed":false,"internalType":"uint256"}],"anonymous":false},{"type":"event","name":"PublicVotingPeriodStarted","inputs":[{"name":"showId","type":"bytes32","indexed":true,"internalType":"bytes32"},{"name":"endTime","type":"uint256","indexed":false,"internalType":"uint256"}],"anonymous":false},{"type":"event","name":"Upgraded","inputs":[{"name":"implementation","type":"address","indexed":true,"internalType":"address"}],"anonymous":false},{"type":"event","name":"VenueVoted","inputs":[{"name":"showId","type":"bytes32","indexed":true,"internalType":"bytes32"},{"name":"voter","type":"address","indexed":true,"internalType":"address"},{"name":"proposalIndex","type":"uint256","indexed":false,"internalType":"uint256"}],"anonymous":false},{"type":"error","name":"AddressEmptyCode","inputs":[{"name":"target","type":"address","internalType":"address"}]},{"type":"error","name":"ERC1967InvalidImplementation","inputs":[{"name":"implementation","type":"address","internalType":"address"}]},{"type":"error","name":"ERC1967NonPayable","inputs":[]},{"type":"error","name":"FailedInnerCall","inputs":[]},{"type":"error","name":"InvalidInitialization","inputs":[]},{"type":"error","name":"NotInitializing","inputs":[]},{"type":"error","name":"OwnableInvalidOwner","inputs":[{"name":"owner","type":"address","internalType":"address"}]},{"type":"error","name":"OwnableUnauthorizedAccount","inputs":[{"name":"account","type":"address","internalType":"address"}]},{"type":"error","name":"UUPSUnauthorizedCallContext","inputs":[]},{"type":"error","name":"UUPSUnsupportedProxiableUUID","inputs":[{"name":"slot","type":"bytes32","internalType":"bytes32"}]}],"bytecode":{"object":"0x60a06040523060805234801561001457600080fd5b5060805161360561003e60003960008181612294015281816122bd015261240301526136056000f3fe6080604052600436106102725760003560e01c8063960c8b451161014f578063d865ae3c116100c1578063f2fde38b1161007a578063f2fde38b14610a03578063f51bba8514610a23578063f60eab0414610a5e578063f92ad21914610a8b578063f94976c014610aab578063fcd73bf814610ae257600080fd5b8063d865ae3c146108eb578063dda9b13c14610918578063e0174d781461092b578063e9801fcb14610958578063ee6b8b2e14610985578063eef28136146109a557600080fd5b8063ad3cb1cc11610113578063ad3cb1cc146107a5578063b0e26654146107e3578063b328da1214610803578063bc3da5351461084f578063c15f6bd71461087c578063d360fb5f146108b357600080fd5b8063960c8b45146106a65780639ef1204c146106d7578063a16026f4146106f7578063aadc3b7214610732578063ab07426f1461076d57600080fd5b80635a9d5841116101e857806381cf3ab8116101ac57806381cf3ab81461058857806384f3e62c146105a857806386de15eb146105e05780638b79dbe1146105f65780638da5cb5b14610626578063940fed201461066357600080fd5b80635a9d5841146104fa57806366582371146105105780636d9be57f1461053d578063703ee4e514610553578063715018a61461057357600080fd5b80633cc44e191161023a5780633cc44e19146103b4578063404f49d1146103ec57806347cc6095146104245780634de89286146104675780634f1ef286146104d057806352d1902d146104e557600080fd5b806303c22ec414610277578063043c97fa146102c057806321e2c8cf146102f857806325d4e7e814610328578063398ac6c31461036e575b600080fd5b34801561028357600080fd5b506102ad610292366004612d35565b6001600160a01b03166000908152600c602052604090205490565b6040519081526020015b60405180910390f35b3480156102cc57600080fd5b506102ad6102db366004612d50565b600860209081526000928352604080842090915290825290205481565b34801561030457600080fd5b50610318610313366004612d50565b610af8565b60405190151581526020016102b7565b34801561033457600080fd5b50610318610343366004612d50565b60009182526004602090815260408084206001600160a01b0393909316845291905290205460ff1690565b34801561037a57600080fd5b50610318610389366004612d50565b60009182526002602090815260408084206001600160a01b0393909316845291905290205460ff1690565b3480156103c057600080fd5b506102ad6103cf366004612d50565b600560209081526000928352604080842090915290825290205481565b3480156103f857600080fd5b50600f5461040c906001600160a01b031681565b6040516001600160a01b0390911681526020016102b7565b34801561043057600080fd5b506102ad61043f366004612d50565b60009182526006602090815260408084206001600160a01b0393909316845291905290205490565b34801561047357600080fd5b506104c3610482366004612d7c565b604080518082019091526000808252602082015250600090815260208181526040918290208251808401909352805483526001015460ff1615159082015290565b6040516102b79190612d95565b6104e36104de366004612e76565b610b25565b005b3480156104f157600080fd5b506102ad610b44565b34801561050657600080fd5b506102ad60125481565b34801561051c57600080fd5b506102ad61052b366004612d7c565b600b6020526000908152604090205481565b34801561054957600080fd5b506102ad60145481565b34801561055f57600080fd5b5060105461040c906001600160a01b031681565b34801561057f57600080fd5b506104e3610b61565b34801561059457600080fd5b506104e36105a3366004612ed8565b610b75565b3480156105b457600080fd5b506102ad6105c3366004612ed8565b600091825260076020908152604080842092845291905290205490565b3480156105ec57600080fd5b506102ad60135481565b34801561060257600080fd5b50610318610611366004612d7c565b600d6020526000908152604090205460ff1681565b34801561063257600080fd5b507f9016d09d72d40fdae2fd8ceac6b6234c7706214fd39c1cd1e609a0528c199300546001600160a01b031661040c565b34801561066f57600080fd5b506102ad61067e366004612d50565b60009182526008602090815260408084206001600160a01b0393909316845291905290205490565b3480156106b257600080fd5b506106c66106c1366004612ed8565b610faf565b6040516102b7959493929190612fa8565b3480156106e357600080fd5b506104e36106f2366004612ed8565b6110ed565b34801561070357600080fd5b50610318610712366004612d50565b600960209081526000928352604080842090915290825290205460ff1681565b34801561073e57600080fd5b5061031861074d366004612d50565b600260209081526000928352604080842090915290825290205460ff1681565b34801561077957600080fd5b506102ad610788366004612d50565b600660209081526000928352604080842090915290825290205481565b3480156107b157600080fd5b506107d6604051806040016040528060058152602001640352e302e360dc1b81525081565b6040516102b79190612fea565b3480156107ef57600080fd5b506104e36107fe366004612ffd565b61156e565b34801561080f57600080fd5b5061083a61081e366004612d7c565b6000602081905290815260409020805460019091015460ff1682565b604080519283529015156020830152016102b7565b34801561085b57600080fd5b506102ad61086a366004612d35565b600c6020526000908152604090205481565b34801561088857600080fd5b5061083a610897366004612d7c565b6003602052600090815260409020805460019091015460ff1682565b3480156108bf57600080fd5b506102ad6108ce366004612ed8565b600760209081526000928352604080842090915290825290205481565b3480156108f757600080fd5b506102ad610906366004612d7c565b600a6020526000908152604090205481565b6104e36109263660046130a7565b61164e565b34801561093757600080fd5b506102ad610946366004612d7c565b6000908152600a602052604090205490565b34801561096457600080fd5b50610978610973366004612d7c565b611c65565b6040516102b79190613167565b34801561099157600080fd5b506104e36109a0366004612ed8565b611e53565b3480156109b157600080fd5b506104c36109c0366004612d7c565b6040805180820190915260008082526020820152506000908152600360209081526040918290208251808401909352805483526001015460ff1615159082015290565b348015610a0f57600080fd5b506104e3610a1e366004612d35565b61211b565b348015610a2f57600080fd5b50610318610a3e366004612d50565b600460209081526000928352604080842090915290825290205460ff1681565b348015610a6a57600080fd5b506102ad610a79366004612d7c565b6000908152600b602052604090205490565b348015610a9757600080fd5b506104e3610aa6366004613249565b612159565b348015610ab757600080fd5b5061083a610ac6366004612d7c565b600e602052600090815260409020805460019091015460ff1682565b348015610aee57600080fd5b506102ad60115481565b60008281526009602090815260408083206001600160a01b038516845290915290205460ff165b92915050565b610b2d612289565b610b368261232e565b610b408282612336565b5050565b6000610b4e6123f8565b506000805160206135b083398151915290565b610b69612441565b610b73600061249c565b565b600f54604051632769b96d60e11b81523360048201526024810184905283916001600160a01b031690634ed372da90604401602060405180830381865afa158015610bc4573d6000803e3d6000fd5b505050506040513d601f19601f82011682018060405250810190610be8919061328b565b80610c615750600f546040516302c9a8b560e01b8152336004820152602481018390526001600160a01b03909116906302c9a8b590604401602060405180830381865afa158015610c3d573d6000803e3d6000fd5b505050506040513d601f19601f82011682018060405250810190610c61919061328b565b610c985760405162461bcd60e51b815260206004820152600360248201526221617560e81b60448201526064015b60405180910390fd5b600083815260016020908152604080832054600b9092529091205410610d0b5760405162461bcd60e51b815260206004820152602260248201527f4e6f2073656c65637465642070726f706f73616c20666f7220746869732073686044820152616f7760f01b6064820152608401610c8f565b6000838152600160209081526040808320600b9092529091205481548110610d3557610d356132ad565b90600052602060002090600b0201600601805490508210610d8d5760405162461bcd60e51b8152602060048201526012602482015271092dcecc2d8d2c840c8c2e8ca40d2dcc8caf60731b6044820152606401610c8f565b60008381526020819052604090205415801590610db7575060008381526020819052604090205442115b610e035760405162461bcd60e51b815260206004820152601f60248201527f566f74696e6720706572696f6420686173206e6f7420656e64656420796574006044820152606401610c8f565b600083815260096020908152604080832033808552908352818420548785526008845282852091855292529091205460ff90911690818015610e455750838114155b15610e755760008581526007602090815260408083208484529091528120805491610e6f836132d9565b91905055505b60008581526007602090815260408083208784529091528120805491610e9a836132f0565b9091555050600085815260096020908152604080832033808552908352818420805460ff19166001179055888452600883528184208185528352928190208790555186815287917f9be4e7a28923fc7c16e20aa07e4d848cd6b3c9a28c315d27b3c51718cfd6ef59910160405180910390a3600f5460405163217fe85b60e21b8152600481018790526000916001600160a01b0316906385ffa16c90602401602060405180830381865afa158015610f56573d6000803e3d6000fd5b505050506040513d601f19601f82011682018060405250810190610f7a9190613309565b60008781526007602090815260408083208984529091529020549091508111610fa757610fa7868661250d565b505050505050565b60016020528160005260406000208181548110610fcb57600080fd5b90600052602060002090600b020160009150915050806000016040518060a0016040529081600082018054610fff90613322565b80601f016020809104026020016040519081016040528092919081815260200182805461102b90613322565b80156110785780601f1061104d57610100808354040283529160200191611078565b820191906000526020600020905b81548152906001019060200180831161105b57829003601f168201915b505050918352505060408051808201825260018401548152600284015460208281019190915283015260038301549082015260048201546001600160a01b039081166060830152600590920154608090910152600783015460088401546009850154600a909501549394919092169260ff1685565b600f54604051632769b96d60e11b81523360048201526024810184905283916001600160a01b031690634ed372da90604401602060405180830381865afa15801561113c573d6000803e3d6000fd5b505050506040513d601f19601f82011682018060405250810190611160919061328b565b806111d95750600f546040516302c9a8b560e01b8152336004820152602481018390526001600160a01b03909116906302c9a8b590604401602060405180830381865afa1580156111b5573d6000803e3d6000fd5b505050506040513d601f19601f820116820180604052508101906111d9919061328b565b61120b5760405162461bcd60e51b815260206004820152600360248201526221617560e81b6044820152606401610c8f565b60008381526001602052604090205482106112385760405162461bcd60e51b8152600401610c8f9061335c565b60008381526020819052604090205415801590611262575060008381526020819052604090205442115b6112ae5760405162461bcd60e51b815260206004820152601f60248201527f566f74696e6720706572696f6420686173206e6f7420656e64656420796574006044820152606401610c8f565b6000838152600d602052604090205460ff1615806112d957506000838152600e602052604090205442115b61133c5760405162461bcd60e51b815260206004820152602e60248201527f5469636b657420686f6c64657220766f74696e67207068617365206d7573742060448201526d18dbdb98db1d591948199a5c9cdd60921b6064820152608401610c8f565b600083815260026020908152604080832033808552908352818420548785526006845282852091855292529091205460ff90911690811561140a578381036113c65760405162461bcd60e51b815260206004820152601c60248201527f416c726561647920766f74656420666f7220746869732076656e7565000000006044820152606401610c8f565b60008581526001602052604090208054829081106113e6576113e66132ad565b6000918252602082206009600b9092020101805491611404836132d9565b91905055505b600085815260016020526040902080548590811061142a5761142a6132ad565b6000918252602082206009600b9092020101805491611448836132f0565b9091555050600085815260026020908152604080832033808552908352818420805460ff19166001179055888452600683528184208185528352928190208790555186815287917f09e638baf0aa9cdb2a3233767bf1f976e138af255c4da751ab01215f4c96f2b0910160405180910390a3600f5460405163217fe85b60e21b8152600481018790526000916001600160a01b0316906385ffa16c90602401602060405180830381865afa158015611504573d6000803e3d6000fd5b505050506040513d601f19601f820116820180604052508101906115289190613309565b6000878152600160205260409020805491925082918790811061154d5761154d6132ad565b90600052602060002090600b02016009015410610fa757610fa78686612683565b600f546001600160a01b0316156115c75760405162461bcd60e51b815260206004820152601960248201527f53686f7720636f6e747261637420616c726561647920736574000000000000006044820152606401610c8f565b6010546001600160a01b0316156116205760405162461bcd60e51b815260206004820152601a60248201527f56656e756520726567697374727920616c7265616479207365740000000000006044820152606401610c8f565b600f80546001600160a01b039384166001600160a01b03199182161790915560108054929093169116179055565b6010546040516304d2518160e11b81523360048201526001600160a01b03909116906309a4a30290602401602060405180830381865afa158015611696573d6000803e3d6000fd5b505050506040513d601f19601f820116820180604052508101906116ba919061328b565b6116fd5760405162461bcd60e51b815260206004820152601460248201527315995b9d59481b9bdd081c9959da5cdd195c995960621b6044820152606401610c8f565b600f546040516346c2c8a760e01b8152600481018790526001916001600160a01b0316906346c2c8a790602401602060405180830381865afa158015611747573d6000803e3d6000fd5b505050506040513d601f19601f8201168201806040525081019061176b91906133a2565b600781111561177c5761177c61338c565b146117af5760405162461bcd60e51b815260206004820152600360248201526221736f60e81b6044820152606401610c8f565b60008581526020819052604090205415806117d857506000858152602081905260409020544211155b6118095760405162461bcd60e51b8152602060048201526002602482015261021760f41b6044820152606401610c8f565b825163055d4a7f19138015906118245750825163055d4a8012155b6118635760405162461bcd60e51b815260206004820152601060248201526f496e76616c6964206c6174697475646560801b6044820152606401610c8f565b630aba94ff198360200151121580156118845750630aba9500836020015113155b6118c45760405162461bcd60e51b8152602060048201526011602482015270496e76616c6964206c6f6e67697475646560781b6044820152606401610c8f565b60008151116119215760405162461bcd60e51b815260206004820152602360248201527f4174206c65617374206f6e652070726f706f73656420646174652072657175696044820152621c995960ea1b6064820152608401610c8f565b60058151111561197e5760405162461bcd60e51b815260206004820152602260248201527f50726f706f73616c206d75737420686176652035206f72206c65737320646174604482015261657360f01b6064820152608401610c8f565b60005b8151811015611a33576013546000878152602081905260409020546119a691906133c3565b8282815181106119b8576119b86132ad565b602002602001015111611a215760405162461bcd60e51b815260206004820152602b60248201527f50726f706f7365642064617465206d757374206265203630206461797320696e60448201526a207468652066757475726560a81b6064820152608401610c8f565b80611a2b816132f0565b915050611981565b5060008581526020819052604090206001015460ff16611a5657611a5685612929565b601454600086815260208190526040902054611a7291906133d6565b4210611a9f5760125460008681526020819052604081208054909190611a999084906133c3565b90915550505b8251602080850151604051600093611abd93899391928891016133e9565b604051602081830303815290604052805190602001209050611add612c28565b858152602081018590526040810184905233606082015260808101829052611b03612c72565b81815260208082018590523360408084019190915234606084015260006080840181905260a084018190528a8152600180845291812080549283018155815291909120825180518493600b029092019182908190611b61908261345e565b506020828101518051600184015581015160028301556040830151600383015560608301516004830180546001600160a01b0319166001600160a01b03909216919091179055608090920151600590910155828101518051611bc99260068501920190612cb9565b506040828101516007830180546001600160a01b0319166001600160a01b03909216919091179055606083015160088301556080830151600983015560a090920151600a909101805460ff191691151591909117905551339089907f594a9595007bad040e875758ab9d42df126f77d067b240282de66c3d36c74ffe90611c53908b90349061351e565b60405180910390a35050505050505050565b606060016000838152602001908152602001600020805480602002602001604051908101604052809291908181526020016000905b82821015611e4857600084815260209020604080516101608101909152600b84029091018054829060c0820190839082908290611cd690613322565b80601f0160208091040260200160405190810160405280929190818152602001828054611d0290613322565b8015611d4f5780601f10611d2457610100808354040283529160200191611d4f565b820191906000526020600020905b815481529060010190602001808311611d3257829003601f168201915b50505091835250506040805180820182526001840154815260028401546020828101919091528084019190915260038401548284015260048401546001600160a01b03166060840152600590930154608090920191909152918352600684018054835181840281018401909452808452938201939091830182828015611df457602002820191906000526020600020905b815481526020019060010190808311611de0575b505050918352505060078201546001600160a01b03166020808301919091526008830154604083015260098301546060830152600a9092015460ff1615156080909101529082526001929092019101611c9a565b505050509050919050565b600f54604051635c37da6960e01b8152336004820152602481018490526001600160a01b0390911690635c37da6990604401602060405180830381865afa158015611ea2573d6000803e3d6000fd5b505050506040513d601f19601f82011682018060405250810190611ec6919061328b565b611f075760405162461bcd60e51b81526020600482015260126024820152712737ba1030903a34b1b5b2ba1037bbb732b960711b6044820152606401610c8f565b600082815260208190526040902054421115611f655760405162461bcd60e51b815260206004820152601960248201527f50726f706f73616c20706572696f642068617320656e646564000000000000006044820152606401610c8f565b6000828152600160205260409020548110611f925760405162461bcd60e51b8152600401610c8f9061335c565b600082815260046020908152604080832033845290915290205460ff161561206757600082815260056020908152604080832033845290915290205481810361201d5760405162461bcd60e51b815260206004820152601f60248201527f416c726561647920766f74656420666f7220746869732070726f706f73616c006044820152606401610c8f565b6000838152600160208190526040909120805483908110612040576120406132ad565b90600052602060002090600b0201600901600082825461206091906133d6565b9091555050505b6000828152600160205260409020805482908110612087576120876132ad565b6000918252602082206009600b90920201018054916120a5836132f0565b909155505060008281526005602090815260408083203380855290835281842085905585845260048352818420818552835292819020805460ff191660011790555183815284917f37b8aa4050778a896e18d9773bb81d7a680a33f4b9232d489a3541a7a95c8350910160405180910390a35050565b612123612441565b6001600160a01b03811661214d57604051631e4fbdf760e01b815260006004820152602401610c8f565b6121568161249c565b50565b7ff0c57e16840df040f15088dc2f81fe391c3923bec73e23a9662efc9c229c6a008054600160401b810460ff16159067ffffffffffffffff1660008115801561219f5750825b905060008267ffffffffffffffff1660011480156121bc5750303b155b9050811580156121ca575080155b156121e85760405163f92ee8a960e01b815260040160405180910390fd5b845467ffffffffffffffff19166001178555831561221257845460ff60401b1916600160401b1785555b61221b8a6129e6565b6122236129f7565b6011899055601288905560138790556014869055831561227d57845460ff60401b19168555604051600181527fc7f505b2f371ae2175ee4913f4499e1f2633a7b5936321eed1cdaeb6115181d29060200160405180910390a15b50505050505050505050565b306001600160a01b037f000000000000000000000000000000000000000000000000000000000000000016148061231057507f00000000000000000000000000000000000000000000000000000000000000006001600160a01b03166123046000805160206135b0833981519152546001600160a01b031690565b6001600160a01b031614155b15610b735760405163703e46dd60e11b815260040160405180910390fd5b612156612441565b816001600160a01b03166352d1902d6040518163ffffffff1660e01b8152600401602060405180830381865afa925050508015612390575060408051601f3d908101601f1916820190925261238d91810190613309565b60015b6123b857604051634c9c8ce360e01b81526001600160a01b0383166004820152602401610c8f565b6000805160206135b083398151915281146123e957604051632a87526960e21b815260048101829052602401610c8f565b6123f383836129ff565b505050565b306001600160a01b037f00000000000000000000000000000000000000000000000000000000000000001614610b735760405163703e46dd60e11b815260040160405180910390fd5b336124737f9016d09d72d40fdae2fd8ceac6b6234c7706214fd39c1cd1e609a0528c199300546001600160a01b031690565b6001600160a01b031614610b735760405163118cdaa760e01b8152336004820152602401610c8f565b7f9016d09d72d40fdae2fd8ceac6b6234c7706214fd39c1cd1e609a0528c19930080546001600160a01b031981166001600160a01b03848116918217845560405192169182907f8be0079c531659141344cd1fd0a4f28419497f9722a3daafe3b4186f6b6457e090600090a3505050565b6000828152600160209081526040808320600b90925282205481548110612536576125366132ad565b90600052602060002090600b02016006018281548110612558576125586132ad565b600091825260208083209190910154858352600a909152604091829020819055600f549151633256b66b60e11b815260048101869052602481018290529092506001600160a01b03909116906364ad6cd690604401600060405180830381600087803b1580156125c757600080fd5b505af11580156125db573d6000803e3d6000fd5b50505050827f30f427038b9903ed0be3f545ee5d678ba47d53ce2ffe77eb1eccbde089ec207d8260405161261191815260200190565b60405180910390a2600f5460405163054372ed60e01b81526001600160a01b039091169063054372ed9061264c908690600390600401613540565b600060405180830381600087803b15801561266657600080fd5b505af115801561267a573d6000803e3d6000fd5b50505050505050565b60008281526001602052604090205481106126b05760405162461bcd60e51b8152600401610c8f9061335c565b60008281526001602052604081208054839081106126d0576126d06132ad565b90600052602060002090600b02016000016040518060a00160405290816000820180546126fc90613322565b80601f016020809104026020016040519081016040528092919081815260200182805461272890613322565b80156127755780601f1061274a57610100808354040283529160200191612775565b820191906000526020600020905b81548152906001019060200180831161275857829003601f168201915b5050509183525050604080518082018252600184810154825260028501546020838101919091528085019290925260038501548385015260048501546001600160a01b03166060850152600590940154608090930192909252600087815291839052902080549293509091849081106127f0576127f06132ad565b60009182526020808320600b92830201600a01805460ff191694151594909417909355858252909152604090819020839055600f54905163054372ed60e01b81526001600160a01b039091169063054372ed90612854908690600290600401613540565b600060405180830381600087803b15801561286e57600080fd5b505af1158015612882573d6000803e3d6000fd5b5050600f546040516330a78b7960e21b81526001600160a01b03909116925063c29e2de491506128b89086908590600401613572565b600060405180830381600087803b1580156128d257600080fd5b505af11580156128e6573d6000803e3d6000fd5b50505050827fa4cdb24ce3dbadfa51e723cabdbbd7124e6b55e68a4b41d3eb42a00d144eefe38360405161291c91815260200190565b60405180910390a2505050565b60008181526020819052604090206001908101805460ff1916909117905560115461295490426133c3565b600082815260208181526040808320938455600d82528083208054600160ff1991821681179092558251808401845286548152808501838152888752600e86528487209151825551920180549091169115159190911790559181529154905190815282917fbe893194ee9c4752250e88ba9de293863b73822c4663c78d6cad1f9aa7d91cdc910160405180910390a250565b6129ee612a55565b61215681612a9e565b610b73612a55565b612a0882612aa6565b6040516001600160a01b038316907fbc7cd75a20ee27fd9adebab32041f755214dbc6bffa90cc0225b39da2e5c2d3b90600090a2805115612a4d576123f38282612b0b565b610b40612b81565b7ff0c57e16840df040f15088dc2f81fe391c3923bec73e23a9662efc9c229c6a0054600160401b900460ff16610b7357604051631afcd79f60e31b815260040160405180910390fd5b612123612a55565b806001600160a01b03163b600003612adc57604051634c9c8ce360e01b81526001600160a01b0382166004820152602401610c8f565b6000805160206135b083398151915280546001600160a01b0319166001600160a01b0392909216919091179055565b6060600080846001600160a01b031684604051612b289190613593565b600060405180830381855af49150503d8060008114612b63576040519150601f19603f3d011682016040523d82523d6000602084013e612b68565b606091505b5091509150612b78858383612ba0565b95945050505050565b3415610b735760405163b398979f60e01b815260040160405180910390fd5b606082612bb557612bb082612bff565b612bf8565b8151158015612bcc57506001600160a01b0384163b155b15612bf557604051639996b31560e01b81526001600160a01b0385166004820152602401610c8f565b50805b9392505050565b805115612c0f5780518082602001fd5b604051630a12f52160e11b815260040160405180910390fd5b6040518060a0016040528060608152602001612c57604051806040016040528060008152602001600081525090565b81526000602082018190526040820181905260609091015290565b6040518060c00160405280612c85612c28565b81526020016060815260200160006001600160a01b0316815260200160008152602001600081526020016000151581525090565b828054828255906000526020600020908101928215612cf4579160200282015b82811115612cf4578251825591602001919060010190612cd9565b50612d00929150612d04565b5090565b5b80821115612d005760008155600101612d05565b80356001600160a01b0381168114612d3057600080fd5b919050565b600060208284031215612d4757600080fd5b612bf882612d19565b60008060408385031215612d6357600080fd5b82359150612d7360208401612d19565b90509250929050565b600060208284031215612d8e57600080fd5b5035919050565b8151815260208083015115159082015260408101610b1f565b634e487b7160e01b600052604160045260246000fd5b6040805190810167ffffffffffffffff81118282101715612de757612de7612dae565b60405290565b604051601f8201601f1916810167ffffffffffffffff81118282101715612e1657612e16612dae565b604052919050565b600067ffffffffffffffff831115612e3857612e38612dae565b612e4b601f8401601f1916602001612ded565b9050828152838383011115612e5f57600080fd5b828260208301376000602084830101529392505050565b60008060408385031215612e8957600080fd5b612e9283612d19565b9150602083013567ffffffffffffffff811115612eae57600080fd5b8301601f81018513612ebf57600080fd5b612ece85823560208401612e1e565b9150509250929050565b60008060408385031215612eeb57600080fd5b50508035926020909101359150565b60005b83811015612f15578181015183820152602001612efd565b50506000910152565b60008151808452612f36816020860160208601612efa565b601f01601f19169290920160200192915050565b6000815160c08452612f5f60c0850182612f1e565b905060208301518051602086015260208101516040860152506040830151606085015260018060a01b036060840151166080850152608083015160a08501528091505092915050565b60a081526000612fbb60a0830188612f4a565b6001600160a01b0396909616602083015250604081019390935260608301919091521515608090910152919050565b602081526000612bf86020830184612f1e565b6000806040838503121561301057600080fd5b61301983612d19565b9150612d7360208401612d19565b600082601f83011261303857600080fd5b8135602067ffffffffffffffff82111561305457613054612dae565b8160051b613063828201612ded565b928352848101820192828101908785111561307d57600080fd5b83870192505b8483101561309c57823582529183019190830190613083565b979650505050505050565b600080600080600085870360c08112156130c057600080fd5b86359550602087013567ffffffffffffffff808211156130df57600080fd5b818901915089601f8301126130f357600080fd5b6131028a833560208501612e1e565b96506040603f198401121561311657600080fd5b61311e612dc4565b60408a0135815260608a0135602082015295506080890135945060a089013592508083111561314c57600080fd5b505061315a88828901613027565b9150509295509295909350565b60006020808301818452808551808352604092508286019150828160051b8701018488016000805b8481101561323a57603f198a8503018652825160c081518187526131b582880182612f4a565b838c0151888203898e01528051808352908d019350869250908c01905b808310156131f25783518252928c019260019290920191908c01906131d2565b508a8401516001600160a01b0316888c0152606080850151908901526080808501519089015260a093840151151593909701929092525050948701949187019160010161318f565b50919998505050505050505050565b600080600080600060a0868803121561326157600080fd5b61326a86612d19565b97602087013597506040870135966060810135965060800135945092505050565b60006020828403121561329d57600080fd5b81518015158114612bf857600080fd5b634e487b7160e01b600052603260045260246000fd5b634e487b7160e01b600052601160045260246000fd5b6000816132e8576132e86132c3565b506000190190565b600060018201613302576133026132c3565b5060010190565b60006020828403121561331b57600080fd5b5051919050565b600181811c9082168061333657607f821691505b60208210810361335657634e487b7160e01b600052602260045260246000fd5b50919050565b602080825260169082015275092dcecc2d8d2c840e0e4dee0dee6c2d840d2dcc8caf60531b604082015260600190565b634e487b7160e01b600052602160045260246000fd5b6000602082840312156133b457600080fd5b815160088110612bf857600080fd5b80820180821115610b1f57610b1f6132c3565b81810381811115610b1f57610b1f6132c3565b600085516133fb818460208a01612efa565b919091019384525060208301919091526040820152606001919050565b601f8211156123f357600081815260208120601f850160051c8101602086101561343f5750805b601f850160051c820191505b81811015610fa75782815560010161344b565b815167ffffffffffffffff81111561347857613478612dae565b61348c816134868454613322565b84613418565b602080601f8311600181146134c157600084156134a95750858301515b600019600386901b1c1916600185901b178555610fa7565b600085815260208120601f198616915b828110156134f0578886015182559484019460019091019084016134d1565b508582101561350e5787850151600019600388901b60f8161c191681555b5050505050600190811b01905550565b6040815260006135316040830185612f1e565b90508260208301529392505050565b828152604081016008831061356557634e487b7160e01b600052602160045260246000fd5b8260208301529392505050565b82815260406020820152600061358b6040830184612f4a565b949350505050565b600082516135a5818460208701612efa565b919091019291505056fe360894a13ba1a3210667c828492db98dca3e2076cc3735a920a3ca505d382bbca264697066735822122055f12b4d80e83ea8d8cfbaea721252e8290a92781cacc6baf3e3dc83232efeb464736f6c63430008140033","linkReferences":{}},"methodIdentifiers":{"UPGRADE_INTERFACE_VERSION()":"ad3cb1cc","dateVotes(bytes32,uint256)":"d360fb5f","getDateVotes(bytes32,uint256)":"84f3e62c","getHasDateVoted(bytes32,address)":"21e2c8cf","getHasTicketOwnerVoted(bytes32,address)":"25d4e7e8","getHasVoted(bytes32,address)":"398ac6c3","getPreviousDateVote(bytes32,address)":"940fed20","getPreviousVote(bytes32,address)":"47cc6095","getProposalPeriod(bytes32)":"4de89286","getRefunds(address)":"03c22ec4","getSelectedDate(bytes32)":"e0174d78","getSelectedProposalIndex(bytes32)":"f60eab04","getShowProposals(bytes32)":"e9801fcb","getVotingPeriods(bytes32)":"eef28136","hasDateVoted(bytes32,address)":"a16026f4","hasTicketOwnerVoted(bytes32,address)":"f51bba85","hasVoted(bytes32,address)":"aadc3b72","initialize(address,uint256,uint256,uint256,uint256)":"f92ad219","owner()":"8da5cb5b","previousDateVote(bytes32,address)":"043c97fa","previousVote(bytes32,address)":"ab07426f","proposalDateExtension()":"5a9d5841","proposalDateMinimumFuture()":"86de15eb","proposalPeriod(bytes32)":"b328da12","proposalPeriodDuration()":"fcd73bf8","proposalPeriodExtensionThreshold()":"6d9be57f","proxiableUUID()":"52d1902d","refunds(address)":"bc3da535","renounceOwnership()":"715018a6","selectedDate(bytes32)":"d865ae3c","selectedProposalIndex(bytes32)":"66582371","setShowAndVenueRegistryAddresses(address,address)":"b0e26654","showInstance()":"404f49d1","showProposals(bytes32,uint256)":"960c8b45","submitProposal(bytes32,string,(int256,int256),uint256,uint256[])":"dda9b13c","ticketHolderVenueVote(bytes32,uint256)":"ee6b8b2e","ticketHolderVotingActive(bytes32)":"8b79dbe1","ticketHolderVotingPeriods(bytes32)":"f94976c0","ticketOwnerVoteIndex(bytes32,address)":"3cc44e19","transferOwnership(address)":"f2fde38b","upgradeToAndCall(address,bytes)":"4f1ef286","venueRegistryInstance()":"703ee4e5","vote(bytes32,uint256)":"9ef1204c","voteForDate(bytes32,uint256)":"81cf3ab8","votingPeriods(bytes32)":"c15f6bd7"},"id":79}