{"abi":[{"type":"function","name":"dateVotes","inputs":[{"name":"","type":"bytes32","internalType":"bytes32"},{"name":"","type":"uint256","internalType":"uint256"}],"outputs":[{"name":"","type":"uint256","internalType":"uint256"}],"stateMutability":"view"},{"type":"function","name":"hasDateVoted","inputs":[{"name":"","type":"bytes32","internalType":"bytes32"},{"name":"","type":"address","internalType":"address"}],"outputs":[{"name":"","type":"bool","internalType":"bool"}],"stateMutability":"view"},{"type":"function","name":"hasTicketOwnerVoted","inputs":[{"name":"","type":"bytes32","internalType":"bytes32"},{"name":"","type":"address","internalType":"address"}],"outputs":[{"name":"","type":"bool","internalType":"bool"}],"stateMutability":"view"},{"type":"function","name":"hasVoted","inputs":[{"name":"","type":"bytes32","internalType":"bytes32"},{"name":"","type":"address","internalType":"address"}],"outputs":[{"name":"","type":"bool","internalType":"bool"}],"stateMutability":"view"},{"type":"function","name":"previousDateVote","inputs":[{"name":"","type":"bytes32","internalType":"bytes32"},{"name":"","type":"address","internalType":"address"}],"outputs":[{"name":"","type":"uint256","internalType":"uint256"}],"stateMutability":"view"},{"type":"function","name":"previousVote","inputs":[{"name":"","type":"bytes32","internalType":"bytes32"},{"name":"","type":"address","internalType":"address"}],"outputs":[{"name":"","type":"uint256","internalType":"uint256"}],"stateMutability":"view"},{"type":"function","name":"proposalPeriod","inputs":[{"name":"","type":"bytes32","internalType":"bytes32"}],"outputs":[{"name":"endTime","type":"uint256","internalType":"uint256"},{"name":"isPeriodActive","type":"bool","internalType":"bool"}],"stateMutability":"view"},{"type":"function","name":"refunds","inputs":[{"name":"","type":"address","internalType":"address"}],"outputs":[{"name":"","type":"uint256","internalType":"uint256"}],"stateMutability":"view"},{"type":"function","name":"selectedDate","inputs":[{"name":"","type":"bytes32","internalType":"bytes32"}],"outputs":[{"name":"","type":"uint256","internalType":"uint256"}],"stateMutability":"view"},{"type":"function","name":"selectedProposalIndex","inputs":[{"name":"","type":"bytes32","internalType":"bytes32"}],"outputs":[{"name":"","type":"uint256","internalType":"uint256"}],"stateMutability":"view"},{"type":"function","name":"showProposals","inputs":[{"name":"","type":"bytes32","internalType":"bytes32"},{"name":"","type":"uint256","internalType":"uint256"}],"outputs":[{"name":"venue","type":"tuple","internalType":"struct VenueTypes.Venue","components":[{"name":"name","type":"string","internalType":"string"},{"name":"coordinates","type":"tuple","internalType":"struct VenueTypes.Coordinates","components":[{"name":"lat","type":"int256","internalType":"int256"},{"name":"lon","type":"int256","internalType":"int256"}]},{"name":"totalCapacity","type":"uint256","internalType":"uint256"},{"name":"wallet","type":"address","internalType":"address"},{"name":"venueId","type":"bytes32","internalType":"bytes32"}]},{"name":"proposer","type":"address","internalType":"address"},{"name":"bribe","type":"uint256","internalType":"uint256"},{"name":"votes","type":"uint256","internalType":"uint256"},{"name":"accepted","type":"bool","internalType":"bool"}],"stateMutability":"view"},{"type":"function","name":"ticketHolderVotingActive","inputs":[{"name":"","type":"bytes32","internalType":"bytes32"}],"outputs":[{"name":"","type":"bool","internalType":"bool"}],"stateMutability":"view"},{"type":"function","name":"ticketHolderVotingPeriods","inputs":[{"name":"","type":"bytes32","internalType":"bytes32"}],"outputs":[{"name":"endTime","type":"uint256","internalType":"uint256"},{"name":"isPeriodActive","type":"bool","internalType":"bool"}],"stateMutability":"view"},{"type":"function","name":"votingPeriods","inputs":[{"name":"","type":"bytes32","internalType":"bytes32"}],"outputs":[{"name":"endTime","type":"uint256","internalType":"uint256"},{"name":"isPeriodActive","type":"bool","internalType":"bool"}],"stateMutability":"view"}],"bytecode":{"object":"0x608060405234801561001057600080fd5b50610671806100206000396000f3fe608060405234801561001057600080fd5b50600436106100ea5760003560e01c8063b328da121161008c578063d360fb5f11610066578063d360fb5f146102b4578063d865ae3c146102df578063f51bba85146102ff578063f94976c01461032d57600080fd5b8063b328da121461022b578063bc3da5351461026a578063c15f6bd71461028a57600080fd5b8063960c8b45116100c8578063960c8b4514610180578063a16026f4146101a4578063aadc3b72146101d2578063ab07426f1461020057600080fd5b8063043c97fa146100ef578063665823711461012d5780638b79dbe11461014d575b600080fd5b61011a6100fd3660046104b1565b600760209081526000928352604080842090915290825290205481565b6040519081526020015b60405180910390f35b61011a61013b3660046104dd565b600a6020526000908152604090205481565b61017061015b3660046104dd565b600c6020526000908152604090205460ff1681565b6040519015158152602001610124565b61019361018e3660046104f6565b610357565b604051610124959493929190610518565b6101706101b23660046104b1565b600860209081526000928352604080842090915290825290205460ff1681565b6101706101e03660046104b1565b600260209081526000928352604080842090915290825290205460ff1681565b61011a61020e3660046104b1565b600560209081526000928352604080842090915290825290205481565b6102556102393660046104dd565b6000602081905290815260409020805460019091015460ff1682565b60408051928352901515602083015201610124565b61011a6102783660046105df565b600b6020526000908152604090205481565b6102556102983660046104dd565b6003602052600090815260409020805460019091015460ff1682565b61011a6102c23660046104f6565b600660209081526000928352604080842090915290825290205481565b61011a6102ed3660046104dd565b60096020526000908152604090205481565b61017061030d3660046104b1565b600460209081526000928352604080842090915290825290205460ff1681565b61025561033b3660046104dd565b600d602052600090815260409020805460019091015460ff1682565b6001602052816000526040600020818154811061037357600080fd5b90600052602060002090600b020160009150915050806000016040518060a00160405290816000820180546103a790610601565b80601f01602080910402602001604051908101604052809291908181526020018280546103d390610601565b80156104205780601f106103f557610100808354040283529160200191610420565b820191906000526020600020905b81548152906001019060200180831161040357829003601f168201915b505050918352505060408051808201825260018401548152600284015460208281019190915283015260038301549082015260048201546001600160a01b039081166060830152600590920154608090910152600783015460088401546009850154600a909501549394919092169260ff1685565b80356001600160a01b03811681146104ac57600080fd5b919050565b600080604083850312156104c457600080fd5b823591506104d460208401610495565b90509250929050565b6000602082840312156104ef57600080fd5b5035919050565b6000806040838503121561050957600080fd5b50508035926020909101359150565b60a081526000865160c060a084015280518061016085015260005b81811015610551576020818401810151610180878401015201610533565b5061018091506000828286010152602089015161057b60c086018280518252602090810151910152565b50604089015161010085015260608901516001600160a01b0390811661012086015260808a015161014086015288166020850152601f01601f191683010190508460408301528360608301526105d5608083018415159052565b9695505050505050565b6000602082840312156105f157600080fd5b6105fa82610495565b9392505050565b600181811c9082168061061557607f821691505b60208210810361063557634e487b7160e01b600052602260045260246000fd5b5091905056fea26469706673582212207d183e86be0931b48932c38d48095e5b678c2e57e4355f5c3f23eac8f1733aed64736f6c63430008140033","linkReferences":{}},"methodIdentifiers":{"dateVotes(bytes32,uint256)":"d360fb5f","hasDateVoted(bytes32,address)":"a16026f4","hasTicketOwnerVoted(bytes32,address)":"f51bba85","hasVoted(bytes32,address)":"aadc3b72","previousDateVote(bytes32,address)":"043c97fa","previousVote(bytes32,address)":"ab07426f","proposalPeriod(bytes32)":"b328da12","refunds(address)":"bc3da535","selectedDate(bytes32)":"d865ae3c","selectedProposalIndex(bytes32)":"66582371","showProposals(bytes32,uint256)":"960c8b45","ticketHolderVotingActive(bytes32)":"8b79dbe1","ticketHolderVotingPeriods(bytes32)":"f94976c0","votingPeriods(bytes32)":"c15f6bd7"},"id":88}