{"abi":[{"type":"function","name":"dateVotes","inputs":[{"name":"","type":"bytes32","internalType":"bytes32"},{"name":"","type":"uint256","internalType":"uint256"}],"outputs":[{"name":"","type":"uint256","internalType":"uint256"}],"stateMutability":"view"},{"type":"function","name":"hasDateVoted","inputs":[{"name":"","type":"bytes32","internalType":"bytes32"},{"name":"","type":"address","internalType":"address"}],"outputs":[{"name":"","type":"bool","internalType":"bool"}],"stateMutability":"view"},{"type":"function","name":"hasTicketOwnerVoted","inputs":[{"name":"","type":"bytes32","internalType":"bytes32"},{"name":"","type":"address","internalType":"address"}],"outputs":[{"name":"","type":"bool","internalType":"bool"}],"stateMutability":"view"},{"type":"function","name":"hasVoted","inputs":[{"name":"","type":"bytes32","internalType":"bytes32"},{"name":"","type":"address","internalType":"address"}],"outputs":[{"name":"","type":"bool","internalType":"bool"}],"stateMutability":"view"},{"type":"function","name":"previousDateVote","inputs":[{"name":"","type":"bytes32","internalType":"bytes32"},{"name":"","type":"address","internalType":"address"}],"outputs":[{"name":"","type":"uint256","internalType":"uint256"}],"stateMutability":"view"},{"type":"function","name":"previousVote","inputs":[{"name":"","type":"bytes32","internalType":"bytes32"},{"name":"","type":"address","internalType":"address"}],"outputs":[{"name":"","type":"uint256","internalType":"uint256"}],"stateMutability":"view"},{"type":"function","name":"proposalPeriod","inputs":[{"name":"","type":"bytes32","internalType":"bytes32"}],"outputs":[{"name":"endTime","type":"uint256","internalType":"uint256"},{"name":"isPeriodActive","type":"bool","internalType":"bool"}],"stateMutability":"view"},{"type":"function","name":"refunds","inputs":[{"name":"","type":"address","internalType":"address"}],"outputs":[{"name":"","type":"uint256","internalType":"uint256"}],"stateMutability":"view"},{"type":"function","name":"selectedDate","inputs":[{"name":"","type":"bytes32","internalType":"bytes32"}],"outputs":[{"name":"","type":"uint256","internalType":"uint256"}],"stateMutability":"view"},{"type":"function","name":"selectedProposalIndex","inputs":[{"name":"","type":"bytes32","internalType":"bytes32"}],"outputs":[{"name":"","type":"uint256","internalType":"uint256"}],"stateMutability":"view"},{"type":"function","name":"showProposals","inputs":[{"name":"","type":"bytes32","internalType":"bytes32"},{"name":"","type":"uint256","internalType":"uint256"}],"outputs":[{"name":"venue","type":"tuple","internalType":"struct VenueRegistryTypes.VenueInfo","components":[{"name":"venueId","type":"uint256","internalType":"uint256"},{"name":"name","type":"string","internalType":"string"},{"name":"bio","type":"string","internalType":"string"},{"name":"wallet","type":"address","internalType":"address"},{"name":"coordinates","type":"tuple","internalType":"struct VenueRegistryTypes.Coordinates","components":[{"name":"latitude","type":"int256","internalType":"int256"},{"name":"longitude","type":"int256","internalType":"int256"}]},{"name":"totalCapacity","type":"uint256","internalType":"uint256"},{"name":"streetAddress","type":"string","internalType":"string"}]},{"name":"proposer","type":"address","internalType":"address"},{"name":"bribe","type":"uint256","internalType":"uint256"},{"name":"votes","type":"uint256","internalType":"uint256"},{"name":"accepted","type":"bool","internalType":"bool"},{"name":"paymentToken","type":"address","internalType":"address"}],"stateMutability":"view"},{"type":"function","name":"ticketHolderVotingActive","inputs":[{"name":"","type":"bytes32","internalType":"bytes32"}],"outputs":[{"name":"","type":"bool","internalType":"bool"}],"stateMutability":"view"},{"type":"function","name":"ticketHolderVotingPeriods","inputs":[{"name":"","type":"bytes32","internalType":"bytes32"}],"outputs":[{"name":"endTime","type":"uint256","internalType":"uint256"},{"name":"isPeriodActive","type":"bool","internalType":"bool"}],"stateMutability":"view"},{"type":"function","name":"ticketOwnerVoteIndex","inputs":[{"name":"","type":"bytes32","internalType":"bytes32"},{"name":"","type":"address","internalType":"address"}],"outputs":[{"name":"","type":"uint256","internalType":"uint256"}],"stateMutability":"view"},{"type":"function","name":"votingPeriods","inputs":[{"name":"","type":"bytes32","internalType":"bytes32"}],"outputs":[{"name":"endTime","type":"uint256","internalType":"uint256"},{"name":"isPeriodActive","type":"bool","internalType":"bool"}],"stateMutability":"view"}],"bytecode":{"object":"0x608060405234801561001057600080fd5b5061084e806100206000396000f3fe608060405234801561001057600080fd5b50600436106100f55760003560e01c8063ab07426f11610097578063d360fb5f11610066578063d360fb5f146102eb578063d865ae3c14610316578063f51bba8514610336578063f94976c01461036457600080fd5b8063ab07426f14610237578063b328da1214610262578063bc3da535146102a1578063c15f6bd7146102c157600080fd5b80638b79dbe1116100d35780638b79dbe114610183578063960c8b45146101b6578063a16026f4146101db578063aadc3b721461020957600080fd5b8063043c97fa146100fa5780633cc44e19146101385780636658237114610163575b600080fd5b610125610108366004610625565b600860209081526000928352604080842090915290825290205481565b6040519081526020015b60405180910390f35b610125610146366004610625565b600560209081526000928352604080842090915290825290205481565b610125610171366004610651565b600b6020526000908152604090205481565b6101a6610191366004610651565b600d6020526000908152604090205460ff1681565b604051901515815260200161012f565b6101c96101c436600461066a565b61038e565b60405161012f969594939291906106d2565b6101a66101e9366004610625565b600960209081526000928352604080842090915290825290205460ff1681565b6101a6610217366004610625565b600260209081526000928352604080842090915290825290205460ff1681565b610125610245366004610625565b600660209081526000928352604080842090915290825290205481565b61028c610270366004610651565b6000602081905290815260409020805460019091015460ff1682565b6040805192835290151560208301520161012f565b6101256102af3660046107bc565b600c6020526000908152604090205481565b61028c6102cf366004610651565b6003602052600090815260409020805460019091015460ff1682565b6101256102f936600461066a565b600760209081526000928352604080842090915290825290205481565b610125610324366004610651565b600a6020526000908152604090205481565b6101a6610344366004610625565b600460209081526000928352604080842090915290825290205460ff1681565b61028c610372366004610651565b600e602052600090815260409020805460019091015460ff1682565b600160205281600052604060002081815481106103aa57600080fd5b90600052602060002090600d020160009150915050806000016040518060e0016040529081600082015481526020016001820180546103e8906107de565b80601f0160208091040260200160405190810160405280929190818152602001828054610414906107de565b80156104615780601f1061043657610100808354040283529160200191610461565b820191906000526020600020905b81548152906001019060200180831161044457829003601f168201915b5050505050815260200160028201805461047a906107de565b80601f01602080910402602001604051908101604052809291908181526020018280546104a6906107de565b80156104f35780601f106104c8576101008083540402835291602001916104f3565b820191906000526020600020905b8154815290600101906020018083116104d657829003601f168201915b505050918352505060038201546001600160a01b03166020808301919091526040805180820182526004850154815260058501549281019290925282015260068201546060820152600782018054608090920191610550906107de565b80601f016020809104026020016040519081016040528092919081815260200182805461057c906107de565b80156105c95780601f1061059e576101008083540402835291602001916105c9565b820191906000526020600020905b8154815290600101906020018083116105ac57829003601f168201915b505050919092525050506009820154600a830154600b840154600c9094015492936001600160a01b03928316939192909160ff8116916101009091041686565b80356001600160a01b038116811461062057600080fd5b919050565b6000806040838503121561063857600080fd5b8235915061064860208401610609565b90509250929050565b60006020828403121561066357600080fd5b5035919050565b6000806040838503121561067d57600080fd5b50508035926020909101359150565b6000815180845260005b818110156106b257602081850181015186830182015201610696565b506000602082860101526020601f19601f83011685010191505092915050565b60c08152865160c0820152600060208801516101008060e08501526106fb6101c085018361068c565b915060408a015160bf19808685030183870152610718848361068c565b60608d01516001600160a01b031661012088015260808d015180516101408901526020015161016088015260a08d015161018088015260c08d01518782039092016101a08801529350915061076f9050828261068c565b9250505061078860208301886001600160a01b03169052565b8560408301528460608301526107a2608083018515159052565b6001600160a01b03831660a0830152979650505050505050565b6000602082840312156107ce57600080fd5b6107d782610609565b9392505050565b600181811c908216806107f257607f821691505b60208210810361081257634e487b7160e01b600052602260045260246000fd5b5091905056fea2646970667358221220783b1965f75b709d39edde63b7ed2a96283dc1fa04703f451d939086c24c815064736f6c63430008140033","linkReferences":{}},"methodIdentifiers":{"dateVotes(bytes32,uint256)":"d360fb5f","hasDateVoted(bytes32,address)":"a16026f4","hasTicketOwnerVoted(bytes32,address)":"f51bba85","hasVoted(bytes32,address)":"aadc3b72","previousDateVote(bytes32,address)":"043c97fa","previousVote(bytes32,address)":"ab07426f","proposalPeriod(bytes32)":"b328da12","refunds(address)":"bc3da535","selectedDate(bytes32)":"d865ae3c","selectedProposalIndex(bytes32)":"66582371","showProposals(bytes32,uint256)":"960c8b45","ticketHolderVotingActive(bytes32)":"8b79dbe1","ticketHolderVotingPeriods(bytes32)":"f94976c0","ticketOwnerVoteIndex(bytes32,address)":"3cc44e19","votingPeriods(bytes32)":"c15f6bd7"},"id":87}