{"abi":[{"type":"function","name":"UPGRADE_INTERFACE_VERSION","inputs":[],"outputs":[{"name":"","type":"string","internalType":"string"}],"stateMutability":"view"},{"type":"function","name":"createVenueProxy","inputs":[{"name":"initialOwner","type":"address","internalType":"address"},{"name":"proposalPeriodDuration","type":"uint256","internalType":"uint256"},{"name":"proposalDateExtension","type":"uint256","internalType":"uint256"},{"name":"proposalDateMinimumFuture","type":"uint256","internalType":"uint256"},{"name":"proposalPeriodExtensionThreshold","type":"uint256","internalType":"uint256"}],"outputs":[{"name":"","type":"address","internalType":"address"}],"stateMutability":"nonpayable"},{"type":"function","name":"initialize","inputs":[{"name":"_venueImplementation","type":"address","internalType":"address"},{"name":"_version","type":"string","internalType":"string"},{"name":"_showAddress","type":"address","internalType":"address"}],"outputs":[],"stateMutability":"nonpayable"},{"type":"function","name":"owner","inputs":[],"outputs":[{"name":"","type":"address","internalType":"address"}],"stateMutability":"view"},{"type":"function","name":"proxiableUUID","inputs":[],"outputs":[{"name":"","type":"bytes32","internalType":"bytes32"}],"stateMutability":"view"},{"type":"function","name":"renounceOwnership","inputs":[],"outputs":[],"stateMutability":"nonpayable"},{"type":"function","name":"setVersion","inputs":[{"name":"_version","type":"string","internalType":"string"}],"outputs":[],"stateMutability":"nonpayable"},{"type":"function","name":"showAddress","inputs":[],"outputs":[{"name":"","type":"address","internalType":"address"}],"stateMutability":"view"},{"type":"function","name":"transferOwnership","inputs":[{"name":"newOwner","type":"address","internalType":"address"}],"outputs":[],"stateMutability":"nonpayable"},{"type":"function","name":"updateVenueImplementation","inputs":[{"name":"newImplementation","type":"address","internalType":"address"}],"outputs":[],"stateMutability":"nonpayable"},{"type":"function","name":"upgradeToAndCall","inputs":[{"name":"newImplementation","type":"address","internalType":"address"},{"name":"data","type":"bytes","internalType":"bytes"}],"outputs":[],"stateMutability":"payable"},{"type":"function","name":"venueImplementation","inputs":[],"outputs":[{"name":"","type":"address","internalType":"address"}],"stateMutability":"view"},{"type":"function","name":"version","inputs":[],"outputs":[{"name":"","type":"string","internalType":"string"}],"stateMutability":"view"},{"type":"event","name":"Initialized","inputs":[{"name":"version","type":"uint64","indexed":false,"internalType":"uint64"}],"anonymous":false},{"type":"event","name":"OwnershipTransferred","inputs":[{"name":"previousOwner","type":"address","indexed":true,"internalType":"address"},{"name":"newOwner","type":"address","indexed":true,"internalType":"address"}],"anonymous":false},{"type":"event","name":"Upgraded","inputs":[{"name":"implementation","type":"address","indexed":true,"internalType":"address"}],"anonymous":false},{"type":"event","name":"VenueProxyCreated","inputs":[{"name":"venueProxy","type":"address","indexed":true,"internalType":"address"}],"anonymous":false},{"type":"error","name":"AddressEmptyCode","inputs":[{"name":"target","type":"address","internalType":"address"}]},{"type":"error","name":"ERC1967InvalidImplementation","inputs":[{"name":"implementation","type":"address","internalType":"address"}]},{"type":"error","name":"ERC1967NonPayable","inputs":[]},{"type":"error","name":"FailedInnerCall","inputs":[]},{"type":"error","name":"InvalidInitialization","inputs":[]},{"type":"error","name":"NotInitializing","inputs":[]},{"type":"error","name":"OwnableInvalidOwner","inputs":[{"name":"owner","type":"address","internalType":"address"}]},{"type":"error","name":"OwnableUnauthorizedAccount","inputs":[{"name":"account","type":"address","internalType":"address"}]},{"type":"error","name":"UUPSUnauthorizedCallContext","inputs":[]},{"type":"error","name":"UUPSUnsupportedProxiableUUID","inputs":[{"name":"slot","type":"bytes32","internalType":"bytes32"}]}],"bytecode":{"object":"0x60a06040523060805234801561001457600080fd5b506080516115b861003e6000396000818161071a01528181610744015261089901526115b86000f3fe608060405260043610620000d25760003560e01c80637bb7c0d811620000895780639708ace211620000605780639708ace21462000240578063ad3cb1cc1462000265578063e44850ea1462000298578063f2fde38b14620002bd57600080fd5b80637bb7c0d814620001ba57806385ffebd714620001df5780638da5cb5b146200020157600080fd5b80633a630b4714620000d75780634f1ef286146200011657806352d1902d146200012f57806354fd4d501462000156578063715018a6146200017d578063788bc78c1462000195575b600080fd5b348015620000e457600080fd5b50600054620000f9906001600160a01b031681565b6040516001600160a01b0390911681526020015b60405180910390f35b6200012d6200012736600462000cc9565b620002e2565b005b3480156200013c57600080fd5b506200014762000307565b6040519081526020016200010d565b3480156200016357600080fd5b506200016e62000327565b6040516200010d919062000d86565b3480156200018a57600080fd5b506200012d620003bd565b348015620001a257600080fd5b506200012d620001b436600462000dbe565b620003d5565b348015620001c757600080fd5b506200012d620001d936600462000dff565b620003ed565b348015620001ec57600080fd5b50600254620000f9906001600160a01b031681565b3480156200020e57600080fd5b507f9016d09d72d40fdae2fd8ceac6b6234c7706214fd39c1cd1e609a0528c199300546001600160a01b0316620000f9565b3480156200024d57600080fd5b50620000f96200025f36600462000e65565b62000556565b3480156200027257600080fd5b506200016e604051806040016040528060058152602001640352e302e360dc1b81525081565b348015620002a557600080fd5b506200012d620002b736600462000eaa565b6200069f565b348015620002ca57600080fd5b506200012d620002dc36600462000eaa565b620006cb565b620002ec6200070f565b620002f782620007b8565b620003038282620007c2565b5050565b6000620003136200088e565b506000805160206200156383398151915290565b60018054620003369062000ec8565b80601f0160208091040260200160405190810160405280929190818152602001828054620003649062000ec8565b8015620003b55780601f106200038957610100808354040283529160200191620003b5565b820191906000526020600020905b8154815290600101906020018083116200039757829003601f168201915b505050505081565b620003c7620008d8565b620003d3600062000936565b565b620003df620008d8565b600162000303828262000f56565b7ff0c57e16840df040f15088dc2f81fe391c3923bec73e23a9662efc9c229c6a008054600160401b810460ff16159067ffffffffffffffff16600081158015620004345750825b905060008267ffffffffffffffff166001148015620004525750303b155b90508115801562000461575080155b15620004805760405163f92ee8a960e01b815260040160405180910390fd5b845467ffffffffffffffff191660011785558315620004ab57845460ff60401b1916600160401b1785555b620004b633620009a7565b620004c0620009bc565b600080546001600160a01b0319166001600160a01b038a161790556001620004e9888262000f56565b50600280546001600160a01b0319166001600160a01b03881617905583156200054c57845460ff60401b19168555604051600181527fc7f505b2f371ae2175ee4913f4499e1f2633a7b5936321eed1cdaeb6115181d29060200160405180910390a15b5050505050505050565b6002546000906001600160a01b03163314620005b95760405162461bcd60e51b815260206004820152601f60248201527f43616c6c6572206973206e6f74207468652053686f7720636f6e74726163740060448201526064015b60405180910390fd5b604080516001600160a01b03888116602483015260448201889052606482018790526084820186905260a48083018690528351808403909101815260c490920183526020820180516001600160e01b031663f92ad21960e01b1790526000805493519293909291169083906200062f9062000c0b565b6200063c92919062001023565b604051809103906000f08015801562000659573d6000803e3d6000fd5b5060405190915081906001600160a01b038216907fece2674e5105ddd864c0b94f6be0138122c7f633f30a78197c2c7b3c0ecdcfc290600090a298975050505050505050565b620006a9620008d8565b600080546001600160a01b0319166001600160a01b0392909216919091179055565b620006d5620008d8565b6001600160a01b0381166200070157604051631e4fbdf760e01b815260006004820152602401620005b0565b6200070c8162000936565b50565b306001600160a01b037f00000000000000000000000000000000000000000000000000000000000000001614806200079957507f00000000000000000000000000000000000000000000000000000000000000006001600160a01b03166200078d60008051602062001563833981519152546001600160a01b031690565b6001600160a01b031614155b15620003d35760405163703e46dd60e11b815260040160405180910390fd5b6200070c620008d8565b816001600160a01b03166352d1902d6040518163ffffffff1660e01b8152600401602060405180830381865afa9250505080156200081f575060408051601f3d908101601f191682019092526200081c9181019062001049565b60015b6200084957604051634c9c8ce360e01b81526001600160a01b0383166004820152602401620005b0565b6000805160206200156383398151915281146200087d57604051632a87526960e21b815260048101829052602401620005b0565b620008898383620009c6565b505050565b306001600160a01b037f00000000000000000000000000000000000000000000000000000000000000001614620003d35760405163703e46dd60e11b815260040160405180910390fd5b336200090b7f9016d09d72d40fdae2fd8ceac6b6234c7706214fd39c1cd1e609a0528c199300546001600160a01b031690565b6001600160a01b031614620003d35760405163118cdaa760e01b8152336004820152602401620005b0565b7f9016d09d72d40fdae2fd8ceac6b6234c7706214fd39c1cd1e609a0528c19930080546001600160a01b031981166001600160a01b03848116918217845560405192169182907f8be0079c531659141344cd1fd0a4f28419497f9722a3daafe3b4186f6b6457e090600090a3505050565b620009b162000a23565b6200070c8162000a6d565b620003d362000a23565b620009d18262000a77565b6040516001600160a01b038316907fbc7cd75a20ee27fd9adebab32041f755214dbc6bffa90cc0225b39da2e5c2d3b90600090a280511562000a195762000889828262000adf565b6200030362000b5b565b7ff0c57e16840df040f15088dc2f81fe391c3923bec73e23a9662efc9c229c6a0054600160401b900460ff16620003d357604051631afcd79f60e31b815260040160405180910390fd5b620006d562000a23565b806001600160a01b03163b60000362000aaf57604051634c9c8ce360e01b81526001600160a01b0382166004820152602401620005b0565b6000805160206200156383398151915280546001600160a01b0319166001600160a01b0392909216919091179055565b6060600080846001600160a01b03168460405162000afe919062001063565b600060405180830381855af49150503d806000811462000b3b576040519150601f19603f3d011682016040523d82523d6000602084013e62000b40565b606091505b509150915062000b5285838362000b7b565b95945050505050565b3415620003d35760405163b398979f60e01b815260040160405180910390fd5b60608262000b945762000b8e8262000be1565b62000bda565b815115801562000bac57506001600160a01b0384163b155b1562000bd757604051639996b31560e01b81526001600160a01b0385166004820152602401620005b0565b50805b9392505050565b80511562000bf25780518082602001fd5b604051630a12f52160e11b815260040160405180910390fd5b6104e1806200108283390190565b80356001600160a01b038116811462000c3157600080fd5b919050565b634e487b7160e01b600052604160045260246000fd5b600067ffffffffffffffff8084111562000c6a5762000c6a62000c36565b604051601f8501601f19908116603f0116810190828211818310171562000c955762000c9562000c36565b8160405280935085815286868601111562000caf57600080fd5b858560208301376000602087830101525050509392505050565b6000806040838503121562000cdd57600080fd5b62000ce88362000c19565b9150602083013567ffffffffffffffff81111562000d0557600080fd5b8301601f8101851362000d1757600080fd5b62000d288582356020840162000c4c565b9150509250929050565b60005b8381101562000d4f57818101518382015260200162000d35565b50506000910152565b6000815180845262000d7281602086016020860162000d32565b601f01601f19169290920160200192915050565b60208152600062000bda602083018462000d58565b600082601f83011262000dad57600080fd5b62000bda8383356020850162000c4c565b60006020828403121562000dd157600080fd5b813567ffffffffffffffff81111562000de957600080fd5b62000df78482850162000d9b565b949350505050565b60008060006060848603121562000e1557600080fd5b62000e208462000c19565b9250602084013567ffffffffffffffff81111562000e3d57600080fd5b62000e4b8682870162000d9b565b92505062000e5c6040850162000c19565b90509250925092565b600080600080600060a0868803121562000e7e57600080fd5b62000e898662000c19565b97602087013597506040870135966060810135965060800135945092505050565b60006020828403121562000ebd57600080fd5b62000bda8262000c19565b600181811c9082168062000edd57607f821691505b60208210810362000efe57634e487b7160e01b600052602260045260246000fd5b50919050565b601f8211156200088957600081815260208120601f850160051c8101602086101562000f2d5750805b601f850160051c820191505b8181101562000f4e5782815560010162000f39565b505050505050565b815167ffffffffffffffff81111562000f735762000f7362000c36565b62000f8b8162000f84845462000ec8565b8462000f04565b602080601f83116001811462000fc3576000841562000faa5750858301515b600019600386901b1c1916600185901b17855562000f4e565b600085815260208120601f198616915b8281101562000ff45788860151825594840194600190910190840162000fd3565b5085821015620010135787850151600019600388901b60f8161c191681555b5050505050600190811b01905550565b6001600160a01b038316815260406020820181905260009062000df79083018462000d58565b6000602082840312156200105c57600080fd5b5051919050565b600082516200107781846020870162000d32565b919091019291505056fe60806040526040516104e13803806104e1833981016040819052610022916102de565b61002e82826000610035565b50506103fb565b61003e83610061565b60008251118061004b5750805b1561005c5761005a83836100a1565b505b505050565b61006a816100cd565b6040516001600160a01b038216907fbc7cd75a20ee27fd9adebab32041f755214dbc6bffa90cc0225b39da2e5c2d3b90600090a250565b60606100c683836040518060600160405280602781526020016104ba60279139610180565b9392505050565b6001600160a01b0381163b61013f5760405162461bcd60e51b815260206004820152602d60248201527f455243313936373a206e657720696d706c656d656e746174696f6e206973206e60448201526c1bdd08184818dbdb9d1c9858dd609a1b60648201526084015b60405180910390fd5b7f360894a13ba1a3210667c828492db98dca3e2076cc3735a920a3ca505d382bbc80546001600160a01b0319166001600160a01b0392909216919091179055565b6060600080856001600160a01b03168560405161019d91906103ac565b600060405180830381855af49150503d80600081146101d8576040519150601f19603f3d011682016040523d82523d6000602084013e6101dd565b606091505b5090925090506101ef868383876101f9565b9695505050505050565b60608315610268578251600003610261576001600160a01b0385163b6102615760405162461bcd60e51b815260206004820152601d60248201527f416464726573733a2063616c6c20746f206e6f6e2d636f6e74726163740000006044820152606401610136565b5081610272565b610272838361027a565b949350505050565b81511561028a5781518083602001fd5b8060405162461bcd60e51b815260040161013691906103c8565b634e487b7160e01b600052604160045260246000fd5b60005b838110156102d55781810151838201526020016102bd565b50506000910152565b600080604083850312156102f157600080fd5b82516001600160a01b038116811461030857600080fd5b60208401519092506001600160401b038082111561032557600080fd5b818501915085601f83011261033957600080fd5b81518181111561034b5761034b6102a4565b604051601f8201601f19908116603f01168101908382118183101715610373576103736102a4565b8160405282815288602084870101111561038c57600080fd5b61039d8360208301602088016102ba565b80955050505050509250929050565b600082516103be8184602087016102ba565b9190910192915050565b60208152600082518060208401526103e78160408501602087016102ba565b601f01601f19169190910160400192915050565b60b1806104096000396000f3fe608060405236601057600e6013565b005b600e5b601f601b6021565b6058565b565b600060537f360894a13ba1a3210667c828492db98dca3e2076cc3735a920a3ca505d382bbc546001600160a01b031690565b905090565b3660008037600080366000845af43d6000803e8080156076573d6000f35b3d6000fdfea264697066735822122027f562cde8265aa90118a53b2f65370962feb418519bf39bfc7ccbb34402bb5164736f6c63430008140033416464726573733a206c6f772d6c6576656c2064656c65676174652063616c6c206661696c6564360894a13ba1a3210667c828492db98dca3e2076cc3735a920a3ca505d382bbca2646970667358221220131e6157a5dbbc7b398521442bb39fc86e3315873f3d261a102a321cb7f89e8064736f6c63430008140033","linkReferences":{}},"methodIdentifiers":{"UPGRADE_INTERFACE_VERSION()":"ad3cb1cc","createVenueProxy(address,uint256,uint256,uint256,uint256)":"9708ace2","initialize(address,string,address)":"7bb7c0d8","owner()":"8da5cb5b","proxiableUUID()":"52d1902d","renounceOwnership()":"715018a6","setVersion(string)":"788bc78c","showAddress()":"85ffebd7","transferOwnership(address)":"f2fde38b","updateVenueImplementation(address)":"e44850ea","upgradeToAndCall(address,bytes)":"4f1ef286","venueImplementation()":"3a630b47","version()":"54fd4d50"},"id":39}