{"abi":[{"type":"function","name":"UPGRADE_INTERFACE_VERSION","inputs":[],"outputs":[{"name":"","type":"string","internalType":"string"}],"stateMutability":"view"},{"type":"function","name":"createVenueProxy","inputs":[{"name":"initialOwner","type":"address","internalType":"address"},{"name":"proposalPeriodDuration","type":"uint256","internalType":"uint256"},{"name":"proposalDateExtension","type":"uint256","internalType":"uint256"},{"name":"proposalDateMinimumFuture","type":"uint256","internalType":"uint256"},{"name":"proposalPeriodExtensionThreshold","type":"uint256","internalType":"uint256"}],"outputs":[{"name":"","type":"address","internalType":"address"}],"stateMutability":"nonpayable"},{"type":"function","name":"deployedVenues","inputs":[{"name":"","type":"uint256","internalType":"uint256"}],"outputs":[{"name":"","type":"address","internalType":"address"}],"stateMutability":"view"},{"type":"function","name":"getDeployedVenues","inputs":[],"outputs":[{"name":"","type":"address[]","internalType":"address[]"}],"stateMutability":"view"},{"type":"function","name":"initialize","inputs":[{"name":"_venueImplementation","type":"address","internalType":"address"},{"name":"_version","type":"string","internalType":"string"},{"name":"_showAddress","type":"address","internalType":"address"}],"outputs":[],"stateMutability":"nonpayable"},{"type":"function","name":"owner","inputs":[],"outputs":[{"name":"","type":"address","internalType":"address"}],"stateMutability":"view"},{"type":"function","name":"proxiableUUID","inputs":[],"outputs":[{"name":"","type":"bytes32","internalType":"bytes32"}],"stateMutability":"view"},{"type":"function","name":"renounceOwnership","inputs":[],"outputs":[],"stateMutability":"nonpayable"},{"type":"function","name":"setVersion","inputs":[{"name":"_version","type":"string","internalType":"string"}],"outputs":[],"stateMutability":"nonpayable"},{"type":"function","name":"showAddress","inputs":[],"outputs":[{"name":"","type":"address","internalType":"address"}],"stateMutability":"view"},{"type":"function","name":"transferOwnership","inputs":[{"name":"newOwner","type":"address","internalType":"address"}],"outputs":[],"stateMutability":"nonpayable"},{"type":"function","name":"updateVenueImplementation","inputs":[{"name":"newImplementation","type":"address","internalType":"address"}],"outputs":[],"stateMutability":"nonpayable"},{"type":"function","name":"upgradeToAndCall","inputs":[{"name":"newImplementation","type":"address","internalType":"address"},{"name":"data","type":"bytes","internalType":"bytes"}],"outputs":[],"stateMutability":"payable"},{"type":"function","name":"venueImplementation","inputs":[],"outputs":[{"name":"","type":"address","internalType":"address"}],"stateMutability":"view"},{"type":"function","name":"version","inputs":[],"outputs":[{"name":"","type":"string","internalType":"string"}],"stateMutability":"view"},{"type":"event","name":"Initialized","inputs":[{"name":"version","type":"uint64","indexed":false,"internalType":"uint64"}],"anonymous":false},{"type":"event","name":"OwnershipTransferred","inputs":[{"name":"previousOwner","type":"address","indexed":true,"internalType":"address"},{"name":"newOwner","type":"address","indexed":true,"internalType":"address"}],"anonymous":false},{"type":"event","name":"Upgraded","inputs":[{"name":"implementation","type":"address","indexed":true,"internalType":"address"}],"anonymous":false},{"type":"event","name":"VenueProxyCreated","inputs":[{"name":"venueProxy","type":"address","indexed":true,"internalType":"address"}],"anonymous":false},{"type":"error","name":"AddressEmptyCode","inputs":[{"name":"target","type":"address","internalType":"address"}]},{"type":"error","name":"ERC1167FailedCreateClone","inputs":[]},{"type":"error","name":"ERC1967InvalidImplementation","inputs":[{"name":"implementation","type":"address","internalType":"address"}]},{"type":"error","name":"ERC1967NonPayable","inputs":[]},{"type":"error","name":"FailedInnerCall","inputs":[]},{"type":"error","name":"InvalidInitialization","inputs":[]},{"type":"error","name":"NotInitializing","inputs":[]},{"type":"error","name":"OwnableInvalidOwner","inputs":[{"name":"owner","type":"address","internalType":"address"}]},{"type":"error","name":"OwnableUnauthorizedAccount","inputs":[{"name":"account","type":"address","internalType":"address"}]},{"type":"error","name":"UUPSUnauthorizedCallContext","inputs":[]},{"type":"error","name":"UUPSUnsupportedProxiableUUID","inputs":[{"name":"slot","type":"bytes32","internalType":"bytes32"}]}],"bytecode":{"object":"0x60a06040523060805234801561001457600080fd5b5060805161116261003e60003960008181610788015281816107b101526108f701526111626000f3fe6080604052600436106100e85760003560e01c8063788bc78c1161008a5780639708ace2116100595780639708ace214610278578063ad3cb1cc14610298578063e44850ea146102c9578063f2fde38b146102e957600080fd5b8063788bc78c146101db5780637bb7c0d8146101fb57806385ffebd71461021b5780638da5cb5b1461023b57600080fd5b806354fd4d50116100c657806354fd4d501461016257806368b8fa1a146101845780636d1722c1146101a6578063715018a6146101c657600080fd5b80633a630b47146100ed5780634f1ef2861461012a57806352d1902d1461013f575b600080fd5b3480156100f957600080fd5b5060005461010d906001600160a01b031681565b6040516001600160a01b0390911681526020015b60405180910390f35b61013d610138366004610d58565b610309565b005b34801561014b57600080fd5b50610154610328565b604051908152602001610121565b34801561016e57600080fd5b50610177610345565b6040516101219190610dde565b34801561019057600080fd5b506101996103d3565b6040516101219190610e11565b3480156101b257600080fd5b5061010d6101c1366004610e5e565b610435565b3480156101d257600080fd5b5061013d61045f565b3480156101e757600080fd5b5061013d6101f6366004610e97565b610473565b34801561020757600080fd5b5061013d610216366004610ed4565b610487565b34801561022757600080fd5b5060035461010d906001600160a01b031681565b34801561024757600080fd5b507f9016d09d72d40fdae2fd8ceac6b6234c7706214fd39c1cd1e609a0528c199300546001600160a01b031661010d565b34801561028457600080fd5b5061010d610293366004610f32565b6105e4565b3480156102a457600080fd5b50610177604051806040016040528060058152602001640352e302e360dc1b81525081565b3480156102d557600080fd5b5061013d6102e4366004610f74565b610715565b3480156102f557600080fd5b5061013d610304366004610f74565b61073f565b61031161077d565b61031a82610822565b610324828261082a565b5050565b60006103326108ec565b5060008051602061110d83398151915290565b6002805461035290610f8f565b80601f016020809104026020016040519081016040528092919081815260200182805461037e90610f8f565b80156103cb5780601f106103a0576101008083540402835291602001916103cb565b820191906000526020600020905b8154815290600101906020018083116103ae57829003601f168201915b505050505081565b6060600180548060200260200160405190810160405280929190818152602001828054801561042b57602002820191906000526020600020905b81546001600160a01b0316815260019091019060200180831161040d575b5050505050905090565b6001818154811061044557600080fd5b6000918252602090912001546001600160a01b0316905081565b610467610935565b6104716000610990565b565b61047b610935565b60026103248282611017565b7ff0c57e16840df040f15088dc2f81fe391c3923bec73e23a9662efc9c229c6a008054600160401b810460ff16159067ffffffffffffffff166000811580156104cd5750825b905060008267ffffffffffffffff1660011480156104ea5750303b155b9050811580156104f8575080155b156105165760405163f92ee8a960e01b815260040160405180910390fd5b845467ffffffffffffffff19166001178555831561054057845460ff60401b1916600160401b1785555b61054933610a01565b610551610a12565b600080546001600160a01b0319166001600160a01b038a1617905560026105788882611017565b50600380546001600160a01b0319166001600160a01b03881617905583156105da57845460ff60401b19168555604051600181527fc7f505b2f371ae2175ee4913f4499e1f2633a7b5936321eed1cdaeb6115181d29060200160405180910390a15b5050505050505050565b6003546000906001600160a01b031633146106465760405162461bcd60e51b815260206004820152601f60248201527f43616c6c6572206973206e6f74207468652053686f7720636f6e74726163740060448201526064015b60405180910390fd5b6000805461065c906001600160a01b0316610a1a565b60405163f92ad21960e01b81526001600160a01b038981166004830152602482018990526044820188905260648201879052608482018690529192509082169063f92ad2199060a401600060405180830381600087803b1580156106bf57600080fd5b505af11580156106d3573d6000803e3d6000fd5b50506040516001600160a01b03841692507fece2674e5105ddd864c0b94f6be0138122c7f633f30a78197c2c7b3c0ecdcfc29150600090a29695505050505050565b61071d610935565b600080546001600160a01b0319166001600160a01b0392909216919091179055565b610747610935565b6001600160a01b03811661077157604051631e4fbdf760e01b81526000600482015260240161063d565b61077a81610990565b50565b306001600160a01b037f000000000000000000000000000000000000000000000000000000000000000016148061080457507f00000000000000000000000000000000000000000000000000000000000000006001600160a01b03166107f860008051602061110d833981519152546001600160a01b031690565b6001600160a01b031614155b156104715760405163703e46dd60e11b815260040160405180910390fd5b61077a610935565b816001600160a01b03166352d1902d6040518163ffffffff1660e01b8152600401602060405180830381865afa925050508015610884575060408051601f3d908101601f19168201909252610881918101906110d7565b60015b6108ac57604051634c9c8ce360e01b81526001600160a01b038316600482015260240161063d565b60008051602061110d83398151915281146108dd57604051632a87526960e21b81526004810182905260240161063d565b6108e78383610a8c565b505050565b306001600160a01b037f000000000000000000000000000000000000000000000000000000000000000016146104715760405163703e46dd60e11b815260040160405180910390fd5b336109677f9016d09d72d40fdae2fd8ceac6b6234c7706214fd39c1cd1e609a0528c199300546001600160a01b031690565b6001600160a01b0316146104715760405163118cdaa760e01b815233600482015260240161063d565b7f9016d09d72d40fdae2fd8ceac6b6234c7706214fd39c1cd1e609a0528c19930080546001600160a01b031981166001600160a01b03848116918217845560405192169182907f8be0079c531659141344cd1fd0a4f28419497f9722a3daafe3b4186f6b6457e090600090a3505050565b610a09610ae2565b61077a81610b2b565b610471610ae2565b6000763d602d80600a3d3981f3363d3d373d3d3d363d730000008260601b60e81c176000526e5af43d82803e903d91602b57fd5bf38260781b17602052603760096000f090506001600160a01b038116610a87576040516330be1a3d60e21b815260040160405180910390fd5b919050565b610a9582610b33565b6040516001600160a01b038316907fbc7cd75a20ee27fd9adebab32041f755214dbc6bffa90cc0225b39da2e5c2d3b90600090a2805115610ada576108e78282610b98565b610324610c0e565b7ff0c57e16840df040f15088dc2f81fe391c3923bec73e23a9662efc9c229c6a0054600160401b900460ff1661047157604051631afcd79f60e31b815260040160405180910390fd5b610747610ae2565b806001600160a01b03163b600003610b6957604051634c9c8ce360e01b81526001600160a01b038216600482015260240161063d565b60008051602061110d83398151915280546001600160a01b0319166001600160a01b0392909216919091179055565b6060600080846001600160a01b031684604051610bb591906110f0565b600060405180830381855af49150503d8060008114610bf0576040519150601f19603f3d011682016040523d82523d6000602084013e610bf5565b606091505b5091509150610c05858383610c2d565b95945050505050565b34156104715760405163b398979f60e01b815260040160405180910390fd5b606082610c4257610c3d82610c8c565b610c85565b8151158015610c5957506001600160a01b0384163b155b15610c8257604051639996b31560e01b81526001600160a01b038516600482015260240161063d565b50805b9392505050565b805115610c9c5780518082602001fd5b604051630a12f52160e11b815260040160405180910390fd5b80356001600160a01b0381168114610a8757600080fd5b634e487b7160e01b600052604160045260246000fd5b600067ffffffffffffffff80841115610cfd57610cfd610ccc565b604051601f8501601f19908116603f01168101908282118183101715610d2557610d25610ccc565b81604052809350858152868686011115610d3e57600080fd5b858560208301376000602087830101525050509392505050565b60008060408385031215610d6b57600080fd5b610d7483610cb5565b9150602083013567ffffffffffffffff811115610d9057600080fd5b8301601f81018513610da157600080fd5b610db085823560208401610ce2565b9150509250929050565b60005b83811015610dd5578181015183820152602001610dbd565b50506000910152565b6020815260008251806020840152610dfd816040850160208701610dba565b601f01601f19169190910160400192915050565b6020808252825182820181905260009190848201906040850190845b81811015610e525783516001600160a01b031683529284019291840191600101610e2d565b50909695505050505050565b600060208284031215610e7057600080fd5b5035919050565b600082601f830112610e8857600080fd5b610c8583833560208501610ce2565b600060208284031215610ea957600080fd5b813567ffffffffffffffff811115610ec057600080fd5b610ecc84828501610e77565b949350505050565b600080600060608486031215610ee957600080fd5b610ef284610cb5565b9250602084013567ffffffffffffffff811115610f0e57600080fd5b610f1a86828701610e77565b925050610f2960408501610cb5565b90509250925092565b600080600080600060a08688031215610f4a57600080fd5b610f5386610cb5565b97602087013597506040870135966060810135965060800135945092505050565b600060208284031215610f8657600080fd5b610c8582610cb5565b600181811c90821680610fa357607f821691505b602082108103610fc357634e487b7160e01b600052602260045260246000fd5b50919050565b601f8211156108e757600081815260208120601f850160051c81016020861015610ff05750805b601f850160051c820191505b8181101561100f57828155600101610ffc565b505050505050565b815167ffffffffffffffff81111561103157611031610ccc565b6110458161103f8454610f8f565b84610fc9565b602080601f83116001811461107a57600084156110625750858301515b600019600386901b1c1916600185901b17855561100f565b600085815260208120601f198616915b828110156110a95788860151825594840194600190910190840161108a565b50858210156110c75787850151600019600388901b60f8161c191681555b5050505050600190811b01905550565b6000602082840312156110e957600080fd5b5051919050565b60008251611102818460208701610dba565b919091019291505056fe360894a13ba1a3210667c828492db98dca3e2076cc3735a920a3ca505d382bbca2646970667358221220f6ca40acec056a8b6ed27c196258f7b174424d73fa971d43f35cc075f0fb7db964736f6c63430008140033","linkReferences":{}},"methodIdentifiers":{"UPGRADE_INTERFACE_VERSION()":"ad3cb1cc","createVenueProxy(address,uint256,uint256,uint256,uint256)":"9708ace2","deployedVenues(uint256)":"6d1722c1","getDeployedVenues()":"68b8fa1a","initialize(address,string,address)":"7bb7c0d8","owner()":"8da5cb5b","proxiableUUID()":"52d1902d","renounceOwnership()":"715018a6","setVersion(string)":"788bc78c","showAddress()":"85ffebd7","transferOwnership(address)":"f2fde38b","updateVenueImplementation(address)":"e44850ea","upgradeToAndCall(address,bytes)":"4f1ef286","venueImplementation()":"3a630b47","version()":"54fd4d50"},"id":86}