{"abi":[{"type":"function","name":"UPGRADE_INTERFACE_VERSION","inputs":[],"outputs":[{"name":"","type":"string","internalType":"string"}],"stateMutability":"view"},{"type":"function","name":"dateVotes","inputs":[{"name":"","type":"bytes32","internalType":"bytes32"},{"name":"","type":"uint256","internalType":"uint256"}],"outputs":[{"name":"","type":"uint256","internalType":"uint256"}],"stateMutability":"view"},{"type":"function","name":"getDateVotes","inputs":[{"name":"showId","type":"bytes32","internalType":"bytes32"},{"name":"date","type":"uint256","internalType":"uint256"}],"outputs":[{"name":"","type":"uint256","internalType":"uint256"}],"stateMutability":"view"},{"type":"function","name":"getHasDateVoted","inputs":[{"name":"showId","type":"bytes32","internalType":"bytes32"},{"name":"user","type":"address","internalType":"address"}],"outputs":[{"name":"","type":"bool","internalType":"bool"}],"stateMutability":"view"},{"type":"function","name":"getHasTicketOwnerVoted","inputs":[{"name":"showId","type":"bytes32","internalType":"bytes32"},{"name":"user","type":"address","internalType":"address"}],"outputs":[{"name":"","type":"bool","internalType":"bool"}],"stateMutability":"view"},{"type":"function","name":"getHasVoted","inputs":[{"name":"showId","type":"bytes32","internalType":"bytes32"},{"name":"user","type":"address","internalType":"address"}],"outputs":[{"name":"","type":"bool","internalType":"bool"}],"stateMutability":"view"},{"type":"function","name":"getPreviousDateVote","inputs":[{"name":"showId","type":"bytes32","internalType":"bytes32"},{"name":"user","type":"address","internalType":"address"}],"outputs":[{"name":"","type":"uint256","internalType":"uint256"}],"stateMutability":"view"},{"type":"function","name":"getPreviousVote","inputs":[{"name":"showId","type":"bytes32","internalType":"bytes32"},{"name":"user","type":"address","internalType":"address"}],"outputs":[{"name":"","type":"uint256","internalType":"uint256"}],"stateMutability":"view"},{"type":"function","name":"getProposalPeriod","inputs":[{"name":"showId","type":"bytes32","internalType":"bytes32"}],"outputs":[{"name":"","type":"tuple","internalType":"struct VenueTypes.ProposalPeriod","components":[{"name":"endTime","type":"uint256","internalType":"uint256"},{"name":"isPeriodActive","type":"bool","internalType":"bool"}]}],"stateMutability":"view"},{"type":"function","name":"getRefunds","inputs":[{"name":"user","type":"address","internalType":"address"}],"outputs":[{"name":"","type":"uint256","internalType":"uint256"}],"stateMutability":"view"},{"type":"function","name":"getSelectedDate","inputs":[{"name":"showId","type":"bytes32","internalType":"bytes32"}],"outputs":[{"name":"","type":"uint256","internalType":"uint256"}],"stateMutability":"view"},{"type":"function","name":"getSelectedProposalIndex","inputs":[{"name":"showId","type":"bytes32","internalType":"bytes32"}],"outputs":[{"name":"","type":"uint256","internalType":"uint256"}],"stateMutability":"view"},{"type":"function","name":"getShowProposals","inputs":[{"name":"showId","type":"bytes32","internalType":"bytes32"}],"outputs":[{"name":"","type":"tuple[]","internalType":"struct VenueTypes.Proposal[]","components":[{"name":"venue","type":"tuple","internalType":"struct VenueTypes.Venue","components":[{"name":"name","type":"string","internalType":"string"},{"name":"coordinates","type":"tuple","internalType":"struct VenueTypes.Coordinates","components":[{"name":"lat","type":"int256","internalType":"int256"},{"name":"lon","type":"int256","internalType":"int256"}]},{"name":"totalCapacity","type":"uint256","internalType":"uint256"},{"name":"wallet","type":"address","internalType":"address"},{"name":"venueId","type":"bytes32","internalType":"bytes32"}]},{"name":"proposedDates","type":"uint256[]","internalType":"uint256[]"},{"name":"proposer","type":"address","internalType":"address"},{"name":"bribe","type":"uint256","internalType":"uint256"},{"name":"votes","type":"uint256","internalType":"uint256"},{"name":"accepted","type":"bool","internalType":"bool"}]}],"stateMutability":"view"},{"type":"function","name":"getVotingPeriods","inputs":[{"name":"showId","type":"bytes32","internalType":"bytes32"}],"outputs":[{"name":"","type":"tuple","internalType":"struct VenueTypes.VotingPeriod","components":[{"name":"endTime","type":"uint256","internalType":"uint256"},{"name":"isPeriodActive","type":"bool","internalType":"bool"}]}],"stateMutability":"view"},{"type":"function","name":"hasDateVoted","inputs":[{"name":"","type":"bytes32","internalType":"bytes32"},{"name":"","type":"address","internalType":"address"}],"outputs":[{"name":"","type":"bool","internalType":"bool"}],"stateMutability":"view"},{"type":"function","name":"hasTicketOwnerVoted","inputs":[{"name":"","type":"bytes32","internalType":"bytes32"},{"name":"","type":"address","internalType":"address"}],"outputs":[{"name":"","type":"bool","internalType":"bool"}],"stateMutability":"view"},{"type":"function","name":"hasVoted","inputs":[{"name":"","type":"bytes32","internalType":"bytes32"},{"name":"","type":"address","internalType":"address"}],"outputs":[{"name":"","type":"bool","internalType":"bool"}],"stateMutability":"view"},{"type":"function","name":"initialize","inputs":[{"name":"initialOwner","type":"address","internalType":"address"},{"name":"_showBaseContractAddress","type":"address","internalType":"address"},{"name":"_ticketBaseContractAddress","type":"address","internalType":"address"}],"outputs":[],"stateMutability":"nonpayable"},{"type":"function","name":"owner","inputs":[],"outputs":[{"name":"","type":"address","internalType":"address"}],"stateMutability":"view"},{"type":"function","name":"previousDateVote","inputs":[{"name":"","type":"bytes32","internalType":"bytes32"},{"name":"","type":"address","internalType":"address"}],"outputs":[{"name":"","type":"uint256","internalType":"uint256"}],"stateMutability":"view"},{"type":"function","name":"previousVote","inputs":[{"name":"","type":"bytes32","internalType":"bytes32"},{"name":"","type":"address","internalType":"address"}],"outputs":[{"name":"","type":"uint256","internalType":"uint256"}],"stateMutability":"view"},{"type":"function","name":"proposalPeriod","inputs":[{"name":"","type":"bytes32","internalType":"bytes32"}],"outputs":[{"name":"endTime","type":"uint256","internalType":"uint256"},{"name":"isPeriodActive","type":"bool","internalType":"bool"}],"stateMutability":"view"},{"type":"function","name":"proxiableUUID","inputs":[],"outputs":[{"name":"","type":"bytes32","internalType":"bytes32"}],"stateMutability":"view"},{"type":"function","name":"refunds","inputs":[{"name":"","type":"address","internalType":"address"}],"outputs":[{"name":"","type":"uint256","internalType":"uint256"}],"stateMutability":"view"},{"type":"function","name":"renounceOwnership","inputs":[],"outputs":[],"stateMutability":"nonpayable"},{"type":"function","name":"selectedDate","inputs":[{"name":"","type":"bytes32","internalType":"bytes32"}],"outputs":[{"name":"","type":"uint256","internalType":"uint256"}],"stateMutability":"view"},{"type":"function","name":"selectedProposalIndex","inputs":[{"name":"","type":"bytes32","internalType":"bytes32"}],"outputs":[{"name":"","type":"uint256","internalType":"uint256"}],"stateMutability":"view"},{"type":"function","name":"showInstance","inputs":[],"outputs":[{"name":"","type":"address","internalType":"contract IShow"}],"stateMutability":"view"},{"type":"function","name":"showProposals","inputs":[{"name":"","type":"bytes32","internalType":"bytes32"},{"name":"","type":"uint256","internalType":"uint256"}],"outputs":[{"name":"venue","type":"tuple","internalType":"struct VenueTypes.Venue","components":[{"name":"name","type":"string","internalType":"string"},{"name":"coordinates","type":"tuple","internalType":"struct VenueTypes.Coordinates","components":[{"name":"lat","type":"int256","internalType":"int256"},{"name":"lon","type":"int256","internalType":"int256"}]},{"name":"totalCapacity","type":"uint256","internalType":"uint256"},{"name":"wallet","type":"address","internalType":"address"},{"name":"venueId","type":"bytes32","internalType":"bytes32"}]},{"name":"proposer","type":"address","internalType":"address"},{"name":"bribe","type":"uint256","internalType":"uint256"},{"name":"votes","type":"uint256","internalType":"uint256"},{"name":"accepted","type":"bool","internalType":"bool"}],"stateMutability":"view"},{"type":"function","name":"submitProposal","inputs":[{"name":"showId","type":"bytes32","internalType":"bytes32"},{"name":"venueName","type":"string","internalType":"string"},{"name":"coordinates","type":"tuple","internalType":"struct VenueTypes.Coordinates","components":[{"name":"lat","type":"int256","internalType":"int256"},{"name":"lon","type":"int256","internalType":"int256"}]},{"name":"totalCapacity","type":"uint256","internalType":"uint256"},{"name":"proposedDates","type":"uint256[]","internalType":"uint256[]"}],"outputs":[],"stateMutability":"payable"},{"type":"function","name":"ticketHolderVenueVote","inputs":[{"name":"showId","type":"bytes32","internalType":"bytes32"},{"name":"proposalIndex","type":"uint256","internalType":"uint256"}],"outputs":[],"stateMutability":"nonpayable"},{"type":"function","name":"ticketHolderVotingActive","inputs":[{"name":"","type":"bytes32","internalType":"bytes32"}],"outputs":[{"name":"","type":"bool","internalType":"bool"}],"stateMutability":"view"},{"type":"function","name":"ticketHolderVotingPeriods","inputs":[{"name":"","type":"bytes32","internalType":"bytes32"}],"outputs":[{"name":"endTime","type":"uint256","internalType":"uint256"},{"name":"isPeriodActive","type":"bool","internalType":"bool"}],"stateMutability":"view"},{"type":"function","name":"ticketInstance","inputs":[],"outputs":[{"name":"","type":"address","internalType":"contract ITicket"}],"stateMutability":"view"},{"type":"function","name":"transferOwnership","inputs":[{"name":"newOwner","type":"address","internalType":"address"}],"outputs":[],"stateMutability":"nonpayable"},{"type":"function","name":"upgradeToAndCall","inputs":[{"name":"newImplementation","type":"address","internalType":"address"},{"name":"data","type":"bytes","internalType":"bytes"}],"outputs":[],"stateMutability":"payable"},{"type":"function","name":"vote","inputs":[{"name":"showId","type":"bytes32","internalType":"bytes32"},{"name":"proposalIndex","type":"uint256","internalType":"uint256"}],"outputs":[],"stateMutability":"nonpayable"},{"type":"function","name":"voteForDate","inputs":[{"name":"showId","type":"bytes32","internalType":"bytes32"},{"name":"dateIndex","type":"uint256","internalType":"uint256"}],"outputs":[],"stateMutability":"nonpayable"},{"type":"function","name":"votingPeriods","inputs":[{"name":"","type":"bytes32","internalType":"bytes32"}],"outputs":[{"name":"endTime","type":"uint256","internalType":"uint256"},{"name":"isPeriodActive","type":"bool","internalType":"bool"}],"stateMutability":"view"},{"type":"event","name":"DateAccepted","inputs":[{"name":"showId","type":"bytes32","indexed":true,"internalType":"bytes32"},{"name":"dateIndex","type":"uint256","indexed":false,"internalType":"uint256"}],"anonymous":false},{"type":"event","name":"DateVoted","inputs":[{"name":"showId","type":"bytes32","indexed":true,"internalType":"bytes32"},{"name":"voter","type":"address","indexed":true,"internalType":"address"},{"name":"dateIndex","type":"uint256","indexed":false,"internalType":"uint256"}],"anonymous":false},{"type":"event","name":"Initialized","inputs":[{"name":"version","type":"uint64","indexed":false,"internalType":"uint64"}],"anonymous":false},{"type":"event","name":"OwnershipTransferred","inputs":[{"name":"previousOwner","type":"address","indexed":true,"internalType":"address"},{"name":"newOwner","type":"address","indexed":true,"internalType":"address"}],"anonymous":false},{"type":"event","name":"ProposalAccepted","inputs":[{"name":"showId","type":"bytes32","indexed":true,"internalType":"bytes32"},{"name":"proposalIndex","type":"uint256","indexed":false,"internalType":"uint256"}],"anonymous":false},{"type":"event","name":"ProposalPeriodStarted","inputs":[{"name":"showId","type":"bytes32","indexed":true,"internalType":"bytes32"},{"name":"endTime","type":"uint256","indexed":false,"internalType":"uint256"}],"anonymous":false},{"type":"event","name":"ProposalSubmitted","inputs":[{"name":"showId","type":"bytes32","indexed":true,"internalType":"bytes32"},{"name":"proposer","type":"address","indexed":true,"internalType":"address"},{"name":"venueName","type":"string","indexed":false,"internalType":"string"},{"name":"bribe","type":"uint256","indexed":false,"internalType":"uint256"}],"anonymous":false},{"type":"event","name":"ProposalVoted","inputs":[{"name":"showId","type":"bytes32","indexed":true,"internalType":"bytes32"},{"name":"voter","type":"address","indexed":true,"internalType":"address"},{"name":"proposalIndex","type":"uint256","indexed":false,"internalType":"uint256"}],"anonymous":false},{"type":"event","name":"PublicVotingPeriodStarted","inputs":[{"name":"showId","type":"bytes32","indexed":true,"internalType":"bytes32"},{"name":"endTime","type":"uint256","indexed":false,"internalType":"uint256"}],"anonymous":false},{"type":"event","name":"Upgraded","inputs":[{"name":"implementation","type":"address","indexed":true,"internalType":"address"}],"anonymous":false},{"type":"event","name":"VenueVoted","inputs":[{"name":"showId","type":"bytes32","indexed":true,"internalType":"bytes32"},{"name":"voter","type":"address","indexed":true,"internalType":"address"},{"name":"proposalIndex","type":"uint256","indexed":false,"internalType":"uint256"}],"anonymous":false},{"type":"error","name":"AddressEmptyCode","inputs":[{"name":"target","type":"address","internalType":"address"}]},{"type":"error","name":"ERC1967InvalidImplementation","inputs":[{"name":"implementation","type":"address","internalType":"address"}]},{"type":"error","name":"ERC1967NonPayable","inputs":[]},{"type":"error","name":"FailedInnerCall","inputs":[]},{"type":"error","name":"InvalidInitialization","inputs":[]},{"type":"error","name":"NotInitializing","inputs":[]},{"type":"error","name":"OwnableInvalidOwner","inputs":[{"name":"owner","type":"address","internalType":"address"}]},{"type":"error","name":"OwnableUnauthorizedAccount","inputs":[{"name":"account","type":"address","internalType":"address"}]},{"type":"error","name":"UUPSUnauthorizedCallContext","inputs":[]},{"type":"error","name":"UUPSUnsupportedProxiableUUID","inputs":[{"name":"slot","type":"bytes32","internalType":"bytes32"}]}],"bytecode":{"object":"0x60a06040523060805234801561001457600080fd5b5060805161333a61003e600039600081816120af015281816120d8015261221e015261333a6000f3fe6080604052600436106102305760003560e01c80639ef1204c1161012e578063d865ae3c116100ab578063eef281361161006f578063eef28136146108e9578063f2fde38b14610947578063f51bba8514610967578063f60eab04146109a2578063f94976c0146109cf57600080fd5b8063d865ae3c1461082f578063dda9b13c1461085c578063e0174d781461086f578063e9801fcb1461089c578063ee6b8b2e146108c957600080fd5b8063b328da12116100f2578063b328da1214610727578063bc3da53514610773578063c0c53b8b146107a0578063c15f6bd7146107c0578063d360fb5f146107f757600080fd5b80639ef1204c1461061b578063a16026f41461063b578063aadc3b7214610676578063ab07426f146106b1578063ad3cb1cc146106e957600080fd5b80634f1ef286116101bc57806384f3e62c1161018057806384f3e62c146105025780638b79dbe11461053a5780638da5cb5b1461056a578063940fed20146105a7578063960c8b45146105ea57600080fd5b80634f1ef2861461047657806352d1902d1461048b57806366582371146104a0578063715018a6146104cd57806381cf3ab8146104e257600080fd5b806325d4e7e81161020357806325d4e7e81461031e578063398ac6c314610364578063404f49d1146103aa57806347cc6095146103ca5780634de892861461040d57600080fd5b80630233ce6a1461023557806303c22ec414610272578063043c97fa146102b657806321e2c8cf146102ee575b600080fd5b34801561024157600080fd5b50600f54610255906001600160a01b031681565b6040516001600160a01b0390911681526020015b60405180910390f35b34801561027e57600080fd5b506102a861028d366004612ac3565b6001600160a01b03166000908152600b602052604090205490565b604051908152602001610269565b3480156102c257600080fd5b506102a86102d1366004612ade565b600760209081526000928352604080842090915290825290205481565b3480156102fa57600080fd5b5061030e610309366004612ade565b610a06565b6040519015158152602001610269565b34801561032a57600080fd5b5061030e610339366004612ade565b60009182526004602090815260408084206001600160a01b0393909316845291905290205460ff1690565b34801561037057600080fd5b5061030e61037f366004612ade565b60009182526002602090815260408084206001600160a01b0393909316845291905290205460ff1690565b3480156103b657600080fd5b50600e54610255906001600160a01b031681565b3480156103d657600080fd5b506102a86103e5366004612ade565b60009182526005602090815260408084206001600160a01b0393909316845291905290205490565b34801561041957600080fd5b50610469610428366004612b0a565b604080518082019091526000808252602082015250600090815260208181526040918290208251808401909352805483526001015460ff1615159082015290565b6040516102699190612b23565b610489610484366004612c04565b610a33565b005b34801561049757600080fd5b506102a8610a52565b3480156104ac57600080fd5b506102a86104bb366004612b0a565b600a6020526000908152604090205481565b3480156104d957600080fd5b50610489610a6f565b3480156104ee57600080fd5b506104896104fd366004612c66565b610a83565b34801561050e57600080fd5b506102a861051d366004612c66565b600091825260066020908152604080842092845291905290205490565b34801561054657600080fd5b5061030e610555366004612b0a565b600c6020526000908152604090205460ff1681565b34801561057657600080fd5b507f9016d09d72d40fdae2fd8ceac6b6234c7706214fd39c1cd1e609a0528c199300546001600160a01b0316610255565b3480156105b357600080fd5b506102a86105c2366004612ade565b60009182526007602090815260408084206001600160a01b0393909316845291905290205490565b3480156105f657600080fd5b5061060a610605366004612c66565b610ec8565b604051610269959493929190612d36565b34801561062757600080fd5b50610489610636366004612c66565b611006565b34801561064757600080fd5b5061030e610656366004612ade565b600860209081526000928352604080842090915290825290205460ff1681565b34801561068257600080fd5b5061030e610691366004612ade565b600260209081526000928352604080842090915290825290205460ff1681565b3480156106bd57600080fd5b506102a86106cc366004612ade565b600560209081526000928352604080842090915290825290205481565b3480156106f557600080fd5b5061071a604051806040016040528060058152602001640352e302e360dc1b81525081565b6040516102699190612d78565b34801561073357600080fd5b5061075e610742366004612b0a565b6000602081905290815260409020805460019091015460ff1682565b60408051928352901515602083015201610269565b34801561077f57600080fd5b506102a861078e366004612ac3565b600b6020526000908152604090205481565b3480156107ac57600080fd5b506104896107bb366004612d8b565b6114bb565b3480156107cc57600080fd5b5061075e6107db366004612b0a565b6003602052600090815260409020805460019091015460ff1682565b34801561080357600080fd5b506102a8610812366004612c66565b600660209081526000928352604080842090915290825290205481565b34801561083b57600080fd5b506102a861084a366004612b0a565b60096020526000908152604090205481565b61048961086a366004612e4e565b611605565b34801561087b57600080fd5b506102a861088a366004612b0a565b60009081526009602052604090205490565b3480156108a857600080fd5b506108bc6108b7366004612b0a565b611bf6565b6040516102699190612f0e565b3480156108d557600080fd5b506104896108e4366004612c66565b611de4565b3480156108f557600080fd5b50610469610904366004612b0a565b6040805180820190915260008082526020820152506000908152600360209081526040918290208251808401909352805483526001015460ff1615159082015290565b34801561095357600080fd5b50610489610962366004612ac3565b612066565b34801561097357600080fd5b5061030e610982366004612ade565b600460209081526000928352604080842090915290825290205460ff1681565b3480156109ae57600080fd5b506102a86109bd366004612b0a565b6000908152600a602052604090205490565b3480156109db57600080fd5b5061075e6109ea366004612b0a565b600d602052600090815260409020805460019091015460ff1682565b60008281526008602090815260408083206001600160a01b038516845290915290205460ff165b92915050565b610a3b6120a4565b610a4482612149565b610a4e8282612151565b5050565b6000610a5c612213565b506000805160206132e583398151915290565b610a7761225c565b610a8160006122b7565b565b600e54604051632769b96d60e11b81523360048201526024810184905283916001600160a01b031690634ed372da90604401602060405180830381865afa158015610ad2573d6000803e3d6000fd5b505050506040513d601f19601f82011682018060405250810190610af69190612ff0565b80610b6f5750600e546040516302c9a8b560e01b8152336004820152602481018390526001600160a01b03909116906302c9a8b590604401602060405180830381865afa158015610b4b573d6000803e3d6000fd5b505050506040513d601f19601f82011682018060405250810190610b6f9190612ff0565b610bb15760405162461bcd60e51b815260206004820152600e60248201526d139bdd08185d5d1a1bdc9a5e995960921b60448201526064015b60405180910390fd5b600083815260016020908152604080832054600a9092529091205410610c245760405162461bcd60e51b815260206004820152602260248201527f4e6f2073656c65637465642070726f706f73616c20666f7220746869732073686044820152616f7760f01b6064820152608401610ba8565b6000838152600160209081526040808320600a9092529091205481548110610c4e57610c4e613012565b90600052602060002090600b0201600601805490508210610ca65760405162461bcd60e51b8152602060048201526012602482015271092dcecc2d8d2c840c8c2e8ca40d2dcc8caf60731b6044820152606401610ba8565b60008381526020819052604090205415801590610cd0575060008381526020819052604090205442115b610d1c5760405162461bcd60e51b815260206004820152601f60248201527f566f74696e6720706572696f6420686173206e6f7420656e64656420796574006044820152606401610ba8565b600083815260086020908152604080832033808552908352818420548785526007845282852091855292529091205460ff90911690818015610d5e5750838114155b15610d8e5760008581526006602090815260408083208484529091528120805491610d888361303e565b91905055505b60008581526006602090815260408083208784529091528120805491610db383613055565b9091555050600085815260086020908152604080832033808552908352818420805460ff19166001179055888452600783528184208185528352928190208790555186815287917f9be4e7a28923fc7c16e20aa07e4d848cd6b3c9a28c315d27b3c51718cfd6ef59910160405180910390a3600e5460405163217fe85b60e21b8152600481018790526000916001600160a01b0316906385ffa16c90602401602060405180830381865afa158015610e6f573d6000803e3d6000fd5b505050506040513d601f19601f82011682018060405250810190610e93919061306e565b60008781526006602090815260408083208984529091529020549091508111610ec057610ec08686612328565b505050505050565b60016020528160005260406000208181548110610ee457600080fd5b90600052602060002090600b020160009150915050806000016040518060a0016040529081600082018054610f1890613087565b80601f0160208091040260200160405190810160405280929190818152602001828054610f4490613087565b8015610f915780601f10610f6657610100808354040283529160200191610f91565b820191906000526020600020905b815481529060010190602001808311610f7457829003601f168201915b505050918352505060408051808201825260018401548152600284015460208281019190915283015260038301549082015260048201546001600160a01b039081166060830152600590920154608090910152600783015460088401546009850154600a909501549394919092169260ff1685565b600e54604051632769b96d60e11b81523360048201526024810184905283916001600160a01b031690634ed372da90604401602060405180830381865afa158015611055573d6000803e3d6000fd5b505050506040513d601f19601f820116820180604052508101906110799190612ff0565b806110f25750600e546040516302c9a8b560e01b8152336004820152602481018390526001600160a01b03909116906302c9a8b590604401602060405180830381865afa1580156110ce573d6000803e3d6000fd5b505050506040513d601f19601f820116820180604052508101906110f29190612ff0565b61112f5760405162461bcd60e51b815260206004820152600e60248201526d139bdd08185d5d1a1bdc9a5e995960921b6044820152606401610ba8565b60008381526001602052604090205482106111855760405162461bcd60e51b8152602060048201526016602482015275092dcecc2d8d2c840e0e4dee0dee6c2d840d2dcc8caf60531b6044820152606401610ba8565b600083815260208190526040902054158015906111af575060008381526020819052604090205442115b6111fb5760405162461bcd60e51b815260206004820152601f60248201527f566f74696e6720706572696f6420686173206e6f7420656e64656420796574006044820152606401610ba8565b6000838152600c602052604090205460ff16158061122657506000838152600d602052604090205442115b6112895760405162461bcd60e51b815260206004820152602e60248201527f5469636b657420686f6c64657220766f74696e67207068617365206d7573742060448201526d18dbdb98db1d591948199a5c9cdd60921b6064820152608401610ba8565b600083815260026020908152604080832033808552908352818420548785526005845282852091855292529091205460ff909116908115611357578381036113135760405162461bcd60e51b815260206004820152601c60248201527f416c726561647920766f74656420666f7220746869732076656e7565000000006044820152606401610ba8565b600085815260016020526040902080548290811061133357611333613012565b6000918252602082206009600b90920201018054916113518361303e565b91905055505b600085815260016020526040902080548590811061137757611377613012565b6000918252602082206009600b909202010180549161139583613055565b9091555050600085815260026020908152604080832033808552908352818420805460ff19166001179055888452600583528184208185528352928190208790555186815287917f09e638baf0aa9cdb2a3233767bf1f976e138af255c4da751ab01215f4c96f2b0910160405180910390a3600e5460405163217fe85b60e21b8152600481018790526000916001600160a01b0316906385ffa16c90602401602060405180830381865afa158015611451573d6000803e3d6000fd5b505050506040513d601f19601f82011682018060405250810190611475919061306e565b6000878152600160205260409020805491925082918790811061149a5761149a613012565b90600052602060002090600b02016009015410610ec057610ec08686612430565b7ff0c57e16840df040f15088dc2f81fe391c3923bec73e23a9662efc9c229c6a008054600160401b810460ff16159067ffffffffffffffff166000811580156115015750825b905060008267ffffffffffffffff16600114801561151e5750303b155b90508115801561152c575080155b1561154a5760405163f92ee8a960e01b815260040160405180910390fd5b845467ffffffffffffffff19166001178555831561157457845460ff60401b1916600160401b1785555b61157d88612702565b611585612713565b600e80546001600160a01b03808a166001600160a01b031992831617909255600f80549289169290911691909117905583156115fb57845460ff60401b19168555604051600181527fc7f505b2f371ae2175ee4913f4499e1f2633a7b5936321eed1cdaeb6115181d29060200160405180910390a15b5050505050505050565b600e546040516346c2c8a760e01b8152600481018790526001916001600160a01b0316906346c2c8a790602401602060405180830381865afa15801561164f573d6000803e3d6000fd5b505050506040513d601f19601f8201168201806040525081019061167391906130d7565b6007811115611684576116846130c1565b146116c85760405162461bcd60e51b815260206004820152601460248201527314da1bddc81b5d5cdd0818994814dbdb1913dd5d60621b6044820152606401610ba8565b60008581526020819052604090205415806116f157506000858152602081905260409020544211155b61173d5760405162461bcd60e51b815260206004820152601960248201527f50726f706f73616c20706572696f642068617320656e646564000000000000006044820152606401610ba8565b825163055d4a7f19138015906117585750825163055d4a8012155b6117975760405162461bcd60e51b815260206004820152601060248201526f496e76616c6964206c6174697475646560801b6044820152606401610ba8565b630aba94ff198360200151121580156117b85750630aba9500836020015113155b6117f85760405162461bcd60e51b8152602060048201526011602482015270496e76616c6964206c6f6e67697475646560781b6044820152606401610ba8565b60008151116118555760405162461bcd60e51b815260206004820152602360248201527f4174206c65617374206f6e652070726f706f73656420646174652072657175696044820152621c995960ea1b6064820152608401610ba8565b6005815111156118b25760405162461bcd60e51b815260206004820152602260248201527f50726f706f73616c206d75737420686176652035206f72206c65737320646174604482015261657360f01b6064820152608401610ba8565b60005b8151811015611967576000868152602081905260409020546118da90610a8c906130f8565b8282815181106118ec576118ec613012565b6020026020010151116119555760405162461bcd60e51b815260206004820152602b60248201527f50726f706f7365642064617465206d757374206265203630206461797320696e60448201526a207468652066757475726560a81b6064820152608401610ba8565b8061195f81613055565b9150506118b5565b5060008581526020819052604090206001015460ff1661198a5761198a8561271b565b6000858152602081905260409020546119a59060789061310b565b42106119d1576000858152602081905260408120805461012c92906119cb9084906130f8565b90915550505b6000858152600c602052604090819020805460ff19166001179055805180820190915280611a01610708426130f8565b8152600160209182018190526000888152600d83526040808220855181559484015194909201805460ff1916941515949094179093558551868301519151611a4e9389939188910161311e565b604051602081830303815290604052805190602001209050611a6e6129b6565b858152602081018590526040810184905233606082015260808101829052611a94612a00565b81815260208082018590523360408084019190915234606084015260006080840181905260a084018190528a8152600180845291812080549283018155815291909120825180518493600b029092019182908190611af29082613193565b506020828101518051600184015581015160028301556040830151600383015560608301516004830180546001600160a01b0319166001600160a01b03909216919091179055608090920151600590910155828101518051611b5a9260068501920190612a47565b506040828101516007830180546001600160a01b0319166001600160a01b03909216919091179055606083015160088301556080830151600983015560a090920151600a909101805460ff191691151591909117905551339089907f594a9595007bad040e875758ab9d42df126f77d067b240282de66c3d36c74ffe90611be4908b903490613253565b60405180910390a35050505050505050565b606060016000838152602001908152602001600020805480602002602001604051908101604052809291908181526020016000905b82821015611dd957600084815260209020604080516101608101909152600b84029091018054829060c0820190839082908290611c6790613087565b80601f0160208091040260200160405190810160405280929190818152602001828054611c9390613087565b8015611ce05780601f10611cb557610100808354040283529160200191611ce0565b820191906000526020600020905b815481529060010190602001808311611cc357829003601f168201915b50505091835250506040805180820182526001840154815260028401546020828101919091528084019190915260038401548284015260048401546001600160a01b03166060840152600590930154608090920191909152918352600684018054835181840281018401909452808452938201939091830182828015611d8557602002820191906000526020600020905b815481526020019060010190808311611d71575b505050918352505060078201546001600160a01b03166020808301919091526008830154604083015260098301546060830152600a9092015460ff1615156080909101529082526001929092019101611c2b565b505050509050919050565b6000828152600c602052604090205460ff16611e4d5760405162461bcd60e51b815260206004820152602260248201527f5469636b657420686f6c64657220766f74696e67206973206e6f742061637469604482015261766560f01b6064820152608401610ba8565b6000828152600d6020526040902054421115611eb95760405162461bcd60e51b815260206004820152602560248201527f5469636b657420686f6c64657220766f74696e6720706572696f642068617320604482015264195b99195960da1b6064820152608401610ba8565b600e54604051635c37da6960e01b8152336004820152602481018490526001600160a01b0390911690635c37da6990604401602060405180830381865afa158015611f08573d6000803e3d6000fd5b505050506040513d601f19601f82011682018060405250810190611f2c9190612ff0565b611f6d5760405162461bcd60e51b81526020600482015260126024820152712737ba1030903a34b1b5b2ba1037bbb732b960711b6044820152606401610ba8565b600082815260046020908152604080832033845290915290205460ff1615611fc75760405162461bcd60e51b815260206004820152600d60248201526c105b1c9958591e481d9bdd1959609a1b6044820152606401610ba8565b6000828152600160205260409020805482908110611fe757611fe7613012565b6000918252602082206009600b909202010180549161200583613055565b909155505060008281526004602090815260408083203380855290835292819020805460ff191660011790555183815284917f37b8aa4050778a896e18d9773bb81d7a680a33f4b9232d489a3541a7a95c8350910160405180910390a35050565b61206e61225c565b6001600160a01b03811661209857604051631e4fbdf760e01b815260006004820152602401610ba8565b6120a1816122b7565b50565b306001600160a01b037f000000000000000000000000000000000000000000000000000000000000000016148061212b57507f00000000000000000000000000000000000000000000000000000000000000006001600160a01b031661211f6000805160206132e5833981519152546001600160a01b031690565b6001600160a01b031614155b15610a815760405163703e46dd60e11b815260040160405180910390fd5b6120a161225c565b816001600160a01b03166352d1902d6040518163ffffffff1660e01b8152600401602060405180830381865afa9250505080156121ab575060408051601f3d908101601f191682019092526121a89181019061306e565b60015b6121d357604051634c9c8ce360e01b81526001600160a01b0383166004820152602401610ba8565b6000805160206132e5833981519152811461220457604051632a87526960e21b815260048101829052602401610ba8565b61220e838361278d565b505050565b306001600160a01b037f00000000000000000000000000000000000000000000000000000000000000001614610a815760405163703e46dd60e11b815260040160405180910390fd5b3361228e7f9016d09d72d40fdae2fd8ceac6b6234c7706214fd39c1cd1e609a0528c199300546001600160a01b031690565b6001600160a01b031614610a815760405163118cdaa760e01b8152336004820152602401610ba8565b7f9016d09d72d40fdae2fd8ceac6b6234c7706214fd39c1cd1e609a0528c19930080546001600160a01b031981166001600160a01b03848116918217845560405192169182907f8be0079c531659141344cd1fd0a4f28419497f9722a3daafe3b4186f6b6457e090600090a3505050565b6000828152600160209081526040808320600a9092528220548154811061235157612351613012565b90600052602060002090600b0201600601828154811061237357612373613012565b600091825260208083209091015485835260098252604092839020819055915182815291925084917f30f427038b9903ed0be3f545ee5d678ba47d53ce2ffe77eb1eccbde089ec207d910160405180910390a2600e5460405163054372ed60e01b81526001600160a01b039091169063054372ed906123f9908690600390600401613275565b600060405180830381600087803b15801561241357600080fd5b505af1158015612427573d6000803e3d6000fd5b50505050505050565b60008281526001602052604090205481106124865760405162461bcd60e51b8152602060048201526016602482015275092dcecc2d8d2c840e0e4dee0dee6c2d840d2dcc8caf60531b6044820152606401610ba8565b60008281526001602052604081208054839081106124a6576124a6613012565b90600052602060002090600b02016000016040518060a00160405290816000820180546124d290613087565b80601f01602080910402602001604051908101604052809291908181526020018280546124fe90613087565b801561254b5780601f106125205761010080835404028352916020019161254b565b820191906000526020600020905b81548152906001019060200180831161252e57829003601f168201915b5050509183525050604080518082018252600184810154825260028501546020838101919091528085019290925260038501548385015260048501546001600160a01b03166060850152600590940154608090930192909252600087815291839052902080549293509091849081106125c6576125c6613012565b60009182526020808320600a600b909302018201805494151560ff1990951694909417909355858252909152604090819020839055600e54905163054372ed60e01b81526001600160a01b039091169063054372ed9061262d908690600290600401613275565b600060405180830381600087803b15801561264757600080fd5b505af115801561265b573d6000803e3d6000fd5b5050600e546040516330a78b7960e21b81526001600160a01b03909116925063c29e2de4915061269190869085906004016132a7565b600060405180830381600087803b1580156126ab57600080fd5b505af11580156126bf573d6000803e3d6000fd5b50505050827fa4cdb24ce3dbadfa51e723cabdbbd7124e6b55e68a4b41d3eb42a00d144eefe3836040516126f591815260200190565b60405180910390a2505050565b61270a6127e3565b6120a18161282c565b610a816127e3565b60008181526020819052604090206001908101805460ff19169091179055612745611c20426130f8565b60008281526020818152604091829020839055905191825282917fbe893194ee9c4752250e88ba9de293863b73822c4663c78d6cad1f9aa7d91cdc910160405180910390a250565b61279682612834565b6040516001600160a01b038316907fbc7cd75a20ee27fd9adebab32041f755214dbc6bffa90cc0225b39da2e5c2d3b90600090a28051156127db5761220e8282612899565b610a4e61290f565b7ff0c57e16840df040f15088dc2f81fe391c3923bec73e23a9662efc9c229c6a0054600160401b900460ff16610a8157604051631afcd79f60e31b815260040160405180910390fd5b61206e6127e3565b806001600160a01b03163b60000361286a57604051634c9c8ce360e01b81526001600160a01b0382166004820152602401610ba8565b6000805160206132e583398151915280546001600160a01b0319166001600160a01b0392909216919091179055565b6060600080846001600160a01b0316846040516128b691906132c8565b600060405180830381855af49150503d80600081146128f1576040519150601f19603f3d011682016040523d82523d6000602084013e6128f6565b606091505b509150915061290685838361292e565b95945050505050565b3415610a815760405163b398979f60e01b815260040160405180910390fd5b6060826129435761293e8261298d565b612986565b815115801561295a57506001600160a01b0384163b155b1561298357604051639996b31560e01b81526001600160a01b0385166004820152602401610ba8565b50805b9392505050565b80511561299d5780518082602001fd5b604051630a12f52160e11b815260040160405180910390fd5b6040518060a00160405280606081526020016129e5604051806040016040528060008152602001600081525090565b81526000602082018190526040820181905260609091015290565b6040518060c00160405280612a136129b6565b81526020016060815260200160006001600160a01b0316815260200160008152602001600081526020016000151581525090565b828054828255906000526020600020908101928215612a82579160200282015b82811115612a82578251825591602001919060010190612a67565b50612a8e929150612a92565b5090565b5b80821115612a8e5760008155600101612a93565b80356001600160a01b0381168114612abe57600080fd5b919050565b600060208284031215612ad557600080fd5b61298682612aa7565b60008060408385031215612af157600080fd5b82359150612b0160208401612aa7565b90509250929050565b600060208284031215612b1c57600080fd5b5035919050565b8151815260208083015115159082015260408101610a2d565b634e487b7160e01b600052604160045260246000fd5b6040805190810167ffffffffffffffff81118282101715612b7557612b75612b3c565b60405290565b604051601f8201601f1916810167ffffffffffffffff81118282101715612ba457612ba4612b3c565b604052919050565b600067ffffffffffffffff831115612bc657612bc6612b3c565b612bd9601f8401601f1916602001612b7b565b9050828152838383011115612bed57600080fd5b828260208301376000602084830101529392505050565b60008060408385031215612c1757600080fd5b612c2083612aa7565b9150602083013567ffffffffffffffff811115612c3c57600080fd5b8301601f81018513612c4d57600080fd5b612c5c85823560208401612bac565b9150509250929050565b60008060408385031215612c7957600080fd5b50508035926020909101359150565b60005b83811015612ca3578181015183820152602001612c8b565b50506000910152565b60008151808452612cc4816020860160208601612c88565b601f01601f19169290920160200192915050565b6000815160c08452612ced60c0850182612cac565b905060208301518051602086015260208101516040860152506040830151606085015260018060a01b036060840151166080850152608083015160a08501528091505092915050565b60a081526000612d4960a0830188612cd8565b6001600160a01b0396909616602083015250604081019390935260608301919091521515608090910152919050565b6020815260006129866020830184612cac565b600080600060608486031215612da057600080fd5b612da984612aa7565b9250612db760208501612aa7565b9150612dc560408501612aa7565b90509250925092565b600082601f830112612ddf57600080fd5b8135602067ffffffffffffffff821115612dfb57612dfb612b3c565b8160051b612e0a828201612b7b565b9283528481018201928281019087851115612e2457600080fd5b83870192505b84831015612e4357823582529183019190830190612e2a565b979650505050505050565b600080600080600085870360c0811215612e6757600080fd5b86359550602087013567ffffffffffffffff80821115612e8657600080fd5b818901915089601f830112612e9a57600080fd5b612ea98a833560208501612bac565b96506040603f1984011215612ebd57600080fd5b612ec5612b52565b60408a0135815260608a0135602082015295506080890135945060a0890135925080831115612ef357600080fd5b5050612f0188828901612dce565b9150509295509295909350565b60006020808301818452808551808352604092508286019150828160051b8701018488016000805b84811015612fe157603f198a8503018652825160c08151818752612f5c82880182612cd8565b838c0151888203898e01528051808352908d019350869250908c01905b80831015612f995783518252928c019260019290920191908c0190612f79565b508a8401516001600160a01b0316888c0152606080850151908901526080808501519089015260a0938401511515939097019290925250509487019491870191600101612f36565b50919998505050505050505050565b60006020828403121561300257600080fd5b8151801515811461298657600080fd5b634e487b7160e01b600052603260045260246000fd5b634e487b7160e01b600052601160045260246000fd5b60008161304d5761304d613028565b506000190190565b60006001820161306757613067613028565b5060010190565b60006020828403121561308057600080fd5b5051919050565b600181811c9082168061309b57607f821691505b6020821081036130bb57634e487b7160e01b600052602260045260246000fd5b50919050565b634e487b7160e01b600052602160045260246000fd5b6000602082840312156130e957600080fd5b81516008811061298657600080fd5b80820180821115610a2d57610a2d613028565b81810381811115610a2d57610a2d613028565b60008551613130818460208a01612c88565b919091019384525060208301919091526040820152606001919050565b601f82111561220e57600081815260208120601f850160051c810160208610156131745750805b601f850160051c820191505b81811015610ec057828155600101613180565b815167ffffffffffffffff8111156131ad576131ad612b3c565b6131c1816131bb8454613087565b8461314d565b602080601f8311600181146131f657600084156131de5750858301515b600019600386901b1c1916600185901b178555610ec0565b600085815260208120601f198616915b8281101561322557888601518255948401946001909101908401613206565b50858210156132435787850151600019600388901b60f8161c191681555b5050505050600190811b01905550565b6040815260006132666040830185612cac565b90508260208301529392505050565b828152604081016008831061329a57634e487b7160e01b600052602160045260246000fd5b8260208301529392505050565b8281526040602082015260006132c06040830184612cd8565b949350505050565b600082516132da818460208701612c88565b919091019291505056fe360894a13ba1a3210667c828492db98dca3e2076cc3735a920a3ca505d382bbca264697066735822122038879f26d0153cbb4d0f72601e2615ca807f9341a0df48b99162233931bf3acb64736f6c63430008140033","linkReferences":{}},"methodIdentifiers":{"UPGRADE_INTERFACE_VERSION()":"ad3cb1cc","dateVotes(bytes32,uint256)":"d360fb5f","getDateVotes(bytes32,uint256)":"84f3e62c","getHasDateVoted(bytes32,address)":"21e2c8cf","getHasTicketOwnerVoted(bytes32,address)":"25d4e7e8","getHasVoted(bytes32,address)":"398ac6c3","getPreviousDateVote(bytes32,address)":"940fed20","getPreviousVote(bytes32,address)":"47cc6095","getProposalPeriod(bytes32)":"4de89286","getRefunds(address)":"03c22ec4","getSelectedDate(bytes32)":"e0174d78","getSelectedProposalIndex(bytes32)":"f60eab04","getShowProposals(bytes32)":"e9801fcb","getVotingPeriods(bytes32)":"eef28136","hasDateVoted(bytes32,address)":"a16026f4","hasTicketOwnerVoted(bytes32,address)":"f51bba85","hasVoted(bytes32,address)":"aadc3b72","initialize(address,address,address)":"c0c53b8b","owner()":"8da5cb5b","previousDateVote(bytes32,address)":"043c97fa","previousVote(bytes32,address)":"ab07426f","proposalPeriod(bytes32)":"b328da12","proxiableUUID()":"52d1902d","refunds(address)":"bc3da535","renounceOwnership()":"715018a6","selectedDate(bytes32)":"d865ae3c","selectedProposalIndex(bytes32)":"66582371","showInstance()":"404f49d1","showProposals(bytes32,uint256)":"960c8b45","submitProposal(bytes32,string,(int256,int256),uint256,uint256[])":"dda9b13c","ticketHolderVenueVote(bytes32,uint256)":"ee6b8b2e","ticketHolderVotingActive(bytes32)":"8b79dbe1","ticketHolderVotingPeriods(bytes32)":"f94976c0","ticketInstance()":"0233ce6a","transferOwnership(address)":"f2fde38b","upgradeToAndCall(address,bytes)":"4f1ef286","vote(bytes32,uint256)":"9ef1204c","voteForDate(bytes32,uint256)":"81cf3ab8","votingPeriods(bytes32)":"c15f6bd7"},"id":65}