{"abi":[{"type":"function","name":"UPGRADE_INTERFACE_VERSION","inputs":[],"outputs":[{"name":"","type":"string","internalType":"string"}],"stateMutability":"view"},{"type":"function","name":"acceptNomination","inputs":[{"name":"_name","type":"string","internalType":"string"},{"name":"_bio","type":"string","internalType":"string"},{"name":"_latitude","type":"int256","internalType":"int256"},{"name":"_longitude","type":"int256","internalType":"int256"},{"name":"_totalCapacity","type":"uint256","internalType":"uint256"},{"name":"_streetAddress","type":"string","internalType":"string"}],"outputs":[],"stateMutability":"nonpayable"},{"type":"function","name":"balanceOf","inputs":[{"name":"account","type":"address","internalType":"address"},{"name":"id","type":"uint256","internalType":"uint256"}],"outputs":[{"name":"","type":"uint256","internalType":"uint256"}],"stateMutability":"view"},{"type":"function","name":"balanceOfBatch","inputs":[{"name":"accounts","type":"address[]","internalType":"address[]"},{"name":"ids","type":"uint256[]","internalType":"uint256[]"}],"outputs":[{"name":"","type":"uint256[]","internalType":"uint256[]"}],"stateMutability":"view"},{"type":"function","name":"deregisterVenue","inputs":[{"name":"_venueId","type":"uint256","internalType":"uint256"}],"outputs":[],"stateMutability":"nonpayable"},{"type":"function","name":"getVenue","inputs":[{"name":"venueAddress","type":"address","internalType":"address"}],"outputs":[{"name":"venueId","type":"uint256","internalType":"uint256"},{"name":"name","type":"string","internalType":"string"},{"name":"bio","type":"string","internalType":"string"},{"name":"wallet","type":"address","internalType":"address"},{"name":"latitude","type":"int256","internalType":"int256"},{"name":"longitude","type":"int256","internalType":"int256"},{"name":"totalCapacity","type":"uint256","internalType":"uint256"},{"name":"streetAddress","type":"string","internalType":"string"}],"stateMutability":"view"},{"type":"function","name":"getVenueById","inputs":[{"name":"venueId","type":"uint256","internalType":"uint256"}],"outputs":[{"name":"","type":"tuple","internalType":"struct VenueRegistryTypes.VenueInfo","components":[{"name":"venueId","type":"uint256","internalType":"uint256"},{"name":"name","type":"string","internalType":"string"},{"name":"bio","type":"string","internalType":"string"},{"name":"wallet","type":"address","internalType":"address"},{"name":"coordinates","type":"tuple","internalType":"struct VenueRegistryTypes.Coordinates","components":[{"name":"latitude","type":"int256","internalType":"int256"},{"name":"longitude","type":"int256","internalType":"int256"}]},{"name":"totalCapacity","type":"uint256","internalType":"uint256"},{"name":"streetAddress","type":"string","internalType":"string"}]}],"stateMutability":"view"},{"type":"function","name":"initialize","inputs":[{"name":"initialOwner","type":"address","internalType":"address"},{"name":"_referralModuleAddress","type":"address","internalType":"address"}],"outputs":[],"stateMutability":"nonpayable"},{"type":"function","name":"isApprovedForAll","inputs":[{"name":"account","type":"address","internalType":"address"},{"name":"operator","type":"address","internalType":"address"}],"outputs":[{"name":"","type":"bool","internalType":"bool"}],"stateMutability":"view"},{"type":"function","name":"isVenueRegistered","inputs":[{"name":"venueAddress","type":"address","internalType":"address"}],"outputs":[{"name":"isRegistered","type":"bool","internalType":"bool"}],"stateMutability":"view"},{"type":"function","name":"nominate","inputs":[{"name":"nominee","type":"address","internalType":"address"}],"outputs":[],"stateMutability":"nonpayable"},{"type":"function","name":"nominatedVenues","inputs":[{"name":"","type":"address","internalType":"address"}],"outputs":[{"name":"","type":"bool","internalType":"bool"}],"stateMutability":"view"},{"type":"function","name":"owner","inputs":[],"outputs":[{"name":"","type":"address","internalType":"address"}],"stateMutability":"view"},{"type":"function","name":"proxiableUUID","inputs":[],"outputs":[{"name":"","type":"bytes32","internalType":"bytes32"}],"stateMutability":"view"},{"type":"function","name":"renounceOwnership","inputs":[],"outputs":[],"stateMutability":"nonpayable"},{"type":"function","name":"safeBatchTransferFrom","inputs":[{"name":"from","type":"address","internalType":"address"},{"name":"to","type":"address","internalType":"address"},{"name":"ids","type":"uint256[]","internalType":"uint256[]"},{"name":"values","type":"uint256[]","internalType":"uint256[]"},{"name":"data","type":"bytes","internalType":"bytes"}],"outputs":[],"stateMutability":"nonpayable"},{"type":"function","name":"safeTransferFrom","inputs":[{"name":"from","type":"address","internalType":"address"},{"name":"to","type":"address","internalType":"address"},{"name":"id","type":"uint256","internalType":"uint256"},{"name":"value","type":"uint256","internalType":"uint256"},{"name":"data","type":"bytes","internalType":"bytes"}],"outputs":[],"stateMutability":"nonpayable"},{"type":"function","name":"setApprovalForAll","inputs":[{"name":"operator","type":"address","internalType":"address"},{"name":"approved","type":"bool","internalType":"bool"}],"outputs":[],"stateMutability":"nonpayable"},{"type":"function","name":"setTokenURI","inputs":[{"name":"tokenId","type":"uint256","internalType":"uint256"},{"name":"newURI","type":"string","internalType":"string"}],"outputs":[],"stateMutability":"nonpayable"},{"type":"function","name":"supportsInterface","inputs":[{"name":"interfaceId","type":"bytes4","internalType":"bytes4"}],"outputs":[{"name":"","type":"bool","internalType":"bool"}],"stateMutability":"view"},{"type":"function","name":"transferOwnership","inputs":[{"name":"newOwner","type":"address","internalType":"address"}],"outputs":[],"stateMutability":"nonpayable"},{"type":"function","name":"updateVenue","inputs":[{"name":"_venueId","type":"uint256","internalType":"uint256"},{"name":"_name","type":"string","internalType":"string"},{"name":"_bio","type":"string","internalType":"string"},{"name":"_wallet","type":"address","internalType":"address"},{"name":"_latitude","type":"int256","internalType":"int256"},{"name":"_longitude","type":"int256","internalType":"int256"},{"name":"_totalCapacity","type":"uint256","internalType":"uint256"},{"name":"_streetAddress","type":"string","internalType":"string"}],"outputs":[],"stateMutability":"nonpayable"},{"type":"function","name":"upgradeToAndCall","inputs":[{"name":"newImplementation","type":"address","internalType":"address"},{"name":"data","type":"bytes","internalType":"bytes"}],"outputs":[],"stateMutability":"payable"},{"type":"function","name":"uri","inputs":[{"name":"tokenId","type":"uint256","internalType":"uint256"}],"outputs":[{"name":"","type":"string","internalType":"string"}],"stateMutability":"view"},{"type":"event","name":"ApprovalForAll","inputs":[{"name":"account","type":"address","indexed":true,"internalType":"address"},{"name":"operator","type":"address","indexed":true,"internalType":"address"},{"name":"approved","type":"bool","indexed":false,"internalType":"bool"}],"anonymous":false},{"type":"event","name":"Initialized","inputs":[{"name":"version","type":"uint64","indexed":false,"internalType":"uint64"}],"anonymous":false},{"type":"event","name":"OwnershipTransferred","inputs":[{"name":"previousOwner","type":"address","indexed":true,"internalType":"address"},{"name":"newOwner","type":"address","indexed":true,"internalType":"address"}],"anonymous":false},{"type":"event","name":"TransferBatch","inputs":[{"name":"operator","type":"address","indexed":true,"internalType":"address"},{"name":"from","type":"address","indexed":true,"internalType":"address"},{"name":"to","type":"address","indexed":true,"internalType":"address"},{"name":"ids","type":"uint256[]","indexed":false,"internalType":"uint256[]"},{"name":"values","type":"uint256[]","indexed":false,"internalType":"uint256[]"}],"anonymous":false},{"type":"event","name":"TransferSingle","inputs":[{"name":"operator","type":"address","indexed":true,"internalType":"address"},{"name":"from","type":"address","indexed":true,"internalType":"address"},{"name":"to","type":"address","indexed":true,"internalType":"address"},{"name":"id","type":"uint256","indexed":false,"internalType":"uint256"},{"name":"value","type":"uint256","indexed":false,"internalType":"uint256"}],"anonymous":false},{"type":"event","name":"URI","inputs":[{"name":"value","type":"string","indexed":false,"internalType":"string"},{"name":"id","type":"uint256","indexed":true,"internalType":"uint256"}],"anonymous":false},{"type":"event","name":"Upgraded","inputs":[{"name":"implementation","type":"address","indexed":true,"internalType":"address"}],"anonymous":false},{"type":"event","name":"VenueAccepted","inputs":[{"name":"venueId","type":"uint256","indexed":true,"internalType":"uint256"},{"name":"venueAddress","type":"address","indexed":false,"internalType":"address"}],"anonymous":false},{"type":"event","name":"VenueDeregistered","inputs":[{"name":"venueId","type":"uint256","indexed":true,"internalType":"uint256"}],"anonymous":false},{"type":"event","name":"VenueNominated","inputs":[{"name":"nominee","type":"address","indexed":true,"internalType":"address"}],"anonymous":false},{"type":"event","name":"VenueRegistered","inputs":[{"name":"venueId","type":"uint256","indexed":true,"internalType":"uint256"},{"name":"name","type":"string","indexed":false,"internalType":"string"}],"anonymous":false},{"type":"event","name":"VenueUpdated","inputs":[{"name":"venueId","type":"uint256","indexed":true,"internalType":"uint256"},{"name":"name","type":"string","indexed":false,"internalType":"string"},{"name":"bio","type":"string","indexed":false,"internalType":"string"},{"name":"wallet","type":"address","indexed":false,"internalType":"address"},{"name":"latitude","type":"int256","indexed":false,"internalType":"int256"},{"name":"longitude","type":"int256","indexed":false,"internalType":"int256"},{"name":"totalCapacity","type":"uint256","indexed":false,"internalType":"uint256"},{"name":"streetAddress","type":"string","indexed":false,"internalType":"string"}],"anonymous":false},{"type":"error","name":"AddressEmptyCode","inputs":[{"name":"target","type":"address","internalType":"address"}]},{"type":"error","name":"ERC1155InsufficientBalance","inputs":[{"name":"sender","type":"address","internalType":"address"},{"name":"balance","type":"uint256","internalType":"uint256"},{"name":"needed","type":"uint256","internalType":"uint256"},{"name":"tokenId","type":"uint256","internalType":"uint256"}]},{"type":"error","name":"ERC1155InvalidApprover","inputs":[{"name":"approver","type":"address","internalType":"address"}]},{"type":"error","name":"ERC1155InvalidArrayLength","inputs":[{"name":"idsLength","type":"uint256","internalType":"uint256"},{"name":"valuesLength","type":"uint256","internalType":"uint256"}]},{"type":"error","name":"ERC1155InvalidOperator","inputs":[{"name":"operator","type":"address","internalType":"address"}]},{"type":"error","name":"ERC1155InvalidReceiver","inputs":[{"name":"receiver","type":"address","internalType":"address"}]},{"type":"error","name":"ERC1155InvalidSender","inputs":[{"name":"sender","type":"address","internalType":"address"}]},{"type":"error","name":"ERC1155MissingApprovalForAll","inputs":[{"name":"operator","type":"address","internalType":"address"},{"name":"owner","type":"address","internalType":"address"}]},{"type":"error","name":"ERC1967InvalidImplementation","inputs":[{"name":"implementation","type":"address","internalType":"address"}]},{"type":"error","name":"ERC1967NonPayable","inputs":[]},{"type":"error","name":"FailedInnerCall","inputs":[]},{"type":"error","name":"InvalidInitialization","inputs":[]},{"type":"error","name":"NotInitializing","inputs":[]},{"type":"error","name":"OwnableInvalidOwner","inputs":[{"name":"owner","type":"address","internalType":"address"}]},{"type":"error","name":"OwnableUnauthorizedAccount","inputs":[{"name":"account","type":"address","internalType":"address"}]},{"type":"error","name":"UUPSUnauthorizedCallContext","inputs":[]},{"type":"error","name":"UUPSUnsupportedProxiableUUID","inputs":[{"name":"slot","type":"bytes32","internalType":"bytes32"}]}],"bytecode":{"object":"0x60a06040523060805234801561001457600080fd5b5060805161300b61003e600039600081816118630152818161188c01526119cd015261300b6000f3fe60806040526004361061014a5760003560e01c806352d1902d116100b6578063ad3cb1cc1161006f578063ad3cb1cc146103d9578063b332180b1461040a578063b4ec19801461042a578063e985e9c51461045a578063f242432a1461047a578063f2fde38b1461049a57600080fd5b806352d1902d1461030e5780636befc55c14610323578063715018a61461035757806384b03c441461036c5780638da5cb5b1461038c578063a22cb465146103b957600080fd5b80632eb2c2d6116101085780632eb2c2d6146102415780633a7f44d3146102615780633cfb92071461028e578063485cc955146102ae5780634e1273f4146102ce5780634f1ef286146102fb57600080fd5b8062fdd58e1461014f57806301ffc9a71461018257806309a4a302146101b25780630e89341c146101d2578063162094c4146101ff5780632e63de1c14610221575b600080fd5b34801561015b57600080fd5b5061016f61016a366004612403565b6104ba565b6040519081526020015b60405180910390f35b34801561018e57600080fd5b506101a261019d366004612443565b6104f1565b6040519015158152602001610179565b3480156101be57600080fd5b506101a26101cd366004612460565b610541565b3480156101de57600080fd5b506101f26101ed36600461247b565b61058c565b60405161017991906124e4565b34801561020b57600080fd5b5061021f61021a3660046125ac565b610643565b005b34801561022d57600080fd5b5061021f61023c36600461247b565b610702565b34801561024d57600080fd5b5061021f61025c366004612680565b6107e9565b34801561026d57600080fd5b5061028161027c36600461247b565b610850565b6040516101799190612729565b34801561029a57600080fd5b5061021f6102a93660046127cb565b610ad8565b3480156102ba57600080fd5b5061021f6102c936600461286e565b610b90565b3480156102da57600080fd5b506102ee6102e93660046128a1565b610ce3565b6040516101799190612991565b61021f6103093660046129a4565b610db7565b34801561031a57600080fd5b5061016f610dd6565b34801561032f57600080fd5b5061034361033e366004612460565b610df3565b6040516101799897969594939291906129db565b34801561036357600080fd5b5061021f6110c4565b34801561037857600080fd5b5061021f610387366004612a50565b6110d8565b34801561039857600080fd5b506103a16111db565b6040516001600160a01b039091168152602001610179565b3480156103c557600080fd5b5061021f6103d4366004612b0f565b611209565b3480156103e557600080fd5b506101f2604051806040016040528060058152602001640352e302e360dc1b81525081565b34801561041657600080fd5b5061021f610425366004612460565b611214565b34801561043657600080fd5b506101a2610445366004612460565b60026020526000908152604090205460ff1681565b34801561046657600080fd5b506101a261047536600461286e565b6113a9565b34801561048657600080fd5b5061021f610495366004612b4b565b6113f6565b3480156104a657600080fd5b5061021f6104b5366004612460565b611455565b6000818152600080516020612f89833981519152602090815260408083206001600160a01b03861684529091529020545b92915050565b60006001600160e01b03198216636cdb3d1360e11b148061052257506001600160e01b031982166303a24d0760e21b145b806104eb57506301ffc9a760e01b6001600160e01b03198316146104eb565b6001600160a01b038116600090815260016020526040812054801580159061058557506000818152602081905260409020600301546001600160a01b038481169116145b9392505050565b6000818152600560205260408120805460609291906105aa90612baf565b80601f01602080910402602001604051908101604052809291908181526020018280546105d690612baf565b80156106235780601f106105f857610100808354040283529160200191610623565b820191906000526020600020905b81548152906001019060200180831161060657829003601f168201915b5050505050905060008151111561063a5792915050565b61058583611493565b61064b6111db565b6001600160a01b0316336001600160a01b0316148061068357506000828152602081905260409020600301546001600160a01b031633145b6106e55760405162461bcd60e51b815260206004820152602860248201527f43616c6c6572206973206e6f7420746865206f776e6572206f7220746865206f6044820152673933b0b734bd32b960c11b60648201526084015b60405180910390fd5b60008281526005602052604090206106fd8282612c2f565b505050565b600354811115801561072d57506000818152602081905260409020600301546001600160a01b031633145b6107495760405162461bcd60e51b81526004016106dc90612cee565b61075533826001611558565b6000818152602081905260408120818155906107746001830182612333565b610782600283016000612333565b6003820180546001600160a01b031916905560006004830181905560058301819055600683018190556107b9906007840190612333565b505060405181907fee0cdc4ae3243e3824b2d6e7fdc29bc86356054f8729d89bb1f980e436ebf45690600090a250565b336001600160a01b038616811480159061080a575061080886826113a9565b155b1561083b5760405163711bec9160e11b81526001600160a01b038083166004830152871660248201526044016106dc565b61084886868686866115c7565b505050505050565b61085861236d565b6000828152602081905260409020600301546001600160a01b03166108b65760405162461bcd60e51b815260206004820152601460248201527315995b9d5948191bd95cc81b9bdd08195e1a5cdd60621b60448201526064016106dc565b60008281526020818152604091829020825160e081019093528054835260018101805491928401916108e790612baf565b80601f016020809104026020016040519081016040528092919081815260200182805461091390612baf565b80156109605780601f1061093557610100808354040283529160200191610960565b820191906000526020600020905b81548152906001019060200180831161094357829003601f168201915b5050505050815260200160028201805461097990612baf565b80601f01602080910402602001604051908101604052809291908181526020018280546109a590612baf565b80156109f25780601f106109c7576101008083540402835291602001916109f2565b820191906000526020600020905b8154815290600101906020018083116109d557829003601f168201915b505050918352505060038201546001600160a01b03166020808301919091526040805180820182526004850154815260058501549281019290925282015260068201546060820152600782018054608090920191610a4f90612baf565b80601f0160208091040260200160405190810160405280929190818152602001828054610a7b90612baf565b8015610ac85780601f10610a9d57610100808354040283529160200191610ac8565b820191906000526020600020905b815481529060010190602001808311610aab57829003601f168201915b5050505050815250509050919050565b3360009081526002602052604090205460ff16610b2d5760405162461bcd60e51b8152602060048201526013602482015272139bc81b9bdb5a5b985d1a5bdb88199bdd5b99606a1b60448201526064016106dc565b336000908152600260205260409020805460ff19169055610b52868686868686611627565b6003546040513381527f4108d491dd9d5aec1ab384350857e890c9670a0cfc211b075c99d187b8d4cc449060200160405180910390a2505050505050565b7ff0c57e16840df040f15088dc2f81fe391c3923bec73e23a9662efc9c229c6a008054600160401b810460ff1615906001600160401b0316600081158015610bd55750825b90506000826001600160401b03166001148015610bf15750303b155b905081158015610bff575080155b15610c1d5760405163f92ee8a960e01b815260040160405180910390fd5b845467ffffffffffffffff191660011785558315610c4757845460ff60401b1916600160401b1785555b610c686040518060600160405280602d8152602001612fa9602d913961182e565b610c718761183f565b610c79611850565b600480546001600160a01b0319166001600160a01b0388161790558315610cda57845460ff60401b19168555604051600181527fc7f505b2f371ae2175ee4913f4499e1f2633a7b5936321eed1cdaeb6115181d29060200160405180910390a15b50505050505050565b60608151835114610d145781518351604051635b05999160e01b8152600481019290925260248201526044016106dc565b600083516001600160401b03811115610d2f57610d2f6124f7565b604051908082528060200260200182016040528015610d58578160200160208202803683370190505b50905060005b8451811015610daf57602080820286010151610d82906020808402870101516104ba565b828281518110610d9457610d94612d30565b6020908102919091010152610da881612d5c565b9050610d5e565b509392505050565b610dbf611858565b610dc8826118fd565b610dd28282611905565b5050565b6000610de06119c2565b50600080516020612f6983398151915290565b6001600160a01b03811660009081526001602052604081205490606090819080808084878203610e5c5760405162461bcd60e51b815260206004820152601460248201527315995b9d5948191bd95cc81b9bdd08195e1a5cdd60621b60448201526064016106dc565b60008060008a81526020019081526020016000206040518060e001604052908160008201548152602001600182018054610e9590612baf565b80601f0160208091040260200160405190810160405280929190818152602001828054610ec190612baf565b8015610f0e5780601f10610ee357610100808354040283529160200191610f0e565b820191906000526020600020905b815481529060010190602001808311610ef157829003601f168201915b50505050508152602001600282018054610f2790612baf565b80601f0160208091040260200160405190810160405280929190818152602001828054610f5390612baf565b8015610fa05780601f10610f7557610100808354040283529160200191610fa0565b820191906000526020600020905b815481529060010190602001808311610f8357829003601f168201915b505050918352505060038201546001600160a01b03166020808301919091526040805180820182526004850154815260058501549281019290925282015260068201546060820152600782018054608090920191610ffd90612baf565b80601f016020809104026020016040519081016040528092919081815260200182805461102990612baf565b80156110765780601f1061104b57610100808354040283529160200191611076565b820191906000526020600020905b81548152906001019060200180831161105957829003601f168201915b50505091909252505050602080820151604083015160608401516080850151805194015160a086015160c090960151939d50919b509950919750909550909350915050919395975091939597565b6110cc611a0b565b6110d66000611a3d565b565b600354881115801561110357506000888152602081905260409020600301546001600160a01b031633145b61111f5760405162461bcd60e51b81526004016106dc90612cee565b60008881526020819052604090206001810161113b8982612c2f565b506002810161114a8882612c2f565b506003810180546001600160a01b0319166001600160a01b0388161790556004810185905560058101849055600681018390556007810161118b8382612c2f565b50887fe35006029198ae6c56e2996867117cc3c8cbdd3b84ee37d6b36924d6b84d052d898989898989896040516111c89796959493929190612d75565b60405180910390a2505050505050505050565b7f9016d09d72d40fdae2fd8ceac6b6234c7706214fd39c1cd1e609a0528c199300546001600160a01b031690565b610dd2338383611aae565b60048054604051632615fb8360e21b815233928101929092526000916001600160a01b0390911690639857ee0c90602401606060405180830381865afa158015611262573d6000803e3d6000fd5b505050506040513d601f19601f820116820180604052508101906112869190612de0565b905060008160400151116112e85760405162461bcd60e51b815260206004820152602360248201527f496e73756666696369656e742076656e756520726566657272616c206372656460448201526269747360e81b60648201526084016106dc565b600480546040516321ceab3d60e01b815233928101929092526000602483018190526044830152600160648301526001600160a01b0316906321ceab3d90608401600060405180830381600087803b15801561134357600080fd5b505af1158015611357573d6000803e3d6000fd5b5050506001600160a01b038316600081815260026020526040808220805460ff19166001179055519192507f179ea4397e946d9cae2283c1107800f5a4cc157ad746eb00b9b310a20b1535e791a25050565b6001600160a01b0391821660009081527f88be536d5240c274a3b1d3a1be54482fd9caa294f08c62a7cde569f49a3c45016020908152604080832093909416825291909152205460ff1690565b336001600160a01b0386168114801590611417575061141586826113a9565b155b156114485760405163711bec9160e11b81526001600160a01b038083166004830152871660248201526044016106dc565b6108488686868686611b56565b61145d611a0b565b6001600160a01b03811661148757604051631e4fbdf760e01b8152600060048201526024016106dc565b61149081611a3d565b50565b7f88be536d5240c274a3b1d3a1be54482fd9caa294f08c62a7cde569f49a3c45028054606091600080516020612f89833981519152916114d290612baf565b80601f01602080910402602001604051908101604052809291908181526020018280546114fe90612baf565b801561154b5780601f106115205761010080835404028352916020019161154b565b820191906000526020600020905b81548152906001019060200180831161152e57829003601f168201915b5050505050915050919050565b6001600160a01b03831661158157604051626a0d4560e21b8152600060048201526024016106dc565b604080516001808252602082018590528183019081526060820184905260a082019092526000608082018181529192916115c091879185908590611bd7565b5050505050565b6001600160a01b0384166115f157604051632bfa23e760e11b8152600060048201526024016106dc565b6001600160a01b03851661161a57604051626a0d4560e21b8152600060048201526024016106dc565b6115c08585858585611bd7565b6000604051806040016040528086815260200185815250905060006040518060e0016040528060008152602001898152602001888152602001336001600160a01b031681526020018381526020018581526020018481525090506000888833898989896040516020016116a09796959493929190612d75565b60408051601f19818403018152918152815160209283012060008181529283905291206003015490915081906001600160a01b0316156117225760405162461bcd60e51b815260206004820152601860248201527f56656e756520616c72656164792072656769737465726564000000000000000060448201526064016106dc565b8083526000818152602081815260409091208451815590840151849190600182019061174e9082612c2f565b50604082015160028201906117639082612c2f565b5060608201516003820180546001600160a01b0319166001600160a01b0390921691909117905560808201518051600483015560200151600582015560a0820151600682015560c082015160078201906117bd9082612c2f565b5050336000818152600160208181526040808420879055805191820190529182526117ea93508491611c2a565b807f4a1a8dd345d4634777a7739c3a6f69bce4bef57cb87046f252ae16bca95a76238b60405161181a91906124e4565b60405180910390a250505050505050505050565b611836611c87565b61149081611cd0565b611847611c87565b61149081611ce1565b6110d6611c87565b306001600160a01b037f00000000000000000000000000000000000000000000000000000000000000001614806118df57507f00000000000000000000000000000000000000000000000000000000000000006001600160a01b03166118d3600080516020612f69833981519152546001600160a01b031690565b6001600160a01b031614155b156110d65760405163703e46dd60e11b815260040160405180910390fd5b611490611a0b565b816001600160a01b03166352d1902d6040518163ffffffff1660e01b8152600401602060405180830381865afa92505050801561195f575060408051601f3d908101601f1916820190925261195c91810190612e3b565b60015b61198757604051634c9c8ce360e01b81526001600160a01b03831660048201526024016106dc565b600080516020612f6983398151915281146119b857604051632a87526960e21b8152600481018290526024016106dc565b6106fd8383611ce9565b306001600160a01b037f000000000000000000000000000000000000000000000000000000000000000016146110d65760405163703e46dd60e11b815260040160405180910390fd5b33611a146111db565b6001600160a01b0316146110d65760405163118cdaa760e01b81523360048201526024016106dc565b7f9016d09d72d40fdae2fd8ceac6b6234c7706214fd39c1cd1e609a0528c19930080546001600160a01b031981166001600160a01b03848116918217845560405192169182907f8be0079c531659141344cd1fd0a4f28419497f9722a3daafe3b4186f6b6457e090600090a3505050565b600080516020612f898339815191526001600160a01b038316611ae65760405162ced3e160e81b8152600060048201526024016106dc565b6001600160a01b038481166000818152600184016020908152604080832094881680845294825291829020805460ff191687151590811790915591519182527f17307eab39ab6107e8899845ad3d59bd9653f200f220920489ca2b5937696c31910160405180910390a350505050565b6001600160a01b038416611b8057604051632bfa23e760e11b8152600060048201526024016106dc565b6001600160a01b038516611ba957604051626a0d4560e21b8152600060048201526024016106dc565b60408051600180825260208201869052818301908152606082018590526080820190925290610cda87878484875b611be385858585611d3f565b6001600160a01b038416156115c05782513390600103611c1c5760208481015190840151611c15838989858589611f6d565b5050610848565b610848818787878787612091565b6001600160a01b038416611c5457604051632bfa23e760e11b8152600060048201526024016106dc565b60408051600180825260208201869052818301908152606082018590526080820190925290610848600087848487611bd7565b7ff0c57e16840df040f15088dc2f81fe391c3923bec73e23a9662efc9c229c6a0054600160401b900460ff166110d657604051631afcd79f60e31b815260040160405180910390fd5b611cd8611c87565b6114908161217a565b61145d611c87565b611cf2826121b4565b6040516001600160a01b038316907fbc7cd75a20ee27fd9adebab32041f755214dbc6bffa90cc0225b39da2e5c2d3b90600090a2805115611d37576106fd8282612219565b610dd261228f565b80518251600080516020612f898339815191529114611d7e5782518251604051635b05999160e01b8152600481019290925260248201526044016106dc565b3360005b8451811015611e8d576020818102868101820151908601909101516001600160a01b03891615611e35576000828152602086815260408083206001600160a01b038d16845290915290205481811015611e0e576040516303dee4c560e01b81526001600160a01b038b1660048201526024810182905260448101839052606481018490526084016106dc565b6000838152602087815260408083206001600160a01b038e16845290915290209082900390555b6001600160a01b03881615611e7a576000828152602086815260408083206001600160a01b038c16845290915281208054839290611e74908490612e54565b90915550505b505080611e8690612d5c565b9050611d82565b508351600103611f0e5760208401516000906020850151909150866001600160a01b0316886001600160a01b0316846001600160a01b03167fc3d58168c5ae7397731d063d5bbf3d657854427343f4c083240f7aacaa2d0f628585604051611eff929190918252602082015260400190565b60405180910390a45050610848565b846001600160a01b0316866001600160a01b0316826001600160a01b03167f4a39dc06d4c0dbc64b70af90fd698a233a518aa5d07e595d983b8c0526c8f7fb8787604051611f5d929190612e67565b60405180910390a4505050505050565b6001600160a01b0384163b156108485760405163f23a6e6160e01b81526001600160a01b0385169063f23a6e6190611fb19089908990889088908890600401612e8c565b6020604051808303816000875af1925050508015611fec575060408051601f3d908101601f19168201909252611fe991810190612ed1565b60015b612055573d80801561201a576040519150601f19603f3d011682016040523d82523d6000602084013e61201f565b606091505b50805160000361204d57604051632bfa23e760e11b81526001600160a01b03861660048201526024016106dc565b805181602001fd5b6001600160e01b0319811663f23a6e6160e01b14610cda57604051632bfa23e760e11b81526001600160a01b03861660048201526024016106dc565b6001600160a01b0384163b156108485760405163bc197c8160e01b81526001600160a01b0385169063bc197c81906120d59089908990889088908890600401612eee565b6020604051808303816000875af1925050508015612110575060408051601f3d908101601f1916820190925261210d91810190612ed1565b60015b61213e573d80801561201a576040519150601f19603f3d011682016040523d82523d6000602084013e61201f565b6001600160e01b0319811663bc197c8160e01b14610cda57604051632bfa23e760e11b81526001600160a01b03861660048201526024016106dc565b600080516020612f898339815191527f88be536d5240c274a3b1d3a1be54482fd9caa294f08c62a7cde569f49a3c45026106fd8382612c2f565b806001600160a01b03163b6000036121ea57604051634c9c8ce360e01b81526001600160a01b03821660048201526024016106dc565b600080516020612f6983398151915280546001600160a01b0319166001600160a01b0392909216919091179055565b6060600080846001600160a01b0316846040516122369190612f4c565b600060405180830381855af49150503d8060008114612271576040519150601f19603f3d011682016040523d82523d6000602084013e612276565b606091505b50915091506122868583836122ae565b95945050505050565b34156110d65760405163b398979f60e01b815260040160405180910390fd5b6060826122c3576122be8261230a565b610585565b81511580156122da57506001600160a01b0384163b155b1561230357604051639996b31560e01b81526001600160a01b03851660048201526024016106dc565b5092915050565b80511561231a5780518082602001fd5b604051630a12f52160e11b815260040160405180910390fd5b50805461233f90612baf565b6000825580601f1061234f575050565b601f01602090049060005260206000209081019061149091906123ce565b6040518060e0016040528060008152602001606081526020016060815260200160006001600160a01b031681526020016123ba604051806040016040528060008152602001600081525090565b815260200160008152602001606081525090565b5b808211156123e357600081556001016123cf565b5090565b80356001600160a01b03811681146123fe57600080fd5b919050565b6000806040838503121561241657600080fd5b61241f836123e7565b946020939093013593505050565b6001600160e01b03198116811461149057600080fd5b60006020828403121561245557600080fd5b81356105858161242d565b60006020828403121561247257600080fd5b610585826123e7565b60006020828403121561248d57600080fd5b5035919050565b60005b838110156124af578181015183820152602001612497565b50506000910152565b600081518084526124d0816020860160208601612494565b601f01601f19169290920160200192915050565b60208152600061058560208301846124b8565b634e487b7160e01b600052604160045260246000fd5b604051601f8201601f191681016001600160401b0381118282101715612535576125356124f7565b604052919050565b600082601f83011261254e57600080fd5b81356001600160401b03811115612567576125676124f7565b61257a601f8201601f191660200161250d565b81815284602083860101111561258f57600080fd5b816020850160208301376000918101602001919091529392505050565b600080604083850312156125bf57600080fd5b8235915060208301356001600160401b038111156125dc57600080fd5b6125e88582860161253d565b9150509250929050565b60006001600160401b0382111561260b5761260b6124f7565b5060051b60200190565b600082601f83011261262657600080fd5b8135602061263b612636836125f2565b61250d565b82815260059290921b8401810191818101908684111561265a57600080fd5b8286015b84811015612675578035835291830191830161265e565b509695505050505050565b600080600080600060a0868803121561269857600080fd5b6126a1866123e7565b94506126af602087016123e7565b935060408601356001600160401b03808211156126cb57600080fd5b6126d789838a01612615565b945060608801359150808211156126ed57600080fd5b6126f989838a01612615565b9350608088013591508082111561270f57600080fd5b5061271c8882890161253d565b9150509295509295909350565b6020815281516020820152600060208301516101008060408501526127526101208501836124b8565b91506040850151601f198086850301606087015261277084836124b8565b935060018060a01b03606088015116608087015260808701519150815160a0870152602082015160c087015260a087015160e087015260c08701519150808685030183870152506127c183826124b8565b9695505050505050565b60008060008060008060c087890312156127e457600080fd5b86356001600160401b03808211156127fb57600080fd5b6128078a838b0161253d565b9750602089013591508082111561281d57600080fd5b6128298a838b0161253d565b965060408901359550606089013594506080890135935060a089013591508082111561285457600080fd5b5061286189828a0161253d565b9150509295509295509295565b6000806040838503121561288157600080fd5b61288a836123e7565b9150612898602084016123e7565b90509250929050565b600080604083850312156128b457600080fd5b82356001600160401b03808211156128cb57600080fd5b818501915085601f8301126128df57600080fd5b813560206128ef612636836125f2565b82815260059290921b8401810191818101908984111561290e57600080fd5b948201945b8386101561293357612924866123e7565b82529482019490820190612913565b9650508601359250508082111561294957600080fd5b506125e885828601612615565b600081518084526020808501945080840160005b838110156129865781518752958201959082019060010161296a565b509495945050505050565b6020815260006105856020830184612956565b600080604083850312156129b757600080fd5b6129c0836123e7565b915060208301356001600160401b038111156125dc57600080fd5b60006101008a83528060208401526129f58184018b6124b8565b90508281036040840152612a09818a6124b8565b6001600160a01b03891660608501526080840188905260a0840187905260c0840186905283810360e08501529050612a4181856124b8565b9b9a5050505050505050505050565b600080600080600080600080610100898b031215612a6d57600080fd5b8835975060208901356001600160401b0380821115612a8b57600080fd5b612a978c838d0161253d565b985060408b0135915080821115612aad57600080fd5b612ab98c838d0161253d565b9750612ac760608c016123e7565b965060808b0135955060a08b0135945060c08b0135935060e08b0135915080821115612af257600080fd5b50612aff8b828c0161253d565b9150509295985092959890939650565b60008060408385031215612b2257600080fd5b612b2b836123e7565b915060208301358015158114612b4057600080fd5b809150509250929050565b600080600080600060a08688031215612b6357600080fd5b612b6c866123e7565b9450612b7a602087016123e7565b9350604086013592506060860135915060808601356001600160401b03811115612ba357600080fd5b61271c8882890161253d565b600181811c90821680612bc357607f821691505b602082108103612be357634e487b7160e01b600052602260045260246000fd5b50919050565b601f8211156106fd57600081815260208120601f850160051c81016020861015612c105750805b601f850160051c820191505b8181101561084857828155600101612c1c565b81516001600160401b03811115612c4857612c486124f7565b612c5c81612c568454612baf565b84612be9565b602080601f831160018114612c915760008415612c795750858301515b600019600386901b1c1916600185901b178555610848565b600085815260208120601f198616915b82811015612cc057888601518255948401946001909101908401612ca1565b5085821015612cde5787850151600019600388901b60f8161c191681555b5050505050600190811b01905550565b60208082526022908201527f556e617574686f72697a6564206f72206e6f6e2d6578697374656e742076656e604082015261756560f01b606082015260800190565b634e487b7160e01b600052603260045260246000fd5b634e487b7160e01b600052601160045260246000fd5b600060018201612d6e57612d6e612d46565b5060010190565b60e081526000612d8860e083018a6124b8565b8281036020840152612d9a818a6124b8565b6001600160a01b0389166040850152606084018890526080840187905260a0840186905283810360c08501529050612dd281856124b8565b9a9950505050505050505050565b600060608284031215612df257600080fd5b604051606081018181106001600160401b0382111715612e1457612e146124f7565b80604052508251815260208301516020820152604083015160408201528091505092915050565b600060208284031215612e4d57600080fd5b5051919050565b808201808211156104eb576104eb612d46565b604081526000612e7a6040830185612956565b82810360208401526122868185612956565b6001600160a01b03868116825285166020820152604081018490526060810183905260a060808201819052600090612ec6908301846124b8565b979650505050505050565b600060208284031215612ee357600080fd5b81516105858161242d565b6001600160a01b0386811682528516602082015260a060408201819052600090612f1a90830186612956565b8281036060840152612f2c8186612956565b90508281036080840152612f4081856124b8565b98975050505050505050565b60008251612f5e818460208701612494565b919091019291505056fe360894a13ba1a3210667c828492db98dca3e2076cc3735a920a3ca505d382bbc88be536d5240c274a3b1d3a1be54482fd9caa294f08c62a7cde569f49a3c450068747470733a2f2f6d657461646174612e73656c6c6f7574732e6170702f76656e75652f7b69647d2e6a736f6ea2646970667358221220def4573480b4bd5381dda09a979c00f07bb3f0f590f605f2f64f9caaf1071d7c64736f6c63430008140033","linkReferences":{}},"methodIdentifiers":{"UPGRADE_INTERFACE_VERSION()":"ad3cb1cc","acceptNomination(string,string,int256,int256,uint256,string)":"3cfb9207","balanceOf(address,uint256)":"00fdd58e","balanceOfBatch(address[],uint256[])":"4e1273f4","deregisterVenue(uint256)":"2e63de1c","getVenue(address)":"6befc55c","getVenueById(uint256)":"3a7f44d3","initialize(address,address)":"485cc955","isApprovedForAll(address,address)":"e985e9c5","isVenueRegistered(address)":"09a4a302","nominate(address)":"b332180b","nominatedVenues(address)":"b4ec1980","owner()":"8da5cb5b","proxiableUUID()":"52d1902d","renounceOwnership()":"715018a6","safeBatchTransferFrom(address,address,uint256[],uint256[],bytes)":"2eb2c2d6","safeTransferFrom(address,address,uint256,uint256,bytes)":"f242432a","setApprovalForAll(address,bool)":"a22cb465","setTokenURI(uint256,string)":"162094c4","supportsInterface(bytes4)":"01ffc9a7","transferOwnership(address)":"f2fde38b","updateVenue(uint256,string,string,address,int256,int256,uint256,string)":"84b03c44","upgradeToAndCall(address,bytes)":"4f1ef286","uri(uint256)":"0e89341c"},"id":70}