{"abi":[{"type":"function","name":"UPGRADE_INTERFACE_VERSION","inputs":[],"outputs":[{"name":"","type":"string","internalType":"string"}],"stateMutability":"view"},{"type":"function","name":"dateVotes","inputs":[{"name":"","type":"bytes32","internalType":"bytes32"},{"name":"","type":"uint256","internalType":"uint256"}],"outputs":[{"name":"","type":"uint256","internalType":"uint256"}],"stateMutability":"view"},{"type":"function","name":"hasDateVoted","inputs":[{"name":"","type":"bytes32","internalType":"bytes32"},{"name":"","type":"address","internalType":"address"}],"outputs":[{"name":"","type":"bool","internalType":"bool"}],"stateMutability":"view"},{"type":"function","name":"hasTicketOwnerVoted","inputs":[{"name":"","type":"bytes32","internalType":"bytes32"},{"name":"","type":"address","internalType":"address"}],"outputs":[{"name":"","type":"bool","internalType":"bool"}],"stateMutability":"view"},{"type":"function","name":"hasVoted","inputs":[{"name":"","type":"bytes32","internalType":"bytes32"},{"name":"","type":"address","internalType":"address"}],"outputs":[{"name":"","type":"bool","internalType":"bool"}],"stateMutability":"view"},{"type":"function","name":"initialize","inputs":[{"name":"initialOwner","type":"address","internalType":"address"},{"name":"_showBaseContractAddress","type":"address","internalType":"address"},{"name":"_ticketBaseContractAddress","type":"address","internalType":"address"}],"outputs":[],"stateMutability":"nonpayable"},{"type":"function","name":"owner","inputs":[],"outputs":[{"name":"","type":"address","internalType":"address"}],"stateMutability":"view"},{"type":"function","name":"previousDateVote","inputs":[{"name":"","type":"bytes32","internalType":"bytes32"},{"name":"","type":"address","internalType":"address"}],"outputs":[{"name":"","type":"uint256","internalType":"uint256"}],"stateMutability":"view"},{"type":"function","name":"previousVote","inputs":[{"name":"","type":"bytes32","internalType":"bytes32"},{"name":"","type":"address","internalType":"address"}],"outputs":[{"name":"","type":"uint256","internalType":"uint256"}],"stateMutability":"view"},{"type":"function","name":"proposalPeriod","inputs":[{"name":"","type":"bytes32","internalType":"bytes32"}],"outputs":[{"name":"endTime","type":"uint256","internalType":"uint256"},{"name":"isPeriodActive","type":"bool","internalType":"bool"}],"stateMutability":"view"},{"type":"function","name":"proxiableUUID","inputs":[],"outputs":[{"name":"","type":"bytes32","internalType":"bytes32"}],"stateMutability":"view"},{"type":"function","name":"refunds","inputs":[{"name":"","type":"address","internalType":"address"}],"outputs":[{"name":"","type":"uint256","internalType":"uint256"}],"stateMutability":"view"},{"type":"function","name":"renounceOwnership","inputs":[],"outputs":[],"stateMutability":"nonpayable"},{"type":"function","name":"selectedDate","inputs":[{"name":"","type":"bytes32","internalType":"bytes32"}],"outputs":[{"name":"","type":"uint256","internalType":"uint256"}],"stateMutability":"view"},{"type":"function","name":"selectedProposalIndex","inputs":[{"name":"","type":"bytes32","internalType":"bytes32"}],"outputs":[{"name":"","type":"uint256","internalType":"uint256"}],"stateMutability":"view"},{"type":"function","name":"showInstance","inputs":[],"outputs":[{"name":"","type":"address","internalType":"contract IShow"}],"stateMutability":"view"},{"type":"function","name":"showProposals","inputs":[{"name":"","type":"bytes32","internalType":"bytes32"},{"name":"","type":"uint256","internalType":"uint256"}],"outputs":[{"name":"venue","type":"tuple","internalType":"struct VenueTypes.Venue","components":[{"name":"name","type":"string","internalType":"string"},{"name":"coordinates","type":"tuple","internalType":"struct VenueTypes.Coordinates","components":[{"name":"lat","type":"int256","internalType":"int256"},{"name":"lon","type":"int256","internalType":"int256"}]},{"name":"totalCapacity","type":"uint256","internalType":"uint256"},{"name":"wallet","type":"address","internalType":"address"}]},{"name":"proposer","type":"address","internalType":"address"},{"name":"bribe","type":"uint256","internalType":"uint256"},{"name":"votes","type":"uint256","internalType":"uint256"},{"name":"accepted","type":"bool","internalType":"bool"}],"stateMutability":"view"},{"type":"function","name":"submitProposal","inputs":[{"name":"showId","type":"bytes32","internalType":"bytes32"},{"name":"venueName","type":"string","internalType":"string"},{"name":"coordinates","type":"tuple","internalType":"struct VenueTypes.Coordinates","components":[{"name":"lat","type":"int256","internalType":"int256"},{"name":"lon","type":"int256","internalType":"int256"}]},{"name":"totalCapacity","type":"uint256","internalType":"uint256"},{"name":"proposedDates","type":"uint256[]","internalType":"uint256[]"}],"outputs":[],"stateMutability":"payable"},{"type":"function","name":"ticketHolderVenueVote","inputs":[{"name":"showId","type":"bytes32","internalType":"bytes32"},{"name":"proposalIndex","type":"uint256","internalType":"uint256"}],"outputs":[],"stateMutability":"nonpayable"},{"type":"function","name":"ticketInstance","inputs":[],"outputs":[{"name":"","type":"address","internalType":"contract ITicket"}],"stateMutability":"view"},{"type":"function","name":"transferOwnership","inputs":[{"name":"newOwner","type":"address","internalType":"address"}],"outputs":[],"stateMutability":"nonpayable"},{"type":"function","name":"upgradeToAndCall","inputs":[{"name":"newImplementation","type":"address","internalType":"address"},{"name":"data","type":"bytes","internalType":"bytes"}],"outputs":[],"stateMutability":"payable"},{"type":"function","name":"vote","inputs":[{"name":"showId","type":"bytes32","internalType":"bytes32"},{"name":"proposalIndex","type":"uint256","internalType":"uint256"}],"outputs":[],"stateMutability":"nonpayable"},{"type":"function","name":"voteForDate","inputs":[{"name":"showId","type":"bytes32","internalType":"bytes32"},{"name":"dateIndex","type":"uint256","internalType":"uint256"}],"outputs":[],"stateMutability":"nonpayable"},{"type":"function","name":"votingPeriods","inputs":[{"name":"","type":"bytes32","internalType":"bytes32"}],"outputs":[{"name":"endTime","type":"uint256","internalType":"uint256"},{"name":"isPeriodActive","type":"bool","internalType":"bool"}],"stateMutability":"view"},{"type":"event","name":"DateAccepted","inputs":[{"name":"showId","type":"bytes32","indexed":true,"internalType":"bytes32"},{"name":"dateIndex","type":"uint256","indexed":false,"internalType":"uint256"}],"anonymous":false},{"type":"event","name":"DateVoted","inputs":[{"name":"showId","type":"bytes32","indexed":true,"internalType":"bytes32"},{"name":"voter","type":"address","indexed":true,"internalType":"address"},{"name":"dateIndex","type":"uint256","indexed":false,"internalType":"uint256"}],"anonymous":false},{"type":"event","name":"Initialized","inputs":[{"name":"version","type":"uint64","indexed":false,"internalType":"uint64"}],"anonymous":false},{"type":"event","name":"OwnershipTransferred","inputs":[{"name":"previousOwner","type":"address","indexed":true,"internalType":"address"},{"name":"newOwner","type":"address","indexed":true,"internalType":"address"}],"anonymous":false},{"type":"event","name":"ProposalAccepted","inputs":[{"name":"showId","type":"bytes32","indexed":true,"internalType":"bytes32"},{"name":"proposalIndex","type":"uint256","indexed":false,"internalType":"uint256"}],"anonymous":false},{"type":"event","name":"ProposalPeriodStarted","inputs":[{"name":"showId","type":"bytes32","indexed":true,"internalType":"bytes32"},{"name":"endTime","type":"uint256","indexed":false,"internalType":"uint256"}],"anonymous":false},{"type":"event","name":"ProposalSubmitted","inputs":[{"name":"showId","type":"bytes32","indexed":true,"internalType":"bytes32"},{"name":"proposer","type":"address","indexed":true,"internalType":"address"},{"name":"venueName","type":"string","indexed":false,"internalType":"string"}],"anonymous":false},{"type":"event","name":"ProposalVoted","inputs":[{"name":"showId","type":"bytes32","indexed":true,"internalType":"bytes32"},{"name":"voter","type":"address","indexed":true,"internalType":"address"},{"name":"proposalIndex","type":"uint256","indexed":false,"internalType":"uint256"}],"anonymous":false},{"type":"event","name":"PublicVotingPeriodStarted","inputs":[{"name":"showId","type":"bytes32","indexed":true,"internalType":"bytes32"},{"name":"endTime","type":"uint256","indexed":false,"internalType":"uint256"}],"anonymous":false},{"type":"event","name":"Upgraded","inputs":[{"name":"implementation","type":"address","indexed":true,"internalType":"address"}],"anonymous":false},{"type":"event","name":"VenueVoted","inputs":[{"name":"showId","type":"bytes32","indexed":true,"internalType":"bytes32"},{"name":"voter","type":"address","indexed":true,"internalType":"address"},{"name":"proposalIndex","type":"uint256","indexed":false,"internalType":"uint256"}],"anonymous":false},{"type":"error","name":"AddressEmptyCode","inputs":[{"name":"target","type":"address","internalType":"address"}]},{"type":"error","name":"ERC1967InvalidImplementation","inputs":[{"name":"implementation","type":"address","internalType":"address"}]},{"type":"error","name":"ERC1967NonPayable","inputs":[]},{"type":"error","name":"FailedInnerCall","inputs":[]},{"type":"error","name":"InvalidInitialization","inputs":[]},{"type":"error","name":"NotInitializing","inputs":[]},{"type":"error","name":"OwnableInvalidOwner","inputs":[{"name":"owner","type":"address","internalType":"address"}]},{"type":"error","name":"OwnableUnauthorizedAccount","inputs":[{"name":"account","type":"address","internalType":"address"}]},{"type":"error","name":"UUPSUnauthorizedCallContext","inputs":[]},{"type":"error","name":"UUPSUnsupportedProxiableUUID","inputs":[{"name":"slot","type":"bytes32","internalType":"bytes32"}]}],"bytecode":{"object":"0x60a06040523060805234801561001457600080fd5b5060805161261761003e600039600081816117e50152818161180e015261195401526126176000f3fe6080604052600436106101665760003560e01c8063aadc3b72116100d1578063c15f6bd71161008a578063dda9b13c11610064578063dda9b13c14610559578063ee6b8b2e1461056c578063f2fde38b1461058c578063f51bba85146105ac57600080fd5b8063c15f6bd7146104bd578063d360fb5f146104f4578063d865ae3c1461052c57600080fd5b8063aadc3b7214610373578063ab07426f146103ae578063ad3cb1cc146103e6578063b328da1214610424578063bc3da53514610470578063c0c53b8b1461049d57600080fd5b8063715018a611610123578063715018a61461026557806381cf3ab81461027a5780638da5cb5b1461029a578063960c8b45146102d75780639ef1204c14610308578063a16026f41461032857600080fd5b80630233ce6a1461016b578063043c97fa146101a8578063404f49d1146101ee5780634f1ef2861461020e57806352d1902d146102235780636658237114610238575b600080fd5b34801561017757600080fd5b50600d5461018b906001600160a01b031681565b6040516001600160a01b0390911681526020015b60405180910390f35b3480156101b457600080fd5b506101e06101c3366004611f5c565b600760209081526000928352604080842090915290825290205481565b60405190815260200161019f565b3480156101fa57600080fd5b50600c5461018b906001600160a01b031681565b61022161021c366004612050565b6105e7565b005b34801561022f57600080fd5b506101e0610606565b34801561024457600080fd5b506101e06102533660046120b2565b600a6020526000908152604090205481565b34801561027157600080fd5b50610221610623565b34801561028657600080fd5b506102216102953660046120cb565b610637565b3480156102a657600080fd5b507f9016d09d72d40fdae2fd8ceac6b6234c7706214fd39c1cd1e609a0528c199300546001600160a01b031661018b565b3480156102e357600080fd5b506102f76102f23660046120cb565b6109d7565b60405161019f95949392919061213d565b34801561031457600080fd5b506102216103233660046120cb565b610b0e565b34801561033457600080fd5b50610363610343366004611f5c565b600860209081526000928352604080842090915290825290205460ff1681565b604051901515815260200161019f565b34801561037f57600080fd5b5061036361038e366004611f5c565b600260209081526000928352604080842090915290825290205460ff1681565b3480156103ba57600080fd5b506101e06103c9366004611f5c565b600560209081526000928352604080842090915290825290205481565b3480156103f257600080fd5b50610417604051806040016040528060058152602001640352e302e360dc1b81525081565b60405161019f91906121b8565b34801561043057600080fd5b5061045b61043f3660046120b2565b6000602081905290815260409020805460019091015460ff1682565b6040805192835290151560208301520161019f565b34801561047c57600080fd5b506101e061048b3660046121cb565b600b6020526000908152604090205481565b3480156104a957600080fd5b506102216104b83660046121e6565b610ec0565b3480156104c957600080fd5b5061045b6104d83660046120b2565b6003602052600090815260409020805460019091015460ff1682565b34801561050057600080fd5b506101e061050f3660046120cb565b600660209081526000928352604080842090915290825290205481565b34801561053857600080fd5b506101e06105473660046120b2565b60096020526000908152604090205481565b6102216105673660046122a9565b61100a565b34801561057857600080fd5b506102216105873660046120cb565b611552565b34801561059857600080fd5b506102216105a73660046121cb565b61179c565b3480156105b857600080fd5b506103636105c7366004611f5c565b600460209081526000928352604080842090915290825290205460ff1681565b6105ef6117da565b6105f88261187f565b6106028282611887565b5050565b6000610610611949565b506000805160206125c283398151915290565b61062b611992565b61063560006119ed565b565b600c54604051632769b96d60e11b81523360048201526024810184905283916001600160a01b031690634ed372da90604401602060405180830381865afa158015610686573d6000803e3d6000fd5b505050506040513d601f19601f820116820180604052508101906106aa9190612369565b806107235750600c546040516302c9a8b560e01b8152336004820152602481018390526001600160a01b03909116906302c9a8b590604401602060405180830381865afa1580156106ff573d6000803e3d6000fd5b505050506040513d601f19601f820116820180604052508101906107239190612369565b6107655760405162461bcd60e51b815260206004820152600e60248201526d139bdd08185d5d1a1bdc9a5e995960921b60448201526064015b60405180910390fd5b6000838152600160209081526040808320600a909252909120548154811061078f5761078f61238b565b90600052602060002090600a02016005018054905082106107e75760405162461bcd60e51b8152602060048201526012602482015271092dcecc2d8d2c840c8c2e8ca40d2dcc8caf60731b604482015260640161075c565b60008381526007602090815260408083203384529091529020548281036108505760405162461bcd60e51b815260206004820152601b60248201527f416c726561647920766f74656420666f72207468697320646174650000000000604482015260640161075c565b600084815260086020908152604080832033845290915290205460ff161561089d5760008481526006602090815260408083208484529091528120805491610897836123b7565b91905055505b600084815260066020908152604080832086845290915281208054916108c2836123ce565b9091555050600084815260086020908152604080832033808552908352818420805460ff19166001179055878452600783528184208185528352928190208690555185815286917f9be4e7a28923fc7c16e20aa07e4d848cd6b3c9a28c315d27b3c51718cfd6ef59910160405180910390a3600c5460405163217fe85b60e21b8152600481018690526000916001600160a01b0316906385ffa16c90602401602060405180830381865afa15801561097e573d6000803e3d6000fd5b505050506040513d601f19601f820116820180604052508101906109a291906123e7565b60008681526006602090815260408083208884529091529020549091508190036109d0576109d08585611a5e565b5050505050565b600160205281600052604060002081815481106109f357600080fd5b90600052602060002090600a02016000915091505080600001604051806080016040529081600082018054610a2790612400565b80601f0160208091040260200160405190810160405280929190818152602001828054610a5390612400565b8015610aa05780601f10610a7557610100808354040283529160200191610aa0565b820191906000526020600020905b815481529060010190602001808311610a8357829003601f168201915b50505091835250506040805180820182526001840154815260028401546020828101919091528301526003830154908201526004909101546001600160a01b039081166060909201919091526006830154600784015460088501546009909501549394919092169260ff1685565b600c54604051632769b96d60e11b81523360048201526024810184905283916001600160a01b031690634ed372da90604401602060405180830381865afa158015610b5d573d6000803e3d6000fd5b505050506040513d601f19601f82011682018060405250810190610b819190612369565b80610bfa5750600c546040516302c9a8b560e01b8152336004820152602481018390526001600160a01b03909116906302c9a8b590604401602060405180830381865afa158015610bd6573d6000803e3d6000fd5b505050506040513d601f19601f82011682018060405250810190610bfa9190612369565b610c375760405162461bcd60e51b815260206004820152600e60248201526d139bdd08185d5d1a1bdc9a5e995960921b604482015260640161075c565b6000838152600160205260409020548210610c8d5760405162461bcd60e51b8152602060048201526016602482015275092dcecc2d8d2c840e0e4dee0dee6c2d840d2dcc8caf60531b604482015260640161075c565b6000838152600560209081526040808320338452909152902054828103610cf65760405162461bcd60e51b815260206004820152601c60248201527f416c726561647920766f74656420666f7220746869732076656e756500000000604482015260640161075c565b600084815260026020908152604080832033845290915290205460ff1615610d5c576000848152600160205260409020805482908110610d3857610d3861238b565b6000918252602082206008600a9092020101805491610d56836123b7565b91905055505b6000848152600160205260409020805484908110610d7c57610d7c61238b565b6000918252602082206008600a9092020101805491610d9a836123ce565b9091555050600084815260026020908152604080832033808552908352818420805460ff19166001179055878452600583528184208185528352928190208690555185815286917f09e638baf0aa9cdb2a3233767bf1f976e138af255c4da751ab01215f4c96f2b0910160405180910390a3600c5460405163217fe85b60e21b8152600481018690526000916001600160a01b0316906385ffa16c90602401602060405180830381865afa158015610e56573d6000803e3d6000fd5b505050506040513d601f19601f82011682018060405250810190610e7a91906123e7565b60008681526001602052604090208054919250829186908110610e9f57610e9f61238b565b90600052602060002090600a020160080154036109d0576109d08585611aaf565b7ff0c57e16840df040f15088dc2f81fe391c3923bec73e23a9662efc9c229c6a008054600160401b810460ff16159067ffffffffffffffff16600081158015610f065750825b905060008267ffffffffffffffff166001148015610f235750303b155b905081158015610f31575080155b15610f4f5760405163f92ee8a960e01b815260040160405180910390fd5b845467ffffffffffffffff191660011785558315610f7957845460ff60401b1916600160401b1785555b610f8288611b31565b610f8a611b42565b600c80546001600160a01b03808a166001600160a01b031992831617909255600d805492891692909116919091179055831561100057845460ff60401b19168555604051600181527fc7f505b2f371ae2175ee4913f4499e1f2633a7b5936321eed1cdaeb6115181d29060200160405180910390a15b5050505050505050565b600c546040516346c2c8a760e01b8152600481018790526001916001600160a01b0316906346c2c8a790602401602060405180830381865afa158015611054573d6000803e3d6000fd5b505050506040513d601f19601f820116820180604052508101906110789190612450565b60078111156110895761108961243a565b146110cd5760405162461bcd60e51b815260206004820152601460248201527314da1bddc81b5d5cdd0818994814dbdb1913dd5d60621b604482015260640161075c565b60008581526020819052604090205415806110f657506000858152602081905260409020544211155b6111425760405162461bcd60e51b815260206004820152601960248201527f50726f706f73616c20706572696f642068617320656e64656400000000000000604482015260640161075c565b825163055d4a7f191380159061115d5750825163055d4a8012155b61119c5760405162461bcd60e51b815260206004820152601060248201526f496e76616c6964206c6174697475646560801b604482015260640161075c565b630aba94ff198360200151121580156111bd5750630aba9500836020015113155b6111fd5760405162461bcd60e51b8152602060048201526011602482015270496e76616c6964206c6f6e67697475646560781b604482015260640161075c565b600081511161125a5760405162461bcd60e51b815260206004820152602360248201527f4174206c65617374206f6e652070726f706f73656420646174652072657175696044820152621c995960ea1b606482015260840161075c565b6005815111156112b75760405162461bcd60e51b815260206004820152602260248201527f50726f706f73616c206d75737420686176652035206f72206c65737320646174604482015261657360f01b606482015260840161075c565b60005b815181101561136c576000868152602081905260409020546112df90610a8c90612471565b8282815181106112f1576112f161238b565b60200260200101511161135a5760405162461bcd60e51b815260206004820152602b60248201527f50726f706f7365642064617465206d757374206265203630206461797320696e60448201526a207468652066757475726560a81b606482015260840161075c565b80611364816123ce565b9150506112ba565b5060008581526020819052604090206001015460ff1661138f5761138f85611b4a565b6000858152602081905260409020546113aa90607890612484565b42106113d6576000858152602081905260408120805461012c92906113d0908490612471565b90915550505b6113de611e56565b84815260208101849052604081018390523360608201526113fd611e99565b81815260208082018490523360408084019190915234606084015260006080840181905260a08401819052898152600180845291812080549283018155815291909120825180518493600a02909201918290819061145b90826124e5565b5060208281015180516001840155810151600283015560408301516003830155606090920151600490910180546001600160a01b0319166001600160a01b039092169190911790558281015180516114b99260058501920190611ee0565b506040828101516006830180546001600160a01b0319166001600160a01b03909216919091179055606083015160078301556080830151600883015560a0909201516009909101805460ff191691151591909117905551339088907fe3d9c91fef9ec1a5517b77d8f83af57508342220388c74d079df56bb9c5349e090611541908a906121b8565b60405180910390a350505050505050565b600082815260036020526040902054158015611580575060008281526003602052604090206001015460ff16155b1561158e5761158e82611bbd565b60008281526003602052604090206001015460ff166115ef5760405162461bcd60e51b815260206004820152601b60248201527f566f74696e6720706572696f64206973206e6f74206163746976650000000000604482015260640161075c565b600c54604051635c37da6960e01b8152336004820152602481018490526001600160a01b0390911690635c37da6990604401602060405180830381865afa15801561163e573d6000803e3d6000fd5b505050506040513d601f19601f820116820180604052508101906116629190612369565b6116a35760405162461bcd60e51b81526020600482015260126024820152712737ba1030903a34b1b5b2ba1037bbb732b960711b604482015260640161075c565b600082815260046020908152604080832033845290915290205460ff16156116fd5760405162461bcd60e51b815260206004820152600d60248201526c105b1c9958591e481d9bdd1959609a1b604482015260640161075c565b600082815260016020526040902080548290811061171d5761171d61238b565b6000918252602082206008600a909202010180549161173b836123ce565b909155505060008281526004602090815260408083203380855290835292819020805460ff191660011790555183815284917f37b8aa4050778a896e18d9773bb81d7a680a33f4b9232d489a3541a7a95c8350910160405180910390a35050565b6117a4611992565b6001600160a01b0381166117ce57604051631e4fbdf760e01b81526000600482015260240161075c565b6117d7816119ed565b50565b306001600160a01b037f000000000000000000000000000000000000000000000000000000000000000016148061186157507f00000000000000000000000000000000000000000000000000000000000000006001600160a01b03166118556000805160206125c2833981519152546001600160a01b031690565b6001600160a01b031614155b156106355760405163703e46dd60e11b815260040160405180910390fd5b6117d7611992565b816001600160a01b03166352d1902d6040518163ffffffff1660e01b8152600401602060405180830381865afa9250505080156118e1575060408051601f3d908101601f191682019092526118de918101906123e7565b60015b61190957604051634c9c8ce360e01b81526001600160a01b038316600482015260240161075c565b6000805160206125c2833981519152811461193a57604051632a87526960e21b81526004810182905260240161075c565b6119448383611c2b565b505050565b306001600160a01b037f000000000000000000000000000000000000000000000000000000000000000016146106355760405163703e46dd60e11b815260040160405180910390fd5b336119c47f9016d09d72d40fdae2fd8ceac6b6234c7706214fd39c1cd1e609a0528c199300546001600160a01b031690565b6001600160a01b0316146106355760405163118cdaa760e01b815233600482015260240161075c565b7f9016d09d72d40fdae2fd8ceac6b6234c7706214fd39c1cd1e609a0528c19930080546001600160a01b031981166001600160a01b03848116918217845560405192169182907f8be0079c531659141344cd1fd0a4f28419497f9722a3daafe3b4186f6b6457e090600090a3505050565b600082815260096020526040908190208290555182907f30f427038b9903ed0be3f545ee5d678ba47d53ce2ffe77eb1eccbde089ec207d90611aa39084815260200190565b60405180910390a25050565b6000828152600160208190526040909120805483908110611ad257611ad261238b565b60009182526020808320600a92830201600901805460ff19169415159490941790935584825282526040908190208390555182815283917fa4cdb24ce3dbadfa51e723cabdbbd7124e6b55e68a4b41d3eb42a00d144eefe39101611aa3565b611b39611c81565b6117d781611cca565b610635611c81565b60008181526020819052604090206001908101805460ff19169091179055611b74611c2042612471565b60008281526020818152604091829020839055905191825282917fbe893194ee9c4752250e88ba9de293863b73822c4663c78d6cad1f9aa7d91cdc91015b60405180910390a250565b60008181526003602052604090206001908101805460ff19169091179055611be761025842612471565b600082815260036020526040908190208290555182917f58f609de0b6e6eb5c26a9c4e7c7829683497810612c1bdfdba684a4a8db0854691611bb291815260200190565b611c3482611cd2565b6040516001600160a01b038316907fbc7cd75a20ee27fd9adebab32041f755214dbc6bffa90cc0225b39da2e5c2d3b90600090a2805115611c79576119448282611d37565b610602611daf565b7ff0c57e16840df040f15088dc2f81fe391c3923bec73e23a9662efc9c229c6a0054600160401b900460ff1661063557604051631afcd79f60e31b815260040160405180910390fd5b6117a4611c81565b806001600160a01b03163b600003611d0857604051634c9c8ce360e01b81526001600160a01b038216600482015260240161075c565b6000805160206125c283398151915280546001600160a01b0319166001600160a01b0392909216919091179055565b6060600080846001600160a01b031684604051611d5491906125a5565b600060405180830381855af49150503d8060008114611d8f576040519150601f19603f3d011682016040523d82523d6000602084013e611d94565b606091505b5091509150611da4858383611dce565b925050505b92915050565b34156106355760405163b398979f60e01b815260040160405180910390fd5b606082611de357611dde82611e2d565b611e26565b8151158015611dfa57506001600160a01b0384163b155b15611e2357604051639996b31560e01b81526001600160a01b038516600482015260240161075c565b50805b9392505050565b805115611e3d5780518082602001fd5b604051630a12f52160e11b815260040160405180910390fd5b604051806080016040528060608152602001611e85604051806040016040528060008152602001600081525090565b815260006020820181905260409091015290565b6040518060c00160405280611eac611e56565b81526020016060815260200160006001600160a01b0316815260200160008152602001600081526020016000151581525090565b828054828255906000526020600020908101928215611f1b579160200282015b82811115611f1b578251825591602001919060010190611f00565b50611f27929150611f2b565b5090565b5b80821115611f275760008155600101611f2c565b80356001600160a01b0381168114611f5757600080fd5b919050565b60008060408385031215611f6f57600080fd5b82359150611f7f60208401611f40565b90509250929050565b634e487b7160e01b600052604160045260246000fd5b6040805190810167ffffffffffffffff81118282101715611fc157611fc1611f88565b60405290565b604051601f8201601f1916810167ffffffffffffffff81118282101715611ff057611ff0611f88565b604052919050565b600067ffffffffffffffff83111561201257612012611f88565b612025601f8401601f1916602001611fc7565b905082815283838301111561203957600080fd5b828260208301376000602084830101529392505050565b6000806040838503121561206357600080fd5b61206c83611f40565b9150602083013567ffffffffffffffff81111561208857600080fd5b8301601f8101851361209957600080fd5b6120a885823560208401611ff8565b9150509250929050565b6000602082840312156120c457600080fd5b5035919050565b600080604083850312156120de57600080fd5b50508035926020909101359150565b60005b838110156121085781810151838201526020016120f0565b50506000910152565b600081518084526121298160208601602086016120ed565b601f01601f19169290920160200192915050565b60a081526000865160a080840152612159610140840182612111565b602089810151805160c087015281015160e08601526040808b015161010087015260609a8b01516001600160a01b0390811661012088015299909916908501529683019590955250948501919091521515608090930192909252919050565b602081526000611e266020830184612111565b6000602082840312156121dd57600080fd5b611e2682611f40565b6000806000606084860312156121fb57600080fd5b61220484611f40565b925061221260208501611f40565b915061222060408501611f40565b90509250925092565b600082601f83011261223a57600080fd5b8135602067ffffffffffffffff82111561225657612256611f88565b8160051b612265828201611fc7565b928352848101820192828101908785111561227f57600080fd5b83870192505b8483101561229e57823582529183019190830190612285565b979650505050505050565b600080600080600085870360c08112156122c257600080fd5b86359550602087013567ffffffffffffffff808211156122e157600080fd5b818901915089601f8301126122f557600080fd5b6123048a833560208501611ff8565b96506040603f198401121561231857600080fd5b612320611f9e565b60408a0135815260608a0135602082015295506080890135945060a089013592508083111561234e57600080fd5b505061235c88828901612229565b9150509295509295909350565b60006020828403121561237b57600080fd5b81518015158114611e2657600080fd5b634e487b7160e01b600052603260045260246000fd5b634e487b7160e01b600052601160045260246000fd5b6000816123c6576123c66123a1565b506000190190565b6000600182016123e0576123e06123a1565b5060010190565b6000602082840312156123f957600080fd5b5051919050565b600181811c9082168061241457607f821691505b60208210810361243457634e487b7160e01b600052602260045260246000fd5b50919050565b634e487b7160e01b600052602160045260246000fd5b60006020828403121561246257600080fd5b815160088110611e2657600080fd5b80820180821115611da957611da96123a1565b81810381811115611da957611da96123a1565b601f82111561194457600081815260208120601f850160051c810160208610156124be5750805b601f850160051c820191505b818110156124dd578281556001016124ca565b505050505050565b815167ffffffffffffffff8111156124ff576124ff611f88565b6125138161250d8454612400565b84612497565b602080601f83116001811461254857600084156125305750858301515b600019600386901b1c1916600185901b1785556124dd565b600085815260208120601f198616915b8281101561257757888601518255948401946001909101908401612558565b50858210156125955787850151600019600388901b60f8161c191681555b5050505050600190811b01905550565b600082516125b78184602087016120ed565b919091019291505056fe360894a13ba1a3210667c828492db98dca3e2076cc3735a920a3ca505d382bbca264697066735822122097d5eab70f288985e8a60ec8fdde90e494ed91c49844697ff2606a2d407c2adb64736f6c63430008140033","linkReferences":{}},"methodIdentifiers":{"UPGRADE_INTERFACE_VERSION()":"ad3cb1cc","dateVotes(bytes32,uint256)":"d360fb5f","hasDateVoted(bytes32,address)":"a16026f4","hasTicketOwnerVoted(bytes32,address)":"f51bba85","hasVoted(bytes32,address)":"aadc3b72","initialize(address,address,address)":"c0c53b8b","owner()":"8da5cb5b","previousDateVote(bytes32,address)":"043c97fa","previousVote(bytes32,address)":"ab07426f","proposalPeriod(bytes32)":"b328da12","proxiableUUID()":"52d1902d","refunds(address)":"bc3da535","renounceOwnership()":"715018a6","selectedDate(bytes32)":"d865ae3c","selectedProposalIndex(bytes32)":"66582371","showInstance()":"404f49d1","showProposals(bytes32,uint256)":"960c8b45","submitProposal(bytes32,string,(int256,int256),uint256,uint256[])":"dda9b13c","ticketHolderVenueVote(bytes32,uint256)":"ee6b8b2e","ticketInstance()":"0233ce6a","transferOwnership(address)":"f2fde38b","upgradeToAndCall(address,bytes)":"4f1ef286","vote(bytes32,uint256)":"9ef1204c","voteForDate(bytes32,uint256)":"81cf3ab8","votingPeriods(bytes32)":"c15f6bd7"},"id":63}