{"abi":[{"type":"function","name":"UPGRADE_INTERFACE_VERSION","inputs":[],"outputs":[{"name":"","type":"string","internalType":"string"}],"stateMutability":"view"},{"type":"function","name":"acceptNomination","inputs":[{"name":"_name","type":"string","internalType":"string"},{"name":"_bio","type":"string","internalType":"string"}],"outputs":[],"stateMutability":"nonpayable"},{"type":"function","name":"balanceOf","inputs":[{"name":"account","type":"address","internalType":"address"},{"name":"id","type":"uint256","internalType":"uint256"}],"outputs":[{"name":"","type":"uint256","internalType":"uint256"}],"stateMutability":"view"},{"type":"function","name":"balanceOfBatch","inputs":[{"name":"accounts","type":"address[]","internalType":"address[]"},{"name":"ids","type":"uint256[]","internalType":"uint256[]"}],"outputs":[{"name":"","type":"uint256[]","internalType":"uint256[]"}],"stateMutability":"view"},{"type":"function","name":"deregisterVenue","inputs":[{"name":"_venueId","type":"uint256","internalType":"uint256"}],"outputs":[],"stateMutability":"nonpayable"},{"type":"function","name":"getVenue","inputs":[{"name":"venueAddress","type":"address","internalType":"address"}],"outputs":[{"name":"name","type":"string","internalType":"string"},{"name":"bio","type":"string","internalType":"string"},{"name":"wallet","type":"address","internalType":"address"}],"stateMutability":"view"},{"type":"function","name":"initialize","inputs":[{"name":"initialOwner","type":"address","internalType":"address"},{"name":"_referralModuleAddress","type":"address","internalType":"address"}],"outputs":[],"stateMutability":"nonpayable"},{"type":"function","name":"isApprovedForAll","inputs":[{"name":"account","type":"address","internalType":"address"},{"name":"operator","type":"address","internalType":"address"}],"outputs":[{"name":"","type":"bool","internalType":"bool"}],"stateMutability":"view"},{"type":"function","name":"nominate","inputs":[{"name":"nominee","type":"address","internalType":"address"}],"outputs":[],"stateMutability":"nonpayable"},{"type":"function","name":"nominatedVenues","inputs":[{"name":"","type":"address","internalType":"address"}],"outputs":[{"name":"","type":"bool","internalType":"bool"}],"stateMutability":"view"},{"type":"function","name":"owner","inputs":[],"outputs":[{"name":"","type":"address","internalType":"address"}],"stateMutability":"view"},{"type":"function","name":"proxiableUUID","inputs":[],"outputs":[{"name":"","type":"bytes32","internalType":"bytes32"}],"stateMutability":"view"},{"type":"function","name":"renounceOwnership","inputs":[],"outputs":[],"stateMutability":"nonpayable"},{"type":"function","name":"safeBatchTransferFrom","inputs":[{"name":"from","type":"address","internalType":"address"},{"name":"to","type":"address","internalType":"address"},{"name":"ids","type":"uint256[]","internalType":"uint256[]"},{"name":"values","type":"uint256[]","internalType":"uint256[]"},{"name":"data","type":"bytes","internalType":"bytes"}],"outputs":[],"stateMutability":"nonpayable"},{"type":"function","name":"safeTransferFrom","inputs":[{"name":"from","type":"address","internalType":"address"},{"name":"to","type":"address","internalType":"address"},{"name":"id","type":"uint256","internalType":"uint256"},{"name":"value","type":"uint256","internalType":"uint256"},{"name":"data","type":"bytes","internalType":"bytes"}],"outputs":[],"stateMutability":"nonpayable"},{"type":"function","name":"setApprovalForAll","inputs":[{"name":"operator","type":"address","internalType":"address"},{"name":"approved","type":"bool","internalType":"bool"}],"outputs":[],"stateMutability":"nonpayable"},{"type":"function","name":"setTokenURI","inputs":[{"name":"tokenId","type":"uint256","internalType":"uint256"},{"name":"newURI","type":"string","internalType":"string"}],"outputs":[],"stateMutability":"nonpayable"},{"type":"function","name":"supportsInterface","inputs":[{"name":"interfaceId","type":"bytes4","internalType":"bytes4"}],"outputs":[{"name":"","type":"bool","internalType":"bool"}],"stateMutability":"view"},{"type":"function","name":"transferOwnership","inputs":[{"name":"newOwner","type":"address","internalType":"address"}],"outputs":[],"stateMutability":"nonpayable"},{"type":"function","name":"updateVenue","inputs":[{"name":"_venueId","type":"uint256","internalType":"uint256"},{"name":"_name","type":"string","internalType":"string"},{"name":"_bio","type":"string","internalType":"string"},{"name":"_wallet","type":"address","internalType":"address"}],"outputs":[],"stateMutability":"nonpayable"},{"type":"function","name":"upgradeToAndCall","inputs":[{"name":"newImplementation","type":"address","internalType":"address"},{"name":"data","type":"bytes","internalType":"bytes"}],"outputs":[],"stateMutability":"payable"},{"type":"function","name":"uri","inputs":[{"name":"tokenId","type":"uint256","internalType":"uint256"}],"outputs":[{"name":"","type":"string","internalType":"string"}],"stateMutability":"view"},{"type":"event","name":"ApprovalForAll","inputs":[{"name":"account","type":"address","indexed":true,"internalType":"address"},{"name":"operator","type":"address","indexed":true,"internalType":"address"},{"name":"approved","type":"bool","indexed":false,"internalType":"bool"}],"anonymous":false},{"type":"event","name":"Initialized","inputs":[{"name":"version","type":"uint64","indexed":false,"internalType":"uint64"}],"anonymous":false},{"type":"event","name":"OwnershipTransferred","inputs":[{"name":"previousOwner","type":"address","indexed":true,"internalType":"address"},{"name":"newOwner","type":"address","indexed":true,"internalType":"address"}],"anonymous":false},{"type":"event","name":"TransferBatch","inputs":[{"name":"operator","type":"address","indexed":true,"internalType":"address"},{"name":"from","type":"address","indexed":true,"internalType":"address"},{"name":"to","type":"address","indexed":true,"internalType":"address"},{"name":"ids","type":"uint256[]","indexed":false,"internalType":"uint256[]"},{"name":"values","type":"uint256[]","indexed":false,"internalType":"uint256[]"}],"anonymous":false},{"type":"event","name":"TransferSingle","inputs":[{"name":"operator","type":"address","indexed":true,"internalType":"address"},{"name":"from","type":"address","indexed":true,"internalType":"address"},{"name":"to","type":"address","indexed":true,"internalType":"address"},{"name":"id","type":"uint256","indexed":false,"internalType":"uint256"},{"name":"value","type":"uint256","indexed":false,"internalType":"uint256"}],"anonymous":false},{"type":"event","name":"URI","inputs":[{"name":"value","type":"string","indexed":false,"internalType":"string"},{"name":"id","type":"uint256","indexed":true,"internalType":"uint256"}],"anonymous":false},{"type":"event","name":"Upgraded","inputs":[{"name":"implementation","type":"address","indexed":true,"internalType":"address"}],"anonymous":false},{"type":"event","name":"VenueAccepted","inputs":[{"name":"venueId","type":"uint256","indexed":true,"internalType":"uint256"},{"name":"venueAddress","type":"address","indexed":false,"internalType":"address"}],"anonymous":false},{"type":"event","name":"VenueDeregistered","inputs":[{"name":"venueId","type":"uint256","indexed":true,"internalType":"uint256"}],"anonymous":false},{"type":"event","name":"VenueNominated","inputs":[{"name":"nominee","type":"address","indexed":true,"internalType":"address"}],"anonymous":false},{"type":"event","name":"VenueRegistered","inputs":[{"name":"venueId","type":"uint256","indexed":true,"internalType":"uint256"},{"name":"name","type":"string","indexed":false,"internalType":"string"}],"anonymous":false},{"type":"event","name":"VenueUpdated","inputs":[{"name":"venueId","type":"uint256","indexed":true,"internalType":"uint256"},{"name":"name","type":"string","indexed":false,"internalType":"string"},{"name":"bio","type":"string","indexed":false,"internalType":"string"},{"name":"wallet","type":"address","indexed":false,"internalType":"address"}],"anonymous":false},{"type":"error","name":"AddressEmptyCode","inputs":[{"name":"target","type":"address","internalType":"address"}]},{"type":"error","name":"ERC1155InsufficientBalance","inputs":[{"name":"sender","type":"address","internalType":"address"},{"name":"balance","type":"uint256","internalType":"uint256"},{"name":"needed","type":"uint256","internalType":"uint256"},{"name":"tokenId","type":"uint256","internalType":"uint256"}]},{"type":"error","name":"ERC1155InvalidApprover","inputs":[{"name":"approver","type":"address","internalType":"address"}]},{"type":"error","name":"ERC1155InvalidArrayLength","inputs":[{"name":"idsLength","type":"uint256","internalType":"uint256"},{"name":"valuesLength","type":"uint256","internalType":"uint256"}]},{"type":"error","name":"ERC1155InvalidOperator","inputs":[{"name":"operator","type":"address","internalType":"address"}]},{"type":"error","name":"ERC1155InvalidReceiver","inputs":[{"name":"receiver","type":"address","internalType":"address"}]},{"type":"error","name":"ERC1155InvalidSender","inputs":[{"name":"sender","type":"address","internalType":"address"}]},{"type":"error","name":"ERC1155MissingApprovalForAll","inputs":[{"name":"operator","type":"address","internalType":"address"},{"name":"owner","type":"address","internalType":"address"}]},{"type":"error","name":"ERC1967InvalidImplementation","inputs":[{"name":"implementation","type":"address","internalType":"address"}]},{"type":"error","name":"ERC1967NonPayable","inputs":[]},{"type":"error","name":"FailedInnerCall","inputs":[]},{"type":"error","name":"InvalidInitialization","inputs":[]},{"type":"error","name":"NotInitializing","inputs":[]},{"type":"error","name":"OwnableInvalidOwner","inputs":[{"name":"owner","type":"address","internalType":"address"}]},{"type":"error","name":"OwnableUnauthorizedAccount","inputs":[{"name":"account","type":"address","internalType":"address"}]},{"type":"error","name":"UUPSUnauthorizedCallContext","inputs":[]},{"type":"error","name":"UUPSUnsupportedProxiableUUID","inputs":[{"name":"slot","type":"bytes32","internalType":"bytes32"}]}],"bytecode":{"object":"0x60a06040523060805234801561001457600080fd5b5060805161282f61003e600039600081816111d7015281816112000152611341015261282f6000f3fe6080604052600436106101345760003560e01c80636f13e005116100ab578063b332180b1161006f578063b332180b14610382578063b4ec1980146103a2578063c8450ef4146103d2578063e985e9c5146103f2578063f242432a14610412578063f2fde38b1461043257600080fd5b80636f13e005146102cf578063715018a6146102ef5780638da5cb5b14610304578063a22cb46514610331578063ad3cb1cc1461035157600080fd5b80632eb2c2d6116100fd5780632eb2c2d61461020b578063485cc9551461022b5780634e1273f41461024b5780634f1ef2861461027857806352d1902d1461028b5780636befc55c146102a057600080fd5b8062fdd58e1461013957806301ffc9a71461016c5780630e89341c1461019c578063162094c4146101c95780632e63de1c146101eb575b600080fd5b34801561014557600080fd5b50610159610154366004611df7565b610452565b6040519081526020015b60405180910390f35b34801561017857600080fd5b5061018c610187366004611e37565b610489565b6040519015158152602001610163565b3480156101a857600080fd5b506101bc6101b7366004611e54565b6104d9565b6040516101639190611ebd565b3480156101d557600080fd5b506101e96101e4366004611f85565b610597565b005b3480156101f757600080fd5b506101e9610206366004611e54565b610656565b34801561021757600080fd5b506101e9610226366004612059565b610710565b34801561023757600080fd5b506101e9610246366004612102565b610777565b34801561025757600080fd5b5061026b610266366004612135565b6108ca565b6040516101639190612225565b6101e9610286366004612238565b61099e565b34801561029757600080fd5b506101596109bd565b3480156102ac57600080fd5b506102c06102bb36600461226f565b6109da565b6040516101639392919061228a565b3480156102db57600080fd5b506101e96102ea3660046122c8565b610ba8565b3480156102fb57600080fd5b506101e9610c92565b34801561031057600080fd5b50610319610ca6565b6040516001600160a01b039091168152602001610163565b34801561033d57600080fd5b506101e961034c366004612345565b610cd4565b34801561035d57600080fd5b506101bc604051806040016040528060058152602001640352e302e360dc1b81525081565b34801561038e57600080fd5b506101e961039d36600461226f565b610cdf565b3480156103ae57600080fd5b5061018c6103bd36600461226f565b60026020526000908152604090205460ff1681565b3480156103de57600080fd5b506101e96103ed366004612381565b610e74565b3480156103fe57600080fd5b5061018c61040d366004612102565b610f24565b34801561041e57600080fd5b506101e961042d3660046123da565b610f71565b34801561043e57600080fd5b506101e961044d36600461226f565b610fd0565b60008181526000805160206127ad833981519152602090815260408083206001600160a01b03861684529091529020545b92915050565b60006001600160e01b03198216636cdb3d1360e11b14806104ba57506001600160e01b031982166303a24d0760e21b145b8061048357506301ffc9a760e01b6001600160e01b0319831614610483565b6000818152600560205260408120805460609291906104f79061243e565b80601f01602080910402602001604051908101604052809291908181526020018280546105239061243e565b80156105705780601f1061054557610100808354040283529160200191610570565b820191906000526020600020905b81548152906001019060200180831161055357829003601f168201915b505050505090506000815111156105875792915050565b6105908361100e565b9392505050565b61059f610ca6565b6001600160a01b0316336001600160a01b031614806105d757506000828152602081905260409020600201546001600160a01b031633145b6106395760405162461bcd60e51b815260206004820152602860248201527f43616c6c6572206973206e6f7420746865206f776e6572206f7220746865206f6044820152673933b0b734bd32b960c11b60648201526084015b60405180910390fd5b600082815260056020526040902061065182826124be565b505050565b600354811115801561068157506000818152602081905260409020600201546001600160a01b031633145b61069d5760405162461bcd60e51b81526004016106309061257d565b6106a9338260016110d3565b6000818152602081905260408120906106c28282611d8d565b6106d0600183016000611d8d565b5060020180546001600160a01b031916905560405181907fee0cdc4ae3243e3824b2d6e7fdc29bc86356054f8729d89bb1f980e436ebf45690600090a250565b336001600160a01b0386168114801590610731575061072f8682610f24565b155b156107625760405163711bec9160e11b81526001600160a01b03808316600483015287166024820152604401610630565b61076f8686868686611142565b505050505050565b7ff0c57e16840df040f15088dc2f81fe391c3923bec73e23a9662efc9c229c6a008054600160401b810460ff1615906001600160401b03166000811580156107bc5750825b90506000826001600160401b031660011480156107d85750303b155b9050811580156107e6575080155b156108045760405163f92ee8a960e01b815260040160405180910390fd5b845467ffffffffffffffff19166001178555831561082e57845460ff60401b1916600160401b1785555b61084f6040518060600160405280602d81526020016127cd602d91396111a2565b610858876111b3565b6108606111c4565b600480546001600160a01b0319166001600160a01b03881617905583156108c157845460ff60401b19168555604051600181527fc7f505b2f371ae2175ee4913f4499e1f2633a7b5936321eed1cdaeb6115181d29060200160405180910390a15b50505050505050565b606081518351146108fb5781518351604051635b05999160e01b815260048101929092526024820152604401610630565b600083516001600160401b0381111561091657610916611ed0565b60405190808252806020026020018201604052801561093f578160200160208202803683370190505b50905060005b84518110156109965760208082028601015161096990602080840287010151610452565b82828151811061097b5761097b6125bf565b602090810291909101015261098f816125eb565b9050610945565b509392505050565b6109a66111cc565b6109af82611271565b6109b98282611279565b5050565b60006109c7611336565b5060008051602061278d83398151915290565b6001600160a01b0381166000908152600160205260408120546060918291808203610a3e5760405162461bcd60e51b815260206004820152601460248201527315995b9d5948191bd95cc81b9bdd08195e1a5cdd60621b6044820152606401610630565b600081815260208190526040808220815160608101909252805482908290610a659061243e565b80601f0160208091040260200160405190810160405280929190818152602001828054610a919061243e565b8015610ade5780601f10610ab357610100808354040283529160200191610ade565b820191906000526020600020905b815481529060010190602001808311610ac157829003601f168201915b50505050508152602001600182018054610af79061243e565b80601f0160208091040260200160405190810160405280929190818152602001828054610b239061243e565b8015610b705780601f10610b4557610100808354040283529160200191610b70565b820191906000526020600020905b815481529060010190602001808311610b5357829003601f168201915b5050509183525050600291909101546001600160a01b0316602091820152815190820151604090920151909891975095509350505050565b6003548411158015610bd357506000848152602081905260409020600201546001600160a01b031633145b610bef5760405162461bcd60e51b81526004016106309061257d565b6000848152602081905260409020610c0784826124be565b506000848152602081905260409020600101610c2383826124be565b506000848152602081905260409081902060020180546001600160a01b0319166001600160a01b0384161790555184907f990ea479f77f9e5424cc9033b9eea93fcf522e5a526a10d33d43164e5747a99390610c849086908690869061228a565b60405180910390a250505050565b610c9a61137f565b610ca460006113b1565b565b7f9016d09d72d40fdae2fd8ceac6b6234c7706214fd39c1cd1e609a0528c199300546001600160a01b031690565b6109b9338383611422565b60048054604051632615fb8360e21b815233928101929092526000916001600160a01b0390911690639857ee0c90602401606060405180830381865afa158015610d2d573d6000803e3d6000fd5b505050506040513d601f19601f82011682018060405250810190610d519190612604565b90506000816040015111610db35760405162461bcd60e51b815260206004820152602360248201527f496e73756666696369656e742076656e756520726566657272616c206372656460448201526269747360e81b6064820152608401610630565b600480546040516321ceab3d60e01b815233928101929092526000602483018190526044830152600160648301526001600160a01b0316906321ceab3d90608401600060405180830381600087803b158015610e0e57600080fd5b505af1158015610e22573d6000803e3d6000fd5b5050506001600160a01b038316600081815260026020526040808220805460ff19166001179055519192507f179ea4397e946d9cae2283c1107800f5a4cc157ad746eb00b9b310a20b1535e791a25050565b3360009081526002602052604090205460ff16610ec95760405162461bcd60e51b8152602060048201526013602482015272139bc81b9bdb5a5b985d1a5bdb88199bdd5b99606a1b6044820152606401610630565b336000908152600260205260409020805460ff19169055610eea82826114ca565b6003546040513381527f4108d491dd9d5aec1ab384350857e890c9670a0cfc211b075c99d187b8d4cc449060200160405180910390a25050565b6001600160a01b0391821660009081527f88be536d5240c274a3b1d3a1be54482fd9caa294f08c62a7cde569f49a3c45016020908152604080832093909416825291909152205460ff1690565b336001600160a01b0386168114801590610f925750610f908682610f24565b155b15610fc35760405163711bec9160e11b81526001600160a01b03808316600483015287166024820152604401610630565b61076f86868686866115b0565b610fd861137f565b6001600160a01b03811661100257604051631e4fbdf760e01b815260006004820152602401610630565b61100b816113b1565b50565b7f88be536d5240c274a3b1d3a1be54482fd9caa294f08c62a7cde569f49a3c450280546060916000805160206127ad8339815191529161104d9061243e565b80601f01602080910402602001604051908101604052809291908181526020018280546110799061243e565b80156110c65780601f1061109b576101008083540402835291602001916110c6565b820191906000526020600020905b8154815290600101906020018083116110a957829003601f168201915b5050505050915050919050565b6001600160a01b0383166110fc57604051626a0d4560e21b815260006004820152602401610630565b604080516001808252602082018590528183019081526060820184905260a0820190925260006080820181815291929161113b91879185908590611631565b5050505050565b6001600160a01b03841661116c57604051632bfa23e760e11b815260006004820152602401610630565b6001600160a01b03851661119557604051626a0d4560e21b815260006004820152602401610630565b61113b8585858585611631565b6111aa611684565b61100b816116cd565b6111bb611684565b61100b816116de565b610ca4611684565b306001600160a01b037f000000000000000000000000000000000000000000000000000000000000000016148061125357507f00000000000000000000000000000000000000000000000000000000000000006001600160a01b031661124760008051602061278d833981519152546001600160a01b031690565b6001600160a01b031614155b15610ca45760405163703e46dd60e11b815260040160405180910390fd5b61100b61137f565b816001600160a01b03166352d1902d6040518163ffffffff1660e01b8152600401602060405180830381865afa9250505080156112d3575060408051601f3d908101601f191682019092526112d09181019061265f565b60015b6112fb57604051634c9c8ce360e01b81526001600160a01b0383166004820152602401610630565b60008051602061278d833981519152811461132c57604051632a87526960e21b815260048101829052602401610630565b61065183836116e6565b306001600160a01b037f00000000000000000000000000000000000000000000000000000000000000001614610ca45760405163703e46dd60e11b815260040160405180910390fd5b33611388610ca6565b6001600160a01b031614610ca45760405163118cdaa760e01b8152336004820152602401610630565b7f9016d09d72d40fdae2fd8ceac6b6234c7706214fd39c1cd1e609a0528c19930080546001600160a01b031981166001600160a01b03848116918217845560405192169182907f8be0079c531659141344cd1fd0a4f28419497f9722a3daafe3b4186f6b6457e090600090a3505050565b6000805160206127ad8339815191526001600160a01b03831661145a5760405162ced3e160e81b815260006004820152602401610630565b6001600160a01b038481166000818152600184016020908152604080832094881680845294825291829020805460ff191687151590811790915591519182527f17307eab39ab6107e8899845ad3d59bd9653f200f220920489ca2b5937696c31910160405180910390a350505050565b600380549060006114da836125eb565b9091555050600354604080516060810182528481526020808201859052338284018190526000858152918290529290208151819061151890826124be565b506020820151600182019061152d90826124be565b5060409182015160029190910180546001600160a01b0319166001600160a01b0392831617905582166000908152600160208181528383208690558351908101909352908252611580918391859161173c565b817f4a1a8dd345d4634777a7739c3a6f69bce4bef57cb87046f252ae16bca95a762385604051610c849190611ebd565b6001600160a01b0384166115da57604051632bfa23e760e11b815260006004820152602401610630565b6001600160a01b03851661160357604051626a0d4560e21b815260006004820152602401610630565b604080516001808252602082018690528183019081526060820185905260808201909252906108c187878484875b61163d85858585611799565b6001600160a01b0384161561113b5782513390600103611676576020848101519084015161166f8389898585896119c7565b505061076f565b61076f818787878787611aeb565b7ff0c57e16840df040f15088dc2f81fe391c3923bec73e23a9662efc9c229c6a0054600160401b900460ff16610ca457604051631afcd79f60e31b815260040160405180910390fd5b6116d5611684565b61100b81611bd4565b610fd8611684565b6116ef82611c0e565b6040516001600160a01b038316907fbc7cd75a20ee27fd9adebab32041f755214dbc6bffa90cc0225b39da2e5c2d3b90600090a2805115611734576106518282611c73565b6109b9611ce9565b6001600160a01b03841661176657604051632bfa23e760e11b815260006004820152602401610630565b6040805160018082526020820186905281830190815260608201859052608082019092529061076f600087848487611631565b805182516000805160206127ad83398151915291146117d85782518251604051635b05999160e01b815260048101929092526024820152604401610630565b3360005b84518110156118e7576020818102868101820151908601909101516001600160a01b0389161561188f576000828152602086815260408083206001600160a01b038d16845290915290205481811015611868576040516303dee4c560e01b81526001600160a01b038b166004820152602481018290526044810183905260648101849052608401610630565b6000838152602087815260408083206001600160a01b038e16845290915290209082900390555b6001600160a01b038816156118d4576000828152602086815260408083206001600160a01b038c168452909152812080548392906118ce908490612678565b90915550505b5050806118e0906125eb565b90506117dc565b5083516001036119685760208401516000906020850151909150866001600160a01b0316886001600160a01b0316846001600160a01b03167fc3d58168c5ae7397731d063d5bbf3d657854427343f4c083240f7aacaa2d0f628585604051611959929190918252602082015260400190565b60405180910390a4505061076f565b846001600160a01b0316866001600160a01b0316826001600160a01b03167f4a39dc06d4c0dbc64b70af90fd698a233a518aa5d07e595d983b8c0526c8f7fb87876040516119b792919061268b565b60405180910390a4505050505050565b6001600160a01b0384163b1561076f5760405163f23a6e6160e01b81526001600160a01b0385169063f23a6e6190611a0b90899089908890889088906004016126b0565b6020604051808303816000875af1925050508015611a46575060408051601f3d908101601f19168201909252611a43918101906126f5565b60015b611aaf573d808015611a74576040519150601f19603f3d011682016040523d82523d6000602084013e611a79565b606091505b508051600003611aa757604051632bfa23e760e11b81526001600160a01b0386166004820152602401610630565b805181602001fd5b6001600160e01b0319811663f23a6e6160e01b146108c157604051632bfa23e760e11b81526001600160a01b0386166004820152602401610630565b6001600160a01b0384163b1561076f5760405163bc197c8160e01b81526001600160a01b0385169063bc197c8190611b2f9089908990889088908890600401612712565b6020604051808303816000875af1925050508015611b6a575060408051601f3d908101601f19168201909252611b67918101906126f5565b60015b611b98573d808015611a74576040519150601f19603f3d011682016040523d82523d6000602084013e611a79565b6001600160e01b0319811663bc197c8160e01b146108c157604051632bfa23e760e11b81526001600160a01b0386166004820152602401610630565b6000805160206127ad8339815191527f88be536d5240c274a3b1d3a1be54482fd9caa294f08c62a7cde569f49a3c450261065183826124be565b806001600160a01b03163b600003611c4457604051634c9c8ce360e01b81526001600160a01b0382166004820152602401610630565b60008051602061278d83398151915280546001600160a01b0319166001600160a01b0392909216919091179055565b6060600080846001600160a01b031684604051611c909190612770565b600060405180830381855af49150503d8060008114611ccb576040519150601f19603f3d011682016040523d82523d6000602084013e611cd0565b606091505b5091509150611ce0858383611d08565b95945050505050565b3415610ca45760405163b398979f60e01b815260040160405180910390fd5b606082611d1d57611d1882611d64565b610590565b8151158015611d3457506001600160a01b0384163b155b15611d5d57604051639996b31560e01b81526001600160a01b0385166004820152602401610630565b5092915050565b805115611d745780518082602001fd5b604051630a12f52160e11b815260040160405180910390fd5b508054611d999061243e565b6000825580601f10611da9575050565b601f01602090049060005260206000209081019061100b91905b80821115611dd75760008155600101611dc3565b5090565b80356001600160a01b0381168114611df257600080fd5b919050565b60008060408385031215611e0a57600080fd5b611e1383611ddb565b946020939093013593505050565b6001600160e01b03198116811461100b57600080fd5b600060208284031215611e4957600080fd5b813561059081611e21565b600060208284031215611e6657600080fd5b5035919050565b60005b83811015611e88578181015183820152602001611e70565b50506000910152565b60008151808452611ea9816020860160208601611e6d565b601f01601f19169290920160200192915050565b6020815260006105906020830184611e91565b634e487b7160e01b600052604160045260246000fd5b604051601f8201601f191681016001600160401b0381118282101715611f0e57611f0e611ed0565b604052919050565b600082601f830112611f2757600080fd5b81356001600160401b03811115611f4057611f40611ed0565b611f53601f8201601f1916602001611ee6565b818152846020838601011115611f6857600080fd5b816020850160208301376000918101602001919091529392505050565b60008060408385031215611f9857600080fd5b8235915060208301356001600160401b03811115611fb557600080fd5b611fc185828601611f16565b9150509250929050565b60006001600160401b03821115611fe457611fe4611ed0565b5060051b60200190565b600082601f830112611fff57600080fd5b8135602061201461200f83611fcb565b611ee6565b82815260059290921b8401810191818101908684111561203357600080fd5b8286015b8481101561204e5780358352918301918301612037565b509695505050505050565b600080600080600060a0868803121561207157600080fd5b61207a86611ddb565b945061208860208701611ddb565b935060408601356001600160401b03808211156120a457600080fd5b6120b089838a01611fee565b945060608801359150808211156120c657600080fd5b6120d289838a01611fee565b935060808801359150808211156120e857600080fd5b506120f588828901611f16565b9150509295509295909350565b6000806040838503121561211557600080fd5b61211e83611ddb565b915061212c60208401611ddb565b90509250929050565b6000806040838503121561214857600080fd5b82356001600160401b038082111561215f57600080fd5b818501915085601f83011261217357600080fd5b8135602061218361200f83611fcb565b82815260059290921b840181019181810190898411156121a257600080fd5b948201945b838610156121c7576121b886611ddb565b825294820194908201906121a7565b965050860135925050808211156121dd57600080fd5b50611fc185828601611fee565b600081518084526020808501945080840160005b8381101561221a578151875295820195908201906001016121fe565b509495945050505050565b60208152600061059060208301846121ea565b6000806040838503121561224b57600080fd5b61225483611ddb565b915060208301356001600160401b03811115611fb557600080fd5b60006020828403121561228157600080fd5b61059082611ddb565b60608152600061229d6060830186611e91565b82810360208401526122af8186611e91565b91505060018060a01b0383166040830152949350505050565b600080600080608085870312156122de57600080fd5b8435935060208501356001600160401b03808211156122fc57600080fd5b61230888838901611f16565b9450604087013591508082111561231e57600080fd5b5061232b87828801611f16565b92505061233a60608601611ddb565b905092959194509250565b6000806040838503121561235857600080fd5b61236183611ddb565b91506020830135801515811461237657600080fd5b809150509250929050565b6000806040838503121561239457600080fd5b82356001600160401b03808211156123ab57600080fd5b6123b786838701611f16565b935060208501359150808211156123cd57600080fd5b50611fc185828601611f16565b600080600080600060a086880312156123f257600080fd5b6123fb86611ddb565b945061240960208701611ddb565b9350604086013592506060860135915060808601356001600160401b0381111561243257600080fd5b6120f588828901611f16565b600181811c9082168061245257607f821691505b60208210810361247257634e487b7160e01b600052602260045260246000fd5b50919050565b601f82111561065157600081815260208120601f850160051c8101602086101561249f5750805b601f850160051c820191505b8181101561076f578281556001016124ab565b81516001600160401b038111156124d7576124d7611ed0565b6124eb816124e5845461243e565b84612478565b602080601f83116001811461252057600084156125085750858301515b600019600386901b1c1916600185901b17855561076f565b600085815260208120601f198616915b8281101561254f57888601518255948401946001909101908401612530565b508582101561256d5787850151600019600388901b60f8161c191681555b5050505050600190811b01905550565b60208082526022908201527f556e617574686f72697a6564206f72206e6f6e2d6578697374656e742076656e604082015261756560f01b606082015260800190565b634e487b7160e01b600052603260045260246000fd5b634e487b7160e01b600052601160045260246000fd5b6000600182016125fd576125fd6125d5565b5060010190565b60006060828403121561261657600080fd5b604051606081018181106001600160401b038211171561263857612638611ed0565b80604052508251815260208301516020820152604083015160408201528091505092915050565b60006020828403121561267157600080fd5b5051919050565b80820180821115610483576104836125d5565b60408152600061269e60408301856121ea565b8281036020840152611ce081856121ea565b6001600160a01b03868116825285166020820152604081018490526060810183905260a0608082018190526000906126ea90830184611e91565b979650505050505050565b60006020828403121561270757600080fd5b815161059081611e21565b6001600160a01b0386811682528516602082015260a06040820181905260009061273e908301866121ea565b828103606084015261275081866121ea565b905082810360808401526127648185611e91565b98975050505050505050565b60008251612782818460208701611e6d565b919091019291505056fe360894a13ba1a3210667c828492db98dca3e2076cc3735a920a3ca505d382bbc88be536d5240c274a3b1d3a1be54482fd9caa294f08c62a7cde569f49a3c450068747470733a2f2f6d657461646174612e73656c6c6f7574732e6170702f76656e75652f7b69647d2e6a736f6ea2646970667358221220aba96f27ca87b52461dc9a7abc103d4cc214243844a9294faf926c4bb1b41c8d64736f6c63430008140033","linkReferences":{}},"methodIdentifiers":{"UPGRADE_INTERFACE_VERSION()":"ad3cb1cc","acceptNomination(string,string)":"c8450ef4","balanceOf(address,uint256)":"00fdd58e","balanceOfBatch(address[],uint256[])":"4e1273f4","deregisterVenue(uint256)":"2e63de1c","getVenue(address)":"6befc55c","initialize(address,address)":"485cc955","isApprovedForAll(address,address)":"e985e9c5","nominate(address)":"b332180b","nominatedVenues(address)":"b4ec1980","owner()":"8da5cb5b","proxiableUUID()":"52d1902d","renounceOwnership()":"715018a6","safeBatchTransferFrom(address,address,uint256[],uint256[],bytes)":"2eb2c2d6","safeTransferFrom(address,address,uint256,uint256,bytes)":"f242432a","setApprovalForAll(address,bool)":"a22cb465","setTokenURI(uint256,string)":"162094c4","supportsInterface(bytes4)":"01ffc9a7","transferOwnership(address)":"f2fde38b","updateVenue(uint256,string,string,address)":"6f13e005","upgradeToAndCall(address,bytes)":"4f1ef286","uri(uint256)":"0e89341c"},"id":75}