{"abi":[{"type":"function","name":"UPGRADE_INTERFACE_VERSION","inputs":[],"outputs":[{"name":"","type":"string","internalType":"string"}],"stateMutability":"view"},{"type":"function","name":"dateVotes","inputs":[{"name":"","type":"bytes32","internalType":"bytes32"},{"name":"","type":"uint256","internalType":"uint256"}],"outputs":[{"name":"","type":"uint256","internalType":"uint256"}],"stateMutability":"view"},{"type":"function","name":"getDateVotes","inputs":[{"name":"showId","type":"bytes32","internalType":"bytes32"},{"name":"date","type":"uint256","internalType":"uint256"}],"outputs":[{"name":"","type":"uint256","internalType":"uint256"}],"stateMutability":"view"},{"type":"function","name":"getHasDateVoted","inputs":[{"name":"showId","type":"bytes32","internalType":"bytes32"},{"name":"user","type":"address","internalType":"address"}],"outputs":[{"name":"","type":"bool","internalType":"bool"}],"stateMutability":"view"},{"type":"function","name":"getHasTicketOwnerVoted","inputs":[{"name":"showId","type":"bytes32","internalType":"bytes32"},{"name":"user","type":"address","internalType":"address"}],"outputs":[{"name":"","type":"bool","internalType":"bool"}],"stateMutability":"view"},{"type":"function","name":"getHasVoted","inputs":[{"name":"showId","type":"bytes32","internalType":"bytes32"},{"name":"user","type":"address","internalType":"address"}],"outputs":[{"name":"","type":"bool","internalType":"bool"}],"stateMutability":"view"},{"type":"function","name":"getPreviousDateVote","inputs":[{"name":"showId","type":"bytes32","internalType":"bytes32"},{"name":"user","type":"address","internalType":"address"}],"outputs":[{"name":"","type":"uint256","internalType":"uint256"}],"stateMutability":"view"},{"type":"function","name":"getPreviousVote","inputs":[{"name":"showId","type":"bytes32","internalType":"bytes32"},{"name":"user","type":"address","internalType":"address"}],"outputs":[{"name":"","type":"uint256","internalType":"uint256"}],"stateMutability":"view"},{"type":"function","name":"getProposalPeriod","inputs":[{"name":"showId","type":"bytes32","internalType":"bytes32"}],"outputs":[{"name":"","type":"tuple","internalType":"struct VenueTypes.ProposalPeriod","components":[{"name":"endTime","type":"uint256","internalType":"uint256"},{"name":"isPeriodActive","type":"bool","internalType":"bool"}]}],"stateMutability":"view"},{"type":"function","name":"getRefunds","inputs":[{"name":"user","type":"address","internalType":"address"}],"outputs":[{"name":"","type":"uint256","internalType":"uint256"}],"stateMutability":"view"},{"type":"function","name":"getSelectedDate","inputs":[{"name":"showId","type":"bytes32","internalType":"bytes32"}],"outputs":[{"name":"","type":"uint256","internalType":"uint256"}],"stateMutability":"view"},{"type":"function","name":"getSelectedProposalIndex","inputs":[{"name":"showId","type":"bytes32","internalType":"bytes32"}],"outputs":[{"name":"","type":"uint256","internalType":"uint256"}],"stateMutability":"view"},{"type":"function","name":"getShowProposals","inputs":[{"name":"showId","type":"bytes32","internalType":"bytes32"}],"outputs":[{"name":"","type":"tuple[]","internalType":"struct VenueTypes.Proposal[]","components":[{"name":"venue","type":"tuple","internalType":"struct VenueTypes.Venue","components":[{"name":"name","type":"string","internalType":"string"},{"name":"coordinates","type":"tuple","internalType":"struct VenueTypes.Coordinates","components":[{"name":"lat","type":"int256","internalType":"int256"},{"name":"lon","type":"int256","internalType":"int256"}]},{"name":"totalCapacity","type":"uint256","internalType":"uint256"},{"name":"wallet","type":"address","internalType":"address"},{"name":"venueId","type":"bytes32","internalType":"bytes32"}]},{"name":"proposedDates","type":"uint256[]","internalType":"uint256[]"},{"name":"proposer","type":"address","internalType":"address"},{"name":"bribe","type":"uint256","internalType":"uint256"},{"name":"votes","type":"uint256","internalType":"uint256"},{"name":"accepted","type":"bool","internalType":"bool"}]}],"stateMutability":"view"},{"type":"function","name":"getVotingPeriods","inputs":[{"name":"showId","type":"bytes32","internalType":"bytes32"}],"outputs":[{"name":"","type":"tuple","internalType":"struct VenueTypes.VotingPeriod","components":[{"name":"endTime","type":"uint256","internalType":"uint256"},{"name":"isPeriodActive","type":"bool","internalType":"bool"}]}],"stateMutability":"view"},{"type":"function","name":"hasDateVoted","inputs":[{"name":"","type":"bytes32","internalType":"bytes32"},{"name":"","type":"address","internalType":"address"}],"outputs":[{"name":"","type":"bool","internalType":"bool"}],"stateMutability":"view"},{"type":"function","name":"hasTicketOwnerVoted","inputs":[{"name":"","type":"bytes32","internalType":"bytes32"},{"name":"","type":"address","internalType":"address"}],"outputs":[{"name":"","type":"bool","internalType":"bool"}],"stateMutability":"view"},{"type":"function","name":"hasVoted","inputs":[{"name":"","type":"bytes32","internalType":"bytes32"},{"name":"","type":"address","internalType":"address"}],"outputs":[{"name":"","type":"bool","internalType":"bool"}],"stateMutability":"view"},{"type":"function","name":"initialize","inputs":[{"name":"initialOwner","type":"address","internalType":"address"},{"name":"_showBaseContractAddress","type":"address","internalType":"address"},{"name":"_ticketBaseContractAddress","type":"address","internalType":"address"}],"outputs":[],"stateMutability":"nonpayable"},{"type":"function","name":"owner","inputs":[],"outputs":[{"name":"","type":"address","internalType":"address"}],"stateMutability":"view"},{"type":"function","name":"previousDateVote","inputs":[{"name":"","type":"bytes32","internalType":"bytes32"},{"name":"","type":"address","internalType":"address"}],"outputs":[{"name":"","type":"uint256","internalType":"uint256"}],"stateMutability":"view"},{"type":"function","name":"previousVote","inputs":[{"name":"","type":"bytes32","internalType":"bytes32"},{"name":"","type":"address","internalType":"address"}],"outputs":[{"name":"","type":"uint256","internalType":"uint256"}],"stateMutability":"view"},{"type":"function","name":"proposalPeriod","inputs":[{"name":"","type":"bytes32","internalType":"bytes32"}],"outputs":[{"name":"endTime","type":"uint256","internalType":"uint256"},{"name":"isPeriodActive","type":"bool","internalType":"bool"}],"stateMutability":"view"},{"type":"function","name":"proxiableUUID","inputs":[],"outputs":[{"name":"","type":"bytes32","internalType":"bytes32"}],"stateMutability":"view"},{"type":"function","name":"refunds","inputs":[{"name":"","type":"address","internalType":"address"}],"outputs":[{"name":"","type":"uint256","internalType":"uint256"}],"stateMutability":"view"},{"type":"function","name":"renounceOwnership","inputs":[],"outputs":[],"stateMutability":"nonpayable"},{"type":"function","name":"selectedDate","inputs":[{"name":"","type":"bytes32","internalType":"bytes32"}],"outputs":[{"name":"","type":"uint256","internalType":"uint256"}],"stateMutability":"view"},{"type":"function","name":"selectedProposalIndex","inputs":[{"name":"","type":"bytes32","internalType":"bytes32"}],"outputs":[{"name":"","type":"uint256","internalType":"uint256"}],"stateMutability":"view"},{"type":"function","name":"showInstance","inputs":[],"outputs":[{"name":"","type":"address","internalType":"contract IShow"}],"stateMutability":"view"},{"type":"function","name":"showProposals","inputs":[{"name":"","type":"bytes32","internalType":"bytes32"},{"name":"","type":"uint256","internalType":"uint256"}],"outputs":[{"name":"venue","type":"tuple","internalType":"struct VenueTypes.Venue","components":[{"name":"name","type":"string","internalType":"string"},{"name":"coordinates","type":"tuple","internalType":"struct VenueTypes.Coordinates","components":[{"name":"lat","type":"int256","internalType":"int256"},{"name":"lon","type":"int256","internalType":"int256"}]},{"name":"totalCapacity","type":"uint256","internalType":"uint256"},{"name":"wallet","type":"address","internalType":"address"},{"name":"venueId","type":"bytes32","internalType":"bytes32"}]},{"name":"proposer","type":"address","internalType":"address"},{"name":"bribe","type":"uint256","internalType":"uint256"},{"name":"votes","type":"uint256","internalType":"uint256"},{"name":"accepted","type":"bool","internalType":"bool"}],"stateMutability":"view"},{"type":"function","name":"submitProposal","inputs":[{"name":"showId","type":"bytes32","internalType":"bytes32"},{"name":"venueName","type":"string","internalType":"string"},{"name":"coordinates","type":"tuple","internalType":"struct VenueTypes.Coordinates","components":[{"name":"lat","type":"int256","internalType":"int256"},{"name":"lon","type":"int256","internalType":"int256"}]},{"name":"totalCapacity","type":"uint256","internalType":"uint256"},{"name":"proposedDates","type":"uint256[]","internalType":"uint256[]"}],"outputs":[],"stateMutability":"payable"},{"type":"function","name":"ticketHolderVenueVote","inputs":[{"name":"showId","type":"bytes32","internalType":"bytes32"},{"name":"proposalIndex","type":"uint256","internalType":"uint256"}],"outputs":[],"stateMutability":"nonpayable"},{"type":"function","name":"ticketInstance","inputs":[],"outputs":[{"name":"","type":"address","internalType":"contract ITicket"}],"stateMutability":"view"},{"type":"function","name":"transferOwnership","inputs":[{"name":"newOwner","type":"address","internalType":"address"}],"outputs":[],"stateMutability":"nonpayable"},{"type":"function","name":"upgradeToAndCall","inputs":[{"name":"newImplementation","type":"address","internalType":"address"},{"name":"data","type":"bytes","internalType":"bytes"}],"outputs":[],"stateMutability":"payable"},{"type":"function","name":"vote","inputs":[{"name":"showId","type":"bytes32","internalType":"bytes32"},{"name":"proposalIndex","type":"uint256","internalType":"uint256"}],"outputs":[],"stateMutability":"nonpayable"},{"type":"function","name":"voteForDate","inputs":[{"name":"showId","type":"bytes32","internalType":"bytes32"},{"name":"dateIndex","type":"uint256","internalType":"uint256"}],"outputs":[],"stateMutability":"nonpayable"},{"type":"function","name":"votingPeriods","inputs":[{"name":"","type":"bytes32","internalType":"bytes32"}],"outputs":[{"name":"endTime","type":"uint256","internalType":"uint256"},{"name":"isPeriodActive","type":"bool","internalType":"bool"}],"stateMutability":"view"},{"type":"event","name":"DateAccepted","inputs":[{"name":"showId","type":"bytes32","indexed":true,"internalType":"bytes32"},{"name":"dateIndex","type":"uint256","indexed":false,"internalType":"uint256"}],"anonymous":false},{"type":"event","name":"DateVoted","inputs":[{"name":"showId","type":"bytes32","indexed":true,"internalType":"bytes32"},{"name":"voter","type":"address","indexed":true,"internalType":"address"},{"name":"dateIndex","type":"uint256","indexed":false,"internalType":"uint256"}],"anonymous":false},{"type":"event","name":"Initialized","inputs":[{"name":"version","type":"uint64","indexed":false,"internalType":"uint64"}],"anonymous":false},{"type":"event","name":"OwnershipTransferred","inputs":[{"name":"previousOwner","type":"address","indexed":true,"internalType":"address"},{"name":"newOwner","type":"address","indexed":true,"internalType":"address"}],"anonymous":false},{"type":"event","name":"ProposalAccepted","inputs":[{"name":"showId","type":"bytes32","indexed":true,"internalType":"bytes32"},{"name":"proposalIndex","type":"uint256","indexed":false,"internalType":"uint256"}],"anonymous":false},{"type":"event","name":"ProposalPeriodStarted","inputs":[{"name":"showId","type":"bytes32","indexed":true,"internalType":"bytes32"},{"name":"endTime","type":"uint256","indexed":false,"internalType":"uint256"}],"anonymous":false},{"type":"event","name":"ProposalSubmitted","inputs":[{"name":"showId","type":"bytes32","indexed":true,"internalType":"bytes32"},{"name":"proposer","type":"address","indexed":true,"internalType":"address"},{"name":"venueName","type":"string","indexed":false,"internalType":"string"}],"anonymous":false},{"type":"event","name":"ProposalVoted","inputs":[{"name":"showId","type":"bytes32","indexed":true,"internalType":"bytes32"},{"name":"voter","type":"address","indexed":true,"internalType":"address"},{"name":"proposalIndex","type":"uint256","indexed":false,"internalType":"uint256"}],"anonymous":false},{"type":"event","name":"PublicVotingPeriodStarted","inputs":[{"name":"showId","type":"bytes32","indexed":true,"internalType":"bytes32"},{"name":"endTime","type":"uint256","indexed":false,"internalType":"uint256"}],"anonymous":false},{"type":"event","name":"Upgraded","inputs":[{"name":"implementation","type":"address","indexed":true,"internalType":"address"}],"anonymous":false},{"type":"event","name":"VenueVoted","inputs":[{"name":"showId","type":"bytes32","indexed":true,"internalType":"bytes32"},{"name":"voter","type":"address","indexed":true,"internalType":"address"},{"name":"proposalIndex","type":"uint256","indexed":false,"internalType":"uint256"}],"anonymous":false},{"type":"error","name":"AddressEmptyCode","inputs":[{"name":"target","type":"address","internalType":"address"}]},{"type":"error","name":"ERC1967InvalidImplementation","inputs":[{"name":"implementation","type":"address","internalType":"address"}]},{"type":"error","name":"ERC1967NonPayable","inputs":[]},{"type":"error","name":"FailedInnerCall","inputs":[]},{"type":"error","name":"InvalidInitialization","inputs":[]},{"type":"error","name":"NotInitializing","inputs":[]},{"type":"error","name":"OwnableInvalidOwner","inputs":[{"name":"owner","type":"address","internalType":"address"}]},{"type":"error","name":"OwnableUnauthorizedAccount","inputs":[{"name":"account","type":"address","internalType":"address"}]},{"type":"error","name":"UUPSUnauthorizedCallContext","inputs":[]},{"type":"error","name":"UUPSUnsupportedProxiableUUID","inputs":[{"name":"slot","type":"bytes32","internalType":"bytes32"}]}],"bytecode":{"object":"0x60a06040523060805234801561001457600080fd5b50608051612d7361003e60003960008181611de901528181611e120152611f580152612d736000f3fe60806040526004361061021a5760003560e01c80639ef1204c11610123578063d360fb5f116100ab578063ee6b8b2e1161006f578063ee6b8b2e14610883578063eef28136146108a3578063f2fde38b14610901578063f51bba8514610921578063f60eab041461095c57600080fd5b8063d360fb5f146107b1578063d865ae3c146107e9578063dda9b13c14610816578063e0174d7814610829578063e9801fcb1461085657600080fd5b8063ad3cb1cc116100f2578063ad3cb1cc146106a3578063b328da12146106e1578063bc3da5351461072d578063c0c53b8b1461075a578063c15f6bd71461077a57600080fd5b80639ef1204c146105d5578063a16026f4146105f5578063aadc3b7214610630578063ab07426f1461066b57600080fd5b80634f1ef286116101a657806381cf3ab81161017557806381cf3ab8146104cc57806384f3e62c146104ec5780638da5cb5b14610524578063940fed2014610561578063960c8b45146105a457600080fd5b80634f1ef2861461046057806352d1902d14610475578063665823711461048a578063715018a6146104b757600080fd5b806325d4e7e8116101ed57806325d4e7e814610308578063398ac6c31461034e578063404f49d11461039457806347cc6095146103b45780634de89286146103f757600080fd5b80630233ce6a1461021f57806303c22ec41461025c578063043c97fa146102a057806321e2c8cf146102d8575b600080fd5b34801561022b57600080fd5b50600d5461023f906001600160a01b031681565b6040516001600160a01b0390911681526020015b60405180910390f35b34801561026857600080fd5b50610292610277366004612569565b6001600160a01b03166000908152600b602052604090205490565b604051908152602001610253565b3480156102ac57600080fd5b506102926102bb366004612584565b600760209081526000928352604080842090915290825290205481565b3480156102e457600080fd5b506102f86102f3366004612584565b610989565b6040519015158152602001610253565b34801561031457600080fd5b506102f8610323366004612584565b60009182526004602090815260408084206001600160a01b0393909316845291905290205460ff1690565b34801561035a57600080fd5b506102f8610369366004612584565b60009182526002602090815260408084206001600160a01b0393909316845291905290205460ff1690565b3480156103a057600080fd5b50600c5461023f906001600160a01b031681565b3480156103c057600080fd5b506102926103cf366004612584565b60009182526005602090815260408084206001600160a01b0393909316845291905290205490565b34801561040357600080fd5b506104536104123660046125b0565b604080518082019091526000808252602082015250600090815260208181526040918290208251808401909352805483526001015460ff1615159082015290565b60405161025391906125c9565b61047361046e3660046126aa565b6109b6565b005b34801561048157600080fd5b506102926109d5565b34801561049657600080fd5b506102926104a53660046125b0565b600a6020526000908152604090205481565b3480156104c357600080fd5b506104736109f2565b3480156104d857600080fd5b506104736104e736600461270c565b610a06565b3480156104f857600080fd5b5061029261050736600461270c565b600091825260066020908152604080842092845291905290205490565b34801561053057600080fd5b507f9016d09d72d40fdae2fd8ceac6b6234c7706214fd39c1cd1e609a0528c199300546001600160a01b031661023f565b34801561056d57600080fd5b5061029261057c366004612584565b60009182526007602090815260408084206001600160a01b0393909316845291905290205490565b3480156105b057600080fd5b506105c46105bf36600461270c565b610da6565b6040516102539594939291906127dc565b3480156105e157600080fd5b506104736105f036600461270c565b610ee4565b34801561060157600080fd5b506102f8610610366004612584565b600860209081526000928352604080842090915290825290205460ff1681565b34801561063c57600080fd5b506102f861064b366004612584565b600260209081526000928352604080842090915290825290205460ff1681565b34801561067757600080fd5b50610292610686366004612584565b600560209081526000928352604080842090915290825290205481565b3480156106af57600080fd5b506106d4604051806040016040528060058152602001640352e302e360dc1b81525081565b604051610253919061281e565b3480156106ed57600080fd5b506107186106fc3660046125b0565b6000602081905290815260409020805460019091015460ff1682565b60408051928352901515602083015201610253565b34801561073957600080fd5b50610292610748366004612569565b600b6020526000908152604090205481565b34801561076657600080fd5b50610473610775366004612831565b611296565b34801561078657600080fd5b506107186107953660046125b0565b6003602052600090815260409020805460019091015460ff1682565b3480156107bd57600080fd5b506102926107cc36600461270c565b600660209081526000928352604080842090915290825290205481565b3480156107f557600080fd5b506102926108043660046125b0565b60096020526000908152604090205481565b6104736108243660046128f4565b6113e0565b34801561083557600080fd5b506102926108443660046125b0565b60009081526009602052604090205490565b34801561086257600080fd5b506108766108713660046125b0565b611968565b60405161025391906129b4565b34801561088f57600080fd5b5061047361089e36600461270c565b611b56565b3480156108af57600080fd5b506104536108be3660046125b0565b6040805180820190915260008082526020820152506000908152600360209081526040918290208251808401909352805483526001015460ff1615159082015290565b34801561090d57600080fd5b5061047361091c366004612569565b611da0565b34801561092d57600080fd5b506102f861093c366004612584565b600460209081526000928352604080842090915290825290205460ff1681565b34801561096857600080fd5b506102926109773660046125b0565b6000908152600a602052604090205490565b60008281526008602090815260408083206001600160a01b038516845290915290205460ff165b92915050565b6109be611dde565b6109c782611e83565b6109d18282611e8b565b5050565b60006109df611f4d565b50600080516020612d1e83398151915290565b6109fa611f96565b610a046000611ff1565b565b600c54604051632769b96d60e11b81523360048201526024810184905283916001600160a01b031690634ed372da90604401602060405180830381865afa158015610a55573d6000803e3d6000fd5b505050506040513d601f19601f82011682018060405250810190610a799190612a96565b80610af25750600c546040516302c9a8b560e01b8152336004820152602481018390526001600160a01b03909116906302c9a8b590604401602060405180830381865afa158015610ace573d6000803e3d6000fd5b505050506040513d601f19601f82011682018060405250810190610af29190612a96565b610b345760405162461bcd60e51b815260206004820152600e60248201526d139bdd08185d5d1a1bdc9a5e995960921b60448201526064015b60405180910390fd5b6000838152600160209081526040808320600a9092529091205481548110610b5e57610b5e612ab8565b90600052602060002090600b0201600601805490508210610bb65760405162461bcd60e51b8152602060048201526012602482015271092dcecc2d8d2c840c8c2e8ca40d2dcc8caf60731b6044820152606401610b2b565b6000838152600760209081526040808320338452909152902054828103610c1f5760405162461bcd60e51b815260206004820152601b60248201527f416c726561647920766f74656420666f722074686973206461746500000000006044820152606401610b2b565b600084815260086020908152604080832033845290915290205460ff1615610c6c5760008481526006602090815260408083208484529091528120805491610c6683612ae4565b91905055505b60008481526006602090815260408083208684529091528120805491610c9183612afb565b9091555050600084815260086020908152604080832033808552908352818420805460ff19166001179055878452600783528184208185528352928190208690555185815286917f9be4e7a28923fc7c16e20aa07e4d848cd6b3c9a28c315d27b3c51718cfd6ef59910160405180910390a3600c5460405163217fe85b60e21b8152600481018690526000916001600160a01b0316906385ffa16c90602401602060405180830381865afa158015610d4d573d6000803e3d6000fd5b505050506040513d601f19601f82011682018060405250810190610d719190612b14565b6000868152600660209081526040808320888452909152902054909150819003610d9f57610d9f8585612062565b5050505050565b60016020528160005260406000208181548110610dc257600080fd5b90600052602060002090600b020160009150915050806000016040518060a0016040529081600082018054610df690612b2d565b80601f0160208091040260200160405190810160405280929190818152602001828054610e2290612b2d565b8015610e6f5780601f10610e4457610100808354040283529160200191610e6f565b820191906000526020600020905b815481529060010190602001808311610e5257829003601f168201915b505050918352505060408051808201825260018401548152600284015460208281019190915283015260038301549082015260048201546001600160a01b039081166060830152600590920154608090910152600783015460088401546009850154600a909501549394919092169260ff1685565b600c54604051632769b96d60e11b81523360048201526024810184905283916001600160a01b031690634ed372da90604401602060405180830381865afa158015610f33573d6000803e3d6000fd5b505050506040513d601f19601f82011682018060405250810190610f579190612a96565b80610fd05750600c546040516302c9a8b560e01b8152336004820152602481018390526001600160a01b03909116906302c9a8b590604401602060405180830381865afa158015610fac573d6000803e3d6000fd5b505050506040513d601f19601f82011682018060405250810190610fd09190612a96565b61100d5760405162461bcd60e51b815260206004820152600e60248201526d139bdd08185d5d1a1bdc9a5e995960921b6044820152606401610b2b565b60008381526001602052604090205482106110635760405162461bcd60e51b8152602060048201526016602482015275092dcecc2d8d2c840e0e4dee0dee6c2d840d2dcc8caf60531b6044820152606401610b2b565b60008381526005602090815260408083203384529091529020548281036110cc5760405162461bcd60e51b815260206004820152601c60248201527f416c726561647920766f74656420666f7220746869732076656e7565000000006044820152606401610b2b565b600084815260026020908152604080832033845290915290205460ff161561113257600084815260016020526040902080548290811061110e5761110e612ab8565b6000918252602082206009600b909202010180549161112c83612ae4565b91905055505b600084815260016020526040902080548490811061115257611152612ab8565b6000918252602082206009600b909202010180549161117083612afb565b9091555050600084815260026020908152604080832033808552908352818420805460ff19166001179055878452600583528184208185528352928190208690555185815286917f09e638baf0aa9cdb2a3233767bf1f976e138af255c4da751ab01215f4c96f2b0910160405180910390a3600c5460405163217fe85b60e21b8152600481018690526000916001600160a01b0316906385ffa16c90602401602060405180830381865afa15801561122c573d6000803e3d6000fd5b505050506040513d601f19601f820116820180604052508101906112509190612b14565b6000868152600160205260409020805491925082918690811061127557611275612ab8565b90600052602060002090600b02016009015403610d9f57610d9f85856120b3565b7ff0c57e16840df040f15088dc2f81fe391c3923bec73e23a9662efc9c229c6a008054600160401b810460ff16159067ffffffffffffffff166000811580156112dc5750825b905060008267ffffffffffffffff1660011480156112f95750303b155b905081158015611307575080155b156113255760405163f92ee8a960e01b815260040160405180910390fd5b845467ffffffffffffffff19166001178555831561134f57845460ff60401b1916600160401b1785555b61135888612139565b61136061214a565b600c80546001600160a01b03808a166001600160a01b031992831617909255600d80549289169290911691909117905583156113d657845460ff60401b19168555604051600181527fc7f505b2f371ae2175ee4913f4499e1f2633a7b5936321eed1cdaeb6115181d29060200160405180910390a15b5050505050505050565b600c546040516346c2c8a760e01b8152600481018790526001916001600160a01b0316906346c2c8a790602401602060405180830381865afa15801561142a573d6000803e3d6000fd5b505050506040513d601f19601f8201168201806040525081019061144e9190612b7d565b600781111561145f5761145f612b67565b146114a35760405162461bcd60e51b815260206004820152601460248201527314da1bddc81b5d5cdd0818994814dbdb1913dd5d60621b6044820152606401610b2b565b60008581526020819052604090205415806114cc57506000858152602081905260409020544211155b6115185760405162461bcd60e51b815260206004820152601960248201527f50726f706f73616c20706572696f642068617320656e646564000000000000006044820152606401610b2b565b825163055d4a7f19138015906115335750825163055d4a8012155b6115725760405162461bcd60e51b815260206004820152601060248201526f496e76616c6964206c6174697475646560801b6044820152606401610b2b565b630aba94ff198360200151121580156115935750630aba9500836020015113155b6115d35760405162461bcd60e51b8152602060048201526011602482015270496e76616c6964206c6f6e67697475646560781b6044820152606401610b2b565b60008151116116305760405162461bcd60e51b815260206004820152602360248201527f4174206c65617374206f6e652070726f706f73656420646174652072657175696044820152621c995960ea1b6064820152608401610b2b565b60058151111561168d5760405162461bcd60e51b815260206004820152602260248201527f50726f706f73616c206d75737420686176652035206f72206c65737320646174604482015261657360f01b6064820152608401610b2b565b60005b8151811015611742576000868152602081905260409020546116b590610a8c90612b9e565b8282815181106116c7576116c7612ab8565b6020026020010151116117305760405162461bcd60e51b815260206004820152602b60248201527f50726f706f7365642064617465206d757374206265203630206461797320696e60448201526a207468652066757475726560a81b6064820152608401610b2b565b8061173a81612afb565b915050611690565b5060008581526020819052604090206001015460ff166117655761176585612152565b60008581526020819052604090205461178090607890612bb1565b42106117ac576000858152602081905260408120805461012c92906117a6908490612b9e565b90915550505b6117b461245c565b8481526020808201859052604080830185905233606084015285518287015191516117e493899391889101612bc4565b60408051601f19818403018152919052805160209091012060808201526118096124a6565b81815260208082018490523360408084019190915234606084015260006080840181905260a08401819052898152600180845291812080549283018155815291909120825180518493600b0290920191829081906118679082612c41565b506020828101518051600184015581015160028301556040830151600383015560608301516004830180546001600160a01b0319166001600160a01b039092169190911790556080909201516005909101558281015180516118cf92600685019201906124ed565b506040828101516007830180546001600160a01b0319166001600160a01b03909216919091179055606083015160088301556080830151600983015560a090920151600a909101805460ff191691151591909117905551339088907fe3d9c91fef9ec1a5517b77d8f83af57508342220388c74d079df56bb9c5349e090611957908a9061281e565b60405180910390a350505050505050565b606060016000838152602001908152602001600020805480602002602001604051908101604052809291908181526020016000905b82821015611b4b57600084815260209020604080516101608101909152600b84029091018054829060c08201908390829082906119d990612b2d565b80601f0160208091040260200160405190810160405280929190818152602001828054611a0590612b2d565b8015611a525780601f10611a2757610100808354040283529160200191611a52565b820191906000526020600020905b815481529060010190602001808311611a3557829003601f168201915b50505091835250506040805180820182526001840154815260028401546020828101919091528084019190915260038401548284015260048401546001600160a01b03166060840152600590930154608090920191909152918352600684018054835181840281018401909452808452938201939091830182828015611af757602002820191906000526020600020905b815481526020019060010190808311611ae3575b505050918352505060078201546001600160a01b03166020808301919091526008830154604083015260098301546060830152600a9092015460ff161515608090910152908252600192909201910161199d565b505050509050919050565b600082815260036020526040902054158015611b84575060008281526003602052604090206001015460ff16155b15611b9257611b92826121c5565b60008281526003602052604090206001015460ff16611bf35760405162461bcd60e51b815260206004820152601b60248201527f566f74696e6720706572696f64206973206e6f742061637469766500000000006044820152606401610b2b565b600c54604051635c37da6960e01b8152336004820152602481018490526001600160a01b0390911690635c37da6990604401602060405180830381865afa158015611c42573d6000803e3d6000fd5b505050506040513d601f19601f82011682018060405250810190611c669190612a96565b611ca75760405162461bcd60e51b81526020600482015260126024820152712737ba1030903a34b1b5b2ba1037bbb732b960711b6044820152606401610b2b565b600082815260046020908152604080832033845290915290205460ff1615611d015760405162461bcd60e51b815260206004820152600d60248201526c105b1c9958591e481d9bdd1959609a1b6044820152606401610b2b565b6000828152600160205260409020805482908110611d2157611d21612ab8565b6000918252602082206009600b9092020101805491611d3f83612afb565b909155505060008281526004602090815260408083203380855290835292819020805460ff191660011790555183815284917f37b8aa4050778a896e18d9773bb81d7a680a33f4b9232d489a3541a7a95c8350910160405180910390a35050565b611da8611f96565b6001600160a01b038116611dd257604051631e4fbdf760e01b815260006004820152602401610b2b565b611ddb81611ff1565b50565b306001600160a01b037f0000000000000000000000000000000000000000000000000000000000000000161480611e6557507f00000000000000000000000000000000000000000000000000000000000000006001600160a01b0316611e59600080516020612d1e833981519152546001600160a01b031690565b6001600160a01b031614155b15610a045760405163703e46dd60e11b815260040160405180910390fd5b611ddb611f96565b816001600160a01b03166352d1902d6040518163ffffffff1660e01b8152600401602060405180830381865afa925050508015611ee5575060408051601f3d908101601f19168201909252611ee291810190612b14565b60015b611f0d57604051634c9c8ce360e01b81526001600160a01b0383166004820152602401610b2b565b600080516020612d1e8339815191528114611f3e57604051632a87526960e21b815260048101829052602401610b2b565b611f488383612233565b505050565b306001600160a01b037f00000000000000000000000000000000000000000000000000000000000000001614610a045760405163703e46dd60e11b815260040160405180910390fd5b33611fc87f9016d09d72d40fdae2fd8ceac6b6234c7706214fd39c1cd1e609a0528c199300546001600160a01b031690565b6001600160a01b031614610a045760405163118cdaa760e01b8152336004820152602401610b2b565b7f9016d09d72d40fdae2fd8ceac6b6234c7706214fd39c1cd1e609a0528c19930080546001600160a01b031981166001600160a01b03848116918217845560405192169182907f8be0079c531659141344cd1fd0a4f28419497f9722a3daafe3b4186f6b6457e090600090a3505050565b600082815260096020526040908190208290555182907f30f427038b9903ed0be3f545ee5d678ba47d53ce2ffe77eb1eccbde089ec207d906120a79084815260200190565b60405180910390a25050565b60008281526001602081905260409091208054839081106120d6576120d6612ab8565b60009182526020808320600a600b93909302018201805494151560ff199095169490941790935584825282526040908190208390555182815283917fa4cdb24ce3dbadfa51e723cabdbbd7124e6b55e68a4b41d3eb42a00d144eefe391016120a7565b612141612289565b611ddb816122d2565b610a04612289565b60008181526020819052604090206001908101805460ff1916909117905561217c611c2042612b9e565b60008281526020818152604091829020839055905191825282917fbe893194ee9c4752250e88ba9de293863b73822c4663c78d6cad1f9aa7d91cdc91015b60405180910390a250565b60008181526003602052604090206001908101805460ff191690911790556121ef61025842612b9e565b600082815260036020526040908190208290555182917f58f609de0b6e6eb5c26a9c4e7c7829683497810612c1bdfdba684a4a8db08546916121ba91815260200190565b61223c826122da565b6040516001600160a01b038316907fbc7cd75a20ee27fd9adebab32041f755214dbc6bffa90cc0225b39da2e5c2d3b90600090a280511561228157611f48828261233f565b6109d16123b5565b7ff0c57e16840df040f15088dc2f81fe391c3923bec73e23a9662efc9c229c6a0054600160401b900460ff16610a0457604051631afcd79f60e31b815260040160405180910390fd5b611da8612289565b806001600160a01b03163b60000361231057604051634c9c8ce360e01b81526001600160a01b0382166004820152602401610b2b565b600080516020612d1e83398151915280546001600160a01b0319166001600160a01b0392909216919091179055565b6060600080846001600160a01b03168460405161235c9190612d01565b600060405180830381855af49150503d8060008114612397576040519150601f19603f3d011682016040523d82523d6000602084013e61239c565b606091505b50915091506123ac8583836123d4565b95945050505050565b3415610a045760405163b398979f60e01b815260040160405180910390fd5b6060826123e9576123e482612433565b61242c565b815115801561240057506001600160a01b0384163b155b1561242957604051639996b31560e01b81526001600160a01b0385166004820152602401610b2b565b50805b9392505050565b8051156124435780518082602001fd5b604051630a12f52160e11b815260040160405180910390fd5b6040518060a001604052806060815260200161248b604051806040016040528060008152602001600081525090565b81526000602082018190526040820181905260609091015290565b6040518060c001604052806124b961245c565b81526020016060815260200160006001600160a01b0316815260200160008152602001600081526020016000151581525090565b828054828255906000526020600020908101928215612528579160200282015b8281111561252857825182559160200191906001019061250d565b50612534929150612538565b5090565b5b808211156125345760008155600101612539565b80356001600160a01b038116811461256457600080fd5b919050565b60006020828403121561257b57600080fd5b61242c8261254d565b6000806040838503121561259757600080fd5b823591506125a76020840161254d565b90509250929050565b6000602082840312156125c257600080fd5b5035919050565b81518152602080830151151590820152604081016109b0565b634e487b7160e01b600052604160045260246000fd5b6040805190810167ffffffffffffffff8111828210171561261b5761261b6125e2565b60405290565b604051601f8201601f1916810167ffffffffffffffff8111828210171561264a5761264a6125e2565b604052919050565b600067ffffffffffffffff83111561266c5761266c6125e2565b61267f601f8401601f1916602001612621565b905082815283838301111561269357600080fd5b828260208301376000602084830101529392505050565b600080604083850312156126bd57600080fd5b6126c68361254d565b9150602083013567ffffffffffffffff8111156126e257600080fd5b8301601f810185136126f357600080fd5b61270285823560208401612652565b9150509250929050565b6000806040838503121561271f57600080fd5b50508035926020909101359150565b60005b83811015612749578181015183820152602001612731565b50506000910152565b6000815180845261276a81602086016020860161272e565b601f01601f19169290920160200192915050565b6000815160c0845261279360c0850182612752565b905060208301518051602086015260208101516040860152506040830151606085015260018060a01b036060840151166080850152608083015160a08501528091505092915050565b60a0815260006127ef60a083018861277e565b6001600160a01b0396909616602083015250604081019390935260608301919091521515608090910152919050565b60208152600061242c6020830184612752565b60008060006060848603121561284657600080fd5b61284f8461254d565b925061285d6020850161254d565b915061286b6040850161254d565b90509250925092565b600082601f83011261288557600080fd5b8135602067ffffffffffffffff8211156128a1576128a16125e2565b8160051b6128b0828201612621565b92835284810182019282810190878511156128ca57600080fd5b83870192505b848310156128e9578235825291830191908301906128d0565b979650505050505050565b600080600080600085870360c081121561290d57600080fd5b86359550602087013567ffffffffffffffff8082111561292c57600080fd5b818901915089601f83011261294057600080fd5b61294f8a833560208501612652565b96506040603f198401121561296357600080fd5b61296b6125f8565b60408a0135815260608a0135602082015295506080890135945060a089013592508083111561299957600080fd5b50506129a788828901612874565b9150509295509295909350565b60006020808301818452808551808352604092508286019150828160051b8701018488016000805b84811015612a8757603f198a8503018652825160c08151818752612a028288018261277e565b838c0151888203898e01528051808352908d019350869250908c01905b80831015612a3f5783518252928c019260019290920191908c0190612a1f565b508a8401516001600160a01b0316888c0152606080850151908901526080808501519089015260a09384015115159390970192909252505094870194918701916001016129dc565b50919998505050505050505050565b600060208284031215612aa857600080fd5b8151801515811461242c57600080fd5b634e487b7160e01b600052603260045260246000fd5b634e487b7160e01b600052601160045260246000fd5b600081612af357612af3612ace565b506000190190565b600060018201612b0d57612b0d612ace565b5060010190565b600060208284031215612b2657600080fd5b5051919050565b600181811c90821680612b4157607f821691505b602082108103612b6157634e487b7160e01b600052602260045260246000fd5b50919050565b634e487b7160e01b600052602160045260246000fd5b600060208284031215612b8f57600080fd5b81516008811061242c57600080fd5b808201808211156109b0576109b0612ace565b818103818111156109b0576109b0612ace565b60008551612bd6818460208a0161272e565b919091019384525060208301919091526040820152606001919050565b601f821115611f4857600081815260208120601f850160051c81016020861015612c1a5750805b601f850160051c820191505b81811015612c3957828155600101612c26565b505050505050565b815167ffffffffffffffff811115612c5b57612c5b6125e2565b612c6f81612c698454612b2d565b84612bf3565b602080601f831160018114612ca45760008415612c8c5750858301515b600019600386901b1c1916600185901b178555612c39565b600085815260208120601f198616915b82811015612cd357888601518255948401946001909101908401612cb4565b5085821015612cf15787850151600019600388901b60f8161c191681555b5050505050600190811b01905550565b60008251612d1381846020870161272e565b919091019291505056fe360894a13ba1a3210667c828492db98dca3e2076cc3735a920a3ca505d382bbca2646970667358221220e98b3626e06f2f61b2dce0d678f686c341baeef368c60deb85a5586ef815030264736f6c63430008140033","linkReferences":{}},"methodIdentifiers":{"UPGRADE_INTERFACE_VERSION()":"ad3cb1cc","dateVotes(bytes32,uint256)":"d360fb5f","getDateVotes(bytes32,uint256)":"84f3e62c","getHasDateVoted(bytes32,address)":"21e2c8cf","getHasTicketOwnerVoted(bytes32,address)":"25d4e7e8","getHasVoted(bytes32,address)":"398ac6c3","getPreviousDateVote(bytes32,address)":"940fed20","getPreviousVote(bytes32,address)":"47cc6095","getProposalPeriod(bytes32)":"4de89286","getRefunds(address)":"03c22ec4","getSelectedDate(bytes32)":"e0174d78","getSelectedProposalIndex(bytes32)":"f60eab04","getShowProposals(bytes32)":"e9801fcb","getVotingPeriods(bytes32)":"eef28136","hasDateVoted(bytes32,address)":"a16026f4","hasTicketOwnerVoted(bytes32,address)":"f51bba85","hasVoted(bytes32,address)":"aadc3b72","initialize(address,address,address)":"c0c53b8b","owner()":"8da5cb5b","previousDateVote(bytes32,address)":"043c97fa","previousVote(bytes32,address)":"ab07426f","proposalPeriod(bytes32)":"b328da12","proxiableUUID()":"52d1902d","refunds(address)":"bc3da535","renounceOwnership()":"715018a6","selectedDate(bytes32)":"d865ae3c","selectedProposalIndex(bytes32)":"66582371","showInstance()":"404f49d1","showProposals(bytes32,uint256)":"960c8b45","submitProposal(bytes32,string,(int256,int256),uint256,uint256[])":"dda9b13c","ticketHolderVenueVote(bytes32,uint256)":"ee6b8b2e","ticketInstance()":"0233ce6a","transferOwnership(address)":"f2fde38b","upgradeToAndCall(address,bytes)":"4f1ef286","vote(bytes32,uint256)":"9ef1204c","voteForDate(bytes32,uint256)":"81cf3ab8","votingPeriods(bytes32)":"c15f6bd7"},"id":40}