{"abi":[{"type":"function","name":"dateVotes","inputs":[{"name":"","type":"bytes32","internalType":"bytes32"},{"name":"","type":"uint256","internalType":"uint256"}],"outputs":[{"name":"","type":"uint256","internalType":"uint256"}],"stateMutability":"view"},{"type":"function","name":"hasDateVoted","inputs":[{"name":"","type":"bytes32","internalType":"bytes32"},{"name":"","type":"address","internalType":"address"}],"outputs":[{"name":"","type":"bool","internalType":"bool"}],"stateMutability":"view"},{"type":"function","name":"hasTicketOwnerVoted","inputs":[{"name":"","type":"bytes32","internalType":"bytes32"},{"name":"","type":"address","internalType":"address"}],"outputs":[{"name":"","type":"bool","internalType":"bool"}],"stateMutability":"view"},{"type":"function","name":"hasVoted","inputs":[{"name":"","type":"bytes32","internalType":"bytes32"},{"name":"","type":"address","internalType":"address"}],"outputs":[{"name":"","type":"bool","internalType":"bool"}],"stateMutability":"view"},{"type":"function","name":"previousDateVote","inputs":[{"name":"","type":"bytes32","internalType":"bytes32"},{"name":"","type":"address","internalType":"address"}],"outputs":[{"name":"","type":"uint256","internalType":"uint256"}],"stateMutability":"view"},{"type":"function","name":"previousVote","inputs":[{"name":"","type":"bytes32","internalType":"bytes32"},{"name":"","type":"address","internalType":"address"}],"outputs":[{"name":"","type":"uint256","internalType":"uint256"}],"stateMutability":"view"},{"type":"function","name":"proposalPeriod","inputs":[{"name":"","type":"bytes32","internalType":"bytes32"}],"outputs":[{"name":"endTime","type":"uint256","internalType":"uint256"},{"name":"isPeriodActive","type":"bool","internalType":"bool"}],"stateMutability":"view"},{"type":"function","name":"refunds","inputs":[{"name":"","type":"address","internalType":"address"}],"outputs":[{"name":"","type":"uint256","internalType":"uint256"}],"stateMutability":"view"},{"type":"function","name":"selectedDate","inputs":[{"name":"","type":"bytes32","internalType":"bytes32"}],"outputs":[{"name":"","type":"uint256","internalType":"uint256"}],"stateMutability":"view"},{"type":"function","name":"selectedProposalIndex","inputs":[{"name":"","type":"bytes32","internalType":"bytes32"}],"outputs":[{"name":"","type":"uint256","internalType":"uint256"}],"stateMutability":"view"},{"type":"function","name":"showProposals","inputs":[{"name":"","type":"bytes32","internalType":"bytes32"},{"name":"","type":"uint256","internalType":"uint256"}],"outputs":[{"name":"venue","type":"tuple","internalType":"struct VenueTypes.Venue","components":[{"name":"name","type":"string","internalType":"string"},{"name":"coordinates","type":"tuple","internalType":"struct VenueTypes.Coordinates","components":[{"name":"lat","type":"int256","internalType":"int256"},{"name":"lon","type":"int256","internalType":"int256"}]},{"name":"totalCapacity","type":"uint256","internalType":"uint256"},{"name":"wallet","type":"address","internalType":"address"},{"name":"venueId","type":"bytes32","internalType":"bytes32"}]},{"name":"proposer","type":"address","internalType":"address"},{"name":"bribe","type":"uint256","internalType":"uint256"},{"name":"votes","type":"uint256","internalType":"uint256"},{"name":"accepted","type":"bool","internalType":"bool"}],"stateMutability":"view"},{"type":"function","name":"ticketHolderVotingActive","inputs":[{"name":"","type":"bytes32","internalType":"bytes32"}],"outputs":[{"name":"","type":"bool","internalType":"bool"}],"stateMutability":"view"},{"type":"function","name":"ticketHolderVotingPeriods","inputs":[{"name":"","type":"bytes32","internalType":"bytes32"}],"outputs":[{"name":"endTime","type":"uint256","internalType":"uint256"},{"name":"isPeriodActive","type":"bool","internalType":"bool"}],"stateMutability":"view"},{"type":"function","name":"ticketOwnerVoteIndex","inputs":[{"name":"","type":"bytes32","internalType":"bytes32"},{"name":"","type":"address","internalType":"address"}],"outputs":[{"name":"","type":"uint256","internalType":"uint256"}],"stateMutability":"view"},{"type":"function","name":"votingPeriods","inputs":[{"name":"","type":"bytes32","internalType":"bytes32"}],"outputs":[{"name":"endTime","type":"uint256","internalType":"uint256"},{"name":"isPeriodActive","type":"bool","internalType":"bool"}],"stateMutability":"view"}],"bytecode":{"object":"0x608060405234801561001057600080fd5b506106a7806100206000396000f3fe608060405234801561001057600080fd5b50600436106100f55760003560e01c8063ab07426f11610097578063d360fb5f11610066578063d360fb5f146102ea578063d865ae3c14610315578063f51bba8514610335578063f94976c01461036357600080fd5b8063ab07426f14610236578063b328da1214610261578063bc3da535146102a0578063c15f6bd7146102c057600080fd5b80638b79dbe1116100d35780638b79dbe114610183578063960c8b45146101b6578063a16026f4146101da578063aadc3b721461020857600080fd5b8063043c97fa146100fa5780633cc44e19146101385780636658237114610163575b600080fd5b6101256101083660046104e7565b600860209081526000928352604080842090915290825290205481565b6040519081526020015b60405180910390f35b6101256101463660046104e7565b600560209081526000928352604080842090915290825290205481565b610125610171366004610513565b600b6020526000908152604090205481565b6101a6610191366004610513565b600d6020526000908152604090205460ff1681565b604051901515815260200161012f565b6101c96101c436600461052c565b61038d565b60405161012f95949392919061054e565b6101a66101e83660046104e7565b600960209081526000928352604080842090915290825290205460ff1681565b6101a66102163660046104e7565b600260209081526000928352604080842090915290825290205460ff1681565b6101256102443660046104e7565b600660209081526000928352604080842090915290825290205481565b61028b61026f366004610513565b6000602081905290815260409020805460019091015460ff1682565b6040805192835290151560208301520161012f565b6101256102ae366004610615565b600c6020526000908152604090205481565b61028b6102ce366004610513565b6003602052600090815260409020805460019091015460ff1682565b6101256102f836600461052c565b600760209081526000928352604080842090915290825290205481565b610125610323366004610513565b600a6020526000908152604090205481565b6101a66103433660046104e7565b600460209081526000928352604080842090915290825290205460ff1681565b61028b610371366004610513565b600e602052600090815260409020805460019091015460ff1682565b600160205281600052604060002081815481106103a957600080fd5b90600052602060002090600b020160009150915050806000016040518060a00160405290816000820180546103dd90610637565b80601f016020809104026020016040519081016040528092919081815260200182805461040990610637565b80156104565780601f1061042b57610100808354040283529160200191610456565b820191906000526020600020905b81548152906001019060200180831161043957829003601f168201915b505050918352505060408051808201825260018401548152600284015460208281019190915283015260038301549082015260048201546001600160a01b039081166060830152600590920154608090910152600783015460088401546009850154600a909501549394919092169260ff1685565b80356001600160a01b03811681146104e257600080fd5b919050565b600080604083850312156104fa57600080fd5b8235915061050a602084016104cb565b90509250929050565b60006020828403121561052557600080fd5b5035919050565b6000806040838503121561053f57600080fd5b50508035926020909101359150565b60a081526000865160c060a084015280518061016085015260005b81811015610587576020818401810151610180878401015201610569565b506101809150600082828601015260208901516105b160c086018280518252602090810151910152565b50604089015161010085015260608901516001600160a01b0390811661012086015260808a015161014086015288166020850152601f01601f1916830101905084604083015283606083015261060b608083018415159052565b9695505050505050565b60006020828403121561062757600080fd5b610630826104cb565b9392505050565b600181811c9082168061064b57607f821691505b60208210810361066b57634e487b7160e01b600052602260045260246000fd5b5091905056fea26469706673582212208cb13f834d83ff0b6f43cb7ac765de359269ad869b7615613098f9e6d9ed91ae64736f6c63430008140033","linkReferences":{}},"methodIdentifiers":{"dateVotes(bytes32,uint256)":"d360fb5f","hasDateVoted(bytes32,address)":"a16026f4","hasTicketOwnerVoted(bytes32,address)":"f51bba85","hasVoted(bytes32,address)":"aadc3b72","previousDateVote(bytes32,address)":"043c97fa","previousVote(bytes32,address)":"ab07426f","proposalPeriod(bytes32)":"b328da12","refunds(address)":"bc3da535","selectedDate(bytes32)":"d865ae3c","selectedProposalIndex(bytes32)":"66582371","showProposals(bytes32,uint256)":"960c8b45","ticketHolderVotingActive(bytes32)":"8b79dbe1","ticketHolderVotingPeriods(bytes32)":"f94976c0","ticketOwnerVoteIndex(bytes32,address)":"3cc44e19","votingPeriods(bytes32)":"c15f6bd7"},"id":77}