{"abi":[{"type":"function","name":"dateVotes","inputs":[{"name":"","type":"bytes32","internalType":"bytes32"},{"name":"","type":"uint256","internalType":"uint256"}],"outputs":[{"name":"","type":"uint256","internalType":"uint256"}],"stateMutability":"view"},{"type":"function","name":"hasDateVoted","inputs":[{"name":"","type":"bytes32","internalType":"bytes32"},{"name":"","type":"address","internalType":"address"}],"outputs":[{"name":"","type":"bool","internalType":"bool"}],"stateMutability":"view"},{"type":"function","name":"hasTicketOwnerVoted","inputs":[{"name":"","type":"bytes32","internalType":"bytes32"},{"name":"","type":"address","internalType":"address"}],"outputs":[{"name":"","type":"bool","internalType":"bool"}],"stateMutability":"view"},{"type":"function","name":"hasVoted","inputs":[{"name":"","type":"bytes32","internalType":"bytes32"},{"name":"","type":"address","internalType":"address"}],"outputs":[{"name":"","type":"bool","internalType":"bool"}],"stateMutability":"view"},{"type":"function","name":"previousDateVote","inputs":[{"name":"","type":"bytes32","internalType":"bytes32"},{"name":"","type":"address","internalType":"address"}],"outputs":[{"name":"","type":"uint256","internalType":"uint256"}],"stateMutability":"view"},{"type":"function","name":"previousVote","inputs":[{"name":"","type":"bytes32","internalType":"bytes32"},{"name":"","type":"address","internalType":"address"}],"outputs":[{"name":"","type":"uint256","internalType":"uint256"}],"stateMutability":"view"},{"type":"function","name":"proposalDateExtension","inputs":[],"outputs":[{"name":"","type":"uint256","internalType":"uint256"}],"stateMutability":"view"},{"type":"function","name":"proposalDateMinimumFuture","inputs":[],"outputs":[{"name":"","type":"uint256","internalType":"uint256"}],"stateMutability":"view"},{"type":"function","name":"proposalPeriod","inputs":[{"name":"","type":"bytes32","internalType":"bytes32"}],"outputs":[{"name":"endTime","type":"uint256","internalType":"uint256"},{"name":"hasProposalPeriodStarted","type":"bool","internalType":"bool"}],"stateMutability":"view"},{"type":"function","name":"proposalPeriodDuration","inputs":[],"outputs":[{"name":"","type":"uint256","internalType":"uint256"}],"stateMutability":"view"},{"type":"function","name":"proposalPeriodExtensionThreshold","inputs":[],"outputs":[{"name":"","type":"uint256","internalType":"uint256"}],"stateMutability":"view"},{"type":"function","name":"refunds","inputs":[{"name":"","type":"address","internalType":"address"}],"outputs":[{"name":"","type":"uint256","internalType":"uint256"}],"stateMutability":"view"},{"type":"function","name":"selectedDate","inputs":[{"name":"","type":"bytes32","internalType":"bytes32"}],"outputs":[{"name":"","type":"uint256","internalType":"uint256"}],"stateMutability":"view"},{"type":"function","name":"selectedProposalIndex","inputs":[{"name":"","type":"bytes32","internalType":"bytes32"}],"outputs":[{"name":"","type":"uint256","internalType":"uint256"}],"stateMutability":"view"},{"type":"function","name":"showInstance","inputs":[],"outputs":[{"name":"","type":"address","internalType":"contract IShow"}],"stateMutability":"view"},{"type":"function","name":"showProposals","inputs":[{"name":"","type":"bytes32","internalType":"bytes32"},{"name":"","type":"uint256","internalType":"uint256"}],"outputs":[{"name":"venue","type":"tuple","internalType":"struct VenueRegistryTypes.VenueInfo","components":[{"name":"venueId","type":"uint256","internalType":"uint256"},{"name":"name","type":"string","internalType":"string"},{"name":"bio","type":"string","internalType":"string"},{"name":"wallet","type":"address","internalType":"address"},{"name":"coordinates","type":"tuple","internalType":"struct VenueRegistryTypes.Coordinates","components":[{"name":"latitude","type":"int256","internalType":"int256"},{"name":"longitude","type":"int256","internalType":"int256"}]},{"name":"totalCapacity","type":"uint256","internalType":"uint256"},{"name":"streetAddress","type":"string","internalType":"string"}]},{"name":"proposer","type":"address","internalType":"address"},{"name":"bribe","type":"uint256","internalType":"uint256"},{"name":"votes","type":"uint256","internalType":"uint256"},{"name":"accepted","type":"bool","internalType":"bool"},{"name":"paymentToken","type":"address","internalType":"address"}],"stateMutability":"view"},{"type":"function","name":"showVaultInstance","inputs":[],"outputs":[{"name":"","type":"address","internalType":"contract IShowVault"}],"stateMutability":"view"},{"type":"function","name":"ticketHolderVotingActive","inputs":[{"name":"","type":"bytes32","internalType":"bytes32"}],"outputs":[{"name":"","type":"bool","internalType":"bool"}],"stateMutability":"view"},{"type":"function","name":"ticketHolderVotingPeriods","inputs":[{"name":"","type":"bytes32","internalType":"bytes32"}],"outputs":[{"name":"endTime","type":"uint256","internalType":"uint256"},{"name":"hasProposalPeriodStarted","type":"bool","internalType":"bool"}],"stateMutability":"view"},{"type":"function","name":"ticketOwnerVoteIndex","inputs":[{"name":"","type":"bytes32","internalType":"bytes32"},{"name":"","type":"address","internalType":"address"}],"outputs":[{"name":"","type":"uint256","internalType":"uint256"}],"stateMutability":"view"},{"type":"function","name":"venueRegistryInstance","inputs":[],"outputs":[{"name":"","type":"address","internalType":"contract IVenueRegistry"}],"stateMutability":"view"},{"type":"function","name":"votingPeriods","inputs":[{"name":"","type":"bytes32","internalType":"bytes32"}],"outputs":[{"name":"endTime","type":"uint256","internalType":"uint256"},{"name":"hasProposalPeriodStarted","type":"bool","internalType":"bool"}],"stateMutability":"view"}],"bytecode":{"object":"0x608060405234801561001057600080fd5b50610910806100206000396000f3fe608060405234801561001057600080fd5b50600436106101425760003560e01c8063a16026f4116100b8578063c15f6bd71161007c578063c15f6bd71461037a578063d360fb5f146103a4578063d865ae3c146103cf578063f51bba85146103ef578063f94976c01461041d578063fcd73bf81461044757600080fd5b8063a16026f414610294578063aadc3b72146102c2578063ab07426f146102f0578063b328da121461031b578063bc3da5351461035a57600080fd5b80636a0178911161010a5780636a017891146102045780636d9be57f14610217578063703ee4e51461022057806386de15eb146102335780638b79dbe11461023c578063960c8b451461026f57600080fd5b8063043c97fa146101475780633cc44e1914610185578063404f49d1146101b05780635a9d5841146101db57806366582371146101e4575b600080fd5b6101726101553660046106e7565b600f60209081526000928352604080842090915290825290205481565b6040519081526020015b60405180910390f35b6101726101933660046106e7565b600c60209081526000928352604080842090915290825290205481565b6000546101c3906001600160a01b031681565b6040516001600160a01b03909116815260200161017c565b61017260045481565b6101726101f2366004610713565b60126020526000908152604090205481565b6002546101c3906001600160a01b031681565b61017260065481565b6001546101c3906001600160a01b031681565b61017260055481565b61025f61024a366004610713565b60146020526000908152604090205460ff1681565b604051901515815260200161017c565b61028261027d36600461072c565b610450565b60405161017c96959493929190610794565b61025f6102a23660046106e7565b601060209081526000928352604080842090915290825290205460ff1681565b61025f6102d03660046106e7565b600960209081526000928352604080842090915290825290205460ff1681565b6101726102fe3660046106e7565b600d60209081526000928352604080842090915290825290205481565b610345610329366004610713565b6007602052600090815260409020805460019091015460ff1682565b6040805192835290151560208301520161017c565b61017261036836600461087e565b60136020526000908152604090205481565b610345610388366004610713565b600a602052600090815260409020805460019091015460ff1682565b6101726103b236600461072c565b600e60209081526000928352604080842090915290825290205481565b6101726103dd366004610713565b60116020526000908152604090205481565b61025f6103fd3660046106e7565b600b60209081526000928352604080842090915290825290205460ff1681565b61034561042b366004610713565b6015602052600090815260409020805460019091015460ff1682565b61017260035481565b6008602052816000526040600020818154811061046c57600080fd5b90600052602060002090600d020160009150915050806000016040518060e0016040529081600082015481526020016001820180546104aa906108a0565b80601f01602080910402602001604051908101604052809291908181526020018280546104d6906108a0565b80156105235780601f106104f857610100808354040283529160200191610523565b820191906000526020600020905b81548152906001019060200180831161050657829003601f168201915b5050505050815260200160028201805461053c906108a0565b80601f0160208091040260200160405190810160405280929190818152602001828054610568906108a0565b80156105b55780601f1061058a576101008083540402835291602001916105b5565b820191906000526020600020905b81548152906001019060200180831161059857829003601f168201915b505050918352505060038201546001600160a01b03166020808301919091526040805180820182526004850154815260058501549281019290925282015260068201546060820152600782018054608090920191610612906108a0565b80601f016020809104026020016040519081016040528092919081815260200182805461063e906108a0565b801561068b5780601f106106605761010080835404028352916020019161068b565b820191906000526020600020905b81548152906001019060200180831161066e57829003601f168201915b505050919092525050506009820154600a830154600b840154600c9094015492936001600160a01b03928316939192909160ff8116916101009091041686565b80356001600160a01b03811681146106e257600080fd5b919050565b600080604083850312156106fa57600080fd5b8235915061070a602084016106cb565b90509250929050565b60006020828403121561072557600080fd5b5035919050565b6000806040838503121561073f57600080fd5b50508035926020909101359150565b6000815180845260005b8181101561077457602081850181015186830182015201610758565b506000602082860101526020601f19601f83011685010191505092915050565b60c08152865160c0820152600060208801516101008060e08501526107bd6101c085018361074e565b915060408a015160bf198086850301838701526107da848361074e565b60608d01516001600160a01b031661012088015260808d015180516101408901526020015161016088015260a08d015161018088015260c08d01518782039092016101a0880152935091506108319050828261074e565b9250505061084a60208301886001600160a01b03169052565b856040830152846060830152610864608083018515159052565b6001600160a01b03831660a0830152979650505050505050565b60006020828403121561089057600080fd5b610899826106cb565b9392505050565b600181811c908216806108b457607f821691505b6020821081036108d457634e487b7160e01b600052602260045260246000fd5b5091905056fea2646970667358221220695fe734f9228375fc879f73adf4e7cbaaf35b00abf78fe5dd3d2c74cbf7a71864736f6c63430008140033","linkReferences":{}},"methodIdentifiers":{"dateVotes(bytes32,uint256)":"d360fb5f","hasDateVoted(bytes32,address)":"a16026f4","hasTicketOwnerVoted(bytes32,address)":"f51bba85","hasVoted(bytes32,address)":"aadc3b72","previousDateVote(bytes32,address)":"043c97fa","previousVote(bytes32,address)":"ab07426f","proposalDateExtension()":"5a9d5841","proposalDateMinimumFuture()":"86de15eb","proposalPeriod(bytes32)":"b328da12","proposalPeriodDuration()":"fcd73bf8","proposalPeriodExtensionThreshold()":"6d9be57f","refunds(address)":"bc3da535","selectedDate(bytes32)":"d865ae3c","selectedProposalIndex(bytes32)":"66582371","showInstance()":"404f49d1","showProposals(bytes32,uint256)":"960c8b45","showVaultInstance()":"6a017891","ticketHolderVotingActive(bytes32)":"8b79dbe1","ticketHolderVotingPeriods(bytes32)":"f94976c0","ticketOwnerVoteIndex(bytes32,address)":"3cc44e19","venueRegistryInstance()":"703ee4e5","votingPeriods(bytes32)":"c15f6bd7"},"id":85}