{"abi":[{"type":"function","name":"UPGRADE_INTERFACE_VERSION","inputs":[],"outputs":[{"name":"","type":"string","internalType":"string"}],"stateMutability":"view"},{"type":"function","name":"dateVotes","inputs":[{"name":"","type":"bytes32","internalType":"bytes32"},{"name":"","type":"uint256","internalType":"uint256"}],"outputs":[{"name":"","type":"uint256","internalType":"uint256"}],"stateMutability":"view"},{"type":"function","name":"getDateVotes","inputs":[{"name":"showId","type":"bytes32","internalType":"bytes32"},{"name":"date","type":"uint256","internalType":"uint256"}],"outputs":[{"name":"","type":"uint256","internalType":"uint256"}],"stateMutability":"view"},{"type":"function","name":"getHasDateVoted","inputs":[{"name":"showId","type":"bytes32","internalType":"bytes32"},{"name":"user","type":"address","internalType":"address"}],"outputs":[{"name":"","type":"bool","internalType":"bool"}],"stateMutability":"view"},{"type":"function","name":"getHasTicketOwnerVoted","inputs":[{"name":"showId","type":"bytes32","internalType":"bytes32"},{"name":"user","type":"address","internalType":"address"}],"outputs":[{"name":"","type":"bool","internalType":"bool"}],"stateMutability":"view"},{"type":"function","name":"getHasVoted","inputs":[{"name":"showId","type":"bytes32","internalType":"bytes32"},{"name":"user","type":"address","internalType":"address"}],"outputs":[{"name":"","type":"bool","internalType":"bool"}],"stateMutability":"view"},{"type":"function","name":"getPreviousDateVote","inputs":[{"name":"showId","type":"bytes32","internalType":"bytes32"},{"name":"user","type":"address","internalType":"address"}],"outputs":[{"name":"","type":"uint256","internalType":"uint256"}],"stateMutability":"view"},{"type":"function","name":"getPreviousVote","inputs":[{"name":"showId","type":"bytes32","internalType":"bytes32"},{"name":"user","type":"address","internalType":"address"}],"outputs":[{"name":"","type":"uint256","internalType":"uint256"}],"stateMutability":"view"},{"type":"function","name":"getProposal","inputs":[{"name":"showId","type":"bytes32","internalType":"bytes32"},{"name":"proposalIndex","type":"uint256","internalType":"uint256"}],"outputs":[{"name":"","type":"tuple","internalType":"struct VenueTypes.Proposal","components":[{"name":"venue","type":"tuple","internalType":"struct VenueRegistryTypes.VenueInfo","components":[{"name":"venueId","type":"uint256","internalType":"uint256"},{"name":"name","type":"string","internalType":"string"},{"name":"bio","type":"string","internalType":"string"},{"name":"wallet","type":"address","internalType":"address"},{"name":"coordinates","type":"tuple","internalType":"struct VenueRegistryTypes.Coordinates","components":[{"name":"latitude","type":"int256","internalType":"int256"},{"name":"longitude","type":"int256","internalType":"int256"}]},{"name":"totalCapacity","type":"uint256","internalType":"uint256"},{"name":"streetAddress","type":"string","internalType":"string"}]},{"name":"proposedDates","type":"uint256[]","internalType":"uint256[]"},{"name":"proposer","type":"address","internalType":"address"},{"name":"bribe","type":"uint256","internalType":"uint256"},{"name":"votes","type":"uint256","internalType":"uint256"},{"name":"accepted","type":"bool","internalType":"bool"},{"name":"paymentToken","type":"address","internalType":"address"}]}],"stateMutability":"view"},{"type":"function","name":"getProposalPeriod","inputs":[{"name":"showId","type":"bytes32","internalType":"bytes32"}],"outputs":[{"name":"","type":"tuple","internalType":"struct VenueTypes.ProposalPeriod","components":[{"name":"endTime","type":"uint256","internalType":"uint256"},{"name":"isPeriodActive","type":"bool","internalType":"bool"}]}],"stateMutability":"view"},{"type":"function","name":"getProposalsCount","inputs":[{"name":"showId","type":"bytes32","internalType":"bytes32"}],"outputs":[{"name":"","type":"uint256","internalType":"uint256"}],"stateMutability":"view"},{"type":"function","name":"getRefunds","inputs":[{"name":"user","type":"address","internalType":"address"}],"outputs":[{"name":"","type":"uint256","internalType":"uint256"}],"stateMutability":"view"},{"type":"function","name":"getSelectedDate","inputs":[{"name":"showId","type":"bytes32","internalType":"bytes32"}],"outputs":[{"name":"","type":"uint256","internalType":"uint256"}],"stateMutability":"view"},{"type":"function","name":"getSelectedProposalIndex","inputs":[{"name":"showId","type":"bytes32","internalType":"bytes32"}],"outputs":[{"name":"","type":"uint256","internalType":"uint256"}],"stateMutability":"view"},{"type":"function","name":"getShowProposals","inputs":[{"name":"showId","type":"bytes32","internalType":"bytes32"}],"outputs":[{"name":"","type":"tuple[]","internalType":"struct VenueTypes.Proposal[]","components":[{"name":"venue","type":"tuple","internalType":"struct VenueRegistryTypes.VenueInfo","components":[{"name":"venueId","type":"uint256","internalType":"uint256"},{"name":"name","type":"string","internalType":"string"},{"name":"bio","type":"string","internalType":"string"},{"name":"wallet","type":"address","internalType":"address"},{"name":"coordinates","type":"tuple","internalType":"struct VenueRegistryTypes.Coordinates","components":[{"name":"latitude","type":"int256","internalType":"int256"},{"name":"longitude","type":"int256","internalType":"int256"}]},{"name":"totalCapacity","type":"uint256","internalType":"uint256"},{"name":"streetAddress","type":"string","internalType":"string"}]},{"name":"proposedDates","type":"uint256[]","internalType":"uint256[]"},{"name":"proposer","type":"address","internalType":"address"},{"name":"bribe","type":"uint256","internalType":"uint256"},{"name":"votes","type":"uint256","internalType":"uint256"},{"name":"accepted","type":"bool","internalType":"bool"},{"name":"paymentToken","type":"address","internalType":"address"}]}],"stateMutability":"view"},{"type":"function","name":"getVotingPeriods","inputs":[{"name":"showId","type":"bytes32","internalType":"bytes32"}],"outputs":[{"name":"","type":"tuple","internalType":"struct VenueTypes.VotingPeriod","components":[{"name":"endTime","type":"uint256","internalType":"uint256"},{"name":"isPeriodActive","type":"bool","internalType":"bool"}]}],"stateMutability":"view"},{"type":"function","name":"hasDateVoted","inputs":[{"name":"","type":"bytes32","internalType":"bytes32"},{"name":"","type":"address","internalType":"address"}],"outputs":[{"name":"","type":"bool","internalType":"bool"}],"stateMutability":"view"},{"type":"function","name":"hasTicketOwnerVoted","inputs":[{"name":"","type":"bytes32","internalType":"bytes32"},{"name":"","type":"address","internalType":"address"}],"outputs":[{"name":"","type":"bool","internalType":"bool"}],"stateMutability":"view"},{"type":"function","name":"hasVoted","inputs":[{"name":"","type":"bytes32","internalType":"bytes32"},{"name":"","type":"address","internalType":"address"}],"outputs":[{"name":"","type":"bool","internalType":"bool"}],"stateMutability":"view"},{"type":"function","name":"initialize","inputs":[{"name":"initialOwner","type":"address","internalType":"address"},{"name":"_proposalPeriodDuration","type":"uint256","internalType":"uint256"},{"name":"_proposalDateExtension","type":"uint256","internalType":"uint256"},{"name":"_proposalDateMinimumFuture","type":"uint256","internalType":"uint256"},{"name":"_proposalPeriodExtensionThreshold","type":"uint256","internalType":"uint256"}],"outputs":[],"stateMutability":"nonpayable"},{"type":"function","name":"owner","inputs":[],"outputs":[{"name":"","type":"address","internalType":"address"}],"stateMutability":"view"},{"type":"function","name":"previousDateVote","inputs":[{"name":"","type":"bytes32","internalType":"bytes32"},{"name":"","type":"address","internalType":"address"}],"outputs":[{"name":"","type":"uint256","internalType":"uint256"}],"stateMutability":"view"},{"type":"function","name":"previousVote","inputs":[{"name":"","type":"bytes32","internalType":"bytes32"},{"name":"","type":"address","internalType":"address"}],"outputs":[{"name":"","type":"uint256","internalType":"uint256"}],"stateMutability":"view"},{"type":"function","name":"proposalDateExtension","inputs":[],"outputs":[{"name":"","type":"uint256","internalType":"uint256"}],"stateMutability":"view"},{"type":"function","name":"proposalDateMinimumFuture","inputs":[],"outputs":[{"name":"","type":"uint256","internalType":"uint256"}],"stateMutability":"view"},{"type":"function","name":"proposalPeriod","inputs":[{"name":"","type":"bytes32","internalType":"bytes32"}],"outputs":[{"name":"endTime","type":"uint256","internalType":"uint256"},{"name":"isPeriodActive","type":"bool","internalType":"bool"}],"stateMutability":"view"},{"type":"function","name":"proposalPeriodDuration","inputs":[],"outputs":[{"name":"","type":"uint256","internalType":"uint256"}],"stateMutability":"view"},{"type":"function","name":"proposalPeriodExtensionThreshold","inputs":[],"outputs":[{"name":"","type":"uint256","internalType":"uint256"}],"stateMutability":"view"},{"type":"function","name":"proxiableUUID","inputs":[],"outputs":[{"name":"","type":"bytes32","internalType":"bytes32"}],"stateMutability":"view"},{"type":"function","name":"refunds","inputs":[{"name":"","type":"address","internalType":"address"}],"outputs":[{"name":"","type":"uint256","internalType":"uint256"}],"stateMutability":"view"},{"type":"function","name":"renounceOwnership","inputs":[],"outputs":[],"stateMutability":"nonpayable"},{"type":"function","name":"resetBribe","inputs":[{"name":"showId","type":"bytes32","internalType":"bytes32"},{"name":"proposalIndex","type":"uint256","internalType":"uint256"}],"outputs":[],"stateMutability":"nonpayable"},{"type":"function","name":"selectedDate","inputs":[{"name":"","type":"bytes32","internalType":"bytes32"}],"outputs":[{"name":"","type":"uint256","internalType":"uint256"}],"stateMutability":"view"},{"type":"function","name":"selectedProposalIndex","inputs":[{"name":"","type":"bytes32","internalType":"bytes32"}],"outputs":[{"name":"","type":"uint256","internalType":"uint256"}],"stateMutability":"view"},{"type":"function","name":"setContractAddresses","inputs":[{"name":"_showContractAddress","type":"address","internalType":"address"},{"name":"_showVaultAddress","type":"address","internalType":"address"},{"name":"_venueRegistryAddress","type":"address","internalType":"address"}],"outputs":[],"stateMutability":"nonpayable"},{"type":"function","name":"showInstance","inputs":[],"outputs":[{"name":"","type":"address","internalType":"contract IShow"}],"stateMutability":"view"},{"type":"function","name":"showProposals","inputs":[{"name":"","type":"bytes32","internalType":"bytes32"},{"name":"","type":"uint256","internalType":"uint256"}],"outputs":[{"name":"venue","type":"tuple","internalType":"struct VenueRegistryTypes.VenueInfo","components":[{"name":"venueId","type":"uint256","internalType":"uint256"},{"name":"name","type":"string","internalType":"string"},{"name":"bio","type":"string","internalType":"string"},{"name":"wallet","type":"address","internalType":"address"},{"name":"coordinates","type":"tuple","internalType":"struct VenueRegistryTypes.Coordinates","components":[{"name":"latitude","type":"int256","internalType":"int256"},{"name":"longitude","type":"int256","internalType":"int256"}]},{"name":"totalCapacity","type":"uint256","internalType":"uint256"},{"name":"streetAddress","type":"string","internalType":"string"}]},{"name":"proposer","type":"address","internalType":"address"},{"name":"bribe","type":"uint256","internalType":"uint256"},{"name":"votes","type":"uint256","internalType":"uint256"},{"name":"accepted","type":"bool","internalType":"bool"},{"name":"paymentToken","type":"address","internalType":"address"}],"stateMutability":"view"},{"type":"function","name":"showVaultInstance","inputs":[],"outputs":[{"name":"","type":"address","internalType":"contract IShowVault"}],"stateMutability":"view"},{"type":"function","name":"submitProposal","inputs":[{"name":"showId","type":"bytes32","internalType":"bytes32"},{"name":"venueId","type":"uint256","internalType":"uint256"},{"name":"proposedDates","type":"uint256[]","internalType":"uint256[]"},{"name":"paymentToken","type":"address","internalType":"address"}],"outputs":[],"stateMutability":"payable"},{"type":"function","name":"ticketHolderVenueVote","inputs":[{"name":"showId","type":"bytes32","internalType":"bytes32"},{"name":"proposalIndex","type":"uint256","internalType":"uint256"}],"outputs":[],"stateMutability":"nonpayable"},{"type":"function","name":"ticketHolderVotingActive","inputs":[{"name":"","type":"bytes32","internalType":"bytes32"}],"outputs":[{"name":"","type":"bool","internalType":"bool"}],"stateMutability":"view"},{"type":"function","name":"ticketHolderVotingPeriods","inputs":[{"name":"","type":"bytes32","internalType":"bytes32"}],"outputs":[{"name":"endTime","type":"uint256","internalType":"uint256"},{"name":"isPeriodActive","type":"bool","internalType":"bool"}],"stateMutability":"view"},{"type":"function","name":"ticketOwnerVoteIndex","inputs":[{"name":"","type":"bytes32","internalType":"bytes32"},{"name":"","type":"address","internalType":"address"}],"outputs":[{"name":"","type":"uint256","internalType":"uint256"}],"stateMutability":"view"},{"type":"function","name":"transferOwnership","inputs":[{"name":"newOwner","type":"address","internalType":"address"}],"outputs":[],"stateMutability":"nonpayable"},{"type":"function","name":"upgradeToAndCall","inputs":[{"name":"newImplementation","type":"address","internalType":"address"},{"name":"data","type":"bytes","internalType":"bytes"}],"outputs":[],"stateMutability":"payable"},{"type":"function","name":"venueRegistryInstance","inputs":[],"outputs":[{"name":"","type":"address","internalType":"contract IVenueRegistry"}],"stateMutability":"view"},{"type":"function","name":"vote","inputs":[{"name":"showId","type":"bytes32","internalType":"bytes32"},{"name":"proposalIndex","type":"uint256","internalType":"uint256"}],"outputs":[],"stateMutability":"nonpayable"},{"type":"function","name":"voteForDate","inputs":[{"name":"showId","type":"bytes32","internalType":"bytes32"},{"name":"dateIndex","type":"uint256","internalType":"uint256"}],"outputs":[],"stateMutability":"nonpayable"},{"type":"function","name":"votingPeriods","inputs":[{"name":"","type":"bytes32","internalType":"bytes32"}],"outputs":[{"name":"endTime","type":"uint256","internalType":"uint256"},{"name":"isPeriodActive","type":"bool","internalType":"bool"}],"stateMutability":"view"},{"type":"event","name":"DateAccepted","inputs":[{"name":"showId","type":"bytes32","indexed":true,"internalType":"bytes32"},{"name":"dateIndex","type":"uint256","indexed":false,"internalType":"uint256"}],"anonymous":false},{"type":"event","name":"DateVoted","inputs":[{"name":"showId","type":"bytes32","indexed":true,"internalType":"bytes32"},{"name":"voter","type":"address","indexed":true,"internalType":"address"},{"name":"dateIndex","type":"uint256","indexed":false,"internalType":"uint256"}],"anonymous":false},{"type":"event","name":"Initialized","inputs":[{"name":"version","type":"uint64","indexed":false,"internalType":"uint64"}],"anonymous":false},{"type":"event","name":"OwnershipTransferred","inputs":[{"name":"previousOwner","type":"address","indexed":true,"internalType":"address"},{"name":"newOwner","type":"address","indexed":true,"internalType":"address"}],"anonymous":false},{"type":"event","name":"ProposalAccepted","inputs":[{"name":"showId","type":"bytes32","indexed":true,"internalType":"bytes32"},{"name":"proposalIndex","type":"uint256","indexed":false,"internalType":"uint256"}],"anonymous":false},{"type":"event","name":"ProposalPeriodStarted","inputs":[{"name":"showId","type":"bytes32","indexed":true,"internalType":"bytes32"},{"name":"endTime","type":"uint256","indexed":false,"internalType":"uint256"}],"anonymous":false},{"type":"event","name":"ProposalSubmitted","inputs":[{"name":"showId","type":"bytes32","indexed":true,"internalType":"bytes32"},{"name":"proposer","type":"address","indexed":true,"internalType":"address"},{"name":"venueName","type":"string","indexed":false,"internalType":"string"},{"name":"bribe","type":"uint256","indexed":false,"internalType":"uint256"}],"anonymous":false},{"type":"event","name":"ProposalVoted","inputs":[{"name":"showId","type":"bytes32","indexed":true,"internalType":"bytes32"},{"name":"voter","type":"address","indexed":true,"internalType":"address"},{"name":"proposalIndex","type":"uint256","indexed":false,"internalType":"uint256"}],"anonymous":false},{"type":"event","name":"PublicVotingPeriodStarted","inputs":[{"name":"showId","type":"bytes32","indexed":true,"internalType":"bytes32"},{"name":"endTime","type":"uint256","indexed":false,"internalType":"uint256"}],"anonymous":false},{"type":"event","name":"Upgraded","inputs":[{"name":"implementation","type":"address","indexed":true,"internalType":"address"}],"anonymous":false},{"type":"event","name":"VenueVoted","inputs":[{"name":"showId","type":"bytes32","indexed":true,"internalType":"bytes32"},{"name":"voter","type":"address","indexed":true,"internalType":"address"},{"name":"proposalIndex","type":"uint256","indexed":false,"internalType":"uint256"}],"anonymous":false},{"type":"error","name":"AddressEmptyCode","inputs":[{"name":"target","type":"address","internalType":"address"}]},{"type":"error","name":"ERC1967InvalidImplementation","inputs":[{"name":"implementation","type":"address","internalType":"address"}]},{"type":"error","name":"ERC1967NonPayable","inputs":[]},{"type":"error","name":"FailedInnerCall","inputs":[]},{"type":"error","name":"InvalidInitialization","inputs":[]},{"type":"error","name":"NotInitializing","inputs":[]},{"type":"error","name":"OwnableInvalidOwner","inputs":[{"name":"owner","type":"address","internalType":"address"}]},{"type":"error","name":"OwnableUnauthorizedAccount","inputs":[{"name":"account","type":"address","internalType":"address"}]},{"type":"error","name":"UUPSUnauthorizedCallContext","inputs":[]},{"type":"error","name":"UUPSUnsupportedProxiableUUID","inputs":[{"name":"slot","type":"bytes32","internalType":"bytes32"}]}],"bytecode":{"object":"0x60a06040523060805234801561001457600080fd5b5060805161446361003e6000396000818161280e01528181612837015261297d01526144636000f3fe6080604052600436106102ae5760003560e01c80638da5cb5b11610175578063c663df9c116100dc578063eef2813611610095578063f60eab041161006f578063f60eab0414610b35578063f92ad21914610b62578063f94976c014610b82578063fcd73bf814610bb957600080fd5b8063eef2813614610a7c578063f2fde38b14610ada578063f51bba8514610afa57600080fd5b8063c663df9c14610970578063d360fb5f1461099d578063d865ae3c146109d5578063e0174d7814610a02578063e9801fcb14610a2f578063ee6b8b2e14610a5c57600080fd5b8063aadc3b721161012e578063aadc3b721461080f578063ab07426f1461084a578063ad3cb1cc14610882578063b328da12146108c0578063bc3da5351461090c578063c15f6bd71461093957600080fd5b80638da5cb5b146106ef578063940fed201461072c578063960c8b451461076f5780639ef1204c146107a1578063a16026f4146107c1578063a3e24eef146107fc57600080fd5b80635a9d58411161021957806381cf3ab8116101d257806381cf3ab81461061157806384f3e62c1461063157806386de15eb14610669578063899a5ab71461067f5780638ab633801461069f5780638b79dbe1146106bf57600080fd5b80635a9d58411461056357806366582371146105795780636a017891146105a65780636d9be57f146105c6578063703ee4e5146105dc578063715018a6146105fc57600080fd5b80633d77f7eb1161026b5780633d77f7eb14610428578063404f49d11461045557806347cc60951461048d5780634de89286146104d05780634f1ef2861461053957806352d1902d1461054e57600080fd5b806303c22ec4146102b3578063043c97fa146102fc57806321e2c8cf1461033457806325d4e7e814610364578063398ac6c3146103aa5780633cc44e19146103f0575b600080fd5b3480156102bf57600080fd5b506102e96102ce3660046139f7565b6001600160a01b03166000908152600c602052604090205490565b6040519081526020015b60405180910390f35b34801561030857600080fd5b506102e9610317366004613a14565b600860209081526000928352604080842090915290825290205481565b34801561034057600080fd5b5061035461034f366004613a14565b610bcf565b60405190151581526020016102f3565b34801561037057600080fd5b5061035461037f366004613a14565b60009182526004602090815260408084206001600160a01b0393909316845291905290205460ff1690565b3480156103b657600080fd5b506103546103c5366004613a14565b60009182526002602090815260408084206001600160a01b0393909316845291905290205460ff1690565b3480156103fc57600080fd5b506102e961040b366004613a14565b600560209081526000928352604080842090915290825290205481565b34801561043457600080fd5b506102e9610443366004613a44565b60009081526001602052604090205490565b34801561046157600080fd5b50600f54610475906001600160a01b031681565b6040516001600160a01b0390911681526020016102f3565b34801561049957600080fd5b506102e96104a8366004613a14565b60009182526006602090815260408084206001600160a01b0393909316845291905290205490565b3480156104dc57600080fd5b5061052c6104eb366004613a44565b604080518082019091526000808252602082015250600090815260208181526040918290208251808401909352805483526001015460ff1615159082015290565b6040516102f39190613a5d565b61054c610547366004613b0e565b610bfc565b005b34801561055a57600080fd5b506102e9610c1b565b34801561056f57600080fd5b506102e960135481565b34801561058557600080fd5b506102e9610594366004613a44565b600b6020526000908152604090205481565b3480156105b257600080fd5b50601154610475906001600160a01b031681565b3480156105d257600080fd5b506102e960155481565b3480156105e857600080fd5b50601054610475906001600160a01b031681565b34801561060857600080fd5b5061054c610c38565b34801561061d57600080fd5b5061054c61062c366004613ba1565b610c4c565b34801561063d57600080fd5b506102e961064c366004613ba1565b600091825260076020908152604080842092845291905290205490565b34801561067557600080fd5b506102e960145481565b34801561068b57600080fd5b5061054c61069a366004613ba1565b611086565b3480156106ab57600080fd5b5061054c6106ba366004613bc3565b6113ee565b3480156106cb57600080fd5b506103546106da366004613a44565b600d6020526000908152604090205460ff1681565b3480156106fb57600080fd5b507f9016d09d72d40fdae2fd8ceac6b6234c7706214fd39c1cd1e609a0528c199300546001600160a01b0316610475565b34801561073857600080fd5b506102e9610747366004613a14565b60009182526008602090815260408084206001600160a01b0393909316845291905290205490565b34801561077b57600080fd5b5061078f61078a366004613ba1565b611538565b6040516102f396959493929190613ce5565b3480156107ad57600080fd5b5061054c6107bc366004613ba1565b6117b3565b3480156107cd57600080fd5b506103546107dc366004613a14565b600960209081526000928352604080842090915290825290205460ff1681565b61054c61080a366004613d32565b611c34565b34801561081b57600080fd5b5061035461082a366004613a14565b600260209081526000928352604080842090915290825290205460ff1681565b34801561085657600080fd5b506102e9610865366004613a14565b600660209081526000928352604080842090915290825290205481565b34801561088e57600080fd5b506108b3604051806040016040528060058152602001640352e302e360dc1b81525081565b6040516102f39190613dfe565b3480156108cc57600080fd5b506108f76108db366004613a44565b6000602081905290815260409020805460019091015460ff1682565b604080519283529015156020830152016102f3565b34801561091857600080fd5b506102e96109273660046139f7565b600c6020526000908152604090205481565b34801561094557600080fd5b506108f7610954366004613a44565b6003602052600090815260409020805460019091015460ff1682565b34801561097c57600080fd5b5061099061098b366004613ba1565b611da7565b6040516102f39190613ed3565b3480156109a957600080fd5b506102e96109b8366004613ba1565b600760209081526000928352604080842090915290825290205481565b3480156109e157600080fd5b506102e96109f0366004613a44565b600a6020526000908152604090205481565b348015610a0e57600080fd5b506102e9610a1d366004613a44565b6000908152600a602052604090205490565b348015610a3b57600080fd5b50610a4f610a4a366004613a44565b6120a6565b6040516102f39190613ee6565b348015610a6857600080fd5b5061054c610a77366004613ba1565b6123cd565b348015610a8857600080fd5b5061052c610a97366004613a44565b6040805180820190915260008082526020820152506000908152600360209081526040918290208251808401909352805483526001015460ff1615159082015290565b348015610ae657600080fd5b5061054c610af53660046139f7565b612695565b348015610b0657600080fd5b50610354610b15366004613a14565b600460209081526000928352604080842090915290825290205460ff1681565b348015610b4157600080fd5b506102e9610b50366004613a44565b6000908152600b602052604090205490565b348015610b6e57600080fd5b5061054c610b7d366004613f48565b6126d3565b348015610b8e57600080fd5b506108f7610b9d366004613a44565b600e602052600090815260409020805460019091015460ff1682565b348015610bc557600080fd5b506102e960125481565b60008281526009602090815260408083206001600160a01b038516845290915290205460ff165b92915050565b610c04612803565b610c0d826128a8565b610c1782826128b0565b5050565b6000610c25612972565b5060008051602061440e83398151915290565b610c406129bb565b610c4a6000612a16565b565b600f54604051632769b96d60e11b81523360048201526024810184905283916001600160a01b031690634ed372da90604401602060405180830381865afa158015610c9b573d6000803e3d6000fd5b505050506040513d601f19601f82011682018060405250810190610cbf9190613f8c565b80610d385750600f546040516302c9a8b560e01b8152336004820152602481018390526001600160a01b03909116906302c9a8b590604401602060405180830381865afa158015610d14573d6000803e3d6000fd5b505050506040513d601f19601f82011682018060405250810190610d389190613f8c565b610d6f5760405162461bcd60e51b815260206004820152600360248201526221617560e81b60448201526064015b60405180910390fd5b600083815260016020908152604080832054600b9092529091205410610de25760405162461bcd60e51b815260206004820152602260248201527f4e6f2073656c65637465642070726f706f73616c20666f7220746869732073686044820152616f7760f01b6064820152608401610d66565b6000838152600160209081526040808320600b9092529091205481548110610e0c57610e0c613fae565b90600052602060002090600d0201600801805490508210610e645760405162461bcd60e51b8152602060048201526012602482015271092dcecc2d8d2c840c8c2e8ca40d2dcc8caf60731b6044820152606401610d66565b60008381526020819052604090205415801590610e8e575060008381526020819052604090205442115b610eda5760405162461bcd60e51b815260206004820152601f60248201527f566f74696e6720706572696f6420686173206e6f7420656e64656420796574006044820152606401610d66565b600083815260096020908152604080832033808552908352818420548785526008845282852091855292529091205460ff90911690818015610f1c5750838114155b15610f4c5760008581526007602090815260408083208484529091528120805491610f4683613fda565b91905055505b60008581526007602090815260408083208784529091528120805491610f7183613ff1565b9091555050600085815260096020908152604080832033808552908352818420805460ff19166001179055888452600883528184208185528352928190208790555186815287917f9be4e7a28923fc7c16e20aa07e4d848cd6b3c9a28c315d27b3c51718cfd6ef59910160405180910390a3600f5460405163217fe85b60e21b8152600481018790526000916001600160a01b0316906385ffa16c90602401602060405180830381865afa15801561102d573d6000803e3d6000fd5b505050506040513d601f19601f82011682018060405250810190611051919061400a565b6000878152600760209081526040808320898452909152902054909150811161107e5761107e8686612a87565b505050505050565b600f546001600160a01b031633146110c55760405162461bcd60e51b8152602060048201526002602482015261217360f01b6044820152606401610d66565b60008281526001602052604090205481106110f25760405162461bcd60e51b8152600401610d6690614023565b600082815260016020526040812080548390811061111257611112613fae565b90600052602060002090600d02016040518060e0016040529081600082016040518060e00160405290816000820154815260200160018201805461115590614053565b80601f016020809104026020016040519081016040528092919081815260200182805461118190614053565b80156111ce5780601f106111a3576101008083540402835291602001916111ce565b820191906000526020600020905b8154815290600101906020018083116111b157829003601f168201915b505050505081526020016002820180546111e790614053565b80601f016020809104026020016040519081016040528092919081815260200182805461121390614053565b80156112605780601f1061123557610100808354040283529160200191611260565b820191906000526020600020905b81548152906001019060200180831161124357829003601f168201915b505050918352505060038201546001600160a01b031660208083019190915260408051808201825260048501548152600585015492810192909252820152600682015460608201526007820180546080909201916112bd90614053565b80601f01602080910402602001604051908101604052809291908181526020018280546112e990614053565b80156113365780601f1061130b57610100808354040283529160200191611336565b820191906000526020600020905b81548152906001019060200180831161131957829003601f168201915b50505050508152505081526020016008820180548060200260200160405190810160405280929190818152602001828054801561139257602002820191906000526020600020905b81548152602001906001019080831161137e575b505050918352505060098201546001600160a01b039081166020830152600a8301546040830152600b830154606080840191909152600c9093015460ff81161515608084015261010090041660a0909101526000910152505050565b600f546001600160a01b0316156114475760405162461bcd60e51b815260206004820152601960248201527f53686f7720636f6e747261637420616c726561647920736574000000000000006044820152606401610d66565b6010546001600160a01b0316156114a05760405162461bcd60e51b815260206004820152601a60248201527f56656e756520726567697374727920616c7265616479207365740000000000006044820152606401610d66565b6011546001600160a01b0316156114f95760405162461bcd60e51b815260206004820152601e60248201527f53686f775661756c7420726567697374727920616c72656164792073657400006044820152606401610d66565b600f80546001600160a01b039485166001600160a01b031991821617909155601080549285169282169290921790915560118054929093169116179055565b6001602052816000526040600020818154811061155457600080fd5b90600052602060002090600d020160009150915050806000016040518060e00160405290816000820154815260200160018201805461159290614053565b80601f01602080910402602001604051908101604052809291908181526020018280546115be90614053565b801561160b5780601f106115e05761010080835404028352916020019161160b565b820191906000526020600020905b8154815290600101906020018083116115ee57829003601f168201915b5050505050815260200160028201805461162490614053565b80601f016020809104026020016040519081016040528092919081815260200182805461165090614053565b801561169d5780601f106116725761010080835404028352916020019161169d565b820191906000526020600020905b81548152906001019060200180831161168057829003601f168201915b505050918352505060038201546001600160a01b031660208083019190915260408051808201825260048501548152600585015492810192909252820152600682015460608201526007820180546080909201916116fa90614053565b80601f016020809104026020016040519081016040528092919081815260200182805461172690614053565b80156117735780601f1061174857610100808354040283529160200191611773565b820191906000526020600020905b81548152906001019060200180831161175657829003601f168201915b505050919092525050506009820154600a830154600b840154600c9094015492936001600160a01b03928316939192909160ff8116916101009091041686565b600f54604051632769b96d60e11b81523360048201526024810184905283916001600160a01b031690634ed372da90604401602060405180830381865afa158015611802573d6000803e3d6000fd5b505050506040513d601f19601f820116820180604052508101906118269190613f8c565b8061189f5750600f546040516302c9a8b560e01b8152336004820152602481018390526001600160a01b03909116906302c9a8b590604401602060405180830381865afa15801561187b573d6000803e3d6000fd5b505050506040513d601f19601f8201168201806040525081019061189f9190613f8c565b6118d15760405162461bcd60e51b815260206004820152600360248201526221617560e81b6044820152606401610d66565b60008381526001602052604090205482106118fe5760405162461bcd60e51b8152600401610d6690614023565b60008381526020819052604090205415801590611928575060008381526020819052604090205442115b6119745760405162461bcd60e51b815260206004820152601f60248201527f566f74696e6720706572696f6420686173206e6f7420656e64656420796574006044820152606401610d66565b6000838152600d602052604090205460ff16158061199f57506000838152600e602052604090205442115b611a025760405162461bcd60e51b815260206004820152602e60248201527f5469636b657420686f6c64657220766f74696e67207068617365206d7573742060448201526d18dbdb98db1d591948199a5c9cdd60921b6064820152608401610d66565b600083815260026020908152604080832033808552908352818420548785526006845282852091855292529091205460ff909116908115611ad057838103611a8c5760405162461bcd60e51b815260206004820152601c60248201527f416c726561647920766f74656420666f7220746869732076656e7565000000006044820152606401610d66565b6000858152600160205260409020805482908110611aac57611aac613fae565b600091825260208220600b600d9092020101805491611aca83613fda565b91905055505b6000858152600160205260409020805485908110611af057611af0613fae565b600091825260208220600b600d9092020101805491611b0e83613ff1565b9091555050600085815260026020908152604080832033808552908352818420805460ff19166001179055888452600683528184208185528352928190208790555186815287917f09e638baf0aa9cdb2a3233767bf1f976e138af255c4da751ab01215f4c96f2b0910160405180910390a3600f5460405163217fe85b60e21b8152600481018790526000916001600160a01b0316906385ffa16c90602401602060405180830381865afa158015611bca573d6000803e3d6000fd5b505050506040513d601f19601f82011682018060405250810190611bee919061400a565b60008781526001602052604090208054919250829187908110611c1357611c13613fae565b90600052602060002090600d0201600b01541061107e5761107e8686612bfd565b6010546040516304d2518160e11b81523360048201526001600160a01b03909116906309a4a30290602401602060405180830381865afa158015611c7c573d6000803e3d6000fd5b505050506040513d601f19601f82011682018060405250810190611ca09190613f8c565b611ce35760405162461bcd60e51b815260206004820152601460248201527315995b9d59481b9bdd081c9959da5cdd195c995960621b6044820152606401610d66565b611ced8483612fcf565b60008481526020819052604090206001015460ff16611d0f57611d0f84613167565b611d1884613224565b601054604051633a7f44d360e01b8152600481018590526000916001600160a01b031690633a7f44d390602401600060405180830381865afa158015611d62573d6000803e3d6000fd5b505050506040513d6000823e601f3d908101601f19168201604052611d8a9190810190614134565b90506000611d98868461326f565b905061107e86838684876134b2565b611daf6138ba565b6000838152600160205260409020805483908110611dcf57611dcf613fae565b90600052602060002090600d02016040518060e0016040529081600082016040518060e001604052908160008201548152602001600182018054611e1290614053565b80601f0160208091040260200160405190810160405280929190818152602001828054611e3e90614053565b8015611e8b5780601f10611e6057610100808354040283529160200191611e8b565b820191906000526020600020905b815481529060010190602001808311611e6e57829003601f168201915b50505050508152602001600282018054611ea490614053565b80601f0160208091040260200160405190810160405280929190818152602001828054611ed090614053565b8015611f1d5780601f10611ef257610100808354040283529160200191611f1d565b820191906000526020600020905b815481529060010190602001808311611f0057829003601f168201915b505050918352505060038201546001600160a01b03166020808301919091526040805180820182526004850154815260058501549281019290925282015260068201546060820152600782018054608090920191611f7a90614053565b80601f0160208091040260200160405190810160405280929190818152602001828054611fa690614053565b8015611ff35780601f10611fc857610100808354040283529160200191611ff3565b820191906000526020600020905b815481529060010190602001808311611fd657829003601f168201915b50505050508152505081526020016008820180548060200260200160405190810160405280929190818152602001828054801561204f57602002820191906000526020600020905b81548152602001906001019080831161203b575b505050918352505060098201546001600160a01b039081166020830152600a8301546040830152600b8301546060830152600c9092015460ff811615156080830152610100900490911660a0909101529392505050565b606060016000838152602001908152602001600020805480602002602001604051908101604052809291908181526020016000905b828210156123c257600084815260209020604080516101c08101909152600d8402909101805460e0830190815260018201805484929184916101008501919061212390614053565b80601f016020809104026020016040519081016040528092919081815260200182805461214f90614053565b801561219c5780601f106121715761010080835404028352916020019161219c565b820191906000526020600020905b81548152906001019060200180831161217f57829003601f168201915b505050505081526020016002820180546121b590614053565b80601f01602080910402602001604051908101604052809291908181526020018280546121e190614053565b801561222e5780601f106122035761010080835404028352916020019161222e565b820191906000526020600020905b81548152906001019060200180831161221157829003601f168201915b505050918352505060038201546001600160a01b0316602080830191909152604080518082018252600485015481526005850154928101929092528201526006820154606082015260078201805460809092019161228b90614053565b80601f01602080910402602001604051908101604052809291908181526020018280546122b790614053565b80156123045780601f106122d957610100808354040283529160200191612304565b820191906000526020600020905b8154815290600101906020018083116122e757829003601f168201915b50505050508152505081526020016008820180548060200260200160405190810160405280929190818152602001828054801561236057602002820191906000526020600020905b81548152602001906001019080831161234c575b505050918352505060098201546001600160a01b03908116602080840191909152600a8401546040840152600b8401546060840152600c9093015460ff81161515608084015261010090041660a09091015290825260019290920191016120db565b505050509050919050565b600f54604051635c37da6960e01b8152336004820152602481018490526001600160a01b0390911690635c37da6990604401602060405180830381865afa15801561241c573d6000803e3d6000fd5b505050506040513d601f19601f820116820180604052508101906124409190613f8c565b6124815760405162461bcd60e51b81526020600482015260126024820152712737ba1030903a34b1b5b2ba1037bbb732b960711b6044820152606401610d66565b6000828152602081905260409020544211156124df5760405162461bcd60e51b815260206004820152601960248201527f50726f706f73616c20706572696f642068617320656e646564000000000000006044820152606401610d66565b600082815260016020526040902054811061250c5760405162461bcd60e51b8152600401610d6690614023565b600082815260046020908152604080832033845290915290205460ff16156125e15760008281526005602090815260408083203384529091529020548181036125975760405162461bcd60e51b815260206004820152601f60248201527f416c726561647920766f74656420666f7220746869732070726f706f73616c006044820152606401610d66565b60008381526001602081905260409091208054839081106125ba576125ba613fae565b90600052602060002090600d0201600b0160008282546125da9190614221565b9091555050505b600082815260016020526040902080548290811061260157612601613fae565b600091825260208220600b600d909202010180549161261f83613ff1565b909155505060008281526005602090815260408083203380855290835281842085905585845260048352818420818552835292819020805460ff191660011790555183815284917f37b8aa4050778a896e18d9773bb81d7a680a33f4b9232d489a3541a7a95c8350910160405180910390a35050565b61269d6129bb565b6001600160a01b0381166126c757604051631e4fbdf760e01b815260006004820152602401610d66565b6126d081612a16565b50565b7ff0c57e16840df040f15088dc2f81fe391c3923bec73e23a9662efc9c229c6a008054600160401b810460ff16159067ffffffffffffffff166000811580156127195750825b905060008267ffffffffffffffff1660011480156127365750303b155b905081158015612744575080155b156127625760405163f92ee8a960e01b815260040160405180910390fd5b845467ffffffffffffffff19166001178555831561278c57845460ff60401b1916600160401b1785555b6127958a613680565b61279d613691565b601289905560138890556014879055601586905583156127f757845460ff60401b19168555604051600181527fc7f505b2f371ae2175ee4913f4499e1f2633a7b5936321eed1cdaeb6115181d29060200160405180910390a15b50505050505050505050565b306001600160a01b037f000000000000000000000000000000000000000000000000000000000000000016148061288a57507f00000000000000000000000000000000000000000000000000000000000000006001600160a01b031661287e60008051602061440e833981519152546001600160a01b031690565b6001600160a01b031614155b15610c4a5760405163703e46dd60e11b815260040160405180910390fd5b6126d06129bb565b816001600160a01b03166352d1902d6040518163ffffffff1660e01b8152600401602060405180830381865afa92505050801561290a575060408051601f3d908101601f191682019092526129079181019061400a565b60015b61293257604051634c9c8ce360e01b81526001600160a01b0383166004820152602401610d66565b60008051602061440e833981519152811461296357604051632a87526960e21b815260048101829052602401610d66565b61296d8383613699565b505050565b306001600160a01b037f00000000000000000000000000000000000000000000000000000000000000001614610c4a5760405163703e46dd60e11b815260040160405180910390fd5b336129ed7f9016d09d72d40fdae2fd8ceac6b6234c7706214fd39c1cd1e609a0528c199300546001600160a01b031690565b6001600160a01b031614610c4a5760405163118cdaa760e01b8152336004820152602401610d66565b7f9016d09d72d40fdae2fd8ceac6b6234c7706214fd39c1cd1e609a0528c19930080546001600160a01b031981166001600160a01b03848116918217845560405192169182907f8be0079c531659141344cd1fd0a4f28419497f9722a3daafe3b4186f6b6457e090600090a3505050565b6000828152600160209081526040808320600b90925282205481548110612ab057612ab0613fae565b90600052602060002090600d02016008018281548110612ad257612ad2613fae565b600091825260208083209190910154858352600a909152604091829020819055600f549151633256b66b60e11b815260048101869052602481018290529092506001600160a01b03909116906364ad6cd690604401600060405180830381600087803b158015612b4157600080fd5b505af1158015612b55573d6000803e3d6000fd5b50505050827f30f427038b9903ed0be3f545ee5d678ba47d53ce2ffe77eb1eccbde089ec207d82604051612b8b91815260200190565b60405180910390a2600f5460405163054372ed60e01b81526001600160a01b039091169063054372ed90612bc690869060039060040161424a565b600060405180830381600087803b158015612be057600080fd5b505af1158015612bf4573d6000803e3d6000fd5b50505050505050565b6000828152600160205260409020548110612c2a5760405162461bcd60e51b8152600401610d6690614023565b6000828152600160205260408120805483908110612c4a57612c4a613fae565b90600052602060002090600d02016000016040518060e001604052908160008201548152602001600182018054612c8090614053565b80601f0160208091040260200160405190810160405280929190818152602001828054612cac90614053565b8015612cf95780601f10612cce57610100808354040283529160200191612cf9565b820191906000526020600020905b815481529060010190602001808311612cdc57829003601f168201915b50505050508152602001600282018054612d1290614053565b80601f0160208091040260200160405190810160405280929190818152602001828054612d3e90614053565b8015612d8b5780601f10612d6057610100808354040283529160200191612d8b565b820191906000526020600020905b815481529060010190602001808311612d6e57829003601f168201915b505050918352505060038201546001600160a01b03166020808301919091526040805180820182526004850154815260058501549281019290925282015260068201546060820152600782018054608090920191612de890614053565b80601f0160208091040260200160405190810160405280929190818152602001828054612e1490614053565b8015612e615780601f10612e3657610100808354040283529160200191612e61565b820191906000526020600020905b815481529060010190602001808311612e4457829003601f168201915b505050505081525050905060018060008581526020019081526020016000208381548110612e9157612e91613fae565b60009182526020808320600d92909202909101600c01805460ff191693151593909317909255848152600b909152604090819020839055600f54905163054372ed60e01b81526001600160a01b039091169063054372ed90612efa90869060029060040161424a565b600060405180830381600087803b158015612f1457600080fd5b505af1158015612f28573d6000803e3d6000fd5b5050600f5460405163a94dafab60e01b81526001600160a01b03909116925063a94dafab9150612f5e908690859060040161427c565b600060405180830381600087803b158015612f7857600080fd5b505af1158015612f8c573d6000803e3d6000fd5b50505050827fa4cdb24ce3dbadfa51e723cabdbbd7124e6b55e68a4b41d3eb42a00d144eefe383604051612fc291815260200190565b60405180910390a2505050565b600f546040516346c2c8a760e01b8152600481018490526001916001600160a01b0316906346c2c8a790602401602060405180830381865afa158015613019573d6000803e3d6000fd5b505050506040513d601f19601f8201168201806040525081019061303d9190614295565b600781111561304e5761304e614234565b1461309b5760405162461bcd60e51b815260206004820152601d60248201527f53686f77206e6f7420696e2027536f6c64204f757427207374617475730000006044820152606401610d66565b60008281526020819052604090205415806130c457506000828152602081905260409020544211155b6131085760405162461bcd60e51b8152602060048201526015602482015274141c9bdc1bdcd85b081c195c9a5bd908195b991959605a1b6044820152606401610d66565b6000815111801561311b57506005815111155b610c175760405162461bcd60e51b815260206004820181905260248201527f496e76616c6964206e756d626572206f662070726f706f7365642064617465736044820152606401610d66565b60008181526020819052604090206001908101805460ff1916909117905560125461319290426142b6565b600082815260208181526040808320938455600d82528083208054600160ff1991821681179092558251808401845286548152808501838152888752600e86528487209151825551920180549091169115159190911790559181529154905190815282917fbe893194ee9c4752250e88ba9de293863b73822c4663c78d6cad1f9aa7d91cdc910160405180910390a250565b6015546000828152602081905260409020546132409190614221565b42106126d057601354600082815260208190526040812080549091906132679084906142b6565b909155505050565b6000346001600160a01b0383166132ec5734156132e757601154604051638526663560e01b8152600481018690526001600160a01b039091169063852666359034906024016000604051808303818588803b1580156132cd57600080fd5b505af11580156132e1573d6000803e3d6000fd5b50505050505b6134ab565b34156133455760405162461bcd60e51b815260206004820152602260248201527f446f206e6f742073656e64204554482077697468204552433230207061796d656044820152611b9d60f21b6064820152608401610d66565b604051636eb1769f60e11b815233600482015230602482015283906001600160a01b0382169063dd62ed3e90604401602060405180830381865afa158015613391573d6000803e3d6000fd5b505050506040513d601f19601f820116820180604052508101906133b5919061400a565b915081156134a9576040516323b872dd60e01b8152336004820152306024820152604481018390526001600160a01b038216906323b872dd906064016020604051808303816000875af1158015613410573d6000803e3d6000fd5b505050506040513d601f19601f820116820180604052508101906134349190613f8c565b50601154604051635412233f60e01b815260048101879052602481018490526001600160a01b03868116604483015233606483015290911690635412233f90608401600060405180830381600087803b15801561349057600080fd5b505af11580156134a4573d6000803e3d6000fd5b505050505b505b9392505050565b6040805160e081018252858152602080820186905233828401526060820185905260006080830181905260a083018190526001600160a01b03851660c08401528881526001808352938120805480860182559082529082902083518051600d90930290910191825591820151929384939192918391820190613534908261430f565b5060408201516002820190613549908261430f565b5060608201516003820180546001600160a01b0319166001600160a01b0390921691909117905560808201518051600483015560200151600582015560a0820151600682015560c082015160078201906135a3908261430f565b50505060208281015180516135be9260088501920190613911565b506040828101516009830180546001600160a01b0319166001600160a01b039283161790556060840151600a8401556080840151600b84015560a0840151600c909301805460c0909501516001600160a81b0319909516931515610100600160a81b03191693909317610100949091169390930292909217905560208601519051339188917f594a9595007bad040e875758ab9d42df126f77d067b240282de66c3d36c74ffe916136709188906143cf565b60405180910390a3505050505050565b6136886136ef565b6126d081613738565b610c4a6136ef565b6136a282613740565b6040516001600160a01b038316907fbc7cd75a20ee27fd9adebab32041f755214dbc6bffa90cc0225b39da2e5c2d3b90600090a28051156136e75761296d82826137a5565b610c1761381b565b7ff0c57e16840df040f15088dc2f81fe391c3923bec73e23a9662efc9c229c6a0054600160401b900460ff16610c4a57604051631afcd79f60e31b815260040160405180910390fd5b61269d6136ef565b806001600160a01b03163b60000361377657604051634c9c8ce360e01b81526001600160a01b0382166004820152602401610d66565b60008051602061440e83398151915280546001600160a01b0319166001600160a01b0392909216919091179055565b6060600080846001600160a01b0316846040516137c291906143f1565b600060405180830381855af49150503d80600081146137fd576040519150601f19603f3d011682016040523d82523d6000602084013e613802565b606091505b509150915061381285838361383a565b95945050505050565b3415610c4a5760405163b398979f60e01b815260040160405180910390fd5b60608261384a576132e782613891565b815115801561386157506001600160a01b0384163b155b1561388a57604051639996b31560e01b81526001600160a01b0385166004820152602401610d66565b5092915050565b8051156138a15780518082602001fd5b604051630a12f52160e11b815260040160405180910390fd5b6040518060e001604052806138cd61395c565b81526020016060815260200160006001600160a01b03168152602001600081526020016000815260200160001515815260200160006001600160a01b031681525090565b82805482825590600052602060002090810192821561394c579160200282015b8281111561394c578251825591602001919060010190613931565b506139589291506139bd565b5090565b6040518060e0016040528060008152602001606081526020016060815260200160006001600160a01b031681526020016139a9604051806040016040528060008152602001600081525090565b815260200160008152602001606081525090565b5b8082111561395857600081556001016139be565b6001600160a01b03811681146126d057600080fd5b80356139f2816139d2565b919050565b600060208284031215613a0957600080fd5b81356134ab816139d2565b60008060408385031215613a2757600080fd5b823591506020830135613a39816139d2565b809150509250929050565b600060208284031215613a5657600080fd5b5035919050565b8151815260208083015115159082015260408101610bf6565b634e487b7160e01b600052604160045260246000fd5b60405160e0810167ffffffffffffffff81118282101715613aaf57613aaf613a76565b60405290565b604051601f8201601f1916810167ffffffffffffffff81118282101715613ade57613ade613a76565b604052919050565b600067ffffffffffffffff821115613b0057613b00613a76565b50601f01601f191660200190565b60008060408385031215613b2157600080fd5b8235613b2c816139d2565b9150602083013567ffffffffffffffff811115613b4857600080fd5b8301601f81018513613b5957600080fd5b8035613b6c613b6782613ae6565b613ab5565b818152866020838501011115613b8157600080fd5b816020840160208301376000602083830101528093505050509250929050565b60008060408385031215613bb457600080fd5b50508035926020909101359150565b600080600060608486031215613bd857600080fd5b8335613be3816139d2565b92506020840135613bf3816139d2565b91506040840135613c03816139d2565b809150509250925092565b60005b83811015613c29578181015183820152602001613c11565b50506000910152565b60008151808452613c4a816020860160208601613c0e565b601f01601f19169290920160200192915050565b6000610100825184526020830151816020860152613c7e82860182613c32565b91505060408301518482036040860152613c988282613c32565b91505060018060a01b036060840151166060850152608083015180516080860152602081015160a08601525060a083015160c085015260c083015184820360e08601526138128282613c32565b60c081526000613cf860c0830189613c5e565b6001600160a01b0397881660208401526040830196909652506060810193909352901515608083015290921660a090920191909152919050565b60008060008060808587031215613d4857600080fd5b843593506020808601359350604086013567ffffffffffffffff80821115613d6f57600080fd5b818801915088601f830112613d8357600080fd5b813581811115613d9557613d95613a76565b8060051b9150613da6848301613ab5565b818152918301840191848101908b841115613dc057600080fd5b938501935b83851015613dde57843582529385019390850190613dc5565b809750505050505050613df3606086016139e7565b905092959194509250565b6020815260006134ab6020830184613c32565b6000815160e08452613e2660e0850182613c5e565b60208481015186830387830152805180845290820193509091600091908301905b80831015613e675784518252938301936001929092019190830190613e47565b5060408601519350613e8460408801856001600160a01b03169052565b606086015160608801526080860151608088015260a08601519350613ead60a088018515159052565b60c08601519350613ec960c08801856001600160a01b03169052565b9695505050505050565b6020815260006134ab6020830184613e11565b6000602080830181845280855180835260408601915060408160051b870101925083870160005b82811015613f3b57603f19888603018452613f29858351613e11565b94509285019290850190600101613f0d565b5092979650505050505050565b600080600080600060a08688031215613f6057600080fd5b8535613f6b816139d2565b97602087013597506040870135966060810135965060800135945092505050565b600060208284031215613f9e57600080fd5b815180151581146134ab57600080fd5b634e487b7160e01b600052603260045260246000fd5b634e487b7160e01b600052601160045260246000fd5b600081613fe957613fe9613fc4565b506000190190565b60006001820161400357614003613fc4565b5060010190565b60006020828403121561401c57600080fd5b5051919050565b602080825260169082015275092dcecc2d8d2c840e0e4dee0dee6c2d840d2dcc8caf60531b604082015260600190565b600181811c9082168061406757607f821691505b60208210810361408757634e487b7160e01b600052602260045260246000fd5b50919050565b600082601f83011261409e57600080fd5b81516140ac613b6782613ae6565b8181528460208386010111156140c157600080fd5b6140d2826020830160208701613c0e565b949350505050565b80516139f2816139d2565b6000604082840312156140f757600080fd5b6040516040810181811067ffffffffffffffff8211171561411a5761411a613a76565b604052825181526020928301519281019290925250919050565b60006020828403121561414657600080fd5b815167ffffffffffffffff8082111561415e57600080fd5b90830190610100828603121561417357600080fd5b61417b613a8c565b8251815260208301518281111561419157600080fd5b61419d8782860161408d565b6020830152506040830151828111156141b557600080fd5b6141c18782860161408d565b6040830152506141d3606084016140da565b60608201526141e586608085016140e5565b608082015260c083015160a082015260e08301518281111561420657600080fd5b6142128782860161408d565b60c08301525095945050505050565b81810381811115610bf657610bf6613fc4565b634e487b7160e01b600052602160045260246000fd5b828152604081016008831061426f57634e487b7160e01b600052602160045260246000fd5b8260208301529392505050565b8281526040602082015260006140d26040830184613c5e565b6000602082840312156142a757600080fd5b8151600881106134ab57600080fd5b80820180821115610bf657610bf6613fc4565b601f82111561296d57600081815260208120601f850160051c810160208610156142f05750805b601f850160051c820191505b8181101561107e578281556001016142fc565b815167ffffffffffffffff81111561432957614329613a76565b61433d816143378454614053565b846142c9565b602080601f831160018114614372576000841561435a5750858301515b600019600386901b1c1916600185901b17855561107e565b600085815260208120601f198616915b828110156143a157888601518255948401946001909101908401614382565b50858210156143bf5787850151600019600388901b60f8161c191681555b5050505050600190811b01905550565b6040815260006143e26040830185613c32565b90508260208301529392505050565b60008251614403818460208701613c0e565b919091019291505056fe360894a13ba1a3210667c828492db98dca3e2076cc3735a920a3ca505d382bbca26469706673582212201e2caa92afef2dee437589526fdac2311d96a4a9cfa166e462c9e83668f1094b64736f6c63430008140033","linkReferences":{}},"methodIdentifiers":{"UPGRADE_INTERFACE_VERSION()":"ad3cb1cc","dateVotes(bytes32,uint256)":"d360fb5f","getDateVotes(bytes32,uint256)":"84f3e62c","getHasDateVoted(bytes32,address)":"21e2c8cf","getHasTicketOwnerVoted(bytes32,address)":"25d4e7e8","getHasVoted(bytes32,address)":"398ac6c3","getPreviousDateVote(bytes32,address)":"940fed20","getPreviousVote(bytes32,address)":"47cc6095","getProposal(bytes32,uint256)":"c663df9c","getProposalPeriod(bytes32)":"4de89286","getProposalsCount(bytes32)":"3d77f7eb","getRefunds(address)":"03c22ec4","getSelectedDate(bytes32)":"e0174d78","getSelectedProposalIndex(bytes32)":"f60eab04","getShowProposals(bytes32)":"e9801fcb","getVotingPeriods(bytes32)":"eef28136","hasDateVoted(bytes32,address)":"a16026f4","hasTicketOwnerVoted(bytes32,address)":"f51bba85","hasVoted(bytes32,address)":"aadc3b72","initialize(address,uint256,uint256,uint256,uint256)":"f92ad219","owner()":"8da5cb5b","previousDateVote(bytes32,address)":"043c97fa","previousVote(bytes32,address)":"ab07426f","proposalDateExtension()":"5a9d5841","proposalDateMinimumFuture()":"86de15eb","proposalPeriod(bytes32)":"b328da12","proposalPeriodDuration()":"fcd73bf8","proposalPeriodExtensionThreshold()":"6d9be57f","proxiableUUID()":"52d1902d","refunds(address)":"bc3da535","renounceOwnership()":"715018a6","resetBribe(bytes32,uint256)":"899a5ab7","selectedDate(bytes32)":"d865ae3c","selectedProposalIndex(bytes32)":"66582371","setContractAddresses(address,address,address)":"8ab63380","showInstance()":"404f49d1","showProposals(bytes32,uint256)":"960c8b45","showVaultInstance()":"6a017891","submitProposal(bytes32,uint256,uint256[],address)":"a3e24eef","ticketHolderVenueVote(bytes32,uint256)":"ee6b8b2e","ticketHolderVotingActive(bytes32)":"8b79dbe1","ticketHolderVotingPeriods(bytes32)":"f94976c0","ticketOwnerVoteIndex(bytes32,address)":"3cc44e19","transferOwnership(address)":"f2fde38b","upgradeToAndCall(address,bytes)":"4f1ef286","venueRegistryInstance()":"703ee4e5","vote(bytes32,uint256)":"9ef1204c","voteForDate(bytes32,uint256)":"81cf3ab8","votingPeriods(bytes32)":"c15f6bd7"},"id":81}