{"abi":[{"type":"function","name":"UPGRADE_INTERFACE_VERSION","inputs":[],"outputs":[{"name":"","type":"string","internalType":"string"}],"stateMutability":"view"},{"type":"function","name":"acceptNomination","inputs":[{"name":"_name","type":"string","internalType":"string"},{"name":"_bio","type":"string","internalType":"string"},{"name":"_latitude","type":"int256","internalType":"int256"},{"name":"_longitude","type":"int256","internalType":"int256"},{"name":"_totalCapacity","type":"uint256","internalType":"uint256"},{"name":"_streetAddress","type":"string","internalType":"string"}],"outputs":[],"stateMutability":"nonpayable"},{"type":"function","name":"balanceOf","inputs":[{"name":"account","type":"address","internalType":"address"},{"name":"id","type":"uint256","internalType":"uint256"}],"outputs":[{"name":"","type":"uint256","internalType":"uint256"}],"stateMutability":"view"},{"type":"function","name":"balanceOfBatch","inputs":[{"name":"accounts","type":"address[]","internalType":"address[]"},{"name":"ids","type":"uint256[]","internalType":"uint256[]"}],"outputs":[{"name":"","type":"uint256[]","internalType":"uint256[]"}],"stateMutability":"view"},{"type":"function","name":"contractURI","inputs":[],"outputs":[{"name":"","type":"string","internalType":"string"}],"stateMutability":"view"},{"type":"function","name":"deregisterVenue","inputs":[{"name":"_venueId","type":"uint256","internalType":"uint256"}],"outputs":[],"stateMutability":"nonpayable"},{"type":"function","name":"getVenue","inputs":[{"name":"venueAddress","type":"address","internalType":"address"}],"outputs":[{"name":"venueId","type":"uint256","internalType":"uint256"},{"name":"name","type":"string","internalType":"string"},{"name":"bio","type":"string","internalType":"string"},{"name":"wallet","type":"address","internalType":"address"},{"name":"latitude","type":"int256","internalType":"int256"},{"name":"longitude","type":"int256","internalType":"int256"},{"name":"totalCapacity","type":"uint256","internalType":"uint256"},{"name":"streetAddress","type":"string","internalType":"string"}],"stateMutability":"view"},{"type":"function","name":"getVenueById","inputs":[{"name":"venueId","type":"uint256","internalType":"uint256"}],"outputs":[{"name":"","type":"tuple","internalType":"struct VenueRegistryTypes.VenueInfo","components":[{"name":"venueId","type":"uint256","internalType":"uint256"},{"name":"name","type":"string","internalType":"string"},{"name":"bio","type":"string","internalType":"string"},{"name":"wallet","type":"address","internalType":"address"},{"name":"coordinates","type":"tuple","internalType":"struct VenueRegistryTypes.Coordinates","components":[{"name":"latitude","type":"int256","internalType":"int256"},{"name":"longitude","type":"int256","internalType":"int256"}]},{"name":"totalCapacity","type":"uint256","internalType":"uint256"},{"name":"streetAddress","type":"string","internalType":"string"}]}],"stateMutability":"view"},{"type":"function","name":"initialize","inputs":[{"name":"initialOwner","type":"address","internalType":"address"},{"name":"_referralModuleAddress","type":"address","internalType":"address"}],"outputs":[],"stateMutability":"nonpayable"},{"type":"function","name":"isApprovedForAll","inputs":[{"name":"account","type":"address","internalType":"address"},{"name":"operator","type":"address","internalType":"address"}],"outputs":[{"name":"","type":"bool","internalType":"bool"}],"stateMutability":"view"},{"type":"function","name":"isVenueRegistered","inputs":[{"name":"venueAddress","type":"address","internalType":"address"}],"outputs":[{"name":"isRegistered","type":"bool","internalType":"bool"}],"stateMutability":"view"},{"type":"function","name":"nominate","inputs":[{"name":"nominee","type":"address","internalType":"address"}],"outputs":[],"stateMutability":"nonpayable"},{"type":"function","name":"nominatedVenues","inputs":[{"name":"","type":"address","internalType":"address"}],"outputs":[{"name":"","type":"bool","internalType":"bool"}],"stateMutability":"view"},{"type":"function","name":"owner","inputs":[],"outputs":[{"name":"","type":"address","internalType":"address"}],"stateMutability":"view"},{"type":"function","name":"proxiableUUID","inputs":[],"outputs":[{"name":"","type":"bytes32","internalType":"bytes32"}],"stateMutability":"view"},{"type":"function","name":"renounceOwnership","inputs":[],"outputs":[],"stateMutability":"nonpayable"},{"type":"function","name":"safeBatchTransferFrom","inputs":[{"name":"from","type":"address","internalType":"address"},{"name":"to","type":"address","internalType":"address"},{"name":"ids","type":"uint256[]","internalType":"uint256[]"},{"name":"values","type":"uint256[]","internalType":"uint256[]"},{"name":"data","type":"bytes","internalType":"bytes"}],"outputs":[],"stateMutability":"nonpayable"},{"type":"function","name":"safeTransferFrom","inputs":[{"name":"from","type":"address","internalType":"address"},{"name":"to","type":"address","internalType":"address"},{"name":"id","type":"uint256","internalType":"uint256"},{"name":"value","type":"uint256","internalType":"uint256"},{"name":"data","type":"bytes","internalType":"bytes"}],"outputs":[],"stateMutability":"nonpayable"},{"type":"function","name":"setApprovalForAll","inputs":[{"name":"operator","type":"address","internalType":"address"},{"name":"approved","type":"bool","internalType":"bool"}],"outputs":[],"stateMutability":"nonpayable"},{"type":"function","name":"setContractURI","inputs":[{"name":"newURI","type":"string","internalType":"string"}],"outputs":[],"stateMutability":"nonpayable"},{"type":"function","name":"setTokenURI","inputs":[{"name":"tokenId","type":"uint256","internalType":"uint256"},{"name":"newURI","type":"string","internalType":"string"}],"outputs":[],"stateMutability":"nonpayable"},{"type":"function","name":"supportsInterface","inputs":[{"name":"interfaceId","type":"bytes4","internalType":"bytes4"}],"outputs":[{"name":"","type":"bool","internalType":"bool"}],"stateMutability":"view"},{"type":"function","name":"transferOwnership","inputs":[{"name":"newOwner","type":"address","internalType":"address"}],"outputs":[],"stateMutability":"nonpayable"},{"type":"function","name":"updateVenue","inputs":[{"name":"_venueId","type":"uint256","internalType":"uint256"},{"name":"_name","type":"string","internalType":"string"},{"name":"_bio","type":"string","internalType":"string"},{"name":"_wallet","type":"address","internalType":"address"},{"name":"_latitude","type":"int256","internalType":"int256"},{"name":"_longitude","type":"int256","internalType":"int256"},{"name":"_totalCapacity","type":"uint256","internalType":"uint256"},{"name":"_streetAddress","type":"string","internalType":"string"}],"outputs":[],"stateMutability":"nonpayable"},{"type":"function","name":"upgradeToAndCall","inputs":[{"name":"newImplementation","type":"address","internalType":"address"},{"name":"data","type":"bytes","internalType":"bytes"}],"outputs":[],"stateMutability":"payable"},{"type":"function","name":"uri","inputs":[{"name":"tokenId","type":"uint256","internalType":"uint256"}],"outputs":[{"name":"","type":"string","internalType":"string"}],"stateMutability":"view"},{"type":"event","name":"ApprovalForAll","inputs":[{"name":"account","type":"address","indexed":true,"internalType":"address"},{"name":"operator","type":"address","indexed":true,"internalType":"address"},{"name":"approved","type":"bool","indexed":false,"internalType":"bool"}],"anonymous":false},{"type":"event","name":"Initialized","inputs":[{"name":"version","type":"uint64","indexed":false,"internalType":"uint64"}],"anonymous":false},{"type":"event","name":"OwnershipTransferred","inputs":[{"name":"previousOwner","type":"address","indexed":true,"internalType":"address"},{"name":"newOwner","type":"address","indexed":true,"internalType":"address"}],"anonymous":false},{"type":"event","name":"TransferBatch","inputs":[{"name":"operator","type":"address","indexed":true,"internalType":"address"},{"name":"from","type":"address","indexed":true,"internalType":"address"},{"name":"to","type":"address","indexed":true,"internalType":"address"},{"name":"ids","type":"uint256[]","indexed":false,"internalType":"uint256[]"},{"name":"values","type":"uint256[]","indexed":false,"internalType":"uint256[]"}],"anonymous":false},{"type":"event","name":"TransferSingle","inputs":[{"name":"operator","type":"address","indexed":true,"internalType":"address"},{"name":"from","type":"address","indexed":true,"internalType":"address"},{"name":"to","type":"address","indexed":true,"internalType":"address"},{"name":"id","type":"uint256","indexed":false,"internalType":"uint256"},{"name":"value","type":"uint256","indexed":false,"internalType":"uint256"}],"anonymous":false},{"type":"event","name":"URI","inputs":[{"name":"value","type":"string","indexed":false,"internalType":"string"},{"name":"id","type":"uint256","indexed":true,"internalType":"uint256"}],"anonymous":false},{"type":"event","name":"Upgraded","inputs":[{"name":"implementation","type":"address","indexed":true,"internalType":"address"}],"anonymous":false},{"type":"event","name":"VenueAccepted","inputs":[{"name":"venueId","type":"uint256","indexed":true,"internalType":"uint256"},{"name":"venueAddress","type":"address","indexed":false,"internalType":"address"}],"anonymous":false},{"type":"event","name":"VenueDeregistered","inputs":[{"name":"venueId","type":"uint256","indexed":true,"internalType":"uint256"}],"anonymous":false},{"type":"event","name":"VenueNominated","inputs":[{"name":"nominee","type":"address","indexed":true,"internalType":"address"}],"anonymous":false},{"type":"event","name":"VenueRegistered","inputs":[{"name":"venueId","type":"uint256","indexed":true,"internalType":"uint256"},{"name":"name","type":"string","indexed":false,"internalType":"string"},{"name":"wallet","type":"address","indexed":false,"internalType":"address"}],"anonymous":false},{"type":"event","name":"VenueUpdated","inputs":[{"name":"venueId","type":"uint256","indexed":true,"internalType":"uint256"},{"name":"name","type":"string","indexed":false,"internalType":"string"},{"name":"bio","type":"string","indexed":false,"internalType":"string"},{"name":"wallet","type":"address","indexed":false,"internalType":"address"},{"name":"latitude","type":"int256","indexed":false,"internalType":"int256"},{"name":"longitude","type":"int256","indexed":false,"internalType":"int256"},{"name":"totalCapacity","type":"uint256","indexed":false,"internalType":"uint256"},{"name":"streetAddress","type":"string","indexed":false,"internalType":"string"}],"anonymous":false},{"type":"event","name":"contractURIUpdated","inputs":[{"name":"newURI","type":"string","indexed":false,"internalType":"string"}],"anonymous":false},{"type":"event","name":"tokenURIUpdated","inputs":[{"name":"newURI","type":"string","indexed":false,"internalType":"string"},{"name":"tokenId","type":"uint256","indexed":false,"internalType":"uint256"}],"anonymous":false},{"type":"error","name":"AddressEmptyCode","inputs":[{"name":"target","type":"address","internalType":"address"}]},{"type":"error","name":"ERC1155InsufficientBalance","inputs":[{"name":"sender","type":"address","internalType":"address"},{"name":"balance","type":"uint256","internalType":"uint256"},{"name":"needed","type":"uint256","internalType":"uint256"},{"name":"tokenId","type":"uint256","internalType":"uint256"}]},{"type":"error","name":"ERC1155InvalidApprover","inputs":[{"name":"approver","type":"address","internalType":"address"}]},{"type":"error","name":"ERC1155InvalidArrayLength","inputs":[{"name":"idsLength","type":"uint256","internalType":"uint256"},{"name":"valuesLength","type":"uint256","internalType":"uint256"}]},{"type":"error","name":"ERC1155InvalidOperator","inputs":[{"name":"operator","type":"address","internalType":"address"}]},{"type":"error","name":"ERC1155InvalidReceiver","inputs":[{"name":"receiver","type":"address","internalType":"address"}]},{"type":"error","name":"ERC1155InvalidSender","inputs":[{"name":"sender","type":"address","internalType":"address"}]},{"type":"error","name":"ERC1155MissingApprovalForAll","inputs":[{"name":"operator","type":"address","internalType":"address"},{"name":"owner","type":"address","internalType":"address"}]},{"type":"error","name":"ERC1967InvalidImplementation","inputs":[{"name":"implementation","type":"address","internalType":"address"}]},{"type":"error","name":"ERC1967NonPayable","inputs":[]},{"type":"error","name":"FailedInnerCall","inputs":[]},{"type":"error","name":"InvalidInitialization","inputs":[]},{"type":"error","name":"NotInitializing","inputs":[]},{"type":"error","name":"OwnableInvalidOwner","inputs":[{"name":"owner","type":"address","internalType":"address"}]},{"type":"error","name":"OwnableUnauthorizedAccount","inputs":[{"name":"account","type":"address","internalType":"address"}]},{"type":"error","name":"UUPSUnauthorizedCallContext","inputs":[]},{"type":"error","name":"UUPSUnsupportedProxiableUUID","inputs":[{"name":"slot","type":"bytes32","internalType":"bytes32"}]}],"bytecode":{"object":"0x60a06040523060805234801561001457600080fd5b5060805161338761003e60003960008181611a3801528181611a610152611ba201526133876000f3fe6080604052600436106101805760003560e01c80636befc55c116100d1578063ad3cb1cc1161008a578063e8a3d48511610064578063e8a3d485146104b0578063e985e9c5146104c5578063f242432a146104e5578063f2fde38b1461050557600080fd5b8063ad3cb1cc1461042f578063b332180b14610460578063b4ec19801461048057600080fd5b80636befc55c14610359578063715018a61461038d57806384b03c44146103a25780638da5cb5b146103c2578063938e3d7b146103ef578063a22cb4651461040f57600080fd5b80632eb2c2d61161013e578063485cc95511610118578063485cc955146102e45780634e1273f4146103045780634f1ef2861461033157806352d1902d1461034457600080fd5b80632eb2c2d6146102775780633a7f44d3146102975780633cfb9207146102c457600080fd5b8062fdd58e1461018557806301ffc9a7146101b857806309a4a302146101e85780630e89341c14610208578063162094c4146102355780632e63de1c14610257575b600080fd5b34801561019157600080fd5b506101a56101a03660046126b4565b610525565b6040519081526020015b60405180910390f35b3480156101c457600080fd5b506101d86101d33660046126f4565b61055c565b60405190151581526020016101af565b3480156101f457600080fd5b506101d8610203366004612711565b6105ac565b34801561021457600080fd5b5061022861022336600461272c565b6105f7565b6040516101af9190612795565b34801561024157600080fd5b5061025561025036600461285d565b6106d5565b005b34801561026357600080fd5b5061025561027236600461272c565b610794565b34801561028357600080fd5b50610255610292366004612931565b61087b565b3480156102a357600080fd5b506102b76102b236600461272c565b6108e2565b6040516101af91906129da565b3480156102d057600080fd5b506102556102df366004612a7c565b610b6a565b3480156102f057600080fd5b506102556102ff366004612b1f565b610c23565b34801561031057600080fd5b5061032461031f366004612b52565b610d76565b6040516101af9190612c42565b61025561033f366004612c55565b610e4a565b34801561035057600080fd5b506101a5610e69565b34801561036557600080fd5b50610379610374366004612711565b610e86565b6040516101af989796959493929190612c8c565b34801561039957600080fd5b50610255611157565b3480156103ae57600080fd5b506102556103bd366004612d01565b61116b565b3480156103ce57600080fd5b506103d761126e565b6040516001600160a01b0390911681526020016101af565b3480156103fb57600080fd5b5061025561040a366004612dc0565b61129c565b34801561041b57600080fd5b5061025561042a366004612dfc565b61134b565b34801561043b57600080fd5b50610228604051806040016040528060058152602001640352e302e360dc1b81525081565b34801561046c57600080fd5b5061025561047b366004612711565b611356565b34801561048c57600080fd5b506101d861049b366004612711565b60026020526000908152604090205460ff1681565b3480156104bc57600080fd5b506102286115ba565b3480156104d157600080fd5b506101d86104e0366004612b1f565b61164c565b3480156104f157600080fd5b50610255610500366004612e38565b611699565b34801561051157600080fd5b50610255610520366004612711565b6116f8565b6000818152600080516020613332833981519152602090815260408083206001600160a01b03861684529091529020545b92915050565b60006001600160e01b03198216636cdb3d1360e11b148061058d57506001600160e01b031982166303a24d0760e21b145b8061055657506301ffc9a760e01b6001600160e01b0319831614610556565b6001600160a01b03811660009081526001602052604081205480158015906105f057506000818152602081905260409020600301546001600160a01b038481169116145b9392505050565b60008181526005602052604081208054606092919061061590612e9c565b80601f016020809104026020016040519081016040528092919081815260200182805461064190612e9c565b801561068e5780601f106106635761010080835404028352916020019161068e565b820191906000526020600020905b81548152906001019060200180831161067157829003601f168201915b505050505090506000815111156106a55792915050565b6106ae83611736565b6040516020016106be9190612ed6565b604051602081830303815290604052915050919050565b6106dd61126e565b6001600160a01b0316336001600160a01b0316148061071557506000828152602081905260409020600301546001600160a01b031633145b6107775760405162461bcd60e51b815260206004820152602860248201527f43616c6c6572206973206e6f7420746865206f776e6572206f7220746865206f6044820152673933b0b734bd32b960c11b60648201526084015b60405180910390fd5b600082815260056020526040902061078f8282612f7f565b505050565b60035481111580156107bf57506000818152602081905260409020600301546001600160a01b031633145b6107db5760405162461bcd60e51b815260040161076e9061303e565b6107e7338260016117c8565b60008181526020819052604081208181559061080660018301826125e4565b6108146002830160006125e4565b6003820180546001600160a01b0319169055600060048301819055600583018190556006830181905561084b9060078401906125e4565b505060405181907fee0cdc4ae3243e3824b2d6e7fdc29bc86356054f8729d89bb1f980e436ebf45690600090a250565b336001600160a01b038616811480159061089c575061089a868261164c565b155b156108cd5760405163711bec9160e11b81526001600160a01b0380831660048301528716602482015260440161076e565b6108da8686868686611837565b505050505050565b6108ea61261e565b6000828152602081905260409020600301546001600160a01b03166109485760405162461bcd60e51b815260206004820152601460248201527315995b9d5948191bd95cc81b9bdd08195e1a5cdd60621b604482015260640161076e565b60008281526020818152604091829020825160e0810190935280548352600181018054919284019161097990612e9c565b80601f01602080910402602001604051908101604052809291908181526020018280546109a590612e9c565b80156109f25780601f106109c7576101008083540402835291602001916109f2565b820191906000526020600020905b8154815290600101906020018083116109d557829003601f168201915b50505050508152602001600282018054610a0b90612e9c565b80601f0160208091040260200160405190810160405280929190818152602001828054610a3790612e9c565b8015610a845780601f10610a5957610100808354040283529160200191610a84565b820191906000526020600020905b815481529060010190602001808311610a6757829003601f168201915b505050918352505060038201546001600160a01b03166020808301919091526040805180820182526004850154815260058501549281019290925282015260068201546060820152600782018054608090920191610ae190612e9c565b80601f0160208091040260200160405190810160405280929190818152602001828054610b0d90612e9c565b8015610b5a5780601f10610b2f57610100808354040283529160200191610b5a565b820191906000526020600020905b815481529060010190602001808311610b3d57829003601f168201915b5050505050815250509050919050565b3360009081526002602052604090205460ff16610bbf5760405162461bcd60e51b8152602060048201526013602482015272139bc81b9bdb5a5b985d1a5bdb88199bdd5b99606a1b604482015260640161076e565b336000908152600260205260409020805460ff19169055610be4868686868686611897565b506003546040513381527f4108d491dd9d5aec1ab384350857e890c9670a0cfc211b075c99d187b8d4cc449060200160405180910390a2505050505050565b7ff0c57e16840df040f15088dc2f81fe391c3923bec73e23a9662efc9c229c6a008054600160401b810460ff1615906001600160401b0316600081158015610c685750825b90506000826001600160401b03166001148015610c845750303b155b905081158015610c92575080155b15610cb05760405163f92ee8a960e01b815260040160405180910390fd5b845467ffffffffffffffff191660011785558315610cda57845460ff60401b1916600160401b1785555b610cfb6040518060600160405280602f81526020016132e3602f9139611a03565b610d0487611a14565b610d0c611a25565b600480546001600160a01b0319166001600160a01b0388161790558315610d6d57845460ff60401b19168555604051600181527fc7f505b2f371ae2175ee4913f4499e1f2633a7b5936321eed1cdaeb6115181d29060200160405180910390a15b50505050505050565b60608151835114610da75781518351604051635b05999160e01b81526004810192909252602482015260440161076e565b600083516001600160401b03811115610dc257610dc26127a8565b604051908082528060200260200182016040528015610deb578160200160208202803683370190505b50905060005b8451811015610e4257602080820286010151610e1590602080840287010151610525565b828281518110610e2757610e27613080565b6020908102919091010152610e3b816130ac565b9050610df1565b509392505050565b610e52611a2d565b610e5b82611ad2565b610e658282611ada565b5050565b6000610e73611b97565b5060008051602061331283398151915290565b6001600160a01b03811660009081526001602052604081205490606090819080808084878203610eef5760405162461bcd60e51b815260206004820152601460248201527315995b9d5948191bd95cc81b9bdd08195e1a5cdd60621b604482015260640161076e565b60008060008a81526020019081526020016000206040518060e001604052908160008201548152602001600182018054610f2890612e9c565b80601f0160208091040260200160405190810160405280929190818152602001828054610f5490612e9c565b8015610fa15780601f10610f7657610100808354040283529160200191610fa1565b820191906000526020600020905b815481529060010190602001808311610f8457829003601f168201915b50505050508152602001600282018054610fba90612e9c565b80601f0160208091040260200160405190810160405280929190818152602001828054610fe690612e9c565b80156110335780601f1061100857610100808354040283529160200191611033565b820191906000526020600020905b81548152906001019060200180831161101657829003601f168201915b505050918352505060038201546001600160a01b0316602080830191909152604080518082018252600485015481526005850154928101929092528201526006820154606082015260078201805460809092019161109090612e9c565b80601f01602080910402602001604051908101604052809291908181526020018280546110bc90612e9c565b80156111095780601f106110de57610100808354040283529160200191611109565b820191906000526020600020905b8154815290600101906020018083116110ec57829003601f168201915b50505091909252505050602080820151604083015160608401516080850151805194015160a086015160c090960151939d50919b509950919750909550909350915050919395975091939597565b61115f611be0565b6111696000611c12565b565b600354881115801561119657506000888152602081905260409020600301546001600160a01b031633145b6111b25760405162461bcd60e51b815260040161076e9061303e565b6000888152602081905260409020600181016111ce8982612f7f565b50600281016111dd8882612f7f565b506003810180546001600160a01b0319166001600160a01b0388161790556004810185905560058101849055600681018390556007810161121e8382612f7f565b50887fe35006029198ae6c56e2996867117cc3c8cbdd3b84ee37d6b36924d6b84d052d8989898989898960405161125b97969594939291906130c5565b60405180910390a2505050505050505050565b7f9016d09d72d40fdae2fd8ceac6b6234c7706214fd39c1cd1e609a0528c199300546001600160a01b031690565b6112a461126e565b6001600160a01b0316336001600160a01b0316146113045760405162461bcd60e51b815260206004820152601760248201527f43616c6c6572206973206e6f7420746865206f776e6572000000000000000000604482015260640161076e565b60066113108282612f7f565b507fec1b77d5180db946da43e2854d0f3991ac8565d3c6f927efd2fa44c16b36a4f8816040516113409190612795565b60405180910390a150565b610e65338383611c83565b6001600160a01b03811660009081526002602052604090205460ff16156113bf5760405162461bcd60e51b815260206004820152601960248201527f4e6f6d696e656520616c7265616479206e6f6d696e6174656400000000000000604482015260640161076e565b6001600160a01b038116600090815260016020526040902054156114255760405162461bcd60e51b815260206004820152601760248201527f4e6f6d696e656520616c726561647920612076656e7565000000000000000000604482015260640161076e565b60048054604051632615fb8360e21b815233928101929092526000916001600160a01b0390911690639857ee0c90602401606060405180830381865afa158015611473573d6000803e3d6000fd5b505050506040513d601f19601f820116820180604052508101906114979190613130565b905060008160400151116114f95760405162461bcd60e51b815260206004820152602360248201527f496e73756666696369656e742076656e756520726566657272616c206372656460448201526269747360e81b606482015260840161076e565b600480546040516321ceab3d60e01b815233928101929092526000602483018190526044830152600160648301526001600160a01b0316906321ceab3d90608401600060405180830381600087803b15801561155457600080fd5b505af1158015611568573d6000803e3d6000fd5b5050506001600160a01b038316600081815260026020526040808220805460ff19166001179055519192507f179ea4397e946d9cae2283c1107800f5a4cc157ad746eb00b9b310a20b1535e791a25050565b6060600680546115c990612e9c565b80601f01602080910402602001604051908101604052809291908181526020018280546115f590612e9c565b80156116425780601f1061161757610100808354040283529160200191611642565b820191906000526020600020905b81548152906001019060200180831161162557829003601f168201915b5050505050905090565b6001600160a01b0391821660009081527f88be536d5240c274a3b1d3a1be54482fd9caa294f08c62a7cde569f49a3c45016020908152604080832093909416825291909152205460ff1690565b336001600160a01b03861681148015906116ba57506116b8868261164c565b155b156116eb5760405163711bec9160e11b81526001600160a01b0380831660048301528716602482015260440161076e565b6108da8686868686611d2b565b611700611be0565b6001600160a01b03811661172a57604051631e4fbdf760e01b81526000600482015260240161076e565b61173381611c12565b50565b6060600061174383611db0565b60010190506000816001600160401b03811115611762576117626127a8565b6040519080825280601f01601f19166020018201604052801561178c576020820181803683370190505b5090508181016020015b600019016f181899199a1a9b1b9c1cb0b131b232b360811b600a86061a8153600a850494508461179657509392505050565b6001600160a01b0383166117f157604051626a0d4560e21b81526000600482015260240161076e565b604080516001808252602082018590528183019081526060820184905260a0820190925260006080820181815291929161183091879185908590611e88565b5050505050565b6001600160a01b03841661186157604051632bfa23e760e11b81526000600482015260240161076e565b6001600160a01b03851661188a57604051626a0d4560e21b81526000600482015260240161076e565b6118308585858585611e88565b60038054600091826118a8836130ac565b90915550506003546040805180820182528781526020808201889052825160e0810184528481528082018c81528185018c90523360608301526080820184905260a0820189905260c082018890526000868152928390529390912081518155925191929091829190600182019061191f9082612f7f565b50604082015160028201906119349082612f7f565b5060608201516003820180546001600160a01b0319166001600160a01b0390921691909117905560808201518051600483015560200151600582015560a0820151600682015560c0820151600782019061198e9082612f7f565b5050336000818152600160208181526040808420899055805191820190529182526119bb93508691611edb565b827f5ebb25fb7aa540ad11ae2b46396ff64ef9d7fc482981f8bae05acc7c48d636778b336040516119ed92919061318b565b60405180910390a2509098975050505050505050565b611a0b611f38565b61173381611f81565b611a1c611f38565b61173381611f92565b611169611f38565b306001600160a01b037f0000000000000000000000000000000000000000000000000000000000000000161480611ab457507f00000000000000000000000000000000000000000000000000000000000000006001600160a01b0316611aa8600080516020613312833981519152546001600160a01b031690565b6001600160a01b031614155b156111695760405163703e46dd60e11b815260040160405180910390fd5b611733611be0565b816001600160a01b03166352d1902d6040518163ffffffff1660e01b8152600401602060405180830381865afa925050508015611b34575060408051601f3d908101601f19168201909252611b31918101906131b5565b60015b611b5c57604051634c9c8ce360e01b81526001600160a01b038316600482015260240161076e565b6000805160206133128339815191528114611b8d57604051632a87526960e21b81526004810182905260240161076e565b61078f8383611f9a565b306001600160a01b037f000000000000000000000000000000000000000000000000000000000000000016146111695760405163703e46dd60e11b815260040160405180910390fd5b33611be961126e565b6001600160a01b0316146111695760405163118cdaa760e01b815233600482015260240161076e565b7f9016d09d72d40fdae2fd8ceac6b6234c7706214fd39c1cd1e609a0528c19930080546001600160a01b031981166001600160a01b03848116918217845560405192169182907f8be0079c531659141344cd1fd0a4f28419497f9722a3daafe3b4186f6b6457e090600090a3505050565b6000805160206133328339815191526001600160a01b038316611cbb5760405162ced3e160e81b81526000600482015260240161076e565b6001600160a01b038481166000818152600184016020908152604080832094881680845294825291829020805460ff191687151590811790915591519182527f17307eab39ab6107e8899845ad3d59bd9653f200f220920489ca2b5937696c31910160405180910390a350505050565b6001600160a01b038416611d5557604051632bfa23e760e11b81526000600482015260240161076e565b6001600160a01b038516611d7e57604051626a0d4560e21b81526000600482015260240161076e565b60408051600180825260208201869052818301908152606082018590526080820190925290610d6d8787848487611e88565b60008072184f03e93ff9f4daa797ed6e38ed64bf6a1f0160401b8310611def5772184f03e93ff9f4daa797ed6e38ed64bf6a1f0160401b830492506040015b6d04ee2d6d415b85acef81000000008310611e1b576d04ee2d6d415b85acef8100000000830492506020015b662386f26fc100008310611e3957662386f26fc10000830492506010015b6305f5e1008310611e51576305f5e100830492506008015b6127108310611e6557612710830492506004015b60648310611e77576064830492506002015b600a83106105565760010192915050565b611e9485858585611ff0565b6001600160a01b038416156118305782513390600103611ecd5760208481015190840151611ec683898985858961221e565b50506108da565b6108da818787878787612342565b6001600160a01b038416611f0557604051632bfa23e760e11b81526000600482015260240161076e565b604080516001808252602082018690528183019081526060820185905260808201909252906108da600087848487611e88565b7ff0c57e16840df040f15088dc2f81fe391c3923bec73e23a9662efc9c229c6a0054600160401b900460ff1661116957604051631afcd79f60e31b815260040160405180910390fd5b611f89611f38565b6117338161242b565b611700611f38565b611fa382612465565b6040516001600160a01b038316907fbc7cd75a20ee27fd9adebab32041f755214dbc6bffa90cc0225b39da2e5c2d3b90600090a2805115611fe85761078f82826124ca565b610e65612540565b80518251600080516020613332833981519152911461202f5782518251604051635b05999160e01b81526004810192909252602482015260440161076e565b3360005b845181101561213e576020818102868101820151908601909101516001600160a01b038916156120e6576000828152602086815260408083206001600160a01b038d168452909152902054818110156120bf576040516303dee4c560e01b81526001600160a01b038b16600482015260248101829052604481018390526064810184905260840161076e565b6000838152602087815260408083206001600160a01b038e16845290915290209082900390555b6001600160a01b0388161561212b576000828152602086815260408083206001600160a01b038c168452909152812080548392906121259084906131ce565b90915550505b505080612137906130ac565b9050612033565b5083516001036121bf5760208401516000906020850151909150866001600160a01b0316886001600160a01b0316846001600160a01b03167fc3d58168c5ae7397731d063d5bbf3d657854427343f4c083240f7aacaa2d0f6285856040516121b0929190918252602082015260400190565b60405180910390a450506108da565b846001600160a01b0316866001600160a01b0316826001600160a01b03167f4a39dc06d4c0dbc64b70af90fd698a233a518aa5d07e595d983b8c0526c8f7fb878760405161220e9291906131e1565b60405180910390a4505050505050565b6001600160a01b0384163b156108da5760405163f23a6e6160e01b81526001600160a01b0385169063f23a6e61906122629089908990889088908890600401613206565b6020604051808303816000875af192505050801561229d575060408051601f3d908101601f1916820190925261229a9181019061324b565b60015b612306573d8080156122cb576040519150601f19603f3d011682016040523d82523d6000602084013e6122d0565b606091505b5080516000036122fe57604051632bfa23e760e11b81526001600160a01b038616600482015260240161076e565b805181602001fd5b6001600160e01b0319811663f23a6e6160e01b14610d6d57604051632bfa23e760e11b81526001600160a01b038616600482015260240161076e565b6001600160a01b0384163b156108da5760405163bc197c8160e01b81526001600160a01b0385169063bc197c81906123869089908990889088908890600401613268565b6020604051808303816000875af19250505080156123c1575060408051601f3d908101601f191682019092526123be9181019061324b565b60015b6123ef573d8080156122cb576040519150601f19603f3d011682016040523d82523d6000602084013e6122d0565b6001600160e01b0319811663bc197c8160e01b14610d6d57604051632bfa23e760e11b81526001600160a01b038616600482015260240161076e565b6000805160206133328339815191527f88be536d5240c274a3b1d3a1be54482fd9caa294f08c62a7cde569f49a3c450261078f8382612f7f565b806001600160a01b03163b60000361249b57604051634c9c8ce360e01b81526001600160a01b038216600482015260240161076e565b60008051602061331283398151915280546001600160a01b0319166001600160a01b0392909216919091179055565b6060600080846001600160a01b0316846040516124e791906132c6565b600060405180830381855af49150503d8060008114612522576040519150601f19603f3d011682016040523d82523d6000602084013e612527565b606091505b509150915061253785838361255f565b95945050505050565b34156111695760405163b398979f60e01b815260040160405180910390fd5b6060826125745761256f826125bb565b6105f0565b815115801561258b57506001600160a01b0384163b155b156125b457604051639996b31560e01b81526001600160a01b038516600482015260240161076e565b5092915050565b8051156125cb5780518082602001fd5b604051630a12f52160e11b815260040160405180910390fd5b5080546125f090612e9c565b6000825580601f10612600575050565b601f016020900490600052602060002090810190611733919061267f565b6040518060e0016040528060008152602001606081526020016060815260200160006001600160a01b0316815260200161266b604051806040016040528060008152602001600081525090565b815260200160008152602001606081525090565b5b808211156126945760008155600101612680565b5090565b80356001600160a01b03811681146126af57600080fd5b919050565b600080604083850312156126c757600080fd5b6126d083612698565b946020939093013593505050565b6001600160e01b03198116811461173357600080fd5b60006020828403121561270657600080fd5b81356105f0816126de565b60006020828403121561272357600080fd5b6105f082612698565b60006020828403121561273e57600080fd5b5035919050565b60005b83811015612760578181015183820152602001612748565b50506000910152565b60008151808452612781816020860160208601612745565b601f01601f19169290920160200192915050565b6020815260006105f06020830184612769565b634e487b7160e01b600052604160045260246000fd5b604051601f8201601f191681016001600160401b03811182821017156127e6576127e66127a8565b604052919050565b600082601f8301126127ff57600080fd5b81356001600160401b03811115612818576128186127a8565b61282b601f8201601f19166020016127be565b81815284602083860101111561284057600080fd5b816020850160208301376000918101602001919091529392505050565b6000806040838503121561287057600080fd5b8235915060208301356001600160401b0381111561288d57600080fd5b612899858286016127ee565b9150509250929050565b60006001600160401b038211156128bc576128bc6127a8565b5060051b60200190565b600082601f8301126128d757600080fd5b813560206128ec6128e7836128a3565b6127be565b82815260059290921b8401810191818101908684111561290b57600080fd5b8286015b84811015612926578035835291830191830161290f565b509695505050505050565b600080600080600060a0868803121561294957600080fd5b61295286612698565b945061296060208701612698565b935060408601356001600160401b038082111561297c57600080fd5b61298889838a016128c6565b9450606088013591508082111561299e57600080fd5b6129aa89838a016128c6565b935060808801359150808211156129c057600080fd5b506129cd888289016127ee565b9150509295509295909350565b602081528151602082015260006020830151610100806040850152612a03610120850183612769565b91506040850151601f1980868503016060870152612a218483612769565b935060018060a01b03606088015116608087015260808701519150815160a0870152602082015160c087015260a087015160e087015260c0870151915080868503018387015250612a728382612769565b9695505050505050565b60008060008060008060c08789031215612a9557600080fd5b86356001600160401b0380821115612aac57600080fd5b612ab88a838b016127ee565b97506020890135915080821115612ace57600080fd5b612ada8a838b016127ee565b965060408901359550606089013594506080890135935060a0890135915080821115612b0557600080fd5b50612b1289828a016127ee565b9150509295509295509295565b60008060408385031215612b3257600080fd5b612b3b83612698565b9150612b4960208401612698565b90509250929050565b60008060408385031215612b6557600080fd5b82356001600160401b0380821115612b7c57600080fd5b818501915085601f830112612b9057600080fd5b81356020612ba06128e7836128a3565b82815260059290921b84018101918181019089841115612bbf57600080fd5b948201945b83861015612be457612bd586612698565b82529482019490820190612bc4565b96505086013592505080821115612bfa57600080fd5b50612899858286016128c6565b600081518084526020808501945080840160005b83811015612c3757815187529582019590820190600101612c1b565b509495945050505050565b6020815260006105f06020830184612c07565b60008060408385031215612c6857600080fd5b612c7183612698565b915060208301356001600160401b0381111561288d57600080fd5b60006101008a8352806020840152612ca68184018b612769565b90508281036040840152612cba818a612769565b6001600160a01b03891660608501526080840188905260a0840187905260c0840186905283810360e08501529050612cf28185612769565b9b9a5050505050505050505050565b600080600080600080600080610100898b031215612d1e57600080fd5b8835975060208901356001600160401b0380821115612d3c57600080fd5b612d488c838d016127ee565b985060408b0135915080821115612d5e57600080fd5b612d6a8c838d016127ee565b9750612d7860608c01612698565b965060808b0135955060a08b0135945060c08b0135935060e08b0135915080821115612da357600080fd5b50612db08b828c016127ee565b9150509295985092959890939650565b600060208284031215612dd257600080fd5b81356001600160401b03811115612de857600080fd5b612df4848285016127ee565b949350505050565b60008060408385031215612e0f57600080fd5b612e1883612698565b915060208301358015158114612e2d57600080fd5b809150509250929050565b600080600080600060a08688031215612e5057600080fd5b612e5986612698565b9450612e6760208701612698565b9350604086013592506060860135915060808601356001600160401b03811115612e9057600080fd5b6129cd888289016127ee565b600181811c90821680612eb057607f821691505b602082108103612ed057634e487b7160e01b600052602260045260246000fd5b50919050565b7f68747470733a2f2f6d657461646174612e73656c6c6f75742e656e657267792f81526576656e75652f60d01b602082015260008251612f1d816026850160208701612745565b64173539b7b760d91b6026939091019283015250602b01919050565b601f82111561078f57600081815260208120601f850160051c81016020861015612f605750805b601f850160051c820191505b818110156108da57828155600101612f6c565b81516001600160401b03811115612f9857612f986127a8565b612fac81612fa68454612e9c565b84612f39565b602080601f831160018114612fe15760008415612fc95750858301515b600019600386901b1c1916600185901b1785556108da565b600085815260208120601f198616915b8281101561301057888601518255948401946001909101908401612ff1565b508582101561302e5787850151600019600388901b60f8161c191681555b5050505050600190811b01905550565b60208082526022908201527f556e617574686f72697a6564206f72206e6f6e2d6578697374656e742076656e604082015261756560f01b606082015260800190565b634e487b7160e01b600052603260045260246000fd5b634e487b7160e01b600052601160045260246000fd5b6000600182016130be576130be613096565b5060010190565b60e0815260006130d860e083018a612769565b82810360208401526130ea818a612769565b6001600160a01b0389166040850152606084018890526080840187905260a0840186905283810360c085015290506131228185612769565b9a9950505050505050505050565b60006060828403121561314257600080fd5b604051606081018181106001600160401b0382111715613164576131646127a8565b80604052508251815260208301516020820152604083015160408201528091505092915050565b60408152600061319e6040830185612769565b905060018060a01b03831660208301529392505050565b6000602082840312156131c757600080fd5b5051919050565b8082018082111561055657610556613096565b6040815260006131f46040830185612c07565b82810360208401526125378185612c07565b6001600160a01b03868116825285166020820152604081018490526060810183905260a06080820181905260009061324090830184612769565b979650505050505050565b60006020828403121561325d57600080fd5b81516105f0816126de565b6001600160a01b0386811682528516602082015260a06040820181905260009061329490830186612c07565b82810360608401526132a68186612c07565b905082810360808401526132ba8185612769565b98975050505050505050565b600082516132d8818460208701612745565b919091019291505056fe68747470733a2f2f6d657461646174612e73656c6c6f75742e656e657267792f76656e75652f7b69647d2e6a736f6e360894a13ba1a3210667c828492db98dca3e2076cc3735a920a3ca505d382bbc88be536d5240c274a3b1d3a1be54482fd9caa294f08c62a7cde569f49a3c4500a2646970667358221220c7aa4e61651401b6951e0a80eb30649a4ef927cee9e9f44357288963b22b551864736f6c63430008140033","linkReferences":{}},"methodIdentifiers":{"UPGRADE_INTERFACE_VERSION()":"ad3cb1cc","acceptNomination(string,string,int256,int256,uint256,string)":"3cfb9207","balanceOf(address,uint256)":"00fdd58e","balanceOfBatch(address[],uint256[])":"4e1273f4","contractURI()":"e8a3d485","deregisterVenue(uint256)":"2e63de1c","getVenue(address)":"6befc55c","getVenueById(uint256)":"3a7f44d3","initialize(address,address)":"485cc955","isApprovedForAll(address,address)":"e985e9c5","isVenueRegistered(address)":"09a4a302","nominate(address)":"b332180b","nominatedVenues(address)":"b4ec1980","owner()":"8da5cb5b","proxiableUUID()":"52d1902d","renounceOwnership()":"715018a6","safeBatchTransferFrom(address,address,uint256[],uint256[],bytes)":"2eb2c2d6","safeTransferFrom(address,address,uint256,uint256,bytes)":"f242432a","setApprovalForAll(address,bool)":"a22cb465","setContractURI(string)":"938e3d7b","setTokenURI(uint256,string)":"162094c4","supportsInterface(bytes4)":"01ffc9a7","transferOwnership(address)":"f2fde38b","updateVenue(uint256,string,string,address,int256,int256,uint256,string)":"84b03c44","upgradeToAndCall(address,bytes)":"4f1ef286","uri(uint256)":"0e89341c"},"id":62}