{"abi":[{"type":"function","name":"dateVotes","inputs":[{"name":"","type":"bytes32","internalType":"bytes32"},{"name":"","type":"uint256","internalType":"uint256"}],"outputs":[{"name":"","type":"uint256","internalType":"uint256"}],"stateMutability":"view"},{"type":"function","name":"hasDateVoted","inputs":[{"name":"","type":"bytes32","internalType":"bytes32"},{"name":"","type":"address","internalType":"address"}],"outputs":[{"name":"","type":"bool","internalType":"bool"}],"stateMutability":"view"},{"type":"function","name":"hasTicketOwnerVoted","inputs":[{"name":"","type":"bytes32","internalType":"bytes32"},{"name":"","type":"address","internalType":"address"}],"outputs":[{"name":"","type":"bool","internalType":"bool"}],"stateMutability":"view"},{"type":"function","name":"hasVoted","inputs":[{"name":"","type":"bytes32","internalType":"bytes32"},{"name":"","type":"address","internalType":"address"}],"outputs":[{"name":"","type":"bool","internalType":"bool"}],"stateMutability":"view"},{"type":"function","name":"previousDateVote","inputs":[{"name":"","type":"bytes32","internalType":"bytes32"},{"name":"","type":"address","internalType":"address"}],"outputs":[{"name":"","type":"uint256","internalType":"uint256"}],"stateMutability":"view"},{"type":"function","name":"previousVote","inputs":[{"name":"","type":"bytes32","internalType":"bytes32"},{"name":"","type":"address","internalType":"address"}],"outputs":[{"name":"","type":"uint256","internalType":"uint256"}],"stateMutability":"view"},{"type":"function","name":"proposalPeriod","inputs":[{"name":"","type":"bytes32","internalType":"bytes32"}],"outputs":[{"name":"endTime","type":"uint256","internalType":"uint256"},{"name":"isPeriodActive","type":"bool","internalType":"bool"}],"stateMutability":"view"},{"type":"function","name":"refunds","inputs":[{"name":"","type":"address","internalType":"address"}],"outputs":[{"name":"","type":"uint256","internalType":"uint256"}],"stateMutability":"view"},{"type":"function","name":"selectedDate","inputs":[{"name":"","type":"bytes32","internalType":"bytes32"}],"outputs":[{"name":"","type":"uint256","internalType":"uint256"}],"stateMutability":"view"},{"type":"function","name":"selectedProposalIndex","inputs":[{"name":"","type":"bytes32","internalType":"bytes32"}],"outputs":[{"name":"","type":"uint256","internalType":"uint256"}],"stateMutability":"view"},{"type":"function","name":"showProposals","inputs":[{"name":"","type":"bytes32","internalType":"bytes32"},{"name":"","type":"uint256","internalType":"uint256"}],"outputs":[{"name":"venue","type":"tuple","internalType":"struct VenueTypes.Venue","components":[{"name":"name","type":"string","internalType":"string"},{"name":"coordinates","type":"tuple","internalType":"struct VenueTypes.Coordinates","components":[{"name":"lat","type":"int256","internalType":"int256"},{"name":"lon","type":"int256","internalType":"int256"}]},{"name":"totalCapacity","type":"uint256","internalType":"uint256"},{"name":"wallet","type":"address","internalType":"address"}]},{"name":"proposer","type":"address","internalType":"address"},{"name":"bribe","type":"uint256","internalType":"uint256"},{"name":"votes","type":"uint256","internalType":"uint256"},{"name":"accepted","type":"bool","internalType":"bool"}],"stateMutability":"view"},{"type":"function","name":"votingPeriods","inputs":[{"name":"","type":"bytes32","internalType":"bytes32"}],"outputs":[{"name":"endTime","type":"uint256","internalType":"uint256"},{"name":"isPeriodActive","type":"bool","internalType":"bool"}],"stateMutability":"view"}],"bytecode":{"object":"0x608060405234801561001057600080fd5b506105db806100206000396000f3fe608060405234801561001057600080fd5b50600436106100b45760003560e01c8063b328da1211610071578063b328da12146101d2578063bc3da53514610211578063c15f6bd714610231578063d360fb5f1461025b578063d865ae3c14610286578063f51bba85146102a657600080fd5b8063043c97fa146100b957806366582371146100f7578063960c8b4514610117578063a16026f41461013b578063aadc3b7214610179578063ab07426f146101a7575b600080fd5b6100e46100c7366004610427565b600760209081526000928352604080842090915290825290205481565b6040519081526020015b60405180910390f35b6100e4610105366004610453565b600a6020526000908152604090205481565b61012a61012536600461046c565b6102d4565b6040516100ee95949392919061048e565b610169610149366004610427565b600860209081526000928352604080842090915290825290205460ff1681565b60405190151581526020016100ee565b610169610187366004610427565b600260209081526000928352604080842090915290825290205460ff1681565b6100e46101b5366004610427565b600560209081526000928352604080842090915290825290205481565b6101fc6101e0366004610453565b6000602081905290815260409020805460019091015460ff1682565b604080519283529015156020830152016100ee565b6100e461021f366004610549565b600b6020526000908152604090205481565b6101fc61023f366004610453565b6003602052600090815260409020805460019091015460ff1682565b6100e461026936600461046c565b600660209081526000928352604080842090915290825290205481565b6100e4610294366004610453565b60096020526000908152604090205481565b6101696102b4366004610427565b600460209081526000928352604080842090915290825290205460ff1681565b600160205281600052604060002081815481106102f057600080fd5b90600052602060002090600a020160009150915050806000016040518060800160405290816000820180546103249061056b565b80601f01602080910402602001604051908101604052809291908181526020018280546103509061056b565b801561039d5780601f106103725761010080835404028352916020019161039d565b820191906000526020600020905b81548152906001019060200180831161038057829003601f168201915b50505091835250506040805180820182526001840154815260028401546020828101919091528301526003830154908201526004909101546001600160a01b039081166060909201919091526006830154600784015460088501546009909501549394919092169260ff1685565b80356001600160a01b038116811461042257600080fd5b919050565b6000806040838503121561043a57600080fd5b8235915061044a6020840161040b565b90509250929050565b60006020828403121561046557600080fd5b5035919050565b6000806040838503121561047f57600080fd5b50508035926020909101359150565b60a081526000865160a08084015280518061014085015260005b818110156104c65760208184018101516101608784010152016104a8565b506101609150600082828601015260208901516104f060c086018280518252602090810151910152565b50604089015161010085015260608901516001600160a01b0390811661012086015288166020850152601f01601f1916830101905084604083015283606083015261053f608083018415159052565b9695505050505050565b60006020828403121561055b57600080fd5b6105648261040b565b9392505050565b600181811c9082168061057f57607f821691505b60208210810361059f57634e487b7160e01b600052602260045260246000fd5b5091905056fea2646970667358221220fbb2ab60863c8655abf262be772813166f8f970f7343143158725fb181f5cb3664736f6c63430008140033","linkReferences":{}},"methodIdentifiers":{"dateVotes(bytes32,uint256)":"d360fb5f","hasDateVoted(bytes32,address)":"a16026f4","hasTicketOwnerVoted(bytes32,address)":"f51bba85","hasVoted(bytes32,address)":"aadc3b72","previousDateVote(bytes32,address)":"043c97fa","previousVote(bytes32,address)":"ab07426f","proposalPeriod(bytes32)":"b328da12","refunds(address)":"bc3da535","selectedDate(bytes32)":"d865ae3c","selectedProposalIndex(bytes32)":"66582371","showProposals(bytes32,uint256)":"960c8b45","votingPeriods(bytes32)":"c15f6bd7"},"id":77}