{"abi":[{"type":"function","name":"UPGRADE_INTERFACE_VERSION","inputs":[],"outputs":[{"name":"","type":"string","internalType":"string"}],"stateMutability":"view"},{"type":"function","name":"dateVotes","inputs":[{"name":"","type":"bytes32","internalType":"bytes32"},{"name":"","type":"uint256","internalType":"uint256"}],"outputs":[{"name":"","type":"uint256","internalType":"uint256"}],"stateMutability":"view"},{"type":"function","name":"getDateVotes","inputs":[{"name":"showId","type":"bytes32","internalType":"bytes32"},{"name":"date","type":"uint256","internalType":"uint256"}],"outputs":[{"name":"","type":"uint256","internalType":"uint256"}],"stateMutability":"view"},{"type":"function","name":"getHasDateVoted","inputs":[{"name":"showId","type":"bytes32","internalType":"bytes32"},{"name":"user","type":"address","internalType":"address"}],"outputs":[{"name":"","type":"bool","internalType":"bool"}],"stateMutability":"view"},{"type":"function","name":"getHasTicketOwnerVoted","inputs":[{"name":"showId","type":"bytes32","internalType":"bytes32"},{"name":"user","type":"address","internalType":"address"}],"outputs":[{"name":"","type":"bool","internalType":"bool"}],"stateMutability":"view"},{"type":"function","name":"getHasVoted","inputs":[{"name":"showId","type":"bytes32","internalType":"bytes32"},{"name":"user","type":"address","internalType":"address"}],"outputs":[{"name":"","type":"bool","internalType":"bool"}],"stateMutability":"view"},{"type":"function","name":"getPreviousDateVote","inputs":[{"name":"showId","type":"bytes32","internalType":"bytes32"},{"name":"user","type":"address","internalType":"address"}],"outputs":[{"name":"","type":"uint256","internalType":"uint256"}],"stateMutability":"view"},{"type":"function","name":"getPreviousVote","inputs":[{"name":"showId","type":"bytes32","internalType":"bytes32"},{"name":"user","type":"address","internalType":"address"}],"outputs":[{"name":"","type":"uint256","internalType":"uint256"}],"stateMutability":"view"},{"type":"function","name":"getProposalPeriod","inputs":[{"name":"showId","type":"bytes32","internalType":"bytes32"}],"outputs":[{"name":"","type":"tuple","internalType":"struct VenueTypes.ProposalPeriod","components":[{"name":"endTime","type":"uint256","internalType":"uint256"},{"name":"isPeriodActive","type":"bool","internalType":"bool"}]}],"stateMutability":"view"},{"type":"function","name":"getRefunds","inputs":[{"name":"user","type":"address","internalType":"address"}],"outputs":[{"name":"","type":"uint256","internalType":"uint256"}],"stateMutability":"view"},{"type":"function","name":"getSelectedDate","inputs":[{"name":"showId","type":"bytes32","internalType":"bytes32"}],"outputs":[{"name":"","type":"uint256","internalType":"uint256"}],"stateMutability":"view"},{"type":"function","name":"getSelectedProposalIndex","inputs":[{"name":"showId","type":"bytes32","internalType":"bytes32"}],"outputs":[{"name":"","type":"uint256","internalType":"uint256"}],"stateMutability":"view"},{"type":"function","name":"getShowProposals","inputs":[{"name":"showId","type":"bytes32","internalType":"bytes32"}],"outputs":[{"name":"","type":"tuple[]","internalType":"struct VenueTypes.Proposal[]","components":[{"name":"venue","type":"tuple","internalType":"struct VenueTypes.Venue","components":[{"name":"name","type":"string","internalType":"string"},{"name":"coordinates","type":"tuple","internalType":"struct VenueTypes.Coordinates","components":[{"name":"lat","type":"int256","internalType":"int256"},{"name":"lon","type":"int256","internalType":"int256"}]},{"name":"totalCapacity","type":"uint256","internalType":"uint256"},{"name":"wallet","type":"address","internalType":"address"},{"name":"venueId","type":"bytes32","internalType":"bytes32"}]},{"name":"proposedDates","type":"uint256[]","internalType":"uint256[]"},{"name":"proposer","type":"address","internalType":"address"},{"name":"bribe","type":"uint256","internalType":"uint256"},{"name":"votes","type":"uint256","internalType":"uint256"},{"name":"accepted","type":"bool","internalType":"bool"}]}],"stateMutability":"view"},{"type":"function","name":"getVotingPeriods","inputs":[{"name":"showId","type":"bytes32","internalType":"bytes32"}],"outputs":[{"name":"","type":"tuple","internalType":"struct VenueTypes.VotingPeriod","components":[{"name":"endTime","type":"uint256","internalType":"uint256"},{"name":"isPeriodActive","type":"bool","internalType":"bool"}]}],"stateMutability":"view"},{"type":"function","name":"hasDateVoted","inputs":[{"name":"","type":"bytes32","internalType":"bytes32"},{"name":"","type":"address","internalType":"address"}],"outputs":[{"name":"","type":"bool","internalType":"bool"}],"stateMutability":"view"},{"type":"function","name":"hasTicketOwnerVoted","inputs":[{"name":"","type":"bytes32","internalType":"bytes32"},{"name":"","type":"address","internalType":"address"}],"outputs":[{"name":"","type":"bool","internalType":"bool"}],"stateMutability":"view"},{"type":"function","name":"hasVoted","inputs":[{"name":"","type":"bytes32","internalType":"bytes32"},{"name":"","type":"address","internalType":"address"}],"outputs":[{"name":"","type":"bool","internalType":"bool"}],"stateMutability":"view"},{"type":"function","name":"initialize","inputs":[{"name":"initialOwner","type":"address","internalType":"address"},{"name":"_showBaseContractAddress","type":"address","internalType":"address"},{"name":"_ticketBaseContractAddress","type":"address","internalType":"address"}],"outputs":[],"stateMutability":"nonpayable"},{"type":"function","name":"owner","inputs":[],"outputs":[{"name":"","type":"address","internalType":"address"}],"stateMutability":"view"},{"type":"function","name":"previousDateVote","inputs":[{"name":"","type":"bytes32","internalType":"bytes32"},{"name":"","type":"address","internalType":"address"}],"outputs":[{"name":"","type":"uint256","internalType":"uint256"}],"stateMutability":"view"},{"type":"function","name":"previousVote","inputs":[{"name":"","type":"bytes32","internalType":"bytes32"},{"name":"","type":"address","internalType":"address"}],"outputs":[{"name":"","type":"uint256","internalType":"uint256"}],"stateMutability":"view"},{"type":"function","name":"proposalPeriod","inputs":[{"name":"","type":"bytes32","internalType":"bytes32"}],"outputs":[{"name":"endTime","type":"uint256","internalType":"uint256"},{"name":"isPeriodActive","type":"bool","internalType":"bool"}],"stateMutability":"view"},{"type":"function","name":"proxiableUUID","inputs":[],"outputs":[{"name":"","type":"bytes32","internalType":"bytes32"}],"stateMutability":"view"},{"type":"function","name":"refunds","inputs":[{"name":"","type":"address","internalType":"address"}],"outputs":[{"name":"","type":"uint256","internalType":"uint256"}],"stateMutability":"view"},{"type":"function","name":"renounceOwnership","inputs":[],"outputs":[],"stateMutability":"nonpayable"},{"type":"function","name":"selectedDate","inputs":[{"name":"","type":"bytes32","internalType":"bytes32"}],"outputs":[{"name":"","type":"uint256","internalType":"uint256"}],"stateMutability":"view"},{"type":"function","name":"selectedProposalIndex","inputs":[{"name":"","type":"bytes32","internalType":"bytes32"}],"outputs":[{"name":"","type":"uint256","internalType":"uint256"}],"stateMutability":"view"},{"type":"function","name":"showInstance","inputs":[],"outputs":[{"name":"","type":"address","internalType":"contract IShow"}],"stateMutability":"view"},{"type":"function","name":"showProposals","inputs":[{"name":"","type":"bytes32","internalType":"bytes32"},{"name":"","type":"uint256","internalType":"uint256"}],"outputs":[{"name":"venue","type":"tuple","internalType":"struct VenueTypes.Venue","components":[{"name":"name","type":"string","internalType":"string"},{"name":"coordinates","type":"tuple","internalType":"struct VenueTypes.Coordinates","components":[{"name":"lat","type":"int256","internalType":"int256"},{"name":"lon","type":"int256","internalType":"int256"}]},{"name":"totalCapacity","type":"uint256","internalType":"uint256"},{"name":"wallet","type":"address","internalType":"address"},{"name":"venueId","type":"bytes32","internalType":"bytes32"}]},{"name":"proposer","type":"address","internalType":"address"},{"name":"bribe","type":"uint256","internalType":"uint256"},{"name":"votes","type":"uint256","internalType":"uint256"},{"name":"accepted","type":"bool","internalType":"bool"}],"stateMutability":"view"},{"type":"function","name":"submitProposal","inputs":[{"name":"showId","type":"bytes32","internalType":"bytes32"},{"name":"venueName","type":"string","internalType":"string"},{"name":"coordinates","type":"tuple","internalType":"struct VenueTypes.Coordinates","components":[{"name":"lat","type":"int256","internalType":"int256"},{"name":"lon","type":"int256","internalType":"int256"}]},{"name":"totalCapacity","type":"uint256","internalType":"uint256"},{"name":"proposedDates","type":"uint256[]","internalType":"uint256[]"}],"outputs":[],"stateMutability":"payable"},{"type":"function","name":"ticketHolderVenueVote","inputs":[{"name":"showId","type":"bytes32","internalType":"bytes32"},{"name":"proposalIndex","type":"uint256","internalType":"uint256"}],"outputs":[],"stateMutability":"nonpayable"},{"type":"function","name":"ticketInstance","inputs":[],"outputs":[{"name":"","type":"address","internalType":"contract ITicket"}],"stateMutability":"view"},{"type":"function","name":"transferOwnership","inputs":[{"name":"newOwner","type":"address","internalType":"address"}],"outputs":[],"stateMutability":"nonpayable"},{"type":"function","name":"upgradeToAndCall","inputs":[{"name":"newImplementation","type":"address","internalType":"address"},{"name":"data","type":"bytes","internalType":"bytes"}],"outputs":[],"stateMutability":"payable"},{"type":"function","name":"vote","inputs":[{"name":"showId","type":"bytes32","internalType":"bytes32"},{"name":"proposalIndex","type":"uint256","internalType":"uint256"}],"outputs":[],"stateMutability":"nonpayable"},{"type":"function","name":"voteForDate","inputs":[{"name":"showId","type":"bytes32","internalType":"bytes32"},{"name":"dateIndex","type":"uint256","internalType":"uint256"}],"outputs":[],"stateMutability":"nonpayable"},{"type":"function","name":"votingPeriods","inputs":[{"name":"","type":"bytes32","internalType":"bytes32"}],"outputs":[{"name":"endTime","type":"uint256","internalType":"uint256"},{"name":"isPeriodActive","type":"bool","internalType":"bool"}],"stateMutability":"view"},{"type":"event","name":"DateAccepted","inputs":[{"name":"showId","type":"bytes32","indexed":true,"internalType":"bytes32"},{"name":"dateIndex","type":"uint256","indexed":false,"internalType":"uint256"}],"anonymous":false},{"type":"event","name":"DateVoted","inputs":[{"name":"showId","type":"bytes32","indexed":true,"internalType":"bytes32"},{"name":"voter","type":"address","indexed":true,"internalType":"address"},{"name":"dateIndex","type":"uint256","indexed":false,"internalType":"uint256"}],"anonymous":false},{"type":"event","name":"Initialized","inputs":[{"name":"version","type":"uint64","indexed":false,"internalType":"uint64"}],"anonymous":false},{"type":"event","name":"OwnershipTransferred","inputs":[{"name":"previousOwner","type":"address","indexed":true,"internalType":"address"},{"name":"newOwner","type":"address","indexed":true,"internalType":"address"}],"anonymous":false},{"type":"event","name":"ProposalAccepted","inputs":[{"name":"showId","type":"bytes32","indexed":true,"internalType":"bytes32"},{"name":"proposalIndex","type":"uint256","indexed":false,"internalType":"uint256"}],"anonymous":false},{"type":"event","name":"ProposalPeriodStarted","inputs":[{"name":"showId","type":"bytes32","indexed":true,"internalType":"bytes32"},{"name":"endTime","type":"uint256","indexed":false,"internalType":"uint256"}],"anonymous":false},{"type":"event","name":"ProposalSubmitted","inputs":[{"name":"showId","type":"bytes32","indexed":true,"internalType":"bytes32"},{"name":"proposer","type":"address","indexed":true,"internalType":"address"},{"name":"venueName","type":"string","indexed":false,"internalType":"string"},{"name":"bribe","type":"uint256","indexed":false,"internalType":"uint256"}],"anonymous":false},{"type":"event","name":"ProposalVoted","inputs":[{"name":"showId","type":"bytes32","indexed":true,"internalType":"bytes32"},{"name":"voter","type":"address","indexed":true,"internalType":"address"},{"name":"proposalIndex","type":"uint256","indexed":false,"internalType":"uint256"}],"anonymous":false},{"type":"event","name":"PublicVotingPeriodStarted","inputs":[{"name":"showId","type":"bytes32","indexed":true,"internalType":"bytes32"},{"name":"endTime","type":"uint256","indexed":false,"internalType":"uint256"}],"anonymous":false},{"type":"event","name":"Upgraded","inputs":[{"name":"implementation","type":"address","indexed":true,"internalType":"address"}],"anonymous":false},{"type":"event","name":"VenueVoted","inputs":[{"name":"showId","type":"bytes32","indexed":true,"internalType":"bytes32"},{"name":"voter","type":"address","indexed":true,"internalType":"address"},{"name":"proposalIndex","type":"uint256","indexed":false,"internalType":"uint256"}],"anonymous":false},{"type":"error","name":"AddressEmptyCode","inputs":[{"name":"target","type":"address","internalType":"address"}]},{"type":"error","name":"ERC1967InvalidImplementation","inputs":[{"name":"implementation","type":"address","internalType":"address"}]},{"type":"error","name":"ERC1967NonPayable","inputs":[]},{"type":"error","name":"FailedInnerCall","inputs":[]},{"type":"error","name":"InvalidInitialization","inputs":[]},{"type":"error","name":"NotInitializing","inputs":[]},{"type":"error","name":"OwnableInvalidOwner","inputs":[{"name":"owner","type":"address","internalType":"address"}]},{"type":"error","name":"OwnableUnauthorizedAccount","inputs":[{"name":"account","type":"address","internalType":"address"}]},{"type":"error","name":"UUPSUnauthorizedCallContext","inputs":[]},{"type":"error","name":"UUPSUnsupportedProxiableUUID","inputs":[{"name":"slot","type":"bytes32","internalType":"bytes32"}]}],"bytecode":{"object":"0x60a06040523060805234801561001457600080fd5b50608051612ead61003e60003960008181611e6f01528181611e980152611fde0152612ead6000f3fe60806040526004361061021a5760003560e01c80639ef1204c11610123578063d360fb5f116100ab578063ee6b8b2e1161006f578063ee6b8b2e14610883578063eef28136146108a3578063f2fde38b14610901578063f51bba8514610921578063f60eab041461095c57600080fd5b8063d360fb5f146107b1578063d865ae3c146107e9578063dda9b13c14610816578063e0174d7814610829578063e9801fcb1461085657600080fd5b8063ad3cb1cc116100f2578063ad3cb1cc146106a3578063b328da12146106e1578063bc3da5351461072d578063c0c53b8b1461075a578063c15f6bd71461077a57600080fd5b80639ef1204c146105d5578063a16026f4146105f5578063aadc3b7214610630578063ab07426f1461066b57600080fd5b80634f1ef286116101a657806381cf3ab81161017557806381cf3ab8146104cc57806384f3e62c146104ec5780638da5cb5b14610524578063940fed2014610561578063960c8b45146105a457600080fd5b80634f1ef2861461046057806352d1902d14610475578063665823711461048a578063715018a6146104b757600080fd5b806325d4e7e8116101ed57806325d4e7e814610308578063398ac6c31461034e578063404f49d11461039457806347cc6095146103b45780634de89286146103f757600080fd5b80630233ce6a1461021f57806303c22ec41461025c578063043c97fa146102a057806321e2c8cf146102d8575b600080fd5b34801561022b57600080fd5b50600d5461023f906001600160a01b031681565b6040516001600160a01b0390911681526020015b60405180910390f35b34801561026857600080fd5b50610292610277366004612657565b6001600160a01b03166000908152600b602052604090205490565b604051908152602001610253565b3480156102ac57600080fd5b506102926102bb366004612672565b600760209081526000928352604080842090915290825290205481565b3480156102e457600080fd5b506102f86102f3366004612672565b610989565b6040519015158152602001610253565b34801561031457600080fd5b506102f8610323366004612672565b60009182526004602090815260408084206001600160a01b0393909316845291905290205460ff1690565b34801561035a57600080fd5b506102f8610369366004612672565b60009182526002602090815260408084206001600160a01b0393909316845291905290205460ff1690565b3480156103a057600080fd5b50600c5461023f906001600160a01b031681565b3480156103c057600080fd5b506102926103cf366004612672565b60009182526005602090815260408084206001600160a01b0393909316845291905290205490565b34801561040357600080fd5b5061045361041236600461269e565b604080518082019091526000808252602082015250600090815260208181526040918290208251808401909352805483526001015460ff1615159082015290565b60405161025391906126b7565b61047361046e366004612798565b6109b6565b005b34801561048157600080fd5b506102926109d5565b34801561049657600080fd5b506102926104a536600461269e565b600a6020526000908152604090205481565b3480156104c357600080fd5b506104736109f2565b3480156104d857600080fd5b506104736104e73660046127fa565b610a06565b3480156104f857600080fd5b506102926105073660046127fa565b600091825260066020908152604080842092845291905290205490565b34801561053057600080fd5b507f9016d09d72d40fdae2fd8ceac6b6234c7706214fd39c1cd1e609a0528c199300546001600160a01b031661023f565b34801561056d57600080fd5b5061029261057c366004612672565b60009182526007602090815260408084206001600160a01b0393909316845291905290205490565b3480156105b057600080fd5b506105c46105bf3660046127fa565b610da6565b6040516102539594939291906128ca565b3480156105e157600080fd5b506104736105f03660046127fa565b610ee4565b34801561060157600080fd5b506102f8610610366004612672565b600860209081526000928352604080842090915290825290205460ff1681565b34801561063c57600080fd5b506102f861064b366004612672565b600260209081526000928352604080842090915290825290205460ff1681565b34801561067757600080fd5b50610292610686366004612672565b600560209081526000928352604080842090915290825290205481565b3480156106af57600080fd5b506106d4604051806040016040528060058152602001640352e302e360dc1b81525081565b604051610253919061290c565b3480156106ed57600080fd5b506107186106fc36600461269e565b6000602081905290815260409020805460019091015460ff1682565b60408051928352901515602083015201610253565b34801561073957600080fd5b50610292610748366004612657565b600b6020526000908152604090205481565b34801561076657600080fd5b5061047361077536600461291f565b611312565b34801561078657600080fd5b5061071861079536600461269e565b6003602052600090815260409020805460019091015460ff1682565b3480156107bd57600080fd5b506102926107cc3660046127fa565b600660209081526000928352604080842090915290825290205481565b3480156107f557600080fd5b5061029261080436600461269e565b60096020526000908152604090205481565b6104736108243660046129e2565b61145c565b34801561083557600080fd5b5061029261084436600461269e565b60009081526009602052604090205490565b34801561086257600080fd5b5061087661087136600461269e565b6119ee565b6040516102539190612aa2565b34801561088f57600080fd5b5061047361089e3660046127fa565b611bdc565b3480156108af57600080fd5b506104536108be36600461269e565b6040805180820190915260008082526020820152506000908152600360209081526040918290208251808401909352805483526001015460ff1615159082015290565b34801561090d57600080fd5b5061047361091c366004612657565b611e26565b34801561092d57600080fd5b506102f861093c366004612672565b600460209081526000928352604080842090915290825290205460ff1681565b34801561096857600080fd5b5061029261097736600461269e565b6000908152600a602052604090205490565b60008281526008602090815260408083206001600160a01b038516845290915290205460ff165b92915050565b6109be611e64565b6109c782611f09565b6109d18282611f11565b5050565b60006109df611fd3565b50600080516020612e5883398151915290565b6109fa61201c565b610a046000612077565b565b600c54604051632769b96d60e11b81523360048201526024810184905283916001600160a01b031690634ed372da90604401602060405180830381865afa158015610a55573d6000803e3d6000fd5b505050506040513d601f19601f82011682018060405250810190610a799190612b84565b80610af25750600c546040516302c9a8b560e01b8152336004820152602481018390526001600160a01b03909116906302c9a8b590604401602060405180830381865afa158015610ace573d6000803e3d6000fd5b505050506040513d601f19601f82011682018060405250810190610af29190612b84565b610b345760405162461bcd60e51b815260206004820152600e60248201526d139bdd08185d5d1a1bdc9a5e995960921b60448201526064015b60405180910390fd5b6000838152600160209081526040808320600a9092529091205481548110610b5e57610b5e612ba6565b90600052602060002090600b0201600601805490508210610bb65760405162461bcd60e51b8152602060048201526012602482015271092dcecc2d8d2c840c8c2e8ca40d2dcc8caf60731b6044820152606401610b2b565b6000838152600760209081526040808320338452909152902054828103610c1f5760405162461bcd60e51b815260206004820152601b60248201527f416c726561647920766f74656420666f722074686973206461746500000000006044820152606401610b2b565b600084815260086020908152604080832033845290915290205460ff1615610c6c5760008481526006602090815260408083208484529091528120805491610c6683612bd2565b91905055505b60008481526006602090815260408083208684529091528120805491610c9183612be9565b9091555050600084815260086020908152604080832033808552908352818420805460ff19166001179055878452600783528184208185528352928190208690555185815286917f9be4e7a28923fc7c16e20aa07e4d848cd6b3c9a28c315d27b3c51718cfd6ef59910160405180910390a3600c5460405163217fe85b60e21b8152600481018690526000916001600160a01b0316906385ffa16c90602401602060405180830381865afa158015610d4d573d6000803e3d6000fd5b505050506040513d601f19601f82011682018060405250810190610d719190612c02565b6000868152600660209081526040808320888452909152902054909150819003610d9f57610d9f85856120e8565b5050505050565b60016020528160005260406000208181548110610dc257600080fd5b90600052602060002090600b020160009150915050806000016040518060a0016040529081600082018054610df690612c1b565b80601f0160208091040260200160405190810160405280929190818152602001828054610e2290612c1b565b8015610e6f5780601f10610e4457610100808354040283529160200191610e6f565b820191906000526020600020905b815481529060010190602001808311610e5257829003601f168201915b505050918352505060408051808201825260018401548152600284015460208281019190915283015260038301549082015260048201546001600160a01b039081166060830152600590920154608090910152600783015460088401546009850154600a909501549394919092169260ff1685565b600c54604051632769b96d60e11b81523360048201526024810184905283916001600160a01b031690634ed372da90604401602060405180830381865afa158015610f33573d6000803e3d6000fd5b505050506040513d601f19601f82011682018060405250810190610f579190612b84565b80610fd05750600c546040516302c9a8b560e01b8152336004820152602481018390526001600160a01b03909116906302c9a8b590604401602060405180830381865afa158015610fac573d6000803e3d6000fd5b505050506040513d601f19601f82011682018060405250810190610fd09190612b84565b61100d5760405162461bcd60e51b815260206004820152600e60248201526d139bdd08185d5d1a1bdc9a5e995960921b6044820152606401610b2b565b60008381526001602052604090205482106110635760405162461bcd60e51b8152602060048201526016602482015275092dcecc2d8d2c840e0e4dee0dee6c2d840d2dcc8caf60531b6044820152606401610b2b565b600083815260208190526040902054158061108c57506000838152602081905260409020544211155b6110d85760405162461bcd60e51b815260206004820152601760248201527f566f74696e6720706572696f642068617320656e6465640000000000000000006044820152606401610b2b565b600083815260026020908152604080832033808552908352818420548785526005845282852091855292529091205460ff9091169081156111a6578381036111625760405162461bcd60e51b815260206004820152601c60248201527f416c726561647920766f74656420666f7220746869732076656e7565000000006044820152606401610b2b565b600085815260016020526040902080548290811061118257611182612ba6565b6000918252602082206009600b90920201018054916111a083612bd2565b91905055505b60008581526001602052604090208054859081106111c6576111c6612ba6565b6000918252602082206009600b90920201018054916111e483612be9565b9091555050600085815260026020908152604080832033808552908352818420805460ff19166001179055888452600583528184208185528352928190208790555186815287917f09e638baf0aa9cdb2a3233767bf1f976e138af255c4da751ab01215f4c96f2b0910160405180910390a3600c5460405163217fe85b60e21b8152600481018790526000916001600160a01b0316906385ffa16c90602401602060405180830381865afa1580156112a0573d6000803e3d6000fd5b505050506040513d601f19601f820116820180604052508101906112c49190612c02565b600087815260016020526040902080549192508291879081106112e9576112e9612ba6565b90600052602060002090600b0201600901541061130a5761130a8686612139565b505050505050565b7ff0c57e16840df040f15088dc2f81fe391c3923bec73e23a9662efc9c229c6a008054600160401b810460ff16159067ffffffffffffffff166000811580156113585750825b905060008267ffffffffffffffff1660011480156113755750303b155b905081158015611383575080155b156113a15760405163f92ee8a960e01b815260040160405180910390fd5b845467ffffffffffffffff1916600117855583156113cb57845460ff60401b1916600160401b1785555b6113d488612227565b6113dc612238565b600c80546001600160a01b03808a166001600160a01b031992831617909255600d805492891692909116919091179055831561145257845460ff60401b19168555604051600181527fc7f505b2f371ae2175ee4913f4499e1f2633a7b5936321eed1cdaeb6115181d29060200160405180910390a15b5050505050505050565b600c546040516346c2c8a760e01b8152600481018790526001916001600160a01b0316906346c2c8a790602401602060405180830381865afa1580156114a6573d6000803e3d6000fd5b505050506040513d601f19601f820116820180604052508101906114ca9190612c6b565b60078111156114db576114db612c55565b1461151f5760405162461bcd60e51b815260206004820152601460248201527314da1bddc81b5d5cdd0818994814dbdb1913dd5d60621b6044820152606401610b2b565b600085815260208190526040902054158061154857506000858152602081905260409020544211155b6115945760405162461bcd60e51b815260206004820152601960248201527f50726f706f73616c20706572696f642068617320656e646564000000000000006044820152606401610b2b565b825163055d4a7f19138015906115af5750825163055d4a8012155b6115ee5760405162461bcd60e51b815260206004820152601060248201526f496e76616c6964206c6174697475646560801b6044820152606401610b2b565b630aba94ff1983602001511215801561160f5750630aba9500836020015113155b61164f5760405162461bcd60e51b8152602060048201526011602482015270496e76616c6964206c6f6e67697475646560781b6044820152606401610b2b565b60008151116116ac5760405162461bcd60e51b815260206004820152602360248201527f4174206c65617374206f6e652070726f706f73656420646174652072657175696044820152621c995960ea1b6064820152608401610b2b565b6005815111156117095760405162461bcd60e51b815260206004820152602260248201527f50726f706f73616c206d75737420686176652035206f72206c65737320646174604482015261657360f01b6064820152608401610b2b565b60005b81518110156117be5760008681526020819052604090205461173190610a8c90612c8c565b82828151811061174357611743612ba6565b6020026020010151116117ac5760405162461bcd60e51b815260206004820152602b60248201527f50726f706f7365642064617465206d757374206265203630206461797320696e60448201526a207468652066757475726560a81b6064820152608401610b2b565b806117b681612be9565b91505061170c565b5060008581526020819052604090206001015460ff166117e1576117e185612240565b6000858152602081905260409020546117fc90607890612c9f565b4210611828576000858152602081905260408120805461012c9290611822908490612c8c565b90915550505b82516020808501516040516000936118469389939192889101612cb2565b60405160208183030381529060405280519060200120905061186661254a565b85815260208101859052604081018490523360608201526080810182905261188c612594565b81815260208082018590523360408084019190915234606084015260006080840181905260a084018190528a8152600180845291812080549283018155815291909120825180518493600b0290920191829081906118ea9082612d27565b506020828101518051600184015581015160028301556040830151600383015560608301516004830180546001600160a01b0319166001600160a01b0390921691909117905560809092015160059091015582810151805161195292600685019201906125db565b506040828101516007830180546001600160a01b0319166001600160a01b03909216919091179055606083015160088301556080830151600983015560a090920151600a909101805460ff191691151591909117905551339089907f594a9595007bad040e875758ab9d42df126f77d067b240282de66c3d36c74ffe906119dc908b903490612de7565b60405180910390a35050505050505050565b606060016000838152602001908152602001600020805480602002602001604051908101604052809291908181526020016000905b82821015611bd157600084815260209020604080516101608101909152600b84029091018054829060c0820190839082908290611a5f90612c1b565b80601f0160208091040260200160405190810160405280929190818152602001828054611a8b90612c1b565b8015611ad85780601f10611aad57610100808354040283529160200191611ad8565b820191906000526020600020905b815481529060010190602001808311611abb57829003601f168201915b50505091835250506040805180820182526001840154815260028401546020828101919091528084019190915260038401548284015260048401546001600160a01b03166060840152600590930154608090920191909152918352600684018054835181840281018401909452808452938201939091830182828015611b7d57602002820191906000526020600020905b815481526020019060010190808311611b69575b505050918352505060078201546001600160a01b03166020808301919091526008830154604083015260098301546060830152600a9092015460ff1615156080909101529082526001929092019101611a23565b505050509050919050565b600082815260036020526040902054158015611c0a575060008281526003602052604090206001015460ff16155b15611c1857611c18826122b3565b60008281526003602052604090206001015460ff16611c795760405162461bcd60e51b815260206004820152601b60248201527f566f74696e6720706572696f64206973206e6f742061637469766500000000006044820152606401610b2b565b600c54604051635c37da6960e01b8152336004820152602481018490526001600160a01b0390911690635c37da6990604401602060405180830381865afa158015611cc8573d6000803e3d6000fd5b505050506040513d601f19601f82011682018060405250810190611cec9190612b84565b611d2d5760405162461bcd60e51b81526020600482015260126024820152712737ba1030903a34b1b5b2ba1037bbb732b960711b6044820152606401610b2b565b600082815260046020908152604080832033845290915290205460ff1615611d875760405162461bcd60e51b815260206004820152600d60248201526c105b1c9958591e481d9bdd1959609a1b6044820152606401610b2b565b6000828152600160205260409020805482908110611da757611da7612ba6565b6000918252602082206009600b9092020101805491611dc583612be9565b909155505060008281526004602090815260408083203380855290835292819020805460ff191660011790555183815284917f37b8aa4050778a896e18d9773bb81d7a680a33f4b9232d489a3541a7a95c8350910160405180910390a35050565b611e2e61201c565b6001600160a01b038116611e5857604051631e4fbdf760e01b815260006004820152602401610b2b565b611e6181612077565b50565b306001600160a01b037f0000000000000000000000000000000000000000000000000000000000000000161480611eeb57507f00000000000000000000000000000000000000000000000000000000000000006001600160a01b0316611edf600080516020612e58833981519152546001600160a01b031690565b6001600160a01b031614155b15610a045760405163703e46dd60e11b815260040160405180910390fd5b611e6161201c565b816001600160a01b03166352d1902d6040518163ffffffff1660e01b8152600401602060405180830381865afa925050508015611f6b575060408051601f3d908101601f19168201909252611f6891810190612c02565b60015b611f9357604051634c9c8ce360e01b81526001600160a01b0383166004820152602401610b2b565b600080516020612e588339815191528114611fc457604051632a87526960e21b815260048101829052602401610b2b565b611fce8383612321565b505050565b306001600160a01b037f00000000000000000000000000000000000000000000000000000000000000001614610a045760405163703e46dd60e11b815260040160405180910390fd5b3361204e7f9016d09d72d40fdae2fd8ceac6b6234c7706214fd39c1cd1e609a0528c199300546001600160a01b031690565b6001600160a01b031614610a045760405163118cdaa760e01b8152336004820152602401610b2b565b7f9016d09d72d40fdae2fd8ceac6b6234c7706214fd39c1cd1e609a0528c19930080546001600160a01b031981166001600160a01b03848116918217845560405192169182907f8be0079c531659141344cd1fd0a4f28419497f9722a3daafe3b4186f6b6457e090600090a3505050565b600082815260096020526040908190208290555182907f30f427038b9903ed0be3f545ee5d678ba47d53ce2ffe77eb1eccbde089ec207d9061212d9084815260200190565b60405180910390a25050565b600082815260016020819052604090912080548390811061215c5761215c612ba6565b60009182526020808320600a600b909302018201805494151560ff1990951694909417909355848252909152604090819020829055600c54905163054372ed60e01b81526001600160a01b039091169063054372ed906121c3908590600290600401612e09565b600060405180830381600087803b1580156121dd57600080fd5b505af11580156121f1573d6000803e3d6000fd5b50505050817fa4cdb24ce3dbadfa51e723cabdbbd7124e6b55e68a4b41d3eb42a00d144eefe38260405161212d91815260200190565b61222f612377565b611e61816123c0565b610a04612377565b60008181526020819052604090206001908101805460ff1916909117905561226a611c2042612c8c565b60008281526020818152604091829020839055905191825282917fbe893194ee9c4752250e88ba9de293863b73822c4663c78d6cad1f9aa7d91cdc91015b60405180910390a250565b60008181526003602052604090206001908101805460ff191690911790556122dd61025842612c8c565b600082815260036020526040908190208290555182917f58f609de0b6e6eb5c26a9c4e7c7829683497810612c1bdfdba684a4a8db08546916122a891815260200190565b61232a826123c8565b6040516001600160a01b038316907fbc7cd75a20ee27fd9adebab32041f755214dbc6bffa90cc0225b39da2e5c2d3b90600090a280511561236f57611fce828261242d565b6109d16124a3565b7ff0c57e16840df040f15088dc2f81fe391c3923bec73e23a9662efc9c229c6a0054600160401b900460ff16610a0457604051631afcd79f60e31b815260040160405180910390fd5b611e2e612377565b806001600160a01b03163b6000036123fe57604051634c9c8ce360e01b81526001600160a01b0382166004820152602401610b2b565b600080516020612e5883398151915280546001600160a01b0319166001600160a01b0392909216919091179055565b6060600080846001600160a01b03168460405161244a9190612e3b565b600060405180830381855af49150503d8060008114612485576040519150601f19603f3d011682016040523d82523d6000602084013e61248a565b606091505b509150915061249a8583836124c2565b95945050505050565b3415610a045760405163b398979f60e01b815260040160405180910390fd5b6060826124d7576124d282612521565b61251a565b81511580156124ee57506001600160a01b0384163b155b1561251757604051639996b31560e01b81526001600160a01b0385166004820152602401610b2b565b50805b9392505050565b8051156125315780518082602001fd5b604051630a12f52160e11b815260040160405180910390fd5b6040518060a0016040528060608152602001612579604051806040016040528060008152602001600081525090565b81526000602082018190526040820181905260609091015290565b6040518060c001604052806125a761254a565b81526020016060815260200160006001600160a01b0316815260200160008152602001600081526020016000151581525090565b828054828255906000526020600020908101928215612616579160200282015b828111156126165782518255916020019190600101906125fb565b50612622929150612626565b5090565b5b808211156126225760008155600101612627565b80356001600160a01b038116811461265257600080fd5b919050565b60006020828403121561266957600080fd5b61251a8261263b565b6000806040838503121561268557600080fd5b823591506126956020840161263b565b90509250929050565b6000602082840312156126b057600080fd5b5035919050565b81518152602080830151151590820152604081016109b0565b634e487b7160e01b600052604160045260246000fd5b6040805190810167ffffffffffffffff81118282101715612709576127096126d0565b60405290565b604051601f8201601f1916810167ffffffffffffffff81118282101715612738576127386126d0565b604052919050565b600067ffffffffffffffff83111561275a5761275a6126d0565b61276d601f8401601f191660200161270f565b905082815283838301111561278157600080fd5b828260208301376000602084830101529392505050565b600080604083850312156127ab57600080fd5b6127b48361263b565b9150602083013567ffffffffffffffff8111156127d057600080fd5b8301601f810185136127e157600080fd5b6127f085823560208401612740565b9150509250929050565b6000806040838503121561280d57600080fd5b50508035926020909101359150565b60005b8381101561283757818101518382015260200161281f565b50506000910152565b6000815180845261285881602086016020860161281c565b601f01601f19169290920160200192915050565b6000815160c0845261288160c0850182612840565b905060208301518051602086015260208101516040860152506040830151606085015260018060a01b036060840151166080850152608083015160a08501528091505092915050565b60a0815260006128dd60a083018861286c565b6001600160a01b0396909616602083015250604081019390935260608301919091521515608090910152919050565b60208152600061251a6020830184612840565b60008060006060848603121561293457600080fd5b61293d8461263b565b925061294b6020850161263b565b91506129596040850161263b565b90509250925092565b600082601f83011261297357600080fd5b8135602067ffffffffffffffff82111561298f5761298f6126d0565b8160051b61299e82820161270f565b92835284810182019282810190878511156129b857600080fd5b83870192505b848310156129d7578235825291830191908301906129be565b979650505050505050565b600080600080600085870360c08112156129fb57600080fd5b86359550602087013567ffffffffffffffff80821115612a1a57600080fd5b818901915089601f830112612a2e57600080fd5b612a3d8a833560208501612740565b96506040603f1984011215612a5157600080fd5b612a596126e6565b60408a0135815260608a0135602082015295506080890135945060a0890135925080831115612a8757600080fd5b5050612a9588828901612962565b9150509295509295909350565b60006020808301818452808551808352604092508286019150828160051b8701018488016000805b84811015612b7557603f198a8503018652825160c08151818752612af08288018261286c565b838c0151888203898e01528051808352908d019350869250908c01905b80831015612b2d5783518252928c019260019290920191908c0190612b0d565b508a8401516001600160a01b0316888c0152606080850151908901526080808501519089015260a0938401511515939097019290925250509487019491870191600101612aca565b50919998505050505050505050565b600060208284031215612b9657600080fd5b8151801515811461251a57600080fd5b634e487b7160e01b600052603260045260246000fd5b634e487b7160e01b600052601160045260246000fd5b600081612be157612be1612bbc565b506000190190565b600060018201612bfb57612bfb612bbc565b5060010190565b600060208284031215612c1457600080fd5b5051919050565b600181811c90821680612c2f57607f821691505b602082108103612c4f57634e487b7160e01b600052602260045260246000fd5b50919050565b634e487b7160e01b600052602160045260246000fd5b600060208284031215612c7d57600080fd5b81516008811061251a57600080fd5b808201808211156109b0576109b0612bbc565b818103818111156109b0576109b0612bbc565b60008551612cc4818460208a0161281c565b919091019384525060208301919091526040820152606001919050565b601f821115611fce57600081815260208120601f850160051c81016020861015612d085750805b601f850160051c820191505b8181101561130a57828155600101612d14565b815167ffffffffffffffff811115612d4157612d416126d0565b612d5581612d4f8454612c1b565b84612ce1565b602080601f831160018114612d8a5760008415612d725750858301515b600019600386901b1c1916600185901b17855561130a565b600085815260208120601f198616915b82811015612db957888601518255948401946001909101908401612d9a565b5085821015612dd75787850151600019600388901b60f8161c191681555b5050505050600190811b01905550565b604081526000612dfa6040830185612840565b90508260208301529392505050565b8281526040810160088310612e2e57634e487b7160e01b600052602160045260246000fd5b8260208301529392505050565b60008251612e4d81846020870161281c565b919091019291505056fe360894a13ba1a3210667c828492db98dca3e2076cc3735a920a3ca505d382bbca2646970667358221220cd3033f2845ed3bb37005b75f9522ce0cc4f5f5e03b986b79822e7bb54fbf5e664736f6c63430008140033","linkReferences":{}},"methodIdentifiers":{"UPGRADE_INTERFACE_VERSION()":"ad3cb1cc","dateVotes(bytes32,uint256)":"d360fb5f","getDateVotes(bytes32,uint256)":"84f3e62c","getHasDateVoted(bytes32,address)":"21e2c8cf","getHasTicketOwnerVoted(bytes32,address)":"25d4e7e8","getHasVoted(bytes32,address)":"398ac6c3","getPreviousDateVote(bytes32,address)":"940fed20","getPreviousVote(bytes32,address)":"47cc6095","getProposalPeriod(bytes32)":"4de89286","getRefunds(address)":"03c22ec4","getSelectedDate(bytes32)":"e0174d78","getSelectedProposalIndex(bytes32)":"f60eab04","getShowProposals(bytes32)":"e9801fcb","getVotingPeriods(bytes32)":"eef28136","hasDateVoted(bytes32,address)":"a16026f4","hasTicketOwnerVoted(bytes32,address)":"f51bba85","hasVoted(bytes32,address)":"aadc3b72","initialize(address,address,address)":"c0c53b8b","owner()":"8da5cb5b","previousDateVote(bytes32,address)":"043c97fa","previousVote(bytes32,address)":"ab07426f","proposalPeriod(bytes32)":"b328da12","proxiableUUID()":"52d1902d","refunds(address)":"bc3da535","renounceOwnership()":"715018a6","selectedDate(bytes32)":"d865ae3c","selectedProposalIndex(bytes32)":"66582371","showInstance()":"404f49d1","showProposals(bytes32,uint256)":"960c8b45","submitProposal(bytes32,string,(int256,int256),uint256,uint256[])":"dda9b13c","ticketHolderVenueVote(bytes32,uint256)":"ee6b8b2e","ticketInstance()":"0233ce6a","transferOwnership(address)":"f2fde38b","upgradeToAndCall(address,bytes)":"4f1ef286","vote(bytes32,uint256)":"9ef1204c","voteForDate(bytes32,uint256)":"81cf3ab8","votingPeriods(bytes32)":"c15f6bd7"},"id":65}