{"abi":[{"type":"function","name":"deployVenue","inputs":[{"name":"initialOwner","type":"address","internalType":"address"},{"name":"showAddress","type":"address","internalType":"address"},{"name":"ticketAddress","type":"address","internalType":"address"}],"outputs":[{"name":"","type":"address","internalType":"address"}],"stateMutability":"nonpayable"}],"bytecode":{"object":"0x608060405234801561001057600080fd5b50612d6e806100206000396000f3fe608060405234801561001057600080fd5b506004361061002b5760003560e01c80638927552414610030575b600080fd5b61004361003e36600461015c565b61005f565b6040516001600160a01b03909116815260200160405180910390f35b60008060405161006e90610126565b604051809103906000f08015801561008a573d6000803e3d6000fd5b50604080516001600160a01b0388811660248301528781166044830152861660648083019190915282518083039091018152608490910182526020810180516001600160e01b031663c0c53b8b60e01b179052905191925090600090839083906100f390610133565b6100fe92919061019f565b604051809103906000f08015801561011a573d6000803e3d6000fd5b50979650505050505050565b61265a806101fe83390190565b6104e18061285883390190565b80356001600160a01b038116811461015757600080fd5b919050565b60008060006060848603121561017157600080fd5b61017a84610140565b925061018860208501610140565b915061019660408501610140565b90509250925092565b60018060a01b038316815260006020604081840152835180604085015260005b818110156101db578581018301518582016060015282016101bf565b506000606082860101526060601f19601f83011685010192505050939250505056fe60a06040523060805234801561001457600080fd5b5060805161261c61003e600039600081816117e8015281816118110152611957015261261c6000f3fe6080604052600436106101665760003560e01c8063aadc3b72116100d1578063c15f6bd71161008a578063dda9b13c11610064578063dda9b13c14610559578063ee6b8b2e1461056c578063f2fde38b1461058c578063f51bba85146105ac57600080fd5b8063c15f6bd7146104bd578063d360fb5f146104f4578063d865ae3c1461052c57600080fd5b8063aadc3b7214610373578063ab07426f146103ae578063ad3cb1cc146103e6578063b328da1214610424578063bc3da53514610470578063c0c53b8b1461049d57600080fd5b8063715018a611610123578063715018a61461026557806381cf3ab81461027a5780638da5cb5b1461029a578063960c8b45146102d75780639ef1204c14610308578063a16026f41461032857600080fd5b80630233ce6a1461016b578063043c97fa146101a8578063404f49d1146101ee5780634f1ef2861461020e57806352d1902d146102235780636658237114610238575b600080fd5b34801561017757600080fd5b50600d5461018b906001600160a01b031681565b6040516001600160a01b0390911681526020015b60405180910390f35b3480156101b457600080fd5b506101e06101c3366004611f61565b600760209081526000928352604080842090915290825290205481565b60405190815260200161019f565b3480156101fa57600080fd5b50600c5461018b906001600160a01b031681565b61022161021c366004612055565b6105e7565b005b34801561022f57600080fd5b506101e0610606565b34801561024457600080fd5b506101e06102533660046120b7565b600a6020526000908152604090205481565b34801561027157600080fd5b50610221610623565b34801561028657600080fd5b506102216102953660046120d0565b610637565b3480156102a657600080fd5b507f9016d09d72d40fdae2fd8ceac6b6234c7706214fd39c1cd1e609a0528c199300546001600160a01b031661018b565b3480156102e357600080fd5b506102f76102f23660046120d0565b6109d7565b60405161019f959493929190612142565b34801561031457600080fd5b506102216103233660046120d0565b610b0e565b34801561033457600080fd5b50610363610343366004611f61565b600860209081526000928352604080842090915290825290205460ff1681565b604051901515815260200161019f565b34801561037f57600080fd5b5061036361038e366004611f61565b600260209081526000928352604080842090915290825290205460ff1681565b3480156103ba57600080fd5b506101e06103c9366004611f61565b600560209081526000928352604080842090915290825290205481565b3480156103f257600080fd5b50610417604051806040016040528060058152602001640352e302e360dc1b81525081565b60405161019f91906121bd565b34801561043057600080fd5b5061045b61043f3660046120b7565b6000602081905290815260409020805460019091015460ff1682565b6040805192835290151560208301520161019f565b34801561047c57600080fd5b506101e061048b3660046121d0565b600b6020526000908152604090205481565b3480156104a957600080fd5b506102216104b83660046121eb565b610ec0565b3480156104c957600080fd5b5061045b6104d83660046120b7565b6003602052600090815260409020805460019091015460ff1682565b34801561050057600080fd5b506101e061050f3660046120d0565b600660209081526000928352604080842090915290825290205481565b34801561053857600080fd5b506101e06105473660046120b7565b60096020526000908152604090205481565b6102216105673660046122ae565b61100a565b34801561057857600080fd5b506102216105873660046120d0565b611555565b34801561059857600080fd5b506102216105a73660046121d0565b61179f565b3480156105b857600080fd5b506103636105c7366004611f61565b600460209081526000928352604080842090915290825290205460ff1681565b6105ef6117dd565b6105f882611882565b610602828261188a565b5050565b600061061061194c565b506000805160206125c783398151915290565b61062b611995565b61063560006119f0565b565b600c54604051632769b96d60e11b81523360048201526024810184905283916001600160a01b031690634ed372da90604401602060405180830381865afa158015610686573d6000803e3d6000fd5b505050506040513d601f19601f820116820180604052508101906106aa919061236e565b806107235750600c546040516302c9a8b560e01b8152336004820152602481018390526001600160a01b03909116906302c9a8b590604401602060405180830381865afa1580156106ff573d6000803e3d6000fd5b505050506040513d601f19601f82011682018060405250810190610723919061236e565b6107655760405162461bcd60e51b815260206004820152600e60248201526d139bdd08185d5d1a1bdc9a5e995960921b60448201526064015b60405180910390fd5b6000838152600160209081526040808320600a909252909120548154811061078f5761078f612390565b90600052602060002090600a02016005018054905082106107e75760405162461bcd60e51b8152602060048201526012602482015271092dcecc2d8d2c840c8c2e8ca40d2dcc8caf60731b604482015260640161075c565b60008381526007602090815260408083203384529091529020548281036108505760405162461bcd60e51b815260206004820152601b60248201527f416c726561647920766f74656420666f72207468697320646174650000000000604482015260640161075c565b600084815260086020908152604080832033845290915290205460ff161561089d5760008481526006602090815260408083208484529091528120805491610897836123bc565b91905055505b600084815260066020908152604080832086845290915281208054916108c2836123d3565b9091555050600084815260086020908152604080832033808552908352818420805460ff19166001179055878452600783528184208185528352928190208690555185815286917f9be4e7a28923fc7c16e20aa07e4d848cd6b3c9a28c315d27b3c51718cfd6ef59910160405180910390a3600c5460405163217fe85b60e21b8152600481018690526000916001600160a01b0316906385ffa16c90602401602060405180830381865afa15801561097e573d6000803e3d6000fd5b505050506040513d601f19601f820116820180604052508101906109a291906123ec565b60008681526006602090815260408083208884529091529020549091508190036109d0576109d08585611a61565b5050505050565b600160205281600052604060002081815481106109f357600080fd5b90600052602060002090600a02016000915091505080600001604051806080016040529081600082018054610a2790612405565b80601f0160208091040260200160405190810160405280929190818152602001828054610a5390612405565b8015610aa05780601f10610a7557610100808354040283529160200191610aa0565b820191906000526020600020905b815481529060010190602001808311610a8357829003601f168201915b50505091835250506040805180820182526001840154815260028401546020828101919091528301526003830154908201526004909101546001600160a01b039081166060909201919091526006830154600784015460088501546009909501549394919092169260ff1685565b600c54604051632769b96d60e11b81523360048201526024810184905283916001600160a01b031690634ed372da90604401602060405180830381865afa158015610b5d573d6000803e3d6000fd5b505050506040513d601f19601f82011682018060405250810190610b81919061236e565b80610bfa5750600c546040516302c9a8b560e01b8152336004820152602481018390526001600160a01b03909116906302c9a8b590604401602060405180830381865afa158015610bd6573d6000803e3d6000fd5b505050506040513d601f19601f82011682018060405250810190610bfa919061236e565b610c375760405162461bcd60e51b815260206004820152600e60248201526d139bdd08185d5d1a1bdc9a5e995960921b604482015260640161075c565b6000838152600160205260409020548210610c8d5760405162461bcd60e51b8152602060048201526016602482015275092dcecc2d8d2c840e0e4dee0dee6c2d840d2dcc8caf60531b604482015260640161075c565b6000838152600560209081526040808320338452909152902054828103610cf65760405162461bcd60e51b815260206004820152601c60248201527f416c726561647920766f74656420666f7220746869732076656e756500000000604482015260640161075c565b600084815260026020908152604080832033845290915290205460ff1615610d5c576000848152600160205260409020805482908110610d3857610d38612390565b6000918252602082206008600a9092020101805491610d56836123bc565b91905055505b6000848152600160205260409020805484908110610d7c57610d7c612390565b6000918252602082206008600a9092020101805491610d9a836123d3565b9091555050600084815260026020908152604080832033808552908352818420805460ff19166001179055878452600583528184208185528352928190208690555185815286917f09e638baf0aa9cdb2a3233767bf1f976e138af255c4da751ab01215f4c96f2b0910160405180910390a3600c5460405163217fe85b60e21b8152600481018690526000916001600160a01b0316906385ffa16c90602401602060405180830381865afa158015610e56573d6000803e3d6000fd5b505050506040513d601f19601f82011682018060405250810190610e7a91906123ec565b60008681526001602052604090208054919250829186908110610e9f57610e9f612390565b90600052602060002090600a020160080154036109d0576109d08585611ab2565b7ff0c57e16840df040f15088dc2f81fe391c3923bec73e23a9662efc9c229c6a008054600160401b810460ff16159067ffffffffffffffff16600081158015610f065750825b905060008267ffffffffffffffff166001148015610f235750303b155b905081158015610f31575080155b15610f4f5760405163f92ee8a960e01b815260040160405180910390fd5b845467ffffffffffffffff191660011785558315610f7957845460ff60401b1916600160401b1785555b610f8288611b34565b610f8a611b45565b600c80546001600160a01b03808a166001600160a01b031992831617909255600d805492891692909116919091179055831561100057845460ff60401b19168555604051600181527fc7f505b2f371ae2175ee4913f4499e1f2633a7b5936321eed1cdaeb6115181d29060200160405180910390a15b5050505050505050565b600c546040516346c2c8a760e01b8152600481018790526001916001600160a01b0316906346c2c8a790602401602060405180830381865afa158015611054573d6000803e3d6000fd5b505050506040513d601f19601f820116820180604052508101906110789190612455565b60078111156110895761108961243f565b146110cd5760405162461bcd60e51b815260206004820152601460248201527314da1bddc81b5d5cdd0818994814dbdb1913dd5d60621b604482015260640161075c565b60008581526020819052604090205415806110f657506000858152602081905260409020544211155b6111425760405162461bcd60e51b815260206004820152601960248201527f50726f706f73616c20706572696f642068617320656e64656400000000000000604482015260640161075c565b825163055d4a7f191380159061115d5750825163055d4a8012155b61119c5760405162461bcd60e51b815260206004820152601060248201526f496e76616c6964206c6174697475646560801b604482015260640161075c565b630aba94ff198360200151121580156111bd5750630aba9500836020015113155b6111fd5760405162461bcd60e51b8152602060048201526011602482015270496e76616c6964206c6f6e67697475646560781b604482015260640161075c565b600081511161125a5760405162461bcd60e51b815260206004820152602360248201527f4174206c65617374206f6e652070726f706f73656420646174652072657175696044820152621c995960ea1b606482015260840161075c565b6005815111156112b75760405162461bcd60e51b815260206004820152602260248201527f50726f706f73616c206d75737420686176652035206f72206c65737320646174604482015261657360f01b606482015260840161075c565b60005b815181101561136d576000868152602081905260409020546112e09062278d0090612476565b8282815181106112f2576112f2612390565b60200260200101511161135b5760405162461bcd60e51b815260206004820152602b60248201527f50726f706f7365642064617465206d757374206265203630206461797320696e60448201526a207468652066757475726560a81b606482015260840161075c565b80611365816123d3565b9150506112ba565b5060008581526020819052604090206001015460ff166113905761139085611b4d565b6000858152602081905260409020546113ac9061546090612489565b42106113d957600085815260208190526040812080546201518092906113d3908490612476565b90915550505b6113e1611e5b565b8481526020810184905260408101839052336060820152611400611e9e565b81815260208082018490523360408084019190915234606084015260006080840181905260a08401819052898152600180845291812080549283018155815291909120825180518493600a02909201918290819061145e90826124ea565b5060208281015180516001840155810151600283015560408301516003830155606090920151600490910180546001600160a01b0319166001600160a01b039092169190911790558281015180516114bc9260058501920190611ee5565b506040828101516006830180546001600160a01b0319166001600160a01b03909216919091179055606083015160078301556080830151600883015560a0909201516009909101805460ff191691151591909117905551339088907fe3d9c91fef9ec1a5517b77d8f83af57508342220388c74d079df56bb9c5349e090611544908a906121bd565b60405180910390a350505050505050565b600082815260036020526040902054158015611583575060008281526003602052604090206001015460ff16155b156115915761159182611bc1565b60008281526003602052604090206001015460ff166115f25760405162461bcd60e51b815260206004820152601b60248201527f566f74696e6720706572696f64206973206e6f74206163746976650000000000604482015260640161075c565b600c54604051638d700eaf60e01b8152336004820152602481018490526001600160a01b0390911690638d700eaf90604401602060405180830381865afa158015611641573d6000803e3d6000fd5b505050506040513d601f19601f82011682018060405250810190611665919061236e565b6116a65760405162461bcd60e51b81526020600482015260126024820152712737ba1030903a34b1b5b2ba1037bbb732b960711b604482015260640161075c565b600082815260046020908152604080832033845290915290205460ff16156117005760405162461bcd60e51b815260206004820152600d60248201526c105b1c9958591e481d9bdd1959609a1b604482015260640161075c565b600082815260016020526040902080548290811061172057611720612390565b6000918252602082206008600a909202010180549161173e836123d3565b909155505060008281526004602090815260408083203380855290835292819020805460ff191660011790555183815284917f37b8aa4050778a896e18d9773bb81d7a680a33f4b9232d489a3541a7a95c8350910160405180910390a35050565b6117a7611995565b6001600160a01b0381166117d157604051631e4fbdf760e01b81526000600482015260240161075c565b6117da816119f0565b50565b306001600160a01b037f000000000000000000000000000000000000000000000000000000000000000016148061186457507f00000000000000000000000000000000000000000000000000000000000000006001600160a01b03166118586000805160206125c7833981519152546001600160a01b031690565b6001600160a01b031614155b156106355760405163703e46dd60e11b815260040160405180910390fd5b6117da611995565b816001600160a01b03166352d1902d6040518163ffffffff1660e01b8152600401602060405180830381865afa9250505080156118e4575060408051601f3d908101601f191682019092526118e1918101906123ec565b60015b61190c57604051634c9c8ce360e01b81526001600160a01b038316600482015260240161075c565b6000805160206125c7833981519152811461193d57604051632a87526960e21b81526004810182905260240161075c565b6119478383611c30565b505050565b306001600160a01b037f000000000000000000000000000000000000000000000000000000000000000016146106355760405163703e46dd60e11b815260040160405180910390fd5b336119c77f9016d09d72d40fdae2fd8ceac6b6234c7706214fd39c1cd1e609a0528c199300546001600160a01b031690565b6001600160a01b0316146106355760405163118cdaa760e01b815233600482015260240161075c565b7f9016d09d72d40fdae2fd8ceac6b6234c7706214fd39c1cd1e609a0528c19930080546001600160a01b031981166001600160a01b03848116918217845560405192169182907f8be0079c531659141344cd1fd0a4f28419497f9722a3daafe3b4186f6b6457e090600090a3505050565b600082815260096020526040908190208290555182907f30f427038b9903ed0be3f545ee5d678ba47d53ce2ffe77eb1eccbde089ec207d90611aa69084815260200190565b60405180910390a25050565b6000828152600160208190526040909120805483908110611ad557611ad5612390565b60009182526020808320600a92830201600901805460ff19169415159490941790935584825282526040908190208390555182815283917fa4cdb24ce3dbadfa51e723cabdbbd7124e6b55e68a4b41d3eb42a00d144eefe39101611aa6565b611b3c611c86565b6117da81611ccf565b610635611c86565b60008181526020819052604090206001908101805460ff19169091179055611b7862093a8042612476565b60008281526020818152604091829020839055905191825282917fbe893194ee9c4752250e88ba9de293863b73822c4663c78d6cad1f9aa7d91cdc91015b60405180910390a250565b60008181526003602052604090206001908101805460ff19169091179055611bec6203f48042612476565b600082815260036020526040908190208290555182917f58f609de0b6e6eb5c26a9c4e7c7829683497810612c1bdfdba684a4a8db0854691611bb691815260200190565b611c3982611cd7565b6040516001600160a01b038316907fbc7cd75a20ee27fd9adebab32041f755214dbc6bffa90cc0225b39da2e5c2d3b90600090a2805115611c7e576119478282611d3c565b610602611db4565b7ff0c57e16840df040f15088dc2f81fe391c3923bec73e23a9662efc9c229c6a0054600160401b900460ff1661063557604051631afcd79f60e31b815260040160405180910390fd5b6117a7611c86565b806001600160a01b03163b600003611d0d57604051634c9c8ce360e01b81526001600160a01b038216600482015260240161075c565b6000805160206125c783398151915280546001600160a01b0319166001600160a01b0392909216919091179055565b6060600080846001600160a01b031684604051611d5991906125aa565b600060405180830381855af49150503d8060008114611d94576040519150601f19603f3d011682016040523d82523d6000602084013e611d99565b606091505b5091509150611da9858383611dd3565b925050505b92915050565b34156106355760405163b398979f60e01b815260040160405180910390fd5b606082611de857611de382611e32565b611e2b565b8151158015611dff57506001600160a01b0384163b155b15611e2857604051639996b31560e01b81526001600160a01b038516600482015260240161075c565b50805b9392505050565b805115611e425780518082602001fd5b604051630a12f52160e11b815260040160405180910390fd5b604051806080016040528060608152602001611e8a604051806040016040528060008152602001600081525090565b815260006020820181905260409091015290565b6040518060c00160405280611eb1611e5b565b81526020016060815260200160006001600160a01b0316815260200160008152602001600081526020016000151581525090565b828054828255906000526020600020908101928215611f20579160200282015b82811115611f20578251825591602001919060010190611f05565b50611f2c929150611f30565b5090565b5b80821115611f2c5760008155600101611f31565b80356001600160a01b0381168114611f5c57600080fd5b919050565b60008060408385031215611f7457600080fd5b82359150611f8460208401611f45565b90509250929050565b634e487b7160e01b600052604160045260246000fd5b6040805190810167ffffffffffffffff81118282101715611fc657611fc6611f8d565b60405290565b604051601f8201601f1916810167ffffffffffffffff81118282101715611ff557611ff5611f8d565b604052919050565b600067ffffffffffffffff83111561201757612017611f8d565b61202a601f8401601f1916602001611fcc565b905082815283838301111561203e57600080fd5b828260208301376000602084830101529392505050565b6000806040838503121561206857600080fd5b61207183611f45565b9150602083013567ffffffffffffffff81111561208d57600080fd5b8301601f8101851361209e57600080fd5b6120ad85823560208401611ffd565b9150509250929050565b6000602082840312156120c957600080fd5b5035919050565b600080604083850312156120e357600080fd5b50508035926020909101359150565b60005b8381101561210d5781810151838201526020016120f5565b50506000910152565b6000815180845261212e8160208601602086016120f2565b601f01601f19169290920160200192915050565b60a081526000865160a08084015261215e610140840182612116565b602089810151805160c087015281015160e08601526040808b015161010087015260609a8b01516001600160a01b0390811661012088015299909916908501529683019590955250948501919091521515608090930192909252919050565b602081526000611e2b6020830184612116565b6000602082840312156121e257600080fd5b611e2b82611f45565b60008060006060848603121561220057600080fd5b61220984611f45565b925061221760208501611f45565b915061222560408501611f45565b90509250925092565b600082601f83011261223f57600080fd5b8135602067ffffffffffffffff82111561225b5761225b611f8d565b8160051b61226a828201611fcc565b928352848101820192828101908785111561228457600080fd5b83870192505b848310156122a35782358252918301919083019061228a565b979650505050505050565b600080600080600085870360c08112156122c757600080fd5b86359550602087013567ffffffffffffffff808211156122e657600080fd5b818901915089601f8301126122fa57600080fd5b6123098a833560208501611ffd565b96506040603f198401121561231d57600080fd5b612325611fa3565b60408a0135815260608a0135602082015295506080890135945060a089013592508083111561235357600080fd5b50506123618882890161222e565b9150509295509295909350565b60006020828403121561238057600080fd5b81518015158114611e2b57600080fd5b634e487b7160e01b600052603260045260246000fd5b634e487b7160e01b600052601160045260246000fd5b6000816123cb576123cb6123a6565b506000190190565b6000600182016123e5576123e56123a6565b5060010190565b6000602082840312156123fe57600080fd5b5051919050565b600181811c9082168061241957607f821691505b60208210810361243957634e487b7160e01b600052602260045260246000fd5b50919050565b634e487b7160e01b600052602160045260246000fd5b60006020828403121561246757600080fd5b815160088110611e2b57600080fd5b80820180821115611dae57611dae6123a6565b81810381811115611dae57611dae6123a6565b601f82111561194757600081815260208120601f850160051c810160208610156124c35750805b601f850160051c820191505b818110156124e2578281556001016124cf565b505050505050565b815167ffffffffffffffff81111561250457612504611f8d565b612518816125128454612405565b8461249c565b602080601f83116001811461254d57600084156125355750858301515b600019600386901b1c1916600185901b1785556124e2565b600085815260208120601f198616915b8281101561257c5788860151825594840194600190910190840161255d565b508582101561259a5787850151600019600388901b60f8161c191681555b5050505050600190811b01905550565b600082516125bc8184602087016120f2565b919091019291505056fe360894a13ba1a3210667c828492db98dca3e2076cc3735a920a3ca505d382bbca264697066735822122096ae0f8b1bb9662b8d499009699515cb4e9650dec3fc5bc81201b281bad2ddf764736f6c6343000814003360806040526040516104e13803806104e1833981016040819052610022916102de565b61002e82826000610035565b50506103fb565b61003e83610061565b60008251118061004b5750805b1561005c5761005a83836100a1565b505b505050565b61006a816100cd565b6040516001600160a01b038216907fbc7cd75a20ee27fd9adebab32041f755214dbc6bffa90cc0225b39da2e5c2d3b90600090a250565b60606100c683836040518060600160405280602781526020016104ba60279139610180565b9392505050565b6001600160a01b0381163b61013f5760405162461bcd60e51b815260206004820152602d60248201527f455243313936373a206e657720696d706c656d656e746174696f6e206973206e60448201526c1bdd08184818dbdb9d1c9858dd609a1b60648201526084015b60405180910390fd5b7f360894a13ba1a3210667c828492db98dca3e2076cc3735a920a3ca505d382bbc80546001600160a01b0319166001600160a01b0392909216919091179055565b6060600080856001600160a01b03168560405161019d91906103ac565b600060405180830381855af49150503d80600081146101d8576040519150601f19603f3d011682016040523d82523d6000602084013e6101dd565b606091505b5090925090506101ef868383876101f9565b9695505050505050565b60608315610268578251600003610261576001600160a01b0385163b6102615760405162461bcd60e51b815260206004820152601d60248201527f416464726573733a2063616c6c20746f206e6f6e2d636f6e74726163740000006044820152606401610136565b5081610272565b610272838361027a565b949350505050565b81511561028a5781518083602001fd5b8060405162461bcd60e51b815260040161013691906103c8565b634e487b7160e01b600052604160045260246000fd5b60005b838110156102d55781810151838201526020016102bd565b50506000910152565b600080604083850312156102f157600080fd5b82516001600160a01b038116811461030857600080fd5b60208401519092506001600160401b038082111561032557600080fd5b818501915085601f83011261033957600080fd5b81518181111561034b5761034b6102a4565b604051601f8201601f19908116603f01168101908382118183101715610373576103736102a4565b8160405282815288602084870101111561038c57600080fd5b61039d8360208301602088016102ba565b80955050505050509250929050565b600082516103be8184602087016102ba565b9190910192915050565b60208152600082518060208401526103e78160408501602087016102ba565b601f01601f19169190910160400192915050565b60b1806104096000396000f3fe608060405236601057600e6013565b005b600e5b601f601b6021565b6058565b565b600060537f360894a13ba1a3210667c828492db98dca3e2076cc3735a920a3ca505d382bbc546001600160a01b031690565b905090565b3660008037600080366000845af43d6000803e8080156076573d6000f35b3d6000fdfea264697066735822122027f562cde8265aa90118a53b2f65370962feb418519bf39bfc7ccbb34402bb5164736f6c63430008140033416464726573733a206c6f772d6c6576656c2064656c65676174652063616c6c206661696c6564a2646970667358221220328f16f7e871bfab63dd57246a6ad54a687b0c0d0ea67f06fff5858fd70e429364736f6c63430008140033","linkReferences":{}},"methodIdentifiers":{"deployVenue(address,address,address)":"89275524"},"id":37}