{"abi":[{"type":"function","name":"UPGRADE_INTERFACE_VERSION","inputs":[],"outputs":[{"name":"","type":"string","internalType":"string"}],"stateMutability":"view"},{"type":"function","name":"createVenueProxy","inputs":[{"name":"initialOwner","type":"address","internalType":"address"},{"name":"proposalPeriodDuration","type":"uint256","internalType":"uint256"},{"name":"proposalDateExtension","type":"uint256","internalType":"uint256"},{"name":"proposalDateMinimumFuture","type":"uint256","internalType":"uint256"},{"name":"proposalPeriodExtensionThreshold","type":"uint256","internalType":"uint256"}],"outputs":[{"name":"","type":"address","internalType":"address"}],"stateMutability":"nonpayable"},{"type":"function","name":"initialize","inputs":[{"name":"_venueImplementation","type":"address","internalType":"address"},{"name":"_version","type":"string","internalType":"string"},{"name":"_showAddress","type":"address","internalType":"address"}],"outputs":[],"stateMutability":"nonpayable"},{"type":"function","name":"owner","inputs":[],"outputs":[{"name":"","type":"address","internalType":"address"}],"stateMutability":"view"},{"type":"function","name":"proxiableUUID","inputs":[],"outputs":[{"name":"","type":"bytes32","internalType":"bytes32"}],"stateMutability":"view"},{"type":"function","name":"renounceOwnership","inputs":[],"outputs":[],"stateMutability":"nonpayable"},{"type":"function","name":"setVersion","inputs":[{"name":"_version","type":"string","internalType":"string"}],"outputs":[],"stateMutability":"nonpayable"},{"type":"function","name":"showAddress","inputs":[],"outputs":[{"name":"","type":"address","internalType":"address"}],"stateMutability":"view"},{"type":"function","name":"transferOwnership","inputs":[{"name":"newOwner","type":"address","internalType":"address"}],"outputs":[],"stateMutability":"nonpayable"},{"type":"function","name":"updateVenueImplementation","inputs":[{"name":"newImplementation","type":"address","internalType":"address"}],"outputs":[],"stateMutability":"nonpayable"},{"type":"function","name":"upgradeToAndCall","inputs":[{"name":"newImplementation","type":"address","internalType":"address"},{"name":"data","type":"bytes","internalType":"bytes"}],"outputs":[],"stateMutability":"payable"},{"type":"function","name":"venueImplementation","inputs":[],"outputs":[{"name":"","type":"address","internalType":"address"}],"stateMutability":"view"},{"type":"function","name":"version","inputs":[],"outputs":[{"name":"","type":"string","internalType":"string"}],"stateMutability":"view"},{"type":"event","name":"Initialized","inputs":[{"name":"version","type":"uint64","indexed":false,"internalType":"uint64"}],"anonymous":false},{"type":"event","name":"OwnershipTransferred","inputs":[{"name":"previousOwner","type":"address","indexed":true,"internalType":"address"},{"name":"newOwner","type":"address","indexed":true,"internalType":"address"}],"anonymous":false},{"type":"event","name":"Upgraded","inputs":[{"name":"implementation","type":"address","indexed":true,"internalType":"address"}],"anonymous":false},{"type":"event","name":"VenueProxyCreated","inputs":[{"name":"venueProxy","type":"address","indexed":true,"internalType":"address"}],"anonymous":false},{"type":"error","name":"AddressEmptyCode","inputs":[{"name":"target","type":"address","internalType":"address"}]},{"type":"error","name":"ERC1967InvalidImplementation","inputs":[{"name":"implementation","type":"address","internalType":"address"}]},{"type":"error","name":"ERC1967NonPayable","inputs":[]},{"type":"error","name":"FailedInnerCall","inputs":[]},{"type":"error","name":"InvalidInitialization","inputs":[]},{"type":"error","name":"NotInitializing","inputs":[]},{"type":"error","name":"OwnableInvalidOwner","inputs":[{"name":"owner","type":"address","internalType":"address"}]},{"type":"error","name":"OwnableUnauthorizedAccount","inputs":[{"name":"account","type":"address","internalType":"address"}]},{"type":"error","name":"UUPSUnauthorizedCallContext","inputs":[]},{"type":"error","name":"UUPSUnsupportedProxiableUUID","inputs":[{"name":"slot","type":"bytes32","internalType":"bytes32"}]}],"bytecode":{"object":"0x60a06040523060805234801561001457600080fd5b5060805161103061003e60003960008181610694015281816106bd015261080301526110306000f3fe6080604052600436106100c25760003560e01c80637bb7c0d81161007f5780639708ace2116100595780639708ace214610210578063ad3cb1cc14610230578063e44850ea14610261578063f2fde38b1461028157600080fd5b80637bb7c0d81461019357806385ffebd7146101b35780638da5cb5b146101d357600080fd5b80633a630b47146100c75780634f1ef2861461010457806352d1902d1461011957806354fd4d501461013c578063715018a61461015e578063788bc78c14610173575b600080fd5b3480156100d357600080fd5b506000546100e7906001600160a01b031681565b6040516001600160a01b0390911681526020015b60405180910390f35b610117610112366004610c8c565b6102a1565b005b34801561012557600080fd5b5061012e6102c0565b6040519081526020016100fb565b34801561014857600080fd5b506101516102dd565b6040516100fb9190610d12565b34801561016a57600080fd5b5061011761036b565b34801561017f57600080fd5b5061011761018e366004610d65565b61037f565b34801561019f57600080fd5b506101176101ae366004610da2565b610393565b3480156101bf57600080fd5b506002546100e7906001600160a01b031681565b3480156101df57600080fd5b507f9016d09d72d40fdae2fd8ceac6b6234c7706214fd39c1cd1e609a0528c199300546001600160a01b03166100e7565b34801561021c57600080fd5b506100e761022b366004610e00565b6104f0565b34801561023c57600080fd5b50610151604051806040016040528060058152602001640352e302e360dc1b81525081565b34801561026d57600080fd5b5061011761027c366004610e42565b610621565b34801561028d57600080fd5b5061011761029c366004610e42565b61064b565b6102a9610689565b6102b28261072e565b6102bc8282610736565b5050565b60006102ca6107f8565b50600080516020610fdb83398151915290565b600180546102ea90610e5d565b80601f016020809104026020016040519081016040528092919081815260200182805461031690610e5d565b80156103635780601f1061033857610100808354040283529160200191610363565b820191906000526020600020905b81548152906001019060200180831161034657829003601f168201915b505050505081565b610373610841565b61037d600061089c565b565b610387610841565b60016102bc8282610ee5565b7ff0c57e16840df040f15088dc2f81fe391c3923bec73e23a9662efc9c229c6a008054600160401b810460ff16159067ffffffffffffffff166000811580156103d95750825b905060008267ffffffffffffffff1660011480156103f65750303b155b905081158015610404575080155b156104225760405163f92ee8a960e01b815260040160405180910390fd5b845467ffffffffffffffff19166001178555831561044c57845460ff60401b1916600160401b1785555b6104553361090d565b61045d61091e565b600080546001600160a01b0319166001600160a01b038a1617905560016104848882610ee5565b50600280546001600160a01b0319166001600160a01b03881617905583156104e657845460ff60401b19168555604051600181527fc7f505b2f371ae2175ee4913f4499e1f2633a7b5936321eed1cdaeb6115181d29060200160405180910390a15b5050505050505050565b6002546000906001600160a01b031633146105525760405162461bcd60e51b815260206004820152601f60248201527f43616c6c6572206973206e6f74207468652053686f7720636f6e74726163740060448201526064015b60405180910390fd5b60008054610568906001600160a01b0316610926565b60405163f92ad21960e01b81526001600160a01b038981166004830152602482018990526044820188905260648201879052608482018690529192509082169063f92ad2199060a401600060405180830381600087803b1580156105cb57600080fd5b505af11580156105df573d6000803e3d6000fd5b50506040516001600160a01b03841692507fece2674e5105ddd864c0b94f6be0138122c7f633f30a78197c2c7b3c0ecdcfc29150600090a29695505050505050565b610629610841565b600080546001600160a01b0319166001600160a01b0392909216919091179055565b610653610841565b6001600160a01b03811661067d57604051631e4fbdf760e01b815260006004820152602401610549565b6106868161089c565b50565b306001600160a01b037f000000000000000000000000000000000000000000000000000000000000000016148061071057507f00000000000000000000000000000000000000000000000000000000000000006001600160a01b0316610704600080516020610fdb833981519152546001600160a01b031690565b6001600160a01b031614155b1561037d5760405163703e46dd60e11b815260040160405180910390fd5b610686610841565b816001600160a01b03166352d1902d6040518163ffffffff1660e01b8152600401602060405180830381865afa925050508015610790575060408051601f3d908101601f1916820190925261078d91810190610fa5565b60015b6107b857604051634c9c8ce360e01b81526001600160a01b0383166004820152602401610549565b600080516020610fdb83398151915281146107e957604051632a87526960e21b815260048101829052602401610549565b6107f383836109c0565b505050565b306001600160a01b037f0000000000000000000000000000000000000000000000000000000000000000161461037d5760405163703e46dd60e11b815260040160405180910390fd5b336108737f9016d09d72d40fdae2fd8ceac6b6234c7706214fd39c1cd1e609a0528c199300546001600160a01b031690565b6001600160a01b03161461037d5760405163118cdaa760e01b8152336004820152602401610549565b7f9016d09d72d40fdae2fd8ceac6b6234c7706214fd39c1cd1e609a0528c19930080546001600160a01b031981166001600160a01b03848116918217845560405192169182907f8be0079c531659141344cd1fd0a4f28419497f9722a3daafe3b4186f6b6457e090600090a3505050565b610915610a16565b61068681610a5f565b61037d610a16565b6000763d602d80600a3d3981f3363d3d373d3d3d363d730000008260601b60e81c176000526e5af43d82803e903d91602b57fd5bf38260781b17602052603760096000f090506001600160a01b0381166109bb5760405162461bcd60e51b8152602060048201526016602482015275115490cc4c4d8dce8818dc99585d194819985a5b195960521b6044820152606401610549565b919050565b6109c982610a67565b6040516001600160a01b038316907fbc7cd75a20ee27fd9adebab32041f755214dbc6bffa90cc0225b39da2e5c2d3b90600090a2805115610a0e576107f38282610acc565b6102bc610b42565b7ff0c57e16840df040f15088dc2f81fe391c3923bec73e23a9662efc9c229c6a0054600160401b900460ff1661037d57604051631afcd79f60e31b815260040160405180910390fd5b610653610a16565b806001600160a01b03163b600003610a9d57604051634c9c8ce360e01b81526001600160a01b0382166004820152602401610549565b600080516020610fdb83398151915280546001600160a01b0319166001600160a01b0392909216919091179055565b6060600080846001600160a01b031684604051610ae99190610fbe565b600060405180830381855af49150503d8060008114610b24576040519150601f19603f3d011682016040523d82523d6000602084013e610b29565b606091505b5091509150610b39858383610b61565b95945050505050565b341561037d5760405163b398979f60e01b815260040160405180910390fd5b606082610b7657610b7182610bc0565b610bb9565b8151158015610b8d57506001600160a01b0384163b155b15610bb657604051639996b31560e01b81526001600160a01b0385166004820152602401610549565b50805b9392505050565b805115610bd05780518082602001fd5b604051630a12f52160e11b815260040160405180910390fd5b80356001600160a01b03811681146109bb57600080fd5b634e487b7160e01b600052604160045260246000fd5b600067ffffffffffffffff80841115610c3157610c31610c00565b604051601f8501601f19908116603f01168101908282118183101715610c5957610c59610c00565b81604052809350858152868686011115610c7257600080fd5b858560208301376000602087830101525050509392505050565b60008060408385031215610c9f57600080fd5b610ca883610be9565b9150602083013567ffffffffffffffff811115610cc457600080fd5b8301601f81018513610cd557600080fd5b610ce485823560208401610c16565b9150509250929050565b60005b83811015610d09578181015183820152602001610cf1565b50506000910152565b6020815260008251806020840152610d31816040850160208701610cee565b601f01601f19169190910160400192915050565b600082601f830112610d5657600080fd5b610bb983833560208501610c16565b600060208284031215610d7757600080fd5b813567ffffffffffffffff811115610d8e57600080fd5b610d9a84828501610d45565b949350505050565b600080600060608486031215610db757600080fd5b610dc084610be9565b9250602084013567ffffffffffffffff811115610ddc57600080fd5b610de886828701610d45565b925050610df760408501610be9565b90509250925092565b600080600080600060a08688031215610e1857600080fd5b610e2186610be9565b97602087013597506040870135966060810135965060800135945092505050565b600060208284031215610e5457600080fd5b610bb982610be9565b600181811c90821680610e7157607f821691505b602082108103610e9157634e487b7160e01b600052602260045260246000fd5b50919050565b601f8211156107f357600081815260208120601f850160051c81016020861015610ebe5750805b601f850160051c820191505b81811015610edd57828155600101610eca565b505050505050565b815167ffffffffffffffff811115610eff57610eff610c00565b610f1381610f0d8454610e5d565b84610e97565b602080601f831160018114610f485760008415610f305750858301515b600019600386901b1c1916600185901b178555610edd565b600085815260208120601f198616915b82811015610f7757888601518255948401946001909101908401610f58565b5085821015610f955787850151600019600388901b60f8161c191681555b5050505050600190811b01905550565b600060208284031215610fb757600080fd5b5051919050565b60008251610fd0818460208701610cee565b919091019291505056fe360894a13ba1a3210667c828492db98dca3e2076cc3735a920a3ca505d382bbca264697066735822122024b6dc3f193494b992e95e87915a9852567a98c5613eb2dfd8db54367f58d98d64736f6c63430008140033","linkReferences":{}},"methodIdentifiers":{"UPGRADE_INTERFACE_VERSION()":"ad3cb1cc","createVenueProxy(address,uint256,uint256,uint256,uint256)":"9708ace2","initialize(address,string,address)":"7bb7c0d8","owner()":"8da5cb5b","proxiableUUID()":"52d1902d","renounceOwnership()":"715018a6","setVersion(string)":"788bc78c","showAddress()":"85ffebd7","transferOwnership(address)":"f2fde38b","updateVenueImplementation(address)":"e44850ea","upgradeToAndCall(address,bytes)":"4f1ef286","venueImplementation()":"3a630b47","version()":"54fd4d50"},"id":104}