{"abi":[{"type":"function","name":"dateVotes","inputs":[{"name":"","type":"bytes32","internalType":"bytes32"},{"name":"","type":"uint256","internalType":"uint256"}],"outputs":[{"name":"","type":"uint256","internalType":"uint256"}],"stateMutability":"view"},{"type":"function","name":"hasDateVoted","inputs":[{"name":"","type":"bytes32","internalType":"bytes32"},{"name":"","type":"address","internalType":"address"}],"outputs":[{"name":"","type":"bool","internalType":"bool"}],"stateMutability":"view"},{"type":"function","name":"hasTicketOwnerVoted","inputs":[{"name":"","type":"bytes32","internalType":"bytes32"},{"name":"","type":"address","internalType":"address"}],"outputs":[{"name":"","type":"bool","internalType":"bool"}],"stateMutability":"view"},{"type":"function","name":"hasVoted","inputs":[{"name":"","type":"bytes32","internalType":"bytes32"},{"name":"","type":"address","internalType":"address"}],"outputs":[{"name":"","type":"bool","internalType":"bool"}],"stateMutability":"view"},{"type":"function","name":"previousDateVote","inputs":[{"name":"","type":"bytes32","internalType":"bytes32"},{"name":"","type":"address","internalType":"address"}],"outputs":[{"name":"","type":"uint256","internalType":"uint256"}],"stateMutability":"view"},{"type":"function","name":"previousVote","inputs":[{"name":"","type":"bytes32","internalType":"bytes32"},{"name":"","type":"address","internalType":"address"}],"outputs":[{"name":"","type":"uint256","internalType":"uint256"}],"stateMutability":"view"},{"type":"function","name":"proposalPeriod","inputs":[{"name":"","type":"bytes32","internalType":"bytes32"}],"outputs":[{"name":"endTime","type":"uint256","internalType":"uint256"},{"name":"isPeriodActive","type":"bool","internalType":"bool"}],"stateMutability":"view"},{"type":"function","name":"refunds","inputs":[{"name":"","type":"address","internalType":"address"}],"outputs":[{"name":"","type":"uint256","internalType":"uint256"}],"stateMutability":"view"},{"type":"function","name":"selectedDate","inputs":[{"name":"","type":"bytes32","internalType":"bytes32"}],"outputs":[{"name":"","type":"uint256","internalType":"uint256"}],"stateMutability":"view"},{"type":"function","name":"selectedProposalIndex","inputs":[{"name":"","type":"bytes32","internalType":"bytes32"}],"outputs":[{"name":"","type":"uint256","internalType":"uint256"}],"stateMutability":"view"},{"type":"function","name":"showProposals","inputs":[{"name":"","type":"bytes32","internalType":"bytes32"},{"name":"","type":"uint256","internalType":"uint256"}],"outputs":[{"name":"venue","type":"tuple","internalType":"struct VenueTypes.Venue","components":[{"name":"name","type":"string","internalType":"string"},{"name":"coordinates","type":"tuple","internalType":"struct VenueTypes.Coordinates","components":[{"name":"lat","type":"int256","internalType":"int256"},{"name":"lon","type":"int256","internalType":"int256"}]},{"name":"totalCapacity","type":"uint256","internalType":"uint256"},{"name":"wallet","type":"address","internalType":"address"},{"name":"venueId","type":"bytes32","internalType":"bytes32"}]},{"name":"proposer","type":"address","internalType":"address"},{"name":"bribe","type":"uint256","internalType":"uint256"},{"name":"votes","type":"uint256","internalType":"uint256"},{"name":"accepted","type":"bool","internalType":"bool"}],"stateMutability":"view"},{"type":"function","name":"votingPeriods","inputs":[{"name":"","type":"bytes32","internalType":"bytes32"}],"outputs":[{"name":"endTime","type":"uint256","internalType":"uint256"},{"name":"isPeriodActive","type":"bool","internalType":"bool"}],"stateMutability":"view"}],"bytecode":{"object":"0x608060405234801561001057600080fd5b506105ee806100206000396000f3fe608060405234801561001057600080fd5b50600436106100b45760003560e01c8063b328da1211610071578063b328da12146101d2578063bc3da53514610211578063c15f6bd714610231578063d360fb5f1461025b578063d865ae3c14610286578063f51bba85146102a657600080fd5b8063043c97fa146100b957806366582371146100f7578063960c8b4514610117578063a16026f41461013b578063aadc3b7214610179578063ab07426f146101a7575b600080fd5b6100e46100c736600461042e565b600760209081526000928352604080842090915290825290205481565b6040519081526020015b60405180910390f35b6100e461010536600461045a565b600a6020526000908152604090205481565b61012a610125366004610473565b6102d4565b6040516100ee959493929190610495565b61016961014936600461042e565b600860209081526000928352604080842090915290825290205460ff1681565b60405190151581526020016100ee565b61016961018736600461042e565b600260209081526000928352604080842090915290825290205460ff1681565b6100e46101b536600461042e565b600560209081526000928352604080842090915290825290205481565b6101fc6101e036600461045a565b6000602081905290815260409020805460019091015460ff1682565b604080519283529015156020830152016100ee565b6100e461021f36600461055c565b600b6020526000908152604090205481565b6101fc61023f36600461045a565b6003602052600090815260409020805460019091015460ff1682565b6100e4610269366004610473565b600660209081526000928352604080842090915290825290205481565b6100e461029436600461045a565b60096020526000908152604090205481565b6101696102b436600461042e565b600460209081526000928352604080842090915290825290205460ff1681565b600160205281600052604060002081815481106102f057600080fd5b90600052602060002090600b020160009150915050806000016040518060a00160405290816000820180546103249061057e565b80601f01602080910402602001604051908101604052809291908181526020018280546103509061057e565b801561039d5780601f106103725761010080835404028352916020019161039d565b820191906000526020600020905b81548152906001019060200180831161038057829003601f168201915b505050918352505060408051808201825260018401548152600284015460208281019190915283015260038301549082015260048201546001600160a01b039081166060830152600590920154608090910152600783015460088401546009850154600a909501549394919092169260ff1685565b80356001600160a01b038116811461042957600080fd5b919050565b6000806040838503121561044157600080fd5b8235915061045160208401610412565b90509250929050565b60006020828403121561046c57600080fd5b5035919050565b6000806040838503121561048657600080fd5b50508035926020909101359150565b60a081526000865160c060a084015280518061016085015260005b818110156104ce5760208184018101516101808784010152016104b0565b506101809150600082828601015260208901516104f860c086018280518252602090810151910152565b50604089015161010085015260608901516001600160a01b0390811661012086015260808a015161014086015288166020850152601f01601f19168301019050846040830152836060830152610552608083018415159052565b9695505050505050565b60006020828403121561056e57600080fd5b61057782610412565b9392505050565b600181811c9082168061059257607f821691505b6020821081036105b257634e487b7160e01b600052602260045260246000fd5b5091905056fea264697066735822122046a00701cf1236cce94f8580c0fd407428716b310130d3606e644afdd0b90c6a64736f6c63430008140033","linkReferences":{}},"methodIdentifiers":{"dateVotes(bytes32,uint256)":"d360fb5f","hasDateVoted(bytes32,address)":"a16026f4","hasTicketOwnerVoted(bytes32,address)":"f51bba85","hasVoted(bytes32,address)":"aadc3b72","previousDateVote(bytes32,address)":"043c97fa","previousVote(bytes32,address)":"ab07426f","proposalPeriod(bytes32)":"b328da12","refunds(address)":"bc3da535","selectedDate(bytes32)":"d865ae3c","selectedProposalIndex(bytes32)":"66582371","showProposals(bytes32,uint256)":"960c8b45","votingPeriods(bytes32)":"c15f6bd7"},"id":66}