{"abi":[{"type":"function","name":"UPGRADE_INTERFACE_VERSION","inputs":[],"outputs":[{"name":"","type":"string","internalType":"string"}],"stateMutability":"view"},{"type":"function","name":"dateVotes","inputs":[{"name":"","type":"bytes32","internalType":"bytes32"},{"name":"","type":"uint256","internalType":"uint256"}],"outputs":[{"name":"","type":"uint256","internalType":"uint256"}],"stateMutability":"view"},{"type":"function","name":"getDateVotes","inputs":[{"name":"showId","type":"bytes32","internalType":"bytes32"},{"name":"date","type":"uint256","internalType":"uint256"}],"outputs":[{"name":"","type":"uint256","internalType":"uint256"}],"stateMutability":"view"},{"type":"function","name":"getHasDateVoted","inputs":[{"name":"showId","type":"bytes32","internalType":"bytes32"},{"name":"user","type":"address","internalType":"address"}],"outputs":[{"name":"","type":"bool","internalType":"bool"}],"stateMutability":"view"},{"type":"function","name":"getHasTicketOwnerVoted","inputs":[{"name":"showId","type":"bytes32","internalType":"bytes32"},{"name":"user","type":"address","internalType":"address"}],"outputs":[{"name":"","type":"bool","internalType":"bool"}],"stateMutability":"view"},{"type":"function","name":"getHasVoted","inputs":[{"name":"showId","type":"bytes32","internalType":"bytes32"},{"name":"user","type":"address","internalType":"address"}],"outputs":[{"name":"","type":"bool","internalType":"bool"}],"stateMutability":"view"},{"type":"function","name":"getPreviousDateVote","inputs":[{"name":"showId","type":"bytes32","internalType":"bytes32"},{"name":"user","type":"address","internalType":"address"}],"outputs":[{"name":"","type":"uint256","internalType":"uint256"}],"stateMutability":"view"},{"type":"function","name":"getPreviousVote","inputs":[{"name":"showId","type":"bytes32","internalType":"bytes32"},{"name":"user","type":"address","internalType":"address"}],"outputs":[{"name":"","type":"uint256","internalType":"uint256"}],"stateMutability":"view"},{"type":"function","name":"getProposalPeriod","inputs":[{"name":"showId","type":"bytes32","internalType":"bytes32"}],"outputs":[{"name":"","type":"tuple","internalType":"struct VenueTypes.ProposalPeriod","components":[{"name":"endTime","type":"uint256","internalType":"uint256"},{"name":"isPeriodActive","type":"bool","internalType":"bool"}]}],"stateMutability":"view"},{"type":"function","name":"getRefunds","inputs":[{"name":"user","type":"address","internalType":"address"}],"outputs":[{"name":"","type":"uint256","internalType":"uint256"}],"stateMutability":"view"},{"type":"function","name":"getSelectedDate","inputs":[{"name":"showId","type":"bytes32","internalType":"bytes32"}],"outputs":[{"name":"","type":"uint256","internalType":"uint256"}],"stateMutability":"view"},{"type":"function","name":"getSelectedProposalIndex","inputs":[{"name":"showId","type":"bytes32","internalType":"bytes32"}],"outputs":[{"name":"","type":"uint256","internalType":"uint256"}],"stateMutability":"view"},{"type":"function","name":"getShowProposals","inputs":[{"name":"showId","type":"bytes32","internalType":"bytes32"}],"outputs":[{"name":"","type":"tuple[]","internalType":"struct VenueTypes.Proposal[]","components":[{"name":"venue","type":"tuple","internalType":"struct VenueTypes.Venue","components":[{"name":"name","type":"string","internalType":"string"},{"name":"coordinates","type":"tuple","internalType":"struct VenueTypes.Coordinates","components":[{"name":"lat","type":"int256","internalType":"int256"},{"name":"lon","type":"int256","internalType":"int256"}]},{"name":"totalCapacity","type":"uint256","internalType":"uint256"},{"name":"wallet","type":"address","internalType":"address"},{"name":"venueId","type":"bytes32","internalType":"bytes32"}]},{"name":"proposedDates","type":"uint256[]","internalType":"uint256[]"},{"name":"proposer","type":"address","internalType":"address"},{"name":"bribe","type":"uint256","internalType":"uint256"},{"name":"votes","type":"uint256","internalType":"uint256"},{"name":"accepted","type":"bool","internalType":"bool"}]}],"stateMutability":"view"},{"type":"function","name":"getVotingPeriods","inputs":[{"name":"showId","type":"bytes32","internalType":"bytes32"}],"outputs":[{"name":"","type":"tuple","internalType":"struct VenueTypes.VotingPeriod","components":[{"name":"endTime","type":"uint256","internalType":"uint256"},{"name":"isPeriodActive","type":"bool","internalType":"bool"}]}],"stateMutability":"view"},{"type":"function","name":"hasDateVoted","inputs":[{"name":"","type":"bytes32","internalType":"bytes32"},{"name":"","type":"address","internalType":"address"}],"outputs":[{"name":"","type":"bool","internalType":"bool"}],"stateMutability":"view"},{"type":"function","name":"hasTicketOwnerVoted","inputs":[{"name":"","type":"bytes32","internalType":"bytes32"},{"name":"","type":"address","internalType":"address"}],"outputs":[{"name":"","type":"bool","internalType":"bool"}],"stateMutability":"view"},{"type":"function","name":"hasVoted","inputs":[{"name":"","type":"bytes32","internalType":"bytes32"},{"name":"","type":"address","internalType":"address"}],"outputs":[{"name":"","type":"bool","internalType":"bool"}],"stateMutability":"view"},{"type":"function","name":"initialize","inputs":[{"name":"initialOwner","type":"address","internalType":"address"},{"name":"_showBaseContractAddress","type":"address","internalType":"address"}],"outputs":[],"stateMutability":"nonpayable"},{"type":"function","name":"owner","inputs":[],"outputs":[{"name":"","type":"address","internalType":"address"}],"stateMutability":"view"},{"type":"function","name":"previousDateVote","inputs":[{"name":"","type":"bytes32","internalType":"bytes32"},{"name":"","type":"address","internalType":"address"}],"outputs":[{"name":"","type":"uint256","internalType":"uint256"}],"stateMutability":"view"},{"type":"function","name":"previousVote","inputs":[{"name":"","type":"bytes32","internalType":"bytes32"},{"name":"","type":"address","internalType":"address"}],"outputs":[{"name":"","type":"uint256","internalType":"uint256"}],"stateMutability":"view"},{"type":"function","name":"proposalPeriod","inputs":[{"name":"","type":"bytes32","internalType":"bytes32"}],"outputs":[{"name":"endTime","type":"uint256","internalType":"uint256"},{"name":"isPeriodActive","type":"bool","internalType":"bool"}],"stateMutability":"view"},{"type":"function","name":"proxiableUUID","inputs":[],"outputs":[{"name":"","type":"bytes32","internalType":"bytes32"}],"stateMutability":"view"},{"type":"function","name":"refunds","inputs":[{"name":"","type":"address","internalType":"address"}],"outputs":[{"name":"","type":"uint256","internalType":"uint256"}],"stateMutability":"view"},{"type":"function","name":"renounceOwnership","inputs":[],"outputs":[],"stateMutability":"nonpayable"},{"type":"function","name":"selectedDate","inputs":[{"name":"","type":"bytes32","internalType":"bytes32"}],"outputs":[{"name":"","type":"uint256","internalType":"uint256"}],"stateMutability":"view"},{"type":"function","name":"selectedProposalIndex","inputs":[{"name":"","type":"bytes32","internalType":"bytes32"}],"outputs":[{"name":"","type":"uint256","internalType":"uint256"}],"stateMutability":"view"},{"type":"function","name":"showInstance","inputs":[],"outputs":[{"name":"","type":"address","internalType":"contract IShow"}],"stateMutability":"view"},{"type":"function","name":"showProposals","inputs":[{"name":"","type":"bytes32","internalType":"bytes32"},{"name":"","type":"uint256","internalType":"uint256"}],"outputs":[{"name":"venue","type":"tuple","internalType":"struct VenueTypes.Venue","components":[{"name":"name","type":"string","internalType":"string"},{"name":"coordinates","type":"tuple","internalType":"struct VenueTypes.Coordinates","components":[{"name":"lat","type":"int256","internalType":"int256"},{"name":"lon","type":"int256","internalType":"int256"}]},{"name":"totalCapacity","type":"uint256","internalType":"uint256"},{"name":"wallet","type":"address","internalType":"address"},{"name":"venueId","type":"bytes32","internalType":"bytes32"}]},{"name":"proposer","type":"address","internalType":"address"},{"name":"bribe","type":"uint256","internalType":"uint256"},{"name":"votes","type":"uint256","internalType":"uint256"},{"name":"accepted","type":"bool","internalType":"bool"}],"stateMutability":"view"},{"type":"function","name":"submitProposal","inputs":[{"name":"showId","type":"bytes32","internalType":"bytes32"},{"name":"venueName","type":"string","internalType":"string"},{"name":"coordinates","type":"tuple","internalType":"struct VenueTypes.Coordinates","components":[{"name":"lat","type":"int256","internalType":"int256"},{"name":"lon","type":"int256","internalType":"int256"}]},{"name":"totalCapacity","type":"uint256","internalType":"uint256"},{"name":"proposedDates","type":"uint256[]","internalType":"uint256[]"}],"outputs":[],"stateMutability":"payable"},{"type":"function","name":"ticketHolderVenueVote","inputs":[{"name":"showId","type":"bytes32","internalType":"bytes32"},{"name":"proposalIndex","type":"uint256","internalType":"uint256"}],"outputs":[],"stateMutability":"nonpayable"},{"type":"function","name":"ticketHolderVotingActive","inputs":[{"name":"","type":"bytes32","internalType":"bytes32"}],"outputs":[{"name":"","type":"bool","internalType":"bool"}],"stateMutability":"view"},{"type":"function","name":"ticketHolderVotingPeriods","inputs":[{"name":"","type":"bytes32","internalType":"bytes32"}],"outputs":[{"name":"endTime","type":"uint256","internalType":"uint256"},{"name":"isPeriodActive","type":"bool","internalType":"bool"}],"stateMutability":"view"},{"type":"function","name":"ticketOwnerVoteIndex","inputs":[{"name":"","type":"bytes32","internalType":"bytes32"},{"name":"","type":"address","internalType":"address"}],"outputs":[{"name":"","type":"uint256","internalType":"uint256"}],"stateMutability":"view"},{"type":"function","name":"transferOwnership","inputs":[{"name":"newOwner","type":"address","internalType":"address"}],"outputs":[],"stateMutability":"nonpayable"},{"type":"function","name":"upgradeToAndCall","inputs":[{"name":"newImplementation","type":"address","internalType":"address"},{"name":"data","type":"bytes","internalType":"bytes"}],"outputs":[],"stateMutability":"payable"},{"type":"function","name":"vote","inputs":[{"name":"showId","type":"bytes32","internalType":"bytes32"},{"name":"proposalIndex","type":"uint256","internalType":"uint256"}],"outputs":[],"stateMutability":"nonpayable"},{"type":"function","name":"voteForDate","inputs":[{"name":"showId","type":"bytes32","internalType":"bytes32"},{"name":"dateIndex","type":"uint256","internalType":"uint256"}],"outputs":[],"stateMutability":"nonpayable"},{"type":"function","name":"votingPeriods","inputs":[{"name":"","type":"bytes32","internalType":"bytes32"}],"outputs":[{"name":"endTime","type":"uint256","internalType":"uint256"},{"name":"isPeriodActive","type":"bool","internalType":"bool"}],"stateMutability":"view"},{"type":"event","name":"DateAccepted","inputs":[{"name":"showId","type":"bytes32","indexed":true,"internalType":"bytes32"},{"name":"dateIndex","type":"uint256","indexed":false,"internalType":"uint256"}],"anonymous":false},{"type":"event","name":"DateVoted","inputs":[{"name":"showId","type":"bytes32","indexed":true,"internalType":"bytes32"},{"name":"voter","type":"address","indexed":true,"internalType":"address"},{"name":"dateIndex","type":"uint256","indexed":false,"internalType":"uint256"}],"anonymous":false},{"type":"event","name":"Initialized","inputs":[{"name":"version","type":"uint64","indexed":false,"internalType":"uint64"}],"anonymous":false},{"type":"event","name":"OwnershipTransferred","inputs":[{"name":"previousOwner","type":"address","indexed":true,"internalType":"address"},{"name":"newOwner","type":"address","indexed":true,"internalType":"address"}],"anonymous":false},{"type":"event","name":"ProposalAccepted","inputs":[{"name":"showId","type":"bytes32","indexed":true,"internalType":"bytes32"},{"name":"proposalIndex","type":"uint256","indexed":false,"internalType":"uint256"}],"anonymous":false},{"type":"event","name":"ProposalPeriodStarted","inputs":[{"name":"showId","type":"bytes32","indexed":true,"internalType":"bytes32"},{"name":"endTime","type":"uint256","indexed":false,"internalType":"uint256"}],"anonymous":false},{"type":"event","name":"ProposalSubmitted","inputs":[{"name":"showId","type":"bytes32","indexed":true,"internalType":"bytes32"},{"name":"proposer","type":"address","indexed":true,"internalType":"address"},{"name":"venueName","type":"string","indexed":false,"internalType":"string"},{"name":"bribe","type":"uint256","indexed":false,"internalType":"uint256"}],"anonymous":false},{"type":"event","name":"ProposalVoted","inputs":[{"name":"showId","type":"bytes32","indexed":true,"internalType":"bytes32"},{"name":"voter","type":"address","indexed":true,"internalType":"address"},{"name":"proposalIndex","type":"uint256","indexed":false,"internalType":"uint256"}],"anonymous":false},{"type":"event","name":"PublicVotingPeriodStarted","inputs":[{"name":"showId","type":"bytes32","indexed":true,"internalType":"bytes32"},{"name":"endTime","type":"uint256","indexed":false,"internalType":"uint256"}],"anonymous":false},{"type":"event","name":"Upgraded","inputs":[{"name":"implementation","type":"address","indexed":true,"internalType":"address"}],"anonymous":false},{"type":"event","name":"VenueVoted","inputs":[{"name":"showId","type":"bytes32","indexed":true,"internalType":"bytes32"},{"name":"voter","type":"address","indexed":true,"internalType":"address"},{"name":"proposalIndex","type":"uint256","indexed":false,"internalType":"uint256"}],"anonymous":false},{"type":"error","name":"AddressEmptyCode","inputs":[{"name":"target","type":"address","internalType":"address"}]},{"type":"error","name":"ERC1967InvalidImplementation","inputs":[{"name":"implementation","type":"address","internalType":"address"}]},{"type":"error","name":"ERC1967NonPayable","inputs":[]},{"type":"error","name":"FailedInnerCall","inputs":[]},{"type":"error","name":"InvalidInitialization","inputs":[]},{"type":"error","name":"NotInitializing","inputs":[]},{"type":"error","name":"OwnableInvalidOwner","inputs":[{"name":"owner","type":"address","internalType":"address"}]},{"type":"error","name":"OwnableUnauthorizedAccount","inputs":[{"name":"account","type":"address","internalType":"address"}]},{"type":"error","name":"UUPSUnauthorizedCallContext","inputs":[]},{"type":"error","name":"UUPSUnsupportedProxiableUUID","inputs":[{"name":"slot","type":"bytes32","internalType":"bytes32"}]}],"bytecode":{"object":"0x60a06040523060805234801561001457600080fd5b5060805161338c61003e60003960008181612080015281816120a901526121ef015261338c6000f3fe6080604052600436106102305760003560e01c8063960c8b451161012e578063d865ae3c116100ab578063eef281361161006f578063eef2813614610901578063f2fde38b1461095f578063f51bba851461097f578063f60eab04146109ba578063f94976c0146109e757600080fd5b8063d865ae3c14610847578063dda9b13c14610874578063e0174d7814610887578063e9801fcb146108b4578063ee6b8b2e146108e157600080fd5b8063ad3cb1cc116100f2578063ad3cb1cc14610721578063b328da121461075f578063bc3da535146107ab578063c15f6bd7146107d8578063d360fb5f1461080f57600080fd5b8063960c8b45146106225780639ef1204c14610653578063a16026f414610673578063aadc3b72146106ae578063ab07426f146106e957600080fd5b80634de89286116101bc57806381cf3ab81161018057806381cf3ab81461051a57806384f3e62c1461053a5780638b79dbe1146105725780638da5cb5b146105a2578063940fed20146105df57600080fd5b80634de89286146104475780634f1ef286146104b057806352d1902d146104c357806366582371146104d8578063715018a61461050557600080fd5b8063398ac6c311610203578063398ac6c31461032c5780633cc44e1914610372578063404f49d1146103aa57806347cc6095146103e2578063485cc9551461042557600080fd5b806303c22ec414610235578063043c97fa1461027e57806321e2c8cf146102b657806325d4e7e8146102e6575b600080fd5b34801561024157600080fd5b5061026b610250366004612afe565b6001600160a01b03166000908152600c602052604090205490565b6040519081526020015b60405180910390f35b34801561028a57600080fd5b5061026b610299366004612b19565b600860209081526000928352604080842090915290825290205481565b3480156102c257600080fd5b506102d66102d1366004612b19565b610a1e565b6040519015158152602001610275565b3480156102f257600080fd5b506102d6610301366004612b19565b60009182526004602090815260408084206001600160a01b0393909316845291905290205460ff1690565b34801561033857600080fd5b506102d6610347366004612b19565b60009182526002602090815260408084206001600160a01b0393909316845291905290205460ff1690565b34801561037e57600080fd5b5061026b61038d366004612b19565b600560209081526000928352604080842090915290825290205481565b3480156103b657600080fd5b50600f546103ca906001600160a01b031681565b6040516001600160a01b039091168152602001610275565b3480156103ee57600080fd5b5061026b6103fd366004612b19565b60009182526006602090815260408084206001600160a01b0393909316845291905290205490565b34801561043157600080fd5b50610445610440366004612b45565b610a4b565b005b34801561045357600080fd5b506104a3610462366004612b6f565b604080518082019091526000808252602082015250600090815260208181526040918290208251808401909352805483526001015460ff1615159082015290565b6040516102759190612b88565b6104456104be366004612c69565b610b7f565b3480156104cf57600080fd5b5061026b610b9e565b3480156104e457600080fd5b5061026b6104f3366004612b6f565b600b6020526000908152604090205481565b34801561051157600080fd5b50610445610bbb565b34801561052657600080fd5b50610445610535366004612ccb565b610bcf565b34801561054657600080fd5b5061026b610555366004612ccb565b600091825260076020908152604080842092845291905290205490565b34801561057e57600080fd5b506102d661058d366004612b6f565b600d6020526000908152604090205460ff1681565b3480156105ae57600080fd5b507f9016d09d72d40fdae2fd8ceac6b6234c7706214fd39c1cd1e609a0528c199300546001600160a01b03166103ca565b3480156105eb57600080fd5b5061026b6105fa366004612b19565b60009182526008602090815260408084206001600160a01b0393909316845291905290205490565b34801561062e57600080fd5b5061064261063d366004612ccb565b611014565b604051610275959493929190612d9b565b34801561065f57600080fd5b5061044561066e366004612ccb565b611152565b34801561067f57600080fd5b506102d661068e366004612b19565b600960209081526000928352604080842090915290825290205460ff1681565b3480156106ba57600080fd5b506102d66106c9366004612b19565b600260209081526000928352604080842090915290825290205460ff1681565b3480156106f557600080fd5b5061026b610704366004612b19565b600660209081526000928352604080842090915290825290205481565b34801561072d57600080fd5b50610752604051806040016040528060058152602001640352e302e360dc1b81525081565b6040516102759190612ddd565b34801561076b57600080fd5b5061079661077a366004612b6f565b6000602081905290815260409020805460019091015460ff1682565b60408051928352901515602083015201610275565b3480156107b757600080fd5b5061026b6107c6366004612afe565b600c6020526000908152604090205481565b3480156107e457600080fd5b506107966107f3366004612b6f565b6003602052600090815260409020805460019091015460ff1682565b34801561081b57600080fd5b5061026b61082a366004612ccb565b600760209081526000928352604080842090915290825290205481565b34801561085357600080fd5b5061026b610862366004612b6f565b600a6020526000908152604090205481565b610445610882366004612e70565b6115de565b34801561089357600080fd5b5061026b6108a2366004612b6f565b6000908152600a602052604090205490565b3480156108c057600080fd5b506108d46108cf366004612b6f565b611b6c565b6040516102759190612f30565b3480156108ed57600080fd5b506104456108fc366004612ccb565b611d5a565b34801561090d57600080fd5b506104a361091c366004612b6f565b6040805180820190915260008082526020820152506000908152600360209081526040918290208251808401909352805483526001015460ff1615159082015290565b34801561096b57600080fd5b5061044561097a366004612afe565b61201e565b34801561098b57600080fd5b506102d661099a366004612b19565b600460209081526000928352604080842090915290825290205460ff1681565b3480156109c657600080fd5b5061026b6109d5366004612b6f565b6000908152600b602052604090205490565b3480156109f357600080fd5b50610796610a02366004612b6f565b600e602052600090815260409020805460019091015460ff1682565b60008281526009602090815260408083206001600160a01b038516845290915290205460ff165b92915050565b7ff0c57e16840df040f15088dc2f81fe391c3923bec73e23a9662efc9c229c6a008054600160401b810460ff16159067ffffffffffffffff16600081158015610a915750825b905060008267ffffffffffffffff166001148015610aae5750303b155b905081158015610abc575080155b15610ada5760405163f92ee8a960e01b815260040160405180910390fd5b845467ffffffffffffffff191660011785558315610b0457845460ff60401b1916600160401b1785555b610b0d8761205c565b610b1561206d565b600f80546001600160a01b0319166001600160a01b0388161790558315610b7657845460ff60401b19168555604051600181527fc7f505b2f371ae2175ee4913f4499e1f2633a7b5936321eed1cdaeb6115181d29060200160405180910390a15b50505050505050565b610b87612075565b610b908261211a565b610b9a8282612122565b5050565b6000610ba86121e4565b5060008051602061333783398151915290565b610bc361222d565b610bcd6000612288565b565b600f54604051632769b96d60e11b81523360048201526024810184905283916001600160a01b031690634ed372da90604401602060405180830381865afa158015610c1e573d6000803e3d6000fd5b505050506040513d601f19601f82011682018060405250810190610c429190613012565b80610cbb5750600f546040516302c9a8b560e01b8152336004820152602481018390526001600160a01b03909116906302c9a8b590604401602060405180830381865afa158015610c97573d6000803e3d6000fd5b505050506040513d601f19601f82011682018060405250810190610cbb9190613012565b610cfd5760405162461bcd60e51b815260206004820152600e60248201526d139bdd08185d5d1a1bdc9a5e995960921b60448201526064015b60405180910390fd5b600083815260016020908152604080832054600b9092529091205410610d705760405162461bcd60e51b815260206004820152602260248201527f4e6f2073656c65637465642070726f706f73616c20666f7220746869732073686044820152616f7760f01b6064820152608401610cf4565b6000838152600160209081526040808320600b9092529091205481548110610d9a57610d9a613034565b90600052602060002090600b0201600601805490508210610df25760405162461bcd60e51b8152602060048201526012602482015271092dcecc2d8d2c840c8c2e8ca40d2dcc8caf60731b6044820152606401610cf4565b60008381526020819052604090205415801590610e1c575060008381526020819052604090205442115b610e685760405162461bcd60e51b815260206004820152601f60248201527f566f74696e6720706572696f6420686173206e6f7420656e64656420796574006044820152606401610cf4565b600083815260096020908152604080832033808552908352818420548785526008845282852091855292529091205460ff90911690818015610eaa5750838114155b15610eda5760008581526007602090815260408083208484529091528120805491610ed483613060565b91905055505b60008581526007602090815260408083208784529091528120805491610eff83613077565b9091555050600085815260096020908152604080832033808552908352818420805460ff19166001179055888452600883528184208185528352928190208790555186815287917f9be4e7a28923fc7c16e20aa07e4d848cd6b3c9a28c315d27b3c51718cfd6ef59910160405180910390a3600f5460405163217fe85b60e21b8152600481018790526000916001600160a01b0316906385ffa16c90602401602060405180830381865afa158015610fbb573d6000803e3d6000fd5b505050506040513d601f19601f82011682018060405250810190610fdf9190613090565b6000878152600760209081526040808320898452909152902054909150811161100c5761100c86866122f9565b505050505050565b6001602052816000526040600020818154811061103057600080fd5b90600052602060002090600b020160009150915050806000016040518060a0016040529081600082018054611064906130a9565b80601f0160208091040260200160405190810160405280929190818152602001828054611090906130a9565b80156110dd5780601f106110b2576101008083540402835291602001916110dd565b820191906000526020600020905b8154815290600101906020018083116110c057829003601f168201915b505050918352505060408051808201825260018401548152600284015460208281019190915283015260038301549082015260048201546001600160a01b039081166060830152600590920154608090910152600783015460088401546009850154600a909501549394919092169260ff1685565b600f54604051632769b96d60e11b81523360048201526024810184905283916001600160a01b031690634ed372da90604401602060405180830381865afa1580156111a1573d6000803e3d6000fd5b505050506040513d601f19601f820116820180604052508101906111c59190613012565b8061123e5750600f546040516302c9a8b560e01b8152336004820152602481018390526001600160a01b03909116906302c9a8b590604401602060405180830381865afa15801561121a573d6000803e3d6000fd5b505050506040513d601f19601f8201168201806040525081019061123e9190613012565b61127b5760405162461bcd60e51b815260206004820152600e60248201526d139bdd08185d5d1a1bdc9a5e995960921b6044820152606401610cf4565b60008381526001602052604090205482106112a85760405162461bcd60e51b8152600401610cf4906130e3565b600083815260208190526040902054158015906112d2575060008381526020819052604090205442115b61131e5760405162461bcd60e51b815260206004820152601f60248201527f566f74696e6720706572696f6420686173206e6f7420656e64656420796574006044820152606401610cf4565b6000838152600d602052604090205460ff16158061134957506000838152600e602052604090205442115b6113ac5760405162461bcd60e51b815260206004820152602e60248201527f5469636b657420686f6c64657220766f74696e67207068617365206d7573742060448201526d18dbdb98db1d591948199a5c9cdd60921b6064820152608401610cf4565b600083815260026020908152604080832033808552908352818420548785526006845282852091855292529091205460ff90911690811561147a578381036114365760405162461bcd60e51b815260206004820152601c60248201527f416c726561647920766f74656420666f7220746869732076656e7565000000006044820152606401610cf4565b600085815260016020526040902080548290811061145657611456613034565b6000918252602082206009600b909202010180549161147483613060565b91905055505b600085815260016020526040902080548590811061149a5761149a613034565b6000918252602082206009600b90920201018054916114b883613077565b9091555050600085815260026020908152604080832033808552908352818420805460ff19166001179055888452600683528184208185528352928190208790555186815287917f09e638baf0aa9cdb2a3233767bf1f976e138af255c4da751ab01215f4c96f2b0910160405180910390a3600f5460405163217fe85b60e21b8152600481018790526000916001600160a01b0316906385ffa16c90602401602060405180830381865afa158015611574573d6000803e3d6000fd5b505050506040513d601f19601f820116820180604052508101906115989190613090565b600087815260016020526040902080549192508291879081106115bd576115bd613034565b90600052602060002090600b0201600901541061100c5761100c8686612466565b600f546040516346c2c8a760e01b8152600481018790526001916001600160a01b0316906346c2c8a790602401602060405180830381865afa158015611628573d6000803e3d6000fd5b505050506040513d601f19601f8201168201806040525081019061164c9190613129565b600781111561165d5761165d613113565b146116a15760405162461bcd60e51b815260206004820152601460248201527314da1bddc81b5d5cdd0818994814dbdb1913dd5d60621b6044820152606401610cf4565b60008581526020819052604090205415806116ca57506000858152602081905260409020544211155b6117125760405162461bcd60e51b8152602060048201526019602482015278141c9bdc1bdcd85b081c195c9a5bd9081a185cc8195b991959603a1b6044820152606401610cf4565b825163055d4a7f191380159061172d5750825163055d4a8012155b61176c5760405162461bcd60e51b815260206004820152601060248201526f496e76616c6964206c6174697475646560801b6044820152606401610cf4565b630aba94ff1983602001511215801561178d5750630aba9500836020015113155b6117cd5760405162461bcd60e51b8152602060048201526011602482015270496e76616c6964206c6f6e67697475646560781b6044820152606401610cf4565b600081511161182a5760405162461bcd60e51b815260206004820152602360248201527f4174206c65617374206f6e652070726f706f73656420646174652072657175696044820152621c995960ea1b6064820152608401610cf4565b6005815111156118875760405162461bcd60e51b815260206004820152602260248201527f50726f706f73616c206d75737420686176652035206f72206c65737320646174604482015261657360f01b6064820152608401610cf4565b60005b815181101561193c576000868152602081905260409020546118af90610a8c9061314a565b8282815181106118c1576118c1613034565b60200260200101511161192a5760405162461bcd60e51b815260206004820152602b60248201527f50726f706f7365642064617465206d757374206265203630206461797320696e60448201526a207468652066757475726560a81b6064820152608401610cf4565b8061193481613077565b91505061188a565b5060008581526020819052604090206001015460ff1661195f5761195f8561270c565b60008581526020819052604090205461197a9060789061315d565b42106119a6576000858152602081905260408120805461012c92906119a090849061314a565b90915550505b82516020808501516040516000936119c49389939192889101613170565b6040516020818303038152906040528051906020012090506119e46129f1565b858152602081018590526040810184905233606082015260808101829052611a0a612a3b565b81815260208082018590523360408084019190915234606084015260006080840181905260a084018190528a8152600180845291812080549283018155815291909120825180518493600b029092019182908190611a6890826131e5565b506020828101518051600184015581015160028301556040830151600383015560608301516004830180546001600160a01b0319166001600160a01b03909216919091179055608090920151600590910155828101518051611ad09260068501920190612a82565b506040828101516007830180546001600160a01b0319166001600160a01b03909216919091179055606083015160088301556080830151600983015560a090920151600a909101805460ff191691151591909117905551339089907f594a9595007bad040e875758ab9d42df126f77d067b240282de66c3d36c74ffe90611b5a908b9034906132a5565b60405180910390a35050505050505050565b606060016000838152602001908152602001600020805480602002602001604051908101604052809291908181526020016000905b82821015611d4f57600084815260209020604080516101608101909152600b84029091018054829060c0820190839082908290611bdd906130a9565b80601f0160208091040260200160405190810160405280929190818152602001828054611c09906130a9565b8015611c565780601f10611c2b57610100808354040283529160200191611c56565b820191906000526020600020905b815481529060010190602001808311611c3957829003601f168201915b50505091835250506040805180820182526001840154815260028401546020828101919091528084019190915260038401548284015260048401546001600160a01b03166060840152600590930154608090920191909152918352600684018054835181840281018401909452808452938201939091830182828015611cfb57602002820191906000526020600020905b815481526020019060010190808311611ce7575b505050918352505060078201546001600160a01b03166020808301919091526008830154604083015260098301546060830152600a9092015460ff1615156080909101529082526001929092019101611ba1565b505050509050919050565b600f54604051635c37da6960e01b8152336004820152602481018490526001600160a01b0390911690635c37da6990604401602060405180830381865afa158015611da9573d6000803e3d6000fd5b505050506040513d601f19601f82011682018060405250810190611dcd9190613012565b611e0e5760405162461bcd60e51b81526020600482015260126024820152712737ba1030903a34b1b5b2ba1037bbb732b960711b6044820152606401610cf4565b600082815260208190526040902054421115611e685760405162461bcd60e51b8152602060048201526019602482015278141c9bdc1bdcd85b081c195c9a5bd9081a185cc8195b991959603a1b6044820152606401610cf4565b6000828152600160205260409020548110611e955760405162461bcd60e51b8152600401610cf4906130e3565b600082815260046020908152604080832033845290915290205460ff1615611f6a576000828152600560209081526040808320338452909152902054818103611f205760405162461bcd60e51b815260206004820152601f60248201527f416c726561647920766f74656420666f7220746869732070726f706f73616c006044820152606401610cf4565b6000838152600160208190526040909120805483908110611f4357611f43613034565b90600052602060002090600b02016009016000828254611f63919061315d565b9091555050505b6000828152600160205260409020805482908110611f8a57611f8a613034565b6000918252602082206009600b9092020101805491611fa883613077565b909155505060008281526005602090815260408083203380855290835281842085905585845260048352818420818552835292819020805460ff191660011790555183815284917f37b8aa4050778a896e18d9773bb81d7a680a33f4b9232d489a3541a7a95c8350910160405180910390a35050565b61202661222d565b6001600160a01b03811661205057604051631e4fbdf760e01b815260006004820152602401610cf4565b61205981612288565b50565b6120646127c8565b61205981612811565b610bcd6127c8565b306001600160a01b037f00000000000000000000000000000000000000000000000000000000000000001614806120fc57507f00000000000000000000000000000000000000000000000000000000000000006001600160a01b03166120f0600080516020613337833981519152546001600160a01b031690565b6001600160a01b031614155b15610bcd5760405163703e46dd60e11b815260040160405180910390fd5b61205961222d565b816001600160a01b03166352d1902d6040518163ffffffff1660e01b8152600401602060405180830381865afa92505050801561217c575060408051601f3d908101601f1916820190925261217991810190613090565b60015b6121a457604051634c9c8ce360e01b81526001600160a01b0383166004820152602401610cf4565b60008051602061333783398151915281146121d557604051632a87526960e21b815260048101829052602401610cf4565b6121df8383612819565b505050565b306001600160a01b037f00000000000000000000000000000000000000000000000000000000000000001614610bcd5760405163703e46dd60e11b815260040160405180910390fd5b3361225f7f9016d09d72d40fdae2fd8ceac6b6234c7706214fd39c1cd1e609a0528c199300546001600160a01b031690565b6001600160a01b031614610bcd5760405163118cdaa760e01b8152336004820152602401610cf4565b7f9016d09d72d40fdae2fd8ceac6b6234c7706214fd39c1cd1e609a0528c19930080546001600160a01b031981166001600160a01b03848116918217845560405192169182907f8be0079c531659141344cd1fd0a4f28419497f9722a3daafe3b4186f6b6457e090600090a3505050565b6000828152600160209081526040808320600b9092528220548154811061232257612322613034565b90600052602060002090600b0201600601828154811061234457612344613034565b600091825260208083209190910154858352600a909152604091829020819055600f549151633256b66b60e11b815260048101869052602481018290529092506001600160a01b03909116906364ad6cd690604401600060405180830381600087803b1580156123b357600080fd5b505af11580156123c7573d6000803e3d6000fd5b50505050827f30f427038b9903ed0be3f545ee5d678ba47d53ce2ffe77eb1eccbde089ec207d826040516123fd91815260200190565b60405180910390a2600f5460405163054372ed60e01b81526001600160a01b039091169063054372ed906124389086906003906004016132c7565b600060405180830381600087803b15801561245257600080fd5b505af1158015610b76573d6000803e3d6000fd5b60008281526001602052604090205481106124935760405162461bcd60e51b8152600401610cf4906130e3565b60008281526001602052604081208054839081106124b3576124b3613034565b90600052602060002090600b02016000016040518060a00160405290816000820180546124df906130a9565b80601f016020809104026020016040519081016040528092919081815260200182805461250b906130a9565b80156125585780601f1061252d57610100808354040283529160200191612558565b820191906000526020600020905b81548152906001019060200180831161253b57829003601f168201915b5050509183525050604080518082018252600184810154825260028501546020838101919091528085019290925260038501548385015260048501546001600160a01b03166060850152600590940154608090930192909252600087815291839052902080549293509091849081106125d3576125d3613034565b60009182526020808320600b92830201600a01805460ff191694151594909417909355858252909152604090819020839055600f54905163054372ed60e01b81526001600160a01b039091169063054372ed906126379086906002906004016132c7565b600060405180830381600087803b15801561265157600080fd5b505af1158015612665573d6000803e3d6000fd5b5050600f546040516330a78b7960e21b81526001600160a01b03909116925063c29e2de4915061269b90869085906004016132f9565b600060405180830381600087803b1580156126b557600080fd5b505af11580156126c9573d6000803e3d6000fd5b50505050827fa4cdb24ce3dbadfa51e723cabdbbd7124e6b55e68a4b41d3eb42a00d144eefe3836040516126ff91815260200190565b60405180910390a2505050565b60008181526020819052604090206001908101805460ff191690911790556127366107084261314a565b600082815260208181526040808320938455600d82528083208054600160ff1991821681179092558251808401845286548152808501838152888752600e86528487209151825551920180549091169115159190911790559181529154905190815282917fbe893194ee9c4752250e88ba9de293863b73822c4663c78d6cad1f9aa7d91cdc910160405180910390a250565b7ff0c57e16840df040f15088dc2f81fe391c3923bec73e23a9662efc9c229c6a0054600160401b900460ff16610bcd57604051631afcd79f60e31b815260040160405180910390fd5b6120266127c8565b6128228261286f565b6040516001600160a01b038316907fbc7cd75a20ee27fd9adebab32041f755214dbc6bffa90cc0225b39da2e5c2d3b90600090a2805115612867576121df82826128d4565b610b9a61294a565b806001600160a01b03163b6000036128a557604051634c9c8ce360e01b81526001600160a01b0382166004820152602401610cf4565b60008051602061333783398151915280546001600160a01b0319166001600160a01b0392909216919091179055565b6060600080846001600160a01b0316846040516128f1919061331a565b600060405180830381855af49150503d806000811461292c576040519150601f19603f3d011682016040523d82523d6000602084013e612931565b606091505b5091509150612941858383612969565b95945050505050565b3415610bcd5760405163b398979f60e01b815260040160405180910390fd5b60608261297e57612979826129c8565b6129c1565b815115801561299557506001600160a01b0384163b155b156129be57604051639996b31560e01b81526001600160a01b0385166004820152602401610cf4565b50805b9392505050565b8051156129d85780518082602001fd5b604051630a12f52160e11b815260040160405180910390fd5b6040518060a0016040528060608152602001612a20604051806040016040528060008152602001600081525090565b81526000602082018190526040820181905260609091015290565b6040518060c00160405280612a4e6129f1565b81526020016060815260200160006001600160a01b0316815260200160008152602001600081526020016000151581525090565b828054828255906000526020600020908101928215612abd579160200282015b82811115612abd578251825591602001919060010190612aa2565b50612ac9929150612acd565b5090565b5b80821115612ac95760008155600101612ace565b80356001600160a01b0381168114612af957600080fd5b919050565b600060208284031215612b1057600080fd5b6129c182612ae2565b60008060408385031215612b2c57600080fd5b82359150612b3c60208401612ae2565b90509250929050565b60008060408385031215612b5857600080fd5b612b6183612ae2565b9150612b3c60208401612ae2565b600060208284031215612b8157600080fd5b5035919050565b8151815260208083015115159082015260408101610a45565b634e487b7160e01b600052604160045260246000fd5b6040805190810167ffffffffffffffff81118282101715612bda57612bda612ba1565b60405290565b604051601f8201601f1916810167ffffffffffffffff81118282101715612c0957612c09612ba1565b604052919050565b600067ffffffffffffffff831115612c2b57612c2b612ba1565b612c3e601f8401601f1916602001612be0565b9050828152838383011115612c5257600080fd5b828260208301376000602084830101529392505050565b60008060408385031215612c7c57600080fd5b612c8583612ae2565b9150602083013567ffffffffffffffff811115612ca157600080fd5b8301601f81018513612cb257600080fd5b612cc185823560208401612c11565b9150509250929050565b60008060408385031215612cde57600080fd5b50508035926020909101359150565b60005b83811015612d08578181015183820152602001612cf0565b50506000910152565b60008151808452612d29816020860160208601612ced565b601f01601f19169290920160200192915050565b6000815160c08452612d5260c0850182612d11565b905060208301518051602086015260208101516040860152506040830151606085015260018060a01b036060840151166080850152608083015160a08501528091505092915050565b60a081526000612dae60a0830188612d3d565b6001600160a01b0396909616602083015250604081019390935260608301919091521515608090910152919050565b6020815260006129c16020830184612d11565b600082601f830112612e0157600080fd5b8135602067ffffffffffffffff821115612e1d57612e1d612ba1565b8160051b612e2c828201612be0565b9283528481018201928281019087851115612e4657600080fd5b83870192505b84831015612e6557823582529183019190830190612e4c565b979650505050505050565b600080600080600085870360c0811215612e8957600080fd5b86359550602087013567ffffffffffffffff80821115612ea857600080fd5b818901915089601f830112612ebc57600080fd5b612ecb8a833560208501612c11565b96506040603f1984011215612edf57600080fd5b612ee7612bb7565b60408a0135815260608a0135602082015295506080890135945060a0890135925080831115612f1557600080fd5b5050612f2388828901612df0565b9150509295509295909350565b60006020808301818452808551808352604092508286019150828160051b8701018488016000805b8481101561300357603f198a8503018652825160c08151818752612f7e82880182612d3d565b838c0151888203898e01528051808352908d019350869250908c01905b80831015612fbb5783518252928c019260019290920191908c0190612f9b565b508a8401516001600160a01b0316888c0152606080850151908901526080808501519089015260a0938401511515939097019290925250509487019491870191600101612f58565b50919998505050505050505050565b60006020828403121561302457600080fd5b815180151581146129c157600080fd5b634e487b7160e01b600052603260045260246000fd5b634e487b7160e01b600052601160045260246000fd5b60008161306f5761306f61304a565b506000190190565b6000600182016130895761308961304a565b5060010190565b6000602082840312156130a257600080fd5b5051919050565b600181811c908216806130bd57607f821691505b6020821081036130dd57634e487b7160e01b600052602260045260246000fd5b50919050565b602080825260169082015275092dcecc2d8d2c840e0e4dee0dee6c2d840d2dcc8caf60531b604082015260600190565b634e487b7160e01b600052602160045260246000fd5b60006020828403121561313b57600080fd5b8151600881106129c157600080fd5b80820180821115610a4557610a4561304a565b81810381811115610a4557610a4561304a565b60008551613182818460208a01612ced565b919091019384525060208301919091526040820152606001919050565b601f8211156121df57600081815260208120601f850160051c810160208610156131c65750805b601f850160051c820191505b8181101561100c578281556001016131d2565b815167ffffffffffffffff8111156131ff576131ff612ba1565b6132138161320d84546130a9565b8461319f565b602080601f83116001811461324857600084156132305750858301515b600019600386901b1c1916600185901b17855561100c565b600085815260208120601f198616915b8281101561327757888601518255948401946001909101908401613258565b50858210156132955787850151600019600388901b60f8161c191681555b5050505050600190811b01905550565b6040815260006132b86040830185612d11565b90508260208301529392505050565b82815260408101600883106132ec57634e487b7160e01b600052602160045260246000fd5b8260208301529392505050565b8281526040602082015260006133126040830184612d3d565b949350505050565b6000825161332c818460208701612ced565b919091019291505056fe360894a13ba1a3210667c828492db98dca3e2076cc3735a920a3ca505d382bbca2646970667358221220f5efde917d5ca7c78e4cdbedef37609980be9367d311fb94e2e0d9c2f003ebc264736f6c63430008140033","linkReferences":{}},"methodIdentifiers":{"UPGRADE_INTERFACE_VERSION()":"ad3cb1cc","dateVotes(bytes32,uint256)":"d360fb5f","getDateVotes(bytes32,uint256)":"84f3e62c","getHasDateVoted(bytes32,address)":"21e2c8cf","getHasTicketOwnerVoted(bytes32,address)":"25d4e7e8","getHasVoted(bytes32,address)":"398ac6c3","getPreviousDateVote(bytes32,address)":"940fed20","getPreviousVote(bytes32,address)":"47cc6095","getProposalPeriod(bytes32)":"4de89286","getRefunds(address)":"03c22ec4","getSelectedDate(bytes32)":"e0174d78","getSelectedProposalIndex(bytes32)":"f60eab04","getShowProposals(bytes32)":"e9801fcb","getVotingPeriods(bytes32)":"eef28136","hasDateVoted(bytes32,address)":"a16026f4","hasTicketOwnerVoted(bytes32,address)":"f51bba85","hasVoted(bytes32,address)":"aadc3b72","initialize(address,address)":"485cc955","owner()":"8da5cb5b","previousDateVote(bytes32,address)":"043c97fa","previousVote(bytes32,address)":"ab07426f","proposalPeriod(bytes32)":"b328da12","proxiableUUID()":"52d1902d","refunds(address)":"bc3da535","renounceOwnership()":"715018a6","selectedDate(bytes32)":"d865ae3c","selectedProposalIndex(bytes32)":"66582371","showInstance()":"404f49d1","showProposals(bytes32,uint256)":"960c8b45","submitProposal(bytes32,string,(int256,int256),uint256,uint256[])":"dda9b13c","ticketHolderVenueVote(bytes32,uint256)":"ee6b8b2e","ticketHolderVotingActive(bytes32)":"8b79dbe1","ticketHolderVotingPeriods(bytes32)":"f94976c0","ticketOwnerVoteIndex(bytes32,address)":"3cc44e19","transferOwnership(address)":"f2fde38b","upgradeToAndCall(address,bytes)":"4f1ef286","vote(bytes32,uint256)":"9ef1204c","voteForDate(bytes32,uint256)":"81cf3ab8","votingPeriods(bytes32)":"c15f6bd7"},"id":73}