{"abi":[{"type":"function","name":"deployVenueRegistry","inputs":[{"name":"initialOwner","type":"address","internalType":"address"},{"name":"referralModuleAddress","type":"address","internalType":"address"}],"outputs":[{"name":"","type":"address","internalType":"address"}],"stateMutability":"nonpayable"}],"bytecode":{"object":"0x608060405234801561001057600080fd5b50612d58806100206000396000f3fe608060405234801561001057600080fd5b506004361061002b5760003560e01c80631b02250414610030575b600080fd5b61004361003e366004610153565b61005f565b6040516001600160a01b03909116815260200160405180910390f35b60008060405161006e9061011d565b604051809103906000f08015801561008a573d6000803e3d6000fd5b50604080516001600160a01b038781166024830152861660448083019190915282518083039091018152606490910182526020810180516001600160e01b031663485cc95560e01b179052905191925090600090839083906100eb9061012a565b6100f6929190610186565b604051809103906000f080158015610112573d6000803e3d6000fd5b509695505050505050565b61265d806101e583390190565b6104e18061284283390190565b80356001600160a01b038116811461014e57600080fd5b919050565b6000806040838503121561016657600080fd5b61016f83610137565b915061017d60208401610137565b90509250929050565b60018060a01b038316815260006020604081840152835180604085015260005b818110156101c2578581018301518582016060015282016101a6565b506000606082860101526060601f19601f83011685010192505050939250505056fe60a06040523060805234801561001457600080fd5b5060805161261f61003e6000396000818161100001528181611029015261116f015261261f6000f3fe6080604052600436106101295760003560e01c8063715018a6116100ab578063b332180b1161006f578063b332180b14610371578063b4ec198014610391578063d3468de7146103c1578063e985e9c5146103d6578063f242432a146103f6578063f2fde38b1461041657600080fd5b8063715018a6146102955780638da5cb5b146102aa5780639873f738146102f1578063a22cb46514610320578063ad3cb1cc1461034057600080fd5b8063485cc955116100f2578063485cc955146102005780634e1273f4146102205780634f1ef2861461024d57806352d1902d146102605780636e343b941461027557600080fd5b8062fdd58e1461012e57806301ffc9a7146101615780630e89341c146101915780632e63de1c146101be5780632eb2c2d6146101e0575b600080fd5b34801561013a57600080fd5b5061014e610149366004611c5f565b610436565b6040519081526020015b60405180910390f35b34801561016d57600080fd5b5061018161017c366004611c9f565b61046d565b6040519015158152602001610158565b34801561019d57600080fd5b506101b16101ac366004611cbc565b6104bd565b6040516101589190611d25565b3480156101ca57600080fd5b506101de6101d9366004611cbc565b610582565b005b3480156101ec57600080fd5b506101de6101fb366004611e7b565b610645565b34801561020c57600080fd5b506101de61021b366004611f24565b6106ac565b34801561022c57600080fd5b5061024061023b366004611f57565b6107ff565b6040516101589190612051565b6101de61025b366004612064565b6108d3565b34801561026c57600080fd5b5061014e6108f2565b34801561028157600080fd5b506101de6102903660046120a7565b61090f565b3480156102a157600080fd5b506101de6109ca565b3480156102b657600080fd5b507f9016d09d72d40fdae2fd8ceac6b6234c7706214fd39c1cd1e609a0528c199300546040516001600160a01b039091168152602001610158565b3480156102fd57600080fd5b5061031161030c366004612113565b6109de565b6040516101589392919061212e565b34801561032c57600080fd5b506101de61033b36600461216c565b610bac565b34801561034c57600080fd5b506101b1604051806040016040528060058152602001640352e302e360dc1b81525081565b34801561037d57600080fd5b506101de61038c366004612113565b610bb7565b34801561039d57600080fd5b506101816103ac366004612113565b60026020526000908152604090205460ff1681565b3480156103cd57600080fd5b506101de610d4c565b3480156103e257600080fd5b506101816103f1366004611f24565b610e12565b34801561040257600080fd5b506101de6104113660046121a8565b610e5f565b34801561042257600080fd5b506101de610431366004612113565b610ebe565b60008181526000805160206125ca833981519152602090815260408083206001600160a01b03861684529091529020545b92915050565b60006001600160e01b03198216636cdb3d1360e11b148061049e57506001600160e01b031982166303a24d0760e21b145b8061046757506301ffc9a760e01b6001600160e01b0319831614610467565b7f88be536d5240c274a3b1d3a1be54482fd9caa294f08c62a7cde569f49a3c450280546060916000805160206125ca833981519152916104fc9061220c565b80601f01602080910402602001604051908101604052809291908181526020018280546105289061220c565b80156105755780601f1061054a57610100808354040283529160200191610575565b820191906000526020600020905b81548152906001019060200180831161055857829003601f168201915b5050505050915050919050565b60035481111580156105ad57506000818152602081905260409020600201546001600160a01b031633145b6105d25760405162461bcd60e51b81526004016105c990612246565b60405180910390fd5b6105de33826001610efc565b6000818152602081905260408120906105f78282611bf5565b610605600183016000611bf5565b5060020180546001600160a01b031916905560405181907fee0cdc4ae3243e3824b2d6e7fdc29bc86356054f8729d89bb1f980e436ebf45690600090a250565b336001600160a01b038616811480159061066657506106648682610e12565b155b156106975760405163711bec9160e11b81526001600160a01b038083166004830152871660248201526044016105c9565b6106a48686868686610f6b565b505050505050565b7ff0c57e16840df040f15088dc2f81fe391c3923bec73e23a9662efc9c229c6a008054600160401b810460ff1615906001600160401b03166000811580156106f15750825b90506000826001600160401b0316600114801561070d5750303b155b90508115801561071b575080155b156107395760405163f92ee8a960e01b815260040160405180910390fd5b845467ffffffffffffffff19166001178555831561076357845460ff60401b1916600160401b1785555b6107846040518060600160405280602a8152602001612580602a9139610fcb565b61078d87610fdc565b610795610fed565b600480546001600160a01b0319166001600160a01b03881617905583156107f657845460ff60401b19168555604051600181527fc7f505b2f371ae2175ee4913f4499e1f2633a7b5936321eed1cdaeb6115181d29060200160405180910390a15b50505050505050565b606081518351146108305781518351604051635b05999160e01b8152600481019290925260248201526044016105c9565b600083516001600160401b0381111561084b5761084b611d38565b604051908082528060200260200182016040528015610874578160200160208202803683370190505b50905060005b84518110156108cb5760208082028601015161089e90602080840287010151610436565b8282815181106108b0576108b0612288565b60209081029190910101526108c4816122b4565b905061087a565b509392505050565b6108db610ff5565b6108e48261109a565b6108ee82826110a2565b5050565b60006108fc611164565b506000805160206125aa83398151915290565b600354831115801561093a57506000838152602081905260409020600201546001600160a01b031633145b6109565760405162461bcd60e51b81526004016105c990612246565b600083815260208190526040902061096e8382612313565b50600083815260208190526040902060010161098a8282612313565b50827fe0fa826bef29f45d944c7f492f1c8d4af09825b9ebeda6fc8857301b212fefee83836040516109bd9291906123d2565b60405180910390a2505050565b6109d26111ad565b6109dc6000611208565b565b6001600160a01b0381166000908152600160205260408120546060918291808203610a425760405162461bcd60e51b815260206004820152601460248201527315995b9d5948191bd95cc81b9bdd08195e1a5cdd60621b60448201526064016105c9565b600081815260208190526040808220815160608101909252805482908290610a699061220c565b80601f0160208091040260200160405190810160405280929190818152602001828054610a959061220c565b8015610ae25780601f10610ab757610100808354040283529160200191610ae2565b820191906000526020600020905b815481529060010190602001808311610ac557829003601f168201915b50505050508152602001600182018054610afb9061220c565b80601f0160208091040260200160405190810160405280929190818152602001828054610b279061220c565b8015610b745780601f10610b4957610100808354040283529160200191610b74565b820191906000526020600020905b815481529060010190602001808311610b5757829003601f168201915b5050509183525050600291909101546001600160a01b0316602091820152815190820151604090920151909891975095509350505050565b6108ee338383611279565b60048054604051632615fb8360e21b815233928101929092526000916001600160a01b0390911690639857ee0c90602401606060405180830381865afa158015610c05573d6000803e3d6000fd5b505050506040513d601f19601f82011682018060405250810190610c2991906123f7565b90506000816040015111610c8b5760405162461bcd60e51b815260206004820152602360248201527f496e73756666696369656e742076656e756520726566657272616c206372656460448201526269747360e81b60648201526084016105c9565b600480546040516321ceab3d60e01b815233928101929092526000602483018190526044830152600160648301526001600160a01b0316906321ceab3d90608401600060405180830381600087803b158015610ce657600080fd5b505af1158015610cfa573d6000803e3d6000fd5b5050506001600160a01b038316600081815260026020526040808220805460ff19166001179055519192507f179ea4397e946d9cae2283c1107800f5a4cc157ad746eb00b9b310a20b1535e791a25050565b3360009081526002602052604090205460ff16610da15760405162461bcd60e51b8152602060048201526013602482015272139bc81b9bdb5a5b985d1a5bdb88199bdd5b99606a1b60448201526064016105c9565b336000908152600260209081526040808320805460ff19169055805180830182528381528151928301909152918152610dda9190611321565b6003546040513381527f4108d491dd9d5aec1ab384350857e890c9670a0cfc211b075c99d187b8d4cc449060200160405180910390a2565b6001600160a01b0391821660009081527f88be536d5240c274a3b1d3a1be54482fd9caa294f08c62a7cde569f49a3c45016020908152604080832093909416825291909152205460ff1690565b336001600160a01b0386168114801590610e805750610e7e8682610e12565b155b15610eb15760405163711bec9160e11b81526001600160a01b038083166004830152871660248201526044016105c9565b6106a48686868686611415565b610ec66111ad565b6001600160a01b038116610ef057604051631e4fbdf760e01b8152600060048201526024016105c9565b610ef981611208565b50565b6001600160a01b038316610f2557604051626a0d4560e21b8152600060048201526024016105c9565b604080516001808252602082018590528183019081526060820184905260a08201909252600060808201818152919291610f6491879185908590611496565b5050505050565b6001600160a01b038416610f9557604051632bfa23e760e11b8152600060048201526024016105c9565b6001600160a01b038516610fbe57604051626a0d4560e21b8152600060048201526024016105c9565b610f648585858585611496565b610fd36114e9565b610ef981611532565b610fe46114e9565b610ef981611543565b6109dc6114e9565b306001600160a01b037f000000000000000000000000000000000000000000000000000000000000000016148061107c57507f00000000000000000000000000000000000000000000000000000000000000006001600160a01b03166110706000805160206125aa833981519152546001600160a01b031690565b6001600160a01b031614155b156109dc5760405163703e46dd60e11b815260040160405180910390fd5b610ef96111ad565b816001600160a01b03166352d1902d6040518163ffffffff1660e01b8152600401602060405180830381865afa9250505080156110fc575060408051601f3d908101601f191682019092526110f991810190612452565b60015b61112457604051634c9c8ce360e01b81526001600160a01b03831660048201526024016105c9565b6000805160206125aa833981519152811461115557604051632a87526960e21b8152600481018290526024016105c9565b61115f838361154b565b505050565b306001600160a01b037f000000000000000000000000000000000000000000000000000000000000000016146109dc5760405163703e46dd60e11b815260040160405180910390fd5b336111df7f9016d09d72d40fdae2fd8ceac6b6234c7706214fd39c1cd1e609a0528c199300546001600160a01b031690565b6001600160a01b0316146109dc5760405163118cdaa760e01b81523360048201526024016105c9565b7f9016d09d72d40fdae2fd8ceac6b6234c7706214fd39c1cd1e609a0528c19930080546001600160a01b031981166001600160a01b03848116918217845560405192169182907f8be0079c531659141344cd1fd0a4f28419497f9722a3daafe3b4186f6b6457e090600090a3505050565b6000805160206125ca8339815191526001600160a01b0383166112b15760405162ced3e160e81b8152600060048201526024016105c9565b6001600160a01b038481166000818152600184016020908152604080832094881680845294825291829020805460ff191687151590811790915591519182527f17307eab39ab6107e8899845ad3d59bd9653f200f220920489ca2b5937696c31910160405180910390a350505050565b60038054906000611331836122b4565b9091555050600354604080516060810182528481526020808201859052338284018190526000858152918290529290208151819061136f9082612313565b50602082015160018201906113849082612313565b5060409182015160029190910180546001600160a01b0319166001600160a01b03928316179055821660009081526001602081815283832086905583519081019093529082526113d791839185916115a1565b817f4a1a8dd345d4634777a7739c3a6f69bce4bef57cb87046f252ae16bca95a7623856040516114079190611d25565b60405180910390a250505050565b6001600160a01b03841661143f57604051632bfa23e760e11b8152600060048201526024016105c9565b6001600160a01b03851661146857604051626a0d4560e21b8152600060048201526024016105c9565b604080516001808252602082018690528183019081526060820185905260808201909252906107f687878484875b6114a2858585856115fe565b6001600160a01b03841615610f6457825133906001036114db57602084810151908401516114d483898985858961182c565b50506106a4565b6106a4818787878787611950565b7ff0c57e16840df040f15088dc2f81fe391c3923bec73e23a9662efc9c229c6a0054600160401b900460ff166109dc57604051631afcd79f60e31b815260040160405180910390fd5b61153a6114e9565b610ef981611a39565b610ec66114e9565b61155482611a73565b6040516001600160a01b038316907fbc7cd75a20ee27fd9adebab32041f755214dbc6bffa90cc0225b39da2e5c2d3b90600090a28051156115995761115f8282611ad8565b6108ee611b4e565b6001600160a01b0384166115cb57604051632bfa23e760e11b8152600060048201526024016105c9565b604080516001808252602082018690528183019081526060820185905260808201909252906106a4600087848487611496565b805182516000805160206125ca833981519152911461163d5782518251604051635b05999160e01b8152600481019290925260248201526044016105c9565b3360005b845181101561174c576020818102868101820151908601909101516001600160a01b038916156116f4576000828152602086815260408083206001600160a01b038d168452909152902054818110156116cd576040516303dee4c560e01b81526001600160a01b038b1660048201526024810182905260448101839052606481018490526084016105c9565b6000838152602087815260408083206001600160a01b038e16845290915290209082900390555b6001600160a01b03881615611739576000828152602086815260408083206001600160a01b038c1684529091528120805483929061173390849061246b565b90915550505b505080611745906122b4565b9050611641565b5083516001036117cd5760208401516000906020850151909150866001600160a01b0316886001600160a01b0316846001600160a01b03167fc3d58168c5ae7397731d063d5bbf3d657854427343f4c083240f7aacaa2d0f6285856040516117be929190918252602082015260400190565b60405180910390a450506106a4565b846001600160a01b0316866001600160a01b0316826001600160a01b03167f4a39dc06d4c0dbc64b70af90fd698a233a518aa5d07e595d983b8c0526c8f7fb878760405161181c92919061247e565b60405180910390a4505050505050565b6001600160a01b0384163b156106a45760405163f23a6e6160e01b81526001600160a01b0385169063f23a6e619061187090899089908890889088906004016124a3565b6020604051808303816000875af19250505080156118ab575060408051601f3d908101601f191682019092526118a8918101906124e8565b60015b611914573d8080156118d9576040519150601f19603f3d011682016040523d82523d6000602084013e6118de565b606091505b50805160000361190c57604051632bfa23e760e11b81526001600160a01b03861660048201526024016105c9565b805181602001fd5b6001600160e01b0319811663f23a6e6160e01b146107f657604051632bfa23e760e11b81526001600160a01b03861660048201526024016105c9565b6001600160a01b0384163b156106a45760405163bc197c8160e01b81526001600160a01b0385169063bc197c81906119949089908990889088908890600401612505565b6020604051808303816000875af19250505080156119cf575060408051601f3d908101601f191682019092526119cc918101906124e8565b60015b6119fd573d8080156118d9576040519150601f19603f3d011682016040523d82523d6000602084013e6118de565b6001600160e01b0319811663bc197c8160e01b146107f657604051632bfa23e760e11b81526001600160a01b03861660048201526024016105c9565b6000805160206125ca8339815191527f88be536d5240c274a3b1d3a1be54482fd9caa294f08c62a7cde569f49a3c450261115f8382612313565b806001600160a01b03163b600003611aa957604051634c9c8ce360e01b81526001600160a01b03821660048201526024016105c9565b6000805160206125aa83398151915280546001600160a01b0319166001600160a01b0392909216919091179055565b6060600080846001600160a01b031684604051611af59190612563565b600060405180830381855af49150503d8060008114611b30576040519150601f19603f3d011682016040523d82523d6000602084013e611b35565b606091505b5091509150611b45858383611b6d565b95945050505050565b34156109dc5760405163b398979f60e01b815260040160405180910390fd5b606082611b8257611b7d82611bcc565b611bc5565b8151158015611b9957506001600160a01b0384163b155b15611bc257604051639996b31560e01b81526001600160a01b03851660048201526024016105c9565b50805b9392505050565b805115611bdc5780518082602001fd5b604051630a12f52160e11b815260040160405180910390fd5b508054611c019061220c565b6000825580601f10611c11575050565b601f016020900490600052602060002090810190610ef991905b80821115611c3f5760008155600101611c2b565b5090565b80356001600160a01b0381168114611c5a57600080fd5b919050565b60008060408385031215611c7257600080fd5b611c7b83611c43565b946020939093013593505050565b6001600160e01b031981168114610ef957600080fd5b600060208284031215611cb157600080fd5b8135611bc581611c89565b600060208284031215611cce57600080fd5b5035919050565b60005b83811015611cf0578181015183820152602001611cd8565b50506000910152565b60008151808452611d11816020860160208601611cd5565b601f01601f19169290920160200192915050565b602081526000611bc56020830184611cf9565b634e487b7160e01b600052604160045260246000fd5b604051601f8201601f191681016001600160401b0381118282101715611d7657611d76611d38565b604052919050565b60006001600160401b03821115611d9757611d97611d38565b5060051b60200190565b600082601f830112611db257600080fd5b81356020611dc7611dc283611d7e565b611d4e565b82815260059290921b84018101918181019086841115611de657600080fd5b8286015b84811015611e015780358352918301918301611dea565b509695505050505050565b600082601f830112611e1d57600080fd5b81356001600160401b03811115611e3657611e36611d38565b611e49601f8201601f1916602001611d4e565b818152846020838601011115611e5e57600080fd5b816020850160208301376000918101602001919091529392505050565b600080600080600060a08688031215611e9357600080fd5b611e9c86611c43565b9450611eaa60208701611c43565b935060408601356001600160401b0380821115611ec657600080fd5b611ed289838a01611da1565b94506060880135915080821115611ee857600080fd5b611ef489838a01611da1565b93506080880135915080821115611f0a57600080fd5b50611f1788828901611e0c565b9150509295509295909350565b60008060408385031215611f3757600080fd5b611f4083611c43565b9150611f4e60208401611c43565b90509250929050565b60008060408385031215611f6a57600080fd5b82356001600160401b0380821115611f8157600080fd5b818501915085601f830112611f9557600080fd5b81356020611fa5611dc283611d7e565b82815260059290921b84018101918181019089841115611fc457600080fd5b948201945b83861015611fe957611fda86611c43565b82529482019490820190611fc9565b96505086013592505080821115611fff57600080fd5b5061200c85828601611da1565b9150509250929050565b600081518084526020808501945080840160005b838110156120465781518752958201959082019060010161202a565b509495945050505050565b602081526000611bc56020830184612016565b6000806040838503121561207757600080fd5b61208083611c43565b915060208301356001600160401b0381111561209b57600080fd5b61200c85828601611e0c565b6000806000606084860312156120bc57600080fd5b8335925060208401356001600160401b03808211156120da57600080fd5b6120e687838801611e0c565b935060408601359150808211156120fc57600080fd5b5061210986828701611e0c565b9150509250925092565b60006020828403121561212557600080fd5b611bc582611c43565b6060815260006121416060830186611cf9565b82810360208401526121538186611cf9565b91505060018060a01b0383166040830152949350505050565b6000806040838503121561217f57600080fd5b61218883611c43565b91506020830135801515811461219d57600080fd5b809150509250929050565b600080600080600060a086880312156121c057600080fd5b6121c986611c43565b94506121d760208701611c43565b9350604086013592506060860135915060808601356001600160401b0381111561220057600080fd5b611f1788828901611e0c565b600181811c9082168061222057607f821691505b60208210810361224057634e487b7160e01b600052602260045260246000fd5b50919050565b60208082526022908201527f556e617574686f72697a6564206f72206e6f6e2d6578697374656e742076656e604082015261756560f01b606082015260800190565b634e487b7160e01b600052603260045260246000fd5b634e487b7160e01b600052601160045260246000fd5b6000600182016122c6576122c661229e565b5060010190565b601f82111561115f57600081815260208120601f850160051c810160208610156122f45750805b601f850160051c820191505b818110156106a457828155600101612300565b81516001600160401b0381111561232c5761232c611d38565b6123408161233a845461220c565b846122cd565b602080601f831160018114612375576000841561235d5750858301515b600019600386901b1c1916600185901b1785556106a4565b600085815260208120601f198616915b828110156123a457888601518255948401946001909101908401612385565b50858210156123c25787850151600019600388901b60f8161c191681555b5050505050600190811b01905550565b6040815260006123e56040830185611cf9565b8281036020840152611b458185611cf9565b60006060828403121561240957600080fd5b604051606081018181106001600160401b038211171561242b5761242b611d38565b80604052508251815260208301516020820152604083015160408201528091505092915050565b60006020828403121561246457600080fd5b5051919050565b808201808211156104675761046761229e565b6040815260006124916040830185612016565b8281036020840152611b458185612016565b6001600160a01b03868116825285166020820152604081018490526060810183905260a0608082018190526000906124dd90830184611cf9565b979650505050505050565b6000602082840312156124fa57600080fd5b8151611bc581611c89565b6001600160a01b0386811682528516602082015260a06040820181905260009061253190830186612016565b82810360608401526125438186612016565b905082810360808401526125578185611cf9565b98975050505050505050565b60008251612575818460208701611cd5565b919091019291505056fe68747470733a2f2f6170692e796f75726170702e636f6d2f6d657461646174612f7b69647d2e6a736f6e360894a13ba1a3210667c828492db98dca3e2076cc3735a920a3ca505d382bbc88be536d5240c274a3b1d3a1be54482fd9caa294f08c62a7cde569f49a3c4500a264697066735822122025074bb044f65513caeb5c83b5fd8e5cc333cc7d3d4cc06a3e9450fbc6bc7bcd64736f6c6343000814003360806040526040516104e13803806104e1833981016040819052610022916102de565b61002e82826000610035565b50506103fb565b61003e83610061565b60008251118061004b5750805b1561005c5761005a83836100a1565b505b505050565b61006a816100cd565b6040516001600160a01b038216907fbc7cd75a20ee27fd9adebab32041f755214dbc6bffa90cc0225b39da2e5c2d3b90600090a250565b60606100c683836040518060600160405280602781526020016104ba60279139610180565b9392505050565b6001600160a01b0381163b61013f5760405162461bcd60e51b815260206004820152602d60248201527f455243313936373a206e657720696d706c656d656e746174696f6e206973206e60448201526c1bdd08184818dbdb9d1c9858dd609a1b60648201526084015b60405180910390fd5b7f360894a13ba1a3210667c828492db98dca3e2076cc3735a920a3ca505d382bbc80546001600160a01b0319166001600160a01b0392909216919091179055565b6060600080856001600160a01b03168560405161019d91906103ac565b600060405180830381855af49150503d80600081146101d8576040519150601f19603f3d011682016040523d82523d6000602084013e6101dd565b606091505b5090925090506101ef868383876101f9565b9695505050505050565b60608315610268578251600003610261576001600160a01b0385163b6102615760405162461bcd60e51b815260206004820152601d60248201527f416464726573733a2063616c6c20746f206e6f6e2d636f6e74726163740000006044820152606401610136565b5081610272565b610272838361027a565b949350505050565b81511561028a5781518083602001fd5b8060405162461bcd60e51b815260040161013691906103c8565b634e487b7160e01b600052604160045260246000fd5b60005b838110156102d55781810151838201526020016102bd565b50506000910152565b600080604083850312156102f157600080fd5b82516001600160a01b038116811461030857600080fd5b60208401519092506001600160401b038082111561032557600080fd5b818501915085601f83011261033957600080fd5b81518181111561034b5761034b6102a4565b604051601f8201601f19908116603f01168101908382118183101715610373576103736102a4565b8160405282815288602084870101111561038c57600080fd5b61039d8360208301602088016102ba565b80955050505050509250929050565b600082516103be8184602087016102ba565b9190910192915050565b60208152600082518060208401526103e78160408501602087016102ba565b601f01601f19169190910160400192915050565b60b1806104096000396000f3fe608060405236601057600e6013565b005b600e5b601f601b6021565b6058565b565b600060537f360894a13ba1a3210667c828492db98dca3e2076cc3735a920a3ca505d382bbc546001600160a01b031690565b905090565b3660008037600080366000845af43d6000803e8080156076573d6000f35b3d6000fdfea264697066735822122027f562cde8265aa90118a53b2f65370962feb418519bf39bfc7ccbb34402bb5164736f6c63430008140033416464726573733a206c6f772d6c6576656c2064656c65676174652063616c6c206661696c6564a264697066735822122032a2b0c432698a38d7e45def1fc99280e61d7beb52db3582959ff23d286a7a1664736f6c63430008140033","linkReferences":{}},"methodIdentifiers":{"deployVenueRegistry(address,address)":"1b022504"},"id":38}