{"abi":[{"type":"function","name":"UPGRADE_INTERFACE_VERSION","inputs":[],"outputs":[{"name":"","type":"string","internalType":"string"}],"stateMutability":"view"},{"type":"function","name":"dateVotes","inputs":[{"name":"","type":"bytes32","internalType":"bytes32"},{"name":"","type":"uint256","internalType":"uint256"}],"outputs":[{"name":"","type":"uint256","internalType":"uint256"}],"stateMutability":"view"},{"type":"function","name":"getDateVotes","inputs":[{"name":"showId","type":"bytes32","internalType":"bytes32"},{"name":"date","type":"uint256","internalType":"uint256"}],"outputs":[{"name":"","type":"uint256","internalType":"uint256"}],"stateMutability":"view"},{"type":"function","name":"getHasDateVoted","inputs":[{"name":"showId","type":"bytes32","internalType":"bytes32"},{"name":"user","type":"address","internalType":"address"}],"outputs":[{"name":"","type":"bool","internalType":"bool"}],"stateMutability":"view"},{"type":"function","name":"getHasTicketOwnerVoted","inputs":[{"name":"showId","type":"bytes32","internalType":"bytes32"},{"name":"user","type":"address","internalType":"address"}],"outputs":[{"name":"","type":"bool","internalType":"bool"}],"stateMutability":"view"},{"type":"function","name":"getHasVoted","inputs":[{"name":"showId","type":"bytes32","internalType":"bytes32"},{"name":"user","type":"address","internalType":"address"}],"outputs":[{"name":"","type":"bool","internalType":"bool"}],"stateMutability":"view"},{"type":"function","name":"getPreviousDateVote","inputs":[{"name":"showId","type":"bytes32","internalType":"bytes32"},{"name":"user","type":"address","internalType":"address"}],"outputs":[{"name":"","type":"uint256","internalType":"uint256"}],"stateMutability":"view"},{"type":"function","name":"getPreviousVote","inputs":[{"name":"showId","type":"bytes32","internalType":"bytes32"},{"name":"user","type":"address","internalType":"address"}],"outputs":[{"name":"","type":"uint256","internalType":"uint256"}],"stateMutability":"view"},{"type":"function","name":"getProposal","inputs":[{"name":"showId","type":"bytes32","internalType":"bytes32"},{"name":"proposalIndex","type":"uint256","internalType":"uint256"}],"outputs":[{"name":"","type":"tuple","internalType":"struct VenueTypes.Proposal","components":[{"name":"venue","type":"tuple","internalType":"struct VenueRegistryTypes.VenueInfo","components":[{"name":"venueId","type":"uint256","internalType":"uint256"},{"name":"name","type":"string","internalType":"string"},{"name":"bio","type":"string","internalType":"string"},{"name":"wallet","type":"address","internalType":"address"},{"name":"coordinates","type":"tuple","internalType":"struct VenueRegistryTypes.Coordinates","components":[{"name":"latitude","type":"int256","internalType":"int256"},{"name":"longitude","type":"int256","internalType":"int256"}]},{"name":"totalCapacity","type":"uint256","internalType":"uint256"},{"name":"streetAddress","type":"string","internalType":"string"}]},{"name":"proposedDates","type":"uint256[]","internalType":"uint256[]"},{"name":"proposer","type":"address","internalType":"address"},{"name":"bribe","type":"uint256","internalType":"uint256"},{"name":"votes","type":"uint256","internalType":"uint256"},{"name":"accepted","type":"bool","internalType":"bool"},{"name":"paymentToken","type":"address","internalType":"address"}]}],"stateMutability":"view"},{"type":"function","name":"getProposalPeriod","inputs":[{"name":"showId","type":"bytes32","internalType":"bytes32"}],"outputs":[{"name":"","type":"tuple","internalType":"struct VenueTypes.ProposalPeriod","components":[{"name":"endTime","type":"uint256","internalType":"uint256"},{"name":"isPeriodActive","type":"bool","internalType":"bool"}]}],"stateMutability":"view"},{"type":"function","name":"getProposalsCount","inputs":[{"name":"showId","type":"bytes32","internalType":"bytes32"}],"outputs":[{"name":"","type":"uint256","internalType":"uint256"}],"stateMutability":"view"},{"type":"function","name":"getRefunds","inputs":[{"name":"user","type":"address","internalType":"address"}],"outputs":[{"name":"","type":"uint256","internalType":"uint256"}],"stateMutability":"view"},{"type":"function","name":"getSelectedDate","inputs":[{"name":"showId","type":"bytes32","internalType":"bytes32"}],"outputs":[{"name":"","type":"uint256","internalType":"uint256"}],"stateMutability":"view"},{"type":"function","name":"getSelectedProposalIndex","inputs":[{"name":"showId","type":"bytes32","internalType":"bytes32"}],"outputs":[{"name":"","type":"uint256","internalType":"uint256"}],"stateMutability":"view"},{"type":"function","name":"getShowProposals","inputs":[{"name":"showId","type":"bytes32","internalType":"bytes32"}],"outputs":[{"name":"","type":"tuple[]","internalType":"struct VenueTypes.Proposal[]","components":[{"name":"venue","type":"tuple","internalType":"struct VenueRegistryTypes.VenueInfo","components":[{"name":"venueId","type":"uint256","internalType":"uint256"},{"name":"name","type":"string","internalType":"string"},{"name":"bio","type":"string","internalType":"string"},{"name":"wallet","type":"address","internalType":"address"},{"name":"coordinates","type":"tuple","internalType":"struct VenueRegistryTypes.Coordinates","components":[{"name":"latitude","type":"int256","internalType":"int256"},{"name":"longitude","type":"int256","internalType":"int256"}]},{"name":"totalCapacity","type":"uint256","internalType":"uint256"},{"name":"streetAddress","type":"string","internalType":"string"}]},{"name":"proposedDates","type":"uint256[]","internalType":"uint256[]"},{"name":"proposer","type":"address","internalType":"address"},{"name":"bribe","type":"uint256","internalType":"uint256"},{"name":"votes","type":"uint256","internalType":"uint256"},{"name":"accepted","type":"bool","internalType":"bool"},{"name":"paymentToken","type":"address","internalType":"address"}]}],"stateMutability":"view"},{"type":"function","name":"getVotingPeriods","inputs":[{"name":"showId","type":"bytes32","internalType":"bytes32"}],"outputs":[{"name":"","type":"tuple","internalType":"struct VenueTypes.VotingPeriod","components":[{"name":"endTime","type":"uint256","internalType":"uint256"},{"name":"isPeriodActive","type":"bool","internalType":"bool"}]}],"stateMutability":"view"},{"type":"function","name":"hasDateVoted","inputs":[{"name":"","type":"bytes32","internalType":"bytes32"},{"name":"","type":"address","internalType":"address"}],"outputs":[{"name":"","type":"bool","internalType":"bool"}],"stateMutability":"view"},{"type":"function","name":"hasTicketOwnerVoted","inputs":[{"name":"","type":"bytes32","internalType":"bytes32"},{"name":"","type":"address","internalType":"address"}],"outputs":[{"name":"","type":"bool","internalType":"bool"}],"stateMutability":"view"},{"type":"function","name":"hasVoted","inputs":[{"name":"","type":"bytes32","internalType":"bytes32"},{"name":"","type":"address","internalType":"address"}],"outputs":[{"name":"","type":"bool","internalType":"bool"}],"stateMutability":"view"},{"type":"function","name":"initialize","inputs":[{"name":"initialOwner","type":"address","internalType":"address"},{"name":"_proposalPeriodDuration","type":"uint256","internalType":"uint256"},{"name":"_proposalDateExtension","type":"uint256","internalType":"uint256"},{"name":"_proposalDateMinimumFuture","type":"uint256","internalType":"uint256"},{"name":"_proposalPeriodExtensionThreshold","type":"uint256","internalType":"uint256"}],"outputs":[],"stateMutability":"nonpayable"},{"type":"function","name":"owner","inputs":[],"outputs":[{"name":"","type":"address","internalType":"address"}],"stateMutability":"view"},{"type":"function","name":"previousDateVote","inputs":[{"name":"","type":"bytes32","internalType":"bytes32"},{"name":"","type":"address","internalType":"address"}],"outputs":[{"name":"","type":"uint256","internalType":"uint256"}],"stateMutability":"view"},{"type":"function","name":"previousVote","inputs":[{"name":"","type":"bytes32","internalType":"bytes32"},{"name":"","type":"address","internalType":"address"}],"outputs":[{"name":"","type":"uint256","internalType":"uint256"}],"stateMutability":"view"},{"type":"function","name":"proposalDateExtension","inputs":[],"outputs":[{"name":"","type":"uint256","internalType":"uint256"}],"stateMutability":"view"},{"type":"function","name":"proposalDateMinimumFuture","inputs":[],"outputs":[{"name":"","type":"uint256","internalType":"uint256"}],"stateMutability":"view"},{"type":"function","name":"proposalPeriod","inputs":[{"name":"","type":"bytes32","internalType":"bytes32"}],"outputs":[{"name":"endTime","type":"uint256","internalType":"uint256"},{"name":"isPeriodActive","type":"bool","internalType":"bool"}],"stateMutability":"view"},{"type":"function","name":"proposalPeriodDuration","inputs":[],"outputs":[{"name":"","type":"uint256","internalType":"uint256"}],"stateMutability":"view"},{"type":"function","name":"proposalPeriodExtensionThreshold","inputs":[],"outputs":[{"name":"","type":"uint256","internalType":"uint256"}],"stateMutability":"view"},{"type":"function","name":"proxiableUUID","inputs":[],"outputs":[{"name":"","type":"bytes32","internalType":"bytes32"}],"stateMutability":"view"},{"type":"function","name":"refunds","inputs":[{"name":"","type":"address","internalType":"address"}],"outputs":[{"name":"","type":"uint256","internalType":"uint256"}],"stateMutability":"view"},{"type":"function","name":"renounceOwnership","inputs":[],"outputs":[],"stateMutability":"nonpayable"},{"type":"function","name":"resetBribe","inputs":[{"name":"showId","type":"bytes32","internalType":"bytes32"},{"name":"proposalIndex","type":"uint256","internalType":"uint256"}],"outputs":[],"stateMutability":"nonpayable"},{"type":"function","name":"selectedDate","inputs":[{"name":"","type":"bytes32","internalType":"bytes32"}],"outputs":[{"name":"","type":"uint256","internalType":"uint256"}],"stateMutability":"view"},{"type":"function","name":"selectedProposalIndex","inputs":[{"name":"","type":"bytes32","internalType":"bytes32"}],"outputs":[{"name":"","type":"uint256","internalType":"uint256"}],"stateMutability":"view"},{"type":"function","name":"setContractAddresses","inputs":[{"name":"_showContractAddress","type":"address","internalType":"address"},{"name":"_showVaultAddress","type":"address","internalType":"address"},{"name":"_venueRegistryAddress","type":"address","internalType":"address"}],"outputs":[],"stateMutability":"nonpayable"},{"type":"function","name":"showInstance","inputs":[],"outputs":[{"name":"","type":"address","internalType":"contract IShow"}],"stateMutability":"view"},{"type":"function","name":"showProposals","inputs":[{"name":"","type":"bytes32","internalType":"bytes32"},{"name":"","type":"uint256","internalType":"uint256"}],"outputs":[{"name":"venue","type":"tuple","internalType":"struct VenueRegistryTypes.VenueInfo","components":[{"name":"venueId","type":"uint256","internalType":"uint256"},{"name":"name","type":"string","internalType":"string"},{"name":"bio","type":"string","internalType":"string"},{"name":"wallet","type":"address","internalType":"address"},{"name":"coordinates","type":"tuple","internalType":"struct VenueRegistryTypes.Coordinates","components":[{"name":"latitude","type":"int256","internalType":"int256"},{"name":"longitude","type":"int256","internalType":"int256"}]},{"name":"totalCapacity","type":"uint256","internalType":"uint256"},{"name":"streetAddress","type":"string","internalType":"string"}]},{"name":"proposer","type":"address","internalType":"address"},{"name":"bribe","type":"uint256","internalType":"uint256"},{"name":"votes","type":"uint256","internalType":"uint256"},{"name":"accepted","type":"bool","internalType":"bool"},{"name":"paymentToken","type":"address","internalType":"address"}],"stateMutability":"view"},{"type":"function","name":"showVaultInstance","inputs":[],"outputs":[{"name":"","type":"address","internalType":"contract IShowVault"}],"stateMutability":"view"},{"type":"function","name":"submitProposal","inputs":[{"name":"showId","type":"bytes32","internalType":"bytes32"},{"name":"venueId","type":"uint256","internalType":"uint256"},{"name":"proposedDates","type":"uint256[]","internalType":"uint256[]"},{"name":"paymentToken","type":"address","internalType":"address"}],"outputs":[],"stateMutability":"payable"},{"type":"function","name":"ticketHolderVenueVote","inputs":[{"name":"showId","type":"bytes32","internalType":"bytes32"},{"name":"proposalIndex","type":"uint256","internalType":"uint256"}],"outputs":[],"stateMutability":"nonpayable"},{"type":"function","name":"ticketHolderVotingActive","inputs":[{"name":"","type":"bytes32","internalType":"bytes32"}],"outputs":[{"name":"","type":"bool","internalType":"bool"}],"stateMutability":"view"},{"type":"function","name":"ticketHolderVotingPeriods","inputs":[{"name":"","type":"bytes32","internalType":"bytes32"}],"outputs":[{"name":"endTime","type":"uint256","internalType":"uint256"},{"name":"isPeriodActive","type":"bool","internalType":"bool"}],"stateMutability":"view"},{"type":"function","name":"ticketOwnerVoteIndex","inputs":[{"name":"","type":"bytes32","internalType":"bytes32"},{"name":"","type":"address","internalType":"address"}],"outputs":[{"name":"","type":"uint256","internalType":"uint256"}],"stateMutability":"view"},{"type":"function","name":"transferOwnership","inputs":[{"name":"newOwner","type":"address","internalType":"address"}],"outputs":[],"stateMutability":"nonpayable"},{"type":"function","name":"upgradeToAndCall","inputs":[{"name":"newImplementation","type":"address","internalType":"address"},{"name":"data","type":"bytes","internalType":"bytes"}],"outputs":[],"stateMutability":"payable"},{"type":"function","name":"venueRegistryInstance","inputs":[],"outputs":[{"name":"","type":"address","internalType":"contract IVenueRegistry"}],"stateMutability":"view"},{"type":"function","name":"vote","inputs":[{"name":"showId","type":"bytes32","internalType":"bytes32"},{"name":"proposalIndex","type":"uint256","internalType":"uint256"}],"outputs":[],"stateMutability":"nonpayable"},{"type":"function","name":"voteForDate","inputs":[{"name":"showId","type":"bytes32","internalType":"bytes32"},{"name":"dateIndex","type":"uint256","internalType":"uint256"}],"outputs":[],"stateMutability":"nonpayable"},{"type":"function","name":"votingPeriods","inputs":[{"name":"","type":"bytes32","internalType":"bytes32"}],"outputs":[{"name":"endTime","type":"uint256","internalType":"uint256"},{"name":"isPeriodActive","type":"bool","internalType":"bool"}],"stateMutability":"view"},{"type":"event","name":"DateAccepted","inputs":[{"name":"showId","type":"bytes32","indexed":true,"internalType":"bytes32"},{"name":"dateIndex","type":"uint256","indexed":false,"internalType":"uint256"}],"anonymous":false},{"type":"event","name":"DateVoted","inputs":[{"name":"showId","type":"bytes32","indexed":true,"internalType":"bytes32"},{"name":"voter","type":"address","indexed":true,"internalType":"address"},{"name":"dateIndex","type":"uint256","indexed":false,"internalType":"uint256"}],"anonymous":false},{"type":"event","name":"Initialized","inputs":[{"name":"version","type":"uint64","indexed":false,"internalType":"uint64"}],"anonymous":false},{"type":"event","name":"OwnershipTransferred","inputs":[{"name":"previousOwner","type":"address","indexed":true,"internalType":"address"},{"name":"newOwner","type":"address","indexed":true,"internalType":"address"}],"anonymous":false},{"type":"event","name":"ProposalAccepted","inputs":[{"name":"showId","type":"bytes32","indexed":true,"internalType":"bytes32"},{"name":"proposalIndex","type":"uint256","indexed":false,"internalType":"uint256"}],"anonymous":false},{"type":"event","name":"ProposalPeriodStarted","inputs":[{"name":"showId","type":"bytes32","indexed":true,"internalType":"bytes32"},{"name":"endTime","type":"uint256","indexed":false,"internalType":"uint256"}],"anonymous":false},{"type":"event","name":"ProposalSubmitted","inputs":[{"name":"showId","type":"bytes32","indexed":true,"internalType":"bytes32"},{"name":"proposer","type":"address","indexed":true,"internalType":"address"},{"name":"venueName","type":"string","indexed":false,"internalType":"string"},{"name":"bribe","type":"uint256","indexed":false,"internalType":"uint256"}],"anonymous":false},{"type":"event","name":"ProposalVoted","inputs":[{"name":"showId","type":"bytes32","indexed":true,"internalType":"bytes32"},{"name":"voter","type":"address","indexed":true,"internalType":"address"},{"name":"proposalIndex","type":"uint256","indexed":false,"internalType":"uint256"}],"anonymous":false},{"type":"event","name":"PublicVotingPeriodStarted","inputs":[{"name":"showId","type":"bytes32","indexed":true,"internalType":"bytes32"},{"name":"endTime","type":"uint256","indexed":false,"internalType":"uint256"}],"anonymous":false},{"type":"event","name":"Upgraded","inputs":[{"name":"implementation","type":"address","indexed":true,"internalType":"address"}],"anonymous":false},{"type":"event","name":"VenueVoted","inputs":[{"name":"showId","type":"bytes32","indexed":true,"internalType":"bytes32"},{"name":"voter","type":"address","indexed":true,"internalType":"address"},{"name":"proposalIndex","type":"uint256","indexed":false,"internalType":"uint256"}],"anonymous":false},{"type":"error","name":"AddressEmptyCode","inputs":[{"name":"target","type":"address","internalType":"address"}]},{"type":"error","name":"ERC1967InvalidImplementation","inputs":[{"name":"implementation","type":"address","internalType":"address"}]},{"type":"error","name":"ERC1967NonPayable","inputs":[]},{"type":"error","name":"FailedInnerCall","inputs":[]},{"type":"error","name":"InvalidInitialization","inputs":[]},{"type":"error","name":"NotInitializing","inputs":[]},{"type":"error","name":"OwnableInvalidOwner","inputs":[{"name":"owner","type":"address","internalType":"address"}]},{"type":"error","name":"OwnableUnauthorizedAccount","inputs":[{"name":"account","type":"address","internalType":"address"}]},{"type":"error","name":"UUPSUnauthorizedCallContext","inputs":[]},{"type":"error","name":"UUPSUnsupportedProxiableUUID","inputs":[{"name":"slot","type":"bytes32","internalType":"bytes32"}]}],"bytecode":{"object":"0x60a06040523060805234801561001457600080fd5b5060805161414f61003e6000396000818161254d0152818161257601526126bc015261414f6000f3fe6080604052600436106102ae5760003560e01c80638da5cb5b11610175578063c663df9c116100dc578063eef2813611610095578063f60eab041161006f578063f60eab0414610b37578063f92ad21914610b64578063f94976c014610b84578063fcd73bf814610bbb57600080fd5b8063eef2813614610a7e578063f2fde38b14610adc578063f51bba8514610afc57600080fd5b8063c663df9c14610972578063d360fb5f1461099f578063d865ae3c146109d7578063e0174d7814610a04578063e9801fcb14610a31578063ee6b8b2e14610a5e57600080fd5b8063aadc3b721161012e578063aadc3b7214610811578063ab07426f1461084c578063ad3cb1cc14610884578063b328da12146108c2578063bc3da5351461090e578063c15f6bd71461093b57600080fd5b80638da5cb5b146106f1578063940fed201461072e578063960c8b45146107715780639ef1204c146107a3578063a16026f4146107c3578063a3e24eef146107fe57600080fd5b80635a9d58411161021957806381cf3ab8116101d257806381cf3ab81461061357806384f3e62c1461063357806386de15eb1461066b578063899a5ab7146106815780638ab63380146106a15780638b79dbe1146106c157600080fd5b80635a9d584114610565578063665823711461057b5780636a017891146105a85780636d9be57f146105c8578063703ee4e5146105de578063715018a6146105fe57600080fd5b80633d77f7eb1161026b5780633d77f7eb14610428578063404f49d11461045557806347cc60951461048d5780634de89286146104d05780634f1ef2861461053b57806352d1902d1461055057600080fd5b806303c22ec4146102b3578063043c97fa146102fc57806321e2c8cf1461033457806325d4e7e814610364578063398ac6c3146103aa5780633cc44e19146103f0575b600080fd5b3480156102bf57600080fd5b506102e96102ce3660046136e3565b6001600160a01b031660009081526013602052604090205490565b6040519081526020015b60405180910390f35b34801561030857600080fd5b506102e9610317366004613700565b600f60209081526000928352604080842090915290825290205481565b34801561034057600080fd5b5061035461034f366004613700565b610bd1565b60405190151581526020016102f3565b34801561037057600080fd5b5061035461037f366004613700565b6000918252600b602090815260408084206001600160a01b0393909316845291905290205460ff1690565b3480156103b657600080fd5b506103546103c5366004613700565b60009182526009602090815260408084206001600160a01b0393909316845291905290205460ff1690565b3480156103fc57600080fd5b506102e961040b366004613700565b600c60209081526000928352604080842090915290825290205481565b34801561043457600080fd5b506102e9610443366004613730565b60009081526008602052604090205490565b34801561046157600080fd5b50600054610475906001600160a01b031681565b6040516001600160a01b0390911681526020016102f3565b34801561049957600080fd5b506102e96104a8366004613700565b6000918252600d602090815260408084206001600160a01b0393909316845291905290205490565b3480156104dc57600080fd5b5061052e6104eb366004613730565b6040805180820190915260008082526020820152506000908152600760209081526040918290208251808401909352805483526001015460ff1615159082015290565b6040516102f39190613749565b61054e6105493660046137fa565b610bfe565b005b34801561055c57600080fd5b506102e9610c1d565b34801561057157600080fd5b506102e960045481565b34801561058757600080fd5b506102e9610596366004613730565b60126020526000908152604090205481565b3480156105b457600080fd5b50600254610475906001600160a01b031681565b3480156105d457600080fd5b506102e960065481565b3480156105ea57600080fd5b50600154610475906001600160a01b031681565b34801561060a57600080fd5b5061054e610c3a565b34801561061f57600080fd5b5061054e61062e36600461388d565b610c4e565b34801561063f57600080fd5b506102e961064e36600461388d565b6000918252600e6020908152604080842092845291905290205490565b34801561067757600080fd5b506102e960055481565b34801561068d57600080fd5b5061054e61069c36600461388d565b611088565b3480156106ad57600080fd5b5061054e6106bc3660046138af565b61112c565b3480156106cd57600080fd5b506103546106dc366004613730565b60146020526000908152604090205460ff1681565b3480156106fd57600080fd5b507f9016d09d72d40fdae2fd8ceac6b6234c7706214fd39c1cd1e609a0528c199300546001600160a01b0316610475565b34801561073a57600080fd5b506102e9610749366004613700565b6000918252600f602090815260408084206001600160a01b0393909316845291905290205490565b34801561077d57600080fd5b5061079161078c36600461388d565b611276565b6040516102f3969594939291906139d1565b3480156107af57600080fd5b5061054e6107be36600461388d565b6114f1565b3480156107cf57600080fd5b506103546107de366004613700565b601060209081526000928352604080842090915290825290205460ff1681565b61054e61080c366004613a1e565b611972565b34801561081d57600080fd5b5061035461082c366004613700565b600960209081526000928352604080842090915290825290205460ff1681565b34801561085857600080fd5b506102e9610867366004613700565b600d60209081526000928352604080842090915290825290205481565b34801561089057600080fd5b506108b5604051806040016040528060058152602001640352e302e360dc1b81525081565b6040516102f39190613aea565b3480156108ce57600080fd5b506108f96108dd366004613730565b6007602052600090815260409020805460019091015460ff1682565b604080519283529015156020830152016102f3565b34801561091a57600080fd5b506102e96109293660046136e3565b60136020526000908152604090205481565b34801561094757600080fd5b506108f9610956366004613730565b600a602052600090815260409020805460019091015460ff1682565b34801561097e57600080fd5b5061099261098d36600461388d565b611ae5565b6040516102f39190613bbf565b3480156109ab57600080fd5b506102e96109ba36600461388d565b600e60209081526000928352604080842090915290825290205481565b3480156109e357600080fd5b506102e96109f2366004613730565b60116020526000908152604090205481565b348015610a1057600080fd5b506102e9610a1f366004613730565b60009081526011602052604090205490565b348015610a3d57600080fd5b50610a51610a4c366004613730565b611de4565b6040516102f39190613bd2565b348015610a6a57600080fd5b5061054e610a7936600461388d565b61210b565b348015610a8a57600080fd5b5061052e610a99366004613730565b6040805180820190915260008082526020820152506000908152600a60209081526040918290208251808401909352805483526001015460ff1615159082015290565b348015610ae857600080fd5b5061054e610af73660046136e3565b6123d4565b348015610b0857600080fd5b50610354610b17366004613700565b600b60209081526000928352604080842090915290825290205460ff1681565b348015610b4357600080fd5b506102e9610b52366004613730565b60009081526012602052604090205490565b348015610b7057600080fd5b5061054e610b7f366004613c34565b612412565b348015610b9057600080fd5b506108f9610b9f366004613730565b6015602052600090815260409020805460019091015460ff1682565b348015610bc757600080fd5b506102e960035481565b60008281526010602090815260408083206001600160a01b038516845290915290205460ff165b92915050565b610c06612542565b610c0f826125e7565b610c1982826125ef565b5050565b6000610c276126b1565b506000805160206140fa83398151915290565b610c426126fa565b610c4c6000612755565b565b600054604051632769b96d60e11b81523360048201526024810184905283916001600160a01b031690634ed372da90604401602060405180830381865afa158015610c9d573d6000803e3d6000fd5b505050506040513d601f19601f82011682018060405250810190610cc19190613c78565b80610d3a57506000546040516302c9a8b560e01b8152336004820152602481018390526001600160a01b03909116906302c9a8b590604401602060405180830381865afa158015610d16573d6000803e3d6000fd5b505050506040513d601f19601f82011682018060405250810190610d3a9190613c78565b610d715760405162461bcd60e51b815260206004820152600360248201526221617560e81b60448201526064015b60405180910390fd5b60008381526008602090815260408083205460129092529091205410610de45760405162461bcd60e51b815260206004820152602260248201527f4e6f2073656c65637465642070726f706f73616c20666f7220746869732073686044820152616f7760f01b6064820152608401610d68565b600083815260086020908152604080832060129092529091205481548110610e0e57610e0e613c9a565b90600052602060002090600d0201600801805490508210610e665760405162461bcd60e51b8152602060048201526012602482015271092dcecc2d8d2c840c8c2e8ca40d2dcc8caf60731b6044820152606401610d68565b60008381526007602052604090205415801590610e90575060008381526007602052604090205442115b610edc5760405162461bcd60e51b815260206004820152601f60248201527f566f74696e6720706572696f6420686173206e6f7420656e64656420796574006044820152606401610d68565b60008381526010602090815260408083203380855290835281842054878552600f845282852091855292529091205460ff90911690818015610f1e5750838114155b15610f4e576000858152600e602090815260408083208484529091528120805491610f4883613cc6565b91905055505b6000858152600e602090815260408083208784529091528120805491610f7383613cdd565b9091555050600085815260106020908152604080832033808552908352818420805460ff19166001179055888452600f83528184208185528352928190208790555186815287917f9be4e7a28923fc7c16e20aa07e4d848cd6b3c9a28c315d27b3c51718cfd6ef59910160405180910390a36000805460405163217fe85b60e21b8152600481018890526001600160a01b03909116906385ffa16c90602401602060405180830381865afa15801561102f573d6000803e3d6000fd5b505050506040513d601f19601f820116820180604052508101906110539190613cf6565b6000878152600e6020908152604080832089845290915290205490915081116110805761108086866127c6565b505050505050565b6000546001600160a01b031633146110c75760405162461bcd60e51b8152602060048201526002602482015261217360f01b6044820152606401610d68565b60008281526008602052604090205481106110f45760405162461bcd60e51b8152600401610d6890613d0f565b600082815260086020526040812080548390811061111457611114613c9a565b600091825260208220600a600d909202010155505050565b6000546001600160a01b0316156111855760405162461bcd60e51b815260206004820152601960248201527f53686f7720636f6e747261637420616c726561647920736574000000000000006044820152606401610d68565b6001546001600160a01b0316156111de5760405162461bcd60e51b815260206004820152601a60248201527f56656e756520726567697374727920616c7265616479207365740000000000006044820152606401610d68565b6002546001600160a01b0316156112375760405162461bcd60e51b815260206004820152601e60248201527f53686f775661756c7420726567697374727920616c72656164792073657400006044820152606401610d68565b600080546001600160a01b039485166001600160a01b031991821617909155600180549285169282169290921790915560028054929093169116179055565b6008602052816000526040600020818154811061129257600080fd5b90600052602060002090600d020160009150915050806000016040518060e0016040529081600082015481526020016001820180546112d090613d3f565b80601f01602080910402602001604051908101604052809291908181526020018280546112fc90613d3f565b80156113495780601f1061131e57610100808354040283529160200191611349565b820191906000526020600020905b81548152906001019060200180831161132c57829003601f168201915b5050505050815260200160028201805461136290613d3f565b80601f016020809104026020016040519081016040528092919081815260200182805461138e90613d3f565b80156113db5780601f106113b0576101008083540402835291602001916113db565b820191906000526020600020905b8154815290600101906020018083116113be57829003601f168201915b505050918352505060038201546001600160a01b0316602080830191909152604080518082018252600485015481526005850154928101929092528201526006820154606082015260078201805460809092019161143890613d3f565b80601f016020809104026020016040519081016040528092919081815260200182805461146490613d3f565b80156114b15780601f10611486576101008083540402835291602001916114b1565b820191906000526020600020905b81548152906001019060200180831161149457829003601f168201915b505050919092525050506009820154600a830154600b840154600c9094015492936001600160a01b03928316939192909160ff8116916101009091041686565b600054604051632769b96d60e11b81523360048201526024810184905283916001600160a01b031690634ed372da90604401602060405180830381865afa158015611540573d6000803e3d6000fd5b505050506040513d601f19601f820116820180604052508101906115649190613c78565b806115dd57506000546040516302c9a8b560e01b8152336004820152602481018390526001600160a01b03909116906302c9a8b590604401602060405180830381865afa1580156115b9573d6000803e3d6000fd5b505050506040513d601f19601f820116820180604052508101906115dd9190613c78565b61160f5760405162461bcd60e51b815260206004820152600360248201526221617560e81b6044820152606401610d68565b600083815260086020526040902054821061163c5760405162461bcd60e51b8152600401610d6890613d0f565b60008381526007602052604090205415801590611666575060008381526007602052604090205442115b6116b25760405162461bcd60e51b815260206004820152601f60248201527f566f74696e6720706572696f6420686173206e6f7420656e64656420796574006044820152606401610d68565b60008381526014602052604090205460ff1615806116dd575060008381526015602052604090205442115b6117405760405162461bcd60e51b815260206004820152602e60248201527f5469636b657420686f6c64657220766f74696e67207068617365206d7573742060448201526d18dbdb98db1d591948199a5c9cdd60921b6064820152608401610d68565b60008381526009602090815260408083203380855290835281842054878552600d845282852091855292529091205460ff90911690811561180e578381036117ca5760405162461bcd60e51b815260206004820152601c60248201527f416c726561647920766f74656420666f7220746869732076656e7565000000006044820152606401610d68565b60008581526008602052604090208054829081106117ea576117ea613c9a565b600091825260208220600b600d909202010180549161180883613cc6565b91905055505b600085815260086020526040902080548590811061182e5761182e613c9a565b600091825260208220600b600d909202010180549161184c83613cdd565b9091555050600085815260096020908152604080832033808552908352818420805460ff19166001179055888452600d83528184208185528352928190208790555186815287917f09e638baf0aa9cdb2a3233767bf1f976e138af255c4da751ab01215f4c96f2b0910160405180910390a36000805460405163217fe85b60e21b8152600481018890526001600160a01b03909116906385ffa16c90602401602060405180830381865afa158015611908573d6000803e3d6000fd5b505050506040513d601f19601f8201168201806040525081019061192c9190613cf6565b6000878152600860205260409020805491925082918790811061195157611951613c9a565b90600052602060002090600d0201600b01541061108057611080868661293a565b6001546040516304d2518160e11b81523360048201526001600160a01b03909116906309a4a30290602401602060405180830381865afa1580156119ba573d6000803e3d6000fd5b505050506040513d601f19601f820116820180604052508101906119de9190613c78565b611a215760405162461bcd60e51b815260206004820152601460248201527315995b9d59481b9bdd081c9959da5cdd195c995960621b6044820152606401610d68565b611a2b8483612d0b565b60008481526007602052604090206001015460ff16611a4d57611a4d84612ea3565b611a5684612f67565b600154604051633a7f44d360e01b8152600481018590526000916001600160a01b031690633a7f44d390602401600060405180830381865afa158015611aa0573d6000803e3d6000fd5b505050506040513d6000823e601f3d908101601f19168201604052611ac89190810190613e20565b90506000611ad68684612fb2565b9050611080868386848761319c565b611aed6135a6565b6000838152600860205260409020805483908110611b0d57611b0d613c9a565b90600052602060002090600d02016040518060e0016040529081600082016040518060e001604052908160008201548152602001600182018054611b5090613d3f565b80601f0160208091040260200160405190810160405280929190818152602001828054611b7c90613d3f565b8015611bc95780601f10611b9e57610100808354040283529160200191611bc9565b820191906000526020600020905b815481529060010190602001808311611bac57829003601f168201915b50505050508152602001600282018054611be290613d3f565b80601f0160208091040260200160405190810160405280929190818152602001828054611c0e90613d3f565b8015611c5b5780601f10611c3057610100808354040283529160200191611c5b565b820191906000526020600020905b815481529060010190602001808311611c3e57829003601f168201915b505050918352505060038201546001600160a01b03166020808301919091526040805180820182526004850154815260058501549281019290925282015260068201546060820152600782018054608090920191611cb890613d3f565b80601f0160208091040260200160405190810160405280929190818152602001828054611ce490613d3f565b8015611d315780601f10611d0657610100808354040283529160200191611d31565b820191906000526020600020905b815481529060010190602001808311611d1457829003601f168201915b505050505081525050815260200160088201805480602002602001604051908101604052809291908181526020018280548015611d8d57602002820191906000526020600020905b815481526020019060010190808311611d79575b505050918352505060098201546001600160a01b039081166020830152600a8301546040830152600b8301546060830152600c9092015460ff811615156080830152610100900490911660a0909101529392505050565b606060086000838152602001908152602001600020805480602002602001604051908101604052809291908181526020016000905b8282101561210057600084815260209020604080516101c08101909152600d8402909101805460e08301908152600182018054849291849161010085019190611e6190613d3f565b80601f0160208091040260200160405190810160405280929190818152602001828054611e8d90613d3f565b8015611eda5780601f10611eaf57610100808354040283529160200191611eda565b820191906000526020600020905b815481529060010190602001808311611ebd57829003601f168201915b50505050508152602001600282018054611ef390613d3f565b80601f0160208091040260200160405190810160405280929190818152602001828054611f1f90613d3f565b8015611f6c5780601f10611f4157610100808354040283529160200191611f6c565b820191906000526020600020905b815481529060010190602001808311611f4f57829003601f168201915b505050918352505060038201546001600160a01b03166020808301919091526040805180820182526004850154815260058501549281019290925282015260068201546060820152600782018054608090920191611fc990613d3f565b80601f0160208091040260200160405190810160405280929190818152602001828054611ff590613d3f565b80156120425780601f1061201757610100808354040283529160200191612042565b820191906000526020600020905b81548152906001019060200180831161202557829003601f168201915b50505050508152505081526020016008820180548060200260200160405190810160405280929190818152602001828054801561209e57602002820191906000526020600020905b81548152602001906001019080831161208a575b505050918352505060098201546001600160a01b03908116602080840191909152600a8401546040840152600b8401546060840152600c9093015460ff81161515608084015261010090041660a0909101529082526001929092019101611e19565b505050509050919050565b600054604051635c37da6960e01b8152336004820152602481018490526001600160a01b0390911690635c37da6990604401602060405180830381865afa15801561215a573d6000803e3d6000fd5b505050506040513d601f19601f8201168201806040525081019061217e9190613c78565b6121bf5760405162461bcd60e51b81526020600482015260126024820152712737ba1030903a34b1b5b2ba1037bbb732b960711b6044820152606401610d68565b60008281526007602052604090205442111561221d5760405162461bcd60e51b815260206004820152601960248201527f50726f706f73616c20706572696f642068617320656e646564000000000000006044820152606401610d68565b600082815260086020526040902054811061224a5760405162461bcd60e51b8152600401610d6890613d0f565b6000828152600b6020908152604080832033845290915290205460ff1615612320576000828152600c602090815260408083203384529091529020548181036122d55760405162461bcd60e51b815260206004820152601f60248201527f416c726561647920766f74656420666f7220746869732070726f706f73616c006044820152606401610d68565b6000838152600860205260409020805460019190839081106122f9576122f9613c9a565b90600052602060002090600d0201600b0160008282546123199190613f0d565b9091555050505b600082815260086020526040902080548290811061234057612340613c9a565b600091825260208220600b600d909202010180549161235e83613cdd565b90915550506000828152600c6020908152604080832033808552908352818420859055858452600b8352818420818552835292819020805460ff191660011790555183815284917f37b8aa4050778a896e18d9773bb81d7a680a33f4b9232d489a3541a7a95c8350910160405180910390a35050565b6123dc6126fa565b6001600160a01b03811661240657604051631e4fbdf760e01b815260006004820152602401610d68565b61240f81612755565b50565b7ff0c57e16840df040f15088dc2f81fe391c3923bec73e23a9662efc9c229c6a008054600160401b810460ff16159067ffffffffffffffff166000811580156124585750825b905060008267ffffffffffffffff1660011480156124755750303b155b905081158015612483575080155b156124a15760405163f92ee8a960e01b815260040160405180910390fd5b845467ffffffffffffffff1916600117855583156124cb57845460ff60401b1916600160401b1785555b6124d48a61336c565b6124dc61337d565b6003899055600488905560058790556006869055831561253657845460ff60401b19168555604051600181527fc7f505b2f371ae2175ee4913f4499e1f2633a7b5936321eed1cdaeb6115181d29060200160405180910390a15b50505050505050505050565b306001600160a01b037f00000000000000000000000000000000000000000000000000000000000000001614806125c957507f00000000000000000000000000000000000000000000000000000000000000006001600160a01b03166125bd6000805160206140fa833981519152546001600160a01b031690565b6001600160a01b031614155b15610c4c5760405163703e46dd60e11b815260040160405180910390fd5b61240f6126fa565b816001600160a01b03166352d1902d6040518163ffffffff1660e01b8152600401602060405180830381865afa925050508015612649575060408051601f3d908101601f1916820190925261264691810190613cf6565b60015b61267157604051634c9c8ce360e01b81526001600160a01b0383166004820152602401610d68565b6000805160206140fa83398151915281146126a257604051632a87526960e21b815260048101829052602401610d68565b6126ac8383613385565b505050565b306001600160a01b037f00000000000000000000000000000000000000000000000000000000000000001614610c4c5760405163703e46dd60e11b815260040160405180910390fd5b3361272c7f9016d09d72d40fdae2fd8ceac6b6234c7706214fd39c1cd1e609a0528c199300546001600160a01b031690565b6001600160a01b031614610c4c5760405163118cdaa760e01b8152336004820152602401610d68565b7f9016d09d72d40fdae2fd8ceac6b6234c7706214fd39c1cd1e609a0528c19930080546001600160a01b031981166001600160a01b03848116918217845560405192169182907f8be0079c531659141344cd1fd0a4f28419497f9722a3daafe3b4186f6b6457e090600090a3505050565b60008281526008602090815260408083206012909252822054815481106127ef576127ef613c9a565b90600052602060002090600d0201600801828154811061281157612811613c9a565b6000918252602080832091909101548583526011909152604080832082905591549151633256b66b60e11b815260048101869052602481018290529092506001600160a01b03909116906364ad6cd690604401600060405180830381600087803b15801561287e57600080fd5b505af1158015612892573d6000803e3d6000fd5b50505050827f30f427038b9903ed0be3f545ee5d678ba47d53ce2ffe77eb1eccbde089ec207d826040516128c891815260200190565b60405180910390a260005460405163054372ed60e01b81526001600160a01b039091169063054372ed90612903908690600390600401613f36565b600060405180830381600087803b15801561291d57600080fd5b505af1158015612931573d6000803e3d6000fd5b50505050505050565b60008281526008602052604090205481106129675760405162461bcd60e51b8152600401610d6890613d0f565b600082815260086020526040812080548390811061298757612987613c9a565b90600052602060002090600d02016000016040518060e0016040529081600082015481526020016001820180546129bd90613d3f565b80601f01602080910402602001604051908101604052809291908181526020018280546129e990613d3f565b8015612a365780601f10612a0b57610100808354040283529160200191612a36565b820191906000526020600020905b815481529060010190602001808311612a1957829003601f168201915b50505050508152602001600282018054612a4f90613d3f565b80601f0160208091040260200160405190810160405280929190818152602001828054612a7b90613d3f565b8015612ac85780601f10612a9d57610100808354040283529160200191612ac8565b820191906000526020600020905b815481529060010190602001808311612aab57829003601f168201915b505050918352505060038201546001600160a01b03166020808301919091526040805180820182526004850154815260058501549281019290925282015260068201546060820152600782018054608090920191612b2590613d3f565b80601f0160208091040260200160405190810160405280929190818152602001828054612b5190613d3f565b8015612b9e5780601f10612b7357610100808354040283529160200191612b9e565b820191906000526020600020905b815481529060010190602001808311612b8157829003601f168201915b50505050508152505090506001600860008581526020019081526020016000208381548110612bcf57612bcf613c9a565b60009182526020808320600d92909202909101600c01805460ff191693151593909317909255848152601290915260408082208490559054905163054372ed60e01b81526001600160a01b039091169063054372ed90612c36908690600290600401613f36565b600060405180830381600087803b158015612c5057600080fd5b505af1158015612c64573d6000803e3d6000fd5b505060005460405163a94dafab60e01b81526001600160a01b03909116925063a94dafab9150612c9a9086908590600401613f68565b600060405180830381600087803b158015612cb457600080fd5b505af1158015612cc8573d6000803e3d6000fd5b50505050827fa4cdb24ce3dbadfa51e723cabdbbd7124e6b55e68a4b41d3eb42a00d144eefe383604051612cfe91815260200190565b60405180910390a2505050565b6000546040516346c2c8a760e01b8152600481018490526001916001600160a01b0316906346c2c8a790602401602060405180830381865afa158015612d55573d6000803e3d6000fd5b505050506040513d601f19601f82011682018060405250810190612d799190613f81565b6007811115612d8a57612d8a613f20565b14612dd75760405162461bcd60e51b815260206004820152601d60248201527f53686f77206e6f7420696e2027536f6c64204f757427207374617475730000006044820152606401610d68565b6000828152600760205260409020541580612e0057506000828152600760205260409020544211155b612e445760405162461bcd60e51b8152602060048201526015602482015274141c9bdc1bdcd85b081c195c9a5bd908195b991959605a1b6044820152606401610d68565b60008151118015612e5757506014815111155b610c195760405162461bcd60e51b815260206004820181905260248201527f496e76616c6964206e756d626572206f662070726f706f7365642064617465736044820152606401610d68565b60008181526007602052604090206001908101805460ff19169091179055600354612ece9042613fa2565b6000828152600760208181526040808420948555601482528084208054600160ff19918216811790925582518084018452875481528085018381528988526015865296849020905181559551959091018054909116941515949094179093559081529154905190815282917fbe893194ee9c4752250e88ba9de293863b73822c4663c78d6cad1f9aa7d91cdc910160405180910390a250565b600654600082815260076020526040902054612f839190613f0d565b421061240f5760045460008281526007602052604081208054909190612faa908490613fa2565b909155505050565b6000346001600160a01b03831661302f57341561302a57600254604051638526663560e01b8152600481018690526001600160a01b039091169063852666359034906024016000604051808303818588803b15801561301057600080fd5b505af1158015613024573d6000803e3d6000fd5b50505050505b613195565b604051636eb1769f60e11b815233600482015230602482015283906001600160a01b0382169063dd62ed3e90604401602060405180830381865afa15801561307b573d6000803e3d6000fd5b505050506040513d601f19601f8201168201806040525081019061309f9190613cf6565b91508115613193576040516323b872dd60e01b8152336004820152306024820152604481018390526001600160a01b038216906323b872dd906064016020604051808303816000875af11580156130fa573d6000803e3d6000fd5b505050506040513d601f19601f8201168201806040525081019061311e9190613c78565b50600254604051635412233f60e01b815260048101879052602481018490526001600160a01b03868116604483015233606483015290911690635412233f90608401600060405180830381600087803b15801561317a57600080fd5b505af115801561318e573d6000803e3d6000fd5b505050505b505b9392505050565b6040805160e081018252858152602080820186905233828401526060820185905260006080830181905260a083018190526001600160a01b03851660c0840152888152600882529283208054600181810183559185529382902083518051600d90960290910194855591820151929384939092918391908201906132209082613ffb565b50604082015160028201906132359082613ffb565b5060608201516003820180546001600160a01b0319166001600160a01b0390921691909117905560808201518051600483015560200151600582015560a0820151600682015560c0820151600782019061328f9082613ffb565b50505060208281015180516132aa92600885019201906135fd565b506040828101516009830180546001600160a01b0319166001600160a01b039283161790556060840151600a8401556080840151600b84015560a0840151600c909301805460c0909501516001600160a81b0319909516931515610100600160a81b03191693909317610100949091169390930292909217905560208601519051339188917f594a9595007bad040e875758ab9d42df126f77d067b240282de66c3d36c74ffe9161335c9188906140bb565b60405180910390a3505050505050565b6133746133db565b61240f81613424565b610c4c6133db565b61338e8261342c565b6040516001600160a01b038316907fbc7cd75a20ee27fd9adebab32041f755214dbc6bffa90cc0225b39da2e5c2d3b90600090a28051156133d3576126ac8282613491565b610c19613507565b7ff0c57e16840df040f15088dc2f81fe391c3923bec73e23a9662efc9c229c6a0054600160401b900460ff16610c4c57604051631afcd79f60e31b815260040160405180910390fd5b6123dc6133db565b806001600160a01b03163b60000361346257604051634c9c8ce360e01b81526001600160a01b0382166004820152602401610d68565b6000805160206140fa83398151915280546001600160a01b0319166001600160a01b0392909216919091179055565b6060600080846001600160a01b0316846040516134ae91906140dd565b600060405180830381855af49150503d80600081146134e9576040519150601f19603f3d011682016040523d82523d6000602084013e6134ee565b606091505b50915091506134fe858383613526565b95945050505050565b3415610c4c5760405163b398979f60e01b815260040160405180910390fd5b6060826135365761302a8261357d565b815115801561354d57506001600160a01b0384163b155b1561357657604051639996b31560e01b81526001600160a01b0385166004820152602401610d68565b5092915050565b80511561358d5780518082602001fd5b604051630a12f52160e11b815260040160405180910390fd5b6040518060e001604052806135b9613648565b81526020016060815260200160006001600160a01b03168152602001600081526020016000815260200160001515815260200160006001600160a01b031681525090565b828054828255906000526020600020908101928215613638579160200282015b8281111561363857825182559160200191906001019061361d565b506136449291506136a9565b5090565b6040518060e0016040528060008152602001606081526020016060815260200160006001600160a01b03168152602001613695604051806040016040528060008152602001600081525090565b815260200160008152602001606081525090565b5b8082111561364457600081556001016136aa565b6001600160a01b038116811461240f57600080fd5b80356136de816136be565b919050565b6000602082840312156136f557600080fd5b8135613195816136be565b6000806040838503121561371357600080fd5b823591506020830135613725816136be565b809150509250929050565b60006020828403121561374257600080fd5b5035919050565b8151815260208083015115159082015260408101610bf8565b634e487b7160e01b600052604160045260246000fd5b60405160e0810167ffffffffffffffff8111828210171561379b5761379b613762565b60405290565b604051601f8201601f1916810167ffffffffffffffff811182821017156137ca576137ca613762565b604052919050565b600067ffffffffffffffff8211156137ec576137ec613762565b50601f01601f191660200190565b6000806040838503121561380d57600080fd5b8235613818816136be565b9150602083013567ffffffffffffffff81111561383457600080fd5b8301601f8101851361384557600080fd5b8035613858613853826137d2565b6137a1565b81815286602083850101111561386d57600080fd5b816020840160208301376000602083830101528093505050509250929050565b600080604083850312156138a057600080fd5b50508035926020909101359150565b6000806000606084860312156138c457600080fd5b83356138cf816136be565b925060208401356138df816136be565b915060408401356138ef816136be565b809150509250925092565b60005b838110156139155781810151838201526020016138fd565b50506000910152565b600081518084526139368160208601602086016138fa565b601f01601f19169290920160200192915050565b600061010082518452602083015181602086015261396a8286018261391e565b91505060408301518482036040860152613984828261391e565b91505060018060a01b036060840151166060850152608083015180516080860152602081015160a08601525060a083015160c085015260c083015184820360e08601526134fe828261391e565b60c0815260006139e460c083018961394a565b6001600160a01b0397881660208401526040830196909652506060810193909352901515608083015290921660a090920191909152919050565b60008060008060808587031215613a3457600080fd5b843593506020808601359350604086013567ffffffffffffffff80821115613a5b57600080fd5b818801915088601f830112613a6f57600080fd5b813581811115613a8157613a81613762565b8060051b9150613a928483016137a1565b818152918301840191848101908b841115613aac57600080fd5b938501935b83851015613aca57843582529385019390850190613ab1565b809750505050505050613adf606086016136d3565b905092959194509250565b602081526000613195602083018461391e565b6000815160e08452613b1260e085018261394a565b60208481015186830387830152805180845290820193509091600091908301905b80831015613b535784518252938301936001929092019190830190613b33565b5060408601519350613b7060408801856001600160a01b03169052565b606086015160608801526080860151608088015260a08601519350613b9960a088018515159052565b60c08601519350613bb560c08801856001600160a01b03169052565b9695505050505050565b6020815260006131956020830184613afd565b6000602080830181845280855180835260408601915060408160051b870101925083870160005b82811015613c2757603f19888603018452613c15858351613afd565b94509285019290850190600101613bf9565b5092979650505050505050565b600080600080600060a08688031215613c4c57600080fd5b8535613c57816136be565b97602087013597506040870135966060810135965060800135945092505050565b600060208284031215613c8a57600080fd5b8151801515811461319557600080fd5b634e487b7160e01b600052603260045260246000fd5b634e487b7160e01b600052601160045260246000fd5b600081613cd557613cd5613cb0565b506000190190565b600060018201613cef57613cef613cb0565b5060010190565b600060208284031215613d0857600080fd5b5051919050565b602080825260169082015275092dcecc2d8d2c840e0e4dee0dee6c2d840d2dcc8caf60531b604082015260600190565b600181811c90821680613d5357607f821691505b602082108103613d7357634e487b7160e01b600052602260045260246000fd5b50919050565b600082601f830112613d8a57600080fd5b8151613d98613853826137d2565b818152846020838601011115613dad57600080fd5b613dbe8260208301602087016138fa565b949350505050565b80516136de816136be565b600060408284031215613de357600080fd5b6040516040810181811067ffffffffffffffff82111715613e0657613e06613762565b604052825181526020928301519281019290925250919050565b600060208284031215613e3257600080fd5b815167ffffffffffffffff80821115613e4a57600080fd5b908301906101008286031215613e5f57600080fd5b613e67613778565b82518152602083015182811115613e7d57600080fd5b613e8987828601613d79565b602083015250604083015182811115613ea157600080fd5b613ead87828601613d79565b604083015250613ebf60608401613dc6565b6060820152613ed18660808501613dd1565b608082015260c083015160a082015260e083015182811115613ef257600080fd5b613efe87828601613d79565b60c08301525095945050505050565b81810381811115610bf857610bf8613cb0565b634e487b7160e01b600052602160045260246000fd5b8281526040810160088310613f5b57634e487b7160e01b600052602160045260246000fd5b8260208301529392505050565b828152604060208201526000613dbe604083018461394a565b600060208284031215613f9357600080fd5b81516008811061319557600080fd5b80820180821115610bf857610bf8613cb0565b601f8211156126ac57600081815260208120601f850160051c81016020861015613fdc5750805b601f850160051c820191505b8181101561108057828155600101613fe8565b815167ffffffffffffffff81111561401557614015613762565b614029816140238454613d3f565b84613fb5565b602080601f83116001811461405e57600084156140465750858301515b600019600386901b1c1916600185901b178555611080565b600085815260208120601f198616915b8281101561408d5788860151825594840194600190910190840161406e565b50858210156140ab5787850151600019600388901b60f8161c191681555b5050505050600190811b01905550565b6040815260006140ce604083018561391e565b90508260208301529392505050565b600082516140ef8184602087016138fa565b919091019291505056fe360894a13ba1a3210667c828492db98dca3e2076cc3735a920a3ca505d382bbca26469706673582212202e0cdc6eeab716a553cfa1c294478e5ac56d4da37378ca99cbd5fec52579c30864736f6c63430008140033","linkReferences":{}},"methodIdentifiers":{"UPGRADE_INTERFACE_VERSION()":"ad3cb1cc","dateVotes(bytes32,uint256)":"d360fb5f","getDateVotes(bytes32,uint256)":"84f3e62c","getHasDateVoted(bytes32,address)":"21e2c8cf","getHasTicketOwnerVoted(bytes32,address)":"25d4e7e8","getHasVoted(bytes32,address)":"398ac6c3","getPreviousDateVote(bytes32,address)":"940fed20","getPreviousVote(bytes32,address)":"47cc6095","getProposal(bytes32,uint256)":"c663df9c","getProposalPeriod(bytes32)":"4de89286","getProposalsCount(bytes32)":"3d77f7eb","getRefunds(address)":"03c22ec4","getSelectedDate(bytes32)":"e0174d78","getSelectedProposalIndex(bytes32)":"f60eab04","getShowProposals(bytes32)":"e9801fcb","getVotingPeriods(bytes32)":"eef28136","hasDateVoted(bytes32,address)":"a16026f4","hasTicketOwnerVoted(bytes32,address)":"f51bba85","hasVoted(bytes32,address)":"aadc3b72","initialize(address,uint256,uint256,uint256,uint256)":"f92ad219","owner()":"8da5cb5b","previousDateVote(bytes32,address)":"043c97fa","previousVote(bytes32,address)":"ab07426f","proposalDateExtension()":"5a9d5841","proposalDateMinimumFuture()":"86de15eb","proposalPeriod(bytes32)":"b328da12","proposalPeriodDuration()":"fcd73bf8","proposalPeriodExtensionThreshold()":"6d9be57f","proxiableUUID()":"52d1902d","refunds(address)":"bc3da535","renounceOwnership()":"715018a6","resetBribe(bytes32,uint256)":"899a5ab7","selectedDate(bytes32)":"d865ae3c","selectedProposalIndex(bytes32)":"66582371","setContractAddresses(address,address,address)":"8ab63380","showInstance()":"404f49d1","showProposals(bytes32,uint256)":"960c8b45","showVaultInstance()":"6a017891","submitProposal(bytes32,uint256,uint256[],address)":"a3e24eef","ticketHolderVenueVote(bytes32,uint256)":"ee6b8b2e","ticketHolderVotingActive(bytes32)":"8b79dbe1","ticketHolderVotingPeriods(bytes32)":"f94976c0","ticketOwnerVoteIndex(bytes32,address)":"3cc44e19","transferOwnership(address)":"f2fde38b","upgradeToAndCall(address,bytes)":"4f1ef286","venueRegistryInstance()":"703ee4e5","vote(bytes32,uint256)":"9ef1204c","voteForDate(bytes32,uint256)":"81cf3ab8","votingPeriods(bytes32)":"c15f6bd7"},"id":90}