{"abi":[{"type":"function","name":"UPGRADE_INTERFACE_VERSION","inputs":[],"outputs":[{"name":"","type":"string","internalType":"string"}],"stateMutability":"view"},{"type":"function","name":"acceptNomination","inputs":[{"name":"_name","type":"string","internalType":"string"},{"name":"_bio","type":"string","internalType":"string"},{"name":"_latitude","type":"int256","internalType":"int256"},{"name":"_longitude","type":"int256","internalType":"int256"},{"name":"_totalCapacity","type":"uint256","internalType":"uint256"},{"name":"_streetAddress","type":"string","internalType":"string"}],"outputs":[],"stateMutability":"nonpayable"},{"type":"function","name":"balanceOf","inputs":[{"name":"account","type":"address","internalType":"address"},{"name":"id","type":"uint256","internalType":"uint256"}],"outputs":[{"name":"","type":"uint256","internalType":"uint256"}],"stateMutability":"view"},{"type":"function","name":"balanceOfBatch","inputs":[{"name":"accounts","type":"address[]","internalType":"address[]"},{"name":"ids","type":"uint256[]","internalType":"uint256[]"}],"outputs":[{"name":"","type":"uint256[]","internalType":"uint256[]"}],"stateMutability":"view"},{"type":"function","name":"deregisterVenue","inputs":[{"name":"_venueId","type":"uint256","internalType":"uint256"}],"outputs":[],"stateMutability":"nonpayable"},{"type":"function","name":"getVenue","inputs":[{"name":"venueAddress","type":"address","internalType":"address"}],"outputs":[{"name":"name","type":"string","internalType":"string"},{"name":"bio","type":"string","internalType":"string"},{"name":"wallet","type":"address","internalType":"address"},{"name":"latitude","type":"int256","internalType":"int256"},{"name":"longitude","type":"int256","internalType":"int256"},{"name":"totalCapacity","type":"uint256","internalType":"uint256"},{"name":"streetAddress","type":"string","internalType":"string"}],"stateMutability":"view"},{"type":"function","name":"initialize","inputs":[{"name":"initialOwner","type":"address","internalType":"address"},{"name":"_referralModuleAddress","type":"address","internalType":"address"}],"outputs":[],"stateMutability":"nonpayable"},{"type":"function","name":"isApprovedForAll","inputs":[{"name":"account","type":"address","internalType":"address"},{"name":"operator","type":"address","internalType":"address"}],"outputs":[{"name":"","type":"bool","internalType":"bool"}],"stateMutability":"view"},{"type":"function","name":"isVenueRegistered","inputs":[{"name":"venueAddress","type":"address","internalType":"address"}],"outputs":[{"name":"isRegistered","type":"bool","internalType":"bool"}],"stateMutability":"view"},{"type":"function","name":"nominate","inputs":[{"name":"nominee","type":"address","internalType":"address"}],"outputs":[],"stateMutability":"nonpayable"},{"type":"function","name":"nominatedVenues","inputs":[{"name":"","type":"address","internalType":"address"}],"outputs":[{"name":"","type":"bool","internalType":"bool"}],"stateMutability":"view"},{"type":"function","name":"owner","inputs":[],"outputs":[{"name":"","type":"address","internalType":"address"}],"stateMutability":"view"},{"type":"function","name":"proxiableUUID","inputs":[],"outputs":[{"name":"","type":"bytes32","internalType":"bytes32"}],"stateMutability":"view"},{"type":"function","name":"renounceOwnership","inputs":[],"outputs":[],"stateMutability":"nonpayable"},{"type":"function","name":"safeBatchTransferFrom","inputs":[{"name":"from","type":"address","internalType":"address"},{"name":"to","type":"address","internalType":"address"},{"name":"ids","type":"uint256[]","internalType":"uint256[]"},{"name":"values","type":"uint256[]","internalType":"uint256[]"},{"name":"data","type":"bytes","internalType":"bytes"}],"outputs":[],"stateMutability":"nonpayable"},{"type":"function","name":"safeTransferFrom","inputs":[{"name":"from","type":"address","internalType":"address"},{"name":"to","type":"address","internalType":"address"},{"name":"id","type":"uint256","internalType":"uint256"},{"name":"value","type":"uint256","internalType":"uint256"},{"name":"data","type":"bytes","internalType":"bytes"}],"outputs":[],"stateMutability":"nonpayable"},{"type":"function","name":"setApprovalForAll","inputs":[{"name":"operator","type":"address","internalType":"address"},{"name":"approved","type":"bool","internalType":"bool"}],"outputs":[],"stateMutability":"nonpayable"},{"type":"function","name":"setTokenURI","inputs":[{"name":"tokenId","type":"uint256","internalType":"uint256"},{"name":"newURI","type":"string","internalType":"string"}],"outputs":[],"stateMutability":"nonpayable"},{"type":"function","name":"supportsInterface","inputs":[{"name":"interfaceId","type":"bytes4","internalType":"bytes4"}],"outputs":[{"name":"","type":"bool","internalType":"bool"}],"stateMutability":"view"},{"type":"function","name":"transferOwnership","inputs":[{"name":"newOwner","type":"address","internalType":"address"}],"outputs":[],"stateMutability":"nonpayable"},{"type":"function","name":"updateVenue","inputs":[{"name":"_venueId","type":"uint256","internalType":"uint256"},{"name":"_name","type":"string","internalType":"string"},{"name":"_bio","type":"string","internalType":"string"},{"name":"_wallet","type":"address","internalType":"address"},{"name":"_latitude","type":"int256","internalType":"int256"},{"name":"_longitude","type":"int256","internalType":"int256"},{"name":"_totalCapacity","type":"uint256","internalType":"uint256"},{"name":"_streetAddress","type":"string","internalType":"string"}],"outputs":[],"stateMutability":"nonpayable"},{"type":"function","name":"upgradeToAndCall","inputs":[{"name":"newImplementation","type":"address","internalType":"address"},{"name":"data","type":"bytes","internalType":"bytes"}],"outputs":[],"stateMutability":"payable"},{"type":"function","name":"uri","inputs":[{"name":"tokenId","type":"uint256","internalType":"uint256"}],"outputs":[{"name":"","type":"string","internalType":"string"}],"stateMutability":"view"},{"type":"event","name":"ApprovalForAll","inputs":[{"name":"account","type":"address","indexed":true,"internalType":"address"},{"name":"operator","type":"address","indexed":true,"internalType":"address"},{"name":"approved","type":"bool","indexed":false,"internalType":"bool"}],"anonymous":false},{"type":"event","name":"Initialized","inputs":[{"name":"version","type":"uint64","indexed":false,"internalType":"uint64"}],"anonymous":false},{"type":"event","name":"OwnershipTransferred","inputs":[{"name":"previousOwner","type":"address","indexed":true,"internalType":"address"},{"name":"newOwner","type":"address","indexed":true,"internalType":"address"}],"anonymous":false},{"type":"event","name":"TransferBatch","inputs":[{"name":"operator","type":"address","indexed":true,"internalType":"address"},{"name":"from","type":"address","indexed":true,"internalType":"address"},{"name":"to","type":"address","indexed":true,"internalType":"address"},{"name":"ids","type":"uint256[]","indexed":false,"internalType":"uint256[]"},{"name":"values","type":"uint256[]","indexed":false,"internalType":"uint256[]"}],"anonymous":false},{"type":"event","name":"TransferSingle","inputs":[{"name":"operator","type":"address","indexed":true,"internalType":"address"},{"name":"from","type":"address","indexed":true,"internalType":"address"},{"name":"to","type":"address","indexed":true,"internalType":"address"},{"name":"id","type":"uint256","indexed":false,"internalType":"uint256"},{"name":"value","type":"uint256","indexed":false,"internalType":"uint256"}],"anonymous":false},{"type":"event","name":"URI","inputs":[{"name":"value","type":"string","indexed":false,"internalType":"string"},{"name":"id","type":"uint256","indexed":true,"internalType":"uint256"}],"anonymous":false},{"type":"event","name":"Upgraded","inputs":[{"name":"implementation","type":"address","indexed":true,"internalType":"address"}],"anonymous":false},{"type":"event","name":"VenueAccepted","inputs":[{"name":"venueId","type":"uint256","indexed":true,"internalType":"uint256"},{"name":"venueAddress","type":"address","indexed":false,"internalType":"address"}],"anonymous":false},{"type":"event","name":"VenueDeregistered","inputs":[{"name":"venueId","type":"uint256","indexed":true,"internalType":"uint256"}],"anonymous":false},{"type":"event","name":"VenueNominated","inputs":[{"name":"nominee","type":"address","indexed":true,"internalType":"address"}],"anonymous":false},{"type":"event","name":"VenueRegistered","inputs":[{"name":"venueId","type":"uint256","indexed":true,"internalType":"uint256"},{"name":"name","type":"string","indexed":false,"internalType":"string"}],"anonymous":false},{"type":"event","name":"VenueUpdated","inputs":[{"name":"venueId","type":"uint256","indexed":true,"internalType":"uint256"},{"name":"name","type":"string","indexed":false,"internalType":"string"},{"name":"bio","type":"string","indexed":false,"internalType":"string"},{"name":"wallet","type":"address","indexed":false,"internalType":"address"},{"name":"latitude","type":"int256","indexed":false,"internalType":"int256"},{"name":"longitude","type":"int256","indexed":false,"internalType":"int256"},{"name":"totalCapacity","type":"uint256","indexed":false,"internalType":"uint256"},{"name":"streetAddress","type":"string","indexed":false,"internalType":"string"}],"anonymous":false},{"type":"error","name":"AddressEmptyCode","inputs":[{"name":"target","type":"address","internalType":"address"}]},{"type":"error","name":"ERC1155InsufficientBalance","inputs":[{"name":"sender","type":"address","internalType":"address"},{"name":"balance","type":"uint256","internalType":"uint256"},{"name":"needed","type":"uint256","internalType":"uint256"},{"name":"tokenId","type":"uint256","internalType":"uint256"}]},{"type":"error","name":"ERC1155InvalidApprover","inputs":[{"name":"approver","type":"address","internalType":"address"}]},{"type":"error","name":"ERC1155InvalidArrayLength","inputs":[{"name":"idsLength","type":"uint256","internalType":"uint256"},{"name":"valuesLength","type":"uint256","internalType":"uint256"}]},{"type":"error","name":"ERC1155InvalidOperator","inputs":[{"name":"operator","type":"address","internalType":"address"}]},{"type":"error","name":"ERC1155InvalidReceiver","inputs":[{"name":"receiver","type":"address","internalType":"address"}]},{"type":"error","name":"ERC1155InvalidSender","inputs":[{"name":"sender","type":"address","internalType":"address"}]},{"type":"error","name":"ERC1155MissingApprovalForAll","inputs":[{"name":"operator","type":"address","internalType":"address"},{"name":"owner","type":"address","internalType":"address"}]},{"type":"error","name":"ERC1967InvalidImplementation","inputs":[{"name":"implementation","type":"address","internalType":"address"}]},{"type":"error","name":"ERC1967NonPayable","inputs":[]},{"type":"error","name":"FailedInnerCall","inputs":[]},{"type":"error","name":"InvalidInitialization","inputs":[]},{"type":"error","name":"NotInitializing","inputs":[]},{"type":"error","name":"OwnableInvalidOwner","inputs":[{"name":"owner","type":"address","internalType":"address"}]},{"type":"error","name":"OwnableUnauthorizedAccount","inputs":[{"name":"account","type":"address","internalType":"address"}]},{"type":"error","name":"UUPSUnauthorizedCallContext","inputs":[]},{"type":"error","name":"UUPSUnsupportedProxiableUUID","inputs":[{"name":"slot","type":"bytes32","internalType":"bytes32"}]}],"bytecode":{"object":"0x60a06040523060805234801561001457600080fd5b50608051612af761003e600039600081816114cc015281816114f501526116360152612af76000f3fe60806040526004361061013f5760003560e01c806352d1902d116100b6578063ad3cb1cc1161006f578063ad3cb1cc146103a0578063b332180b146103d1578063b4ec1980146103f1578063e985e9c514610421578063f242432a14610441578063f2fde38b1461046157600080fd5b806352d1902d146102d65780636befc55c146102eb578063715018a61461031e57806384b03c44146103335780638da5cb5b14610353578063a22cb4651461038057600080fd5b80632e63de1c116101085780632e63de1c146102165780632eb2c2d6146102365780633cfb920714610256578063485cc955146102765780634e1273f4146102965780634f1ef286146102c357600080fd5b8062fdd58e1461014457806301ffc9a71461017757806309a4a302146101a75780630e89341c146101c7578063162094c4146101f4575b600080fd5b34801561015057600080fd5b5061016461015f366004612006565b610481565b6040519081526020015b60405180910390f35b34801561018357600080fd5b50610197610192366004612046565b6104b8565b604051901515815260200161016e565b3480156101b357600080fd5b506101976101c2366004612063565b610508565b3480156101d357600080fd5b506101e76101e236600461207e565b610553565b60405161016e91906120e7565b34801561020057600080fd5b5061021461020f3660046121af565b61060a565b005b34801561022257600080fd5b5061021461023136600461207e565b6106c9565b34801561024257600080fd5b50610214610251366004612283565b6107aa565b34801561026257600080fd5b5061021461027136600461232c565b610811565b34801561028257600080fd5b506102146102913660046123cf565b6108c9565b3480156102a257600080fd5b506102b66102b1366004612402565b610a1c565b60405161016e91906124f2565b6102146102d1366004612505565b610af0565b3480156102e257600080fd5b50610164610b0f565b3480156102f757600080fd5b5061030b610306366004612063565b610b2c565b60405161016e979695949392919061253c565b34801561032a57600080fd5b50610214610dec565b34801561033f57600080fd5b5061021461034e3660046125a7565b610e00565b34801561035f57600080fd5b50610368610f00565b6040516001600160a01b03909116815260200161016e565b34801561038c57600080fd5b5061021461039b366004612666565b610f2e565b3480156103ac57600080fd5b506101e7604051806040016040528060058152602001640352e302e360dc1b81525081565b3480156103dd57600080fd5b506102146103ec366004612063565b610f39565b3480156103fd57600080fd5b5061019761040c366004612063565b60026020526000908152604090205460ff1681565b34801561042d57600080fd5b5061019761043c3660046123cf565b6110ce565b34801561044d57600080fd5b5061021461045c3660046126a2565b61111b565b34801561046d57600080fd5b5061021461047c366004612063565b61117a565b6000818152600080516020612a75833981519152602090815260408083206001600160a01b03861684529091529020545b92915050565b60006001600160e01b03198216636cdb3d1360e11b14806104e957506001600160e01b031982166303a24d0760e21b145b806104b257506301ffc9a760e01b6001600160e01b03198316146104b2565b6001600160a01b038116600090815260016020526040812054801580159061054c57506000818152602081905260409020600201546001600160a01b038481169116145b9392505050565b60008181526005602052604081208054606092919061057190612706565b80601f016020809104026020016040519081016040528092919081815260200182805461059d90612706565b80156105ea5780601f106105bf576101008083540402835291602001916105ea565b820191906000526020600020905b8154815290600101906020018083116105cd57829003601f168201915b505050505090506000815111156106015792915050565b61054c836111b8565b610612610f00565b6001600160a01b0316336001600160a01b0316148061064a57506000828152602081905260409020600201546001600160a01b031633145b6106ac5760405162461bcd60e51b815260206004820152602860248201527f43616c6c6572206973206e6f7420746865206f776e6572206f7220746865206f6044820152673933b0b734bd32b960c11b60648201526084015b60405180910390fd5b60008281526005602052604090206106c48282612786565b505050565b60035481111580156106f457506000818152602081905260409020600201546001600160a01b031633145b6107105760405162461bcd60e51b81526004016106a390612845565b61071c3382600161127d565b6000818152602081905260408120906107358282611f9c565b610743600183016000611f9c565b6002820180546001600160a01b0319169055600060038301819055600483018190556005830181905561077a906006840190611f9c565b505060405181907fee0cdc4ae3243e3824b2d6e7fdc29bc86356054f8729d89bb1f980e436ebf45690600090a250565b336001600160a01b03861681148015906107cb57506107c986826110ce565b155b156107fc5760405163711bec9160e11b81526001600160a01b038083166004830152871660248201526044016106a3565b61080986868686866112ec565b505050505050565b3360009081526002602052604090205460ff166108665760405162461bcd60e51b8152602060048201526013602482015272139bc81b9bdb5a5b985d1a5bdb88199bdd5b99606a1b60448201526064016106a3565b336000908152600260205260409020805460ff1916905561088b86868686868661134c565b6003546040513381527f4108d491dd9d5aec1ab384350857e890c9670a0cfc211b075c99d187b8d4cc449060200160405180910390a2505050505050565b7ff0c57e16840df040f15088dc2f81fe391c3923bec73e23a9662efc9c229c6a008054600160401b810460ff1615906001600160401b031660008115801561090e5750825b90506000826001600160401b0316600114801561092a5750303b155b905081158015610938575080155b156109565760405163f92ee8a960e01b815260040160405180910390fd5b845467ffffffffffffffff19166001178555831561098057845460ff60401b1916600160401b1785555b6109a16040518060600160405280602d8152602001612a95602d9139611497565b6109aa876114a8565b6109b26114b9565b600480546001600160a01b0319166001600160a01b0388161790558315610a1357845460ff60401b19168555604051600181527fc7f505b2f371ae2175ee4913f4499e1f2633a7b5936321eed1cdaeb6115181d29060200160405180910390a15b50505050505050565b60608151835114610a4d5781518351604051635b05999160e01b8152600481019290925260248201526044016106a3565b600083516001600160401b03811115610a6857610a686120fa565b604051908082528060200260200182016040528015610a91578160200160208202803683370190505b50905060005b8451811015610ae857602080820286010151610abb90602080840287010151610481565b828281518110610acd57610acd612887565b6020908102919091010152610ae1816128b3565b9050610a97565b509392505050565b610af86114c1565b610b0182611566565b610b0b828261156e565b5050565b6000610b1961162b565b50600080516020612a5583398151915290565b6001600160a01b03811660009081526001602052604081205460609182918190819081908590808303610b985760405162461bcd60e51b815260206004820152601460248201527315995b9d5948191bd95cc81b9bdd08195e1a5cdd60621b60448201526064016106a3565b600081815260208190526040808220815160c08101909252805482908290610bbf90612706565b80601f0160208091040260200160405190810160405280929190818152602001828054610beb90612706565b8015610c385780601f10610c0d57610100808354040283529160200191610c38565b820191906000526020600020905b815481529060010190602001808311610c1b57829003601f168201915b50505050508152602001600182018054610c5190612706565b80601f0160208091040260200160405190810160405280929190818152602001828054610c7d90612706565b8015610cca5780601f10610c9f57610100808354040283529160200191610cca565b820191906000526020600020905b815481529060010190602001808311610cad57829003601f168201915b505050918352505060028201546001600160a01b03166020808301919091526040805180820182526003850154815260048501549281019290925282015260058201546060820152600682018054608090920191610d2790612706565b80601f0160208091040260200160405190810160405280929190818152602001828054610d5390612706565b8015610da05780601f10610d7557610100808354040283529160200191610da0565b820191906000526020600020905b815481529060010190602001808311610d8357829003601f168201915b5050509190925250508151602080840151604085015160608601518051930151608087015160a090970151949f50919d509b509099509750919550909350505050919395979092949650565b610df4611674565b610dfe60006116a6565b565b6003548811158015610e2b57506000888152602081905260409020600201546001600160a01b031633145b610e475760405162461bcd60e51b81526004016106a390612845565b600088815260208190526040902080610e608982612786565b5060018101610e6f8882612786565b506002810180546001600160a01b0319166001600160a01b03881617905560038101859055600481018490556005810183905560068101610eb08382612786565b50887fe35006029198ae6c56e2996867117cc3c8cbdd3b84ee37d6b36924d6b84d052d89898989898989604051610eed979695949392919061253c565b60405180910390a2505050505050505050565b7f9016d09d72d40fdae2fd8ceac6b6234c7706214fd39c1cd1e609a0528c199300546001600160a01b031690565b610b0b338383611717565b60048054604051632615fb8360e21b815233928101929092526000916001600160a01b0390911690639857ee0c90602401606060405180830381865afa158015610f87573d6000803e3d6000fd5b505050506040513d601f19601f82011682018060405250810190610fab91906128cc565b9050600081604001511161100d5760405162461bcd60e51b815260206004820152602360248201527f496e73756666696369656e742076656e756520726566657272616c206372656460448201526269747360e81b60648201526084016106a3565b600480546040516321ceab3d60e01b815233928101929092526000602483018190526044830152600160648301526001600160a01b0316906321ceab3d90608401600060405180830381600087803b15801561106857600080fd5b505af115801561107c573d6000803e3d6000fd5b5050506001600160a01b038316600081815260026020526040808220805460ff19166001179055519192507f179ea4397e946d9cae2283c1107800f5a4cc157ad746eb00b9b310a20b1535e791a25050565b6001600160a01b0391821660009081527f88be536d5240c274a3b1d3a1be54482fd9caa294f08c62a7cde569f49a3c45016020908152604080832093909416825291909152205460ff1690565b336001600160a01b038616811480159061113c575061113a86826110ce565b155b1561116d5760405163711bec9160e11b81526001600160a01b038083166004830152871660248201526044016106a3565b61080986868686866117bf565b611182611674565b6001600160a01b0381166111ac57604051631e4fbdf760e01b8152600060048201526024016106a3565b6111b5816116a6565b50565b7f88be536d5240c274a3b1d3a1be54482fd9caa294f08c62a7cde569f49a3c45028054606091600080516020612a75833981519152916111f790612706565b80601f016020809104026020016040519081016040528092919081815260200182805461122390612706565b80156112705780601f1061124557610100808354040283529160200191611270565b820191906000526020600020905b81548152906001019060200180831161125357829003601f168201915b5050505050915050919050565b6001600160a01b0383166112a657604051626a0d4560e21b8152600060048201526024016106a3565b604080516001808252602082018590528183019081526060820184905260a082019092526000608082018181529192916112e591879185908590611840565b5050505050565b6001600160a01b03841661131657604051632bfa23e760e11b8152600060048201526024016106a3565b6001600160a01b03851661133f57604051626a0d4560e21b8152600060048201526024016106a3565b6112e58585858585611840565b6003805490600061135c836128b3565b90915550506003546040805180820182528681526020808201879052825160c0810184528a81528082018a905233818501819052606082018490526080820188905260a0820187905260008681529283905293909120815181906113c09082612786565b50602082015160018201906113d59082612786565b5060408201516002820180546001600160a01b0319166001600160a01b039092169190911790556060820151805160038301556020015160048201556080820151600582015560a0820151600682019061142f9082612786565b5050506001600160a01b0382166000908152600160208181526040808420879055805191820190529182526114679184918691611893565b827f4a1a8dd345d4634777a7739c3a6f69bce4bef57cb87046f252ae16bca95a76238a604051610eed91906120e7565b61149f6118f0565b6111b581611939565b6114b06118f0565b6111b58161194a565b610dfe6118f0565b306001600160a01b037f000000000000000000000000000000000000000000000000000000000000000016148061154857507f00000000000000000000000000000000000000000000000000000000000000006001600160a01b031661153c600080516020612a55833981519152546001600160a01b031690565b6001600160a01b031614155b15610dfe5760405163703e46dd60e11b815260040160405180910390fd5b6111b5611674565b816001600160a01b03166352d1902d6040518163ffffffff1660e01b8152600401602060405180830381865afa9250505080156115c8575060408051601f3d908101601f191682019092526115c591810190612927565b60015b6115f057604051634c9c8ce360e01b81526001600160a01b03831660048201526024016106a3565b600080516020612a55833981519152811461162157604051632a87526960e21b8152600481018290526024016106a3565b6106c48383611952565b306001600160a01b037f00000000000000000000000000000000000000000000000000000000000000001614610dfe5760405163703e46dd60e11b815260040160405180910390fd5b3361167d610f00565b6001600160a01b031614610dfe5760405163118cdaa760e01b81523360048201526024016106a3565b7f9016d09d72d40fdae2fd8ceac6b6234c7706214fd39c1cd1e609a0528c19930080546001600160a01b031981166001600160a01b03848116918217845560405192169182907f8be0079c531659141344cd1fd0a4f28419497f9722a3daafe3b4186f6b6457e090600090a3505050565b600080516020612a758339815191526001600160a01b03831661174f5760405162ced3e160e81b8152600060048201526024016106a3565b6001600160a01b038481166000818152600184016020908152604080832094881680845294825291829020805460ff191687151590811790915591519182527f17307eab39ab6107e8899845ad3d59bd9653f200f220920489ca2b5937696c31910160405180910390a350505050565b6001600160a01b0384166117e957604051632bfa23e760e11b8152600060048201526024016106a3565b6001600160a01b03851661181257604051626a0d4560e21b8152600060048201526024016106a3565b60408051600180825260208201869052818301908152606082018590526080820190925290610a1387878484875b61184c858585856119a8565b6001600160a01b038416156112e55782513390600103611885576020848101519084015161187e838989858589611bd6565b5050610809565b610809818787878787611cfa565b6001600160a01b0384166118bd57604051632bfa23e760e11b8152600060048201526024016106a3565b60408051600180825260208201869052818301908152606082018590526080820190925290610809600087848487611840565b7ff0c57e16840df040f15088dc2f81fe391c3923bec73e23a9662efc9c229c6a0054600160401b900460ff16610dfe57604051631afcd79f60e31b815260040160405180910390fd5b6119416118f0565b6111b581611de3565b6111826118f0565b61195b82611e1d565b6040516001600160a01b038316907fbc7cd75a20ee27fd9adebab32041f755214dbc6bffa90cc0225b39da2e5c2d3b90600090a28051156119a0576106c48282611e82565b610b0b611ef8565b80518251600080516020612a7583398151915291146119e75782518251604051635b05999160e01b8152600481019290925260248201526044016106a3565b3360005b8451811015611af6576020818102868101820151908601909101516001600160a01b03891615611a9e576000828152602086815260408083206001600160a01b038d16845290915290205481811015611a77576040516303dee4c560e01b81526001600160a01b038b1660048201526024810182905260448101839052606481018490526084016106a3565b6000838152602087815260408083206001600160a01b038e16845290915290209082900390555b6001600160a01b03881615611ae3576000828152602086815260408083206001600160a01b038c16845290915281208054839290611add908490612940565b90915550505b505080611aef906128b3565b90506119eb565b508351600103611b775760208401516000906020850151909150866001600160a01b0316886001600160a01b0316846001600160a01b03167fc3d58168c5ae7397731d063d5bbf3d657854427343f4c083240f7aacaa2d0f628585604051611b68929190918252602082015260400190565b60405180910390a45050610809565b846001600160a01b0316866001600160a01b0316826001600160a01b03167f4a39dc06d4c0dbc64b70af90fd698a233a518aa5d07e595d983b8c0526c8f7fb8787604051611bc6929190612953565b60405180910390a4505050505050565b6001600160a01b0384163b156108095760405163f23a6e6160e01b81526001600160a01b0385169063f23a6e6190611c1a9089908990889088908890600401612978565b6020604051808303816000875af1925050508015611c55575060408051601f3d908101601f19168201909252611c52918101906129bd565b60015b611cbe573d808015611c83576040519150601f19603f3d011682016040523d82523d6000602084013e611c88565b606091505b508051600003611cb657604051632bfa23e760e11b81526001600160a01b03861660048201526024016106a3565b805181602001fd5b6001600160e01b0319811663f23a6e6160e01b14610a1357604051632bfa23e760e11b81526001600160a01b03861660048201526024016106a3565b6001600160a01b0384163b156108095760405163bc197c8160e01b81526001600160a01b0385169063bc197c8190611d3e90899089908890889088906004016129da565b6020604051808303816000875af1925050508015611d79575060408051601f3d908101601f19168201909252611d76918101906129bd565b60015b611da7573d808015611c83576040519150601f19603f3d011682016040523d82523d6000602084013e611c88565b6001600160e01b0319811663bc197c8160e01b14610a1357604051632bfa23e760e11b81526001600160a01b03861660048201526024016106a3565b600080516020612a758339815191527f88be536d5240c274a3b1d3a1be54482fd9caa294f08c62a7cde569f49a3c45026106c48382612786565b806001600160a01b03163b600003611e5357604051634c9c8ce360e01b81526001600160a01b03821660048201526024016106a3565b600080516020612a5583398151915280546001600160a01b0319166001600160a01b0392909216919091179055565b6060600080846001600160a01b031684604051611e9f9190612a38565b600060405180830381855af49150503d8060008114611eda576040519150601f19603f3d011682016040523d82523d6000602084013e611edf565b606091505b5091509150611eef858383611f17565b95945050505050565b3415610dfe5760405163b398979f60e01b815260040160405180910390fd5b606082611f2c57611f2782611f73565b61054c565b8151158015611f4357506001600160a01b0384163b155b15611f6c57604051639996b31560e01b81526001600160a01b03851660048201526024016106a3565b5092915050565b805115611f835780518082602001fd5b604051630a12f52160e11b815260040160405180910390fd5b508054611fa890612706565b6000825580601f10611fb8575050565b601f0160209004906000526020600020908101906111b591905b80821115611fe65760008155600101611fd2565b5090565b80356001600160a01b038116811461200157600080fd5b919050565b6000806040838503121561201957600080fd5b61202283611fea565b946020939093013593505050565b6001600160e01b0319811681146111b557600080fd5b60006020828403121561205857600080fd5b813561054c81612030565b60006020828403121561207557600080fd5b61054c82611fea565b60006020828403121561209057600080fd5b5035919050565b60005b838110156120b257818101518382015260200161209a565b50506000910152565b600081518084526120d3816020860160208601612097565b601f01601f19169290920160200192915050565b60208152600061054c60208301846120bb565b634e487b7160e01b600052604160045260246000fd5b604051601f8201601f191681016001600160401b0381118282101715612138576121386120fa565b604052919050565b600082601f83011261215157600080fd5b81356001600160401b0381111561216a5761216a6120fa565b61217d601f8201601f1916602001612110565b81815284602083860101111561219257600080fd5b816020850160208301376000918101602001919091529392505050565b600080604083850312156121c257600080fd5b8235915060208301356001600160401b038111156121df57600080fd5b6121eb85828601612140565b9150509250929050565b60006001600160401b0382111561220e5761220e6120fa565b5060051b60200190565b600082601f83011261222957600080fd5b8135602061223e612239836121f5565b612110565b82815260059290921b8401810191818101908684111561225d57600080fd5b8286015b848110156122785780358352918301918301612261565b509695505050505050565b600080600080600060a0868803121561229b57600080fd5b6122a486611fea565b94506122b260208701611fea565b935060408601356001600160401b03808211156122ce57600080fd5b6122da89838a01612218565b945060608801359150808211156122f057600080fd5b6122fc89838a01612218565b9350608088013591508082111561231257600080fd5b5061231f88828901612140565b9150509295509295909350565b60008060008060008060c0878903121561234557600080fd5b86356001600160401b038082111561235c57600080fd5b6123688a838b01612140565b9750602089013591508082111561237e57600080fd5b61238a8a838b01612140565b965060408901359550606089013594506080890135935060a08901359150808211156123b557600080fd5b506123c289828a01612140565b9150509295509295509295565b600080604083850312156123e257600080fd5b6123eb83611fea565b91506123f960208401611fea565b90509250929050565b6000806040838503121561241557600080fd5b82356001600160401b038082111561242c57600080fd5b818501915085601f83011261244057600080fd5b81356020612450612239836121f5565b82815260059290921b8401810191818101908984111561246f57600080fd5b948201945b838610156124945761248586611fea565b82529482019490820190612474565b965050860135925050808211156124aa57600080fd5b506121eb85828601612218565b600081518084526020808501945080840160005b838110156124e7578151875295820195908201906001016124cb565b509495945050505050565b60208152600061054c60208301846124b7565b6000806040838503121561251857600080fd5b61252183611fea565b915060208301356001600160401b038111156121df57600080fd5b60e08152600061254f60e083018a6120bb565b8281036020840152612561818a6120bb565b6001600160a01b0389166040850152606084018890526080840187905260a0840186905283810360c0850152905061259981856120bb565b9a9950505050505050505050565b600080600080600080600080610100898b0312156125c457600080fd5b8835975060208901356001600160401b03808211156125e257600080fd5b6125ee8c838d01612140565b985060408b013591508082111561260457600080fd5b6126108c838d01612140565b975061261e60608c01611fea565b965060808b0135955060a08b0135945060c08b0135935060e08b013591508082111561264957600080fd5b506126568b828c01612140565b9150509295985092959890939650565b6000806040838503121561267957600080fd5b61268283611fea565b91506020830135801515811461269757600080fd5b809150509250929050565b600080600080600060a086880312156126ba57600080fd5b6126c386611fea565b94506126d160208701611fea565b9350604086013592506060860135915060808601356001600160401b038111156126fa57600080fd5b61231f88828901612140565b600181811c9082168061271a57607f821691505b60208210810361273a57634e487b7160e01b600052602260045260246000fd5b50919050565b601f8211156106c457600081815260208120601f850160051c810160208610156127675750805b601f850160051c820191505b8181101561080957828155600101612773565b81516001600160401b0381111561279f5761279f6120fa565b6127b3816127ad8454612706565b84612740565b602080601f8311600181146127e857600084156127d05750858301515b600019600386901b1c1916600185901b178555610809565b600085815260208120601f198616915b82811015612817578886015182559484019460019091019084016127f8565b50858210156128355787850151600019600388901b60f8161c191681555b5050505050600190811b01905550565b60208082526022908201527f556e617574686f72697a6564206f72206e6f6e2d6578697374656e742076656e604082015261756560f01b606082015260800190565b634e487b7160e01b600052603260045260246000fd5b634e487b7160e01b600052601160045260246000fd5b6000600182016128c5576128c561289d565b5060010190565b6000606082840312156128de57600080fd5b604051606081018181106001600160401b0382111715612900576129006120fa565b80604052508251815260208301516020820152604083015160408201528091505092915050565b60006020828403121561293957600080fd5b5051919050565b808201808211156104b2576104b261289d565b60408152600061296660408301856124b7565b8281036020840152611eef81856124b7565b6001600160a01b03868116825285166020820152604081018490526060810183905260a0608082018190526000906129b2908301846120bb565b979650505050505050565b6000602082840312156129cf57600080fd5b815161054c81612030565b6001600160a01b0386811682528516602082015260a060408201819052600090612a06908301866124b7565b8281036060840152612a1881866124b7565b90508281036080840152612a2c81856120bb565b98975050505050505050565b60008251612a4a818460208701612097565b919091019291505056fe360894a13ba1a3210667c828492db98dca3e2076cc3735a920a3ca505d382bbc88be536d5240c274a3b1d3a1be54482fd9caa294f08c62a7cde569f49a3c450068747470733a2f2f6d657461646174612e73656c6c6f7574732e6170702f76656e75652f7b69647d2e6a736f6ea26469706673582212208dedc6ae99c339e1f67dabd5d3934f6b5d5018f9c2876928ed6ba7c47bd1045964736f6c63430008140033","linkReferences":{}},"methodIdentifiers":{"UPGRADE_INTERFACE_VERSION()":"ad3cb1cc","acceptNomination(string,string,int256,int256,uint256,string)":"3cfb9207","balanceOf(address,uint256)":"00fdd58e","balanceOfBatch(address[],uint256[])":"4e1273f4","deregisterVenue(uint256)":"2e63de1c","getVenue(address)":"6befc55c","initialize(address,address)":"485cc955","isApprovedForAll(address,address)":"e985e9c5","isVenueRegistered(address)":"09a4a302","nominate(address)":"b332180b","nominatedVenues(address)":"b4ec1980","owner()":"8da5cb5b","proxiableUUID()":"52d1902d","renounceOwnership()":"715018a6","safeBatchTransferFrom(address,address,uint256[],uint256[],bytes)":"2eb2c2d6","safeTransferFrom(address,address,uint256,uint256,bytes)":"f242432a","setApprovalForAll(address,bool)":"a22cb465","setTokenURI(uint256,string)":"162094c4","supportsInterface(bytes4)":"01ffc9a7","transferOwnership(address)":"f2fde38b","updateVenue(uint256,string,string,address,int256,int256,uint256,string)":"84b03c44","upgradeToAndCall(address,bytes)":"4f1ef286","uri(uint256)":"0e89341c"},"id":68}