{"abi":[{"type":"function","name":"nominatedVenues","inputs":[{"name":"","type":"address","internalType":"address"}],"outputs":[{"name":"","type":"bool","internalType":"bool"}],"stateMutability":"view"}],"bytecode":{"object":"0x608060405234801561001057600080fd5b5060c58061001f6000396000f3fe6080604052348015600f57600080fd5b506004361060285760003560e01c8063b4ec198014602d575b600080fd5b604d60383660046061565b60026020526000908152604090205460ff1681565b604051901515815260200160405180910390f35b600060208284031215607257600080fd5b81356001600160a01b0381168114608857600080fd5b939250505056fea2646970667358221220907972ecfdf832e5fc9791d28c028e901ad9fe6d003b8e5d85cd9194d4fd0ecd64736f6c63430008140033","linkReferences":{}},"methodIdentifiers":{"nominatedVenues(address)":"b4ec1980"},"id":65}